{
	"data": {
		"bytecode": {
			"linkReferences": {},
			"object": "60a060405262263b80608090815250348015610019575f80fd5b50604051614c58380380614c58833981810160405281019061003b9190610284565b335f73ffffffffffffffffffffffffffffffffffffffff168173ffffffffffffffffffffffffffffffffffffffff16036100ac575f6040517f1e4fbdf70000000000000000000000000000000000000000000000000000000081526004016100a391906102be565b60405180910390fd5b6100bb8161016560201b60201c565b505f8060146101000a81548160ff0219169083151502179055508060015f6101000a81548173ffffffffffffffffffffffffffffffffffffffff021916908373ffffffffffffffffffffffffffffffffffffffff160217905550426007819055505f600281905550674563918244f400006003819055506706f05b59d3b20000600481905550678ac7230489e8000060058190555067016345785d8a0000600681905550506102d7565b5f805f9054906101000a900473ffffffffffffffffffffffffffffffffffffffff169050815f806101000a81548173ffffffffffffffffffffffffffffffffffffffff021916908373ffffffffffffffffffffffffffffffffffffffff1602179055508173ffffffffffffffffffffffffffffffffffffffff168173ffffffffffffffffffffffffffffffffffffffff167f8be0079c531659141344cd1fd0a4f28419497f9722a3daafe3b4186f6b6457e060405160405180910390a35050565b5f80fd5b5f73ffffffffffffffffffffffffffffffffffffffff82169050919050565b5f6102538261022a565b9050919050565b61026381610249565b811461026d575f80fd5b50565b5f8151905061027e8161025a565b92915050565b5f6020828403121561029957610298610226565b5b5f6102a684828501610270565b91505092915050565b6102b881610249565b82525050565b5f6020820190506102d15f8301846102af565b92915050565b6080516149626102f65f395f8181610ae40152610cde01526149625ff3fe608060405260043610610212575f3560e01c806379370df311610117578063aa0b59881161009f578063b9c47aed1161006e578063b9c47aed14610714578063d731559b14610750578063dcd1473b1461077a578063ed25f27c146107a2578063f2fde38b146107cc57610219565b8063aa0b598814610658578063af252dfe14610680578063b0aaefd6146106aa578063b8350f37146106ec57610219565b80638da5cb5b116100e65780638da5cb5b14610571578063905baa611461059b578063955cf223146105c357806396f979d2146105ed578063a888f74c1461062e57610219565b806379370df3146104d95780637caef114146104f55780638456cb591461053157806387bc14251461054757610219565b8063587f5ed71161019a5780636605515911610169578063660551591461041f57806366b570f8146104495780636ca67d1414610473578063715018a61461049b57806375284998146104b157610219565b8063587f5ed7146103935780635c975abb146103bd5780635cb45cb5146103e75780635e52da271461040357610219565b80631ae9df9a116101e15780631ae9df9a146102c457806326224c64146102ec57806334a014dc146103295780633f4ba83a146103535780634c64c0301461036957610219565b806304e48bd11461021d57806305977b4d1461024757806307f910f81461026f57806315ba75f4146102ae57610219565b3661021957005b5f80fd5b348015610228575f80fd5b506102316107f4565b60405161023e9190613164565b60405180910390f35b348015610252575f80fd5b5061026d600480360381019061026891906131bf565b610a1f565b005b34801561027a575f80fd5b5061029560048036038101906102909190613214565b610a73565b6040516102a5949392919061327c565b60405180910390f35b3480156102b9575f80fd5b506102c2610ada565b005b3480156102cf575f80fd5b506102ea60048036038101906102e591906131bf565b610c50565b005b3480156102f7575f80fd5b50610312600480360381019061030d91906132bf565b610ca4565b6040516103209291906132f9565b60405180910390f35b348015610334575f80fd5b5061033d610cc4565b60405161034a9190613320565b60405180910390f35b34801561035e575f80fd5b50610367610cca565b005b348015610374575f80fd5b5061037d610cdc565b60405161038a9190613320565b60405180910390f35b34801561039e575f80fd5b506103a7610d00565b6040516103b49190613320565b60405180910390f35b3480156103c8575f80fd5b506103d1610d06565b6040516103de9190613339565b60405180910390f35b61040160048036038101906103fc9190613560565b610d1b565b005b61041d600480360381019061041891906131bf565b61155b565b005b34801561042a575f80fd5b50610433611977565b6040516104409190613320565b60405180910390f35b348015610454575f80fd5b5061045d61197d565b60405161046a9190613164565b60405180910390f35b34801561047e575f80fd5b50610499600480360381019061049491906131bf565b611ba8565b005b3480156104a6575f80fd5b506104af611cd8565b005b3480156104bc575f80fd5b506104d760048036038101906104d291906131bf565b611ceb565b005b6104f360048036038101906104ee91906135ba565b611e5e565b005b348015610500575f80fd5b5061051b600480360381019061051691906131bf565b6125a5565b6040516105289190613320565b60405180910390f35b34801561053c575f80fd5b506105456125c5565b005b348015610552575f80fd5b5061055b6125d7565b6040516105689190613776565b60405180910390f35b34801561057c575f80fd5b506105856125fc565b604051610592919061379e565b60405180910390f35b3480156105a6575f80fd5b506105c160048036038101906105bc91906132bf565b612623565b005b3480156105ce575f80fd5b506105d761266e565b6040516105e49190613320565b60405180910390f35b3480156105f8575f80fd5b50610613600480360381019061060e91906131bf565b612674565b6040516106259695949392919061380e565b60405180910390f35b348015610639575f80fd5b5061064261277c565b60405161064f9190613320565b60405180910390f35b348015610663575f80fd5b5061067e600480360381019061067991906131bf565b612782565b005b34801561068b575f80fd5b506106946127d6565b6040516106a19190613320565b60405180910390f35b3480156106b5575f80fd5b506106d060048036038101906106cb9190613874565b6127dc565b6040516106e397969594939291906138ca565b60405180910390f35b3480156106f7575f80fd5b50610712600480360381019061070d91906131bf565b612ad2565b005b34801561071f575f80fd5b5061073a600480360381019061073591906131bf565b612b26565b6040516107479190613320565b60405180910390f35b34801561075b575f80fd5b50610764612b46565b6040516107719190613320565b60405180910390f35b348015610785575f80fd5b506107a0600480360381019061079b91906131bf565b612b4c565b005b3480156107ad575f80fd5b506107b6612ba0565b6040516107c39190613320565b60405180910390f35b3480156107d7575f80fd5b506107f260048036038101906107ed91906132bf565b612ba6565b005b60605f60098054905067ffffffffffffffff81111561081657610815613356565b5b60405190808252806020026020018201604052801561084f57816020015b61083c612ecf565b8152602001906001900390816108345790505b5090505f5b600980549050811015610a1757600b5f600983815481106108785761087761395a565b5b905f5260205f20015481526020019081526020015f206040518060c00160405290815f82015f9054906101000a900473ffffffffffffffffffffffffffffffffffffffff1673ffffffffffffffffffffffffffffffffffffffff1673ffffffffffffffffffffffffffffffffffffffff1681526020016001820180546108fd906139b4565b80601f0160208091040260200160405190810160405280929190818152602001828054610929906139b4565b80156109745780601f1061094b57610100808354040283529160200191610974565b820191905f5260205f20905b81548152906001019060200180831161095757829003601f168201915b50505050508152602001600282015f9054906101000a900460ff161515151581526020016002820160019054906101000a900463ffffffff1663ffffffff1663ffffffff16815260200160038201548152602001600482015f9054906101000a900463ffffffff1663ffffffff1663ffffffff16815250508282815181106109ff576109fe61395a565b5b60200260200101819052508080600101915050610854565b508091505090565b610a27612c2a565b5f8111610a69576040517f08c379a0000000000000000000000000000000000000000000000000000000008152600401610a6090613a2e565b60405180910390fd5b8060058190555050565b600c602052815f5260405f20602052805f5260405f205f9150915050805f015f9054906101000a900460ff1690805f0160019054906101000a900460ff1690805f0160029054906101000a900460ff1690805f0160039054906101000a900460ff16905084565b610ae2612c2a565b7f0000000000000000000000000000000000000000000000000000000000000000600754610b109190613a79565b421015610b52576040517f08c379a0000000000000000000000000000000000000000000000000000000008152600401610b4990613af6565b60405180910390fd5b5f60085490505f600881905550426007819055505f610b6f6125fc565b73ffffffffffffffffffffffffffffffffffffffff1682604051610b9290613b41565b5f6040518083038185875af1925050503d805f8114610bcc576040519150601f19603f3d011682016040523d82523d5f602084013e610bd1565b606091505b5050905080610c15576040517f08c379a0000000000000000000000000000000000000000000000000000000008152600401610c0c90613b9f565b60405180910390fd5b7f0d3c6acef4f1bd70f36dad19b43c6b794ac969b546734638671026f801d476fa82604051610c449190613320565b60405180910390a15050565b610c58612c2a565b5f8111610c9a576040517f08c379a0000000000000000000000000000000000000000000000000000000008152600401610c9190613c07565b60405180910390fd5b8060038190555050565b600e602052805f5260405f205f91509050805f0154908060010154905082565b60075481565b610cd2612c2a565b610cda612cb1565b565b7f000000000000000000000000000000000000000000000000000000000000000081565b60085481565b5f8060149054906101000a900460ff16905090565b600654341015610d60576040517f08c379a0000000000000000000000000000000000000000000000000000000008152600401610d5790613c6f565b60405180910390fd5b60065460085f828254610d739190613a79565b925050819055505f600c5f3373ffffffffffffffffffffffffffffffffffffffff1673ffffffffffffffffffffffffffffffffffffffff1681526020019081526020015f205f8481526020019081526020015f209050805f015f9054906101000a900460ff16610e18576040517f08c379a0000000000000000000000000000000000000000000000000000000008152600401610e0f90613cd7565b60405180910390fd5b6002815f0160019054906101000a900460ff1660ff1610610e6e576040517f08c379a0000000000000000000000000000000000000000000000000000000008152600401610e6590613d3f565b60405180910390fd5b805f0160029054906101000a900460ff1615610ebf576040517f08c379a0000000000000000000000000000000000000000000000000000000008152600401610eb690613dcd565b60405180910390fd5b805f01600181819054906101000a900460ff1680929190610edf90613deb565b91906101000a81548160ff021916908360ff160217905550505f600d5f8581526020019081526020015f20805480602002602001604051908101604052809291908181526020015f905b8282101561123c578382905f5260205f2090600702016040518060e00160405290815f8201548152602001600182018054610f63906139b4565b80601f0160208091040260200160405190810160405280929190818152602001828054610f8f906139b4565b8015610fda5780601f10610fb157610100808354040283529160200191610fda565b820191905f5260205f20905b815481529060010190602001808311610fbd57829003601f168201915b50505050508152602001600282018054610ff3906139b4565b80601f016020809104026020016040519081016040528092919081815260200182805461101f906139b4565b801561106a5780601f106110415761010080835404028352916020019161106a565b820191905f5260205f20905b81548152906001019060200180831161104d57829003601f168201915b50505050508152602001600382018054611083906139b4565b80601f01602080910402602001604051908101604052809291908181526020018280546110af906139b4565b80156110fa5780601f106110d1576101008083540402835291602001916110fa565b820191905f5260205f20905b8154815290600101906020018083116110dd57829003601f168201915b50505050508152602001600482018054611113906139b4565b80601f016020809104026020016040519081016040528092919081815260200182805461113f906139b4565b801561118a5780601f106111615761010080835404028352916020019161118a565b820191905f5260205f20905b81548152906001019060200180831161116d57829003601f168201915b505050505081526020016005820180546111a3906139b4565b80601f01602080910402602001604051908101604052809291908181526020018280546111cf906139b4565b801561121a5780601f106111f15761010080835404028352916020019161121a565b820191905f5260205f20905b8154815290600101906020018083116111fd57829003601f168201915b5050505050815260200160068201548152505081526020019060010190610f29565b5050505090508051835114611286576040517f08c379a000000000000000000000000000000000000000000000000000000000815260040161127d90613e5d565b60405180910390fd5b5f600190505f5b8251811015611310578281815181106112a9576112a861395a565b5b602002602001015160c001518582815181106112c8576112c761395a565b5b60200260200101516040516020016112e09190613eb5565b6040516020818303038152906040528051906020012014611303575f9150611310565b808060010191505061128d565b508015611505576001835f0160026101000a81548160ff021916908315150217905550600b5f8681526020019081526020015f20600201600181819054906101000a900463ffffffff168092919061136790613ecb565b91906101000a81548163ffffffff021916908363ffffffff16021790555050600454600b5f8781526020019081526020015f206003015f8282546113ab9190613a79565b925050819055506064600e5f3373ffffffffffffffffffffffffffffffffffffffff1673ffffffffffffffffffffffffffffffffffffffff1681526020019081526020015f205f015f8282546114019190613a79565b925050819055505f3373ffffffffffffffffffffffffffffffffffffffff1660045460405161142f90613b41565b5f6040518083038185875af1925050503d805f8114611469576040519150601f19603f3d011682016040523d82523d5f602084013e61146e565b606091505b50509050806114b2576040517f08c379a00000000000000000000000000000000000000000000000000000000081526004016114a990613f40565b60405180910390fd5b3373ffffffffffffffffffffffffffffffffffffffff16867f24b5efa61dd1cfc659205a97fb8ed868f3cb8c81922bab2b96423e5de1de2cb76004546040516114fb9190613320565b60405180910390a3505b3373ffffffffffffffffffffffffffffffffffffffff16857faee8895c1bf669485cee2dd54d1eee9e65b02a244afb6f798f95d72405cdf7a58360405161154c9190613339565b60405180910390a35050505050565b611563612d12565b6006543410156115a8576040517f08c379a000000000000000000000000000000000000000000000000000000000815260040161159f90613c6f565b60405180910390fd5b60065460085f8282546115bb9190613a79565b9250508190555060025460015f9054906101000a900473ffffffffffffffffffffffffffffffffffffffff1673ffffffffffffffffffffffffffffffffffffffff1663b9f79451336040518263ffffffff1660e01b815260040161161f919061379e565b602060405180830381865afa15801561163a573d5f803e3d5ffd5b505050506040513d601f19601f8201168201806040525081019061165e9190613f72565b101561169f576040517f08c379a00000000000000000000000000000000000000000000000000000000081526004016116969061400d565b60405180910390fd5b600b5f8281526020019081526020015f206002015f9054906101000a900460ff166116ff576040517f08c379a00000000000000000000000000000000000000000000000000000000081526004016116f690614075565b60405180910390fd5b600c5f3373ffffffffffffffffffffffffffffffffffffffff1673ffffffffffffffffffffffffffffffffffffffff1681526020019081526020015f205f8281526020019081526020015f205f015f9054906101000a900460ff161561179a576040517f08c379a0000000000000000000000000000000000000000000000000000000008152600401611791906140dd565b60405180910390fd5b6001600c5f3373ffffffffffffffffffffffffffffffffffffffff1673ffffffffffffffffffffffffffffffffffffffff1681526020019081526020015f205f8381526020019081526020015f205f015f6101000a81548160ff021916908315150217905550600b5f8281526020019081526020015f206004015f81819054906101000a900463ffffffff168092919061183390613ecb565b91906101000a81548163ffffffff021916908363ffffffff160217905550506064600e5f3373ffffffffffffffffffffffffffffffffffffffff1673ffffffffffffffffffffffffffffffffffffffff1681526020019081526020015f205f015f8282546118a19190613a79565b925050819055506064600e5f600b5f8581526020019081526020015f205f015f9054906101000a900473ffffffffffffffffffffffffffffffffffffffff1673ffffffffffffffffffffffffffffffffffffffff1673ffffffffffffffffffffffffffffffffffffffff1681526020019081526020015f205f015f8282546119299190613a79565b925050819055503373ffffffffffffffffffffffffffffffffffffffff16817ffacf1a2842acbad124cbca0a047fe37bc246c68f814e0350c7bd8a022fd1dddb60405160405180910390a350565b600f5481565b60605f600a8054905067ffffffffffffffff81111561199f5761199e613356565b5b6040519080825280602002602001820160405280156119d857816020015b6119c5612ecf565b8152602001906001900390816119bd5790505b5090505f5b600a80549050811015611ba057600b5f600a8381548110611a0157611a0061395a565b5b905f5260205f20015481526020019081526020015f206040518060c00160405290815f82015f9054906101000a900473ffffffffffffffffffffffffffffffffffffffff1673ffffffffffffffffffffffffffffffffffffffff1673ffffffffffffffffffffffffffffffffffffffff168152602001600182018054611a86906139b4565b80601f0160208091040260200160405190810160405280929190818152602001828054611ab2906139b4565b8015611afd5780601f10611ad457610100808354040283529160200191611afd565b820191905f5260205f20905b815481529060010190602001808311611ae057829003601f168201915b50505050508152602001600282015f9054906101000a900460ff161515151581526020016002820160019054906101000a900463ffffffff1663ffffffff1663ffffffff16815260200160038201548152602001600482015f9054906101000a900463ffffffff1663ffffffff1663ffffffff1681525050828281518110611b8857611b8761395a565b5b602002602001018190525080806001019150506119dd565b508091505090565b611bb0612d12565b80600e5f3373ffffffffffffffffffffffffffffffffffffffff1673ffffffffffffffffffffffffffffffffffffffff1681526020019081526020015f205f01541015611c32576040517f08c379a0000000000000000000000000000000000000000000000000000000008152600401611c2990614145565b60405180910390fd5b80600e5f3373ffffffffffffffffffffffffffffffffffffffff1673ffffffffffffffffffffffffffffffffffffffff1681526020019081526020015f205f015f828254611c809190614163565b925050819055503373ffffffffffffffffffffffffffffffffffffffff167f970cb04da579a1c7f68732ffd1e096b32af78d7fc2ae49aa1ce97e22f7a805f982604051611ccd91906141e0565b60405180910390a250565b611ce0612c2a565b611ce95f612d5c565b565b611cf3612c2a565b600b5f8281526020019081526020015f206002015f9054906101000a900460ff1615611d54576040517f08c379a0000000000000000000000000000000000000000000000000000000008152600401611d4b90614256565b60405180910390fd5b6001600b5f8381526020019081526020015f206002015f6101000a81548160ff021916908315150217905550600a81908060018154018082558091505060019003905f5260205f20015f90919091909150556064600e5f600b5f8581526020019081526020015f205f015f9054906101000a900473ffffffffffffffffffffffffffffffffffffffff1673ffffffffffffffffffffffffffffffffffffffff1673ffffffffffffffffffffffffffffffffffffffff1681526020019081526020015f205f015f828254611e279190613a79565b92505081905550807f87c1c0e5cd17beb8c61a3337b32c66021cb179dd6f97d6d9ce923a029092bd4560405160405180910390a250565b611e66612d12565b600654341015611eab576040517f08c379a0000000000000000000000000000000000000000000000000000000008152600401611ea290613c6f565b60405180910390fd5b60065460085f828254611ebe9190613a79565b9250508190555060035460015f9054906101000a900473ffffffffffffffffffffffffffffffffffffffff1673ffffffffffffffffffffffffffffffffffffffff1663b9f79451336040518263ffffffff1660e01b8152600401611f22919061379e565b602060405180830381865afa158015611f3d573d5f803e3d5ffd5b505050506040513d601f19601f82011682018060405250810190611f619190613f72565b1015611fa2576040517f08c379a0000000000000000000000000000000000000000000000000000000008152600401611f99906142e4565b60405180910390fd5b60058651148015611fb4575084518651145b8015611fc1575083518651145b8015611fce575082518651145b8015611fdb575081518651145b8015611fe8575080518651145b612027576040517f08c379a000000000000000000000000000000000000000000000000000000000815260040161201e9061434c565b60405180910390fd5b5f600f5f81548092919061203a9061436a565b9190505590506040518060c001604052803373ffffffffffffffffffffffffffffffffffffffff1681526020018981526020015f151581526020015f63ffffffff1681526020015f81526020015f63ffffffff16815250600b5f8381526020019081526020015f205f820151815f015f6101000a81548173ffffffffffffffffffffffffffffffffffffffff021916908373ffffffffffffffffffffffffffffffffffffffff16021790555060208201518160010190816120fb9190614545565b506040820151816002015f6101000a81548160ff02191690831515021790555060608201518160020160016101000a81548163ffffffff021916908363ffffffff1602179055506080820151816003015560a0820151816004015f6101000a81548163ffffffff021916908363ffffffff160217905550905050600981908060018154018082558091505060019003905f5260205f20015f90919091909150555f5b8751811015612556576040516020016121b59061465e565b604051602081830303815290604052805190602001208382815181106121de576121dd61395a565b5b60200260200101516040516020016121f69190613eb5565b60405160208183030381529060405280519060200120148061227b5750604051602001612222906146bc565b6040516020818303038152906040528051906020012083828151811061224b5761224a61395a565b5b60200260200101516040516020016122639190613eb5565b60405160208183030381529060405280519060200120145b806122e957506040516020016122909061471a565b604051602081830303815290604052805190602001208382815181106122b9576122b861395a565b5b60200260200101516040516020016122d19190613eb5565b60405160208183030381529060405280519060200120145b8061235757506040516020016122fe90614778565b604051602081830303815290604052805190602001208382815181106123275761232661395a565b5b602002602001015160405160200161233f9190613eb5565b60405160208183030381529060405280519060200120145b612396576040517f08c379a000000000000000000000000000000000000000000000000000000000815260040161238d906147d6565b60405180910390fd5b5f6040518060e001604052808481526020018a84815181106123bb576123ba61395a565b5b602002602001015181526020018984815181106123db576123da61395a565b5b602002602001015181526020018884815181106123fb576123fa61395a565b5b6020026020010151815260200187848151811061241b5761241a61395a565b5b6020026020010151815260200186848151811061243b5761243a61395a565b5b6020026020010151815260200185848151811061245b5761245a61395a565b5b60200260200101516040516020016124739190613eb5565b604051602081830303815290604052805190602001208152509050600d5f8481526020019081526020015f2081908060018154018082558091505060019003905f5260205f2090600702015f909190919091505f820151815f015560208201518160010190816124e39190614545565b5060408201518160020190816124f99190614545565b50606082015181600301908161250f9190614545565b5060808201518160040190816125259190614545565b5060a082015181600501908161253b9190614545565b5060c08201518160060155505050808060010191505061219d565b503373ffffffffffffffffffffffffffffffffffffffff16817fa68f79aa37f9cdc81c2757cfb3e11e9d7d89ca0a5410fbcf1b61125bc17fb1b760405160405180910390a35050505050505050565b600a81815481106125b4575f80fd5b905f5260205f20015f915090505481565b6125cd612c2a565b6125d5612e1d565b565b60015f9054906101000a900473ffffffffffffffffffffffffffffffffffffffff1681565b5f805f9054906101000a900473ffffffffffffffffffffffffffffffffffffffff16905090565b61262b612c2a565b8060015f6101000a81548173ffffffffffffffffffffffffffffffffffffffff021916908373ffffffffffffffffffffffffffffffffffffffff16021790555050565b60025481565b600b602052805f5260405f205f91509050805f015f9054906101000a900473ffffffffffffffffffffffffffffffffffffffff16908060010180546126b8906139b4565b80601f01602080910402602001604051908101604052809291908181526020018280546126e4906139b4565b801561272f5780601f106127065761010080835404028352916020019161272f565b820191905f5260205f20905b81548152906001019060200180831161271257829003601f168201915b505050505090806002015f9054906101000a900460ff16908060020160019054906101000a900463ffffffff1690806003015490806004015f9054906101000a900463ffffffff16905086565b60055481565b61278a612c2a565b5f81116127cc576040517f08c379a00000000000000000000000000000000000000000000000000000000081526004016127c39061483e565b60405180910390fd5b8060068190555050565b60065481565b600d602052815f5260405f2081815481106127f5575f80fd5b905f5260205f2090600702015f9150915050805f01549080600101805461281b906139b4565b80601f0160208091040260200160405190810160405280929190818152602001828054612847906139b4565b80156128925780601f1061286957610100808354040283529160200191612892565b820191905f5260205f20905b81548152906001019060200180831161287557829003601f168201915b5050505050908060020180546128a7906139b4565b80601f01602080910402602001604051908101604052809291908181526020018280546128d3906139b4565b801561291e5780601f106128f55761010080835404028352916020019161291e565b820191905f5260205f20905b81548152906001019060200180831161290157829003601f168201915b505050505090806003018054612933906139b4565b80601f016020809104026020016040519081016040528092919081815260200182805461295f906139b4565b80156129aa5780601f10612981576101008083540402835291602001916129aa565b820191905f5260205f20905b81548152906001019060200180831161298d57829003601f168201915b5050505050908060040180546129bf906139b4565b80601f01602080910402602001604051908101604052809291908181526020018280546129eb906139b4565b8015612a365780601f10612a0d57610100808354040283529160200191612a36565b820191905f5260205f20905b815481529060010190602001808311612a1957829003601f168201915b505050505090806005018054612a4b906139b4565b80601f0160208091040260200160405190810160405280929190818152602001828054612a77906139b4565b8015612ac25780601f10612a9957610100808354040283529160200191612ac2565b820191905f5260205f20905b815481529060010190602001808311612aa557829003601f168201915b5050505050908060060154905087565b612ada612c2a565b5f8111612b1c576040517f08c379a0000000000000000000000000000000000000000000000000000000008152600401612b1390613a2e565b60405180910390fd5b8060048190555050565b60098181548110612b35575f80fd5b905f5260205f20015f915090505481565b60045481565b612b54612c2a565b5f8111612b96576040517f08c379a0000000000000000000000000000000000000000000000000000000008152600401612b8d90613c07565b60405180910390fd5b8060028190555050565b60035481565b612bae612c2a565b5f73ffffffffffffffffffffffffffffffffffffffff168173ffffffffffffffffffffffffffffffffffffffff1603612c1e575f6040517f1e4fbdf7000000000000000000000000000000000000000000000000000000008152600401612c15919061379e565b60405180910390fd5b612c2781612d5c565b50565b612c32612e7f565b73ffffffffffffffffffffffffffffffffffffffff16612c506125fc565b73ffffffffffffffffffffffffffffffffffffffff1614612caf57612c73612e7f565b6040517f118cdaa7000000000000000000000000000000000000000000000000000000008152600401612ca6919061379e565b60405180910390fd5b565b612cb9612e86565b5f8060146101000a81548160ff0219169083151502179055507f5db9ee0a495bf2e6ff9c91a7834c1ba4fdd244a5e8aa4e537bd38aeae4b073aa612cfb612e7f565b604051612d08919061379e565b60405180910390a1565b612d1a610d06565b15612d5a576040517f08c379a0000000000000000000000000000000000000000000000000000000008152600401612d51906148a6565b60405180910390fd5b565b5f805f9054906101000a900473ffffffffffffffffffffffffffffffffffffffff169050815f806101000a81548173ffffffffffffffffffffffffffffffffffffffff021916908373ffffffffffffffffffffffffffffffffffffffff1602179055508173ffffffffffffffffffffffffffffffffffffffff168173ffffffffffffffffffffffffffffffffffffffff167f8be0079c531659141344cd1fd0a4f28419497f9722a3daafe3b4186f6b6457e060405160405180910390a35050565b612e25612d12565b60015f60146101000a81548160ff0219169083151502179055507f62e78cea01bee320cd4e420270b5ea74000d11b0c9f74754ebdbfc544b05a258612e68612e7f565b604051612e75919061379e565b60405180910390a1565b5f33905090565b612e8e610d06565b612ecd576040517f08c379a0000000000000000000000000000000000000000000000000000000008152600401612ec49061490e565b60405180910390fd5b565b6040518060c001604052805f73ffffffffffffffffffffffffffffffffffffffff168152602001606081526020015f151581526020015f63ffffffff1681526020015f81526020015f63ffffffff1681525090565b5f81519050919050565b5f82825260208201905092915050565b5f819050602082019050919050565b5f73ffffffffffffffffffffffffffffffffffffffff82169050919050565b5f612f7682612f4d565b9050919050565b612f8681612f6c565b82525050565b5f81519050919050565b5f82825260208201905092915050565b8281835e5f83830152505050565b5f601f19601f8301169050919050565b5f612fce82612f8c565b612fd88185612f96565b9350612fe8818560208601612fa6565b612ff181612fb4565b840191505092915050565b5f8115159050919050565b61301081612ffc565b82525050565b5f63ffffffff82169050919050565b61302e81613016565b82525050565b5f819050919050565b61304681613034565b82525050565b5f60c083015f8301516130615f860182612f7d565b50602083015184820360208601526130798282612fc4565b915050604083015161308e6040860182613007565b5060608301516130a16060860182613025565b5060808301516130b4608086018261303d565b5060a08301516130c760a0860182613025565b508091505092915050565b5f6130dd838361304c565b905092915050565b5f602082019050919050565b5f6130fb82612f24565b6131058185612f2e565b93508360208202850161311785612f3e565b805f5b85811015613152578484038952815161313385826130d2565b945061313e836130e5565b925060208a0199505060018101905061311a565b50829750879550505050505092915050565b5f6020820190508181035f83015261317c81846130f1565b905092915050565b5f604051905090565b5f80fd5b5f80fd5b61319e81613034565b81146131a8575f80fd5b50565b5f813590506131b981613195565b92915050565b5f602082840312156131d4576131d361318d565b5b5f6131e1848285016131ab565b91505092915050565b6131f381612f6c565b81146131fd575f80fd5b50565b5f8135905061320e816131ea565b92915050565b5f806040838503121561322a5761322961318d565b5b5f61323785828601613200565b9250506020613248858286016131ab565b9150509250929050565b61325b81612ffc565b82525050565b5f60ff82169050919050565b61327681613261565b82525050565b5f60808201905061328f5f830187613252565b61329c602083018661326d565b6132a96040830185613252565b6132b66060830184613252565b95945050505050565b5f602082840312156132d4576132d361318d565b5b5f6132e184828501613200565b91505092915050565b6132f381613034565b82525050565b5f60408201905061330c5f8301856132ea565b61331960208301846132ea565b9392505050565b5f6020820190506133335f8301846132ea565b92915050565b5f60208201905061334c5f830184613252565b92915050565b5f80fd5b7f4e487b71000000000000000000000000000000000000000000000000000000005f52604160045260245ffd5b61338c82612fb4565b810181811067ffffffffffffffff821117156133ab576133aa613356565b5b80604052505050565b5f6133bd613184565b90506133c98282613383565b919050565b5f67ffffffffffffffff8211156133e8576133e7613356565b5b602082029050602081019050919050565b5f80fd5b5f80fd5b5f67ffffffffffffffff82111561341b5761341a613356565b5b61342482612fb4565b9050602081019050919050565b828183375f83830152505050565b5f61345161344c84613401565b6133b4565b90508281526020810184848401111561346d5761346c6133fd565b5b613478848285613431565b509392505050565b5f82601f83011261349457613493613352565b5b81356134a484826020860161343f565b91505092915050565b5f6134bf6134ba846133ce565b6133b4565b905080838252602082019050602084028301858111156134e2576134e16133f9565b5b835b8181101561352957803567ffffffffffffffff81111561350757613506613352565b5b8086016135148982613480565b855260208501945050506020810190506134e4565b5050509392505050565b5f82601f83011261354757613546613352565b5b81356135578482602086016134ad565b91505092915050565b5f80604083850312156135765761357561318d565b5b5f613583858286016131ab565b925050602083013567ffffffffffffffff8111156135a4576135a3613191565b5b6135b085828601613533565b9150509250929050565b5f805f805f805f60e0888a0312156135d5576135d461318d565b5b5f88013567ffffffffffffffff8111156135f2576135f1613191565b5b6135fe8a828b01613480565b975050602088013567ffffffffffffffff81111561361f5761361e613191565b5b61362b8a828b01613533565b965050604088013567ffffffffffffffff81111561364c5761364b613191565b5b6136588a828b01613533565b955050606088013567ffffffffffffffff81111561367957613678613191565b5b6136858a828b01613533565b945050608088013567ffffffffffffffff8111156136a6576136a5613191565b5b6136b28a828b01613533565b93505060a088013567ffffffffffffffff8111156136d3576136d2613191565b5b6136df8a828b01613533565b92505060c088013567ffffffffffffffff811115613700576136ff613191565b5b61370c8a828b01613533565b91505092959891949750929550565b5f819050919050565b5f61373e61373961373484612f4d565b61371b565b612f4d565b9050919050565b5f61374f82613724565b9050919050565b5f61376082613745565b9050919050565b61377081613756565b82525050565b5f6020820190506137895f830184613767565b92915050565b61379881612f6c565b82525050565b5f6020820190506137b15f83018461378f565b92915050565b5f82825260208201905092915050565b5f6137d182612f8c565b6137db81856137b7565b93506137eb818560208601612fa6565b6137f481612fb4565b840191505092915050565b61380881613016565b82525050565b5f60c0820190506138215f83018961378f565b818103602083015261383381886137c7565b90506138426040830187613252565b61384f60608301866137ff565b61385c60808301856132ea565b61386960a08301846137ff565b979650505050505050565b5f806040838503121561388a5761388961318d565b5b5f613897858286016131ab565b92505060206138a8858286016131ab565b9150509250929050565b5f819050919050565b6138c4816138b2565b82525050565b5f60e0820190506138dd5f83018a6132ea565b81810360208301526138ef81896137c7565b9050818103604083015261390381886137c7565b9050818103606083015261391781876137c7565b9050818103608083015261392b81866137c7565b905081810360a083015261393f81856137c7565b905061394e60c08301846138bb565b98975050505050505050565b7f4e487b71000000000000000000000000000000000000000000000000000000005f52603260045260245ffd5b7f4e487b71000000000000000000000000000000000000000000000000000000005f52602260045260245ffd5b5f60028204905060018216806139cb57607f821691505b6020821081036139de576139dd613987565b5b50919050565b7f526577617264206d7573742062652067726561746572207468616e20300000005f82015250565b5f613a18601d836137b7565b9150613a23826139e4565b602082019050919050565b5f6020820190508181035f830152613a4581613a0c565b9050919050565b7f4e487b71000000000000000000000000000000000000000000000000000000005f52601160045260245ffd5b5f613a8382613034565b9150613a8e83613034565b9250828201905080821115613aa657613aa5613a4c565b5b92915050565b7f5769746864726177616c20696e74657276616c206e6f742072656163686564005f82015250565b5f613ae0601f836137b7565b9150613aeb82613aac565b602082019050919050565b5f6020820190508181035f830152613b0d81613ad4565b9050919050565b5f81905092915050565b50565b5f613b2c5f83613b14565b9150613b3782613b1e565b5f82019050919050565b5f613b4b82613b21565b9150819050919050565b7f4661696c656420746f20776974686472617720676173206665657300000000005f82015250565b5f613b89601b836137b7565b9150613b9482613b55565b602082019050919050565b5f6020820190508181035f830152613bb681613b7d565b9050919050565b7f5468726573686f6c64206d7573742062652067726561746572207468616e20305f82015250565b5f613bf16020836137b7565b9150613bfc82613bbd565b602082019050919050565b5f6020820190508181035f830152613c1e81613be5565b9050919050565b7f496e73756666696369656e7420676173206665650000000000000000000000005f82015250565b5f613c596014836137b7565b9150613c6482613c25565b602082019050919050565b5f6020820190508181035f830152613c8681613c4d565b9050919050565b7f55736572206e6f7420656e726f6c6c656420696e207468697320636f757273655f82015250565b5f613cc16020836137b7565b9150613ccc82613c8d565b602082019050919050565b5f6020820190508181035f830152613cee81613cb5565b9050919050565b7f4d6178696d756d20617474656d707473207265616368656400000000000000005f82015250565b5f613d296018836137b7565b9150613d3482613cf5565b602082019050919050565b5f6020820190508181035f830152613d5681613d1d565b9050919050565b7f557365722068617320616c726561647920706173736564207468697320636f755f8201527f7273650000000000000000000000000000000000000000000000000000000000602082015250565b5f613db76023836137b7565b9150613dc282613d5d565b604082019050919050565b5f6020820190508181035f830152613de481613dab565b9050919050565b5f613df582613261565b915060ff8203613e0857613e07613a4c565b5b600182019050919050565b7f416e7377657220636f756e74206d69736d6174636800000000000000000000005f82015250565b5f613e476015836137b7565b9150613e5282613e13565b602082019050919050565b5f6020820190508181035f830152613e7481613e3b565b9050919050565b5f81905092915050565b5f613e8f82612f8c565b613e998185613e7b565b9350613ea9818560208601612fa6565b80840191505092915050565b5f613ec08284613e85565b915081905092915050565b5f613ed582613016565b915063ffffffff8203613eeb57613eea613a4c565b5b600182019050919050565b7f4661696c656420746f2073656e64204d414e44000000000000000000000000005f82015250565b5f613f2a6013836137b7565b9150613f3582613ef6565b602082019050919050565b5f6020820190508181035f830152613f5781613f1e565b9050919050565b5f81519050613f6c81613195565b92915050565b5f60208284031215613f8757613f8661318d565b5b5f613f9484828501613f5e565b91505092915050565b7f496e73756666696369656e742072657075746174696f6e20746f20656e726f6c5f8201527f6c00000000000000000000000000000000000000000000000000000000000000602082015250565b5f613ff76021836137b7565b915061400282613f9d565b604082019050919050565b5f6020820190508181035f83015261402481613feb565b9050919050565b7f436f75727365206e6f7420617070726f766564000000000000000000000000005f82015250565b5f61405f6013836137b7565b915061406a8261402b565b602082019050919050565b5f6020820190508181035f83015261408c81614053565b9050919050565b7f416c726561647920656e726f6c6c6564000000000000000000000000000000005f82015250565b5f6140c76010836137b7565b91506140d282614093565b602082019050919050565b5f6020820190508181035f8301526140f4816140bb565b9050919050565b7f496e73756666696369656e74204d4f4f4e582062616c616e63650000000000005f82015250565b5f61412f601a836137b7565b915061413a826140fb565b602082019050919050565b5f6020820190508181035f83015261415c81614123565b9050919050565b5f61416d82613034565b915061417883613034565b92508282039050818111156141905761418f613a4c565b5b92915050565b7f4d4f4f4e580000000000000000000000000000000000000000000000000000005f82015250565b5f6141ca6005836137b7565b91506141d582614196565b602082019050919050565b5f6040820190508181035f8301526141f7816141be565b905061420660208301846132ea565b92915050565b7f436f7572736520616c726561647920617070726f7665640000000000000000005f82015250565b5f6142406017836137b7565b915061424b8261420c565b602082019050919050565b5f6020820190508181035f83015261426d81614234565b9050919050565b7f496e73756666696369656e742072657075746174696f6e20746f2063726561745f8201527f6520636f75727365000000000000000000000000000000000000000000000000602082015250565b5f6142ce6028836137b7565b91506142d982614274565b604082019050919050565b5f6020820190508181035f8301526142fb816142c2565b9050919050565b7f496e76616c6964207175697a20646174610000000000000000000000000000005f82015250565b5f6143366011836137b7565b915061434182614302565b602082019050919050565b5f6020820190508181035f8301526143638161432a565b9050919050565b5f61437482613034565b91507fffffffffffffffffffffffffffffffffffffffffffffffffffffffffffffffff82036143a6576143a5613a4c565b5b600182019050919050565b5f819050815f5260205f209050919050565b5f6020601f8301049050919050565b5f82821b905092915050565b5f6008830261440d7fffffffffffffffffffffffffffffffffffffffffffffffffffffffffffffffff826143d2565b61441786836143d2565b95508019841693508086168417925050509392505050565b5f61444961444461443f84613034565b61371b565b613034565b9050919050565b5f819050919050565b6144628361442f565b61447661446e82614450565b8484546143de565b825550505050565b5f90565b61448a61447e565b614495818484614459565b505050565b5b818110156144b8576144ad5f82614482565b60018101905061449b565b5050565b601f8211156144fd576144ce816143b1565b6144d7846143c3565b810160208510156144e6578190505b6144fa6144f2856143c3565b83018261449a565b50505b505050565b5f82821c905092915050565b5f61451d5f1984600802614502565b1980831691505092915050565b5f614535838361450e565b9150826002028217905092915050565b61454e82612f8c565b67ffffffffffffffff81111561456757614566613356565b5b61457182546139b4565b61457c8282856144bc565b5f60209050601f8311600181146145ad575f841561459b578287015190505b6145a5858261452a565b86555061460c565b601f1984166145bb866143b1565b5f5b828110156145e2578489015182556001820191506020850194506020810190506145bd565b868310156145ff57848901516145fb601f89168261450e565b8355505b6001600288020188555050505b505050505050565b7f41000000000000000000000000000000000000000000000000000000000000005f82015250565b5f614648600183613e7b565b915061465382614614565b600182019050919050565b5f6146688261463c565b9150819050919050565b7f42000000000000000000000000000000000000000000000000000000000000005f82015250565b5f6146a6600183613e7b565b91506146b182614672565b600182019050919050565b5f6146c68261469a565b9150819050919050565b7f43000000000000000000000000000000000000000000000000000000000000005f82015250565b5f614704600183613e7b565b915061470f826146d0565b600182019050919050565b5f614724826146f8565b9150819050919050565b7f44000000000000000000000000000000000000000000000000000000000000005f82015250565b5f614762600183613e7b565b915061476d8261472e565b600182019050919050565b5f61478282614756565b9150819050919050565b7f496e76616c696420636f727265637420616e73776572000000000000000000005f82015250565b5f6147c06016836137b7565b91506147cb8261478c565b602082019050919050565b5f6020820190508181035f8301526147ed816147b4565b9050919050565b7f466565206d7573742062652067726561746572207468616e20300000000000005f82015250565b5f614828601a836137b7565b9150614833826147f4565b602082019050919050565b5f6020820190508181035f8301526148558161481c565b9050919050565b7f5061757361626c653a20706175736564000000000000000000000000000000005f82015250565b5f6148906010836137b7565b915061489b8261485c565b602082019050919050565b5f6020820190508181035f8301526148bd81614884565b9050919050565b7f5061757361626c653a206e6f74207061757365640000000000000000000000005f82015250565b5f6148f86014836137b7565b9150614903826148c4565b602082019050919050565b5f6020820190508181035f830152614925816148ec565b905091905056fea2646970667358221220407aa653f526922b4456329b4eb56a4673744b98c28ec8a737926d3cb24d863964736f6c634300081a0033",
			"opcodes": "PUSH1 0xA0 PUSH1 0x40 MSTORE PUSH3 0x263B80 PUSH1 0x80 SWAP1 DUP2 MSTORE POP CALLVALUE DUP1 ISZERO PUSH2 0x19 JUMPI PUSH0 DUP1 REVERT JUMPDEST POP PUSH1 0x40 MLOAD PUSH2 0x4C58 CODESIZE SUB DUP1 PUSH2 0x4C58 DUP4 CODECOPY DUP2 DUP2 ADD PUSH1 0x40 MSTORE DUP2 ADD SWAP1 PUSH2 0x3B SWAP2 SWAP1 PUSH2 0x284 JUMP JUMPDEST CALLER PUSH0 PUSH20 0xFFFFFFFFFFFFFFFFFFFFFFFFFFFFFFFFFFFFFFFF AND DUP2 PUSH20 0xFFFFFFFFFFFFFFFFFFFFFFFFFFFFFFFFFFFFFFFF AND SUB PUSH2 0xAC JUMPI PUSH0 PUSH1 0x40 MLOAD PUSH32 0x1E4FBDF700000000000000000000000000000000000000000000000000000000 DUP2 MSTORE PUSH1 0x4 ADD PUSH2 0xA3 SWAP2 SWAP1 PUSH2 0x2BE JUMP JUMPDEST PUSH1 0x40 MLOAD DUP1 SWAP2 SUB SWAP1 REVERT JUMPDEST PUSH2 0xBB DUP2 PUSH2 0x165 PUSH1 0x20 SHL PUSH1 0x20 SHR JUMP JUMPDEST POP PUSH0 DUP1 PUSH1 0x14 PUSH2 0x100 EXP DUP2 SLOAD DUP2 PUSH1 0xFF MUL NOT AND SWAP1 DUP4 ISZERO ISZERO MUL OR SWAP1 SSTORE POP DUP1 PUSH1 0x1 PUSH0 PUSH2 0x100 EXP DUP2 SLOAD DUP2 PUSH20 0xFFFFFFFFFFFFFFFFFFFFFFFFFFFFFFFFFFFFFFFF MUL NOT AND SWAP1 DUP4 PUSH20 0xFFFFFFFFFFFFFFFFFFFFFFFFFFFFFFFFFFFFFFFF AND MUL OR SWAP1 SSTORE POP TIMESTAMP PUSH1 0x7 DUP2 SWAP1 SSTORE POP PUSH0 PUSH1 0x2 DUP2 SWAP1 SSTORE POP PUSH8 0x4563918244F40000 PUSH1 0x3 DUP2 SWAP1 SSTORE POP PUSH8 0x6F05B59D3B20000 PUSH1 0x4 DUP2 SWAP1 SSTORE POP PUSH8 0x8AC7230489E80000 PUSH1 0x5 DUP2 SWAP1 SSTORE POP PUSH8 0x16345785D8A0000 PUSH1 0x6 DUP2 SWAP1 SSTORE POP POP PUSH2 0x2D7 JUMP JUMPDEST PUSH0 DUP1 PUSH0 SWAP1 SLOAD SWAP1 PUSH2 0x100 EXP SWAP1 DIV PUSH20 0xFFFFFFFFFFFFFFFFFFFFFFFFFFFFFFFFFFFFFFFF AND SWAP1 POP DUP2 PUSH0 DUP1 PUSH2 0x100 EXP DUP2 SLOAD DUP2 PUSH20 0xFFFFFFFFFFFFFFFFFFFFFFFFFFFFFFFFFFFFFFFF MUL NOT AND SWAP1 DUP4 PUSH20 0xFFFFFFFFFFFFFFFFFFFFFFFFFFFFFFFFFFFFFFFF AND MUL OR SWAP1 SSTORE POP DUP2 PUSH20 0xFFFFFFFFFFFFFFFFFFFFFFFFFFFFFFFFFFFFFFFF AND DUP2 PUSH20 0xFFFFFFFFFFFFFFFFFFFFFFFFFFFFFFFFFFFFFFFF AND PUSH32 0x8BE0079C531659141344CD1FD0A4F28419497F9722A3DAAFE3B4186F6B6457E0 PUSH1 0x40 MLOAD PUSH1 0x40 MLOAD DUP1 SWAP2 SUB SWAP1 LOG3 POP POP JUMP JUMPDEST PUSH0 DUP1 REVERT JUMPDEST PUSH0 PUSH20 0xFFFFFFFFFFFFFFFFFFFFFFFFFFFFFFFFFFFFFFFF DUP3 AND SWAP1 POP SWAP2 SWAP1 POP JUMP JUMPDEST PUSH0 PUSH2 0x253 DUP3 PUSH2 0x22A JUMP JUMPDEST SWAP1 POP SWAP2 SWAP1 POP JUMP JUMPDEST PUSH2 0x263 DUP2 PUSH2 0x249 JUMP JUMPDEST DUP2 EQ PUSH2 0x26D JUMPI PUSH0 DUP1 REVERT JUMPDEST POP JUMP JUMPDEST PUSH0 DUP2 MLOAD SWAP1 POP PUSH2 0x27E DUP2 PUSH2 0x25A JUMP JUMPDEST SWAP3 SWAP2 POP POP JUMP JUMPDEST PUSH0 PUSH1 0x20 DUP3 DUP5 SUB SLT ISZERO PUSH2 0x299 JUMPI PUSH2 0x298 PUSH2 0x226 JUMP JUMPDEST JUMPDEST PUSH0 PUSH2 0x2A6 DUP5 DUP3 DUP6 ADD PUSH2 0x270 JUMP JUMPDEST SWAP2 POP POP SWAP3 SWAP2 POP POP JUMP JUMPDEST PUSH2 0x2B8 DUP2 PUSH2 0x249 JUMP JUMPDEST DUP3 MSTORE POP POP JUMP JUMPDEST PUSH0 PUSH1 0x20 DUP3 ADD SWAP1 POP PUSH2 0x2D1 PUSH0 DUP4 ADD DUP5 PUSH2 0x2AF JUMP JUMPDEST SWAP3 SWAP2 POP POP JUMP JUMPDEST PUSH1 0x80 MLOAD PUSH2 0x4962 PUSH2 0x2F6 PUSH0 CODECOPY PUSH0 DUP2 DUP2 PUSH2 0xAE4 ADD MSTORE PUSH2 0xCDE ADD MSTORE PUSH2 0x4962 PUSH0 RETURN INVALID PUSH1 0x80 PUSH1 0x40 MSTORE PUSH1 0x4 CALLDATASIZE LT PUSH2 0x212 JUMPI PUSH0 CALLDATALOAD PUSH1 0xE0 SHR DUP1 PUSH4 0x79370DF3 GT PUSH2 0x117 JUMPI DUP1 PUSH4 0xAA0B5988 GT PUSH2 0x9F JUMPI DUP1 PUSH4 0xB9C47AED GT PUSH2 0x6E JUMPI DUP1 PUSH4 0xB9C47AED EQ PUSH2 0x714 JUMPI DUP1 PUSH4 0xD731559B EQ PUSH2 0x750 JUMPI DUP1 PUSH4 0xDCD1473B EQ PUSH2 0x77A JUMPI DUP1 PUSH4 0xED25F27C EQ PUSH2 0x7A2 JUMPI DUP1 PUSH4 0xF2FDE38B EQ PUSH2 0x7CC JUMPI PUSH2 0x219 JUMP JUMPDEST DUP1 PUSH4 0xAA0B5988 EQ PUSH2 0x658 JUMPI DUP1 PUSH4 0xAF252DFE EQ PUSH2 0x680 JUMPI DUP1 PUSH4 0xB0AAEFD6 EQ PUSH2 0x6AA JUMPI DUP1 PUSH4 0xB8350F37 EQ PUSH2 0x6EC JUMPI PUSH2 0x219 JUMP JUMPDEST DUP1 PUSH4 0x8DA5CB5B GT PUSH2 0xE6 JUMPI DUP1 PUSH4 0x8DA5CB5B EQ PUSH2 0x571 JUMPI DUP1 PUSH4 0x905BAA61 EQ PUSH2 0x59B JUMPI DUP1 PUSH4 0x955CF223 EQ PUSH2 0x5C3 JUMPI DUP1 PUSH4 0x96F979D2 EQ PUSH2 0x5ED JUMPI DUP1 PUSH4 0xA888F74C EQ PUSH2 0x62E JUMPI PUSH2 0x219 JUMP JUMPDEST DUP1 PUSH4 0x79370DF3 EQ PUSH2 0x4D9 JUMPI DUP1 PUSH4 0x7CAEF114 EQ PUSH2 0x4F5 JUMPI DUP1 PUSH4 0x8456CB59 EQ PUSH2 0x531 JUMPI DUP1 PUSH4 0x87BC1425 EQ PUSH2 0x547 JUMPI PUSH2 0x219 JUMP JUMPDEST DUP1 PUSH4 0x587F5ED7 GT PUSH2 0x19A JUMPI DUP1 PUSH4 0x66055159 GT PUSH2 0x169 JUMPI DUP1 PUSH4 0x66055159 EQ PUSH2 0x41F JUMPI DUP1 PUSH4 0x66B570F8 EQ PUSH2 0x449 JUMPI DUP1 PUSH4 0x6CA67D14 EQ PUSH2 0x473 JUMPI DUP1 PUSH4 0x715018A6 EQ PUSH2 0x49B JUMPI DUP1 PUSH4 0x75284998 EQ PUSH2 0x4B1 JUMPI PUSH2 0x219 JUMP JUMPDEST DUP1 PUSH4 0x587F5ED7 EQ PUSH2 0x393 JUMPI DUP1 PUSH4 0x5C975ABB EQ PUSH2 0x3BD JUMPI DUP1 PUSH4 0x5CB45CB5 EQ PUSH2 0x3E7 JUMPI DUP1 PUSH4 0x5E52DA27 EQ PUSH2 0x403 JUMPI PUSH2 0x219 JUMP JUMPDEST DUP1 PUSH4 0x1AE9DF9A GT PUSH2 0x1E1 JUMPI DUP1 PUSH4 0x1AE9DF9A EQ PUSH2 0x2C4 JUMPI DUP1 PUSH4 0x26224C64 EQ PUSH2 0x2EC JUMPI DUP1 PUSH4 0x34A014DC EQ PUSH2 0x329 JUMPI DUP1 PUSH4 0x3F4BA83A EQ PUSH2 0x353 JUMPI DUP1 PUSH4 0x4C64C030 EQ PUSH2 0x369 JUMPI PUSH2 0x219 JUMP JUMPDEST DUP1 PUSH4 0x4E48BD1 EQ PUSH2 0x21D JUMPI DUP1 PUSH4 0x5977B4D EQ PUSH2 0x247 JUMPI DUP1 PUSH4 0x7F910F8 EQ PUSH2 0x26F JUMPI DUP1 PUSH4 0x15BA75F4 EQ PUSH2 0x2AE JUMPI PUSH2 0x219 JUMP JUMPDEST CALLDATASIZE PUSH2 0x219 JUMPI STOP JUMPDEST PUSH0 DUP1 REVERT JUMPDEST CALLVALUE DUP1 ISZERO PUSH2 0x228 JUMPI PUSH0 DUP1 REVERT JUMPDEST POP PUSH2 0x231 PUSH2 0x7F4 JUMP JUMPDEST PUSH1 0x40 MLOAD PUSH2 0x23E SWAP2 SWAP1 PUSH2 0x3164 JUMP JUMPDEST PUSH1 0x40 MLOAD DUP1 SWAP2 SUB SWAP1 RETURN JUMPDEST CALLVALUE DUP1 ISZERO PUSH2 0x252 JUMPI PUSH0 DUP1 REVERT JUMPDEST POP PUSH2 0x26D PUSH1 0x4 DUP1 CALLDATASIZE SUB DUP2 ADD SWAP1 PUSH2 0x268 SWAP2 SWAP1 PUSH2 0x31BF JUMP JUMPDEST PUSH2 0xA1F JUMP JUMPDEST STOP JUMPDEST CALLVALUE DUP1 ISZERO PUSH2 0x27A JUMPI PUSH0 DUP1 REVERT JUMPDEST POP PUSH2 0x295 PUSH1 0x4 DUP1 CALLDATASIZE SUB DUP2 ADD SWAP1 PUSH2 0x290 SWAP2 SWAP1 PUSH2 0x3214 JUMP JUMPDEST PUSH2 0xA73 JUMP JUMPDEST PUSH1 0x40 MLOAD PUSH2 0x2A5 SWAP5 SWAP4 SWAP3 SWAP2 SWAP1 PUSH2 0x327C JUMP JUMPDEST PUSH1 0x40 MLOAD DUP1 SWAP2 SUB SWAP1 RETURN JUMPDEST CALLVALUE DUP1 ISZERO PUSH2 0x2B9 JUMPI PUSH0 DUP1 REVERT JUMPDEST POP PUSH2 0x2C2 PUSH2 0xADA JUMP JUMPDEST STOP JUMPDEST CALLVALUE DUP1 ISZERO PUSH2 0x2CF JUMPI PUSH0 DUP1 REVERT JUMPDEST POP PUSH2 0x2EA PUSH1 0x4 DUP1 CALLDATASIZE SUB DUP2 ADD SWAP1 PUSH2 0x2E5 SWAP2 SWAP1 PUSH2 0x31BF JUMP JUMPDEST PUSH2 0xC50 JUMP JUMPDEST STOP JUMPDEST CALLVALUE DUP1 ISZERO PUSH2 0x2F7 JUMPI PUSH0 DUP1 REVERT JUMPDEST POP PUSH2 0x312 PUSH1 0x4 DUP1 CALLDATASIZE SUB DUP2 ADD SWAP1 PUSH2 0x30D SWAP2 SWAP1 PUSH2 0x32BF JUMP JUMPDEST PUSH2 0xCA4 JUMP JUMPDEST PUSH1 0x40 MLOAD PUSH2 0x320 SWAP3 SWAP2 SWAP1 PUSH2 0x32F9 JUMP JUMPDEST PUSH1 0x40 MLOAD DUP1 SWAP2 SUB SWAP1 RETURN JUMPDEST CALLVALUE DUP1 ISZERO PUSH2 0x334 JUMPI PUSH0 DUP1 REVERT JUMPDEST POP PUSH2 0x33D PUSH2 0xCC4 JUMP JUMPDEST PUSH1 0x40 MLOAD PUSH2 0x34A SWAP2 SWAP1 PUSH2 0x3320 JUMP JUMPDEST PUSH1 0x40 MLOAD DUP1 SWAP2 SUB SWAP1 RETURN JUMPDEST CALLVALUE DUP1 ISZERO PUSH2 0x35E JUMPI PUSH0 DUP1 REVERT JUMPDEST POP PUSH2 0x367 PUSH2 0xCCA JUMP JUMPDEST STOP JUMPDEST CALLVALUE DUP1 ISZERO PUSH2 0x374 JUMPI PUSH0 DUP1 REVERT JUMPDEST POP PUSH2 0x37D PUSH2 0xCDC JUMP JUMPDEST PUSH1 0x40 MLOAD PUSH2 0x38A SWAP2 SWAP1 PUSH2 0x3320 JUMP JUMPDEST PUSH1 0x40 MLOAD DUP1 SWAP2 SUB SWAP1 RETURN JUMPDEST CALLVALUE DUP1 ISZERO PUSH2 0x39E JUMPI PUSH0 DUP1 REVERT JUMPDEST POP PUSH2 0x3A7 PUSH2 0xD00 JUMP JUMPDEST PUSH1 0x40 MLOAD PUSH2 0x3B4 SWAP2 SWAP1 PUSH2 0x3320 JUMP JUMPDEST PUSH1 0x40 MLOAD DUP1 SWAP2 SUB SWAP1 RETURN JUMPDEST CALLVALUE DUP1 ISZERO PUSH2 0x3C8 JUMPI PUSH0 DUP1 REVERT JUMPDEST POP PUSH2 0x3D1 PUSH2 0xD06 JUMP JUMPDEST PUSH1 0x40 MLOAD PUSH2 0x3DE SWAP2 SWAP1 PUSH2 0x3339 JUMP JUMPDEST PUSH1 0x40 MLOAD DUP1 SWAP2 SUB SWAP1 RETURN JUMPDEST PUSH2 0x401 PUSH1 0x4 DUP1 CALLDATASIZE SUB DUP2 ADD SWAP1 PUSH2 0x3FC SWAP2 SWAP1 PUSH2 0x3560 JUMP JUMPDEST PUSH2 0xD1B JUMP JUMPDEST STOP JUMPDEST PUSH2 0x41D PUSH1 0x4 DUP1 CALLDATASIZE SUB DUP2 ADD SWAP1 PUSH2 0x418 SWAP2 SWAP1 PUSH2 0x31BF JUMP JUMPDEST PUSH2 0x155B JUMP JUMPDEST STOP JUMPDEST CALLVALUE DUP1 ISZERO PUSH2 0x42A JUMPI PUSH0 DUP1 REVERT JUMPDEST POP PUSH2 0x433 PUSH2 0x1977 JUMP JUMPDEST PUSH1 0x40 MLOAD PUSH2 0x440 SWAP2 SWAP1 PUSH2 0x3320 JUMP JUMPDEST PUSH1 0x40 MLOAD DUP1 SWAP2 SUB SWAP1 RETURN JUMPDEST CALLVALUE DUP1 ISZERO PUSH2 0x454 JUMPI PUSH0 DUP1 REVERT JUMPDEST POP PUSH2 0x45D PUSH2 0x197D JUMP JUMPDEST PUSH1 0x40 MLOAD PUSH2 0x46A SWAP2 SWAP1 PUSH2 0x3164 JUMP JUMPDEST PUSH1 0x40 MLOAD DUP1 SWAP2 SUB SWAP1 RETURN JUMPDEST CALLVALUE DUP1 ISZERO PUSH2 0x47E JUMPI PUSH0 DUP1 REVERT JUMPDEST POP PUSH2 0x499 PUSH1 0x4 DUP1 CALLDATASIZE SUB DUP2 ADD SWAP1 PUSH2 0x494 SWAP2 SWAP1 PUSH2 0x31BF JUMP JUMPDEST PUSH2 0x1BA8 JUMP JUMPDEST STOP JUMPDEST CALLVALUE DUP1 ISZERO PUSH2 0x4A6 JUMPI PUSH0 DUP1 REVERT JUMPDEST POP PUSH2 0x4AF PUSH2 0x1CD8 JUMP JUMPDEST STOP JUMPDEST CALLVALUE DUP1 ISZERO PUSH2 0x4BC JUMPI PUSH0 DUP1 REVERT JUMPDEST POP PUSH2 0x4D7 PUSH1 0x4 DUP1 CALLDATASIZE SUB DUP2 ADD SWAP1 PUSH2 0x4D2 SWAP2 SWAP1 PUSH2 0x31BF JUMP JUMPDEST PUSH2 0x1CEB JUMP JUMPDEST STOP JUMPDEST PUSH2 0x4F3 PUSH1 0x4 DUP1 CALLDATASIZE SUB DUP2 ADD SWAP1 PUSH2 0x4EE SWAP2 SWAP1 PUSH2 0x35BA JUMP JUMPDEST PUSH2 0x1E5E JUMP JUMPDEST STOP JUMPDEST CALLVALUE DUP1 ISZERO PUSH2 0x500 JUMPI PUSH0 DUP1 REVERT JUMPDEST POP PUSH2 0x51B PUSH1 0x4 DUP1 CALLDATASIZE SUB DUP2 ADD SWAP1 PUSH2 0x516 SWAP2 SWAP1 PUSH2 0x31BF JUMP JUMPDEST PUSH2 0x25A5 JUMP JUMPDEST PUSH1 0x40 MLOAD PUSH2 0x528 SWAP2 SWAP1 PUSH2 0x3320 JUMP JUMPDEST PUSH1 0x40 MLOAD DUP1 SWAP2 SUB SWAP1 RETURN JUMPDEST CALLVALUE DUP1 ISZERO PUSH2 0x53C JUMPI PUSH0 DUP1 REVERT JUMPDEST POP PUSH2 0x545 PUSH2 0x25C5 JUMP JUMPDEST STOP JUMPDEST CALLVALUE DUP1 ISZERO PUSH2 0x552 JUMPI PUSH0 DUP1 REVERT JUMPDEST POP PUSH2 0x55B PUSH2 0x25D7 JUMP JUMPDEST PUSH1 0x40 MLOAD PUSH2 0x568 SWAP2 SWAP1 PUSH2 0x3776 JUMP JUMPDEST PUSH1 0x40 MLOAD DUP1 SWAP2 SUB SWAP1 RETURN JUMPDEST CALLVALUE DUP1 ISZERO PUSH2 0x57C JUMPI PUSH0 DUP1 REVERT JUMPDEST POP PUSH2 0x585 PUSH2 0x25FC JUMP JUMPDEST PUSH1 0x40 MLOAD PUSH2 0x592 SWAP2 SWAP1 PUSH2 0x379E JUMP JUMPDEST PUSH1 0x40 MLOAD DUP1 SWAP2 SUB SWAP1 RETURN JUMPDEST CALLVALUE DUP1 ISZERO PUSH2 0x5A6 JUMPI PUSH0 DUP1 REVERT JUMPDEST POP PUSH2 0x5C1 PUSH1 0x4 DUP1 CALLDATASIZE SUB DUP2 ADD SWAP1 PUSH2 0x5BC SWAP2 SWAP1 PUSH2 0x32BF JUMP JUMPDEST PUSH2 0x2623 JUMP JUMPDEST STOP JUMPDEST CALLVALUE DUP1 ISZERO PUSH2 0x5CE JUMPI PUSH0 DUP1 REVERT JUMPDEST POP PUSH2 0x5D7 PUSH2 0x266E JUMP JUMPDEST PUSH1 0x40 MLOAD PUSH2 0x5E4 SWAP2 SWAP1 PUSH2 0x3320 JUMP JUMPDEST PUSH1 0x40 MLOAD DUP1 SWAP2 SUB SWAP1 RETURN JUMPDEST CALLVALUE DUP1 ISZERO PUSH2 0x5F8 JUMPI PUSH0 DUP1 REVERT JUMPDEST POP PUSH2 0x613 PUSH1 0x4 DUP1 CALLDATASIZE SUB DUP2 ADD SWAP1 PUSH2 0x60E SWAP2 SWAP1 PUSH2 0x31BF JUMP JUMPDEST PUSH2 0x2674 JUMP JUMPDEST PUSH1 0x40 MLOAD PUSH2 0x625 SWAP7 SWAP6 SWAP5 SWAP4 SWAP3 SWAP2 SWAP1 PUSH2 0x380E JUMP JUMPDEST PUSH1 0x40 MLOAD DUP1 SWAP2 SUB SWAP1 RETURN JUMPDEST CALLVALUE DUP1 ISZERO PUSH2 0x639 JUMPI PUSH0 DUP1 REVERT JUMPDEST POP PUSH2 0x642 PUSH2 0x277C JUMP JUMPDEST PUSH1 0x40 MLOAD PUSH2 0x64F SWAP2 SWAP1 PUSH2 0x3320 JUMP JUMPDEST PUSH1 0x40 MLOAD DUP1 SWAP2 SUB SWAP1 RETURN JUMPDEST CALLVALUE DUP1 ISZERO PUSH2 0x663 JUMPI PUSH0 DUP1 REVERT JUMPDEST POP PUSH2 0x67E PUSH1 0x4 DUP1 CALLDATASIZE SUB DUP2 ADD SWAP1 PUSH2 0x679 SWAP2 SWAP1 PUSH2 0x31BF JUMP JUMPDEST PUSH2 0x2782 JUMP JUMPDEST STOP JUMPDEST CALLVALUE DUP1 ISZERO PUSH2 0x68B JUMPI PUSH0 DUP1 REVERT JUMPDEST POP PUSH2 0x694 PUSH2 0x27D6 JUMP JUMPDEST PUSH1 0x40 MLOAD PUSH2 0x6A1 SWAP2 SWAP1 PUSH2 0x3320 JUMP JUMPDEST PUSH1 0x40 MLOAD DUP1 SWAP2 SUB SWAP1 RETURN JUMPDEST CALLVALUE DUP1 ISZERO PUSH2 0x6B5 JUMPI PUSH0 DUP1 REVERT JUMPDEST POP PUSH2 0x6D0 PUSH1 0x4 DUP1 CALLDATASIZE SUB DUP2 ADD SWAP1 PUSH2 0x6CB SWAP2 SWAP1 PUSH2 0x3874 JUMP JUMPDEST PUSH2 0x27DC JUMP JUMPDEST PUSH1 0x40 MLOAD PUSH2 0x6E3 SWAP8 SWAP7 SWAP6 SWAP5 SWAP4 SWAP3 SWAP2 SWAP1 PUSH2 0x38CA JUMP JUMPDEST PUSH1 0x40 MLOAD DUP1 SWAP2 SUB SWAP1 RETURN JUMPDEST CALLVALUE DUP1 ISZERO PUSH2 0x6F7 JUMPI PUSH0 DUP1 REVERT JUMPDEST POP PUSH2 0x712 PUSH1 0x4 DUP1 CALLDATASIZE SUB DUP2 ADD SWAP1 PUSH2 0x70D SWAP2 SWAP1 PUSH2 0x31BF JUMP JUMPDEST PUSH2 0x2AD2 JUMP JUMPDEST STOP JUMPDEST CALLVALUE DUP1 ISZERO PUSH2 0x71F JUMPI PUSH0 DUP1 REVERT JUMPDEST POP PUSH2 0x73A PUSH1 0x4 DUP1 CALLDATASIZE SUB DUP2 ADD SWAP1 PUSH2 0x735 SWAP2 SWAP1 PUSH2 0x31BF JUMP JUMPDEST PUSH2 0x2B26 JUMP JUMPDEST PUSH1 0x40 MLOAD PUSH2 0x747 SWAP2 SWAP1 PUSH2 0x3320 JUMP JUMPDEST PUSH1 0x40 MLOAD DUP1 SWAP2 SUB SWAP1 RETURN JUMPDEST CALLVALUE DUP1 ISZERO PUSH2 0x75B JUMPI PUSH0 DUP1 REVERT JUMPDEST POP PUSH2 0x764 PUSH2 0x2B46 JUMP JUMPDEST PUSH1 0x40 MLOAD PUSH2 0x771 SWAP2 SWAP1 PUSH2 0x3320 JUMP JUMPDEST PUSH1 0x40 MLOAD DUP1 SWAP2 SUB SWAP1 RETURN JUMPDEST CALLVALUE DUP1 ISZERO PUSH2 0x785 JUMPI PUSH0 DUP1 REVERT JUMPDEST POP PUSH2 0x7A0 PUSH1 0x4 DUP1 CALLDATASIZE SUB DUP2 ADD SWAP1 PUSH2 0x79B SWAP2 SWAP1 PUSH2 0x31BF JUMP JUMPDEST PUSH2 0x2B4C JUMP JUMPDEST STOP JUMPDEST CALLVALUE DUP1 ISZERO PUSH2 0x7AD JUMPI PUSH0 DUP1 REVERT JUMPDEST POP PUSH2 0x7B6 PUSH2 0x2BA0 JUMP JUMPDEST PUSH1 0x40 MLOAD PUSH2 0x7C3 SWAP2 SWAP1 PUSH2 0x3320 JUMP JUMPDEST PUSH1 0x40 MLOAD DUP1 SWAP2 SUB SWAP1 RETURN JUMPDEST CALLVALUE DUP1 ISZERO PUSH2 0x7D7 JUMPI PUSH0 DUP1 REVERT JUMPDEST POP PUSH2 0x7F2 PUSH1 0x4 DUP1 CALLDATASIZE SUB DUP2 ADD SWAP1 PUSH2 0x7ED SWAP2 SWAP1 PUSH2 0x32BF JUMP JUMPDEST PUSH2 0x2BA6 JUMP JUMPDEST STOP JUMPDEST PUSH1 0x60 PUSH0 PUSH1 0x9 DUP1 SLOAD SWAP1 POP PUSH8 0xFFFFFFFFFFFFFFFF DUP2 GT ISZERO PUSH2 0x816 JUMPI PUSH2 0x815 PUSH2 0x3356 JUMP JUMPDEST JUMPDEST PUSH1 0x40 MLOAD SWAP1 DUP1 DUP3 MSTORE DUP1 PUSH1 0x20 MUL PUSH1 0x20 ADD DUP3 ADD PUSH1 0x40 MSTORE DUP1 ISZERO PUSH2 0x84F JUMPI DUP2 PUSH1 0x20 ADD JUMPDEST PUSH2 0x83C PUSH2 0x2ECF JUMP JUMPDEST DUP2 MSTORE PUSH1 0x20 ADD SWAP1 PUSH1 0x1 SWAP1 SUB SWAP1 DUP2 PUSH2 0x834 JUMPI SWAP1 POP JUMPDEST POP SWAP1 POP PUSH0 JUMPDEST PUSH1 0x9 DUP1 SLOAD SWAP1 POP DUP2 LT ISZERO PUSH2 0xA17 JUMPI PUSH1 0xB PUSH0 PUSH1 0x9 DUP4 DUP2 SLOAD DUP2 LT PUSH2 0x878 JUMPI PUSH2 0x877 PUSH2 0x395A JUMP JUMPDEST JUMPDEST SWAP1 PUSH0 MSTORE PUSH1 0x20 PUSH0 KECCAK256 ADD SLOAD DUP2 MSTORE PUSH1 0x20 ADD SWAP1 DUP2 MSTORE PUSH1 0x20 ADD PUSH0 KECCAK256 PUSH1 0x40 MLOAD DUP1 PUSH1 0xC0 ADD PUSH1 0x40 MSTORE SWAP1 DUP2 PUSH0 DUP3 ADD PUSH0 SWAP1 SLOAD SWAP1 PUSH2 0x100 EXP SWAP1 DIV PUSH20 0xFFFFFFFFFFFFFFFFFFFFFFFFFFFFFFFFFFFFFFFF AND PUSH20 0xFFFFFFFFFFFFFFFFFFFFFFFFFFFFFFFFFFFFFFFF AND PUSH20 0xFFFFFFFFFFFFFFFFFFFFFFFFFFFFFFFFFFFFFFFF AND DUP2 MSTORE PUSH1 0x20 ADD PUSH1 0x1 DUP3 ADD DUP1 SLOAD PUSH2 0x8FD SWAP1 PUSH2 0x39B4 JUMP JUMPDEST DUP1 PUSH1 0x1F ADD PUSH1 0x20 DUP1 SWAP2 DIV MUL PUSH1 0x20 ADD PUSH1 0x40 MLOAD SWAP1 DUP2 ADD PUSH1 0x40 MSTORE DUP1 SWAP3 SWAP2 SWAP1 DUP2 DUP2 MSTORE PUSH1 0x20 ADD DUP3 DUP1 SLOAD PUSH2 0x929 SWAP1 PUSH2 0x39B4 JUMP JUMPDEST DUP1 ISZERO PUSH2 0x974 JUMPI DUP1 PUSH1 0x1F LT PUSH2 0x94B JUMPI PUSH2 0x100 DUP1 DUP4 SLOAD DIV MUL DUP4 MSTORE SWAP2 PUSH1 0x20 ADD SWAP2 PUSH2 0x974 JUMP JUMPDEST DUP3 ADD SWAP2 SWAP1 PUSH0 MSTORE PUSH1 0x20 PUSH0 KECCAK256 SWAP1 JUMPDEST DUP2 SLOAD DUP2 MSTORE SWAP1 PUSH1 0x1 ADD SWAP1 PUSH1 0x20 ADD DUP1 DUP4 GT PUSH2 0x957 JUMPI DUP3 SWAP1 SUB PUSH1 0x1F AND DUP3 ADD SWAP2 JUMPDEST POP POP POP POP POP DUP2 MSTORE PUSH1 0x20 ADD PUSH1 0x2 DUP3 ADD PUSH0 SWAP1 SLOAD SWAP1 PUSH2 0x100 EXP SWAP1 DIV PUSH1 0xFF AND ISZERO ISZERO ISZERO ISZERO DUP2 MSTORE PUSH1 0x20 ADD PUSH1 0x2 DUP3 ADD PUSH1 0x1 SWAP1 SLOAD SWAP1 PUSH2 0x100 EXP SWAP1 DIV PUSH4 0xFFFFFFFF AND PUSH4 0xFFFFFFFF AND PUSH4 0xFFFFFFFF AND DUP2 MSTORE PUSH1 0x20 ADD PUSH1 0x3 DUP3 ADD SLOAD DUP2 MSTORE PUSH1 0x20 ADD PUSH1 0x4 DUP3 ADD PUSH0 SWAP1 SLOAD SWAP1 PUSH2 0x100 EXP SWAP1 DIV PUSH4 0xFFFFFFFF AND PUSH4 0xFFFFFFFF AND PUSH4 0xFFFFFFFF AND DUP2 MSTORE POP POP DUP3 DUP3 DUP2 MLOAD DUP2 LT PUSH2 0x9FF JUMPI PUSH2 0x9FE PUSH2 0x395A JUMP JUMPDEST JUMPDEST PUSH1 0x20 MUL PUSH1 0x20 ADD ADD DUP2 SWAP1 MSTORE POP DUP1 DUP1 PUSH1 0x1 ADD SWAP2 POP POP PUSH2 0x854 JUMP JUMPDEST POP DUP1 SWAP2 POP POP SWAP1 JUMP JUMPDEST PUSH2 0xA27 PUSH2 0x2C2A JUMP JUMPDEST PUSH0 DUP2 GT PUSH2 0xA69 JUMPI PUSH1 0x40 MLOAD PUSH32 0x8C379A000000000000000000000000000000000000000000000000000000000 DUP2 MSTORE PUSH1 0x4 ADD PUSH2 0xA60 SWAP1 PUSH2 0x3A2E JUMP JUMPDEST PUSH1 0x40 MLOAD DUP1 SWAP2 SUB SWAP1 REVERT JUMPDEST DUP1 PUSH1 0x5 DUP2 SWAP1 SSTORE POP POP JUMP JUMPDEST PUSH1 0xC PUSH1 0x20 MSTORE DUP2 PUSH0 MSTORE PUSH1 0x40 PUSH0 KECCAK256 PUSH1 0x20 MSTORE DUP1 PUSH0 MSTORE PUSH1 0x40 PUSH0 KECCAK256 PUSH0 SWAP2 POP SWAP2 POP POP DUP1 PUSH0 ADD PUSH0 SWAP1 SLOAD SWAP1 PUSH2 0x100 EXP SWAP1 DIV PUSH1 0xFF AND SWAP1 DUP1 PUSH0 ADD PUSH1 0x1 SWAP1 SLOAD SWAP1 PUSH2 0x100 EXP SWAP1 DIV PUSH1 0xFF AND SWAP1 DUP1 PUSH0 ADD PUSH1 0x2 SWAP1 SLOAD SWAP1 PUSH2 0x100 EXP SWAP1 DIV PUSH1 0xFF AND SWAP1 DUP1 PUSH0 ADD PUSH1 0x3 SWAP1 SLOAD SWAP1 PUSH2 0x100 EXP SWAP1 DIV PUSH1 0xFF AND SWAP1 POP DUP5 JUMP JUMPDEST PUSH2 0xAE2 PUSH2 0x2C2A JUMP JUMPDEST PUSH32 0x0 PUSH1 0x7 SLOAD PUSH2 0xB10 SWAP2 SWAP1 PUSH2 0x3A79 JUMP JUMPDEST TIMESTAMP LT ISZERO PUSH2 0xB52 JUMPI PUSH1 0x40 MLOAD PUSH32 0x8C379A000000000000000000000000000000000000000000000000000000000 DUP2 MSTORE PUSH1 0x4 ADD PUSH2 0xB49 SWAP1 PUSH2 0x3AF6 JUMP JUMPDEST PUSH1 0x40 MLOAD DUP1 SWAP2 SUB SWAP1 REVERT JUMPDEST PUSH0 PUSH1 0x8 SLOAD SWAP1 POP PUSH0 PUSH1 0x8 DUP2 SWAP1 SSTORE POP TIMESTAMP PUSH1 0x7 DUP2 SWAP1 SSTORE POP PUSH0 PUSH2 0xB6F PUSH2 0x25FC JUMP JUMPDEST PUSH20 0xFFFFFFFFFFFFFFFFFFFFFFFFFFFFFFFFFFFFFFFF AND DUP3 PUSH1 0x40 MLOAD PUSH2 0xB92 SWAP1 PUSH2 0x3B41 JUMP JUMPDEST PUSH0 PUSH1 0x40 MLOAD DUP1 DUP4 SUB DUP2 DUP6 DUP8 GAS CALL SWAP3 POP POP POP RETURNDATASIZE DUP1 PUSH0 DUP2 EQ PUSH2 0xBCC JUMPI PUSH1 0x40 MLOAD SWAP2 POP PUSH1 0x1F NOT PUSH1 0x3F RETURNDATASIZE ADD AND DUP3 ADD PUSH1 0x40 MSTORE RETURNDATASIZE DUP3 MSTORE RETURNDATASIZE PUSH0 PUSH1 0x20 DUP5 ADD RETURNDATACOPY PUSH2 0xBD1 JUMP JUMPDEST PUSH1 0x60 SWAP2 POP JUMPDEST POP POP SWAP1 POP DUP1 PUSH2 0xC15 JUMPI PUSH1 0x40 MLOAD PUSH32 0x8C379A000000000000000000000000000000000000000000000000000000000 DUP2 MSTORE PUSH1 0x4 ADD PUSH2 0xC0C SWAP1 PUSH2 0x3B9F JUMP JUMPDEST PUSH1 0x40 MLOAD DUP1 SWAP2 SUB SWAP1 REVERT JUMPDEST PUSH32 0xD3C6ACEF4F1BD70F36DAD19B43C6B794AC969B546734638671026F801D476FA DUP3 PUSH1 0x40 MLOAD PUSH2 0xC44 SWAP2 SWAP1 PUSH2 0x3320 JUMP JUMPDEST PUSH1 0x40 MLOAD DUP1 SWAP2 SUB SWAP1 LOG1 POP POP JUMP JUMPDEST PUSH2 0xC58 PUSH2 0x2C2A JUMP JUMPDEST PUSH0 DUP2 GT PUSH2 0xC9A JUMPI PUSH1 0x40 MLOAD PUSH32 0x8C379A000000000000000000000000000000000000000000000000000000000 DUP2 MSTORE PUSH1 0x4 ADD PUSH2 0xC91 SWAP1 PUSH2 0x3C07 JUMP JUMPDEST PUSH1 0x40 MLOAD DUP1 SWAP2 SUB SWAP1 REVERT JUMPDEST DUP1 PUSH1 0x3 DUP2 SWAP1 SSTORE POP POP JUMP JUMPDEST PUSH1 0xE PUSH1 0x20 MSTORE DUP1 PUSH0 MSTORE PUSH1 0x40 PUSH0 KECCAK256 PUSH0 SWAP2 POP SWAP1 POP DUP1 PUSH0 ADD SLOAD SWAP1 DUP1 PUSH1 0x1 ADD SLOAD SWAP1 POP DUP3 JUMP JUMPDEST PUSH1 0x7 SLOAD DUP2 JUMP JUMPDEST PUSH2 0xCD2 PUSH2 0x2C2A JUMP JUMPDEST PUSH2 0xCDA PUSH2 0x2CB1 JUMP JUMPDEST JUMP JUMPDEST PUSH32 0x0 DUP2 JUMP JUMPDEST PUSH1 0x8 SLOAD DUP2 JUMP JUMPDEST PUSH0 DUP1 PUSH1 0x14 SWAP1 SLOAD SWAP1 PUSH2 0x100 EXP SWAP1 DIV PUSH1 0xFF AND SWAP1 POP SWAP1 JUMP JUMPDEST PUSH1 0x6 SLOAD CALLVALUE LT ISZERO PUSH2 0xD60 JUMPI PUSH1 0x40 MLOAD PUSH32 0x8C379A000000000000000000000000000000000000000000000000000000000 DUP2 MSTORE PUSH1 0x4 ADD PUSH2 0xD57 SWAP1 PUSH2 0x3C6F JUMP JUMPDEST PUSH1 0x40 MLOAD DUP1 SWAP2 SUB SWAP1 REVERT JUMPDEST PUSH1 0x6 SLOAD PUSH1 0x8 PUSH0 DUP3 DUP3 SLOAD PUSH2 0xD73 SWAP2 SWAP1 PUSH2 0x3A79 JUMP JUMPDEST SWAP3 POP POP DUP2 SWAP1 SSTORE POP PUSH0 PUSH1 0xC PUSH0 CALLER PUSH20 0xFFFFFFFFFFFFFFFFFFFFFFFFFFFFFFFFFFFFFFFF AND PUSH20 0xFFFFFFFFFFFFFFFFFFFFFFFFFFFFFFFFFFFFFFFF AND DUP2 MSTORE PUSH1 0x20 ADD SWAP1 DUP2 MSTORE PUSH1 0x20 ADD PUSH0 KECCAK256 PUSH0 DUP5 DUP2 MSTORE PUSH1 0x20 ADD SWAP1 DUP2 MSTORE PUSH1 0x20 ADD PUSH0 KECCAK256 SWAP1 POP DUP1 PUSH0 ADD PUSH0 SWAP1 SLOAD SWAP1 PUSH2 0x100 EXP SWAP1 DIV PUSH1 0xFF AND PUSH2 0xE18 JUMPI PUSH1 0x40 MLOAD PUSH32 0x8C379A000000000000000000000000000000000000000000000000000000000 DUP2 MSTORE PUSH1 0x4 ADD PUSH2 0xE0F SWAP1 PUSH2 0x3CD7 JUMP JUMPDEST PUSH1 0x40 MLOAD DUP1 SWAP2 SUB SWAP1 REVERT JUMPDEST PUSH1 0x2 DUP2 PUSH0 ADD PUSH1 0x1 SWAP1 SLOAD SWAP1 PUSH2 0x100 EXP SWAP1 DIV PUSH1 0xFF AND PUSH1 0xFF AND LT PUSH2 0xE6E JUMPI PUSH1 0x40 MLOAD PUSH32 0x8C379A000000000000000000000000000000000000000000000000000000000 DUP2 MSTORE PUSH1 0x4 ADD PUSH2 0xE65 SWAP1 PUSH2 0x3D3F JUMP JUMPDEST PUSH1 0x40 MLOAD DUP1 SWAP2 SUB SWAP1 REVERT JUMPDEST DUP1 PUSH0 ADD PUSH1 0x2 SWAP1 SLOAD SWAP1 PUSH2 0x100 EXP SWAP1 DIV PUSH1 0xFF AND ISZERO PUSH2 0xEBF JUMPI PUSH1 0x40 MLOAD PUSH32 0x8C379A000000000000000000000000000000000000000000000000000000000 DUP2 MSTORE PUSH1 0x4 ADD PUSH2 0xEB6 SWAP1 PUSH2 0x3DCD JUMP JUMPDEST PUSH1 0x40 MLOAD DUP1 SWAP2 SUB SWAP1 REVERT JUMPDEST DUP1 PUSH0 ADD PUSH1 0x1 DUP2 DUP2 SWAP1 SLOAD SWAP1 PUSH2 0x100 EXP SWAP1 DIV PUSH1 0xFF AND DUP1 SWAP3 SWAP2 SWAP1 PUSH2 0xEDF SWAP1 PUSH2 0x3DEB JUMP JUMPDEST SWAP2 SWAP1 PUSH2 0x100 EXP DUP2 SLOAD DUP2 PUSH1 0xFF MUL NOT AND SWAP1 DUP4 PUSH1 0xFF AND MUL OR SWAP1 SSTORE POP POP PUSH0 PUSH1 0xD PUSH0 DUP6 DUP2 MSTORE PUSH1 0x20 ADD SWAP1 DUP2 MSTORE PUSH1 0x20 ADD PUSH0 KECCAK256 DUP1 SLOAD DUP1 PUSH1 0x20 MUL PUSH1 0x20 ADD PUSH1 0x40 MLOAD SWAP1 DUP2 ADD PUSH1 0x40 MSTORE DUP1 SWAP3 SWAP2 SWAP1 DUP2 DUP2 MSTORE PUSH1 0x20 ADD PUSH0 SWAP1 JUMPDEST DUP3 DUP3 LT ISZERO PUSH2 0x123C JUMPI DUP4 DUP3 SWAP1 PUSH0 MSTORE PUSH1 0x20 PUSH0 KECCAK256 SWAP1 PUSH1 0x7 MUL ADD PUSH1 0x40 MLOAD DUP1 PUSH1 0xE0 ADD PUSH1 0x40 MSTORE SWAP1 DUP2 PUSH0 DUP3 ADD SLOAD DUP2 MSTORE PUSH1 0x20 ADD PUSH1 0x1 DUP3 ADD DUP1 SLOAD PUSH2 0xF63 SWAP1 PUSH2 0x39B4 JUMP JUMPDEST DUP1 PUSH1 0x1F ADD PUSH1 0x20 DUP1 SWAP2 DIV MUL PUSH1 0x20 ADD PUSH1 0x40 MLOAD SWAP1 DUP2 ADD PUSH1 0x40 MSTORE DUP1 SWAP3 SWAP2 SWAP1 DUP2 DUP2 MSTORE PUSH1 0x20 ADD DUP3 DUP1 SLOAD PUSH2 0xF8F SWAP1 PUSH2 0x39B4 JUMP JUMPDEST DUP1 ISZERO PUSH2 0xFDA JUMPI DUP1 PUSH1 0x1F LT PUSH2 0xFB1 JUMPI PUSH2 0x100 DUP1 DUP4 SLOAD DIV MUL DUP4 MSTORE SWAP2 PUSH1 0x20 ADD SWAP2 PUSH2 0xFDA JUMP JUMPDEST DUP3 ADD SWAP2 SWAP1 PUSH0 MSTORE PUSH1 0x20 PUSH0 KECCAK256 SWAP1 JUMPDEST DUP2 SLOAD DUP2 MSTORE SWAP1 PUSH1 0x1 ADD SWAP1 PUSH1 0x20 ADD DUP1 DUP4 GT PUSH2 0xFBD JUMPI DUP3 SWAP1 SUB PUSH1 0x1F AND DUP3 ADD SWAP2 JUMPDEST POP POP POP POP POP DUP2 MSTORE PUSH1 0x20 ADD PUSH1 0x2 DUP3 ADD DUP1 SLOAD PUSH2 0xFF3 SWAP1 PUSH2 0x39B4 JUMP JUMPDEST DUP1 PUSH1 0x1F ADD PUSH1 0x20 DUP1 SWAP2 DIV MUL PUSH1 0x20 ADD PUSH1 0x40 MLOAD SWAP1 DUP2 ADD PUSH1 0x40 MSTORE DUP1 SWAP3 SWAP2 SWAP1 DUP2 DUP2 MSTORE PUSH1 0x20 ADD DUP3 DUP1 SLOAD PUSH2 0x101F SWAP1 PUSH2 0x39B4 JUMP JUMPDEST DUP1 ISZERO PUSH2 0x106A JUMPI DUP1 PUSH1 0x1F LT PUSH2 0x1041 JUMPI PUSH2 0x100 DUP1 DUP4 SLOAD DIV MUL DUP4 MSTORE SWAP2 PUSH1 0x20 ADD SWAP2 PUSH2 0x106A JUMP JUMPDEST DUP3 ADD SWAP2 SWAP1 PUSH0 MSTORE PUSH1 0x20 PUSH0 KECCAK256 SWAP1 JUMPDEST DUP2 SLOAD DUP2 MSTORE SWAP1 PUSH1 0x1 ADD SWAP1 PUSH1 0x20 ADD DUP1 DUP4 GT PUSH2 0x104D JUMPI DUP3 SWAP1 SUB PUSH1 0x1F AND DUP3 ADD SWAP2 JUMPDEST POP POP POP POP POP DUP2 MSTORE PUSH1 0x20 ADD PUSH1 0x3 DUP3 ADD DUP1 SLOAD PUSH2 0x1083 SWAP1 PUSH2 0x39B4 JUMP JUMPDEST DUP1 PUSH1 0x1F ADD PUSH1 0x20 DUP1 SWAP2 DIV MUL PUSH1 0x20 ADD PUSH1 0x40 MLOAD SWAP1 DUP2 ADD PUSH1 0x40 MSTORE DUP1 SWAP3 SWAP2 SWAP1 DUP2 DUP2 MSTORE PUSH1 0x20 ADD DUP3 DUP1 SLOAD PUSH2 0x10AF SWAP1 PUSH2 0x39B4 JUMP JUMPDEST DUP1 ISZERO PUSH2 0x10FA JUMPI DUP1 PUSH1 0x1F LT PUSH2 0x10D1 JUMPI PUSH2 0x100 DUP1 DUP4 SLOAD DIV MUL DUP4 MSTORE SWAP2 PUSH1 0x20 ADD SWAP2 PUSH2 0x10FA JUMP JUMPDEST DUP3 ADD SWAP2 SWAP1 PUSH0 MSTORE PUSH1 0x20 PUSH0 KECCAK256 SWAP1 JUMPDEST DUP2 SLOAD DUP2 MSTORE SWAP1 PUSH1 0x1 ADD SWAP1 PUSH1 0x20 ADD DUP1 DUP4 GT PUSH2 0x10DD JUMPI DUP3 SWAP1 SUB PUSH1 0x1F AND DUP3 ADD SWAP2 JUMPDEST POP POP POP POP POP DUP2 MSTORE PUSH1 0x20 ADD PUSH1 0x4 DUP3 ADD DUP1 SLOAD PUSH2 0x1113 SWAP1 PUSH2 0x39B4 JUMP JUMPDEST DUP1 PUSH1 0x1F ADD PUSH1 0x20 DUP1 SWAP2 DIV MUL PUSH1 0x20 ADD PUSH1 0x40 MLOAD SWAP1 DUP2 ADD PUSH1 0x40 MSTORE DUP1 SWAP3 SWAP2 SWAP1 DUP2 DUP2 MSTORE PUSH1 0x20 ADD DUP3 DUP1 SLOAD PUSH2 0x113F SWAP1 PUSH2 0x39B4 JUMP JUMPDEST DUP1 ISZERO PUSH2 0x118A JUMPI DUP1 PUSH1 0x1F LT PUSH2 0x1161 JUMPI PUSH2 0x100 DUP1 DUP4 SLOAD DIV MUL DUP4 MSTORE SWAP2 PUSH1 0x20 ADD SWAP2 PUSH2 0x118A JUMP JUMPDEST DUP3 ADD SWAP2 SWAP1 PUSH0 MSTORE PUSH1 0x20 PUSH0 KECCAK256 SWAP1 JUMPDEST DUP2 SLOAD DUP2 MSTORE SWAP1 PUSH1 0x1 ADD SWAP1 PUSH1 0x20 ADD DUP1 DUP4 GT PUSH2 0x116D JUMPI DUP3 SWAP1 SUB PUSH1 0x1F AND DUP3 ADD SWAP2 JUMPDEST POP POP POP POP POP DUP2 MSTORE PUSH1 0x20 ADD PUSH1 0x5 DUP3 ADD DUP1 SLOAD PUSH2 0x11A3 SWAP1 PUSH2 0x39B4 JUMP JUMPDEST DUP1 PUSH1 0x1F ADD PUSH1 0x20 DUP1 SWAP2 DIV MUL PUSH1 0x20 ADD PUSH1 0x40 MLOAD SWAP1 DUP2 ADD PUSH1 0x40 MSTORE DUP1 SWAP3 SWAP2 SWAP1 DUP2 DUP2 MSTORE PUSH1 0x20 ADD DUP3 DUP1 SLOAD PUSH2 0x11CF SWAP1 PUSH2 0x39B4 JUMP JUMPDEST DUP1 ISZERO PUSH2 0x121A JUMPI DUP1 PUSH1 0x1F LT PUSH2 0x11F1 JUMPI PUSH2 0x100 DUP1 DUP4 SLOAD DIV MUL DUP4 MSTORE SWAP2 PUSH1 0x20 ADD SWAP2 PUSH2 0x121A JUMP JUMPDEST DUP3 ADD SWAP2 SWAP1 PUSH0 MSTORE PUSH1 0x20 PUSH0 KECCAK256 SWAP1 JUMPDEST DUP2 SLOAD DUP2 MSTORE SWAP1 PUSH1 0x1 ADD SWAP1 PUSH1 0x20 ADD DUP1 DUP4 GT PUSH2 0x11FD JUMPI DUP3 SWAP1 SUB PUSH1 0x1F AND DUP3 ADD SWAP2 JUMPDEST POP POP POP POP POP DUP2 MSTORE PUSH1 0x20 ADD PUSH1 0x6 DUP3 ADD SLOAD DUP2 MSTORE POP POP DUP2 MSTORE PUSH1 0x20 ADD SWAP1 PUSH1 0x1 ADD SWAP1 PUSH2 0xF29 JUMP JUMPDEST POP POP POP POP SWAP1 POP DUP1 MLOAD DUP4 MLOAD EQ PUSH2 0x1286 JUMPI PUSH1 0x40 MLOAD PUSH32 0x8C379A000000000000000000000000000000000000000000000000000000000 DUP2 MSTORE PUSH1 0x4 ADD PUSH2 0x127D SWAP1 PUSH2 0x3E5D JUMP JUMPDEST PUSH1 0x40 MLOAD DUP1 SWAP2 SUB SWAP1 REVERT JUMPDEST PUSH0 PUSH1 0x1 SWAP1 POP PUSH0 JUMPDEST DUP3 MLOAD DUP2 LT ISZERO PUSH2 0x1310 JUMPI DUP3 DUP2 DUP2 MLOAD DUP2 LT PUSH2 0x12A9 JUMPI PUSH2 0x12A8 PUSH2 0x395A JUMP JUMPDEST JUMPDEST PUSH1 0x20 MUL PUSH1 0x20 ADD ADD MLOAD PUSH1 0xC0 ADD MLOAD DUP6 DUP3 DUP2 MLOAD DUP2 LT PUSH2 0x12C8 JUMPI PUSH2 0x12C7 PUSH2 0x395A JUMP JUMPDEST JUMPDEST PUSH1 0x20 MUL PUSH1 0x20 ADD ADD MLOAD PUSH1 0x40 MLOAD PUSH1 0x20 ADD PUSH2 0x12E0 SWAP2 SWAP1 PUSH2 0x3EB5 JUMP JUMPDEST PUSH1 0x40 MLOAD PUSH1 0x20 DUP2 DUP4 SUB SUB DUP2 MSTORE SWAP1 PUSH1 0x40 MSTORE DUP1 MLOAD SWAP1 PUSH1 0x20 ADD KECCAK256 EQ PUSH2 0x1303 JUMPI PUSH0 SWAP2 POP PUSH2 0x1310 JUMP JUMPDEST DUP1 DUP1 PUSH1 0x1 ADD SWAP2 POP POP PUSH2 0x128D JUMP JUMPDEST POP DUP1 ISZERO PUSH2 0x1505 JUMPI PUSH1 0x1 DUP4 PUSH0 ADD PUSH1 0x2 PUSH2 0x100 EXP DUP2 SLOAD DUP2 PUSH1 0xFF MUL NOT AND SWAP1 DUP4 ISZERO ISZERO MUL OR SWAP1 SSTORE POP PUSH1 0xB PUSH0 DUP7 DUP2 MSTORE PUSH1 0x20 ADD SWAP1 DUP2 MSTORE PUSH1 0x20 ADD PUSH0 KECCAK256 PUSH1 0x2 ADD PUSH1 0x1 DUP2 DUP2 SWAP1 SLOAD SWAP1 PUSH2 0x100 EXP SWAP1 DIV PUSH4 0xFFFFFFFF AND DUP1 SWAP3 SWAP2 SWAP1 PUSH2 0x1367 SWAP1 PUSH2 0x3ECB JUMP JUMPDEST SWAP2 SWAP1 PUSH2 0x100 EXP DUP2 SLOAD DUP2 PUSH4 0xFFFFFFFF MUL NOT AND SWAP1 DUP4 PUSH4 0xFFFFFFFF AND MUL OR SWAP1 SSTORE POP POP PUSH1 0x4 SLOAD PUSH1 0xB PUSH0 DUP8 DUP2 MSTORE PUSH1 0x20 ADD SWAP1 DUP2 MSTORE PUSH1 0x20 ADD PUSH0 KECCAK256 PUSH1 0x3 ADD PUSH0 DUP3 DUP3 SLOAD PUSH2 0x13AB SWAP2 SWAP1 PUSH2 0x3A79 JUMP JUMPDEST SWAP3 POP POP DUP2 SWAP1 SSTORE POP PUSH1 0x64 PUSH1 0xE PUSH0 CALLER PUSH20 0xFFFFFFFFFFFFFFFFFFFFFFFFFFFFFFFFFFFFFFFF AND PUSH20 0xFFFFFFFFFFFFFFFFFFFFFFFFFFFFFFFFFFFFFFFF AND DUP2 MSTORE PUSH1 0x20 ADD SWAP1 DUP2 MSTORE PUSH1 0x20 ADD PUSH0 KECCAK256 PUSH0 ADD PUSH0 DUP3 DUP3 SLOAD PUSH2 0x1401 SWAP2 SWAP1 PUSH2 0x3A79 JUMP JUMPDEST SWAP3 POP POP DUP2 SWAP1 SSTORE POP PUSH0 CALLER PUSH20 0xFFFFFFFFFFFFFFFFFFFFFFFFFFFFFFFFFFFFFFFF AND PUSH1 0x4 SLOAD PUSH1 0x40 MLOAD PUSH2 0x142F SWAP1 PUSH2 0x3B41 JUMP JUMPDEST PUSH0 PUSH1 0x40 MLOAD DUP1 DUP4 SUB DUP2 DUP6 DUP8 GAS CALL SWAP3 POP POP POP RETURNDATASIZE DUP1 PUSH0 DUP2 EQ PUSH2 0x1469 JUMPI PUSH1 0x40 MLOAD SWAP2 POP PUSH1 0x1F NOT PUSH1 0x3F RETURNDATASIZE ADD AND DUP3 ADD PUSH1 0x40 MSTORE RETURNDATASIZE DUP3 MSTORE RETURNDATASIZE PUSH0 PUSH1 0x20 DUP5 ADD RETURNDATACOPY PUSH2 0x146E JUMP JUMPDEST PUSH1 0x60 SWAP2 POP JUMPDEST POP POP SWAP1 POP DUP1 PUSH2 0x14B2 JUMPI PUSH1 0x40 MLOAD PUSH32 0x8C379A000000000000000000000000000000000000000000000000000000000 DUP2 MSTORE PUSH1 0x4 ADD PUSH2 0x14A9 SWAP1 PUSH2 0x3F40 JUMP JUMPDEST PUSH1 0x40 MLOAD DUP1 SWAP2 SUB SWAP1 REVERT JUMPDEST CALLER PUSH20 0xFFFFFFFFFFFFFFFFFFFFFFFFFFFFFFFFFFFFFFFF AND DUP7 PUSH32 0x24B5EFA61DD1CFC659205A97FB8ED868F3CB8C81922BAB2B96423E5DE1DE2CB7 PUSH1 0x4 SLOAD PUSH1 0x40 MLOAD PUSH2 0x14FB SWAP2 SWAP1 PUSH2 0x3320 JUMP JUMPDEST PUSH1 0x40 MLOAD DUP1 SWAP2 SUB SWAP1 LOG3 POP JUMPDEST CALLER PUSH20 0xFFFFFFFFFFFFFFFFFFFFFFFFFFFFFFFFFFFFFFFF AND DUP6 PUSH32 0xAEE8895C1BF669485CEE2DD54D1EEE9E65B02A244AFB6F798F95D72405CDF7A5 DUP4 PUSH1 0x40 MLOAD PUSH2 0x154C SWAP2 SWAP1 PUSH2 0x3339 JUMP JUMPDEST PUSH1 0x40 MLOAD DUP1 SWAP2 SUB SWAP1 LOG3 POP POP POP POP POP JUMP JUMPDEST PUSH2 0x1563 PUSH2 0x2D12 JUMP JUMPDEST PUSH1 0x6 SLOAD CALLVALUE LT ISZERO PUSH2 0x15A8 JUMPI PUSH1 0x40 MLOAD PUSH32 0x8C379A000000000000000000000000000000000000000000000000000000000 DUP2 MSTORE PUSH1 0x4 ADD PUSH2 0x159F SWAP1 PUSH2 0x3C6F JUMP JUMPDEST PUSH1 0x40 MLOAD DUP1 SWAP2 SUB SWAP1 REVERT JUMPDEST PUSH1 0x6 SLOAD PUSH1 0x8 PUSH0 DUP3 DUP3 SLOAD PUSH2 0x15BB SWAP2 SWAP1 PUSH2 0x3A79 JUMP JUMPDEST SWAP3 POP POP DUP2 SWAP1 SSTORE POP PUSH1 0x2 SLOAD PUSH1 0x1 PUSH0 SWAP1 SLOAD SWAP1 PUSH2 0x100 EXP SWAP1 DIV PUSH20 0xFFFFFFFFFFFFFFFFFFFFFFFFFFFFFFFFFFFFFFFF AND PUSH20 0xFFFFFFFFFFFFFFFFFFFFFFFFFFFFFFFFFFFFFFFF AND PUSH4 0xB9F79451 CALLER PUSH1 0x40 MLOAD DUP3 PUSH4 0xFFFFFFFF AND PUSH1 0xE0 SHL DUP2 MSTORE PUSH1 0x4 ADD PUSH2 0x161F SWAP2 SWAP1 PUSH2 0x379E JUMP JUMPDEST PUSH1 0x20 PUSH1 0x40 MLOAD DUP1 DUP4 SUB DUP2 DUP7 GAS STATICCALL ISZERO DUP1 ISZERO PUSH2 0x163A JUMPI RETURNDATASIZE PUSH0 DUP1 RETURNDATACOPY RETURNDATASIZE PUSH0 REVERT JUMPDEST POP POP POP POP PUSH1 0x40 MLOAD RETURNDATASIZE PUSH1 0x1F NOT PUSH1 0x1F DUP3 ADD AND DUP3 ADD DUP1 PUSH1 0x40 MSTORE POP DUP2 ADD SWAP1 PUSH2 0x165E SWAP2 SWAP1 PUSH2 0x3F72 JUMP JUMPDEST LT ISZERO PUSH2 0x169F JUMPI PUSH1 0x40 MLOAD PUSH32 0x8C379A000000000000000000000000000000000000000000000000000000000 DUP2 MSTORE PUSH1 0x4 ADD PUSH2 0x1696 SWAP1 PUSH2 0x400D JUMP JUMPDEST PUSH1 0x40 MLOAD DUP1 SWAP2 SUB SWAP1 REVERT JUMPDEST PUSH1 0xB PUSH0 DUP3 DUP2 MSTORE PUSH1 0x20 ADD SWAP1 DUP2 MSTORE PUSH1 0x20 ADD PUSH0 KECCAK256 PUSH1 0x2 ADD PUSH0 SWAP1 SLOAD SWAP1 PUSH2 0x100 EXP SWAP1 DIV PUSH1 0xFF AND PUSH2 0x16FF JUMPI PUSH1 0x40 MLOAD PUSH32 0x8C379A000000000000000000000000000000000000000000000000000000000 DUP2 MSTORE PUSH1 0x4 ADD PUSH2 0x16F6 SWAP1 PUSH2 0x4075 JUMP JUMPDEST PUSH1 0x40 MLOAD DUP1 SWAP2 SUB SWAP1 REVERT JUMPDEST PUSH1 0xC PUSH0 CALLER PUSH20 0xFFFFFFFFFFFFFFFFFFFFFFFFFFFFFFFFFFFFFFFF AND PUSH20 0xFFFFFFFFFFFFFFFFFFFFFFFFFFFFFFFFFFFFFFFF AND DUP2 MSTORE PUSH1 0x20 ADD SWAP1 DUP2 MSTORE PUSH1 0x20 ADD PUSH0 KECCAK256 PUSH0 DUP3 DUP2 MSTORE PUSH1 0x20 ADD SWAP1 DUP2 MSTORE PUSH1 0x20 ADD PUSH0 KECCAK256 PUSH0 ADD PUSH0 SWAP1 SLOAD SWAP1 PUSH2 0x100 EXP SWAP1 DIV PUSH1 0xFF AND ISZERO PUSH2 0x179A JUMPI PUSH1 0x40 MLOAD PUSH32 0x8C379A000000000000000000000000000000000000000000000000000000000 DUP2 MSTORE PUSH1 0x4 ADD PUSH2 0x1791 SWAP1 PUSH2 0x40DD JUMP JUMPDEST PUSH1 0x40 MLOAD DUP1 SWAP2 SUB SWAP1 REVERT JUMPDEST PUSH1 0x1 PUSH1 0xC PUSH0 CALLER PUSH20 0xFFFFFFFFFFFFFFFFFFFFFFFFFFFFFFFFFFFFFFFF AND PUSH20 0xFFFFFFFFFFFFFFFFFFFFFFFFFFFFFFFFFFFFFFFF AND DUP2 MSTORE PUSH1 0x20 ADD SWAP1 DUP2 MSTORE PUSH1 0x20 ADD PUSH0 KECCAK256 PUSH0 DUP4 DUP2 MSTORE PUSH1 0x20 ADD SWAP1 DUP2 MSTORE PUSH1 0x20 ADD PUSH0 KECCAK256 PUSH0 ADD PUSH0 PUSH2 0x100 EXP DUP2 SLOAD DUP2 PUSH1 0xFF MUL NOT AND SWAP1 DUP4 ISZERO ISZERO MUL OR SWAP1 SSTORE POP PUSH1 0xB PUSH0 DUP3 DUP2 MSTORE PUSH1 0x20 ADD SWAP1 DUP2 MSTORE PUSH1 0x20 ADD PUSH0 KECCAK256 PUSH1 0x4 ADD PUSH0 DUP2 DUP2 SWAP1 SLOAD SWAP1 PUSH2 0x100 EXP SWAP1 DIV PUSH4 0xFFFFFFFF AND DUP1 SWAP3 SWAP2 SWAP1 PUSH2 0x1833 SWAP1 PUSH2 0x3ECB JUMP JUMPDEST SWAP2 SWAP1 PUSH2 0x100 EXP DUP2 SLOAD DUP2 PUSH4 0xFFFFFFFF MUL NOT AND SWAP1 DUP4 PUSH4 0xFFFFFFFF AND MUL OR SWAP1 SSTORE POP POP PUSH1 0x64 PUSH1 0xE PUSH0 CALLER PUSH20 0xFFFFFFFFFFFFFFFFFFFFFFFFFFFFFFFFFFFFFFFF AND PUSH20 0xFFFFFFFFFFFFFFFFFFFFFFFFFFFFFFFFFFFFFFFF AND DUP2 MSTORE PUSH1 0x20 ADD SWAP1 DUP2 MSTORE PUSH1 0x20 ADD PUSH0 KECCAK256 PUSH0 ADD PUSH0 DUP3 DUP3 SLOAD PUSH2 0x18A1 SWAP2 SWAP1 PUSH2 0x3A79 JUMP JUMPDEST SWAP3 POP POP DUP2 SWAP1 SSTORE POP PUSH1 0x64 PUSH1 0xE PUSH0 PUSH1 0xB PUSH0 DUP6 DUP2 MSTORE PUSH1 0x20 ADD SWAP1 DUP2 MSTORE PUSH1 0x20 ADD PUSH0 KECCAK256 PUSH0 ADD PUSH0 SWAP1 SLOAD SWAP1 PUSH2 0x100 EXP SWAP1 DIV PUSH20 0xFFFFFFFFFFFFFFFFFFFFFFFFFFFFFFFFFFFFFFFF AND PUSH20 0xFFFFFFFFFFFFFFFFFFFFFFFFFFFFFFFFFFFFFFFF AND PUSH20 0xFFFFFFFFFFFFFFFFFFFFFFFFFFFFFFFFFFFFFFFF AND DUP2 MSTORE PUSH1 0x20 ADD SWAP1 DUP2 MSTORE PUSH1 0x20 ADD PUSH0 KECCAK256 PUSH0 ADD PUSH0 DUP3 DUP3 SLOAD PUSH2 0x1929 SWAP2 SWAP1 PUSH2 0x3A79 JUMP JUMPDEST SWAP3 POP POP DUP2 SWAP1 SSTORE POP CALLER PUSH20 0xFFFFFFFFFFFFFFFFFFFFFFFFFFFFFFFFFFFFFFFF AND DUP2 PUSH32 0xFACF1A2842ACBAD124CBCA0A047FE37BC246C68F814E0350C7BD8A022FD1DDDB PUSH1 0x40 MLOAD PUSH1 0x40 MLOAD DUP1 SWAP2 SUB SWAP1 LOG3 POP JUMP JUMPDEST PUSH1 0xF SLOAD DUP2 JUMP JUMPDEST PUSH1 0x60 PUSH0 PUSH1 0xA DUP1 SLOAD SWAP1 POP PUSH8 0xFFFFFFFFFFFFFFFF DUP2 GT ISZERO PUSH2 0x199F JUMPI PUSH2 0x199E PUSH2 0x3356 JUMP JUMPDEST JUMPDEST PUSH1 0x40 MLOAD SWAP1 DUP1 DUP3 MSTORE DUP1 PUSH1 0x20 MUL PUSH1 0x20 ADD DUP3 ADD PUSH1 0x40 MSTORE DUP1 ISZERO PUSH2 0x19D8 JUMPI DUP2 PUSH1 0x20 ADD JUMPDEST PUSH2 0x19C5 PUSH2 0x2ECF JUMP JUMPDEST DUP2 MSTORE PUSH1 0x20 ADD SWAP1 PUSH1 0x1 SWAP1 SUB SWAP1 DUP2 PUSH2 0x19BD JUMPI SWAP1 POP JUMPDEST POP SWAP1 POP PUSH0 JUMPDEST PUSH1 0xA DUP1 SLOAD SWAP1 POP DUP2 LT ISZERO PUSH2 0x1BA0 JUMPI PUSH1 0xB PUSH0 PUSH1 0xA DUP4 DUP2 SLOAD DUP2 LT PUSH2 0x1A01 JUMPI PUSH2 0x1A00 PUSH2 0x395A JUMP JUMPDEST JUMPDEST SWAP1 PUSH0 MSTORE PUSH1 0x20 PUSH0 KECCAK256 ADD SLOAD DUP2 MSTORE PUSH1 0x20 ADD SWAP1 DUP2 MSTORE PUSH1 0x20 ADD PUSH0 KECCAK256 PUSH1 0x40 MLOAD DUP1 PUSH1 0xC0 ADD PUSH1 0x40 MSTORE SWAP1 DUP2 PUSH0 DUP3 ADD PUSH0 SWAP1 SLOAD SWAP1 PUSH2 0x100 EXP SWAP1 DIV PUSH20 0xFFFFFFFFFFFFFFFFFFFFFFFFFFFFFFFFFFFFFFFF AND PUSH20 0xFFFFFFFFFFFFFFFFFFFFFFFFFFFFFFFFFFFFFFFF AND PUSH20 0xFFFFFFFFFFFFFFFFFFFFFFFFFFFFFFFFFFFFFFFF AND DUP2 MSTORE PUSH1 0x20 ADD PUSH1 0x1 DUP3 ADD DUP1 SLOAD PUSH2 0x1A86 SWAP1 PUSH2 0x39B4 JUMP JUMPDEST DUP1 PUSH1 0x1F ADD PUSH1 0x20 DUP1 SWAP2 DIV MUL PUSH1 0x20 ADD PUSH1 0x40 MLOAD SWAP1 DUP2 ADD PUSH1 0x40 MSTORE DUP1 SWAP3 SWAP2 SWAP1 DUP2 DUP2 MSTORE PUSH1 0x20 ADD DUP3 DUP1 SLOAD PUSH2 0x1AB2 SWAP1 PUSH2 0x39B4 JUMP JUMPDEST DUP1 ISZERO PUSH2 0x1AFD JUMPI DUP1 PUSH1 0x1F LT PUSH2 0x1AD4 JUMPI PUSH2 0x100 DUP1 DUP4 SLOAD DIV MUL DUP4 MSTORE SWAP2 PUSH1 0x20 ADD SWAP2 PUSH2 0x1AFD JUMP JUMPDEST DUP3 ADD SWAP2 SWAP1 PUSH0 MSTORE PUSH1 0x20 PUSH0 KECCAK256 SWAP1 JUMPDEST DUP2 SLOAD DUP2 MSTORE SWAP1 PUSH1 0x1 ADD SWAP1 PUSH1 0x20 ADD DUP1 DUP4 GT PUSH2 0x1AE0 JUMPI DUP3 SWAP1 SUB PUSH1 0x1F AND DUP3 ADD SWAP2 JUMPDEST POP POP POP POP POP DUP2 MSTORE PUSH1 0x20 ADD PUSH1 0x2 DUP3 ADD PUSH0 SWAP1 SLOAD SWAP1 PUSH2 0x100 EXP SWAP1 DIV PUSH1 0xFF AND ISZERO ISZERO ISZERO ISZERO DUP2 MSTORE PUSH1 0x20 ADD PUSH1 0x2 DUP3 ADD PUSH1 0x1 SWAP1 SLOAD SWAP1 PUSH2 0x100 EXP SWAP1 DIV PUSH4 0xFFFFFFFF AND PUSH4 0xFFFFFFFF AND PUSH4 0xFFFFFFFF AND DUP2 MSTORE PUSH1 0x20 ADD PUSH1 0x3 DUP3 ADD SLOAD DUP2 MSTORE PUSH1 0x20 ADD PUSH1 0x4 DUP3 ADD PUSH0 SWAP1 SLOAD SWAP1 PUSH2 0x100 EXP SWAP1 DIV PUSH4 0xFFFFFFFF AND PUSH4 0xFFFFFFFF AND PUSH4 0xFFFFFFFF AND DUP2 MSTORE POP POP DUP3 DUP3 DUP2 MLOAD DUP2 LT PUSH2 0x1B88 JUMPI PUSH2 0x1B87 PUSH2 0x395A JUMP JUMPDEST JUMPDEST PUSH1 0x20 MUL PUSH1 0x20 ADD ADD DUP2 SWAP1 MSTORE POP DUP1 DUP1 PUSH1 0x1 ADD SWAP2 POP POP PUSH2 0x19DD JUMP JUMPDEST POP DUP1 SWAP2 POP POP SWAP1 JUMP JUMPDEST PUSH2 0x1BB0 PUSH2 0x2D12 JUMP JUMPDEST DUP1 PUSH1 0xE PUSH0 CALLER PUSH20 0xFFFFFFFFFFFFFFFFFFFFFFFFFFFFFFFFFFFFFFFF AND PUSH20 0xFFFFFFFFFFFFFFFFFFFFFFFFFFFFFFFFFFFFFFFF AND DUP2 MSTORE PUSH1 0x20 ADD SWAP1 DUP2 MSTORE PUSH1 0x20 ADD PUSH0 KECCAK256 PUSH0 ADD SLOAD LT ISZERO PUSH2 0x1C32 JUMPI PUSH1 0x40 MLOAD PUSH32 0x8C379A000000000000000000000000000000000000000000000000000000000 DUP2 MSTORE PUSH1 0x4 ADD PUSH2 0x1C29 SWAP1 PUSH2 0x4145 JUMP JUMPDEST PUSH1 0x40 MLOAD DUP1 SWAP2 SUB SWAP1 REVERT JUMPDEST DUP1 PUSH1 0xE PUSH0 CALLER PUSH20 0xFFFFFFFFFFFFFFFFFFFFFFFFFFFFFFFFFFFFFFFF AND PUSH20 0xFFFFFFFFFFFFFFFFFFFFFFFFFFFFFFFFFFFFFFFF AND DUP2 MSTORE PUSH1 0x20 ADD SWAP1 DUP2 MSTORE PUSH1 0x20 ADD PUSH0 KECCAK256 PUSH0 ADD PUSH0 DUP3 DUP3 SLOAD PUSH2 0x1C80 SWAP2 SWAP1 PUSH2 0x4163 JUMP JUMPDEST SWAP3 POP POP DUP2 SWAP1 SSTORE POP CALLER PUSH20 0xFFFFFFFFFFFFFFFFFFFFFFFFFFFFFFFFFFFFFFFF AND PUSH32 0x970CB04DA579A1C7F68732FFD1E096B32AF78D7FC2AE49AA1CE97E22F7A805F9 DUP3 PUSH1 0x40 MLOAD PUSH2 0x1CCD SWAP2 SWAP1 PUSH2 0x41E0 JUMP JUMPDEST PUSH1 0x40 MLOAD DUP1 SWAP2 SUB SWAP1 LOG2 POP JUMP JUMPDEST PUSH2 0x1CE0 PUSH2 0x2C2A JUMP JUMPDEST PUSH2 0x1CE9 PUSH0 PUSH2 0x2D5C JUMP JUMPDEST JUMP JUMPDEST PUSH2 0x1CF3 PUSH2 0x2C2A JUMP JUMPDEST PUSH1 0xB PUSH0 DUP3 DUP2 MSTORE PUSH1 0x20 ADD SWAP1 DUP2 MSTORE PUSH1 0x20 ADD PUSH0 KECCAK256 PUSH1 0x2 ADD PUSH0 SWAP1 SLOAD SWAP1 PUSH2 0x100 EXP SWAP1 DIV PUSH1 0xFF AND ISZERO PUSH2 0x1D54 JUMPI PUSH1 0x40 MLOAD PUSH32 0x8C379A000000000000000000000000000000000000000000000000000000000 DUP2 MSTORE PUSH1 0x4 ADD PUSH2 0x1D4B SWAP1 PUSH2 0x4256 JUMP JUMPDEST PUSH1 0x40 MLOAD DUP1 SWAP2 SUB SWAP1 REVERT JUMPDEST PUSH1 0x1 PUSH1 0xB PUSH0 DUP4 DUP2 MSTORE PUSH1 0x20 ADD SWAP1 DUP2 MSTORE PUSH1 0x20 ADD PUSH0 KECCAK256 PUSH1 0x2 ADD PUSH0 PUSH2 0x100 EXP DUP2 SLOAD DUP2 PUSH1 0xFF MUL NOT AND SWAP1 DUP4 ISZERO ISZERO MUL OR SWAP1 SSTORE POP PUSH1 0xA DUP2 SWAP1 DUP1 PUSH1 0x1 DUP2 SLOAD ADD DUP1 DUP3 SSTORE DUP1 SWAP2 POP POP PUSH1 0x1 SWAP1 SUB SWAP1 PUSH0 MSTORE PUSH1 0x20 PUSH0 KECCAK256 ADD PUSH0 SWAP1 SWAP2 SWAP1 SWAP2 SWAP1 SWAP2 POP SSTORE PUSH1 0x64 PUSH1 0xE PUSH0 PUSH1 0xB PUSH0 DUP6 DUP2 MSTORE PUSH1 0x20 ADD SWAP1 DUP2 MSTORE PUSH1 0x20 ADD PUSH0 KECCAK256 PUSH0 ADD PUSH0 SWAP1 SLOAD SWAP1 PUSH2 0x100 EXP SWAP1 DIV PUSH20 0xFFFFFFFFFFFFFFFFFFFFFFFFFFFFFFFFFFFFFFFF AND PUSH20 0xFFFFFFFFFFFFFFFFFFFFFFFFFFFFFFFFFFFFFFFF AND PUSH20 0xFFFFFFFFFFFFFFFFFFFFFFFFFFFFFFFFFFFFFFFF AND DUP2 MSTORE PUSH1 0x20 ADD SWAP1 DUP2 MSTORE PUSH1 0x20 ADD PUSH0 KECCAK256 PUSH0 ADD PUSH0 DUP3 DUP3 SLOAD PUSH2 0x1E27 SWAP2 SWAP1 PUSH2 0x3A79 JUMP JUMPDEST SWAP3 POP POP DUP2 SWAP1 SSTORE POP DUP1 PUSH32 0x87C1C0E5CD17BEB8C61A3337B32C66021CB179DD6F97D6D9CE923A029092BD45 PUSH1 0x40 MLOAD PUSH1 0x40 MLOAD DUP1 SWAP2 SUB SWAP1 LOG2 POP JUMP JUMPDEST PUSH2 0x1E66 PUSH2 0x2D12 JUMP JUMPDEST PUSH1 0x6 SLOAD CALLVALUE LT ISZERO PUSH2 0x1EAB JUMPI PUSH1 0x40 MLOAD PUSH32 0x8C379A000000000000000000000000000000000000000000000000000000000 DUP2 MSTORE PUSH1 0x4 ADD PUSH2 0x1EA2 SWAP1 PUSH2 0x3C6F JUMP JUMPDEST PUSH1 0x40 MLOAD DUP1 SWAP2 SUB SWAP1 REVERT JUMPDEST PUSH1 0x6 SLOAD PUSH1 0x8 PUSH0 DUP3 DUP3 SLOAD PUSH2 0x1EBE SWAP2 SWAP1 PUSH2 0x3A79 JUMP JUMPDEST SWAP3 POP POP DUP2 SWAP1 SSTORE POP PUSH1 0x3 SLOAD PUSH1 0x1 PUSH0 SWAP1 SLOAD SWAP1 PUSH2 0x100 EXP SWAP1 DIV PUSH20 0xFFFFFFFFFFFFFFFFFFFFFFFFFFFFFFFFFFFFFFFF AND PUSH20 0xFFFFFFFFFFFFFFFFFFFFFFFFFFFFFFFFFFFFFFFF AND PUSH4 0xB9F79451 CALLER PUSH1 0x40 MLOAD DUP3 PUSH4 0xFFFFFFFF AND PUSH1 0xE0 SHL DUP2 MSTORE PUSH1 0x4 ADD PUSH2 0x1F22 SWAP2 SWAP1 PUSH2 0x379E JUMP JUMPDEST PUSH1 0x20 PUSH1 0x40 MLOAD DUP1 DUP4 SUB DUP2 DUP7 GAS STATICCALL ISZERO DUP1 ISZERO PUSH2 0x1F3D JUMPI RETURNDATASIZE PUSH0 DUP1 RETURNDATACOPY RETURNDATASIZE PUSH0 REVERT JUMPDEST POP POP POP POP PUSH1 0x40 MLOAD RETURNDATASIZE PUSH1 0x1F NOT PUSH1 0x1F DUP3 ADD AND DUP3 ADD DUP1 PUSH1 0x40 MSTORE POP DUP2 ADD SWAP1 PUSH2 0x1F61 SWAP2 SWAP1 PUSH2 0x3F72 JUMP JUMPDEST LT ISZERO PUSH2 0x1FA2 JUMPI PUSH1 0x40 MLOAD PUSH32 0x8C379A000000000000000000000000000000000000000000000000000000000 DUP2 MSTORE PUSH1 0x4 ADD PUSH2 0x1F99 SWAP1 PUSH2 0x42E4 JUMP JUMPDEST PUSH1 0x40 MLOAD DUP1 SWAP2 SUB SWAP1 REVERT JUMPDEST PUSH1 0x5 DUP7 MLOAD EQ DUP1 ISZERO PUSH2 0x1FB4 JUMPI POP DUP5 MLOAD DUP7 MLOAD EQ JUMPDEST DUP1 ISZERO PUSH2 0x1FC1 JUMPI POP DUP4 MLOAD DUP7 MLOAD EQ JUMPDEST DUP1 ISZERO PUSH2 0x1FCE JUMPI POP DUP3 MLOAD DUP7 MLOAD EQ JUMPDEST DUP1 ISZERO PUSH2 0x1FDB JUMPI POP DUP2 MLOAD DUP7 MLOAD EQ JUMPDEST DUP1 ISZERO PUSH2 0x1FE8 JUMPI POP DUP1 MLOAD DUP7 MLOAD EQ JUMPDEST PUSH2 0x2027 JUMPI PUSH1 0x40 MLOAD PUSH32 0x8C379A000000000000000000000000000000000000000000000000000000000 DUP2 MSTORE PUSH1 0x4 ADD PUSH2 0x201E SWAP1 PUSH2 0x434C JUMP JUMPDEST PUSH1 0x40 MLOAD DUP1 SWAP2 SUB SWAP1 REVERT JUMPDEST PUSH0 PUSH1 0xF PUSH0 DUP2 SLOAD DUP1 SWAP3 SWAP2 SWAP1 PUSH2 0x203A SWAP1 PUSH2 0x436A JUMP JUMPDEST SWAP2 SWAP1 POP SSTORE SWAP1 POP PUSH1 0x40 MLOAD DUP1 PUSH1 0xC0 ADD PUSH1 0x40 MSTORE DUP1 CALLER PUSH20 0xFFFFFFFFFFFFFFFFFFFFFFFFFFFFFFFFFFFFFFFF AND DUP2 MSTORE PUSH1 0x20 ADD DUP10 DUP2 MSTORE PUSH1 0x20 ADD PUSH0 ISZERO ISZERO DUP2 MSTORE PUSH1 0x20 ADD PUSH0 PUSH4 0xFFFFFFFF AND DUP2 MSTORE PUSH1 0x20 ADD PUSH0 DUP2 MSTORE PUSH1 0x20 ADD PUSH0 PUSH4 0xFFFFFFFF AND DUP2 MSTORE POP PUSH1 0xB PUSH0 DUP4 DUP2 MSTORE PUSH1 0x20 ADD SWAP1 DUP2 MSTORE PUSH1 0x20 ADD PUSH0 KECCAK256 PUSH0 DUP3 ADD MLOAD DUP2 PUSH0 ADD PUSH0 PUSH2 0x100 EXP DUP2 SLOAD DUP2 PUSH20 0xFFFFFFFFFFFFFFFFFFFFFFFFFFFFFFFFFFFFFFFF MUL NOT AND SWAP1 DUP4 PUSH20 0xFFFFFFFFFFFFFFFFFFFFFFFFFFFFFFFFFFFFFFFF AND MUL OR SWAP1 SSTORE POP PUSH1 0x20 DUP3 ADD MLOAD DUP2 PUSH1 0x1 ADD SWAP1 DUP2 PUSH2 0x20FB SWAP2 SWAP1 PUSH2 0x4545 JUMP JUMPDEST POP PUSH1 0x40 DUP3 ADD MLOAD DUP2 PUSH1 0x2 ADD PUSH0 PUSH2 0x100 EXP DUP2 SLOAD DUP2 PUSH1 0xFF MUL NOT AND SWAP1 DUP4 ISZERO ISZERO MUL OR SWAP1 SSTORE POP PUSH1 0x60 DUP3 ADD MLOAD DUP2 PUSH1 0x2 ADD PUSH1 0x1 PUSH2 0x100 EXP DUP2 SLOAD DUP2 PUSH4 0xFFFFFFFF MUL NOT AND SWAP1 DUP4 PUSH4 0xFFFFFFFF AND MUL OR SWAP1 SSTORE POP PUSH1 0x80 DUP3 ADD MLOAD DUP2 PUSH1 0x3 ADD SSTORE PUSH1 0xA0 DUP3 ADD MLOAD DUP2 PUSH1 0x4 ADD PUSH0 PUSH2 0x100 EXP DUP2 SLOAD DUP2 PUSH4 0xFFFFFFFF MUL NOT AND SWAP1 DUP4 PUSH4 0xFFFFFFFF AND MUL OR SWAP1 SSTORE POP SWAP1 POP POP PUSH1 0x9 DUP2 SWAP1 DUP1 PUSH1 0x1 DUP2 SLOAD ADD DUP1 DUP3 SSTORE DUP1 SWAP2 POP POP PUSH1 0x1 SWAP1 SUB SWAP1 PUSH0 MSTORE PUSH1 0x20 PUSH0 KECCAK256 ADD PUSH0 SWAP1 SWAP2 SWAP1 SWAP2 SWAP1 SWAP2 POP SSTORE PUSH0 JUMPDEST DUP8 MLOAD DUP2 LT ISZERO PUSH2 0x2556 JUMPI PUSH1 0x40 MLOAD PUSH1 0x20 ADD PUSH2 0x21B5 SWAP1 PUSH2 0x465E JUMP JUMPDEST PUSH1 0x40 MLOAD PUSH1 0x20 DUP2 DUP4 SUB SUB DUP2 MSTORE SWAP1 PUSH1 0x40 MSTORE DUP1 MLOAD SWAP1 PUSH1 0x20 ADD KECCAK256 DUP4 DUP3 DUP2 MLOAD DUP2 LT PUSH2 0x21DE JUMPI PUSH2 0x21DD PUSH2 0x395A JUMP JUMPDEST JUMPDEST PUSH1 0x20 MUL PUSH1 0x20 ADD ADD MLOAD PUSH1 0x40 MLOAD PUSH1 0x20 ADD PUSH2 0x21F6 SWAP2 SWAP1 PUSH2 0x3EB5 JUMP JUMPDEST PUSH1 0x40 MLOAD PUSH1 0x20 DUP2 DUP4 SUB SUB DUP2 MSTORE SWAP1 PUSH1 0x40 MSTORE DUP1 MLOAD SWAP1 PUSH1 0x20 ADD KECCAK256 EQ DUP1 PUSH2 0x227B JUMPI POP PUSH1 0x40 MLOAD PUSH1 0x20 ADD PUSH2 0x2222 SWAP1 PUSH2 0x46BC JUMP JUMPDEST PUSH1 0x40 MLOAD PUSH1 0x20 DUP2 DUP4 SUB SUB DUP2 MSTORE SWAP1 PUSH1 0x40 MSTORE DUP1 MLOAD SWAP1 PUSH1 0x20 ADD KECCAK256 DUP4 DUP3 DUP2 MLOAD DUP2 LT PUSH2 0x224B JUMPI PUSH2 0x224A PUSH2 0x395A JUMP JUMPDEST JUMPDEST PUSH1 0x20 MUL PUSH1 0x20 ADD ADD MLOAD PUSH1 0x40 MLOAD PUSH1 0x20 ADD PUSH2 0x2263 SWAP2 SWAP1 PUSH2 0x3EB5 JUMP JUMPDEST PUSH1 0x40 MLOAD PUSH1 0x20 DUP2 DUP4 SUB SUB DUP2 MSTORE SWAP1 PUSH1 0x40 MSTORE DUP1 MLOAD SWAP1 PUSH1 0x20 ADD KECCAK256 EQ JUMPDEST DUP1 PUSH2 0x22E9 JUMPI POP PUSH1 0x40 MLOAD PUSH1 0x20 ADD PUSH2 0x2290 SWAP1 PUSH2 0x471A JUMP JUMPDEST PUSH1 0x40 MLOAD PUSH1 0x20 DUP2 DUP4 SUB SUB DUP2 MSTORE SWAP1 PUSH1 0x40 MSTORE DUP1 MLOAD SWAP1 PUSH1 0x20 ADD KECCAK256 DUP4 DUP3 DUP2 MLOAD DUP2 LT PUSH2 0x22B9 JUMPI PUSH2 0x22B8 PUSH2 0x395A JUMP JUMPDEST JUMPDEST PUSH1 0x20 MUL PUSH1 0x20 ADD ADD MLOAD PUSH1 0x40 MLOAD PUSH1 0x20 ADD PUSH2 0x22D1 SWAP2 SWAP1 PUSH2 0x3EB5 JUMP JUMPDEST PUSH1 0x40 MLOAD PUSH1 0x20 DUP2 DUP4 SUB SUB DUP2 MSTORE SWAP1 PUSH1 0x40 MSTORE DUP1 MLOAD SWAP1 PUSH1 0x20 ADD KECCAK256 EQ JUMPDEST DUP1 PUSH2 0x2357 JUMPI POP PUSH1 0x40 MLOAD PUSH1 0x20 ADD PUSH2 0x22FE SWAP1 PUSH2 0x4778 JUMP JUMPDEST PUSH1 0x40 MLOAD PUSH1 0x20 DUP2 DUP4 SUB SUB DUP2 MSTORE SWAP1 PUSH1 0x40 MSTORE DUP1 MLOAD SWAP1 PUSH1 0x20 ADD KECCAK256 DUP4 DUP3 DUP2 MLOAD DUP2 LT PUSH2 0x2327 JUMPI PUSH2 0x2326 PUSH2 0x395A JUMP JUMPDEST JUMPDEST PUSH1 0x20 MUL PUSH1 0x20 ADD ADD MLOAD PUSH1 0x40 MLOAD PUSH1 0x20 ADD PUSH2 0x233F SWAP2 SWAP1 PUSH2 0x3EB5 JUMP JUMPDEST PUSH1 0x40 MLOAD PUSH1 0x20 DUP2 DUP4 SUB SUB DUP2 MSTORE SWAP1 PUSH1 0x40 MSTORE DUP1 MLOAD SWAP1 PUSH1 0x20 ADD KECCAK256 EQ JUMPDEST PUSH2 0x2396 JUMPI PUSH1 0x40 MLOAD PUSH32 0x8C379A000000000000000000000000000000000000000000000000000000000 DUP2 MSTORE PUSH1 0x4 ADD PUSH2 0x238D SWAP1 PUSH2 0x47D6 JUMP JUMPDEST PUSH1 0x40 MLOAD DUP1 SWAP2 SUB SWAP1 REVERT JUMPDEST PUSH0 PUSH1 0x40 MLOAD DUP1 PUSH1 0xE0 ADD PUSH1 0x40 MSTORE DUP1 DUP5 DUP2 MSTORE PUSH1 0x20 ADD DUP11 DUP5 DUP2 MLOAD DUP2 LT PUSH2 0x23BB JUMPI PUSH2 0x23BA PUSH2 0x395A JUMP JUMPDEST JUMPDEST PUSH1 0x20 MUL PUSH1 0x20 ADD ADD MLOAD DUP2 MSTORE PUSH1 0x20 ADD DUP10 DUP5 DUP2 MLOAD DUP2 LT PUSH2 0x23DB JUMPI PUSH2 0x23DA PUSH2 0x395A JUMP JUMPDEST JUMPDEST PUSH1 0x20 MUL PUSH1 0x20 ADD ADD MLOAD DUP2 MSTORE PUSH1 0x20 ADD DUP9 DUP5 DUP2 MLOAD DUP2 LT PUSH2 0x23FB JUMPI PUSH2 0x23FA PUSH2 0x395A JUMP JUMPDEST JUMPDEST PUSH1 0x20 MUL PUSH1 0x20 ADD ADD MLOAD DUP2 MSTORE PUSH1 0x20 ADD DUP8 DUP5 DUP2 MLOAD DUP2 LT PUSH2 0x241B JUMPI PUSH2 0x241A PUSH2 0x395A JUMP JUMPDEST JUMPDEST PUSH1 0x20 MUL PUSH1 0x20 ADD ADD MLOAD DUP2 MSTORE PUSH1 0x20 ADD DUP7 DUP5 DUP2 MLOAD DUP2 LT PUSH2 0x243B JUMPI PUSH2 0x243A PUSH2 0x395A JUMP JUMPDEST JUMPDEST PUSH1 0x20 MUL PUSH1 0x20 ADD ADD MLOAD DUP2 MSTORE PUSH1 0x20 ADD DUP6 DUP5 DUP2 MLOAD DUP2 LT PUSH2 0x245B JUMPI PUSH2 0x245A PUSH2 0x395A JUMP JUMPDEST JUMPDEST PUSH1 0x20 MUL PUSH1 0x20 ADD ADD MLOAD PUSH1 0x40 MLOAD PUSH1 0x20 ADD PUSH2 0x2473 SWAP2 SWAP1 PUSH2 0x3EB5 JUMP JUMPDEST PUSH1 0x40 MLOAD PUSH1 0x20 DUP2 DUP4 SUB SUB DUP2 MSTORE SWAP1 PUSH1 0x40 MSTORE DUP1 MLOAD SWAP1 PUSH1 0x20 ADD KECCAK256 DUP2 MSTORE POP SWAP1 POP PUSH1 0xD PUSH0 DUP5 DUP2 MSTORE PUSH1 0x20 ADD SWAP1 DUP2 MSTORE PUSH1 0x20 ADD PUSH0 KECCAK256 DUP2 SWAP1 DUP1 PUSH1 0x1 DUP2 SLOAD ADD DUP1 DUP3 SSTORE DUP1 SWAP2 POP POP PUSH1 0x1 SWAP1 SUB SWAP1 PUSH0 MSTORE PUSH1 0x20 PUSH0 KECCAK256 SWAP1 PUSH1 0x7 MUL ADD PUSH0 SWAP1 SWAP2 SWAP1 SWAP2 SWAP1 SWAP2 POP PUSH0 DUP3 ADD MLOAD DUP2 PUSH0 ADD SSTORE PUSH1 0x20 DUP3 ADD MLOAD DUP2 PUSH1 0x1 ADD SWAP1 DUP2 PUSH2 0x24E3 SWAP2 SWAP1 PUSH2 0x4545 JUMP JUMPDEST POP PUSH1 0x40 DUP3 ADD MLOAD DUP2 PUSH1 0x2 ADD SWAP1 DUP2 PUSH2 0x24F9 SWAP2 SWAP1 PUSH2 0x4545 JUMP JUMPDEST POP PUSH1 0x60 DUP3 ADD MLOAD DUP2 PUSH1 0x3 ADD SWAP1 DUP2 PUSH2 0x250F SWAP2 SWAP1 PUSH2 0x4545 JUMP JUMPDEST POP PUSH1 0x80 DUP3 ADD MLOAD DUP2 PUSH1 0x4 ADD SWAP1 DUP2 PUSH2 0x2525 SWAP2 SWAP1 PUSH2 0x4545 JUMP JUMPDEST POP PUSH1 0xA0 DUP3 ADD MLOAD DUP2 PUSH1 0x5 ADD SWAP1 DUP2 PUSH2 0x253B SWAP2 SWAP1 PUSH2 0x4545 JUMP JUMPDEST POP PUSH1 0xC0 DUP3 ADD MLOAD DUP2 PUSH1 0x6 ADD SSTORE POP POP POP DUP1 DUP1 PUSH1 0x1 ADD SWAP2 POP POP PUSH2 0x219D JUMP JUMPDEST POP CALLER PUSH20 0xFFFFFFFFFFFFFFFFFFFFFFFFFFFFFFFFFFFFFFFF AND DUP2 PUSH32 0xA68F79AA37F9CDC81C2757CFB3E11E9D7D89CA0A5410FBCF1B61125BC17FB1B7 PUSH1 0x40 MLOAD PUSH1 0x40 MLOAD DUP1 SWAP2 SUB SWAP1 LOG3 POP POP POP POP POP POP POP POP JUMP JUMPDEST PUSH1 0xA DUP2 DUP2 SLOAD DUP2 LT PUSH2 0x25B4 JUMPI PUSH0 DUP1 REVERT JUMPDEST SWAP1 PUSH0 MSTORE PUSH1 0x20 PUSH0 KECCAK256 ADD PUSH0 SWAP2 POP SWAP1 POP SLOAD DUP2 JUMP JUMPDEST PUSH2 0x25CD PUSH2 0x2C2A JUMP JUMPDEST PUSH2 0x25D5 PUSH2 0x2E1D JUMP JUMPDEST JUMP JUMPDEST PUSH1 0x1 PUSH0 SWAP1 SLOAD SWAP1 PUSH2 0x100 EXP SWAP1 DIV PUSH20 0xFFFFFFFFFFFFFFFFFFFFFFFFFFFFFFFFFFFFFFFF AND DUP2 JUMP JUMPDEST PUSH0 DUP1 PUSH0 SWAP1 SLOAD SWAP1 PUSH2 0x100 EXP SWAP1 DIV PUSH20 0xFFFFFFFFFFFFFFFFFFFFFFFFFFFFFFFFFFFFFFFF AND SWAP1 POP SWAP1 JUMP JUMPDEST PUSH2 0x262B PUSH2 0x2C2A JUMP JUMPDEST DUP1 PUSH1 0x1 PUSH0 PUSH2 0x100 EXP DUP2 SLOAD DUP2 PUSH20 0xFFFFFFFFFFFFFFFFFFFFFFFFFFFFFFFFFFFFFFFF MUL NOT AND SWAP1 DUP4 PUSH20 0xFFFFFFFFFFFFFFFFFFFFFFFFFFFFFFFFFFFFFFFF AND MUL OR SWAP1 SSTORE POP POP JUMP JUMPDEST PUSH1 0x2 SLOAD DUP2 JUMP JUMPDEST PUSH1 0xB PUSH1 0x20 MSTORE DUP1 PUSH0 MSTORE PUSH1 0x40 PUSH0 KECCAK256 PUSH0 SWAP2 POP SWAP1 POP DUP1 PUSH0 ADD PUSH0 SWAP1 SLOAD SWAP1 PUSH2 0x100 EXP SWAP1 DIV PUSH20 0xFFFFFFFFFFFFFFFFFFFFFFFFFFFFFFFFFFFFFFFF AND SWAP1 DUP1 PUSH1 0x1 ADD DUP1 SLOAD PUSH2 0x26B8 SWAP1 PUSH2 0x39B4 JUMP JUMPDEST DUP1 PUSH1 0x1F ADD PUSH1 0x20 DUP1 SWAP2 DIV MUL PUSH1 0x20 ADD PUSH1 0x40 MLOAD SWAP1 DUP2 ADD PUSH1 0x40 MSTORE DUP1 SWAP3 SWAP2 SWAP1 DUP2 DUP2 MSTORE PUSH1 0x20 ADD DUP3 DUP1 SLOAD PUSH2 0x26E4 SWAP1 PUSH2 0x39B4 JUMP JUMPDEST DUP1 ISZERO PUSH2 0x272F JUMPI DUP1 PUSH1 0x1F LT PUSH2 0x2706 JUMPI PUSH2 0x100 DUP1 DUP4 SLOAD DIV MUL DUP4 MSTORE SWAP2 PUSH1 0x20 ADD SWAP2 PUSH2 0x272F JUMP JUMPDEST DUP3 ADD SWAP2 SWAP1 PUSH0 MSTORE PUSH1 0x20 PUSH0 KECCAK256 SWAP1 JUMPDEST DUP2 SLOAD DUP2 MSTORE SWAP1 PUSH1 0x1 ADD SWAP1 PUSH1 0x20 ADD DUP1 DUP4 GT PUSH2 0x2712 JUMPI DUP3 SWAP1 SUB PUSH1 0x1F AND DUP3 ADD SWAP2 JUMPDEST POP POP POP POP POP SWAP1 DUP1 PUSH1 0x2 ADD PUSH0 SWAP1 SLOAD SWAP1 PUSH2 0x100 EXP SWAP1 DIV PUSH1 0xFF AND SWAP1 DUP1 PUSH1 0x2 ADD PUSH1 0x1 SWAP1 SLOAD SWAP1 PUSH2 0x100 EXP SWAP1 DIV PUSH4 0xFFFFFFFF AND SWAP1 DUP1 PUSH1 0x3 ADD SLOAD SWAP1 DUP1 PUSH1 0x4 ADD PUSH0 SWAP1 SLOAD SWAP1 PUSH2 0x100 EXP SWAP1 DIV PUSH4 0xFFFFFFFF AND SWAP1 POP DUP7 JUMP JUMPDEST PUSH1 0x5 SLOAD DUP2 JUMP JUMPDEST PUSH2 0x278A PUSH2 0x2C2A JUMP JUMPDEST PUSH0 DUP2 GT PUSH2 0x27CC JUMPI PUSH1 0x40 MLOAD PUSH32 0x8C379A000000000000000000000000000000000000000000000000000000000 DUP2 MSTORE PUSH1 0x4 ADD PUSH2 0x27C3 SWAP1 PUSH2 0x483E JUMP JUMPDEST PUSH1 0x40 MLOAD DUP1 SWAP2 SUB SWAP1 REVERT JUMPDEST DUP1 PUSH1 0x6 DUP2 SWAP1 SSTORE POP POP JUMP JUMPDEST PUSH1 0x6 SLOAD DUP2 JUMP JUMPDEST PUSH1 0xD PUSH1 0x20 MSTORE DUP2 PUSH0 MSTORE PUSH1 0x40 PUSH0 KECCAK256 DUP2 DUP2 SLOAD DUP2 LT PUSH2 0x27F5 JUMPI PUSH0 DUP1 REVERT JUMPDEST SWAP1 PUSH0 MSTORE PUSH1 0x20 PUSH0 KECCAK256 SWAP1 PUSH1 0x7 MUL ADD PUSH0 SWAP2 POP SWAP2 POP POP DUP1 PUSH0 ADD SLOAD SWAP1 DUP1 PUSH1 0x1 ADD DUP1 SLOAD PUSH2 0x281B SWAP1 PUSH2 0x39B4 JUMP JUMPDEST DUP1 PUSH1 0x1F ADD PUSH1 0x20 DUP1 SWAP2 DIV MUL PUSH1 0x20 ADD PUSH1 0x40 MLOAD SWAP1 DUP2 ADD PUSH1 0x40 MSTORE DUP1 SWAP3 SWAP2 SWAP1 DUP2 DUP2 MSTORE PUSH1 0x20 ADD DUP3 DUP1 SLOAD PUSH2 0x2847 SWAP1 PUSH2 0x39B4 JUMP JUMPDEST DUP1 ISZERO PUSH2 0x2892 JUMPI DUP1 PUSH1 0x1F LT PUSH2 0x2869 JUMPI PUSH2 0x100 DUP1 DUP4 SLOAD DIV MUL DUP4 MSTORE SWAP2 PUSH1 0x20 ADD SWAP2 PUSH2 0x2892 JUMP JUMPDEST DUP3 ADD SWAP2 SWAP1 PUSH0 MSTORE PUSH1 0x20 PUSH0 KECCAK256 SWAP1 JUMPDEST DUP2 SLOAD DUP2 MSTORE SWAP1 PUSH1 0x1 ADD SWAP1 PUSH1 0x20 ADD DUP1 DUP4 GT PUSH2 0x2875 JUMPI DUP3 SWAP1 SUB PUSH1 0x1F AND DUP3 ADD SWAP2 JUMPDEST POP POP POP POP POP SWAP1 DUP1 PUSH1 0x2 ADD DUP1 SLOAD PUSH2 0x28A7 SWAP1 PUSH2 0x39B4 JUMP JUMPDEST DUP1 PUSH1 0x1F ADD PUSH1 0x20 DUP1 SWAP2 DIV MUL PUSH1 0x20 ADD PUSH1 0x40 MLOAD SWAP1 DUP2 ADD PUSH1 0x40 MSTORE DUP1 SWAP3 SWAP2 SWAP1 DUP2 DUP2 MSTORE PUSH1 0x20 ADD DUP3 DUP1 SLOAD PUSH2 0x28D3 SWAP1 PUSH2 0x39B4 JUMP JUMPDEST DUP1 ISZERO PUSH2 0x291E JUMPI DUP1 PUSH1 0x1F LT PUSH2 0x28F5 JUMPI PUSH2 0x100 DUP1 DUP4 SLOAD DIV MUL DUP4 MSTORE SWAP2 PUSH1 0x20 ADD SWAP2 PUSH2 0x291E JUMP JUMPDEST DUP3 ADD SWAP2 SWAP1 PUSH0 MSTORE PUSH1 0x20 PUSH0 KECCAK256 SWAP1 JUMPDEST DUP2 SLOAD DUP2 MSTORE SWAP1 PUSH1 0x1 ADD SWAP1 PUSH1 0x20 ADD DUP1 DUP4 GT PUSH2 0x2901 JUMPI DUP3 SWAP1 SUB PUSH1 0x1F AND DUP3 ADD SWAP2 JUMPDEST POP POP POP POP POP SWAP1 DUP1 PUSH1 0x3 ADD DUP1 SLOAD PUSH2 0x2933 SWAP1 PUSH2 0x39B4 JUMP JUMPDEST DUP1 PUSH1 0x1F ADD PUSH1 0x20 DUP1 SWAP2 DIV MUL PUSH1 0x20 ADD PUSH1 0x40 MLOAD SWAP1 DUP2 ADD PUSH1 0x40 MSTORE DUP1 SWAP3 SWAP2 SWAP1 DUP2 DUP2 MSTORE PUSH1 0x20 ADD DUP3 DUP1 SLOAD PUSH2 0x295F SWAP1 PUSH2 0x39B4 JUMP JUMPDEST DUP1 ISZERO PUSH2 0x29AA JUMPI DUP1 PUSH1 0x1F LT PUSH2 0x2981 JUMPI PUSH2 0x100 DUP1 DUP4 SLOAD DIV MUL DUP4 MSTORE SWAP2 PUSH1 0x20 ADD SWAP2 PUSH2 0x29AA JUMP JUMPDEST DUP3 ADD SWAP2 SWAP1 PUSH0 MSTORE PUSH1 0x20 PUSH0 KECCAK256 SWAP1 JUMPDEST DUP2 SLOAD DUP2 MSTORE SWAP1 PUSH1 0x1 ADD SWAP1 PUSH1 0x20 ADD DUP1 DUP4 GT PUSH2 0x298D JUMPI DUP3 SWAP1 SUB PUSH1 0x1F AND DUP3 ADD SWAP2 JUMPDEST POP POP POP POP POP SWAP1 DUP1 PUSH1 0x4 ADD DUP1 SLOAD PUSH2 0x29BF SWAP1 PUSH2 0x39B4 JUMP JUMPDEST DUP1 PUSH1 0x1F ADD PUSH1 0x20 DUP1 SWAP2 DIV MUL PUSH1 0x20 ADD PUSH1 0x40 MLOAD SWAP1 DUP2 ADD PUSH1 0x40 MSTORE DUP1 SWAP3 SWAP2 SWAP1 DUP2 DUP2 MSTORE PUSH1 0x20 ADD DUP3 DUP1 SLOAD PUSH2 0x29EB SWAP1 PUSH2 0x39B4 JUMP JUMPDEST DUP1 ISZERO PUSH2 0x2A36 JUMPI DUP1 PUSH1 0x1F LT PUSH2 0x2A0D JUMPI PUSH2 0x100 DUP1 DUP4 SLOAD DIV MUL DUP4 MSTORE SWAP2 PUSH1 0x20 ADD SWAP2 PUSH2 0x2A36 JUMP JUMPDEST DUP3 ADD SWAP2 SWAP1 PUSH0 MSTORE PUSH1 0x20 PUSH0 KECCAK256 SWAP1 JUMPDEST DUP2 SLOAD DUP2 MSTORE SWAP1 PUSH1 0x1 ADD SWAP1 PUSH1 0x20 ADD DUP1 DUP4 GT PUSH2 0x2A19 JUMPI DUP3 SWAP1 SUB PUSH1 0x1F AND DUP3 ADD SWAP2 JUMPDEST POP POP POP POP POP SWAP1 DUP1 PUSH1 0x5 ADD DUP1 SLOAD PUSH2 0x2A4B SWAP1 PUSH2 0x39B4 JUMP JUMPDEST DUP1 PUSH1 0x1F ADD PUSH1 0x20 DUP1 SWAP2 DIV MUL PUSH1 0x20 ADD PUSH1 0x40 MLOAD SWAP1 DUP2 ADD PUSH1 0x40 MSTORE DUP1 SWAP3 SWAP2 SWAP1 DUP2 DUP2 MSTORE PUSH1 0x20 ADD DUP3 DUP1 SLOAD PUSH2 0x2A77 SWAP1 PUSH2 0x39B4 JUMP JUMPDEST DUP1 ISZERO PUSH2 0x2AC2 JUMPI DUP1 PUSH1 0x1F LT PUSH2 0x2A99 JUMPI PUSH2 0x100 DUP1 DUP4 SLOAD DIV MUL DUP4 MSTORE SWAP2 PUSH1 0x20 ADD SWAP2 PUSH2 0x2AC2 JUMP JUMPDEST DUP3 ADD SWAP2 SWAP1 PUSH0 MSTORE PUSH1 0x20 PUSH0 KECCAK256 SWAP1 JUMPDEST DUP2 SLOAD DUP2 MSTORE SWAP1 PUSH1 0x1 ADD SWAP1 PUSH1 0x20 ADD DUP1 DUP4 GT PUSH2 0x2AA5 JUMPI DUP3 SWAP1 SUB PUSH1 0x1F AND DUP3 ADD SWAP2 JUMPDEST POP POP POP POP POP SWAP1 DUP1 PUSH1 0x6 ADD SLOAD SWAP1 POP DUP8 JUMP JUMPDEST PUSH2 0x2ADA PUSH2 0x2C2A JUMP JUMPDEST PUSH0 DUP2 GT PUSH2 0x2B1C JUMPI PUSH1 0x40 MLOAD PUSH32 0x8C379A000000000000000000000000000000000000000000000000000000000 DUP2 MSTORE PUSH1 0x4 ADD PUSH2 0x2B13 SWAP1 PUSH2 0x3A2E JUMP JUMPDEST PUSH1 0x40 MLOAD DUP1 SWAP2 SUB SWAP1 REVERT JUMPDEST DUP1 PUSH1 0x4 DUP2 SWAP1 SSTORE POP POP JUMP JUMPDEST PUSH1 0x9 DUP2 DUP2 SLOAD DUP2 LT PUSH2 0x2B35 JUMPI PUSH0 DUP1 REVERT JUMPDEST SWAP1 PUSH0 MSTORE PUSH1 0x20 PUSH0 KECCAK256 ADD PUSH0 SWAP2 POP SWAP1 POP SLOAD DUP2 JUMP JUMPDEST PUSH1 0x4 SLOAD DUP2 JUMP JUMPDEST PUSH2 0x2B54 PUSH2 0x2C2A JUMP JUMPDEST PUSH0 DUP2 GT PUSH2 0x2B96 JUMPI PUSH1 0x40 MLOAD PUSH32 0x8C379A000000000000000000000000000000000000000000000000000000000 DUP2 MSTORE PUSH1 0x4 ADD PUSH2 0x2B8D SWAP1 PUSH2 0x3C07 JUMP JUMPDEST PUSH1 0x40 MLOAD DUP1 SWAP2 SUB SWAP1 REVERT JUMPDEST DUP1 PUSH1 0x2 DUP2 SWAP1 SSTORE POP POP JUMP JUMPDEST PUSH1 0x3 SLOAD DUP2 JUMP JUMPDEST PUSH2 0x2BAE PUSH2 0x2C2A JUMP JUMPDEST PUSH0 PUSH20 0xFFFFFFFFFFFFFFFFFFFFFFFFFFFFFFFFFFFFFFFF AND DUP2 PUSH20 0xFFFFFFFFFFFFFFFFFFFFFFFFFFFFFFFFFFFFFFFF AND SUB PUSH2 0x2C1E JUMPI PUSH0 PUSH1 0x40 MLOAD PUSH32 0x1E4FBDF700000000000000000000000000000000000000000000000000000000 DUP2 MSTORE PUSH1 0x4 ADD PUSH2 0x2C15 SWAP2 SWAP1 PUSH2 0x379E JUMP JUMPDEST PUSH1 0x40 MLOAD DUP1 SWAP2 SUB SWAP1 REVERT JUMPDEST PUSH2 0x2C27 DUP2 PUSH2 0x2D5C JUMP JUMPDEST POP JUMP JUMPDEST PUSH2 0x2C32 PUSH2 0x2E7F JUMP JUMPDEST PUSH20 0xFFFFFFFFFFFFFFFFFFFFFFFFFFFFFFFFFFFFFFFF AND PUSH2 0x2C50 PUSH2 0x25FC JUMP JUMPDEST PUSH20 0xFFFFFFFFFFFFFFFFFFFFFFFFFFFFFFFFFFFFFFFF AND EQ PUSH2 0x2CAF JUMPI PUSH2 0x2C73 PUSH2 0x2E7F JUMP JUMPDEST PUSH1 0x40 MLOAD PUSH32 0x118CDAA700000000000000000000000000000000000000000000000000000000 DUP2 MSTORE PUSH1 0x4 ADD PUSH2 0x2CA6 SWAP2 SWAP1 PUSH2 0x379E JUMP JUMPDEST PUSH1 0x40 MLOAD DUP1 SWAP2 SUB SWAP1 REVERT JUMPDEST JUMP JUMPDEST PUSH2 0x2CB9 PUSH2 0x2E86 JUMP JUMPDEST PUSH0 DUP1 PUSH1 0x14 PUSH2 0x100 EXP DUP2 SLOAD DUP2 PUSH1 0xFF MUL NOT AND SWAP1 DUP4 ISZERO ISZERO MUL OR SWAP1 SSTORE POP PUSH32 0x5DB9EE0A495BF2E6FF9C91A7834C1BA4FDD244A5E8AA4E537BD38AEAE4B073AA PUSH2 0x2CFB PUSH2 0x2E7F JUMP JUMPDEST PUSH1 0x40 MLOAD PUSH2 0x2D08 SWAP2 SWAP1 PUSH2 0x379E JUMP JUMPDEST PUSH1 0x40 MLOAD DUP1 SWAP2 SUB SWAP1 LOG1 JUMP JUMPDEST PUSH2 0x2D1A PUSH2 0xD06 JUMP JUMPDEST ISZERO PUSH2 0x2D5A JUMPI PUSH1 0x40 MLOAD PUSH32 0x8C379A000000000000000000000000000000000000000000000000000000000 DUP2 MSTORE PUSH1 0x4 ADD PUSH2 0x2D51 SWAP1 PUSH2 0x48A6 JUMP JUMPDEST PUSH1 0x40 MLOAD DUP1 SWAP2 SUB SWAP1 REVERT JUMPDEST JUMP JUMPDEST PUSH0 DUP1 PUSH0 SWAP1 SLOAD SWAP1 PUSH2 0x100 EXP SWAP1 DIV PUSH20 0xFFFFFFFFFFFFFFFFFFFFFFFFFFFFFFFFFFFFFFFF AND SWAP1 POP DUP2 PUSH0 DUP1 PUSH2 0x100 EXP DUP2 SLOAD DUP2 PUSH20 0xFFFFFFFFFFFFFFFFFFFFFFFFFFFFFFFFFFFFFFFF MUL NOT AND SWAP1 DUP4 PUSH20 0xFFFFFFFFFFFFFFFFFFFFFFFFFFFFFFFFFFFFFFFF AND MUL OR SWAP1 SSTORE POP DUP2 PUSH20 0xFFFFFFFFFFFFFFFFFFFFFFFFFFFFFFFFFFFFFFFF AND DUP2 PUSH20 0xFFFFFFFFFFFFFFFFFFFFFFFFFFFFFFFFFFFFFFFF AND PUSH32 0x8BE0079C531659141344CD1FD0A4F28419497F9722A3DAAFE3B4186F6B6457E0 PUSH1 0x40 MLOAD PUSH1 0x40 MLOAD DUP1 SWAP2 SUB SWAP1 LOG3 POP POP JUMP JUMPDEST PUSH2 0x2E25 PUSH2 0x2D12 JUMP JUMPDEST PUSH1 0x1 PUSH0 PUSH1 0x14 PUSH2 0x100 EXP DUP2 SLOAD DUP2 PUSH1 0xFF MUL NOT AND SWAP1 DUP4 ISZERO ISZERO MUL OR SWAP1 SSTORE POP PUSH32 0x62E78CEA01BEE320CD4E420270B5EA74000D11B0C9F74754EBDBFC544B05A258 PUSH2 0x2E68 PUSH2 0x2E7F JUMP JUMPDEST PUSH1 0x40 MLOAD PUSH2 0x2E75 SWAP2 SWAP1 PUSH2 0x379E JUMP JUMPDEST PUSH1 0x40 MLOAD DUP1 SWAP2 SUB SWAP1 LOG1 JUMP JUMPDEST PUSH0 CALLER SWAP1 POP SWAP1 JUMP JUMPDEST PUSH2 0x2E8E PUSH2 0xD06 JUMP JUMPDEST PUSH2 0x2ECD JUMPI PUSH1 0x40 MLOAD PUSH32 0x8C379A000000000000000000000000000000000000000000000000000000000 DUP2 MSTORE PUSH1 0x4 ADD PUSH2 0x2EC4 SWAP1 PUSH2 0x490E JUMP JUMPDEST PUSH1 0x40 MLOAD DUP1 SWAP2 SUB SWAP1 REVERT JUMPDEST JUMP JUMPDEST PUSH1 0x40 MLOAD DUP1 PUSH1 0xC0 ADD PUSH1 0x40 MSTORE DUP1 PUSH0 PUSH20 0xFFFFFFFFFFFFFFFFFFFFFFFFFFFFFFFFFFFFFFFF AND DUP2 MSTORE PUSH1 0x20 ADD PUSH1 0x60 DUP2 MSTORE PUSH1 0x20 ADD PUSH0 ISZERO ISZERO DUP2 MSTORE PUSH1 0x20 ADD PUSH0 PUSH4 0xFFFFFFFF AND DUP2 MSTORE PUSH1 0x20 ADD PUSH0 DUP2 MSTORE PUSH1 0x20 ADD PUSH0 PUSH4 0xFFFFFFFF AND DUP2 MSTORE POP SWAP1 JUMP JUMPDEST PUSH0 DUP2 MLOAD SWAP1 POP SWAP2 SWAP1 POP JUMP JUMPDEST PUSH0 DUP3 DUP3 MSTORE PUSH1 0x20 DUP3 ADD SWAP1 POP SWAP3 SWAP2 POP POP JUMP JUMPDEST PUSH0 DUP2 SWAP1 POP PUSH1 0x20 DUP3 ADD SWAP1 POP SWAP2 SWAP1 POP JUMP JUMPDEST PUSH0 PUSH20 0xFFFFFFFFFFFFFFFFFFFFFFFFFFFFFFFFFFFFFFFF DUP3 AND SWAP1 POP SWAP2 SWAP1 POP JUMP JUMPDEST PUSH0 PUSH2 0x2F76 DUP3 PUSH2 0x2F4D JUMP JUMPDEST SWAP1 POP SWAP2 SWAP1 POP JUMP JUMPDEST PUSH2 0x2F86 DUP2 PUSH2 0x2F6C JUMP JUMPDEST DUP3 MSTORE POP POP JUMP JUMPDEST PUSH0 DUP2 MLOAD SWAP1 POP SWAP2 SWAP1 POP JUMP JUMPDEST PUSH0 DUP3 DUP3 MSTORE PUSH1 0x20 DUP3 ADD SWAP1 POP SWAP3 SWAP2 POP POP JUMP JUMPDEST DUP3 DUP2 DUP4 MCOPY PUSH0 DUP4 DUP4 ADD MSTORE POP POP POP JUMP JUMPDEST PUSH0 PUSH1 0x1F NOT PUSH1 0x1F DUP4 ADD AND SWAP1 POP SWAP2 SWAP1 POP JUMP JUMPDEST PUSH0 PUSH2 0x2FCE DUP3 PUSH2 0x2F8C JUMP JUMPDEST PUSH2 0x2FD8 DUP2 DUP6 PUSH2 0x2F96 JUMP JUMPDEST SWAP4 POP PUSH2 0x2FE8 DUP2 DUP6 PUSH1 0x20 DUP7 ADD PUSH2 0x2FA6 JUMP JUMPDEST PUSH2 0x2FF1 DUP2 PUSH2 0x2FB4 JUMP JUMPDEST DUP5 ADD SWAP2 POP POP SWAP3 SWAP2 POP POP JUMP JUMPDEST PUSH0 DUP2 ISZERO ISZERO SWAP1 POP SWAP2 SWAP1 POP JUMP JUMPDEST PUSH2 0x3010 DUP2 PUSH2 0x2FFC JUMP JUMPDEST DUP3 MSTORE POP POP JUMP JUMPDEST PUSH0 PUSH4 0xFFFFFFFF DUP3 AND SWAP1 POP SWAP2 SWAP1 POP JUMP JUMPDEST PUSH2 0x302E DUP2 PUSH2 0x3016 JUMP JUMPDEST DUP3 MSTORE POP POP JUMP JUMPDEST PUSH0 DUP2 SWAP1 POP SWAP2 SWAP1 POP JUMP JUMPDEST PUSH2 0x3046 DUP2 PUSH2 0x3034 JUMP JUMPDEST DUP3 MSTORE POP POP JUMP JUMPDEST PUSH0 PUSH1 0xC0 DUP4 ADD PUSH0 DUP4 ADD MLOAD PUSH2 0x3061 PUSH0 DUP7 ADD DUP3 PUSH2 0x2F7D JUMP JUMPDEST POP PUSH1 0x20 DUP4 ADD MLOAD DUP5 DUP3 SUB PUSH1 0x20 DUP7 ADD MSTORE PUSH2 0x3079 DUP3 DUP3 PUSH2 0x2FC4 JUMP JUMPDEST SWAP2 POP POP PUSH1 0x40 DUP4 ADD MLOAD PUSH2 0x308E PUSH1 0x40 DUP7 ADD DUP3 PUSH2 0x3007 JUMP JUMPDEST POP PUSH1 0x60 DUP4 ADD MLOAD PUSH2 0x30A1 PUSH1 0x60 DUP7 ADD DUP3 PUSH2 0x3025 JUMP JUMPDEST POP PUSH1 0x80 DUP4 ADD MLOAD PUSH2 0x30B4 PUSH1 0x80 DUP7 ADD DUP3 PUSH2 0x303D JUMP JUMPDEST POP PUSH1 0xA0 DUP4 ADD MLOAD PUSH2 0x30C7 PUSH1 0xA0 DUP7 ADD DUP3 PUSH2 0x3025 JUMP JUMPDEST POP DUP1 SWAP2 POP POP SWAP3 SWAP2 POP POP JUMP JUMPDEST PUSH0 PUSH2 0x30DD DUP4 DUP4 PUSH2 0x304C JUMP JUMPDEST SWAP1 POP SWAP3 SWAP2 POP POP JUMP JUMPDEST PUSH0 PUSH1 0x20 DUP3 ADD SWAP1 POP SWAP2 SWAP1 POP JUMP JUMPDEST PUSH0 PUSH2 0x30FB DUP3 PUSH2 0x2F24 JUMP JUMPDEST PUSH2 0x3105 DUP2 DUP6 PUSH2 0x2F2E JUMP JUMPDEST SWAP4 POP DUP4 PUSH1 0x20 DUP3 MUL DUP6 ADD PUSH2 0x3117 DUP6 PUSH2 0x2F3E JUMP JUMPDEST DUP1 PUSH0 JUMPDEST DUP6 DUP2 LT ISZERO PUSH2 0x3152 JUMPI DUP5 DUP5 SUB DUP10 MSTORE DUP2 MLOAD PUSH2 0x3133 DUP6 DUP3 PUSH2 0x30D2 JUMP JUMPDEST SWAP5 POP PUSH2 0x313E DUP4 PUSH2 0x30E5 JUMP JUMPDEST SWAP3 POP PUSH1 0x20 DUP11 ADD SWAP10 POP POP PUSH1 0x1 DUP2 ADD SWAP1 POP PUSH2 0x311A JUMP JUMPDEST POP DUP3 SWAP8 POP DUP8 SWAP6 POP POP POP POP POP POP SWAP3 SWAP2 POP POP JUMP JUMPDEST PUSH0 PUSH1 0x20 DUP3 ADD SWAP1 POP DUP2 DUP2 SUB PUSH0 DUP4 ADD MSTORE PUSH2 0x317C DUP2 DUP5 PUSH2 0x30F1 JUMP JUMPDEST SWAP1 POP SWAP3 SWAP2 POP POP JUMP JUMPDEST PUSH0 PUSH1 0x40 MLOAD SWAP1 POP SWAP1 JUMP JUMPDEST PUSH0 DUP1 REVERT JUMPDEST PUSH0 DUP1 REVERT JUMPDEST PUSH2 0x319E DUP2 PUSH2 0x3034 JUMP JUMPDEST DUP2 EQ PUSH2 0x31A8 JUMPI PUSH0 DUP1 REVERT JUMPDEST POP JUMP JUMPDEST PUSH0 DUP2 CALLDATALOAD SWAP1 POP PUSH2 0x31B9 DUP2 PUSH2 0x3195 JUMP JUMPDEST SWAP3 SWAP2 POP POP JUMP JUMPDEST PUSH0 PUSH1 0x20 DUP3 DUP5 SUB SLT ISZERO PUSH2 0x31D4 JUMPI PUSH2 0x31D3 PUSH2 0x318D JUMP JUMPDEST JUMPDEST PUSH0 PUSH2 0x31E1 DUP5 DUP3 DUP6 ADD PUSH2 0x31AB JUMP JUMPDEST SWAP2 POP POP SWAP3 SWAP2 POP POP JUMP JUMPDEST PUSH2 0x31F3 DUP2 PUSH2 0x2F6C JUMP JUMPDEST DUP2 EQ PUSH2 0x31FD JUMPI PUSH0 DUP1 REVERT JUMPDEST POP JUMP JUMPDEST PUSH0 DUP2 CALLDATALOAD SWAP1 POP PUSH2 0x320E DUP2 PUSH2 0x31EA JUMP JUMPDEST SWAP3 SWAP2 POP POP JUMP JUMPDEST PUSH0 DUP1 PUSH1 0x40 DUP4 DUP6 SUB SLT ISZERO PUSH2 0x322A JUMPI PUSH2 0x3229 PUSH2 0x318D JUMP JUMPDEST JUMPDEST PUSH0 PUSH2 0x3237 DUP6 DUP3 DUP7 ADD PUSH2 0x3200 JUMP JUMPDEST SWAP3 POP POP PUSH1 0x20 PUSH2 0x3248 DUP6 DUP3 DUP7 ADD PUSH2 0x31AB JUMP JUMPDEST SWAP2 POP POP SWAP3 POP SWAP3 SWAP1 POP JUMP JUMPDEST PUSH2 0x325B DUP2 PUSH2 0x2FFC JUMP JUMPDEST DUP3 MSTORE POP POP JUMP JUMPDEST PUSH0 PUSH1 0xFF DUP3 AND SWAP1 POP SWAP2 SWAP1 POP JUMP JUMPDEST PUSH2 0x3276 DUP2 PUSH2 0x3261 JUMP JUMPDEST DUP3 MSTORE POP POP JUMP JUMPDEST PUSH0 PUSH1 0x80 DUP3 ADD SWAP1 POP PUSH2 0x328F PUSH0 DUP4 ADD DUP8 PUSH2 0x3252 JUMP JUMPDEST PUSH2 0x329C PUSH1 0x20 DUP4 ADD DUP7 PUSH2 0x326D JUMP JUMPDEST PUSH2 0x32A9 PUSH1 0x40 DUP4 ADD DUP6 PUSH2 0x3252 JUMP JUMPDEST PUSH2 0x32B6 PUSH1 0x60 DUP4 ADD DUP5 PUSH2 0x3252 JUMP JUMPDEST SWAP6 SWAP5 POP POP POP POP POP JUMP JUMPDEST PUSH0 PUSH1 0x20 DUP3 DUP5 SUB SLT ISZERO PUSH2 0x32D4 JUMPI PUSH2 0x32D3 PUSH2 0x318D JUMP JUMPDEST JUMPDEST PUSH0 PUSH2 0x32E1 DUP5 DUP3 DUP6 ADD PUSH2 0x3200 JUMP JUMPDEST SWAP2 POP POP SWAP3 SWAP2 POP POP JUMP JUMPDEST PUSH2 0x32F3 DUP2 PUSH2 0x3034 JUMP JUMPDEST DUP3 MSTORE POP POP JUMP JUMPDEST PUSH0 PUSH1 0x40 DUP3 ADD SWAP1 POP PUSH2 0x330C PUSH0 DUP4 ADD DUP6 PUSH2 0x32EA JUMP JUMPDEST PUSH2 0x3319 PUSH1 0x20 DUP4 ADD DUP5 PUSH2 0x32EA JUMP JUMPDEST SWAP4 SWAP3 POP POP POP JUMP JUMPDEST PUSH0 PUSH1 0x20 DUP3 ADD SWAP1 POP PUSH2 0x3333 PUSH0 DUP4 ADD DUP5 PUSH2 0x32EA JUMP JUMPDEST SWAP3 SWAP2 POP POP JUMP JUMPDEST PUSH0 PUSH1 0x20 DUP3 ADD SWAP1 POP PUSH2 0x334C PUSH0 DUP4 ADD DUP5 PUSH2 0x3252 JUMP JUMPDEST SWAP3 SWAP2 POP POP JUMP JUMPDEST PUSH0 DUP1 REVERT JUMPDEST PUSH32 0x4E487B7100000000000000000000000000000000000000000000000000000000 PUSH0 MSTORE PUSH1 0x41 PUSH1 0x4 MSTORE PUSH1 0x24 PUSH0 REVERT JUMPDEST PUSH2 0x338C DUP3 PUSH2 0x2FB4 JUMP JUMPDEST DUP2 ADD DUP2 DUP2 LT PUSH8 0xFFFFFFFFFFFFFFFF DUP3 GT OR ISZERO PUSH2 0x33AB JUMPI PUSH2 0x33AA PUSH2 0x3356 JUMP JUMPDEST JUMPDEST DUP1 PUSH1 0x40 MSTORE POP POP POP JUMP JUMPDEST PUSH0 PUSH2 0x33BD PUSH2 0x3184 JUMP JUMPDEST SWAP1 POP PUSH2 0x33C9 DUP3 DUP3 PUSH2 0x3383 JUMP JUMPDEST SWAP2 SWAP1 POP JUMP JUMPDEST PUSH0 PUSH8 0xFFFFFFFFFFFFFFFF DUP3 GT ISZERO PUSH2 0x33E8 JUMPI PUSH2 0x33E7 PUSH2 0x3356 JUMP JUMPDEST JUMPDEST PUSH1 0x20 DUP3 MUL SWAP1 POP PUSH1 0x20 DUP2 ADD SWAP1 POP SWAP2 SWAP1 POP JUMP JUMPDEST PUSH0 DUP1 REVERT JUMPDEST PUSH0 DUP1 REVERT JUMPDEST PUSH0 PUSH8 0xFFFFFFFFFFFFFFFF DUP3 GT ISZERO PUSH2 0x341B JUMPI PUSH2 0x341A PUSH2 0x3356 JUMP JUMPDEST JUMPDEST PUSH2 0x3424 DUP3 PUSH2 0x2FB4 JUMP JUMPDEST SWAP1 POP PUSH1 0x20 DUP2 ADD SWAP1 POP SWAP2 SWAP1 POP JUMP JUMPDEST DUP3 DUP2 DUP4 CALLDATACOPY PUSH0 DUP4 DUP4 ADD MSTORE POP POP POP JUMP JUMPDEST PUSH0 PUSH2 0x3451 PUSH2 0x344C DUP5 PUSH2 0x3401 JUMP JUMPDEST PUSH2 0x33B4 JUMP JUMPDEST SWAP1 POP DUP3 DUP2 MSTORE PUSH1 0x20 DUP2 ADD DUP5 DUP5 DUP5 ADD GT ISZERO PUSH2 0x346D JUMPI PUSH2 0x346C PUSH2 0x33FD JUMP JUMPDEST JUMPDEST PUSH2 0x3478 DUP5 DUP3 DUP6 PUSH2 0x3431 JUMP JUMPDEST POP SWAP4 SWAP3 POP POP POP JUMP JUMPDEST PUSH0 DUP3 PUSH1 0x1F DUP4 ADD SLT PUSH2 0x3494 JUMPI PUSH2 0x3493 PUSH2 0x3352 JUMP JUMPDEST JUMPDEST DUP2 CALLDATALOAD PUSH2 0x34A4 DUP5 DUP3 PUSH1 0x20 DUP7 ADD PUSH2 0x343F JUMP JUMPDEST SWAP2 POP POP SWAP3 SWAP2 POP POP JUMP JUMPDEST PUSH0 PUSH2 0x34BF PUSH2 0x34BA DUP5 PUSH2 0x33CE JUMP JUMPDEST PUSH2 0x33B4 JUMP JUMPDEST SWAP1 POP DUP1 DUP4 DUP3 MSTORE PUSH1 0x20 DUP3 ADD SWAP1 POP PUSH1 0x20 DUP5 MUL DUP4 ADD DUP6 DUP2 GT ISZERO PUSH2 0x34E2 JUMPI PUSH2 0x34E1 PUSH2 0x33F9 JUMP JUMPDEST JUMPDEST DUP4 JUMPDEST DUP2 DUP2 LT ISZERO PUSH2 0x3529 JUMPI DUP1 CALLDATALOAD PUSH8 0xFFFFFFFFFFFFFFFF DUP2 GT ISZERO PUSH2 0x3507 JUMPI PUSH2 0x3506 PUSH2 0x3352 JUMP JUMPDEST JUMPDEST DUP1 DUP7 ADD PUSH2 0x3514 DUP10 DUP3 PUSH2 0x3480 JUMP JUMPDEST DUP6 MSTORE PUSH1 0x20 DUP6 ADD SWAP5 POP POP POP PUSH1 0x20 DUP2 ADD SWAP1 POP PUSH2 0x34E4 JUMP JUMPDEST POP POP POP SWAP4 SWAP3 POP POP POP JUMP JUMPDEST PUSH0 DUP3 PUSH1 0x1F DUP4 ADD SLT PUSH2 0x3547 JUMPI PUSH2 0x3546 PUSH2 0x3352 JUMP JUMPDEST JUMPDEST DUP2 CALLDATALOAD PUSH2 0x3557 DUP5 DUP3 PUSH1 0x20 DUP7 ADD PUSH2 0x34AD JUMP JUMPDEST SWAP2 POP POP SWAP3 SWAP2 POP POP JUMP JUMPDEST PUSH0 DUP1 PUSH1 0x40 DUP4 DUP6 SUB SLT ISZERO PUSH2 0x3576 JUMPI PUSH2 0x3575 PUSH2 0x318D JUMP JUMPDEST JUMPDEST PUSH0 PUSH2 0x3583 DUP6 DUP3 DUP7 ADD PUSH2 0x31AB JUMP JUMPDEST SWAP3 POP POP PUSH1 0x20 DUP4 ADD CALLDATALOAD PUSH8 0xFFFFFFFFFFFFFFFF DUP2 GT ISZERO PUSH2 0x35A4 JUMPI PUSH2 0x35A3 PUSH2 0x3191 JUMP JUMPDEST JUMPDEST PUSH2 0x35B0 DUP6 DUP3 DUP7 ADD PUSH2 0x3533 JUMP JUMPDEST SWAP2 POP POP SWAP3 POP SWAP3 SWAP1 POP JUMP JUMPDEST PUSH0 DUP1 PUSH0 DUP1 PUSH0 DUP1 PUSH0 PUSH1 0xE0 DUP9 DUP11 SUB SLT ISZERO PUSH2 0x35D5 JUMPI PUSH2 0x35D4 PUSH2 0x318D JUMP JUMPDEST JUMPDEST PUSH0 DUP9 ADD CALLDATALOAD PUSH8 0xFFFFFFFFFFFFFFFF DUP2 GT ISZERO PUSH2 0x35F2 JUMPI PUSH2 0x35F1 PUSH2 0x3191 JUMP JUMPDEST JUMPDEST PUSH2 0x35FE DUP11 DUP3 DUP12 ADD PUSH2 0x3480 JUMP JUMPDEST SWAP8 POP POP PUSH1 0x20 DUP9 ADD CALLDATALOAD PUSH8 0xFFFFFFFFFFFFFFFF DUP2 GT ISZERO PUSH2 0x361F JUMPI PUSH2 0x361E PUSH2 0x3191 JUMP JUMPDEST JUMPDEST PUSH2 0x362B DUP11 DUP3 DUP12 ADD PUSH2 0x3533 JUMP JUMPDEST SWAP7 POP POP PUSH1 0x40 DUP9 ADD CALLDATALOAD PUSH8 0xFFFFFFFFFFFFFFFF DUP2 GT ISZERO PUSH2 0x364C JUMPI PUSH2 0x364B PUSH2 0x3191 JUMP JUMPDEST JUMPDEST PUSH2 0x3658 DUP11 DUP3 DUP12 ADD PUSH2 0x3533 JUMP JUMPDEST SWAP6 POP POP PUSH1 0x60 DUP9 ADD CALLDATALOAD PUSH8 0xFFFFFFFFFFFFFFFF DUP2 GT ISZERO PUSH2 0x3679 JUMPI PUSH2 0x3678 PUSH2 0x3191 JUMP JUMPDEST JUMPDEST PUSH2 0x3685 DUP11 DUP3 DUP12 ADD PUSH2 0x3533 JUMP JUMPDEST SWAP5 POP POP PUSH1 0x80 DUP9 ADD CALLDATALOAD PUSH8 0xFFFFFFFFFFFFFFFF DUP2 GT ISZERO PUSH2 0x36A6 JUMPI PUSH2 0x36A5 PUSH2 0x3191 JUMP JUMPDEST JUMPDEST PUSH2 0x36B2 DUP11 DUP3 DUP12 ADD PUSH2 0x3533 JUMP JUMPDEST SWAP4 POP POP PUSH1 0xA0 DUP9 ADD CALLDATALOAD PUSH8 0xFFFFFFFFFFFFFFFF DUP2 GT ISZERO PUSH2 0x36D3 JUMPI PUSH2 0x36D2 PUSH2 0x3191 JUMP JUMPDEST JUMPDEST PUSH2 0x36DF DUP11 DUP3 DUP12 ADD PUSH2 0x3533 JUMP JUMPDEST SWAP3 POP POP PUSH1 0xC0 DUP9 ADD CALLDATALOAD PUSH8 0xFFFFFFFFFFFFFFFF DUP2 GT ISZERO PUSH2 0x3700 JUMPI PUSH2 0x36FF PUSH2 0x3191 JUMP JUMPDEST JUMPDEST PUSH2 0x370C DUP11 DUP3 DUP12 ADD PUSH2 0x3533 JUMP JUMPDEST SWAP2 POP POP SWAP3 SWAP6 SWAP9 SWAP2 SWAP5 SWAP8 POP SWAP3 SWAP6 POP JUMP JUMPDEST PUSH0 DUP2 SWAP1 POP SWAP2 SWAP1 POP JUMP JUMPDEST PUSH0 PUSH2 0x373E PUSH2 0x3739 PUSH2 0x3734 DUP5 PUSH2 0x2F4D JUMP JUMPDEST PUSH2 0x371B JUMP JUMPDEST PUSH2 0x2F4D JUMP JUMPDEST SWAP1 POP SWAP2 SWAP1 POP JUMP JUMPDEST PUSH0 PUSH2 0x374F DUP3 PUSH2 0x3724 JUMP JUMPDEST SWAP1 POP SWAP2 SWAP1 POP JUMP JUMPDEST PUSH0 PUSH2 0x3760 DUP3 PUSH2 0x3745 JUMP JUMPDEST SWAP1 POP SWAP2 SWAP1 POP JUMP JUMPDEST PUSH2 0x3770 DUP2 PUSH2 0x3756 JUMP JUMPDEST DUP3 MSTORE POP POP JUMP JUMPDEST PUSH0 PUSH1 0x20 DUP3 ADD SWAP1 POP PUSH2 0x3789 PUSH0 DUP4 ADD DUP5 PUSH2 0x3767 JUMP JUMPDEST SWAP3 SWAP2 POP POP JUMP JUMPDEST PUSH2 0x3798 DUP2 PUSH2 0x2F6C JUMP JUMPDEST DUP3 MSTORE POP POP JUMP JUMPDEST PUSH0 PUSH1 0x20 DUP3 ADD SWAP1 POP PUSH2 0x37B1 PUSH0 DUP4 ADD DUP5 PUSH2 0x378F JUMP JUMPDEST SWAP3 SWAP2 POP POP JUMP JUMPDEST PUSH0 DUP3 DUP3 MSTORE PUSH1 0x20 DUP3 ADD SWAP1 POP SWAP3 SWAP2 POP POP JUMP JUMPDEST PUSH0 PUSH2 0x37D1 DUP3 PUSH2 0x2F8C JUMP JUMPDEST PUSH2 0x37DB DUP2 DUP6 PUSH2 0x37B7 JUMP JUMPDEST SWAP4 POP PUSH2 0x37EB DUP2 DUP6 PUSH1 0x20 DUP7 ADD PUSH2 0x2FA6 JUMP JUMPDEST PUSH2 0x37F4 DUP2 PUSH2 0x2FB4 JUMP JUMPDEST DUP5 ADD SWAP2 POP POP SWAP3 SWAP2 POP POP JUMP JUMPDEST PUSH2 0x3808 DUP2 PUSH2 0x3016 JUMP JUMPDEST DUP3 MSTORE POP POP JUMP JUMPDEST PUSH0 PUSH1 0xC0 DUP3 ADD SWAP1 POP PUSH2 0x3821 PUSH0 DUP4 ADD DUP10 PUSH2 0x378F JUMP JUMPDEST DUP2 DUP2 SUB PUSH1 0x20 DUP4 ADD MSTORE PUSH2 0x3833 DUP2 DUP9 PUSH2 0x37C7 JUMP JUMPDEST SWAP1 POP PUSH2 0x3842 PUSH1 0x40 DUP4 ADD DUP8 PUSH2 0x3252 JUMP JUMPDEST PUSH2 0x384F PUSH1 0x60 DUP4 ADD DUP7 PUSH2 0x37FF JUMP JUMPDEST PUSH2 0x385C PUSH1 0x80 DUP4 ADD DUP6 PUSH2 0x32EA JUMP JUMPDEST PUSH2 0x3869 PUSH1 0xA0 DUP4 ADD DUP5 PUSH2 0x37FF JUMP JUMPDEST SWAP8 SWAP7 POP POP POP POP POP POP POP JUMP JUMPDEST PUSH0 DUP1 PUSH1 0x40 DUP4 DUP6 SUB SLT ISZERO PUSH2 0x388A JUMPI PUSH2 0x3889 PUSH2 0x318D JUMP JUMPDEST JUMPDEST PUSH0 PUSH2 0x3897 DUP6 DUP3 DUP7 ADD PUSH2 0x31AB JUMP JUMPDEST SWAP3 POP POP PUSH1 0x20 PUSH2 0x38A8 DUP6 DUP3 DUP7 ADD PUSH2 0x31AB JUMP JUMPDEST SWAP2 POP POP SWAP3 POP SWAP3 SWAP1 POP JUMP JUMPDEST PUSH0 DUP2 SWAP1 POP SWAP2 SWAP1 POP JUMP JUMPDEST PUSH2 0x38C4 DUP2 PUSH2 0x38B2 JUMP JUMPDEST DUP3 MSTORE POP POP JUMP JUMPDEST PUSH0 PUSH1 0xE0 DUP3 ADD SWAP1 POP PUSH2 0x38DD PUSH0 DUP4 ADD DUP11 PUSH2 0x32EA JUMP JUMPDEST DUP2 DUP2 SUB PUSH1 0x20 DUP4 ADD MSTORE PUSH2 0x38EF DUP2 DUP10 PUSH2 0x37C7 JUMP JUMPDEST SWAP1 POP DUP2 DUP2 SUB PUSH1 0x40 DUP4 ADD MSTORE PUSH2 0x3903 DUP2 DUP9 PUSH2 0x37C7 JUMP JUMPDEST SWAP1 POP DUP2 DUP2 SUB PUSH1 0x60 DUP4 ADD MSTORE PUSH2 0x3917 DUP2 DUP8 PUSH2 0x37C7 JUMP JUMPDEST SWAP1 POP DUP2 DUP2 SUB PUSH1 0x80 DUP4 ADD MSTORE PUSH2 0x392B DUP2 DUP7 PUSH2 0x37C7 JUMP JUMPDEST SWAP1 POP DUP2 DUP2 SUB PUSH1 0xA0 DUP4 ADD MSTORE PUSH2 0x393F DUP2 DUP6 PUSH2 0x37C7 JUMP JUMPDEST SWAP1 POP PUSH2 0x394E PUSH1 0xC0 DUP4 ADD DUP5 PUSH2 0x38BB JUMP JUMPDEST SWAP9 SWAP8 POP POP POP POP POP POP POP POP JUMP JUMPDEST PUSH32 0x4E487B7100000000000000000000000000000000000000000000000000000000 PUSH0 MSTORE PUSH1 0x32 PUSH1 0x4 MSTORE PUSH1 0x24 PUSH0 REVERT JUMPDEST PUSH32 0x4E487B7100000000000000000000000000000000000000000000000000000000 PUSH0 MSTORE PUSH1 0x22 PUSH1 0x4 MSTORE PUSH1 0x24 PUSH0 REVERT JUMPDEST PUSH0 PUSH1 0x2 DUP3 DIV SWAP1 POP PUSH1 0x1 DUP3 AND DUP1 PUSH2 0x39CB JUMPI PUSH1 0x7F DUP3 AND SWAP2 POP JUMPDEST PUSH1 0x20 DUP3 LT DUP2 SUB PUSH2 0x39DE JUMPI PUSH2 0x39DD PUSH2 0x3987 JUMP JUMPDEST JUMPDEST POP SWAP2 SWAP1 POP JUMP JUMPDEST PUSH32 0x526577617264206D7573742062652067726561746572207468616E2030000000 PUSH0 DUP3 ADD MSTORE POP JUMP JUMPDEST PUSH0 PUSH2 0x3A18 PUSH1 0x1D DUP4 PUSH2 0x37B7 JUMP JUMPDEST SWAP2 POP PUSH2 0x3A23 DUP3 PUSH2 0x39E4 JUMP JUMPDEST PUSH1 0x20 DUP3 ADD SWAP1 POP SWAP2 SWAP1 POP JUMP JUMPDEST PUSH0 PUSH1 0x20 DUP3 ADD SWAP1 POP DUP2 DUP2 SUB PUSH0 DUP4 ADD MSTORE PUSH2 0x3A45 DUP2 PUSH2 0x3A0C JUMP JUMPDEST SWAP1 POP SWAP2 SWAP1 POP JUMP JUMPDEST PUSH32 0x4E487B7100000000000000000000000000000000000000000000000000000000 PUSH0 MSTORE PUSH1 0x11 PUSH1 0x4 MSTORE PUSH1 0x24 PUSH0 REVERT JUMPDEST PUSH0 PUSH2 0x3A83 DUP3 PUSH2 0x3034 JUMP JUMPDEST SWAP2 POP PUSH2 0x3A8E DUP4 PUSH2 0x3034 JUMP JUMPDEST SWAP3 POP DUP3 DUP3 ADD SWAP1 POP DUP1 DUP3 GT ISZERO PUSH2 0x3AA6 JUMPI PUSH2 0x3AA5 PUSH2 0x3A4C JUMP JUMPDEST JUMPDEST SWAP3 SWAP2 POP POP JUMP JUMPDEST PUSH32 0x5769746864726177616C20696E74657276616C206E6F74207265616368656400 PUSH0 DUP3 ADD MSTORE POP JUMP JUMPDEST PUSH0 PUSH2 0x3AE0 PUSH1 0x1F DUP4 PUSH2 0x37B7 JUMP JUMPDEST SWAP2 POP PUSH2 0x3AEB DUP3 PUSH2 0x3AAC JUMP JUMPDEST PUSH1 0x20 DUP3 ADD SWAP1 POP SWAP2 SWAP1 POP JUMP JUMPDEST PUSH0 PUSH1 0x20 DUP3 ADD SWAP1 POP DUP2 DUP2 SUB PUSH0 DUP4 ADD MSTORE PUSH2 0x3B0D DUP2 PUSH2 0x3AD4 JUMP JUMPDEST SWAP1 POP SWAP2 SWAP1 POP JUMP JUMPDEST PUSH0 DUP2 SWAP1 POP SWAP3 SWAP2 POP POP JUMP JUMPDEST POP JUMP JUMPDEST PUSH0 PUSH2 0x3B2C PUSH0 DUP4 PUSH2 0x3B14 JUMP JUMPDEST SWAP2 POP PUSH2 0x3B37 DUP3 PUSH2 0x3B1E JUMP JUMPDEST PUSH0 DUP3 ADD SWAP1 POP SWAP2 SWAP1 POP JUMP JUMPDEST PUSH0 PUSH2 0x3B4B DUP3 PUSH2 0x3B21 JUMP JUMPDEST SWAP2 POP DUP2 SWAP1 POP SWAP2 SWAP1 POP JUMP JUMPDEST PUSH32 0x4661696C656420746F2077697468647261772067617320666565730000000000 PUSH0 DUP3 ADD MSTORE POP JUMP JUMPDEST PUSH0 PUSH2 0x3B89 PUSH1 0x1B DUP4 PUSH2 0x37B7 JUMP JUMPDEST SWAP2 POP PUSH2 0x3B94 DUP3 PUSH2 0x3B55 JUMP JUMPDEST PUSH1 0x20 DUP3 ADD SWAP1 POP SWAP2 SWAP1 POP JUMP JUMPDEST PUSH0 PUSH1 0x20 DUP3 ADD SWAP1 POP DUP2 DUP2 SUB PUSH0 DUP4 ADD MSTORE PUSH2 0x3BB6 DUP2 PUSH2 0x3B7D JUMP JUMPDEST SWAP1 POP SWAP2 SWAP1 POP JUMP JUMPDEST PUSH32 0x5468726573686F6C64206D7573742062652067726561746572207468616E2030 PUSH0 DUP3 ADD MSTORE POP JUMP JUMPDEST PUSH0 PUSH2 0x3BF1 PUSH1 0x20 DUP4 PUSH2 0x37B7 JUMP JUMPDEST SWAP2 POP PUSH2 0x3BFC DUP3 PUSH2 0x3BBD JUMP JUMPDEST PUSH1 0x20 DUP3 ADD SWAP1 POP SWAP2 SWAP1 POP JUMP JUMPDEST PUSH0 PUSH1 0x20 DUP3 ADD SWAP1 POP DUP2 DUP2 SUB PUSH0 DUP4 ADD MSTORE PUSH2 0x3C1E DUP2 PUSH2 0x3BE5 JUMP JUMPDEST SWAP1 POP SWAP2 SWAP1 POP JUMP JUMPDEST PUSH32 0x496E73756666696369656E742067617320666565000000000000000000000000 PUSH0 DUP3 ADD MSTORE POP JUMP JUMPDEST PUSH0 PUSH2 0x3C59 PUSH1 0x14 DUP4 PUSH2 0x37B7 JUMP JUMPDEST SWAP2 POP PUSH2 0x3C64 DUP3 PUSH2 0x3C25 JUMP JUMPDEST PUSH1 0x20 DUP3 ADD SWAP1 POP SWAP2 SWAP1 POP JUMP JUMPDEST PUSH0 PUSH1 0x20 DUP3 ADD SWAP1 POP DUP2 DUP2 SUB PUSH0 DUP4 ADD MSTORE PUSH2 0x3C86 DUP2 PUSH2 0x3C4D JUMP JUMPDEST SWAP1 POP SWAP2 SWAP1 POP JUMP JUMPDEST PUSH32 0x55736572206E6F7420656E726F6C6C656420696E207468697320636F75727365 PUSH0 DUP3 ADD MSTORE POP JUMP JUMPDEST PUSH0 PUSH2 0x3CC1 PUSH1 0x20 DUP4 PUSH2 0x37B7 JUMP JUMPDEST SWAP2 POP PUSH2 0x3CCC DUP3 PUSH2 0x3C8D JUMP JUMPDEST PUSH1 0x20 DUP3 ADD SWAP1 POP SWAP2 SWAP1 POP JUMP JUMPDEST PUSH0 PUSH1 0x20 DUP3 ADD SWAP1 POP DUP2 DUP2 SUB PUSH0 DUP4 ADD MSTORE PUSH2 0x3CEE DUP2 PUSH2 0x3CB5 JUMP JUMPDEST SWAP1 POP SWAP2 SWAP1 POP JUMP JUMPDEST PUSH32 0x4D6178696D756D20617474656D70747320726561636865640000000000000000 PUSH0 DUP3 ADD MSTORE POP JUMP JUMPDEST PUSH0 PUSH2 0x3D29 PUSH1 0x18 DUP4 PUSH2 0x37B7 JUMP JUMPDEST SWAP2 POP PUSH2 0x3D34 DUP3 PUSH2 0x3CF5 JUMP JUMPDEST PUSH1 0x20 DUP3 ADD SWAP1 POP SWAP2 SWAP1 POP JUMP JUMPDEST PUSH0 PUSH1 0x20 DUP3 ADD SWAP1 POP DUP2 DUP2 SUB PUSH0 DUP4 ADD MSTORE PUSH2 0x3D56 DUP2 PUSH2 0x3D1D JUMP JUMPDEST SWAP1 POP SWAP2 SWAP1 POP JUMP JUMPDEST PUSH32 0x557365722068617320616C726561647920706173736564207468697320636F75 PUSH0 DUP3 ADD MSTORE PUSH32 0x7273650000000000000000000000000000000000000000000000000000000000 PUSH1 0x20 DUP3 ADD MSTORE POP JUMP JUMPDEST PUSH0 PUSH2 0x3DB7 PUSH1 0x23 DUP4 PUSH2 0x37B7 JUMP JUMPDEST SWAP2 POP PUSH2 0x3DC2 DUP3 PUSH2 0x3D5D JUMP JUMPDEST PUSH1 0x40 DUP3 ADD SWAP1 POP SWAP2 SWAP1 POP JUMP JUMPDEST PUSH0 PUSH1 0x20 DUP3 ADD SWAP1 POP DUP2 DUP2 SUB PUSH0 DUP4 ADD MSTORE PUSH2 0x3DE4 DUP2 PUSH2 0x3DAB JUMP JUMPDEST SWAP1 POP SWAP2 SWAP1 POP JUMP JUMPDEST PUSH0 PUSH2 0x3DF5 DUP3 PUSH2 0x3261 JUMP JUMPDEST SWAP2 POP PUSH1 0xFF DUP3 SUB PUSH2 0x3E08 JUMPI PUSH2 0x3E07 PUSH2 0x3A4C JUMP JUMPDEST JUMPDEST PUSH1 0x1 DUP3 ADD SWAP1 POP SWAP2 SWAP1 POP JUMP JUMPDEST PUSH32 0x416E7377657220636F756E74206D69736D617463680000000000000000000000 PUSH0 DUP3 ADD MSTORE POP JUMP JUMPDEST PUSH0 PUSH2 0x3E47 PUSH1 0x15 DUP4 PUSH2 0x37B7 JUMP JUMPDEST SWAP2 POP PUSH2 0x3E52 DUP3 PUSH2 0x3E13 JUMP JUMPDEST PUSH1 0x20 DUP3 ADD SWAP1 POP SWAP2 SWAP1 POP JUMP JUMPDEST PUSH0 PUSH1 0x20 DUP3 ADD SWAP1 POP DUP2 DUP2 SUB PUSH0 DUP4 ADD MSTORE PUSH2 0x3E74 DUP2 PUSH2 0x3E3B JUMP JUMPDEST SWAP1 POP SWAP2 SWAP1 POP JUMP JUMPDEST PUSH0 DUP2 SWAP1 POP SWAP3 SWAP2 POP POP JUMP JUMPDEST PUSH0 PUSH2 0x3E8F DUP3 PUSH2 0x2F8C JUMP JUMPDEST PUSH2 0x3E99 DUP2 DUP6 PUSH2 0x3E7B JUMP JUMPDEST SWAP4 POP PUSH2 0x3EA9 DUP2 DUP6 PUSH1 0x20 DUP7 ADD PUSH2 0x2FA6 JUMP JUMPDEST DUP1 DUP5 ADD SWAP2 POP POP SWAP3 SWAP2 POP POP JUMP JUMPDEST PUSH0 PUSH2 0x3EC0 DUP3 DUP5 PUSH2 0x3E85 JUMP JUMPDEST SWAP2 POP DUP2 SWAP1 POP SWAP3 SWAP2 POP POP JUMP JUMPDEST PUSH0 PUSH2 0x3ED5 DUP3 PUSH2 0x3016 JUMP JUMPDEST SWAP2 POP PUSH4 0xFFFFFFFF DUP3 SUB PUSH2 0x3EEB JUMPI PUSH2 0x3EEA PUSH2 0x3A4C JUMP JUMPDEST JUMPDEST PUSH1 0x1 DUP3 ADD SWAP1 POP SWAP2 SWAP1 POP JUMP JUMPDEST PUSH32 0x4661696C656420746F2073656E64204D414E4400000000000000000000000000 PUSH0 DUP3 ADD MSTORE POP JUMP JUMPDEST PUSH0 PUSH2 0x3F2A PUSH1 0x13 DUP4 PUSH2 0x37B7 JUMP JUMPDEST SWAP2 POP PUSH2 0x3F35 DUP3 PUSH2 0x3EF6 JUMP JUMPDEST PUSH1 0x20 DUP3 ADD SWAP1 POP SWAP2 SWAP1 POP JUMP JUMPDEST PUSH0 PUSH1 0x20 DUP3 ADD SWAP1 POP DUP2 DUP2 SUB PUSH0 DUP4 ADD MSTORE PUSH2 0x3F57 DUP2 PUSH2 0x3F1E JUMP JUMPDEST SWAP1 POP SWAP2 SWAP1 POP JUMP JUMPDEST PUSH0 DUP2 MLOAD SWAP1 POP PUSH2 0x3F6C DUP2 PUSH2 0x3195 JUMP JUMPDEST SWAP3 SWAP2 POP POP JUMP JUMPDEST PUSH0 PUSH1 0x20 DUP3 DUP5 SUB SLT ISZERO PUSH2 0x3F87 JUMPI PUSH2 0x3F86 PUSH2 0x318D JUMP JUMPDEST JUMPDEST PUSH0 PUSH2 0x3F94 DUP5 DUP3 DUP6 ADD PUSH2 0x3F5E JUMP JUMPDEST SWAP2 POP POP SWAP3 SWAP2 POP POP JUMP JUMPDEST PUSH32 0x496E73756666696369656E742072657075746174696F6E20746F20656E726F6C PUSH0 DUP3 ADD MSTORE PUSH32 0x6C00000000000000000000000000000000000000000000000000000000000000 PUSH1 0x20 DUP3 ADD MSTORE POP JUMP JUMPDEST PUSH0 PUSH2 0x3FF7 PUSH1 0x21 DUP4 PUSH2 0x37B7 JUMP JUMPDEST SWAP2 POP PUSH2 0x4002 DUP3 PUSH2 0x3F9D JUMP JUMPDEST PUSH1 0x40 DUP3 ADD SWAP1 POP SWAP2 SWAP1 POP JUMP JUMPDEST PUSH0 PUSH1 0x20 DUP3 ADD SWAP1 POP DUP2 DUP2 SUB PUSH0 DUP4 ADD MSTORE PUSH2 0x4024 DUP2 PUSH2 0x3FEB JUMP JUMPDEST SWAP1 POP SWAP2 SWAP1 POP JUMP JUMPDEST PUSH32 0x436F75727365206E6F7420617070726F76656400000000000000000000000000 PUSH0 DUP3 ADD MSTORE POP JUMP JUMPDEST PUSH0 PUSH2 0x405F PUSH1 0x13 DUP4 PUSH2 0x37B7 JUMP JUMPDEST SWAP2 POP PUSH2 0x406A DUP3 PUSH2 0x402B JUMP JUMPDEST PUSH1 0x20 DUP3 ADD SWAP1 POP SWAP2 SWAP1 POP JUMP JUMPDEST PUSH0 PUSH1 0x20 DUP3 ADD SWAP1 POP DUP2 DUP2 SUB PUSH0 DUP4 ADD MSTORE PUSH2 0x408C DUP2 PUSH2 0x4053 JUMP JUMPDEST SWAP1 POP SWAP2 SWAP1 POP JUMP JUMPDEST PUSH32 0x416C726561647920656E726F6C6C656400000000000000000000000000000000 PUSH0 DUP3 ADD MSTORE POP JUMP JUMPDEST PUSH0 PUSH2 0x40C7 PUSH1 0x10 DUP4 PUSH2 0x37B7 JUMP JUMPDEST SWAP2 POP PUSH2 0x40D2 DUP3 PUSH2 0x4093 JUMP JUMPDEST PUSH1 0x20 DUP3 ADD SWAP1 POP SWAP2 SWAP1 POP JUMP JUMPDEST PUSH0 PUSH1 0x20 DUP3 ADD SWAP1 POP DUP2 DUP2 SUB PUSH0 DUP4 ADD MSTORE PUSH2 0x40F4 DUP2 PUSH2 0x40BB JUMP JUMPDEST SWAP1 POP SWAP2 SWAP1 POP JUMP JUMPDEST PUSH32 0x496E73756666696369656E74204D4F4F4E582062616C616E6365000000000000 PUSH0 DUP3 ADD MSTORE POP JUMP JUMPDEST PUSH0 PUSH2 0x412F PUSH1 0x1A DUP4 PUSH2 0x37B7 JUMP JUMPDEST SWAP2 POP PUSH2 0x413A DUP3 PUSH2 0x40FB JUMP JUMPDEST PUSH1 0x20 DUP3 ADD SWAP1 POP SWAP2 SWAP1 POP JUMP JUMPDEST PUSH0 PUSH1 0x20 DUP3 ADD SWAP1 POP DUP2 DUP2 SUB PUSH0 DUP4 ADD MSTORE PUSH2 0x415C DUP2 PUSH2 0x4123 JUMP JUMPDEST SWAP1 POP SWAP2 SWAP1 POP JUMP JUMPDEST PUSH0 PUSH2 0x416D DUP3 PUSH2 0x3034 JUMP JUMPDEST SWAP2 POP PUSH2 0x4178 DUP4 PUSH2 0x3034 JUMP JUMPDEST SWAP3 POP DUP3 DUP3 SUB SWAP1 POP DUP2 DUP2 GT ISZERO PUSH2 0x4190 JUMPI PUSH2 0x418F PUSH2 0x3A4C JUMP JUMPDEST JUMPDEST SWAP3 SWAP2 POP POP JUMP JUMPDEST PUSH32 0x4D4F4F4E58000000000000000000000000000000000000000000000000000000 PUSH0 DUP3 ADD MSTORE POP JUMP JUMPDEST PUSH0 PUSH2 0x41CA PUSH1 0x5 DUP4 PUSH2 0x37B7 JUMP JUMPDEST SWAP2 POP PUSH2 0x41D5 DUP3 PUSH2 0x4196 JUMP JUMPDEST PUSH1 0x20 DUP3 ADD SWAP1 POP SWAP2 SWAP1 POP JUMP JUMPDEST PUSH0 PUSH1 0x40 DUP3 ADD SWAP1 POP DUP2 DUP2 SUB PUSH0 DUP4 ADD MSTORE PUSH2 0x41F7 DUP2 PUSH2 0x41BE JUMP JUMPDEST SWAP1 POP PUSH2 0x4206 PUSH1 0x20 DUP4 ADD DUP5 PUSH2 0x32EA JUMP JUMPDEST SWAP3 SWAP2 POP POP JUMP JUMPDEST PUSH32 0x436F7572736520616C726561647920617070726F766564000000000000000000 PUSH0 DUP3 ADD MSTORE POP JUMP JUMPDEST PUSH0 PUSH2 0x4240 PUSH1 0x17 DUP4 PUSH2 0x37B7 JUMP JUMPDEST SWAP2 POP PUSH2 0x424B DUP3 PUSH2 0x420C JUMP JUMPDEST PUSH1 0x20 DUP3 ADD SWAP1 POP SWAP2 SWAP1 POP JUMP JUMPDEST PUSH0 PUSH1 0x20 DUP3 ADD SWAP1 POP DUP2 DUP2 SUB PUSH0 DUP4 ADD MSTORE PUSH2 0x426D DUP2 PUSH2 0x4234 JUMP JUMPDEST SWAP1 POP SWAP2 SWAP1 POP JUMP JUMPDEST PUSH32 0x496E73756666696369656E742072657075746174696F6E20746F206372656174 PUSH0 DUP3 ADD MSTORE PUSH32 0x6520636F75727365000000000000000000000000000000000000000000000000 PUSH1 0x20 DUP3 ADD MSTORE POP JUMP JUMPDEST PUSH0 PUSH2 0x42CE PUSH1 0x28 DUP4 PUSH2 0x37B7 JUMP JUMPDEST SWAP2 POP PUSH2 0x42D9 DUP3 PUSH2 0x4274 JUMP JUMPDEST PUSH1 0x40 DUP3 ADD SWAP1 POP SWAP2 SWAP1 POP JUMP JUMPDEST PUSH0 PUSH1 0x20 DUP3 ADD SWAP1 POP DUP2 DUP2 SUB PUSH0 DUP4 ADD MSTORE PUSH2 0x42FB DUP2 PUSH2 0x42C2 JUMP JUMPDEST SWAP1 POP SWAP2 SWAP1 POP JUMP JUMPDEST PUSH32 0x496E76616C6964207175697A2064617461000000000000000000000000000000 PUSH0 DUP3 ADD MSTORE POP JUMP JUMPDEST PUSH0 PUSH2 0x4336 PUSH1 0x11 DUP4 PUSH2 0x37B7 JUMP JUMPDEST SWAP2 POP PUSH2 0x4341 DUP3 PUSH2 0x4302 JUMP JUMPDEST PUSH1 0x20 DUP3 ADD SWAP1 POP SWAP2 SWAP1 POP JUMP JUMPDEST PUSH0 PUSH1 0x20 DUP3 ADD SWAP1 POP DUP2 DUP2 SUB PUSH0 DUP4 ADD MSTORE PUSH2 0x4363 DUP2 PUSH2 0x432A JUMP JUMPDEST SWAP1 POP SWAP2 SWAP1 POP JUMP JUMPDEST PUSH0 PUSH2 0x4374 DUP3 PUSH2 0x3034 JUMP JUMPDEST SWAP2 POP PUSH32 0xFFFFFFFFFFFFFFFFFFFFFFFFFFFFFFFFFFFFFFFFFFFFFFFFFFFFFFFFFFFFFFFF DUP3 SUB PUSH2 0x43A6 JUMPI PUSH2 0x43A5 PUSH2 0x3A4C JUMP JUMPDEST JUMPDEST PUSH1 0x1 DUP3 ADD SWAP1 POP SWAP2 SWAP1 POP JUMP JUMPDEST PUSH0 DUP2 SWAP1 POP DUP2 PUSH0 MSTORE PUSH1 0x20 PUSH0 KECCAK256 SWAP1 POP SWAP2 SWAP1 POP JUMP JUMPDEST PUSH0 PUSH1 0x20 PUSH1 0x1F DUP4 ADD DIV SWAP1 POP SWAP2 SWAP1 POP JUMP JUMPDEST PUSH0 DUP3 DUP3 SHL SWAP1 POP SWAP3 SWAP2 POP POP JUMP JUMPDEST PUSH0 PUSH1 0x8 DUP4 MUL PUSH2 0x440D PUSH32 0xFFFFFFFFFFFFFFFFFFFFFFFFFFFFFFFFFFFFFFFFFFFFFFFFFFFFFFFFFFFFFFFF DUP3 PUSH2 0x43D2 JUMP JUMPDEST PUSH2 0x4417 DUP7 DUP4 PUSH2 0x43D2 JUMP JUMPDEST SWAP6 POP DUP1 NOT DUP5 AND SWAP4 POP DUP1 DUP7 AND DUP5 OR SWAP3 POP POP POP SWAP4 SWAP3 POP POP POP JUMP JUMPDEST PUSH0 PUSH2 0x4449 PUSH2 0x4444 PUSH2 0x443F DUP5 PUSH2 0x3034 JUMP JUMPDEST PUSH2 0x371B JUMP JUMPDEST PUSH2 0x3034 JUMP JUMPDEST SWAP1 POP SWAP2 SWAP1 POP JUMP JUMPDEST PUSH0 DUP2 SWAP1 POP SWAP2 SWAP1 POP JUMP JUMPDEST PUSH2 0x4462 DUP4 PUSH2 0x442F JUMP JUMPDEST PUSH2 0x4476 PUSH2 0x446E DUP3 PUSH2 0x4450 JUMP JUMPDEST DUP5 DUP5 SLOAD PUSH2 0x43DE JUMP JUMPDEST DUP3 SSTORE POP POP POP POP JUMP JUMPDEST PUSH0 SWAP1 JUMP JUMPDEST PUSH2 0x448A PUSH2 0x447E JUMP JUMPDEST PUSH2 0x4495 DUP2 DUP5 DUP5 PUSH2 0x4459 JUMP JUMPDEST POP POP POP JUMP JUMPDEST JUMPDEST DUP2 DUP2 LT ISZERO PUSH2 0x44B8 JUMPI PUSH2 0x44AD PUSH0 DUP3 PUSH2 0x4482 JUMP JUMPDEST PUSH1 0x1 DUP2 ADD SWAP1 POP PUSH2 0x449B JUMP JUMPDEST POP POP JUMP JUMPDEST PUSH1 0x1F DUP3 GT ISZERO PUSH2 0x44FD JUMPI PUSH2 0x44CE DUP2 PUSH2 0x43B1 JUMP JUMPDEST PUSH2 0x44D7 DUP5 PUSH2 0x43C3 JUMP JUMPDEST DUP2 ADD PUSH1 0x20 DUP6 LT ISZERO PUSH2 0x44E6 JUMPI DUP2 SWAP1 POP JUMPDEST PUSH2 0x44FA PUSH2 0x44F2 DUP6 PUSH2 0x43C3 JUMP JUMPDEST DUP4 ADD DUP3 PUSH2 0x449A JUMP JUMPDEST POP POP JUMPDEST POP POP POP JUMP JUMPDEST PUSH0 DUP3 DUP3 SHR SWAP1 POP SWAP3 SWAP2 POP POP JUMP JUMPDEST PUSH0 PUSH2 0x451D PUSH0 NOT DUP5 PUSH1 0x8 MUL PUSH2 0x4502 JUMP JUMPDEST NOT DUP1 DUP4 AND SWAP2 POP POP SWAP3 SWAP2 POP POP JUMP JUMPDEST PUSH0 PUSH2 0x4535 DUP4 DUP4 PUSH2 0x450E JUMP JUMPDEST SWAP2 POP DUP3 PUSH1 0x2 MUL DUP3 OR SWAP1 POP SWAP3 SWAP2 POP POP JUMP JUMPDEST PUSH2 0x454E DUP3 PUSH2 0x2F8C JUMP JUMPDEST PUSH8 0xFFFFFFFFFFFFFFFF DUP2 GT ISZERO PUSH2 0x4567 JUMPI PUSH2 0x4566 PUSH2 0x3356 JUMP JUMPDEST JUMPDEST PUSH2 0x4571 DUP3 SLOAD PUSH2 0x39B4 JUMP JUMPDEST PUSH2 0x457C DUP3 DUP3 DUP6 PUSH2 0x44BC JUMP JUMPDEST PUSH0 PUSH1 0x20 SWAP1 POP PUSH1 0x1F DUP4 GT PUSH1 0x1 DUP2 EQ PUSH2 0x45AD JUMPI PUSH0 DUP5 ISZERO PUSH2 0x459B JUMPI DUP3 DUP8 ADD MLOAD SWAP1 POP JUMPDEST PUSH2 0x45A5 DUP6 DUP3 PUSH2 0x452A JUMP JUMPDEST DUP7 SSTORE POP PUSH2 0x460C JUMP JUMPDEST PUSH1 0x1F NOT DUP5 AND PUSH2 0x45BB DUP7 PUSH2 0x43B1 JUMP JUMPDEST PUSH0 JUMPDEST DUP3 DUP2 LT ISZERO PUSH2 0x45E2 JUMPI DUP5 DUP10 ADD MLOAD DUP3 SSTORE PUSH1 0x1 DUP3 ADD SWAP2 POP PUSH1 0x20 DUP6 ADD SWAP5 POP PUSH1 0x20 DUP2 ADD SWAP1 POP PUSH2 0x45BD JUMP JUMPDEST DUP7 DUP4 LT ISZERO PUSH2 0x45FF JUMPI DUP5 DUP10 ADD MLOAD PUSH2 0x45FB PUSH1 0x1F DUP10 AND DUP3 PUSH2 0x450E JUMP JUMPDEST DUP4 SSTORE POP JUMPDEST PUSH1 0x1 PUSH1 0x2 DUP9 MUL ADD DUP9 SSTORE POP POP POP JUMPDEST POP POP POP POP POP POP JUMP JUMPDEST PUSH32 0x4100000000000000000000000000000000000000000000000000000000000000 PUSH0 DUP3 ADD MSTORE POP JUMP JUMPDEST PUSH0 PUSH2 0x4648 PUSH1 0x1 DUP4 PUSH2 0x3E7B JUMP JUMPDEST SWAP2 POP PUSH2 0x4653 DUP3 PUSH2 0x4614 JUMP JUMPDEST PUSH1 0x1 DUP3 ADD SWAP1 POP SWAP2 SWAP1 POP JUMP JUMPDEST PUSH0 PUSH2 0x4668 DUP3 PUSH2 0x463C JUMP JUMPDEST SWAP2 POP DUP2 SWAP1 POP SWAP2 SWAP1 POP JUMP JUMPDEST PUSH32 0x4200000000000000000000000000000000000000000000000000000000000000 PUSH0 DUP3 ADD MSTORE POP JUMP JUMPDEST PUSH0 PUSH2 0x46A6 PUSH1 0x1 DUP4 PUSH2 0x3E7B JUMP JUMPDEST SWAP2 POP PUSH2 0x46B1 DUP3 PUSH2 0x4672 JUMP JUMPDEST PUSH1 0x1 DUP3 ADD SWAP1 POP SWAP2 SWAP1 POP JUMP JUMPDEST PUSH0 PUSH2 0x46C6 DUP3 PUSH2 0x469A JUMP JUMPDEST SWAP2 POP DUP2 SWAP1 POP SWAP2 SWAP1 POP JUMP JUMPDEST PUSH32 0x4300000000000000000000000000000000000000000000000000000000000000 PUSH0 DUP3 ADD MSTORE POP JUMP JUMPDEST PUSH0 PUSH2 0x4704 PUSH1 0x1 DUP4 PUSH2 0x3E7B JUMP JUMPDEST SWAP2 POP PUSH2 0x470F DUP3 PUSH2 0x46D0 JUMP JUMPDEST PUSH1 0x1 DUP3 ADD SWAP1 POP SWAP2 SWAP1 POP JUMP JUMPDEST PUSH0 PUSH2 0x4724 DUP3 PUSH2 0x46F8 JUMP JUMPDEST SWAP2 POP DUP2 SWAP1 POP SWAP2 SWAP1 POP JUMP JUMPDEST PUSH32 0x4400000000000000000000000000000000000000000000000000000000000000 PUSH0 DUP3 ADD MSTORE POP JUMP JUMPDEST PUSH0 PUSH2 0x4762 PUSH1 0x1 DUP4 PUSH2 0x3E7B JUMP JUMPDEST SWAP2 POP PUSH2 0x476D DUP3 PUSH2 0x472E JUMP JUMPDEST PUSH1 0x1 DUP3 ADD SWAP1 POP SWAP2 SWAP1 POP JUMP JUMPDEST PUSH0 PUSH2 0x4782 DUP3 PUSH2 0x4756 JUMP JUMPDEST SWAP2 POP DUP2 SWAP1 POP SWAP2 SWAP1 POP JUMP JUMPDEST PUSH32 0x496E76616C696420636F727265637420616E7377657200000000000000000000 PUSH0 DUP3 ADD MSTORE POP JUMP JUMPDEST PUSH0 PUSH2 0x47C0 PUSH1 0x16 DUP4 PUSH2 0x37B7 JUMP JUMPDEST SWAP2 POP PUSH2 0x47CB DUP3 PUSH2 0x478C JUMP JUMPDEST PUSH1 0x20 DUP3 ADD SWAP1 POP SWAP2 SWAP1 POP JUMP JUMPDEST PUSH0 PUSH1 0x20 DUP3 ADD SWAP1 POP DUP2 DUP2 SUB PUSH0 DUP4 ADD MSTORE PUSH2 0x47ED DUP2 PUSH2 0x47B4 JUMP JUMPDEST SWAP1 POP SWAP2 SWAP1 POP JUMP JUMPDEST PUSH32 0x466565206D7573742062652067726561746572207468616E2030000000000000 PUSH0 DUP3 ADD MSTORE POP JUMP JUMPDEST PUSH0 PUSH2 0x4828 PUSH1 0x1A DUP4 PUSH2 0x37B7 JUMP JUMPDEST SWAP2 POP PUSH2 0x4833 DUP3 PUSH2 0x47F4 JUMP JUMPDEST PUSH1 0x20 DUP3 ADD SWAP1 POP SWAP2 SWAP1 POP JUMP JUMPDEST PUSH0 PUSH1 0x20 DUP3 ADD SWAP1 POP DUP2 DUP2 SUB PUSH0 DUP4 ADD MSTORE PUSH2 0x4855 DUP2 PUSH2 0x481C JUMP JUMPDEST SWAP1 POP SWAP2 SWAP1 POP JUMP JUMPDEST PUSH32 0x5061757361626C653A2070617573656400000000000000000000000000000000 PUSH0 DUP3 ADD MSTORE POP JUMP JUMPDEST PUSH0 PUSH2 0x4890 PUSH1 0x10 DUP4 PUSH2 0x37B7 JUMP JUMPDEST SWAP2 POP PUSH2 0x489B DUP3 PUSH2 0x485C JUMP JUMPDEST PUSH1 0x20 DUP3 ADD SWAP1 POP SWAP2 SWAP1 POP JUMP JUMPDEST PUSH0 PUSH1 0x20 DUP3 ADD SWAP1 POP DUP2 DUP2 SUB PUSH0 DUP4 ADD MSTORE PUSH2 0x48BD DUP2 PUSH2 0x4884 JUMP JUMPDEST SWAP1 POP SWAP2 SWAP1 POP JUMP JUMPDEST PUSH32 0x5061757361626C653A206E6F7420706175736564000000000000000000000000 PUSH0 DUP3 ADD MSTORE POP JUMP JUMPDEST PUSH0 PUSH2 0x48F8 PUSH1 0x14 DUP4 PUSH2 0x37B7 JUMP JUMPDEST SWAP2 POP PUSH2 0x4903 DUP3 PUSH2 0x48C4 JUMP JUMPDEST PUSH1 0x20 DUP3 ADD SWAP1 POP SWAP2 SWAP1 POP JUMP JUMPDEST PUSH0 PUSH1 0x20 DUP3 ADD SWAP1 POP DUP2 DUP2 SUB PUSH0 DUP4 ADD MSTORE PUSH2 0x4925 DUP2 PUSH2 0x48EC JUMP JUMPDEST SWAP1 POP SWAP2 SWAP1 POP JUMP INVALID LOG2 PUSH5 0x6970667358 0x22 SLT KECCAK256 BLOCKHASH PUSH27 0xA653F526922B4456329B4EB56A4673744B98C28EC8A737926D3CB2 0x4D DUP7 CODECOPY PUSH5 0x736F6C6343 STOP ADDMOD BYTE STOP CALLER "
		},
		"gasEstimates": {
			"creation": {
				"codeDepositCost": "3757200",
				"executionCost": "infinite",
				"totalCost": "infinite"
			},
			"external": {
				"WITHDRAWAL_INTERVAL()": "infinite",
				"accumulatedFees()": "2471",
				"allCourseIds(uint256)": "infinite",
				"approveCourse(uint256)": "infinite",
				"approvedCourseIds(uint256)": "infinite",
				"attemptQuiz(uint256,string[])": "infinite",
				"courseCount()": "2470",
				"courseQuizzes(uint256,uint256)": "infinite",
				"courses(uint256)": "infinite",
				"createCourse(string,string[],string[],string[],string[],string[],string[])": "infinite",
				"creatorRewardAmount()": "2558",
				"enrollInCourse(uint256)": "infinite",
				"enrollThreshold()": "2514",
				"enrollments(address,uint256)": "infinite",
				"getAllCourses()": "infinite",
				"getApprovedCourses()": "infinite",
				"lastWithdrawalTime()": "2515",
				"owner()": "2560",
				"pause()": "infinite",
				"paused()": "2592",
				"platformTx()": "2492",
				"postThreshold()": "2535",
				"renounceOwnership()": "infinite",
				"reputationContract()": "infinite",
				"studentRewardAmount()": "2491",
				"transferOwnership(address)": "infinite",
				"unpause()": "infinite",
				"updateCreatorReward(uint256)": "infinite",
				"updateEnrollThreshold(uint256)": "infinite",
				"updatePlatformFee(uint256)": "infinite",
				"updatePostThreshold(uint256)": "infinite",
				"updateReputationContract(address)": "infinite",
				"updateStudentReward(uint256)": "infinite",
				"userBalances(address)": "infinite",
				"w_PlatformFees()": "infinite",
				"withdrawMoonx(uint256)": "infinite"
			}
		},
		"methodIdentifiers": {
			"WITHDRAWAL_INTERVAL()": "4c64c030",
			"accumulatedFees()": "587f5ed7",
			"allCourseIds(uint256)": "b9c47aed",
			"approveCourse(uint256)": "75284998",
			"approvedCourseIds(uint256)": "7caef114",
			"attemptQuiz(uint256,string[])": "5cb45cb5",
			"courseCount()": "66055159",
			"courseQuizzes(uint256,uint256)": "b0aaefd6",
			"courses(uint256)": "96f979d2",
			"createCourse(string,string[],string[],string[],string[],string[],string[])": "79370df3",
			"creatorRewardAmount()": "a888f74c",
			"enrollInCourse(uint256)": "5e52da27",
			"enrollThreshold()": "955cf223",
			"enrollments(address,uint256)": "07f910f8",
			"getAllCourses()": "04e48bd1",
			"getApprovedCourses()": "66b570f8",
			"lastWithdrawalTime()": "34a014dc",
			"owner()": "8da5cb5b",
			"pause()": "8456cb59",
			"paused()": "5c975abb",
			"platformTx()": "af252dfe",
			"postThreshold()": "ed25f27c",
			"renounceOwnership()": "715018a6",
			"reputationContract()": "87bc1425",
			"studentRewardAmount()": "d731559b",
			"transferOwnership(address)": "f2fde38b",
			"unpause()": "3f4ba83a",
			"updateCreatorReward(uint256)": "05977b4d",
			"updateEnrollThreshold(uint256)": "dcd1473b",
			"updatePlatformFee(uint256)": "aa0b5988",
			"updatePostThreshold(uint256)": "1ae9df9a",
			"updateReputationContract(address)": "905baa61",
			"updateStudentReward(uint256)": "b8350f37",
			"userBalances(address)": "26224c64",
			"w_PlatformFees()": "15ba75f4",
			"withdrawMoonx(uint256)": "6ca67d14"
		}
	},
	"abi": [
		{
			"inputs": [
				{
					"internalType": "address",
					"name": "_reputationContract",
					"type": "address"
				}
			],
			"stateMutability": "nonpayable",
			"type": "constructor"
		},
		{
			"inputs": [
				{
					"internalType": "address",
					"name": "owner",
					"type": "address"
				}
			],
			"name": "OwnableInvalidOwner",
			"type": "error"
		},
		{
			"inputs": [
				{
					"internalType": "address",
					"name": "account",
					"type": "address"
				}
			],
			"name": "OwnableUnauthorizedAccount",
			"type": "error"
		},
		{
			"anonymous": false,
			"inputs": [
				{
					"indexed": true,
					"internalType": "uint256",
					"name": "courseId",
					"type": "uint256"
				}
			],
			"name": "CourseApproved",
			"type": "event"
		},
		{
			"anonymous": false,
			"inputs": [
				{
					"indexed": true,
					"internalType": "uint256",
					"name": "courseId",
					"type": "uint256"
				},
				{
					"indexed": true,
					"internalType": "address",
					"name": "creator",
					"type": "address"
				}
			],
			"name": "CourseCreated",
			"type": "event"
		},
		{
			"anonymous": false,
			"inputs": [
				{
					"indexed": false,
					"internalType": "uint256",
					"name": "amount",
					"type": "uint256"
				}
			],
			"name": "GasFeesWithdrawn",
			"type": "event"
		},
		{
			"anonymous": false,
			"inputs": [
				{
					"indexed": true,
					"internalType": "address",
					"name": "previousOwner",
					"type": "address"
				},
				{
					"indexed": true,
					"internalType": "address",
					"name": "newOwner",
					"type": "address"
				}
			],
			"name": "OwnershipTransferred",
			"type": "event"
		},
		{
			"anonymous": false,
			"inputs": [
				{
					"indexed": false,
					"internalType": "address",
					"name": "account",
					"type": "address"
				}
			],
			"name": "Paused",
			"type": "event"
		},
		{
			"anonymous": false,
			"inputs": [
				{
					"indexed": true,
					"internalType": "uint256",
					"name": "courseId",
					"type": "uint256"
				},
				{
					"indexed": true,
					"internalType": "address",
					"name": "user",
					"type": "address"
				},
				{
					"indexed": false,
					"internalType": "bool",
					"name": "passed",
					"type": "bool"
				}
			],
			"name": "QuizAttempted",
			"type": "event"
		},
		{
			"anonymous": false,
			"inputs": [
				{
					"indexed": true,
					"internalType": "uint256",
					"name": "courseId",
					"type": "uint256"
				},
				{
					"indexed": false,
					"internalType": "uint256",
					"name": "quizId",
					"type": "uint256"
				}
			],
			"name": "QuizCreated",
			"type": "event"
		},
		{
			"anonymous": false,
			"inputs": [
				{
					"indexed": true,
					"internalType": "uint256",
					"name": "courseId",
					"type": "uint256"
				},
				{
					"indexed": true,
					"internalType": "address",
					"name": "user",
					"type": "address"
				},
				{
					"indexed": false,
					"internalType": "uint256",
					"name": "amount",
					"type": "uint256"
				}
			],
			"name": "RewardClaimed",
			"type": "event"
		},
		{
			"anonymous": false,
			"inputs": [
				{
					"indexed": true,
					"internalType": "address",
					"name": "user",
					"type": "address"
				},
				{
					"indexed": false,
					"internalType": "string",
					"name": "tokenType",
					"type": "string"
				},
				{
					"indexed": false,
					"internalType": "uint256",
					"name": "amount",
					"type": "uint256"
				}
			],
			"name": "TokenWithdrawn",
			"type": "event"
		},
		{
			"anonymous": false,
			"inputs": [
				{
					"indexed": false,
					"internalType": "address",
					"name": "account",
					"type": "address"
				}
			],
			"name": "Unpaused",
			"type": "event"
		},
		{
			"anonymous": false,
			"inputs": [
				{
					"indexed": true,
					"internalType": "uint256",
					"name": "courseId",
					"type": "uint256"
				},
				{
					"indexed": true,
					"internalType": "address",
					"name": "user",
					"type": "address"
				}
			],
			"name": "UserEnrolled",
			"type": "event"
		},
		{
			"inputs": [],
			"name": "WITHDRAWAL_INTERVAL",
			"outputs": [
				{
					"internalType": "uint256",
					"name": "",
					"type": "uint256"
				}
			],
			"stateMutability": "view",
			"type": "function"
		},
		{
			"inputs": [],
			"name": "accumulatedFees",
			"outputs": [
				{
					"internalType": "uint256",
					"name": "",
					"type": "uint256"
				}
			],
			"stateMutability": "view",
			"type": "function"
		},
		{
			"inputs": [
				{
					"internalType": "uint256",
					"name": "",
					"type": "uint256"
				}
			],
			"name": "allCourseIds",
			"outputs": [
				{
					"internalType": "uint256",
					"name": "",
					"type": "uint256"
				}
			],
			"stateMutability": "view",
			"type": "function"
		},
		{
			"inputs": [
				{
					"internalType": "uint256",
					"name": "_courseId",
					"type": "uint256"
				}
			],
			"name": "approveCourse",
			"outputs": [],
			"stateMutability": "nonpayable",
			"type": "function"
		},
		{
			"inputs": [
				{
					"internalType": "uint256",
					"name": "",
					"type": "uint256"
				}
			],
			"name": "approvedCourseIds",
			"outputs": [
				{
					"internalType": "uint256",
					"name": "",
					"type": "uint256"
				}
			],
			"stateMutability": "view",
			"type": "function"
		},
		{
			"inputs": [
				{
					"internalType": "uint256",
					"name": "_courseId",
					"type": "uint256"
				},
				{
					"internalType": "string[]",
					"name": "_answers",
					"type": "string[]"
				}
			],
			"name": "attemptQuiz",
			"outputs": [],
			"stateMutability": "payable",
			"type": "function"
		},
		{
			"inputs": [],
			"name": "courseCount",
			"outputs": [
				{
					"internalType": "uint256",
					"name": "",
					"type": "uint256"
				}
			],
			"stateMutability": "view",
			"type": "function"
		},
		{
			"inputs": [
				{
					"internalType": "uint256",
					"name": "",
					"type": "uint256"
				},
				{
					"internalType": "uint256",
					"name": "",
					"type": "uint256"
				}
			],
			"name": "courseQuizzes",
			"outputs": [
				{
					"internalType": "uint256",
					"name": "courseId",
					"type": "uint256"
				},
				{
					"internalType": "string",
					"name": "question",
					"type": "string"
				},
				{
					"internalType": "string",
					"name": "optionA",
					"type": "string"
				},
				{
					"internalType": "string",
					"name": "optionB",
					"type": "string"
				},
				{
					"internalType": "string",
					"name": "optionC",
					"type": "string"
				},
				{
					"internalType": "string",
					"name": "optionD",
					"type": "string"
				},
				{
					"internalType": "bytes32",
					"name": "correctAnswerHash",
					"type": "bytes32"
				}
			],
			"stateMutability": "view",
			"type": "function"
		},
		{
			"inputs": [
				{
					"internalType": "uint256",
					"name": "",
					"type": "uint256"
				}
			],
			"name": "courses",
			"outputs": [
				{
					"internalType": "address",
					"name": "creator",
					"type": "address"
				},
				{
					"internalType": "string",
					"name": "metadataURI",
					"type": "string"
				},
				{
					"internalType": "bool",
					"name": "approved",
					"type": "bool"
				},
				{
					"internalType": "uint32",
					"name": "passedStudents",
					"type": "uint32"
				},
				{
					"internalType": "uint256",
					"name": "totalRewarded",
					"type": "uint256"
				},
				{
					"internalType": "uint32",
					"name": "totalEnrolled",
					"type": "uint32"
				}
			],
			"stateMutability": "view",
			"type": "function"
		},
		{
			"inputs": [
				{
					"internalType": "string",
					"name": "_metadataURI",
					"type": "string"
				},
				{
					"internalType": "string[]",
					"name": "_questions",
					"type": "string[]"
				},
				{
					"internalType": "string[]",
					"name": "_optionAs",
					"type": "string[]"
				},
				{
					"internalType": "string[]",
					"name": "_optionBs",
					"type": "string[]"
				},
				{
					"internalType": "string[]",
					"name": "_optionCs",
					"type": "string[]"
				},
				{
					"internalType": "string[]",
					"name": "_optionDs",
					"type": "string[]"
				},
				{
					"internalType": "string[]",
					"name": "_correctAnswers",
					"type": "string[]"
				}
			],
			"name": "createCourse",
			"outputs": [],
			"stateMutability": "payable",
			"type": "function"
		},
		{
			"inputs": [],
			"name": "creatorRewardAmount",
			"outputs": [
				{
					"internalType": "uint256",
					"name": "",
					"type": "uint256"
				}
			],
			"stateMutability": "view",
			"type": "function"
		},
		{
			"inputs": [
				{
					"internalType": "uint256",
					"name": "_courseId",
					"type": "uint256"
				}
			],
			"name": "enrollInCourse",
			"outputs": [],
			"stateMutability": "payable",
			"type": "function"
		},
		{
			"inputs": [],
			"name": "enrollThreshold",
			"outputs": [
				{
					"internalType": "uint256",
					"name": "",
					"type": "uint256"
				}
			],
			"stateMutability": "view",
			"type": "function"
		},
		{
			"inputs": [
				{
					"internalType": "address",
					"name": "",
					"type": "address"
				},
				{
					"internalType": "uint256",
					"name": "",
					"type": "uint256"
				}
			],
			"name": "enrollments",
			"outputs": [
				{
					"internalType": "bool",
					"name": "isEnrolled",
					"type": "bool"
				},
				{
					"internalType": "uint8",
					"name": "attemptCount",
					"type": "uint8"
				},
				{
					"internalType": "bool",
					"name": "hasPassed",
					"type": "bool"
				},
				{
					"internalType": "bool",
					"name": "hasClaimedReward",
					"type": "bool"
				}
			],
			"stateMutability": "view",
			"type": "function"
		},
		{
			"inputs": [],
			"name": "getAllCourses",
			"outputs": [
				{
					"components": [
						{
							"internalType": "address",
							"name": "creator",
							"type": "address"
						},
						{
							"internalType": "string",
							"name": "metadataURI",
							"type": "string"
						},
						{
							"internalType": "bool",
							"name": "approved",
							"type": "bool"
						},
						{
							"internalType": "uint32",
							"name": "passedStudents",
							"type": "uint32"
						},
						{
							"internalType": "uint256",
							"name": "totalRewarded",
							"type": "uint256"
						},
						{
							"internalType": "uint32",
							"name": "totalEnrolled",
							"type": "uint32"
						}
					],
					"internalType": "struct DecentralLearning.Course[]",
					"name": "",
					"type": "tuple[]"
				}
			],
			"stateMutability": "view",
			"type": "function"
		},
		{
			"inputs": [],
			"name": "getApprovedCourses",
			"outputs": [
				{
					"components": [
						{
							"internalType": "address",
							"name": "creator",
							"type": "address"
						},
						{
							"internalType": "string",
							"name": "metadataURI",
							"type": "string"
						},
						{
							"internalType": "bool",
							"name": "approved",
							"type": "bool"
						},
						{
							"internalType": "uint32",
							"name": "passedStudents",
							"type": "uint32"
						},
						{
							"internalType": "uint256",
							"name": "totalRewarded",
							"type": "uint256"
						},
						{
							"internalType": "uint32",
							"name": "totalEnrolled",
							"type": "uint32"
						}
					],
					"internalType": "struct DecentralLearning.Course[]",
					"name": "",
					"type": "tuple[]"
				}
			],
			"stateMutability": "view",
			"type": "function"
		},
		{
			"inputs": [],
			"name": "lastWithdrawalTime",
			"outputs": [
				{
					"internalType": "uint256",
					"name": "",
					"type": "uint256"
				}
			],
			"stateMutability": "view",
			"type": "function"
		},
		{
			"inputs": [],
			"name": "owner",
			"outputs": [
				{
					"internalType": "address",
					"name": "",
					"type": "address"
				}
			],
			"stateMutability": "view",
			"type": "function"
		},
		{
			"inputs": [],
			"name": "pause",
			"outputs": [],
			"stateMutability": "nonpayable",
			"type": "function"
		},
		{
			"inputs": [],
			"name": "paused",
			"outputs": [
				{
					"internalType": "bool",
					"name": "",
					"type": "bool"
				}
			],
			"stateMutability": "view",
			"type": "function"
		},
		{
			"inputs": [],
			"name": "platformTx",
			"outputs": [
				{
					"internalType": "uint256",
					"name": "",
					"type": "uint256"
				}
			],
			"stateMutability": "view",
			"type": "function"
		},
		{
			"inputs": [],
			"name": "postThreshold",
			"outputs": [
				{
					"internalType": "uint256",
					"name": "",
					"type": "uint256"
				}
			],
			"stateMutability": "view",
			"type": "function"
		},
		{
			"inputs": [],
			"name": "renounceOwnership",
			"outputs": [],
			"stateMutability": "nonpayable",
			"type": "function"
		},
		{
			"inputs": [],
			"name": "reputationContract",
			"outputs": [
				{
					"internalType": "contract IReputationContract",
					"name": "",
					"type": "address"
				}
			],
			"stateMutability": "view",
			"type": "function"
		},
		{
			"inputs": [],
			"name": "studentRewardAmount",
			"outputs": [
				{
					"internalType": "uint256",
					"name": "",
					"type": "uint256"
				}
			],
			"stateMutability": "view",
			"type": "function"
		},
		{
			"inputs": [
				{
					"internalType": "address",
					"name": "newOwner",
					"type": "address"
				}
			],
			"name": "transferOwnership",
			"outputs": [],
			"stateMutability": "nonpayable",
			"type": "function"
		},
		{
			"inputs": [],
			"name": "unpause",
			"outputs": [],
			"stateMutability": "nonpayable",
			"type": "function"
		},
		{
			"inputs": [
				{
					"internalType": "uint256",
					"name": "_newReward",
					"type": "uint256"
				}
			],
			"name": "updateCreatorReward",
			"outputs": [],
			"stateMutability": "nonpayable",
			"type": "function"
		},
		{
			"inputs": [
				{
					"internalType": "uint256",
					"name": "_newThreshold",
					"type": "uint256"
				}
			],
			"name": "updateEnrollThreshold",
			"outputs": [],
			"stateMutability": "nonpayable",
			"type": "function"
		},
		{
			"inputs": [
				{
					"internalType": "uint256",
					"name": "_newFee",
					"type": "uint256"
				}
			],
			"name": "updatePlatformFee",
			"outputs": [],
			"stateMutability": "nonpayable",
			"type": "function"
		},
		{
			"inputs": [
				{
					"internalType": "uint256",
					"name": "_newThreshold",
					"type": "uint256"
				}
			],
			"name": "updatePostThreshold",
			"outputs": [],
			"stateMutability": "nonpayable",
			"type": "function"
		},
		{
			"inputs": [
				{
					"internalType": "address",
					"name": "_newReputationContract",
					"type": "address"
				}
			],
			"name": "updateReputationContract",
			"outputs": [],
			"stateMutability": "nonpayable",
			"type": "function"
		},
		{
			"inputs": [
				{
					"internalType": "uint256",
					"name": "_newReward",
					"type": "uint256"
				}
			],
			"name": "updateStudentReward",
			"outputs": [],
			"stateMutability": "nonpayable",
			"type": "function"
		},
		{
			"inputs": [
				{
					"internalType": "address",
					"name": "",
					"type": "address"
				}
			],
			"name": "userBalances",
			"outputs": [
				{
					"internalType": "uint256",
					"name": "moonxBalance",
					"type": "uint256"
				},
				{
					"internalType": "uint256",
					"name": "mandBalance",
					"type": "uint256"
				}
			],
			"stateMutability": "view",
			"type": "function"
		},
		{
			"inputs": [],
			"name": "w_PlatformFees",
			"outputs": [],
			"stateMutability": "nonpayable",
			"type": "function"
		},
		{
			"inputs": [
				{
					"internalType": "uint256",
					"name": "amount",
					"type": "uint256"
				}
			],
			"name": "withdrawMoonx",
			"outputs": [],
			"stateMutability": "nonpayable",
			"type": "function"
		},
		{
			"stateMutability": "payable",
			"type": "receive"
		}
	]
}