{
	"data": {
		"bytecode": {
			"linkReferences": {},
			"object": "608060405234801561000f575f80fd5b50604051613f89380380613f8983398181016040528101906100319190610271565b335f73ffffffffffffffffffffffffffffffffffffffff168173ffffffffffffffffffffffffffffffffffffffff16036100a2575f6040517f1e4fbdf700000000000000000000000000000000000000000000000000000000815260040161009991906102be565b60405180910390fd5b6100b18161015260201b60201c565b505f8060146101000a81548160ff0219169083151502179055508060015f6101000a81548173ffffffffffffffffffffffffffffffffffffffff021916908373ffffffffffffffffffffffffffffffffffffffff1602179055508160025f6101000a81548173ffffffffffffffffffffffffffffffffffffffff021916908373ffffffffffffffffffffffffffffffffffffffff16021790555050506102d7565b5f805f9054906101000a900473ffffffffffffffffffffffffffffffffffffffff169050815f806101000a81548173ffffffffffffffffffffffffffffffffffffffff021916908373ffffffffffffffffffffffffffffffffffffffff1602179055508173ffffffffffffffffffffffffffffffffffffffff168173ffffffffffffffffffffffffffffffffffffffff167f8be0079c531659141344cd1fd0a4f28419497f9722a3daafe3b4186f6b6457e060405160405180910390a35050565b5f80fd5b5f73ffffffffffffffffffffffffffffffffffffffff82169050919050565b5f61024082610217565b9050919050565b61025081610236565b811461025a575f80fd5b50565b5f8151905061026b81610247565b92915050565b5f806040838503121561028757610286610213565b5b5f6102948582860161025d565b92505060206102a58582860161025d565b9150509250929050565b6102b881610236565b82525050565b5f6020820190506102d15f8301846102af565b92915050565b613ca5806102e45f395ff3fe608060405234801561000f575f80fd5b50600436106101a7575f3560e01c80638da5cb5b116100f7578063ba2f036211610095578063d69c575b1161006f578063d69c575b14610452578063e111f6b41461046e578063f2fde38b1461048a578063fbf1aded146104a6576101a7565b8063ba2f0362146103fc578063bba3309314610418578063cf90b3be14610434576101a7565b8063996b5d8e116100d1578063996b5d8e1461036e578063a4e1f0331461038a578063ae24f005146103a8578063b0aaefd6146103c6576101a7565b80638da5cb5b14610300578063905baa611461031e57806396f979d21461033a576101a7565b80635e52da2711610164578063752849981161013e57806375284998146102a05780638456cb59146102bc57806387bc1425146102c65780638a38ab2c146102e4576101a7565b80635e52da271461025c5780636605515914610278578063715018a614610296576101a7565b806303b1965b146101ab57806307f910f8146101c757806317f5e33d146101fa5780633a447e76146102185780633f4ba83a146102345780635c975abb1461023e575b5f80fd5b6101c560048036038101906101c09190612530565b6104c4565b005b6101e160048036038101906101dc91906125c8565b6106f8565b6040516101f1949392919061263b565b60405180910390f35b61020261075f565b60405161020f91906126d9565b60405180910390f35b610232600480360381019061022d91906126f2565b610784565b005b61023c6107cf565b005b6102466107e1565b604051610253919061271d565b60405180910390f35b61027660048036038101906102719190612736565b6107f6565b005b610280610a7a565b60405161028d9190612770565b60405180910390f35b61029e610a80565b005b6102ba60048036038101906102b59190612736565b610a93565b005b6102c4610b58565b005b6102ce610b6a565b6040516102db91906127a9565b60405180910390f35b6102fe60048036038101906102f991906128fe565b610b8f565b005b610308610dac565b6040516103159190612954565b60405180910390f35b610338600480360381019061033391906126f2565b610dd3565b005b610354600480360381019061034f9190612736565b610e1e565b6040516103659594939291906129cd565b60405180910390f35b61038860048036038101906103839190612736565b610f01565b005b61039261117d565b60405161039f9190612770565b60405180910390f35b6103b0611182565b6040516103bd9190612770565b60405180910390f35b6103e060048036038101906103db9190612530565b611187565b6040516103f39796959493929190612a3d565b60405180910390f35b61041660048036038101906104119190612736565b61147d565b005b610432600480360381019061042d9190612acd565b6116de565b005b61043c611cb9565b6040516104499190612770565b60405180910390f35b61046c60048036038101906104679190612b27565b611cc5565b005b61048860048036038101906104839190612736565b6120ca565b005b6104a4600480360381019061049f91906126f2565b6121b7565b005b6104ae61223b565b6040516104bb9190612770565b60405180910390f35b5f60035f8481526020019081526020015f209050805f015f9054906101000a900473ffffffffffffffffffffffffffffffffffffffff1673ffffffffffffffffffffffffffffffffffffffff163373ffffffffffffffffffffffffffffffffffffffff1614610568576040517f08c379a000000000000000000000000000000000000000000000000000000000815260040161055f90612cdc565b60405180910390fd5b81816004015410156105af576040517f08c379a00000000000000000000000000000000000000000000000000000000081526004016105a690612d6a565b60405180910390fd5b81816004015f8282546105c29190612db5565b9250508190555060025f9054906101000a900473ffffffffffffffffffffffffffffffffffffffff1673ffffffffffffffffffffffffffffffffffffffff1663a9059cbb33846040518363ffffffff1660e01b8152600401610625929190612de8565b6020604051808303815f875af1158015610641573d5f803e3d5ffd5b505050506040513d601f19601f820116820180604052508101906106659190612e39565b6106a4576040517f08c379a000000000000000000000000000000000000000000000000000000000815260040161069b90612eae565b60405180910390fd5b3373ffffffffffffffffffffffffffffffffffffffff16837fac49faceac63eafdea924340376e875517fd2e5b7e9b63c9bbbc464e166233f6846040516106eb9190612770565b60405180910390a3505050565b6004602052815f5260405f20602052805f5260405f205f9150915050805f015f9054906101000a900460ff1690805f0160019054906101000a900460ff1690805f0160029054906101000a900460ff1690805f0160039054906101000a900460ff16905084565b60025f9054906101000a900473ffffffffffffffffffffffffffffffffffffffff1681565b61078c612247565b8060025f6101000a81548173ffffffffffffffffffffffffffffffffffffffff021916908373ffffffffffffffffffffffffffffffffffffffff16021790555050565b6107d7612247565b6107df6122ce565b565b5f8060149054906101000a900460ff16905090565b600a60015f9054906101000a900473ffffffffffffffffffffffffffffffffffffffff1673ffffffffffffffffffffffffffffffffffffffff1663b9f79451336040518263ffffffff1660e01b81526004016108529190612954565b602060405180830381865afa15801561086d573d5f803e3d5ffd5b505050506040513d601f19601f820116820180604052508101906108919190612ee0565b10156108d2576040517f08c379a00000000000000000000000000000000000000000000000000000000081526004016108c990612f7b565b60405180910390fd5b60035f8281526020019081526020015f206002015f9054906101000a900460ff16610932576040517f08c379a000000000000000000000000000000000000000000000000000000000815260040161092990612fe3565b60405180910390fd5b60045f3373ffffffffffffffffffffffffffffffffffffffff1673ffffffffffffffffffffffffffffffffffffffff1681526020019081526020015f205f8281526020019081526020015f205f015f9054906101000a900460ff16156109cd576040517f08c379a00000000000000000000000000000000000000000000000000000000081526004016109c49061304b565b60405180910390fd5b600160045f3373ffffffffffffffffffffffffffffffffffffffff1673ffffffffffffffffffffffffffffffffffffffff1681526020019081526020015f205f8381526020019081526020015f205f015f6101000a81548160ff0219169083151502179055503373ffffffffffffffffffffffffffffffffffffffff16817ffacf1a2842acbad124cbca0a047fe37bc246c68f814e0350c7bd8a022fd1dddb60405160405180910390a350565b60065481565b610a88612247565b610a915f61232f565b565b610a9b612247565b60035f8281526020019081526020015f206002015f9054906101000a900460ff1615610afc576040517f08c379a0000000000000000000000000000000000000000000000000000000008152600401610af3906130b3565b60405180910390fd5b600160035f8381526020019081526020015f206002015f6101000a81548160ff021916908315150217905550807f87c1c0e5cd17beb8c61a3337b32c66021cb179dd6f97d6d9ce923a029092bd4560405160405180910390a250565b610b60612247565b610b686123f0565b565b60015f9054906101000a900473ffffffffffffffffffffffffffffffffffffffff1681565b603260015f9054906101000a900473ffffffffffffffffffffffffffffffffffffffff1673ffffffffffffffffffffffffffffffffffffffff1663b9f79451336040518263ffffffff1660e01b8152600401610beb9190612954565b602060405180830381865afa158015610c06573d5f803e3d5ffd5b505050506040513d601f19601f82011682018060405250810190610c2a9190612ee0565b1015610c6b576040517f08c379a0000000000000000000000000000000000000000000000000000000008152600401610c6290613141565b60405180910390fd5b5f60065f815480929190610c7e9061315f565b9190505590506040518060a001604052803373ffffffffffffffffffffffffffffffffffffffff1681526020018381526020015f151581526020015f81526020015f81525060035f8381526020019081526020015f205f820151815f015f6101000a81548173ffffffffffffffffffffffffffffffffffffffff021916908373ffffffffffffffffffffffffffffffffffffffff1602179055506020820151816001019081610d2d9190613397565b506040820151816002015f6101000a81548160ff02191690831515021790555060608201518160030155608082015181600401559050503373ffffffffffffffffffffffffffffffffffffffff16817fa68f79aa37f9cdc81c2757cfb3e11e9d7d89ca0a5410fbcf1b61125bc17fb1b760405160405180910390a35050565b5f805f9054906101000a900473ffffffffffffffffffffffffffffffffffffffff16905090565b610ddb612247565b8060015f6101000a81548173ffffffffffffffffffffffffffffffffffffffff021916908373ffffffffffffffffffffffffffffffffffffffff16021790555050565b6003602052805f5260405f205f91509050805f015f9054906101000a900473ffffffffffffffffffffffffffffffffffffffff1690806001018054610e62906131d3565b80601f0160208091040260200160405190810160405280929190818152602001828054610e8e906131d3565b8015610ed95780601f10610eb057610100808354040283529160200191610ed9565b820191905f5260205f20905b815481529060010190602001808311610ebc57829003601f168201915b505050505090806002015f9054906101000a900460ff16908060030154908060040154905085565b5f60045f3373ffffffffffffffffffffffffffffffffffffffff1673ffffffffffffffffffffffffffffffffffffffff1681526020019081526020015f205f8381526020019081526020015f209050805f0160029054906101000a900460ff16610fa0576040517f08c379a0000000000000000000000000000000000000000000000000000000008152600401610f97906134b0565b60405180910390fd5b805f0160039054906101000a900460ff1615610ff1576040517f08c379a0000000000000000000000000000000000000000000000000000000008152600401610fe890613518565b60405180910390fd5b6001815f0160036101000a81548160ff02191690831515021790555060025f9054906101000a900473ffffffffffffffffffffffffffffffffffffffff1673ffffffffffffffffffffffffffffffffffffffff1663a9059cbb33678ac7230489e800006040518363ffffffff1660e01b8152600401611071929190612de8565b6020604051808303815f875af115801561108d573d5f803e3d5ffd5b505050506040513d601f19601f820116820180604052508101906110b19190612e39565b6110f0576040517f08c379a00000000000000000000000000000000000000000000000000000000081526004016110e790612eae565b60405180910390fd5b678ac7230489e8000060035f8481526020019081526020015f206004015f82825461111b9190613536565b925050819055503373ffffffffffffffffffffffffffffffffffffffff16827f24b5efa61dd1cfc659205a97fb8ed868f3cb8c81922bab2b96423e5de1de2cb7678ac7230489e800006040516111719190612770565b60405180910390a35050565b603281565b600a81565b6005602052815f5260405f2081815481106111a0575f80fd5b905f5260205f2090600702015f9150915050805f0154908060010180546111c6906131d3565b80601f01602080910402602001604051908101604052809291908181526020018280546111f2906131d3565b801561123d5780601f106112145761010080835404028352916020019161123d565b820191905f5260205f20905b81548152906001019060200180831161122057829003601f168201915b505050505090806002018054611252906131d3565b80601f016020809104026020016040519081016040528092919081815260200182805461127e906131d3565b80156112c95780601f106112a0576101008083540402835291602001916112c9565b820191905f5260205f20905b8154815290600101906020018083116112ac57829003601f168201915b5050505050908060030180546112de906131d3565b80601f016020809104026020016040519081016040528092919081815260200182805461130a906131d3565b80156113555780601f1061132c57610100808354040283529160200191611355565b820191905f5260205f20905b81548152906001019060200180831161133857829003601f168201915b50505050509080600401805461136a906131d3565b80601f0160208091040260200160405190810160405280929190818152602001828054611396906131d3565b80156113e15780601f106113b8576101008083540402835291602001916113e1565b820191905f5260205f20905b8154815290600101906020018083116113c457829003601f168201915b5050505050908060050180546113f6906131d3565b80601f0160208091040260200160405190810160405280929190818152602001828054611422906131d3565b801561146d5780601f106114445761010080835404028352916020019161146d565b820191905f5260205f20905b81548152906001019060200180831161145057829003601f168201915b5050505050908060060154905087565b5f60035f8381526020019081526020015f209050805f015f9054906101000a900473ffffffffffffffffffffffffffffffffffffffff1673ffffffffffffffffffffffffffffffffffffffff163373ffffffffffffffffffffffffffffffffffffffff1614611521576040517f08c379a0000000000000000000000000000000000000000000000000000000008152600401611518906135d9565b60405180910390fd5b806002015f9054906101000a900460ff16611571576040517f08c379a000000000000000000000000000000000000000000000000000000000815260040161156890612fe3565b60405180910390fd5b5f670de0b6b3a7640000826003015461158a91906135f7565b90505f826003018190555080826004015f8282546115a89190613536565b9250508190555060025f9054906101000a900473ffffffffffffffffffffffffffffffffffffffff1673ffffffffffffffffffffffffffffffffffffffff1663a9059cbb33836040518363ffffffff1660e01b815260040161160b929190612de8565b6020604051808303815f875af1158015611627573d5f803e3d5ffd5b505050506040513d601f19601f8201168201806040525081019061164b9190612e39565b61168a576040517f08c379a000000000000000000000000000000000000000000000000000000000815260040161168190612eae565b60405180910390fd5b3373ffffffffffffffffffffffffffffffffffffffff16837fb67da43f4cc061f251c05601f44947d1be59a7ef5451a4a5230274da04f88246836040516116d19190612770565b60405180910390a3505050565b5f60045f3373ffffffffffffffffffffffffffffffffffffffff1673ffffffffffffffffffffffffffffffffffffffff1681526020019081526020015f205f8481526020019081526020015f209050805f015f9054906101000a900460ff1661177c576040517f08c379a000000000000000000000000000000000000000000000000000000000815260040161177390613682565b60405180910390fd5b6002815f0160019054906101000a900460ff1660ff16106117d2576040517f08c379a00000000000000000000000000000000000000000000000000000000081526004016117c9906136ea565b60405180910390fd5b805f0160029054906101000a900460ff1615611823576040517f08c379a000000000000000000000000000000000000000000000000000000000815260040161181a90613778565b60405180910390fd5b805f01600181819054906101000a900460ff168092919061184390613796565b91906101000a81548160ff021916908360ff160217905550505f60055f8581526020019081526020015f20805480602002602001604051908101604052809291908181526020015f905b82821015611ba0578382905f5260205f2090600702016040518060e00160405290815f82015481526020016001820180546118c7906131d3565b80601f01602080910402602001604051908101604052809291908181526020018280546118f3906131d3565b801561193e5780601f106119155761010080835404028352916020019161193e565b820191905f5260205f20905b81548152906001019060200180831161192157829003601f168201915b50505050508152602001600282018054611957906131d3565b80601f0160208091040260200160405190810160405280929190818152602001828054611983906131d3565b80156119ce5780601f106119a5576101008083540402835291602001916119ce565b820191905f5260205f20905b8154815290600101906020018083116119b157829003601f168201915b505050505081526020016003820180546119e7906131d3565b80601f0160208091040260200160405190810160405280929190818152602001828054611a13906131d3565b8015611a5e5780601f10611a3557610100808354040283529160200191611a5e565b820191905f5260205f20905b815481529060010190602001808311611a4157829003601f168201915b50505050508152602001600482018054611a77906131d3565b80601f0160208091040260200160405190810160405280929190818152602001828054611aa3906131d3565b8015611aee5780601f10611ac557610100808354040283529160200191611aee565b820191905f5260205f20905b815481529060010190602001808311611ad157829003601f168201915b50505050508152602001600582018054611b07906131d3565b80601f0160208091040260200160405190810160405280929190818152602001828054611b33906131d3565b8015611b7e5780601f10611b5557610100808354040283529160200191611b7e565b820191905f5260205f20905b815481529060010190602001808311611b6157829003601f168201915b505050505081526020016006820154815250508152602001906001019061188d565b5050505090505f600190505f5b8251811015611c1657828181518110611bc957611bc86137be565b5b602002602001015160c0015185604051602001611be69190613825565b6040516020818303038152906040528051906020012014611c09575f9150611c16565b8080600101915050611bad565b508015611c63576001835f0160026101000a81548160ff02191690831515021790555060035f8681526020019081526020015f206003015f815480929190611c5d9061315f565b91905055505b3373ffffffffffffffffffffffffffffffffffffffff16857faee8895c1bf669485cee2dd54d1eee9e65b02a244afb6f798f95d72405cdf7a583604051611caa919061271d565b60405180910390a35050505050565b670de0b6b3a764000081565b60035f8881526020019081526020015f205f015f9054906101000a900473ffffffffffffffffffffffffffffffffffffffff1673ffffffffffffffffffffffffffffffffffffffff163373ffffffffffffffffffffffffffffffffffffffff1614611d65576040517f08c379a0000000000000000000000000000000000000000000000000000000008152600401611d5c906138ab565b60405180910390fd5b60035f8881526020019081526020015f206002015f9054906101000a900460ff16611dc5576040517f08c379a0000000000000000000000000000000000000000000000000000000008152600401611dbc90613939565b60405180910390fd5b604051602001611dd4906139a1565b6040516020818303038152906040528051906020012081604051602001611dfb9190613825565b604051602081830303815290604052805190602001201480611e665750604051602001611e27906139ff565b6040516020818303038152906040528051906020012081604051602001611e4e9190613825565b60405160208183030381529060405280519060200120145b80611eba5750604051602001611e7b90613a5d565b6040516020818303038152906040528051906020012081604051602001611ea29190613825565b60405160208183030381529060405280519060200120145b80611f0e5750604051602001611ecf90613abb565b6040516020818303038152906040528051906020012081604051602001611ef69190613825565b60405160208183030381529060405280519060200120145b611f4d576040517f08c379a0000000000000000000000000000000000000000000000000000000008152600401611f4490613b19565b60405180910390fd5b5f6040518060e0016040528089815260200188815260200187815260200186815260200185815260200184815260200183604051602001611f8e9190613825565b60405160208183030381529060405280519060200120815250905060055f8981526020019081526020015f2081908060018154018082558091505060019003905f5260205f2090600702015f909190919091505f820151815f01556020820151816001019081611ffe9190613397565b5060408201518160020190816120149190613397565b50606082015181600301908161202a9190613397565b5060808201518160040190816120409190613397565b5060a08201518160050190816120569190613397565b5060c0820151816006015550505f600160055f8b81526020019081526020015f20805490506120859190612db5565b9050887f8865832f191ae6766f74ad3a536812cffbf608c1dee46454cf0b3b9c98a4b37f826040516120b79190612770565b60405180910390a2505050505050505050565b6120d2612247565b60025f9054906101000a900473ffffffffffffffffffffffffffffffffffffffff1673ffffffffffffffffffffffffffffffffffffffff1663a9059cbb612117610dac565b836040518363ffffffff1660e01b8152600401612135929190612de8565b6020604051808303815f875af1158015612151573d5f803e3d5ffd5b505050506040513d601f19601f820116820180604052508101906121759190612e39565b6121b4576040517f08c379a00000000000000000000000000000000000000000000000000000000081526004016121ab90613b81565b60405180910390fd5b50565b6121bf612247565b5f73ffffffffffffffffffffffffffffffffffffffff168173ffffffffffffffffffffffffffffffffffffffff160361222f575f6040517f1e4fbdf70000000000000000000000000000000000000000000000000000000081526004016122269190612954565b60405180910390fd5b6122388161232f565b50565b678ac7230489e8000081565b61224f612452565b73ffffffffffffffffffffffffffffffffffffffff1661226d610dac565b73ffffffffffffffffffffffffffffffffffffffff16146122cc57612290612452565b6040517f118cdaa70000000000000000000000000000000000000000000000000000000081526004016122c39190612954565b60405180910390fd5b565b6122d6612459565b5f8060146101000a81548160ff0219169083151502179055507f5db9ee0a495bf2e6ff9c91a7834c1ba4fdd244a5e8aa4e537bd38aeae4b073aa612318612452565b6040516123259190612954565b60405180910390a1565b5f805f9054906101000a900473ffffffffffffffffffffffffffffffffffffffff169050815f806101000a81548173ffffffffffffffffffffffffffffffffffffffff021916908373ffffffffffffffffffffffffffffffffffffffff1602179055508173ffffffffffffffffffffffffffffffffffffffff168173ffffffffffffffffffffffffffffffffffffffff167f8be0079c531659141344cd1fd0a4f28419497f9722a3daafe3b4186f6b6457e060405160405180910390a35050565b6123f86124a2565b60015f60146101000a81548160ff0219169083151502179055507f62e78cea01bee320cd4e420270b5ea74000d11b0c9f74754ebdbfc544b05a25861243b612452565b6040516124489190612954565b60405180910390a1565b5f33905090565b6124616107e1565b6124a0576040517f08c379a000000000000000000000000000000000000000000000000000000000815260040161249790613be9565b60405180910390fd5b565b6124aa6107e1565b156124ea576040517f08c379a00000000000000000000000000000000000000000000000000000000081526004016124e190613c51565b60405180910390fd5b565b5f604051905090565b5f80fd5b5f80fd5b5f819050919050565b61250f816124fd565b8114612519575f80fd5b50565b5f8135905061252a81612506565b92915050565b5f8060408385031215612546576125456124f5565b5b5f6125538582860161251c565b92505060206125648582860161251c565b9150509250929050565b5f73ffffffffffffffffffffffffffffffffffffffff82169050919050565b5f6125978261256e565b9050919050565b6125a78161258d565b81146125b1575f80fd5b50565b5f813590506125c28161259e565b92915050565b5f80604083850312156125de576125dd6124f5565b5b5f6125eb858286016125b4565b92505060206125fc8582860161251c565b9150509250929050565b5f8115159050919050565b61261a81612606565b82525050565b5f60ff82169050919050565b61263581612620565b82525050565b5f60808201905061264e5f830187612611565b61265b602083018661262c565b6126686040830185612611565b6126756060830184612611565b95945050505050565b5f819050919050565b5f6126a161269c6126978461256e565b61267e565b61256e565b9050919050565b5f6126b282612687565b9050919050565b5f6126c3826126a8565b9050919050565b6126d3816126b9565b82525050565b5f6020820190506126ec5f8301846126ca565b92915050565b5f60208284031215612707576127066124f5565b5b5f612714848285016125b4565b91505092915050565b5f6020820190506127305f830184612611565b92915050565b5f6020828403121561274b5761274a6124f5565b5b5f6127588482850161251c565b91505092915050565b61276a816124fd565b82525050565b5f6020820190506127835f830184612761565b92915050565b5f612793826126a8565b9050919050565b6127a381612789565b82525050565b5f6020820190506127bc5f83018461279a565b92915050565b5f80fd5b5f80fd5b5f601f19601f8301169050919050565b7f4e487b71000000000000000000000000000000000000000000000000000000005f52604160045260245ffd5b612810826127ca565b810181811067ffffffffffffffff8211171561282f5761282e6127da565b5b80604052505050565b5f6128416124ec565b905061284d8282612807565b919050565b5f67ffffffffffffffff82111561286c5761286b6127da565b5b612875826127ca565b9050602081019050919050565b828183375f83830152505050565b5f6128a261289d84612852565b612838565b9050828152602081018484840111156128be576128bd6127c6565b5b6128c9848285612882565b509392505050565b5f82601f8301126128e5576128e46127c2565b5b81356128f5848260208601612890565b91505092915050565b5f60208284031215612913576129126124f5565b5b5f82013567ffffffffffffffff8111156129305761292f6124f9565b5b61293c848285016128d1565b91505092915050565b61294e8161258d565b82525050565b5f6020820190506129675f830184612945565b92915050565b5f81519050919050565b5f82825260208201905092915050565b8281835e5f83830152505050565b5f61299f8261296d565b6129a98185612977565b93506129b9818560208601612987565b6129c2816127ca565b840191505092915050565b5f60a0820190506129e05f830188612945565b81810360208301526129f28187612995565b9050612a016040830186612611565b612a0e6060830185612761565b612a1b6080830184612761565b9695505050505050565b5f819050919050565b612a3781612a25565b82525050565b5f60e082019050612a505f83018a612761565b8181036020830152612a628189612995565b90508181036040830152612a768188612995565b90508181036060830152612a8a8187612995565b90508181036080830152612a9e8186612995565b905081810360a0830152612ab28185612995565b9050612ac160c0830184612a2e565b98975050505050505050565b5f8060408385031215612ae357612ae26124f5565b5b5f612af08582860161251c565b925050602083013567ffffffffffffffff811115612b1157612b106124f9565b5b612b1d858286016128d1565b9150509250929050565b5f805f805f805f60e0888a031215612b4257612b416124f5565b5b5f612b4f8a828b0161251c565b975050602088013567ffffffffffffffff811115612b7057612b6f6124f9565b5b612b7c8a828b016128d1565b965050604088013567ffffffffffffffff811115612b9d57612b9c6124f9565b5b612ba98a828b016128d1565b955050606088013567ffffffffffffffff811115612bca57612bc96124f9565b5b612bd68a828b016128d1565b945050608088013567ffffffffffffffff811115612bf757612bf66124f9565b5b612c038a828b016128d1565b93505060a088013567ffffffffffffffff811115612c2457612c236124f9565b5b612c308a828b016128d1565b92505060c088013567ffffffffffffffff811115612c5157612c506124f9565b5b612c5d8a828b016128d1565b91505092959891949750929550565b7f4f6e6c7920636f757273652063726561746f722063616e2077697468647261775f8201527f20746f6b656e7300000000000000000000000000000000000000000000000000602082015250565b5f612cc6602783612977565b9150612cd182612c6c565b604082019050919050565b5f6020820190508181035f830152612cf381612cba565b9050919050565b7f496e73756666696369656e7420726577617264656420746f6b656e7320746f205f8201527f7769746864726177000000000000000000000000000000000000000000000000602082015250565b5f612d54602883612977565b9150612d5f82612cfa565b604082019050919050565b5f6020820190508181035f830152612d8181612d48565b9050919050565b7f4e487b71000000000000000000000000000000000000000000000000000000005f52601160045260245ffd5b5f612dbf826124fd565b9150612dca836124fd565b9250828203905081811115612de257612de1612d88565b5b92915050565b5f604082019050612dfb5f830185612945565b612e086020830184612761565b9392505050565b612e1881612606565b8114612e22575f80fd5b50565b5f81519050612e3381612e0f565b92915050565b5f60208284031215612e4e57612e4d6124f5565b5b5f612e5b84828501612e25565b91505092915050565b7f4661696c656420746f207472616e73666572204d414e4420746f6b656e7300005f82015250565b5f612e98601e83612977565b9150612ea382612e64565b602082019050919050565b5f6020820190508181035f830152612ec581612e8c565b9050919050565b5f81519050612eda81612506565b92915050565b5f60208284031215612ef557612ef46124f5565b5b5f612f0284828501612ecc565b91505092915050565b7f496e73756666696369656e742072657075746174696f6e20746f20656e726f6c5f8201527f6c00000000000000000000000000000000000000000000000000000000000000602082015250565b5f612f65602183612977565b9150612f7082612f0b565b604082019050919050565b5f6020820190508181035f830152612f9281612f59565b9050919050565b7f436f75727365206e6f7420617070726f766564000000000000000000000000005f82015250565b5f612fcd601383612977565b9150612fd882612f99565b602082019050919050565b5f6020820190508181035f830152612ffa81612fc1565b9050919050565b7f416c726561647920656e726f6c6c6564000000000000000000000000000000005f82015250565b5f613035601083612977565b915061304082613001565b602082019050919050565b5f6020820190508181035f83015261306281613029565b9050919050565b7f436f7572736520616c726561647920617070726f7665640000000000000000005f82015250565b5f61309d601783612977565b91506130a882613069565b602082019050919050565b5f6020820190508181035f8301526130ca81613091565b9050919050565b7f496e73756666696369656e742072657075746174696f6e20746f2063726561745f8201527f6520636f75727365000000000000000000000000000000000000000000000000602082015250565b5f61312b602883612977565b9150613136826130d1565b604082019050919050565b5f6020820190508181035f8301526131588161311f565b9050919050565b5f613169826124fd565b91507fffffffffffffffffffffffffffffffffffffffffffffffffffffffffffffffff820361319b5761319a612d88565b5b600182019050919050565b7f4e487b71000000000000000000000000000000000000000000000000000000005f52602260045260245ffd5b5f60028204905060018216806131ea57607f821691505b6020821081036131fd576131fc6131a6565b5b50919050565b5f819050815f5260205f209050919050565b5f6020601f8301049050919050565b5f82821b905092915050565b5f6008830261325f7fffffffffffffffffffffffffffffffffffffffffffffffffffffffffffffffff82613224565b6132698683613224565b95508019841693508086168417925050509392505050565b5f61329b613296613291846124fd565b61267e565b6124fd565b9050919050565b5f819050919050565b6132b483613281565b6132c86132c0826132a2565b848454613230565b825550505050565b5f90565b6132dc6132d0565b6132e78184846132ab565b505050565b5b8181101561330a576132ff5f826132d4565b6001810190506132ed565b5050565b601f82111561334f5761332081613203565b61332984613215565b81016020851015613338578190505b61334c61334485613215565b8301826132ec565b50505b505050565b5f82821c905092915050565b5f61336f5f1984600802613354565b1980831691505092915050565b5f6133878383613360565b9150826002028217905092915050565b6133a08261296d565b67ffffffffffffffff8111156133b9576133b86127da565b5b6133c382546131d3565b6133ce82828561330e565b5f60209050601f8311600181146133ff575f84156133ed578287015190505b6133f7858261337c565b86555061345e565b601f19841661340d86613203565b5f5b828110156134345784890151825560018201915060208501945060208101905061340f565b86831015613451578489015161344d601f891682613360565b8355505b6001600288020188555050505b505050505050565b7f436f75727365206e6f74207061737365640000000000000000000000000000005f82015250565b5f61349a601183612977565b91506134a582613466565b602082019050919050565b5f6020820190508181035f8301526134c78161348e565b9050919050565b7f52657761726420616c726561647920636c61696d6564000000000000000000005f82015250565b5f613502601683612977565b915061350d826134ce565b602082019050919050565b5f6020820190508181035f83015261352f816134f6565b9050919050565b5f613540826124fd565b915061354b836124fd565b925082820190508082111561356357613562612d88565b5b92915050565b7f4f6e6c7920636f757273652063726561746f722063616e20636c61696d2072655f8201527f7761726400000000000000000000000000000000000000000000000000000000602082015250565b5f6135c3602483612977565b91506135ce82613569565b604082019050919050565b5f6020820190508181035f8301526135f0816135b7565b9050919050565b5f613601826124fd565b915061360c836124fd565b925082820261361a816124fd565b9150828204841483151761363157613630612d88565b5b5092915050565b7f55736572206e6f7420656e726f6c6c656420696e207468697320636f757273655f82015250565b5f61366c602083612977565b915061367782613638565b602082019050919050565b5f6020820190508181035f83015261369981613660565b9050919050565b7f4d6178696d756d20617474656d707473207265616368656400000000000000005f82015250565b5f6136d4601883612977565b91506136df826136a0565b602082019050919050565b5f6020820190508181035f830152613701816136c8565b9050919050565b7f557365722068617320616c726561647920706173736564207468697320636f755f8201527f7273650000000000000000000000000000000000000000000000000000000000602082015250565b5f613762602383612977565b915061376d82613708565b604082019050919050565b5f6020820190508181035f83015261378f81613756565b9050919050565b5f6137a082612620565b915060ff82036137b3576137b2612d88565b5b600182019050919050565b7f4e487b71000000000000000000000000000000000000000000000000000000005f52603260045260245ffd5b5f81905092915050565b5f6137ff8261296d565b61380981856137eb565b9350613819818560208601612987565b80840191505092915050565b5f61383082846137f5565b915081905092915050565b7f4f6e6c7920636f757273652063726561746f722063616e2063726561746520615f8201527f207175697a000000000000000000000000000000000000000000000000000000602082015250565b5f613895602583612977565b91506138a08261383b565b604082019050919050565b5f6020820190508181035f8301526138c281613889565b9050919050565b7f436f75727365206d75737420626520617070726f76656420746f2063726561745f8201527f652061207175697a000000000000000000000000000000000000000000000000602082015250565b5f613923602883612977565b915061392e826138c9565b604082019050919050565b5f6020820190508181035f83015261395081613917565b9050919050565b7f41000000000000000000000000000000000000000000000000000000000000005f82015250565b5f61398b6001836137eb565b915061399682613957565b600182019050919050565b5f6139ab8261397f565b9150819050919050565b7f42000000000000000000000000000000000000000000000000000000000000005f82015250565b5f6139e96001836137eb565b91506139f4826139b5565b600182019050919050565b5f613a09826139dd565b9150819050919050565b7f43000000000000000000000000000000000000000000000000000000000000005f82015250565b5f613a476001836137eb565b9150613a5282613a13565b600182019050919050565b5f613a6782613a3b565b9150819050919050565b7f44000000000000000000000000000000000000000000000000000000000000005f82015250565b5f613aa56001836137eb565b9150613ab082613a71565b600182019050919050565b5f613ac582613a99565b9150819050919050565b7f496e76616c696420636f727265637420616e73776572000000000000000000005f82015250565b5f613b03601683612977565b9150613b0e82613acf565b602082019050919050565b5f6020820190508181035f830152613b3081613af7565b9050919050565b7f4661696c656420746f20776974686472617720746f6b656e73000000000000005f82015250565b5f613b6b601983612977565b9150613b7682613b37565b602082019050919050565b5f6020820190508181035f830152613b9881613b5f565b9050919050565b7f5061757361626c653a206e6f74207061757365640000000000000000000000005f82015250565b5f613bd3601483612977565b9150613bde82613b9f565b602082019050919050565b5f6020820190508181035f830152613c0081613bc7565b9050919050565b7f5061757361626c653a20706175736564000000000000000000000000000000005f82015250565b5f613c3b601083612977565b9150613c4682613c07565b602082019050919050565b5f6020820190508181035f830152613c6881613c2f565b905091905056fea264697066735822122094dda2c2879528ec9bc4c60f224ef50944444c5b1a8a65bc857ccf3b962afbe064736f6c634300081a0033",
			"opcodes": "PUSH1 0x80 PUSH1 0x40 MSTORE CALLVALUE DUP1 ISZERO PUSH2 0xF JUMPI PUSH0 DUP1 REVERT JUMPDEST POP PUSH1 0x40 MLOAD PUSH2 0x3F89 CODESIZE SUB DUP1 PUSH2 0x3F89 DUP4 CODECOPY DUP2 DUP2 ADD PUSH1 0x40 MSTORE DUP2 ADD SWAP1 PUSH2 0x31 SWAP2 SWAP1 PUSH2 0x271 JUMP JUMPDEST CALLER PUSH0 PUSH20 0xFFFFFFFFFFFFFFFFFFFFFFFFFFFFFFFFFFFFFFFF AND DUP2 PUSH20 0xFFFFFFFFFFFFFFFFFFFFFFFFFFFFFFFFFFFFFFFF AND SUB PUSH2 0xA2 JUMPI PUSH0 PUSH1 0x40 MLOAD PUSH32 0x1E4FBDF700000000000000000000000000000000000000000000000000000000 DUP2 MSTORE PUSH1 0x4 ADD PUSH2 0x99 SWAP2 SWAP1 PUSH2 0x2BE JUMP JUMPDEST PUSH1 0x40 MLOAD DUP1 SWAP2 SUB SWAP1 REVERT JUMPDEST PUSH2 0xB1 DUP2 PUSH2 0x152 PUSH1 0x20 SHL PUSH1 0x20 SHR JUMP JUMPDEST POP PUSH0 DUP1 PUSH1 0x14 PUSH2 0x100 EXP DUP2 SLOAD DUP2 PUSH1 0xFF MUL NOT AND SWAP1 DUP4 ISZERO ISZERO MUL OR SWAP1 SSTORE POP DUP1 PUSH1 0x1 PUSH0 PUSH2 0x100 EXP DUP2 SLOAD DUP2 PUSH20 0xFFFFFFFFFFFFFFFFFFFFFFFFFFFFFFFFFFFFFFFF MUL NOT AND SWAP1 DUP4 PUSH20 0xFFFFFFFFFFFFFFFFFFFFFFFFFFFFFFFFFFFFFFFF AND MUL OR SWAP1 SSTORE POP DUP2 PUSH1 0x2 PUSH0 PUSH2 0x100 EXP DUP2 SLOAD DUP2 PUSH20 0xFFFFFFFFFFFFFFFFFFFFFFFFFFFFFFFFFFFFFFFF MUL NOT AND SWAP1 DUP4 PUSH20 0xFFFFFFFFFFFFFFFFFFFFFFFFFFFFFFFFFFFFFFFF AND MUL OR SWAP1 SSTORE POP POP POP PUSH2 0x2D7 JUMP JUMPDEST PUSH0 DUP1 PUSH0 SWAP1 SLOAD SWAP1 PUSH2 0x100 EXP SWAP1 DIV PUSH20 0xFFFFFFFFFFFFFFFFFFFFFFFFFFFFFFFFFFFFFFFF AND SWAP1 POP DUP2 PUSH0 DUP1 PUSH2 0x100 EXP DUP2 SLOAD DUP2 PUSH20 0xFFFFFFFFFFFFFFFFFFFFFFFFFFFFFFFFFFFFFFFF MUL NOT AND SWAP1 DUP4 PUSH20 0xFFFFFFFFFFFFFFFFFFFFFFFFFFFFFFFFFFFFFFFF AND MUL OR SWAP1 SSTORE POP DUP2 PUSH20 0xFFFFFFFFFFFFFFFFFFFFFFFFFFFFFFFFFFFFFFFF AND DUP2 PUSH20 0xFFFFFFFFFFFFFFFFFFFFFFFFFFFFFFFFFFFFFFFF AND PUSH32 0x8BE0079C531659141344CD1FD0A4F28419497F9722A3DAAFE3B4186F6B6457E0 PUSH1 0x40 MLOAD PUSH1 0x40 MLOAD DUP1 SWAP2 SUB SWAP1 LOG3 POP POP JUMP JUMPDEST PUSH0 DUP1 REVERT JUMPDEST PUSH0 PUSH20 0xFFFFFFFFFFFFFFFFFFFFFFFFFFFFFFFFFFFFFFFF DUP3 AND SWAP1 POP SWAP2 SWAP1 POP JUMP JUMPDEST PUSH0 PUSH2 0x240 DUP3 PUSH2 0x217 JUMP JUMPDEST SWAP1 POP SWAP2 SWAP1 POP JUMP JUMPDEST PUSH2 0x250 DUP2 PUSH2 0x236 JUMP JUMPDEST DUP2 EQ PUSH2 0x25A JUMPI PUSH0 DUP1 REVERT JUMPDEST POP JUMP JUMPDEST PUSH0 DUP2 MLOAD SWAP1 POP PUSH2 0x26B DUP2 PUSH2 0x247 JUMP JUMPDEST SWAP3 SWAP2 POP POP JUMP JUMPDEST PUSH0 DUP1 PUSH1 0x40 DUP4 DUP6 SUB SLT ISZERO PUSH2 0x287 JUMPI PUSH2 0x286 PUSH2 0x213 JUMP JUMPDEST JUMPDEST PUSH0 PUSH2 0x294 DUP6 DUP3 DUP7 ADD PUSH2 0x25D JUMP JUMPDEST SWAP3 POP POP PUSH1 0x20 PUSH2 0x2A5 DUP6 DUP3 DUP7 ADD PUSH2 0x25D JUMP JUMPDEST SWAP2 POP POP SWAP3 POP SWAP3 SWAP1 POP JUMP JUMPDEST PUSH2 0x2B8 DUP2 PUSH2 0x236 JUMP JUMPDEST DUP3 MSTORE POP POP JUMP JUMPDEST PUSH0 PUSH1 0x20 DUP3 ADD SWAP1 POP PUSH2 0x2D1 PUSH0 DUP4 ADD DUP5 PUSH2 0x2AF JUMP JUMPDEST SWAP3 SWAP2 POP POP JUMP JUMPDEST PUSH2 0x3CA5 DUP1 PUSH2 0x2E4 PUSH0 CODECOPY PUSH0 RETURN INVALID PUSH1 0x80 PUSH1 0x40 MSTORE CALLVALUE DUP1 ISZERO PUSH2 0xF JUMPI PUSH0 DUP1 REVERT JUMPDEST POP PUSH1 0x4 CALLDATASIZE LT PUSH2 0x1A7 JUMPI PUSH0 CALLDATALOAD PUSH1 0xE0 SHR DUP1 PUSH4 0x8DA5CB5B GT PUSH2 0xF7 JUMPI DUP1 PUSH4 0xBA2F0362 GT PUSH2 0x95 JUMPI DUP1 PUSH4 0xD69C575B GT PUSH2 0x6F JUMPI DUP1 PUSH4 0xD69C575B EQ PUSH2 0x452 JUMPI DUP1 PUSH4 0xE111F6B4 EQ PUSH2 0x46E JUMPI DUP1 PUSH4 0xF2FDE38B EQ PUSH2 0x48A JUMPI DUP1 PUSH4 0xFBF1ADED EQ PUSH2 0x4A6 JUMPI PUSH2 0x1A7 JUMP JUMPDEST DUP1 PUSH4 0xBA2F0362 EQ PUSH2 0x3FC JUMPI DUP1 PUSH4 0xBBA33093 EQ PUSH2 0x418 JUMPI DUP1 PUSH4 0xCF90B3BE EQ PUSH2 0x434 JUMPI PUSH2 0x1A7 JUMP JUMPDEST DUP1 PUSH4 0x996B5D8E GT PUSH2 0xD1 JUMPI DUP1 PUSH4 0x996B5D8E EQ PUSH2 0x36E JUMPI DUP1 PUSH4 0xA4E1F033 EQ PUSH2 0x38A JUMPI DUP1 PUSH4 0xAE24F005 EQ PUSH2 0x3A8 JUMPI DUP1 PUSH4 0xB0AAEFD6 EQ PUSH2 0x3C6 JUMPI PUSH2 0x1A7 JUMP JUMPDEST DUP1 PUSH4 0x8DA5CB5B EQ PUSH2 0x300 JUMPI DUP1 PUSH4 0x905BAA61 EQ PUSH2 0x31E JUMPI DUP1 PUSH4 0x96F979D2 EQ PUSH2 0x33A JUMPI PUSH2 0x1A7 JUMP JUMPDEST DUP1 PUSH4 0x5E52DA27 GT PUSH2 0x164 JUMPI DUP1 PUSH4 0x75284998 GT PUSH2 0x13E JUMPI DUP1 PUSH4 0x75284998 EQ PUSH2 0x2A0 JUMPI DUP1 PUSH4 0x8456CB59 EQ PUSH2 0x2BC JUMPI DUP1 PUSH4 0x87BC1425 EQ PUSH2 0x2C6 JUMPI DUP1 PUSH4 0x8A38AB2C EQ PUSH2 0x2E4 JUMPI PUSH2 0x1A7 JUMP JUMPDEST DUP1 PUSH4 0x5E52DA27 EQ PUSH2 0x25C JUMPI DUP1 PUSH4 0x66055159 EQ PUSH2 0x278 JUMPI DUP1 PUSH4 0x715018A6 EQ PUSH2 0x296 JUMPI PUSH2 0x1A7 JUMP JUMPDEST DUP1 PUSH4 0x3B1965B EQ PUSH2 0x1AB JUMPI DUP1 PUSH4 0x7F910F8 EQ PUSH2 0x1C7 JUMPI DUP1 PUSH4 0x17F5E33D EQ PUSH2 0x1FA JUMPI DUP1 PUSH4 0x3A447E76 EQ PUSH2 0x218 JUMPI DUP1 PUSH4 0x3F4BA83A EQ PUSH2 0x234 JUMPI DUP1 PUSH4 0x5C975ABB EQ PUSH2 0x23E JUMPI JUMPDEST PUSH0 DUP1 REVERT JUMPDEST PUSH2 0x1C5 PUSH1 0x4 DUP1 CALLDATASIZE SUB DUP2 ADD SWAP1 PUSH2 0x1C0 SWAP2 SWAP1 PUSH2 0x2530 JUMP JUMPDEST PUSH2 0x4C4 JUMP JUMPDEST STOP JUMPDEST PUSH2 0x1E1 PUSH1 0x4 DUP1 CALLDATASIZE SUB DUP2 ADD SWAP1 PUSH2 0x1DC SWAP2 SWAP1 PUSH2 0x25C8 JUMP JUMPDEST PUSH2 0x6F8 JUMP JUMPDEST PUSH1 0x40 MLOAD PUSH2 0x1F1 SWAP5 SWAP4 SWAP3 SWAP2 SWAP1 PUSH2 0x263B JUMP JUMPDEST PUSH1 0x40 MLOAD DUP1 SWAP2 SUB SWAP1 RETURN JUMPDEST PUSH2 0x202 PUSH2 0x75F JUMP JUMPDEST PUSH1 0x40 MLOAD PUSH2 0x20F SWAP2 SWAP1 PUSH2 0x26D9 JUMP JUMPDEST PUSH1 0x40 MLOAD DUP1 SWAP2 SUB SWAP1 RETURN JUMPDEST PUSH2 0x232 PUSH1 0x4 DUP1 CALLDATASIZE SUB DUP2 ADD SWAP1 PUSH2 0x22D SWAP2 SWAP1 PUSH2 0x26F2 JUMP JUMPDEST PUSH2 0x784 JUMP JUMPDEST STOP JUMPDEST PUSH2 0x23C PUSH2 0x7CF JUMP JUMPDEST STOP JUMPDEST PUSH2 0x246 PUSH2 0x7E1 JUMP JUMPDEST PUSH1 0x40 MLOAD PUSH2 0x253 SWAP2 SWAP1 PUSH2 0x271D JUMP JUMPDEST PUSH1 0x40 MLOAD DUP1 SWAP2 SUB SWAP1 RETURN JUMPDEST PUSH2 0x276 PUSH1 0x4 DUP1 CALLDATASIZE SUB DUP2 ADD SWAP1 PUSH2 0x271 SWAP2 SWAP1 PUSH2 0x2736 JUMP JUMPDEST PUSH2 0x7F6 JUMP JUMPDEST STOP JUMPDEST PUSH2 0x280 PUSH2 0xA7A JUMP JUMPDEST PUSH1 0x40 MLOAD PUSH2 0x28D SWAP2 SWAP1 PUSH2 0x2770 JUMP JUMPDEST PUSH1 0x40 MLOAD DUP1 SWAP2 SUB SWAP1 RETURN JUMPDEST PUSH2 0x29E PUSH2 0xA80 JUMP JUMPDEST STOP JUMPDEST PUSH2 0x2BA PUSH1 0x4 DUP1 CALLDATASIZE SUB DUP2 ADD SWAP1 PUSH2 0x2B5 SWAP2 SWAP1 PUSH2 0x2736 JUMP JUMPDEST PUSH2 0xA93 JUMP JUMPDEST STOP JUMPDEST PUSH2 0x2C4 PUSH2 0xB58 JUMP JUMPDEST STOP JUMPDEST PUSH2 0x2CE PUSH2 0xB6A JUMP JUMPDEST PUSH1 0x40 MLOAD PUSH2 0x2DB SWAP2 SWAP1 PUSH2 0x27A9 JUMP JUMPDEST PUSH1 0x40 MLOAD DUP1 SWAP2 SUB SWAP1 RETURN JUMPDEST PUSH2 0x2FE PUSH1 0x4 DUP1 CALLDATASIZE SUB DUP2 ADD SWAP1 PUSH2 0x2F9 SWAP2 SWAP1 PUSH2 0x28FE JUMP JUMPDEST PUSH2 0xB8F JUMP JUMPDEST STOP JUMPDEST PUSH2 0x308 PUSH2 0xDAC JUMP JUMPDEST PUSH1 0x40 MLOAD PUSH2 0x315 SWAP2 SWAP1 PUSH2 0x2954 JUMP JUMPDEST PUSH1 0x40 MLOAD DUP1 SWAP2 SUB SWAP1 RETURN JUMPDEST PUSH2 0x338 PUSH1 0x4 DUP1 CALLDATASIZE SUB DUP2 ADD SWAP1 PUSH2 0x333 SWAP2 SWAP1 PUSH2 0x26F2 JUMP JUMPDEST PUSH2 0xDD3 JUMP JUMPDEST STOP JUMPDEST PUSH2 0x354 PUSH1 0x4 DUP1 CALLDATASIZE SUB DUP2 ADD SWAP1 PUSH2 0x34F SWAP2 SWAP1 PUSH2 0x2736 JUMP JUMPDEST PUSH2 0xE1E JUMP JUMPDEST PUSH1 0x40 MLOAD PUSH2 0x365 SWAP6 SWAP5 SWAP4 SWAP3 SWAP2 SWAP1 PUSH2 0x29CD JUMP JUMPDEST PUSH1 0x40 MLOAD DUP1 SWAP2 SUB SWAP1 RETURN JUMPDEST PUSH2 0x388 PUSH1 0x4 DUP1 CALLDATASIZE SUB DUP2 ADD SWAP1 PUSH2 0x383 SWAP2 SWAP1 PUSH2 0x2736 JUMP JUMPDEST PUSH2 0xF01 JUMP JUMPDEST STOP JUMPDEST PUSH2 0x392 PUSH2 0x117D JUMP JUMPDEST PUSH1 0x40 MLOAD PUSH2 0x39F SWAP2 SWAP1 PUSH2 0x2770 JUMP JUMPDEST PUSH1 0x40 MLOAD DUP1 SWAP2 SUB SWAP1 RETURN JUMPDEST PUSH2 0x3B0 PUSH2 0x1182 JUMP JUMPDEST PUSH1 0x40 MLOAD PUSH2 0x3BD SWAP2 SWAP1 PUSH2 0x2770 JUMP JUMPDEST PUSH1 0x40 MLOAD DUP1 SWAP2 SUB SWAP1 RETURN JUMPDEST PUSH2 0x3E0 PUSH1 0x4 DUP1 CALLDATASIZE SUB DUP2 ADD SWAP1 PUSH2 0x3DB SWAP2 SWAP1 PUSH2 0x2530 JUMP JUMPDEST PUSH2 0x1187 JUMP JUMPDEST PUSH1 0x40 MLOAD PUSH2 0x3F3 SWAP8 SWAP7 SWAP6 SWAP5 SWAP4 SWAP3 SWAP2 SWAP1 PUSH2 0x2A3D JUMP JUMPDEST PUSH1 0x40 MLOAD DUP1 SWAP2 SUB SWAP1 RETURN JUMPDEST PUSH2 0x416 PUSH1 0x4 DUP1 CALLDATASIZE SUB DUP2 ADD SWAP1 PUSH2 0x411 SWAP2 SWAP1 PUSH2 0x2736 JUMP JUMPDEST PUSH2 0x147D JUMP JUMPDEST STOP JUMPDEST PUSH2 0x432 PUSH1 0x4 DUP1 CALLDATASIZE SUB DUP2 ADD SWAP1 PUSH2 0x42D SWAP2 SWAP1 PUSH2 0x2ACD JUMP JUMPDEST PUSH2 0x16DE JUMP JUMPDEST STOP JUMPDEST PUSH2 0x43C PUSH2 0x1CB9 JUMP JUMPDEST PUSH1 0x40 MLOAD PUSH2 0x449 SWAP2 SWAP1 PUSH2 0x2770 JUMP JUMPDEST PUSH1 0x40 MLOAD DUP1 SWAP2 SUB SWAP1 RETURN JUMPDEST PUSH2 0x46C PUSH1 0x4 DUP1 CALLDATASIZE SUB DUP2 ADD SWAP1 PUSH2 0x467 SWAP2 SWAP1 PUSH2 0x2B27 JUMP JUMPDEST PUSH2 0x1CC5 JUMP JUMPDEST STOP JUMPDEST PUSH2 0x488 PUSH1 0x4 DUP1 CALLDATASIZE SUB DUP2 ADD SWAP1 PUSH2 0x483 SWAP2 SWAP1 PUSH2 0x2736 JUMP JUMPDEST PUSH2 0x20CA JUMP JUMPDEST STOP JUMPDEST PUSH2 0x4A4 PUSH1 0x4 DUP1 CALLDATASIZE SUB DUP2 ADD SWAP1 PUSH2 0x49F SWAP2 SWAP1 PUSH2 0x26F2 JUMP JUMPDEST PUSH2 0x21B7 JUMP JUMPDEST STOP JUMPDEST PUSH2 0x4AE PUSH2 0x223B JUMP JUMPDEST PUSH1 0x40 MLOAD PUSH2 0x4BB SWAP2 SWAP1 PUSH2 0x2770 JUMP JUMPDEST PUSH1 0x40 MLOAD DUP1 SWAP2 SUB SWAP1 RETURN JUMPDEST PUSH0 PUSH1 0x3 PUSH0 DUP5 DUP2 MSTORE PUSH1 0x20 ADD SWAP1 DUP2 MSTORE PUSH1 0x20 ADD PUSH0 KECCAK256 SWAP1 POP DUP1 PUSH0 ADD PUSH0 SWAP1 SLOAD SWAP1 PUSH2 0x100 EXP SWAP1 DIV PUSH20 0xFFFFFFFFFFFFFFFFFFFFFFFFFFFFFFFFFFFFFFFF AND PUSH20 0xFFFFFFFFFFFFFFFFFFFFFFFFFFFFFFFFFFFFFFFF AND CALLER PUSH20 0xFFFFFFFFFFFFFFFFFFFFFFFFFFFFFFFFFFFFFFFF AND EQ PUSH2 0x568 JUMPI PUSH1 0x40 MLOAD PUSH32 0x8C379A000000000000000000000000000000000000000000000000000000000 DUP2 MSTORE PUSH1 0x4 ADD PUSH2 0x55F SWAP1 PUSH2 0x2CDC JUMP JUMPDEST PUSH1 0x40 MLOAD DUP1 SWAP2 SUB SWAP1 REVERT JUMPDEST DUP2 DUP2 PUSH1 0x4 ADD SLOAD LT ISZERO PUSH2 0x5AF JUMPI PUSH1 0x40 MLOAD PUSH32 0x8C379A000000000000000000000000000000000000000000000000000000000 DUP2 MSTORE PUSH1 0x4 ADD PUSH2 0x5A6 SWAP1 PUSH2 0x2D6A JUMP JUMPDEST PUSH1 0x40 MLOAD DUP1 SWAP2 SUB SWAP1 REVERT JUMPDEST DUP2 DUP2 PUSH1 0x4 ADD PUSH0 DUP3 DUP3 SLOAD PUSH2 0x5C2 SWAP2 SWAP1 PUSH2 0x2DB5 JUMP JUMPDEST SWAP3 POP POP DUP2 SWAP1 SSTORE POP PUSH1 0x2 PUSH0 SWAP1 SLOAD SWAP1 PUSH2 0x100 EXP SWAP1 DIV PUSH20 0xFFFFFFFFFFFFFFFFFFFFFFFFFFFFFFFFFFFFFFFF AND PUSH20 0xFFFFFFFFFFFFFFFFFFFFFFFFFFFFFFFFFFFFFFFF AND PUSH4 0xA9059CBB CALLER DUP5 PUSH1 0x40 MLOAD DUP4 PUSH4 0xFFFFFFFF AND PUSH1 0xE0 SHL DUP2 MSTORE PUSH1 0x4 ADD PUSH2 0x625 SWAP3 SWAP2 SWAP1 PUSH2 0x2DE8 JUMP JUMPDEST PUSH1 0x20 PUSH1 0x40 MLOAD DUP1 DUP4 SUB DUP2 PUSH0 DUP8 GAS CALL ISZERO DUP1 ISZERO PUSH2 0x641 JUMPI RETURNDATASIZE PUSH0 DUP1 RETURNDATACOPY RETURNDATASIZE PUSH0 REVERT JUMPDEST POP POP POP POP PUSH1 0x40 MLOAD RETURNDATASIZE PUSH1 0x1F NOT PUSH1 0x1F DUP3 ADD AND DUP3 ADD DUP1 PUSH1 0x40 MSTORE POP DUP2 ADD SWAP1 PUSH2 0x665 SWAP2 SWAP1 PUSH2 0x2E39 JUMP JUMPDEST PUSH2 0x6A4 JUMPI PUSH1 0x40 MLOAD PUSH32 0x8C379A000000000000000000000000000000000000000000000000000000000 DUP2 MSTORE PUSH1 0x4 ADD PUSH2 0x69B SWAP1 PUSH2 0x2EAE JUMP JUMPDEST PUSH1 0x40 MLOAD DUP1 SWAP2 SUB SWAP1 REVERT JUMPDEST CALLER PUSH20 0xFFFFFFFFFFFFFFFFFFFFFFFFFFFFFFFFFFFFFFFF AND DUP4 PUSH32 0xAC49FACEAC63EAFDEA924340376E875517FD2E5B7E9B63C9BBBC464E166233F6 DUP5 PUSH1 0x40 MLOAD PUSH2 0x6EB SWAP2 SWAP1 PUSH2 0x2770 JUMP JUMPDEST PUSH1 0x40 MLOAD DUP1 SWAP2 SUB SWAP1 LOG3 POP POP POP JUMP JUMPDEST PUSH1 0x4 PUSH1 0x20 MSTORE DUP2 PUSH0 MSTORE PUSH1 0x40 PUSH0 KECCAK256 PUSH1 0x20 MSTORE DUP1 PUSH0 MSTORE PUSH1 0x40 PUSH0 KECCAK256 PUSH0 SWAP2 POP SWAP2 POP POP DUP1 PUSH0 ADD PUSH0 SWAP1 SLOAD SWAP1 PUSH2 0x100 EXP SWAP1 DIV PUSH1 0xFF AND SWAP1 DUP1 PUSH0 ADD PUSH1 0x1 SWAP1 SLOAD SWAP1 PUSH2 0x100 EXP SWAP1 DIV PUSH1 0xFF AND SWAP1 DUP1 PUSH0 ADD PUSH1 0x2 SWAP1 SLOAD SWAP1 PUSH2 0x100 EXP SWAP1 DIV PUSH1 0xFF AND SWAP1 DUP1 PUSH0 ADD PUSH1 0x3 SWAP1 SLOAD SWAP1 PUSH2 0x100 EXP SWAP1 DIV PUSH1 0xFF AND SWAP1 POP DUP5 JUMP JUMPDEST PUSH1 0x2 PUSH0 SWAP1 SLOAD SWAP1 PUSH2 0x100 EXP SWAP1 DIV PUSH20 0xFFFFFFFFFFFFFFFFFFFFFFFFFFFFFFFFFFFFFFFF AND DUP2 JUMP JUMPDEST PUSH2 0x78C PUSH2 0x2247 JUMP JUMPDEST DUP1 PUSH1 0x2 PUSH0 PUSH2 0x100 EXP DUP2 SLOAD DUP2 PUSH20 0xFFFFFFFFFFFFFFFFFFFFFFFFFFFFFFFFFFFFFFFF MUL NOT AND SWAP1 DUP4 PUSH20 0xFFFFFFFFFFFFFFFFFFFFFFFFFFFFFFFFFFFFFFFF AND MUL OR SWAP1 SSTORE POP POP JUMP JUMPDEST PUSH2 0x7D7 PUSH2 0x2247 JUMP JUMPDEST PUSH2 0x7DF PUSH2 0x22CE JUMP JUMPDEST JUMP JUMPDEST PUSH0 DUP1 PUSH1 0x14 SWAP1 SLOAD SWAP1 PUSH2 0x100 EXP SWAP1 DIV PUSH1 0xFF AND SWAP1 POP SWAP1 JUMP JUMPDEST PUSH1 0xA PUSH1 0x1 PUSH0 SWAP1 SLOAD SWAP1 PUSH2 0x100 EXP SWAP1 DIV PUSH20 0xFFFFFFFFFFFFFFFFFFFFFFFFFFFFFFFFFFFFFFFF AND PUSH20 0xFFFFFFFFFFFFFFFFFFFFFFFFFFFFFFFFFFFFFFFF AND PUSH4 0xB9F79451 CALLER PUSH1 0x40 MLOAD DUP3 PUSH4 0xFFFFFFFF AND PUSH1 0xE0 SHL DUP2 MSTORE PUSH1 0x4 ADD PUSH2 0x852 SWAP2 SWAP1 PUSH2 0x2954 JUMP JUMPDEST PUSH1 0x20 PUSH1 0x40 MLOAD DUP1 DUP4 SUB DUP2 DUP7 GAS STATICCALL ISZERO DUP1 ISZERO PUSH2 0x86D JUMPI RETURNDATASIZE PUSH0 DUP1 RETURNDATACOPY RETURNDATASIZE PUSH0 REVERT JUMPDEST POP POP POP POP PUSH1 0x40 MLOAD RETURNDATASIZE PUSH1 0x1F NOT PUSH1 0x1F DUP3 ADD AND DUP3 ADD DUP1 PUSH1 0x40 MSTORE POP DUP2 ADD SWAP1 PUSH2 0x891 SWAP2 SWAP1 PUSH2 0x2EE0 JUMP JUMPDEST LT ISZERO PUSH2 0x8D2 JUMPI PUSH1 0x40 MLOAD PUSH32 0x8C379A000000000000000000000000000000000000000000000000000000000 DUP2 MSTORE PUSH1 0x4 ADD PUSH2 0x8C9 SWAP1 PUSH2 0x2F7B JUMP JUMPDEST PUSH1 0x40 MLOAD DUP1 SWAP2 SUB SWAP1 REVERT JUMPDEST PUSH1 0x3 PUSH0 DUP3 DUP2 MSTORE PUSH1 0x20 ADD SWAP1 DUP2 MSTORE PUSH1 0x20 ADD PUSH0 KECCAK256 PUSH1 0x2 ADD PUSH0 SWAP1 SLOAD SWAP1 PUSH2 0x100 EXP SWAP1 DIV PUSH1 0xFF AND PUSH2 0x932 JUMPI PUSH1 0x40 MLOAD PUSH32 0x8C379A000000000000000000000000000000000000000000000000000000000 DUP2 MSTORE PUSH1 0x4 ADD PUSH2 0x929 SWAP1 PUSH2 0x2FE3 JUMP JUMPDEST PUSH1 0x40 MLOAD DUP1 SWAP2 SUB SWAP1 REVERT JUMPDEST PUSH1 0x4 PUSH0 CALLER PUSH20 0xFFFFFFFFFFFFFFFFFFFFFFFFFFFFFFFFFFFFFFFF AND PUSH20 0xFFFFFFFFFFFFFFFFFFFFFFFFFFFFFFFFFFFFFFFF AND DUP2 MSTORE PUSH1 0x20 ADD SWAP1 DUP2 MSTORE PUSH1 0x20 ADD PUSH0 KECCAK256 PUSH0 DUP3 DUP2 MSTORE PUSH1 0x20 ADD SWAP1 DUP2 MSTORE PUSH1 0x20 ADD PUSH0 KECCAK256 PUSH0 ADD PUSH0 SWAP1 SLOAD SWAP1 PUSH2 0x100 EXP SWAP1 DIV PUSH1 0xFF AND ISZERO PUSH2 0x9CD JUMPI PUSH1 0x40 MLOAD PUSH32 0x8C379A000000000000000000000000000000000000000000000000000000000 DUP2 MSTORE PUSH1 0x4 ADD PUSH2 0x9C4 SWAP1 PUSH2 0x304B JUMP JUMPDEST PUSH1 0x40 MLOAD DUP1 SWAP2 SUB SWAP1 REVERT JUMPDEST PUSH1 0x1 PUSH1 0x4 PUSH0 CALLER PUSH20 0xFFFFFFFFFFFFFFFFFFFFFFFFFFFFFFFFFFFFFFFF AND PUSH20 0xFFFFFFFFFFFFFFFFFFFFFFFFFFFFFFFFFFFFFFFF AND DUP2 MSTORE PUSH1 0x20 ADD SWAP1 DUP2 MSTORE PUSH1 0x20 ADD PUSH0 KECCAK256 PUSH0 DUP4 DUP2 MSTORE PUSH1 0x20 ADD SWAP1 DUP2 MSTORE PUSH1 0x20 ADD PUSH0 KECCAK256 PUSH0 ADD PUSH0 PUSH2 0x100 EXP DUP2 SLOAD DUP2 PUSH1 0xFF MUL NOT AND SWAP1 DUP4 ISZERO ISZERO MUL OR SWAP1 SSTORE POP CALLER PUSH20 0xFFFFFFFFFFFFFFFFFFFFFFFFFFFFFFFFFFFFFFFF AND DUP2 PUSH32 0xFACF1A2842ACBAD124CBCA0A047FE37BC246C68F814E0350C7BD8A022FD1DDDB PUSH1 0x40 MLOAD PUSH1 0x40 MLOAD DUP1 SWAP2 SUB SWAP1 LOG3 POP JUMP JUMPDEST PUSH1 0x6 SLOAD DUP2 JUMP JUMPDEST PUSH2 0xA88 PUSH2 0x2247 JUMP JUMPDEST PUSH2 0xA91 PUSH0 PUSH2 0x232F JUMP JUMPDEST JUMP JUMPDEST PUSH2 0xA9B PUSH2 0x2247 JUMP JUMPDEST PUSH1 0x3 PUSH0 DUP3 DUP2 MSTORE PUSH1 0x20 ADD SWAP1 DUP2 MSTORE PUSH1 0x20 ADD PUSH0 KECCAK256 PUSH1 0x2 ADD PUSH0 SWAP1 SLOAD SWAP1 PUSH2 0x100 EXP SWAP1 DIV PUSH1 0xFF AND ISZERO PUSH2 0xAFC JUMPI PUSH1 0x40 MLOAD PUSH32 0x8C379A000000000000000000000000000000000000000000000000000000000 DUP2 MSTORE PUSH1 0x4 ADD PUSH2 0xAF3 SWAP1 PUSH2 0x30B3 JUMP JUMPDEST PUSH1 0x40 MLOAD DUP1 SWAP2 SUB SWAP1 REVERT JUMPDEST PUSH1 0x1 PUSH1 0x3 PUSH0 DUP4 DUP2 MSTORE PUSH1 0x20 ADD SWAP1 DUP2 MSTORE PUSH1 0x20 ADD PUSH0 KECCAK256 PUSH1 0x2 ADD PUSH0 PUSH2 0x100 EXP DUP2 SLOAD DUP2 PUSH1 0xFF MUL NOT AND SWAP1 DUP4 ISZERO ISZERO MUL OR SWAP1 SSTORE POP DUP1 PUSH32 0x87C1C0E5CD17BEB8C61A3337B32C66021CB179DD6F97D6D9CE923A029092BD45 PUSH1 0x40 MLOAD PUSH1 0x40 MLOAD DUP1 SWAP2 SUB SWAP1 LOG2 POP JUMP JUMPDEST PUSH2 0xB60 PUSH2 0x2247 JUMP JUMPDEST PUSH2 0xB68 PUSH2 0x23F0 JUMP JUMPDEST JUMP JUMPDEST PUSH1 0x1 PUSH0 SWAP1 SLOAD SWAP1 PUSH2 0x100 EXP SWAP1 DIV PUSH20 0xFFFFFFFFFFFFFFFFFFFFFFFFFFFFFFFFFFFFFFFF AND DUP2 JUMP JUMPDEST PUSH1 0x32 PUSH1 0x1 PUSH0 SWAP1 SLOAD SWAP1 PUSH2 0x100 EXP SWAP1 DIV PUSH20 0xFFFFFFFFFFFFFFFFFFFFFFFFFFFFFFFFFFFFFFFF AND PUSH20 0xFFFFFFFFFFFFFFFFFFFFFFFFFFFFFFFFFFFFFFFF AND PUSH4 0xB9F79451 CALLER PUSH1 0x40 MLOAD DUP3 PUSH4 0xFFFFFFFF AND PUSH1 0xE0 SHL DUP2 MSTORE PUSH1 0x4 ADD PUSH2 0xBEB SWAP2 SWAP1 PUSH2 0x2954 JUMP JUMPDEST PUSH1 0x20 PUSH1 0x40 MLOAD DUP1 DUP4 SUB DUP2 DUP7 GAS STATICCALL ISZERO DUP1 ISZERO PUSH2 0xC06 JUMPI RETURNDATASIZE PUSH0 DUP1 RETURNDATACOPY RETURNDATASIZE PUSH0 REVERT JUMPDEST POP POP POP POP PUSH1 0x40 MLOAD RETURNDATASIZE PUSH1 0x1F NOT PUSH1 0x1F DUP3 ADD AND DUP3 ADD DUP1 PUSH1 0x40 MSTORE POP DUP2 ADD SWAP1 PUSH2 0xC2A SWAP2 SWAP1 PUSH2 0x2EE0 JUMP JUMPDEST LT ISZERO PUSH2 0xC6B JUMPI PUSH1 0x40 MLOAD PUSH32 0x8C379A000000000000000000000000000000000000000000000000000000000 DUP2 MSTORE PUSH1 0x4 ADD PUSH2 0xC62 SWAP1 PUSH2 0x3141 JUMP JUMPDEST PUSH1 0x40 MLOAD DUP1 SWAP2 SUB SWAP1 REVERT JUMPDEST PUSH0 PUSH1 0x6 PUSH0 DUP2 SLOAD DUP1 SWAP3 SWAP2 SWAP1 PUSH2 0xC7E SWAP1 PUSH2 0x315F JUMP JUMPDEST SWAP2 SWAP1 POP SSTORE SWAP1 POP PUSH1 0x40 MLOAD DUP1 PUSH1 0xA0 ADD PUSH1 0x40 MSTORE DUP1 CALLER PUSH20 0xFFFFFFFFFFFFFFFFFFFFFFFFFFFFFFFFFFFFFFFF AND DUP2 MSTORE PUSH1 0x20 ADD DUP4 DUP2 MSTORE PUSH1 0x20 ADD PUSH0 ISZERO ISZERO DUP2 MSTORE PUSH1 0x20 ADD PUSH0 DUP2 MSTORE PUSH1 0x20 ADD PUSH0 DUP2 MSTORE POP PUSH1 0x3 PUSH0 DUP4 DUP2 MSTORE PUSH1 0x20 ADD SWAP1 DUP2 MSTORE PUSH1 0x20 ADD PUSH0 KECCAK256 PUSH0 DUP3 ADD MLOAD DUP2 PUSH0 ADD PUSH0 PUSH2 0x100 EXP DUP2 SLOAD DUP2 PUSH20 0xFFFFFFFFFFFFFFFFFFFFFFFFFFFFFFFFFFFFFFFF MUL NOT AND SWAP1 DUP4 PUSH20 0xFFFFFFFFFFFFFFFFFFFFFFFFFFFFFFFFFFFFFFFF AND MUL OR SWAP1 SSTORE POP PUSH1 0x20 DUP3 ADD MLOAD DUP2 PUSH1 0x1 ADD SWAP1 DUP2 PUSH2 0xD2D SWAP2 SWAP1 PUSH2 0x3397 JUMP JUMPDEST POP PUSH1 0x40 DUP3 ADD MLOAD DUP2 PUSH1 0x2 ADD PUSH0 PUSH2 0x100 EXP DUP2 SLOAD DUP2 PUSH1 0xFF MUL NOT AND SWAP1 DUP4 ISZERO ISZERO MUL OR SWAP1 SSTORE POP PUSH1 0x60 DUP3 ADD MLOAD DUP2 PUSH1 0x3 ADD SSTORE PUSH1 0x80 DUP3 ADD MLOAD DUP2 PUSH1 0x4 ADD SSTORE SWAP1 POP POP CALLER PUSH20 0xFFFFFFFFFFFFFFFFFFFFFFFFFFFFFFFFFFFFFFFF AND DUP2 PUSH32 0xA68F79AA37F9CDC81C2757CFB3E11E9D7D89CA0A5410FBCF1B61125BC17FB1B7 PUSH1 0x40 MLOAD PUSH1 0x40 MLOAD DUP1 SWAP2 SUB SWAP1 LOG3 POP POP JUMP JUMPDEST PUSH0 DUP1 PUSH0 SWAP1 SLOAD SWAP1 PUSH2 0x100 EXP SWAP1 DIV PUSH20 0xFFFFFFFFFFFFFFFFFFFFFFFFFFFFFFFFFFFFFFFF AND SWAP1 POP SWAP1 JUMP JUMPDEST PUSH2 0xDDB PUSH2 0x2247 JUMP JUMPDEST DUP1 PUSH1 0x1 PUSH0 PUSH2 0x100 EXP DUP2 SLOAD DUP2 PUSH20 0xFFFFFFFFFFFFFFFFFFFFFFFFFFFFFFFFFFFFFFFF MUL NOT AND SWAP1 DUP4 PUSH20 0xFFFFFFFFFFFFFFFFFFFFFFFFFFFFFFFFFFFFFFFF AND MUL OR SWAP1 SSTORE POP POP JUMP JUMPDEST PUSH1 0x3 PUSH1 0x20 MSTORE DUP1 PUSH0 MSTORE PUSH1 0x40 PUSH0 KECCAK256 PUSH0 SWAP2 POP SWAP1 POP DUP1 PUSH0 ADD PUSH0 SWAP1 SLOAD SWAP1 PUSH2 0x100 EXP SWAP1 DIV PUSH20 0xFFFFFFFFFFFFFFFFFFFFFFFFFFFFFFFFFFFFFFFF AND SWAP1 DUP1 PUSH1 0x1 ADD DUP1 SLOAD PUSH2 0xE62 SWAP1 PUSH2 0x31D3 JUMP JUMPDEST DUP1 PUSH1 0x1F ADD PUSH1 0x20 DUP1 SWAP2 DIV MUL PUSH1 0x20 ADD PUSH1 0x40 MLOAD SWAP1 DUP2 ADD PUSH1 0x40 MSTORE DUP1 SWAP3 SWAP2 SWAP1 DUP2 DUP2 MSTORE PUSH1 0x20 ADD DUP3 DUP1 SLOAD PUSH2 0xE8E SWAP1 PUSH2 0x31D3 JUMP JUMPDEST DUP1 ISZERO PUSH2 0xED9 JUMPI DUP1 PUSH1 0x1F LT PUSH2 0xEB0 JUMPI PUSH2 0x100 DUP1 DUP4 SLOAD DIV MUL DUP4 MSTORE SWAP2 PUSH1 0x20 ADD SWAP2 PUSH2 0xED9 JUMP JUMPDEST DUP3 ADD SWAP2 SWAP1 PUSH0 MSTORE PUSH1 0x20 PUSH0 KECCAK256 SWAP1 JUMPDEST DUP2 SLOAD DUP2 MSTORE SWAP1 PUSH1 0x1 ADD SWAP1 PUSH1 0x20 ADD DUP1 DUP4 GT PUSH2 0xEBC JUMPI DUP3 SWAP1 SUB PUSH1 0x1F AND DUP3 ADD SWAP2 JUMPDEST POP POP POP POP POP SWAP1 DUP1 PUSH1 0x2 ADD PUSH0 SWAP1 SLOAD SWAP1 PUSH2 0x100 EXP SWAP1 DIV PUSH1 0xFF AND SWAP1 DUP1 PUSH1 0x3 ADD SLOAD SWAP1 DUP1 PUSH1 0x4 ADD SLOAD SWAP1 POP DUP6 JUMP JUMPDEST PUSH0 PUSH1 0x4 PUSH0 CALLER PUSH20 0xFFFFFFFFFFFFFFFFFFFFFFFFFFFFFFFFFFFFFFFF AND PUSH20 0xFFFFFFFFFFFFFFFFFFFFFFFFFFFFFFFFFFFFFFFF AND DUP2 MSTORE PUSH1 0x20 ADD SWAP1 DUP2 MSTORE PUSH1 0x20 ADD PUSH0 KECCAK256 PUSH0 DUP4 DUP2 MSTORE PUSH1 0x20 ADD SWAP1 DUP2 MSTORE PUSH1 0x20 ADD PUSH0 KECCAK256 SWAP1 POP DUP1 PUSH0 ADD PUSH1 0x2 SWAP1 SLOAD SWAP1 PUSH2 0x100 EXP SWAP1 DIV PUSH1 0xFF AND PUSH2 0xFA0 JUMPI PUSH1 0x40 MLOAD PUSH32 0x8C379A000000000000000000000000000000000000000000000000000000000 DUP2 MSTORE PUSH1 0x4 ADD PUSH2 0xF97 SWAP1 PUSH2 0x34B0 JUMP JUMPDEST PUSH1 0x40 MLOAD DUP1 SWAP2 SUB SWAP1 REVERT JUMPDEST DUP1 PUSH0 ADD PUSH1 0x3 SWAP1 SLOAD SWAP1 PUSH2 0x100 EXP SWAP1 DIV PUSH1 0xFF AND ISZERO PUSH2 0xFF1 JUMPI PUSH1 0x40 MLOAD PUSH32 0x8C379A000000000000000000000000000000000000000000000000000000000 DUP2 MSTORE PUSH1 0x4 ADD PUSH2 0xFE8 SWAP1 PUSH2 0x3518 JUMP JUMPDEST PUSH1 0x40 MLOAD DUP1 SWAP2 SUB SWAP1 REVERT JUMPDEST PUSH1 0x1 DUP2 PUSH0 ADD PUSH1 0x3 PUSH2 0x100 EXP DUP2 SLOAD DUP2 PUSH1 0xFF MUL NOT AND SWAP1 DUP4 ISZERO ISZERO MUL OR SWAP1 SSTORE POP PUSH1 0x2 PUSH0 SWAP1 SLOAD SWAP1 PUSH2 0x100 EXP SWAP1 DIV PUSH20 0xFFFFFFFFFFFFFFFFFFFFFFFFFFFFFFFFFFFFFFFF AND PUSH20 0xFFFFFFFFFFFFFFFFFFFFFFFFFFFFFFFFFFFFFFFF AND PUSH4 0xA9059CBB CALLER PUSH8 0x8AC7230489E80000 PUSH1 0x40 MLOAD DUP4 PUSH4 0xFFFFFFFF AND PUSH1 0xE0 SHL DUP2 MSTORE PUSH1 0x4 ADD PUSH2 0x1071 SWAP3 SWAP2 SWAP1 PUSH2 0x2DE8 JUMP JUMPDEST PUSH1 0x20 PUSH1 0x40 MLOAD DUP1 DUP4 SUB DUP2 PUSH0 DUP8 GAS CALL ISZERO DUP1 ISZERO PUSH2 0x108D JUMPI RETURNDATASIZE PUSH0 DUP1 RETURNDATACOPY RETURNDATASIZE PUSH0 REVERT JUMPDEST POP POP POP POP PUSH1 0x40 MLOAD RETURNDATASIZE PUSH1 0x1F NOT PUSH1 0x1F DUP3 ADD AND DUP3 ADD DUP1 PUSH1 0x40 MSTORE POP DUP2 ADD SWAP1 PUSH2 0x10B1 SWAP2 SWAP1 PUSH2 0x2E39 JUMP JUMPDEST PUSH2 0x10F0 JUMPI PUSH1 0x40 MLOAD PUSH32 0x8C379A000000000000000000000000000000000000000000000000000000000 DUP2 MSTORE PUSH1 0x4 ADD PUSH2 0x10E7 SWAP1 PUSH2 0x2EAE JUMP JUMPDEST PUSH1 0x40 MLOAD DUP1 SWAP2 SUB SWAP1 REVERT JUMPDEST PUSH8 0x8AC7230489E80000 PUSH1 0x3 PUSH0 DUP5 DUP2 MSTORE PUSH1 0x20 ADD SWAP1 DUP2 MSTORE PUSH1 0x20 ADD PUSH0 KECCAK256 PUSH1 0x4 ADD PUSH0 DUP3 DUP3 SLOAD PUSH2 0x111B SWAP2 SWAP1 PUSH2 0x3536 JUMP JUMPDEST SWAP3 POP POP DUP2 SWAP1 SSTORE POP CALLER PUSH20 0xFFFFFFFFFFFFFFFFFFFFFFFFFFFFFFFFFFFFFFFF AND DUP3 PUSH32 0x24B5EFA61DD1CFC659205A97FB8ED868F3CB8C81922BAB2B96423E5DE1DE2CB7 PUSH8 0x8AC7230489E80000 PUSH1 0x40 MLOAD PUSH2 0x1171 SWAP2 SWAP1 PUSH2 0x2770 JUMP JUMPDEST PUSH1 0x40 MLOAD DUP1 SWAP2 SUB SWAP1 LOG3 POP POP JUMP JUMPDEST PUSH1 0x32 DUP2 JUMP JUMPDEST PUSH1 0xA DUP2 JUMP JUMPDEST PUSH1 0x5 PUSH1 0x20 MSTORE DUP2 PUSH0 MSTORE PUSH1 0x40 PUSH0 KECCAK256 DUP2 DUP2 SLOAD DUP2 LT PUSH2 0x11A0 JUMPI PUSH0 DUP1 REVERT JUMPDEST SWAP1 PUSH0 MSTORE PUSH1 0x20 PUSH0 KECCAK256 SWAP1 PUSH1 0x7 MUL ADD PUSH0 SWAP2 POP SWAP2 POP POP DUP1 PUSH0 ADD SLOAD SWAP1 DUP1 PUSH1 0x1 ADD DUP1 SLOAD PUSH2 0x11C6 SWAP1 PUSH2 0x31D3 JUMP JUMPDEST DUP1 PUSH1 0x1F ADD PUSH1 0x20 DUP1 SWAP2 DIV MUL PUSH1 0x20 ADD PUSH1 0x40 MLOAD SWAP1 DUP2 ADD PUSH1 0x40 MSTORE DUP1 SWAP3 SWAP2 SWAP1 DUP2 DUP2 MSTORE PUSH1 0x20 ADD DUP3 DUP1 SLOAD PUSH2 0x11F2 SWAP1 PUSH2 0x31D3 JUMP JUMPDEST DUP1 ISZERO PUSH2 0x123D JUMPI DUP1 PUSH1 0x1F LT PUSH2 0x1214 JUMPI PUSH2 0x100 DUP1 DUP4 SLOAD DIV MUL DUP4 MSTORE SWAP2 PUSH1 0x20 ADD SWAP2 PUSH2 0x123D JUMP JUMPDEST DUP3 ADD SWAP2 SWAP1 PUSH0 MSTORE PUSH1 0x20 PUSH0 KECCAK256 SWAP1 JUMPDEST DUP2 SLOAD DUP2 MSTORE SWAP1 PUSH1 0x1 ADD SWAP1 PUSH1 0x20 ADD DUP1 DUP4 GT PUSH2 0x1220 JUMPI DUP3 SWAP1 SUB PUSH1 0x1F AND DUP3 ADD SWAP2 JUMPDEST POP POP POP POP POP SWAP1 DUP1 PUSH1 0x2 ADD DUP1 SLOAD PUSH2 0x1252 SWAP1 PUSH2 0x31D3 JUMP JUMPDEST DUP1 PUSH1 0x1F ADD PUSH1 0x20 DUP1 SWAP2 DIV MUL PUSH1 0x20 ADD PUSH1 0x40 MLOAD SWAP1 DUP2 ADD PUSH1 0x40 MSTORE DUP1 SWAP3 SWAP2 SWAP1 DUP2 DUP2 MSTORE PUSH1 0x20 ADD DUP3 DUP1 SLOAD PUSH2 0x127E SWAP1 PUSH2 0x31D3 JUMP JUMPDEST DUP1 ISZERO PUSH2 0x12C9 JUMPI DUP1 PUSH1 0x1F LT PUSH2 0x12A0 JUMPI PUSH2 0x100 DUP1 DUP4 SLOAD DIV MUL DUP4 MSTORE SWAP2 PUSH1 0x20 ADD SWAP2 PUSH2 0x12C9 JUMP JUMPDEST DUP3 ADD SWAP2 SWAP1 PUSH0 MSTORE PUSH1 0x20 PUSH0 KECCAK256 SWAP1 JUMPDEST DUP2 SLOAD DUP2 MSTORE SWAP1 PUSH1 0x1 ADD SWAP1 PUSH1 0x20 ADD DUP1 DUP4 GT PUSH2 0x12AC JUMPI DUP3 SWAP1 SUB PUSH1 0x1F AND DUP3 ADD SWAP2 JUMPDEST POP POP POP POP POP SWAP1 DUP1 PUSH1 0x3 ADD DUP1 SLOAD PUSH2 0x12DE SWAP1 PUSH2 0x31D3 JUMP JUMPDEST DUP1 PUSH1 0x1F ADD PUSH1 0x20 DUP1 SWAP2 DIV MUL PUSH1 0x20 ADD PUSH1 0x40 MLOAD SWAP1 DUP2 ADD PUSH1 0x40 MSTORE DUP1 SWAP3 SWAP2 SWAP1 DUP2 DUP2 MSTORE PUSH1 0x20 ADD DUP3 DUP1 SLOAD PUSH2 0x130A SWAP1 PUSH2 0x31D3 JUMP JUMPDEST DUP1 ISZERO PUSH2 0x1355 JUMPI DUP1 PUSH1 0x1F LT PUSH2 0x132C JUMPI PUSH2 0x100 DUP1 DUP4 SLOAD DIV MUL DUP4 MSTORE SWAP2 PUSH1 0x20 ADD SWAP2 PUSH2 0x1355 JUMP JUMPDEST DUP3 ADD SWAP2 SWAP1 PUSH0 MSTORE PUSH1 0x20 PUSH0 KECCAK256 SWAP1 JUMPDEST DUP2 SLOAD DUP2 MSTORE SWAP1 PUSH1 0x1 ADD SWAP1 PUSH1 0x20 ADD DUP1 DUP4 GT PUSH2 0x1338 JUMPI DUP3 SWAP1 SUB PUSH1 0x1F AND DUP3 ADD SWAP2 JUMPDEST POP POP POP POP POP SWAP1 DUP1 PUSH1 0x4 ADD DUP1 SLOAD PUSH2 0x136A SWAP1 PUSH2 0x31D3 JUMP JUMPDEST DUP1 PUSH1 0x1F ADD PUSH1 0x20 DUP1 SWAP2 DIV MUL PUSH1 0x20 ADD PUSH1 0x40 MLOAD SWAP1 DUP2 ADD PUSH1 0x40 MSTORE DUP1 SWAP3 SWAP2 SWAP1 DUP2 DUP2 MSTORE PUSH1 0x20 ADD DUP3 DUP1 SLOAD PUSH2 0x1396 SWAP1 PUSH2 0x31D3 JUMP JUMPDEST DUP1 ISZERO PUSH2 0x13E1 JUMPI DUP1 PUSH1 0x1F LT PUSH2 0x13B8 JUMPI PUSH2 0x100 DUP1 DUP4 SLOAD DIV MUL DUP4 MSTORE SWAP2 PUSH1 0x20 ADD SWAP2 PUSH2 0x13E1 JUMP JUMPDEST DUP3 ADD SWAP2 SWAP1 PUSH0 MSTORE PUSH1 0x20 PUSH0 KECCAK256 SWAP1 JUMPDEST DUP2 SLOAD DUP2 MSTORE SWAP1 PUSH1 0x1 ADD SWAP1 PUSH1 0x20 ADD DUP1 DUP4 GT PUSH2 0x13C4 JUMPI DUP3 SWAP1 SUB PUSH1 0x1F AND DUP3 ADD SWAP2 JUMPDEST POP POP POP POP POP SWAP1 DUP1 PUSH1 0x5 ADD DUP1 SLOAD PUSH2 0x13F6 SWAP1 PUSH2 0x31D3 JUMP JUMPDEST DUP1 PUSH1 0x1F ADD PUSH1 0x20 DUP1 SWAP2 DIV MUL PUSH1 0x20 ADD PUSH1 0x40 MLOAD SWAP1 DUP2 ADD PUSH1 0x40 MSTORE DUP1 SWAP3 SWAP2 SWAP1 DUP2 DUP2 MSTORE PUSH1 0x20 ADD DUP3 DUP1 SLOAD PUSH2 0x1422 SWAP1 PUSH2 0x31D3 JUMP JUMPDEST DUP1 ISZERO PUSH2 0x146D JUMPI DUP1 PUSH1 0x1F LT PUSH2 0x1444 JUMPI PUSH2 0x100 DUP1 DUP4 SLOAD DIV MUL DUP4 MSTORE SWAP2 PUSH1 0x20 ADD SWAP2 PUSH2 0x146D JUMP JUMPDEST DUP3 ADD SWAP2 SWAP1 PUSH0 MSTORE PUSH1 0x20 PUSH0 KECCAK256 SWAP1 JUMPDEST DUP2 SLOAD DUP2 MSTORE SWAP1 PUSH1 0x1 ADD SWAP1 PUSH1 0x20 ADD DUP1 DUP4 GT PUSH2 0x1450 JUMPI DUP3 SWAP1 SUB PUSH1 0x1F AND DUP3 ADD SWAP2 JUMPDEST POP POP POP POP POP SWAP1 DUP1 PUSH1 0x6 ADD SLOAD SWAP1 POP DUP8 JUMP JUMPDEST PUSH0 PUSH1 0x3 PUSH0 DUP4 DUP2 MSTORE PUSH1 0x20 ADD SWAP1 DUP2 MSTORE PUSH1 0x20 ADD PUSH0 KECCAK256 SWAP1 POP DUP1 PUSH0 ADD PUSH0 SWAP1 SLOAD SWAP1 PUSH2 0x100 EXP SWAP1 DIV PUSH20 0xFFFFFFFFFFFFFFFFFFFFFFFFFFFFFFFFFFFFFFFF AND PUSH20 0xFFFFFFFFFFFFFFFFFFFFFFFFFFFFFFFFFFFFFFFF AND CALLER PUSH20 0xFFFFFFFFFFFFFFFFFFFFFFFFFFFFFFFFFFFFFFFF AND EQ PUSH2 0x1521 JUMPI PUSH1 0x40 MLOAD PUSH32 0x8C379A000000000000000000000000000000000000000000000000000000000 DUP2 MSTORE PUSH1 0x4 ADD PUSH2 0x1518 SWAP1 PUSH2 0x35D9 JUMP JUMPDEST PUSH1 0x40 MLOAD DUP1 SWAP2 SUB SWAP1 REVERT JUMPDEST DUP1 PUSH1 0x2 ADD PUSH0 SWAP1 SLOAD SWAP1 PUSH2 0x100 EXP SWAP1 DIV PUSH1 0xFF AND PUSH2 0x1571 JUMPI PUSH1 0x40 MLOAD PUSH32 0x8C379A000000000000000000000000000000000000000000000000000000000 DUP2 MSTORE PUSH1 0x4 ADD PUSH2 0x1568 SWAP1 PUSH2 0x2FE3 JUMP JUMPDEST PUSH1 0x40 MLOAD DUP1 SWAP2 SUB SWAP1 REVERT JUMPDEST PUSH0 PUSH8 0xDE0B6B3A7640000 DUP3 PUSH1 0x3 ADD SLOAD PUSH2 0x158A SWAP2 SWAP1 PUSH2 0x35F7 JUMP JUMPDEST SWAP1 POP PUSH0 DUP3 PUSH1 0x3 ADD DUP2 SWAP1 SSTORE POP DUP1 DUP3 PUSH1 0x4 ADD PUSH0 DUP3 DUP3 SLOAD PUSH2 0x15A8 SWAP2 SWAP1 PUSH2 0x3536 JUMP JUMPDEST SWAP3 POP POP DUP2 SWAP1 SSTORE POP PUSH1 0x2 PUSH0 SWAP1 SLOAD SWAP1 PUSH2 0x100 EXP SWAP1 DIV PUSH20 0xFFFFFFFFFFFFFFFFFFFFFFFFFFFFFFFFFFFFFFFF AND PUSH20 0xFFFFFFFFFFFFFFFFFFFFFFFFFFFFFFFFFFFFFFFF AND PUSH4 0xA9059CBB CALLER DUP4 PUSH1 0x40 MLOAD DUP4 PUSH4 0xFFFFFFFF AND PUSH1 0xE0 SHL DUP2 MSTORE PUSH1 0x4 ADD PUSH2 0x160B SWAP3 SWAP2 SWAP1 PUSH2 0x2DE8 JUMP JUMPDEST PUSH1 0x20 PUSH1 0x40 MLOAD DUP1 DUP4 SUB DUP2 PUSH0 DUP8 GAS CALL ISZERO DUP1 ISZERO PUSH2 0x1627 JUMPI RETURNDATASIZE PUSH0 DUP1 RETURNDATACOPY RETURNDATASIZE PUSH0 REVERT JUMPDEST POP POP POP POP PUSH1 0x40 MLOAD RETURNDATASIZE PUSH1 0x1F NOT PUSH1 0x1F DUP3 ADD AND DUP3 ADD DUP1 PUSH1 0x40 MSTORE POP DUP2 ADD SWAP1 PUSH2 0x164B SWAP2 SWAP1 PUSH2 0x2E39 JUMP JUMPDEST PUSH2 0x168A JUMPI PUSH1 0x40 MLOAD PUSH32 0x8C379A000000000000000000000000000000000000000000000000000000000 DUP2 MSTORE PUSH1 0x4 ADD PUSH2 0x1681 SWAP1 PUSH2 0x2EAE JUMP JUMPDEST PUSH1 0x40 MLOAD DUP1 SWAP2 SUB SWAP1 REVERT JUMPDEST CALLER PUSH20 0xFFFFFFFFFFFFFFFFFFFFFFFFFFFFFFFFFFFFFFFF AND DUP4 PUSH32 0xB67DA43F4CC061F251C05601F44947D1BE59A7EF5451A4A5230274DA04F88246 DUP4 PUSH1 0x40 MLOAD PUSH2 0x16D1 SWAP2 SWAP1 PUSH2 0x2770 JUMP JUMPDEST PUSH1 0x40 MLOAD DUP1 SWAP2 SUB SWAP1 LOG3 POP POP POP JUMP JUMPDEST PUSH0 PUSH1 0x4 PUSH0 CALLER PUSH20 0xFFFFFFFFFFFFFFFFFFFFFFFFFFFFFFFFFFFFFFFF AND PUSH20 0xFFFFFFFFFFFFFFFFFFFFFFFFFFFFFFFFFFFFFFFF AND DUP2 MSTORE PUSH1 0x20 ADD SWAP1 DUP2 MSTORE PUSH1 0x20 ADD PUSH0 KECCAK256 PUSH0 DUP5 DUP2 MSTORE PUSH1 0x20 ADD SWAP1 DUP2 MSTORE PUSH1 0x20 ADD PUSH0 KECCAK256 SWAP1 POP DUP1 PUSH0 ADD PUSH0 SWAP1 SLOAD SWAP1 PUSH2 0x100 EXP SWAP1 DIV PUSH1 0xFF AND PUSH2 0x177C JUMPI PUSH1 0x40 MLOAD PUSH32 0x8C379A000000000000000000000000000000000000000000000000000000000 DUP2 MSTORE PUSH1 0x4 ADD PUSH2 0x1773 SWAP1 PUSH2 0x3682 JUMP JUMPDEST PUSH1 0x40 MLOAD DUP1 SWAP2 SUB SWAP1 REVERT JUMPDEST PUSH1 0x2 DUP2 PUSH0 ADD PUSH1 0x1 SWAP1 SLOAD SWAP1 PUSH2 0x100 EXP SWAP1 DIV PUSH1 0xFF AND PUSH1 0xFF AND LT PUSH2 0x17D2 JUMPI PUSH1 0x40 MLOAD PUSH32 0x8C379A000000000000000000000000000000000000000000000000000000000 DUP2 MSTORE PUSH1 0x4 ADD PUSH2 0x17C9 SWAP1 PUSH2 0x36EA JUMP JUMPDEST PUSH1 0x40 MLOAD DUP1 SWAP2 SUB SWAP1 REVERT JUMPDEST DUP1 PUSH0 ADD PUSH1 0x2 SWAP1 SLOAD SWAP1 PUSH2 0x100 EXP SWAP1 DIV PUSH1 0xFF AND ISZERO PUSH2 0x1823 JUMPI PUSH1 0x40 MLOAD PUSH32 0x8C379A000000000000000000000000000000000000000000000000000000000 DUP2 MSTORE PUSH1 0x4 ADD PUSH2 0x181A SWAP1 PUSH2 0x3778 JUMP JUMPDEST PUSH1 0x40 MLOAD DUP1 SWAP2 SUB SWAP1 REVERT JUMPDEST DUP1 PUSH0 ADD PUSH1 0x1 DUP2 DUP2 SWAP1 SLOAD SWAP1 PUSH2 0x100 EXP SWAP1 DIV PUSH1 0xFF AND DUP1 SWAP3 SWAP2 SWAP1 PUSH2 0x1843 SWAP1 PUSH2 0x3796 JUMP JUMPDEST SWAP2 SWAP1 PUSH2 0x100 EXP DUP2 SLOAD DUP2 PUSH1 0xFF MUL NOT AND SWAP1 DUP4 PUSH1 0xFF AND MUL OR SWAP1 SSTORE POP POP PUSH0 PUSH1 0x5 PUSH0 DUP6 DUP2 MSTORE PUSH1 0x20 ADD SWAP1 DUP2 MSTORE PUSH1 0x20 ADD PUSH0 KECCAK256 DUP1 SLOAD DUP1 PUSH1 0x20 MUL PUSH1 0x20 ADD PUSH1 0x40 MLOAD SWAP1 DUP2 ADD PUSH1 0x40 MSTORE DUP1 SWAP3 SWAP2 SWAP1 DUP2 DUP2 MSTORE PUSH1 0x20 ADD PUSH0 SWAP1 JUMPDEST DUP3 DUP3 LT ISZERO PUSH2 0x1BA0 JUMPI DUP4 DUP3 SWAP1 PUSH0 MSTORE PUSH1 0x20 PUSH0 KECCAK256 SWAP1 PUSH1 0x7 MUL ADD PUSH1 0x40 MLOAD DUP1 PUSH1 0xE0 ADD PUSH1 0x40 MSTORE SWAP1 DUP2 PUSH0 DUP3 ADD SLOAD DUP2 MSTORE PUSH1 0x20 ADD PUSH1 0x1 DUP3 ADD DUP1 SLOAD PUSH2 0x18C7 SWAP1 PUSH2 0x31D3 JUMP JUMPDEST DUP1 PUSH1 0x1F ADD PUSH1 0x20 DUP1 SWAP2 DIV MUL PUSH1 0x20 ADD PUSH1 0x40 MLOAD SWAP1 DUP2 ADD PUSH1 0x40 MSTORE DUP1 SWAP3 SWAP2 SWAP1 DUP2 DUP2 MSTORE PUSH1 0x20 ADD DUP3 DUP1 SLOAD PUSH2 0x18F3 SWAP1 PUSH2 0x31D3 JUMP JUMPDEST DUP1 ISZERO PUSH2 0x193E JUMPI DUP1 PUSH1 0x1F LT PUSH2 0x1915 JUMPI PUSH2 0x100 DUP1 DUP4 SLOAD DIV MUL DUP4 MSTORE SWAP2 PUSH1 0x20 ADD SWAP2 PUSH2 0x193E JUMP JUMPDEST DUP3 ADD SWAP2 SWAP1 PUSH0 MSTORE PUSH1 0x20 PUSH0 KECCAK256 SWAP1 JUMPDEST DUP2 SLOAD DUP2 MSTORE SWAP1 PUSH1 0x1 ADD SWAP1 PUSH1 0x20 ADD DUP1 DUP4 GT PUSH2 0x1921 JUMPI DUP3 SWAP1 SUB PUSH1 0x1F AND DUP3 ADD SWAP2 JUMPDEST POP POP POP POP POP DUP2 MSTORE PUSH1 0x20 ADD PUSH1 0x2 DUP3 ADD DUP1 SLOAD PUSH2 0x1957 SWAP1 PUSH2 0x31D3 JUMP JUMPDEST DUP1 PUSH1 0x1F ADD PUSH1 0x20 DUP1 SWAP2 DIV MUL PUSH1 0x20 ADD PUSH1 0x40 MLOAD SWAP1 DUP2 ADD PUSH1 0x40 MSTORE DUP1 SWAP3 SWAP2 SWAP1 DUP2 DUP2 MSTORE PUSH1 0x20 ADD DUP3 DUP1 SLOAD PUSH2 0x1983 SWAP1 PUSH2 0x31D3 JUMP JUMPDEST DUP1 ISZERO PUSH2 0x19CE JUMPI DUP1 PUSH1 0x1F LT PUSH2 0x19A5 JUMPI PUSH2 0x100 DUP1 DUP4 SLOAD DIV MUL DUP4 MSTORE SWAP2 PUSH1 0x20 ADD SWAP2 PUSH2 0x19CE JUMP JUMPDEST DUP3 ADD SWAP2 SWAP1 PUSH0 MSTORE PUSH1 0x20 PUSH0 KECCAK256 SWAP1 JUMPDEST DUP2 SLOAD DUP2 MSTORE SWAP1 PUSH1 0x1 ADD SWAP1 PUSH1 0x20 ADD DUP1 DUP4 GT PUSH2 0x19B1 JUMPI DUP3 SWAP1 SUB PUSH1 0x1F AND DUP3 ADD SWAP2 JUMPDEST POP POP POP POP POP DUP2 MSTORE PUSH1 0x20 ADD PUSH1 0x3 DUP3 ADD DUP1 SLOAD PUSH2 0x19E7 SWAP1 PUSH2 0x31D3 JUMP JUMPDEST DUP1 PUSH1 0x1F ADD PUSH1 0x20 DUP1 SWAP2 DIV MUL PUSH1 0x20 ADD PUSH1 0x40 MLOAD SWAP1 DUP2 ADD PUSH1 0x40 MSTORE DUP1 SWAP3 SWAP2 SWAP1 DUP2 DUP2 MSTORE PUSH1 0x20 ADD DUP3 DUP1 SLOAD PUSH2 0x1A13 SWAP1 PUSH2 0x31D3 JUMP JUMPDEST DUP1 ISZERO PUSH2 0x1A5E JUMPI DUP1 PUSH1 0x1F LT PUSH2 0x1A35 JUMPI PUSH2 0x100 DUP1 DUP4 SLOAD DIV MUL DUP4 MSTORE SWAP2 PUSH1 0x20 ADD SWAP2 PUSH2 0x1A5E JUMP JUMPDEST DUP3 ADD SWAP2 SWAP1 PUSH0 MSTORE PUSH1 0x20 PUSH0 KECCAK256 SWAP1 JUMPDEST DUP2 SLOAD DUP2 MSTORE SWAP1 PUSH1 0x1 ADD SWAP1 PUSH1 0x20 ADD DUP1 DUP4 GT PUSH2 0x1A41 JUMPI DUP3 SWAP1 SUB PUSH1 0x1F AND DUP3 ADD SWAP2 JUMPDEST POP POP POP POP POP DUP2 MSTORE PUSH1 0x20 ADD PUSH1 0x4 DUP3 ADD DUP1 SLOAD PUSH2 0x1A77 SWAP1 PUSH2 0x31D3 JUMP JUMPDEST DUP1 PUSH1 0x1F ADD PUSH1 0x20 DUP1 SWAP2 DIV MUL PUSH1 0x20 ADD PUSH1 0x40 MLOAD SWAP1 DUP2 ADD PUSH1 0x40 MSTORE DUP1 SWAP3 SWAP2 SWAP1 DUP2 DUP2 MSTORE PUSH1 0x20 ADD DUP3 DUP1 SLOAD PUSH2 0x1AA3 SWAP1 PUSH2 0x31D3 JUMP JUMPDEST DUP1 ISZERO PUSH2 0x1AEE JUMPI DUP1 PUSH1 0x1F LT PUSH2 0x1AC5 JUMPI PUSH2 0x100 DUP1 DUP4 SLOAD DIV MUL DUP4 MSTORE SWAP2 PUSH1 0x20 ADD SWAP2 PUSH2 0x1AEE JUMP JUMPDEST DUP3 ADD SWAP2 SWAP1 PUSH0 MSTORE PUSH1 0x20 PUSH0 KECCAK256 SWAP1 JUMPDEST DUP2 SLOAD DUP2 MSTORE SWAP1 PUSH1 0x1 ADD SWAP1 PUSH1 0x20 ADD DUP1 DUP4 GT PUSH2 0x1AD1 JUMPI DUP3 SWAP1 SUB PUSH1 0x1F AND DUP3 ADD SWAP2 JUMPDEST POP POP POP POP POP DUP2 MSTORE PUSH1 0x20 ADD PUSH1 0x5 DUP3 ADD DUP1 SLOAD PUSH2 0x1B07 SWAP1 PUSH2 0x31D3 JUMP JUMPDEST DUP1 PUSH1 0x1F ADD PUSH1 0x20 DUP1 SWAP2 DIV MUL PUSH1 0x20 ADD PUSH1 0x40 MLOAD SWAP1 DUP2 ADD PUSH1 0x40 MSTORE DUP1 SWAP3 SWAP2 SWAP1 DUP2 DUP2 MSTORE PUSH1 0x20 ADD DUP3 DUP1 SLOAD PUSH2 0x1B33 SWAP1 PUSH2 0x31D3 JUMP JUMPDEST DUP1 ISZERO PUSH2 0x1B7E JUMPI DUP1 PUSH1 0x1F LT PUSH2 0x1B55 JUMPI PUSH2 0x100 DUP1 DUP4 SLOAD DIV MUL DUP4 MSTORE SWAP2 PUSH1 0x20 ADD SWAP2 PUSH2 0x1B7E JUMP JUMPDEST DUP3 ADD SWAP2 SWAP1 PUSH0 MSTORE PUSH1 0x20 PUSH0 KECCAK256 SWAP1 JUMPDEST DUP2 SLOAD DUP2 MSTORE SWAP1 PUSH1 0x1 ADD SWAP1 PUSH1 0x20 ADD DUP1 DUP4 GT PUSH2 0x1B61 JUMPI DUP3 SWAP1 SUB PUSH1 0x1F AND DUP3 ADD SWAP2 JUMPDEST POP POP POP POP POP DUP2 MSTORE PUSH1 0x20 ADD PUSH1 0x6 DUP3 ADD SLOAD DUP2 MSTORE POP POP DUP2 MSTORE PUSH1 0x20 ADD SWAP1 PUSH1 0x1 ADD SWAP1 PUSH2 0x188D JUMP JUMPDEST POP POP POP POP SWAP1 POP PUSH0 PUSH1 0x1 SWAP1 POP PUSH0 JUMPDEST DUP3 MLOAD DUP2 LT ISZERO PUSH2 0x1C16 JUMPI DUP3 DUP2 DUP2 MLOAD DUP2 LT PUSH2 0x1BC9 JUMPI PUSH2 0x1BC8 PUSH2 0x37BE JUMP JUMPDEST JUMPDEST PUSH1 0x20 MUL PUSH1 0x20 ADD ADD MLOAD PUSH1 0xC0 ADD MLOAD DUP6 PUSH1 0x40 MLOAD PUSH1 0x20 ADD PUSH2 0x1BE6 SWAP2 SWAP1 PUSH2 0x3825 JUMP JUMPDEST PUSH1 0x40 MLOAD PUSH1 0x20 DUP2 DUP4 SUB SUB DUP2 MSTORE SWAP1 PUSH1 0x40 MSTORE DUP1 MLOAD SWAP1 PUSH1 0x20 ADD KECCAK256 EQ PUSH2 0x1C09 JUMPI PUSH0 SWAP2 POP PUSH2 0x1C16 JUMP JUMPDEST DUP1 DUP1 PUSH1 0x1 ADD SWAP2 POP POP PUSH2 0x1BAD JUMP JUMPDEST POP DUP1 ISZERO PUSH2 0x1C63 JUMPI PUSH1 0x1 DUP4 PUSH0 ADD PUSH1 0x2 PUSH2 0x100 EXP DUP2 SLOAD DUP2 PUSH1 0xFF MUL NOT AND SWAP1 DUP4 ISZERO ISZERO MUL OR SWAP1 SSTORE POP PUSH1 0x3 PUSH0 DUP7 DUP2 MSTORE PUSH1 0x20 ADD SWAP1 DUP2 MSTORE PUSH1 0x20 ADD PUSH0 KECCAK256 PUSH1 0x3 ADD PUSH0 DUP2 SLOAD DUP1 SWAP3 SWAP2 SWAP1 PUSH2 0x1C5D SWAP1 PUSH2 0x315F JUMP JUMPDEST SWAP2 SWAP1 POP SSTORE POP JUMPDEST CALLER PUSH20 0xFFFFFFFFFFFFFFFFFFFFFFFFFFFFFFFFFFFFFFFF AND DUP6 PUSH32 0xAEE8895C1BF669485CEE2DD54D1EEE9E65B02A244AFB6F798F95D72405CDF7A5 DUP4 PUSH1 0x40 MLOAD PUSH2 0x1CAA SWAP2 SWAP1 PUSH2 0x271D JUMP JUMPDEST PUSH1 0x40 MLOAD DUP1 SWAP2 SUB SWAP1 LOG3 POP POP POP POP POP JUMP JUMPDEST PUSH8 0xDE0B6B3A7640000 DUP2 JUMP JUMPDEST PUSH1 0x3 PUSH0 DUP9 DUP2 MSTORE PUSH1 0x20 ADD SWAP1 DUP2 MSTORE PUSH1 0x20 ADD PUSH0 KECCAK256 PUSH0 ADD PUSH0 SWAP1 SLOAD SWAP1 PUSH2 0x100 EXP SWAP1 DIV PUSH20 0xFFFFFFFFFFFFFFFFFFFFFFFFFFFFFFFFFFFFFFFF AND PUSH20 0xFFFFFFFFFFFFFFFFFFFFFFFFFFFFFFFFFFFFFFFF AND CALLER PUSH20 0xFFFFFFFFFFFFFFFFFFFFFFFFFFFFFFFFFFFFFFFF AND EQ PUSH2 0x1D65 JUMPI PUSH1 0x40 MLOAD PUSH32 0x8C379A000000000000000000000000000000000000000000000000000000000 DUP2 MSTORE PUSH1 0x4 ADD PUSH2 0x1D5C SWAP1 PUSH2 0x38AB JUMP JUMPDEST PUSH1 0x40 MLOAD DUP1 SWAP2 SUB SWAP1 REVERT JUMPDEST PUSH1 0x3 PUSH0 DUP9 DUP2 MSTORE PUSH1 0x20 ADD SWAP1 DUP2 MSTORE PUSH1 0x20 ADD PUSH0 KECCAK256 PUSH1 0x2 ADD PUSH0 SWAP1 SLOAD SWAP1 PUSH2 0x100 EXP SWAP1 DIV PUSH1 0xFF AND PUSH2 0x1DC5 JUMPI PUSH1 0x40 MLOAD PUSH32 0x8C379A000000000000000000000000000000000000000000000000000000000 DUP2 MSTORE PUSH1 0x4 ADD PUSH2 0x1DBC SWAP1 PUSH2 0x3939 JUMP JUMPDEST PUSH1 0x40 MLOAD DUP1 SWAP2 SUB SWAP1 REVERT JUMPDEST PUSH1 0x40 MLOAD PUSH1 0x20 ADD PUSH2 0x1DD4 SWAP1 PUSH2 0x39A1 JUMP JUMPDEST PUSH1 0x40 MLOAD PUSH1 0x20 DUP2 DUP4 SUB SUB DUP2 MSTORE SWAP1 PUSH1 0x40 MSTORE DUP1 MLOAD SWAP1 PUSH1 0x20 ADD KECCAK256 DUP2 PUSH1 0x40 MLOAD PUSH1 0x20 ADD PUSH2 0x1DFB SWAP2 SWAP1 PUSH2 0x3825 JUMP JUMPDEST PUSH1 0x40 MLOAD PUSH1 0x20 DUP2 DUP4 SUB SUB DUP2 MSTORE SWAP1 PUSH1 0x40 MSTORE DUP1 MLOAD SWAP1 PUSH1 0x20 ADD KECCAK256 EQ DUP1 PUSH2 0x1E66 JUMPI POP PUSH1 0x40 MLOAD PUSH1 0x20 ADD PUSH2 0x1E27 SWAP1 PUSH2 0x39FF JUMP JUMPDEST PUSH1 0x40 MLOAD PUSH1 0x20 DUP2 DUP4 SUB SUB DUP2 MSTORE SWAP1 PUSH1 0x40 MSTORE DUP1 MLOAD SWAP1 PUSH1 0x20 ADD KECCAK256 DUP2 PUSH1 0x40 MLOAD PUSH1 0x20 ADD PUSH2 0x1E4E SWAP2 SWAP1 PUSH2 0x3825 JUMP JUMPDEST PUSH1 0x40 MLOAD PUSH1 0x20 DUP2 DUP4 SUB SUB DUP2 MSTORE SWAP1 PUSH1 0x40 MSTORE DUP1 MLOAD SWAP1 PUSH1 0x20 ADD KECCAK256 EQ JUMPDEST DUP1 PUSH2 0x1EBA JUMPI POP PUSH1 0x40 MLOAD PUSH1 0x20 ADD PUSH2 0x1E7B SWAP1 PUSH2 0x3A5D JUMP JUMPDEST PUSH1 0x40 MLOAD PUSH1 0x20 DUP2 DUP4 SUB SUB DUP2 MSTORE SWAP1 PUSH1 0x40 MSTORE DUP1 MLOAD SWAP1 PUSH1 0x20 ADD KECCAK256 DUP2 PUSH1 0x40 MLOAD PUSH1 0x20 ADD PUSH2 0x1EA2 SWAP2 SWAP1 PUSH2 0x3825 JUMP JUMPDEST PUSH1 0x40 MLOAD PUSH1 0x20 DUP2 DUP4 SUB SUB DUP2 MSTORE SWAP1 PUSH1 0x40 MSTORE DUP1 MLOAD SWAP1 PUSH1 0x20 ADD KECCAK256 EQ JUMPDEST DUP1 PUSH2 0x1F0E JUMPI POP PUSH1 0x40 MLOAD PUSH1 0x20 ADD PUSH2 0x1ECF SWAP1 PUSH2 0x3ABB JUMP JUMPDEST PUSH1 0x40 MLOAD PUSH1 0x20 DUP2 DUP4 SUB SUB DUP2 MSTORE SWAP1 PUSH1 0x40 MSTORE DUP1 MLOAD SWAP1 PUSH1 0x20 ADD KECCAK256 DUP2 PUSH1 0x40 MLOAD PUSH1 0x20 ADD PUSH2 0x1EF6 SWAP2 SWAP1 PUSH2 0x3825 JUMP JUMPDEST PUSH1 0x40 MLOAD PUSH1 0x20 DUP2 DUP4 SUB SUB DUP2 MSTORE SWAP1 PUSH1 0x40 MSTORE DUP1 MLOAD SWAP1 PUSH1 0x20 ADD KECCAK256 EQ JUMPDEST PUSH2 0x1F4D JUMPI PUSH1 0x40 MLOAD PUSH32 0x8C379A000000000000000000000000000000000000000000000000000000000 DUP2 MSTORE PUSH1 0x4 ADD PUSH2 0x1F44 SWAP1 PUSH2 0x3B19 JUMP JUMPDEST PUSH1 0x40 MLOAD DUP1 SWAP2 SUB SWAP1 REVERT JUMPDEST PUSH0 PUSH1 0x40 MLOAD DUP1 PUSH1 0xE0 ADD PUSH1 0x40 MSTORE DUP1 DUP10 DUP2 MSTORE PUSH1 0x20 ADD DUP9 DUP2 MSTORE PUSH1 0x20 ADD DUP8 DUP2 MSTORE PUSH1 0x20 ADD DUP7 DUP2 MSTORE PUSH1 0x20 ADD DUP6 DUP2 MSTORE PUSH1 0x20 ADD DUP5 DUP2 MSTORE PUSH1 0x20 ADD DUP4 PUSH1 0x40 MLOAD PUSH1 0x20 ADD PUSH2 0x1F8E SWAP2 SWAP1 PUSH2 0x3825 JUMP JUMPDEST PUSH1 0x40 MLOAD PUSH1 0x20 DUP2 DUP4 SUB SUB DUP2 MSTORE SWAP1 PUSH1 0x40 MSTORE DUP1 MLOAD SWAP1 PUSH1 0x20 ADD KECCAK256 DUP2 MSTORE POP SWAP1 POP PUSH1 0x5 PUSH0 DUP10 DUP2 MSTORE PUSH1 0x20 ADD SWAP1 DUP2 MSTORE PUSH1 0x20 ADD PUSH0 KECCAK256 DUP2 SWAP1 DUP1 PUSH1 0x1 DUP2 SLOAD ADD DUP1 DUP3 SSTORE DUP1 SWAP2 POP POP PUSH1 0x1 SWAP1 SUB SWAP1 PUSH0 MSTORE PUSH1 0x20 PUSH0 KECCAK256 SWAP1 PUSH1 0x7 MUL ADD PUSH0 SWAP1 SWAP2 SWAP1 SWAP2 SWAP1 SWAP2 POP PUSH0 DUP3 ADD MLOAD DUP2 PUSH0 ADD SSTORE PUSH1 0x20 DUP3 ADD MLOAD DUP2 PUSH1 0x1 ADD SWAP1 DUP2 PUSH2 0x1FFE SWAP2 SWAP1 PUSH2 0x3397 JUMP JUMPDEST POP PUSH1 0x40 DUP3 ADD MLOAD DUP2 PUSH1 0x2 ADD SWAP1 DUP2 PUSH2 0x2014 SWAP2 SWAP1 PUSH2 0x3397 JUMP JUMPDEST POP PUSH1 0x60 DUP3 ADD MLOAD DUP2 PUSH1 0x3 ADD SWAP1 DUP2 PUSH2 0x202A SWAP2 SWAP1 PUSH2 0x3397 JUMP JUMPDEST POP PUSH1 0x80 DUP3 ADD MLOAD DUP2 PUSH1 0x4 ADD SWAP1 DUP2 PUSH2 0x2040 SWAP2 SWAP1 PUSH2 0x3397 JUMP JUMPDEST POP PUSH1 0xA0 DUP3 ADD MLOAD DUP2 PUSH1 0x5 ADD SWAP1 DUP2 PUSH2 0x2056 SWAP2 SWAP1 PUSH2 0x3397 JUMP JUMPDEST POP PUSH1 0xC0 DUP3 ADD MLOAD DUP2 PUSH1 0x6 ADD SSTORE POP POP PUSH0 PUSH1 0x1 PUSH1 0x5 PUSH0 DUP12 DUP2 MSTORE PUSH1 0x20 ADD SWAP1 DUP2 MSTORE PUSH1 0x20 ADD PUSH0 KECCAK256 DUP1 SLOAD SWAP1 POP PUSH2 0x2085 SWAP2 SWAP1 PUSH2 0x2DB5 JUMP JUMPDEST SWAP1 POP DUP9 PUSH32 0x8865832F191AE6766F74AD3A536812CFFBF608C1DEE46454CF0B3B9C98A4B37F DUP3 PUSH1 0x40 MLOAD PUSH2 0x20B7 SWAP2 SWAP1 PUSH2 0x2770 JUMP JUMPDEST PUSH1 0x40 MLOAD DUP1 SWAP2 SUB SWAP1 LOG2 POP POP POP POP POP POP POP POP POP JUMP JUMPDEST PUSH2 0x20D2 PUSH2 0x2247 JUMP JUMPDEST PUSH1 0x2 PUSH0 SWAP1 SLOAD SWAP1 PUSH2 0x100 EXP SWAP1 DIV PUSH20 0xFFFFFFFFFFFFFFFFFFFFFFFFFFFFFFFFFFFFFFFF AND PUSH20 0xFFFFFFFFFFFFFFFFFFFFFFFFFFFFFFFFFFFFFFFF AND PUSH4 0xA9059CBB PUSH2 0x2117 PUSH2 0xDAC JUMP JUMPDEST DUP4 PUSH1 0x40 MLOAD DUP4 PUSH4 0xFFFFFFFF AND PUSH1 0xE0 SHL DUP2 MSTORE PUSH1 0x4 ADD PUSH2 0x2135 SWAP3 SWAP2 SWAP1 PUSH2 0x2DE8 JUMP JUMPDEST PUSH1 0x20 PUSH1 0x40 MLOAD DUP1 DUP4 SUB DUP2 PUSH0 DUP8 GAS CALL ISZERO DUP1 ISZERO PUSH2 0x2151 JUMPI RETURNDATASIZE PUSH0 DUP1 RETURNDATACOPY RETURNDATASIZE PUSH0 REVERT JUMPDEST POP POP POP POP PUSH1 0x40 MLOAD RETURNDATASIZE PUSH1 0x1F NOT PUSH1 0x1F DUP3 ADD AND DUP3 ADD DUP1 PUSH1 0x40 MSTORE POP DUP2 ADD SWAP1 PUSH2 0x2175 SWAP2 SWAP1 PUSH2 0x2E39 JUMP JUMPDEST PUSH2 0x21B4 JUMPI PUSH1 0x40 MLOAD PUSH32 0x8C379A000000000000000000000000000000000000000000000000000000000 DUP2 MSTORE PUSH1 0x4 ADD PUSH2 0x21AB SWAP1 PUSH2 0x3B81 JUMP JUMPDEST PUSH1 0x40 MLOAD DUP1 SWAP2 SUB SWAP1 REVERT JUMPDEST POP JUMP JUMPDEST PUSH2 0x21BF PUSH2 0x2247 JUMP JUMPDEST PUSH0 PUSH20 0xFFFFFFFFFFFFFFFFFFFFFFFFFFFFFFFFFFFFFFFF AND DUP2 PUSH20 0xFFFFFFFFFFFFFFFFFFFFFFFFFFFFFFFFFFFFFFFF AND SUB PUSH2 0x222F JUMPI PUSH0 PUSH1 0x40 MLOAD PUSH32 0x1E4FBDF700000000000000000000000000000000000000000000000000000000 DUP2 MSTORE PUSH1 0x4 ADD PUSH2 0x2226 SWAP2 SWAP1 PUSH2 0x2954 JUMP JUMPDEST PUSH1 0x40 MLOAD DUP1 SWAP2 SUB SWAP1 REVERT JUMPDEST PUSH2 0x2238 DUP2 PUSH2 0x232F JUMP JUMPDEST POP JUMP JUMPDEST PUSH8 0x8AC7230489E80000 DUP2 JUMP JUMPDEST PUSH2 0x224F PUSH2 0x2452 JUMP JUMPDEST PUSH20 0xFFFFFFFFFFFFFFFFFFFFFFFFFFFFFFFFFFFFFFFF AND PUSH2 0x226D PUSH2 0xDAC JUMP JUMPDEST PUSH20 0xFFFFFFFFFFFFFFFFFFFFFFFFFFFFFFFFFFFFFFFF AND EQ PUSH2 0x22CC JUMPI PUSH2 0x2290 PUSH2 0x2452 JUMP JUMPDEST PUSH1 0x40 MLOAD PUSH32 0x118CDAA700000000000000000000000000000000000000000000000000000000 DUP2 MSTORE PUSH1 0x4 ADD PUSH2 0x22C3 SWAP2 SWAP1 PUSH2 0x2954 JUMP JUMPDEST PUSH1 0x40 MLOAD DUP1 SWAP2 SUB SWAP1 REVERT JUMPDEST JUMP JUMPDEST PUSH2 0x22D6 PUSH2 0x2459 JUMP JUMPDEST PUSH0 DUP1 PUSH1 0x14 PUSH2 0x100 EXP DUP2 SLOAD DUP2 PUSH1 0xFF MUL NOT AND SWAP1 DUP4 ISZERO ISZERO MUL OR SWAP1 SSTORE POP PUSH32 0x5DB9EE0A495BF2E6FF9C91A7834C1BA4FDD244A5E8AA4E537BD38AEAE4B073AA PUSH2 0x2318 PUSH2 0x2452 JUMP JUMPDEST PUSH1 0x40 MLOAD PUSH2 0x2325 SWAP2 SWAP1 PUSH2 0x2954 JUMP JUMPDEST PUSH1 0x40 MLOAD DUP1 SWAP2 SUB SWAP1 LOG1 JUMP JUMPDEST PUSH0 DUP1 PUSH0 SWAP1 SLOAD SWAP1 PUSH2 0x100 EXP SWAP1 DIV PUSH20 0xFFFFFFFFFFFFFFFFFFFFFFFFFFFFFFFFFFFFFFFF AND SWAP1 POP DUP2 PUSH0 DUP1 PUSH2 0x100 EXP DUP2 SLOAD DUP2 PUSH20 0xFFFFFFFFFFFFFFFFFFFFFFFFFFFFFFFFFFFFFFFF MUL NOT AND SWAP1 DUP4 PUSH20 0xFFFFFFFFFFFFFFFFFFFFFFFFFFFFFFFFFFFFFFFF AND MUL OR SWAP1 SSTORE POP DUP2 PUSH20 0xFFFFFFFFFFFFFFFFFFFFFFFFFFFFFFFFFFFFFFFF AND DUP2 PUSH20 0xFFFFFFFFFFFFFFFFFFFFFFFFFFFFFFFFFFFFFFFF AND PUSH32 0x8BE0079C531659141344CD1FD0A4F28419497F9722A3DAAFE3B4186F6B6457E0 PUSH1 0x40 MLOAD PUSH1 0x40 MLOAD DUP1 SWAP2 SUB SWAP1 LOG3 POP POP JUMP JUMPDEST PUSH2 0x23F8 PUSH2 0x24A2 JUMP JUMPDEST PUSH1 0x1 PUSH0 PUSH1 0x14 PUSH2 0x100 EXP DUP2 SLOAD DUP2 PUSH1 0xFF MUL NOT AND SWAP1 DUP4 ISZERO ISZERO MUL OR SWAP1 SSTORE POP PUSH32 0x62E78CEA01BEE320CD4E420270B5EA74000D11B0C9F74754EBDBFC544B05A258 PUSH2 0x243B PUSH2 0x2452 JUMP JUMPDEST PUSH1 0x40 MLOAD PUSH2 0x2448 SWAP2 SWAP1 PUSH2 0x2954 JUMP JUMPDEST PUSH1 0x40 MLOAD DUP1 SWAP2 SUB SWAP1 LOG1 JUMP JUMPDEST PUSH0 CALLER SWAP1 POP SWAP1 JUMP JUMPDEST PUSH2 0x2461 PUSH2 0x7E1 JUMP JUMPDEST PUSH2 0x24A0 JUMPI PUSH1 0x40 MLOAD PUSH32 0x8C379A000000000000000000000000000000000000000000000000000000000 DUP2 MSTORE PUSH1 0x4 ADD PUSH2 0x2497 SWAP1 PUSH2 0x3BE9 JUMP JUMPDEST PUSH1 0x40 MLOAD DUP1 SWAP2 SUB SWAP1 REVERT JUMPDEST JUMP JUMPDEST PUSH2 0x24AA PUSH2 0x7E1 JUMP JUMPDEST ISZERO PUSH2 0x24EA JUMPI PUSH1 0x40 MLOAD PUSH32 0x8C379A000000000000000000000000000000000000000000000000000000000 DUP2 MSTORE PUSH1 0x4 ADD PUSH2 0x24E1 SWAP1 PUSH2 0x3C51 JUMP JUMPDEST PUSH1 0x40 MLOAD DUP1 SWAP2 SUB SWAP1 REVERT JUMPDEST JUMP JUMPDEST PUSH0 PUSH1 0x40 MLOAD SWAP1 POP SWAP1 JUMP JUMPDEST PUSH0 DUP1 REVERT JUMPDEST PUSH0 DUP1 REVERT JUMPDEST PUSH0 DUP2 SWAP1 POP SWAP2 SWAP1 POP JUMP JUMPDEST PUSH2 0x250F DUP2 PUSH2 0x24FD JUMP JUMPDEST DUP2 EQ PUSH2 0x2519 JUMPI PUSH0 DUP1 REVERT JUMPDEST POP JUMP JUMPDEST PUSH0 DUP2 CALLDATALOAD SWAP1 POP PUSH2 0x252A DUP2 PUSH2 0x2506 JUMP JUMPDEST SWAP3 SWAP2 POP POP JUMP JUMPDEST PUSH0 DUP1 PUSH1 0x40 DUP4 DUP6 SUB SLT ISZERO PUSH2 0x2546 JUMPI PUSH2 0x2545 PUSH2 0x24F5 JUMP JUMPDEST JUMPDEST PUSH0 PUSH2 0x2553 DUP6 DUP3 DUP7 ADD PUSH2 0x251C JUMP JUMPDEST SWAP3 POP POP PUSH1 0x20 PUSH2 0x2564 DUP6 DUP3 DUP7 ADD PUSH2 0x251C JUMP JUMPDEST SWAP2 POP POP SWAP3 POP SWAP3 SWAP1 POP JUMP JUMPDEST PUSH0 PUSH20 0xFFFFFFFFFFFFFFFFFFFFFFFFFFFFFFFFFFFFFFFF DUP3 AND SWAP1 POP SWAP2 SWAP1 POP JUMP JUMPDEST PUSH0 PUSH2 0x2597 DUP3 PUSH2 0x256E JUMP JUMPDEST SWAP1 POP SWAP2 SWAP1 POP JUMP JUMPDEST PUSH2 0x25A7 DUP2 PUSH2 0x258D JUMP JUMPDEST DUP2 EQ PUSH2 0x25B1 JUMPI PUSH0 DUP1 REVERT JUMPDEST POP JUMP JUMPDEST PUSH0 DUP2 CALLDATALOAD SWAP1 POP PUSH2 0x25C2 DUP2 PUSH2 0x259E JUMP JUMPDEST SWAP3 SWAP2 POP POP JUMP JUMPDEST PUSH0 DUP1 PUSH1 0x40 DUP4 DUP6 SUB SLT ISZERO PUSH2 0x25DE JUMPI PUSH2 0x25DD PUSH2 0x24F5 JUMP JUMPDEST JUMPDEST PUSH0 PUSH2 0x25EB DUP6 DUP3 DUP7 ADD PUSH2 0x25B4 JUMP JUMPDEST SWAP3 POP POP PUSH1 0x20 PUSH2 0x25FC DUP6 DUP3 DUP7 ADD PUSH2 0x251C JUMP JUMPDEST SWAP2 POP POP SWAP3 POP SWAP3 SWAP1 POP JUMP JUMPDEST PUSH0 DUP2 ISZERO ISZERO SWAP1 POP SWAP2 SWAP1 POP JUMP JUMPDEST PUSH2 0x261A DUP2 PUSH2 0x2606 JUMP JUMPDEST DUP3 MSTORE POP POP JUMP JUMPDEST PUSH0 PUSH1 0xFF DUP3 AND SWAP1 POP SWAP2 SWAP1 POP JUMP JUMPDEST PUSH2 0x2635 DUP2 PUSH2 0x2620 JUMP JUMPDEST DUP3 MSTORE POP POP JUMP JUMPDEST PUSH0 PUSH1 0x80 DUP3 ADD SWAP1 POP PUSH2 0x264E PUSH0 DUP4 ADD DUP8 PUSH2 0x2611 JUMP JUMPDEST PUSH2 0x265B PUSH1 0x20 DUP4 ADD DUP7 PUSH2 0x262C JUMP JUMPDEST PUSH2 0x2668 PUSH1 0x40 DUP4 ADD DUP6 PUSH2 0x2611 JUMP JUMPDEST PUSH2 0x2675 PUSH1 0x60 DUP4 ADD DUP5 PUSH2 0x2611 JUMP JUMPDEST SWAP6 SWAP5 POP POP POP POP POP JUMP JUMPDEST PUSH0 DUP2 SWAP1 POP SWAP2 SWAP1 POP JUMP JUMPDEST PUSH0 PUSH2 0x26A1 PUSH2 0x269C PUSH2 0x2697 DUP5 PUSH2 0x256E JUMP JUMPDEST PUSH2 0x267E JUMP JUMPDEST PUSH2 0x256E JUMP JUMPDEST SWAP1 POP SWAP2 SWAP1 POP JUMP JUMPDEST PUSH0 PUSH2 0x26B2 DUP3 PUSH2 0x2687 JUMP JUMPDEST SWAP1 POP SWAP2 SWAP1 POP JUMP JUMPDEST PUSH0 PUSH2 0x26C3 DUP3 PUSH2 0x26A8 JUMP JUMPDEST SWAP1 POP SWAP2 SWAP1 POP JUMP JUMPDEST PUSH2 0x26D3 DUP2 PUSH2 0x26B9 JUMP JUMPDEST DUP3 MSTORE POP POP JUMP JUMPDEST PUSH0 PUSH1 0x20 DUP3 ADD SWAP1 POP PUSH2 0x26EC PUSH0 DUP4 ADD DUP5 PUSH2 0x26CA JUMP JUMPDEST SWAP3 SWAP2 POP POP JUMP JUMPDEST PUSH0 PUSH1 0x20 DUP3 DUP5 SUB SLT ISZERO PUSH2 0x2707 JUMPI PUSH2 0x2706 PUSH2 0x24F5 JUMP JUMPDEST JUMPDEST PUSH0 PUSH2 0x2714 DUP5 DUP3 DUP6 ADD PUSH2 0x25B4 JUMP JUMPDEST SWAP2 POP POP SWAP3 SWAP2 POP POP JUMP JUMPDEST PUSH0 PUSH1 0x20 DUP3 ADD SWAP1 POP PUSH2 0x2730 PUSH0 DUP4 ADD DUP5 PUSH2 0x2611 JUMP JUMPDEST SWAP3 SWAP2 POP POP JUMP JUMPDEST PUSH0 PUSH1 0x20 DUP3 DUP5 SUB SLT ISZERO PUSH2 0x274B JUMPI PUSH2 0x274A PUSH2 0x24F5 JUMP JUMPDEST JUMPDEST PUSH0 PUSH2 0x2758 DUP5 DUP3 DUP6 ADD PUSH2 0x251C JUMP JUMPDEST SWAP2 POP POP SWAP3 SWAP2 POP POP JUMP JUMPDEST PUSH2 0x276A DUP2 PUSH2 0x24FD JUMP JUMPDEST DUP3 MSTORE POP POP JUMP JUMPDEST PUSH0 PUSH1 0x20 DUP3 ADD SWAP1 POP PUSH2 0x2783 PUSH0 DUP4 ADD DUP5 PUSH2 0x2761 JUMP JUMPDEST SWAP3 SWAP2 POP POP JUMP JUMPDEST PUSH0 PUSH2 0x2793 DUP3 PUSH2 0x26A8 JUMP JUMPDEST SWAP1 POP SWAP2 SWAP1 POP JUMP JUMPDEST PUSH2 0x27A3 DUP2 PUSH2 0x2789 JUMP JUMPDEST DUP3 MSTORE POP POP JUMP JUMPDEST PUSH0 PUSH1 0x20 DUP3 ADD SWAP1 POP PUSH2 0x27BC PUSH0 DUP4 ADD DUP5 PUSH2 0x279A JUMP JUMPDEST SWAP3 SWAP2 POP POP JUMP JUMPDEST PUSH0 DUP1 REVERT JUMPDEST PUSH0 DUP1 REVERT JUMPDEST PUSH0 PUSH1 0x1F NOT PUSH1 0x1F DUP4 ADD AND SWAP1 POP SWAP2 SWAP1 POP JUMP JUMPDEST PUSH32 0x4E487B7100000000000000000000000000000000000000000000000000000000 PUSH0 MSTORE PUSH1 0x41 PUSH1 0x4 MSTORE PUSH1 0x24 PUSH0 REVERT JUMPDEST PUSH2 0x2810 DUP3 PUSH2 0x27CA JUMP JUMPDEST DUP2 ADD DUP2 DUP2 LT PUSH8 0xFFFFFFFFFFFFFFFF DUP3 GT OR ISZERO PUSH2 0x282F JUMPI PUSH2 0x282E PUSH2 0x27DA JUMP JUMPDEST JUMPDEST DUP1 PUSH1 0x40 MSTORE POP POP POP JUMP JUMPDEST PUSH0 PUSH2 0x2841 PUSH2 0x24EC JUMP JUMPDEST SWAP1 POP PUSH2 0x284D DUP3 DUP3 PUSH2 0x2807 JUMP JUMPDEST SWAP2 SWAP1 POP JUMP JUMPDEST PUSH0 PUSH8 0xFFFFFFFFFFFFFFFF DUP3 GT ISZERO PUSH2 0x286C JUMPI PUSH2 0x286B PUSH2 0x27DA JUMP JUMPDEST JUMPDEST PUSH2 0x2875 DUP3 PUSH2 0x27CA JUMP JUMPDEST SWAP1 POP PUSH1 0x20 DUP2 ADD SWAP1 POP SWAP2 SWAP1 POP JUMP JUMPDEST DUP3 DUP2 DUP4 CALLDATACOPY PUSH0 DUP4 DUP4 ADD MSTORE POP POP POP JUMP JUMPDEST PUSH0 PUSH2 0x28A2 PUSH2 0x289D DUP5 PUSH2 0x2852 JUMP JUMPDEST PUSH2 0x2838 JUMP JUMPDEST SWAP1 POP DUP3 DUP2 MSTORE PUSH1 0x20 DUP2 ADD DUP5 DUP5 DUP5 ADD GT ISZERO PUSH2 0x28BE JUMPI PUSH2 0x28BD PUSH2 0x27C6 JUMP JUMPDEST JUMPDEST PUSH2 0x28C9 DUP5 DUP3 DUP6 PUSH2 0x2882 JUMP JUMPDEST POP SWAP4 SWAP3 POP POP POP JUMP JUMPDEST PUSH0 DUP3 PUSH1 0x1F DUP4 ADD SLT PUSH2 0x28E5 JUMPI PUSH2 0x28E4 PUSH2 0x27C2 JUMP JUMPDEST JUMPDEST DUP2 CALLDATALOAD PUSH2 0x28F5 DUP5 DUP3 PUSH1 0x20 DUP7 ADD PUSH2 0x2890 JUMP JUMPDEST SWAP2 POP POP SWAP3 SWAP2 POP POP JUMP JUMPDEST PUSH0 PUSH1 0x20 DUP3 DUP5 SUB SLT ISZERO PUSH2 0x2913 JUMPI PUSH2 0x2912 PUSH2 0x24F5 JUMP JUMPDEST JUMPDEST PUSH0 DUP3 ADD CALLDATALOAD PUSH8 0xFFFFFFFFFFFFFFFF DUP2 GT ISZERO PUSH2 0x2930 JUMPI PUSH2 0x292F PUSH2 0x24F9 JUMP JUMPDEST JUMPDEST PUSH2 0x293C DUP5 DUP3 DUP6 ADD PUSH2 0x28D1 JUMP JUMPDEST SWAP2 POP POP SWAP3 SWAP2 POP POP JUMP JUMPDEST PUSH2 0x294E DUP2 PUSH2 0x258D JUMP JUMPDEST DUP3 MSTORE POP POP JUMP JUMPDEST PUSH0 PUSH1 0x20 DUP3 ADD SWAP1 POP PUSH2 0x2967 PUSH0 DUP4 ADD DUP5 PUSH2 0x2945 JUMP JUMPDEST SWAP3 SWAP2 POP POP JUMP JUMPDEST PUSH0 DUP2 MLOAD SWAP1 POP SWAP2 SWAP1 POP JUMP JUMPDEST PUSH0 DUP3 DUP3 MSTORE PUSH1 0x20 DUP3 ADD SWAP1 POP SWAP3 SWAP2 POP POP JUMP JUMPDEST DUP3 DUP2 DUP4 MCOPY PUSH0 DUP4 DUP4 ADD MSTORE POP POP POP JUMP JUMPDEST PUSH0 PUSH2 0x299F DUP3 PUSH2 0x296D JUMP JUMPDEST PUSH2 0x29A9 DUP2 DUP6 PUSH2 0x2977 JUMP JUMPDEST SWAP4 POP PUSH2 0x29B9 DUP2 DUP6 PUSH1 0x20 DUP7 ADD PUSH2 0x2987 JUMP JUMPDEST PUSH2 0x29C2 DUP2 PUSH2 0x27CA JUMP JUMPDEST DUP5 ADD SWAP2 POP POP SWAP3 SWAP2 POP POP JUMP JUMPDEST PUSH0 PUSH1 0xA0 DUP3 ADD SWAP1 POP PUSH2 0x29E0 PUSH0 DUP4 ADD DUP9 PUSH2 0x2945 JUMP JUMPDEST DUP2 DUP2 SUB PUSH1 0x20 DUP4 ADD MSTORE PUSH2 0x29F2 DUP2 DUP8 PUSH2 0x2995 JUMP JUMPDEST SWAP1 POP PUSH2 0x2A01 PUSH1 0x40 DUP4 ADD DUP7 PUSH2 0x2611 JUMP JUMPDEST PUSH2 0x2A0E PUSH1 0x60 DUP4 ADD DUP6 PUSH2 0x2761 JUMP JUMPDEST PUSH2 0x2A1B PUSH1 0x80 DUP4 ADD DUP5 PUSH2 0x2761 JUMP JUMPDEST SWAP7 SWAP6 POP POP POP POP POP POP JUMP JUMPDEST PUSH0 DUP2 SWAP1 POP SWAP2 SWAP1 POP JUMP JUMPDEST PUSH2 0x2A37 DUP2 PUSH2 0x2A25 JUMP JUMPDEST DUP3 MSTORE POP POP JUMP JUMPDEST PUSH0 PUSH1 0xE0 DUP3 ADD SWAP1 POP PUSH2 0x2A50 PUSH0 DUP4 ADD DUP11 PUSH2 0x2761 JUMP JUMPDEST DUP2 DUP2 SUB PUSH1 0x20 DUP4 ADD MSTORE PUSH2 0x2A62 DUP2 DUP10 PUSH2 0x2995 JUMP JUMPDEST SWAP1 POP DUP2 DUP2 SUB PUSH1 0x40 DUP4 ADD MSTORE PUSH2 0x2A76 DUP2 DUP9 PUSH2 0x2995 JUMP JUMPDEST SWAP1 POP DUP2 DUP2 SUB PUSH1 0x60 DUP4 ADD MSTORE PUSH2 0x2A8A DUP2 DUP8 PUSH2 0x2995 JUMP JUMPDEST SWAP1 POP DUP2 DUP2 SUB PUSH1 0x80 DUP4 ADD MSTORE PUSH2 0x2A9E DUP2 DUP7 PUSH2 0x2995 JUMP JUMPDEST SWAP1 POP DUP2 DUP2 SUB PUSH1 0xA0 DUP4 ADD MSTORE PUSH2 0x2AB2 DUP2 DUP6 PUSH2 0x2995 JUMP JUMPDEST SWAP1 POP PUSH2 0x2AC1 PUSH1 0xC0 DUP4 ADD DUP5 PUSH2 0x2A2E JUMP JUMPDEST SWAP9 SWAP8 POP POP POP POP POP POP POP POP JUMP JUMPDEST PUSH0 DUP1 PUSH1 0x40 DUP4 DUP6 SUB SLT ISZERO PUSH2 0x2AE3 JUMPI PUSH2 0x2AE2 PUSH2 0x24F5 JUMP JUMPDEST JUMPDEST PUSH0 PUSH2 0x2AF0 DUP6 DUP3 DUP7 ADD PUSH2 0x251C JUMP JUMPDEST SWAP3 POP POP PUSH1 0x20 DUP4 ADD CALLDATALOAD PUSH8 0xFFFFFFFFFFFFFFFF DUP2 GT ISZERO PUSH2 0x2B11 JUMPI PUSH2 0x2B10 PUSH2 0x24F9 JUMP JUMPDEST JUMPDEST PUSH2 0x2B1D DUP6 DUP3 DUP7 ADD PUSH2 0x28D1 JUMP JUMPDEST SWAP2 POP POP SWAP3 POP SWAP3 SWAP1 POP JUMP JUMPDEST PUSH0 DUP1 PUSH0 DUP1 PUSH0 DUP1 PUSH0 PUSH1 0xE0 DUP9 DUP11 SUB SLT ISZERO PUSH2 0x2B42 JUMPI PUSH2 0x2B41 PUSH2 0x24F5 JUMP JUMPDEST JUMPDEST PUSH0 PUSH2 0x2B4F DUP11 DUP3 DUP12 ADD PUSH2 0x251C JUMP JUMPDEST SWAP8 POP POP PUSH1 0x20 DUP9 ADD CALLDATALOAD PUSH8 0xFFFFFFFFFFFFFFFF DUP2 GT ISZERO PUSH2 0x2B70 JUMPI PUSH2 0x2B6F PUSH2 0x24F9 JUMP JUMPDEST JUMPDEST PUSH2 0x2B7C DUP11 DUP3 DUP12 ADD PUSH2 0x28D1 JUMP JUMPDEST SWAP7 POP POP PUSH1 0x40 DUP9 ADD CALLDATALOAD PUSH8 0xFFFFFFFFFFFFFFFF DUP2 GT ISZERO PUSH2 0x2B9D JUMPI PUSH2 0x2B9C PUSH2 0x24F9 JUMP JUMPDEST JUMPDEST PUSH2 0x2BA9 DUP11 DUP3 DUP12 ADD PUSH2 0x28D1 JUMP JUMPDEST SWAP6 POP POP PUSH1 0x60 DUP9 ADD CALLDATALOAD PUSH8 0xFFFFFFFFFFFFFFFF DUP2 GT ISZERO PUSH2 0x2BCA JUMPI PUSH2 0x2BC9 PUSH2 0x24F9 JUMP JUMPDEST JUMPDEST PUSH2 0x2BD6 DUP11 DUP3 DUP12 ADD PUSH2 0x28D1 JUMP JUMPDEST SWAP5 POP POP PUSH1 0x80 DUP9 ADD CALLDATALOAD PUSH8 0xFFFFFFFFFFFFFFFF DUP2 GT ISZERO PUSH2 0x2BF7 JUMPI PUSH2 0x2BF6 PUSH2 0x24F9 JUMP JUMPDEST JUMPDEST PUSH2 0x2C03 DUP11 DUP3 DUP12 ADD PUSH2 0x28D1 JUMP JUMPDEST SWAP4 POP POP PUSH1 0xA0 DUP9 ADD CALLDATALOAD PUSH8 0xFFFFFFFFFFFFFFFF DUP2 GT ISZERO PUSH2 0x2C24 JUMPI PUSH2 0x2C23 PUSH2 0x24F9 JUMP JUMPDEST JUMPDEST PUSH2 0x2C30 DUP11 DUP3 DUP12 ADD PUSH2 0x28D1 JUMP JUMPDEST SWAP3 POP POP PUSH1 0xC0 DUP9 ADD CALLDATALOAD PUSH8 0xFFFFFFFFFFFFFFFF DUP2 GT ISZERO PUSH2 0x2C51 JUMPI PUSH2 0x2C50 PUSH2 0x24F9 JUMP JUMPDEST JUMPDEST PUSH2 0x2C5D DUP11 DUP3 DUP12 ADD PUSH2 0x28D1 JUMP JUMPDEST SWAP2 POP POP SWAP3 SWAP6 SWAP9 SWAP2 SWAP5 SWAP8 POP SWAP3 SWAP6 POP JUMP JUMPDEST PUSH32 0x4F6E6C7920636F757273652063726561746F722063616E207769746864726177 PUSH0 DUP3 ADD MSTORE PUSH32 0x20746F6B656E7300000000000000000000000000000000000000000000000000 PUSH1 0x20 DUP3 ADD MSTORE POP JUMP JUMPDEST PUSH0 PUSH2 0x2CC6 PUSH1 0x27 DUP4 PUSH2 0x2977 JUMP JUMPDEST SWAP2 POP PUSH2 0x2CD1 DUP3 PUSH2 0x2C6C JUMP JUMPDEST PUSH1 0x40 DUP3 ADD SWAP1 POP SWAP2 SWAP1 POP JUMP JUMPDEST PUSH0 PUSH1 0x20 DUP3 ADD SWAP1 POP DUP2 DUP2 SUB PUSH0 DUP4 ADD MSTORE PUSH2 0x2CF3 DUP2 PUSH2 0x2CBA JUMP JUMPDEST SWAP1 POP SWAP2 SWAP1 POP JUMP JUMPDEST PUSH32 0x496E73756666696369656E7420726577617264656420746F6B656E7320746F20 PUSH0 DUP3 ADD MSTORE PUSH32 0x7769746864726177000000000000000000000000000000000000000000000000 PUSH1 0x20 DUP3 ADD MSTORE POP JUMP JUMPDEST PUSH0 PUSH2 0x2D54 PUSH1 0x28 DUP4 PUSH2 0x2977 JUMP JUMPDEST SWAP2 POP PUSH2 0x2D5F DUP3 PUSH2 0x2CFA JUMP JUMPDEST PUSH1 0x40 DUP3 ADD SWAP1 POP SWAP2 SWAP1 POP JUMP JUMPDEST PUSH0 PUSH1 0x20 DUP3 ADD SWAP1 POP DUP2 DUP2 SUB PUSH0 DUP4 ADD MSTORE PUSH2 0x2D81 DUP2 PUSH2 0x2D48 JUMP JUMPDEST SWAP1 POP SWAP2 SWAP1 POP JUMP JUMPDEST PUSH32 0x4E487B7100000000000000000000000000000000000000000000000000000000 PUSH0 MSTORE PUSH1 0x11 PUSH1 0x4 MSTORE PUSH1 0x24 PUSH0 REVERT JUMPDEST PUSH0 PUSH2 0x2DBF DUP3 PUSH2 0x24FD JUMP JUMPDEST SWAP2 POP PUSH2 0x2DCA DUP4 PUSH2 0x24FD JUMP JUMPDEST SWAP3 POP DUP3 DUP3 SUB SWAP1 POP DUP2 DUP2 GT ISZERO PUSH2 0x2DE2 JUMPI PUSH2 0x2DE1 PUSH2 0x2D88 JUMP JUMPDEST JUMPDEST SWAP3 SWAP2 POP POP JUMP JUMPDEST PUSH0 PUSH1 0x40 DUP3 ADD SWAP1 POP PUSH2 0x2DFB PUSH0 DUP4 ADD DUP6 PUSH2 0x2945 JUMP JUMPDEST PUSH2 0x2E08 PUSH1 0x20 DUP4 ADD DUP5 PUSH2 0x2761 JUMP JUMPDEST SWAP4 SWAP3 POP POP POP JUMP JUMPDEST PUSH2 0x2E18 DUP2 PUSH2 0x2606 JUMP JUMPDEST DUP2 EQ PUSH2 0x2E22 JUMPI PUSH0 DUP1 REVERT JUMPDEST POP JUMP JUMPDEST PUSH0 DUP2 MLOAD SWAP1 POP PUSH2 0x2E33 DUP2 PUSH2 0x2E0F JUMP JUMPDEST SWAP3 SWAP2 POP POP JUMP JUMPDEST PUSH0 PUSH1 0x20 DUP3 DUP5 SUB SLT ISZERO PUSH2 0x2E4E JUMPI PUSH2 0x2E4D PUSH2 0x24F5 JUMP JUMPDEST JUMPDEST PUSH0 PUSH2 0x2E5B DUP5 DUP3 DUP6 ADD PUSH2 0x2E25 JUMP JUMPDEST SWAP2 POP POP SWAP3 SWAP2 POP POP JUMP JUMPDEST PUSH32 0x4661696C656420746F207472616E73666572204D414E4420746F6B656E730000 PUSH0 DUP3 ADD MSTORE POP JUMP JUMPDEST PUSH0 PUSH2 0x2E98 PUSH1 0x1E DUP4 PUSH2 0x2977 JUMP JUMPDEST SWAP2 POP PUSH2 0x2EA3 DUP3 PUSH2 0x2E64 JUMP JUMPDEST PUSH1 0x20 DUP3 ADD SWAP1 POP SWAP2 SWAP1 POP JUMP JUMPDEST PUSH0 PUSH1 0x20 DUP3 ADD SWAP1 POP DUP2 DUP2 SUB PUSH0 DUP4 ADD MSTORE PUSH2 0x2EC5 DUP2 PUSH2 0x2E8C JUMP JUMPDEST SWAP1 POP SWAP2 SWAP1 POP JUMP JUMPDEST PUSH0 DUP2 MLOAD SWAP1 POP PUSH2 0x2EDA DUP2 PUSH2 0x2506 JUMP JUMPDEST SWAP3 SWAP2 POP POP JUMP JUMPDEST PUSH0 PUSH1 0x20 DUP3 DUP5 SUB SLT ISZERO PUSH2 0x2EF5 JUMPI PUSH2 0x2EF4 PUSH2 0x24F5 JUMP JUMPDEST JUMPDEST PUSH0 PUSH2 0x2F02 DUP5 DUP3 DUP6 ADD PUSH2 0x2ECC JUMP JUMPDEST SWAP2 POP POP SWAP3 SWAP2 POP POP JUMP JUMPDEST PUSH32 0x496E73756666696369656E742072657075746174696F6E20746F20656E726F6C PUSH0 DUP3 ADD MSTORE PUSH32 0x6C00000000000000000000000000000000000000000000000000000000000000 PUSH1 0x20 DUP3 ADD MSTORE POP JUMP JUMPDEST PUSH0 PUSH2 0x2F65 PUSH1 0x21 DUP4 PUSH2 0x2977 JUMP JUMPDEST SWAP2 POP PUSH2 0x2F70 DUP3 PUSH2 0x2F0B JUMP JUMPDEST PUSH1 0x40 DUP3 ADD SWAP1 POP SWAP2 SWAP1 POP JUMP JUMPDEST PUSH0 PUSH1 0x20 DUP3 ADD SWAP1 POP DUP2 DUP2 SUB PUSH0 DUP4 ADD MSTORE PUSH2 0x2F92 DUP2 PUSH2 0x2F59 JUMP JUMPDEST SWAP1 POP SWAP2 SWAP1 POP JUMP JUMPDEST PUSH32 0x436F75727365206E6F7420617070726F76656400000000000000000000000000 PUSH0 DUP3 ADD MSTORE POP JUMP JUMPDEST PUSH0 PUSH2 0x2FCD PUSH1 0x13 DUP4 PUSH2 0x2977 JUMP JUMPDEST SWAP2 POP PUSH2 0x2FD8 DUP3 PUSH2 0x2F99 JUMP JUMPDEST PUSH1 0x20 DUP3 ADD SWAP1 POP SWAP2 SWAP1 POP JUMP JUMPDEST PUSH0 PUSH1 0x20 DUP3 ADD SWAP1 POP DUP2 DUP2 SUB PUSH0 DUP4 ADD MSTORE PUSH2 0x2FFA DUP2 PUSH2 0x2FC1 JUMP JUMPDEST SWAP1 POP SWAP2 SWAP1 POP JUMP JUMPDEST PUSH32 0x416C726561647920656E726F6C6C656400000000000000000000000000000000 PUSH0 DUP3 ADD MSTORE POP JUMP JUMPDEST PUSH0 PUSH2 0x3035 PUSH1 0x10 DUP4 PUSH2 0x2977 JUMP JUMPDEST SWAP2 POP PUSH2 0x3040 DUP3 PUSH2 0x3001 JUMP JUMPDEST PUSH1 0x20 DUP3 ADD SWAP1 POP SWAP2 SWAP1 POP JUMP JUMPDEST PUSH0 PUSH1 0x20 DUP3 ADD SWAP1 POP DUP2 DUP2 SUB PUSH0 DUP4 ADD MSTORE PUSH2 0x3062 DUP2 PUSH2 0x3029 JUMP JUMPDEST SWAP1 POP SWAP2 SWAP1 POP JUMP JUMPDEST PUSH32 0x436F7572736520616C726561647920617070726F766564000000000000000000 PUSH0 DUP3 ADD MSTORE POP JUMP JUMPDEST PUSH0 PUSH2 0x309D PUSH1 0x17 DUP4 PUSH2 0x2977 JUMP JUMPDEST SWAP2 POP PUSH2 0x30A8 DUP3 PUSH2 0x3069 JUMP JUMPDEST PUSH1 0x20 DUP3 ADD SWAP1 POP SWAP2 SWAP1 POP JUMP JUMPDEST PUSH0 PUSH1 0x20 DUP3 ADD SWAP1 POP DUP2 DUP2 SUB PUSH0 DUP4 ADD MSTORE PUSH2 0x30CA DUP2 PUSH2 0x3091 JUMP JUMPDEST SWAP1 POP SWAP2 SWAP1 POP JUMP JUMPDEST PUSH32 0x496E73756666696369656E742072657075746174696F6E20746F206372656174 PUSH0 DUP3 ADD MSTORE PUSH32 0x6520636F75727365000000000000000000000000000000000000000000000000 PUSH1 0x20 DUP3 ADD MSTORE POP JUMP JUMPDEST PUSH0 PUSH2 0x312B PUSH1 0x28 DUP4 PUSH2 0x2977 JUMP JUMPDEST SWAP2 POP PUSH2 0x3136 DUP3 PUSH2 0x30D1 JUMP JUMPDEST PUSH1 0x40 DUP3 ADD SWAP1 POP SWAP2 SWAP1 POP JUMP JUMPDEST PUSH0 PUSH1 0x20 DUP3 ADD SWAP1 POP DUP2 DUP2 SUB PUSH0 DUP4 ADD MSTORE PUSH2 0x3158 DUP2 PUSH2 0x311F JUMP JUMPDEST SWAP1 POP SWAP2 SWAP1 POP JUMP JUMPDEST PUSH0 PUSH2 0x3169 DUP3 PUSH2 0x24FD JUMP JUMPDEST SWAP2 POP PUSH32 0xFFFFFFFFFFFFFFFFFFFFFFFFFFFFFFFFFFFFFFFFFFFFFFFFFFFFFFFFFFFFFFFF DUP3 SUB PUSH2 0x319B JUMPI PUSH2 0x319A PUSH2 0x2D88 JUMP JUMPDEST JUMPDEST PUSH1 0x1 DUP3 ADD SWAP1 POP SWAP2 SWAP1 POP JUMP JUMPDEST PUSH32 0x4E487B7100000000000000000000000000000000000000000000000000000000 PUSH0 MSTORE PUSH1 0x22 PUSH1 0x4 MSTORE PUSH1 0x24 PUSH0 REVERT JUMPDEST PUSH0 PUSH1 0x2 DUP3 DIV SWAP1 POP PUSH1 0x1 DUP3 AND DUP1 PUSH2 0x31EA JUMPI PUSH1 0x7F DUP3 AND SWAP2 POP JUMPDEST PUSH1 0x20 DUP3 LT DUP2 SUB PUSH2 0x31FD JUMPI PUSH2 0x31FC PUSH2 0x31A6 JUMP JUMPDEST JUMPDEST POP SWAP2 SWAP1 POP JUMP JUMPDEST PUSH0 DUP2 SWAP1 POP DUP2 PUSH0 MSTORE PUSH1 0x20 PUSH0 KECCAK256 SWAP1 POP SWAP2 SWAP1 POP JUMP JUMPDEST PUSH0 PUSH1 0x20 PUSH1 0x1F DUP4 ADD DIV SWAP1 POP SWAP2 SWAP1 POP JUMP JUMPDEST PUSH0 DUP3 DUP3 SHL SWAP1 POP SWAP3 SWAP2 POP POP JUMP JUMPDEST PUSH0 PUSH1 0x8 DUP4 MUL PUSH2 0x325F PUSH32 0xFFFFFFFFFFFFFFFFFFFFFFFFFFFFFFFFFFFFFFFFFFFFFFFFFFFFFFFFFFFFFFFF DUP3 PUSH2 0x3224 JUMP JUMPDEST PUSH2 0x3269 DUP7 DUP4 PUSH2 0x3224 JUMP JUMPDEST SWAP6 POP DUP1 NOT DUP5 AND SWAP4 POP DUP1 DUP7 AND DUP5 OR SWAP3 POP POP POP SWAP4 SWAP3 POP POP POP JUMP JUMPDEST PUSH0 PUSH2 0x329B PUSH2 0x3296 PUSH2 0x3291 DUP5 PUSH2 0x24FD JUMP JUMPDEST PUSH2 0x267E JUMP JUMPDEST PUSH2 0x24FD JUMP JUMPDEST SWAP1 POP SWAP2 SWAP1 POP JUMP JUMPDEST PUSH0 DUP2 SWAP1 POP SWAP2 SWAP1 POP JUMP JUMPDEST PUSH2 0x32B4 DUP4 PUSH2 0x3281 JUMP JUMPDEST PUSH2 0x32C8 PUSH2 0x32C0 DUP3 PUSH2 0x32A2 JUMP JUMPDEST DUP5 DUP5 SLOAD PUSH2 0x3230 JUMP JUMPDEST DUP3 SSTORE POP POP POP POP JUMP JUMPDEST PUSH0 SWAP1 JUMP JUMPDEST PUSH2 0x32DC PUSH2 0x32D0 JUMP JUMPDEST PUSH2 0x32E7 DUP2 DUP5 DUP5 PUSH2 0x32AB JUMP JUMPDEST POP POP POP JUMP JUMPDEST JUMPDEST DUP2 DUP2 LT ISZERO PUSH2 0x330A JUMPI PUSH2 0x32FF PUSH0 DUP3 PUSH2 0x32D4 JUMP JUMPDEST PUSH1 0x1 DUP2 ADD SWAP1 POP PUSH2 0x32ED JUMP JUMPDEST POP POP JUMP JUMPDEST PUSH1 0x1F DUP3 GT ISZERO PUSH2 0x334F JUMPI PUSH2 0x3320 DUP2 PUSH2 0x3203 JUMP JUMPDEST PUSH2 0x3329 DUP5 PUSH2 0x3215 JUMP JUMPDEST DUP2 ADD PUSH1 0x20 DUP6 LT ISZERO PUSH2 0x3338 JUMPI DUP2 SWAP1 POP JUMPDEST PUSH2 0x334C PUSH2 0x3344 DUP6 PUSH2 0x3215 JUMP JUMPDEST DUP4 ADD DUP3 PUSH2 0x32EC JUMP JUMPDEST POP POP JUMPDEST POP POP POP JUMP JUMPDEST PUSH0 DUP3 DUP3 SHR SWAP1 POP SWAP3 SWAP2 POP POP JUMP JUMPDEST PUSH0 PUSH2 0x336F PUSH0 NOT DUP5 PUSH1 0x8 MUL PUSH2 0x3354 JUMP JUMPDEST NOT DUP1 DUP4 AND SWAP2 POP POP SWAP3 SWAP2 POP POP JUMP JUMPDEST PUSH0 PUSH2 0x3387 DUP4 DUP4 PUSH2 0x3360 JUMP JUMPDEST SWAP2 POP DUP3 PUSH1 0x2 MUL DUP3 OR SWAP1 POP SWAP3 SWAP2 POP POP JUMP JUMPDEST PUSH2 0x33A0 DUP3 PUSH2 0x296D JUMP JUMPDEST PUSH8 0xFFFFFFFFFFFFFFFF DUP2 GT ISZERO PUSH2 0x33B9 JUMPI PUSH2 0x33B8 PUSH2 0x27DA JUMP JUMPDEST JUMPDEST PUSH2 0x33C3 DUP3 SLOAD PUSH2 0x31D3 JUMP JUMPDEST PUSH2 0x33CE DUP3 DUP3 DUP6 PUSH2 0x330E JUMP JUMPDEST PUSH0 PUSH1 0x20 SWAP1 POP PUSH1 0x1F DUP4 GT PUSH1 0x1 DUP2 EQ PUSH2 0x33FF JUMPI PUSH0 DUP5 ISZERO PUSH2 0x33ED JUMPI DUP3 DUP8 ADD MLOAD SWAP1 POP JUMPDEST PUSH2 0x33F7 DUP6 DUP3 PUSH2 0x337C JUMP JUMPDEST DUP7 SSTORE POP PUSH2 0x345E JUMP JUMPDEST PUSH1 0x1F NOT DUP5 AND PUSH2 0x340D DUP7 PUSH2 0x3203 JUMP JUMPDEST PUSH0 JUMPDEST DUP3 DUP2 LT ISZERO PUSH2 0x3434 JUMPI DUP5 DUP10 ADD MLOAD DUP3 SSTORE PUSH1 0x1 DUP3 ADD SWAP2 POP PUSH1 0x20 DUP6 ADD SWAP5 POP PUSH1 0x20 DUP2 ADD SWAP1 POP PUSH2 0x340F JUMP JUMPDEST DUP7 DUP4 LT ISZERO PUSH2 0x3451 JUMPI DUP5 DUP10 ADD MLOAD PUSH2 0x344D PUSH1 0x1F DUP10 AND DUP3 PUSH2 0x3360 JUMP JUMPDEST DUP4 SSTORE POP JUMPDEST PUSH1 0x1 PUSH1 0x2 DUP9 MUL ADD DUP9 SSTORE POP POP POP JUMPDEST POP POP POP POP POP POP JUMP JUMPDEST PUSH32 0x436F75727365206E6F7420706173736564000000000000000000000000000000 PUSH0 DUP3 ADD MSTORE POP JUMP JUMPDEST PUSH0 PUSH2 0x349A PUSH1 0x11 DUP4 PUSH2 0x2977 JUMP JUMPDEST SWAP2 POP PUSH2 0x34A5 DUP3 PUSH2 0x3466 JUMP JUMPDEST PUSH1 0x20 DUP3 ADD SWAP1 POP SWAP2 SWAP1 POP JUMP JUMPDEST PUSH0 PUSH1 0x20 DUP3 ADD SWAP1 POP DUP2 DUP2 SUB PUSH0 DUP4 ADD MSTORE PUSH2 0x34C7 DUP2 PUSH2 0x348E JUMP JUMPDEST SWAP1 POP SWAP2 SWAP1 POP JUMP JUMPDEST PUSH32 0x52657761726420616C726561647920636C61696D656400000000000000000000 PUSH0 DUP3 ADD MSTORE POP JUMP JUMPDEST PUSH0 PUSH2 0x3502 PUSH1 0x16 DUP4 PUSH2 0x2977 JUMP JUMPDEST SWAP2 POP PUSH2 0x350D DUP3 PUSH2 0x34CE JUMP JUMPDEST PUSH1 0x20 DUP3 ADD SWAP1 POP SWAP2 SWAP1 POP JUMP JUMPDEST PUSH0 PUSH1 0x20 DUP3 ADD SWAP1 POP DUP2 DUP2 SUB PUSH0 DUP4 ADD MSTORE PUSH2 0x352F DUP2 PUSH2 0x34F6 JUMP JUMPDEST SWAP1 POP SWAP2 SWAP1 POP JUMP JUMPDEST PUSH0 PUSH2 0x3540 DUP3 PUSH2 0x24FD JUMP JUMPDEST SWAP2 POP PUSH2 0x354B DUP4 PUSH2 0x24FD JUMP JUMPDEST SWAP3 POP DUP3 DUP3 ADD SWAP1 POP DUP1 DUP3 GT ISZERO PUSH2 0x3563 JUMPI PUSH2 0x3562 PUSH2 0x2D88 JUMP JUMPDEST JUMPDEST SWAP3 SWAP2 POP POP JUMP JUMPDEST PUSH32 0x4F6E6C7920636F757273652063726561746F722063616E20636C61696D207265 PUSH0 DUP3 ADD MSTORE PUSH32 0x7761726400000000000000000000000000000000000000000000000000000000 PUSH1 0x20 DUP3 ADD MSTORE POP JUMP JUMPDEST PUSH0 PUSH2 0x35C3 PUSH1 0x24 DUP4 PUSH2 0x2977 JUMP JUMPDEST SWAP2 POP PUSH2 0x35CE DUP3 PUSH2 0x3569 JUMP JUMPDEST PUSH1 0x40 DUP3 ADD SWAP1 POP SWAP2 SWAP1 POP JUMP JUMPDEST PUSH0 PUSH1 0x20 DUP3 ADD SWAP1 POP DUP2 DUP2 SUB PUSH0 DUP4 ADD MSTORE PUSH2 0x35F0 DUP2 PUSH2 0x35B7 JUMP JUMPDEST SWAP1 POP SWAP2 SWAP1 POP JUMP JUMPDEST PUSH0 PUSH2 0x3601 DUP3 PUSH2 0x24FD JUMP JUMPDEST SWAP2 POP PUSH2 0x360C DUP4 PUSH2 0x24FD JUMP JUMPDEST SWAP3 POP DUP3 DUP3 MUL PUSH2 0x361A DUP2 PUSH2 0x24FD JUMP JUMPDEST SWAP2 POP DUP3 DUP3 DIV DUP5 EQ DUP4 ISZERO OR PUSH2 0x3631 JUMPI PUSH2 0x3630 PUSH2 0x2D88 JUMP JUMPDEST JUMPDEST POP SWAP3 SWAP2 POP POP JUMP JUMPDEST PUSH32 0x55736572206E6F7420656E726F6C6C656420696E207468697320636F75727365 PUSH0 DUP3 ADD MSTORE POP JUMP JUMPDEST PUSH0 PUSH2 0x366C PUSH1 0x20 DUP4 PUSH2 0x2977 JUMP JUMPDEST SWAP2 POP PUSH2 0x3677 DUP3 PUSH2 0x3638 JUMP JUMPDEST PUSH1 0x20 DUP3 ADD SWAP1 POP SWAP2 SWAP1 POP JUMP JUMPDEST PUSH0 PUSH1 0x20 DUP3 ADD SWAP1 POP DUP2 DUP2 SUB PUSH0 DUP4 ADD MSTORE PUSH2 0x3699 DUP2 PUSH2 0x3660 JUMP JUMPDEST SWAP1 POP SWAP2 SWAP1 POP JUMP JUMPDEST PUSH32 0x4D6178696D756D20617474656D70747320726561636865640000000000000000 PUSH0 DUP3 ADD MSTORE POP JUMP JUMPDEST PUSH0 PUSH2 0x36D4 PUSH1 0x18 DUP4 PUSH2 0x2977 JUMP JUMPDEST SWAP2 POP PUSH2 0x36DF DUP3 PUSH2 0x36A0 JUMP JUMPDEST PUSH1 0x20 DUP3 ADD SWAP1 POP SWAP2 SWAP1 POP JUMP JUMPDEST PUSH0 PUSH1 0x20 DUP3 ADD SWAP1 POP DUP2 DUP2 SUB PUSH0 DUP4 ADD MSTORE PUSH2 0x3701 DUP2 PUSH2 0x36C8 JUMP JUMPDEST SWAP1 POP SWAP2 SWAP1 POP JUMP JUMPDEST PUSH32 0x557365722068617320616C726561647920706173736564207468697320636F75 PUSH0 DUP3 ADD MSTORE PUSH32 0x7273650000000000000000000000000000000000000000000000000000000000 PUSH1 0x20 DUP3 ADD MSTORE POP JUMP JUMPDEST PUSH0 PUSH2 0x3762 PUSH1 0x23 DUP4 PUSH2 0x2977 JUMP JUMPDEST SWAP2 POP PUSH2 0x376D DUP3 PUSH2 0x3708 JUMP JUMPDEST PUSH1 0x40 DUP3 ADD SWAP1 POP SWAP2 SWAP1 POP JUMP JUMPDEST PUSH0 PUSH1 0x20 DUP3 ADD SWAP1 POP DUP2 DUP2 SUB PUSH0 DUP4 ADD MSTORE PUSH2 0x378F DUP2 PUSH2 0x3756 JUMP JUMPDEST SWAP1 POP SWAP2 SWAP1 POP JUMP JUMPDEST PUSH0 PUSH2 0x37A0 DUP3 PUSH2 0x2620 JUMP JUMPDEST SWAP2 POP PUSH1 0xFF DUP3 SUB PUSH2 0x37B3 JUMPI PUSH2 0x37B2 PUSH2 0x2D88 JUMP JUMPDEST JUMPDEST PUSH1 0x1 DUP3 ADD SWAP1 POP SWAP2 SWAP1 POP JUMP JUMPDEST PUSH32 0x4E487B7100000000000000000000000000000000000000000000000000000000 PUSH0 MSTORE PUSH1 0x32 PUSH1 0x4 MSTORE PUSH1 0x24 PUSH0 REVERT JUMPDEST PUSH0 DUP2 SWAP1 POP SWAP3 SWAP2 POP POP JUMP JUMPDEST PUSH0 PUSH2 0x37FF DUP3 PUSH2 0x296D JUMP JUMPDEST PUSH2 0x3809 DUP2 DUP6 PUSH2 0x37EB JUMP JUMPDEST SWAP4 POP PUSH2 0x3819 DUP2 DUP6 PUSH1 0x20 DUP7 ADD PUSH2 0x2987 JUMP JUMPDEST DUP1 DUP5 ADD SWAP2 POP POP SWAP3 SWAP2 POP POP JUMP JUMPDEST PUSH0 PUSH2 0x3830 DUP3 DUP5 PUSH2 0x37F5 JUMP JUMPDEST SWAP2 POP DUP2 SWAP1 POP SWAP3 SWAP2 POP POP JUMP JUMPDEST PUSH32 0x4F6E6C7920636F757273652063726561746F722063616E206372656174652061 PUSH0 DUP3 ADD MSTORE PUSH32 0x207175697A000000000000000000000000000000000000000000000000000000 PUSH1 0x20 DUP3 ADD MSTORE POP JUMP JUMPDEST PUSH0 PUSH2 0x3895 PUSH1 0x25 DUP4 PUSH2 0x2977 JUMP JUMPDEST SWAP2 POP PUSH2 0x38A0 DUP3 PUSH2 0x383B JUMP JUMPDEST PUSH1 0x40 DUP3 ADD SWAP1 POP SWAP2 SWAP1 POP JUMP JUMPDEST PUSH0 PUSH1 0x20 DUP3 ADD SWAP1 POP DUP2 DUP2 SUB PUSH0 DUP4 ADD MSTORE PUSH2 0x38C2 DUP2 PUSH2 0x3889 JUMP JUMPDEST SWAP1 POP SWAP2 SWAP1 POP JUMP JUMPDEST PUSH32 0x436F75727365206D75737420626520617070726F76656420746F206372656174 PUSH0 DUP3 ADD MSTORE PUSH32 0x652061207175697A000000000000000000000000000000000000000000000000 PUSH1 0x20 DUP3 ADD MSTORE POP JUMP JUMPDEST PUSH0 PUSH2 0x3923 PUSH1 0x28 DUP4 PUSH2 0x2977 JUMP JUMPDEST SWAP2 POP PUSH2 0x392E DUP3 PUSH2 0x38C9 JUMP JUMPDEST PUSH1 0x40 DUP3 ADD SWAP1 POP SWAP2 SWAP1 POP JUMP JUMPDEST PUSH0 PUSH1 0x20 DUP3 ADD SWAP1 POP DUP2 DUP2 SUB PUSH0 DUP4 ADD MSTORE PUSH2 0x3950 DUP2 PUSH2 0x3917 JUMP JUMPDEST SWAP1 POP SWAP2 SWAP1 POP JUMP JUMPDEST PUSH32 0x4100000000000000000000000000000000000000000000000000000000000000 PUSH0 DUP3 ADD MSTORE POP JUMP JUMPDEST PUSH0 PUSH2 0x398B PUSH1 0x1 DUP4 PUSH2 0x37EB JUMP JUMPDEST SWAP2 POP PUSH2 0x3996 DUP3 PUSH2 0x3957 JUMP JUMPDEST PUSH1 0x1 DUP3 ADD SWAP1 POP SWAP2 SWAP1 POP JUMP JUMPDEST PUSH0 PUSH2 0x39AB DUP3 PUSH2 0x397F JUMP JUMPDEST SWAP2 POP DUP2 SWAP1 POP SWAP2 SWAP1 POP JUMP JUMPDEST PUSH32 0x4200000000000000000000000000000000000000000000000000000000000000 PUSH0 DUP3 ADD MSTORE POP JUMP JUMPDEST PUSH0 PUSH2 0x39E9 PUSH1 0x1 DUP4 PUSH2 0x37EB JUMP JUMPDEST SWAP2 POP PUSH2 0x39F4 DUP3 PUSH2 0x39B5 JUMP JUMPDEST PUSH1 0x1 DUP3 ADD SWAP1 POP SWAP2 SWAP1 POP JUMP JUMPDEST PUSH0 PUSH2 0x3A09 DUP3 PUSH2 0x39DD JUMP JUMPDEST SWAP2 POP DUP2 SWAP1 POP SWAP2 SWAP1 POP JUMP JUMPDEST PUSH32 0x4300000000000000000000000000000000000000000000000000000000000000 PUSH0 DUP3 ADD MSTORE POP JUMP JUMPDEST PUSH0 PUSH2 0x3A47 PUSH1 0x1 DUP4 PUSH2 0x37EB JUMP JUMPDEST SWAP2 POP PUSH2 0x3A52 DUP3 PUSH2 0x3A13 JUMP JUMPDEST PUSH1 0x1 DUP3 ADD SWAP1 POP SWAP2 SWAP1 POP JUMP JUMPDEST PUSH0 PUSH2 0x3A67 DUP3 PUSH2 0x3A3B JUMP JUMPDEST SWAP2 POP DUP2 SWAP1 POP SWAP2 SWAP1 POP JUMP JUMPDEST PUSH32 0x4400000000000000000000000000000000000000000000000000000000000000 PUSH0 DUP3 ADD MSTORE POP JUMP JUMPDEST PUSH0 PUSH2 0x3AA5 PUSH1 0x1 DUP4 PUSH2 0x37EB JUMP JUMPDEST SWAP2 POP PUSH2 0x3AB0 DUP3 PUSH2 0x3A71 JUMP JUMPDEST PUSH1 0x1 DUP3 ADD SWAP1 POP SWAP2 SWAP1 POP JUMP JUMPDEST PUSH0 PUSH2 0x3AC5 DUP3 PUSH2 0x3A99 JUMP JUMPDEST SWAP2 POP DUP2 SWAP1 POP SWAP2 SWAP1 POP JUMP JUMPDEST PUSH32 0x496E76616C696420636F727265637420616E7377657200000000000000000000 PUSH0 DUP3 ADD MSTORE POP JUMP JUMPDEST PUSH0 PUSH2 0x3B03 PUSH1 0x16 DUP4 PUSH2 0x2977 JUMP JUMPDEST SWAP2 POP PUSH2 0x3B0E DUP3 PUSH2 0x3ACF JUMP JUMPDEST PUSH1 0x20 DUP3 ADD SWAP1 POP SWAP2 SWAP1 POP JUMP JUMPDEST PUSH0 PUSH1 0x20 DUP3 ADD SWAP1 POP DUP2 DUP2 SUB PUSH0 DUP4 ADD MSTORE PUSH2 0x3B30 DUP2 PUSH2 0x3AF7 JUMP JUMPDEST SWAP1 POP SWAP2 SWAP1 POP JUMP JUMPDEST PUSH32 0x4661696C656420746F20776974686472617720746F6B656E7300000000000000 PUSH0 DUP3 ADD MSTORE POP JUMP JUMPDEST PUSH0 PUSH2 0x3B6B PUSH1 0x19 DUP4 PUSH2 0x2977 JUMP JUMPDEST SWAP2 POP PUSH2 0x3B76 DUP3 PUSH2 0x3B37 JUMP JUMPDEST PUSH1 0x20 DUP3 ADD SWAP1 POP SWAP2 SWAP1 POP JUMP JUMPDEST PUSH0 PUSH1 0x20 DUP3 ADD SWAP1 POP DUP2 DUP2 SUB PUSH0 DUP4 ADD MSTORE PUSH2 0x3B98 DUP2 PUSH2 0x3B5F JUMP JUMPDEST SWAP1 POP SWAP2 SWAP1 POP JUMP JUMPDEST PUSH32 0x5061757361626C653A206E6F7420706175736564000000000000000000000000 PUSH0 DUP3 ADD MSTORE POP JUMP JUMPDEST PUSH0 PUSH2 0x3BD3 PUSH1 0x14 DUP4 PUSH2 0x2977 JUMP JUMPDEST SWAP2 POP PUSH2 0x3BDE DUP3 PUSH2 0x3B9F JUMP JUMPDEST PUSH1 0x20 DUP3 ADD SWAP1 POP SWAP2 SWAP1 POP JUMP JUMPDEST PUSH0 PUSH1 0x20 DUP3 ADD SWAP1 POP DUP2 DUP2 SUB PUSH0 DUP4 ADD MSTORE PUSH2 0x3C00 DUP2 PUSH2 0x3BC7 JUMP JUMPDEST SWAP1 POP SWAP2 SWAP1 POP JUMP JUMPDEST PUSH32 0x5061757361626C653A2070617573656400000000000000000000000000000000 PUSH0 DUP3 ADD MSTORE POP JUMP JUMPDEST PUSH0 PUSH2 0x3C3B PUSH1 0x10 DUP4 PUSH2 0x2977 JUMP JUMPDEST SWAP2 POP PUSH2 0x3C46 DUP3 PUSH2 0x3C07 JUMP JUMPDEST PUSH1 0x20 DUP3 ADD SWAP1 POP SWAP2 SWAP1 POP JUMP JUMPDEST PUSH0 PUSH1 0x20 DUP3 ADD SWAP1 POP DUP2 DUP2 SUB PUSH0 DUP4 ADD MSTORE PUSH2 0x3C68 DUP2 PUSH2 0x3C2F JUMP JUMPDEST SWAP1 POP SWAP2 SWAP1 POP JUMP INVALID LOG2 PUSH5 0x6970667358 0x22 SLT KECCAK256 SWAP5 0xDD LOG2 0xC2 DUP8 SWAP6 0x28 0xEC SWAP12 0xC4 0xC6 0xF 0x22 0x4E CREATE2 MULMOD PREVRANDAO PREVRANDAO 0x4C JUMPDEST BYTE DUP11 PUSH6 0xBC857CCF3B96 0x2A 0xFB 0xE0 PUSH5 0x736F6C6343 STOP ADDMOD BYTE STOP CALLER "
		},
		"gasEstimates": {
			"creation": {
				"codeDepositCost": "3105000",
				"executionCost": "infinite",
				"totalCost": "infinite"
			},
			"external": {
				"CREATOR_REWARD_AMOUNT()": "414",
				"ENROLL_THRESHOLD()": "414",
				"POST_THRESHOLD()": "392",
				"STUDENT_REWARD_AMOUNT()": "435",
				"approveCourse(uint256)": "infinite",
				"attemptQuiz(uint256,string)": "infinite",
				"claimCreatorReward(uint256)": "infinite",
				"claimStudentReward(uint256)": "infinite",
				"courseCount()": "2493",
				"courseQuizzes(uint256,uint256)": "infinite",
				"courses(uint256)": "infinite",
				"createCourse(string)": "infinite",
				"createQuiz(uint256,string,string,string,string,string,string)": "infinite",
				"enrollInCourse(uint256)": "infinite",
				"enrollments(address,uint256)": "infinite",
				"mandToken()": "infinite",
				"owner()": "2561",
				"pause()": "infinite",
				"paused()": "2658",
				"renounceOwnership()": "infinite",
				"reputationContract()": "infinite",
				"transferOwnership(address)": "infinite",
				"unpause()": "infinite",
				"updateMandToken(address)": "infinite",
				"updateReputationContract(address)": "infinite",
				"withdrawCreatorTokens(uint256,uint256)": "infinite",
				"withdrawExcessTokens(uint256)": "infinite"
			}
		},
		"methodIdentifiers": {
			"CREATOR_REWARD_AMOUNT()": "cf90b3be",
			"ENROLL_THRESHOLD()": "ae24f005",
			"POST_THRESHOLD()": "a4e1f033",
			"STUDENT_REWARD_AMOUNT()": "fbf1aded",
			"approveCourse(uint256)": "75284998",
			"attemptQuiz(uint256,string)": "bba33093",
			"claimCreatorReward(uint256)": "ba2f0362",
			"claimStudentReward(uint256)": "996b5d8e",
			"courseCount()": "66055159",
			"courseQuizzes(uint256,uint256)": "b0aaefd6",
			"courses(uint256)": "96f979d2",
			"createCourse(string)": "8a38ab2c",
			"createQuiz(uint256,string,string,string,string,string,string)": "d69c575b",
			"enrollInCourse(uint256)": "5e52da27",
			"enrollments(address,uint256)": "07f910f8",
			"mandToken()": "17f5e33d",
			"owner()": "8da5cb5b",
			"pause()": "8456cb59",
			"paused()": "5c975abb",
			"renounceOwnership()": "715018a6",
			"reputationContract()": "87bc1425",
			"transferOwnership(address)": "f2fde38b",
			"unpause()": "3f4ba83a",
			"updateMandToken(address)": "3a447e76",
			"updateReputationContract(address)": "905baa61",
			"withdrawCreatorTokens(uint256,uint256)": "03b1965b",
			"withdrawExcessTokens(uint256)": "e111f6b4"
		}
	},
	"abi": [
		{
			"inputs": [
				{
					"internalType": "address",
					"name": "_mandToken",
					"type": "address"
				},
				{
					"internalType": "address",
					"name": "_reputationContract",
					"type": "address"
				}
			],
			"stateMutability": "nonpayable",
			"type": "constructor"
		},
		{
			"inputs": [
				{
					"internalType": "address",
					"name": "owner",
					"type": "address"
				}
			],
			"name": "OwnableInvalidOwner",
			"type": "error"
		},
		{
			"inputs": [
				{
					"internalType": "address",
					"name": "account",
					"type": "address"
				}
			],
			"name": "OwnableUnauthorizedAccount",
			"type": "error"
		},
		{
			"anonymous": false,
			"inputs": [
				{
					"indexed": true,
					"internalType": "uint256",
					"name": "courseId",
					"type": "uint256"
				}
			],
			"name": "CourseApproved",
			"type": "event"
		},
		{
			"anonymous": false,
			"inputs": [
				{
					"indexed": true,
					"internalType": "uint256",
					"name": "courseId",
					"type": "uint256"
				},
				{
					"indexed": true,
					"internalType": "address",
					"name": "creator",
					"type": "address"
				}
			],
			"name": "CourseCreated",
			"type": "event"
		},
		{
			"anonymous": false,
			"inputs": [
				{
					"indexed": true,
					"internalType": "uint256",
					"name": "courseId",
					"type": "uint256"
				},
				{
					"indexed": true,
					"internalType": "address",
					"name": "creator",
					"type": "address"
				},
				{
					"indexed": false,
					"internalType": "uint256",
					"name": "amount",
					"type": "uint256"
				}
			],
			"name": "CreatorRewardClaimed",
			"type": "event"
		},
		{
			"anonymous": false,
			"inputs": [
				{
					"indexed": true,
					"internalType": "uint256",
					"name": "courseId",
					"type": "uint256"
				},
				{
					"indexed": true,
					"internalType": "address",
					"name": "creator",
					"type": "address"
				},
				{
					"indexed": false,
					"internalType": "uint256",
					"name": "amount",
					"type": "uint256"
				}
			],
			"name": "CreatorWithdrawal",
			"type": "event"
		},
		{
			"anonymous": false,
			"inputs": [
				{
					"indexed": true,
					"internalType": "address",
					"name": "previousOwner",
					"type": "address"
				},
				{
					"indexed": true,
					"internalType": "address",
					"name": "newOwner",
					"type": "address"
				}
			],
			"name": "OwnershipTransferred",
			"type": "event"
		},
		{
			"anonymous": false,
			"inputs": [
				{
					"indexed": false,
					"internalType": "address",
					"name": "account",
					"type": "address"
				}
			],
			"name": "Paused",
			"type": "event"
		},
		{
			"anonymous": false,
			"inputs": [
				{
					"indexed": true,
					"internalType": "uint256",
					"name": "courseId",
					"type": "uint256"
				},
				{
					"indexed": true,
					"internalType": "address",
					"name": "user",
					"type": "address"
				},
				{
					"indexed": false,
					"internalType": "bool",
					"name": "passed",
					"type": "bool"
				}
			],
			"name": "QuizAttempted",
			"type": "event"
		},
		{
			"anonymous": false,
			"inputs": [
				{
					"indexed": true,
					"internalType": "uint256",
					"name": "courseId",
					"type": "uint256"
				},
				{
					"indexed": false,
					"internalType": "uint256",
					"name": "quizId",
					"type": "uint256"
				}
			],
			"name": "QuizCreated",
			"type": "event"
		},
		{
			"anonymous": false,
			"inputs": [
				{
					"indexed": true,
					"internalType": "uint256",
					"name": "courseId",
					"type": "uint256"
				},
				{
					"indexed": true,
					"internalType": "address",
					"name": "user",
					"type": "address"
				},
				{
					"indexed": false,
					"internalType": "uint256",
					"name": "amount",
					"type": "uint256"
				}
			],
			"name": "RewardClaimed",
			"type": "event"
		},
		{
			"anonymous": false,
			"inputs": [
				{
					"indexed": false,
					"internalType": "address",
					"name": "account",
					"type": "address"
				}
			],
			"name": "Unpaused",
			"type": "event"
		},
		{
			"anonymous": false,
			"inputs": [
				{
					"indexed": true,
					"internalType": "uint256",
					"name": "courseId",
					"type": "uint256"
				},
				{
					"indexed": true,
					"internalType": "address",
					"name": "user",
					"type": "address"
				}
			],
			"name": "UserEnrolled",
			"type": "event"
		},
		{
			"inputs": [],
			"name": "CREATOR_REWARD_AMOUNT",
			"outputs": [
				{
					"internalType": "uint256",
					"name": "",
					"type": "uint256"
				}
			],
			"stateMutability": "view",
			"type": "function"
		},
		{
			"inputs": [],
			"name": "ENROLL_THRESHOLD",
			"outputs": [
				{
					"internalType": "uint256",
					"name": "",
					"type": "uint256"
				}
			],
			"stateMutability": "view",
			"type": "function"
		},
		{
			"inputs": [],
			"name": "POST_THRESHOLD",
			"outputs": [
				{
					"internalType": "uint256",
					"name": "",
					"type": "uint256"
				}
			],
			"stateMutability": "view",
			"type": "function"
		},
		{
			"inputs": [],
			"name": "STUDENT_REWARD_AMOUNT",
			"outputs": [
				{
					"internalType": "uint256",
					"name": "",
					"type": "uint256"
				}
			],
			"stateMutability": "view",
			"type": "function"
		},
		{
			"inputs": [
				{
					"internalType": "uint256",
					"name": "_courseId",
					"type": "uint256"
				}
			],
			"name": "approveCourse",
			"outputs": [],
			"stateMutability": "nonpayable",
			"type": "function"
		},
		{
			"inputs": [
				{
					"internalType": "uint256",
					"name": "_courseId",
					"type": "uint256"
				},
				{
					"internalType": "string",
					"name": "_answer",
					"type": "string"
				}
			],
			"name": "attemptQuiz",
			"outputs": [],
			"stateMutability": "nonpayable",
			"type": "function"
		},
		{
			"inputs": [
				{
					"internalType": "uint256",
					"name": "_courseId",
					"type": "uint256"
				}
			],
			"name": "claimCreatorReward",
			"outputs": [],
			"stateMutability": "nonpayable",
			"type": "function"
		},
		{
			"inputs": [
				{
					"internalType": "uint256",
					"name": "_courseId",
					"type": "uint256"
				}
			],
			"name": "claimStudentReward",
			"outputs": [],
			"stateMutability": "nonpayable",
			"type": "function"
		},
		{
			"inputs": [],
			"name": "courseCount",
			"outputs": [
				{
					"internalType": "uint256",
					"name": "",
					"type": "uint256"
				}
			],
			"stateMutability": "view",
			"type": "function"
		},
		{
			"inputs": [
				{
					"internalType": "uint256",
					"name": "",
					"type": "uint256"
				},
				{
					"internalType": "uint256",
					"name": "",
					"type": "uint256"
				}
			],
			"name": "courseQuizzes",
			"outputs": [
				{
					"internalType": "uint256",
					"name": "courseId",
					"type": "uint256"
				},
				{
					"internalType": "string",
					"name": "question",
					"type": "string"
				},
				{
					"internalType": "string",
					"name": "optionA",
					"type": "string"
				},
				{
					"internalType": "string",
					"name": "optionB",
					"type": "string"
				},
				{
					"internalType": "string",
					"name": "optionC",
					"type": "string"
				},
				{
					"internalType": "string",
					"name": "optionD",
					"type": "string"
				},
				{
					"internalType": "bytes32",
					"name": "correctAnswerHash",
					"type": "bytes32"
				}
			],
			"stateMutability": "view",
			"type": "function"
		},
		{
			"inputs": [
				{
					"internalType": "uint256",
					"name": "",
					"type": "uint256"
				}
			],
			"name": "courses",
			"outputs": [
				{
					"internalType": "address",
					"name": "creator",
					"type": "address"
				},
				{
					"internalType": "string",
					"name": "metadataURI",
					"type": "string"
				},
				{
					"internalType": "bool",
					"name": "approved",
					"type": "bool"
				},
				{
					"internalType": "uint256",
					"name": "passedStudents",
					"type": "uint256"
				},
				{
					"internalType": "uint256",
					"name": "totalRewarded",
					"type": "uint256"
				}
			],
			"stateMutability": "view",
			"type": "function"
		},
		{
			"inputs": [
				{
					"internalType": "string",
					"name": "_metadataURI",
					"type": "string"
				}
			],
			"name": "createCourse",
			"outputs": [],
			"stateMutability": "nonpayable",
			"type": "function"
		},
		{
			"inputs": [
				{
					"internalType": "uint256",
					"name": "_courseId",
					"type": "uint256"
				},
				{
					"internalType": "string",
					"name": "_question",
					"type": "string"
				},
				{
					"internalType": "string",
					"name": "_optionA",
					"type": "string"
				},
				{
					"internalType": "string",
					"name": "_optionB",
					"type": "string"
				},
				{
					"internalType": "string",
					"name": "_optionC",
					"type": "string"
				},
				{
					"internalType": "string",
					"name": "_optionD",
					"type": "string"
				},
				{
					"internalType": "string",
					"name": "_correctAnswer",
					"type": "string"
				}
			],
			"name": "createQuiz",
			"outputs": [],
			"stateMutability": "nonpayable",
			"type": "function"
		},
		{
			"inputs": [
				{
					"internalType": "uint256",
					"name": "_courseId",
					"type": "uint256"
				}
			],
			"name": "enrollInCourse",
			"outputs": [],
			"stateMutability": "nonpayable",
			"type": "function"
		},
		{
			"inputs": [
				{
					"internalType": "address",
					"name": "",
					"type": "address"
				},
				{
					"internalType": "uint256",
					"name": "",
					"type": "uint256"
				}
			],
			"name": "enrollments",
			"outputs": [
				{
					"internalType": "bool",
					"name": "isEnrolled",
					"type": "bool"
				},
				{
					"internalType": "uint8",
					"name": "attemptCount",
					"type": "uint8"
				},
				{
					"internalType": "bool",
					"name": "hasPassed",
					"type": "bool"
				},
				{
					"internalType": "bool",
					"name": "hasClaimedReward",
					"type": "bool"
				}
			],
			"stateMutability": "view",
			"type": "function"
		},
		{
			"inputs": [],
			"name": "mandToken",
			"outputs": [
				{
					"internalType": "contract IERC20",
					"name": "",
					"type": "address"
				}
			],
			"stateMutability": "view",
			"type": "function"
		},
		{
			"inputs": [],
			"name": "owner",
			"outputs": [
				{
					"internalType": "address",
					"name": "",
					"type": "address"
				}
			],
			"stateMutability": "view",
			"type": "function"
		},
		{
			"inputs": [],
			"name": "pause",
			"outputs": [],
			"stateMutability": "nonpayable",
			"type": "function"
		},
		{
			"inputs": [],
			"name": "paused",
			"outputs": [
				{
					"internalType": "bool",
					"name": "",
					"type": "bool"
				}
			],
			"stateMutability": "view",
			"type": "function"
		},
		{
			"inputs": [],
			"name": "renounceOwnership",
			"outputs": [],
			"stateMutability": "nonpayable",
			"type": "function"
		},
		{
			"inputs": [],
			"name": "reputationContract",
			"outputs": [
				{
					"internalType": "contract IReputationContract",
					"name": "",
					"type": "address"
				}
			],
			"stateMutability": "view",
			"type": "function"
		},
		{
			"inputs": [
				{
					"internalType": "address",
					"name": "newOwner",
					"type": "address"
				}
			],
			"name": "transferOwnership",
			"outputs": [],
			"stateMutability": "nonpayable",
			"type": "function"
		},
		{
			"inputs": [],
			"name": "unpause",
			"outputs": [],
			"stateMutability": "nonpayable",
			"type": "function"
		},
		{
			"inputs": [
				{
					"internalType": "address",
					"name": "_newMandToken",
					"type": "address"
				}
			],
			"name": "updateMandToken",
			"outputs": [],
			"stateMutability": "nonpayable",
			"type": "function"
		},
		{
			"inputs": [
				{
					"internalType": "address",
					"name": "_newReputationContract",
					"type": "address"
				}
			],
			"name": "updateReputationContract",
			"outputs": [],
			"stateMutability": "nonpayable",
			"type": "function"
		},
		{
			"inputs": [
				{
					"internalType": "uint256",
					"name": "_courseId",
					"type": "uint256"
				},
				{
					"internalType": "uint256",
					"name": "_amount",
					"type": "uint256"
				}
			],
			"name": "withdrawCreatorTokens",
			"outputs": [],
			"stateMutability": "nonpayable",
			"type": "function"
		},
		{
			"inputs": [
				{
					"internalType": "uint256",
					"name": "_amount",
					"type": "uint256"
				}
			],
			"name": "withdrawExcessTokens",
			"outputs": [],
			"stateMutability": "nonpayable",
			"type": "function"
		}
	]
}