{
	"moonx/moonx.sol": {
		"DecentralLearning": {
			"abi": [
				{
					"inputs": [
						{
							"internalType": "address",
							"name": "_reputationContract",
							"type": "address"
						}
					],
					"stateMutability": "nonpayable",
					"type": "constructor"
				},
				{
					"inputs": [
						{
							"internalType": "address",
							"name": "owner",
							"type": "address"
						}
					],
					"name": "OwnableInvalidOwner",
					"type": "error"
				},
				{
					"inputs": [
						{
							"internalType": "address",
							"name": "account",
							"type": "address"
						}
					],
					"name": "OwnableUnauthorizedAccount",
					"type": "error"
				},
				{
					"anonymous": false,
					"inputs": [
						{
							"indexed": true,
							"internalType": "uint256",
							"name": "courseId",
							"type": "uint256"
						}
					],
					"name": "CourseApproved",
					"type": "event"
				},
				{
					"anonymous": false,
					"inputs": [
						{
							"indexed": true,
							"internalType": "uint256",
							"name": "courseId",
							"type": "uint256"
						},
						{
							"indexed": true,
							"internalType": "address",
							"name": "creator",
							"type": "address"
						}
					],
					"name": "CourseCreated",
					"type": "event"
				},
				{
					"anonymous": false,
					"inputs": [
						{
							"indexed": true,
							"internalType": "uint256",
							"name": "courseId",
							"type": "uint256"
						},
						{
							"indexed": true,
							"internalType": "address",
							"name": "creator",
							"type": "address"
						},
						{
							"indexed": false,
							"internalType": "uint256",
							"name": "amount",
							"type": "uint256"
						}
					],
					"name": "CreatorRewardClaimed",
					"type": "event"
				},
				{
					"anonymous": false,
					"inputs": [
						{
							"indexed": true,
							"internalType": "uint256",
							"name": "courseId",
							"type": "uint256"
						},
						{
							"indexed": true,
							"internalType": "address",
							"name": "creator",
							"type": "address"
						},
						{
							"indexed": false,
							"internalType": "uint256",
							"name": "amount",
							"type": "uint256"
						}
					],
					"name": "CreatorWithdrawal",
					"type": "event"
				},
				{
					"anonymous": false,
					"inputs": [
						{
							"indexed": false,
							"internalType": "uint256",
							"name": "amount",
							"type": "uint256"
						}
					],
					"name": "GasFeesWithdrawn",
					"type": "event"
				},
				{
					"anonymous": false,
					"inputs": [
						{
							"indexed": true,
							"internalType": "address",
							"name": "previousOwner",
							"type": "address"
						},
						{
							"indexed": true,
							"internalType": "address",
							"name": "newOwner",
							"type": "address"
						}
					],
					"name": "OwnershipTransferred",
					"type": "event"
				},
				{
					"anonymous": false,
					"inputs": [
						{
							"indexed": false,
							"internalType": "address",
							"name": "account",
							"type": "address"
						}
					],
					"name": "Paused",
					"type": "event"
				},
				{
					"anonymous": false,
					"inputs": [
						{
							"indexed": true,
							"internalType": "uint256",
							"name": "courseId",
							"type": "uint256"
						},
						{
							"indexed": true,
							"internalType": "address",
							"name": "user",
							"type": "address"
						},
						{
							"indexed": false,
							"internalType": "bool",
							"name": "passed",
							"type": "bool"
						}
					],
					"name": "QuizAttempted",
					"type": "event"
				},
				{
					"anonymous": false,
					"inputs": [
						{
							"indexed": true,
							"internalType": "uint256",
							"name": "courseId",
							"type": "uint256"
						},
						{
							"indexed": false,
							"internalType": "uint256",
							"name": "quizId",
							"type": "uint256"
						}
					],
					"name": "QuizCreated",
					"type": "event"
				},
				{
					"anonymous": false,
					"inputs": [
						{
							"indexed": true,
							"internalType": "uint256",
							"name": "courseId",
							"type": "uint256"
						},
						{
							"indexed": true,
							"internalType": "address",
							"name": "user",
							"type": "address"
						},
						{
							"indexed": false,
							"internalType": "uint256",
							"name": "amount",
							"type": "uint256"
						}
					],
					"name": "RewardClaimed",
					"type": "event"
				},
				{
					"anonymous": false,
					"inputs": [
						{
							"indexed": false,
							"internalType": "address",
							"name": "account",
							"type": "address"
						}
					],
					"name": "Unpaused",
					"type": "event"
				},
				{
					"anonymous": false,
					"inputs": [
						{
							"indexed": true,
							"internalType": "uint256",
							"name": "courseId",
							"type": "uint256"
						},
						{
							"indexed": true,
							"internalType": "address",
							"name": "user",
							"type": "address"
						}
					],
					"name": "UserEnrolled",
					"type": "event"
				},
				{
					"inputs": [],
					"name": "CREATOR_REWARD_AMOUNT",
					"outputs": [
						{
							"internalType": "uint256",
							"name": "",
							"type": "uint256"
						}
					],
					"stateMutability": "view",
					"type": "function"
				},
				{
					"inputs": [],
					"name": "ENROLL_THRESHOLD",
					"outputs": [
						{
							"internalType": "uint256",
							"name": "",
							"type": "uint256"
						}
					],
					"stateMutability": "view",
					"type": "function"
				},
				{
					"inputs": [],
					"name": "GAS_FEE",
					"outputs": [
						{
							"internalType": "uint256",
							"name": "",
							"type": "uint256"
						}
					],
					"stateMutability": "view",
					"type": "function"
				},
				{
					"inputs": [],
					"name": "POST_THRESHOLD",
					"outputs": [
						{
							"internalType": "uint256",
							"name": "",
							"type": "uint256"
						}
					],
					"stateMutability": "view",
					"type": "function"
				},
				{
					"inputs": [],
					"name": "STUDENT_REWARD_AMOUNT",
					"outputs": [
						{
							"internalType": "uint256",
							"name": "",
							"type": "uint256"
						}
					],
					"stateMutability": "view",
					"type": "function"
				},
				{
					"inputs": [],
					"name": "WITHDRAWAL_INTERVAL",
					"outputs": [
						{
							"internalType": "uint256",
							"name": "",
							"type": "uint256"
						}
					],
					"stateMutability": "view",
					"type": "function"
				},
				{
					"inputs": [],
					"name": "accumulatedFees",
					"outputs": [
						{
							"internalType": "uint256",
							"name": "",
							"type": "uint256"
						}
					],
					"stateMutability": "view",
					"type": "function"
				},
				{
					"inputs": [
						{
							"internalType": "uint256",
							"name": "_courseId",
							"type": "uint256"
						}
					],
					"name": "approveCourse",
					"outputs": [],
					"stateMutability": "nonpayable",
					"type": "function"
				},
				{
					"inputs": [
						{
							"internalType": "uint256",
							"name": "_courseId",
							"type": "uint256"
						},
						{
							"internalType": "string[]",
							"name": "_answers",
							"type": "string[]"
						}
					],
					"name": "attemptQuiz",
					"outputs": [],
					"stateMutability": "payable",
					"type": "function"
				},
				{
					"inputs": [
						{
							"internalType": "uint256",
							"name": "_courseId",
							"type": "uint256"
						}
					],
					"name": "claimCreatorReward",
					"outputs": [],
					"stateMutability": "payable",
					"type": "function"
				},
				{
					"inputs": [
						{
							"internalType": "uint256",
							"name": "_courseId",
							"type": "uint256"
						}
					],
					"name": "claimStudentReward",
					"outputs": [],
					"stateMutability": "payable",
					"type": "function"
				},
				{
					"inputs": [],
					"name": "courseCount",
					"outputs": [
						{
							"internalType": "uint256",
							"name": "",
							"type": "uint256"
						}
					],
					"stateMutability": "view",
					"type": "function"
				},
				{
					"inputs": [
						{
							"internalType": "uint256",
							"name": "",
							"type": "uint256"
						},
						{
							"internalType": "uint256",
							"name": "",
							"type": "uint256"
						}
					],
					"name": "courseQuizzes",
					"outputs": [
						{
							"internalType": "uint256",
							"name": "courseId",
							"type": "uint256"
						},
						{
							"internalType": "string",
							"name": "question",
							"type": "string"
						},
						{
							"internalType": "string",
							"name": "optionA",
							"type": "string"
						},
						{
							"internalType": "string",
							"name": "optionB",
							"type": "string"
						},
						{
							"internalType": "string",
							"name": "optionC",
							"type": "string"
						},
						{
							"internalType": "string",
							"name": "optionD",
							"type": "string"
						},
						{
							"internalType": "bytes32",
							"name": "correctAnswerHash",
							"type": "bytes32"
						}
					],
					"stateMutability": "view",
					"type": "function"
				},
				{
					"inputs": [
						{
							"internalType": "uint256",
							"name": "",
							"type": "uint256"
						}
					],
					"name": "courses",
					"outputs": [
						{
							"internalType": "address",
							"name": "creator",
							"type": "address"
						},
						{
							"internalType": "string",
							"name": "metadataURI",
							"type": "string"
						},
						{
							"internalType": "bool",
							"name": "approved",
							"type": "bool"
						},
						{
							"internalType": "uint256",
							"name": "passedStudents",
							"type": "uint256"
						},
						{
							"internalType": "uint256",
							"name": "totalRewarded",
							"type": "uint256"
						},
						{
							"internalType": "uint256",
							"name": "totalEnrolled",
							"type": "uint256"
						}
					],
					"stateMutability": "view",
					"type": "function"
				},
				{
					"inputs": [
						{
							"internalType": "string",
							"name": "_metadataURI",
							"type": "string"
						}
					],
					"name": "createCourse",
					"outputs": [],
					"stateMutability": "payable",
					"type": "function"
				},
				{
					"inputs": [
						{
							"internalType": "uint256",
							"name": "_courseId",
							"type": "uint256"
						},
						{
							"internalType": "string",
							"name": "_question",
							"type": "string"
						},
						{
							"internalType": "string",
							"name": "_optionA",
							"type": "string"
						},
						{
							"internalType": "string",
							"name": "_optionB",
							"type": "string"
						},
						{
							"internalType": "string",
							"name": "_optionC",
							"type": "string"
						},
						{
							"internalType": "string",
							"name": "_optionD",
							"type": "string"
						},
						{
							"internalType": "string",
							"name": "_correctAnswer",
							"type": "string"
						}
					],
					"name": "createQuiz",
					"outputs": [],
					"stateMutability": "payable",
					"type": "function"
				},
				{
					"inputs": [
						{
							"internalType": "uint256",
							"name": "_courseId",
							"type": "uint256"
						}
					],
					"name": "enrollInCourse",
					"outputs": [],
					"stateMutability": "payable",
					"type": "function"
				},
				{
					"inputs": [
						{
							"internalType": "address",
							"name": "",
							"type": "address"
						},
						{
							"internalType": "uint256",
							"name": "",
							"type": "uint256"
						}
					],
					"name": "enrollments",
					"outputs": [
						{
							"internalType": "bool",
							"name": "isEnrolled",
							"type": "bool"
						},
						{
							"internalType": "uint8",
							"name": "attemptCount",
							"type": "uint8"
						},
						{
							"internalType": "bool",
							"name": "hasPassed",
							"type": "bool"
						},
						{
							"internalType": "bool",
							"name": "hasClaimedReward",
							"type": "bool"
						}
					],
					"stateMutability": "view",
					"type": "function"
				},
				{
					"inputs": [],
					"name": "lastWithdrawalTime",
					"outputs": [
						{
							"internalType": "uint256",
							"name": "",
							"type": "uint256"
						}
					],
					"stateMutability": "view",
					"type": "function"
				},
				{
					"inputs": [],
					"name": "owner",
					"outputs": [
						{
							"internalType": "address",
							"name": "",
							"type": "address"
						}
					],
					"stateMutability": "view",
					"type": "function"
				},
				{
					"inputs": [],
					"name": "pause",
					"outputs": [],
					"stateMutability": "nonpayable",
					"type": "function"
				},
				{
					"inputs": [],
					"name": "paused",
					"outputs": [
						{
							"internalType": "bool",
							"name": "",
							"type": "bool"
						}
					],
					"stateMutability": "view",
					"type": "function"
				},
				{
					"inputs": [],
					"name": "renounceOwnership",
					"outputs": [],
					"stateMutability": "nonpayable",
					"type": "function"
				},
				{
					"inputs": [],
					"name": "reputationContract",
					"outputs": [
						{
							"internalType": "contract IReputationContract",
							"name": "",
							"type": "address"
						}
					],
					"stateMutability": "view",
					"type": "function"
				},
				{
					"inputs": [
						{
							"internalType": "address",
							"name": "newOwner",
							"type": "address"
						}
					],
					"name": "transferOwnership",
					"outputs": [],
					"stateMutability": "nonpayable",
					"type": "function"
				},
				{
					"inputs": [],
					"name": "unpause",
					"outputs": [],
					"stateMutability": "nonpayable",
					"type": "function"
				},
				{
					"inputs": [
						{
							"internalType": "address",
							"name": "_newReputationContract",
							"type": "address"
						}
					],
					"name": "updateReputationContract",
					"outputs": [],
					"stateMutability": "nonpayable",
					"type": "function"
				},
				{
					"inputs": [
						{
							"internalType": "uint256",
							"name": "_courseId",
							"type": "uint256"
						},
						{
							"internalType": "uint256",
							"name": "_amount",
							"type": "uint256"
						}
					],
					"name": "withdrawCreatorTokens",
					"outputs": [],
					"stateMutability": "payable",
					"type": "function"
				},
				{
					"inputs": [],
					"name": "withdrawGasFees",
					"outputs": [],
					"stateMutability": "nonpayable",
					"type": "function"
				},
				{
					"stateMutability": "payable",
					"type": "receive"
				}
			],
			"devdoc": {
				"errors": {
					"OwnableInvalidOwner(address)": [
						{
							"details": "The owner is not a valid owner account. (eg. `address(0)`)"
						}
					],
					"OwnableUnauthorizedAccount(address)": [
						{
							"details": "The caller account is not authorized to perform an operation."
						}
					]
				},
				"events": {
					"Paused(address)": {
						"details": "Emitted when the pause is triggered by `account`."
					},
					"Unpaused(address)": {
						"details": "Emitted when the pause is lifted by `account`."
					}
				},
				"kind": "dev",
				"methods": {
					"owner()": {
						"details": "Returns the address of the current owner."
					},
					"paused()": {
						"details": "Returns true if the contract is paused, and false otherwise."
					},
					"renounceOwnership()": {
						"details": "Leaves the contract without owner. It will not be possible to call `onlyOwner` functions. Can only be called by the current owner. NOTE: Renouncing ownership will leave the contract without an owner, thereby disabling any functionality that is only available to the owner."
					},
					"transferOwnership(address)": {
						"details": "Transfers ownership of the contract to a new account (`newOwner`). Can only be called by the current owner."
					}
				},
				"version": 1
			},
			"evm": {
				"assembly": "    /* \"moonx/moonx.sol\":273:9237  contract DecentralLearning is Ownable, Pausable {... */\n  mstore(0x40, 0x80)\n    /* \"moonx/moonx.sol\":2386:2571  constructor(address _reputationContract) Ownable(msg.sender) {... */\n  callvalue\n  dup1\n  iszero\n  tag_1\n  jumpi\n  0x00\n  dup1\n  revert\ntag_1:\n  pop\n  mload(0x40)\n  sub(codesize, bytecodeSize)\n  dup1\n  bytecodeSize\n  dup4\n  codecopy\n  dup2\n  dup2\n  add\n  0x40\n  mstore\n  dup2\n  add\n  swap1\n  tag_2\n  swap2\n  swap1\n  tag_3\n  jump\t// in\ntag_2:\n    /* \"moonx/moonx.sol\":2435:2445  msg.sender */\n  caller\n    /* \"@openzeppelin/contracts/access/Ownable.sol\":1297:1298  0 */\n  0x00\n    /* \"@openzeppelin/contracts/access/Ownable.sol\":1273:1299  initialOwner == address(0) */\n  0xffffffffffffffffffffffffffffffffffffffff\n  and\n    /* \"@openzeppelin/contracts/access/Ownable.sol\":1273:1285  initialOwner */\n  dup2\n    /* \"@openzeppelin/contracts/access/Ownable.sol\":1273:1299  initialOwner == address(0) */\n  0xffffffffffffffffffffffffffffffffffffffff\n  and\n  sub\n    /* \"@openzeppelin/contracts/access/Ownable.sol\":1269:1364  if (initialOwner == address(0)) {... */\n  tag_8\n  jumpi\n    /* \"@openzeppelin/contracts/access/Ownable.sol\":1350:1351  0 */\n  0x00\n    /* \"@openzeppelin/contracts/access/Ownable.sol\":1322:1353  OwnableInvalidOwner(address(0)) */\n  mload(0x40)\n  0x1e4fbdf700000000000000000000000000000000000000000000000000000000\n  dup2\n  mstore\n  0x04\n  add\n  tag_9\n  swap2\n  swap1\n  tag_10\n  jump\t// in\ntag_9:\n  mload(0x40)\n  dup1\n  swap2\n  sub\n  swap1\n  revert\n    /* \"@openzeppelin/contracts/access/Ownable.sol\":1269:1364  if (initialOwner == address(0)) {... */\ntag_8:\n    /* \"@openzeppelin/contracts/access/Ownable.sol\":1373:1405  _transferOwnership(initialOwner) */\n  tag_11\n    /* \"@openzeppelin/contracts/access/Ownable.sol\":1392:1404  initialOwner */\n  dup2\n    /* \"@openzeppelin/contracts/access/Ownable.sol\":1373:1391  _transferOwnership */\n  shl(0x20, tag_12)\n    /* \"@openzeppelin/contracts/access/Ownable.sol\":1373:1405  _transferOwnership(initialOwner) */\n  0x20\n  shr\n  jump\t// in\ntag_11:\n    /* \"@openzeppelin/contracts/access/Ownable.sol\":1225:1412  constructor(address initialOwner) {... */\n  pop\n    /* \"@openzeppelin/contracts/security/Pausable.sol\":1006:1011  false */\n  0x00\n    /* \"@openzeppelin/contracts/security/Pausable.sol\":996:1003  _paused */\n  dup1\n  0x14\n    /* \"@openzeppelin/contracts/security/Pausable.sol\":996:1011  _paused = false */\n  0x0100\n  exp\n  dup2\n  sload\n  dup2\n  0xff\n  mul\n  not\n  and\n  swap1\n  dup4\n  iszero\n  iszero\n  mul\n  or\n  swap1\n  sstore\n  pop\n    /* \"moonx/moonx.sol\":2498:2517  _reputationContract */\n  dup1\n    /* \"moonx/moonx.sol\":2457:2475  reputationContract */\n  0x01\n  0x00\n    /* \"moonx/moonx.sol\":2457:2518  reputationContract = IReputationContract(_reputationContract) */\n  0x0100\n  exp\n  dup2\n  sload\n  dup2\n  0xffffffffffffffffffffffffffffffffffffffff\n  mul\n  not\n  and\n  swap1\n  dup4\n  0xffffffffffffffffffffffffffffffffffffffff\n  and\n  mul\n  or\n  swap1\n  sstore\n  pop\n    /* \"moonx/moonx.sol\":2549:2564  block.timestamp */\n  timestamp\n    /* \"moonx/moonx.sol\":2528:2546  lastWithdrawalTime */\n  0x02\n    /* \"moonx/moonx.sol\":2528:2564  lastWithdrawalTime = block.timestamp */\n  dup2\n  swap1\n  sstore\n  pop\n    /* \"moonx/moonx.sol\":2386:2571  constructor(address _reputationContract) Ownable(msg.sender) {... */\n  pop\n    /* \"moonx/moonx.sol\":273:9237  contract DecentralLearning is Ownable, Pausable {... */\n  jump(tag_15)\n    /* \"@openzeppelin/contracts/access/Ownable.sol\":2912:3099  function _transferOwnership(address newOwner) internal virtual {... */\ntag_12:\n    /* \"@openzeppelin/contracts/access/Ownable.sol\":2985:3001  address oldOwner */\n  0x00\n    /* \"@openzeppelin/contracts/access/Ownable.sol\":3004:3010  _owner */\n  dup1\n  0x00\n  swap1\n  sload\n  swap1\n  0x0100\n  exp\n  swap1\n  div\n  0xffffffffffffffffffffffffffffffffffffffff\n  and\n    /* \"@openzeppelin/contracts/access/Ownable.sol\":2985:3010  address oldOwner = _owner */\n  swap1\n  pop\n    /* \"@openzeppelin/contracts/access/Ownable.sol\":3029:3037  newOwner */\n  dup2\n    /* \"@openzeppelin/contracts/access/Ownable.sol\":3020:3026  _owner */\n  0x00\n  dup1\n    /* \"@openzeppelin/contracts/access/Ownable.sol\":3020:3037  _owner = newOwner */\n  0x0100\n  exp\n  dup2\n  sload\n  dup2\n  0xffffffffffffffffffffffffffffffffffffffff\n  mul\n  not\n  and\n  swap1\n  dup4\n  0xffffffffffffffffffffffffffffffffffffffff\n  and\n  mul\n  or\n  swap1\n  sstore\n  pop\n    /* \"@openzeppelin/contracts/access/Ownable.sol\":3083:3091  newOwner */\n  dup2\n    /* \"@openzeppelin/contracts/access/Ownable.sol\":3052:3092  OwnershipTransferred(oldOwner, newOwner) */\n  0xffffffffffffffffffffffffffffffffffffffff\n  and\n    /* \"@openzeppelin/contracts/access/Ownable.sol\":3073:3081  oldOwner */\n  dup2\n    /* \"@openzeppelin/contracts/access/Ownable.sol\":3052:3092  OwnershipTransferred(oldOwner, newOwner) */\n  0xffffffffffffffffffffffffffffffffffffffff\n  and\n  0x8be0079c531659141344cd1fd0a4f28419497f9722a3daafe3b4186f6b6457e0\n  mload(0x40)\n  mload(0x40)\n  dup1\n  swap2\n  sub\n  swap1\n  log3\n    /* \"@openzeppelin/contracts/access/Ownable.sol\":2975:3099  {... */\n  pop\n    /* \"@openzeppelin/contracts/access/Ownable.sol\":2912:3099  function _transferOwnership(address newOwner) internal virtual {... */\n  pop\n  jump\t// out\n    /* \"#utility.yul\":88:205   */\ntag_18:\n    /* \"#utility.yul\":197:198   */\n  0x00\n    /* \"#utility.yul\":194:195   */\n  dup1\n    /* \"#utility.yul\":187:199   */\n  revert\n    /* \"#utility.yul\":334:460   */\ntag_20:\n    /* \"#utility.yul\":371:378   */\n  0x00\n    /* \"#utility.yul\":411:453   */\n  0xffffffffffffffffffffffffffffffffffffffff\n    /* \"#utility.yul\":404:409   */\n  dup3\n    /* \"#utility.yul\":400:454   */\n  and\n    /* \"#utility.yul\":389:454   */\n  swap1\n  pop\n    /* \"#utility.yul\":334:460   */\n  swap2\n  swap1\n  pop\n  jump\t// out\n    /* \"#utility.yul\":466:562   */\ntag_21:\n    /* \"#utility.yul\":503:510   */\n  0x00\n    /* \"#utility.yul\":532:556   */\n  tag_31\n    /* \"#utility.yul\":550:555   */\n  dup3\n    /* \"#utility.yul\":532:556   */\n  tag_20\n  jump\t// in\ntag_31:\n    /* \"#utility.yul\":521:556   */\n  swap1\n  pop\n    /* \"#utility.yul\":466:562   */\n  swap2\n  swap1\n  pop\n  jump\t// out\n    /* \"#utility.yul\":568:690   */\ntag_22:\n    /* \"#utility.yul\":641:665   */\n  tag_33\n    /* \"#utility.yul\":659:664   */\n  dup2\n    /* \"#utility.yul\":641:665   */\n  tag_21\n  jump\t// in\ntag_33:\n    /* \"#utility.yul\":634:639   */\n  dup2\n    /* \"#utility.yul\":631:666   */\n  eq\n    /* \"#utility.yul\":621:684   */\n  tag_34\n  jumpi\n    /* \"#utility.yul\":680:681   */\n  0x00\n    /* \"#utility.yul\":677:678   */\n  dup1\n    /* \"#utility.yul\":670:682   */\n  revert\n    /* \"#utility.yul\":621:684   */\ntag_34:\n    /* \"#utility.yul\":568:690   */\n  pop\n  jump\t// out\n    /* \"#utility.yul\":696:839   */\ntag_23:\n    /* \"#utility.yul\":753:758   */\n  0x00\n    /* \"#utility.yul\":784:790   */\n  dup2\n    /* \"#utility.yul\":778:791   */\n  mload\n    /* \"#utility.yul\":769:791   */\n  swap1\n  pop\n    /* \"#utility.yul\":800:833   */\n  tag_36\n    /* \"#utility.yul\":827:832   */\n  dup2\n    /* \"#utility.yul\":800:833   */\n  tag_22\n  jump\t// in\ntag_36:\n    /* \"#utility.yul\":696:839   */\n  swap3\n  swap2\n  pop\n  pop\n  jump\t// out\n    /* \"#utility.yul\":845:1196   */\ntag_3:\n    /* \"#utility.yul\":915:921   */\n  0x00\n    /* \"#utility.yul\":964:966   */\n  0x20\n    /* \"#utility.yul\":952:961   */\n  dup3\n    /* \"#utility.yul\":943:950   */\n  dup5\n    /* \"#utility.yul\":939:962   */\n  sub\n    /* \"#utility.yul\":935:967   */\n  slt\n    /* \"#utility.yul\":932:1051   */\n  iszero\n  tag_38\n  jumpi\n    /* \"#utility.yul\":970:1049   */\n  tag_39\n  tag_18\n  jump\t// in\ntag_39:\n    /* \"#utility.yul\":932:1051   */\ntag_38:\n    /* \"#utility.yul\":1090:1091   */\n  0x00\n    /* \"#utility.yul\":1115:1179   */\n  tag_40\n    /* \"#utility.yul\":1171:1178   */\n  dup5\n    /* \"#utility.yul\":1162:1168   */\n  dup3\n    /* \"#utility.yul\":1151:1160   */\n  dup6\n    /* \"#utility.yul\":1147:1169   */\n  add\n    /* \"#utility.yul\":1115:1179   */\n  tag_23\n  jump\t// in\ntag_40:\n    /* \"#utility.yul\":1105:1179   */\n  swap2\n  pop\n    /* \"#utility.yul\":1061:1189   */\n  pop\n    /* \"#utility.yul\":845:1196   */\n  swap3\n  swap2\n  pop\n  pop\n  jump\t// out\n    /* \"#utility.yul\":1202:1320   */\ntag_24:\n    /* \"#utility.yul\":1289:1313   */\n  tag_42\n    /* \"#utility.yul\":1307:1312   */\n  dup2\n    /* \"#utility.yul\":1289:1313   */\n  tag_21\n  jump\t// in\ntag_42:\n    /* \"#utility.yul\":1284:1287   */\n  dup3\n    /* \"#utility.yul\":1277:1314   */\n  mstore\n    /* \"#utility.yul\":1202:1320   */\n  pop\n  pop\n  jump\t// out\n    /* \"#utility.yul\":1326:1548   */\ntag_10:\n    /* \"#utility.yul\":1419:1423   */\n  0x00\n    /* \"#utility.yul\":1457:1459   */\n  0x20\n    /* \"#utility.yul\":1446:1455   */\n  dup3\n    /* \"#utility.yul\":1442:1460   */\n  add\n    /* \"#utility.yul\":1434:1460   */\n  swap1\n  pop\n    /* \"#utility.yul\":1470:1541   */\n  tag_44\n    /* \"#utility.yul\":1538:1539   */\n  0x00\n    /* \"#utility.yul\":1527:1536   */\n  dup4\n    /* \"#utility.yul\":1523:1540   */\n  add\n    /* \"#utility.yul\":1514:1520   */\n  dup5\n    /* \"#utility.yul\":1470:1541   */\n  tag_24\n  jump\t// in\ntag_44:\n    /* \"#utility.yul\":1326:1548   */\n  swap3\n  swap2\n  pop\n  pop\n  jump\t// out\n    /* \"moonx/moonx.sol\":273:9237  contract DecentralLearning is Ownable, Pausable {... */\ntag_15:\n  dataSize(sub_0)\n  dup1\n  dataOffset(sub_0)\n  0x00\n  codecopy\n  0x00\n  return\nstop\n\nsub_0: assembly {\n        /* \"moonx/moonx.sol\":273:9237  contract DecentralLearning is Ownable, Pausable {... */\n      mstore(0x40, 0x80)\n      jumpi(tag_1, lt(calldatasize, 0x04))\n      shr(0xe0, calldataload(0x00))\n      dup1\n      0x8a38ab2c\n      gt\n      tag_32\n      jumpi\n      dup1\n      0xae24f005\n      gt\n      tag_33\n      jumpi\n      dup1\n      0xcf90b3be\n      gt\n      tag_34\n      jumpi\n      dup1\n      0xcf90b3be\n      eq\n      tag_28\n      jumpi\n      dup1\n      0xd69c575b\n      eq\n      tag_29\n      jumpi\n      dup1\n      0xf2fde38b\n      eq\n      tag_30\n      jumpi\n      dup1\n      0xfbf1aded\n      eq\n      tag_31\n      jumpi\n      jump(tag_2)\n    tag_34:\n      dup1\n      0xae24f005\n      eq\n      tag_24\n      jumpi\n      dup1\n      0xb0aaefd6\n      eq\n      tag_25\n      jumpi\n      dup1\n      0xb894af02\n      eq\n      tag_26\n      jumpi\n      dup1\n      0xba2f0362\n      eq\n      tag_27\n      jumpi\n      jump(tag_2)\n    tag_33:\n      dup1\n      0x96f979d2\n      gt\n      tag_35\n      jumpi\n      dup1\n      0x96f979d2\n      eq\n      tag_20\n      jumpi\n      dup1\n      0x996b5d8e\n      eq\n      tag_21\n      jumpi\n      dup1\n      0xa4e1f033\n      eq\n      tag_22\n      jumpi\n      dup1\n      0xab8bb55e\n      eq\n      tag_23\n      jumpi\n      jump(tag_2)\n    tag_35:\n      dup1\n      0x8a38ab2c\n      eq\n      tag_17\n      jumpi\n      dup1\n      0x8da5cb5b\n      eq\n      tag_18\n      jumpi\n      dup1\n      0x905baa61\n      eq\n      tag_19\n      jumpi\n      jump(tag_2)\n    tag_32:\n      dup1\n      0x5cb45cb5\n      gt\n      tag_36\n      jumpi\n      dup1\n      0x715018a6\n      gt\n      tag_37\n      jumpi\n      dup1\n      0x715018a6\n      eq\n      tag_13\n      jumpi\n      dup1\n      0x75284998\n      eq\n      tag_14\n      jumpi\n      dup1\n      0x8456cb59\n      eq\n      tag_15\n      jumpi\n      dup1\n      0x87bc1425\n      eq\n      tag_16\n      jumpi\n      jump(tag_2)\n    tag_37:\n      dup1\n      0x5cb45cb5\n      eq\n      tag_10\n      jumpi\n      dup1\n      0x5e52da27\n      eq\n      tag_11\n      jumpi\n      dup1\n      0x66055159\n      eq\n      tag_12\n      jumpi\n      jump(tag_2)\n    tag_36:\n      dup1\n      0x3f4ba83a\n      gt\n      tag_38\n      jumpi\n      dup1\n      0x3f4ba83a\n      eq\n      tag_6\n      jumpi\n      dup1\n      0x4c64c030\n      eq\n      tag_7\n      jumpi\n      dup1\n      0x587f5ed7\n      eq\n      tag_8\n      jumpi\n      dup1\n      0x5c975abb\n      eq\n      tag_9\n      jumpi\n      jump(tag_2)\n    tag_38:\n      dup1\n      0x03b1965b\n      eq\n      tag_3\n      jumpi\n      dup1\n      0x07f910f8\n      eq\n      tag_4\n      jumpi\n      dup1\n      0x34a014dc\n      eq\n      tag_5\n      jumpi\n      jump(tag_2)\n    tag_1:\n      jumpi(tag_2, calldatasize)\n      stop\n    tag_2:\n      0x00\n      dup1\n      revert\n        /* \"moonx/moonx.sol\":7774:8358  function withdrawCreatorTokens(uint256 _courseId, uint256 _amount) external payable whenNotPaused collectGasFee {... */\n    tag_3:\n      tag_41\n      0x04\n      dup1\n      calldatasize\n      sub\n      dup2\n      add\n      swap1\n      tag_42\n      swap2\n      swap1\n      tag_43\n      jump\t// in\n    tag_42:\n      tag_44\n      jump\t// in\n    tag_41:\n      stop\n        /* \"moonx/moonx.sol\":1499:1568  mapping(address => mapping(uint256 => Enrollment)) public enrollments */\n    tag_4:\n      callvalue\n      dup1\n      iszero\n      tag_45\n      jumpi\n      0x00\n      dup1\n      revert\n    tag_45:\n      pop\n      tag_46\n      0x04\n      dup1\n      calldatasize\n      sub\n      dup2\n      add\n      swap1\n      tag_47\n      swap2\n      swap1\n      tag_48\n      jump\t// in\n    tag_47:\n      tag_49\n      jump\t// in\n    tag_46:\n      mload(0x40)\n      tag_50\n      swap5\n      swap4\n      swap3\n      swap2\n      swap1\n      tag_51\n      jump\t// in\n    tag_50:\n      mload(0x40)\n      dup1\n      swap2\n      sub\n      swap1\n      return\n        /* \"moonx/moonx.sol\":784:817  uint256 public lastWithdrawalTime */\n    tag_5:\n      callvalue\n      dup1\n      iszero\n      tag_52\n      jumpi\n      0x00\n      dup1\n      revert\n    tag_52:\n      pop\n      tag_53\n      tag_54\n      jump\t// in\n    tag_53:\n      mload(0x40)\n      tag_55\n      swap2\n      swap1\n      tag_56\n      jump\t// in\n    tag_55:\n      mload(0x40)\n      dup1\n      swap2\n      sub\n      swap1\n      return\n        /* \"moonx/moonx.sol\":8887:8952  function unpause() external onlyOwner {... */\n    tag_6:\n      callvalue\n      dup1\n      iszero\n      tag_57\n      jumpi\n      0x00\n      dup1\n      revert\n    tag_57:\n      pop\n      tag_58\n      tag_59\n      jump\t// in\n    tag_58:\n      stop\n        /* \"moonx/moonx.sol\":723:777  uint256 public constant WITHDRAWAL_INTERVAL = 100 days */\n    tag_7:\n      callvalue\n      dup1\n      iszero\n      tag_60\n      jumpi\n      0x00\n      dup1\n      revert\n    tag_60:\n      pop\n      tag_61\n      tag_62\n      jump\t// in\n    tag_61:\n      mload(0x40)\n      tag_63\n      swap2\n      swap1\n      tag_56\n      jump\t// in\n    tag_63:\n      mload(0x40)\n      dup1\n      swap2\n      sub\n      swap1\n      return\n        /* \"moonx/moonx.sol\":823:853  uint256 public accumulatedFees */\n    tag_8:\n      callvalue\n      dup1\n      iszero\n      tag_64\n      jumpi\n      0x00\n      dup1\n      revert\n    tag_64:\n      pop\n      tag_65\n      tag_66\n      jump\t// in\n    tag_65:\n      mload(0x40)\n      tag_67\n      swap2\n      swap1\n      tag_56\n      jump\t// in\n    tag_67:\n      mload(0x40)\n      dup1\n      swap2\n      sub\n      swap1\n      return\n        /* \"@openzeppelin/contracts/security/Pausable.sol\":1615:1699  function paused() public view virtual returns (bool) {... */\n    tag_9:\n      callvalue\n      dup1\n      iszero\n      tag_68\n      jumpi\n      0x00\n      dup1\n      revert\n    tag_68:\n      pop\n      tag_69\n      tag_70\n      jump\t// in\n    tag_69:\n      mload(0x40)\n      tag_71\n      swap2\n      swap1\n      tag_72\n      jump\t// in\n    tag_71:\n      mload(0x40)\n      dup1\n      swap2\n      sub\n      swap1\n      return\n        /* \"moonx/moonx.sol\":5418:6437  function attemptQuiz(uint256 _courseId, string[] memory _answers) external payable collectGasFee {... */\n    tag_10:\n      tag_73\n      0x04\n      dup1\n      calldatasize\n      sub\n      dup2\n      add\n      swap1\n      tag_74\n      swap2\n      swap1\n      tag_75\n      jump\t// in\n    tag_74:\n      tag_76\n      jump\t// in\n    tag_73:\n      stop\n        /* \"moonx/moonx.sol\":3489:4012  function enrollInCourse(uint256 _courseId) external payable whenNotPaused collectGasFee {... */\n    tag_11:\n      tag_77\n      0x04\n      dup1\n      calldatasize\n      sub\n      dup2\n      add\n      swap1\n      tag_78\n      swap2\n      swap1\n      tag_79\n      jump\t// in\n    tag_78:\n      tag_80\n      jump\t// in\n    tag_77:\n      stop\n        /* \"moonx/moonx.sol\":1673:1699  uint256 public courseCount */\n    tag_12:\n      callvalue\n      dup1\n      iszero\n      tag_81\n      jumpi\n      0x00\n      dup1\n      revert\n    tag_81:\n      pop\n      tag_82\n      tag_83\n      jump\t// in\n    tag_82:\n      mload(0x40)\n      tag_84\n      swap2\n      swap1\n      tag_56\n      jump\t// in\n    tag_84:\n      mload(0x40)\n      dup1\n      swap2\n      sub\n      swap1\n      return\n        /* \"@openzeppelin/contracts/access/Ownable.sol\":2293:2394  function renounceOwnership() public virtual onlyOwner {... */\n    tag_13:\n      callvalue\n      dup1\n      iszero\n      tag_85\n      jumpi\n      0x00\n      dup1\n      revert\n    tag_85:\n      pop\n      tag_86\n      tag_87\n      jump\t// in\n    tag_86:\n      stop\n        /* \"moonx/moonx.sol\":3257:3483  function approveCourse(uint256 _courseId) external onlyOwner {... */\n    tag_14:\n      callvalue\n      dup1\n      iszero\n      tag_88\n      jumpi\n      0x00\n      dup1\n      revert\n    tag_88:\n      pop\n      tag_89\n      0x04\n      dup1\n      calldatasize\n      sub\n      dup2\n      add\n      swap1\n      tag_90\n      swap2\n      swap1\n      tag_79\n      jump\t// in\n    tag_90:\n      tag_91\n      jump\t// in\n    tag_89:\n      stop\n        /* \"moonx/moonx.sol\":8820:8881  function pause() external onlyOwner {... */\n    tag_15:\n      callvalue\n      dup1\n      iszero\n      tag_92\n      jumpi\n      0x00\n      dup1\n      revert\n    tag_92:\n      pop\n      tag_93\n      tag_94\n      jump\t// in\n    tag_93:\n      stop\n        /* \"moonx/moonx.sol\":327:372  IReputationContract public reputationContract */\n    tag_16:\n      callvalue\n      dup1\n      iszero\n      tag_95\n      jumpi\n      0x00\n      dup1\n      revert\n    tag_95:\n      pop\n      tag_96\n      tag_97\n      jump\t// in\n    tag_96:\n      mload(0x40)\n      tag_98\n      swap2\n      swap1\n      tag_99\n      jump\t// in\n    tag_98:\n      mload(0x40)\n      dup1\n      swap2\n      sub\n      swap1\n      return\n        /* \"moonx/moonx.sol\":2857:3251  function createCourse(string memory _metadataURI) external payable whenNotPaused collectGasFee {... */\n    tag_17:\n      tag_100\n      0x04\n      dup1\n      calldatasize\n      sub\n      dup2\n      add\n      swap1\n      tag_101\n      swap2\n      swap1\n      tag_102\n      jump\t// in\n    tag_101:\n      tag_103\n      jump\t// in\n    tag_100:\n      stop\n        /* \"@openzeppelin/contracts/access/Ownable.sol\":1638:1723  function owner() public view virtual returns (address) {... */\n    tag_18:\n      callvalue\n      dup1\n      iszero\n      tag_104\n      jumpi\n      0x00\n      dup1\n      revert\n    tag_104:\n      pop\n      tag_105\n      tag_106\n      jump\t// in\n    tag_105:\n      mload(0x40)\n      tag_107\n      swap2\n      swap1\n      tag_108\n      jump\t// in\n    tag_107:\n      mload(0x40)\n      dup1\n      swap2\n      sub\n      swap1\n      return\n        /* \"moonx/moonx.sol\":8958:9124  function updateReputationContract(address _newReputationContract) external onlyOwner {... */\n    tag_19:\n      callvalue\n      dup1\n      iszero\n      tag_109\n      jumpi\n      0x00\n      dup1\n      revert\n    tag_109:\n      pop\n      tag_110\n      0x04\n      dup1\n      calldatasize\n      sub\n      dup2\n      add\n      swap1\n      tag_111\n      swap2\n      swap1\n      tag_112\n      jump\t// in\n    tag_111:\n      tag_113\n      jump\t// in\n    tag_110:\n      stop\n        /* \"moonx/moonx.sol\":1452:1493  mapping(uint256 => Course) public courses */\n    tag_20:\n      callvalue\n      dup1\n      iszero\n      tag_114\n      jumpi\n      0x00\n      dup1\n      revert\n    tag_114:\n      pop\n      tag_115\n      0x04\n      dup1\n      calldatasize\n      sub\n      dup2\n      add\n      swap1\n      tag_116\n      swap2\n      swap1\n      tag_79\n      jump\t// in\n    tag_116:\n      tag_117\n      jump\t// in\n    tag_115:\n      mload(0x40)\n      tag_118\n      swap7\n      swap6\n      swap5\n      swap4\n      swap3\n      swap2\n      swap1\n      tag_119\n      jump\t// in\n    tag_118:\n      mload(0x40)\n      dup1\n      swap2\n      sub\n      swap1\n      return\n        /* \"moonx/moonx.sol\":6443:7075  function claimStudentReward(uint256 _courseId) external payable whenNotPaused collectGasFee {... */\n    tag_21:\n      tag_120\n      0x04\n      dup1\n      calldatasize\n      sub\n      dup2\n      add\n      swap1\n      tag_121\n      swap2\n      swap1\n      tag_79\n      jump\t// in\n    tag_121:\n      tag_122\n      jump\t// in\n    tag_120:\n      stop\n        /* \"moonx/moonx.sol\":429:471  uint256 public constant POST_THRESHOLD = 5 */\n    tag_22:\n      callvalue\n      dup1\n      iszero\n      tag_123\n      jumpi\n      0x00\n      dup1\n      revert\n    tag_123:\n      pop\n      tag_124\n      tag_125\n      jump\t// in\n    tag_124:\n      mload(0x40)\n      tag_126\n      swap2\n      swap1\n      tag_56\n      jump\t// in\n    tag_126:\n      mload(0x40)\n      dup1\n      swap2\n      sub\n      swap1\n      return\n        /* \"moonx/moonx.sol\":653:697  uint256 public constant GAS_FEE = 0.75 ether */\n    tag_23:\n      callvalue\n      dup1\n      iszero\n      tag_127\n      jumpi\n      0x00\n      dup1\n      revert\n    tag_127:\n      pop\n      tag_128\n      tag_129\n      jump\t// in\n    tag_128:\n      mload(0x40)\n      tag_130\n      swap2\n      swap1\n      tag_56\n      jump\t// in\n    tag_130:\n      mload(0x40)\n      dup1\n      swap2\n      sub\n      swap1\n      return\n        /* \"moonx/moonx.sol\":379:423  uint256 public constant ENROLL_THRESHOLD = 5 */\n    tag_24:\n      callvalue\n      dup1\n      iszero\n      tag_131\n      jumpi\n      0x00\n      dup1\n      revert\n    tag_131:\n      pop\n      tag_132\n      tag_133\n      jump\t// in\n    tag_132:\n      mload(0x40)\n      tag_134\n      swap2\n      swap1\n      tag_56\n      jump\t// in\n    tag_134:\n      mload(0x40)\n      dup1\n      swap2\n      sub\n      swap1\n      return\n        /* \"moonx/moonx.sol\":1574:1621  mapping(uint256 => Quiz[]) public courseQuizzes */\n    tag_25:\n      callvalue\n      dup1\n      iszero\n      tag_135\n      jumpi\n      0x00\n      dup1\n      revert\n    tag_135:\n      pop\n      tag_136\n      0x04\n      dup1\n      calldatasize\n      sub\n      dup2\n      add\n      swap1\n      tag_137\n      swap2\n      swap1\n      tag_43\n      jump\t// in\n    tag_137:\n      tag_138\n      jump\t// in\n    tag_136:\n      mload(0x40)\n      tag_139\n      swap8\n      swap7\n      swap6\n      swap5\n      swap4\n      swap3\n      swap2\n      swap1\n      tag_140\n      jump\t// in\n    tag_139:\n      mload(0x40)\n      dup1\n      swap2\n      sub\n      swap1\n      return\n        /* \"moonx/moonx.sol\":8364:8814  function withdrawGasFees() external onlyOwner {... */\n    tag_26:\n      callvalue\n      dup1\n      iszero\n      tag_141\n      jumpi\n      0x00\n      dup1\n      revert\n    tag_141:\n      pop\n      tag_142\n      tag_143\n      jump\t// in\n    tag_142:\n      stop\n        /* \"moonx/moonx.sol\":7081:7768  function claimCreatorReward(uint256 _courseId) external payable whenNotPaused collectGasFee {... */\n    tag_27:\n      tag_144\n      0x04\n      dup1\n      calldatasize\n      sub\n      dup2\n      add\n      swap1\n      tag_145\n      swap2\n      swap1\n      tag_79\n      jump\t// in\n    tag_145:\n      tag_146\n      jump\t// in\n    tag_144:\n      stop\n        /* \"moonx/moonx.sol\":557:612  uint256 public constant CREATOR_REWARD_AMOUNT = 1 ether */\n    tag_28:\n      callvalue\n      dup1\n      iszero\n      tag_147\n      jumpi\n      0x00\n      dup1\n      revert\n    tag_147:\n      pop\n      tag_148\n      tag_149\n      jump\t// in\n    tag_148:\n      mload(0x40)\n      tag_150\n      swap2\n      swap1\n      tag_56\n      jump\t// in\n    tag_150:\n      mload(0x40)\n      dup1\n      swap2\n      sub\n      swap1\n      return\n        /* \"moonx/moonx.sol\":4018:5412  function createQuiz(... */\n    tag_29:\n      tag_151\n      0x04\n      dup1\n      calldatasize\n      sub\n      dup2\n      add\n      swap1\n      tag_152\n      swap2\n      swap1\n      tag_153\n      jump\t// in\n    tag_152:\n      tag_154\n      jump\t// in\n    tag_151:\n      stop\n        /* \"@openzeppelin/contracts/access/Ownable.sol\":2543:2758  function transferOwnership(address newOwner) public virtual onlyOwner {... */\n    tag_30:\n      callvalue\n      dup1\n      iszero\n      tag_155\n      jumpi\n      0x00\n      dup1\n      revert\n    tag_155:\n      pop\n      tag_156\n      0x04\n      dup1\n      calldatasize\n      sub\n      dup2\n      add\n      swap1\n      tag_157\n      swap2\n      swap1\n      tag_112\n      jump\t// in\n    tag_157:\n      tag_158\n      jump\t// in\n    tag_156:\n      stop\n        /* \"moonx/moonx.sol\":477:533  uint256 public constant STUDENT_REWARD_AMOUNT = 10 ether */\n    tag_31:\n      callvalue\n      dup1\n      iszero\n      tag_159\n      jumpi\n      0x00\n      dup1\n      revert\n    tag_159:\n      pop\n      tag_160\n      tag_161\n      jump\t// in\n    tag_160:\n      mload(0x40)\n      tag_162\n      swap2\n      swap1\n      tag_56\n      jump\t// in\n    tag_162:\n      mload(0x40)\n      dup1\n      swap2\n      sub\n      swap1\n      return\n        /* \"moonx/moonx.sol\":7774:8358  function withdrawCreatorTokens(uint256 _courseId, uint256 _amount) external payable whenNotPaused collectGasFee {... */\n    tag_44:\n        /* \"@openzeppelin/contracts/security/Pausable.sol\":1239:1258  _requireNotPaused() */\n      tag_164\n        /* \"@openzeppelin/contracts/security/Pausable.sol\":1239:1256  _requireNotPaused */\n      tag_165\n        /* \"@openzeppelin/contracts/security/Pausable.sol\":1239:1258  _requireNotPaused() */\n      jump\t// in\n    tag_164:\n        /* \"moonx/moonx.sol\":687:697  0.75 ether */\n      0x0a688906bd8b0000\n        /* \"moonx/moonx.sol\":2620:2629  msg.value */\n      callvalue\n        /* \"moonx/moonx.sol\":2620:2640  msg.value >= GAS_FEE */\n      lt\n      iszero\n        /* \"moonx/moonx.sol\":2612:2665  require(msg.value >= GAS_FEE, \"Insufficient gas fee\") */\n      tag_167\n      jumpi\n      mload(0x40)\n      0x08c379a000000000000000000000000000000000000000000000000000000000\n      dup2\n      mstore\n      0x04\n      add\n      tag_168\n      swap1\n      tag_169\n      jump\t// in\n    tag_168:\n      mload(0x40)\n      dup1\n      swap2\n      sub\n      swap1\n      revert\n    tag_167:\n        /* \"moonx/moonx.sol\":687:697  0.75 ether */\n      0x0a688906bd8b0000\n        /* \"moonx/moonx.sol\":2675:2690  accumulatedFees */\n      0x03\n      0x00\n        /* \"moonx/moonx.sol\":2675:2701  accumulatedFees += GAS_FEE */\n      dup3\n      dup3\n      sload\n      tag_170\n      swap2\n      swap1\n      tag_171\n      jump\t// in\n    tag_170:\n      swap3\n      pop\n      pop\n      dup2\n      swap1\n      sstore\n      pop\n        /* \"moonx/moonx.sol\":2711:2725  uint256 excess */\n      0x00\n        /* \"moonx/moonx.sol\":687:697  0.75 ether */\n      0x0a688906bd8b0000\n        /* \"moonx/moonx.sol\":2728:2737  msg.value */\n      callvalue\n        /* \"moonx/moonx.sol\":2728:2747  msg.value - GAS_FEE */\n      tag_172\n      swap2\n      swap1\n      tag_173\n      jump\t// in\n    tag_172:\n        /* \"moonx/moonx.sol\":2711:2747  uint256 excess = msg.value - GAS_FEE */\n      swap1\n      pop\n        /* \"moonx/moonx.sol\":2770:2771  0 */\n      0x00\n        /* \"moonx/moonx.sol\":2761:2767  excess */\n      dup2\n        /* \"moonx/moonx.sol\":2761:2771  excess > 0 */\n      gt\n        /* \"moonx/moonx.sol\":2757:2834  if (excess > 0) {... */\n      iszero\n      tag_174\n      jumpi\n        /* \"moonx/moonx.sol\":2795:2805  msg.sender */\n      caller\n        /* \"moonx/moonx.sol\":2787:2815  payable(msg.sender).transfer */\n      0xffffffffffffffffffffffffffffffffffffffff\n      and\n        /* \"moonx/moonx.sol\":2787:2823  payable(msg.sender).transfer(excess) */\n      0x08fc\n        /* \"moonx/moonx.sol\":2816:2822  excess */\n      dup3\n        /* \"moonx/moonx.sol\":2787:2823  payable(msg.sender).transfer(excess) */\n      swap1\n      dup2\n      iszero\n      mul\n      swap1\n      mload(0x40)\n      0x00\n      mload(0x40)\n      dup1\n      dup4\n      sub\n      dup2\n      dup6\n      dup9\n      dup9\n      call\n      swap4\n      pop\n      pop\n      pop\n      pop\n      iszero\n      dup1\n      iszero\n      tag_176\n      jumpi\n      returndatasize\n      0x00\n      dup1\n      returndatacopy\n      revert(0x00, returndatasize)\n    tag_176:\n      pop\n        /* \"moonx/moonx.sol\":2757:2834  if (excess > 0) {... */\n    tag_174:\n        /* \"moonx/moonx.sol\":7896:7917  Course storage course */\n      0x00\n        /* \"moonx/moonx.sol\":7920:7927  courses */\n      0x04\n        /* \"moonx/moonx.sol\":7920:7938  courses[_courseId] */\n      0x00\n        /* \"moonx/moonx.sol\":7928:7937  _courseId */\n      dup6\n        /* \"moonx/moonx.sol\":7920:7938  courses[_courseId] */\n      dup2\n      mstore\n      0x20\n      add\n      swap1\n      dup2\n      mstore\n      0x20\n      add\n      0x00\n      keccak256\n        /* \"moonx/moonx.sol\":7896:7938  Course storage course = courses[_courseId] */\n      swap1\n      pop\n        /* \"moonx/moonx.sol\":7970:7976  course */\n      dup1\n        /* \"moonx/moonx.sol\":7970:7984  course.creator */\n      0x00\n      add\n      0x00\n      swap1\n      sload\n      swap1\n      0x0100\n      exp\n      swap1\n      div\n      0xffffffffffffffffffffffffffffffffffffffff\n      and\n        /* \"moonx/moonx.sol\":7956:7984  msg.sender == course.creator */\n      0xffffffffffffffffffffffffffffffffffffffff\n      and\n        /* \"moonx/moonx.sol\":7956:7966  msg.sender */\n      caller\n        /* \"moonx/moonx.sol\":7956:7984  msg.sender == course.creator */\n      0xffffffffffffffffffffffffffffffffffffffff\n      and\n      eq\n        /* \"moonx/moonx.sol\":7948:8028  require(msg.sender == course.creator, \"Only course creator can withdraw tokens\") */\n      tag_178\n      jumpi\n      mload(0x40)\n      0x08c379a000000000000000000000000000000000000000000000000000000000\n      dup2\n      mstore\n      0x04\n      add\n      tag_179\n      swap1\n      tag_180\n      jump\t// in\n    tag_179:\n      mload(0x40)\n      dup1\n      swap2\n      sub\n      swap1\n      revert\n    tag_178:\n        /* \"moonx/moonx.sol\":8070:8077  _amount */\n      dup3\n        /* \"moonx/moonx.sol\":8046:8052  course */\n      dup2\n        /* \"moonx/moonx.sol\":8046:8066  course.totalRewarded */\n      0x04\n      add\n      sload\n        /* \"moonx/moonx.sol\":8046:8077  course.totalRewarded >= _amount */\n      lt\n      iszero\n        /* \"moonx/moonx.sol\":8038:8122  require(course.totalRewarded >= _amount, \"Insufficient rewarded tokens to withdraw\") */\n      tag_181\n      jumpi\n      mload(0x40)\n      0x08c379a000000000000000000000000000000000000000000000000000000000\n      dup2\n      mstore\n      0x04\n      add\n      tag_182\n      swap1\n      tag_183\n      jump\t// in\n    tag_182:\n      mload(0x40)\n      dup1\n      swap2\n      sub\n      swap1\n      revert\n    tag_181:\n        /* \"moonx/moonx.sol\":8157:8164  _amount */\n      dup3\n        /* \"moonx/moonx.sol\":8133:8139  course */\n      dup2\n        /* \"moonx/moonx.sol\":8133:8153  course.totalRewarded */\n      0x04\n      add\n      0x00\n        /* \"moonx/moonx.sol\":8133:8164  course.totalRewarded -= _amount */\n      dup3\n      dup3\n      sload\n      tag_184\n      swap2\n      swap1\n      tag_173\n      jump\t// in\n    tag_184:\n      swap3\n      pop\n      pop\n      dup2\n      swap1\n      sstore\n      pop\n        /* \"moonx/moonx.sol\":8175:8187  bool success */\n      0x00\n        /* \"moonx/moonx.sol\":8201:8211  msg.sender */\n      caller\n        /* \"moonx/moonx.sol\":8193:8217  payable(msg.sender).call */\n      0xffffffffffffffffffffffffffffffffffffffff\n      and\n        /* \"moonx/moonx.sol\":8225:8232  _amount */\n      dup5\n        /* \"moonx/moonx.sol\":8193:8237  payable(msg.sender).call{value: _amount}(\"\") */\n      mload(0x40)\n      tag_185\n      swap1\n      tag_186\n      jump\t// in\n    tag_185:\n      0x00\n      mload(0x40)\n      dup1\n      dup4\n      sub\n      dup2\n      dup6\n      dup8\n      gas\n      call\n      swap3\n      pop\n      pop\n      pop\n      returndatasize\n      dup1\n      0x00\n      dup2\n      eq\n      tag_189\n      jumpi\n      mload(0x40)\n      swap2\n      pop\n      and(add(returndatasize, 0x3f), not(0x1f))\n      dup3\n      add\n      0x40\n      mstore\n      returndatasize\n      dup3\n      mstore\n      returndatasize\n      0x00\n      0x20\n      dup5\n      add\n      returndatacopy\n      jump(tag_188)\n    tag_189:\n      0x60\n      swap2\n      pop\n    tag_188:\n      pop\n        /* \"moonx/moonx.sol\":8174:8237  (bool success, ) = payable(msg.sender).call{value: _amount}(\"\") */\n      pop\n      swap1\n      pop\n        /* \"moonx/moonx.sol\":8255:8262  success */\n      dup1\n        /* \"moonx/moonx.sol\":8247:8286  require(success, \"Failed to send MAND\") */\n      tag_190\n      jumpi\n      mload(0x40)\n      0x08c379a000000000000000000000000000000000000000000000000000000000\n      dup2\n      mstore\n      0x04\n      add\n      tag_191\n      swap1\n      tag_192\n      jump\t// in\n    tag_191:\n      mload(0x40)\n      dup1\n      swap2\n      sub\n      swap1\n      revert\n    tag_190:\n        /* \"moonx/moonx.sol\":8331:8341  msg.sender */\n      caller\n        /* \"moonx/moonx.sol\":8302:8351  CreatorWithdrawal(_courseId, msg.sender, _amount) */\n      0xffffffffffffffffffffffffffffffffffffffff\n      and\n        /* \"moonx/moonx.sol\":8320:8329  _courseId */\n      dup6\n        /* \"moonx/moonx.sol\":8302:8351  CreatorWithdrawal(_courseId, msg.sender, _amount) */\n      0xac49faceac63eafdea924340376e875517fd2e5b7e9b63c9bbbc464e166233f6\n        /* \"moonx/moonx.sol\":8343:8350  _amount */\n      dup7\n        /* \"moonx/moonx.sol\":8302:8351  CreatorWithdrawal(_courseId, msg.sender, _amount) */\n      mload(0x40)\n      tag_193\n      swap2\n      swap1\n      tag_56\n      jump\t// in\n    tag_193:\n      mload(0x40)\n      dup1\n      swap2\n      sub\n      swap1\n      log3\n        /* \"moonx/moonx.sol\":7886:8358  {... */\n      pop\n      pop\n        /* \"moonx/moonx.sol\":2602:2851  {... */\n      pop\n        /* \"moonx/moonx.sol\":7774:8358  function withdrawCreatorTokens(uint256 _courseId, uint256 _amount) external payable whenNotPaused collectGasFee {... */\n      pop\n      pop\n      jump\t// out\n        /* \"moonx/moonx.sol\":1499:1568  mapping(address => mapping(uint256 => Enrollment)) public enrollments */\n    tag_49:\n      mstore(0x20, 0x05)\n      dup2\n      0x00\n      mstore\n      mstore(0x20, keccak256(0x00, 0x40))\n      dup1\n      0x00\n      mstore\n      keccak256(0x00, 0x40)\n      0x00\n      swap2\n      pop\n      swap2\n      pop\n      pop\n      dup1\n      0x00\n      add\n      0x00\n      swap1\n      sload\n      swap1\n      0x0100\n      exp\n      swap1\n      div\n      0xff\n      and\n      swap1\n      dup1\n      0x00\n      add\n      0x01\n      swap1\n      sload\n      swap1\n      0x0100\n      exp\n      swap1\n      div\n      0xff\n      and\n      swap1\n      dup1\n      0x00\n      add\n      0x02\n      swap1\n      sload\n      swap1\n      0x0100\n      exp\n      swap1\n      div\n      0xff\n      and\n      swap1\n      dup1\n      0x00\n      add\n      0x03\n      swap1\n      sload\n      swap1\n      0x0100\n      exp\n      swap1\n      div\n      0xff\n      and\n      swap1\n      pop\n      dup5\n      jump\t// out\n        /* \"moonx/moonx.sol\":784:817  uint256 public lastWithdrawalTime */\n    tag_54:\n      sload(0x02)\n      dup2\n      jump\t// out\n        /* \"moonx/moonx.sol\":8887:8952  function unpause() external onlyOwner {... */\n    tag_59:\n        /* \"@openzeppelin/contracts/access/Ownable.sol\":1531:1544  _checkOwner() */\n      tag_195\n        /* \"@openzeppelin/contracts/access/Ownable.sol\":1531:1542  _checkOwner */\n      tag_196\n        /* \"@openzeppelin/contracts/access/Ownable.sol\":1531:1544  _checkOwner() */\n      jump\t// in\n    tag_195:\n        /* \"moonx/moonx.sol\":8935:8945  _unpause() */\n      tag_198\n        /* \"moonx/moonx.sol\":8935:8943  _unpause */\n      tag_199\n        /* \"moonx/moonx.sol\":8935:8945  _unpause() */\n      jump\t// in\n    tag_198:\n        /* \"moonx/moonx.sol\":8887:8952  function unpause() external onlyOwner {... */\n      jump\t// out\n        /* \"moonx/moonx.sol\":723:777  uint256 public constant WITHDRAWAL_INTERVAL = 100 days */\n    tag_62:\n        /* \"moonx/moonx.sol\":769:777  100 days */\n      0x83d600\n        /* \"moonx/moonx.sol\":723:777  uint256 public constant WITHDRAWAL_INTERVAL = 100 days */\n      dup2\n      jump\t// out\n        /* \"moonx/moonx.sol\":823:853  uint256 public accumulatedFees */\n    tag_66:\n      sload(0x03)\n      dup2\n      jump\t// out\n        /* \"@openzeppelin/contracts/security/Pausable.sol\":1615:1699  function paused() public view virtual returns (bool) {... */\n    tag_70:\n        /* \"@openzeppelin/contracts/security/Pausable.sol\":1662:1666  bool */\n      0x00\n        /* \"@openzeppelin/contracts/security/Pausable.sol\":1685:1692  _paused */\n      dup1\n      0x14\n      swap1\n      sload\n      swap1\n      0x0100\n      exp\n      swap1\n      div\n      0xff\n      and\n        /* \"@openzeppelin/contracts/security/Pausable.sol\":1678:1692  return _paused */\n      swap1\n      pop\n        /* \"@openzeppelin/contracts/security/Pausable.sol\":1615:1699  function paused() public view virtual returns (bool) {... */\n      swap1\n      jump\t// out\n        /* \"moonx/moonx.sol\":5418:6437  function attemptQuiz(uint256 _courseId, string[] memory _answers) external payable collectGasFee {... */\n    tag_76:\n        /* \"moonx/moonx.sol\":687:697  0.75 ether */\n      0x0a688906bd8b0000\n        /* \"moonx/moonx.sol\":2620:2629  msg.value */\n      callvalue\n        /* \"moonx/moonx.sol\":2620:2640  msg.value >= GAS_FEE */\n      lt\n      iszero\n        /* \"moonx/moonx.sol\":2612:2665  require(msg.value >= GAS_FEE, \"Insufficient gas fee\") */\n      tag_202\n      jumpi\n      mload(0x40)\n      0x08c379a000000000000000000000000000000000000000000000000000000000\n      dup2\n      mstore\n      0x04\n      add\n      tag_203\n      swap1\n      tag_169\n      jump\t// in\n    tag_203:\n      mload(0x40)\n      dup1\n      swap2\n      sub\n      swap1\n      revert\n    tag_202:\n        /* \"moonx/moonx.sol\":687:697  0.75 ether */\n      0x0a688906bd8b0000\n        /* \"moonx/moonx.sol\":2675:2690  accumulatedFees */\n      0x03\n      0x00\n        /* \"moonx/moonx.sol\":2675:2701  accumulatedFees += GAS_FEE */\n      dup3\n      dup3\n      sload\n      tag_204\n      swap2\n      swap1\n      tag_171\n      jump\t// in\n    tag_204:\n      swap3\n      pop\n      pop\n      dup2\n      swap1\n      sstore\n      pop\n        /* \"moonx/moonx.sol\":2711:2725  uint256 excess */\n      0x00\n        /* \"moonx/moonx.sol\":687:697  0.75 ether */\n      0x0a688906bd8b0000\n        /* \"moonx/moonx.sol\":2728:2737  msg.value */\n      callvalue\n        /* \"moonx/moonx.sol\":2728:2747  msg.value - GAS_FEE */\n      tag_205\n      swap2\n      swap1\n      tag_173\n      jump\t// in\n    tag_205:\n        /* \"moonx/moonx.sol\":2711:2747  uint256 excess = msg.value - GAS_FEE */\n      swap1\n      pop\n        /* \"moonx/moonx.sol\":2770:2771  0 */\n      0x00\n        /* \"moonx/moonx.sol\":2761:2767  excess */\n      dup2\n        /* \"moonx/moonx.sol\":2761:2771  excess > 0 */\n      gt\n        /* \"moonx/moonx.sol\":2757:2834  if (excess > 0) {... */\n      iszero\n      tag_206\n      jumpi\n        /* \"moonx/moonx.sol\":2795:2805  msg.sender */\n      caller\n        /* \"moonx/moonx.sol\":2787:2815  payable(msg.sender).transfer */\n      0xffffffffffffffffffffffffffffffffffffffff\n      and\n        /* \"moonx/moonx.sol\":2787:2823  payable(msg.sender).transfer(excess) */\n      0x08fc\n        /* \"moonx/moonx.sol\":2816:2822  excess */\n      dup3\n        /* \"moonx/moonx.sol\":2787:2823  payable(msg.sender).transfer(excess) */\n      swap1\n      dup2\n      iszero\n      mul\n      swap1\n      mload(0x40)\n      0x00\n      mload(0x40)\n      dup1\n      dup4\n      sub\n      dup2\n      dup6\n      dup9\n      dup9\n      call\n      swap4\n      pop\n      pop\n      pop\n      pop\n      iszero\n      dup1\n      iszero\n      tag_208\n      jumpi\n      returndatasize\n      0x00\n      dup1\n      returndatacopy\n      revert(0x00, returndatasize)\n    tag_208:\n      pop\n        /* \"moonx/moonx.sol\":2757:2834  if (excess > 0) {... */\n    tag_206:\n        /* \"moonx/moonx.sol\":5525:5554  Enrollment storage enrollment */\n      0x00\n        /* \"moonx/moonx.sol\":5557:5568  enrollments */\n      0x05\n        /* \"moonx/moonx.sol\":5557:5580  enrollments[msg.sender] */\n      0x00\n        /* \"moonx/moonx.sol\":5569:5579  msg.sender */\n      caller\n        /* \"moonx/moonx.sol\":5557:5580  enrollments[msg.sender] */\n      0xffffffffffffffffffffffffffffffffffffffff\n      and\n      0xffffffffffffffffffffffffffffffffffffffff\n      and\n      dup2\n      mstore\n      0x20\n      add\n      swap1\n      dup2\n      mstore\n      0x20\n      add\n      0x00\n      keccak256\n        /* \"moonx/moonx.sol\":5557:5591  enrollments[msg.sender][_courseId] */\n      0x00\n        /* \"moonx/moonx.sol\":5581:5590  _courseId */\n      dup6\n        /* \"moonx/moonx.sol\":5557:5591  enrollments[msg.sender][_courseId] */\n      dup2\n      mstore\n      0x20\n      add\n      swap1\n      dup2\n      mstore\n      0x20\n      add\n      0x00\n      keccak256\n        /* \"moonx/moonx.sol\":5525:5591  Enrollment storage enrollment = enrollments[msg.sender][_courseId] */\n      swap1\n      pop\n        /* \"moonx/moonx.sol\":5609:5619  enrollment */\n      dup1\n        /* \"moonx/moonx.sol\":5609:5630  enrollment.isEnrolled */\n      0x00\n      add\n      0x00\n      swap1\n      sload\n      swap1\n      0x0100\n      exp\n      swap1\n      div\n      0xff\n      and\n        /* \"moonx/moonx.sol\":5601:5667  require(enrollment.isEnrolled, \"User not enrolled in this course\") */\n      tag_210\n      jumpi\n      mload(0x40)\n      0x08c379a000000000000000000000000000000000000000000000000000000000\n      dup2\n      mstore\n      0x04\n      add\n      tag_211\n      swap1\n      tag_212\n      jump\t// in\n    tag_211:\n      mload(0x40)\n      dup1\n      swap2\n      sub\n      swap1\n      revert\n    tag_210:\n        /* \"moonx/moonx.sol\":5711:5712  2 */\n      0x02\n        /* \"moonx/moonx.sol\":5685:5695  enrollment */\n      dup2\n        /* \"moonx/moonx.sol\":5685:5708  enrollment.attemptCount */\n      0x00\n      add\n      0x01\n      swap1\n      sload\n      swap1\n      0x0100\n      exp\n      swap1\n      div\n      0xff\n      and\n        /* \"moonx/moonx.sol\":5685:5712  enrollment.attemptCount < 2 */\n      0xff\n      and\n      lt\n        /* \"moonx/moonx.sol\":5677:5741  require(enrollment.attemptCount < 2, \"Maximum attempts reached\") */\n      tag_213\n      jumpi\n      mload(0x40)\n      0x08c379a000000000000000000000000000000000000000000000000000000000\n      dup2\n      mstore\n      0x04\n      add\n      tag_214\n      swap1\n      tag_215\n      jump\t// in\n    tag_214:\n      mload(0x40)\n      dup1\n      swap2\n      sub\n      swap1\n      revert\n    tag_213:\n        /* \"moonx/moonx.sol\":5760:5770  enrollment */\n      dup1\n        /* \"moonx/moonx.sol\":5760:5780  enrollment.hasPassed */\n      0x00\n      add\n      0x02\n      swap1\n      sload\n      swap1\n      0x0100\n      exp\n      swap1\n      div\n      0xff\n      and\n        /* \"moonx/moonx.sol\":5759:5780  !enrollment.hasPassed */\n      iszero\n        /* \"moonx/moonx.sol\":5751:5820  require(!enrollment.hasPassed, \"User has already passed this course\") */\n      tag_216\n      jumpi\n      mload(0x40)\n      0x08c379a000000000000000000000000000000000000000000000000000000000\n      dup2\n      mstore\n      0x04\n      add\n      tag_217\n      swap1\n      tag_218\n      jump\t// in\n    tag_217:\n      mload(0x40)\n      dup1\n      swap2\n      sub\n      swap1\n      revert\n    tag_216:\n        /* \"moonx/moonx.sol\":5831:5841  enrollment */\n      dup1\n        /* \"moonx/moonx.sol\":5831:5854  enrollment.attemptCount */\n      0x00\n      add\n      0x01\n        /* \"moonx/moonx.sol\":5831:5856  enrollment.attemptCount++ */\n      dup2\n      dup2\n      swap1\n      sload\n      swap1\n      0x0100\n      exp\n      swap1\n      div\n      0xff\n      and\n      dup1\n      swap3\n      swap2\n      swap1\n      tag_219\n      swap1\n      tag_220\n      jump\t// in\n    tag_219:\n      swap2\n      swap1\n      0x0100\n      exp\n      dup2\n      sload\n      dup2\n      0xff\n      mul\n      not\n      and\n      swap1\n      dup4\n      0xff\n      and\n      mul\n      or\n      swap1\n      sstore\n      pop\n      pop\n        /* \"moonx/moonx.sol\":5866:5887  Quiz[] memory quizzes */\n      0x00\n        /* \"moonx/moonx.sol\":5890:5903  courseQuizzes */\n      0x06\n        /* \"moonx/moonx.sol\":5890:5914  courseQuizzes[_courseId] */\n      0x00\n        /* \"moonx/moonx.sol\":5904:5913  _courseId */\n      dup7\n        /* \"moonx/moonx.sol\":5890:5914  courseQuizzes[_courseId] */\n      dup2\n      mstore\n      0x20\n      add\n      swap1\n      dup2\n      mstore\n      0x20\n      add\n      0x00\n      keccak256\n        /* \"moonx/moonx.sol\":5866:5914  Quiz[] memory quizzes = courseQuizzes[_courseId] */\n      dup1\n      sload\n      dup1\n      0x20\n      mul\n      0x20\n      add\n      mload(0x40)\n      swap1\n      dup2\n      add\n      0x40\n      mstore\n      dup1\n      swap3\n      swap2\n      swap1\n      dup2\n      dup2\n      mstore\n      0x20\n      add\n      0x00\n      swap1\n    tag_221:\n      dup3\n      dup3\n      lt\n      iszero\n      tag_222\n      jumpi\n      dup4\n      dup3\n      swap1\n      0x00\n      mstore\n      keccak256(0x00, 0x20)\n      swap1\n      0x07\n      mul\n      add\n      mload(0x40)\n      dup1\n      0xe0\n      add\n      0x40\n      mstore\n      swap1\n      dup2\n      0x00\n      dup3\n      add\n      sload\n      dup2\n      mstore\n      0x20\n      add\n      0x01\n      dup3\n      add\n      dup1\n      sload\n      tag_224\n      swap1\n      tag_225\n      jump\t// in\n    tag_224:\n      dup1\n      0x1f\n      add\n      0x20\n      dup1\n      swap2\n      div\n      mul\n      0x20\n      add\n      mload(0x40)\n      swap1\n      dup2\n      add\n      0x40\n      mstore\n      dup1\n      swap3\n      swap2\n      swap1\n      dup2\n      dup2\n      mstore\n      0x20\n      add\n      dup3\n      dup1\n      sload\n      tag_226\n      swap1\n      tag_225\n      jump\t// in\n    tag_226:\n      dup1\n      iszero\n      tag_227\n      jumpi\n      dup1\n      0x1f\n      lt\n      tag_228\n      jumpi\n      0x0100\n      dup1\n      dup4\n      sload\n      div\n      mul\n      dup4\n      mstore\n      swap2\n      0x20\n      add\n      swap2\n      jump(tag_227)\n    tag_228:\n      dup3\n      add\n      swap2\n      swap1\n      0x00\n      mstore\n      keccak256(0x00, 0x20)\n      swap1\n    tag_229:\n      dup2\n      sload\n      dup2\n      mstore\n      swap1\n      0x01\n      add\n      swap1\n      0x20\n      add\n      dup1\n      dup4\n      gt\n      tag_229\n      jumpi\n      dup3\n      swap1\n      sub\n      0x1f\n      and\n      dup3\n      add\n      swap2\n    tag_227:\n      pop\n      pop\n      pop\n      pop\n      pop\n      dup2\n      mstore\n      0x20\n      add\n      0x02\n      dup3\n      add\n      dup1\n      sload\n      tag_230\n      swap1\n      tag_225\n      jump\t// in\n    tag_230:\n      dup1\n      0x1f\n      add\n      0x20\n      dup1\n      swap2\n      div\n      mul\n      0x20\n      add\n      mload(0x40)\n      swap1\n      dup2\n      add\n      0x40\n      mstore\n      dup1\n      swap3\n      swap2\n      swap1\n      dup2\n      dup2\n      mstore\n      0x20\n      add\n      dup3\n      dup1\n      sload\n      tag_231\n      swap1\n      tag_225\n      jump\t// in\n    tag_231:\n      dup1\n      iszero\n      tag_232\n      jumpi\n      dup1\n      0x1f\n      lt\n      tag_233\n      jumpi\n      0x0100\n      dup1\n      dup4\n      sload\n      div\n      mul\n      dup4\n      mstore\n      swap2\n      0x20\n      add\n      swap2\n      jump(tag_232)\n    tag_233:\n      dup3\n      add\n      swap2\n      swap1\n      0x00\n      mstore\n      keccak256(0x00, 0x20)\n      swap1\n    tag_234:\n      dup2\n      sload\n      dup2\n      mstore\n      swap1\n      0x01\n      add\n      swap1\n      0x20\n      add\n      dup1\n      dup4\n      gt\n      tag_234\n      jumpi\n      dup3\n      swap1\n      sub\n      0x1f\n      and\n      dup3\n      add\n      swap2\n    tag_232:\n      pop\n      pop\n      pop\n      pop\n      pop\n      dup2\n      mstore\n      0x20\n      add\n      0x03\n      dup3\n      add\n      dup1\n      sload\n      tag_235\n      swap1\n      tag_225\n      jump\t// in\n    tag_235:\n      dup1\n      0x1f\n      add\n      0x20\n      dup1\n      swap2\n      div\n      mul\n      0x20\n      add\n      mload(0x40)\n      swap1\n      dup2\n      add\n      0x40\n      mstore\n      dup1\n      swap3\n      swap2\n      swap1\n      dup2\n      dup2\n      mstore\n      0x20\n      add\n      dup3\n      dup1\n      sload\n      tag_236\n      swap1\n      tag_225\n      jump\t// in\n    tag_236:\n      dup1\n      iszero\n      tag_237\n      jumpi\n      dup1\n      0x1f\n      lt\n      tag_238\n      jumpi\n      0x0100\n      dup1\n      dup4\n      sload\n      div\n      mul\n      dup4\n      mstore\n      swap2\n      0x20\n      add\n      swap2\n      jump(tag_237)\n    tag_238:\n      dup3\n      add\n      swap2\n      swap1\n      0x00\n      mstore\n      keccak256(0x00, 0x20)\n      swap1\n    tag_239:\n      dup2\n      sload\n      dup2\n      mstore\n      swap1\n      0x01\n      add\n      swap1\n      0x20\n      add\n      dup1\n      dup4\n      gt\n      tag_239\n      jumpi\n      dup3\n      swap1\n      sub\n      0x1f\n      and\n      dup3\n      add\n      swap2\n    tag_237:\n      pop\n      pop\n      pop\n      pop\n      pop\n      dup2\n      mstore\n      0x20\n      add\n      0x04\n      dup3\n      add\n      dup1\n      sload\n      tag_240\n      swap1\n      tag_225\n      jump\t// in\n    tag_240:\n      dup1\n      0x1f\n      add\n      0x20\n      dup1\n      swap2\n      div\n      mul\n      0x20\n      add\n      mload(0x40)\n      swap1\n      dup2\n      add\n      0x40\n      mstore\n      dup1\n      swap3\n      swap2\n      swap1\n      dup2\n      dup2\n      mstore\n      0x20\n      add\n      dup3\n      dup1\n      sload\n      tag_241\n      swap1\n      tag_225\n      jump\t// in\n    tag_241:\n      dup1\n      iszero\n      tag_242\n      jumpi\n      dup1\n      0x1f\n      lt\n      tag_243\n      jumpi\n      0x0100\n      dup1\n      dup4\n      sload\n      div\n      mul\n      dup4\n      mstore\n      swap2\n      0x20\n      add\n      swap2\n      jump(tag_242)\n    tag_243:\n      dup3\n      add\n      swap2\n      swap1\n      0x00\n      mstore\n      keccak256(0x00, 0x20)\n      swap1\n    tag_244:\n      dup2\n      sload\n      dup2\n      mstore\n      swap1\n      0x01\n      add\n      swap1\n      0x20\n      add\n      dup1\n      dup4\n      gt\n      tag_244\n      jumpi\n      dup3\n      swap1\n      sub\n      0x1f\n      and\n      dup3\n      add\n      swap2\n    tag_242:\n      pop\n      pop\n      pop\n      pop\n      pop\n      dup2\n      mstore\n      0x20\n      add\n      0x05\n      dup3\n      add\n      dup1\n      sload\n      tag_245\n      swap1\n      tag_225\n      jump\t// in\n    tag_245:\n      dup1\n      0x1f\n      add\n      0x20\n      dup1\n      swap2\n      div\n      mul\n      0x20\n      add\n      mload(0x40)\n      swap1\n      dup2\n      add\n      0x40\n      mstore\n      dup1\n      swap3\n      swap2\n      swap1\n      dup2\n      dup2\n      mstore\n      0x20\n      add\n      dup3\n      dup1\n      sload\n      tag_246\n      swap1\n      tag_225\n      jump\t// in\n    tag_246:\n      dup1\n      iszero\n      tag_247\n      jumpi\n      dup1\n      0x1f\n      lt\n      tag_248\n      jumpi\n      0x0100\n      dup1\n      dup4\n      sload\n      div\n      mul\n      dup4\n      mstore\n      swap2\n      0x20\n      add\n      swap2\n      jump(tag_247)\n    tag_248:\n      dup3\n      add\n      swap2\n      swap1\n      0x00\n      mstore\n      keccak256(0x00, 0x20)\n      swap1\n    tag_249:\n      dup2\n      sload\n      dup2\n      mstore\n      swap1\n      0x01\n      add\n      swap1\n      0x20\n      add\n      dup1\n      dup4\n      gt\n      tag_249\n      jumpi\n      dup3\n      swap1\n      sub\n      0x1f\n      and\n      dup3\n      add\n      swap2\n    tag_247:\n      pop\n      pop\n      pop\n      pop\n      pop\n      dup2\n      mstore\n      0x20\n      add\n      0x06\n      dup3\n      add\n      sload\n      dup2\n      mstore\n      pop\n      pop\n      dup2\n      mstore\n      0x20\n      add\n      swap1\n      0x01\n      add\n      swap1\n      jump(tag_221)\n    tag_222:\n      pop\n      pop\n      pop\n      pop\n      swap1\n      pop\n        /* \"moonx/moonx.sol\":5951:5958  quizzes */\n      dup1\n        /* \"moonx/moonx.sol\":5951:5965  quizzes.length */\n      mload\n        /* \"moonx/moonx.sol\":5932:5940  _answers */\n      dup5\n        /* \"moonx/moonx.sol\":5932:5947  _answers.length */\n      mload\n        /* \"moonx/moonx.sol\":5932:5965  _answers.length == quizzes.length */\n      eq\n        /* \"moonx/moonx.sol\":5924:5991  require(_answers.length == quizzes.length, \"Answer count mismatch\") */\n      tag_250\n      jumpi\n      mload(0x40)\n      0x08c379a000000000000000000000000000000000000000000000000000000000\n      dup2\n      mstore\n      0x04\n      add\n      tag_251\n      swap1\n      tag_252\n      jump\t// in\n    tag_251:\n      mload(0x40)\n      dup1\n      swap2\n      sub\n      swap1\n      revert\n    tag_250:\n        /* \"moonx/moonx.sol\":6002:6013  bool passed */\n      0x00\n        /* \"moonx/moonx.sol\":6016:6020  true */\n      0x01\n        /* \"moonx/moonx.sol\":6002:6020  bool passed = true */\n      swap1\n      pop\n        /* \"moonx/moonx.sol\":6036:6045  uint256 i */\n      0x00\n        /* \"moonx/moonx.sol\":6031:6248  for (uint256 i = 0; i < quizzes.length; i++) {... */\n    tag_253:\n        /* \"moonx/moonx.sol\":6055:6062  quizzes */\n      dup3\n        /* \"moonx/moonx.sol\":6055:6069  quizzes.length */\n      mload\n        /* \"moonx/moonx.sol\":6051:6052  i */\n      dup2\n        /* \"moonx/moonx.sol\":6051:6069  i < quizzes.length */\n      lt\n        /* \"moonx/moonx.sol\":6031:6248  for (uint256 i = 0; i < quizzes.length; i++) {... */\n      iszero\n      tag_254\n      jumpi\n        /* \"moonx/moonx.sol\":6138:6145  quizzes */\n      dup3\n        /* \"moonx/moonx.sol\":6146:6147  i */\n      dup2\n        /* \"moonx/moonx.sol\":6138:6148  quizzes[i] */\n      dup2\n      mload\n      dup2\n      lt\n      tag_256\n      jumpi\n      tag_257\n      tag_258\n      jump\t// in\n    tag_257:\n    tag_256:\n      0x20\n      mul\n      0x20\n      add\n      add\n      mload\n        /* \"moonx/moonx.sol\":6138:6166  quizzes[i].correctAnswerHash */\n      0xc0\n      add\n      mload\n        /* \"moonx/moonx.sol\":6121:6129  _answers */\n      dup7\n        /* \"moonx/moonx.sol\":6130:6131  i */\n      dup3\n        /* \"moonx/moonx.sol\":6121:6132  _answers[i] */\n      dup2\n      mload\n      dup2\n      lt\n      tag_259\n      jumpi\n      tag_260\n      tag_258\n      jump\t// in\n    tag_260:\n    tag_259:\n      0x20\n      mul\n      0x20\n      add\n      add\n      mload\n        /* \"moonx/moonx.sol\":6104:6133  abi.encodePacked(_answers[i]) */\n      add(0x20, mload(0x40))\n      tag_261\n      swap2\n      swap1\n      tag_262\n      jump\t// in\n    tag_261:\n      mload(0x40)\n      0x20\n      dup2\n      dup4\n      sub\n      sub\n      dup2\n      mstore\n      swap1\n      0x40\n      mstore\n        /* \"moonx/moonx.sol\":6094:6134  keccak256(abi.encodePacked(_answers[i])) */\n      dup1\n      mload\n      swap1\n      0x20\n      add\n      keccak256\n        /* \"moonx/moonx.sol\":6094:6166  keccak256(abi.encodePacked(_answers[i])) != quizzes[i].correctAnswerHash */\n      eq\n        /* \"moonx/moonx.sol\":6090:6238  if (keccak256(abi.encodePacked(_answers[i])) != quizzes[i].correctAnswerHash) {... */\n      tag_263\n      jumpi\n        /* \"moonx/moonx.sol\":6195:6200  false */\n      0x00\n        /* \"moonx/moonx.sol\":6186:6200  passed = false */\n      swap2\n      pop\n        /* \"moonx/moonx.sol\":6218:6223  break */\n      jump(tag_254)\n        /* \"moonx/moonx.sol\":6090:6238  if (keccak256(abi.encodePacked(_answers[i])) != quizzes[i].correctAnswerHash) {... */\n    tag_263:\n        /* \"moonx/moonx.sol\":6071:6074  i++ */\n      dup1\n      dup1\n      0x01\n      add\n      swap2\n      pop\n      pop\n        /* \"moonx/moonx.sol\":6031:6248  for (uint256 i = 0; i < quizzes.length; i++) {... */\n      jump(tag_253)\n    tag_254:\n      pop\n        /* \"moonx/moonx.sol\":6262:6268  passed */\n      dup1\n        /* \"moonx/moonx.sol\":6258:6371  if (passed) {... */\n      iszero\n      tag_264\n      jumpi\n        /* \"moonx/moonx.sol\":6307:6311  true */\n      0x01\n        /* \"moonx/moonx.sol\":6284:6294  enrollment */\n      dup4\n        /* \"moonx/moonx.sol\":6284:6304  enrollment.hasPassed */\n      0x00\n      add\n      0x02\n        /* \"moonx/moonx.sol\":6284:6311  enrollment.hasPassed = true */\n      0x0100\n      exp\n      dup2\n      sload\n      dup2\n      0xff\n      mul\n      not\n      and\n      swap1\n      dup4\n      iszero\n      iszero\n      mul\n      or\n      swap1\n      sstore\n      pop\n        /* \"moonx/moonx.sol\":6325:6332  courses */\n      0x04\n        /* \"moonx/moonx.sol\":6325:6343  courses[_courseId] */\n      0x00\n        /* \"moonx/moonx.sol\":6333:6342  _courseId */\n      dup8\n        /* \"moonx/moonx.sol\":6325:6343  courses[_courseId] */\n      dup2\n      mstore\n      0x20\n      add\n      swap1\n      dup2\n      mstore\n      0x20\n      add\n      0x00\n      keccak256\n        /* \"moonx/moonx.sol\":6325:6358  courses[_courseId].passedStudents */\n      0x03\n      add\n      0x00\n        /* \"moonx/moonx.sol\":6325:6360  courses[_courseId].passedStudents++ */\n      dup2\n      sload\n      dup1\n      swap3\n      swap2\n      swap1\n      tag_265\n      swap1\n      tag_266\n      jump\t// in\n    tag_265:\n      swap2\n      swap1\n      pop\n      sstore\n      pop\n        /* \"moonx/moonx.sol\":6258:6371  if (passed) {... */\n    tag_264:\n        /* \"moonx/moonx.sol\":6411:6421  msg.sender */\n      caller\n        /* \"moonx/moonx.sol\":6386:6430  QuizAttempted(_courseId, msg.sender, passed) */\n      0xffffffffffffffffffffffffffffffffffffffff\n      and\n        /* \"moonx/moonx.sol\":6400:6409  _courseId */\n      dup7\n        /* \"moonx/moonx.sol\":6386:6430  QuizAttempted(_courseId, msg.sender, passed) */\n      0xaee8895c1bf669485cee2dd54d1eee9e65b02a244afb6f798f95d72405cdf7a5\n        /* \"moonx/moonx.sol\":6423:6429  passed */\n      dup4\n        /* \"moonx/moonx.sol\":6386:6430  QuizAttempted(_courseId, msg.sender, passed) */\n      mload(0x40)\n      tag_267\n      swap2\n      swap1\n      tag_72\n      jump\t// in\n    tag_267:\n      mload(0x40)\n      dup1\n      swap2\n      sub\n      swap1\n      log3\n        /* \"moonx/moonx.sol\":5515:6437  {... */\n      pop\n      pop\n      pop\n        /* \"moonx/moonx.sol\":2602:2851  {... */\n      pop\n        /* \"moonx/moonx.sol\":5418:6437  function attemptQuiz(uint256 _courseId, string[] memory _answers) external payable collectGasFee {... */\n      pop\n      pop\n      jump\t// out\n        /* \"moonx/moonx.sol\":3489:4012  function enrollInCourse(uint256 _courseId) external payable whenNotPaused collectGasFee {... */\n    tag_80:\n        /* \"@openzeppelin/contracts/security/Pausable.sol\":1239:1258  _requireNotPaused() */\n      tag_269\n        /* \"@openzeppelin/contracts/security/Pausable.sol\":1239:1256  _requireNotPaused */\n      tag_165\n        /* \"@openzeppelin/contracts/security/Pausable.sol\":1239:1258  _requireNotPaused() */\n      jump\t// in\n    tag_269:\n        /* \"moonx/moonx.sol\":687:697  0.75 ether */\n      0x0a688906bd8b0000\n        /* \"moonx/moonx.sol\":2620:2629  msg.value */\n      callvalue\n        /* \"moonx/moonx.sol\":2620:2640  msg.value >= GAS_FEE */\n      lt\n      iszero\n        /* \"moonx/moonx.sol\":2612:2665  require(msg.value >= GAS_FEE, \"Insufficient gas fee\") */\n      tag_271\n      jumpi\n      mload(0x40)\n      0x08c379a000000000000000000000000000000000000000000000000000000000\n      dup2\n      mstore\n      0x04\n      add\n      tag_272\n      swap1\n      tag_169\n      jump\t// in\n    tag_272:\n      mload(0x40)\n      dup1\n      swap2\n      sub\n      swap1\n      revert\n    tag_271:\n        /* \"moonx/moonx.sol\":687:697  0.75 ether */\n      0x0a688906bd8b0000\n        /* \"moonx/moonx.sol\":2675:2690  accumulatedFees */\n      0x03\n      0x00\n        /* \"moonx/moonx.sol\":2675:2701  accumulatedFees += GAS_FEE */\n      dup3\n      dup3\n      sload\n      tag_273\n      swap2\n      swap1\n      tag_171\n      jump\t// in\n    tag_273:\n      swap3\n      pop\n      pop\n      dup2\n      swap1\n      sstore\n      pop\n        /* \"moonx/moonx.sol\":2711:2725  uint256 excess */\n      0x00\n        /* \"moonx/moonx.sol\":687:697  0.75 ether */\n      0x0a688906bd8b0000\n        /* \"moonx/moonx.sol\":2728:2737  msg.value */\n      callvalue\n        /* \"moonx/moonx.sol\":2728:2747  msg.value - GAS_FEE */\n      tag_274\n      swap2\n      swap1\n      tag_173\n      jump\t// in\n    tag_274:\n        /* \"moonx/moonx.sol\":2711:2747  uint256 excess = msg.value - GAS_FEE */\n      swap1\n      pop\n        /* \"moonx/moonx.sol\":2770:2771  0 */\n      0x00\n        /* \"moonx/moonx.sol\":2761:2767  excess */\n      dup2\n        /* \"moonx/moonx.sol\":2761:2771  excess > 0 */\n      gt\n        /* \"moonx/moonx.sol\":2757:2834  if (excess > 0) {... */\n      iszero\n      tag_275\n      jumpi\n        /* \"moonx/moonx.sol\":2795:2805  msg.sender */\n      caller\n        /* \"moonx/moonx.sol\":2787:2815  payable(msg.sender).transfer */\n      0xffffffffffffffffffffffffffffffffffffffff\n      and\n        /* \"moonx/moonx.sol\":2787:2823  payable(msg.sender).transfer(excess) */\n      0x08fc\n        /* \"moonx/moonx.sol\":2816:2822  excess */\n      dup3\n        /* \"moonx/moonx.sol\":2787:2823  payable(msg.sender).transfer(excess) */\n      swap1\n      dup2\n      iszero\n      mul\n      swap1\n      mload(0x40)\n      0x00\n      mload(0x40)\n      dup1\n      dup4\n      sub\n      dup2\n      dup6\n      dup9\n      dup9\n      call\n      swap4\n      pop\n      pop\n      pop\n      pop\n      iszero\n      dup1\n      iszero\n      tag_277\n      jumpi\n      returndatasize\n      0x00\n      dup1\n      returndatacopy\n      revert(0x00, returndatasize)\n    tag_277:\n      pop\n        /* \"moonx/moonx.sol\":2757:2834  if (excess > 0) {... */\n    tag_275:\n        /* \"moonx/moonx.sol\":422:423  5 */\n      0x05\n        /* \"moonx/moonx.sol\":3595:3613  reputationContract */\n      0x01\n      0x00\n      swap1\n      sload\n      swap1\n      0x0100\n      exp\n      swap1\n      div\n      0xffffffffffffffffffffffffffffffffffffffff\n      and\n        /* \"moonx/moonx.sol\":3595:3624  reputationContract.reputation */\n      0xffffffffffffffffffffffffffffffffffffffff\n      and\n      0xb9f79451\n        /* \"moonx/moonx.sol\":3625:3635  msg.sender */\n      caller\n        /* \"moonx/moonx.sol\":3595:3636  reputationContract.reputation(msg.sender) */\n      mload(0x40)\n      dup3\n      0xffffffff\n      and\n      0xe0\n      shl\n      dup2\n      mstore\n      0x04\n      add\n      tag_279\n      swap2\n      swap1\n      tag_108\n      jump\t// in\n    tag_279:\n      0x20\n      mload(0x40)\n      dup1\n      dup4\n      sub\n      dup2\n      dup7\n      gas\n      staticcall\n      iszero\n      dup1\n      iszero\n      tag_281\n      jumpi\n      returndatasize\n      0x00\n      dup1\n      returndatacopy\n      revert(0x00, returndatasize)\n    tag_281:\n      pop\n      pop\n      pop\n      pop\n      mload(0x40)\n      returndatasize\n      not(0x1f)\n      0x1f\n      dup3\n      add\n      and\n      dup3\n      add\n      dup1\n      0x40\n      mstore\n      pop\n      dup2\n      add\n      swap1\n      tag_282\n      swap2\n      swap1\n      tag_283\n      jump\t// in\n    tag_282:\n        /* \"moonx/moonx.sol\":3595:3656  reputationContract.reputation(msg.sender) >= ENROLL_THRESHOLD */\n      lt\n      iszero\n        /* \"moonx/moonx.sol\":3587:3694  require(reputationContract.reputation(msg.sender) >= ENROLL_THRESHOLD, \"Insufficient reputation to enroll\") */\n      tag_284\n      jumpi\n      mload(0x40)\n      0x08c379a000000000000000000000000000000000000000000000000000000000\n      dup2\n      mstore\n      0x04\n      add\n      tag_285\n      swap1\n      tag_286\n      jump\t// in\n    tag_285:\n      mload(0x40)\n      dup1\n      swap2\n      sub\n      swap1\n      revert\n    tag_284:\n        /* \"moonx/moonx.sol\":3712:3719  courses */\n      0x04\n        /* \"moonx/moonx.sol\":3712:3730  courses[_courseId] */\n      0x00\n        /* \"moonx/moonx.sol\":3720:3729  _courseId */\n      dup4\n        /* \"moonx/moonx.sol\":3712:3730  courses[_courseId] */\n      dup2\n      mstore\n      0x20\n      add\n      swap1\n      dup2\n      mstore\n      0x20\n      add\n      0x00\n      keccak256\n        /* \"moonx/moonx.sol\":3712:3739  courses[_courseId].approved */\n      0x02\n      add\n      0x00\n      swap1\n      sload\n      swap1\n      0x0100\n      exp\n      swap1\n      div\n      0xff\n      and\n        /* \"moonx/moonx.sol\":3704:3763  require(courses[_courseId].approved, \"Course not approved\") */\n      tag_287\n      jumpi\n      mload(0x40)\n      0x08c379a000000000000000000000000000000000000000000000000000000000\n      dup2\n      mstore\n      0x04\n      add\n      tag_288\n      swap1\n      tag_289\n      jump\t// in\n    tag_288:\n      mload(0x40)\n      dup1\n      swap2\n      sub\n      swap1\n      revert\n    tag_287:\n        /* \"moonx/moonx.sol\":3782:3793  enrollments */\n      0x05\n        /* \"moonx/moonx.sol\":3782:3805  enrollments[msg.sender] */\n      0x00\n        /* \"moonx/moonx.sol\":3794:3804  msg.sender */\n      caller\n        /* \"moonx/moonx.sol\":3782:3805  enrollments[msg.sender] */\n      0xffffffffffffffffffffffffffffffffffffffff\n      and\n      0xffffffffffffffffffffffffffffffffffffffff\n      and\n      dup2\n      mstore\n      0x20\n      add\n      swap1\n      dup2\n      mstore\n      0x20\n      add\n      0x00\n      keccak256\n        /* \"moonx/moonx.sol\":3782:3816  enrollments[msg.sender][_courseId] */\n      0x00\n        /* \"moonx/moonx.sol\":3806:3815  _courseId */\n      dup4\n        /* \"moonx/moonx.sol\":3782:3816  enrollments[msg.sender][_courseId] */\n      dup2\n      mstore\n      0x20\n      add\n      swap1\n      dup2\n      mstore\n      0x20\n      add\n      0x00\n      keccak256\n        /* \"moonx/moonx.sol\":3782:3827  enrollments[msg.sender][_courseId].isEnrolled */\n      0x00\n      add\n      0x00\n      swap1\n      sload\n      swap1\n      0x0100\n      exp\n      swap1\n      div\n      0xff\n      and\n        /* \"moonx/moonx.sol\":3781:3827  !enrollments[msg.sender][_courseId].isEnrolled */\n      iszero\n        /* \"moonx/moonx.sol\":3773:3848  require(!enrollments[msg.sender][_courseId].isEnrolled, \"Already enrolled\") */\n      tag_290\n      jumpi\n      mload(0x40)\n      0x08c379a000000000000000000000000000000000000000000000000000000000\n      dup2\n      mstore\n      0x04\n      add\n      tag_291\n      swap1\n      tag_292\n      jump\t// in\n    tag_291:\n      mload(0x40)\n      dup1\n      swap2\n      sub\n      swap1\n      revert\n    tag_290:\n        /* \"moonx/moonx.sol\":3907:3911  true */\n      0x01\n        /* \"moonx/moonx.sol\":3859:3870  enrollments */\n      0x05\n        /* \"moonx/moonx.sol\":3859:3882  enrollments[msg.sender] */\n      0x00\n        /* \"moonx/moonx.sol\":3871:3881  msg.sender */\n      caller\n        /* \"moonx/moonx.sol\":3859:3882  enrollments[msg.sender] */\n      0xffffffffffffffffffffffffffffffffffffffff\n      and\n      0xffffffffffffffffffffffffffffffffffffffff\n      and\n      dup2\n      mstore\n      0x20\n      add\n      swap1\n      dup2\n      mstore\n      0x20\n      add\n      0x00\n      keccak256\n        /* \"moonx/moonx.sol\":3859:3893  enrollments[msg.sender][_courseId] */\n      0x00\n        /* \"moonx/moonx.sol\":3883:3892  _courseId */\n      dup5\n        /* \"moonx/moonx.sol\":3859:3893  enrollments[msg.sender][_courseId] */\n      dup2\n      mstore\n      0x20\n      add\n      swap1\n      dup2\n      mstore\n      0x20\n      add\n      0x00\n      keccak256\n        /* \"moonx/moonx.sol\":3859:3904  enrollments[msg.sender][_courseId].isEnrolled */\n      0x00\n      add\n      0x00\n        /* \"moonx/moonx.sol\":3859:3911  enrollments[msg.sender][_courseId].isEnrolled = true */\n      0x0100\n      exp\n      dup2\n      sload\n      dup2\n      0xff\n      mul\n      not\n      and\n      swap1\n      dup4\n      iszero\n      iszero\n      mul\n      or\n      swap1\n      sstore\n      pop\n        /* \"moonx/moonx.sol\":3921:3928  courses */\n      0x04\n        /* \"moonx/moonx.sol\":3921:3939  courses[_courseId] */\n      0x00\n        /* \"moonx/moonx.sol\":3929:3938  _courseId */\n      dup4\n        /* \"moonx/moonx.sol\":3921:3939  courses[_courseId] */\n      dup2\n      mstore\n      0x20\n      add\n      swap1\n      dup2\n      mstore\n      0x20\n      add\n      0x00\n      keccak256\n        /* \"moonx/moonx.sol\":3921:3953  courses[_courseId].totalEnrolled */\n      0x05\n      add\n      0x00\n        /* \"moonx/moonx.sol\":3921:3955  courses[_courseId].totalEnrolled++ */\n      dup2\n      sload\n      dup1\n      swap3\n      swap2\n      swap1\n      tag_293\n      swap1\n      tag_266\n      jump\t// in\n    tag_293:\n      swap2\n      swap1\n      pop\n      sstore\n      pop\n        /* \"moonx/moonx.sol\":3994:4004  msg.sender */\n      caller\n        /* \"moonx/moonx.sol\":3970:4005  UserEnrolled(_courseId, msg.sender) */\n      0xffffffffffffffffffffffffffffffffffffffff\n      and\n        /* \"moonx/moonx.sol\":3983:3992  _courseId */\n      dup3\n        /* \"moonx/moonx.sol\":3970:4005  UserEnrolled(_courseId, msg.sender) */\n      0xfacf1a2842acbad124cbca0a047fe37bc246c68f814e0350c7bd8a022fd1dddb\n      mload(0x40)\n      mload(0x40)\n      dup1\n      swap2\n      sub\n      swap1\n      log3\n        /* \"moonx/moonx.sol\":2602:2851  {... */\n      pop\n        /* \"moonx/moonx.sol\":3489:4012  function enrollInCourse(uint256 _courseId) external payable whenNotPaused collectGasFee {... */\n      pop\n      jump\t// out\n        /* \"moonx/moonx.sol\":1673:1699  uint256 public courseCount */\n    tag_83:\n      sload(0x07)\n      dup2\n      jump\t// out\n        /* \"@openzeppelin/contracts/access/Ownable.sol\":2293:2394  function renounceOwnership() public virtual onlyOwner {... */\n    tag_87:\n        /* \"@openzeppelin/contracts/access/Ownable.sol\":1531:1544  _checkOwner() */\n      tag_295\n        /* \"@openzeppelin/contracts/access/Ownable.sol\":1531:1542  _checkOwner */\n      tag_196\n        /* \"@openzeppelin/contracts/access/Ownable.sol\":1531:1544  _checkOwner() */\n      jump\t// in\n    tag_295:\n        /* \"@openzeppelin/contracts/access/Ownable.sol\":2357:2387  _transferOwnership(address(0)) */\n      tag_297\n        /* \"@openzeppelin/contracts/access/Ownable.sol\":2384:2385  0 */\n      0x00\n        /* \"@openzeppelin/contracts/access/Ownable.sol\":2357:2375  _transferOwnership */\n      tag_298\n        /* \"@openzeppelin/contracts/access/Ownable.sol\":2357:2387  _transferOwnership(address(0)) */\n      jump\t// in\n    tag_297:\n        /* \"@openzeppelin/contracts/access/Ownable.sol\":2293:2394  function renounceOwnership() public virtual onlyOwner {... */\n      jump\t// out\n        /* \"moonx/moonx.sol\":3257:3483  function approveCourse(uint256 _courseId) external onlyOwner {... */\n    tag_91:\n        /* \"@openzeppelin/contracts/access/Ownable.sol\":1531:1544  _checkOwner() */\n      tag_300\n        /* \"@openzeppelin/contracts/access/Ownable.sol\":1531:1542  _checkOwner */\n      tag_196\n        /* \"@openzeppelin/contracts/access/Ownable.sol\":1531:1544  _checkOwner() */\n      jump\t// in\n    tag_300:\n        /* \"moonx/moonx.sol\":3337:3344  courses */\n      0x04\n        /* \"moonx/moonx.sol\":3337:3355  courses[_courseId] */\n      0x00\n        /* \"moonx/moonx.sol\":3345:3354  _courseId */\n      dup3\n        /* \"moonx/moonx.sol\":3337:3355  courses[_courseId] */\n      dup2\n      mstore\n      0x20\n      add\n      swap1\n      dup2\n      mstore\n      0x20\n      add\n      0x00\n      keccak256\n        /* \"moonx/moonx.sol\":3337:3364  courses[_courseId].approved */\n      0x02\n      add\n      0x00\n      swap1\n      sload\n      swap1\n      0x0100\n      exp\n      swap1\n      div\n      0xff\n      and\n        /* \"moonx/moonx.sol\":3336:3364  !courses[_courseId].approved */\n      iszero\n        /* \"moonx/moonx.sol\":3328:3392  require(!courses[_courseId].approved, \"Course already approved\") */\n      tag_302\n      jumpi\n      mload(0x40)\n      0x08c379a000000000000000000000000000000000000000000000000000000000\n      dup2\n      mstore\n      0x04\n      add\n      tag_303\n      swap1\n      tag_304\n      jump\t// in\n    tag_303:\n      mload(0x40)\n      dup1\n      swap2\n      sub\n      swap1\n      revert\n    tag_302:\n        /* \"moonx/moonx.sol\":3432:3436  true */\n      0x01\n        /* \"moonx/moonx.sol\":3402:3409  courses */\n      0x04\n        /* \"moonx/moonx.sol\":3402:3420  courses[_courseId] */\n      0x00\n        /* \"moonx/moonx.sol\":3410:3419  _courseId */\n      dup4\n        /* \"moonx/moonx.sol\":3402:3420  courses[_courseId] */\n      dup2\n      mstore\n      0x20\n      add\n      swap1\n      dup2\n      mstore\n      0x20\n      add\n      0x00\n      keccak256\n        /* \"moonx/moonx.sol\":3402:3429  courses[_courseId].approved */\n      0x02\n      add\n      0x00\n        /* \"moonx/moonx.sol\":3402:3436  courses[_courseId].approved = true */\n      0x0100\n      exp\n      dup2\n      sload\n      dup2\n      0xff\n      mul\n      not\n      and\n      swap1\n      dup4\n      iszero\n      iszero\n      mul\n      or\n      swap1\n      sstore\n      pop\n        /* \"moonx/moonx.sol\":3466:3475  _courseId */\n      dup1\n        /* \"moonx/moonx.sol\":3451:3476  CourseApproved(_courseId) */\n      0x87c1c0e5cd17beb8c61a3337b32c66021cb179dd6f97d6d9ce923a029092bd45\n      mload(0x40)\n      mload(0x40)\n      dup1\n      swap2\n      sub\n      swap1\n      log2\n        /* \"moonx/moonx.sol\":3257:3483  function approveCourse(uint256 _courseId) external onlyOwner {... */\n      pop\n      jump\t// out\n        /* \"moonx/moonx.sol\":8820:8881  function pause() external onlyOwner {... */\n    tag_94:\n        /* \"@openzeppelin/contracts/access/Ownable.sol\":1531:1544  _checkOwner() */\n      tag_306\n        /* \"@openzeppelin/contracts/access/Ownable.sol\":1531:1542  _checkOwner */\n      tag_196\n        /* \"@openzeppelin/contracts/access/Ownable.sol\":1531:1544  _checkOwner() */\n      jump\t// in\n    tag_306:\n        /* \"moonx/moonx.sol\":8866:8874  _pause() */\n      tag_308\n        /* \"moonx/moonx.sol\":8866:8872  _pause */\n      tag_309\n        /* \"moonx/moonx.sol\":8866:8874  _pause() */\n      jump\t// in\n    tag_308:\n        /* \"moonx/moonx.sol\":8820:8881  function pause() external onlyOwner {... */\n      jump\t// out\n        /* \"moonx/moonx.sol\":327:372  IReputationContract public reputationContract */\n    tag_97:\n      0x01\n      0x00\n      swap1\n      sload\n      swap1\n      0x0100\n      exp\n      swap1\n      div\n      0xffffffffffffffffffffffffffffffffffffffff\n      and\n      dup2\n      jump\t// out\n        /* \"moonx/moonx.sol\":2857:3251  function createCourse(string memory _metadataURI) external payable whenNotPaused collectGasFee {... */\n    tag_103:\n        /* \"@openzeppelin/contracts/security/Pausable.sol\":1239:1258  _requireNotPaused() */\n      tag_311\n        /* \"@openzeppelin/contracts/security/Pausable.sol\":1239:1256  _requireNotPaused */\n      tag_165\n        /* \"@openzeppelin/contracts/security/Pausable.sol\":1239:1258  _requireNotPaused() */\n      jump\t// in\n    tag_311:\n        /* \"moonx/moonx.sol\":687:697  0.75 ether */\n      0x0a688906bd8b0000\n        /* \"moonx/moonx.sol\":2620:2629  msg.value */\n      callvalue\n        /* \"moonx/moonx.sol\":2620:2640  msg.value >= GAS_FEE */\n      lt\n      iszero\n        /* \"moonx/moonx.sol\":2612:2665  require(msg.value >= GAS_FEE, \"Insufficient gas fee\") */\n      tag_313\n      jumpi\n      mload(0x40)\n      0x08c379a000000000000000000000000000000000000000000000000000000000\n      dup2\n      mstore\n      0x04\n      add\n      tag_314\n      swap1\n      tag_169\n      jump\t// in\n    tag_314:\n      mload(0x40)\n      dup1\n      swap2\n      sub\n      swap1\n      revert\n    tag_313:\n        /* \"moonx/moonx.sol\":687:697  0.75 ether */\n      0x0a688906bd8b0000\n        /* \"moonx/moonx.sol\":2675:2690  accumulatedFees */\n      0x03\n      0x00\n        /* \"moonx/moonx.sol\":2675:2701  accumulatedFees += GAS_FEE */\n      dup3\n      dup3\n      sload\n      tag_315\n      swap2\n      swap1\n      tag_171\n      jump\t// in\n    tag_315:\n      swap3\n      pop\n      pop\n      dup2\n      swap1\n      sstore\n      pop\n        /* \"moonx/moonx.sol\":2711:2725  uint256 excess */\n      0x00\n        /* \"moonx/moonx.sol\":687:697  0.75 ether */\n      0x0a688906bd8b0000\n        /* \"moonx/moonx.sol\":2728:2737  msg.value */\n      callvalue\n        /* \"moonx/moonx.sol\":2728:2747  msg.value - GAS_FEE */\n      tag_316\n      swap2\n      swap1\n      tag_173\n      jump\t// in\n    tag_316:\n        /* \"moonx/moonx.sol\":2711:2747  uint256 excess = msg.value - GAS_FEE */\n      swap1\n      pop\n        /* \"moonx/moonx.sol\":2770:2771  0 */\n      0x00\n        /* \"moonx/moonx.sol\":2761:2767  excess */\n      dup2\n        /* \"moonx/moonx.sol\":2761:2771  excess > 0 */\n      gt\n        /* \"moonx/moonx.sol\":2757:2834  if (excess > 0) {... */\n      iszero\n      tag_317\n      jumpi\n        /* \"moonx/moonx.sol\":2795:2805  msg.sender */\n      caller\n        /* \"moonx/moonx.sol\":2787:2815  payable(msg.sender).transfer */\n      0xffffffffffffffffffffffffffffffffffffffff\n      and\n        /* \"moonx/moonx.sol\":2787:2823  payable(msg.sender).transfer(excess) */\n      0x08fc\n        /* \"moonx/moonx.sol\":2816:2822  excess */\n      dup3\n        /* \"moonx/moonx.sol\":2787:2823  payable(msg.sender).transfer(excess) */\n      swap1\n      dup2\n      iszero\n      mul\n      swap1\n      mload(0x40)\n      0x00\n      mload(0x40)\n      dup1\n      dup4\n      sub\n      dup2\n      dup6\n      dup9\n      dup9\n      call\n      swap4\n      pop\n      pop\n      pop\n      pop\n      iszero\n      dup1\n      iszero\n      tag_319\n      jumpi\n      returndatasize\n      0x00\n      dup1\n      returndatacopy\n      revert(0x00, returndatasize)\n    tag_319:\n      pop\n        /* \"moonx/moonx.sol\":2757:2834  if (excess > 0) {... */\n    tag_317:\n        /* \"moonx/moonx.sol\":470:471  5 */\n      0x05\n        /* \"moonx/moonx.sol\":2970:2988  reputationContract */\n      0x01\n      0x00\n      swap1\n      sload\n      swap1\n      0x0100\n      exp\n      swap1\n      div\n      0xffffffffffffffffffffffffffffffffffffffff\n      and\n        /* \"moonx/moonx.sol\":2970:2999  reputationContract.reputation */\n      0xffffffffffffffffffffffffffffffffffffffff\n      and\n      0xb9f79451\n        /* \"moonx/moonx.sol\":3000:3010  msg.sender */\n      caller\n        /* \"moonx/moonx.sol\":2970:3011  reputationContract.reputation(msg.sender) */\n      mload(0x40)\n      dup3\n      0xffffffff\n      and\n      0xe0\n      shl\n      dup2\n      mstore\n      0x04\n      add\n      tag_321\n      swap2\n      swap1\n      tag_108\n      jump\t// in\n    tag_321:\n      0x20\n      mload(0x40)\n      dup1\n      dup4\n      sub\n      dup2\n      dup7\n      gas\n      staticcall\n      iszero\n      dup1\n      iszero\n      tag_323\n      jumpi\n      returndatasize\n      0x00\n      dup1\n      returndatacopy\n      revert(0x00, returndatasize)\n    tag_323:\n      pop\n      pop\n      pop\n      pop\n      mload(0x40)\n      returndatasize\n      not(0x1f)\n      0x1f\n      dup3\n      add\n      and\n      dup3\n      add\n      dup1\n      0x40\n      mstore\n      pop\n      dup2\n      add\n      swap1\n      tag_324\n      swap2\n      swap1\n      tag_283\n      jump\t// in\n    tag_324:\n        /* \"moonx/moonx.sol\":2970:3029  reputationContract.reputation(msg.sender) >= POST_THRESHOLD */\n      lt\n      iszero\n        /* \"moonx/moonx.sol\":2962:3074  require(reputationContract.reputation(msg.sender) >= POST_THRESHOLD, \"Insufficient reputation to create course\") */\n      tag_325\n      jumpi\n      mload(0x40)\n      0x08c379a000000000000000000000000000000000000000000000000000000000\n      dup2\n      mstore\n      0x04\n      add\n      tag_326\n      swap1\n      tag_327\n      jump\t// in\n    tag_326:\n      mload(0x40)\n      dup1\n      swap2\n      sub\n      swap1\n      revert\n    tag_325:\n        /* \"moonx/moonx.sol\":3084:3100  uint256 courseId */\n      0x00\n        /* \"moonx/moonx.sol\":3103:3114  courseCount */\n      0x07\n      0x00\n        /* \"moonx/moonx.sol\":3103:3116  courseCount++ */\n      dup2\n      sload\n      dup1\n      swap3\n      swap2\n      swap1\n      tag_328\n      swap1\n      tag_266\n      jump\t// in\n    tag_328:\n      swap2\n      swap1\n      pop\n      sstore\n        /* \"moonx/moonx.sol\":3084:3116  uint256 courseId = courseCount++ */\n      swap1\n      pop\n        /* \"moonx/moonx.sol\":3146:3194  Course(msg.sender, _metadataURI, false, 0, 0, 0) */\n      mload(0x40)\n      dup1\n      0xc0\n      add\n      0x40\n      mstore\n      dup1\n        /* \"moonx/moonx.sol\":3153:3163  msg.sender */\n      caller\n        /* \"moonx/moonx.sol\":3146:3194  Course(msg.sender, _metadataURI, false, 0, 0, 0) */\n      0xffffffffffffffffffffffffffffffffffffffff\n      and\n      dup2\n      mstore\n      0x20\n      add\n        /* \"moonx/moonx.sol\":3165:3177  _metadataURI */\n      dup5\n        /* \"moonx/moonx.sol\":3146:3194  Course(msg.sender, _metadataURI, false, 0, 0, 0) */\n      dup2\n      mstore\n      0x20\n      add\n        /* \"moonx/moonx.sol\":3179:3184  false */\n      0x00\n        /* \"moonx/moonx.sol\":3146:3194  Course(msg.sender, _metadataURI, false, 0, 0, 0) */\n      iszero\n      iszero\n      dup2\n      mstore\n      0x20\n      add\n        /* \"moonx/moonx.sol\":3186:3187  0 */\n      0x00\n        /* \"moonx/moonx.sol\":3146:3194  Course(msg.sender, _metadataURI, false, 0, 0, 0) */\n      dup2\n      mstore\n      0x20\n      add\n        /* \"moonx/moonx.sol\":3189:3190  0 */\n      0x00\n        /* \"moonx/moonx.sol\":3146:3194  Course(msg.sender, _metadataURI, false, 0, 0, 0) */\n      dup2\n      mstore\n      0x20\n      add\n        /* \"moonx/moonx.sol\":3192:3193  0 */\n      0x00\n        /* \"moonx/moonx.sol\":3146:3194  Course(msg.sender, _metadataURI, false, 0, 0, 0) */\n      dup2\n      mstore\n      pop\n        /* \"moonx/moonx.sol\":3126:3133  courses */\n      0x04\n        /* \"moonx/moonx.sol\":3126:3143  courses[courseId] */\n      0x00\n        /* \"moonx/moonx.sol\":3134:3142  courseId */\n      dup4\n        /* \"moonx/moonx.sol\":3126:3143  courses[courseId] */\n      dup2\n      mstore\n      0x20\n      add\n      swap1\n      dup2\n      mstore\n      0x20\n      add\n      0x00\n      keccak256\n        /* \"moonx/moonx.sol\":3126:3194  courses[courseId] = Course(msg.sender, _metadataURI, false, 0, 0, 0) */\n      0x00\n      dup3\n      add\n      mload\n      dup2\n      0x00\n      add\n      exp(0x0100, 0x00)\n      dup2\n      sload\n      dup2\n      0xffffffffffffffffffffffffffffffffffffffff\n      mul\n      not\n      and\n      swap1\n      dup4\n      0xffffffffffffffffffffffffffffffffffffffff\n      and\n      mul\n      or\n      swap1\n      sstore\n      pop\n      0x20\n      dup3\n      add\n      mload\n      dup2\n      0x01\n      add\n      swap1\n      dup2\n      tag_329\n      swap2\n      swap1\n      tag_330\n      jump\t// in\n    tag_329:\n      pop\n      0x40\n      dup3\n      add\n      mload\n      dup2\n      0x02\n      add\n      exp(0x0100, 0x00)\n      dup2\n      sload\n      dup2\n      0xff\n      mul\n      not\n      and\n      swap1\n      dup4\n      iszero\n      iszero\n      mul\n      or\n      swap1\n      sstore\n      pop\n      0x60\n      dup3\n      add\n      mload\n      dup2\n      0x03\n      add\n      sstore\n      0x80\n      dup3\n      add\n      mload\n      dup2\n      0x04\n      add\n      sstore\n      0xa0\n      dup3\n      add\n      mload\n      dup2\n      0x05\n      add\n      sstore\n      swap1\n      pop\n      pop\n        /* \"moonx/moonx.sol\":3233:3243  msg.sender */\n      caller\n        /* \"moonx/moonx.sol\":3209:3244  CourseCreated(courseId, msg.sender) */\n      0xffffffffffffffffffffffffffffffffffffffff\n      and\n        /* \"moonx/moonx.sol\":3223:3231  courseId */\n      dup2\n        /* \"moonx/moonx.sol\":3209:3244  CourseCreated(courseId, msg.sender) */\n      0xa68f79aa37f9cdc81c2757cfb3e11e9d7d89ca0a5410fbcf1b61125bc17fb1b7\n      mload(0x40)\n      mload(0x40)\n      dup1\n      swap2\n      sub\n      swap1\n      log3\n        /* \"moonx/moonx.sol\":2952:3251  {... */\n      pop\n        /* \"moonx/moonx.sol\":2602:2851  {... */\n      pop\n        /* \"moonx/moonx.sol\":2857:3251  function createCourse(string memory _metadataURI) external payable whenNotPaused collectGasFee {... */\n      pop\n      jump\t// out\n        /* \"@openzeppelin/contracts/access/Ownable.sol\":1638:1723  function owner() public view virtual returns (address) {... */\n    tag_106:\n        /* \"@openzeppelin/contracts/access/Ownable.sol\":1684:1691  address */\n      0x00\n        /* \"@openzeppelin/contracts/access/Ownable.sol\":1710:1716  _owner */\n      dup1\n      0x00\n      swap1\n      sload\n      swap1\n      0x0100\n      exp\n      swap1\n      div\n      0xffffffffffffffffffffffffffffffffffffffff\n      and\n        /* \"@openzeppelin/contracts/access/Ownable.sol\":1703:1716  return _owner */\n      swap1\n      pop\n        /* \"@openzeppelin/contracts/access/Ownable.sol\":1638:1723  function owner() public view virtual returns (address) {... */\n      swap1\n      jump\t// out\n        /* \"moonx/moonx.sol\":8958:9124  function updateReputationContract(address _newReputationContract) external onlyOwner {... */\n    tag_113:\n        /* \"@openzeppelin/contracts/access/Ownable.sol\":1531:1544  _checkOwner() */\n      tag_333\n        /* \"@openzeppelin/contracts/access/Ownable.sol\":1531:1542  _checkOwner */\n      tag_196\n        /* \"@openzeppelin/contracts/access/Ownable.sol\":1531:1544  _checkOwner() */\n      jump\t// in\n    tag_333:\n        /* \"moonx/moonx.sol\":9094:9116  _newReputationContract */\n      dup1\n        /* \"moonx/moonx.sol\":9053:9071  reputationContract */\n      0x01\n      0x00\n        /* \"moonx/moonx.sol\":9053:9117  reputationContract = IReputationContract(_newReputationContract) */\n      0x0100\n      exp\n      dup2\n      sload\n      dup2\n      0xffffffffffffffffffffffffffffffffffffffff\n      mul\n      not\n      and\n      swap1\n      dup4\n      0xffffffffffffffffffffffffffffffffffffffff\n      and\n      mul\n      or\n      swap1\n      sstore\n      pop\n        /* \"moonx/moonx.sol\":8958:9124  function updateReputationContract(address _newReputationContract) external onlyOwner {... */\n      pop\n      jump\t// out\n        /* \"moonx/moonx.sol\":1452:1493  mapping(uint256 => Course) public courses */\n    tag_117:\n      mstore(0x20, 0x04)\n      dup1\n      0x00\n      mstore\n      keccak256(0x00, 0x40)\n      0x00\n      swap2\n      pop\n      swap1\n      pop\n      dup1\n      0x00\n      add\n      0x00\n      swap1\n      sload\n      swap1\n      0x0100\n      exp\n      swap1\n      div\n      0xffffffffffffffffffffffffffffffffffffffff\n      and\n      swap1\n      dup1\n      0x01\n      add\n      dup1\n      sload\n      tag_335\n      swap1\n      tag_225\n      jump\t// in\n    tag_335:\n      dup1\n      0x1f\n      add\n      0x20\n      dup1\n      swap2\n      div\n      mul\n      0x20\n      add\n      mload(0x40)\n      swap1\n      dup2\n      add\n      0x40\n      mstore\n      dup1\n      swap3\n      swap2\n      swap1\n      dup2\n      dup2\n      mstore\n      0x20\n      add\n      dup3\n      dup1\n      sload\n      tag_336\n      swap1\n      tag_225\n      jump\t// in\n    tag_336:\n      dup1\n      iszero\n      tag_337\n      jumpi\n      dup1\n      0x1f\n      lt\n      tag_338\n      jumpi\n      0x0100\n      dup1\n      dup4\n      sload\n      div\n      mul\n      dup4\n      mstore\n      swap2\n      0x20\n      add\n      swap2\n      jump(tag_337)\n    tag_338:\n      dup3\n      add\n      swap2\n      swap1\n      0x00\n      mstore\n      keccak256(0x00, 0x20)\n      swap1\n    tag_339:\n      dup2\n      sload\n      dup2\n      mstore\n      swap1\n      0x01\n      add\n      swap1\n      0x20\n      add\n      dup1\n      dup4\n      gt\n      tag_339\n      jumpi\n      dup3\n      swap1\n      sub\n      0x1f\n      and\n      dup3\n      add\n      swap2\n    tag_337:\n      pop\n      pop\n      pop\n      pop\n      pop\n      swap1\n      dup1\n      0x02\n      add\n      0x00\n      swap1\n      sload\n      swap1\n      0x0100\n      exp\n      swap1\n      div\n      0xff\n      and\n      swap1\n      dup1\n      0x03\n      add\n      sload\n      swap1\n      dup1\n      0x04\n      add\n      sload\n      swap1\n      dup1\n      0x05\n      add\n      sload\n      swap1\n      pop\n      dup7\n      jump\t// out\n        /* \"moonx/moonx.sol\":6443:7075  function claimStudentReward(uint256 _courseId) external payable whenNotPaused collectGasFee {... */\n    tag_122:\n        /* \"@openzeppelin/contracts/security/Pausable.sol\":1239:1258  _requireNotPaused() */\n      tag_341\n        /* \"@openzeppelin/contracts/security/Pausable.sol\":1239:1256  _requireNotPaused */\n      tag_165\n        /* \"@openzeppelin/contracts/security/Pausable.sol\":1239:1258  _requireNotPaused() */\n      jump\t// in\n    tag_341:\n        /* \"moonx/moonx.sol\":687:697  0.75 ether */\n      0x0a688906bd8b0000\n        /* \"moonx/moonx.sol\":2620:2629  msg.value */\n      callvalue\n        /* \"moonx/moonx.sol\":2620:2640  msg.value >= GAS_FEE */\n      lt\n      iszero\n        /* \"moonx/moonx.sol\":2612:2665  require(msg.value >= GAS_FEE, \"Insufficient gas fee\") */\n      tag_343\n      jumpi\n      mload(0x40)\n      0x08c379a000000000000000000000000000000000000000000000000000000000\n      dup2\n      mstore\n      0x04\n      add\n      tag_344\n      swap1\n      tag_169\n      jump\t// in\n    tag_344:\n      mload(0x40)\n      dup1\n      swap2\n      sub\n      swap1\n      revert\n    tag_343:\n        /* \"moonx/moonx.sol\":687:697  0.75 ether */\n      0x0a688906bd8b0000\n        /* \"moonx/moonx.sol\":2675:2690  accumulatedFees */\n      0x03\n      0x00\n        /* \"moonx/moonx.sol\":2675:2701  accumulatedFees += GAS_FEE */\n      dup3\n      dup3\n      sload\n      tag_345\n      swap2\n      swap1\n      tag_171\n      jump\t// in\n    tag_345:\n      swap3\n      pop\n      pop\n      dup2\n      swap1\n      sstore\n      pop\n        /* \"moonx/moonx.sol\":2711:2725  uint256 excess */\n      0x00\n        /* \"moonx/moonx.sol\":687:697  0.75 ether */\n      0x0a688906bd8b0000\n        /* \"moonx/moonx.sol\":2728:2737  msg.value */\n      callvalue\n        /* \"moonx/moonx.sol\":2728:2747  msg.value - GAS_FEE */\n      tag_346\n      swap2\n      swap1\n      tag_173\n      jump\t// in\n    tag_346:\n        /* \"moonx/moonx.sol\":2711:2747  uint256 excess = msg.value - GAS_FEE */\n      swap1\n      pop\n        /* \"moonx/moonx.sol\":2770:2771  0 */\n      0x00\n        /* \"moonx/moonx.sol\":2761:2767  excess */\n      dup2\n        /* \"moonx/moonx.sol\":2761:2771  excess > 0 */\n      gt\n        /* \"moonx/moonx.sol\":2757:2834  if (excess > 0) {... */\n      iszero\n      tag_347\n      jumpi\n        /* \"moonx/moonx.sol\":2795:2805  msg.sender */\n      caller\n        /* \"moonx/moonx.sol\":2787:2815  payable(msg.sender).transfer */\n      0xffffffffffffffffffffffffffffffffffffffff\n      and\n        /* \"moonx/moonx.sol\":2787:2823  payable(msg.sender).transfer(excess) */\n      0x08fc\n        /* \"moonx/moonx.sol\":2816:2822  excess */\n      dup3\n        /* \"moonx/moonx.sol\":2787:2823  payable(msg.sender).transfer(excess) */\n      swap1\n      dup2\n      iszero\n      mul\n      swap1\n      mload(0x40)\n      0x00\n      mload(0x40)\n      dup1\n      dup4\n      sub\n      dup2\n      dup6\n      dup9\n      dup9\n      call\n      swap4\n      pop\n      pop\n      pop\n      pop\n      iszero\n      dup1\n      iszero\n      tag_349\n      jumpi\n      returndatasize\n      0x00\n      dup1\n      returndatacopy\n      revert(0x00, returndatasize)\n    tag_349:\n      pop\n        /* \"moonx/moonx.sol\":2757:2834  if (excess > 0) {... */\n    tag_347:\n        /* \"moonx/moonx.sol\":6545:6574  Enrollment storage enrollment */\n      0x00\n        /* \"moonx/moonx.sol\":6577:6588  enrollments */\n      0x05\n        /* \"moonx/moonx.sol\":6577:6600  enrollments[msg.sender] */\n      0x00\n        /* \"moonx/moonx.sol\":6589:6599  msg.sender */\n      caller\n        /* \"moonx/moonx.sol\":6577:6600  enrollments[msg.sender] */\n      0xffffffffffffffffffffffffffffffffffffffff\n      and\n      0xffffffffffffffffffffffffffffffffffffffff\n      and\n      dup2\n      mstore\n      0x20\n      add\n      swap1\n      dup2\n      mstore\n      0x20\n      add\n      0x00\n      keccak256\n        /* \"moonx/moonx.sol\":6577:6611  enrollments[msg.sender][_courseId] */\n      0x00\n        /* \"moonx/moonx.sol\":6601:6610  _courseId */\n      dup5\n        /* \"moonx/moonx.sol\":6577:6611  enrollments[msg.sender][_courseId] */\n      dup2\n      mstore\n      0x20\n      add\n      swap1\n      dup2\n      mstore\n      0x20\n      add\n      0x00\n      keccak256\n        /* \"moonx/moonx.sol\":6545:6611  Enrollment storage enrollment = enrollments[msg.sender][_courseId] */\n      swap1\n      pop\n        /* \"moonx/moonx.sol\":6629:6639  enrollment */\n      dup1\n        /* \"moonx/moonx.sol\":6629:6649  enrollment.hasPassed */\n      0x00\n      add\n      0x02\n      swap1\n      sload\n      swap1\n      0x0100\n      exp\n      swap1\n      div\n      0xff\n      and\n        /* \"moonx/moonx.sol\":6621:6671  require(enrollment.hasPassed, \"Course not passed\") */\n      tag_351\n      jumpi\n      mload(0x40)\n      0x08c379a000000000000000000000000000000000000000000000000000000000\n      dup2\n      mstore\n      0x04\n      add\n      tag_352\n      swap1\n      tag_353\n      jump\t// in\n    tag_352:\n      mload(0x40)\n      dup1\n      swap2\n      sub\n      swap1\n      revert\n    tag_351:\n        /* \"moonx/moonx.sol\":6690:6700  enrollment */\n      dup1\n        /* \"moonx/moonx.sol\":6690:6717  enrollment.hasClaimedReward */\n      0x00\n      add\n      0x03\n      swap1\n      sload\n      swap1\n      0x0100\n      exp\n      swap1\n      div\n      0xff\n      and\n        /* \"moonx/moonx.sol\":6689:6717  !enrollment.hasClaimedReward */\n      iszero\n        /* \"moonx/moonx.sol\":6681:6744  require(!enrollment.hasClaimedReward, \"Reward already claimed\") */\n      tag_354\n      jumpi\n      mload(0x40)\n      0x08c379a000000000000000000000000000000000000000000000000000000000\n      dup2\n      mstore\n      0x04\n      add\n      tag_355\n      swap1\n      tag_356\n      jump\t// in\n    tag_355:\n      mload(0x40)\n      dup1\n      swap2\n      sub\n      swap1\n      revert\n    tag_354:\n        /* \"moonx/moonx.sol\":6785:6789  true */\n      0x01\n        /* \"moonx/moonx.sol\":6755:6765  enrollment */\n      dup2\n        /* \"moonx/moonx.sol\":6755:6782  enrollment.hasClaimedReward */\n      0x00\n      add\n      0x03\n        /* \"moonx/moonx.sol\":6755:6789  enrollment.hasClaimedReward = true */\n      0x0100\n      exp\n      dup2\n      sload\n      dup2\n      0xff\n      mul\n      not\n      and\n      swap1\n      dup4\n      iszero\n      iszero\n      mul\n      or\n      swap1\n      sstore\n      pop\n        /* \"moonx/moonx.sol\":525:533  10 ether */\n      0x8ac7230489e80000\n        /* \"moonx/moonx.sol\":6799:6806  courses */\n      0x04\n        /* \"moonx/moonx.sol\":6799:6817  courses[_courseId] */\n      0x00\n        /* \"moonx/moonx.sol\":6807:6816  _courseId */\n      dup6\n        /* \"moonx/moonx.sol\":6799:6817  courses[_courseId] */\n      dup2\n      mstore\n      0x20\n      add\n      swap1\n      dup2\n      mstore\n      0x20\n      add\n      0x00\n      keccak256\n        /* \"moonx/moonx.sol\":6799:6831  courses[_courseId].totalRewarded */\n      0x04\n      add\n      0x00\n        /* \"moonx/moonx.sol\":6799:6856  courses[_courseId].totalRewarded += STUDENT_REWARD_AMOUNT */\n      dup3\n      dup3\n      sload\n      tag_357\n      swap2\n      swap1\n      tag_171\n      jump\t// in\n    tag_357:\n      swap3\n      pop\n      pop\n      dup2\n      swap1\n      sstore\n      pop\n        /* \"moonx/moonx.sol\":6868:6880  bool success */\n      0x00\n        /* \"moonx/moonx.sol\":6894:6904  msg.sender */\n      caller\n        /* \"moonx/moonx.sol\":6886:6910  payable(msg.sender).call */\n      0xffffffffffffffffffffffffffffffffffffffff\n      and\n        /* \"moonx/moonx.sol\":525:533  10 ether */\n      0x8ac7230489e80000\n        /* \"moonx/moonx.sol\":6886:6944  payable(msg.sender).call{value: STUDENT_REWARD_AMOUNT}(\"\") */\n      mload(0x40)\n      tag_358\n      swap1\n      tag_186\n      jump\t// in\n    tag_358:\n      0x00\n      mload(0x40)\n      dup1\n      dup4\n      sub\n      dup2\n      dup6\n      dup8\n      gas\n      call\n      swap3\n      pop\n      pop\n      pop\n      returndatasize\n      dup1\n      0x00\n      dup2\n      eq\n      tag_361\n      jumpi\n      mload(0x40)\n      swap2\n      pop\n      and(add(returndatasize, 0x3f), not(0x1f))\n      dup3\n      add\n      0x40\n      mstore\n      returndatasize\n      dup3\n      mstore\n      returndatasize\n      0x00\n      0x20\n      dup5\n      add\n      returndatacopy\n      jump(tag_360)\n    tag_361:\n      0x60\n      swap2\n      pop\n    tag_360:\n      pop\n        /* \"moonx/moonx.sol\":6867:6944  (bool success, ) = payable(msg.sender).call{value: STUDENT_REWARD_AMOUNT}(\"\") */\n      pop\n      swap1\n      pop\n        /* \"moonx/moonx.sol\":6962:6969  success */\n      dup1\n        /* \"moonx/moonx.sol\":6954:6993  require(success, \"Failed to send MAND\") */\n      tag_362\n      jumpi\n      mload(0x40)\n      0x08c379a000000000000000000000000000000000000000000000000000000000\n      dup2\n      mstore\n      0x04\n      add\n      tag_363\n      swap1\n      tag_192\n      jump\t// in\n    tag_363:\n      mload(0x40)\n      dup1\n      swap2\n      sub\n      swap1\n      revert\n    tag_362:\n        /* \"moonx/moonx.sol\":7034:7044  msg.sender */\n      caller\n        /* \"moonx/moonx.sol\":7009:7068  RewardClaimed(_courseId, msg.sender, STUDENT_REWARD_AMOUNT) */\n      0xffffffffffffffffffffffffffffffffffffffff\n      and\n        /* \"moonx/moonx.sol\":7023:7032  _courseId */\n      dup5\n        /* \"moonx/moonx.sol\":7009:7068  RewardClaimed(_courseId, msg.sender, STUDENT_REWARD_AMOUNT) */\n      0x24b5efa61dd1cfc659205a97fb8ed868f3cb8c81922bab2b96423e5de1de2cb7\n        /* \"moonx/moonx.sol\":525:533  10 ether */\n      0x8ac7230489e80000\n        /* \"moonx/moonx.sol\":7009:7068  RewardClaimed(_courseId, msg.sender, STUDENT_REWARD_AMOUNT) */\n      mload(0x40)\n      tag_364\n      swap2\n      swap1\n      tag_56\n      jump\t// in\n    tag_364:\n      mload(0x40)\n      dup1\n      swap2\n      sub\n      swap1\n      log3\n        /* \"moonx/moonx.sol\":6535:7075  {... */\n      pop\n      pop\n        /* \"moonx/moonx.sol\":2602:2851  {... */\n      pop\n        /* \"moonx/moonx.sol\":6443:7075  function claimStudentReward(uint256 _courseId) external payable whenNotPaused collectGasFee {... */\n      pop\n      jump\t// out\n        /* \"moonx/moonx.sol\":429:471  uint256 public constant POST_THRESHOLD = 5 */\n    tag_125:\n        /* \"moonx/moonx.sol\":470:471  5 */\n      0x05\n        /* \"moonx/moonx.sol\":429:471  uint256 public constant POST_THRESHOLD = 5 */\n      dup2\n      jump\t// out\n        /* \"moonx/moonx.sol\":653:697  uint256 public constant GAS_FEE = 0.75 ether */\n    tag_129:\n        /* \"moonx/moonx.sol\":687:697  0.75 ether */\n      0x0a688906bd8b0000\n        /* \"moonx/moonx.sol\":653:697  uint256 public constant GAS_FEE = 0.75 ether */\n      dup2\n      jump\t// out\n        /* \"moonx/moonx.sol\":379:423  uint256 public constant ENROLL_THRESHOLD = 5 */\n    tag_133:\n        /* \"moonx/moonx.sol\":422:423  5 */\n      0x05\n        /* \"moonx/moonx.sol\":379:423  uint256 public constant ENROLL_THRESHOLD = 5 */\n      dup2\n      jump\t// out\n        /* \"moonx/moonx.sol\":1574:1621  mapping(uint256 => Quiz[]) public courseQuizzes */\n    tag_138:\n      mstore(0x20, 0x06)\n      dup2\n      0x00\n      mstore\n      keccak256(0x00, 0x40)\n      dup2\n      dup2\n      sload\n      dup2\n      lt\n      tag_365\n      jumpi\n      0x00\n      dup1\n      revert\n    tag_365:\n      swap1\n      0x00\n      mstore\n      keccak256(0x00, 0x20)\n      swap1\n      0x07\n      mul\n      add\n      0x00\n      swap2\n      pop\n      swap2\n      pop\n      pop\n      dup1\n      0x00\n      add\n      sload\n      swap1\n      dup1\n      0x01\n      add\n      dup1\n      sload\n      tag_367\n      swap1\n      tag_225\n      jump\t// in\n    tag_367:\n      dup1\n      0x1f\n      add\n      0x20\n      dup1\n      swap2\n      div\n      mul\n      0x20\n      add\n      mload(0x40)\n      swap1\n      dup2\n      add\n      0x40\n      mstore\n      dup1\n      swap3\n      swap2\n      swap1\n      dup2\n      dup2\n      mstore\n      0x20\n      add\n      dup3\n      dup1\n      sload\n      tag_368\n      swap1\n      tag_225\n      jump\t// in\n    tag_368:\n      dup1\n      iszero\n      tag_369\n      jumpi\n      dup1\n      0x1f\n      lt\n      tag_370\n      jumpi\n      0x0100\n      dup1\n      dup4\n      sload\n      div\n      mul\n      dup4\n      mstore\n      swap2\n      0x20\n      add\n      swap2\n      jump(tag_369)\n    tag_370:\n      dup3\n      add\n      swap2\n      swap1\n      0x00\n      mstore\n      keccak256(0x00, 0x20)\n      swap1\n    tag_371:\n      dup2\n      sload\n      dup2\n      mstore\n      swap1\n      0x01\n      add\n      swap1\n      0x20\n      add\n      dup1\n      dup4\n      gt\n      tag_371\n      jumpi\n      dup3\n      swap1\n      sub\n      0x1f\n      and\n      dup3\n      add\n      swap2\n    tag_369:\n      pop\n      pop\n      pop\n      pop\n      pop\n      swap1\n      dup1\n      0x02\n      add\n      dup1\n      sload\n      tag_372\n      swap1\n      tag_225\n      jump\t// in\n    tag_372:\n      dup1\n      0x1f\n      add\n      0x20\n      dup1\n      swap2\n      div\n      mul\n      0x20\n      add\n      mload(0x40)\n      swap1\n      dup2\n      add\n      0x40\n      mstore\n      dup1\n      swap3\n      swap2\n      swap1\n      dup2\n      dup2\n      mstore\n      0x20\n      add\n      dup3\n      dup1\n      sload\n      tag_373\n      swap1\n      tag_225\n      jump\t// in\n    tag_373:\n      dup1\n      iszero\n      tag_374\n      jumpi\n      dup1\n      0x1f\n      lt\n      tag_375\n      jumpi\n      0x0100\n      dup1\n      dup4\n      sload\n      div\n      mul\n      dup4\n      mstore\n      swap2\n      0x20\n      add\n      swap2\n      jump(tag_374)\n    tag_375:\n      dup3\n      add\n      swap2\n      swap1\n      0x00\n      mstore\n      keccak256(0x00, 0x20)\n      swap1\n    tag_376:\n      dup2\n      sload\n      dup2\n      mstore\n      swap1\n      0x01\n      add\n      swap1\n      0x20\n      add\n      dup1\n      dup4\n      gt\n      tag_376\n      jumpi\n      dup3\n      swap1\n      sub\n      0x1f\n      and\n      dup3\n      add\n      swap2\n    tag_374:\n      pop\n      pop\n      pop\n      pop\n      pop\n      swap1\n      dup1\n      0x03\n      add\n      dup1\n      sload\n      tag_377\n      swap1\n      tag_225\n      jump\t// in\n    tag_377:\n      dup1\n      0x1f\n      add\n      0x20\n      dup1\n      swap2\n      div\n      mul\n      0x20\n      add\n      mload(0x40)\n      swap1\n      dup2\n      add\n      0x40\n      mstore\n      dup1\n      swap3\n      swap2\n      swap1\n      dup2\n      dup2\n      mstore\n      0x20\n      add\n      dup3\n      dup1\n      sload\n      tag_378\n      swap1\n      tag_225\n      jump\t// in\n    tag_378:\n      dup1\n      iszero\n      tag_379\n      jumpi\n      dup1\n      0x1f\n      lt\n      tag_380\n      jumpi\n      0x0100\n      dup1\n      dup4\n      sload\n      div\n      mul\n      dup4\n      mstore\n      swap2\n      0x20\n      add\n      swap2\n      jump(tag_379)\n    tag_380:\n      dup3\n      add\n      swap2\n      swap1\n      0x00\n      mstore\n      keccak256(0x00, 0x20)\n      swap1\n    tag_381:\n      dup2\n      sload\n      dup2\n      mstore\n      swap1\n      0x01\n      add\n      swap1\n      0x20\n      add\n      dup1\n      dup4\n      gt\n      tag_381\n      jumpi\n      dup3\n      swap1\n      sub\n      0x1f\n      and\n      dup3\n      add\n      swap2\n    tag_379:\n      pop\n      pop\n      pop\n      pop\n      pop\n      swap1\n      dup1\n      0x04\n      add\n      dup1\n      sload\n      tag_382\n      swap1\n      tag_225\n      jump\t// in\n    tag_382:\n      dup1\n      0x1f\n      add\n      0x20\n      dup1\n      swap2\n      div\n      mul\n      0x20\n      add\n      mload(0x40)\n      swap1\n      dup2\n      add\n      0x40\n      mstore\n      dup1\n      swap3\n      swap2\n      swap1\n      dup2\n      dup2\n      mstore\n      0x20\n      add\n      dup3\n      dup1\n      sload\n      tag_383\n      swap1\n      tag_225\n      jump\t// in\n    tag_383:\n      dup1\n      iszero\n      tag_384\n      jumpi\n      dup1\n      0x1f\n      lt\n      tag_385\n      jumpi\n      0x0100\n      dup1\n      dup4\n      sload\n      div\n      mul\n      dup4\n      mstore\n      swap2\n      0x20\n      add\n      swap2\n      jump(tag_384)\n    tag_385:\n      dup3\n      add\n      swap2\n      swap1\n      0x00\n      mstore\n      keccak256(0x00, 0x20)\n      swap1\n    tag_386:\n      dup2\n      sload\n      dup2\n      mstore\n      swap1\n      0x01\n      add\n      swap1\n      0x20\n      add\n      dup1\n      dup4\n      gt\n      tag_386\n      jumpi\n      dup3\n      swap1\n      sub\n      0x1f\n      and\n      dup3\n      add\n      swap2\n    tag_384:\n      pop\n      pop\n      pop\n      pop\n      pop\n      swap1\n      dup1\n      0x05\n      add\n      dup1\n      sload\n      tag_387\n      swap1\n      tag_225\n      jump\t// in\n    tag_387:\n      dup1\n      0x1f\n      add\n      0x20\n      dup1\n      swap2\n      div\n      mul\n      0x20\n      add\n      mload(0x40)\n      swap1\n      dup2\n      add\n      0x40\n      mstore\n      dup1\n      swap3\n      swap2\n      swap1\n      dup2\n      dup2\n      mstore\n      0x20\n      add\n      dup3\n      dup1\n      sload\n      tag_388\n      swap1\n      tag_225\n      jump\t// in\n    tag_388:\n      dup1\n      iszero\n      tag_389\n      jumpi\n      dup1\n      0x1f\n      lt\n      tag_390\n      jumpi\n      0x0100\n      dup1\n      dup4\n      sload\n      div\n      mul\n      dup4\n      mstore\n      swap2\n      0x20\n      add\n      swap2\n      jump(tag_389)\n    tag_390:\n      dup3\n      add\n      swap2\n      swap1\n      0x00\n      mstore\n      keccak256(0x00, 0x20)\n      swap1\n    tag_391:\n      dup2\n      sload\n      dup2\n      mstore\n      swap1\n      0x01\n      add\n      swap1\n      0x20\n      add\n      dup1\n      dup4\n      gt\n      tag_391\n      jumpi\n      dup3\n      swap1\n      sub\n      0x1f\n      and\n      dup3\n      add\n      swap2\n    tag_389:\n      pop\n      pop\n      pop\n      pop\n      pop\n      swap1\n      dup1\n      0x06\n      add\n      sload\n      swap1\n      pop\n      dup8\n      jump\t// out\n        /* \"moonx/moonx.sol\":8364:8814  function withdrawGasFees() external onlyOwner {... */\n    tag_143:\n        /* \"@openzeppelin/contracts/access/Ownable.sol\":1531:1544  _checkOwner() */\n      tag_393\n        /* \"@openzeppelin/contracts/access/Ownable.sol\":1531:1542  _checkOwner */\n      tag_196\n        /* \"@openzeppelin/contracts/access/Ownable.sol\":1531:1544  _checkOwner() */\n      jump\t// in\n    tag_393:\n        /* \"moonx/moonx.sol\":769:777  100 days */\n      0x83d600\n        /* \"moonx/moonx.sol\":8447:8465  lastWithdrawalTime */\n      sload(0x02)\n        /* \"moonx/moonx.sol\":8447:8487  lastWithdrawalTime + WITHDRAWAL_INTERVAL */\n      tag_395\n      swap2\n      swap1\n      tag_171\n      jump\t// in\n    tag_395:\n        /* \"moonx/moonx.sol\":8428:8443  block.timestamp */\n      timestamp\n        /* \"moonx/moonx.sol\":8428:8487  block.timestamp >= lastWithdrawalTime + WITHDRAWAL_INTERVAL */\n      lt\n      iszero\n        /* \"moonx/moonx.sol\":8420:8523  require(block.timestamp >= lastWithdrawalTime + WITHDRAWAL_INTERVAL, \"Withdrawal interval not reached\") */\n      tag_396\n      jumpi\n      mload(0x40)\n      0x08c379a000000000000000000000000000000000000000000000000000000000\n      dup2\n      mstore\n      0x04\n      add\n      tag_397\n      swap1\n      tag_398\n      jump\t// in\n    tag_397:\n      mload(0x40)\n      dup1\n      swap2\n      sub\n      swap1\n      revert\n    tag_396:\n        /* \"moonx/moonx.sol\":8533:8547  uint256 amount */\n      0x00\n        /* \"moonx/moonx.sol\":8550:8565  accumulatedFees */\n      sload(0x03)\n        /* \"moonx/moonx.sol\":8533:8565  uint256 amount = accumulatedFees */\n      swap1\n      pop\n        /* \"moonx/moonx.sol\":8593:8594  0 */\n      0x00\n        /* \"moonx/moonx.sol\":8575:8590  accumulatedFees */\n      0x03\n        /* \"moonx/moonx.sol\":8575:8594  accumulatedFees = 0 */\n      dup2\n      swap1\n      sstore\n      pop\n        /* \"moonx/moonx.sol\":8625:8640  block.timestamp */\n      timestamp\n        /* \"moonx/moonx.sol\":8604:8622  lastWithdrawalTime */\n      0x02\n        /* \"moonx/moonx.sol\":8604:8640  lastWithdrawalTime = block.timestamp */\n      dup2\n      swap1\n      sstore\n      pop\n        /* \"moonx/moonx.sol\":8652:8664  bool success */\n      0x00\n        /* \"moonx/moonx.sol\":8678:8685  owner() */\n      tag_399\n        /* \"moonx/moonx.sol\":8678:8683  owner */\n      tag_106\n        /* \"moonx/moonx.sol\":8678:8685  owner() */\n      jump\t// in\n    tag_399:\n        /* \"moonx/moonx.sol\":8670:8691  payable(owner()).call */\n      0xffffffffffffffffffffffffffffffffffffffff\n      and\n        /* \"moonx/moonx.sol\":8699:8705  amount */\n      dup3\n        /* \"moonx/moonx.sol\":8670:8710  payable(owner()).call{value: amount}(\"\") */\n      mload(0x40)\n      tag_400\n      swap1\n      tag_186\n      jump\t// in\n    tag_400:\n      0x00\n      mload(0x40)\n      dup1\n      dup4\n      sub\n      dup2\n      dup6\n      dup8\n      gas\n      call\n      swap3\n      pop\n      pop\n      pop\n      returndatasize\n      dup1\n      0x00\n      dup2\n      eq\n      tag_403\n      jumpi\n      mload(0x40)\n      swap2\n      pop\n      and(add(returndatasize, 0x3f), not(0x1f))\n      dup3\n      add\n      0x40\n      mstore\n      returndatasize\n      dup3\n      mstore\n      returndatasize\n      0x00\n      0x20\n      dup5\n      add\n      returndatacopy\n      jump(tag_402)\n    tag_403:\n      0x60\n      swap2\n      pop\n    tag_402:\n      pop\n        /* \"moonx/moonx.sol\":8651:8710  (bool success, ) = payable(owner()).call{value: amount}(\"\") */\n      pop\n      swap1\n      pop\n        /* \"moonx/moonx.sol\":8728:8735  success */\n      dup1\n        /* \"moonx/moonx.sol\":8720:8767  require(success, \"Failed to withdraw gas fees\") */\n      tag_404\n      jumpi\n      mload(0x40)\n      0x08c379a000000000000000000000000000000000000000000000000000000000\n      dup2\n      mstore\n      0x04\n      add\n      tag_405\n      swap1\n      tag_406\n      jump\t// in\n    tag_405:\n      mload(0x40)\n      dup1\n      swap2\n      sub\n      swap1\n      revert\n    tag_404:\n        /* \"moonx/moonx.sol\":8783:8807  GasFeesWithdrawn(amount) */\n      0x0d3c6acef4f1bd70f36dad19b43c6b794ac969b546734638671026f801d476fa\n        /* \"moonx/moonx.sol\":8800:8806  amount */\n      dup3\n        /* \"moonx/moonx.sol\":8783:8807  GasFeesWithdrawn(amount) */\n      mload(0x40)\n      tag_407\n      swap2\n      swap1\n      tag_56\n      jump\t// in\n    tag_407:\n      mload(0x40)\n      dup1\n      swap2\n      sub\n      swap1\n      log1\n        /* \"moonx/moonx.sol\":8410:8814  {... */\n      pop\n      pop\n        /* \"moonx/moonx.sol\":8364:8814  function withdrawGasFees() external onlyOwner {... */\n      jump\t// out\n        /* \"moonx/moonx.sol\":7081:7768  function claimCreatorReward(uint256 _courseId) external payable whenNotPaused collectGasFee {... */\n    tag_146:\n        /* \"@openzeppelin/contracts/security/Pausable.sol\":1239:1258  _requireNotPaused() */\n      tag_409\n        /* \"@openzeppelin/contracts/security/Pausable.sol\":1239:1256  _requireNotPaused */\n      tag_165\n        /* \"@openzeppelin/contracts/security/Pausable.sol\":1239:1258  _requireNotPaused() */\n      jump\t// in\n    tag_409:\n        /* \"moonx/moonx.sol\":687:697  0.75 ether */\n      0x0a688906bd8b0000\n        /* \"moonx/moonx.sol\":2620:2629  msg.value */\n      callvalue\n        /* \"moonx/moonx.sol\":2620:2640  msg.value >= GAS_FEE */\n      lt\n      iszero\n        /* \"moonx/moonx.sol\":2612:2665  require(msg.value >= GAS_FEE, \"Insufficient gas fee\") */\n      tag_411\n      jumpi\n      mload(0x40)\n      0x08c379a000000000000000000000000000000000000000000000000000000000\n      dup2\n      mstore\n      0x04\n      add\n      tag_412\n      swap1\n      tag_169\n      jump\t// in\n    tag_412:\n      mload(0x40)\n      dup1\n      swap2\n      sub\n      swap1\n      revert\n    tag_411:\n        /* \"moonx/moonx.sol\":687:697  0.75 ether */\n      0x0a688906bd8b0000\n        /* \"moonx/moonx.sol\":2675:2690  accumulatedFees */\n      0x03\n      0x00\n        /* \"moonx/moonx.sol\":2675:2701  accumulatedFees += GAS_FEE */\n      dup3\n      dup3\n      sload\n      tag_413\n      swap2\n      swap1\n      tag_171\n      jump\t// in\n    tag_413:\n      swap3\n      pop\n      pop\n      dup2\n      swap1\n      sstore\n      pop\n        /* \"moonx/moonx.sol\":2711:2725  uint256 excess */\n      0x00\n        /* \"moonx/moonx.sol\":687:697  0.75 ether */\n      0x0a688906bd8b0000\n        /* \"moonx/moonx.sol\":2728:2737  msg.value */\n      callvalue\n        /* \"moonx/moonx.sol\":2728:2747  msg.value - GAS_FEE */\n      tag_414\n      swap2\n      swap1\n      tag_173\n      jump\t// in\n    tag_414:\n        /* \"moonx/moonx.sol\":2711:2747  uint256 excess = msg.value - GAS_FEE */\n      swap1\n      pop\n        /* \"moonx/moonx.sol\":2770:2771  0 */\n      0x00\n        /* \"moonx/moonx.sol\":2761:2767  excess */\n      dup2\n        /* \"moonx/moonx.sol\":2761:2771  excess > 0 */\n      gt\n        /* \"moonx/moonx.sol\":2757:2834  if (excess > 0) {... */\n      iszero\n      tag_415\n      jumpi\n        /* \"moonx/moonx.sol\":2795:2805  msg.sender */\n      caller\n        /* \"moonx/moonx.sol\":2787:2815  payable(msg.sender).transfer */\n      0xffffffffffffffffffffffffffffffffffffffff\n      and\n        /* \"moonx/moonx.sol\":2787:2823  payable(msg.sender).transfer(excess) */\n      0x08fc\n        /* \"moonx/moonx.sol\":2816:2822  excess */\n      dup3\n        /* \"moonx/moonx.sol\":2787:2823  payable(msg.sender).transfer(excess) */\n      swap1\n      dup2\n      iszero\n      mul\n      swap1\n      mload(0x40)\n      0x00\n      mload(0x40)\n      dup1\n      dup4\n      sub\n      dup2\n      dup6\n      dup9\n      dup9\n      call\n      swap4\n      pop\n      pop\n      pop\n      pop\n      iszero\n      dup1\n      iszero\n      tag_417\n      jumpi\n      returndatasize\n      0x00\n      dup1\n      returndatacopy\n      revert(0x00, returndatasize)\n    tag_417:\n      pop\n        /* \"moonx/moonx.sol\":2757:2834  if (excess > 0) {... */\n    tag_415:\n        /* \"moonx/moonx.sol\":7183:7204  Course storage course */\n      0x00\n        /* \"moonx/moonx.sol\":7207:7214  courses */\n      0x04\n        /* \"moonx/moonx.sol\":7207:7225  courses[_courseId] */\n      0x00\n        /* \"moonx/moonx.sol\":7215:7224  _courseId */\n      dup5\n        /* \"moonx/moonx.sol\":7207:7225  courses[_courseId] */\n      dup2\n      mstore\n      0x20\n      add\n      swap1\n      dup2\n      mstore\n      0x20\n      add\n      0x00\n      keccak256\n        /* \"moonx/moonx.sol\":7183:7225  Course storage course = courses[_courseId] */\n      swap1\n      pop\n        /* \"moonx/moonx.sol\":7257:7263  course */\n      dup1\n        /* \"moonx/moonx.sol\":7257:7271  course.creator */\n      0x00\n      add\n      0x00\n      swap1\n      sload\n      swap1\n      0x0100\n      exp\n      swap1\n      div\n      0xffffffffffffffffffffffffffffffffffffffff\n      and\n        /* \"moonx/moonx.sol\":7243:7271  msg.sender == course.creator */\n      0xffffffffffffffffffffffffffffffffffffffff\n      and\n        /* \"moonx/moonx.sol\":7243:7253  msg.sender */\n      caller\n        /* \"moonx/moonx.sol\":7243:7271  msg.sender == course.creator */\n      0xffffffffffffffffffffffffffffffffffffffff\n      and\n      eq\n        /* \"moonx/moonx.sol\":7235:7312  require(msg.sender == course.creator, \"Only course creator can claim reward\") */\n      tag_419\n      jumpi\n      mload(0x40)\n      0x08c379a000000000000000000000000000000000000000000000000000000000\n      dup2\n      mstore\n      0x04\n      add\n      tag_420\n      swap1\n      tag_421\n      jump\t// in\n    tag_420:\n      mload(0x40)\n      dup1\n      swap2\n      sub\n      swap1\n      revert\n    tag_419:\n        /* \"moonx/moonx.sol\":7330:7336  course */\n      dup1\n        /* \"moonx/moonx.sol\":7330:7345  course.approved */\n      0x02\n      add\n      0x00\n      swap1\n      sload\n      swap1\n      0x0100\n      exp\n      swap1\n      div\n      0xff\n      and\n        /* \"moonx/moonx.sol\":7322:7369  require(course.approved, \"Course not approved\") */\n      tag_422\n      jumpi\n      mload(0x40)\n      0x08c379a000000000000000000000000000000000000000000000000000000000\n      dup2\n      mstore\n      0x04\n      add\n      tag_423\n      swap1\n      tag_289\n      jump\t// in\n    tag_423:\n      mload(0x40)\n      dup1\n      swap2\n      sub\n      swap1\n      revert\n    tag_422:\n        /* \"moonx/moonx.sol\":7380:7400  uint256 rewardAmount */\n      0x00\n        /* \"moonx/moonx.sol\":605:612  1 ether */\n      0x0de0b6b3a7640000\n        /* \"moonx/moonx.sol\":7403:7409  course */\n      dup3\n        /* \"moonx/moonx.sol\":7403:7424  course.passedStudents */\n      0x03\n      add\n      sload\n        /* \"moonx/moonx.sol\":7403:7448  course.passedStudents * CREATOR_REWARD_AMOUNT */\n      tag_424\n      swap2\n      swap1\n      tag_425\n      jump\t// in\n    tag_424:\n        /* \"moonx/moonx.sol\":7380:7448  uint256 rewardAmount = course.passedStudents * CREATOR_REWARD_AMOUNT */\n      swap1\n      pop\n        /* \"moonx/moonx.sol\":7482:7483  0 */\n      0x00\n        /* \"moonx/moonx.sol\":7458:7464  course */\n      dup3\n        /* \"moonx/moonx.sol\":7458:7479  course.passedStudents */\n      0x03\n      add\n        /* \"moonx/moonx.sol\":7458:7483  course.passedStudents = 0 */\n      dup2\n      swap1\n      sstore\n      pop\n        /* \"moonx/moonx.sol\":7548:7560  rewardAmount */\n      dup1\n        /* \"moonx/moonx.sol\":7524:7530  course */\n      dup3\n        /* \"moonx/moonx.sol\":7524:7544  course.totalRewarded */\n      0x04\n      add\n      0x00\n        /* \"moonx/moonx.sol\":7524:7560  course.totalRewarded += rewardAmount */\n      dup3\n      dup3\n      sload\n      tag_426\n      swap2\n      swap1\n      tag_171\n      jump\t// in\n    tag_426:\n      swap3\n      pop\n      pop\n      dup2\n      swap1\n      sstore\n      pop\n        /* \"moonx/moonx.sol\":7572:7584  bool success */\n      0x00\n        /* \"moonx/moonx.sol\":7598:7608  msg.sender */\n      caller\n        /* \"moonx/moonx.sol\":7590:7614  payable(msg.sender).call */\n      0xffffffffffffffffffffffffffffffffffffffff\n      and\n        /* \"moonx/moonx.sol\":7622:7634  rewardAmount */\n      dup3\n        /* \"moonx/moonx.sol\":7590:7639  payable(msg.sender).call{value: rewardAmount}(\"\") */\n      mload(0x40)\n      tag_427\n      swap1\n      tag_186\n      jump\t// in\n    tag_427:\n      0x00\n      mload(0x40)\n      dup1\n      dup4\n      sub\n      dup2\n      dup6\n      dup8\n      gas\n      call\n      swap3\n      pop\n      pop\n      pop\n      returndatasize\n      dup1\n      0x00\n      dup2\n      eq\n      tag_430\n      jumpi\n      mload(0x40)\n      swap2\n      pop\n      and(add(returndatasize, 0x3f), not(0x1f))\n      dup3\n      add\n      0x40\n      mstore\n      returndatasize\n      dup3\n      mstore\n      returndatasize\n      0x00\n      0x20\n      dup5\n      add\n      returndatacopy\n      jump(tag_429)\n    tag_430:\n      0x60\n      swap2\n      pop\n    tag_429:\n      pop\n        /* \"moonx/moonx.sol\":7571:7639  (bool success, ) = payable(msg.sender).call{value: rewardAmount}(\"\") */\n      pop\n      swap1\n      pop\n        /* \"moonx/moonx.sol\":7657:7664  success */\n      dup1\n        /* \"moonx/moonx.sol\":7649:7688  require(success, \"Failed to send MAND\") */\n      tag_431\n      jumpi\n      mload(0x40)\n      0x08c379a000000000000000000000000000000000000000000000000000000000\n      dup2\n      mstore\n      0x04\n      add\n      tag_432\n      swap1\n      tag_192\n      jump\t// in\n    tag_432:\n      mload(0x40)\n      dup1\n      swap2\n      sub\n      swap1\n      revert\n    tag_431:\n        /* \"moonx/moonx.sol\":7736:7746  msg.sender */\n      caller\n        /* \"moonx/moonx.sol\":7704:7761  CreatorRewardClaimed(_courseId, msg.sender, rewardAmount) */\n      0xffffffffffffffffffffffffffffffffffffffff\n      and\n        /* \"moonx/moonx.sol\":7725:7734  _courseId */\n      dup6\n        /* \"moonx/moonx.sol\":7704:7761  CreatorRewardClaimed(_courseId, msg.sender, rewardAmount) */\n      0xb67da43f4cc061f251c05601f44947d1be59a7ef5451a4a5230274da04f88246\n        /* \"moonx/moonx.sol\":7748:7760  rewardAmount */\n      dup5\n        /* \"moonx/moonx.sol\":7704:7761  CreatorRewardClaimed(_courseId, msg.sender, rewardAmount) */\n      mload(0x40)\n      tag_433\n      swap2\n      swap1\n      tag_56\n      jump\t// in\n    tag_433:\n      mload(0x40)\n      dup1\n      swap2\n      sub\n      swap1\n      log3\n        /* \"moonx/moonx.sol\":7173:7768  {... */\n      pop\n      pop\n      pop\n        /* \"moonx/moonx.sol\":2602:2851  {... */\n      pop\n        /* \"moonx/moonx.sol\":7081:7768  function claimCreatorReward(uint256 _courseId) external payable whenNotPaused collectGasFee {... */\n      pop\n      jump\t// out\n        /* \"moonx/moonx.sol\":557:612  uint256 public constant CREATOR_REWARD_AMOUNT = 1 ether */\n    tag_149:\n        /* \"moonx/moonx.sol\":605:612  1 ether */\n      0x0de0b6b3a7640000\n        /* \"moonx/moonx.sol\":557:612  uint256 public constant CREATOR_REWARD_AMOUNT = 1 ether */\n      dup2\n      jump\t// out\n        /* \"moonx/moonx.sol\":4018:5412  function createQuiz(... */\n    tag_154:\n        /* \"moonx/moonx.sol\":687:697  0.75 ether */\n      0x0a688906bd8b0000\n        /* \"moonx/moonx.sol\":2620:2629  msg.value */\n      callvalue\n        /* \"moonx/moonx.sol\":2620:2640  msg.value >= GAS_FEE */\n      lt\n      iszero\n        /* \"moonx/moonx.sol\":2612:2665  require(msg.value >= GAS_FEE, \"Insufficient gas fee\") */\n      tag_435\n      jumpi\n      mload(0x40)\n      0x08c379a000000000000000000000000000000000000000000000000000000000\n      dup2\n      mstore\n      0x04\n      add\n      tag_436\n      swap1\n      tag_169\n      jump\t// in\n    tag_436:\n      mload(0x40)\n      dup1\n      swap2\n      sub\n      swap1\n      revert\n    tag_435:\n        /* \"moonx/moonx.sol\":687:697  0.75 ether */\n      0x0a688906bd8b0000\n        /* \"moonx/moonx.sol\":2675:2690  accumulatedFees */\n      0x03\n      0x00\n        /* \"moonx/moonx.sol\":2675:2701  accumulatedFees += GAS_FEE */\n      dup3\n      dup3\n      sload\n      tag_437\n      swap2\n      swap1\n      tag_171\n      jump\t// in\n    tag_437:\n      swap3\n      pop\n      pop\n      dup2\n      swap1\n      sstore\n      pop\n        /* \"moonx/moonx.sol\":2711:2725  uint256 excess */\n      0x00\n        /* \"moonx/moonx.sol\":687:697  0.75 ether */\n      0x0a688906bd8b0000\n        /* \"moonx/moonx.sol\":2728:2737  msg.value */\n      callvalue\n        /* \"moonx/moonx.sol\":2728:2747  msg.value - GAS_FEE */\n      tag_438\n      swap2\n      swap1\n      tag_173\n      jump\t// in\n    tag_438:\n        /* \"moonx/moonx.sol\":2711:2747  uint256 excess = msg.value - GAS_FEE */\n      swap1\n      pop\n        /* \"moonx/moonx.sol\":2770:2771  0 */\n      0x00\n        /* \"moonx/moonx.sol\":2761:2767  excess */\n      dup2\n        /* \"moonx/moonx.sol\":2761:2771  excess > 0 */\n      gt\n        /* \"moonx/moonx.sol\":2757:2834  if (excess > 0) {... */\n      iszero\n      tag_439\n      jumpi\n        /* \"moonx/moonx.sol\":2795:2805  msg.sender */\n      caller\n        /* \"moonx/moonx.sol\":2787:2815  payable(msg.sender).transfer */\n      0xffffffffffffffffffffffffffffffffffffffff\n      and\n        /* \"moonx/moonx.sol\":2787:2823  payable(msg.sender).transfer(excess) */\n      0x08fc\n        /* \"moonx/moonx.sol\":2816:2822  excess */\n      dup3\n        /* \"moonx/moonx.sol\":2787:2823  payable(msg.sender).transfer(excess) */\n      swap1\n      dup2\n      iszero\n      mul\n      swap1\n      mload(0x40)\n      0x00\n      mload(0x40)\n      dup1\n      dup4\n      sub\n      dup2\n      dup6\n      dup9\n      dup9\n      call\n      swap4\n      pop\n      pop\n      pop\n      pop\n      iszero\n      dup1\n      iszero\n      tag_441\n      jumpi\n      returndatasize\n      0x00\n      dup1\n      returndatacopy\n      revert(0x00, returndatasize)\n    tag_441:\n      pop\n        /* \"moonx/moonx.sol\":2757:2834  if (excess > 0) {... */\n    tag_439:\n        /* \"moonx/moonx.sol\":4333:4340  courses */\n      0x04\n        /* \"moonx/moonx.sol\":4333:4351  courses[_courseId] */\n      0x00\n        /* \"moonx/moonx.sol\":4341:4350  _courseId */\n      dup10\n        /* \"moonx/moonx.sol\":4333:4351  courses[_courseId] */\n      dup2\n      mstore\n      0x20\n      add\n      swap1\n      dup2\n      mstore\n      0x20\n      add\n      0x00\n      keccak256\n        /* \"moonx/moonx.sol\":4333:4359  courses[_courseId].creator */\n      0x00\n      add\n      0x00\n      swap1\n      sload\n      swap1\n      0x0100\n      exp\n      swap1\n      div\n      0xffffffffffffffffffffffffffffffffffffffff\n      and\n        /* \"moonx/moonx.sol\":4319:4359  msg.sender == courses[_courseId].creator */\n      0xffffffffffffffffffffffffffffffffffffffff\n      and\n        /* \"moonx/moonx.sol\":4319:4329  msg.sender */\n      caller\n        /* \"moonx/moonx.sol\":4319:4359  msg.sender == courses[_courseId].creator */\n      0xffffffffffffffffffffffffffffffffffffffff\n      and\n      eq\n        /* \"moonx/moonx.sol\":4311:4401  require(msg.sender == courses[_courseId].creator, \"Only course creator can create a quiz\") */\n      tag_443\n      jumpi\n      mload(0x40)\n      0x08c379a000000000000000000000000000000000000000000000000000000000\n      dup2\n      mstore\n      0x04\n      add\n      tag_444\n      swap1\n      tag_445\n      jump\t// in\n    tag_444:\n      mload(0x40)\n      dup1\n      swap2\n      sub\n      swap1\n      revert\n    tag_443:\n        /* \"moonx/moonx.sol\":4419:4426  courses */\n      0x04\n        /* \"moonx/moonx.sol\":4419:4437  courses[_courseId] */\n      0x00\n        /* \"moonx/moonx.sol\":4427:4436  _courseId */\n      dup10\n        /* \"moonx/moonx.sol\":4419:4437  courses[_courseId] */\n      dup2\n      mstore\n      0x20\n      add\n      swap1\n      dup2\n      mstore\n      0x20\n      add\n      0x00\n      keccak256\n        /* \"moonx/moonx.sol\":4419:4446  courses[_courseId].approved */\n      0x02\n      add\n      0x00\n      swap1\n      sload\n      swap1\n      0x0100\n      exp\n      swap1\n      div\n      0xff\n      and\n        /* \"moonx/moonx.sol\":4411:4491  require(courses[_courseId].approved, \"Course must be approved to create a quiz\") */\n      tag_446\n      jumpi\n      mload(0x40)\n      0x08c379a000000000000000000000000000000000000000000000000000000000\n      dup2\n      mstore\n      0x04\n      add\n      tag_447\n      swap1\n      tag_448\n      jump\t// in\n    tag_447:\n      mload(0x40)\n      dup1\n      swap2\n      sub\n      swap1\n      revert\n    tag_446:\n        /* \"moonx/moonx.sol\":4579:4600  abi.encodePacked(\"A\") */\n      add(0x20, mload(0x40))\n      tag_449\n      swap1\n      tag_450\n      jump\t// in\n    tag_449:\n      mload(0x40)\n      0x20\n      dup2\n      dup4\n      sub\n      sub\n      dup2\n      mstore\n      swap1\n      0x40\n      mstore\n        /* \"moonx/moonx.sol\":4569:4601  keccak256(abi.encodePacked(\"A\")) */\n      dup1\n      mload\n      swap1\n      0x20\n      add\n      keccak256\n        /* \"moonx/moonx.sol\":4549:4563  _correctAnswer */\n      dup3\n        /* \"moonx/moonx.sol\":4532:4564  abi.encodePacked(_correctAnswer) */\n      add(0x20, mload(0x40))\n      tag_451\n      swap2\n      swap1\n      tag_262\n      jump\t// in\n    tag_451:\n      mload(0x40)\n      0x20\n      dup2\n      dup4\n      sub\n      sub\n      dup2\n      mstore\n      swap1\n      0x40\n      mstore\n        /* \"moonx/moonx.sol\":4522:4565  keccak256(abi.encodePacked(_correctAnswer)) */\n      dup1\n      mload\n      swap1\n      0x20\n      add\n      keccak256\n        /* \"moonx/moonx.sol\":4522:4601  keccak256(abi.encodePacked(_correctAnswer)) == keccak256(abi.encodePacked(\"A\")) */\n      eq\n        /* \"moonx/moonx.sol\":4522:4696  keccak256(abi.encodePacked(_correctAnswer)) == keccak256(abi.encodePacked(\"A\")) ||... */\n      dup1\n      tag_452\n      jumpi\n      pop\n        /* \"moonx/moonx.sol\":4674:4695  abi.encodePacked(\"B\") */\n      add(0x20, mload(0x40))\n      tag_453\n      swap1\n      tag_454\n      jump\t// in\n    tag_453:\n      mload(0x40)\n      0x20\n      dup2\n      dup4\n      sub\n      sub\n      dup2\n      mstore\n      swap1\n      0x40\n      mstore\n        /* \"moonx/moonx.sol\":4664:4696  keccak256(abi.encodePacked(\"B\")) */\n      dup1\n      mload\n      swap1\n      0x20\n      add\n      keccak256\n        /* \"moonx/moonx.sol\":4644:4658  _correctAnswer */\n      dup3\n        /* \"moonx/moonx.sol\":4627:4659  abi.encodePacked(_correctAnswer) */\n      add(0x20, mload(0x40))\n      tag_455\n      swap2\n      swap1\n      tag_262\n      jump\t// in\n    tag_455:\n      mload(0x40)\n      0x20\n      dup2\n      dup4\n      sub\n      sub\n      dup2\n      mstore\n      swap1\n      0x40\n      mstore\n        /* \"moonx/moonx.sol\":4617:4660  keccak256(abi.encodePacked(_correctAnswer)) */\n      dup1\n      mload\n      swap1\n      0x20\n      add\n      keccak256\n        /* \"moonx/moonx.sol\":4617:4696  keccak256(abi.encodePacked(_correctAnswer)) == keccak256(abi.encodePacked(\"B\")) */\n      eq\n        /* \"moonx/moonx.sol\":4522:4696  keccak256(abi.encodePacked(_correctAnswer)) == keccak256(abi.encodePacked(\"A\")) ||... */\n    tag_452:\n        /* \"moonx/moonx.sol\":4522:4791  keccak256(abi.encodePacked(_correctAnswer)) == keccak256(abi.encodePacked(\"A\")) ||... */\n      dup1\n      tag_456\n      jumpi\n      pop\n        /* \"moonx/moonx.sol\":4769:4790  abi.encodePacked(\"C\") */\n      add(0x20, mload(0x40))\n      tag_457\n      swap1\n      tag_458\n      jump\t// in\n    tag_457:\n      mload(0x40)\n      0x20\n      dup2\n      dup4\n      sub\n      sub\n      dup2\n      mstore\n      swap1\n      0x40\n      mstore\n        /* \"moonx/moonx.sol\":4759:4791  keccak256(abi.encodePacked(\"C\")) */\n      dup1\n      mload\n      swap1\n      0x20\n      add\n      keccak256\n        /* \"moonx/moonx.sol\":4739:4753  _correctAnswer */\n      dup3\n        /* \"moonx/moonx.sol\":4722:4754  abi.encodePacked(_correctAnswer) */\n      add(0x20, mload(0x40))\n      tag_459\n      swap2\n      swap1\n      tag_262\n      jump\t// in\n    tag_459:\n      mload(0x40)\n      0x20\n      dup2\n      dup4\n      sub\n      sub\n      dup2\n      mstore\n      swap1\n      0x40\n      mstore\n        /* \"moonx/moonx.sol\":4712:4755  keccak256(abi.encodePacked(_correctAnswer)) */\n      dup1\n      mload\n      swap1\n      0x20\n      add\n      keccak256\n        /* \"moonx/moonx.sol\":4712:4791  keccak256(abi.encodePacked(_correctAnswer)) == keccak256(abi.encodePacked(\"C\")) */\n      eq\n        /* \"moonx/moonx.sol\":4522:4791  keccak256(abi.encodePacked(_correctAnswer)) == keccak256(abi.encodePacked(\"A\")) ||... */\n    tag_456:\n        /* \"moonx/moonx.sol\":4522:4886  keccak256(abi.encodePacked(_correctAnswer)) == keccak256(abi.encodePacked(\"A\")) ||... */\n      dup1\n      tag_460\n      jumpi\n      pop\n        /* \"moonx/moonx.sol\":4864:4885  abi.encodePacked(\"D\") */\n      add(0x20, mload(0x40))\n      tag_461\n      swap1\n      tag_462\n      jump\t// in\n    tag_461:\n      mload(0x40)\n      0x20\n      dup2\n      dup4\n      sub\n      sub\n      dup2\n      mstore\n      swap1\n      0x40\n      mstore\n        /* \"moonx/moonx.sol\":4854:4886  keccak256(abi.encodePacked(\"D\")) */\n      dup1\n      mload\n      swap1\n      0x20\n      add\n      keccak256\n        /* \"moonx/moonx.sol\":4834:4848  _correctAnswer */\n      dup3\n        /* \"moonx/moonx.sol\":4817:4849  abi.encodePacked(_correctAnswer) */\n      add(0x20, mload(0x40))\n      tag_463\n      swap2\n      swap1\n      tag_262\n      jump\t// in\n    tag_463:\n      mload(0x40)\n      0x20\n      dup2\n      dup4\n      sub\n      sub\n      dup2\n      mstore\n      swap1\n      0x40\n      mstore\n        /* \"moonx/moonx.sol\":4807:4850  keccak256(abi.encodePacked(_correctAnswer)) */\n      dup1\n      mload\n      swap1\n      0x20\n      add\n      keccak256\n        /* \"moonx/moonx.sol\":4807:4886  keccak256(abi.encodePacked(_correctAnswer)) == keccak256(abi.encodePacked(\"D\")) */\n      eq\n        /* \"moonx/moonx.sol\":4522:4886  keccak256(abi.encodePacked(_correctAnswer)) == keccak256(abi.encodePacked(\"A\")) ||... */\n    tag_460:\n        /* \"moonx/moonx.sol\":4501:4934  require(... */\n      tag_464\n      jumpi\n      mload(0x40)\n      0x08c379a000000000000000000000000000000000000000000000000000000000\n      dup2\n      mstore\n      0x04\n      add\n      tag_465\n      swap1\n      tag_466\n      jump\t// in\n    tag_465:\n      mload(0x40)\n      dup1\n      swap2\n      sub\n      swap1\n      revert\n    tag_464:\n        /* \"moonx/moonx.sol\":4945:4964  Quiz memory newQuiz */\n      0x00\n        /* \"moonx/moonx.sol\":4967:5249  Quiz({... */\n      mload(0x40)\n      dup1\n      0xe0\n      add\n      0x40\n      mstore\n      dup1\n        /* \"moonx/moonx.sol\":4996:5005  _courseId */\n      dup11\n        /* \"moonx/moonx.sol\":4967:5249  Quiz({... */\n      dup2\n      mstore\n      0x20\n      add\n        /* \"moonx/moonx.sol\":5029:5038  _question */\n      dup10\n        /* \"moonx/moonx.sol\":4967:5249  Quiz({... */\n      dup2\n      mstore\n      0x20\n      add\n        /* \"moonx/moonx.sol\":5061:5069  _optionA */\n      dup9\n        /* \"moonx/moonx.sol\":4967:5249  Quiz({... */\n      dup2\n      mstore\n      0x20\n      add\n        /* \"moonx/moonx.sol\":5092:5100  _optionB */\n      dup8\n        /* \"moonx/moonx.sol\":4967:5249  Quiz({... */\n      dup2\n      mstore\n      0x20\n      add\n        /* \"moonx/moonx.sol\":5123:5131  _optionC */\n      dup7\n        /* \"moonx/moonx.sol\":4967:5249  Quiz({... */\n      dup2\n      mstore\n      0x20\n      add\n        /* \"moonx/moonx.sol\":5154:5162  _optionD */\n      dup6\n        /* \"moonx/moonx.sol\":4967:5249  Quiz({... */\n      dup2\n      mstore\n      0x20\n      add\n        /* \"moonx/moonx.sol\":5222:5236  _correctAnswer */\n      dup5\n        /* \"moonx/moonx.sol\":5205:5237  abi.encodePacked(_correctAnswer) */\n      add(0x20, mload(0x40))\n      tag_467\n      swap2\n      swap1\n      tag_262\n      jump\t// in\n    tag_467:\n      mload(0x40)\n      0x20\n      dup2\n      dup4\n      sub\n      sub\n      dup2\n      mstore\n      swap1\n      0x40\n      mstore\n        /* \"moonx/moonx.sol\":5195:5238  keccak256(abi.encodePacked(_correctAnswer)) */\n      dup1\n      mload\n      swap1\n      0x20\n      add\n      keccak256\n        /* \"moonx/moonx.sol\":4967:5249  Quiz({... */\n      dup2\n      mstore\n      pop\n        /* \"moonx/moonx.sol\":4945:5249  Quiz memory newQuiz = Quiz({... */\n      swap1\n      pop\n        /* \"moonx/moonx.sol\":5260:5273  courseQuizzes */\n      0x06\n        /* \"moonx/moonx.sol\":5260:5284  courseQuizzes[_courseId] */\n      0x00\n        /* \"moonx/moonx.sol\":5274:5283  _courseId */\n      dup11\n        /* \"moonx/moonx.sol\":5260:5284  courseQuizzes[_courseId] */\n      dup2\n      mstore\n      0x20\n      add\n      swap1\n      dup2\n      mstore\n      0x20\n      add\n      0x00\n      keccak256\n        /* \"moonx/moonx.sol\":5290:5297  newQuiz */\n      dup2\n        /* \"moonx/moonx.sol\":5260:5298  courseQuizzes[_courseId].push(newQuiz) */\n      swap1\n      dup1\n      0x01\n      dup2\n      sload\n      add\n      dup1\n      dup3\n      sstore\n      dup1\n      swap2\n      pop\n      pop\n      0x01\n      swap1\n      sub\n      swap1\n      0x00\n      mstore\n      keccak256(0x00, 0x20)\n      swap1\n      0x07\n      mul\n      add\n      0x00\n      swap1\n      swap2\n      swap1\n      swap2\n      swap1\n      swap2\n      pop\n      0x00\n      dup3\n      add\n      mload\n      dup2\n      0x00\n      add\n      sstore\n      0x20\n      dup3\n      add\n      mload\n      dup2\n      0x01\n      add\n      swap1\n      dup2\n      tag_469\n      swap2\n      swap1\n      tag_330\n      jump\t// in\n    tag_469:\n      pop\n      0x40\n      dup3\n      add\n      mload\n      dup2\n      0x02\n      add\n      swap1\n      dup2\n      tag_470\n      swap2\n      swap1\n      tag_330\n      jump\t// in\n    tag_470:\n      pop\n      0x60\n      dup3\n      add\n      mload\n      dup2\n      0x03\n      add\n      swap1\n      dup2\n      tag_471\n      swap2\n      swap1\n      tag_330\n      jump\t// in\n    tag_471:\n      pop\n      0x80\n      dup3\n      add\n      mload\n      dup2\n      0x04\n      add\n      swap1\n      dup2\n      tag_472\n      swap2\n      swap1\n      tag_330\n      jump\t// in\n    tag_472:\n      pop\n      0xa0\n      dup3\n      add\n      mload\n      dup2\n      0x05\n      add\n      swap1\n      dup2\n      tag_473\n      swap2\n      swap1\n      tag_330\n      jump\t// in\n    tag_473:\n      pop\n      0xc0\n      dup3\n      add\n      mload\n      dup2\n      0x06\n      add\n      sstore\n      pop\n      pop\n        /* \"moonx/moonx.sol\":5308:5322  uint256 quizId */\n      0x00\n        /* \"moonx/moonx.sol\":5359:5360  1 */\n      0x01\n        /* \"moonx/moonx.sol\":5325:5338  courseQuizzes */\n      0x06\n        /* \"moonx/moonx.sol\":5325:5349  courseQuizzes[_courseId] */\n      0x00\n        /* \"moonx/moonx.sol\":5339:5348  _courseId */\n      dup13\n        /* \"moonx/moonx.sol\":5325:5349  courseQuizzes[_courseId] */\n      dup2\n      mstore\n      0x20\n      add\n      swap1\n      dup2\n      mstore\n      0x20\n      add\n      0x00\n      keccak256\n        /* \"moonx/moonx.sol\":5325:5356  courseQuizzes[_courseId].length */\n      dup1\n      sload\n      swap1\n      pop\n        /* \"moonx/moonx.sol\":5325:5360  courseQuizzes[_courseId].length - 1 */\n      tag_474\n      swap2\n      swap1\n      tag_173\n      jump\t// in\n    tag_474:\n        /* \"moonx/moonx.sol\":5308:5360  uint256 quizId = courseQuizzes[_courseId].length - 1 */\n      swap1\n      pop\n        /* \"moonx/moonx.sol\":5387:5396  _courseId */\n      dup10\n        /* \"moonx/moonx.sol\":5375:5405  QuizCreated(_courseId, quizId) */\n      0x8865832f191ae6766f74ad3a536812cffbf608c1dee46454cf0b3b9c98a4b37f\n        /* \"moonx/moonx.sol\":5398:5404  quizId */\n      dup3\n        /* \"moonx/moonx.sol\":5375:5405  QuizCreated(_courseId, quizId) */\n      mload(0x40)\n      tag_475\n      swap2\n      swap1\n      tag_56\n      jump\t// in\n    tag_475:\n      mload(0x40)\n      dup1\n      swap2\n      sub\n      swap1\n      log2\n        /* \"moonx/moonx.sol\":4301:5412  {... */\n      pop\n      pop\n        /* \"moonx/moonx.sol\":2602:2851  {... */\n      pop\n        /* \"moonx/moonx.sol\":4018:5412  function createQuiz(... */\n      pop\n      pop\n      pop\n      pop\n      pop\n      pop\n      pop\n      jump\t// out\n        /* \"@openzeppelin/contracts/access/Ownable.sol\":2543:2758  function transferOwnership(address newOwner) public virtual onlyOwner {... */\n    tag_158:\n        /* \"@openzeppelin/contracts/access/Ownable.sol\":1531:1544  _checkOwner() */\n      tag_477\n        /* \"@openzeppelin/contracts/access/Ownable.sol\":1531:1542  _checkOwner */\n      tag_196\n        /* \"@openzeppelin/contracts/access/Ownable.sol\":1531:1544  _checkOwner() */\n      jump\t// in\n    tag_477:\n        /* \"@openzeppelin/contracts/access/Ownable.sol\":2647:2648  0 */\n      0x00\n        /* \"@openzeppelin/contracts/access/Ownable.sol\":2627:2649  newOwner == address(0) */\n      0xffffffffffffffffffffffffffffffffffffffff\n      and\n        /* \"@openzeppelin/contracts/access/Ownable.sol\":2627:2635  newOwner */\n      dup2\n        /* \"@openzeppelin/contracts/access/Ownable.sol\":2627:2649  newOwner == address(0) */\n      0xffffffffffffffffffffffffffffffffffffffff\n      and\n      sub\n        /* \"@openzeppelin/contracts/access/Ownable.sol\":2623:2714  if (newOwner == address(0)) {... */\n      tag_479\n      jumpi\n        /* \"@openzeppelin/contracts/access/Ownable.sol\":2700:2701  0 */\n      0x00\n        /* \"@openzeppelin/contracts/access/Ownable.sol\":2672:2703  OwnableInvalidOwner(address(0)) */\n      mload(0x40)\n      0x1e4fbdf700000000000000000000000000000000000000000000000000000000\n      dup2\n      mstore\n      0x04\n      add\n      tag_480\n      swap2\n      swap1\n      tag_108\n      jump\t// in\n    tag_480:\n      mload(0x40)\n      dup1\n      swap2\n      sub\n      swap1\n      revert\n        /* \"@openzeppelin/contracts/access/Ownable.sol\":2623:2714  if (newOwner == address(0)) {... */\n    tag_479:\n        /* \"@openzeppelin/contracts/access/Ownable.sol\":2723:2751  _transferOwnership(newOwner) */\n      tag_481\n        /* \"@openzeppelin/contracts/access/Ownable.sol\":2742:2750  newOwner */\n      dup2\n        /* \"@openzeppelin/contracts/access/Ownable.sol\":2723:2741  _transferOwnership */\n      tag_298\n        /* \"@openzeppelin/contracts/access/Ownable.sol\":2723:2751  _transferOwnership(newOwner) */\n      jump\t// in\n    tag_481:\n        /* \"@openzeppelin/contracts/access/Ownable.sol\":2543:2758  function transferOwnership(address newOwner) public virtual onlyOwner {... */\n      pop\n      jump\t// out\n        /* \"moonx/moonx.sol\":477:533  uint256 public constant STUDENT_REWARD_AMOUNT = 10 ether */\n    tag_161:\n        /* \"moonx/moonx.sol\":525:533  10 ether */\n      0x8ac7230489e80000\n        /* \"moonx/moonx.sol\":477:533  uint256 public constant STUDENT_REWARD_AMOUNT = 10 ether */\n      dup2\n      jump\t// out\n        /* \"@openzeppelin/contracts/security/Pausable.sol\":1767:1873  function _requireNotPaused() internal view virtual {... */\n    tag_165:\n        /* \"@openzeppelin/contracts/security/Pausable.sol\":1837:1845  paused() */\n      tag_483\n        /* \"@openzeppelin/contracts/security/Pausable.sol\":1837:1843  paused */\n      tag_70\n        /* \"@openzeppelin/contracts/security/Pausable.sol\":1837:1845  paused() */\n      jump\t// in\n    tag_483:\n        /* \"@openzeppelin/contracts/security/Pausable.sol\":1836:1845  !paused() */\n      iszero\n        /* \"@openzeppelin/contracts/security/Pausable.sol\":1828:1866  require(!paused(), \"Pausable: paused\") */\n      tag_484\n      jumpi\n      mload(0x40)\n      0x08c379a000000000000000000000000000000000000000000000000000000000\n      dup2\n      mstore\n      0x04\n      add\n      tag_485\n      swap1\n      tag_486\n      jump\t// in\n    tag_485:\n      mload(0x40)\n      dup1\n      swap2\n      sub\n      swap1\n      revert\n    tag_484:\n        /* \"@openzeppelin/contracts/security/Pausable.sol\":1767:1873  function _requireNotPaused() internal view virtual {... */\n      jump\t// out\n        /* \"@openzeppelin/contracts/access/Ownable.sol\":1796:1958  function _checkOwner() internal view virtual {... */\n    tag_196:\n        /* \"@openzeppelin/contracts/access/Ownable.sol\":1866:1878  _msgSender() */\n      tag_488\n        /* \"@openzeppelin/contracts/access/Ownable.sol\":1866:1876  _msgSender */\n      tag_489\n        /* \"@openzeppelin/contracts/access/Ownable.sol\":1866:1878  _msgSender() */\n      jump\t// in\n    tag_488:\n        /* \"@openzeppelin/contracts/access/Ownable.sol\":1855:1878  owner() != _msgSender() */\n      0xffffffffffffffffffffffffffffffffffffffff\n      and\n        /* \"@openzeppelin/contracts/access/Ownable.sol\":1855:1862  owner() */\n      tag_490\n        /* \"@openzeppelin/contracts/access/Ownable.sol\":1855:1860  owner */\n      tag_106\n        /* \"@openzeppelin/contracts/access/Ownable.sol\":1855:1862  owner() */\n      jump\t// in\n    tag_490:\n        /* \"@openzeppelin/contracts/access/Ownable.sol\":1855:1878  owner() != _msgSender() */\n      0xffffffffffffffffffffffffffffffffffffffff\n      and\n      eq\n        /* \"@openzeppelin/contracts/access/Ownable.sol\":1851:1952  if (owner() != _msgSender()) {... */\n      tag_491\n      jumpi\n        /* \"@openzeppelin/contracts/access/Ownable.sol\":1928:1940  _msgSender() */\n      tag_492\n        /* \"@openzeppelin/contracts/access/Ownable.sol\":1928:1938  _msgSender */\n      tag_489\n        /* \"@openzeppelin/contracts/access/Ownable.sol\":1928:1940  _msgSender() */\n      jump\t// in\n    tag_492:\n        /* \"@openzeppelin/contracts/access/Ownable.sol\":1901:1941  OwnableUnauthorizedAccount(_msgSender()) */\n      mload(0x40)\n      0x118cdaa700000000000000000000000000000000000000000000000000000000\n      dup2\n      mstore\n      0x04\n      add\n      tag_493\n      swap2\n      swap1\n      tag_108\n      jump\t// in\n    tag_493:\n      mload(0x40)\n      dup1\n      swap2\n      sub\n      swap1\n      revert\n        /* \"@openzeppelin/contracts/access/Ownable.sol\":1851:1952  if (owner() != _msgSender()) {... */\n    tag_491:\n        /* \"@openzeppelin/contracts/access/Ownable.sol\":1796:1958  function _checkOwner() internal view virtual {... */\n      jump\t// out\n        /* \"@openzeppelin/contracts/security/Pausable.sol\":2433:2550  function _unpause() internal virtual whenPaused {... */\n    tag_199:\n        /* \"@openzeppelin/contracts/security/Pausable.sol\":1486:1502  _requirePaused() */\n      tag_495\n        /* \"@openzeppelin/contracts/security/Pausable.sol\":1486:1500  _requirePaused */\n      tag_496\n        /* \"@openzeppelin/contracts/security/Pausable.sol\":1486:1502  _requirePaused() */\n      jump\t// in\n    tag_495:\n        /* \"@openzeppelin/contracts/security/Pausable.sol\":2501:2506  false */\n      0x00\n        /* \"@openzeppelin/contracts/security/Pausable.sol\":2491:2498  _paused */\n      dup1\n      0x14\n        /* \"@openzeppelin/contracts/security/Pausable.sol\":2491:2506  _paused = false */\n      0x0100\n      exp\n      dup2\n      sload\n      dup2\n      0xff\n      mul\n      not\n      and\n      swap1\n      dup4\n      iszero\n      iszero\n      mul\n      or\n      swap1\n      sstore\n      pop\n        /* \"@openzeppelin/contracts/security/Pausable.sol\":2521:2543  Unpaused(_msgSender()) */\n      0x5db9ee0a495bf2e6ff9c91a7834c1ba4fdd244a5e8aa4e537bd38aeae4b073aa\n        /* \"@openzeppelin/contracts/security/Pausable.sol\":2530:2542  _msgSender() */\n      tag_498\n        /* \"@openzeppelin/contracts/security/Pausable.sol\":2530:2540  _msgSender */\n      tag_489\n        /* \"@openzeppelin/contracts/security/Pausable.sol\":2530:2542  _msgSender() */\n      jump\t// in\n    tag_498:\n        /* \"@openzeppelin/contracts/security/Pausable.sol\":2521:2543  Unpaused(_msgSender()) */\n      mload(0x40)\n      tag_499\n      swap2\n      swap1\n      tag_108\n      jump\t// in\n    tag_499:\n      mload(0x40)\n      dup1\n      swap2\n      sub\n      swap1\n      log1\n        /* \"@openzeppelin/contracts/security/Pausable.sol\":2433:2550  function _unpause() internal virtual whenPaused {... */\n      jump\t// out\n        /* \"@openzeppelin/contracts/access/Ownable.sol\":2912:3099  function _transferOwnership(address newOwner) internal virtual {... */\n    tag_298:\n        /* \"@openzeppelin/contracts/access/Ownable.sol\":2985:3001  address oldOwner */\n      0x00\n        /* \"@openzeppelin/contracts/access/Ownable.sol\":3004:3010  _owner */\n      dup1\n      0x00\n      swap1\n      sload\n      swap1\n      0x0100\n      exp\n      swap1\n      div\n      0xffffffffffffffffffffffffffffffffffffffff\n      and\n        /* \"@openzeppelin/contracts/access/Ownable.sol\":2985:3010  address oldOwner = _owner */\n      swap1\n      pop\n        /* \"@openzeppelin/contracts/access/Ownable.sol\":3029:3037  newOwner */\n      dup2\n        /* \"@openzeppelin/contracts/access/Ownable.sol\":3020:3026  _owner */\n      0x00\n      dup1\n        /* \"@openzeppelin/contracts/access/Ownable.sol\":3020:3037  _owner = newOwner */\n      0x0100\n      exp\n      dup2\n      sload\n      dup2\n      0xffffffffffffffffffffffffffffffffffffffff\n      mul\n      not\n      and\n      swap1\n      dup4\n      0xffffffffffffffffffffffffffffffffffffffff\n      and\n      mul\n      or\n      swap1\n      sstore\n      pop\n        /* \"@openzeppelin/contracts/access/Ownable.sol\":3083:3091  newOwner */\n      dup2\n        /* \"@openzeppelin/contracts/access/Ownable.sol\":3052:3092  OwnershipTransferred(oldOwner, newOwner) */\n      0xffffffffffffffffffffffffffffffffffffffff\n      and\n        /* \"@openzeppelin/contracts/access/Ownable.sol\":3073:3081  oldOwner */\n      dup2\n        /* \"@openzeppelin/contracts/access/Ownable.sol\":3052:3092  OwnershipTransferred(oldOwner, newOwner) */\n      0xffffffffffffffffffffffffffffffffffffffff\n      and\n      0x8be0079c531659141344cd1fd0a4f28419497f9722a3daafe3b4186f6b6457e0\n      mload(0x40)\n      mload(0x40)\n      dup1\n      swap2\n      sub\n      swap1\n      log3\n        /* \"@openzeppelin/contracts/access/Ownable.sol\":2975:3099  {... */\n      pop\n        /* \"@openzeppelin/contracts/access/Ownable.sol\":2912:3099  function _transferOwnership(address newOwner) internal virtual {... */\n      pop\n      jump\t// out\n        /* \"@openzeppelin/contracts/security/Pausable.sol\":2186:2301  function _pause() internal virtual whenNotPaused {... */\n    tag_309:\n        /* \"@openzeppelin/contracts/security/Pausable.sol\":1239:1258  _requireNotPaused() */\n      tag_502\n        /* \"@openzeppelin/contracts/security/Pausable.sol\":1239:1256  _requireNotPaused */\n      tag_165\n        /* \"@openzeppelin/contracts/security/Pausable.sol\":1239:1258  _requireNotPaused() */\n      jump\t// in\n    tag_502:\n        /* \"@openzeppelin/contracts/security/Pausable.sol\":2255:2259  true */\n      0x01\n        /* \"@openzeppelin/contracts/security/Pausable.sol\":2245:2252  _paused */\n      0x00\n      0x14\n        /* \"@openzeppelin/contracts/security/Pausable.sol\":2245:2259  _paused = true */\n      0x0100\n      exp\n      dup2\n      sload\n      dup2\n      0xff\n      mul\n      not\n      and\n      swap1\n      dup4\n      iszero\n      iszero\n      mul\n      or\n      swap1\n      sstore\n      pop\n        /* \"@openzeppelin/contracts/security/Pausable.sol\":2274:2294  Paused(_msgSender()) */\n      0x62e78cea01bee320cd4e420270b5ea74000d11b0c9f74754ebdbfc544b05a258\n        /* \"@openzeppelin/contracts/security/Pausable.sol\":2281:2293  _msgSender() */\n      tag_504\n        /* \"@openzeppelin/contracts/security/Pausable.sol\":2281:2291  _msgSender */\n      tag_489\n        /* \"@openzeppelin/contracts/security/Pausable.sol\":2281:2293  _msgSender() */\n      jump\t// in\n    tag_504:\n        /* \"@openzeppelin/contracts/security/Pausable.sol\":2274:2294  Paused(_msgSender()) */\n      mload(0x40)\n      tag_505\n      swap2\n      swap1\n      tag_108\n      jump\t// in\n    tag_505:\n      mload(0x40)\n      dup1\n      swap2\n      sub\n      swap1\n      log1\n        /* \"@openzeppelin/contracts/security/Pausable.sol\":2186:2301  function _pause() internal virtual whenNotPaused {... */\n      jump\t// out\n        /* \"@openzeppelin/contracts/utils/Context.sol\":656:752  function _msgSender() internal view virtual returns (address) {... */\n    tag_489:\n        /* \"@openzeppelin/contracts/utils/Context.sol\":709:716  address */\n      0x00\n        /* \"@openzeppelin/contracts/utils/Context.sol\":735:745  msg.sender */\n      caller\n        /* \"@openzeppelin/contracts/utils/Context.sol\":728:745  return msg.sender */\n      swap1\n      pop\n        /* \"@openzeppelin/contracts/utils/Context.sol\":656:752  function _msgSender() internal view virtual returns (address) {... */\n      swap1\n      jump\t// out\n        /* \"@openzeppelin/contracts/security/Pausable.sol\":1945:2051  function _requirePaused() internal view virtual {... */\n    tag_496:\n        /* \"@openzeppelin/contracts/security/Pausable.sol\":2011:2019  paused() */\n      tag_508\n        /* \"@openzeppelin/contracts/security/Pausable.sol\":2011:2017  paused */\n      tag_70\n        /* \"@openzeppelin/contracts/security/Pausable.sol\":2011:2019  paused() */\n      jump\t// in\n    tag_508:\n        /* \"@openzeppelin/contracts/security/Pausable.sol\":2003:2044  require(paused(), \"Pausable: not paused\") */\n      tag_509\n      jumpi\n      mload(0x40)\n      0x08c379a000000000000000000000000000000000000000000000000000000000\n      dup2\n      mstore\n      0x04\n      add\n      tag_510\n      swap1\n      tag_511\n      jump\t// in\n    tag_510:\n      mload(0x40)\n      dup1\n      swap2\n      sub\n      swap1\n      revert\n    tag_509:\n        /* \"@openzeppelin/contracts/security/Pausable.sol\":1945:2051  function _requirePaused() internal view virtual {... */\n      jump\t// out\n        /* \"#utility.yul\":7:82   */\n    tag_512:\n        /* \"#utility.yul\":40:46   */\n      0x00\n        /* \"#utility.yul\":73:75   */\n      0x40\n        /* \"#utility.yul\":67:76   */\n      mload\n        /* \"#utility.yul\":57:76   */\n      swap1\n      pop\n        /* \"#utility.yul\":7:82   */\n      swap1\n      jump\t// out\n        /* \"#utility.yul\":88:205   */\n    tag_513:\n        /* \"#utility.yul\":197:198   */\n      0x00\n        /* \"#utility.yul\":194:195   */\n      dup1\n        /* \"#utility.yul\":187:199   */\n      revert\n        /* \"#utility.yul\":211:328   */\n    tag_514:\n        /* \"#utility.yul\":320:321   */\n      0x00\n        /* \"#utility.yul\":317:318   */\n      dup1\n        /* \"#utility.yul\":310:322   */\n      revert\n        /* \"#utility.yul\":334:411   */\n    tag_515:\n        /* \"#utility.yul\":371:378   */\n      0x00\n        /* \"#utility.yul\":400:405   */\n      dup2\n        /* \"#utility.yul\":389:405   */\n      swap1\n      pop\n        /* \"#utility.yul\":334:411   */\n      swap2\n      swap1\n      pop\n      jump\t// out\n        /* \"#utility.yul\":417:539   */\n    tag_516:\n        /* \"#utility.yul\":490:514   */\n      tag_635\n        /* \"#utility.yul\":508:513   */\n      dup2\n        /* \"#utility.yul\":490:514   */\n      tag_515\n      jump\t// in\n    tag_635:\n        /* \"#utility.yul\":483:488   */\n      dup2\n        /* \"#utility.yul\":480:515   */\n      eq\n        /* \"#utility.yul\":470:533   */\n      tag_636\n      jumpi\n        /* \"#utility.yul\":529:530   */\n      0x00\n        /* \"#utility.yul\":526:527   */\n      dup1\n        /* \"#utility.yul\":519:531   */\n      revert\n        /* \"#utility.yul\":470:533   */\n    tag_636:\n        /* \"#utility.yul\":417:539   */\n      pop\n      jump\t// out\n        /* \"#utility.yul\":545:684   */\n    tag_517:\n        /* \"#utility.yul\":591:596   */\n      0x00\n        /* \"#utility.yul\":629:635   */\n      dup2\n        /* \"#utility.yul\":616:636   */\n      calldataload\n        /* \"#utility.yul\":607:636   */\n      swap1\n      pop\n        /* \"#utility.yul\":645:678   */\n      tag_638\n        /* \"#utility.yul\":672:677   */\n      dup2\n        /* \"#utility.yul\":645:678   */\n      tag_516\n      jump\t// in\n    tag_638:\n        /* \"#utility.yul\":545:684   */\n      swap3\n      swap2\n      pop\n      pop\n      jump\t// out\n        /* \"#utility.yul\":690:1164   */\n    tag_43:\n        /* \"#utility.yul\":758:764   */\n      0x00\n        /* \"#utility.yul\":766:772   */\n      dup1\n        /* \"#utility.yul\":815:817   */\n      0x40\n        /* \"#utility.yul\":803:812   */\n      dup4\n        /* \"#utility.yul\":794:801   */\n      dup6\n        /* \"#utility.yul\":790:813   */\n      sub\n        /* \"#utility.yul\":786:818   */\n      slt\n        /* \"#utility.yul\":783:902   */\n      iszero\n      tag_640\n      jumpi\n        /* \"#utility.yul\":821:900   */\n      tag_641\n      tag_513\n      jump\t// in\n    tag_641:\n        /* \"#utility.yul\":783:902   */\n    tag_640:\n        /* \"#utility.yul\":941:942   */\n      0x00\n        /* \"#utility.yul\":966:1019   */\n      tag_642\n        /* \"#utility.yul\":1011:1018   */\n      dup6\n        /* \"#utility.yul\":1002:1008   */\n      dup3\n        /* \"#utility.yul\":991:1000   */\n      dup7\n        /* \"#utility.yul\":987:1009   */\n      add\n        /* \"#utility.yul\":966:1019   */\n      tag_517\n      jump\t// in\n    tag_642:\n        /* \"#utility.yul\":956:1019   */\n      swap3\n      pop\n        /* \"#utility.yul\":912:1029   */\n      pop\n        /* \"#utility.yul\":1068:1070   */\n      0x20\n        /* \"#utility.yul\":1094:1147   */\n      tag_643\n        /* \"#utility.yul\":1139:1146   */\n      dup6\n        /* \"#utility.yul\":1130:1136   */\n      dup3\n        /* \"#utility.yul\":1119:1128   */\n      dup7\n        /* \"#utility.yul\":1115:1137   */\n      add\n        /* \"#utility.yul\":1094:1147   */\n      tag_517\n      jump\t// in\n    tag_643:\n        /* \"#utility.yul\":1084:1147   */\n      swap2\n      pop\n        /* \"#utility.yul\":1039:1157   */\n      pop\n        /* \"#utility.yul\":690:1164   */\n      swap3\n      pop\n      swap3\n      swap1\n      pop\n      jump\t// out\n        /* \"#utility.yul\":1170:1296   */\n    tag_518:\n        /* \"#utility.yul\":1207:1214   */\n      0x00\n        /* \"#utility.yul\":1247:1289   */\n      0xffffffffffffffffffffffffffffffffffffffff\n        /* \"#utility.yul\":1240:1245   */\n      dup3\n        /* \"#utility.yul\":1236:1290   */\n      and\n        /* \"#utility.yul\":1225:1290   */\n      swap1\n      pop\n        /* \"#utility.yul\":1170:1296   */\n      swap2\n      swap1\n      pop\n      jump\t// out\n        /* \"#utility.yul\":1302:1398   */\n    tag_519:\n        /* \"#utility.yul\":1339:1346   */\n      0x00\n        /* \"#utility.yul\":1368:1392   */\n      tag_646\n        /* \"#utility.yul\":1386:1391   */\n      dup3\n        /* \"#utility.yul\":1368:1392   */\n      tag_518\n      jump\t// in\n    tag_646:\n        /* \"#utility.yul\":1357:1392   */\n      swap1\n      pop\n        /* \"#utility.yul\":1302:1398   */\n      swap2\n      swap1\n      pop\n      jump\t// out\n        /* \"#utility.yul\":1404:1526   */\n    tag_520:\n        /* \"#utility.yul\":1477:1501   */\n      tag_648\n        /* \"#utility.yul\":1495:1500   */\n      dup2\n        /* \"#utility.yul\":1477:1501   */\n      tag_519\n      jump\t// in\n    tag_648:\n        /* \"#utility.yul\":1470:1475   */\n      dup2\n        /* \"#utility.yul\":1467:1502   */\n      eq\n        /* \"#utility.yul\":1457:1520   */\n      tag_649\n      jumpi\n        /* \"#utility.yul\":1516:1517   */\n      0x00\n        /* \"#utility.yul\":1513:1514   */\n      dup1\n        /* \"#utility.yul\":1506:1518   */\n      revert\n        /* \"#utility.yul\":1457:1520   */\n    tag_649:\n        /* \"#utility.yul\":1404:1526   */\n      pop\n      jump\t// out\n        /* \"#utility.yul\":1532:1671   */\n    tag_521:\n        /* \"#utility.yul\":1578:1583   */\n      0x00\n        /* \"#utility.yul\":1616:1622   */\n      dup2\n        /* \"#utility.yul\":1603:1623   */\n      calldataload\n        /* \"#utility.yul\":1594:1623   */\n      swap1\n      pop\n        /* \"#utility.yul\":1632:1665   */\n      tag_651\n        /* \"#utility.yul\":1659:1664   */\n      dup2\n        /* \"#utility.yul\":1632:1665   */\n      tag_520\n      jump\t// in\n    tag_651:\n        /* \"#utility.yul\":1532:1671   */\n      swap3\n      swap2\n      pop\n      pop\n      jump\t// out\n        /* \"#utility.yul\":1677:2151   */\n    tag_48:\n        /* \"#utility.yul\":1745:1751   */\n      0x00\n        /* \"#utility.yul\":1753:1759   */\n      dup1\n        /* \"#utility.yul\":1802:1804   */\n      0x40\n        /* \"#utility.yul\":1790:1799   */\n      dup4\n        /* \"#utility.yul\":1781:1788   */\n      dup6\n        /* \"#utility.yul\":1777:1800   */\n      sub\n        /* \"#utility.yul\":1773:1805   */\n      slt\n        /* \"#utility.yul\":1770:1889   */\n      iszero\n      tag_653\n      jumpi\n        /* \"#utility.yul\":1808:1887   */\n      tag_654\n      tag_513\n      jump\t// in\n    tag_654:\n        /* \"#utility.yul\":1770:1889   */\n    tag_653:\n        /* \"#utility.yul\":1928:1929   */\n      0x00\n        /* \"#utility.yul\":1953:2006   */\n      tag_655\n        /* \"#utility.yul\":1998:2005   */\n      dup6\n        /* \"#utility.yul\":1989:1995   */\n      dup3\n        /* \"#utility.yul\":1978:1987   */\n      dup7\n        /* \"#utility.yul\":1974:1996   */\n      add\n        /* \"#utility.yul\":1953:2006   */\n      tag_521\n      jump\t// in\n    tag_655:\n        /* \"#utility.yul\":1943:2006   */\n      swap3\n      pop\n        /* \"#utility.yul\":1899:2016   */\n      pop\n        /* \"#utility.yul\":2055:2057   */\n      0x20\n        /* \"#utility.yul\":2081:2134   */\n      tag_656\n        /* \"#utility.yul\":2126:2133   */\n      dup6\n        /* \"#utility.yul\":2117:2123   */\n      dup3\n        /* \"#utility.yul\":2106:2115   */\n      dup7\n        /* \"#utility.yul\":2102:2124   */\n      add\n        /* \"#utility.yul\":2081:2134   */\n      tag_517\n      jump\t// in\n    tag_656:\n        /* \"#utility.yul\":2071:2134   */\n      swap2\n      pop\n        /* \"#utility.yul\":2026:2144   */\n      pop\n        /* \"#utility.yul\":1677:2151   */\n      swap3\n      pop\n      swap3\n      swap1\n      pop\n      jump\t// out\n        /* \"#utility.yul\":2157:2247   */\n    tag_522:\n        /* \"#utility.yul\":2191:2198   */\n      0x00\n        /* \"#utility.yul\":2234:2239   */\n      dup2\n        /* \"#utility.yul\":2227:2240   */\n      iszero\n        /* \"#utility.yul\":2220:2241   */\n      iszero\n        /* \"#utility.yul\":2209:2241   */\n      swap1\n      pop\n        /* \"#utility.yul\":2157:2247   */\n      swap2\n      swap1\n      pop\n      jump\t// out\n        /* \"#utility.yul\":2253:2362   */\n    tag_523:\n        /* \"#utility.yul\":2334:2355   */\n      tag_659\n        /* \"#utility.yul\":2349:2354   */\n      dup2\n        /* \"#utility.yul\":2334:2355   */\n      tag_522\n      jump\t// in\n    tag_659:\n        /* \"#utility.yul\":2329:2332   */\n      dup3\n        /* \"#utility.yul\":2322:2356   */\n      mstore\n        /* \"#utility.yul\":2253:2362   */\n      pop\n      pop\n      jump\t// out\n        /* \"#utility.yul\":2368:2454   */\n    tag_524:\n        /* \"#utility.yul\":2403:2410   */\n      0x00\n        /* \"#utility.yul\":2443:2447   */\n      0xff\n        /* \"#utility.yul\":2436:2441   */\n      dup3\n        /* \"#utility.yul\":2432:2448   */\n      and\n        /* \"#utility.yul\":2421:2448   */\n      swap1\n      pop\n        /* \"#utility.yul\":2368:2454   */\n      swap2\n      swap1\n      pop\n      jump\t// out\n        /* \"#utility.yul\":2460:2572   */\n    tag_525:\n        /* \"#utility.yul\":2543:2565   */\n      tag_662\n        /* \"#utility.yul\":2559:2564   */\n      dup2\n        /* \"#utility.yul\":2543:2565   */\n      tag_524\n      jump\t// in\n    tag_662:\n        /* \"#utility.yul\":2538:2541   */\n      dup3\n        /* \"#utility.yul\":2531:2566   */\n      mstore\n        /* \"#utility.yul\":2460:2572   */\n      pop\n      pop\n      jump\t// out\n        /* \"#utility.yul\":2578:3087   */\n    tag_51:\n        /* \"#utility.yul\":2733:2737   */\n      0x00\n        /* \"#utility.yul\":2771:2774   */\n      0x80\n        /* \"#utility.yul\":2760:2769   */\n      dup3\n        /* \"#utility.yul\":2756:2775   */\n      add\n        /* \"#utility.yul\":2748:2775   */\n      swap1\n      pop\n        /* \"#utility.yul\":2785:2850   */\n      tag_664\n        /* \"#utility.yul\":2847:2848   */\n      0x00\n        /* \"#utility.yul\":2836:2845   */\n      dup4\n        /* \"#utility.yul\":2832:2849   */\n      add\n        /* \"#utility.yul\":2823:2829   */\n      dup8\n        /* \"#utility.yul\":2785:2850   */\n      tag_523\n      jump\t// in\n    tag_664:\n        /* \"#utility.yul\":2860:2928   */\n      tag_665\n        /* \"#utility.yul\":2924:2926   */\n      0x20\n        /* \"#utility.yul\":2913:2922   */\n      dup4\n        /* \"#utility.yul\":2909:2927   */\n      add\n        /* \"#utility.yul\":2900:2906   */\n      dup7\n        /* \"#utility.yul\":2860:2928   */\n      tag_525\n      jump\t// in\n    tag_665:\n        /* \"#utility.yul\":2938:3004   */\n      tag_666\n        /* \"#utility.yul\":3000:3002   */\n      0x40\n        /* \"#utility.yul\":2989:2998   */\n      dup4\n        /* \"#utility.yul\":2985:3003   */\n      add\n        /* \"#utility.yul\":2976:2982   */\n      dup6\n        /* \"#utility.yul\":2938:3004   */\n      tag_523\n      jump\t// in\n    tag_666:\n        /* \"#utility.yul\":3014:3080   */\n      tag_667\n        /* \"#utility.yul\":3076:3078   */\n      0x60\n        /* \"#utility.yul\":3065:3074   */\n      dup4\n        /* \"#utility.yul\":3061:3079   */\n      add\n        /* \"#utility.yul\":3052:3058   */\n      dup5\n        /* \"#utility.yul\":3014:3080   */\n      tag_523\n      jump\t// in\n    tag_667:\n        /* \"#utility.yul\":2578:3087   */\n      swap6\n      swap5\n      pop\n      pop\n      pop\n      pop\n      pop\n      jump\t// out\n        /* \"#utility.yul\":3093:3211   */\n    tag_526:\n        /* \"#utility.yul\":3180:3204   */\n      tag_669\n        /* \"#utility.yul\":3198:3203   */\n      dup2\n        /* \"#utility.yul\":3180:3204   */\n      tag_515\n      jump\t// in\n    tag_669:\n        /* \"#utility.yul\":3175:3178   */\n      dup3\n        /* \"#utility.yul\":3168:3205   */\n      mstore\n        /* \"#utility.yul\":3093:3211   */\n      pop\n      pop\n      jump\t// out\n        /* \"#utility.yul\":3217:3439   */\n    tag_56:\n        /* \"#utility.yul\":3310:3314   */\n      0x00\n        /* \"#utility.yul\":3348:3350   */\n      0x20\n        /* \"#utility.yul\":3337:3346   */\n      dup3\n        /* \"#utility.yul\":3333:3351   */\n      add\n        /* \"#utility.yul\":3325:3351   */\n      swap1\n      pop\n        /* \"#utility.yul\":3361:3432   */\n      tag_671\n        /* \"#utility.yul\":3429:3430   */\n      0x00\n        /* \"#utility.yul\":3418:3427   */\n      dup4\n        /* \"#utility.yul\":3414:3431   */\n      add\n        /* \"#utility.yul\":3405:3411   */\n      dup5\n        /* \"#utility.yul\":3361:3432   */\n      tag_526\n      jump\t// in\n    tag_671:\n        /* \"#utility.yul\":3217:3439   */\n      swap3\n      swap2\n      pop\n      pop\n      jump\t// out\n        /* \"#utility.yul\":3445:3655   */\n    tag_72:\n        /* \"#utility.yul\":3532:3536   */\n      0x00\n        /* \"#utility.yul\":3570:3572   */\n      0x20\n        /* \"#utility.yul\":3559:3568   */\n      dup3\n        /* \"#utility.yul\":3555:3573   */\n      add\n        /* \"#utility.yul\":3547:3573   */\n      swap1\n      pop\n        /* \"#utility.yul\":3583:3648   */\n      tag_673\n        /* \"#utility.yul\":3645:3646   */\n      0x00\n        /* \"#utility.yul\":3634:3643   */\n      dup4\n        /* \"#utility.yul\":3630:3647   */\n      add\n        /* \"#utility.yul\":3621:3627   */\n      dup5\n        /* \"#utility.yul\":3583:3648   */\n      tag_523\n      jump\t// in\n    tag_673:\n        /* \"#utility.yul\":3445:3655   */\n      swap3\n      swap2\n      pop\n      pop\n      jump\t// out\n        /* \"#utility.yul\":3661:3778   */\n    tag_527:\n        /* \"#utility.yul\":3770:3771   */\n      0x00\n        /* \"#utility.yul\":3767:3768   */\n      dup1\n        /* \"#utility.yul\":3760:3772   */\n      revert\n        /* \"#utility.yul\":3784:3886   */\n    tag_528:\n        /* \"#utility.yul\":3825:3831   */\n      0x00\n        /* \"#utility.yul\":3876:3878   */\n      0x1f\n        /* \"#utility.yul\":3872:3879   */\n      not\n        /* \"#utility.yul\":3867:3869   */\n      0x1f\n        /* \"#utility.yul\":3860:3865   */\n      dup4\n        /* \"#utility.yul\":3856:3870   */\n      add\n        /* \"#utility.yul\":3852:3880   */\n      and\n        /* \"#utility.yul\":3842:3880   */\n      swap1\n      pop\n        /* \"#utility.yul\":3784:3886   */\n      swap2\n      swap1\n      pop\n      jump\t// out\n        /* \"#utility.yul\":3892:4072   */\n    tag_529:\n        /* \"#utility.yul\":3940:4017   */\n      0x4e487b7100000000000000000000000000000000000000000000000000000000\n        /* \"#utility.yul\":3937:3938   */\n      0x00\n        /* \"#utility.yul\":3930:4018   */\n      mstore\n        /* \"#utility.yul\":4037:4041   */\n      0x41\n        /* \"#utility.yul\":4034:4035   */\n      0x04\n        /* \"#utility.yul\":4027:4042   */\n      mstore\n        /* \"#utility.yul\":4061:4065   */\n      0x24\n        /* \"#utility.yul\":4058:4059   */\n      0x00\n        /* \"#utility.yul\":4051:4066   */\n      revert\n        /* \"#utility.yul\":4078:4359   */\n    tag_530:\n        /* \"#utility.yul\":4161:4188   */\n      tag_678\n        /* \"#utility.yul\":4183:4187   */\n      dup3\n        /* \"#utility.yul\":4161:4188   */\n      tag_528\n      jump\t// in\n    tag_678:\n        /* \"#utility.yul\":4153:4159   */\n      dup2\n        /* \"#utility.yul\":4149:4189   */\n      add\n        /* \"#utility.yul\":4291:4297   */\n      dup2\n        /* \"#utility.yul\":4279:4289   */\n      dup2\n        /* \"#utility.yul\":4276:4298   */\n      lt\n        /* \"#utility.yul\":4255:4273   */\n      0xffffffffffffffff\n        /* \"#utility.yul\":4243:4253   */\n      dup3\n        /* \"#utility.yul\":4240:4274   */\n      gt\n        /* \"#utility.yul\":4237:4299   */\n      or\n        /* \"#utility.yul\":4234:4322   */\n      iszero\n      tag_679\n      jumpi\n        /* \"#utility.yul\":4302:4320   */\n      tag_680\n      tag_529\n      jump\t// in\n    tag_680:\n        /* \"#utility.yul\":4234:4322   */\n    tag_679:\n        /* \"#utility.yul\":4342:4352   */\n      dup1\n        /* \"#utility.yul\":4338:4340   */\n      0x40\n        /* \"#utility.yul\":4331:4353   */\n      mstore\n        /* \"#utility.yul\":4121:4359   */\n      pop\n        /* \"#utility.yul\":4078:4359   */\n      pop\n      pop\n      jump\t// out\n        /* \"#utility.yul\":4365:4494   */\n    tag_531:\n        /* \"#utility.yul\":4399:4405   */\n      0x00\n        /* \"#utility.yul\":4426:4446   */\n      tag_682\n      tag_512\n      jump\t// in\n    tag_682:\n        /* \"#utility.yul\":4416:4446   */\n      swap1\n      pop\n        /* \"#utility.yul\":4455:4488   */\n      tag_683\n        /* \"#utility.yul\":4483:4487   */\n      dup3\n        /* \"#utility.yul\":4475:4481   */\n      dup3\n        /* \"#utility.yul\":4455:4488   */\n      tag_530\n      jump\t// in\n    tag_683:\n        /* \"#utility.yul\":4365:4494   */\n      swap2\n      swap1\n      pop\n      jump\t// out\n        /* \"#utility.yul\":4500:4821   */\n    tag_532:\n        /* \"#utility.yul\":4587:4591   */\n      0x00\n        /* \"#utility.yul\":4677:4695   */\n      0xffffffffffffffff\n        /* \"#utility.yul\":4669:4675   */\n      dup3\n        /* \"#utility.yul\":4666:4696   */\n      gt\n        /* \"#utility.yul\":4663:4719   */\n      iszero\n      tag_685\n      jumpi\n        /* \"#utility.yul\":4699:4717   */\n      tag_686\n      tag_529\n      jump\t// in\n    tag_686:\n        /* \"#utility.yul\":4663:4719   */\n    tag_685:\n        /* \"#utility.yul\":4749:4753   */\n      0x20\n        /* \"#utility.yul\":4741:4747   */\n      dup3\n        /* \"#utility.yul\":4737:4754   */\n      mul\n        /* \"#utility.yul\":4729:4754   */\n      swap1\n      pop\n        /* \"#utility.yul\":4809:4813   */\n      0x20\n        /* \"#utility.yul\":4803:4807   */\n      dup2\n        /* \"#utility.yul\":4799:4814   */\n      add\n        /* \"#utility.yul\":4791:4814   */\n      swap1\n      pop\n        /* \"#utility.yul\":4500:4821   */\n      swap2\n      swap1\n      pop\n      jump\t// out\n        /* \"#utility.yul\":4827:4944   */\n    tag_533:\n        /* \"#utility.yul\":4936:4937   */\n      0x00\n        /* \"#utility.yul\":4933:4934   */\n      dup1\n        /* \"#utility.yul\":4926:4938   */\n      revert\n        /* \"#utility.yul\":4950:5067   */\n    tag_534:\n        /* \"#utility.yul\":5059:5060   */\n      0x00\n        /* \"#utility.yul\":5056:5057   */\n      dup1\n        /* \"#utility.yul\":5049:5061   */\n      revert\n        /* \"#utility.yul\":5073:5381   */\n    tag_535:\n        /* \"#utility.yul\":5135:5139   */\n      0x00\n        /* \"#utility.yul\":5225:5243   */\n      0xffffffffffffffff\n        /* \"#utility.yul\":5217:5223   */\n      dup3\n        /* \"#utility.yul\":5214:5244   */\n      gt\n        /* \"#utility.yul\":5211:5267   */\n      iszero\n      tag_690\n      jumpi\n        /* \"#utility.yul\":5247:5265   */\n      tag_691\n      tag_529\n      jump\t// in\n    tag_691:\n        /* \"#utility.yul\":5211:5267   */\n    tag_690:\n        /* \"#utility.yul\":5285:5314   */\n      tag_692\n        /* \"#utility.yul\":5307:5313   */\n      dup3\n        /* \"#utility.yul\":5285:5314   */\n      tag_528\n      jump\t// in\n    tag_692:\n        /* \"#utility.yul\":5277:5314   */\n      swap1\n      pop\n        /* \"#utility.yul\":5369:5373   */\n      0x20\n        /* \"#utility.yul\":5363:5367   */\n      dup2\n        /* \"#utility.yul\":5359:5374   */\n      add\n        /* \"#utility.yul\":5351:5374   */\n      swap1\n      pop\n        /* \"#utility.yul\":5073:5381   */\n      swap2\n      swap1\n      pop\n      jump\t// out\n        /* \"#utility.yul\":5387:5535   */\n    tag_536:\n        /* \"#utility.yul\":5485:5491   */\n      dup3\n        /* \"#utility.yul\":5480:5483   */\n      dup2\n        /* \"#utility.yul\":5475:5478   */\n      dup4\n        /* \"#utility.yul\":5462:5492   */\n      calldatacopy\n        /* \"#utility.yul\":5526:5527   */\n      0x00\n        /* \"#utility.yul\":5517:5523   */\n      dup4\n        /* \"#utility.yul\":5512:5515   */\n      dup4\n        /* \"#utility.yul\":5508:5524   */\n      add\n        /* \"#utility.yul\":5501:5528   */\n      mstore\n        /* \"#utility.yul\":5387:5535   */\n      pop\n      pop\n      pop\n      jump\t// out\n        /* \"#utility.yul\":5541:5966   */\n    tag_537:\n        /* \"#utility.yul\":5619:5624   */\n      0x00\n        /* \"#utility.yul\":5644:5710   */\n      tag_695\n        /* \"#utility.yul\":5660:5709   */\n      tag_696\n        /* \"#utility.yul\":5702:5708   */\n      dup5\n        /* \"#utility.yul\":5660:5709   */\n      tag_535\n      jump\t// in\n    tag_696:\n        /* \"#utility.yul\":5644:5710   */\n      tag_531\n      jump\t// in\n    tag_695:\n        /* \"#utility.yul\":5635:5710   */\n      swap1\n      pop\n        /* \"#utility.yul\":5733:5739   */\n      dup3\n        /* \"#utility.yul\":5726:5731   */\n      dup2\n        /* \"#utility.yul\":5719:5740   */\n      mstore\n        /* \"#utility.yul\":5771:5775   */\n      0x20\n        /* \"#utility.yul\":5764:5769   */\n      dup2\n        /* \"#utility.yul\":5760:5776   */\n      add\n        /* \"#utility.yul\":5809:5812   */\n      dup5\n        /* \"#utility.yul\":5800:5806   */\n      dup5\n        /* \"#utility.yul\":5795:5798   */\n      dup5\n        /* \"#utility.yul\":5791:5807   */\n      add\n        /* \"#utility.yul\":5788:5813   */\n      gt\n        /* \"#utility.yul\":5785:5897   */\n      iszero\n      tag_697\n      jumpi\n        /* \"#utility.yul\":5816:5895   */\n      tag_698\n      tag_534\n      jump\t// in\n    tag_698:\n        /* \"#utility.yul\":5785:5897   */\n    tag_697:\n        /* \"#utility.yul\":5906:5960   */\n      tag_699\n        /* \"#utility.yul\":5953:5959   */\n      dup5\n        /* \"#utility.yul\":5948:5951   */\n      dup3\n        /* \"#utility.yul\":5943:5946   */\n      dup6\n        /* \"#utility.yul\":5906:5960   */\n      tag_536\n      jump\t// in\n    tag_699:\n        /* \"#utility.yul\":5625:5966   */\n      pop\n        /* \"#utility.yul\":5541:5966   */\n      swap4\n      swap3\n      pop\n      pop\n      pop\n      jump\t// out\n        /* \"#utility.yul\":5986:6326   */\n    tag_538:\n        /* \"#utility.yul\":6042:6047   */\n      0x00\n        /* \"#utility.yul\":6091:6094   */\n      dup3\n        /* \"#utility.yul\":6084:6088   */\n      0x1f\n        /* \"#utility.yul\":6076:6082   */\n      dup4\n        /* \"#utility.yul\":6072:6089   */\n      add\n        /* \"#utility.yul\":6068:6095   */\n      slt\n        /* \"#utility.yul\":6058:6180   */\n      tag_701\n      jumpi\n        /* \"#utility.yul\":6099:6178   */\n      tag_702\n      tag_527\n      jump\t// in\n    tag_702:\n        /* \"#utility.yul\":6058:6180   */\n    tag_701:\n        /* \"#utility.yul\":6216:6222   */\n      dup2\n        /* \"#utility.yul\":6203:6223   */\n      calldataload\n        /* \"#utility.yul\":6241:6320   */\n      tag_703\n        /* \"#utility.yul\":6316:6319   */\n      dup5\n        /* \"#utility.yul\":6308:6314   */\n      dup3\n        /* \"#utility.yul\":6301:6305   */\n      0x20\n        /* \"#utility.yul\":6293:6299   */\n      dup7\n        /* \"#utility.yul\":6289:6306   */\n      add\n        /* \"#utility.yul\":6241:6320   */\n      tag_537\n      jump\t// in\n    tag_703:\n        /* \"#utility.yul\":6232:6320   */\n      swap2\n      pop\n        /* \"#utility.yul\":6048:6326   */\n      pop\n        /* \"#utility.yul\":5986:6326   */\n      swap3\n      swap2\n      pop\n      pop\n      jump\t// out\n        /* \"#utility.yul\":6348:7293   */\n    tag_539:\n        /* \"#utility.yul\":6454:6459   */\n      0x00\n        /* \"#utility.yul\":6479:6570   */\n      tag_705\n        /* \"#utility.yul\":6495:6569   */\n      tag_706\n        /* \"#utility.yul\":6562:6568   */\n      dup5\n        /* \"#utility.yul\":6495:6569   */\n      tag_532\n      jump\t// in\n    tag_706:\n        /* \"#utility.yul\":6479:6570   */\n      tag_531\n      jump\t// in\n    tag_705:\n        /* \"#utility.yul\":6470:6570   */\n      swap1\n      pop\n        /* \"#utility.yul\":6590:6595   */\n      dup1\n        /* \"#utility.yul\":6619:6625   */\n      dup4\n        /* \"#utility.yul\":6612:6617   */\n      dup3\n        /* \"#utility.yul\":6605:6626   */\n      mstore\n        /* \"#utility.yul\":6653:6657   */\n      0x20\n        /* \"#utility.yul\":6646:6651   */\n      dup3\n        /* \"#utility.yul\":6642:6658   */\n      add\n        /* \"#utility.yul\":6635:6658   */\n      swap1\n      pop\n        /* \"#utility.yul\":6706:6710   */\n      0x20\n        /* \"#utility.yul\":6698:6704   */\n      dup5\n        /* \"#utility.yul\":6694:6711   */\n      mul\n        /* \"#utility.yul\":6686:6692   */\n      dup4\n        /* \"#utility.yul\":6682:6712   */\n      add\n        /* \"#utility.yul\":6735:6738   */\n      dup6\n        /* \"#utility.yul\":6727:6733   */\n      dup2\n        /* \"#utility.yul\":6724:6739   */\n      gt\n        /* \"#utility.yul\":6721:6843   */\n      iszero\n      tag_707\n      jumpi\n        /* \"#utility.yul\":6754:6833   */\n      tag_708\n      tag_533\n      jump\t// in\n    tag_708:\n        /* \"#utility.yul\":6721:6843   */\n    tag_707:\n        /* \"#utility.yul\":6869:6875   */\n      dup4\n        /* \"#utility.yul\":6852:7287   */\n    tag_709:\n        /* \"#utility.yul\":6886:6892   */\n      dup2\n        /* \"#utility.yul\":6881:6884   */\n      dup2\n        /* \"#utility.yul\":6878:6893   */\n      lt\n        /* \"#utility.yul\":6852:7287   */\n      iszero\n      tag_711\n      jumpi\n        /* \"#utility.yul\":6975:6978   */\n      dup1\n        /* \"#utility.yul\":6962:6979   */\n      calldataload\n        /* \"#utility.yul\":7011:7029   */\n      0xffffffffffffffff\n        /* \"#utility.yul\":6998:7009   */\n      dup2\n        /* \"#utility.yul\":6995:7030   */\n      gt\n        /* \"#utility.yul\":6992:7114   */\n      iszero\n      tag_712\n      jumpi\n        /* \"#utility.yul\":7033:7112   */\n      tag_713\n      tag_527\n      jump\t// in\n    tag_713:\n        /* \"#utility.yul\":6992:7114   */\n    tag_712:\n        /* \"#utility.yul\":7157:7168   */\n      dup1\n        /* \"#utility.yul\":7149:7155   */\n      dup7\n        /* \"#utility.yul\":7145:7169   */\n      add\n        /* \"#utility.yul\":7195:7242   */\n      tag_714\n        /* \"#utility.yul\":7238:7241   */\n      dup10\n        /* \"#utility.yul\":7226:7236   */\n      dup3\n        /* \"#utility.yul\":7195:7242   */\n      tag_538\n      jump\t// in\n    tag_714:\n        /* \"#utility.yul\":7190:7193   */\n      dup6\n        /* \"#utility.yul\":7183:7243   */\n      mstore\n        /* \"#utility.yul\":7272:7276   */\n      0x20\n        /* \"#utility.yul\":7267:7270   */\n      dup6\n        /* \"#utility.yul\":7263:7277   */\n      add\n        /* \"#utility.yul\":7256:7277   */\n      swap5\n      pop\n        /* \"#utility.yul\":6928:7287   */\n      pop\n      pop\n        /* \"#utility.yul\":6912:6916   */\n      0x20\n        /* \"#utility.yul\":6907:6910   */\n      dup2\n        /* \"#utility.yul\":6903:6917   */\n      add\n        /* \"#utility.yul\":6896:6917   */\n      swap1\n      pop\n        /* \"#utility.yul\":6852:7287   */\n      jump(tag_709)\n    tag_711:\n        /* \"#utility.yul\":6856:6877   */\n      pop\n        /* \"#utility.yul\":6460:7293   */\n      pop\n      pop\n        /* \"#utility.yul\":6348:7293   */\n      swap4\n      swap3\n      pop\n      pop\n      pop\n      jump\t// out\n        /* \"#utility.yul\":7315:7705   */\n    tag_540:\n        /* \"#utility.yul\":7396:7401   */\n      0x00\n        /* \"#utility.yul\":7445:7448   */\n      dup3\n        /* \"#utility.yul\":7438:7442   */\n      0x1f\n        /* \"#utility.yul\":7430:7436   */\n      dup4\n        /* \"#utility.yul\":7426:7443   */\n      add\n        /* \"#utility.yul\":7422:7449   */\n      slt\n        /* \"#utility.yul\":7412:7534   */\n      tag_716\n      jumpi\n        /* \"#utility.yul\":7453:7532   */\n      tag_717\n      tag_527\n      jump\t// in\n    tag_717:\n        /* \"#utility.yul\":7412:7534   */\n    tag_716:\n        /* \"#utility.yul\":7570:7576   */\n      dup2\n        /* \"#utility.yul\":7557:7577   */\n      calldataload\n        /* \"#utility.yul\":7595:7699   */\n      tag_718\n        /* \"#utility.yul\":7695:7698   */\n      dup5\n        /* \"#utility.yul\":7687:7693   */\n      dup3\n        /* \"#utility.yul\":7680:7684   */\n      0x20\n        /* \"#utility.yul\":7672:7678   */\n      dup7\n        /* \"#utility.yul\":7668:7685   */\n      add\n        /* \"#utility.yul\":7595:7699   */\n      tag_539\n      jump\t// in\n    tag_718:\n        /* \"#utility.yul\":7586:7699   */\n      swap2\n      pop\n        /* \"#utility.yul\":7402:7705   */\n      pop\n        /* \"#utility.yul\":7315:7705   */\n      swap3\n      swap2\n      pop\n      pop\n      jump\t// out\n        /* \"#utility.yul\":7711:8415   */\n    tag_75:\n        /* \"#utility.yul\":7814:7820   */\n      0x00\n        /* \"#utility.yul\":7822:7828   */\n      dup1\n        /* \"#utility.yul\":7871:7873   */\n      0x40\n        /* \"#utility.yul\":7859:7868   */\n      dup4\n        /* \"#utility.yul\":7850:7857   */\n      dup6\n        /* \"#utility.yul\":7846:7869   */\n      sub\n        /* \"#utility.yul\":7842:7874   */\n      slt\n        /* \"#utility.yul\":7839:7958   */\n      iszero\n      tag_720\n      jumpi\n        /* \"#utility.yul\":7877:7956   */\n      tag_721\n      tag_513\n      jump\t// in\n    tag_721:\n        /* \"#utility.yul\":7839:7958   */\n    tag_720:\n        /* \"#utility.yul\":7997:7998   */\n      0x00\n        /* \"#utility.yul\":8022:8075   */\n      tag_722\n        /* \"#utility.yul\":8067:8074   */\n      dup6\n        /* \"#utility.yul\":8058:8064   */\n      dup3\n        /* \"#utility.yul\":8047:8056   */\n      dup7\n        /* \"#utility.yul\":8043:8065   */\n      add\n        /* \"#utility.yul\":8022:8075   */\n      tag_517\n      jump\t// in\n    tag_722:\n        /* \"#utility.yul\":8012:8075   */\n      swap3\n      pop\n        /* \"#utility.yul\":7968:8085   */\n      pop\n        /* \"#utility.yul\":8152:8154   */\n      0x20\n        /* \"#utility.yul\":8141:8150   */\n      dup4\n        /* \"#utility.yul\":8137:8155   */\n      add\n        /* \"#utility.yul\":8124:8156   */\n      calldataload\n        /* \"#utility.yul\":8183:8201   */\n      0xffffffffffffffff\n        /* \"#utility.yul\":8175:8181   */\n      dup2\n        /* \"#utility.yul\":8172:8202   */\n      gt\n        /* \"#utility.yul\":8169:8286   */\n      iszero\n      tag_723\n      jumpi\n        /* \"#utility.yul\":8205:8284   */\n      tag_724\n      tag_514\n      jump\t// in\n    tag_724:\n        /* \"#utility.yul\":8169:8286   */\n    tag_723:\n        /* \"#utility.yul\":8310:8398   */\n      tag_725\n        /* \"#utility.yul\":8390:8397   */\n      dup6\n        /* \"#utility.yul\":8381:8387   */\n      dup3\n        /* \"#utility.yul\":8370:8379   */\n      dup7\n        /* \"#utility.yul\":8366:8388   */\n      add\n        /* \"#utility.yul\":8310:8398   */\n      tag_540\n      jump\t// in\n    tag_725:\n        /* \"#utility.yul\":8300:8398   */\n      swap2\n      pop\n        /* \"#utility.yul\":8095:8408   */\n      pop\n        /* \"#utility.yul\":7711:8415   */\n      swap3\n      pop\n      swap3\n      swap1\n      pop\n      jump\t// out\n        /* \"#utility.yul\":8421:8750   */\n    tag_79:\n        /* \"#utility.yul\":8480:8486   */\n      0x00\n        /* \"#utility.yul\":8529:8531   */\n      0x20\n        /* \"#utility.yul\":8517:8526   */\n      dup3\n        /* \"#utility.yul\":8508:8515   */\n      dup5\n        /* \"#utility.yul\":8504:8527   */\n      sub\n        /* \"#utility.yul\":8500:8532   */\n      slt\n        /* \"#utility.yul\":8497:8616   */\n      iszero\n      tag_727\n      jumpi\n        /* \"#utility.yul\":8535:8614   */\n      tag_728\n      tag_513\n      jump\t// in\n    tag_728:\n        /* \"#utility.yul\":8497:8616   */\n    tag_727:\n        /* \"#utility.yul\":8655:8656   */\n      0x00\n        /* \"#utility.yul\":8680:8733   */\n      tag_729\n        /* \"#utility.yul\":8725:8732   */\n      dup5\n        /* \"#utility.yul\":8716:8722   */\n      dup3\n        /* \"#utility.yul\":8705:8714   */\n      dup6\n        /* \"#utility.yul\":8701:8723   */\n      add\n        /* \"#utility.yul\":8680:8733   */\n      tag_517\n      jump\t// in\n    tag_729:\n        /* \"#utility.yul\":8670:8733   */\n      swap2\n      pop\n        /* \"#utility.yul\":8626:8743   */\n      pop\n        /* \"#utility.yul\":8421:8750   */\n      swap3\n      swap2\n      pop\n      pop\n      jump\t// out\n        /* \"#utility.yul\":8756:8816   */\n    tag_541:\n        /* \"#utility.yul\":8784:8787   */\n      0x00\n        /* \"#utility.yul\":8805:8810   */\n      dup2\n        /* \"#utility.yul\":8798:8810   */\n      swap1\n      pop\n        /* \"#utility.yul\":8756:8816   */\n      swap2\n      swap1\n      pop\n      jump\t// out\n        /* \"#utility.yul\":8822:8964   */\n    tag_542:\n        /* \"#utility.yul\":8872:8881   */\n      0x00\n        /* \"#utility.yul\":8905:8958   */\n      tag_732\n        /* \"#utility.yul\":8923:8957   */\n      tag_733\n        /* \"#utility.yul\":8932:8956   */\n      tag_734\n        /* \"#utility.yul\":8950:8955   */\n      dup5\n        /* \"#utility.yul\":8932:8956   */\n      tag_518\n      jump\t// in\n    tag_734:\n        /* \"#utility.yul\":8923:8957   */\n      tag_541\n      jump\t// in\n    tag_733:\n        /* \"#utility.yul\":8905:8958   */\n      tag_518\n      jump\t// in\n    tag_732:\n        /* \"#utility.yul\":8892:8958   */\n      swap1\n      pop\n        /* \"#utility.yul\":8822:8964   */\n      swap2\n      swap1\n      pop\n      jump\t// out\n        /* \"#utility.yul\":8970:9096   */\n    tag_543:\n        /* \"#utility.yul\":9020:9029   */\n      0x00\n        /* \"#utility.yul\":9053:9090   */\n      tag_736\n        /* \"#utility.yul\":9084:9089   */\n      dup3\n        /* \"#utility.yul\":9053:9090   */\n      tag_542\n      jump\t// in\n    tag_736:\n        /* \"#utility.yul\":9040:9090   */\n      swap1\n      pop\n        /* \"#utility.yul\":8970:9096   */\n      swap2\n      swap1\n      pop\n      jump\t// out\n        /* \"#utility.yul\":9102:9255   */\n    tag_544:\n        /* \"#utility.yul\":9179:9188   */\n      0x00\n        /* \"#utility.yul\":9212:9249   */\n      tag_738\n        /* \"#utility.yul\":9243:9248   */\n      dup3\n        /* \"#utility.yul\":9212:9249   */\n      tag_543\n      jump\t// in\n    tag_738:\n        /* \"#utility.yul\":9199:9249   */\n      swap1\n      pop\n        /* \"#utility.yul\":9102:9255   */\n      swap2\n      swap1\n      pop\n      jump\t// out\n        /* \"#utility.yul\":9261:9446   */\n    tag_545:\n        /* \"#utility.yul\":9375:9439   */\n      tag_740\n        /* \"#utility.yul\":9433:9438   */\n      dup2\n        /* \"#utility.yul\":9375:9439   */\n      tag_544\n      jump\t// in\n    tag_740:\n        /* \"#utility.yul\":9370:9373   */\n      dup3\n        /* \"#utility.yul\":9363:9440   */\n      mstore\n        /* \"#utility.yul\":9261:9446   */\n      pop\n      pop\n      jump\t// out\n        /* \"#utility.yul\":9452:9728   */\n    tag_99:\n        /* \"#utility.yul\":9572:9576   */\n      0x00\n        /* \"#utility.yul\":9610:9612   */\n      0x20\n        /* \"#utility.yul\":9599:9608   */\n      dup3\n        /* \"#utility.yul\":9595:9613   */\n      add\n        /* \"#utility.yul\":9587:9613   */\n      swap1\n      pop\n        /* \"#utility.yul\":9623:9721   */\n      tag_742\n        /* \"#utility.yul\":9718:9719   */\n      0x00\n        /* \"#utility.yul\":9707:9716   */\n      dup4\n        /* \"#utility.yul\":9703:9720   */\n      add\n        /* \"#utility.yul\":9694:9700   */\n      dup5\n        /* \"#utility.yul\":9623:9721   */\n      tag_545\n      jump\t// in\n    tag_742:\n        /* \"#utility.yul\":9452:9728   */\n      swap3\n      swap2\n      pop\n      pop\n      jump\t// out\n        /* \"#utility.yul\":9734:10243   */\n    tag_102:\n        /* \"#utility.yul\":9803:9809   */\n      0x00\n        /* \"#utility.yul\":9852:9854   */\n      0x20\n        /* \"#utility.yul\":9840:9849   */\n      dup3\n        /* \"#utility.yul\":9831:9838   */\n      dup5\n        /* \"#utility.yul\":9827:9850   */\n      sub\n        /* \"#utility.yul\":9823:9855   */\n      slt\n        /* \"#utility.yul\":9820:9939   */\n      iszero\n      tag_744\n      jumpi\n        /* \"#utility.yul\":9858:9937   */\n      tag_745\n      tag_513\n      jump\t// in\n    tag_745:\n        /* \"#utility.yul\":9820:9939   */\n    tag_744:\n        /* \"#utility.yul\":10006:10007   */\n      0x00\n        /* \"#utility.yul\":9995:10004   */\n      dup3\n        /* \"#utility.yul\":9991:10008   */\n      add\n        /* \"#utility.yul\":9978:10009   */\n      calldataload\n        /* \"#utility.yul\":10036:10054   */\n      0xffffffffffffffff\n        /* \"#utility.yul\":10028:10034   */\n      dup2\n        /* \"#utility.yul\":10025:10055   */\n      gt\n        /* \"#utility.yul\":10022:10139   */\n      iszero\n      tag_746\n      jumpi\n        /* \"#utility.yul\":10058:10137   */\n      tag_747\n      tag_514\n      jump\t// in\n    tag_747:\n        /* \"#utility.yul\":10022:10139   */\n    tag_746:\n        /* \"#utility.yul\":10163:10226   */\n      tag_748\n        /* \"#utility.yul\":10218:10225   */\n      dup5\n        /* \"#utility.yul\":10209:10215   */\n      dup3\n        /* \"#utility.yul\":10198:10207   */\n      dup6\n        /* \"#utility.yul\":10194:10216   */\n      add\n        /* \"#utility.yul\":10163:10226   */\n      tag_538\n      jump\t// in\n    tag_748:\n        /* \"#utility.yul\":10153:10226   */\n      swap2\n      pop\n        /* \"#utility.yul\":9949:10236   */\n      pop\n        /* \"#utility.yul\":9734:10243   */\n      swap3\n      swap2\n      pop\n      pop\n      jump\t// out\n        /* \"#utility.yul\":10249:10367   */\n    tag_546:\n        /* \"#utility.yul\":10336:10360   */\n      tag_750\n        /* \"#utility.yul\":10354:10359   */\n      dup2\n        /* \"#utility.yul\":10336:10360   */\n      tag_519\n      jump\t// in\n    tag_750:\n        /* \"#utility.yul\":10331:10334   */\n      dup3\n        /* \"#utility.yul\":10324:10361   */\n      mstore\n        /* \"#utility.yul\":10249:10367   */\n      pop\n      pop\n      jump\t// out\n        /* \"#utility.yul\":10373:10595   */\n    tag_108:\n        /* \"#utility.yul\":10466:10470   */\n      0x00\n        /* \"#utility.yul\":10504:10506   */\n      0x20\n        /* \"#utility.yul\":10493:10502   */\n      dup3\n        /* \"#utility.yul\":10489:10507   */\n      add\n        /* \"#utility.yul\":10481:10507   */\n      swap1\n      pop\n        /* \"#utility.yul\":10517:10588   */\n      tag_752\n        /* \"#utility.yul\":10585:10586   */\n      0x00\n        /* \"#utility.yul\":10574:10583   */\n      dup4\n        /* \"#utility.yul\":10570:10587   */\n      add\n        /* \"#utility.yul\":10561:10567   */\n      dup5\n        /* \"#utility.yul\":10517:10588   */\n      tag_546\n      jump\t// in\n    tag_752:\n        /* \"#utility.yul\":10373:10595   */\n      swap3\n      swap2\n      pop\n      pop\n      jump\t// out\n        /* \"#utility.yul\":10601:10930   */\n    tag_112:\n        /* \"#utility.yul\":10660:10666   */\n      0x00\n        /* \"#utility.yul\":10709:10711   */\n      0x20\n        /* \"#utility.yul\":10697:10706   */\n      dup3\n        /* \"#utility.yul\":10688:10695   */\n      dup5\n        /* \"#utility.yul\":10684:10707   */\n      sub\n        /* \"#utility.yul\":10680:10712   */\n      slt\n        /* \"#utility.yul\":10677:10796   */\n      iszero\n      tag_754\n      jumpi\n        /* \"#utility.yul\":10715:10794   */\n      tag_755\n      tag_513\n      jump\t// in\n    tag_755:\n        /* \"#utility.yul\":10677:10796   */\n    tag_754:\n        /* \"#utility.yul\":10835:10836   */\n      0x00\n        /* \"#utility.yul\":10860:10913   */\n      tag_756\n        /* \"#utility.yul\":10905:10912   */\n      dup5\n        /* \"#utility.yul\":10896:10902   */\n      dup3\n        /* \"#utility.yul\":10885:10894   */\n      dup6\n        /* \"#utility.yul\":10881:10903   */\n      add\n        /* \"#utility.yul\":10860:10913   */\n      tag_521\n      jump\t// in\n    tag_756:\n        /* \"#utility.yul\":10850:10913   */\n      swap2\n      pop\n        /* \"#utility.yul\":10806:10923   */\n      pop\n        /* \"#utility.yul\":10601:10930   */\n      swap3\n      swap2\n      pop\n      pop\n      jump\t// out\n        /* \"#utility.yul\":10936:11035   */\n    tag_547:\n        /* \"#utility.yul\":10988:10994   */\n      0x00\n        /* \"#utility.yul\":11022:11027   */\n      dup2\n        /* \"#utility.yul\":11016:11028   */\n      mload\n        /* \"#utility.yul\":11006:11028   */\n      swap1\n      pop\n        /* \"#utility.yul\":10936:11035   */\n      swap2\n      swap1\n      pop\n      jump\t// out\n        /* \"#utility.yul\":11041:11210   */\n    tag_548:\n        /* \"#utility.yul\":11125:11136   */\n      0x00\n        /* \"#utility.yul\":11159:11165   */\n      dup3\n        /* \"#utility.yul\":11154:11157   */\n      dup3\n        /* \"#utility.yul\":11147:11166   */\n      mstore\n        /* \"#utility.yul\":11199:11203   */\n      0x20\n        /* \"#utility.yul\":11194:11197   */\n      dup3\n        /* \"#utility.yul\":11190:11204   */\n      add\n        /* \"#utility.yul\":11175:11204   */\n      swap1\n      pop\n        /* \"#utility.yul\":11041:11210   */\n      swap3\n      swap2\n      pop\n      pop\n      jump\t// out\n        /* \"#utility.yul\":11216:11355   */\n    tag_549:\n        /* \"#utility.yul\":11305:11311   */\n      dup3\n        /* \"#utility.yul\":11300:11303   */\n      dup2\n        /* \"#utility.yul\":11295:11298   */\n      dup4\n        /* \"#utility.yul\":11289:11312   */\n      mcopy\n        /* \"#utility.yul\":11346:11347   */\n      0x00\n        /* \"#utility.yul\":11337:11343   */\n      dup4\n        /* \"#utility.yul\":11332:11335   */\n      dup4\n        /* \"#utility.yul\":11328:11344   */\n      add\n        /* \"#utility.yul\":11321:11348   */\n      mstore\n        /* \"#utility.yul\":11216:11355   */\n      pop\n      pop\n      pop\n      jump\t// out\n        /* \"#utility.yul\":11361:11738   */\n    tag_550:\n        /* \"#utility.yul\":11449:11452   */\n      0x00\n        /* \"#utility.yul\":11477:11516   */\n      tag_761\n        /* \"#utility.yul\":11510:11515   */\n      dup3\n        /* \"#utility.yul\":11477:11516   */\n      tag_547\n      jump\t// in\n    tag_761:\n        /* \"#utility.yul\":11532:11603   */\n      tag_762\n        /* \"#utility.yul\":11596:11602   */\n      dup2\n        /* \"#utility.yul\":11591:11594   */\n      dup6\n        /* \"#utility.yul\":11532:11603   */\n      tag_548\n      jump\t// in\n    tag_762:\n        /* \"#utility.yul\":11525:11603   */\n      swap4\n      pop\n        /* \"#utility.yul\":11612:11677   */\n      tag_763\n        /* \"#utility.yul\":11670:11676   */\n      dup2\n        /* \"#utility.yul\":11665:11668   */\n      dup6\n        /* \"#utility.yul\":11658:11662   */\n      0x20\n        /* \"#utility.yul\":11651:11656   */\n      dup7\n        /* \"#utility.yul\":11647:11663   */\n      add\n        /* \"#utility.yul\":11612:11677   */\n      tag_549\n      jump\t// in\n    tag_763:\n        /* \"#utility.yul\":11702:11731   */\n      tag_764\n        /* \"#utility.yul\":11724:11730   */\n      dup2\n        /* \"#utility.yul\":11702:11731   */\n      tag_528\n      jump\t// in\n    tag_764:\n        /* \"#utility.yul\":11697:11700   */\n      dup5\n        /* \"#utility.yul\":11693:11732   */\n      add\n        /* \"#utility.yul\":11686:11732   */\n      swap2\n      pop\n        /* \"#utility.yul\":11453:11738   */\n      pop\n        /* \"#utility.yul\":11361:11738   */\n      swap3\n      swap2\n      pop\n      pop\n      jump\t// out\n        /* \"#utility.yul\":11744:12598   */\n    tag_119:\n        /* \"#utility.yul\":11991:11995   */\n      0x00\n        /* \"#utility.yul\":12029:12032   */\n      0xc0\n        /* \"#utility.yul\":12018:12027   */\n      dup3\n        /* \"#utility.yul\":12014:12033   */\n      add\n        /* \"#utility.yul\":12006:12033   */\n      swap1\n      pop\n        /* \"#utility.yul\":12043:12114   */\n      tag_766\n        /* \"#utility.yul\":12111:12112   */\n      0x00\n        /* \"#utility.yul\":12100:12109   */\n      dup4\n        /* \"#utility.yul\":12096:12113   */\n      add\n        /* \"#utility.yul\":12087:12093   */\n      dup10\n        /* \"#utility.yul\":12043:12114   */\n      tag_546\n      jump\t// in\n    tag_766:\n        /* \"#utility.yul\":12161:12170   */\n      dup2\n        /* \"#utility.yul\":12155:12159   */\n      dup2\n        /* \"#utility.yul\":12151:12171   */\n      sub\n        /* \"#utility.yul\":12146:12148   */\n      0x20\n        /* \"#utility.yul\":12135:12144   */\n      dup4\n        /* \"#utility.yul\":12131:12149   */\n      add\n        /* \"#utility.yul\":12124:12172   */\n      mstore\n        /* \"#utility.yul\":12189:12267   */\n      tag_767\n        /* \"#utility.yul\":12262:12266   */\n      dup2\n        /* \"#utility.yul\":12253:12259   */\n      dup9\n        /* \"#utility.yul\":12189:12267   */\n      tag_550\n      jump\t// in\n    tag_767:\n        /* \"#utility.yul\":12181:12267   */\n      swap1\n      pop\n        /* \"#utility.yul\":12277:12343   */\n      tag_768\n        /* \"#utility.yul\":12339:12341   */\n      0x40\n        /* \"#utility.yul\":12328:12337   */\n      dup4\n        /* \"#utility.yul\":12324:12342   */\n      add\n        /* \"#utility.yul\":12315:12321   */\n      dup8\n        /* \"#utility.yul\":12277:12343   */\n      tag_523\n      jump\t// in\n    tag_768:\n        /* \"#utility.yul\":12353:12425   */\n      tag_769\n        /* \"#utility.yul\":12421:12423   */\n      0x60\n        /* \"#utility.yul\":12410:12419   */\n      dup4\n        /* \"#utility.yul\":12406:12424   */\n      add\n        /* \"#utility.yul\":12397:12403   */\n      dup7\n        /* \"#utility.yul\":12353:12425   */\n      tag_526\n      jump\t// in\n    tag_769:\n        /* \"#utility.yul\":12435:12508   */\n      tag_770\n        /* \"#utility.yul\":12503:12506   */\n      0x80\n        /* \"#utility.yul\":12492:12501   */\n      dup4\n        /* \"#utility.yul\":12488:12507   */\n      add\n        /* \"#utility.yul\":12479:12485   */\n      dup6\n        /* \"#utility.yul\":12435:12508   */\n      tag_526\n      jump\t// in\n    tag_770:\n        /* \"#utility.yul\":12518:12591   */\n      tag_771\n        /* \"#utility.yul\":12586:12589   */\n      0xa0\n        /* \"#utility.yul\":12575:12584   */\n      dup4\n        /* \"#utility.yul\":12571:12590   */\n      add\n        /* \"#utility.yul\":12562:12568   */\n      dup5\n        /* \"#utility.yul\":12518:12591   */\n      tag_526\n      jump\t// in\n    tag_771:\n        /* \"#utility.yul\":11744:12598   */\n      swap8\n      swap7\n      pop\n      pop\n      pop\n      pop\n      pop\n      pop\n      pop\n      jump\t// out\n        /* \"#utility.yul\":12604:12681   */\n    tag_551:\n        /* \"#utility.yul\":12641:12648   */\n      0x00\n        /* \"#utility.yul\":12670:12675   */\n      dup2\n        /* \"#utility.yul\":12659:12675   */\n      swap1\n      pop\n        /* \"#utility.yul\":12604:12681   */\n      swap2\n      swap1\n      pop\n      jump\t// out\n        /* \"#utility.yul\":12687:12805   */\n    tag_552:\n        /* \"#utility.yul\":12774:12798   */\n      tag_774\n        /* \"#utility.yul\":12792:12797   */\n      dup2\n        /* \"#utility.yul\":12774:12798   */\n      tag_551\n      jump\t// in\n    tag_774:\n        /* \"#utility.yul\":12769:12772   */\n      dup3\n        /* \"#utility.yul\":12762:12799   */\n      mstore\n        /* \"#utility.yul\":12687:12805   */\n      pop\n      pop\n      jump\t// out\n        /* \"#utility.yul\":12811:14152   */\n    tag_140:\n        /* \"#utility.yul\":13172:13176   */\n      0x00\n        /* \"#utility.yul\":13210:13213   */\n      0xe0\n        /* \"#utility.yul\":13199:13208   */\n      dup3\n        /* \"#utility.yul\":13195:13214   */\n      add\n        /* \"#utility.yul\":13187:13214   */\n      swap1\n      pop\n        /* \"#utility.yul\":13224:13295   */\n      tag_776\n        /* \"#utility.yul\":13292:13293   */\n      0x00\n        /* \"#utility.yul\":13281:13290   */\n      dup4\n        /* \"#utility.yul\":13277:13294   */\n      add\n        /* \"#utility.yul\":13268:13274   */\n      dup11\n        /* \"#utility.yul\":13224:13295   */\n      tag_526\n      jump\t// in\n    tag_776:\n        /* \"#utility.yul\":13342:13351   */\n      dup2\n        /* \"#utility.yul\":13336:13340   */\n      dup2\n        /* \"#utility.yul\":13332:13352   */\n      sub\n        /* \"#utility.yul\":13327:13329   */\n      0x20\n        /* \"#utility.yul\":13316:13325   */\n      dup4\n        /* \"#utility.yul\":13312:13330   */\n      add\n        /* \"#utility.yul\":13305:13353   */\n      mstore\n        /* \"#utility.yul\":13370:13448   */\n      tag_777\n        /* \"#utility.yul\":13443:13447   */\n      dup2\n        /* \"#utility.yul\":13434:13440   */\n      dup10\n        /* \"#utility.yul\":13370:13448   */\n      tag_550\n      jump\t// in\n    tag_777:\n        /* \"#utility.yul\":13362:13448   */\n      swap1\n      pop\n        /* \"#utility.yul\":13495:13504   */\n      dup2\n        /* \"#utility.yul\":13489:13493   */\n      dup2\n        /* \"#utility.yul\":13485:13505   */\n      sub\n        /* \"#utility.yul\":13480:13482   */\n      0x40\n        /* \"#utility.yul\":13469:13478   */\n      dup4\n        /* \"#utility.yul\":13465:13483   */\n      add\n        /* \"#utility.yul\":13458:13506   */\n      mstore\n        /* \"#utility.yul\":13523:13601   */\n      tag_778\n        /* \"#utility.yul\":13596:13600   */\n      dup2\n        /* \"#utility.yul\":13587:13593   */\n      dup9\n        /* \"#utility.yul\":13523:13601   */\n      tag_550\n      jump\t// in\n    tag_778:\n        /* \"#utility.yul\":13515:13601   */\n      swap1\n      pop\n        /* \"#utility.yul\":13648:13657   */\n      dup2\n        /* \"#utility.yul\":13642:13646   */\n      dup2\n        /* \"#utility.yul\":13638:13658   */\n      sub\n        /* \"#utility.yul\":13633:13635   */\n      0x60\n        /* \"#utility.yul\":13622:13631   */\n      dup4\n        /* \"#utility.yul\":13618:13636   */\n      add\n        /* \"#utility.yul\":13611:13659   */\n      mstore\n        /* \"#utility.yul\":13676:13754   */\n      tag_779\n        /* \"#utility.yul\":13749:13753   */\n      dup2\n        /* \"#utility.yul\":13740:13746   */\n      dup8\n        /* \"#utility.yul\":13676:13754   */\n      tag_550\n      jump\t// in\n    tag_779:\n        /* \"#utility.yul\":13668:13754   */\n      swap1\n      pop\n        /* \"#utility.yul\":13802:13811   */\n      dup2\n        /* \"#utility.yul\":13796:13800   */\n      dup2\n        /* \"#utility.yul\":13792:13812   */\n      sub\n        /* \"#utility.yul\":13786:13789   */\n      0x80\n        /* \"#utility.yul\":13775:13784   */\n      dup4\n        /* \"#utility.yul\":13771:13790   */\n      add\n        /* \"#utility.yul\":13764:13813   */\n      mstore\n        /* \"#utility.yul\":13830:13908   */\n      tag_780\n        /* \"#utility.yul\":13903:13907   */\n      dup2\n        /* \"#utility.yul\":13894:13900   */\n      dup7\n        /* \"#utility.yul\":13830:13908   */\n      tag_550\n      jump\t// in\n    tag_780:\n        /* \"#utility.yul\":13822:13908   */\n      swap1\n      pop\n        /* \"#utility.yul\":13956:13965   */\n      dup2\n        /* \"#utility.yul\":13950:13954   */\n      dup2\n        /* \"#utility.yul\":13946:13966   */\n      sub\n        /* \"#utility.yul\":13940:13943   */\n      0xa0\n        /* \"#utility.yul\":13929:13938   */\n      dup4\n        /* \"#utility.yul\":13925:13944   */\n      add\n        /* \"#utility.yul\":13918:13967   */\n      mstore\n        /* \"#utility.yul\":13984:14062   */\n      tag_781\n        /* \"#utility.yul\":14057:14061   */\n      dup2\n        /* \"#utility.yul\":14048:14054   */\n      dup6\n        /* \"#utility.yul\":13984:14062   */\n      tag_550\n      jump\t// in\n    tag_781:\n        /* \"#utility.yul\":13976:14062   */\n      swap1\n      pop\n        /* \"#utility.yul\":14072:14145   */\n      tag_782\n        /* \"#utility.yul\":14140:14143   */\n      0xc0\n        /* \"#utility.yul\":14129:14138   */\n      dup4\n        /* \"#utility.yul\":14125:14144   */\n      add\n        /* \"#utility.yul\":14116:14122   */\n      dup5\n        /* \"#utility.yul\":14072:14145   */\n      tag_552\n      jump\t// in\n    tag_782:\n        /* \"#utility.yul\":12811:14152   */\n      swap9\n      swap8\n      pop\n      pop\n      pop\n      pop\n      pop\n      pop\n      pop\n      pop\n      jump\t// out\n        /* \"#utility.yul\":14158:16441   */\n    tag_153:\n        /* \"#utility.yul\":14331:14337   */\n      0x00\n        /* \"#utility.yul\":14339:14345   */\n      dup1\n        /* \"#utility.yul\":14347:14353   */\n      0x00\n        /* \"#utility.yul\":14355:14361   */\n      dup1\n        /* \"#utility.yul\":14363:14369   */\n      0x00\n        /* \"#utility.yul\":14371:14377   */\n      dup1\n        /* \"#utility.yul\":14379:14385   */\n      0x00\n        /* \"#utility.yul\":14428:14431   */\n      0xe0\n        /* \"#utility.yul\":14416:14425   */\n      dup9\n        /* \"#utility.yul\":14407:14414   */\n      dup11\n        /* \"#utility.yul\":14403:14426   */\n      sub\n        /* \"#utility.yul\":14399:14432   */\n      slt\n        /* \"#utility.yul\":14396:14516   */\n      iszero\n      tag_784\n      jumpi\n        /* \"#utility.yul\":14435:14514   */\n      tag_785\n      tag_513\n      jump\t// in\n    tag_785:\n        /* \"#utility.yul\":14396:14516   */\n    tag_784:\n        /* \"#utility.yul\":14555:14556   */\n      0x00\n        /* \"#utility.yul\":14580:14633   */\n      tag_786\n        /* \"#utility.yul\":14625:14632   */\n      dup11\n        /* \"#utility.yul\":14616:14622   */\n      dup3\n        /* \"#utility.yul\":14605:14614   */\n      dup12\n        /* \"#utility.yul\":14601:14623   */\n      add\n        /* \"#utility.yul\":14580:14633   */\n      tag_517\n      jump\t// in\n    tag_786:\n        /* \"#utility.yul\":14570:14633   */\n      swap8\n      pop\n        /* \"#utility.yul\":14526:14643   */\n      pop\n        /* \"#utility.yul\":14710:14712   */\n      0x20\n        /* \"#utility.yul\":14699:14708   */\n      dup9\n        /* \"#utility.yul\":14695:14713   */\n      add\n        /* \"#utility.yul\":14682:14714   */\n      calldataload\n        /* \"#utility.yul\":14741:14759   */\n      0xffffffffffffffff\n        /* \"#utility.yul\":14733:14739   */\n      dup2\n        /* \"#utility.yul\":14730:14760   */\n      gt\n        /* \"#utility.yul\":14727:14844   */\n      iszero\n      tag_787\n      jumpi\n        /* \"#utility.yul\":14763:14842   */\n      tag_788\n      tag_514\n      jump\t// in\n    tag_788:\n        /* \"#utility.yul\":14727:14844   */\n    tag_787:\n        /* \"#utility.yul\":14868:14931   */\n      tag_789\n        /* \"#utility.yul\":14923:14930   */\n      dup11\n        /* \"#utility.yul\":14914:14920   */\n      dup3\n        /* \"#utility.yul\":14903:14912   */\n      dup12\n        /* \"#utility.yul\":14899:14921   */\n      add\n        /* \"#utility.yul\":14868:14931   */\n      tag_538\n      jump\t// in\n    tag_789:\n        /* \"#utility.yul\":14858:14931   */\n      swap7\n      pop\n        /* \"#utility.yul\":14653:14941   */\n      pop\n        /* \"#utility.yul\":15008:15010   */\n      0x40\n        /* \"#utility.yul\":14997:15006   */\n      dup9\n        /* \"#utility.yul\":14993:15011   */\n      add\n        /* \"#utility.yul\":14980:15012   */\n      calldataload\n        /* \"#utility.yul\":15039:15057   */\n      0xffffffffffffffff\n        /* \"#utility.yul\":15031:15037   */\n      dup2\n        /* \"#utility.yul\":15028:15058   */\n      gt\n        /* \"#utility.yul\":15025:15142   */\n      iszero\n      tag_790\n      jumpi\n        /* \"#utility.yul\":15061:15140   */\n      tag_791\n      tag_514\n      jump\t// in\n    tag_791:\n        /* \"#utility.yul\":15025:15142   */\n    tag_790:\n        /* \"#utility.yul\":15166:15229   */\n      tag_792\n        /* \"#utility.yul\":15221:15228   */\n      dup11\n        /* \"#utility.yul\":15212:15218   */\n      dup3\n        /* \"#utility.yul\":15201:15210   */\n      dup12\n        /* \"#utility.yul\":15197:15219   */\n      add\n        /* \"#utility.yul\":15166:15229   */\n      tag_538\n      jump\t// in\n    tag_792:\n        /* \"#utility.yul\":15156:15229   */\n      swap6\n      pop\n        /* \"#utility.yul\":14951:15239   */\n      pop\n        /* \"#utility.yul\":15306:15308   */\n      0x60\n        /* \"#utility.yul\":15295:15304   */\n      dup9\n        /* \"#utility.yul\":15291:15309   */\n      add\n        /* \"#utility.yul\":15278:15310   */\n      calldataload\n        /* \"#utility.yul\":15337:15355   */\n      0xffffffffffffffff\n        /* \"#utility.yul\":15329:15335   */\n      dup2\n        /* \"#utility.yul\":15326:15356   */\n      gt\n        /* \"#utility.yul\":15323:15440   */\n      iszero\n      tag_793\n      jumpi\n        /* \"#utility.yul\":15359:15438   */\n      tag_794\n      tag_514\n      jump\t// in\n    tag_794:\n        /* \"#utility.yul\":15323:15440   */\n    tag_793:\n        /* \"#utility.yul\":15464:15527   */\n      tag_795\n        /* \"#utility.yul\":15519:15526   */\n      dup11\n        /* \"#utility.yul\":15510:15516   */\n      dup3\n        /* \"#utility.yul\":15499:15508   */\n      dup12\n        /* \"#utility.yul\":15495:15517   */\n      add\n        /* \"#utility.yul\":15464:15527   */\n      tag_538\n      jump\t// in\n    tag_795:\n        /* \"#utility.yul\":15454:15527   */\n      swap5\n      pop\n        /* \"#utility.yul\":15249:15537   */\n      pop\n        /* \"#utility.yul\":15604:15607   */\n      0x80\n        /* \"#utility.yul\":15593:15602   */\n      dup9\n        /* \"#utility.yul\":15589:15608   */\n      add\n        /* \"#utility.yul\":15576:15609   */\n      calldataload\n        /* \"#utility.yul\":15636:15654   */\n      0xffffffffffffffff\n        /* \"#utility.yul\":15628:15634   */\n      dup2\n        /* \"#utility.yul\":15625:15655   */\n      gt\n        /* \"#utility.yul\":15622:15739   */\n      iszero\n      tag_796\n      jumpi\n        /* \"#utility.yul\":15658:15737   */\n      tag_797\n      tag_514\n      jump\t// in\n    tag_797:\n        /* \"#utility.yul\":15622:15739   */\n    tag_796:\n        /* \"#utility.yul\":15763:15826   */\n      tag_798\n        /* \"#utility.yul\":15818:15825   */\n      dup11\n        /* \"#utility.yul\":15809:15815   */\n      dup3\n        /* \"#utility.yul\":15798:15807   */\n      dup12\n        /* \"#utility.yul\":15794:15816   */\n      add\n        /* \"#utility.yul\":15763:15826   */\n      tag_538\n      jump\t// in\n    tag_798:\n        /* \"#utility.yul\":15753:15826   */\n      swap4\n      pop\n        /* \"#utility.yul\":15547:15836   */\n      pop\n        /* \"#utility.yul\":15903:15906   */\n      0xa0\n        /* \"#utility.yul\":15892:15901   */\n      dup9\n        /* \"#utility.yul\":15888:15907   */\n      add\n        /* \"#utility.yul\":15875:15908   */\n      calldataload\n        /* \"#utility.yul\":15935:15953   */\n      0xffffffffffffffff\n        /* \"#utility.yul\":15927:15933   */\n      dup2\n        /* \"#utility.yul\":15924:15954   */\n      gt\n        /* \"#utility.yul\":15921:16038   */\n      iszero\n      tag_799\n      jumpi\n        /* \"#utility.yul\":15957:16036   */\n      tag_800\n      tag_514\n      jump\t// in\n    tag_800:\n        /* \"#utility.yul\":15921:16038   */\n    tag_799:\n        /* \"#utility.yul\":16062:16125   */\n      tag_801\n        /* \"#utility.yul\":16117:16124   */\n      dup11\n        /* \"#utility.yul\":16108:16114   */\n      dup3\n        /* \"#utility.yul\":16097:16106   */\n      dup12\n        /* \"#utility.yul\":16093:16115   */\n      add\n        /* \"#utility.yul\":16062:16125   */\n      tag_538\n      jump\t// in\n    tag_801:\n        /* \"#utility.yul\":16052:16125   */\n      swap3\n      pop\n        /* \"#utility.yul\":15846:16135   */\n      pop\n        /* \"#utility.yul\":16202:16205   */\n      0xc0\n        /* \"#utility.yul\":16191:16200   */\n      dup9\n        /* \"#utility.yul\":16187:16206   */\n      add\n        /* \"#utility.yul\":16174:16207   */\n      calldataload\n        /* \"#utility.yul\":16234:16252   */\n      0xffffffffffffffff\n        /* \"#utility.yul\":16226:16232   */\n      dup2\n        /* \"#utility.yul\":16223:16253   */\n      gt\n        /* \"#utility.yul\":16220:16337   */\n      iszero\n      tag_802\n      jumpi\n        /* \"#utility.yul\":16256:16335   */\n      tag_803\n      tag_514\n      jump\t// in\n    tag_803:\n        /* \"#utility.yul\":16220:16337   */\n    tag_802:\n        /* \"#utility.yul\":16361:16424   */\n      tag_804\n        /* \"#utility.yul\":16416:16423   */\n      dup11\n        /* \"#utility.yul\":16407:16413   */\n      dup3\n        /* \"#utility.yul\":16396:16405   */\n      dup12\n        /* \"#utility.yul\":16392:16414   */\n      add\n        /* \"#utility.yul\":16361:16424   */\n      tag_538\n      jump\t// in\n    tag_804:\n        /* \"#utility.yul\":16351:16424   */\n      swap2\n      pop\n        /* \"#utility.yul\":16145:16434   */\n      pop\n        /* \"#utility.yul\":14158:16441   */\n      swap3\n      swap6\n      swap9\n      swap2\n      swap5\n      swap8\n      pop\n      swap3\n      swap6\n      pop\n      jump\t// out\n        /* \"#utility.yul\":16447:16617   */\n    tag_553:\n        /* \"#utility.yul\":16587:16609   */\n      0x496e73756666696369656e742067617320666565000000000000000000000000\n        /* \"#utility.yul\":16583:16584   */\n      0x00\n        /* \"#utility.yul\":16575:16581   */\n      dup3\n        /* \"#utility.yul\":16571:16585   */\n      add\n        /* \"#utility.yul\":16564:16610   */\n      mstore\n        /* \"#utility.yul\":16447:16617   */\n      pop\n      jump\t// out\n        /* \"#utility.yul\":16623:16989   */\n    tag_554:\n        /* \"#utility.yul\":16765:16768   */\n      0x00\n        /* \"#utility.yul\":16786:16853   */\n      tag_807\n        /* \"#utility.yul\":16850:16852   */\n      0x14\n        /* \"#utility.yul\":16845:16848   */\n      dup4\n        /* \"#utility.yul\":16786:16853   */\n      tag_548\n      jump\t// in\n    tag_807:\n        /* \"#utility.yul\":16779:16853   */\n      swap2\n      pop\n        /* \"#utility.yul\":16862:16955   */\n      tag_808\n        /* \"#utility.yul\":16951:16954   */\n      dup3\n        /* \"#utility.yul\":16862:16955   */\n      tag_553\n      jump\t// in\n    tag_808:\n        /* \"#utility.yul\":16980:16982   */\n      0x20\n        /* \"#utility.yul\":16975:16978   */\n      dup3\n        /* \"#utility.yul\":16971:16983   */\n      add\n        /* \"#utility.yul\":16964:16983   */\n      swap1\n      pop\n        /* \"#utility.yul\":16623:16989   */\n      swap2\n      swap1\n      pop\n      jump\t// out\n        /* \"#utility.yul\":16995:17414   */\n    tag_169:\n        /* \"#utility.yul\":17161:17165   */\n      0x00\n        /* \"#utility.yul\":17199:17201   */\n      0x20\n        /* \"#utility.yul\":17188:17197   */\n      dup3\n        /* \"#utility.yul\":17184:17202   */\n      add\n        /* \"#utility.yul\":17176:17202   */\n      swap1\n      pop\n        /* \"#utility.yul\":17248:17257   */\n      dup2\n        /* \"#utility.yul\":17242:17246   */\n      dup2\n        /* \"#utility.yul\":17238:17258   */\n      sub\n        /* \"#utility.yul\":17234:17235   */\n      0x00\n        /* \"#utility.yul\":17223:17232   */\n      dup4\n        /* \"#utility.yul\":17219:17236   */\n      add\n        /* \"#utility.yul\":17212:17259   */\n      mstore\n        /* \"#utility.yul\":17276:17407   */\n      tag_810\n        /* \"#utility.yul\":17402:17406   */\n      dup2\n        /* \"#utility.yul\":17276:17407   */\n      tag_554\n      jump\t// in\n    tag_810:\n        /* \"#utility.yul\":17268:17407   */\n      swap1\n      pop\n        /* \"#utility.yul\":16995:17414   */\n      swap2\n      swap1\n      pop\n      jump\t// out\n        /* \"#utility.yul\":17420:17600   */\n    tag_555:\n        /* \"#utility.yul\":17468:17545   */\n      0x4e487b7100000000000000000000000000000000000000000000000000000000\n        /* \"#utility.yul\":17465:17466   */\n      0x00\n        /* \"#utility.yul\":17458:17546   */\n      mstore\n        /* \"#utility.yul\":17565:17569   */\n      0x11\n        /* \"#utility.yul\":17562:17563   */\n      0x04\n        /* \"#utility.yul\":17555:17570   */\n      mstore\n        /* \"#utility.yul\":17589:17593   */\n      0x24\n        /* \"#utility.yul\":17586:17587   */\n      0x00\n        /* \"#utility.yul\":17579:17594   */\n      revert\n        /* \"#utility.yul\":17606:17797   */\n    tag_171:\n        /* \"#utility.yul\":17646:17649   */\n      0x00\n        /* \"#utility.yul\":17665:17685   */\n      tag_813\n        /* \"#utility.yul\":17683:17684   */\n      dup3\n        /* \"#utility.yul\":17665:17685   */\n      tag_515\n      jump\t// in\n    tag_813:\n        /* \"#utility.yul\":17660:17685   */\n      swap2\n      pop\n        /* \"#utility.yul\":17699:17719   */\n      tag_814\n        /* \"#utility.yul\":17717:17718   */\n      dup4\n        /* \"#utility.yul\":17699:17719   */\n      tag_515\n      jump\t// in\n    tag_814:\n        /* \"#utility.yul\":17694:17719   */\n      swap3\n      pop\n        /* \"#utility.yul\":17742:17743   */\n      dup3\n        /* \"#utility.yul\":17739:17740   */\n      dup3\n        /* \"#utility.yul\":17735:17744   */\n      add\n        /* \"#utility.yul\":17728:17744   */\n      swap1\n      pop\n        /* \"#utility.yul\":17763:17766   */\n      dup1\n        /* \"#utility.yul\":17760:17761   */\n      dup3\n        /* \"#utility.yul\":17757:17767   */\n      gt\n        /* \"#utility.yul\":17754:17790   */\n      iszero\n      tag_815\n      jumpi\n        /* \"#utility.yul\":17770:17788   */\n      tag_816\n      tag_555\n      jump\t// in\n    tag_816:\n        /* \"#utility.yul\":17754:17790   */\n    tag_815:\n        /* \"#utility.yul\":17606:17797   */\n      swap3\n      swap2\n      pop\n      pop\n      jump\t// out\n        /* \"#utility.yul\":17803:17997   */\n    tag_173:\n        /* \"#utility.yul\":17843:17847   */\n      0x00\n        /* \"#utility.yul\":17863:17883   */\n      tag_818\n        /* \"#utility.yul\":17881:17882   */\n      dup3\n        /* \"#utility.yul\":17863:17883   */\n      tag_515\n      jump\t// in\n    tag_818:\n        /* \"#utility.yul\":17858:17883   */\n      swap2\n      pop\n        /* \"#utility.yul\":17897:17917   */\n      tag_819\n        /* \"#utility.yul\":17915:17916   */\n      dup4\n        /* \"#utility.yul\":17897:17917   */\n      tag_515\n      jump\t// in\n    tag_819:\n        /* \"#utility.yul\":17892:17917   */\n      swap3\n      pop\n        /* \"#utility.yul\":17941:17942   */\n      dup3\n        /* \"#utility.yul\":17938:17939   */\n      dup3\n        /* \"#utility.yul\":17934:17943   */\n      sub\n        /* \"#utility.yul\":17926:17943   */\n      swap1\n      pop\n        /* \"#utility.yul\":17965:17966   */\n      dup2\n        /* \"#utility.yul\":17959:17963   */\n      dup2\n        /* \"#utility.yul\":17956:17967   */\n      gt\n        /* \"#utility.yul\":17953:17990   */\n      iszero\n      tag_820\n      jumpi\n        /* \"#utility.yul\":17970:17988   */\n      tag_821\n      tag_555\n      jump\t// in\n    tag_821:\n        /* \"#utility.yul\":17953:17990   */\n    tag_820:\n        /* \"#utility.yul\":17803:17997   */\n      swap3\n      swap2\n      pop\n      pop\n      jump\t// out\n        /* \"#utility.yul\":18003:18229   */\n    tag_556:\n        /* \"#utility.yul\":18143:18177   */\n      0x4f6e6c7920636f757273652063726561746f722063616e207769746864726177\n        /* \"#utility.yul\":18139:18140   */\n      0x00\n        /* \"#utility.yul\":18131:18137   */\n      dup3\n        /* \"#utility.yul\":18127:18141   */\n      add\n        /* \"#utility.yul\":18120:18178   */\n      mstore\n        /* \"#utility.yul\":18212:18221   */\n      0x20746f6b656e7300000000000000000000000000000000000000000000000000\n        /* \"#utility.yul\":18207:18209   */\n      0x20\n        /* \"#utility.yul\":18199:18205   */\n      dup3\n        /* \"#utility.yul\":18195:18210   */\n      add\n        /* \"#utility.yul\":18188:18222   */\n      mstore\n        /* \"#utility.yul\":18003:18229   */\n      pop\n      jump\t// out\n        /* \"#utility.yul\":18235:18601   */\n    tag_557:\n        /* \"#utility.yul\":18377:18380   */\n      0x00\n        /* \"#utility.yul\":18398:18465   */\n      tag_824\n        /* \"#utility.yul\":18462:18464   */\n      0x27\n        /* \"#utility.yul\":18457:18460   */\n      dup4\n        /* \"#utility.yul\":18398:18465   */\n      tag_548\n      jump\t// in\n    tag_824:\n        /* \"#utility.yul\":18391:18465   */\n      swap2\n      pop\n        /* \"#utility.yul\":18474:18567   */\n      tag_825\n        /* \"#utility.yul\":18563:18566   */\n      dup3\n        /* \"#utility.yul\":18474:18567   */\n      tag_556\n      jump\t// in\n    tag_825:\n        /* \"#utility.yul\":18592:18594   */\n      0x40\n        /* \"#utility.yul\":18587:18590   */\n      dup3\n        /* \"#utility.yul\":18583:18595   */\n      add\n        /* \"#utility.yul\":18576:18595   */\n      swap1\n      pop\n        /* \"#utility.yul\":18235:18601   */\n      swap2\n      swap1\n      pop\n      jump\t// out\n        /* \"#utility.yul\":18607:19026   */\n    tag_180:\n        /* \"#utility.yul\":18773:18777   */\n      0x00\n        /* \"#utility.yul\":18811:18813   */\n      0x20\n        /* \"#utility.yul\":18800:18809   */\n      dup3\n        /* \"#utility.yul\":18796:18814   */\n      add\n        /* \"#utility.yul\":18788:18814   */\n      swap1\n      pop\n        /* \"#utility.yul\":18860:18869   */\n      dup2\n        /* \"#utility.yul\":18854:18858   */\n      dup2\n        /* \"#utility.yul\":18850:18870   */\n      sub\n        /* \"#utility.yul\":18846:18847   */\n      0x00\n        /* \"#utility.yul\":18835:18844   */\n      dup4\n        /* \"#utility.yul\":18831:18848   */\n      add\n        /* \"#utility.yul\":18824:18871   */\n      mstore\n        /* \"#utility.yul\":18888:19019   */\n      tag_827\n        /* \"#utility.yul\":19014:19018   */\n      dup2\n        /* \"#utility.yul\":18888:19019   */\n      tag_557\n      jump\t// in\n    tag_827:\n        /* \"#utility.yul\":18880:19019   */\n      swap1\n      pop\n        /* \"#utility.yul\":18607:19026   */\n      swap2\n      swap1\n      pop\n      jump\t// out\n        /* \"#utility.yul\":19032:19259   */\n    tag_558:\n        /* \"#utility.yul\":19172:19206   */\n      0x496e73756666696369656e7420726577617264656420746f6b656e7320746f20\n        /* \"#utility.yul\":19168:19169   */\n      0x00\n        /* \"#utility.yul\":19160:19166   */\n      dup3\n        /* \"#utility.yul\":19156:19170   */\n      add\n        /* \"#utility.yul\":19149:19207   */\n      mstore\n        /* \"#utility.yul\":19241:19251   */\n      0x7769746864726177000000000000000000000000000000000000000000000000\n        /* \"#utility.yul\":19236:19238   */\n      0x20\n        /* \"#utility.yul\":19228:19234   */\n      dup3\n        /* \"#utility.yul\":19224:19239   */\n      add\n        /* \"#utility.yul\":19217:19252   */\n      mstore\n        /* \"#utility.yul\":19032:19259   */\n      pop\n      jump\t// out\n        /* \"#utility.yul\":19265:19631   */\n    tag_559:\n        /* \"#utility.yul\":19407:19410   */\n      0x00\n        /* \"#utility.yul\":19428:19495   */\n      tag_830\n        /* \"#utility.yul\":19492:19494   */\n      0x28\n        /* \"#utility.yul\":19487:19490   */\n      dup4\n        /* \"#utility.yul\":19428:19495   */\n      tag_548\n      jump\t// in\n    tag_830:\n        /* \"#utility.yul\":19421:19495   */\n      swap2\n      pop\n        /* \"#utility.yul\":19504:19597   */\n      tag_831\n        /* \"#utility.yul\":19593:19596   */\n      dup3\n        /* \"#utility.yul\":19504:19597   */\n      tag_558\n      jump\t// in\n    tag_831:\n        /* \"#utility.yul\":19622:19624   */\n      0x40\n        /* \"#utility.yul\":19617:19620   */\n      dup3\n        /* \"#utility.yul\":19613:19625   */\n      add\n        /* \"#utility.yul\":19606:19625   */\n      swap1\n      pop\n        /* \"#utility.yul\":19265:19631   */\n      swap2\n      swap1\n      pop\n      jump\t// out\n        /* \"#utility.yul\":19637:20056   */\n    tag_183:\n        /* \"#utility.yul\":19803:19807   */\n      0x00\n        /* \"#utility.yul\":19841:19843   */\n      0x20\n        /* \"#utility.yul\":19830:19839   */\n      dup3\n        /* \"#utility.yul\":19826:19844   */\n      add\n        /* \"#utility.yul\":19818:19844   */\n      swap1\n      pop\n        /* \"#utility.yul\":19890:19899   */\n      dup2\n        /* \"#utility.yul\":19884:19888   */\n      dup2\n        /* \"#utility.yul\":19880:19900   */\n      sub\n        /* \"#utility.yul\":19876:19877   */\n      0x00\n        /* \"#utility.yul\":19865:19874   */\n      dup4\n        /* \"#utility.yul\":19861:19878   */\n      add\n        /* \"#utility.yul\":19854:19901   */\n      mstore\n        /* \"#utility.yul\":19918:20049   */\n      tag_833\n        /* \"#utility.yul\":20044:20048   */\n      dup2\n        /* \"#utility.yul\":19918:20049   */\n      tag_559\n      jump\t// in\n    tag_833:\n        /* \"#utility.yul\":19910:20049   */\n      swap1\n      pop\n        /* \"#utility.yul\":19637:20056   */\n      swap2\n      swap1\n      pop\n      jump\t// out\n        /* \"#utility.yul\":20062:20209   */\n    tag_560:\n        /* \"#utility.yul\":20163:20174   */\n      0x00\n        /* \"#utility.yul\":20200:20203   */\n      dup2\n        /* \"#utility.yul\":20185:20203   */\n      swap1\n      pop\n        /* \"#utility.yul\":20062:20209   */\n      swap3\n      swap2\n      pop\n      pop\n      jump\t// out\n        /* \"#utility.yul\":20215:20329   */\n    tag_561:\n      pop\n      jump\t// out\n        /* \"#utility.yul\":20335:20733   */\n    tag_562:\n        /* \"#utility.yul\":20494:20497   */\n      0x00\n        /* \"#utility.yul\":20515:20598   */\n      tag_837\n        /* \"#utility.yul\":20596:20597   */\n      0x00\n        /* \"#utility.yul\":20591:20594   */\n      dup4\n        /* \"#utility.yul\":20515:20598   */\n      tag_560\n      jump\t// in\n    tag_837:\n        /* \"#utility.yul\":20508:20598   */\n      swap2\n      pop\n        /* \"#utility.yul\":20607:20700   */\n      tag_838\n        /* \"#utility.yul\":20696:20699   */\n      dup3\n        /* \"#utility.yul\":20607:20700   */\n      tag_561\n      jump\t// in\n    tag_838:\n        /* \"#utility.yul\":20725:20726   */\n      0x00\n        /* \"#utility.yul\":20720:20723   */\n      dup3\n        /* \"#utility.yul\":20716:20727   */\n      add\n        /* \"#utility.yul\":20709:20727   */\n      swap1\n      pop\n        /* \"#utility.yul\":20335:20733   */\n      swap2\n      swap1\n      pop\n      jump\t// out\n        /* \"#utility.yul\":20739:21118   */\n    tag_186:\n        /* \"#utility.yul\":20923:20926   */\n      0x00\n        /* \"#utility.yul\":20945:21092   */\n      tag_840\n        /* \"#utility.yul\":21088:21091   */\n      dup3\n        /* \"#utility.yul\":20945:21092   */\n      tag_562\n      jump\t// in\n    tag_840:\n        /* \"#utility.yul\":20938:21092   */\n      swap2\n      pop\n        /* \"#utility.yul\":21109:21112   */\n      dup2\n        /* \"#utility.yul\":21102:21112   */\n      swap1\n      pop\n        /* \"#utility.yul\":20739:21118   */\n      swap2\n      swap1\n      pop\n      jump\t// out\n        /* \"#utility.yul\":21124:21293   */\n    tag_563:\n        /* \"#utility.yul\":21264:21285   */\n      0x4661696c656420746f2073656e64204d414e4400000000000000000000000000\n        /* \"#utility.yul\":21260:21261   */\n      0x00\n        /* \"#utility.yul\":21252:21258   */\n      dup3\n        /* \"#utility.yul\":21248:21262   */\n      add\n        /* \"#utility.yul\":21241:21286   */\n      mstore\n        /* \"#utility.yul\":21124:21293   */\n      pop\n      jump\t// out\n        /* \"#utility.yul\":21299:21665   */\n    tag_564:\n        /* \"#utility.yul\":21441:21444   */\n      0x00\n        /* \"#utility.yul\":21462:21529   */\n      tag_843\n        /* \"#utility.yul\":21526:21528   */\n      0x13\n        /* \"#utility.yul\":21521:21524   */\n      dup4\n        /* \"#utility.yul\":21462:21529   */\n      tag_548\n      jump\t// in\n    tag_843:\n        /* \"#utility.yul\":21455:21529   */\n      swap2\n      pop\n        /* \"#utility.yul\":21538:21631   */\n      tag_844\n        /* \"#utility.yul\":21627:21630   */\n      dup3\n        /* \"#utility.yul\":21538:21631   */\n      tag_563\n      jump\t// in\n    tag_844:\n        /* \"#utility.yul\":21656:21658   */\n      0x20\n        /* \"#utility.yul\":21651:21654   */\n      dup3\n        /* \"#utility.yul\":21647:21659   */\n      add\n        /* \"#utility.yul\":21640:21659   */\n      swap1\n      pop\n        /* \"#utility.yul\":21299:21665   */\n      swap2\n      swap1\n      pop\n      jump\t// out\n        /* \"#utility.yul\":21671:22090   */\n    tag_192:\n        /* \"#utility.yul\":21837:21841   */\n      0x00\n        /* \"#utility.yul\":21875:21877   */\n      0x20\n        /* \"#utility.yul\":21864:21873   */\n      dup3\n        /* \"#utility.yul\":21860:21878   */\n      add\n        /* \"#utility.yul\":21852:21878   */\n      swap1\n      pop\n        /* \"#utility.yul\":21924:21933   */\n      dup2\n        /* \"#utility.yul\":21918:21922   */\n      dup2\n        /* \"#utility.yul\":21914:21934   */\n      sub\n        /* \"#utility.yul\":21910:21911   */\n      0x00\n        /* \"#utility.yul\":21899:21908   */\n      dup4\n        /* \"#utility.yul\":21895:21912   */\n      add\n        /* \"#utility.yul\":21888:21935   */\n      mstore\n        /* \"#utility.yul\":21952:22083   */\n      tag_846\n        /* \"#utility.yul\":22078:22082   */\n      dup2\n        /* \"#utility.yul\":21952:22083   */\n      tag_564\n      jump\t// in\n    tag_846:\n        /* \"#utility.yul\":21944:22083   */\n      swap1\n      pop\n        /* \"#utility.yul\":21671:22090   */\n      swap2\n      swap1\n      pop\n      jump\t// out\n        /* \"#utility.yul\":22096:22278   */\n    tag_565:\n        /* \"#utility.yul\":22236:22270   */\n      0x55736572206e6f7420656e726f6c6c656420696e207468697320636f75727365\n        /* \"#utility.yul\":22232:22233   */\n      0x00\n        /* \"#utility.yul\":22224:22230   */\n      dup3\n        /* \"#utility.yul\":22220:22234   */\n      add\n        /* \"#utility.yul\":22213:22271   */\n      mstore\n        /* \"#utility.yul\":22096:22278   */\n      pop\n      jump\t// out\n        /* \"#utility.yul\":22284:22650   */\n    tag_566:\n        /* \"#utility.yul\":22426:22429   */\n      0x00\n        /* \"#utility.yul\":22447:22514   */\n      tag_849\n        /* \"#utility.yul\":22511:22513   */\n      0x20\n        /* \"#utility.yul\":22506:22509   */\n      dup4\n        /* \"#utility.yul\":22447:22514   */\n      tag_548\n      jump\t// in\n    tag_849:\n        /* \"#utility.yul\":22440:22514   */\n      swap2\n      pop\n        /* \"#utility.yul\":22523:22616   */\n      tag_850\n        /* \"#utility.yul\":22612:22615   */\n      dup3\n        /* \"#utility.yul\":22523:22616   */\n      tag_565\n      jump\t// in\n    tag_850:\n        /* \"#utility.yul\":22641:22643   */\n      0x20\n        /* \"#utility.yul\":22636:22639   */\n      dup3\n        /* \"#utility.yul\":22632:22644   */\n      add\n        /* \"#utility.yul\":22625:22644   */\n      swap1\n      pop\n        /* \"#utility.yul\":22284:22650   */\n      swap2\n      swap1\n      pop\n      jump\t// out\n        /* \"#utility.yul\":22656:23075   */\n    tag_212:\n        /* \"#utility.yul\":22822:22826   */\n      0x00\n        /* \"#utility.yul\":22860:22862   */\n      0x20\n        /* \"#utility.yul\":22849:22858   */\n      dup3\n        /* \"#utility.yul\":22845:22863   */\n      add\n        /* \"#utility.yul\":22837:22863   */\n      swap1\n      pop\n        /* \"#utility.yul\":22909:22918   */\n      dup2\n        /* \"#utility.yul\":22903:22907   */\n      dup2\n        /* \"#utility.yul\":22899:22919   */\n      sub\n        /* \"#utility.yul\":22895:22896   */\n      0x00\n        /* \"#utility.yul\":22884:22893   */\n      dup4\n        /* \"#utility.yul\":22880:22897   */\n      add\n        /* \"#utility.yul\":22873:22920   */\n      mstore\n        /* \"#utility.yul\":22937:23068   */\n      tag_852\n        /* \"#utility.yul\":23063:23067   */\n      dup2\n        /* \"#utility.yul\":22937:23068   */\n      tag_566\n      jump\t// in\n    tag_852:\n        /* \"#utility.yul\":22929:23068   */\n      swap1\n      pop\n        /* \"#utility.yul\":22656:23075   */\n      swap2\n      swap1\n      pop\n      jump\t// out\n        /* \"#utility.yul\":23081:23255   */\n    tag_567:\n        /* \"#utility.yul\":23221:23247   */\n      0x4d6178696d756d20617474656d70747320726561636865640000000000000000\n        /* \"#utility.yul\":23217:23218   */\n      0x00\n        /* \"#utility.yul\":23209:23215   */\n      dup3\n        /* \"#utility.yul\":23205:23219   */\n      add\n        /* \"#utility.yul\":23198:23248   */\n      mstore\n        /* \"#utility.yul\":23081:23255   */\n      pop\n      jump\t// out\n        /* \"#utility.yul\":23261:23627   */\n    tag_568:\n        /* \"#utility.yul\":23403:23406   */\n      0x00\n        /* \"#utility.yul\":23424:23491   */\n      tag_855\n        /* \"#utility.yul\":23488:23490   */\n      0x18\n        /* \"#utility.yul\":23483:23486   */\n      dup4\n        /* \"#utility.yul\":23424:23491   */\n      tag_548\n      jump\t// in\n    tag_855:\n        /* \"#utility.yul\":23417:23491   */\n      swap2\n      pop\n        /* \"#utility.yul\":23500:23593   */\n      tag_856\n        /* \"#utility.yul\":23589:23592   */\n      dup3\n        /* \"#utility.yul\":23500:23593   */\n      tag_567\n      jump\t// in\n    tag_856:\n        /* \"#utility.yul\":23618:23620   */\n      0x20\n        /* \"#utility.yul\":23613:23616   */\n      dup3\n        /* \"#utility.yul\":23609:23621   */\n      add\n        /* \"#utility.yul\":23602:23621   */\n      swap1\n      pop\n        /* \"#utility.yul\":23261:23627   */\n      swap2\n      swap1\n      pop\n      jump\t// out\n        /* \"#utility.yul\":23633:24052   */\n    tag_215:\n        /* \"#utility.yul\":23799:23803   */\n      0x00\n        /* \"#utility.yul\":23837:23839   */\n      0x20\n        /* \"#utility.yul\":23826:23835   */\n      dup3\n        /* \"#utility.yul\":23822:23840   */\n      add\n        /* \"#utility.yul\":23814:23840   */\n      swap1\n      pop\n        /* \"#utility.yul\":23886:23895   */\n      dup2\n        /* \"#utility.yul\":23880:23884   */\n      dup2\n        /* \"#utility.yul\":23876:23896   */\n      sub\n        /* \"#utility.yul\":23872:23873   */\n      0x00\n        /* \"#utility.yul\":23861:23870   */\n      dup4\n        /* \"#utility.yul\":23857:23874   */\n      add\n        /* \"#utility.yul\":23850:23897   */\n      mstore\n        /* \"#utility.yul\":23914:24045   */\n      tag_858\n        /* \"#utility.yul\":24040:24044   */\n      dup2\n        /* \"#utility.yul\":23914:24045   */\n      tag_568\n      jump\t// in\n    tag_858:\n        /* \"#utility.yul\":23906:24045   */\n      swap1\n      pop\n        /* \"#utility.yul\":23633:24052   */\n      swap2\n      swap1\n      pop\n      jump\t// out\n        /* \"#utility.yul\":24058:24280   */\n    tag_569:\n        /* \"#utility.yul\":24198:24232   */\n      0x557365722068617320616c726561647920706173736564207468697320636f75\n        /* \"#utility.yul\":24194:24195   */\n      0x00\n        /* \"#utility.yul\":24186:24192   */\n      dup3\n        /* \"#utility.yul\":24182:24196   */\n      add\n        /* \"#utility.yul\":24175:24233   */\n      mstore\n        /* \"#utility.yul\":24267:24272   */\n      0x7273650000000000000000000000000000000000000000000000000000000000\n        /* \"#utility.yul\":24262:24264   */\n      0x20\n        /* \"#utility.yul\":24254:24260   */\n      dup3\n        /* \"#utility.yul\":24250:24265   */\n      add\n        /* \"#utility.yul\":24243:24273   */\n      mstore\n        /* \"#utility.yul\":24058:24280   */\n      pop\n      jump\t// out\n        /* \"#utility.yul\":24286:24652   */\n    tag_570:\n        /* \"#utility.yul\":24428:24431   */\n      0x00\n        /* \"#utility.yul\":24449:24516   */\n      tag_861\n        /* \"#utility.yul\":24513:24515   */\n      0x23\n        /* \"#utility.yul\":24508:24511   */\n      dup4\n        /* \"#utility.yul\":24449:24516   */\n      tag_548\n      jump\t// in\n    tag_861:\n        /* \"#utility.yul\":24442:24516   */\n      swap2\n      pop\n        /* \"#utility.yul\":24525:24618   */\n      tag_862\n        /* \"#utility.yul\":24614:24617   */\n      dup3\n        /* \"#utility.yul\":24525:24618   */\n      tag_569\n      jump\t// in\n    tag_862:\n        /* \"#utility.yul\":24643:24645   */\n      0x40\n        /* \"#utility.yul\":24638:24641   */\n      dup3\n        /* \"#utility.yul\":24634:24646   */\n      add\n        /* \"#utility.yul\":24627:24646   */\n      swap1\n      pop\n        /* \"#utility.yul\":24286:24652   */\n      swap2\n      swap1\n      pop\n      jump\t// out\n        /* \"#utility.yul\":24658:25077   */\n    tag_218:\n        /* \"#utility.yul\":24824:24828   */\n      0x00\n        /* \"#utility.yul\":24862:24864   */\n      0x20\n        /* \"#utility.yul\":24851:24860   */\n      dup3\n        /* \"#utility.yul\":24847:24865   */\n      add\n        /* \"#utility.yul\":24839:24865   */\n      swap1\n      pop\n        /* \"#utility.yul\":24911:24920   */\n      dup2\n        /* \"#utility.yul\":24905:24909   */\n      dup2\n        /* \"#utility.yul\":24901:24921   */\n      sub\n        /* \"#utility.yul\":24897:24898   */\n      0x00\n        /* \"#utility.yul\":24886:24895   */\n      dup4\n        /* \"#utility.yul\":24882:24899   */\n      add\n        /* \"#utility.yul\":24875:24922   */\n      mstore\n        /* \"#utility.yul\":24939:25070   */\n      tag_864\n        /* \"#utility.yul\":25065:25069   */\n      dup2\n        /* \"#utility.yul\":24939:25070   */\n      tag_570\n      jump\t// in\n    tag_864:\n        /* \"#utility.yul\":24931:25070   */\n      swap1\n      pop\n        /* \"#utility.yul\":24658:25077   */\n      swap2\n      swap1\n      pop\n      jump\t// out\n        /* \"#utility.yul\":25083:25250   */\n    tag_220:\n        /* \"#utility.yul\":25120:25123   */\n      0x00\n        /* \"#utility.yul\":25143:25165   */\n      tag_866\n        /* \"#utility.yul\":25159:25164   */\n      dup3\n        /* \"#utility.yul\":25143:25165   */\n      tag_524\n      jump\t// in\n    tag_866:\n        /* \"#utility.yul\":25134:25165   */\n      swap2\n      pop\n        /* \"#utility.yul\":25187:25191   */\n      0xff\n        /* \"#utility.yul\":25180:25185   */\n      dup3\n        /* \"#utility.yul\":25177:25192   */\n      sub\n        /* \"#utility.yul\":25174:25215   */\n      tag_867\n      jumpi\n        /* \"#utility.yul\":25195:25213   */\n      tag_868\n      tag_555\n      jump\t// in\n    tag_868:\n        /* \"#utility.yul\":25174:25215   */\n    tag_867:\n        /* \"#utility.yul\":25242:25243   */\n      0x01\n        /* \"#utility.yul\":25235:25240   */\n      dup3\n        /* \"#utility.yul\":25231:25244   */\n      add\n        /* \"#utility.yul\":25224:25244   */\n      swap1\n      pop\n        /* \"#utility.yul\":25083:25250   */\n      swap2\n      swap1\n      pop\n      jump\t// out\n        /* \"#utility.yul\":25256:25436   */\n    tag_571:\n        /* \"#utility.yul\":25304:25381   */\n      0x4e487b7100000000000000000000000000000000000000000000000000000000\n        /* \"#utility.yul\":25301:25302   */\n      0x00\n        /* \"#utility.yul\":25294:25382   */\n      mstore\n        /* \"#utility.yul\":25401:25405   */\n      0x22\n        /* \"#utility.yul\":25398:25399   */\n      0x04\n        /* \"#utility.yul\":25391:25406   */\n      mstore\n        /* \"#utility.yul\":25425:25429   */\n      0x24\n        /* \"#utility.yul\":25422:25423   */\n      0x00\n        /* \"#utility.yul\":25415:25430   */\n      revert\n        /* \"#utility.yul\":25442:25762   */\n    tag_225:\n        /* \"#utility.yul\":25486:25492   */\n      0x00\n        /* \"#utility.yul\":25523:25524   */\n      0x02\n        /* \"#utility.yul\":25517:25521   */\n      dup3\n        /* \"#utility.yul\":25513:25525   */\n      div\n        /* \"#utility.yul\":25503:25525   */\n      swap1\n      pop\n        /* \"#utility.yul\":25570:25571   */\n      0x01\n        /* \"#utility.yul\":25564:25568   */\n      dup3\n        /* \"#utility.yul\":25560:25572   */\n      and\n        /* \"#utility.yul\":25591:25609   */\n      dup1\n        /* \"#utility.yul\":25581:25662   */\n      tag_871\n      jumpi\n        /* \"#utility.yul\":25647:25651   */\n      0x7f\n        /* \"#utility.yul\":25639:25645   */\n      dup3\n        /* \"#utility.yul\":25635:25652   */\n      and\n        /* \"#utility.yul\":25625:25652   */\n      swap2\n      pop\n        /* \"#utility.yul\":25581:25662   */\n    tag_871:\n        /* \"#utility.yul\":25709:25711   */\n      0x20\n        /* \"#utility.yul\":25701:25707   */\n      dup3\n        /* \"#utility.yul\":25698:25712   */\n      lt\n        /* \"#utility.yul\":25678:25696   */\n      dup2\n        /* \"#utility.yul\":25675:25713   */\n      sub\n        /* \"#utility.yul\":25672:25756   */\n      tag_872\n      jumpi\n        /* \"#utility.yul\":25728:25746   */\n      tag_873\n      tag_571\n      jump\t// in\n    tag_873:\n        /* \"#utility.yul\":25672:25756   */\n    tag_872:\n        /* \"#utility.yul\":25493:25762   */\n      pop\n        /* \"#utility.yul\":25442:25762   */\n      swap2\n      swap1\n      pop\n      jump\t// out\n        /* \"#utility.yul\":25768:25939   */\n    tag_572:\n        /* \"#utility.yul\":25908:25931   */\n      0x416e7377657220636f756e74206d69736d617463680000000000000000000000\n        /* \"#utility.yul\":25904:25905   */\n      0x00\n        /* \"#utility.yul\":25896:25902   */\n      dup3\n        /* \"#utility.yul\":25892:25906   */\n      add\n        /* \"#utility.yul\":25885:25932   */\n      mstore\n        /* \"#utility.yul\":25768:25939   */\n      pop\n      jump\t// out\n        /* \"#utility.yul\":25945:26311   */\n    tag_573:\n        /* \"#utility.yul\":26087:26090   */\n      0x00\n        /* \"#utility.yul\":26108:26175   */\n      tag_876\n        /* \"#utility.yul\":26172:26174   */\n      0x15\n        /* \"#utility.yul\":26167:26170   */\n      dup4\n        /* \"#utility.yul\":26108:26175   */\n      tag_548\n      jump\t// in\n    tag_876:\n        /* \"#utility.yul\":26101:26175   */\n      swap2\n      pop\n        /* \"#utility.yul\":26184:26277   */\n      tag_877\n        /* \"#utility.yul\":26273:26276   */\n      dup3\n        /* \"#utility.yul\":26184:26277   */\n      tag_572\n      jump\t// in\n    tag_877:\n        /* \"#utility.yul\":26302:26304   */\n      0x20\n        /* \"#utility.yul\":26297:26300   */\n      dup3\n        /* \"#utility.yul\":26293:26305   */\n      add\n        /* \"#utility.yul\":26286:26305   */\n      swap1\n      pop\n        /* \"#utility.yul\":25945:26311   */\n      swap2\n      swap1\n      pop\n      jump\t// out\n        /* \"#utility.yul\":26317:26736   */\n    tag_252:\n        /* \"#utility.yul\":26483:26487   */\n      0x00\n        /* \"#utility.yul\":26521:26523   */\n      0x20\n        /* \"#utility.yul\":26510:26519   */\n      dup3\n        /* \"#utility.yul\":26506:26524   */\n      add\n        /* \"#utility.yul\":26498:26524   */\n      swap1\n      pop\n        /* \"#utility.yul\":26570:26579   */\n      dup2\n        /* \"#utility.yul\":26564:26568   */\n      dup2\n        /* \"#utility.yul\":26560:26580   */\n      sub\n        /* \"#utility.yul\":26556:26557   */\n      0x00\n        /* \"#utility.yul\":26545:26554   */\n      dup4\n        /* \"#utility.yul\":26541:26558   */\n      add\n        /* \"#utility.yul\":26534:26581   */\n      mstore\n        /* \"#utility.yul\":26598:26729   */\n      tag_879\n        /* \"#utility.yul\":26724:26728   */\n      dup2\n        /* \"#utility.yul\":26598:26729   */\n      tag_573\n      jump\t// in\n    tag_879:\n        /* \"#utility.yul\":26590:26729   */\n      swap1\n      pop\n        /* \"#utility.yul\":26317:26736   */\n      swap2\n      swap1\n      pop\n      jump\t// out\n        /* \"#utility.yul\":26742:26922   */\n    tag_258:\n        /* \"#utility.yul\":26790:26867   */\n      0x4e487b7100000000000000000000000000000000000000000000000000000000\n        /* \"#utility.yul\":26787:26788   */\n      0x00\n        /* \"#utility.yul\":26780:26868   */\n      mstore\n        /* \"#utility.yul\":26887:26891   */\n      0x32\n        /* \"#utility.yul\":26884:26885   */\n      0x04\n        /* \"#utility.yul\":26877:26892   */\n      mstore\n        /* \"#utility.yul\":26911:26915   */\n      0x24\n        /* \"#utility.yul\":26908:26909   */\n      0x00\n        /* \"#utility.yul\":26901:26916   */\n      revert\n        /* \"#utility.yul\":26928:27076   */\n    tag_574:\n        /* \"#utility.yul\":27030:27041   */\n      0x00\n        /* \"#utility.yul\":27067:27070   */\n      dup2\n        /* \"#utility.yul\":27052:27070   */\n      swap1\n      pop\n        /* \"#utility.yul\":26928:27076   */\n      swap3\n      swap2\n      pop\n      pop\n      jump\t// out\n        /* \"#utility.yul\":27082:27472   */\n    tag_575:\n        /* \"#utility.yul\":27188:27191   */\n      0x00\n        /* \"#utility.yul\":27216:27255   */\n      tag_883\n        /* \"#utility.yul\":27249:27254   */\n      dup3\n        /* \"#utility.yul\":27216:27255   */\n      tag_547\n      jump\t// in\n    tag_883:\n        /* \"#utility.yul\":27271:27360   */\n      tag_884\n        /* \"#utility.yul\":27353:27359   */\n      dup2\n        /* \"#utility.yul\":27348:27351   */\n      dup6\n        /* \"#utility.yul\":27271:27360   */\n      tag_574\n      jump\t// in\n    tag_884:\n        /* \"#utility.yul\":27264:27360   */\n      swap4\n      pop\n        /* \"#utility.yul\":27369:27434   */\n      tag_885\n        /* \"#utility.yul\":27427:27433   */\n      dup2\n        /* \"#utility.yul\":27422:27425   */\n      dup6\n        /* \"#utility.yul\":27415:27419   */\n      0x20\n        /* \"#utility.yul\":27408:27413   */\n      dup7\n        /* \"#utility.yul\":27404:27420   */\n      add\n        /* \"#utility.yul\":27369:27434   */\n      tag_549\n      jump\t// in\n    tag_885:\n        /* \"#utility.yul\":27459:27465   */\n      dup1\n        /* \"#utility.yul\":27454:27457   */\n      dup5\n        /* \"#utility.yul\":27450:27466   */\n      add\n        /* \"#utility.yul\":27443:27466   */\n      swap2\n      pop\n        /* \"#utility.yul\":27192:27472   */\n      pop\n        /* \"#utility.yul\":27082:27472   */\n      swap3\n      swap2\n      pop\n      pop\n      jump\t// out\n        /* \"#utility.yul\":27478:27753   */\n    tag_262:\n        /* \"#utility.yul\":27610:27613   */\n      0x00\n        /* \"#utility.yul\":27632:27727   */\n      tag_887\n        /* \"#utility.yul\":27723:27726   */\n      dup3\n        /* \"#utility.yul\":27714:27720   */\n      dup5\n        /* \"#utility.yul\":27632:27727   */\n      tag_575\n      jump\t// in\n    tag_887:\n        /* \"#utility.yul\":27625:27727   */\n      swap2\n      pop\n        /* \"#utility.yul\":27744:27747   */\n      dup2\n        /* \"#utility.yul\":27737:27747   */\n      swap1\n      pop\n        /* \"#utility.yul\":27478:27753   */\n      swap3\n      swap2\n      pop\n      pop\n      jump\t// out\n        /* \"#utility.yul\":27759:27992   */\n    tag_266:\n        /* \"#utility.yul\":27798:27801   */\n      0x00\n        /* \"#utility.yul\":27821:27845   */\n      tag_889\n        /* \"#utility.yul\":27839:27844   */\n      dup3\n        /* \"#utility.yul\":27821:27845   */\n      tag_515\n      jump\t// in\n    tag_889:\n        /* \"#utility.yul\":27812:27845   */\n      swap2\n      pop\n        /* \"#utility.yul\":27867:27933   */\n      0xffffffffffffffffffffffffffffffffffffffffffffffffffffffffffffffff\n        /* \"#utility.yul\":27860:27865   */\n      dup3\n        /* \"#utility.yul\":27857:27934   */\n      sub\n        /* \"#utility.yul\":27854:27957   */\n      tag_890\n      jumpi\n        /* \"#utility.yul\":27937:27955   */\n      tag_891\n      tag_555\n      jump\t// in\n    tag_891:\n        /* \"#utility.yul\":27854:27957   */\n    tag_890:\n        /* \"#utility.yul\":27984:27985   */\n      0x01\n        /* \"#utility.yul\":27977:27982   */\n      dup3\n        /* \"#utility.yul\":27973:27986   */\n      add\n        /* \"#utility.yul\":27966:27986   */\n      swap1\n      pop\n        /* \"#utility.yul\":27759:27992   */\n      swap2\n      swap1\n      pop\n      jump\t// out\n        /* \"#utility.yul\":27998:28141   */\n    tag_576:\n        /* \"#utility.yul\":28055:28060   */\n      0x00\n        /* \"#utility.yul\":28086:28092   */\n      dup2\n        /* \"#utility.yul\":28080:28093   */\n      mload\n        /* \"#utility.yul\":28071:28093   */\n      swap1\n      pop\n        /* \"#utility.yul\":28102:28135   */\n      tag_893\n        /* \"#utility.yul\":28129:28134   */\n      dup2\n        /* \"#utility.yul\":28102:28135   */\n      tag_516\n      jump\t// in\n    tag_893:\n        /* \"#utility.yul\":27998:28141   */\n      swap3\n      swap2\n      pop\n      pop\n      jump\t// out\n        /* \"#utility.yul\":28147:28498   */\n    tag_283:\n        /* \"#utility.yul\":28217:28223   */\n      0x00\n        /* \"#utility.yul\":28266:28268   */\n      0x20\n        /* \"#utility.yul\":28254:28263   */\n      dup3\n        /* \"#utility.yul\":28245:28252   */\n      dup5\n        /* \"#utility.yul\":28241:28264   */\n      sub\n        /* \"#utility.yul\":28237:28269   */\n      slt\n        /* \"#utility.yul\":28234:28353   */\n      iszero\n      tag_895\n      jumpi\n        /* \"#utility.yul\":28272:28351   */\n      tag_896\n      tag_513\n      jump\t// in\n    tag_896:\n        /* \"#utility.yul\":28234:28353   */\n    tag_895:\n        /* \"#utility.yul\":28392:28393   */\n      0x00\n        /* \"#utility.yul\":28417:28481   */\n      tag_897\n        /* \"#utility.yul\":28473:28480   */\n      dup5\n        /* \"#utility.yul\":28464:28470   */\n      dup3\n        /* \"#utility.yul\":28453:28462   */\n      dup6\n        /* \"#utility.yul\":28449:28471   */\n      add\n        /* \"#utility.yul\":28417:28481   */\n      tag_576\n      jump\t// in\n    tag_897:\n        /* \"#utility.yul\":28407:28481   */\n      swap2\n      pop\n        /* \"#utility.yul\":28363:28491   */\n      pop\n        /* \"#utility.yul\":28147:28498   */\n      swap3\n      swap2\n      pop\n      pop\n      jump\t// out\n        /* \"#utility.yul\":28504:28724   */\n    tag_577:\n        /* \"#utility.yul\":28644:28678   */\n      0x496e73756666696369656e742072657075746174696f6e20746f20656e726f6c\n        /* \"#utility.yul\":28640:28641   */\n      0x00\n        /* \"#utility.yul\":28632:28638   */\n      dup3\n        /* \"#utility.yul\":28628:28642   */\n      add\n        /* \"#utility.yul\":28621:28679   */\n      mstore\n        /* \"#utility.yul\":28713:28716   */\n      0x6c00000000000000000000000000000000000000000000000000000000000000\n        /* \"#utility.yul\":28708:28710   */\n      0x20\n        /* \"#utility.yul\":28700:28706   */\n      dup3\n        /* \"#utility.yul\":28696:28711   */\n      add\n        /* \"#utility.yul\":28689:28717   */\n      mstore\n        /* \"#utility.yul\":28504:28724   */\n      pop\n      jump\t// out\n        /* \"#utility.yul\":28730:29096   */\n    tag_578:\n        /* \"#utility.yul\":28872:28875   */\n      0x00\n        /* \"#utility.yul\":28893:28960   */\n      tag_900\n        /* \"#utility.yul\":28957:28959   */\n      0x21\n        /* \"#utility.yul\":28952:28955   */\n      dup4\n        /* \"#utility.yul\":28893:28960   */\n      tag_548\n      jump\t// in\n    tag_900:\n        /* \"#utility.yul\":28886:28960   */\n      swap2\n      pop\n        /* \"#utility.yul\":28969:29062   */\n      tag_901\n        /* \"#utility.yul\":29058:29061   */\n      dup3\n        /* \"#utility.yul\":28969:29062   */\n      tag_577\n      jump\t// in\n    tag_901:\n        /* \"#utility.yul\":29087:29089   */\n      0x40\n        /* \"#utility.yul\":29082:29085   */\n      dup3\n        /* \"#utility.yul\":29078:29090   */\n      add\n        /* \"#utility.yul\":29071:29090   */\n      swap1\n      pop\n        /* \"#utility.yul\":28730:29096   */\n      swap2\n      swap1\n      pop\n      jump\t// out\n        /* \"#utility.yul\":29102:29521   */\n    tag_286:\n        /* \"#utility.yul\":29268:29272   */\n      0x00\n        /* \"#utility.yul\":29306:29308   */\n      0x20\n        /* \"#utility.yul\":29295:29304   */\n      dup3\n        /* \"#utility.yul\":29291:29309   */\n      add\n        /* \"#utility.yul\":29283:29309   */\n      swap1\n      pop\n        /* \"#utility.yul\":29355:29364   */\n      dup2\n        /* \"#utility.yul\":29349:29353   */\n      dup2\n        /* \"#utility.yul\":29345:29365   */\n      sub\n        /* \"#utility.yul\":29341:29342   */\n      0x00\n        /* \"#utility.yul\":29330:29339   */\n      dup4\n        /* \"#utility.yul\":29326:29343   */\n      add\n        /* \"#utility.yul\":29319:29366   */\n      mstore\n        /* \"#utility.yul\":29383:29514   */\n      tag_903\n        /* \"#utility.yul\":29509:29513   */\n      dup2\n        /* \"#utility.yul\":29383:29514   */\n      tag_578\n      jump\t// in\n    tag_903:\n        /* \"#utility.yul\":29375:29514   */\n      swap1\n      pop\n        /* \"#utility.yul\":29102:29521   */\n      swap2\n      swap1\n      pop\n      jump\t// out\n        /* \"#utility.yul\":29527:29696   */\n    tag_579:\n        /* \"#utility.yul\":29667:29688   */\n      0x436f75727365206e6f7420617070726f76656400000000000000000000000000\n        /* \"#utility.yul\":29663:29664   */\n      0x00\n        /* \"#utility.yul\":29655:29661   */\n      dup3\n        /* \"#utility.yul\":29651:29665   */\n      add\n        /* \"#utility.yul\":29644:29689   */\n      mstore\n        /* \"#utility.yul\":29527:29696   */\n      pop\n      jump\t// out\n        /* \"#utility.yul\":29702:30068   */\n    tag_580:\n        /* \"#utility.yul\":29844:29847   */\n      0x00\n        /* \"#utility.yul\":29865:29932   */\n      tag_906\n        /* \"#utility.yul\":29929:29931   */\n      0x13\n        /* \"#utility.yul\":29924:29927   */\n      dup4\n        /* \"#utility.yul\":29865:29932   */\n      tag_548\n      jump\t// in\n    tag_906:\n        /* \"#utility.yul\":29858:29932   */\n      swap2\n      pop\n        /* \"#utility.yul\":29941:30034   */\n      tag_907\n        /* \"#utility.yul\":30030:30033   */\n      dup3\n        /* \"#utility.yul\":29941:30034   */\n      tag_579\n      jump\t// in\n    tag_907:\n        /* \"#utility.yul\":30059:30061   */\n      0x20\n        /* \"#utility.yul\":30054:30057   */\n      dup3\n        /* \"#utility.yul\":30050:30062   */\n      add\n        /* \"#utility.yul\":30043:30062   */\n      swap1\n      pop\n        /* \"#utility.yul\":29702:30068   */\n      swap2\n      swap1\n      pop\n      jump\t// out\n        /* \"#utility.yul\":30074:30493   */\n    tag_289:\n        /* \"#utility.yul\":30240:30244   */\n      0x00\n        /* \"#utility.yul\":30278:30280   */\n      0x20\n        /* \"#utility.yul\":30267:30276   */\n      dup3\n        /* \"#utility.yul\":30263:30281   */\n      add\n        /* \"#utility.yul\":30255:30281   */\n      swap1\n      pop\n        /* \"#utility.yul\":30327:30336   */\n      dup2\n        /* \"#utility.yul\":30321:30325   */\n      dup2\n        /* \"#utility.yul\":30317:30337   */\n      sub\n        /* \"#utility.yul\":30313:30314   */\n      0x00\n        /* \"#utility.yul\":30302:30311   */\n      dup4\n        /* \"#utility.yul\":30298:30315   */\n      add\n        /* \"#utility.yul\":30291:30338   */\n      mstore\n        /* \"#utility.yul\":30355:30486   */\n      tag_909\n        /* \"#utility.yul\":30481:30485   */\n      dup2\n        /* \"#utility.yul\":30355:30486   */\n      tag_580\n      jump\t// in\n    tag_909:\n        /* \"#utility.yul\":30347:30486   */\n      swap1\n      pop\n        /* \"#utility.yul\":30074:30493   */\n      swap2\n      swap1\n      pop\n      jump\t// out\n        /* \"#utility.yul\":30499:30665   */\n    tag_581:\n        /* \"#utility.yul\":30639:30657   */\n      0x416c726561647920656e726f6c6c656400000000000000000000000000000000\n        /* \"#utility.yul\":30635:30636   */\n      0x00\n        /* \"#utility.yul\":30627:30633   */\n      dup3\n        /* \"#utility.yul\":30623:30637   */\n      add\n        /* \"#utility.yul\":30616:30658   */\n      mstore\n        /* \"#utility.yul\":30499:30665   */\n      pop\n      jump\t// out\n        /* \"#utility.yul\":30671:31037   */\n    tag_582:\n        /* \"#utility.yul\":30813:30816   */\n      0x00\n        /* \"#utility.yul\":30834:30901   */\n      tag_912\n        /* \"#utility.yul\":30898:30900   */\n      0x10\n        /* \"#utility.yul\":30893:30896   */\n      dup4\n        /* \"#utility.yul\":30834:30901   */\n      tag_548\n      jump\t// in\n    tag_912:\n        /* \"#utility.yul\":30827:30901   */\n      swap2\n      pop\n        /* \"#utility.yul\":30910:31003   */\n      tag_913\n        /* \"#utility.yul\":30999:31002   */\n      dup3\n        /* \"#utility.yul\":30910:31003   */\n      tag_581\n      jump\t// in\n    tag_913:\n        /* \"#utility.yul\":31028:31030   */\n      0x20\n        /* \"#utility.yul\":31023:31026   */\n      dup3\n        /* \"#utility.yul\":31019:31031   */\n      add\n        /* \"#utility.yul\":31012:31031   */\n      swap1\n      pop\n        /* \"#utility.yul\":30671:31037   */\n      swap2\n      swap1\n      pop\n      jump\t// out\n        /* \"#utility.yul\":31043:31462   */\n    tag_292:\n        /* \"#utility.yul\":31209:31213   */\n      0x00\n        /* \"#utility.yul\":31247:31249   */\n      0x20\n        /* \"#utility.yul\":31236:31245   */\n      dup3\n        /* \"#utility.yul\":31232:31250   */\n      add\n        /* \"#utility.yul\":31224:31250   */\n      swap1\n      pop\n        /* \"#utility.yul\":31296:31305   */\n      dup2\n        /* \"#utility.yul\":31290:31294   */\n      dup2\n        /* \"#utility.yul\":31286:31306   */\n      sub\n        /* \"#utility.yul\":31282:31283   */\n      0x00\n        /* \"#utility.yul\":31271:31280   */\n      dup4\n        /* \"#utility.yul\":31267:31284   */\n      add\n        /* \"#utility.yul\":31260:31307   */\n      mstore\n        /* \"#utility.yul\":31324:31455   */\n      tag_915\n        /* \"#utility.yul\":31450:31454   */\n      dup2\n        /* \"#utility.yul\":31324:31455   */\n      tag_582\n      jump\t// in\n    tag_915:\n        /* \"#utility.yul\":31316:31455   */\n      swap1\n      pop\n        /* \"#utility.yul\":31043:31462   */\n      swap2\n      swap1\n      pop\n      jump\t// out\n        /* \"#utility.yul\":31468:31641   */\n    tag_583:\n        /* \"#utility.yul\":31608:31633   */\n      0x436f7572736520616c726561647920617070726f766564000000000000000000\n        /* \"#utility.yul\":31604:31605   */\n      0x00\n        /* \"#utility.yul\":31596:31602   */\n      dup3\n        /* \"#utility.yul\":31592:31606   */\n      add\n        /* \"#utility.yul\":31585:31634   */\n      mstore\n        /* \"#utility.yul\":31468:31641   */\n      pop\n      jump\t// out\n        /* \"#utility.yul\":31647:32013   */\n    tag_584:\n        /* \"#utility.yul\":31789:31792   */\n      0x00\n        /* \"#utility.yul\":31810:31877   */\n      tag_918\n        /* \"#utility.yul\":31874:31876   */\n      0x17\n        /* \"#utility.yul\":31869:31872   */\n      dup4\n        /* \"#utility.yul\":31810:31877   */\n      tag_548\n      jump\t// in\n    tag_918:\n        /* \"#utility.yul\":31803:31877   */\n      swap2\n      pop\n        /* \"#utility.yul\":31886:31979   */\n      tag_919\n        /* \"#utility.yul\":31975:31978   */\n      dup3\n        /* \"#utility.yul\":31886:31979   */\n      tag_583\n      jump\t// in\n    tag_919:\n        /* \"#utility.yul\":32004:32006   */\n      0x20\n        /* \"#utility.yul\":31999:32002   */\n      dup3\n        /* \"#utility.yul\":31995:32007   */\n      add\n        /* \"#utility.yul\":31988:32007   */\n      swap1\n      pop\n        /* \"#utility.yul\":31647:32013   */\n      swap2\n      swap1\n      pop\n      jump\t// out\n        /* \"#utility.yul\":32019:32438   */\n    tag_304:\n        /* \"#utility.yul\":32185:32189   */\n      0x00\n        /* \"#utility.yul\":32223:32225   */\n      0x20\n        /* \"#utility.yul\":32212:32221   */\n      dup3\n        /* \"#utility.yul\":32208:32226   */\n      add\n        /* \"#utility.yul\":32200:32226   */\n      swap1\n      pop\n        /* \"#utility.yul\":32272:32281   */\n      dup2\n        /* \"#utility.yul\":32266:32270   */\n      dup2\n        /* \"#utility.yul\":32262:32282   */\n      sub\n        /* \"#utility.yul\":32258:32259   */\n      0x00\n        /* \"#utility.yul\":32247:32256   */\n      dup4\n        /* \"#utility.yul\":32243:32260   */\n      add\n        /* \"#utility.yul\":32236:32283   */\n      mstore\n        /* \"#utility.yul\":32300:32431   */\n      tag_921\n        /* \"#utility.yul\":32426:32430   */\n      dup2\n        /* \"#utility.yul\":32300:32431   */\n      tag_584\n      jump\t// in\n    tag_921:\n        /* \"#utility.yul\":32292:32431   */\n      swap1\n      pop\n        /* \"#utility.yul\":32019:32438   */\n      swap2\n      swap1\n      pop\n      jump\t// out\n        /* \"#utility.yul\":32444:32671   */\n    tag_585:\n        /* \"#utility.yul\":32584:32618   */\n      0x496e73756666696369656e742072657075746174696f6e20746f206372656174\n        /* \"#utility.yul\":32580:32581   */\n      0x00\n        /* \"#utility.yul\":32572:32578   */\n      dup3\n        /* \"#utility.yul\":32568:32582   */\n      add\n        /* \"#utility.yul\":32561:32619   */\n      mstore\n        /* \"#utility.yul\":32653:32663   */\n      0x6520636f75727365000000000000000000000000000000000000000000000000\n        /* \"#utility.yul\":32648:32650   */\n      0x20\n        /* \"#utility.yul\":32640:32646   */\n      dup3\n        /* \"#utility.yul\":32636:32651   */\n      add\n        /* \"#utility.yul\":32629:32664   */\n      mstore\n        /* \"#utility.yul\":32444:32671   */\n      pop\n      jump\t// out\n        /* \"#utility.yul\":32677:33043   */\n    tag_586:\n        /* \"#utility.yul\":32819:32822   */\n      0x00\n        /* \"#utility.yul\":32840:32907   */\n      tag_924\n        /* \"#utility.yul\":32904:32906   */\n      0x28\n        /* \"#utility.yul\":32899:32902   */\n      dup4\n        /* \"#utility.yul\":32840:32907   */\n      tag_548\n      jump\t// in\n    tag_924:\n        /* \"#utility.yul\":32833:32907   */\n      swap2\n      pop\n        /* \"#utility.yul\":32916:33009   */\n      tag_925\n        /* \"#utility.yul\":33005:33008   */\n      dup3\n        /* \"#utility.yul\":32916:33009   */\n      tag_585\n      jump\t// in\n    tag_925:\n        /* \"#utility.yul\":33034:33036   */\n      0x40\n        /* \"#utility.yul\":33029:33032   */\n      dup3\n        /* \"#utility.yul\":33025:33037   */\n      add\n        /* \"#utility.yul\":33018:33037   */\n      swap1\n      pop\n        /* \"#utility.yul\":32677:33043   */\n      swap2\n      swap1\n      pop\n      jump\t// out\n        /* \"#utility.yul\":33049:33468   */\n    tag_327:\n        /* \"#utility.yul\":33215:33219   */\n      0x00\n        /* \"#utility.yul\":33253:33255   */\n      0x20\n        /* \"#utility.yul\":33242:33251   */\n      dup3\n        /* \"#utility.yul\":33238:33256   */\n      add\n        /* \"#utility.yul\":33230:33256   */\n      swap1\n      pop\n        /* \"#utility.yul\":33302:33311   */\n      dup2\n        /* \"#utility.yul\":33296:33300   */\n      dup2\n        /* \"#utility.yul\":33292:33312   */\n      sub\n        /* \"#utility.yul\":33288:33289   */\n      0x00\n        /* \"#utility.yul\":33277:33286   */\n      dup4\n        /* \"#utility.yul\":33273:33290   */\n      add\n        /* \"#utility.yul\":33266:33313   */\n      mstore\n        /* \"#utility.yul\":33330:33461   */\n      tag_927\n        /* \"#utility.yul\":33456:33460   */\n      dup2\n        /* \"#utility.yul\":33330:33461   */\n      tag_586\n      jump\t// in\n    tag_927:\n        /* \"#utility.yul\":33322:33461   */\n      swap1\n      pop\n        /* \"#utility.yul\":33049:33468   */\n      swap2\n      swap1\n      pop\n      jump\t// out\n        /* \"#utility.yul\":33474:33615   */\n    tag_587:\n        /* \"#utility.yul\":33523:33527   */\n      0x00\n        /* \"#utility.yul\":33546:33549   */\n      dup2\n        /* \"#utility.yul\":33538:33549   */\n      swap1\n      pop\n        /* \"#utility.yul\":33569:33572   */\n      dup2\n        /* \"#utility.yul\":33566:33567   */\n      0x00\n        /* \"#utility.yul\":33559:33573   */\n      mstore\n        /* \"#utility.yul\":33603:33607   */\n      0x20\n        /* \"#utility.yul\":33600:33601   */\n      0x00\n        /* \"#utility.yul\":33590:33608   */\n      keccak256\n        /* \"#utility.yul\":33582:33608   */\n      swap1\n      pop\n        /* \"#utility.yul\":33474:33615   */\n      swap2\n      swap1\n      pop\n      jump\t// out\n        /* \"#utility.yul\":33621:33714   */\n    tag_588:\n        /* \"#utility.yul\":33658:33664   */\n      0x00\n        /* \"#utility.yul\":33705:33707   */\n      0x20\n        /* \"#utility.yul\":33700:33702   */\n      0x1f\n        /* \"#utility.yul\":33693:33698   */\n      dup4\n        /* \"#utility.yul\":33689:33703   */\n      add\n        /* \"#utility.yul\":33685:33708   */\n      div\n        /* \"#utility.yul\":33675:33708   */\n      swap1\n      pop\n        /* \"#utility.yul\":33621:33714   */\n      swap2\n      swap1\n      pop\n      jump\t// out\n        /* \"#utility.yul\":33720:33827   */\n    tag_589:\n        /* \"#utility.yul\":33764:33772   */\n      0x00\n        /* \"#utility.yul\":33814:33819   */\n      dup3\n        /* \"#utility.yul\":33808:33812   */\n      dup3\n        /* \"#utility.yul\":33804:33820   */\n      shl\n        /* \"#utility.yul\":33783:33820   */\n      swap1\n      pop\n        /* \"#utility.yul\":33720:33827   */\n      swap3\n      swap2\n      pop\n      pop\n      jump\t// out\n        /* \"#utility.yul\":33833:34226   */\n    tag_590:\n        /* \"#utility.yul\":33902:33908   */\n      0x00\n        /* \"#utility.yul\":33952:33953   */\n      0x08\n        /* \"#utility.yul\":33940:33950   */\n      dup4\n        /* \"#utility.yul\":33936:33954   */\n      mul\n        /* \"#utility.yul\":33975:34072   */\n      tag_932\n        /* \"#utility.yul\":34005:34071   */\n      0xffffffffffffffffffffffffffffffffffffffffffffffffffffffffffffffff\n        /* \"#utility.yul\":33994:34003   */\n      dup3\n        /* \"#utility.yul\":33975:34072   */\n      tag_589\n      jump\t// in\n    tag_932:\n        /* \"#utility.yul\":34093:34132   */\n      tag_933\n        /* \"#utility.yul\":34123:34131   */\n      dup7\n        /* \"#utility.yul\":34112:34121   */\n      dup4\n        /* \"#utility.yul\":34093:34132   */\n      tag_589\n      jump\t// in\n    tag_933:\n        /* \"#utility.yul\":34081:34132   */\n      swap6\n      pop\n        /* \"#utility.yul\":34165:34169   */\n      dup1\n        /* \"#utility.yul\":34161:34170   */\n      not\n        /* \"#utility.yul\":34154:34159   */\n      dup5\n        /* \"#utility.yul\":34150:34171   */\n      and\n        /* \"#utility.yul\":34141:34171   */\n      swap4\n      pop\n        /* \"#utility.yul\":34214:34218   */\n      dup1\n        /* \"#utility.yul\":34204:34212   */\n      dup7\n        /* \"#utility.yul\":34200:34219   */\n      and\n        /* \"#utility.yul\":34193:34198   */\n      dup5\n        /* \"#utility.yul\":34190:34220   */\n      or\n        /* \"#utility.yul\":34180:34220   */\n      swap3\n      pop\n        /* \"#utility.yul\":33909:34226   */\n      pop\n      pop\n        /* \"#utility.yul\":33833:34226   */\n      swap4\n      swap3\n      pop\n      pop\n      pop\n      jump\t// out\n        /* \"#utility.yul\":34232:34374   */\n    tag_591:\n        /* \"#utility.yul\":34282:34291   */\n      0x00\n        /* \"#utility.yul\":34315:34368   */\n      tag_935\n        /* \"#utility.yul\":34333:34367   */\n      tag_936\n        /* \"#utility.yul\":34342:34366   */\n      tag_937\n        /* \"#utility.yul\":34360:34365   */\n      dup5\n        /* \"#utility.yul\":34342:34366   */\n      tag_515\n      jump\t// in\n    tag_937:\n        /* \"#utility.yul\":34333:34367   */\n      tag_541\n      jump\t// in\n    tag_936:\n        /* \"#utility.yul\":34315:34368   */\n      tag_515\n      jump\t// in\n    tag_935:\n        /* \"#utility.yul\":34302:34368   */\n      swap1\n      pop\n        /* \"#utility.yul\":34232:34374   */\n      swap2\n      swap1\n      pop\n      jump\t// out\n        /* \"#utility.yul\":34380:34455   */\n    tag_592:\n        /* \"#utility.yul\":34423:34426   */\n      0x00\n        /* \"#utility.yul\":34444:34449   */\n      dup2\n        /* \"#utility.yul\":34437:34449   */\n      swap1\n      pop\n        /* \"#utility.yul\":34380:34455   */\n      swap2\n      swap1\n      pop\n      jump\t// out\n        /* \"#utility.yul\":34461:34730   */\n    tag_593:\n        /* \"#utility.yul\":34571:34610   */\n      tag_940\n        /* \"#utility.yul\":34602:34609   */\n      dup4\n        /* \"#utility.yul\":34571:34610   */\n      tag_591\n      jump\t// in\n    tag_940:\n        /* \"#utility.yul\":34632:34723   */\n      tag_941\n        /* \"#utility.yul\":34681:34722   */\n      tag_942\n        /* \"#utility.yul\":34705:34721   */\n      dup3\n        /* \"#utility.yul\":34681:34722   */\n      tag_592\n      jump\t// in\n    tag_942:\n        /* \"#utility.yul\":34673:34679   */\n      dup5\n        /* \"#utility.yul\":34666:34670   */\n      dup5\n        /* \"#utility.yul\":34660:34671   */\n      sload\n        /* \"#utility.yul\":34632:34723   */\n      tag_590\n      jump\t// in\n    tag_941:\n        /* \"#utility.yul\":34626:34630   */\n      dup3\n        /* \"#utility.yul\":34619:34724   */\n      sstore\n        /* \"#utility.yul\":34537:34730   */\n      pop\n        /* \"#utility.yul\":34461:34730   */\n      pop\n      pop\n      pop\n      jump\t// out\n        /* \"#utility.yul\":34736:34809   */\n    tag_594:\n        /* \"#utility.yul\":34781:34784   */\n      0x00\n        /* \"#utility.yul\":34736:34809   */\n      swap1\n      jump\t// out\n        /* \"#utility.yul\":34815:35004   */\n    tag_595:\n        /* \"#utility.yul\":34892:34924   */\n      tag_945\n      tag_594\n      jump\t// in\n    tag_945:\n        /* \"#utility.yul\":34933:34998   */\n      tag_946\n        /* \"#utility.yul\":34991:34997   */\n      dup2\n        /* \"#utility.yul\":34983:34989   */\n      dup5\n        /* \"#utility.yul\":34977:34981   */\n      dup5\n        /* \"#utility.yul\":34933:34998   */\n      tag_593\n      jump\t// in\n    tag_946:\n        /* \"#utility.yul\":34868:35004   */\n      pop\n        /* \"#utility.yul\":34815:35004   */\n      pop\n      pop\n      jump\t// out\n        /* \"#utility.yul\":35010:35196   */\n    tag_596:\n        /* \"#utility.yul\":35070:35190   */\n    tag_948:\n        /* \"#utility.yul\":35087:35090   */\n      dup2\n        /* \"#utility.yul\":35080:35085   */\n      dup2\n        /* \"#utility.yul\":35077:35091   */\n      lt\n        /* \"#utility.yul\":35070:35190   */\n      iszero\n      tag_950\n      jumpi\n        /* \"#utility.yul\":35141:35180   */\n      tag_951\n        /* \"#utility.yul\":35178:35179   */\n      0x00\n        /* \"#utility.yul\":35171:35176   */\n      dup3\n        /* \"#utility.yul\":35141:35180   */\n      tag_595\n      jump\t// in\n    tag_951:\n        /* \"#utility.yul\":35114:35115   */\n      0x01\n        /* \"#utility.yul\":35107:35112   */\n      dup2\n        /* \"#utility.yul\":35103:35116   */\n      add\n        /* \"#utility.yul\":35094:35116   */\n      swap1\n      pop\n        /* \"#utility.yul\":35070:35190   */\n      jump(tag_948)\n    tag_950:\n        /* \"#utility.yul\":35010:35196   */\n      pop\n      pop\n      jump\t// out\n        /* \"#utility.yul\":35202:35745   */\n    tag_597:\n        /* \"#utility.yul\":35303:35305   */\n      0x1f\n        /* \"#utility.yul\":35298:35301   */\n      dup3\n        /* \"#utility.yul\":35295:35306   */\n      gt\n        /* \"#utility.yul\":35292:35738   */\n      iszero\n      tag_953\n      jumpi\n        /* \"#utility.yul\":35337:35375   */\n      tag_954\n        /* \"#utility.yul\":35369:35374   */\n      dup2\n        /* \"#utility.yul\":35337:35375   */\n      tag_587\n      jump\t// in\n    tag_954:\n        /* \"#utility.yul\":35421:35450   */\n      tag_955\n        /* \"#utility.yul\":35439:35449   */\n      dup5\n        /* \"#utility.yul\":35421:35450   */\n      tag_588\n      jump\t// in\n    tag_955:\n        /* \"#utility.yul\":35411:35419   */\n      dup2\n        /* \"#utility.yul\":35407:35451   */\n      add\n        /* \"#utility.yul\":35604:35606   */\n      0x20\n        /* \"#utility.yul\":35592:35602   */\n      dup6\n        /* \"#utility.yul\":35589:35607   */\n      lt\n        /* \"#utility.yul\":35586:35635   */\n      iszero\n      tag_956\n      jumpi\n        /* \"#utility.yul\":35625:35633   */\n      dup2\n        /* \"#utility.yul\":35610:35633   */\n      swap1\n      pop\n        /* \"#utility.yul\":35586:35635   */\n    tag_956:\n        /* \"#utility.yul\":35648:35728   */\n      tag_957\n        /* \"#utility.yul\":35704:35726   */\n      tag_958\n        /* \"#utility.yul\":35722:35725   */\n      dup6\n        /* \"#utility.yul\":35704:35726   */\n      tag_588\n      jump\t// in\n    tag_958:\n        /* \"#utility.yul\":35694:35702   */\n      dup4\n        /* \"#utility.yul\":35690:35727   */\n      add\n        /* \"#utility.yul\":35677:35688   */\n      dup3\n        /* \"#utility.yul\":35648:35728   */\n      tag_596\n      jump\t// in\n    tag_957:\n        /* \"#utility.yul\":35307:35738   */\n      pop\n      pop\n        /* \"#utility.yul\":35292:35738   */\n    tag_953:\n        /* \"#utility.yul\":35202:35745   */\n      pop\n      pop\n      pop\n      jump\t// out\n        /* \"#utility.yul\":35751:35868   */\n    tag_598:\n        /* \"#utility.yul\":35805:35813   */\n      0x00\n        /* \"#utility.yul\":35855:35860   */\n      dup3\n        /* \"#utility.yul\":35849:35853   */\n      dup3\n        /* \"#utility.yul\":35845:35861   */\n      shr\n        /* \"#utility.yul\":35824:35861   */\n      swap1\n      pop\n        /* \"#utility.yul\":35751:35868   */\n      swap3\n      swap2\n      pop\n      pop\n      jump\t// out\n        /* \"#utility.yul\":35874:36043   */\n    tag_599:\n        /* \"#utility.yul\":35918:35924   */\n      0x00\n        /* \"#utility.yul\":35951:36002   */\n      tag_961\n        /* \"#utility.yul\":35999:36000   */\n      0x00\n        /* \"#utility.yul\":35995:36001   */\n      not\n        /* \"#utility.yul\":35987:35992   */\n      dup5\n        /* \"#utility.yul\":35984:35985   */\n      0x08\n        /* \"#utility.yul\":35980:35993   */\n      mul\n        /* \"#utility.yul\":35951:36002   */\n      tag_598\n      jump\t// in\n    tag_961:\n        /* \"#utility.yul\":35947:36003   */\n      not\n        /* \"#utility.yul\":36032:36036   */\n      dup1\n        /* \"#utility.yul\":36026:36030   */\n      dup4\n        /* \"#utility.yul\":36022:36037   */\n      and\n        /* \"#utility.yul\":36012:36037   */\n      swap2\n      pop\n        /* \"#utility.yul\":35925:36043   */\n      pop\n        /* \"#utility.yul\":35874:36043   */\n      swap3\n      swap2\n      pop\n      pop\n      jump\t// out\n        /* \"#utility.yul\":36048:36343   */\n    tag_600:\n        /* \"#utility.yul\":36124:36128   */\n      0x00\n        /* \"#utility.yul\":36270:36299   */\n      tag_963\n        /* \"#utility.yul\":36295:36298   */\n      dup4\n        /* \"#utility.yul\":36289:36293   */\n      dup4\n        /* \"#utility.yul\":36270:36299   */\n      tag_599\n      jump\t// in\n    tag_963:\n        /* \"#utility.yul\":36262:36299   */\n      swap2\n      pop\n        /* \"#utility.yul\":36332:36335   */\n      dup3\n        /* \"#utility.yul\":36329:36330   */\n      0x02\n        /* \"#utility.yul\":36325:36336   */\n      mul\n        /* \"#utility.yul\":36319:36323   */\n      dup3\n        /* \"#utility.yul\":36316:36337   */\n      or\n        /* \"#utility.yul\":36308:36337   */\n      swap1\n      pop\n        /* \"#utility.yul\":36048:36343   */\n      swap3\n      swap2\n      pop\n      pop\n      jump\t// out\n        /* \"#utility.yul\":36348:37743   */\n    tag_330:\n        /* \"#utility.yul\":36465:36502   */\n      tag_965\n        /* \"#utility.yul\":36498:36501   */\n      dup3\n        /* \"#utility.yul\":36465:36502   */\n      tag_547\n      jump\t// in\n    tag_965:\n        /* \"#utility.yul\":36567:36585   */\n      0xffffffffffffffff\n        /* \"#utility.yul\":36559:36565   */\n      dup2\n        /* \"#utility.yul\":36556:36586   */\n      gt\n        /* \"#utility.yul\":36553:36609   */\n      iszero\n      tag_966\n      jumpi\n        /* \"#utility.yul\":36589:36607   */\n      tag_967\n      tag_529\n      jump\t// in\n    tag_967:\n        /* \"#utility.yul\":36553:36609   */\n    tag_966:\n        /* \"#utility.yul\":36633:36671   */\n      tag_968\n        /* \"#utility.yul\":36665:36669   */\n      dup3\n        /* \"#utility.yul\":36659:36670   */\n      sload\n        /* \"#utility.yul\":36633:36671   */\n      tag_225\n      jump\t// in\n    tag_968:\n        /* \"#utility.yul\":36718:36785   */\n      tag_969\n        /* \"#utility.yul\":36778:36784   */\n      dup3\n        /* \"#utility.yul\":36770:36776   */\n      dup3\n        /* \"#utility.yul\":36764:36768   */\n      dup6\n        /* \"#utility.yul\":36718:36785   */\n      tag_597\n      jump\t// in\n    tag_969:\n        /* \"#utility.yul\":36812:36813   */\n      0x00\n        /* \"#utility.yul\":36836:36840   */\n      0x20\n        /* \"#utility.yul\":36823:36840   */\n      swap1\n      pop\n        /* \"#utility.yul\":36868:36870   */\n      0x1f\n        /* \"#utility.yul\":36860:36866   */\n      dup4\n        /* \"#utility.yul\":36857:36871   */\n      gt\n        /* \"#utility.yul\":36885:36886   */\n      0x01\n        /* \"#utility.yul\":36880:37498   */\n      dup2\n      eq\n      tag_971\n      jumpi\n        /* \"#utility.yul\":37542:37543   */\n      0x00\n        /* \"#utility.yul\":37559:37565   */\n      dup5\n        /* \"#utility.yul\":37556:37633   */\n      iszero\n      tag_972\n      jumpi\n        /* \"#utility.yul\":37608:37617   */\n      dup3\n        /* \"#utility.yul\":37603:37606   */\n      dup8\n        /* \"#utility.yul\":37599:37618   */\n      add\n        /* \"#utility.yul\":37593:37619   */\n      mload\n        /* \"#utility.yul\":37584:37619   */\n      swap1\n      pop\n        /* \"#utility.yul\":37556:37633   */\n    tag_972:\n        /* \"#utility.yul\":37659:37726   */\n      tag_973\n        /* \"#utility.yul\":37719:37725   */\n      dup6\n        /* \"#utility.yul\":37712:37717   */\n      dup3\n        /* \"#utility.yul\":37659:37726   */\n      tag_600\n      jump\t// in\n    tag_973:\n        /* \"#utility.yul\":37653:37657   */\n      dup7\n        /* \"#utility.yul\":37646:37727   */\n      sstore\n        /* \"#utility.yul\":37515:37737   */\n      pop\n        /* \"#utility.yul\":36850:37737   */\n      jump(tag_970)\n        /* \"#utility.yul\":36880:37498   */\n    tag_971:\n        /* \"#utility.yul\":36932:36936   */\n      0x1f\n        /* \"#utility.yul\":36928:36937   */\n      not\n        /* \"#utility.yul\":36920:36926   */\n      dup5\n        /* \"#utility.yul\":36916:36938   */\n      and\n        /* \"#utility.yul\":36966:37003   */\n      tag_974\n        /* \"#utility.yul\":36998:37002   */\n      dup7\n        /* \"#utility.yul\":36966:37003   */\n      tag_587\n      jump\t// in\n    tag_974:\n        /* \"#utility.yul\":37025:37026   */\n      0x00\n        /* \"#utility.yul\":37039:37247   */\n    tag_975:\n        /* \"#utility.yul\":37053:37060   */\n      dup3\n        /* \"#utility.yul\":37050:37051   */\n      dup2\n        /* \"#utility.yul\":37047:37061   */\n      lt\n        /* \"#utility.yul\":37039:37247   */\n      iszero\n      tag_977\n      jumpi\n        /* \"#utility.yul\":37132:37141   */\n      dup5\n        /* \"#utility.yul\":37127:37130   */\n      dup10\n        /* \"#utility.yul\":37123:37142   */\n      add\n        /* \"#utility.yul\":37117:37143   */\n      mload\n        /* \"#utility.yul\":37109:37115   */\n      dup3\n        /* \"#utility.yul\":37102:37144   */\n      sstore\n        /* \"#utility.yul\":37183:37184   */\n      0x01\n        /* \"#utility.yul\":37175:37181   */\n      dup3\n        /* \"#utility.yul\":37171:37185   */\n      add\n        /* \"#utility.yul\":37161:37185   */\n      swap2\n      pop\n        /* \"#utility.yul\":37230:37232   */\n      0x20\n        /* \"#utility.yul\":37219:37228   */\n      dup6\n        /* \"#utility.yul\":37215:37233   */\n      add\n        /* \"#utility.yul\":37202:37233   */\n      swap5\n      pop\n        /* \"#utility.yul\":37076:37080   */\n      0x20\n        /* \"#utility.yul\":37073:37074   */\n      dup2\n        /* \"#utility.yul\":37069:37081   */\n      add\n        /* \"#utility.yul\":37064:37081   */\n      swap1\n      pop\n        /* \"#utility.yul\":37039:37247   */\n      jump(tag_975)\n    tag_977:\n        /* \"#utility.yul\":37275:37281   */\n      dup7\n        /* \"#utility.yul\":37266:37273   */\n      dup4\n        /* \"#utility.yul\":37263:37282   */\n      lt\n        /* \"#utility.yul\":37260:37439   */\n      iszero\n      tag_978\n      jumpi\n        /* \"#utility.yul\":37333:37342   */\n      dup5\n        /* \"#utility.yul\":37328:37331   */\n      dup10\n        /* \"#utility.yul\":37324:37343   */\n      add\n        /* \"#utility.yul\":37318:37344   */\n      mload\n        /* \"#utility.yul\":37376:37424   */\n      tag_979\n        /* \"#utility.yul\":37418:37422   */\n      0x1f\n        /* \"#utility.yul\":37410:37416   */\n      dup10\n        /* \"#utility.yul\":37406:37423   */\n      and\n        /* \"#utility.yul\":37395:37404   */\n      dup3\n        /* \"#utility.yul\":37376:37424   */\n      tag_599\n      jump\t// in\n    tag_979:\n        /* \"#utility.yul\":37368:37374   */\n      dup4\n        /* \"#utility.yul\":37361:37425   */\n      sstore\n        /* \"#utility.yul\":37283:37439   */\n      pop\n        /* \"#utility.yul\":37260:37439   */\n    tag_978:\n        /* \"#utility.yul\":37485:37486   */\n      0x01\n        /* \"#utility.yul\":37481:37482   */\n      0x02\n        /* \"#utility.yul\":37473:37479   */\n      dup9\n        /* \"#utility.yul\":37469:37483   */\n      mul\n        /* \"#utility.yul\":37465:37487   */\n      add\n        /* \"#utility.yul\":37459:37463   */\n      dup9\n        /* \"#utility.yul\":37452:37488   */\n      sstore\n        /* \"#utility.yul\":36887:37498   */\n      pop\n      pop\n      pop\n        /* \"#utility.yul\":36850:37737   */\n    tag_970:\n      pop\n        /* \"#utility.yul\":36440:37743   */\n      pop\n      pop\n      pop\n        /* \"#utility.yul\":36348:37743   */\n      pop\n      pop\n      jump\t// out\n        /* \"#utility.yul\":37749:37916   */\n    tag_601:\n        /* \"#utility.yul\":37889:37908   */\n      0x436f75727365206e6f7420706173736564000000000000000000000000000000\n        /* \"#utility.yul\":37885:37886   */\n      0x00\n        /* \"#utility.yul\":37877:37883   */\n      dup3\n        /* \"#utility.yul\":37873:37887   */\n      add\n        /* \"#utility.yul\":37866:37909   */\n      mstore\n        /* \"#utility.yul\":37749:37916   */\n      pop\n      jump\t// out\n        /* \"#utility.yul\":37922:38288   */\n    tag_602:\n        /* \"#utility.yul\":38064:38067   */\n      0x00\n        /* \"#utility.yul\":38085:38152   */\n      tag_982\n        /* \"#utility.yul\":38149:38151   */\n      0x11\n        /* \"#utility.yul\":38144:38147   */\n      dup4\n        /* \"#utility.yul\":38085:38152   */\n      tag_548\n      jump\t// in\n    tag_982:\n        /* \"#utility.yul\":38078:38152   */\n      swap2\n      pop\n        /* \"#utility.yul\":38161:38254   */\n      tag_983\n        /* \"#utility.yul\":38250:38253   */\n      dup3\n        /* \"#utility.yul\":38161:38254   */\n      tag_601\n      jump\t// in\n    tag_983:\n        /* \"#utility.yul\":38279:38281   */\n      0x20\n        /* \"#utility.yul\":38274:38277   */\n      dup3\n        /* \"#utility.yul\":38270:38282   */\n      add\n        /* \"#utility.yul\":38263:38282   */\n      swap1\n      pop\n        /* \"#utility.yul\":37922:38288   */\n      swap2\n      swap1\n      pop\n      jump\t// out\n        /* \"#utility.yul\":38294:38713   */\n    tag_353:\n        /* \"#utility.yul\":38460:38464   */\n      0x00\n        /* \"#utility.yul\":38498:38500   */\n      0x20\n        /* \"#utility.yul\":38487:38496   */\n      dup3\n        /* \"#utility.yul\":38483:38501   */\n      add\n        /* \"#utility.yul\":38475:38501   */\n      swap1\n      pop\n        /* \"#utility.yul\":38547:38556   */\n      dup2\n        /* \"#utility.yul\":38541:38545   */\n      dup2\n        /* \"#utility.yul\":38537:38557   */\n      sub\n        /* \"#utility.yul\":38533:38534   */\n      0x00\n        /* \"#utility.yul\":38522:38531   */\n      dup4\n        /* \"#utility.yul\":38518:38535   */\n      add\n        /* \"#utility.yul\":38511:38558   */\n      mstore\n        /* \"#utility.yul\":38575:38706   */\n      tag_985\n        /* \"#utility.yul\":38701:38705   */\n      dup2\n        /* \"#utility.yul\":38575:38706   */\n      tag_602\n      jump\t// in\n    tag_985:\n        /* \"#utility.yul\":38567:38706   */\n      swap1\n      pop\n        /* \"#utility.yul\":38294:38713   */\n      swap2\n      swap1\n      pop\n      jump\t// out\n        /* \"#utility.yul\":38719:38891   */\n    tag_603:\n        /* \"#utility.yul\":38859:38883   */\n      0x52657761726420616c726561647920636c61696d656400000000000000000000\n        /* \"#utility.yul\":38855:38856   */\n      0x00\n        /* \"#utility.yul\":38847:38853   */\n      dup3\n        /* \"#utility.yul\":38843:38857   */\n      add\n        /* \"#utility.yul\":38836:38884   */\n      mstore\n        /* \"#utility.yul\":38719:38891   */\n      pop\n      jump\t// out\n        /* \"#utility.yul\":38897:39263   */\n    tag_604:\n        /* \"#utility.yul\":39039:39042   */\n      0x00\n        /* \"#utility.yul\":39060:39127   */\n      tag_988\n        /* \"#utility.yul\":39124:39126   */\n      0x16\n        /* \"#utility.yul\":39119:39122   */\n      dup4\n        /* \"#utility.yul\":39060:39127   */\n      tag_548\n      jump\t// in\n    tag_988:\n        /* \"#utility.yul\":39053:39127   */\n      swap2\n      pop\n        /* \"#utility.yul\":39136:39229   */\n      tag_989\n        /* \"#utility.yul\":39225:39228   */\n      dup3\n        /* \"#utility.yul\":39136:39229   */\n      tag_603\n      jump\t// in\n    tag_989:\n        /* \"#utility.yul\":39254:39256   */\n      0x20\n        /* \"#utility.yul\":39249:39252   */\n      dup3\n        /* \"#utility.yul\":39245:39257   */\n      add\n        /* \"#utility.yul\":39238:39257   */\n      swap1\n      pop\n        /* \"#utility.yul\":38897:39263   */\n      swap2\n      swap1\n      pop\n      jump\t// out\n        /* \"#utility.yul\":39269:39688   */\n    tag_356:\n        /* \"#utility.yul\":39435:39439   */\n      0x00\n        /* \"#utility.yul\":39473:39475   */\n      0x20\n        /* \"#utility.yul\":39462:39471   */\n      dup3\n        /* \"#utility.yul\":39458:39476   */\n      add\n        /* \"#utility.yul\":39450:39476   */\n      swap1\n      pop\n        /* \"#utility.yul\":39522:39531   */\n      dup2\n        /* \"#utility.yul\":39516:39520   */\n      dup2\n        /* \"#utility.yul\":39512:39532   */\n      sub\n        /* \"#utility.yul\":39508:39509   */\n      0x00\n        /* \"#utility.yul\":39497:39506   */\n      dup4\n        /* \"#utility.yul\":39493:39510   */\n      add\n        /* \"#utility.yul\":39486:39533   */\n      mstore\n        /* \"#utility.yul\":39550:39681   */\n      tag_991\n        /* \"#utility.yul\":39676:39680   */\n      dup2\n        /* \"#utility.yul\":39550:39681   */\n      tag_604\n      jump\t// in\n    tag_991:\n        /* \"#utility.yul\":39542:39681   */\n      swap1\n      pop\n        /* \"#utility.yul\":39269:39688   */\n      swap2\n      swap1\n      pop\n      jump\t// out\n        /* \"#utility.yul\":39694:39875   */\n    tag_605:\n        /* \"#utility.yul\":39834:39867   */\n      0x5769746864726177616c20696e74657276616c206e6f74207265616368656400\n        /* \"#utility.yul\":39830:39831   */\n      0x00\n        /* \"#utility.yul\":39822:39828   */\n      dup3\n        /* \"#utility.yul\":39818:39832   */\n      add\n        /* \"#utility.yul\":39811:39868   */\n      mstore\n        /* \"#utility.yul\":39694:39875   */\n      pop\n      jump\t// out\n        /* \"#utility.yul\":39881:40247   */\n    tag_606:\n        /* \"#utility.yul\":40023:40026   */\n      0x00\n        /* \"#utility.yul\":40044:40111   */\n      tag_994\n        /* \"#utility.yul\":40108:40110   */\n      0x1f\n        /* \"#utility.yul\":40103:40106   */\n      dup4\n        /* \"#utility.yul\":40044:40111   */\n      tag_548\n      jump\t// in\n    tag_994:\n        /* \"#utility.yul\":40037:40111   */\n      swap2\n      pop\n        /* \"#utility.yul\":40120:40213   */\n      tag_995\n        /* \"#utility.yul\":40209:40212   */\n      dup3\n        /* \"#utility.yul\":40120:40213   */\n      tag_605\n      jump\t// in\n    tag_995:\n        /* \"#utility.yul\":40238:40240   */\n      0x20\n        /* \"#utility.yul\":40233:40236   */\n      dup3\n        /* \"#utility.yul\":40229:40241   */\n      add\n        /* \"#utility.yul\":40222:40241   */\n      swap1\n      pop\n        /* \"#utility.yul\":39881:40247   */\n      swap2\n      swap1\n      pop\n      jump\t// out\n        /* \"#utility.yul\":40253:40672   */\n    tag_398:\n        /* \"#utility.yul\":40419:40423   */\n      0x00\n        /* \"#utility.yul\":40457:40459   */\n      0x20\n        /* \"#utility.yul\":40446:40455   */\n      dup3\n        /* \"#utility.yul\":40442:40460   */\n      add\n        /* \"#utility.yul\":40434:40460   */\n      swap1\n      pop\n        /* \"#utility.yul\":40506:40515   */\n      dup2\n        /* \"#utility.yul\":40500:40504   */\n      dup2\n        /* \"#utility.yul\":40496:40516   */\n      sub\n        /* \"#utility.yul\":40492:40493   */\n      0x00\n        /* \"#utility.yul\":40481:40490   */\n      dup4\n        /* \"#utility.yul\":40477:40494   */\n      add\n        /* \"#utility.yul\":40470:40517   */\n      mstore\n        /* \"#utility.yul\":40534:40665   */\n      tag_997\n        /* \"#utility.yul\":40660:40664   */\n      dup2\n        /* \"#utility.yul\":40534:40665   */\n      tag_606\n      jump\t// in\n    tag_997:\n        /* \"#utility.yul\":40526:40665   */\n      swap1\n      pop\n        /* \"#utility.yul\":40253:40672   */\n      swap2\n      swap1\n      pop\n      jump\t// out\n        /* \"#utility.yul\":40678:40855   */\n    tag_607:\n        /* \"#utility.yul\":40818:40847   */\n      0x4661696c656420746f2077697468647261772067617320666565730000000000\n        /* \"#utility.yul\":40814:40815   */\n      0x00\n        /* \"#utility.yul\":40806:40812   */\n      dup3\n        /* \"#utility.yul\":40802:40816   */\n      add\n        /* \"#utility.yul\":40795:40848   */\n      mstore\n        /* \"#utility.yul\":40678:40855   */\n      pop\n      jump\t// out\n        /* \"#utility.yul\":40861:41227   */\n    tag_608:\n        /* \"#utility.yul\":41003:41006   */\n      0x00\n        /* \"#utility.yul\":41024:41091   */\n      tag_1000\n        /* \"#utility.yul\":41088:41090   */\n      0x1b\n        /* \"#utility.yul\":41083:41086   */\n      dup4\n        /* \"#utility.yul\":41024:41091   */\n      tag_548\n      jump\t// in\n    tag_1000:\n        /* \"#utility.yul\":41017:41091   */\n      swap2\n      pop\n        /* \"#utility.yul\":41100:41193   */\n      tag_1001\n        /* \"#utility.yul\":41189:41192   */\n      dup3\n        /* \"#utility.yul\":41100:41193   */\n      tag_607\n      jump\t// in\n    tag_1001:\n        /* \"#utility.yul\":41218:41220   */\n      0x20\n        /* \"#utility.yul\":41213:41216   */\n      dup3\n        /* \"#utility.yul\":41209:41221   */\n      add\n        /* \"#utility.yul\":41202:41221   */\n      swap1\n      pop\n        /* \"#utility.yul\":40861:41227   */\n      swap2\n      swap1\n      pop\n      jump\t// out\n        /* \"#utility.yul\":41233:41652   */\n    tag_406:\n        /* \"#utility.yul\":41399:41403   */\n      0x00\n        /* \"#utility.yul\":41437:41439   */\n      0x20\n        /* \"#utility.yul\":41426:41435   */\n      dup3\n        /* \"#utility.yul\":41422:41440   */\n      add\n        /* \"#utility.yul\":41414:41440   */\n      swap1\n      pop\n        /* \"#utility.yul\":41486:41495   */\n      dup2\n        /* \"#utility.yul\":41480:41484   */\n      dup2\n        /* \"#utility.yul\":41476:41496   */\n      sub\n        /* \"#utility.yul\":41472:41473   */\n      0x00\n        /* \"#utility.yul\":41461:41470   */\n      dup4\n        /* \"#utility.yul\":41457:41474   */\n      add\n        /* \"#utility.yul\":41450:41497   */\n      mstore\n        /* \"#utility.yul\":41514:41645   */\n      tag_1003\n        /* \"#utility.yul\":41640:41644   */\n      dup2\n        /* \"#utility.yul\":41514:41645   */\n      tag_608\n      jump\t// in\n    tag_1003:\n        /* \"#utility.yul\":41506:41645   */\n      swap1\n      pop\n        /* \"#utility.yul\":41233:41652   */\n      swap2\n      swap1\n      pop\n      jump\t// out\n        /* \"#utility.yul\":41658:41881   */\n    tag_609:\n        /* \"#utility.yul\":41798:41832   */\n      0x4f6e6c7920636f757273652063726561746f722063616e20636c61696d207265\n        /* \"#utility.yul\":41794:41795   */\n      0x00\n        /* \"#utility.yul\":41786:41792   */\n      dup3\n        /* \"#utility.yul\":41782:41796   */\n      add\n        /* \"#utility.yul\":41775:41833   */\n      mstore\n        /* \"#utility.yul\":41867:41873   */\n      0x7761726400000000000000000000000000000000000000000000000000000000\n        /* \"#utility.yul\":41862:41864   */\n      0x20\n        /* \"#utility.yul\":41854:41860   */\n      dup3\n        /* \"#utility.yul\":41850:41865   */\n      add\n        /* \"#utility.yul\":41843:41874   */\n      mstore\n        /* \"#utility.yul\":41658:41881   */\n      pop\n      jump\t// out\n        /* \"#utility.yul\":41887:42253   */\n    tag_610:\n        /* \"#utility.yul\":42029:42032   */\n      0x00\n        /* \"#utility.yul\":42050:42117   */\n      tag_1006\n        /* \"#utility.yul\":42114:42116   */\n      0x24\n        /* \"#utility.yul\":42109:42112   */\n      dup4\n        /* \"#utility.yul\":42050:42117   */\n      tag_548\n      jump\t// in\n    tag_1006:\n        /* \"#utility.yul\":42043:42117   */\n      swap2\n      pop\n        /* \"#utility.yul\":42126:42219   */\n      tag_1007\n        /* \"#utility.yul\":42215:42218   */\n      dup3\n        /* \"#utility.yul\":42126:42219   */\n      tag_609\n      jump\t// in\n    tag_1007:\n        /* \"#utility.yul\":42244:42246   */\n      0x40\n        /* \"#utility.yul\":42239:42242   */\n      dup3\n        /* \"#utility.yul\":42235:42247   */\n      add\n        /* \"#utility.yul\":42228:42247   */\n      swap1\n      pop\n        /* \"#utility.yul\":41887:42253   */\n      swap2\n      swap1\n      pop\n      jump\t// out\n        /* \"#utility.yul\":42259:42678   */\n    tag_421:\n        /* \"#utility.yul\":42425:42429   */\n      0x00\n        /* \"#utility.yul\":42463:42465   */\n      0x20\n        /* \"#utility.yul\":42452:42461   */\n      dup3\n        /* \"#utility.yul\":42448:42466   */\n      add\n        /* \"#utility.yul\":42440:42466   */\n      swap1\n      pop\n        /* \"#utility.yul\":42512:42521   */\n      dup2\n        /* \"#utility.yul\":42506:42510   */\n      dup2\n        /* \"#utility.yul\":42502:42522   */\n      sub\n        /* \"#utility.yul\":42498:42499   */\n      0x00\n        /* \"#utility.yul\":42487:42496   */\n      dup4\n        /* \"#utility.yul\":42483:42500   */\n      add\n        /* \"#utility.yul\":42476:42523   */\n      mstore\n        /* \"#utility.yul\":42540:42671   */\n      tag_1009\n        /* \"#utility.yul\":42666:42670   */\n      dup2\n        /* \"#utility.yul\":42540:42671   */\n      tag_610\n      jump\t// in\n    tag_1009:\n        /* \"#utility.yul\":42532:42671   */\n      swap1\n      pop\n        /* \"#utility.yul\":42259:42678   */\n      swap2\n      swap1\n      pop\n      jump\t// out\n        /* \"#utility.yul\":42684:43094   */\n    tag_425:\n        /* \"#utility.yul\":42724:42731   */\n      0x00\n        /* \"#utility.yul\":42747:42767   */\n      tag_1011\n        /* \"#utility.yul\":42765:42766   */\n      dup3\n        /* \"#utility.yul\":42747:42767   */\n      tag_515\n      jump\t// in\n    tag_1011:\n        /* \"#utility.yul\":42742:42767   */\n      swap2\n      pop\n        /* \"#utility.yul\":42781:42801   */\n      tag_1012\n        /* \"#utility.yul\":42799:42800   */\n      dup4\n        /* \"#utility.yul\":42781:42801   */\n      tag_515\n      jump\t// in\n    tag_1012:\n        /* \"#utility.yul\":42776:42801   */\n      swap3\n      pop\n        /* \"#utility.yul\":42836:42837   */\n      dup3\n        /* \"#utility.yul\":42833:42834   */\n      dup3\n        /* \"#utility.yul\":42829:42838   */\n      mul\n        /* \"#utility.yul\":42858:42888   */\n      tag_1013\n        /* \"#utility.yul\":42876:42887   */\n      dup2\n        /* \"#utility.yul\":42858:42888   */\n      tag_515\n      jump\t// in\n    tag_1013:\n        /* \"#utility.yul\":42847:42888   */\n      swap2\n      pop\n        /* \"#utility.yul\":43037:43038   */\n      dup3\n        /* \"#utility.yul\":43028:43035   */\n      dup3\n        /* \"#utility.yul\":43024:43039   */\n      div\n        /* \"#utility.yul\":43021:43022   */\n      dup5\n        /* \"#utility.yul\":43018:43040   */\n      eq\n        /* \"#utility.yul\":42998:42999   */\n      dup4\n        /* \"#utility.yul\":42991:43000   */\n      iszero\n        /* \"#utility.yul\":42971:43054   */\n      or\n        /* \"#utility.yul\":42948:43087   */\n      tag_1014\n      jumpi\n        /* \"#utility.yul\":43067:43085   */\n      tag_1015\n      tag_555\n      jump\t// in\n    tag_1015:\n        /* \"#utility.yul\":42948:43087   */\n    tag_1014:\n        /* \"#utility.yul\":42732:43094   */\n      pop\n        /* \"#utility.yul\":42684:43094   */\n      swap3\n      swap2\n      pop\n      pop\n      jump\t// out\n        /* \"#utility.yul\":43100:43324   */\n    tag_611:\n        /* \"#utility.yul\":43240:43274   */\n      0x4f6e6c7920636f757273652063726561746f722063616e206372656174652061\n        /* \"#utility.yul\":43236:43237   */\n      0x00\n        /* \"#utility.yul\":43228:43234   */\n      dup3\n        /* \"#utility.yul\":43224:43238   */\n      add\n        /* \"#utility.yul\":43217:43275   */\n      mstore\n        /* \"#utility.yul\":43309:43316   */\n      0x207175697a000000000000000000000000000000000000000000000000000000\n        /* \"#utility.yul\":43304:43306   */\n      0x20\n        /* \"#utility.yul\":43296:43302   */\n      dup3\n        /* \"#utility.yul\":43292:43307   */\n      add\n        /* \"#utility.yul\":43285:43317   */\n      mstore\n        /* \"#utility.yul\":43100:43324   */\n      pop\n      jump\t// out\n        /* \"#utility.yul\":43330:43696   */\n    tag_612:\n        /* \"#utility.yul\":43472:43475   */\n      0x00\n        /* \"#utility.yul\":43493:43560   */\n      tag_1018\n        /* \"#utility.yul\":43557:43559   */\n      0x25\n        /* \"#utility.yul\":43552:43555   */\n      dup4\n        /* \"#utility.yul\":43493:43560   */\n      tag_548\n      jump\t// in\n    tag_1018:\n        /* \"#utility.yul\":43486:43560   */\n      swap2\n      pop\n        /* \"#utility.yul\":43569:43662   */\n      tag_1019\n        /* \"#utility.yul\":43658:43661   */\n      dup3\n        /* \"#utility.yul\":43569:43662   */\n      tag_611\n      jump\t// in\n    tag_1019:\n        /* \"#utility.yul\":43687:43689   */\n      0x40\n        /* \"#utility.yul\":43682:43685   */\n      dup3\n        /* \"#utility.yul\":43678:43690   */\n      add\n        /* \"#utility.yul\":43671:43690   */\n      swap1\n      pop\n        /* \"#utility.yul\":43330:43696   */\n      swap2\n      swap1\n      pop\n      jump\t// out\n        /* \"#utility.yul\":43702:44121   */\n    tag_445:\n        /* \"#utility.yul\":43868:43872   */\n      0x00\n        /* \"#utility.yul\":43906:43908   */\n      0x20\n        /* \"#utility.yul\":43895:43904   */\n      dup3\n        /* \"#utility.yul\":43891:43909   */\n      add\n        /* \"#utility.yul\":43883:43909   */\n      swap1\n      pop\n        /* \"#utility.yul\":43955:43964   */\n      dup2\n        /* \"#utility.yul\":43949:43953   */\n      dup2\n        /* \"#utility.yul\":43945:43965   */\n      sub\n        /* \"#utility.yul\":43941:43942   */\n      0x00\n        /* \"#utility.yul\":43930:43939   */\n      dup4\n        /* \"#utility.yul\":43926:43943   */\n      add\n        /* \"#utility.yul\":43919:43966   */\n      mstore\n        /* \"#utility.yul\":43983:44114   */\n      tag_1021\n        /* \"#utility.yul\":44109:44113   */\n      dup2\n        /* \"#utility.yul\":43983:44114   */\n      tag_612\n      jump\t// in\n    tag_1021:\n        /* \"#utility.yul\":43975:44114   */\n      swap1\n      pop\n        /* \"#utility.yul\":43702:44121   */\n      swap2\n      swap1\n      pop\n      jump\t// out\n        /* \"#utility.yul\":44127:44354   */\n    tag_613:\n        /* \"#utility.yul\":44267:44301   */\n      0x436f75727365206d75737420626520617070726f76656420746f206372656174\n        /* \"#utility.yul\":44263:44264   */\n      0x00\n        /* \"#utility.yul\":44255:44261   */\n      dup3\n        /* \"#utility.yul\":44251:44265   */\n      add\n        /* \"#utility.yul\":44244:44302   */\n      mstore\n        /* \"#utility.yul\":44336:44346   */\n      0x652061207175697a000000000000000000000000000000000000000000000000\n        /* \"#utility.yul\":44331:44333   */\n      0x20\n        /* \"#utility.yul\":44323:44329   */\n      dup3\n        /* \"#utility.yul\":44319:44334   */\n      add\n        /* \"#utility.yul\":44312:44347   */\n      mstore\n        /* \"#utility.yul\":44127:44354   */\n      pop\n      jump\t// out\n        /* \"#utility.yul\":44360:44726   */\n    tag_614:\n        /* \"#utility.yul\":44502:44505   */\n      0x00\n        /* \"#utility.yul\":44523:44590   */\n      tag_1024\n        /* \"#utility.yul\":44587:44589   */\n      0x28\n        /* \"#utility.yul\":44582:44585   */\n      dup4\n        /* \"#utility.yul\":44523:44590   */\n      tag_548\n      jump\t// in\n    tag_1024:\n        /* \"#utility.yul\":44516:44590   */\n      swap2\n      pop\n        /* \"#utility.yul\":44599:44692   */\n      tag_1025\n        /* \"#utility.yul\":44688:44691   */\n      dup3\n        /* \"#utility.yul\":44599:44692   */\n      tag_613\n      jump\t// in\n    tag_1025:\n        /* \"#utility.yul\":44717:44719   */\n      0x40\n        /* \"#utility.yul\":44712:44715   */\n      dup3\n        /* \"#utility.yul\":44708:44720   */\n      add\n        /* \"#utility.yul\":44701:44720   */\n      swap1\n      pop\n        /* \"#utility.yul\":44360:44726   */\n      swap2\n      swap1\n      pop\n      jump\t// out\n        /* \"#utility.yul\":44732:45151   */\n    tag_448:\n        /* \"#utility.yul\":44898:44902   */\n      0x00\n        /* \"#utility.yul\":44936:44938   */\n      0x20\n        /* \"#utility.yul\":44925:44934   */\n      dup3\n        /* \"#utility.yul\":44921:44939   */\n      add\n        /* \"#utility.yul\":44913:44939   */\n      swap1\n      pop\n        /* \"#utility.yul\":44985:44994   */\n      dup2\n        /* \"#utility.yul\":44979:44983   */\n      dup2\n        /* \"#utility.yul\":44975:44995   */\n      sub\n        /* \"#utility.yul\":44971:44972   */\n      0x00\n        /* \"#utility.yul\":44960:44969   */\n      dup4\n        /* \"#utility.yul\":44956:44973   */\n      add\n        /* \"#utility.yul\":44949:44996   */\n      mstore\n        /* \"#utility.yul\":45013:45144   */\n      tag_1027\n        /* \"#utility.yul\":45139:45143   */\n      dup2\n        /* \"#utility.yul\":45013:45144   */\n      tag_614\n      jump\t// in\n    tag_1027:\n        /* \"#utility.yul\":45005:45144   */\n      swap1\n      pop\n        /* \"#utility.yul\":44732:45151   */\n      swap2\n      swap1\n      pop\n      jump\t// out\n        /* \"#utility.yul\":45157:45308   */\n    tag_615:\n        /* \"#utility.yul\":45297:45300   */\n      0x4100000000000000000000000000000000000000000000000000000000000000\n        /* \"#utility.yul\":45293:45294   */\n      0x00\n        /* \"#utility.yul\":45285:45291   */\n      dup3\n        /* \"#utility.yul\":45281:45295   */\n      add\n        /* \"#utility.yul\":45274:45301   */\n      mstore\n        /* \"#utility.yul\":45157:45308   */\n      pop\n      jump\t// out\n        /* \"#utility.yul\":45314:45714   */\n    tag_616:\n        /* \"#utility.yul\":45474:45477   */\n      0x00\n        /* \"#utility.yul\":45495:45579   */\n      tag_1030\n        /* \"#utility.yul\":45577:45578   */\n      0x01\n        /* \"#utility.yul\":45572:45575   */\n      dup4\n        /* \"#utility.yul\":45495:45579   */\n      tag_574\n      jump\t// in\n    tag_1030:\n        /* \"#utility.yul\":45488:45579   */\n      swap2\n      pop\n        /* \"#utility.yul\":45588:45681   */\n      tag_1031\n        /* \"#utility.yul\":45677:45680   */\n      dup3\n        /* \"#utility.yul\":45588:45681   */\n      tag_615\n      jump\t// in\n    tag_1031:\n        /* \"#utility.yul\":45706:45707   */\n      0x01\n        /* \"#utility.yul\":45701:45704   */\n      dup3\n        /* \"#utility.yul\":45697:45708   */\n      add\n        /* \"#utility.yul\":45690:45708   */\n      swap1\n      pop\n        /* \"#utility.yul\":45314:45714   */\n      swap2\n      swap1\n      pop\n      jump\t// out\n        /* \"#utility.yul\":45720:46101   */\n    tag_450:\n        /* \"#utility.yul\":45905:45908   */\n      0x00\n        /* \"#utility.yul\":45927:46075   */\n      tag_1033\n        /* \"#utility.yul\":46071:46074   */\n      dup3\n        /* \"#utility.yul\":45927:46075   */\n      tag_616\n      jump\t// in\n    tag_1033:\n        /* \"#utility.yul\":45920:46075   */\n      swap2\n      pop\n        /* \"#utility.yul\":46092:46095   */\n      dup2\n        /* \"#utility.yul\":46085:46095   */\n      swap1\n      pop\n        /* \"#utility.yul\":45720:46101   */\n      swap2\n      swap1\n      pop\n      jump\t// out\n        /* \"#utility.yul\":46107:46258   */\n    tag_617:\n        /* \"#utility.yul\":46247:46250   */\n      0x4200000000000000000000000000000000000000000000000000000000000000\n        /* \"#utility.yul\":46243:46244   */\n      0x00\n        /* \"#utility.yul\":46235:46241   */\n      dup3\n        /* \"#utility.yul\":46231:46245   */\n      add\n        /* \"#utility.yul\":46224:46251   */\n      mstore\n        /* \"#utility.yul\":46107:46258   */\n      pop\n      jump\t// out\n        /* \"#utility.yul\":46264:46664   */\n    tag_618:\n        /* \"#utility.yul\":46424:46427   */\n      0x00\n        /* \"#utility.yul\":46445:46529   */\n      tag_1036\n        /* \"#utility.yul\":46527:46528   */\n      0x01\n        /* \"#utility.yul\":46522:46525   */\n      dup4\n        /* \"#utility.yul\":46445:46529   */\n      tag_574\n      jump\t// in\n    tag_1036:\n        /* \"#utility.yul\":46438:46529   */\n      swap2\n      pop\n        /* \"#utility.yul\":46538:46631   */\n      tag_1037\n        /* \"#utility.yul\":46627:46630   */\n      dup3\n        /* \"#utility.yul\":46538:46631   */\n      tag_617\n      jump\t// in\n    tag_1037:\n        /* \"#utility.yul\":46656:46657   */\n      0x01\n        /* \"#utility.yul\":46651:46654   */\n      dup3\n        /* \"#utility.yul\":46647:46658   */\n      add\n        /* \"#utility.yul\":46640:46658   */\n      swap1\n      pop\n        /* \"#utility.yul\":46264:46664   */\n      swap2\n      swap1\n      pop\n      jump\t// out\n        /* \"#utility.yul\":46670:47051   */\n    tag_454:\n        /* \"#utility.yul\":46855:46858   */\n      0x00\n        /* \"#utility.yul\":46877:47025   */\n      tag_1039\n        /* \"#utility.yul\":47021:47024   */\n      dup3\n        /* \"#utility.yul\":46877:47025   */\n      tag_618\n      jump\t// in\n    tag_1039:\n        /* \"#utility.yul\":46870:47025   */\n      swap2\n      pop\n        /* \"#utility.yul\":47042:47045   */\n      dup2\n        /* \"#utility.yul\":47035:47045   */\n      swap1\n      pop\n        /* \"#utility.yul\":46670:47051   */\n      swap2\n      swap1\n      pop\n      jump\t// out\n        /* \"#utility.yul\":47057:47208   */\n    tag_619:\n        /* \"#utility.yul\":47197:47200   */\n      0x4300000000000000000000000000000000000000000000000000000000000000\n        /* \"#utility.yul\":47193:47194   */\n      0x00\n        /* \"#utility.yul\":47185:47191   */\n      dup3\n        /* \"#utility.yul\":47181:47195   */\n      add\n        /* \"#utility.yul\":47174:47201   */\n      mstore\n        /* \"#utility.yul\":47057:47208   */\n      pop\n      jump\t// out\n        /* \"#utility.yul\":47214:47614   */\n    tag_620:\n        /* \"#utility.yul\":47374:47377   */\n      0x00\n        /* \"#utility.yul\":47395:47479   */\n      tag_1042\n        /* \"#utility.yul\":47477:47478   */\n      0x01\n        /* \"#utility.yul\":47472:47475   */\n      dup4\n        /* \"#utility.yul\":47395:47479   */\n      tag_574\n      jump\t// in\n    tag_1042:\n        /* \"#utility.yul\":47388:47479   */\n      swap2\n      pop\n        /* \"#utility.yul\":47488:47581   */\n      tag_1043\n        /* \"#utility.yul\":47577:47580   */\n      dup3\n        /* \"#utility.yul\":47488:47581   */\n      tag_619\n      jump\t// in\n    tag_1043:\n        /* \"#utility.yul\":47606:47607   */\n      0x01\n        /* \"#utility.yul\":47601:47604   */\n      dup3\n        /* \"#utility.yul\":47597:47608   */\n      add\n        /* \"#utility.yul\":47590:47608   */\n      swap1\n      pop\n        /* \"#utility.yul\":47214:47614   */\n      swap2\n      swap1\n      pop\n      jump\t// out\n        /* \"#utility.yul\":47620:48001   */\n    tag_458:\n        /* \"#utility.yul\":47805:47808   */\n      0x00\n        /* \"#utility.yul\":47827:47975   */\n      tag_1045\n        /* \"#utility.yul\":47971:47974   */\n      dup3\n        /* \"#utility.yul\":47827:47975   */\n      tag_620\n      jump\t// in\n    tag_1045:\n        /* \"#utility.yul\":47820:47975   */\n      swap2\n      pop\n        /* \"#utility.yul\":47992:47995   */\n      dup2\n        /* \"#utility.yul\":47985:47995   */\n      swap1\n      pop\n        /* \"#utility.yul\":47620:48001   */\n      swap2\n      swap1\n      pop\n      jump\t// out\n        /* \"#utility.yul\":48007:48158   */\n    tag_621:\n        /* \"#utility.yul\":48147:48150   */\n      0x4400000000000000000000000000000000000000000000000000000000000000\n        /* \"#utility.yul\":48143:48144   */\n      0x00\n        /* \"#utility.yul\":48135:48141   */\n      dup3\n        /* \"#utility.yul\":48131:48145   */\n      add\n        /* \"#utility.yul\":48124:48151   */\n      mstore\n        /* \"#utility.yul\":48007:48158   */\n      pop\n      jump\t// out\n        /* \"#utility.yul\":48164:48564   */\n    tag_622:\n        /* \"#utility.yul\":48324:48327   */\n      0x00\n        /* \"#utility.yul\":48345:48429   */\n      tag_1048\n        /* \"#utility.yul\":48427:48428   */\n      0x01\n        /* \"#utility.yul\":48422:48425   */\n      dup4\n        /* \"#utility.yul\":48345:48429   */\n      tag_574\n      jump\t// in\n    tag_1048:\n        /* \"#utility.yul\":48338:48429   */\n      swap2\n      pop\n        /* \"#utility.yul\":48438:48531   */\n      tag_1049\n        /* \"#utility.yul\":48527:48530   */\n      dup3\n        /* \"#utility.yul\":48438:48531   */\n      tag_621\n      jump\t// in\n    tag_1049:\n        /* \"#utility.yul\":48556:48557   */\n      0x01\n        /* \"#utility.yul\":48551:48554   */\n      dup3\n        /* \"#utility.yul\":48547:48558   */\n      add\n        /* \"#utility.yul\":48540:48558   */\n      swap1\n      pop\n        /* \"#utility.yul\":48164:48564   */\n      swap2\n      swap1\n      pop\n      jump\t// out\n        /* \"#utility.yul\":48570:48951   */\n    tag_462:\n        /* \"#utility.yul\":48755:48758   */\n      0x00\n        /* \"#utility.yul\":48777:48925   */\n      tag_1051\n        /* \"#utility.yul\":48921:48924   */\n      dup3\n        /* \"#utility.yul\":48777:48925   */\n      tag_622\n      jump\t// in\n    tag_1051:\n        /* \"#utility.yul\":48770:48925   */\n      swap2\n      pop\n        /* \"#utility.yul\":48942:48945   */\n      dup2\n        /* \"#utility.yul\":48935:48945   */\n      swap1\n      pop\n        /* \"#utility.yul\":48570:48951   */\n      swap2\n      swap1\n      pop\n      jump\t// out\n        /* \"#utility.yul\":48957:49129   */\n    tag_623:\n        /* \"#utility.yul\":49097:49121   */\n      0x496e76616c696420636f727265637420616e7377657200000000000000000000\n        /* \"#utility.yul\":49093:49094   */\n      0x00\n        /* \"#utility.yul\":49085:49091   */\n      dup3\n        /* \"#utility.yul\":49081:49095   */\n      add\n        /* \"#utility.yul\":49074:49122   */\n      mstore\n        /* \"#utility.yul\":48957:49129   */\n      pop\n      jump\t// out\n        /* \"#utility.yul\":49135:49501   */\n    tag_624:\n        /* \"#utility.yul\":49277:49280   */\n      0x00\n        /* \"#utility.yul\":49298:49365   */\n      tag_1054\n        /* \"#utility.yul\":49362:49364   */\n      0x16\n        /* \"#utility.yul\":49357:49360   */\n      dup4\n        /* \"#utility.yul\":49298:49365   */\n      tag_548\n      jump\t// in\n    tag_1054:\n        /* \"#utility.yul\":49291:49365   */\n      swap2\n      pop\n        /* \"#utility.yul\":49374:49467   */\n      tag_1055\n        /* \"#utility.yul\":49463:49466   */\n      dup3\n        /* \"#utility.yul\":49374:49467   */\n      tag_623\n      jump\t// in\n    tag_1055:\n        /* \"#utility.yul\":49492:49494   */\n      0x20\n        /* \"#utility.yul\":49487:49490   */\n      dup3\n        /* \"#utility.yul\":49483:49495   */\n      add\n        /* \"#utility.yul\":49476:49495   */\n      swap1\n      pop\n        /* \"#utility.yul\":49135:49501   */\n      swap2\n      swap1\n      pop\n      jump\t// out\n        /* \"#utility.yul\":49507:49926   */\n    tag_466:\n        /* \"#utility.yul\":49673:49677   */\n      0x00\n        /* \"#utility.yul\":49711:49713   */\n      0x20\n        /* \"#utility.yul\":49700:49709   */\n      dup3\n        /* \"#utility.yul\":49696:49714   */\n      add\n        /* \"#utility.yul\":49688:49714   */\n      swap1\n      pop\n        /* \"#utility.yul\":49760:49769   */\n      dup2\n        /* \"#utility.yul\":49754:49758   */\n      dup2\n        /* \"#utility.yul\":49750:49770   */\n      sub\n        /* \"#utility.yul\":49746:49747   */\n      0x00\n        /* \"#utility.yul\":49735:49744   */\n      dup4\n        /* \"#utility.yul\":49731:49748   */\n      add\n        /* \"#utility.yul\":49724:49771   */\n      mstore\n        /* \"#utility.yul\":49788:49919   */\n      tag_1057\n        /* \"#utility.yul\":49914:49918   */\n      dup2\n        /* \"#utility.yul\":49788:49919   */\n      tag_624\n      jump\t// in\n    tag_1057:\n        /* \"#utility.yul\":49780:49919   */\n      swap1\n      pop\n        /* \"#utility.yul\":49507:49926   */\n      swap2\n      swap1\n      pop\n      jump\t// out\n        /* \"#utility.yul\":49932:50098   */\n    tag_625:\n        /* \"#utility.yul\":50072:50090   */\n      0x5061757361626c653a2070617573656400000000000000000000000000000000\n        /* \"#utility.yul\":50068:50069   */\n      0x00\n        /* \"#utility.yul\":50060:50066   */\n      dup3\n        /* \"#utility.yul\":50056:50070   */\n      add\n        /* \"#utility.yul\":50049:50091   */\n      mstore\n        /* \"#utility.yul\":49932:50098   */\n      pop\n      jump\t// out\n        /* \"#utility.yul\":50104:50470   */\n    tag_626:\n        /* \"#utility.yul\":50246:50249   */\n      0x00\n        /* \"#utility.yul\":50267:50334   */\n      tag_1060\n        /* \"#utility.yul\":50331:50333   */\n      0x10\n        /* \"#utility.yul\":50326:50329   */\n      dup4\n        /* \"#utility.yul\":50267:50334   */\n      tag_548\n      jump\t// in\n    tag_1060:\n        /* \"#utility.yul\":50260:50334   */\n      swap2\n      pop\n        /* \"#utility.yul\":50343:50436   */\n      tag_1061\n        /* \"#utility.yul\":50432:50435   */\n      dup3\n        /* \"#utility.yul\":50343:50436   */\n      tag_625\n      jump\t// in\n    tag_1061:\n        /* \"#utility.yul\":50461:50463   */\n      0x20\n        /* \"#utility.yul\":50456:50459   */\n      dup3\n        /* \"#utility.yul\":50452:50464   */\n      add\n        /* \"#utility.yul\":50445:50464   */\n      swap1\n      pop\n        /* \"#utility.yul\":50104:50470   */\n      swap2\n      swap1\n      pop\n      jump\t// out\n        /* \"#utility.yul\":50476:50895   */\n    tag_486:\n        /* \"#utility.yul\":50642:50646   */\n      0x00\n        /* \"#utility.yul\":50680:50682   */\n      0x20\n        /* \"#utility.yul\":50669:50678   */\n      dup3\n        /* \"#utility.yul\":50665:50683   */\n      add\n        /* \"#utility.yul\":50657:50683   */\n      swap1\n      pop\n        /* \"#utility.yul\":50729:50738   */\n      dup2\n        /* \"#utility.yul\":50723:50727   */\n      dup2\n        /* \"#utility.yul\":50719:50739   */\n      sub\n        /* \"#utility.yul\":50715:50716   */\n      0x00\n        /* \"#utility.yul\":50704:50713   */\n      dup4\n        /* \"#utility.yul\":50700:50717   */\n      add\n        /* \"#utility.yul\":50693:50740   */\n      mstore\n        /* \"#utility.yul\":50757:50888   */\n      tag_1063\n        /* \"#utility.yul\":50883:50887   */\n      dup2\n        /* \"#utility.yul\":50757:50888   */\n      tag_626\n      jump\t// in\n    tag_1063:\n        /* \"#utility.yul\":50749:50888   */\n      swap1\n      pop\n        /* \"#utility.yul\":50476:50895   */\n      swap2\n      swap1\n      pop\n      jump\t// out\n        /* \"#utility.yul\":50901:51071   */\n    tag_627:\n        /* \"#utility.yul\":51041:51063   */\n      0x5061757361626c653a206e6f7420706175736564000000000000000000000000\n        /* \"#utility.yul\":51037:51038   */\n      0x00\n        /* \"#utility.yul\":51029:51035   */\n      dup3\n        /* \"#utility.yul\":51025:51039   */\n      add\n        /* \"#utility.yul\":51018:51064   */\n      mstore\n        /* \"#utility.yul\":50901:51071   */\n      pop\n      jump\t// out\n        /* \"#utility.yul\":51077:51443   */\n    tag_628:\n        /* \"#utility.yul\":51219:51222   */\n      0x00\n        /* \"#utility.yul\":51240:51307   */\n      tag_1066\n        /* \"#utility.yul\":51304:51306   */\n      0x14\n        /* \"#utility.yul\":51299:51302   */\n      dup4\n        /* \"#utility.yul\":51240:51307   */\n      tag_548\n      jump\t// in\n    tag_1066:\n        /* \"#utility.yul\":51233:51307   */\n      swap2\n      pop\n        /* \"#utility.yul\":51316:51409   */\n      tag_1067\n        /* \"#utility.yul\":51405:51408   */\n      dup3\n        /* \"#utility.yul\":51316:51409   */\n      tag_627\n      jump\t// in\n    tag_1067:\n        /* \"#utility.yul\":51434:51436   */\n      0x20\n        /* \"#utility.yul\":51429:51432   */\n      dup3\n        /* \"#utility.yul\":51425:51437   */\n      add\n        /* \"#utility.yul\":51418:51437   */\n      swap1\n      pop\n        /* \"#utility.yul\":51077:51443   */\n      swap2\n      swap1\n      pop\n      jump\t// out\n        /* \"#utility.yul\":51449:51868   */\n    tag_511:\n        /* \"#utility.yul\":51615:51619   */\n      0x00\n        /* \"#utility.yul\":51653:51655   */\n      0x20\n        /* \"#utility.yul\":51642:51651   */\n      dup3\n        /* \"#utility.yul\":51638:51656   */\n      add\n        /* \"#utility.yul\":51630:51656   */\n      swap1\n      pop\n        /* \"#utility.yul\":51702:51711   */\n      dup2\n        /* \"#utility.yul\":51696:51700   */\n      dup2\n        /* \"#utility.yul\":51692:51712   */\n      sub\n        /* \"#utility.yul\":51688:51689   */\n      0x00\n        /* \"#utility.yul\":51677:51686   */\n      dup4\n        /* \"#utility.yul\":51673:51690   */\n      add\n        /* \"#utility.yul\":51666:51713   */\n      mstore\n        /* \"#utility.yul\":51730:51861   */\n      tag_1069\n        /* \"#utility.yul\":51856:51860   */\n      dup2\n        /* \"#utility.yul\":51730:51861   */\n      tag_628\n      jump\t// in\n    tag_1069:\n        /* \"#utility.yul\":51722:51861   */\n      swap1\n      pop\n        /* \"#utility.yul\":51449:51868   */\n      swap2\n      swap1\n      pop\n      jump\t// out\n\n    auxdata: 0xa2646970667358221220a4510d8669e6d5b40730290cf8b9ca28203079ebd37c2050b2627c3d1fb6cc1464736f6c634300081a0033\n}\n",
				"bytecode": {
					"linkReferences": {},
					"object": "608060405234801561000f575f80fd5b5060405161484438038061484483398181016040528101906100319190610237565b335f73ffffffffffffffffffffffffffffffffffffffff168173ffffffffffffffffffffffffffffffffffffffff16036100a2575f6040517f1e4fbdf70000000000000000000000000000000000000000000000000000000081526004016100999190610271565b60405180910390fd5b6100b18161011860201b60201c565b505f8060146101000a81548160ff0219169083151502179055508060015f6101000a81548173ffffffffffffffffffffffffffffffffffffffff021916908373ffffffffffffffffffffffffffffffffffffffff160217905550426002819055505061028a565b5f805f9054906101000a900473ffffffffffffffffffffffffffffffffffffffff169050815f806101000a81548173ffffffffffffffffffffffffffffffffffffffff021916908373ffffffffffffffffffffffffffffffffffffffff1602179055508173ffffffffffffffffffffffffffffffffffffffff168173ffffffffffffffffffffffffffffffffffffffff167f8be0079c531659141344cd1fd0a4f28419497f9722a3daafe3b4186f6b6457e060405160405180910390a35050565b5f80fd5b5f73ffffffffffffffffffffffffffffffffffffffff82169050919050565b5f610206826101dd565b9050919050565b610216816101fc565b8114610220575f80fd5b50565b5f815190506102318161020d565b92915050565b5f6020828403121561024c5761024b6101d9565b5b5f61025984828501610223565b91505092915050565b61026b816101fc565b82525050565b5f6020820190506102845f830184610262565b92915050565b6145ad806102975f395ff3fe6080604052600436106101c5575f3560e01c80638a38ab2c116100f6578063ae24f00511610094578063cf90b3be11610063578063cf90b3be14610586578063d69c575b146105b0578063f2fde38b146105cc578063fbf1aded146105f4576101cc565b8063ae24f005146104e8578063b0aaefd614610512578063b894af0214610554578063ba2f03621461056a576101cc565b806396f979d2116100d057806396f979d214610437578063996b5d8e14610478578063a4e1f03314610494578063ab8bb55e146104be576101cc565b80638a38ab2c146103c95780638da5cb5b146103e5578063905baa611461040f576101cc565b80635cb45cb511610163578063715018a61161013d578063715018a61461034b57806375284998146103615780638456cb591461038957806387bc14251461039f576101cc565b80635cb45cb5146102e95780635e52da27146103055780636605515914610321576101cc565b80633f4ba83a1161019f5780633f4ba83a146102555780634c64c0301461026b578063587f5ed7146102955780635c975abb146102bf576101cc565b806303b1965b146101d057806307f910f8146101ec57806334a014dc1461022b576101cc565b366101cc57005b5f80fd5b6101ea60048036038101906101e59190612c84565b61061e565b005b3480156101f7575f80fd5b50610212600480360381019061020d9190612d1c565b6108f8565b6040516102229493929190612d8f565b60405180910390f35b348015610236575f80fd5b5061023f61095f565b60405161024c9190612de1565b60405180910390f35b348015610260575f80fd5b50610269610965565b005b348015610276575f80fd5b5061027f610977565b60405161028c9190612de1565b60405180910390f35b3480156102a0575f80fd5b506102a961097e565b6040516102b69190612de1565b60405180910390f35b3480156102ca575f80fd5b506102d3610984565b6040516102e09190612dfa565b60405180910390f35b61030360048036038101906102fe9190613031565b610999565b005b61031f600480360381019061031a919061308b565b6110a2565b005b34801561032c575f80fd5b50610335611427565b6040516103429190612de1565b60405180910390f35b348015610356575f80fd5b5061035f61142d565b005b34801561036c575f80fd5b506103876004803603810190610382919061308b565b611440565b005b348015610394575f80fd5b5061039d611505565b005b3480156103aa575f80fd5b506103b3611517565b6040516103c09190613111565b60405180910390f35b6103e360048036038101906103de919061312a565b61153c565b005b3480156103f0575f80fd5b506103f9611841565b6040516104069190613180565b60405180910390f35b34801561041a575f80fd5b5061043560048036038101906104309190613199565b611868565b005b348015610442575f80fd5b5061045d6004803603810190610458919061308b565b6118b3565b60405161046f96959493929190613224565b60405180910390f35b610492600480360381019061048d919061308b565b61199c565b005b34801561049f575f80fd5b506104a8611cbe565b6040516104b59190612de1565b60405180910390f35b3480156104c9575f80fd5b506104d2611cc3565b6040516104df9190612de1565b60405180910390f35b3480156104f3575f80fd5b506104fc611ccf565b6040516105099190612de1565b60405180910390f35b34801561051d575f80fd5b5061053860048036038101906105339190612c84565b611cd4565b60405161054b97969594939291906132a2565b60405180910390f35b34801561055f575f80fd5b50610568611fca565b005b610584600480360381019061057f919061308b565b612123565b005b348015610591575f80fd5b5061059a61242a565b6040516105a79190612de1565b60405180910390f35b6105ca60048036038101906105c59190613332565b612436565b005b3480156105d7575f80fd5b506105f260048036038101906105ed9190613199565b61290b565b005b3480156105ff575f80fd5b5061060861298f565b6040516106159190612de1565b60405180910390f35b61062661299b565b670a688906bd8b0000341015610671576040517f08c379a0000000000000000000000000000000000000000000000000000000008152600401610668906134c1565b60405180910390fd5b670a688906bd8b000060035f82825461068a919061350c565b925050819055505f670a688906bd8b0000346106a6919061353f565b90505f8111156106f5573373ffffffffffffffffffffffffffffffffffffffff166108fc8290811502906040515f60405180830381858888f193505050501580156106f3573d5f803e3d5ffd5b505b5f60045f8581526020019081526020015f209050805f015f9054906101000a900473ffffffffffffffffffffffffffffffffffffffff1673ffffffffffffffffffffffffffffffffffffffff163373ffffffffffffffffffffffffffffffffffffffff1614610799576040517f08c379a0000000000000000000000000000000000000000000000000000000008152600401610790906135e2565b60405180910390fd5b82816004015410156107e0576040517f08c379a00000000000000000000000000000000000000000000000000000000081526004016107d790613670565b60405180910390fd5b82816004015f8282546107f3919061353f565b925050819055505f3373ffffffffffffffffffffffffffffffffffffffff168460405161081f906136bb565b5f6040518083038185875af1925050503d805f8114610859576040519150601f19603f3d011682016040523d82523d5f602084013e61085e565b606091505b50509050806108a2576040517f08c379a000000000000000000000000000000000000000000000000000000000815260040161089990613719565b60405180910390fd5b3373ffffffffffffffffffffffffffffffffffffffff16857fac49faceac63eafdea924340376e875517fd2e5b7e9b63c9bbbc464e166233f6866040516108e99190612de1565b60405180910390a35050505050565b6005602052815f5260405f20602052805f5260405f205f9150915050805f015f9054906101000a900460ff1690805f0160019054906101000a900460ff1690805f0160029054906101000a900460ff1690805f0160039054906101000a900460ff16905084565b60025481565b61096d6129e5565b610975612a6c565b565b6283d60081565b60035481565b5f8060149054906101000a900460ff16905090565b670a688906bd8b00003410156109e4576040517f08c379a00000000000000000000000000000000000000000000000000000000081526004016109db906134c1565b60405180910390fd5b670a688906bd8b000060035f8282546109fd919061350c565b925050819055505f670a688906bd8b000034610a19919061353f565b90505f811115610a68573373ffffffffffffffffffffffffffffffffffffffff166108fc8290811502906040515f60405180830381858888f19350505050158015610a66573d5f803e3d5ffd5b505b5f60055f3373ffffffffffffffffffffffffffffffffffffffff1673ffffffffffffffffffffffffffffffffffffffff1681526020019081526020015f205f8581526020019081526020015f209050805f015f9054906101000a900460ff16610b06576040517f08c379a0000000000000000000000000000000000000000000000000000000008152600401610afd90613781565b60405180910390fd5b6002815f0160019054906101000a900460ff1660ff1610610b5c576040517f08c379a0000000000000000000000000000000000000000000000000000000008152600401610b53906137e9565b60405180910390fd5b805f0160029054906101000a900460ff1615610bad576040517f08c379a0000000000000000000000000000000000000000000000000000000008152600401610ba490613877565b60405180910390fd5b805f01600181819054906101000a900460ff1680929190610bcd90613895565b91906101000a81548160ff021916908360ff160217905550505f60065f8681526020019081526020015f20805480602002602001604051908101604052809291908181526020015f905b82821015610f2a578382905f5260205f2090600702016040518060e00160405290815f8201548152602001600182018054610c51906138ea565b80601f0160208091040260200160405190810160405280929190818152602001828054610c7d906138ea565b8015610cc85780601f10610c9f57610100808354040283529160200191610cc8565b820191905f5260205f20905b815481529060010190602001808311610cab57829003601f168201915b50505050508152602001600282018054610ce1906138ea565b80601f0160208091040260200160405190810160405280929190818152602001828054610d0d906138ea565b8015610d585780601f10610d2f57610100808354040283529160200191610d58565b820191905f5260205f20905b815481529060010190602001808311610d3b57829003601f168201915b50505050508152602001600382018054610d71906138ea565b80601f0160208091040260200160405190810160405280929190818152602001828054610d9d906138ea565b8015610de85780601f10610dbf57610100808354040283529160200191610de8565b820191905f5260205f20905b815481529060010190602001808311610dcb57829003601f168201915b50505050508152602001600482018054610e01906138ea565b80601f0160208091040260200160405190810160405280929190818152602001828054610e2d906138ea565b8015610e785780601f10610e4f57610100808354040283529160200191610e78565b820191905f5260205f20905b815481529060010190602001808311610e5b57829003601f168201915b50505050508152602001600582018054610e91906138ea565b80601f0160208091040260200160405190810160405280929190818152602001828054610ebd906138ea565b8015610f085780601f10610edf57610100808354040283529160200191610f08565b820191905f5260205f20905b815481529060010190602001808311610eeb57829003601f168201915b5050505050815260200160068201548152505081526020019060010190610c17565b5050505090508051845114610f74576040517f08c379a0000000000000000000000000000000000000000000000000000000008152600401610f6b90613964565b60405180910390fd5b5f600190505f5b8251811015610ffe57828181518110610f9757610f96613982565b5b602002602001015160c00151868281518110610fb657610fb5613982565b5b6020026020010151604051602001610fce91906139e9565b6040516020818303038152906040528051906020012014610ff1575f9150610ffe565b8080600101915050610f7b565b50801561104b576001835f0160026101000a81548160ff02191690831515021790555060045f8781526020019081526020015f206003015f815480929190611045906139ff565b91905055505b3373ffffffffffffffffffffffffffffffffffffffff16867faee8895c1bf669485cee2dd54d1eee9e65b02a244afb6f798f95d72405cdf7a5836040516110929190612dfa565b60405180910390a3505050505050565b6110aa61299b565b670a688906bd8b00003410156110f5576040517f08c379a00000000000000000000000000000000000000000000000000000000081526004016110ec906134c1565b60405180910390fd5b670a688906bd8b000060035f82825461110e919061350c565b925050819055505f670a688906bd8b00003461112a919061353f565b90505f811115611179573373ffffffffffffffffffffffffffffffffffffffff166108fc8290811502906040515f60405180830381858888f19350505050158015611177573d5f803e3d5ffd5b505b600560015f9054906101000a900473ffffffffffffffffffffffffffffffffffffffff1673ffffffffffffffffffffffffffffffffffffffff1663b9f79451336040518263ffffffff1660e01b81526004016111d59190613180565b602060405180830381865afa1580156111f0573d5f803e3d5ffd5b505050506040513d601f19601f820116820180604052508101906112149190613a5a565b1015611255576040517f08c379a000000000000000000000000000000000000000000000000000000000815260040161124c90613af5565b60405180910390fd5b60045f8381526020019081526020015f206002015f9054906101000a900460ff166112b5576040517f08c379a00000000000000000000000000000000000000000000000000000000081526004016112ac90613b5d565b60405180910390fd5b60055f3373ffffffffffffffffffffffffffffffffffffffff1673ffffffffffffffffffffffffffffffffffffffff1681526020019081526020015f205f8381526020019081526020015f205f015f9054906101000a900460ff1615611350576040517f08c379a000000000000000000000000000000000000000000000000000000000815260040161134790613bc5565b60405180910390fd5b600160055f3373ffffffffffffffffffffffffffffffffffffffff1673ffffffffffffffffffffffffffffffffffffffff1681526020019081526020015f205f8481526020019081526020015f205f015f6101000a81548160ff02191690831515021790555060045f8381526020019081526020015f206005015f8154809291906113da906139ff565b91905055503373ffffffffffffffffffffffffffffffffffffffff16827ffacf1a2842acbad124cbca0a047fe37bc246c68f814e0350c7bd8a022fd1dddb60405160405180910390a35050565b60075481565b6114356129e5565b61143e5f612acd565b565b6114486129e5565b60045f8281526020019081526020015f206002015f9054906101000a900460ff16156114a9576040517f08c379a00000000000000000000000000000000000000000000000000000000081526004016114a090613c2d565b60405180910390fd5b600160045f8381526020019081526020015f206002015f6101000a81548160ff021916908315150217905550807f87c1c0e5cd17beb8c61a3337b32c66021cb179dd6f97d6d9ce923a029092bd4560405160405180910390a250565b61150d6129e5565b611515612b8e565b565b60015f9054906101000a900473ffffffffffffffffffffffffffffffffffffffff1681565b61154461299b565b670a688906bd8b000034101561158f576040517f08c379a0000000000000000000000000000000000000000000000000000000008152600401611586906134c1565b60405180910390fd5b670a688906bd8b000060035f8282546115a8919061350c565b925050819055505f670a688906bd8b0000346115c4919061353f565b90505f811115611613573373ffffffffffffffffffffffffffffffffffffffff166108fc8290811502906040515f60405180830381858888f19350505050158015611611573d5f803e3d5ffd5b505b600560015f9054906101000a900473ffffffffffffffffffffffffffffffffffffffff1673ffffffffffffffffffffffffffffffffffffffff1663b9f79451336040518263ffffffff1660e01b815260040161166f9190613180565b602060405180830381865afa15801561168a573d5f803e3d5ffd5b505050506040513d601f19601f820116820180604052508101906116ae9190613a5a565b10156116ef576040517f08c379a00000000000000000000000000000000000000000000000000000000081526004016116e690613cbb565b60405180910390fd5b5f60075f815480929190611702906139ff565b9190505590506040518060c001604052803373ffffffffffffffffffffffffffffffffffffffff1681526020018481526020015f151581526020015f81526020015f81526020015f81525060045f8381526020019081526020015f205f820151815f015f6101000a81548173ffffffffffffffffffffffffffffffffffffffff021916908373ffffffffffffffffffffffffffffffffffffffff16021790555060208201518160010190816117b79190613e6d565b506040820151816002015f6101000a81548160ff021916908315150217905550606082015181600301556080820151816004015560a082015181600501559050503373ffffffffffffffffffffffffffffffffffffffff16817fa68f79aa37f9cdc81c2757cfb3e11e9d7d89ca0a5410fbcf1b61125bc17fb1b760405160405180910390a3505050565b5f805f9054906101000a900473ffffffffffffffffffffffffffffffffffffffff16905090565b6118706129e5565b8060015f6101000a81548173ffffffffffffffffffffffffffffffffffffffff021916908373ffffffffffffffffffffffffffffffffffffffff16021790555050565b6004602052805f5260405f205f91509050805f015f9054906101000a900473ffffffffffffffffffffffffffffffffffffffff16908060010180546118f7906138ea565b80601f0160208091040260200160405190810160405280929190818152602001828054611923906138ea565b801561196e5780601f106119455761010080835404028352916020019161196e565b820191905f5260205f20905b81548152906001019060200180831161195157829003601f168201915b505050505090806002015f9054906101000a900460ff16908060030154908060040154908060050154905086565b6119a461299b565b670a688906bd8b00003410156119ef576040517f08c379a00000000000000000000000000000000000000000000000000000000081526004016119e6906134c1565b60405180910390fd5b670a688906bd8b000060035f828254611a08919061350c565b925050819055505f670a688906bd8b000034611a24919061353f565b90505f811115611a73573373ffffffffffffffffffffffffffffffffffffffff166108fc8290811502906040515f60405180830381858888f19350505050158015611a71573d5f803e3d5ffd5b505b5f60055f3373ffffffffffffffffffffffffffffffffffffffff1673ffffffffffffffffffffffffffffffffffffffff1681526020019081526020015f205f8481526020019081526020015f209050805f0160029054906101000a900460ff16611b12576040517f08c379a0000000000000000000000000000000000000000000000000000000008152600401611b0990613f86565b60405180910390fd5b805f0160039054906101000a900460ff1615611b63576040517f08c379a0000000000000000000000000000000000000000000000000000000008152600401611b5a90613fee565b60405180910390fd5b6001815f0160036101000a81548160ff021916908315150217905550678ac7230489e8000060045f8581526020019081526020015f206004015f828254611baa919061350c565b925050819055505f3373ffffffffffffffffffffffffffffffffffffffff16678ac7230489e80000604051611bde906136bb565b5f6040518083038185875af1925050503d805f8114611c18576040519150601f19603f3d011682016040523d82523d5f602084013e611c1d565b606091505b5050905080611c61576040517f08c379a0000000000000000000000000000000000000000000000000000000008152600401611c5890613719565b60405180910390fd5b3373ffffffffffffffffffffffffffffffffffffffff16847f24b5efa61dd1cfc659205a97fb8ed868f3cb8c81922bab2b96423e5de1de2cb7678ac7230489e80000604051611cb09190612de1565b60405180910390a350505050565b600581565b670a688906bd8b000081565b600581565b6006602052815f5260405f208181548110611ced575f80fd5b905f5260205f2090600702015f9150915050805f015490806001018054611d13906138ea565b80601f0160208091040260200160405190810160405280929190818152602001828054611d3f906138ea565b8015611d8a5780601f10611d6157610100808354040283529160200191611d8a565b820191905f5260205f20905b815481529060010190602001808311611d6d57829003601f168201915b505050505090806002018054611d9f906138ea565b80601f0160208091040260200160405190810160405280929190818152602001828054611dcb906138ea565b8015611e165780601f10611ded57610100808354040283529160200191611e16565b820191905f5260205f20905b815481529060010190602001808311611df957829003601f168201915b505050505090806003018054611e2b906138ea565b80601f0160208091040260200160405190810160405280929190818152602001828054611e57906138ea565b8015611ea25780601f10611e7957610100808354040283529160200191611ea2565b820191905f5260205f20905b815481529060010190602001808311611e8557829003601f168201915b505050505090806004018054611eb7906138ea565b80601f0160208091040260200160405190810160405280929190818152602001828054611ee3906138ea565b8015611f2e5780601f10611f0557610100808354040283529160200191611f2e565b820191905f5260205f20905b815481529060010190602001808311611f1157829003601f168201915b505050505090806005018054611f43906138ea565b80601f0160208091040260200160405190810160405280929190818152602001828054611f6f906138ea565b8015611fba5780601f10611f9157610100808354040283529160200191611fba565b820191905f5260205f20905b815481529060010190602001808311611f9d57829003601f168201915b5050505050908060060154905087565b611fd26129e5565b6283d600600254611fe3919061350c565b421015612025576040517f08c379a000000000000000000000000000000000000000000000000000000000815260040161201c90614056565b60405180910390fd5b5f60035490505f600381905550426002819055505f612042611841565b73ffffffffffffffffffffffffffffffffffffffff1682604051612065906136bb565b5f6040518083038185875af1925050503d805f811461209f576040519150601f19603f3d011682016040523d82523d5f602084013e6120a4565b606091505b50509050806120e8576040517f08c379a00000000000000000000000000000000000000000000000000000000081526004016120df906140be565b60405180910390fd5b7f0d3c6acef4f1bd70f36dad19b43c6b794ac969b546734638671026f801d476fa826040516121179190612de1565b60405180910390a15050565b61212b61299b565b670a688906bd8b0000341015612176576040517f08c379a000000000000000000000000000000000000000000000000000000000815260040161216d906134c1565b60405180910390fd5b670a688906bd8b000060035f82825461218f919061350c565b925050819055505f670a688906bd8b0000346121ab919061353f565b90505f8111156121fa573373ffffffffffffffffffffffffffffffffffffffff166108fc8290811502906040515f60405180830381858888f193505050501580156121f8573d5f803e3d5ffd5b505b5f60045f8481526020019081526020015f209050805f015f9054906101000a900473ffffffffffffffffffffffffffffffffffffffff1673ffffffffffffffffffffffffffffffffffffffff163373ffffffffffffffffffffffffffffffffffffffff161461229e576040517f08c379a00000000000000000000000000000000000000000000000000000000081526004016122959061414c565b60405180910390fd5b806002015f9054906101000a900460ff166122ee576040517f08c379a00000000000000000000000000000000000000000000000000000000081526004016122e590613b5d565b60405180910390fd5b5f670de0b6b3a76400008260030154612307919061416a565b90505f826003018190555080826004015f828254612325919061350c565b925050819055505f3373ffffffffffffffffffffffffffffffffffffffff1682604051612351906136bb565b5f6040518083038185875af1925050503d805f811461238b576040519150601f19603f3d011682016040523d82523d5f602084013e612390565b606091505b50509050806123d4576040517f08c379a00000000000000000000000000000000000000000000000000000000081526004016123cb90613719565b60405180910390fd5b3373ffffffffffffffffffffffffffffffffffffffff16857fb67da43f4cc061f251c05601f44947d1be59a7ef5451a4a5230274da04f882468460405161241b9190612de1565b60405180910390a35050505050565b670de0b6b3a764000081565b670a688906bd8b0000341015612481576040517f08c379a0000000000000000000000000000000000000000000000000000000008152600401612478906134c1565b60405180910390fd5b670a688906bd8b000060035f82825461249a919061350c565b925050819055505f670a688906bd8b0000346124b6919061353f565b90505f811115612505573373ffffffffffffffffffffffffffffffffffffffff166108fc8290811502906040515f60405180830381858888f19350505050158015612503573d5f803e3d5ffd5b505b60045f8981526020019081526020015f205f015f9054906101000a900473ffffffffffffffffffffffffffffffffffffffff1673ffffffffffffffffffffffffffffffffffffffff163373ffffffffffffffffffffffffffffffffffffffff16146125a5576040517f08c379a000000000000000000000000000000000000000000000000000000000815260040161259c9061421b565b60405180910390fd5b60045f8981526020019081526020015f206002015f9054906101000a900460ff16612605576040517f08c379a00000000000000000000000000000000000000000000000000000000081526004016125fc906142a9565b60405180910390fd5b60405160200161261490614311565b604051602081830303815290604052805190602001208260405160200161263b91906139e9565b6040516020818303038152906040528051906020012014806126a657506040516020016126679061436f565b604051602081830303815290604052805190602001208260405160200161268e91906139e9565b60405160208183030381529060405280519060200120145b806126fa57506040516020016126bb906143cd565b60405160208183030381529060405280519060200120826040516020016126e291906139e9565b60405160208183030381529060405280519060200120145b8061274e575060405160200161270f9061442b565b604051602081830303815290604052805190602001208260405160200161273691906139e9565b60405160208183030381529060405280519060200120145b61278d576040517f08c379a000000000000000000000000000000000000000000000000000000000815260040161278490614489565b60405180910390fd5b5f6040518060e001604052808a8152602001898152602001888152602001878152602001868152602001858152602001846040516020016127ce91906139e9565b60405160208183030381529060405280519060200120815250905060065f8a81526020019081526020015f2081908060018154018082558091505060019003905f5260205f2090600702015f909190919091505f820151815f0155602082015181600101908161283e9190613e6d565b5060408201518160020190816128549190613e6d565b50606082015181600301908161286a9190613e6d565b5060808201518160040190816128809190613e6d565b5060a08201518160050190816128969190613e6d565b5060c0820151816006015550505f600160065f8c81526020019081526020015f20805490506128c5919061353f565b9050897f8865832f191ae6766f74ad3a536812cffbf608c1dee46454cf0b3b9c98a4b37f826040516128f79190612de1565b60405180910390a250505050505050505050565b6129136129e5565b5f73ffffffffffffffffffffffffffffffffffffffff168173ffffffffffffffffffffffffffffffffffffffff1603612983575f6040517f1e4fbdf700000000000000000000000000000000000000000000000000000000815260040161297a9190613180565b60405180910390fd5b61298c81612acd565b50565b678ac7230489e8000081565b6129a3610984565b156129e3576040517f08c379a00000000000000000000000000000000000000000000000000000000081526004016129da906144f1565b60405180910390fd5b565b6129ed612bf0565b73ffffffffffffffffffffffffffffffffffffffff16612a0b611841565b73ffffffffffffffffffffffffffffffffffffffff1614612a6a57612a2e612bf0565b6040517f118cdaa7000000000000000000000000000000000000000000000000000000008152600401612a619190613180565b60405180910390fd5b565b612a74612bf7565b5f8060146101000a81548160ff0219169083151502179055507f5db9ee0a495bf2e6ff9c91a7834c1ba4fdd244a5e8aa4e537bd38aeae4b073aa612ab6612bf0565b604051612ac39190613180565b60405180910390a1565b5f805f9054906101000a900473ffffffffffffffffffffffffffffffffffffffff169050815f806101000a81548173ffffffffffffffffffffffffffffffffffffffff021916908373ffffffffffffffffffffffffffffffffffffffff1602179055508173ffffffffffffffffffffffffffffffffffffffff168173ffffffffffffffffffffffffffffffffffffffff167f8be0079c531659141344cd1fd0a4f28419497f9722a3daafe3b4186f6b6457e060405160405180910390a35050565b612b9661299b565b60015f60146101000a81548160ff0219169083151502179055507f62e78cea01bee320cd4e420270b5ea74000d11b0c9f74754ebdbfc544b05a258612bd9612bf0565b604051612be69190613180565b60405180910390a1565b5f33905090565b612bff610984565b612c3e576040517f08c379a0000000000000000000000000000000000000000000000000000000008152600401612c3590614559565b60405180910390fd5b565b5f604051905090565b5f80fd5b5f80fd5b5f819050919050565b612c6381612c51565b8114612c6d575f80fd5b50565b5f81359050612c7e81612c5a565b92915050565b5f8060408385031215612c9a57612c99612c49565b5b5f612ca785828601612c70565b9250506020612cb885828601612c70565b9150509250929050565b5f73ffffffffffffffffffffffffffffffffffffffff82169050919050565b5f612ceb82612cc2565b9050919050565b612cfb81612ce1565b8114612d05575f80fd5b50565b5f81359050612d1681612cf2565b92915050565b5f8060408385031215612d3257612d31612c49565b5b5f612d3f85828601612d08565b9250506020612d5085828601612c70565b9150509250929050565b5f8115159050919050565b612d6e81612d5a565b82525050565b5f60ff82169050919050565b612d8981612d74565b82525050565b5f608082019050612da25f830187612d65565b612daf6020830186612d80565b612dbc6040830185612d65565b612dc96060830184612d65565b95945050505050565b612ddb81612c51565b82525050565b5f602082019050612df45f830184612dd2565b92915050565b5f602082019050612e0d5f830184612d65565b92915050565b5f80fd5b5f601f19601f8301169050919050565b7f4e487b71000000000000000000000000000000000000000000000000000000005f52604160045260245ffd5b612e5d82612e17565b810181811067ffffffffffffffff82111715612e7c57612e7b612e27565b5b80604052505050565b5f612e8e612c40565b9050612e9a8282612e54565b919050565b5f67ffffffffffffffff821115612eb957612eb8612e27565b5b602082029050602081019050919050565b5f80fd5b5f80fd5b5f67ffffffffffffffff821115612eec57612eeb612e27565b5b612ef582612e17565b9050602081019050919050565b828183375f83830152505050565b5f612f22612f1d84612ed2565b612e85565b905082815260208101848484011115612f3e57612f3d612ece565b5b612f49848285612f02565b509392505050565b5f82601f830112612f6557612f64612e13565b5b8135612f75848260208601612f10565b91505092915050565b5f612f90612f8b84612e9f565b612e85565b90508083825260208201905060208402830185811115612fb357612fb2612eca565b5b835b81811015612ffa57803567ffffffffffffffff811115612fd857612fd7612e13565b5b808601612fe58982612f51565b85526020850194505050602081019050612fb5565b5050509392505050565b5f82601f83011261301857613017612e13565b5b8135613028848260208601612f7e565b91505092915050565b5f806040838503121561304757613046612c49565b5b5f61305485828601612c70565b925050602083013567ffffffffffffffff81111561307557613074612c4d565b5b61308185828601613004565b9150509250929050565b5f602082840312156130a05761309f612c49565b5b5f6130ad84828501612c70565b91505092915050565b5f819050919050565b5f6130d96130d46130cf84612cc2565b6130b6565b612cc2565b9050919050565b5f6130ea826130bf565b9050919050565b5f6130fb826130e0565b9050919050565b61310b816130f1565b82525050565b5f6020820190506131245f830184613102565b92915050565b5f6020828403121561313f5761313e612c49565b5b5f82013567ffffffffffffffff81111561315c5761315b612c4d565b5b61316884828501612f51565b91505092915050565b61317a81612ce1565b82525050565b5f6020820190506131935f830184613171565b92915050565b5f602082840312156131ae576131ad612c49565b5b5f6131bb84828501612d08565b91505092915050565b5f81519050919050565b5f82825260208201905092915050565b8281835e5f83830152505050565b5f6131f6826131c4565b61320081856131ce565b93506132108185602086016131de565b61321981612e17565b840191505092915050565b5f60c0820190506132375f830189613171565b818103602083015261324981886131ec565b90506132586040830187612d65565b6132656060830186612dd2565b6132726080830185612dd2565b61327f60a0830184612dd2565b979650505050505050565b5f819050919050565b61329c8161328a565b82525050565b5f60e0820190506132b55f83018a612dd2565b81810360208301526132c781896131ec565b905081810360408301526132db81886131ec565b905081810360608301526132ef81876131ec565b9050818103608083015261330381866131ec565b905081810360a083015261331781856131ec565b905061332660c0830184613293565b98975050505050505050565b5f805f805f805f60e0888a03121561334d5761334c612c49565b5b5f61335a8a828b01612c70565b975050602088013567ffffffffffffffff81111561337b5761337a612c4d565b5b6133878a828b01612f51565b965050604088013567ffffffffffffffff8111156133a8576133a7612c4d565b5b6133b48a828b01612f51565b955050606088013567ffffffffffffffff8111156133d5576133d4612c4d565b5b6133e18a828b01612f51565b945050608088013567ffffffffffffffff81111561340257613401612c4d565b5b61340e8a828b01612f51565b93505060a088013567ffffffffffffffff81111561342f5761342e612c4d565b5b61343b8a828b01612f51565b92505060c088013567ffffffffffffffff81111561345c5761345b612c4d565b5b6134688a828b01612f51565b91505092959891949750929550565b7f496e73756666696369656e7420676173206665650000000000000000000000005f82015250565b5f6134ab6014836131ce565b91506134b682613477565b602082019050919050565b5f6020820190508181035f8301526134d88161349f565b9050919050565b7f4e487b71000000000000000000000000000000000000000000000000000000005f52601160045260245ffd5b5f61351682612c51565b915061352183612c51565b9250828201905080821115613539576135386134df565b5b92915050565b5f61354982612c51565b915061355483612c51565b925082820390508181111561356c5761356b6134df565b5b92915050565b7f4f6e6c7920636f757273652063726561746f722063616e2077697468647261775f8201527f20746f6b656e7300000000000000000000000000000000000000000000000000602082015250565b5f6135cc6027836131ce565b91506135d782613572565b604082019050919050565b5f6020820190508181035f8301526135f9816135c0565b9050919050565b7f496e73756666696369656e7420726577617264656420746f6b656e7320746f205f8201527f7769746864726177000000000000000000000000000000000000000000000000602082015250565b5f61365a6028836131ce565b915061366582613600565b604082019050919050565b5f6020820190508181035f8301526136878161364e565b9050919050565b5f81905092915050565b50565b5f6136a65f8361368e565b91506136b182613698565b5f82019050919050565b5f6136c58261369b565b9150819050919050565b7f4661696c656420746f2073656e64204d414e44000000000000000000000000005f82015250565b5f6137036013836131ce565b915061370e826136cf565b602082019050919050565b5f6020820190508181035f830152613730816136f7565b9050919050565b7f55736572206e6f7420656e726f6c6c656420696e207468697320636f757273655f82015250565b5f61376b6020836131ce565b915061377682613737565b602082019050919050565b5f6020820190508181035f8301526137988161375f565b9050919050565b7f4d6178696d756d20617474656d707473207265616368656400000000000000005f82015250565b5f6137d36018836131ce565b91506137de8261379f565b602082019050919050565b5f6020820190508181035f830152613800816137c7565b9050919050565b7f557365722068617320616c726561647920706173736564207468697320636f755f8201527f7273650000000000000000000000000000000000000000000000000000000000602082015250565b5f6138616023836131ce565b915061386c82613807565b604082019050919050565b5f6020820190508181035f83015261388e81613855565b9050919050565b5f61389f82612d74565b915060ff82036138b2576138b16134df565b5b600182019050919050565b7f4e487b71000000000000000000000000000000000000000000000000000000005f52602260045260245ffd5b5f600282049050600182168061390157607f821691505b602082108103613914576139136138bd565b5b50919050565b7f416e7377657220636f756e74206d69736d6174636800000000000000000000005f82015250565b5f61394e6015836131ce565b91506139598261391a565b602082019050919050565b5f6020820190508181035f83015261397b81613942565b9050919050565b7f4e487b71000000000000000000000000000000000000000000000000000000005f52603260045260245ffd5b5f81905092915050565b5f6139c3826131c4565b6139cd81856139af565b93506139dd8185602086016131de565b80840191505092915050565b5f6139f482846139b9565b915081905092915050565b5f613a0982612c51565b91507fffffffffffffffffffffffffffffffffffffffffffffffffffffffffffffffff8203613a3b57613a3a6134df565b5b600182019050919050565b5f81519050613a5481612c5a565b92915050565b5f60208284031215613a6f57613a6e612c49565b5b5f613a7c84828501613a46565b91505092915050565b7f496e73756666696369656e742072657075746174696f6e20746f20656e726f6c5f8201527f6c00000000000000000000000000000000000000000000000000000000000000602082015250565b5f613adf6021836131ce565b9150613aea82613a85565b604082019050919050565b5f6020820190508181035f830152613b0c81613ad3565b9050919050565b7f436f75727365206e6f7420617070726f766564000000000000000000000000005f82015250565b5f613b476013836131ce565b9150613b5282613b13565b602082019050919050565b5f6020820190508181035f830152613b7481613b3b565b9050919050565b7f416c726561647920656e726f6c6c6564000000000000000000000000000000005f82015250565b5f613baf6010836131ce565b9150613bba82613b7b565b602082019050919050565b5f6020820190508181035f830152613bdc81613ba3565b9050919050565b7f436f7572736520616c726561647920617070726f7665640000000000000000005f82015250565b5f613c176017836131ce565b9150613c2282613be3565b602082019050919050565b5f6020820190508181035f830152613c4481613c0b565b9050919050565b7f496e73756666696369656e742072657075746174696f6e20746f2063726561745f8201527f6520636f75727365000000000000000000000000000000000000000000000000602082015250565b5f613ca56028836131ce565b9150613cb082613c4b565b604082019050919050565b5f6020820190508181035f830152613cd281613c99565b9050919050565b5f819050815f5260205f209050919050565b5f6020601f8301049050919050565b5f82821b905092915050565b5f60088302613d357fffffffffffffffffffffffffffffffffffffffffffffffffffffffffffffffff82613cfa565b613d3f8683613cfa565b95508019841693508086168417925050509392505050565b5f613d71613d6c613d6784612c51565b6130b6565b612c51565b9050919050565b5f819050919050565b613d8a83613d57565b613d9e613d9682613d78565b848454613d06565b825550505050565b5f90565b613db2613da6565b613dbd818484613d81565b505050565b5b81811015613de057613dd55f82613daa565b600181019050613dc3565b5050565b601f821115613e2557613df681613cd9565b613dff84613ceb565b81016020851015613e0e578190505b613e22613e1a85613ceb565b830182613dc2565b50505b505050565b5f82821c905092915050565b5f613e455f1984600802613e2a565b1980831691505092915050565b5f613e5d8383613e36565b9150826002028217905092915050565b613e76826131c4565b67ffffffffffffffff811115613e8f57613e8e612e27565b5b613e9982546138ea565b613ea4828285613de4565b5f60209050601f831160018114613ed5575f8415613ec3578287015190505b613ecd8582613e52565b865550613f34565b601f198416613ee386613cd9565b5f5b82811015613f0a57848901518255600182019150602085019450602081019050613ee5565b86831015613f275784890151613f23601f891682613e36565b8355505b6001600288020188555050505b505050505050565b7f436f75727365206e6f74207061737365640000000000000000000000000000005f82015250565b5f613f706011836131ce565b9150613f7b82613f3c565b602082019050919050565b5f6020820190508181035f830152613f9d81613f64565b9050919050565b7f52657761726420616c726561647920636c61696d6564000000000000000000005f82015250565b5f613fd86016836131ce565b9150613fe382613fa4565b602082019050919050565b5f6020820190508181035f83015261400581613fcc565b9050919050565b7f5769746864726177616c20696e74657276616c206e6f742072656163686564005f82015250565b5f614040601f836131ce565b915061404b8261400c565b602082019050919050565b5f6020820190508181035f83015261406d81614034565b9050919050565b7f4661696c656420746f20776974686472617720676173206665657300000000005f82015250565b5f6140a8601b836131ce565b91506140b382614074565b602082019050919050565b5f6020820190508181035f8301526140d58161409c565b9050919050565b7f4f6e6c7920636f757273652063726561746f722063616e20636c61696d2072655f8201527f7761726400000000000000000000000000000000000000000000000000000000602082015250565b5f6141366024836131ce565b9150614141826140dc565b604082019050919050565b5f6020820190508181035f8301526141638161412a565b9050919050565b5f61417482612c51565b915061417f83612c51565b925082820261418d81612c51565b915082820484148315176141a4576141a36134df565b5b5092915050565b7f4f6e6c7920636f757273652063726561746f722063616e2063726561746520615f8201527f207175697a000000000000000000000000000000000000000000000000000000602082015250565b5f6142056025836131ce565b9150614210826141ab565b604082019050919050565b5f6020820190508181035f830152614232816141f9565b9050919050565b7f436f75727365206d75737420626520617070726f76656420746f2063726561745f8201527f652061207175697a000000000000000000000000000000000000000000000000602082015250565b5f6142936028836131ce565b915061429e82614239565b604082019050919050565b5f6020820190508181035f8301526142c081614287565b9050919050565b7f41000000000000000000000000000000000000000000000000000000000000005f82015250565b5f6142fb6001836139af565b9150614306826142c7565b600182019050919050565b5f61431b826142ef565b9150819050919050565b7f42000000000000000000000000000000000000000000000000000000000000005f82015250565b5f6143596001836139af565b915061436482614325565b600182019050919050565b5f6143798261434d565b9150819050919050565b7f43000000000000000000000000000000000000000000000000000000000000005f82015250565b5f6143b76001836139af565b91506143c282614383565b600182019050919050565b5f6143d7826143ab565b9150819050919050565b7f44000000000000000000000000000000000000000000000000000000000000005f82015250565b5f6144156001836139af565b9150614420826143e1565b600182019050919050565b5f61443582614409565b9150819050919050565b7f496e76616c696420636f727265637420616e73776572000000000000000000005f82015250565b5f6144736016836131ce565b915061447e8261443f565b602082019050919050565b5f6020820190508181035f8301526144a081614467565b9050919050565b7f5061757361626c653a20706175736564000000000000000000000000000000005f82015250565b5f6144db6010836131ce565b91506144e6826144a7565b602082019050919050565b5f6020820190508181035f830152614508816144cf565b9050919050565b7f5061757361626c653a206e6f74207061757365640000000000000000000000005f82015250565b5f6145436014836131ce565b915061454e8261450f565b602082019050919050565b5f6020820190508181035f83015261457081614537565b905091905056fea2646970667358221220a4510d8669e6d5b40730290cf8b9ca28203079ebd37c2050b2627c3d1fb6cc1464736f6c634300081a0033",
					"opcodes": "PUSH1 0x80 PUSH1 0x40 MSTORE CALLVALUE DUP1 ISZERO PUSH2 0xF JUMPI PUSH0 DUP1 REVERT JUMPDEST POP PUSH1 0x40 MLOAD PUSH2 0x4844 CODESIZE SUB DUP1 PUSH2 0x4844 DUP4 CODECOPY DUP2 DUP2 ADD PUSH1 0x40 MSTORE DUP2 ADD SWAP1 PUSH2 0x31 SWAP2 SWAP1 PUSH2 0x237 JUMP JUMPDEST CALLER PUSH0 PUSH20 0xFFFFFFFFFFFFFFFFFFFFFFFFFFFFFFFFFFFFFFFF AND DUP2 PUSH20 0xFFFFFFFFFFFFFFFFFFFFFFFFFFFFFFFFFFFFFFFF AND SUB PUSH2 0xA2 JUMPI PUSH0 PUSH1 0x40 MLOAD PUSH32 0x1E4FBDF700000000000000000000000000000000000000000000000000000000 DUP2 MSTORE PUSH1 0x4 ADD PUSH2 0x99 SWAP2 SWAP1 PUSH2 0x271 JUMP JUMPDEST PUSH1 0x40 MLOAD DUP1 SWAP2 SUB SWAP1 REVERT JUMPDEST PUSH2 0xB1 DUP2 PUSH2 0x118 PUSH1 0x20 SHL PUSH1 0x20 SHR JUMP JUMPDEST POP PUSH0 DUP1 PUSH1 0x14 PUSH2 0x100 EXP DUP2 SLOAD DUP2 PUSH1 0xFF MUL NOT AND SWAP1 DUP4 ISZERO ISZERO MUL OR SWAP1 SSTORE POP DUP1 PUSH1 0x1 PUSH0 PUSH2 0x100 EXP DUP2 SLOAD DUP2 PUSH20 0xFFFFFFFFFFFFFFFFFFFFFFFFFFFFFFFFFFFFFFFF MUL NOT AND SWAP1 DUP4 PUSH20 0xFFFFFFFFFFFFFFFFFFFFFFFFFFFFFFFFFFFFFFFF AND MUL OR SWAP1 SSTORE POP TIMESTAMP PUSH1 0x2 DUP2 SWAP1 SSTORE POP POP PUSH2 0x28A JUMP JUMPDEST PUSH0 DUP1 PUSH0 SWAP1 SLOAD SWAP1 PUSH2 0x100 EXP SWAP1 DIV PUSH20 0xFFFFFFFFFFFFFFFFFFFFFFFFFFFFFFFFFFFFFFFF AND SWAP1 POP DUP2 PUSH0 DUP1 PUSH2 0x100 EXP DUP2 SLOAD DUP2 PUSH20 0xFFFFFFFFFFFFFFFFFFFFFFFFFFFFFFFFFFFFFFFF MUL NOT AND SWAP1 DUP4 PUSH20 0xFFFFFFFFFFFFFFFFFFFFFFFFFFFFFFFFFFFFFFFF AND MUL OR SWAP1 SSTORE POP DUP2 PUSH20 0xFFFFFFFFFFFFFFFFFFFFFFFFFFFFFFFFFFFFFFFF AND DUP2 PUSH20 0xFFFFFFFFFFFFFFFFFFFFFFFFFFFFFFFFFFFFFFFF AND PUSH32 0x8BE0079C531659141344CD1FD0A4F28419497F9722A3DAAFE3B4186F6B6457E0 PUSH1 0x40 MLOAD PUSH1 0x40 MLOAD DUP1 SWAP2 SUB SWAP1 LOG3 POP POP JUMP JUMPDEST PUSH0 DUP1 REVERT JUMPDEST PUSH0 PUSH20 0xFFFFFFFFFFFFFFFFFFFFFFFFFFFFFFFFFFFFFFFF DUP3 AND SWAP1 POP SWAP2 SWAP1 POP JUMP JUMPDEST PUSH0 PUSH2 0x206 DUP3 PUSH2 0x1DD JUMP JUMPDEST SWAP1 POP SWAP2 SWAP1 POP JUMP JUMPDEST PUSH2 0x216 DUP2 PUSH2 0x1FC JUMP JUMPDEST DUP2 EQ PUSH2 0x220 JUMPI PUSH0 DUP1 REVERT JUMPDEST POP JUMP JUMPDEST PUSH0 DUP2 MLOAD SWAP1 POP PUSH2 0x231 DUP2 PUSH2 0x20D JUMP JUMPDEST SWAP3 SWAP2 POP POP JUMP JUMPDEST PUSH0 PUSH1 0x20 DUP3 DUP5 SUB SLT ISZERO PUSH2 0x24C JUMPI PUSH2 0x24B PUSH2 0x1D9 JUMP JUMPDEST JUMPDEST PUSH0 PUSH2 0x259 DUP5 DUP3 DUP6 ADD PUSH2 0x223 JUMP JUMPDEST SWAP2 POP POP SWAP3 SWAP2 POP POP JUMP JUMPDEST PUSH2 0x26B DUP2 PUSH2 0x1FC JUMP JUMPDEST DUP3 MSTORE POP POP JUMP JUMPDEST PUSH0 PUSH1 0x20 DUP3 ADD SWAP1 POP PUSH2 0x284 PUSH0 DUP4 ADD DUP5 PUSH2 0x262 JUMP JUMPDEST SWAP3 SWAP2 POP POP JUMP JUMPDEST PUSH2 0x45AD DUP1 PUSH2 0x297 PUSH0 CODECOPY PUSH0 RETURN INVALID PUSH1 0x80 PUSH1 0x40 MSTORE PUSH1 0x4 CALLDATASIZE LT PUSH2 0x1C5 JUMPI PUSH0 CALLDATALOAD PUSH1 0xE0 SHR DUP1 PUSH4 0x8A38AB2C GT PUSH2 0xF6 JUMPI DUP1 PUSH4 0xAE24F005 GT PUSH2 0x94 JUMPI DUP1 PUSH4 0xCF90B3BE GT PUSH2 0x63 JUMPI DUP1 PUSH4 0xCF90B3BE EQ PUSH2 0x586 JUMPI DUP1 PUSH4 0xD69C575B EQ PUSH2 0x5B0 JUMPI DUP1 PUSH4 0xF2FDE38B EQ PUSH2 0x5CC JUMPI DUP1 PUSH4 0xFBF1ADED EQ PUSH2 0x5F4 JUMPI PUSH2 0x1CC JUMP JUMPDEST DUP1 PUSH4 0xAE24F005 EQ PUSH2 0x4E8 JUMPI DUP1 PUSH4 0xB0AAEFD6 EQ PUSH2 0x512 JUMPI DUP1 PUSH4 0xB894AF02 EQ PUSH2 0x554 JUMPI DUP1 PUSH4 0xBA2F0362 EQ PUSH2 0x56A JUMPI PUSH2 0x1CC JUMP JUMPDEST DUP1 PUSH4 0x96F979D2 GT PUSH2 0xD0 JUMPI DUP1 PUSH4 0x96F979D2 EQ PUSH2 0x437 JUMPI DUP1 PUSH4 0x996B5D8E EQ PUSH2 0x478 JUMPI DUP1 PUSH4 0xA4E1F033 EQ PUSH2 0x494 JUMPI DUP1 PUSH4 0xAB8BB55E EQ PUSH2 0x4BE JUMPI PUSH2 0x1CC JUMP JUMPDEST DUP1 PUSH4 0x8A38AB2C EQ PUSH2 0x3C9 JUMPI DUP1 PUSH4 0x8DA5CB5B EQ PUSH2 0x3E5 JUMPI DUP1 PUSH4 0x905BAA61 EQ PUSH2 0x40F JUMPI PUSH2 0x1CC JUMP JUMPDEST DUP1 PUSH4 0x5CB45CB5 GT PUSH2 0x163 JUMPI DUP1 PUSH4 0x715018A6 GT PUSH2 0x13D JUMPI DUP1 PUSH4 0x715018A6 EQ PUSH2 0x34B JUMPI DUP1 PUSH4 0x75284998 EQ PUSH2 0x361 JUMPI DUP1 PUSH4 0x8456CB59 EQ PUSH2 0x389 JUMPI DUP1 PUSH4 0x87BC1425 EQ PUSH2 0x39F JUMPI PUSH2 0x1CC JUMP JUMPDEST DUP1 PUSH4 0x5CB45CB5 EQ PUSH2 0x2E9 JUMPI DUP1 PUSH4 0x5E52DA27 EQ PUSH2 0x305 JUMPI DUP1 PUSH4 0x66055159 EQ PUSH2 0x321 JUMPI PUSH2 0x1CC JUMP JUMPDEST DUP1 PUSH4 0x3F4BA83A GT PUSH2 0x19F JUMPI DUP1 PUSH4 0x3F4BA83A EQ PUSH2 0x255 JUMPI DUP1 PUSH4 0x4C64C030 EQ PUSH2 0x26B JUMPI DUP1 PUSH4 0x587F5ED7 EQ PUSH2 0x295 JUMPI DUP1 PUSH4 0x5C975ABB EQ PUSH2 0x2BF JUMPI PUSH2 0x1CC JUMP JUMPDEST DUP1 PUSH4 0x3B1965B EQ PUSH2 0x1D0 JUMPI DUP1 PUSH4 0x7F910F8 EQ PUSH2 0x1EC JUMPI DUP1 PUSH4 0x34A014DC EQ PUSH2 0x22B JUMPI PUSH2 0x1CC JUMP JUMPDEST CALLDATASIZE PUSH2 0x1CC JUMPI STOP JUMPDEST PUSH0 DUP1 REVERT JUMPDEST PUSH2 0x1EA PUSH1 0x4 DUP1 CALLDATASIZE SUB DUP2 ADD SWAP1 PUSH2 0x1E5 SWAP2 SWAP1 PUSH2 0x2C84 JUMP JUMPDEST PUSH2 0x61E JUMP JUMPDEST STOP JUMPDEST CALLVALUE DUP1 ISZERO PUSH2 0x1F7 JUMPI PUSH0 DUP1 REVERT JUMPDEST POP PUSH2 0x212 PUSH1 0x4 DUP1 CALLDATASIZE SUB DUP2 ADD SWAP1 PUSH2 0x20D SWAP2 SWAP1 PUSH2 0x2D1C JUMP JUMPDEST PUSH2 0x8F8 JUMP JUMPDEST PUSH1 0x40 MLOAD PUSH2 0x222 SWAP5 SWAP4 SWAP3 SWAP2 SWAP1 PUSH2 0x2D8F JUMP JUMPDEST PUSH1 0x40 MLOAD DUP1 SWAP2 SUB SWAP1 RETURN JUMPDEST CALLVALUE DUP1 ISZERO PUSH2 0x236 JUMPI PUSH0 DUP1 REVERT JUMPDEST POP PUSH2 0x23F PUSH2 0x95F JUMP JUMPDEST PUSH1 0x40 MLOAD PUSH2 0x24C SWAP2 SWAP1 PUSH2 0x2DE1 JUMP JUMPDEST PUSH1 0x40 MLOAD DUP1 SWAP2 SUB SWAP1 RETURN JUMPDEST CALLVALUE DUP1 ISZERO PUSH2 0x260 JUMPI PUSH0 DUP1 REVERT JUMPDEST POP PUSH2 0x269 PUSH2 0x965 JUMP JUMPDEST STOP JUMPDEST CALLVALUE DUP1 ISZERO PUSH2 0x276 JUMPI PUSH0 DUP1 REVERT JUMPDEST POP PUSH2 0x27F PUSH2 0x977 JUMP JUMPDEST PUSH1 0x40 MLOAD PUSH2 0x28C SWAP2 SWAP1 PUSH2 0x2DE1 JUMP JUMPDEST PUSH1 0x40 MLOAD DUP1 SWAP2 SUB SWAP1 RETURN JUMPDEST CALLVALUE DUP1 ISZERO PUSH2 0x2A0 JUMPI PUSH0 DUP1 REVERT JUMPDEST POP PUSH2 0x2A9 PUSH2 0x97E JUMP JUMPDEST PUSH1 0x40 MLOAD PUSH2 0x2B6 SWAP2 SWAP1 PUSH2 0x2DE1 JUMP JUMPDEST PUSH1 0x40 MLOAD DUP1 SWAP2 SUB SWAP1 RETURN JUMPDEST CALLVALUE DUP1 ISZERO PUSH2 0x2CA JUMPI PUSH0 DUP1 REVERT JUMPDEST POP PUSH2 0x2D3 PUSH2 0x984 JUMP JUMPDEST PUSH1 0x40 MLOAD PUSH2 0x2E0 SWAP2 SWAP1 PUSH2 0x2DFA JUMP JUMPDEST PUSH1 0x40 MLOAD DUP1 SWAP2 SUB SWAP1 RETURN JUMPDEST PUSH2 0x303 PUSH1 0x4 DUP1 CALLDATASIZE SUB DUP2 ADD SWAP1 PUSH2 0x2FE SWAP2 SWAP1 PUSH2 0x3031 JUMP JUMPDEST PUSH2 0x999 JUMP JUMPDEST STOP JUMPDEST PUSH2 0x31F PUSH1 0x4 DUP1 CALLDATASIZE SUB DUP2 ADD SWAP1 PUSH2 0x31A SWAP2 SWAP1 PUSH2 0x308B JUMP JUMPDEST PUSH2 0x10A2 JUMP JUMPDEST STOP JUMPDEST CALLVALUE DUP1 ISZERO PUSH2 0x32C JUMPI PUSH0 DUP1 REVERT JUMPDEST POP PUSH2 0x335 PUSH2 0x1427 JUMP JUMPDEST PUSH1 0x40 MLOAD PUSH2 0x342 SWAP2 SWAP1 PUSH2 0x2DE1 JUMP JUMPDEST PUSH1 0x40 MLOAD DUP1 SWAP2 SUB SWAP1 RETURN JUMPDEST CALLVALUE DUP1 ISZERO PUSH2 0x356 JUMPI PUSH0 DUP1 REVERT JUMPDEST POP PUSH2 0x35F PUSH2 0x142D JUMP JUMPDEST STOP JUMPDEST CALLVALUE DUP1 ISZERO PUSH2 0x36C JUMPI PUSH0 DUP1 REVERT JUMPDEST POP PUSH2 0x387 PUSH1 0x4 DUP1 CALLDATASIZE SUB DUP2 ADD SWAP1 PUSH2 0x382 SWAP2 SWAP1 PUSH2 0x308B JUMP JUMPDEST PUSH2 0x1440 JUMP JUMPDEST STOP JUMPDEST CALLVALUE DUP1 ISZERO PUSH2 0x394 JUMPI PUSH0 DUP1 REVERT JUMPDEST POP PUSH2 0x39D PUSH2 0x1505 JUMP JUMPDEST STOP JUMPDEST CALLVALUE DUP1 ISZERO PUSH2 0x3AA JUMPI PUSH0 DUP1 REVERT JUMPDEST POP PUSH2 0x3B3 PUSH2 0x1517 JUMP JUMPDEST PUSH1 0x40 MLOAD PUSH2 0x3C0 SWAP2 SWAP1 PUSH2 0x3111 JUMP JUMPDEST PUSH1 0x40 MLOAD DUP1 SWAP2 SUB SWAP1 RETURN JUMPDEST PUSH2 0x3E3 PUSH1 0x4 DUP1 CALLDATASIZE SUB DUP2 ADD SWAP1 PUSH2 0x3DE SWAP2 SWAP1 PUSH2 0x312A JUMP JUMPDEST PUSH2 0x153C JUMP JUMPDEST STOP JUMPDEST CALLVALUE DUP1 ISZERO PUSH2 0x3F0 JUMPI PUSH0 DUP1 REVERT JUMPDEST POP PUSH2 0x3F9 PUSH2 0x1841 JUMP JUMPDEST PUSH1 0x40 MLOAD PUSH2 0x406 SWAP2 SWAP1 PUSH2 0x3180 JUMP JUMPDEST PUSH1 0x40 MLOAD DUP1 SWAP2 SUB SWAP1 RETURN JUMPDEST CALLVALUE DUP1 ISZERO PUSH2 0x41A JUMPI PUSH0 DUP1 REVERT JUMPDEST POP PUSH2 0x435 PUSH1 0x4 DUP1 CALLDATASIZE SUB DUP2 ADD SWAP1 PUSH2 0x430 SWAP2 SWAP1 PUSH2 0x3199 JUMP JUMPDEST PUSH2 0x1868 JUMP JUMPDEST STOP JUMPDEST CALLVALUE DUP1 ISZERO PUSH2 0x442 JUMPI PUSH0 DUP1 REVERT JUMPDEST POP PUSH2 0x45D PUSH1 0x4 DUP1 CALLDATASIZE SUB DUP2 ADD SWAP1 PUSH2 0x458 SWAP2 SWAP1 PUSH2 0x308B JUMP JUMPDEST PUSH2 0x18B3 JUMP JUMPDEST PUSH1 0x40 MLOAD PUSH2 0x46F SWAP7 SWAP6 SWAP5 SWAP4 SWAP3 SWAP2 SWAP1 PUSH2 0x3224 JUMP JUMPDEST PUSH1 0x40 MLOAD DUP1 SWAP2 SUB SWAP1 RETURN JUMPDEST PUSH2 0x492 PUSH1 0x4 DUP1 CALLDATASIZE SUB DUP2 ADD SWAP1 PUSH2 0x48D SWAP2 SWAP1 PUSH2 0x308B JUMP JUMPDEST PUSH2 0x199C JUMP JUMPDEST STOP JUMPDEST CALLVALUE DUP1 ISZERO PUSH2 0x49F JUMPI PUSH0 DUP1 REVERT JUMPDEST POP PUSH2 0x4A8 PUSH2 0x1CBE JUMP JUMPDEST PUSH1 0x40 MLOAD PUSH2 0x4B5 SWAP2 SWAP1 PUSH2 0x2DE1 JUMP JUMPDEST PUSH1 0x40 MLOAD DUP1 SWAP2 SUB SWAP1 RETURN JUMPDEST CALLVALUE DUP1 ISZERO PUSH2 0x4C9 JUMPI PUSH0 DUP1 REVERT JUMPDEST POP PUSH2 0x4D2 PUSH2 0x1CC3 JUMP JUMPDEST PUSH1 0x40 MLOAD PUSH2 0x4DF SWAP2 SWAP1 PUSH2 0x2DE1 JUMP JUMPDEST PUSH1 0x40 MLOAD DUP1 SWAP2 SUB SWAP1 RETURN JUMPDEST CALLVALUE DUP1 ISZERO PUSH2 0x4F3 JUMPI PUSH0 DUP1 REVERT JUMPDEST POP PUSH2 0x4FC PUSH2 0x1CCF JUMP JUMPDEST PUSH1 0x40 MLOAD PUSH2 0x509 SWAP2 SWAP1 PUSH2 0x2DE1 JUMP JUMPDEST PUSH1 0x40 MLOAD DUP1 SWAP2 SUB SWAP1 RETURN JUMPDEST CALLVALUE DUP1 ISZERO PUSH2 0x51D JUMPI PUSH0 DUP1 REVERT JUMPDEST POP PUSH2 0x538 PUSH1 0x4 DUP1 CALLDATASIZE SUB DUP2 ADD SWAP1 PUSH2 0x533 SWAP2 SWAP1 PUSH2 0x2C84 JUMP JUMPDEST PUSH2 0x1CD4 JUMP JUMPDEST PUSH1 0x40 MLOAD PUSH2 0x54B SWAP8 SWAP7 SWAP6 SWAP5 SWAP4 SWAP3 SWAP2 SWAP1 PUSH2 0x32A2 JUMP JUMPDEST PUSH1 0x40 MLOAD DUP1 SWAP2 SUB SWAP1 RETURN JUMPDEST CALLVALUE DUP1 ISZERO PUSH2 0x55F JUMPI PUSH0 DUP1 REVERT JUMPDEST POP PUSH2 0x568 PUSH2 0x1FCA JUMP JUMPDEST STOP JUMPDEST PUSH2 0x584 PUSH1 0x4 DUP1 CALLDATASIZE SUB DUP2 ADD SWAP1 PUSH2 0x57F SWAP2 SWAP1 PUSH2 0x308B JUMP JUMPDEST PUSH2 0x2123 JUMP JUMPDEST STOP JUMPDEST CALLVALUE DUP1 ISZERO PUSH2 0x591 JUMPI PUSH0 DUP1 REVERT JUMPDEST POP PUSH2 0x59A PUSH2 0x242A JUMP JUMPDEST PUSH1 0x40 MLOAD PUSH2 0x5A7 SWAP2 SWAP1 PUSH2 0x2DE1 JUMP JUMPDEST PUSH1 0x40 MLOAD DUP1 SWAP2 SUB SWAP1 RETURN JUMPDEST PUSH2 0x5CA PUSH1 0x4 DUP1 CALLDATASIZE SUB DUP2 ADD SWAP1 PUSH2 0x5C5 SWAP2 SWAP1 PUSH2 0x3332 JUMP JUMPDEST PUSH2 0x2436 JUMP JUMPDEST STOP JUMPDEST CALLVALUE DUP1 ISZERO PUSH2 0x5D7 JUMPI PUSH0 DUP1 REVERT JUMPDEST POP PUSH2 0x5F2 PUSH1 0x4 DUP1 CALLDATASIZE SUB DUP2 ADD SWAP1 PUSH2 0x5ED SWAP2 SWAP1 PUSH2 0x3199 JUMP JUMPDEST PUSH2 0x290B JUMP JUMPDEST STOP JUMPDEST CALLVALUE DUP1 ISZERO PUSH2 0x5FF JUMPI PUSH0 DUP1 REVERT JUMPDEST POP PUSH2 0x608 PUSH2 0x298F JUMP JUMPDEST PUSH1 0x40 MLOAD PUSH2 0x615 SWAP2 SWAP1 PUSH2 0x2DE1 JUMP JUMPDEST PUSH1 0x40 MLOAD DUP1 SWAP2 SUB SWAP1 RETURN JUMPDEST PUSH2 0x626 PUSH2 0x299B JUMP JUMPDEST PUSH8 0xA688906BD8B0000 CALLVALUE LT ISZERO PUSH2 0x671 JUMPI PUSH1 0x40 MLOAD PUSH32 0x8C379A000000000000000000000000000000000000000000000000000000000 DUP2 MSTORE PUSH1 0x4 ADD PUSH2 0x668 SWAP1 PUSH2 0x34C1 JUMP JUMPDEST PUSH1 0x40 MLOAD DUP1 SWAP2 SUB SWAP1 REVERT JUMPDEST PUSH8 0xA688906BD8B0000 PUSH1 0x3 PUSH0 DUP3 DUP3 SLOAD PUSH2 0x68A SWAP2 SWAP1 PUSH2 0x350C JUMP JUMPDEST SWAP3 POP POP DUP2 SWAP1 SSTORE POP PUSH0 PUSH8 0xA688906BD8B0000 CALLVALUE PUSH2 0x6A6 SWAP2 SWAP1 PUSH2 0x353F JUMP JUMPDEST SWAP1 POP PUSH0 DUP2 GT ISZERO PUSH2 0x6F5 JUMPI CALLER PUSH20 0xFFFFFFFFFFFFFFFFFFFFFFFFFFFFFFFFFFFFFFFF AND PUSH2 0x8FC DUP3 SWAP1 DUP2 ISZERO MUL SWAP1 PUSH1 0x40 MLOAD PUSH0 PUSH1 0x40 MLOAD DUP1 DUP4 SUB DUP2 DUP6 DUP9 DUP9 CALL SWAP4 POP POP POP POP ISZERO DUP1 ISZERO PUSH2 0x6F3 JUMPI RETURNDATASIZE PUSH0 DUP1 RETURNDATACOPY RETURNDATASIZE PUSH0 REVERT JUMPDEST POP JUMPDEST PUSH0 PUSH1 0x4 PUSH0 DUP6 DUP2 MSTORE PUSH1 0x20 ADD SWAP1 DUP2 MSTORE PUSH1 0x20 ADD PUSH0 KECCAK256 SWAP1 POP DUP1 PUSH0 ADD PUSH0 SWAP1 SLOAD SWAP1 PUSH2 0x100 EXP SWAP1 DIV PUSH20 0xFFFFFFFFFFFFFFFFFFFFFFFFFFFFFFFFFFFFFFFF AND PUSH20 0xFFFFFFFFFFFFFFFFFFFFFFFFFFFFFFFFFFFFFFFF AND CALLER PUSH20 0xFFFFFFFFFFFFFFFFFFFFFFFFFFFFFFFFFFFFFFFF AND EQ PUSH2 0x799 JUMPI PUSH1 0x40 MLOAD PUSH32 0x8C379A000000000000000000000000000000000000000000000000000000000 DUP2 MSTORE PUSH1 0x4 ADD PUSH2 0x790 SWAP1 PUSH2 0x35E2 JUMP JUMPDEST PUSH1 0x40 MLOAD DUP1 SWAP2 SUB SWAP1 REVERT JUMPDEST DUP3 DUP2 PUSH1 0x4 ADD SLOAD LT ISZERO PUSH2 0x7E0 JUMPI PUSH1 0x40 MLOAD PUSH32 0x8C379A000000000000000000000000000000000000000000000000000000000 DUP2 MSTORE PUSH1 0x4 ADD PUSH2 0x7D7 SWAP1 PUSH2 0x3670 JUMP JUMPDEST PUSH1 0x40 MLOAD DUP1 SWAP2 SUB SWAP1 REVERT JUMPDEST DUP3 DUP2 PUSH1 0x4 ADD PUSH0 DUP3 DUP3 SLOAD PUSH2 0x7F3 SWAP2 SWAP1 PUSH2 0x353F JUMP JUMPDEST SWAP3 POP POP DUP2 SWAP1 SSTORE POP PUSH0 CALLER PUSH20 0xFFFFFFFFFFFFFFFFFFFFFFFFFFFFFFFFFFFFFFFF AND DUP5 PUSH1 0x40 MLOAD PUSH2 0x81F SWAP1 PUSH2 0x36BB JUMP JUMPDEST PUSH0 PUSH1 0x40 MLOAD DUP1 DUP4 SUB DUP2 DUP6 DUP8 GAS CALL SWAP3 POP POP POP RETURNDATASIZE DUP1 PUSH0 DUP2 EQ PUSH2 0x859 JUMPI PUSH1 0x40 MLOAD SWAP2 POP PUSH1 0x1F NOT PUSH1 0x3F RETURNDATASIZE ADD AND DUP3 ADD PUSH1 0x40 MSTORE RETURNDATASIZE DUP3 MSTORE RETURNDATASIZE PUSH0 PUSH1 0x20 DUP5 ADD RETURNDATACOPY PUSH2 0x85E JUMP JUMPDEST PUSH1 0x60 SWAP2 POP JUMPDEST POP POP SWAP1 POP DUP1 PUSH2 0x8A2 JUMPI PUSH1 0x40 MLOAD PUSH32 0x8C379A000000000000000000000000000000000000000000000000000000000 DUP2 MSTORE PUSH1 0x4 ADD PUSH2 0x899 SWAP1 PUSH2 0x3719 JUMP JUMPDEST PUSH1 0x40 MLOAD DUP1 SWAP2 SUB SWAP1 REVERT JUMPDEST CALLER PUSH20 0xFFFFFFFFFFFFFFFFFFFFFFFFFFFFFFFFFFFFFFFF AND DUP6 PUSH32 0xAC49FACEAC63EAFDEA924340376E875517FD2E5B7E9B63C9BBBC464E166233F6 DUP7 PUSH1 0x40 MLOAD PUSH2 0x8E9 SWAP2 SWAP1 PUSH2 0x2DE1 JUMP JUMPDEST PUSH1 0x40 MLOAD DUP1 SWAP2 SUB SWAP1 LOG3 POP POP POP POP POP JUMP JUMPDEST PUSH1 0x5 PUSH1 0x20 MSTORE DUP2 PUSH0 MSTORE PUSH1 0x40 PUSH0 KECCAK256 PUSH1 0x20 MSTORE DUP1 PUSH0 MSTORE PUSH1 0x40 PUSH0 KECCAK256 PUSH0 SWAP2 POP SWAP2 POP POP DUP1 PUSH0 ADD PUSH0 SWAP1 SLOAD SWAP1 PUSH2 0x100 EXP SWAP1 DIV PUSH1 0xFF AND SWAP1 DUP1 PUSH0 ADD PUSH1 0x1 SWAP1 SLOAD SWAP1 PUSH2 0x100 EXP SWAP1 DIV PUSH1 0xFF AND SWAP1 DUP1 PUSH0 ADD PUSH1 0x2 SWAP1 SLOAD SWAP1 PUSH2 0x100 EXP SWAP1 DIV PUSH1 0xFF AND SWAP1 DUP1 PUSH0 ADD PUSH1 0x3 SWAP1 SLOAD SWAP1 PUSH2 0x100 EXP SWAP1 DIV PUSH1 0xFF AND SWAP1 POP DUP5 JUMP JUMPDEST PUSH1 0x2 SLOAD DUP2 JUMP JUMPDEST PUSH2 0x96D PUSH2 0x29E5 JUMP JUMPDEST PUSH2 0x975 PUSH2 0x2A6C JUMP JUMPDEST JUMP JUMPDEST PUSH3 0x83D600 DUP2 JUMP JUMPDEST PUSH1 0x3 SLOAD DUP2 JUMP JUMPDEST PUSH0 DUP1 PUSH1 0x14 SWAP1 SLOAD SWAP1 PUSH2 0x100 EXP SWAP1 DIV PUSH1 0xFF AND SWAP1 POP SWAP1 JUMP JUMPDEST PUSH8 0xA688906BD8B0000 CALLVALUE LT ISZERO PUSH2 0x9E4 JUMPI PUSH1 0x40 MLOAD PUSH32 0x8C379A000000000000000000000000000000000000000000000000000000000 DUP2 MSTORE PUSH1 0x4 ADD PUSH2 0x9DB SWAP1 PUSH2 0x34C1 JUMP JUMPDEST PUSH1 0x40 MLOAD DUP1 SWAP2 SUB SWAP1 REVERT JUMPDEST PUSH8 0xA688906BD8B0000 PUSH1 0x3 PUSH0 DUP3 DUP3 SLOAD PUSH2 0x9FD SWAP2 SWAP1 PUSH2 0x350C JUMP JUMPDEST SWAP3 POP POP DUP2 SWAP1 SSTORE POP PUSH0 PUSH8 0xA688906BD8B0000 CALLVALUE PUSH2 0xA19 SWAP2 SWAP1 PUSH2 0x353F JUMP JUMPDEST SWAP1 POP PUSH0 DUP2 GT ISZERO PUSH2 0xA68 JUMPI CALLER PUSH20 0xFFFFFFFFFFFFFFFFFFFFFFFFFFFFFFFFFFFFFFFF AND PUSH2 0x8FC DUP3 SWAP1 DUP2 ISZERO MUL SWAP1 PUSH1 0x40 MLOAD PUSH0 PUSH1 0x40 MLOAD DUP1 DUP4 SUB DUP2 DUP6 DUP9 DUP9 CALL SWAP4 POP POP POP POP ISZERO DUP1 ISZERO PUSH2 0xA66 JUMPI RETURNDATASIZE PUSH0 DUP1 RETURNDATACOPY RETURNDATASIZE PUSH0 REVERT JUMPDEST POP JUMPDEST PUSH0 PUSH1 0x5 PUSH0 CALLER PUSH20 0xFFFFFFFFFFFFFFFFFFFFFFFFFFFFFFFFFFFFFFFF AND PUSH20 0xFFFFFFFFFFFFFFFFFFFFFFFFFFFFFFFFFFFFFFFF AND DUP2 MSTORE PUSH1 0x20 ADD SWAP1 DUP2 MSTORE PUSH1 0x20 ADD PUSH0 KECCAK256 PUSH0 DUP6 DUP2 MSTORE PUSH1 0x20 ADD SWAP1 DUP2 MSTORE PUSH1 0x20 ADD PUSH0 KECCAK256 SWAP1 POP DUP1 PUSH0 ADD PUSH0 SWAP1 SLOAD SWAP1 PUSH2 0x100 EXP SWAP1 DIV PUSH1 0xFF AND PUSH2 0xB06 JUMPI PUSH1 0x40 MLOAD PUSH32 0x8C379A000000000000000000000000000000000000000000000000000000000 DUP2 MSTORE PUSH1 0x4 ADD PUSH2 0xAFD SWAP1 PUSH2 0x3781 JUMP JUMPDEST PUSH1 0x40 MLOAD DUP1 SWAP2 SUB SWAP1 REVERT JUMPDEST PUSH1 0x2 DUP2 PUSH0 ADD PUSH1 0x1 SWAP1 SLOAD SWAP1 PUSH2 0x100 EXP SWAP1 DIV PUSH1 0xFF AND PUSH1 0xFF AND LT PUSH2 0xB5C JUMPI PUSH1 0x40 MLOAD PUSH32 0x8C379A000000000000000000000000000000000000000000000000000000000 DUP2 MSTORE PUSH1 0x4 ADD PUSH2 0xB53 SWAP1 PUSH2 0x37E9 JUMP JUMPDEST PUSH1 0x40 MLOAD DUP1 SWAP2 SUB SWAP1 REVERT JUMPDEST DUP1 PUSH0 ADD PUSH1 0x2 SWAP1 SLOAD SWAP1 PUSH2 0x100 EXP SWAP1 DIV PUSH1 0xFF AND ISZERO PUSH2 0xBAD JUMPI PUSH1 0x40 MLOAD PUSH32 0x8C379A000000000000000000000000000000000000000000000000000000000 DUP2 MSTORE PUSH1 0x4 ADD PUSH2 0xBA4 SWAP1 PUSH2 0x3877 JUMP JUMPDEST PUSH1 0x40 MLOAD DUP1 SWAP2 SUB SWAP1 REVERT JUMPDEST DUP1 PUSH0 ADD PUSH1 0x1 DUP2 DUP2 SWAP1 SLOAD SWAP1 PUSH2 0x100 EXP SWAP1 DIV PUSH1 0xFF AND DUP1 SWAP3 SWAP2 SWAP1 PUSH2 0xBCD SWAP1 PUSH2 0x3895 JUMP JUMPDEST SWAP2 SWAP1 PUSH2 0x100 EXP DUP2 SLOAD DUP2 PUSH1 0xFF MUL NOT AND SWAP1 DUP4 PUSH1 0xFF AND MUL OR SWAP1 SSTORE POP POP PUSH0 PUSH1 0x6 PUSH0 DUP7 DUP2 MSTORE PUSH1 0x20 ADD SWAP1 DUP2 MSTORE PUSH1 0x20 ADD PUSH0 KECCAK256 DUP1 SLOAD DUP1 PUSH1 0x20 MUL PUSH1 0x20 ADD PUSH1 0x40 MLOAD SWAP1 DUP2 ADD PUSH1 0x40 MSTORE DUP1 SWAP3 SWAP2 SWAP1 DUP2 DUP2 MSTORE PUSH1 0x20 ADD PUSH0 SWAP1 JUMPDEST DUP3 DUP3 LT ISZERO PUSH2 0xF2A JUMPI DUP4 DUP3 SWAP1 PUSH0 MSTORE PUSH1 0x20 PUSH0 KECCAK256 SWAP1 PUSH1 0x7 MUL ADD PUSH1 0x40 MLOAD DUP1 PUSH1 0xE0 ADD PUSH1 0x40 MSTORE SWAP1 DUP2 PUSH0 DUP3 ADD SLOAD DUP2 MSTORE PUSH1 0x20 ADD PUSH1 0x1 DUP3 ADD DUP1 SLOAD PUSH2 0xC51 SWAP1 PUSH2 0x38EA JUMP JUMPDEST DUP1 PUSH1 0x1F ADD PUSH1 0x20 DUP1 SWAP2 DIV MUL PUSH1 0x20 ADD PUSH1 0x40 MLOAD SWAP1 DUP2 ADD PUSH1 0x40 MSTORE DUP1 SWAP3 SWAP2 SWAP1 DUP2 DUP2 MSTORE PUSH1 0x20 ADD DUP3 DUP1 SLOAD PUSH2 0xC7D SWAP1 PUSH2 0x38EA JUMP JUMPDEST DUP1 ISZERO PUSH2 0xCC8 JUMPI DUP1 PUSH1 0x1F LT PUSH2 0xC9F JUMPI PUSH2 0x100 DUP1 DUP4 SLOAD DIV MUL DUP4 MSTORE SWAP2 PUSH1 0x20 ADD SWAP2 PUSH2 0xCC8 JUMP JUMPDEST DUP3 ADD SWAP2 SWAP1 PUSH0 MSTORE PUSH1 0x20 PUSH0 KECCAK256 SWAP1 JUMPDEST DUP2 SLOAD DUP2 MSTORE SWAP1 PUSH1 0x1 ADD SWAP1 PUSH1 0x20 ADD DUP1 DUP4 GT PUSH2 0xCAB JUMPI DUP3 SWAP1 SUB PUSH1 0x1F AND DUP3 ADD SWAP2 JUMPDEST POP POP POP POP POP DUP2 MSTORE PUSH1 0x20 ADD PUSH1 0x2 DUP3 ADD DUP1 SLOAD PUSH2 0xCE1 SWAP1 PUSH2 0x38EA JUMP JUMPDEST DUP1 PUSH1 0x1F ADD PUSH1 0x20 DUP1 SWAP2 DIV MUL PUSH1 0x20 ADD PUSH1 0x40 MLOAD SWAP1 DUP2 ADD PUSH1 0x40 MSTORE DUP1 SWAP3 SWAP2 SWAP1 DUP2 DUP2 MSTORE PUSH1 0x20 ADD DUP3 DUP1 SLOAD PUSH2 0xD0D SWAP1 PUSH2 0x38EA JUMP JUMPDEST DUP1 ISZERO PUSH2 0xD58 JUMPI DUP1 PUSH1 0x1F LT PUSH2 0xD2F JUMPI PUSH2 0x100 DUP1 DUP4 SLOAD DIV MUL DUP4 MSTORE SWAP2 PUSH1 0x20 ADD SWAP2 PUSH2 0xD58 JUMP JUMPDEST DUP3 ADD SWAP2 SWAP1 PUSH0 MSTORE PUSH1 0x20 PUSH0 KECCAK256 SWAP1 JUMPDEST DUP2 SLOAD DUP2 MSTORE SWAP1 PUSH1 0x1 ADD SWAP1 PUSH1 0x20 ADD DUP1 DUP4 GT PUSH2 0xD3B JUMPI DUP3 SWAP1 SUB PUSH1 0x1F AND DUP3 ADD SWAP2 JUMPDEST POP POP POP POP POP DUP2 MSTORE PUSH1 0x20 ADD PUSH1 0x3 DUP3 ADD DUP1 SLOAD PUSH2 0xD71 SWAP1 PUSH2 0x38EA JUMP JUMPDEST DUP1 PUSH1 0x1F ADD PUSH1 0x20 DUP1 SWAP2 DIV MUL PUSH1 0x20 ADD PUSH1 0x40 MLOAD SWAP1 DUP2 ADD PUSH1 0x40 MSTORE DUP1 SWAP3 SWAP2 SWAP1 DUP2 DUP2 MSTORE PUSH1 0x20 ADD DUP3 DUP1 SLOAD PUSH2 0xD9D SWAP1 PUSH2 0x38EA JUMP JUMPDEST DUP1 ISZERO PUSH2 0xDE8 JUMPI DUP1 PUSH1 0x1F LT PUSH2 0xDBF JUMPI PUSH2 0x100 DUP1 DUP4 SLOAD DIV MUL DUP4 MSTORE SWAP2 PUSH1 0x20 ADD SWAP2 PUSH2 0xDE8 JUMP JUMPDEST DUP3 ADD SWAP2 SWAP1 PUSH0 MSTORE PUSH1 0x20 PUSH0 KECCAK256 SWAP1 JUMPDEST DUP2 SLOAD DUP2 MSTORE SWAP1 PUSH1 0x1 ADD SWAP1 PUSH1 0x20 ADD DUP1 DUP4 GT PUSH2 0xDCB JUMPI DUP3 SWAP1 SUB PUSH1 0x1F AND DUP3 ADD SWAP2 JUMPDEST POP POP POP POP POP DUP2 MSTORE PUSH1 0x20 ADD PUSH1 0x4 DUP3 ADD DUP1 SLOAD PUSH2 0xE01 SWAP1 PUSH2 0x38EA JUMP JUMPDEST DUP1 PUSH1 0x1F ADD PUSH1 0x20 DUP1 SWAP2 DIV MUL PUSH1 0x20 ADD PUSH1 0x40 MLOAD SWAP1 DUP2 ADD PUSH1 0x40 MSTORE DUP1 SWAP3 SWAP2 SWAP1 DUP2 DUP2 MSTORE PUSH1 0x20 ADD DUP3 DUP1 SLOAD PUSH2 0xE2D SWAP1 PUSH2 0x38EA JUMP JUMPDEST DUP1 ISZERO PUSH2 0xE78 JUMPI DUP1 PUSH1 0x1F LT PUSH2 0xE4F JUMPI PUSH2 0x100 DUP1 DUP4 SLOAD DIV MUL DUP4 MSTORE SWAP2 PUSH1 0x20 ADD SWAP2 PUSH2 0xE78 JUMP JUMPDEST DUP3 ADD SWAP2 SWAP1 PUSH0 MSTORE PUSH1 0x20 PUSH0 KECCAK256 SWAP1 JUMPDEST DUP2 SLOAD DUP2 MSTORE SWAP1 PUSH1 0x1 ADD SWAP1 PUSH1 0x20 ADD DUP1 DUP4 GT PUSH2 0xE5B JUMPI DUP3 SWAP1 SUB PUSH1 0x1F AND DUP3 ADD SWAP2 JUMPDEST POP POP POP POP POP DUP2 MSTORE PUSH1 0x20 ADD PUSH1 0x5 DUP3 ADD DUP1 SLOAD PUSH2 0xE91 SWAP1 PUSH2 0x38EA JUMP JUMPDEST DUP1 PUSH1 0x1F ADD PUSH1 0x20 DUP1 SWAP2 DIV MUL PUSH1 0x20 ADD PUSH1 0x40 MLOAD SWAP1 DUP2 ADD PUSH1 0x40 MSTORE DUP1 SWAP3 SWAP2 SWAP1 DUP2 DUP2 MSTORE PUSH1 0x20 ADD DUP3 DUP1 SLOAD PUSH2 0xEBD SWAP1 PUSH2 0x38EA JUMP JUMPDEST DUP1 ISZERO PUSH2 0xF08 JUMPI DUP1 PUSH1 0x1F LT PUSH2 0xEDF JUMPI PUSH2 0x100 DUP1 DUP4 SLOAD DIV MUL DUP4 MSTORE SWAP2 PUSH1 0x20 ADD SWAP2 PUSH2 0xF08 JUMP JUMPDEST DUP3 ADD SWAP2 SWAP1 PUSH0 MSTORE PUSH1 0x20 PUSH0 KECCAK256 SWAP1 JUMPDEST DUP2 SLOAD DUP2 MSTORE SWAP1 PUSH1 0x1 ADD SWAP1 PUSH1 0x20 ADD DUP1 DUP4 GT PUSH2 0xEEB JUMPI DUP3 SWAP1 SUB PUSH1 0x1F AND DUP3 ADD SWAP2 JUMPDEST POP POP POP POP POP DUP2 MSTORE PUSH1 0x20 ADD PUSH1 0x6 DUP3 ADD SLOAD DUP2 MSTORE POP POP DUP2 MSTORE PUSH1 0x20 ADD SWAP1 PUSH1 0x1 ADD SWAP1 PUSH2 0xC17 JUMP JUMPDEST POP POP POP POP SWAP1 POP DUP1 MLOAD DUP5 MLOAD EQ PUSH2 0xF74 JUMPI PUSH1 0x40 MLOAD PUSH32 0x8C379A000000000000000000000000000000000000000000000000000000000 DUP2 MSTORE PUSH1 0x4 ADD PUSH2 0xF6B SWAP1 PUSH2 0x3964 JUMP JUMPDEST PUSH1 0x40 MLOAD DUP1 SWAP2 SUB SWAP1 REVERT JUMPDEST PUSH0 PUSH1 0x1 SWAP1 POP PUSH0 JUMPDEST DUP3 MLOAD DUP2 LT ISZERO PUSH2 0xFFE JUMPI DUP3 DUP2 DUP2 MLOAD DUP2 LT PUSH2 0xF97 JUMPI PUSH2 0xF96 PUSH2 0x3982 JUMP JUMPDEST JUMPDEST PUSH1 0x20 MUL PUSH1 0x20 ADD ADD MLOAD PUSH1 0xC0 ADD MLOAD DUP7 DUP3 DUP2 MLOAD DUP2 LT PUSH2 0xFB6 JUMPI PUSH2 0xFB5 PUSH2 0x3982 JUMP JUMPDEST JUMPDEST PUSH1 0x20 MUL PUSH1 0x20 ADD ADD MLOAD PUSH1 0x40 MLOAD PUSH1 0x20 ADD PUSH2 0xFCE SWAP2 SWAP1 PUSH2 0x39E9 JUMP JUMPDEST PUSH1 0x40 MLOAD PUSH1 0x20 DUP2 DUP4 SUB SUB DUP2 MSTORE SWAP1 PUSH1 0x40 MSTORE DUP1 MLOAD SWAP1 PUSH1 0x20 ADD KECCAK256 EQ PUSH2 0xFF1 JUMPI PUSH0 SWAP2 POP PUSH2 0xFFE JUMP JUMPDEST DUP1 DUP1 PUSH1 0x1 ADD SWAP2 POP POP PUSH2 0xF7B JUMP JUMPDEST POP DUP1 ISZERO PUSH2 0x104B JUMPI PUSH1 0x1 DUP4 PUSH0 ADD PUSH1 0x2 PUSH2 0x100 EXP DUP2 SLOAD DUP2 PUSH1 0xFF MUL NOT AND SWAP1 DUP4 ISZERO ISZERO MUL OR SWAP1 SSTORE POP PUSH1 0x4 PUSH0 DUP8 DUP2 MSTORE PUSH1 0x20 ADD SWAP1 DUP2 MSTORE PUSH1 0x20 ADD PUSH0 KECCAK256 PUSH1 0x3 ADD PUSH0 DUP2 SLOAD DUP1 SWAP3 SWAP2 SWAP1 PUSH2 0x1045 SWAP1 PUSH2 0x39FF JUMP JUMPDEST SWAP2 SWAP1 POP SSTORE POP JUMPDEST CALLER PUSH20 0xFFFFFFFFFFFFFFFFFFFFFFFFFFFFFFFFFFFFFFFF AND DUP7 PUSH32 0xAEE8895C1BF669485CEE2DD54D1EEE9E65B02A244AFB6F798F95D72405CDF7A5 DUP4 PUSH1 0x40 MLOAD PUSH2 0x1092 SWAP2 SWAP1 PUSH2 0x2DFA JUMP JUMPDEST PUSH1 0x40 MLOAD DUP1 SWAP2 SUB SWAP1 LOG3 POP POP POP POP POP POP JUMP JUMPDEST PUSH2 0x10AA PUSH2 0x299B JUMP JUMPDEST PUSH8 0xA688906BD8B0000 CALLVALUE LT ISZERO PUSH2 0x10F5 JUMPI PUSH1 0x40 MLOAD PUSH32 0x8C379A000000000000000000000000000000000000000000000000000000000 DUP2 MSTORE PUSH1 0x4 ADD PUSH2 0x10EC SWAP1 PUSH2 0x34C1 JUMP JUMPDEST PUSH1 0x40 MLOAD DUP1 SWAP2 SUB SWAP1 REVERT JUMPDEST PUSH8 0xA688906BD8B0000 PUSH1 0x3 PUSH0 DUP3 DUP3 SLOAD PUSH2 0x110E SWAP2 SWAP1 PUSH2 0x350C JUMP JUMPDEST SWAP3 POP POP DUP2 SWAP1 SSTORE POP PUSH0 PUSH8 0xA688906BD8B0000 CALLVALUE PUSH2 0x112A SWAP2 SWAP1 PUSH2 0x353F JUMP JUMPDEST SWAP1 POP PUSH0 DUP2 GT ISZERO PUSH2 0x1179 JUMPI CALLER PUSH20 0xFFFFFFFFFFFFFFFFFFFFFFFFFFFFFFFFFFFFFFFF AND PUSH2 0x8FC DUP3 SWAP1 DUP2 ISZERO MUL SWAP1 PUSH1 0x40 MLOAD PUSH0 PUSH1 0x40 MLOAD DUP1 DUP4 SUB DUP2 DUP6 DUP9 DUP9 CALL SWAP4 POP POP POP POP ISZERO DUP1 ISZERO PUSH2 0x1177 JUMPI RETURNDATASIZE PUSH0 DUP1 RETURNDATACOPY RETURNDATASIZE PUSH0 REVERT JUMPDEST POP JUMPDEST PUSH1 0x5 PUSH1 0x1 PUSH0 SWAP1 SLOAD SWAP1 PUSH2 0x100 EXP SWAP1 DIV PUSH20 0xFFFFFFFFFFFFFFFFFFFFFFFFFFFFFFFFFFFFFFFF AND PUSH20 0xFFFFFFFFFFFFFFFFFFFFFFFFFFFFFFFFFFFFFFFF AND PUSH4 0xB9F79451 CALLER PUSH1 0x40 MLOAD DUP3 PUSH4 0xFFFFFFFF AND PUSH1 0xE0 SHL DUP2 MSTORE PUSH1 0x4 ADD PUSH2 0x11D5 SWAP2 SWAP1 PUSH2 0x3180 JUMP JUMPDEST PUSH1 0x20 PUSH1 0x40 MLOAD DUP1 DUP4 SUB DUP2 DUP7 GAS STATICCALL ISZERO DUP1 ISZERO PUSH2 0x11F0 JUMPI RETURNDATASIZE PUSH0 DUP1 RETURNDATACOPY RETURNDATASIZE PUSH0 REVERT JUMPDEST POP POP POP POP PUSH1 0x40 MLOAD RETURNDATASIZE PUSH1 0x1F NOT PUSH1 0x1F DUP3 ADD AND DUP3 ADD DUP1 PUSH1 0x40 MSTORE POP DUP2 ADD SWAP1 PUSH2 0x1214 SWAP2 SWAP1 PUSH2 0x3A5A JUMP JUMPDEST LT ISZERO PUSH2 0x1255 JUMPI PUSH1 0x40 MLOAD PUSH32 0x8C379A000000000000000000000000000000000000000000000000000000000 DUP2 MSTORE PUSH1 0x4 ADD PUSH2 0x124C SWAP1 PUSH2 0x3AF5 JUMP JUMPDEST PUSH1 0x40 MLOAD DUP1 SWAP2 SUB SWAP1 REVERT JUMPDEST PUSH1 0x4 PUSH0 DUP4 DUP2 MSTORE PUSH1 0x20 ADD SWAP1 DUP2 MSTORE PUSH1 0x20 ADD PUSH0 KECCAK256 PUSH1 0x2 ADD PUSH0 SWAP1 SLOAD SWAP1 PUSH2 0x100 EXP SWAP1 DIV PUSH1 0xFF AND PUSH2 0x12B5 JUMPI PUSH1 0x40 MLOAD PUSH32 0x8C379A000000000000000000000000000000000000000000000000000000000 DUP2 MSTORE PUSH1 0x4 ADD PUSH2 0x12AC SWAP1 PUSH2 0x3B5D JUMP JUMPDEST PUSH1 0x40 MLOAD DUP1 SWAP2 SUB SWAP1 REVERT JUMPDEST PUSH1 0x5 PUSH0 CALLER PUSH20 0xFFFFFFFFFFFFFFFFFFFFFFFFFFFFFFFFFFFFFFFF AND PUSH20 0xFFFFFFFFFFFFFFFFFFFFFFFFFFFFFFFFFFFFFFFF AND DUP2 MSTORE PUSH1 0x20 ADD SWAP1 DUP2 MSTORE PUSH1 0x20 ADD PUSH0 KECCAK256 PUSH0 DUP4 DUP2 MSTORE PUSH1 0x20 ADD SWAP1 DUP2 MSTORE PUSH1 0x20 ADD PUSH0 KECCAK256 PUSH0 ADD PUSH0 SWAP1 SLOAD SWAP1 PUSH2 0x100 EXP SWAP1 DIV PUSH1 0xFF AND ISZERO PUSH2 0x1350 JUMPI PUSH1 0x40 MLOAD PUSH32 0x8C379A000000000000000000000000000000000000000000000000000000000 DUP2 MSTORE PUSH1 0x4 ADD PUSH2 0x1347 SWAP1 PUSH2 0x3BC5 JUMP JUMPDEST PUSH1 0x40 MLOAD DUP1 SWAP2 SUB SWAP1 REVERT JUMPDEST PUSH1 0x1 PUSH1 0x5 PUSH0 CALLER PUSH20 0xFFFFFFFFFFFFFFFFFFFFFFFFFFFFFFFFFFFFFFFF AND PUSH20 0xFFFFFFFFFFFFFFFFFFFFFFFFFFFFFFFFFFFFFFFF AND DUP2 MSTORE PUSH1 0x20 ADD SWAP1 DUP2 MSTORE PUSH1 0x20 ADD PUSH0 KECCAK256 PUSH0 DUP5 DUP2 MSTORE PUSH1 0x20 ADD SWAP1 DUP2 MSTORE PUSH1 0x20 ADD PUSH0 KECCAK256 PUSH0 ADD PUSH0 PUSH2 0x100 EXP DUP2 SLOAD DUP2 PUSH1 0xFF MUL NOT AND SWAP1 DUP4 ISZERO ISZERO MUL OR SWAP1 SSTORE POP PUSH1 0x4 PUSH0 DUP4 DUP2 MSTORE PUSH1 0x20 ADD SWAP1 DUP2 MSTORE PUSH1 0x20 ADD PUSH0 KECCAK256 PUSH1 0x5 ADD PUSH0 DUP2 SLOAD DUP1 SWAP3 SWAP2 SWAP1 PUSH2 0x13DA SWAP1 PUSH2 0x39FF JUMP JUMPDEST SWAP2 SWAP1 POP SSTORE POP CALLER PUSH20 0xFFFFFFFFFFFFFFFFFFFFFFFFFFFFFFFFFFFFFFFF AND DUP3 PUSH32 0xFACF1A2842ACBAD124CBCA0A047FE37BC246C68F814E0350C7BD8A022FD1DDDB PUSH1 0x40 MLOAD PUSH1 0x40 MLOAD DUP1 SWAP2 SUB SWAP1 LOG3 POP POP JUMP JUMPDEST PUSH1 0x7 SLOAD DUP2 JUMP JUMPDEST PUSH2 0x1435 PUSH2 0x29E5 JUMP JUMPDEST PUSH2 0x143E PUSH0 PUSH2 0x2ACD JUMP JUMPDEST JUMP JUMPDEST PUSH2 0x1448 PUSH2 0x29E5 JUMP JUMPDEST PUSH1 0x4 PUSH0 DUP3 DUP2 MSTORE PUSH1 0x20 ADD SWAP1 DUP2 MSTORE PUSH1 0x20 ADD PUSH0 KECCAK256 PUSH1 0x2 ADD PUSH0 SWAP1 SLOAD SWAP1 PUSH2 0x100 EXP SWAP1 DIV PUSH1 0xFF AND ISZERO PUSH2 0x14A9 JUMPI PUSH1 0x40 MLOAD PUSH32 0x8C379A000000000000000000000000000000000000000000000000000000000 DUP2 MSTORE PUSH1 0x4 ADD PUSH2 0x14A0 SWAP1 PUSH2 0x3C2D JUMP JUMPDEST PUSH1 0x40 MLOAD DUP1 SWAP2 SUB SWAP1 REVERT JUMPDEST PUSH1 0x1 PUSH1 0x4 PUSH0 DUP4 DUP2 MSTORE PUSH1 0x20 ADD SWAP1 DUP2 MSTORE PUSH1 0x20 ADD PUSH0 KECCAK256 PUSH1 0x2 ADD PUSH0 PUSH2 0x100 EXP DUP2 SLOAD DUP2 PUSH1 0xFF MUL NOT AND SWAP1 DUP4 ISZERO ISZERO MUL OR SWAP1 SSTORE POP DUP1 PUSH32 0x87C1C0E5CD17BEB8C61A3337B32C66021CB179DD6F97D6D9CE923A029092BD45 PUSH1 0x40 MLOAD PUSH1 0x40 MLOAD DUP1 SWAP2 SUB SWAP1 LOG2 POP JUMP JUMPDEST PUSH2 0x150D PUSH2 0x29E5 JUMP JUMPDEST PUSH2 0x1515 PUSH2 0x2B8E JUMP JUMPDEST JUMP JUMPDEST PUSH1 0x1 PUSH0 SWAP1 SLOAD SWAP1 PUSH2 0x100 EXP SWAP1 DIV PUSH20 0xFFFFFFFFFFFFFFFFFFFFFFFFFFFFFFFFFFFFFFFF AND DUP2 JUMP JUMPDEST PUSH2 0x1544 PUSH2 0x299B JUMP JUMPDEST PUSH8 0xA688906BD8B0000 CALLVALUE LT ISZERO PUSH2 0x158F JUMPI PUSH1 0x40 MLOAD PUSH32 0x8C379A000000000000000000000000000000000000000000000000000000000 DUP2 MSTORE PUSH1 0x4 ADD PUSH2 0x1586 SWAP1 PUSH2 0x34C1 JUMP JUMPDEST PUSH1 0x40 MLOAD DUP1 SWAP2 SUB SWAP1 REVERT JUMPDEST PUSH8 0xA688906BD8B0000 PUSH1 0x3 PUSH0 DUP3 DUP3 SLOAD PUSH2 0x15A8 SWAP2 SWAP1 PUSH2 0x350C JUMP JUMPDEST SWAP3 POP POP DUP2 SWAP1 SSTORE POP PUSH0 PUSH8 0xA688906BD8B0000 CALLVALUE PUSH2 0x15C4 SWAP2 SWAP1 PUSH2 0x353F JUMP JUMPDEST SWAP1 POP PUSH0 DUP2 GT ISZERO PUSH2 0x1613 JUMPI CALLER PUSH20 0xFFFFFFFFFFFFFFFFFFFFFFFFFFFFFFFFFFFFFFFF AND PUSH2 0x8FC DUP3 SWAP1 DUP2 ISZERO MUL SWAP1 PUSH1 0x40 MLOAD PUSH0 PUSH1 0x40 MLOAD DUP1 DUP4 SUB DUP2 DUP6 DUP9 DUP9 CALL SWAP4 POP POP POP POP ISZERO DUP1 ISZERO PUSH2 0x1611 JUMPI RETURNDATASIZE PUSH0 DUP1 RETURNDATACOPY RETURNDATASIZE PUSH0 REVERT JUMPDEST POP JUMPDEST PUSH1 0x5 PUSH1 0x1 PUSH0 SWAP1 SLOAD SWAP1 PUSH2 0x100 EXP SWAP1 DIV PUSH20 0xFFFFFFFFFFFFFFFFFFFFFFFFFFFFFFFFFFFFFFFF AND PUSH20 0xFFFFFFFFFFFFFFFFFFFFFFFFFFFFFFFFFFFFFFFF AND PUSH4 0xB9F79451 CALLER PUSH1 0x40 MLOAD DUP3 PUSH4 0xFFFFFFFF AND PUSH1 0xE0 SHL DUP2 MSTORE PUSH1 0x4 ADD PUSH2 0x166F SWAP2 SWAP1 PUSH2 0x3180 JUMP JUMPDEST PUSH1 0x20 PUSH1 0x40 MLOAD DUP1 DUP4 SUB DUP2 DUP7 GAS STATICCALL ISZERO DUP1 ISZERO PUSH2 0x168A JUMPI RETURNDATASIZE PUSH0 DUP1 RETURNDATACOPY RETURNDATASIZE PUSH0 REVERT JUMPDEST POP POP POP POP PUSH1 0x40 MLOAD RETURNDATASIZE PUSH1 0x1F NOT PUSH1 0x1F DUP3 ADD AND DUP3 ADD DUP1 PUSH1 0x40 MSTORE POP DUP2 ADD SWAP1 PUSH2 0x16AE SWAP2 SWAP1 PUSH2 0x3A5A JUMP JUMPDEST LT ISZERO PUSH2 0x16EF JUMPI PUSH1 0x40 MLOAD PUSH32 0x8C379A000000000000000000000000000000000000000000000000000000000 DUP2 MSTORE PUSH1 0x4 ADD PUSH2 0x16E6 SWAP1 PUSH2 0x3CBB JUMP JUMPDEST PUSH1 0x40 MLOAD DUP1 SWAP2 SUB SWAP1 REVERT JUMPDEST PUSH0 PUSH1 0x7 PUSH0 DUP2 SLOAD DUP1 SWAP3 SWAP2 SWAP1 PUSH2 0x1702 SWAP1 PUSH2 0x39FF JUMP JUMPDEST SWAP2 SWAP1 POP SSTORE SWAP1 POP PUSH1 0x40 MLOAD DUP1 PUSH1 0xC0 ADD PUSH1 0x40 MSTORE DUP1 CALLER PUSH20 0xFFFFFFFFFFFFFFFFFFFFFFFFFFFFFFFFFFFFFFFF AND DUP2 MSTORE PUSH1 0x20 ADD DUP5 DUP2 MSTORE PUSH1 0x20 ADD PUSH0 ISZERO ISZERO DUP2 MSTORE PUSH1 0x20 ADD PUSH0 DUP2 MSTORE PUSH1 0x20 ADD PUSH0 DUP2 MSTORE PUSH1 0x20 ADD PUSH0 DUP2 MSTORE POP PUSH1 0x4 PUSH0 DUP4 DUP2 MSTORE PUSH1 0x20 ADD SWAP1 DUP2 MSTORE PUSH1 0x20 ADD PUSH0 KECCAK256 PUSH0 DUP3 ADD MLOAD DUP2 PUSH0 ADD PUSH0 PUSH2 0x100 EXP DUP2 SLOAD DUP2 PUSH20 0xFFFFFFFFFFFFFFFFFFFFFFFFFFFFFFFFFFFFFFFF MUL NOT AND SWAP1 DUP4 PUSH20 0xFFFFFFFFFFFFFFFFFFFFFFFFFFFFFFFFFFFFFFFF AND MUL OR SWAP1 SSTORE POP PUSH1 0x20 DUP3 ADD MLOAD DUP2 PUSH1 0x1 ADD SWAP1 DUP2 PUSH2 0x17B7 SWAP2 SWAP1 PUSH2 0x3E6D JUMP JUMPDEST POP PUSH1 0x40 DUP3 ADD MLOAD DUP2 PUSH1 0x2 ADD PUSH0 PUSH2 0x100 EXP DUP2 SLOAD DUP2 PUSH1 0xFF MUL NOT AND SWAP1 DUP4 ISZERO ISZERO MUL OR SWAP1 SSTORE POP PUSH1 0x60 DUP3 ADD MLOAD DUP2 PUSH1 0x3 ADD SSTORE PUSH1 0x80 DUP3 ADD MLOAD DUP2 PUSH1 0x4 ADD SSTORE PUSH1 0xA0 DUP3 ADD MLOAD DUP2 PUSH1 0x5 ADD SSTORE SWAP1 POP POP CALLER PUSH20 0xFFFFFFFFFFFFFFFFFFFFFFFFFFFFFFFFFFFFFFFF AND DUP2 PUSH32 0xA68F79AA37F9CDC81C2757CFB3E11E9D7D89CA0A5410FBCF1B61125BC17FB1B7 PUSH1 0x40 MLOAD PUSH1 0x40 MLOAD DUP1 SWAP2 SUB SWAP1 LOG3 POP POP POP JUMP JUMPDEST PUSH0 DUP1 PUSH0 SWAP1 SLOAD SWAP1 PUSH2 0x100 EXP SWAP1 DIV PUSH20 0xFFFFFFFFFFFFFFFFFFFFFFFFFFFFFFFFFFFFFFFF AND SWAP1 POP SWAP1 JUMP JUMPDEST PUSH2 0x1870 PUSH2 0x29E5 JUMP JUMPDEST DUP1 PUSH1 0x1 PUSH0 PUSH2 0x100 EXP DUP2 SLOAD DUP2 PUSH20 0xFFFFFFFFFFFFFFFFFFFFFFFFFFFFFFFFFFFFFFFF MUL NOT AND SWAP1 DUP4 PUSH20 0xFFFFFFFFFFFFFFFFFFFFFFFFFFFFFFFFFFFFFFFF AND MUL OR SWAP1 SSTORE POP POP JUMP JUMPDEST PUSH1 0x4 PUSH1 0x20 MSTORE DUP1 PUSH0 MSTORE PUSH1 0x40 PUSH0 KECCAK256 PUSH0 SWAP2 POP SWAP1 POP DUP1 PUSH0 ADD PUSH0 SWAP1 SLOAD SWAP1 PUSH2 0x100 EXP SWAP1 DIV PUSH20 0xFFFFFFFFFFFFFFFFFFFFFFFFFFFFFFFFFFFFFFFF AND SWAP1 DUP1 PUSH1 0x1 ADD DUP1 SLOAD PUSH2 0x18F7 SWAP1 PUSH2 0x38EA JUMP JUMPDEST DUP1 PUSH1 0x1F ADD PUSH1 0x20 DUP1 SWAP2 DIV MUL PUSH1 0x20 ADD PUSH1 0x40 MLOAD SWAP1 DUP2 ADD PUSH1 0x40 MSTORE DUP1 SWAP3 SWAP2 SWAP1 DUP2 DUP2 MSTORE PUSH1 0x20 ADD DUP3 DUP1 SLOAD PUSH2 0x1923 SWAP1 PUSH2 0x38EA JUMP JUMPDEST DUP1 ISZERO PUSH2 0x196E JUMPI DUP1 PUSH1 0x1F LT PUSH2 0x1945 JUMPI PUSH2 0x100 DUP1 DUP4 SLOAD DIV MUL DUP4 MSTORE SWAP2 PUSH1 0x20 ADD SWAP2 PUSH2 0x196E JUMP JUMPDEST DUP3 ADD SWAP2 SWAP1 PUSH0 MSTORE PUSH1 0x20 PUSH0 KECCAK256 SWAP1 JUMPDEST DUP2 SLOAD DUP2 MSTORE SWAP1 PUSH1 0x1 ADD SWAP1 PUSH1 0x20 ADD DUP1 DUP4 GT PUSH2 0x1951 JUMPI DUP3 SWAP1 SUB PUSH1 0x1F AND DUP3 ADD SWAP2 JUMPDEST POP POP POP POP POP SWAP1 DUP1 PUSH1 0x2 ADD PUSH0 SWAP1 SLOAD SWAP1 PUSH2 0x100 EXP SWAP1 DIV PUSH1 0xFF AND SWAP1 DUP1 PUSH1 0x3 ADD SLOAD SWAP1 DUP1 PUSH1 0x4 ADD SLOAD SWAP1 DUP1 PUSH1 0x5 ADD SLOAD SWAP1 POP DUP7 JUMP JUMPDEST PUSH2 0x19A4 PUSH2 0x299B JUMP JUMPDEST PUSH8 0xA688906BD8B0000 CALLVALUE LT ISZERO PUSH2 0x19EF JUMPI PUSH1 0x40 MLOAD PUSH32 0x8C379A000000000000000000000000000000000000000000000000000000000 DUP2 MSTORE PUSH1 0x4 ADD PUSH2 0x19E6 SWAP1 PUSH2 0x34C1 JUMP JUMPDEST PUSH1 0x40 MLOAD DUP1 SWAP2 SUB SWAP1 REVERT JUMPDEST PUSH8 0xA688906BD8B0000 PUSH1 0x3 PUSH0 DUP3 DUP3 SLOAD PUSH2 0x1A08 SWAP2 SWAP1 PUSH2 0x350C JUMP JUMPDEST SWAP3 POP POP DUP2 SWAP1 SSTORE POP PUSH0 PUSH8 0xA688906BD8B0000 CALLVALUE PUSH2 0x1A24 SWAP2 SWAP1 PUSH2 0x353F JUMP JUMPDEST SWAP1 POP PUSH0 DUP2 GT ISZERO PUSH2 0x1A73 JUMPI CALLER PUSH20 0xFFFFFFFFFFFFFFFFFFFFFFFFFFFFFFFFFFFFFFFF AND PUSH2 0x8FC DUP3 SWAP1 DUP2 ISZERO MUL SWAP1 PUSH1 0x40 MLOAD PUSH0 PUSH1 0x40 MLOAD DUP1 DUP4 SUB DUP2 DUP6 DUP9 DUP9 CALL SWAP4 POP POP POP POP ISZERO DUP1 ISZERO PUSH2 0x1A71 JUMPI RETURNDATASIZE PUSH0 DUP1 RETURNDATACOPY RETURNDATASIZE PUSH0 REVERT JUMPDEST POP JUMPDEST PUSH0 PUSH1 0x5 PUSH0 CALLER PUSH20 0xFFFFFFFFFFFFFFFFFFFFFFFFFFFFFFFFFFFFFFFF AND PUSH20 0xFFFFFFFFFFFFFFFFFFFFFFFFFFFFFFFFFFFFFFFF AND DUP2 MSTORE PUSH1 0x20 ADD SWAP1 DUP2 MSTORE PUSH1 0x20 ADD PUSH0 KECCAK256 PUSH0 DUP5 DUP2 MSTORE PUSH1 0x20 ADD SWAP1 DUP2 MSTORE PUSH1 0x20 ADD PUSH0 KECCAK256 SWAP1 POP DUP1 PUSH0 ADD PUSH1 0x2 SWAP1 SLOAD SWAP1 PUSH2 0x100 EXP SWAP1 DIV PUSH1 0xFF AND PUSH2 0x1B12 JUMPI PUSH1 0x40 MLOAD PUSH32 0x8C379A000000000000000000000000000000000000000000000000000000000 DUP2 MSTORE PUSH1 0x4 ADD PUSH2 0x1B09 SWAP1 PUSH2 0x3F86 JUMP JUMPDEST PUSH1 0x40 MLOAD DUP1 SWAP2 SUB SWAP1 REVERT JUMPDEST DUP1 PUSH0 ADD PUSH1 0x3 SWAP1 SLOAD SWAP1 PUSH2 0x100 EXP SWAP1 DIV PUSH1 0xFF AND ISZERO PUSH2 0x1B63 JUMPI PUSH1 0x40 MLOAD PUSH32 0x8C379A000000000000000000000000000000000000000000000000000000000 DUP2 MSTORE PUSH1 0x4 ADD PUSH2 0x1B5A SWAP1 PUSH2 0x3FEE JUMP JUMPDEST PUSH1 0x40 MLOAD DUP1 SWAP2 SUB SWAP1 REVERT JUMPDEST PUSH1 0x1 DUP2 PUSH0 ADD PUSH1 0x3 PUSH2 0x100 EXP DUP2 SLOAD DUP2 PUSH1 0xFF MUL NOT AND SWAP1 DUP4 ISZERO ISZERO MUL OR SWAP1 SSTORE POP PUSH8 0x8AC7230489E80000 PUSH1 0x4 PUSH0 DUP6 DUP2 MSTORE PUSH1 0x20 ADD SWAP1 DUP2 MSTORE PUSH1 0x20 ADD PUSH0 KECCAK256 PUSH1 0x4 ADD PUSH0 DUP3 DUP3 SLOAD PUSH2 0x1BAA SWAP2 SWAP1 PUSH2 0x350C JUMP JUMPDEST SWAP3 POP POP DUP2 SWAP1 SSTORE POP PUSH0 CALLER PUSH20 0xFFFFFFFFFFFFFFFFFFFFFFFFFFFFFFFFFFFFFFFF AND PUSH8 0x8AC7230489E80000 PUSH1 0x40 MLOAD PUSH2 0x1BDE SWAP1 PUSH2 0x36BB JUMP JUMPDEST PUSH0 PUSH1 0x40 MLOAD DUP1 DUP4 SUB DUP2 DUP6 DUP8 GAS CALL SWAP3 POP POP POP RETURNDATASIZE DUP1 PUSH0 DUP2 EQ PUSH2 0x1C18 JUMPI PUSH1 0x40 MLOAD SWAP2 POP PUSH1 0x1F NOT PUSH1 0x3F RETURNDATASIZE ADD AND DUP3 ADD PUSH1 0x40 MSTORE RETURNDATASIZE DUP3 MSTORE RETURNDATASIZE PUSH0 PUSH1 0x20 DUP5 ADD RETURNDATACOPY PUSH2 0x1C1D JUMP JUMPDEST PUSH1 0x60 SWAP2 POP JUMPDEST POP POP SWAP1 POP DUP1 PUSH2 0x1C61 JUMPI PUSH1 0x40 MLOAD PUSH32 0x8C379A000000000000000000000000000000000000000000000000000000000 DUP2 MSTORE PUSH1 0x4 ADD PUSH2 0x1C58 SWAP1 PUSH2 0x3719 JUMP JUMPDEST PUSH1 0x40 MLOAD DUP1 SWAP2 SUB SWAP1 REVERT JUMPDEST CALLER PUSH20 0xFFFFFFFFFFFFFFFFFFFFFFFFFFFFFFFFFFFFFFFF AND DUP5 PUSH32 0x24B5EFA61DD1CFC659205A97FB8ED868F3CB8C81922BAB2B96423E5DE1DE2CB7 PUSH8 0x8AC7230489E80000 PUSH1 0x40 MLOAD PUSH2 0x1CB0 SWAP2 SWAP1 PUSH2 0x2DE1 JUMP JUMPDEST PUSH1 0x40 MLOAD DUP1 SWAP2 SUB SWAP1 LOG3 POP POP POP POP JUMP JUMPDEST PUSH1 0x5 DUP2 JUMP JUMPDEST PUSH8 0xA688906BD8B0000 DUP2 JUMP JUMPDEST PUSH1 0x5 DUP2 JUMP JUMPDEST PUSH1 0x6 PUSH1 0x20 MSTORE DUP2 PUSH0 MSTORE PUSH1 0x40 PUSH0 KECCAK256 DUP2 DUP2 SLOAD DUP2 LT PUSH2 0x1CED JUMPI PUSH0 DUP1 REVERT JUMPDEST SWAP1 PUSH0 MSTORE PUSH1 0x20 PUSH0 KECCAK256 SWAP1 PUSH1 0x7 MUL ADD PUSH0 SWAP2 POP SWAP2 POP POP DUP1 PUSH0 ADD SLOAD SWAP1 DUP1 PUSH1 0x1 ADD DUP1 SLOAD PUSH2 0x1D13 SWAP1 PUSH2 0x38EA JUMP JUMPDEST DUP1 PUSH1 0x1F ADD PUSH1 0x20 DUP1 SWAP2 DIV MUL PUSH1 0x20 ADD PUSH1 0x40 MLOAD SWAP1 DUP2 ADD PUSH1 0x40 MSTORE DUP1 SWAP3 SWAP2 SWAP1 DUP2 DUP2 MSTORE PUSH1 0x20 ADD DUP3 DUP1 SLOAD PUSH2 0x1D3F SWAP1 PUSH2 0x38EA JUMP JUMPDEST DUP1 ISZERO PUSH2 0x1D8A JUMPI DUP1 PUSH1 0x1F LT PUSH2 0x1D61 JUMPI PUSH2 0x100 DUP1 DUP4 SLOAD DIV MUL DUP4 MSTORE SWAP2 PUSH1 0x20 ADD SWAP2 PUSH2 0x1D8A JUMP JUMPDEST DUP3 ADD SWAP2 SWAP1 PUSH0 MSTORE PUSH1 0x20 PUSH0 KECCAK256 SWAP1 JUMPDEST DUP2 SLOAD DUP2 MSTORE SWAP1 PUSH1 0x1 ADD SWAP1 PUSH1 0x20 ADD DUP1 DUP4 GT PUSH2 0x1D6D JUMPI DUP3 SWAP1 SUB PUSH1 0x1F AND DUP3 ADD SWAP2 JUMPDEST POP POP POP POP POP SWAP1 DUP1 PUSH1 0x2 ADD DUP1 SLOAD PUSH2 0x1D9F SWAP1 PUSH2 0x38EA JUMP JUMPDEST DUP1 PUSH1 0x1F ADD PUSH1 0x20 DUP1 SWAP2 DIV MUL PUSH1 0x20 ADD PUSH1 0x40 MLOAD SWAP1 DUP2 ADD PUSH1 0x40 MSTORE DUP1 SWAP3 SWAP2 SWAP1 DUP2 DUP2 MSTORE PUSH1 0x20 ADD DUP3 DUP1 SLOAD PUSH2 0x1DCB SWAP1 PUSH2 0x38EA JUMP JUMPDEST DUP1 ISZERO PUSH2 0x1E16 JUMPI DUP1 PUSH1 0x1F LT PUSH2 0x1DED JUMPI PUSH2 0x100 DUP1 DUP4 SLOAD DIV MUL DUP4 MSTORE SWAP2 PUSH1 0x20 ADD SWAP2 PUSH2 0x1E16 JUMP JUMPDEST DUP3 ADD SWAP2 SWAP1 PUSH0 MSTORE PUSH1 0x20 PUSH0 KECCAK256 SWAP1 JUMPDEST DUP2 SLOAD DUP2 MSTORE SWAP1 PUSH1 0x1 ADD SWAP1 PUSH1 0x20 ADD DUP1 DUP4 GT PUSH2 0x1DF9 JUMPI DUP3 SWAP1 SUB PUSH1 0x1F AND DUP3 ADD SWAP2 JUMPDEST POP POP POP POP POP SWAP1 DUP1 PUSH1 0x3 ADD DUP1 SLOAD PUSH2 0x1E2B SWAP1 PUSH2 0x38EA JUMP JUMPDEST DUP1 PUSH1 0x1F ADD PUSH1 0x20 DUP1 SWAP2 DIV MUL PUSH1 0x20 ADD PUSH1 0x40 MLOAD SWAP1 DUP2 ADD PUSH1 0x40 MSTORE DUP1 SWAP3 SWAP2 SWAP1 DUP2 DUP2 MSTORE PUSH1 0x20 ADD DUP3 DUP1 SLOAD PUSH2 0x1E57 SWAP1 PUSH2 0x38EA JUMP JUMPDEST DUP1 ISZERO PUSH2 0x1EA2 JUMPI DUP1 PUSH1 0x1F LT PUSH2 0x1E79 JUMPI PUSH2 0x100 DUP1 DUP4 SLOAD DIV MUL DUP4 MSTORE SWAP2 PUSH1 0x20 ADD SWAP2 PUSH2 0x1EA2 JUMP JUMPDEST DUP3 ADD SWAP2 SWAP1 PUSH0 MSTORE PUSH1 0x20 PUSH0 KECCAK256 SWAP1 JUMPDEST DUP2 SLOAD DUP2 MSTORE SWAP1 PUSH1 0x1 ADD SWAP1 PUSH1 0x20 ADD DUP1 DUP4 GT PUSH2 0x1E85 JUMPI DUP3 SWAP1 SUB PUSH1 0x1F AND DUP3 ADD SWAP2 JUMPDEST POP POP POP POP POP SWAP1 DUP1 PUSH1 0x4 ADD DUP1 SLOAD PUSH2 0x1EB7 SWAP1 PUSH2 0x38EA JUMP JUMPDEST DUP1 PUSH1 0x1F ADD PUSH1 0x20 DUP1 SWAP2 DIV MUL PUSH1 0x20 ADD PUSH1 0x40 MLOAD SWAP1 DUP2 ADD PUSH1 0x40 MSTORE DUP1 SWAP3 SWAP2 SWAP1 DUP2 DUP2 MSTORE PUSH1 0x20 ADD DUP3 DUP1 SLOAD PUSH2 0x1EE3 SWAP1 PUSH2 0x38EA JUMP JUMPDEST DUP1 ISZERO PUSH2 0x1F2E JUMPI DUP1 PUSH1 0x1F LT PUSH2 0x1F05 JUMPI PUSH2 0x100 DUP1 DUP4 SLOAD DIV MUL DUP4 MSTORE SWAP2 PUSH1 0x20 ADD SWAP2 PUSH2 0x1F2E JUMP JUMPDEST DUP3 ADD SWAP2 SWAP1 PUSH0 MSTORE PUSH1 0x20 PUSH0 KECCAK256 SWAP1 JUMPDEST DUP2 SLOAD DUP2 MSTORE SWAP1 PUSH1 0x1 ADD SWAP1 PUSH1 0x20 ADD DUP1 DUP4 GT PUSH2 0x1F11 JUMPI DUP3 SWAP1 SUB PUSH1 0x1F AND DUP3 ADD SWAP2 JUMPDEST POP POP POP POP POP SWAP1 DUP1 PUSH1 0x5 ADD DUP1 SLOAD PUSH2 0x1F43 SWAP1 PUSH2 0x38EA JUMP JUMPDEST DUP1 PUSH1 0x1F ADD PUSH1 0x20 DUP1 SWAP2 DIV MUL PUSH1 0x20 ADD PUSH1 0x40 MLOAD SWAP1 DUP2 ADD PUSH1 0x40 MSTORE DUP1 SWAP3 SWAP2 SWAP1 DUP2 DUP2 MSTORE PUSH1 0x20 ADD DUP3 DUP1 SLOAD PUSH2 0x1F6F SWAP1 PUSH2 0x38EA JUMP JUMPDEST DUP1 ISZERO PUSH2 0x1FBA JUMPI DUP1 PUSH1 0x1F LT PUSH2 0x1F91 JUMPI PUSH2 0x100 DUP1 DUP4 SLOAD DIV MUL DUP4 MSTORE SWAP2 PUSH1 0x20 ADD SWAP2 PUSH2 0x1FBA JUMP JUMPDEST DUP3 ADD SWAP2 SWAP1 PUSH0 MSTORE PUSH1 0x20 PUSH0 KECCAK256 SWAP1 JUMPDEST DUP2 SLOAD DUP2 MSTORE SWAP1 PUSH1 0x1 ADD SWAP1 PUSH1 0x20 ADD DUP1 DUP4 GT PUSH2 0x1F9D JUMPI DUP3 SWAP1 SUB PUSH1 0x1F AND DUP3 ADD SWAP2 JUMPDEST POP POP POP POP POP SWAP1 DUP1 PUSH1 0x6 ADD SLOAD SWAP1 POP DUP8 JUMP JUMPDEST PUSH2 0x1FD2 PUSH2 0x29E5 JUMP JUMPDEST PUSH3 0x83D600 PUSH1 0x2 SLOAD PUSH2 0x1FE3 SWAP2 SWAP1 PUSH2 0x350C JUMP JUMPDEST TIMESTAMP LT ISZERO PUSH2 0x2025 JUMPI PUSH1 0x40 MLOAD PUSH32 0x8C379A000000000000000000000000000000000000000000000000000000000 DUP2 MSTORE PUSH1 0x4 ADD PUSH2 0x201C SWAP1 PUSH2 0x4056 JUMP JUMPDEST PUSH1 0x40 MLOAD DUP1 SWAP2 SUB SWAP1 REVERT JUMPDEST PUSH0 PUSH1 0x3 SLOAD SWAP1 POP PUSH0 PUSH1 0x3 DUP2 SWAP1 SSTORE POP TIMESTAMP PUSH1 0x2 DUP2 SWAP1 SSTORE POP PUSH0 PUSH2 0x2042 PUSH2 0x1841 JUMP JUMPDEST PUSH20 0xFFFFFFFFFFFFFFFFFFFFFFFFFFFFFFFFFFFFFFFF AND DUP3 PUSH1 0x40 MLOAD PUSH2 0x2065 SWAP1 PUSH2 0x36BB JUMP JUMPDEST PUSH0 PUSH1 0x40 MLOAD DUP1 DUP4 SUB DUP2 DUP6 DUP8 GAS CALL SWAP3 POP POP POP RETURNDATASIZE DUP1 PUSH0 DUP2 EQ PUSH2 0x209F JUMPI PUSH1 0x40 MLOAD SWAP2 POP PUSH1 0x1F NOT PUSH1 0x3F RETURNDATASIZE ADD AND DUP3 ADD PUSH1 0x40 MSTORE RETURNDATASIZE DUP3 MSTORE RETURNDATASIZE PUSH0 PUSH1 0x20 DUP5 ADD RETURNDATACOPY PUSH2 0x20A4 JUMP JUMPDEST PUSH1 0x60 SWAP2 POP JUMPDEST POP POP SWAP1 POP DUP1 PUSH2 0x20E8 JUMPI PUSH1 0x40 MLOAD PUSH32 0x8C379A000000000000000000000000000000000000000000000000000000000 DUP2 MSTORE PUSH1 0x4 ADD PUSH2 0x20DF SWAP1 PUSH2 0x40BE JUMP JUMPDEST PUSH1 0x40 MLOAD DUP1 SWAP2 SUB SWAP1 REVERT JUMPDEST PUSH32 0xD3C6ACEF4F1BD70F36DAD19B43C6B794AC969B546734638671026F801D476FA DUP3 PUSH1 0x40 MLOAD PUSH2 0x2117 SWAP2 SWAP1 PUSH2 0x2DE1 JUMP JUMPDEST PUSH1 0x40 MLOAD DUP1 SWAP2 SUB SWAP1 LOG1 POP POP JUMP JUMPDEST PUSH2 0x212B PUSH2 0x299B JUMP JUMPDEST PUSH8 0xA688906BD8B0000 CALLVALUE LT ISZERO PUSH2 0x2176 JUMPI PUSH1 0x40 MLOAD PUSH32 0x8C379A000000000000000000000000000000000000000000000000000000000 DUP2 MSTORE PUSH1 0x4 ADD PUSH2 0x216D SWAP1 PUSH2 0x34C1 JUMP JUMPDEST PUSH1 0x40 MLOAD DUP1 SWAP2 SUB SWAP1 REVERT JUMPDEST PUSH8 0xA688906BD8B0000 PUSH1 0x3 PUSH0 DUP3 DUP3 SLOAD PUSH2 0x218F SWAP2 SWAP1 PUSH2 0x350C JUMP JUMPDEST SWAP3 POP POP DUP2 SWAP1 SSTORE POP PUSH0 PUSH8 0xA688906BD8B0000 CALLVALUE PUSH2 0x21AB SWAP2 SWAP1 PUSH2 0x353F JUMP JUMPDEST SWAP1 POP PUSH0 DUP2 GT ISZERO PUSH2 0x21FA JUMPI CALLER PUSH20 0xFFFFFFFFFFFFFFFFFFFFFFFFFFFFFFFFFFFFFFFF AND PUSH2 0x8FC DUP3 SWAP1 DUP2 ISZERO MUL SWAP1 PUSH1 0x40 MLOAD PUSH0 PUSH1 0x40 MLOAD DUP1 DUP4 SUB DUP2 DUP6 DUP9 DUP9 CALL SWAP4 POP POP POP POP ISZERO DUP1 ISZERO PUSH2 0x21F8 JUMPI RETURNDATASIZE PUSH0 DUP1 RETURNDATACOPY RETURNDATASIZE PUSH0 REVERT JUMPDEST POP JUMPDEST PUSH0 PUSH1 0x4 PUSH0 DUP5 DUP2 MSTORE PUSH1 0x20 ADD SWAP1 DUP2 MSTORE PUSH1 0x20 ADD PUSH0 KECCAK256 SWAP1 POP DUP1 PUSH0 ADD PUSH0 SWAP1 SLOAD SWAP1 PUSH2 0x100 EXP SWAP1 DIV PUSH20 0xFFFFFFFFFFFFFFFFFFFFFFFFFFFFFFFFFFFFFFFF AND PUSH20 0xFFFFFFFFFFFFFFFFFFFFFFFFFFFFFFFFFFFFFFFF AND CALLER PUSH20 0xFFFFFFFFFFFFFFFFFFFFFFFFFFFFFFFFFFFFFFFF AND EQ PUSH2 0x229E JUMPI PUSH1 0x40 MLOAD PUSH32 0x8C379A000000000000000000000000000000000000000000000000000000000 DUP2 MSTORE PUSH1 0x4 ADD PUSH2 0x2295 SWAP1 PUSH2 0x414C JUMP JUMPDEST PUSH1 0x40 MLOAD DUP1 SWAP2 SUB SWAP1 REVERT JUMPDEST DUP1 PUSH1 0x2 ADD PUSH0 SWAP1 SLOAD SWAP1 PUSH2 0x100 EXP SWAP1 DIV PUSH1 0xFF AND PUSH2 0x22EE JUMPI PUSH1 0x40 MLOAD PUSH32 0x8C379A000000000000000000000000000000000000000000000000000000000 DUP2 MSTORE PUSH1 0x4 ADD PUSH2 0x22E5 SWAP1 PUSH2 0x3B5D JUMP JUMPDEST PUSH1 0x40 MLOAD DUP1 SWAP2 SUB SWAP1 REVERT JUMPDEST PUSH0 PUSH8 0xDE0B6B3A7640000 DUP3 PUSH1 0x3 ADD SLOAD PUSH2 0x2307 SWAP2 SWAP1 PUSH2 0x416A JUMP JUMPDEST SWAP1 POP PUSH0 DUP3 PUSH1 0x3 ADD DUP2 SWAP1 SSTORE POP DUP1 DUP3 PUSH1 0x4 ADD PUSH0 DUP3 DUP3 SLOAD PUSH2 0x2325 SWAP2 SWAP1 PUSH2 0x350C JUMP JUMPDEST SWAP3 POP POP DUP2 SWAP1 SSTORE POP PUSH0 CALLER PUSH20 0xFFFFFFFFFFFFFFFFFFFFFFFFFFFFFFFFFFFFFFFF AND DUP3 PUSH1 0x40 MLOAD PUSH2 0x2351 SWAP1 PUSH2 0x36BB JUMP JUMPDEST PUSH0 PUSH1 0x40 MLOAD DUP1 DUP4 SUB DUP2 DUP6 DUP8 GAS CALL SWAP3 POP POP POP RETURNDATASIZE DUP1 PUSH0 DUP2 EQ PUSH2 0x238B JUMPI PUSH1 0x40 MLOAD SWAP2 POP PUSH1 0x1F NOT PUSH1 0x3F RETURNDATASIZE ADD AND DUP3 ADD PUSH1 0x40 MSTORE RETURNDATASIZE DUP3 MSTORE RETURNDATASIZE PUSH0 PUSH1 0x20 DUP5 ADD RETURNDATACOPY PUSH2 0x2390 JUMP JUMPDEST PUSH1 0x60 SWAP2 POP JUMPDEST POP POP SWAP1 POP DUP1 PUSH2 0x23D4 JUMPI PUSH1 0x40 MLOAD PUSH32 0x8C379A000000000000000000000000000000000000000000000000000000000 DUP2 MSTORE PUSH1 0x4 ADD PUSH2 0x23CB SWAP1 PUSH2 0x3719 JUMP JUMPDEST PUSH1 0x40 MLOAD DUP1 SWAP2 SUB SWAP1 REVERT JUMPDEST CALLER PUSH20 0xFFFFFFFFFFFFFFFFFFFFFFFFFFFFFFFFFFFFFFFF AND DUP6 PUSH32 0xB67DA43F4CC061F251C05601F44947D1BE59A7EF5451A4A5230274DA04F88246 DUP5 PUSH1 0x40 MLOAD PUSH2 0x241B SWAP2 SWAP1 PUSH2 0x2DE1 JUMP JUMPDEST PUSH1 0x40 MLOAD DUP1 SWAP2 SUB SWAP1 LOG3 POP POP POP POP POP JUMP JUMPDEST PUSH8 0xDE0B6B3A7640000 DUP2 JUMP JUMPDEST PUSH8 0xA688906BD8B0000 CALLVALUE LT ISZERO PUSH2 0x2481 JUMPI PUSH1 0x40 MLOAD PUSH32 0x8C379A000000000000000000000000000000000000000000000000000000000 DUP2 MSTORE PUSH1 0x4 ADD PUSH2 0x2478 SWAP1 PUSH2 0x34C1 JUMP JUMPDEST PUSH1 0x40 MLOAD DUP1 SWAP2 SUB SWAP1 REVERT JUMPDEST PUSH8 0xA688906BD8B0000 PUSH1 0x3 PUSH0 DUP3 DUP3 SLOAD PUSH2 0x249A SWAP2 SWAP1 PUSH2 0x350C JUMP JUMPDEST SWAP3 POP POP DUP2 SWAP1 SSTORE POP PUSH0 PUSH8 0xA688906BD8B0000 CALLVALUE PUSH2 0x24B6 SWAP2 SWAP1 PUSH2 0x353F JUMP JUMPDEST SWAP1 POP PUSH0 DUP2 GT ISZERO PUSH2 0x2505 JUMPI CALLER PUSH20 0xFFFFFFFFFFFFFFFFFFFFFFFFFFFFFFFFFFFFFFFF AND PUSH2 0x8FC DUP3 SWAP1 DUP2 ISZERO MUL SWAP1 PUSH1 0x40 MLOAD PUSH0 PUSH1 0x40 MLOAD DUP1 DUP4 SUB DUP2 DUP6 DUP9 DUP9 CALL SWAP4 POP POP POP POP ISZERO DUP1 ISZERO PUSH2 0x2503 JUMPI RETURNDATASIZE PUSH0 DUP1 RETURNDATACOPY RETURNDATASIZE PUSH0 REVERT JUMPDEST POP JUMPDEST PUSH1 0x4 PUSH0 DUP10 DUP2 MSTORE PUSH1 0x20 ADD SWAP1 DUP2 MSTORE PUSH1 0x20 ADD PUSH0 KECCAK256 PUSH0 ADD PUSH0 SWAP1 SLOAD SWAP1 PUSH2 0x100 EXP SWAP1 DIV PUSH20 0xFFFFFFFFFFFFFFFFFFFFFFFFFFFFFFFFFFFFFFFF AND PUSH20 0xFFFFFFFFFFFFFFFFFFFFFFFFFFFFFFFFFFFFFFFF AND CALLER PUSH20 0xFFFFFFFFFFFFFFFFFFFFFFFFFFFFFFFFFFFFFFFF AND EQ PUSH2 0x25A5 JUMPI PUSH1 0x40 MLOAD PUSH32 0x8C379A000000000000000000000000000000000000000000000000000000000 DUP2 MSTORE PUSH1 0x4 ADD PUSH2 0x259C SWAP1 PUSH2 0x421B JUMP JUMPDEST PUSH1 0x40 MLOAD DUP1 SWAP2 SUB SWAP1 REVERT JUMPDEST PUSH1 0x4 PUSH0 DUP10 DUP2 MSTORE PUSH1 0x20 ADD SWAP1 DUP2 MSTORE PUSH1 0x20 ADD PUSH0 KECCAK256 PUSH1 0x2 ADD PUSH0 SWAP1 SLOAD SWAP1 PUSH2 0x100 EXP SWAP1 DIV PUSH1 0xFF AND PUSH2 0x2605 JUMPI PUSH1 0x40 MLOAD PUSH32 0x8C379A000000000000000000000000000000000000000000000000000000000 DUP2 MSTORE PUSH1 0x4 ADD PUSH2 0x25FC SWAP1 PUSH2 0x42A9 JUMP JUMPDEST PUSH1 0x40 MLOAD DUP1 SWAP2 SUB SWAP1 REVERT JUMPDEST PUSH1 0x40 MLOAD PUSH1 0x20 ADD PUSH2 0x2614 SWAP1 PUSH2 0x4311 JUMP JUMPDEST PUSH1 0x40 MLOAD PUSH1 0x20 DUP2 DUP4 SUB SUB DUP2 MSTORE SWAP1 PUSH1 0x40 MSTORE DUP1 MLOAD SWAP1 PUSH1 0x20 ADD KECCAK256 DUP3 PUSH1 0x40 MLOAD PUSH1 0x20 ADD PUSH2 0x263B SWAP2 SWAP1 PUSH2 0x39E9 JUMP JUMPDEST PUSH1 0x40 MLOAD PUSH1 0x20 DUP2 DUP4 SUB SUB DUP2 MSTORE SWAP1 PUSH1 0x40 MSTORE DUP1 MLOAD SWAP1 PUSH1 0x20 ADD KECCAK256 EQ DUP1 PUSH2 0x26A6 JUMPI POP PUSH1 0x40 MLOAD PUSH1 0x20 ADD PUSH2 0x2667 SWAP1 PUSH2 0x436F JUMP JUMPDEST PUSH1 0x40 MLOAD PUSH1 0x20 DUP2 DUP4 SUB SUB DUP2 MSTORE SWAP1 PUSH1 0x40 MSTORE DUP1 MLOAD SWAP1 PUSH1 0x20 ADD KECCAK256 DUP3 PUSH1 0x40 MLOAD PUSH1 0x20 ADD PUSH2 0x268E SWAP2 SWAP1 PUSH2 0x39E9 JUMP JUMPDEST PUSH1 0x40 MLOAD PUSH1 0x20 DUP2 DUP4 SUB SUB DUP2 MSTORE SWAP1 PUSH1 0x40 MSTORE DUP1 MLOAD SWAP1 PUSH1 0x20 ADD KECCAK256 EQ JUMPDEST DUP1 PUSH2 0x26FA JUMPI POP PUSH1 0x40 MLOAD PUSH1 0x20 ADD PUSH2 0x26BB SWAP1 PUSH2 0x43CD JUMP JUMPDEST PUSH1 0x40 MLOAD PUSH1 0x20 DUP2 DUP4 SUB SUB DUP2 MSTORE SWAP1 PUSH1 0x40 MSTORE DUP1 MLOAD SWAP1 PUSH1 0x20 ADD KECCAK256 DUP3 PUSH1 0x40 MLOAD PUSH1 0x20 ADD PUSH2 0x26E2 SWAP2 SWAP1 PUSH2 0x39E9 JUMP JUMPDEST PUSH1 0x40 MLOAD PUSH1 0x20 DUP2 DUP4 SUB SUB DUP2 MSTORE SWAP1 PUSH1 0x40 MSTORE DUP1 MLOAD SWAP1 PUSH1 0x20 ADD KECCAK256 EQ JUMPDEST DUP1 PUSH2 0x274E JUMPI POP PUSH1 0x40 MLOAD PUSH1 0x20 ADD PUSH2 0x270F SWAP1 PUSH2 0x442B JUMP JUMPDEST PUSH1 0x40 MLOAD PUSH1 0x20 DUP2 DUP4 SUB SUB DUP2 MSTORE SWAP1 PUSH1 0x40 MSTORE DUP1 MLOAD SWAP1 PUSH1 0x20 ADD KECCAK256 DUP3 PUSH1 0x40 MLOAD PUSH1 0x20 ADD PUSH2 0x2736 SWAP2 SWAP1 PUSH2 0x39E9 JUMP JUMPDEST PUSH1 0x40 MLOAD PUSH1 0x20 DUP2 DUP4 SUB SUB DUP2 MSTORE SWAP1 PUSH1 0x40 MSTORE DUP1 MLOAD SWAP1 PUSH1 0x20 ADD KECCAK256 EQ JUMPDEST PUSH2 0x278D JUMPI PUSH1 0x40 MLOAD PUSH32 0x8C379A000000000000000000000000000000000000000000000000000000000 DUP2 MSTORE PUSH1 0x4 ADD PUSH2 0x2784 SWAP1 PUSH2 0x4489 JUMP JUMPDEST PUSH1 0x40 MLOAD DUP1 SWAP2 SUB SWAP1 REVERT JUMPDEST PUSH0 PUSH1 0x40 MLOAD DUP1 PUSH1 0xE0 ADD PUSH1 0x40 MSTORE DUP1 DUP11 DUP2 MSTORE PUSH1 0x20 ADD DUP10 DUP2 MSTORE PUSH1 0x20 ADD DUP9 DUP2 MSTORE PUSH1 0x20 ADD DUP8 DUP2 MSTORE PUSH1 0x20 ADD DUP7 DUP2 MSTORE PUSH1 0x20 ADD DUP6 DUP2 MSTORE PUSH1 0x20 ADD DUP5 PUSH1 0x40 MLOAD PUSH1 0x20 ADD PUSH2 0x27CE SWAP2 SWAP1 PUSH2 0x39E9 JUMP JUMPDEST PUSH1 0x40 MLOAD PUSH1 0x20 DUP2 DUP4 SUB SUB DUP2 MSTORE SWAP1 PUSH1 0x40 MSTORE DUP1 MLOAD SWAP1 PUSH1 0x20 ADD KECCAK256 DUP2 MSTORE POP SWAP1 POP PUSH1 0x6 PUSH0 DUP11 DUP2 MSTORE PUSH1 0x20 ADD SWAP1 DUP2 MSTORE PUSH1 0x20 ADD PUSH0 KECCAK256 DUP2 SWAP1 DUP1 PUSH1 0x1 DUP2 SLOAD ADD DUP1 DUP3 SSTORE DUP1 SWAP2 POP POP PUSH1 0x1 SWAP1 SUB SWAP1 PUSH0 MSTORE PUSH1 0x20 PUSH0 KECCAK256 SWAP1 PUSH1 0x7 MUL ADD PUSH0 SWAP1 SWAP2 SWAP1 SWAP2 SWAP1 SWAP2 POP PUSH0 DUP3 ADD MLOAD DUP2 PUSH0 ADD SSTORE PUSH1 0x20 DUP3 ADD MLOAD DUP2 PUSH1 0x1 ADD SWAP1 DUP2 PUSH2 0x283E SWAP2 SWAP1 PUSH2 0x3E6D JUMP JUMPDEST POP PUSH1 0x40 DUP3 ADD MLOAD DUP2 PUSH1 0x2 ADD SWAP1 DUP2 PUSH2 0x2854 SWAP2 SWAP1 PUSH2 0x3E6D JUMP JUMPDEST POP PUSH1 0x60 DUP3 ADD MLOAD DUP2 PUSH1 0x3 ADD SWAP1 DUP2 PUSH2 0x286A SWAP2 SWAP1 PUSH2 0x3E6D JUMP JUMPDEST POP PUSH1 0x80 DUP3 ADD MLOAD DUP2 PUSH1 0x4 ADD SWAP1 DUP2 PUSH2 0x2880 SWAP2 SWAP1 PUSH2 0x3E6D JUMP JUMPDEST POP PUSH1 0xA0 DUP3 ADD MLOAD DUP2 PUSH1 0x5 ADD SWAP1 DUP2 PUSH2 0x2896 SWAP2 SWAP1 PUSH2 0x3E6D JUMP JUMPDEST POP PUSH1 0xC0 DUP3 ADD MLOAD DUP2 PUSH1 0x6 ADD SSTORE POP POP PUSH0 PUSH1 0x1 PUSH1 0x6 PUSH0 DUP13 DUP2 MSTORE PUSH1 0x20 ADD SWAP1 DUP2 MSTORE PUSH1 0x20 ADD PUSH0 KECCAK256 DUP1 SLOAD SWAP1 POP PUSH2 0x28C5 SWAP2 SWAP1 PUSH2 0x353F JUMP JUMPDEST SWAP1 POP DUP10 PUSH32 0x8865832F191AE6766F74AD3A536812CFFBF608C1DEE46454CF0B3B9C98A4B37F DUP3 PUSH1 0x40 MLOAD PUSH2 0x28F7 SWAP2 SWAP1 PUSH2 0x2DE1 JUMP JUMPDEST PUSH1 0x40 MLOAD DUP1 SWAP2 SUB SWAP1 LOG2 POP POP POP POP POP POP POP POP POP POP JUMP JUMPDEST PUSH2 0x2913 PUSH2 0x29E5 JUMP JUMPDEST PUSH0 PUSH20 0xFFFFFFFFFFFFFFFFFFFFFFFFFFFFFFFFFFFFFFFF AND DUP2 PUSH20 0xFFFFFFFFFFFFFFFFFFFFFFFFFFFFFFFFFFFFFFFF AND SUB PUSH2 0x2983 JUMPI PUSH0 PUSH1 0x40 MLOAD PUSH32 0x1E4FBDF700000000000000000000000000000000000000000000000000000000 DUP2 MSTORE PUSH1 0x4 ADD PUSH2 0x297A SWAP2 SWAP1 PUSH2 0x3180 JUMP JUMPDEST PUSH1 0x40 MLOAD DUP1 SWAP2 SUB SWAP1 REVERT JUMPDEST PUSH2 0x298C DUP2 PUSH2 0x2ACD JUMP JUMPDEST POP JUMP JUMPDEST PUSH8 0x8AC7230489E80000 DUP2 JUMP JUMPDEST PUSH2 0x29A3 PUSH2 0x984 JUMP JUMPDEST ISZERO PUSH2 0x29E3 JUMPI PUSH1 0x40 MLOAD PUSH32 0x8C379A000000000000000000000000000000000000000000000000000000000 DUP2 MSTORE PUSH1 0x4 ADD PUSH2 0x29DA SWAP1 PUSH2 0x44F1 JUMP JUMPDEST PUSH1 0x40 MLOAD DUP1 SWAP2 SUB SWAP1 REVERT JUMPDEST JUMP JUMPDEST PUSH2 0x29ED PUSH2 0x2BF0 JUMP JUMPDEST PUSH20 0xFFFFFFFFFFFFFFFFFFFFFFFFFFFFFFFFFFFFFFFF AND PUSH2 0x2A0B PUSH2 0x1841 JUMP JUMPDEST PUSH20 0xFFFFFFFFFFFFFFFFFFFFFFFFFFFFFFFFFFFFFFFF AND EQ PUSH2 0x2A6A JUMPI PUSH2 0x2A2E PUSH2 0x2BF0 JUMP JUMPDEST PUSH1 0x40 MLOAD PUSH32 0x118CDAA700000000000000000000000000000000000000000000000000000000 DUP2 MSTORE PUSH1 0x4 ADD PUSH2 0x2A61 SWAP2 SWAP1 PUSH2 0x3180 JUMP JUMPDEST PUSH1 0x40 MLOAD DUP1 SWAP2 SUB SWAP1 REVERT JUMPDEST JUMP JUMPDEST PUSH2 0x2A74 PUSH2 0x2BF7 JUMP JUMPDEST PUSH0 DUP1 PUSH1 0x14 PUSH2 0x100 EXP DUP2 SLOAD DUP2 PUSH1 0xFF MUL NOT AND SWAP1 DUP4 ISZERO ISZERO MUL OR SWAP1 SSTORE POP PUSH32 0x5DB9EE0A495BF2E6FF9C91A7834C1BA4FDD244A5E8AA4E537BD38AEAE4B073AA PUSH2 0x2AB6 PUSH2 0x2BF0 JUMP JUMPDEST PUSH1 0x40 MLOAD PUSH2 0x2AC3 SWAP2 SWAP1 PUSH2 0x3180 JUMP JUMPDEST PUSH1 0x40 MLOAD DUP1 SWAP2 SUB SWAP1 LOG1 JUMP JUMPDEST PUSH0 DUP1 PUSH0 SWAP1 SLOAD SWAP1 PUSH2 0x100 EXP SWAP1 DIV PUSH20 0xFFFFFFFFFFFFFFFFFFFFFFFFFFFFFFFFFFFFFFFF AND SWAP1 POP DUP2 PUSH0 DUP1 PUSH2 0x100 EXP DUP2 SLOAD DUP2 PUSH20 0xFFFFFFFFFFFFFFFFFFFFFFFFFFFFFFFFFFFFFFFF MUL NOT AND SWAP1 DUP4 PUSH20 0xFFFFFFFFFFFFFFFFFFFFFFFFFFFFFFFFFFFFFFFF AND MUL OR SWAP1 SSTORE POP DUP2 PUSH20 0xFFFFFFFFFFFFFFFFFFFFFFFFFFFFFFFFFFFFFFFF AND DUP2 PUSH20 0xFFFFFFFFFFFFFFFFFFFFFFFFFFFFFFFFFFFFFFFF AND PUSH32 0x8BE0079C531659141344CD1FD0A4F28419497F9722A3DAAFE3B4186F6B6457E0 PUSH1 0x40 MLOAD PUSH1 0x40 MLOAD DUP1 SWAP2 SUB SWAP1 LOG3 POP POP JUMP JUMPDEST PUSH2 0x2B96 PUSH2 0x299B JUMP JUMPDEST PUSH1 0x1 PUSH0 PUSH1 0x14 PUSH2 0x100 EXP DUP2 SLOAD DUP2 PUSH1 0xFF MUL NOT AND SWAP1 DUP4 ISZERO ISZERO MUL OR SWAP1 SSTORE POP PUSH32 0x62E78CEA01BEE320CD4E420270B5EA74000D11B0C9F74754EBDBFC544B05A258 PUSH2 0x2BD9 PUSH2 0x2BF0 JUMP JUMPDEST PUSH1 0x40 MLOAD PUSH2 0x2BE6 SWAP2 SWAP1 PUSH2 0x3180 JUMP JUMPDEST PUSH1 0x40 MLOAD DUP1 SWAP2 SUB SWAP1 LOG1 JUMP JUMPDEST PUSH0 CALLER SWAP1 POP SWAP1 JUMP JUMPDEST PUSH2 0x2BFF PUSH2 0x984 JUMP JUMPDEST PUSH2 0x2C3E JUMPI PUSH1 0x40 MLOAD PUSH32 0x8C379A000000000000000000000000000000000000000000000000000000000 DUP2 MSTORE PUSH1 0x4 ADD PUSH2 0x2C35 SWAP1 PUSH2 0x4559 JUMP JUMPDEST PUSH1 0x40 MLOAD DUP1 SWAP2 SUB SWAP1 REVERT JUMPDEST JUMP JUMPDEST PUSH0 PUSH1 0x40 MLOAD SWAP1 POP SWAP1 JUMP JUMPDEST PUSH0 DUP1 REVERT JUMPDEST PUSH0 DUP1 REVERT JUMPDEST PUSH0 DUP2 SWAP1 POP SWAP2 SWAP1 POP JUMP JUMPDEST PUSH2 0x2C63 DUP2 PUSH2 0x2C51 JUMP JUMPDEST DUP2 EQ PUSH2 0x2C6D JUMPI PUSH0 DUP1 REVERT JUMPDEST POP JUMP JUMPDEST PUSH0 DUP2 CALLDATALOAD SWAP1 POP PUSH2 0x2C7E DUP2 PUSH2 0x2C5A JUMP JUMPDEST SWAP3 SWAP2 POP POP JUMP JUMPDEST PUSH0 DUP1 PUSH1 0x40 DUP4 DUP6 SUB SLT ISZERO PUSH2 0x2C9A JUMPI PUSH2 0x2C99 PUSH2 0x2C49 JUMP JUMPDEST JUMPDEST PUSH0 PUSH2 0x2CA7 DUP6 DUP3 DUP7 ADD PUSH2 0x2C70 JUMP JUMPDEST SWAP3 POP POP PUSH1 0x20 PUSH2 0x2CB8 DUP6 DUP3 DUP7 ADD PUSH2 0x2C70 JUMP JUMPDEST SWAP2 POP POP SWAP3 POP SWAP3 SWAP1 POP JUMP JUMPDEST PUSH0 PUSH20 0xFFFFFFFFFFFFFFFFFFFFFFFFFFFFFFFFFFFFFFFF DUP3 AND SWAP1 POP SWAP2 SWAP1 POP JUMP JUMPDEST PUSH0 PUSH2 0x2CEB DUP3 PUSH2 0x2CC2 JUMP JUMPDEST SWAP1 POP SWAP2 SWAP1 POP JUMP JUMPDEST PUSH2 0x2CFB DUP2 PUSH2 0x2CE1 JUMP JUMPDEST DUP2 EQ PUSH2 0x2D05 JUMPI PUSH0 DUP1 REVERT JUMPDEST POP JUMP JUMPDEST PUSH0 DUP2 CALLDATALOAD SWAP1 POP PUSH2 0x2D16 DUP2 PUSH2 0x2CF2 JUMP JUMPDEST SWAP3 SWAP2 POP POP JUMP JUMPDEST PUSH0 DUP1 PUSH1 0x40 DUP4 DUP6 SUB SLT ISZERO PUSH2 0x2D32 JUMPI PUSH2 0x2D31 PUSH2 0x2C49 JUMP JUMPDEST JUMPDEST PUSH0 PUSH2 0x2D3F DUP6 DUP3 DUP7 ADD PUSH2 0x2D08 JUMP JUMPDEST SWAP3 POP POP PUSH1 0x20 PUSH2 0x2D50 DUP6 DUP3 DUP7 ADD PUSH2 0x2C70 JUMP JUMPDEST SWAP2 POP POP SWAP3 POP SWAP3 SWAP1 POP JUMP JUMPDEST PUSH0 DUP2 ISZERO ISZERO SWAP1 POP SWAP2 SWAP1 POP JUMP JUMPDEST PUSH2 0x2D6E DUP2 PUSH2 0x2D5A JUMP JUMPDEST DUP3 MSTORE POP POP JUMP JUMPDEST PUSH0 PUSH1 0xFF DUP3 AND SWAP1 POP SWAP2 SWAP1 POP JUMP JUMPDEST PUSH2 0x2D89 DUP2 PUSH2 0x2D74 JUMP JUMPDEST DUP3 MSTORE POP POP JUMP JUMPDEST PUSH0 PUSH1 0x80 DUP3 ADD SWAP1 POP PUSH2 0x2DA2 PUSH0 DUP4 ADD DUP8 PUSH2 0x2D65 JUMP JUMPDEST PUSH2 0x2DAF PUSH1 0x20 DUP4 ADD DUP7 PUSH2 0x2D80 JUMP JUMPDEST PUSH2 0x2DBC PUSH1 0x40 DUP4 ADD DUP6 PUSH2 0x2D65 JUMP JUMPDEST PUSH2 0x2DC9 PUSH1 0x60 DUP4 ADD DUP5 PUSH2 0x2D65 JUMP JUMPDEST SWAP6 SWAP5 POP POP POP POP POP JUMP JUMPDEST PUSH2 0x2DDB DUP2 PUSH2 0x2C51 JUMP JUMPDEST DUP3 MSTORE POP POP JUMP JUMPDEST PUSH0 PUSH1 0x20 DUP3 ADD SWAP1 POP PUSH2 0x2DF4 PUSH0 DUP4 ADD DUP5 PUSH2 0x2DD2 JUMP JUMPDEST SWAP3 SWAP2 POP POP JUMP JUMPDEST PUSH0 PUSH1 0x20 DUP3 ADD SWAP1 POP PUSH2 0x2E0D PUSH0 DUP4 ADD DUP5 PUSH2 0x2D65 JUMP JUMPDEST SWAP3 SWAP2 POP POP JUMP JUMPDEST PUSH0 DUP1 REVERT JUMPDEST PUSH0 PUSH1 0x1F NOT PUSH1 0x1F DUP4 ADD AND SWAP1 POP SWAP2 SWAP1 POP JUMP JUMPDEST PUSH32 0x4E487B7100000000000000000000000000000000000000000000000000000000 PUSH0 MSTORE PUSH1 0x41 PUSH1 0x4 MSTORE PUSH1 0x24 PUSH0 REVERT JUMPDEST PUSH2 0x2E5D DUP3 PUSH2 0x2E17 JUMP JUMPDEST DUP2 ADD DUP2 DUP2 LT PUSH8 0xFFFFFFFFFFFFFFFF DUP3 GT OR ISZERO PUSH2 0x2E7C JUMPI PUSH2 0x2E7B PUSH2 0x2E27 JUMP JUMPDEST JUMPDEST DUP1 PUSH1 0x40 MSTORE POP POP POP JUMP JUMPDEST PUSH0 PUSH2 0x2E8E PUSH2 0x2C40 JUMP JUMPDEST SWAP1 POP PUSH2 0x2E9A DUP3 DUP3 PUSH2 0x2E54 JUMP JUMPDEST SWAP2 SWAP1 POP JUMP JUMPDEST PUSH0 PUSH8 0xFFFFFFFFFFFFFFFF DUP3 GT ISZERO PUSH2 0x2EB9 JUMPI PUSH2 0x2EB8 PUSH2 0x2E27 JUMP JUMPDEST JUMPDEST PUSH1 0x20 DUP3 MUL SWAP1 POP PUSH1 0x20 DUP2 ADD SWAP1 POP SWAP2 SWAP1 POP JUMP JUMPDEST PUSH0 DUP1 REVERT JUMPDEST PUSH0 DUP1 REVERT JUMPDEST PUSH0 PUSH8 0xFFFFFFFFFFFFFFFF DUP3 GT ISZERO PUSH2 0x2EEC JUMPI PUSH2 0x2EEB PUSH2 0x2E27 JUMP JUMPDEST JUMPDEST PUSH2 0x2EF5 DUP3 PUSH2 0x2E17 JUMP JUMPDEST SWAP1 POP PUSH1 0x20 DUP2 ADD SWAP1 POP SWAP2 SWAP1 POP JUMP JUMPDEST DUP3 DUP2 DUP4 CALLDATACOPY PUSH0 DUP4 DUP4 ADD MSTORE POP POP POP JUMP JUMPDEST PUSH0 PUSH2 0x2F22 PUSH2 0x2F1D DUP5 PUSH2 0x2ED2 JUMP JUMPDEST PUSH2 0x2E85 JUMP JUMPDEST SWAP1 POP DUP3 DUP2 MSTORE PUSH1 0x20 DUP2 ADD DUP5 DUP5 DUP5 ADD GT ISZERO PUSH2 0x2F3E JUMPI PUSH2 0x2F3D PUSH2 0x2ECE JUMP JUMPDEST JUMPDEST PUSH2 0x2F49 DUP5 DUP3 DUP6 PUSH2 0x2F02 JUMP JUMPDEST POP SWAP4 SWAP3 POP POP POP JUMP JUMPDEST PUSH0 DUP3 PUSH1 0x1F DUP4 ADD SLT PUSH2 0x2F65 JUMPI PUSH2 0x2F64 PUSH2 0x2E13 JUMP JUMPDEST JUMPDEST DUP2 CALLDATALOAD PUSH2 0x2F75 DUP5 DUP3 PUSH1 0x20 DUP7 ADD PUSH2 0x2F10 JUMP JUMPDEST SWAP2 POP POP SWAP3 SWAP2 POP POP JUMP JUMPDEST PUSH0 PUSH2 0x2F90 PUSH2 0x2F8B DUP5 PUSH2 0x2E9F JUMP JUMPDEST PUSH2 0x2E85 JUMP JUMPDEST SWAP1 POP DUP1 DUP4 DUP3 MSTORE PUSH1 0x20 DUP3 ADD SWAP1 POP PUSH1 0x20 DUP5 MUL DUP4 ADD DUP6 DUP2 GT ISZERO PUSH2 0x2FB3 JUMPI PUSH2 0x2FB2 PUSH2 0x2ECA JUMP JUMPDEST JUMPDEST DUP4 JUMPDEST DUP2 DUP2 LT ISZERO PUSH2 0x2FFA JUMPI DUP1 CALLDATALOAD PUSH8 0xFFFFFFFFFFFFFFFF DUP2 GT ISZERO PUSH2 0x2FD8 JUMPI PUSH2 0x2FD7 PUSH2 0x2E13 JUMP JUMPDEST JUMPDEST DUP1 DUP7 ADD PUSH2 0x2FE5 DUP10 DUP3 PUSH2 0x2F51 JUMP JUMPDEST DUP6 MSTORE PUSH1 0x20 DUP6 ADD SWAP5 POP POP POP PUSH1 0x20 DUP2 ADD SWAP1 POP PUSH2 0x2FB5 JUMP JUMPDEST POP POP POP SWAP4 SWAP3 POP POP POP JUMP JUMPDEST PUSH0 DUP3 PUSH1 0x1F DUP4 ADD SLT PUSH2 0x3018 JUMPI PUSH2 0x3017 PUSH2 0x2E13 JUMP JUMPDEST JUMPDEST DUP2 CALLDATALOAD PUSH2 0x3028 DUP5 DUP3 PUSH1 0x20 DUP7 ADD PUSH2 0x2F7E JUMP JUMPDEST SWAP2 POP POP SWAP3 SWAP2 POP POP JUMP JUMPDEST PUSH0 DUP1 PUSH1 0x40 DUP4 DUP6 SUB SLT ISZERO PUSH2 0x3047 JUMPI PUSH2 0x3046 PUSH2 0x2C49 JUMP JUMPDEST JUMPDEST PUSH0 PUSH2 0x3054 DUP6 DUP3 DUP7 ADD PUSH2 0x2C70 JUMP JUMPDEST SWAP3 POP POP PUSH1 0x20 DUP4 ADD CALLDATALOAD PUSH8 0xFFFFFFFFFFFFFFFF DUP2 GT ISZERO PUSH2 0x3075 JUMPI PUSH2 0x3074 PUSH2 0x2C4D JUMP JUMPDEST JUMPDEST PUSH2 0x3081 DUP6 DUP3 DUP7 ADD PUSH2 0x3004 JUMP JUMPDEST SWAP2 POP POP SWAP3 POP SWAP3 SWAP1 POP JUMP JUMPDEST PUSH0 PUSH1 0x20 DUP3 DUP5 SUB SLT ISZERO PUSH2 0x30A0 JUMPI PUSH2 0x309F PUSH2 0x2C49 JUMP JUMPDEST JUMPDEST PUSH0 PUSH2 0x30AD DUP5 DUP3 DUP6 ADD PUSH2 0x2C70 JUMP JUMPDEST SWAP2 POP POP SWAP3 SWAP2 POP POP JUMP JUMPDEST PUSH0 DUP2 SWAP1 POP SWAP2 SWAP1 POP JUMP JUMPDEST PUSH0 PUSH2 0x30D9 PUSH2 0x30D4 PUSH2 0x30CF DUP5 PUSH2 0x2CC2 JUMP JUMPDEST PUSH2 0x30B6 JUMP JUMPDEST PUSH2 0x2CC2 JUMP JUMPDEST SWAP1 POP SWAP2 SWAP1 POP JUMP JUMPDEST PUSH0 PUSH2 0x30EA DUP3 PUSH2 0x30BF JUMP JUMPDEST SWAP1 POP SWAP2 SWAP1 POP JUMP JUMPDEST PUSH0 PUSH2 0x30FB DUP3 PUSH2 0x30E0 JUMP JUMPDEST SWAP1 POP SWAP2 SWAP1 POP JUMP JUMPDEST PUSH2 0x310B DUP2 PUSH2 0x30F1 JUMP JUMPDEST DUP3 MSTORE POP POP JUMP JUMPDEST PUSH0 PUSH1 0x20 DUP3 ADD SWAP1 POP PUSH2 0x3124 PUSH0 DUP4 ADD DUP5 PUSH2 0x3102 JUMP JUMPDEST SWAP3 SWAP2 POP POP JUMP JUMPDEST PUSH0 PUSH1 0x20 DUP3 DUP5 SUB SLT ISZERO PUSH2 0x313F JUMPI PUSH2 0x313E PUSH2 0x2C49 JUMP JUMPDEST JUMPDEST PUSH0 DUP3 ADD CALLDATALOAD PUSH8 0xFFFFFFFFFFFFFFFF DUP2 GT ISZERO PUSH2 0x315C JUMPI PUSH2 0x315B PUSH2 0x2C4D JUMP JUMPDEST JUMPDEST PUSH2 0x3168 DUP5 DUP3 DUP6 ADD PUSH2 0x2F51 JUMP JUMPDEST SWAP2 POP POP SWAP3 SWAP2 POP POP JUMP JUMPDEST PUSH2 0x317A DUP2 PUSH2 0x2CE1 JUMP JUMPDEST DUP3 MSTORE POP POP JUMP JUMPDEST PUSH0 PUSH1 0x20 DUP3 ADD SWAP1 POP PUSH2 0x3193 PUSH0 DUP4 ADD DUP5 PUSH2 0x3171 JUMP JUMPDEST SWAP3 SWAP2 POP POP JUMP JUMPDEST PUSH0 PUSH1 0x20 DUP3 DUP5 SUB SLT ISZERO PUSH2 0x31AE JUMPI PUSH2 0x31AD PUSH2 0x2C49 JUMP JUMPDEST JUMPDEST PUSH0 PUSH2 0x31BB DUP5 DUP3 DUP6 ADD PUSH2 0x2D08 JUMP JUMPDEST SWAP2 POP POP SWAP3 SWAP2 POP POP JUMP JUMPDEST PUSH0 DUP2 MLOAD SWAP1 POP SWAP2 SWAP1 POP JUMP JUMPDEST PUSH0 DUP3 DUP3 MSTORE PUSH1 0x20 DUP3 ADD SWAP1 POP SWAP3 SWAP2 POP POP JUMP JUMPDEST DUP3 DUP2 DUP4 MCOPY PUSH0 DUP4 DUP4 ADD MSTORE POP POP POP JUMP JUMPDEST PUSH0 PUSH2 0x31F6 DUP3 PUSH2 0x31C4 JUMP JUMPDEST PUSH2 0x3200 DUP2 DUP6 PUSH2 0x31CE JUMP JUMPDEST SWAP4 POP PUSH2 0x3210 DUP2 DUP6 PUSH1 0x20 DUP7 ADD PUSH2 0x31DE JUMP JUMPDEST PUSH2 0x3219 DUP2 PUSH2 0x2E17 JUMP JUMPDEST DUP5 ADD SWAP2 POP POP SWAP3 SWAP2 POP POP JUMP JUMPDEST PUSH0 PUSH1 0xC0 DUP3 ADD SWAP1 POP PUSH2 0x3237 PUSH0 DUP4 ADD DUP10 PUSH2 0x3171 JUMP JUMPDEST DUP2 DUP2 SUB PUSH1 0x20 DUP4 ADD MSTORE PUSH2 0x3249 DUP2 DUP9 PUSH2 0x31EC JUMP JUMPDEST SWAP1 POP PUSH2 0x3258 PUSH1 0x40 DUP4 ADD DUP8 PUSH2 0x2D65 JUMP JUMPDEST PUSH2 0x3265 PUSH1 0x60 DUP4 ADD DUP7 PUSH2 0x2DD2 JUMP JUMPDEST PUSH2 0x3272 PUSH1 0x80 DUP4 ADD DUP6 PUSH2 0x2DD2 JUMP JUMPDEST PUSH2 0x327F PUSH1 0xA0 DUP4 ADD DUP5 PUSH2 0x2DD2 JUMP JUMPDEST SWAP8 SWAP7 POP POP POP POP POP POP POP JUMP JUMPDEST PUSH0 DUP2 SWAP1 POP SWAP2 SWAP1 POP JUMP JUMPDEST PUSH2 0x329C DUP2 PUSH2 0x328A JUMP JUMPDEST DUP3 MSTORE POP POP JUMP JUMPDEST PUSH0 PUSH1 0xE0 DUP3 ADD SWAP1 POP PUSH2 0x32B5 PUSH0 DUP4 ADD DUP11 PUSH2 0x2DD2 JUMP JUMPDEST DUP2 DUP2 SUB PUSH1 0x20 DUP4 ADD MSTORE PUSH2 0x32C7 DUP2 DUP10 PUSH2 0x31EC JUMP JUMPDEST SWAP1 POP DUP2 DUP2 SUB PUSH1 0x40 DUP4 ADD MSTORE PUSH2 0x32DB DUP2 DUP9 PUSH2 0x31EC JUMP JUMPDEST SWAP1 POP DUP2 DUP2 SUB PUSH1 0x60 DUP4 ADD MSTORE PUSH2 0x32EF DUP2 DUP8 PUSH2 0x31EC JUMP JUMPDEST SWAP1 POP DUP2 DUP2 SUB PUSH1 0x80 DUP4 ADD MSTORE PUSH2 0x3303 DUP2 DUP7 PUSH2 0x31EC JUMP JUMPDEST SWAP1 POP DUP2 DUP2 SUB PUSH1 0xA0 DUP4 ADD MSTORE PUSH2 0x3317 DUP2 DUP6 PUSH2 0x31EC JUMP JUMPDEST SWAP1 POP PUSH2 0x3326 PUSH1 0xC0 DUP4 ADD DUP5 PUSH2 0x3293 JUMP JUMPDEST SWAP9 SWAP8 POP POP POP POP POP POP POP POP JUMP JUMPDEST PUSH0 DUP1 PUSH0 DUP1 PUSH0 DUP1 PUSH0 PUSH1 0xE0 DUP9 DUP11 SUB SLT ISZERO PUSH2 0x334D JUMPI PUSH2 0x334C PUSH2 0x2C49 JUMP JUMPDEST JUMPDEST PUSH0 PUSH2 0x335A DUP11 DUP3 DUP12 ADD PUSH2 0x2C70 JUMP JUMPDEST SWAP8 POP POP PUSH1 0x20 DUP9 ADD CALLDATALOAD PUSH8 0xFFFFFFFFFFFFFFFF DUP2 GT ISZERO PUSH2 0x337B JUMPI PUSH2 0x337A PUSH2 0x2C4D JUMP JUMPDEST JUMPDEST PUSH2 0x3387 DUP11 DUP3 DUP12 ADD PUSH2 0x2F51 JUMP JUMPDEST SWAP7 POP POP PUSH1 0x40 DUP9 ADD CALLDATALOAD PUSH8 0xFFFFFFFFFFFFFFFF DUP2 GT ISZERO PUSH2 0x33A8 JUMPI PUSH2 0x33A7 PUSH2 0x2C4D JUMP JUMPDEST JUMPDEST PUSH2 0x33B4 DUP11 DUP3 DUP12 ADD PUSH2 0x2F51 JUMP JUMPDEST SWAP6 POP POP PUSH1 0x60 DUP9 ADD CALLDATALOAD PUSH8 0xFFFFFFFFFFFFFFFF DUP2 GT ISZERO PUSH2 0x33D5 JUMPI PUSH2 0x33D4 PUSH2 0x2C4D JUMP JUMPDEST JUMPDEST PUSH2 0x33E1 DUP11 DUP3 DUP12 ADD PUSH2 0x2F51 JUMP JUMPDEST SWAP5 POP POP PUSH1 0x80 DUP9 ADD CALLDATALOAD PUSH8 0xFFFFFFFFFFFFFFFF DUP2 GT ISZERO PUSH2 0x3402 JUMPI PUSH2 0x3401 PUSH2 0x2C4D JUMP JUMPDEST JUMPDEST PUSH2 0x340E DUP11 DUP3 DUP12 ADD PUSH2 0x2F51 JUMP JUMPDEST SWAP4 POP POP PUSH1 0xA0 DUP9 ADD CALLDATALOAD PUSH8 0xFFFFFFFFFFFFFFFF DUP2 GT ISZERO PUSH2 0x342F JUMPI PUSH2 0x342E PUSH2 0x2C4D JUMP JUMPDEST JUMPDEST PUSH2 0x343B DUP11 DUP3 DUP12 ADD PUSH2 0x2F51 JUMP JUMPDEST SWAP3 POP POP PUSH1 0xC0 DUP9 ADD CALLDATALOAD PUSH8 0xFFFFFFFFFFFFFFFF DUP2 GT ISZERO PUSH2 0x345C JUMPI PUSH2 0x345B PUSH2 0x2C4D JUMP JUMPDEST JUMPDEST PUSH2 0x3468 DUP11 DUP3 DUP12 ADD PUSH2 0x2F51 JUMP JUMPDEST SWAP2 POP POP SWAP3 SWAP6 SWAP9 SWAP2 SWAP5 SWAP8 POP SWAP3 SWAP6 POP JUMP JUMPDEST PUSH32 0x496E73756666696369656E742067617320666565000000000000000000000000 PUSH0 DUP3 ADD MSTORE POP JUMP JUMPDEST PUSH0 PUSH2 0x34AB PUSH1 0x14 DUP4 PUSH2 0x31CE JUMP JUMPDEST SWAP2 POP PUSH2 0x34B6 DUP3 PUSH2 0x3477 JUMP JUMPDEST PUSH1 0x20 DUP3 ADD SWAP1 POP SWAP2 SWAP1 POP JUMP JUMPDEST PUSH0 PUSH1 0x20 DUP3 ADD SWAP1 POP DUP2 DUP2 SUB PUSH0 DUP4 ADD MSTORE PUSH2 0x34D8 DUP2 PUSH2 0x349F JUMP JUMPDEST SWAP1 POP SWAP2 SWAP1 POP JUMP JUMPDEST PUSH32 0x4E487B7100000000000000000000000000000000000000000000000000000000 PUSH0 MSTORE PUSH1 0x11 PUSH1 0x4 MSTORE PUSH1 0x24 PUSH0 REVERT JUMPDEST PUSH0 PUSH2 0x3516 DUP3 PUSH2 0x2C51 JUMP JUMPDEST SWAP2 POP PUSH2 0x3521 DUP4 PUSH2 0x2C51 JUMP JUMPDEST SWAP3 POP DUP3 DUP3 ADD SWAP1 POP DUP1 DUP3 GT ISZERO PUSH2 0x3539 JUMPI PUSH2 0x3538 PUSH2 0x34DF JUMP JUMPDEST JUMPDEST SWAP3 SWAP2 POP POP JUMP JUMPDEST PUSH0 PUSH2 0x3549 DUP3 PUSH2 0x2C51 JUMP JUMPDEST SWAP2 POP PUSH2 0x3554 DUP4 PUSH2 0x2C51 JUMP JUMPDEST SWAP3 POP DUP3 DUP3 SUB SWAP1 POP DUP2 DUP2 GT ISZERO PUSH2 0x356C JUMPI PUSH2 0x356B PUSH2 0x34DF JUMP JUMPDEST JUMPDEST SWAP3 SWAP2 POP POP JUMP JUMPDEST PUSH32 0x4F6E6C7920636F757273652063726561746F722063616E207769746864726177 PUSH0 DUP3 ADD MSTORE PUSH32 0x20746F6B656E7300000000000000000000000000000000000000000000000000 PUSH1 0x20 DUP3 ADD MSTORE POP JUMP JUMPDEST PUSH0 PUSH2 0x35CC PUSH1 0x27 DUP4 PUSH2 0x31CE JUMP JUMPDEST SWAP2 POP PUSH2 0x35D7 DUP3 PUSH2 0x3572 JUMP JUMPDEST PUSH1 0x40 DUP3 ADD SWAP1 POP SWAP2 SWAP1 POP JUMP JUMPDEST PUSH0 PUSH1 0x20 DUP3 ADD SWAP1 POP DUP2 DUP2 SUB PUSH0 DUP4 ADD MSTORE PUSH2 0x35F9 DUP2 PUSH2 0x35C0 JUMP JUMPDEST SWAP1 POP SWAP2 SWAP1 POP JUMP JUMPDEST PUSH32 0x496E73756666696369656E7420726577617264656420746F6B656E7320746F20 PUSH0 DUP3 ADD MSTORE PUSH32 0x7769746864726177000000000000000000000000000000000000000000000000 PUSH1 0x20 DUP3 ADD MSTORE POP JUMP JUMPDEST PUSH0 PUSH2 0x365A PUSH1 0x28 DUP4 PUSH2 0x31CE JUMP JUMPDEST SWAP2 POP PUSH2 0x3665 DUP3 PUSH2 0x3600 JUMP JUMPDEST PUSH1 0x40 DUP3 ADD SWAP1 POP SWAP2 SWAP1 POP JUMP JUMPDEST PUSH0 PUSH1 0x20 DUP3 ADD SWAP1 POP DUP2 DUP2 SUB PUSH0 DUP4 ADD MSTORE PUSH2 0x3687 DUP2 PUSH2 0x364E JUMP JUMPDEST SWAP1 POP SWAP2 SWAP1 POP JUMP JUMPDEST PUSH0 DUP2 SWAP1 POP SWAP3 SWAP2 POP POP JUMP JUMPDEST POP JUMP JUMPDEST PUSH0 PUSH2 0x36A6 PUSH0 DUP4 PUSH2 0x368E JUMP JUMPDEST SWAP2 POP PUSH2 0x36B1 DUP3 PUSH2 0x3698 JUMP JUMPDEST PUSH0 DUP3 ADD SWAP1 POP SWAP2 SWAP1 POP JUMP JUMPDEST PUSH0 PUSH2 0x36C5 DUP3 PUSH2 0x369B JUMP JUMPDEST SWAP2 POP DUP2 SWAP1 POP SWAP2 SWAP1 POP JUMP JUMPDEST PUSH32 0x4661696C656420746F2073656E64204D414E4400000000000000000000000000 PUSH0 DUP3 ADD MSTORE POP JUMP JUMPDEST PUSH0 PUSH2 0x3703 PUSH1 0x13 DUP4 PUSH2 0x31CE JUMP JUMPDEST SWAP2 POP PUSH2 0x370E DUP3 PUSH2 0x36CF JUMP JUMPDEST PUSH1 0x20 DUP3 ADD SWAP1 POP SWAP2 SWAP1 POP JUMP JUMPDEST PUSH0 PUSH1 0x20 DUP3 ADD SWAP1 POP DUP2 DUP2 SUB PUSH0 DUP4 ADD MSTORE PUSH2 0x3730 DUP2 PUSH2 0x36F7 JUMP JUMPDEST SWAP1 POP SWAP2 SWAP1 POP JUMP JUMPDEST PUSH32 0x55736572206E6F7420656E726F6C6C656420696E207468697320636F75727365 PUSH0 DUP3 ADD MSTORE POP JUMP JUMPDEST PUSH0 PUSH2 0x376B PUSH1 0x20 DUP4 PUSH2 0x31CE JUMP JUMPDEST SWAP2 POP PUSH2 0x3776 DUP3 PUSH2 0x3737 JUMP JUMPDEST PUSH1 0x20 DUP3 ADD SWAP1 POP SWAP2 SWAP1 POP JUMP JUMPDEST PUSH0 PUSH1 0x20 DUP3 ADD SWAP1 POP DUP2 DUP2 SUB PUSH0 DUP4 ADD MSTORE PUSH2 0x3798 DUP2 PUSH2 0x375F JUMP JUMPDEST SWAP1 POP SWAP2 SWAP1 POP JUMP JUMPDEST PUSH32 0x4D6178696D756D20617474656D70747320726561636865640000000000000000 PUSH0 DUP3 ADD MSTORE POP JUMP JUMPDEST PUSH0 PUSH2 0x37D3 PUSH1 0x18 DUP4 PUSH2 0x31CE JUMP JUMPDEST SWAP2 POP PUSH2 0x37DE DUP3 PUSH2 0x379F JUMP JUMPDEST PUSH1 0x20 DUP3 ADD SWAP1 POP SWAP2 SWAP1 POP JUMP JUMPDEST PUSH0 PUSH1 0x20 DUP3 ADD SWAP1 POP DUP2 DUP2 SUB PUSH0 DUP4 ADD MSTORE PUSH2 0x3800 DUP2 PUSH2 0x37C7 JUMP JUMPDEST SWAP1 POP SWAP2 SWAP1 POP JUMP JUMPDEST PUSH32 0x557365722068617320616C726561647920706173736564207468697320636F75 PUSH0 DUP3 ADD MSTORE PUSH32 0x7273650000000000000000000000000000000000000000000000000000000000 PUSH1 0x20 DUP3 ADD MSTORE POP JUMP JUMPDEST PUSH0 PUSH2 0x3861 PUSH1 0x23 DUP4 PUSH2 0x31CE JUMP JUMPDEST SWAP2 POP PUSH2 0x386C DUP3 PUSH2 0x3807 JUMP JUMPDEST PUSH1 0x40 DUP3 ADD SWAP1 POP SWAP2 SWAP1 POP JUMP JUMPDEST PUSH0 PUSH1 0x20 DUP3 ADD SWAP1 POP DUP2 DUP2 SUB PUSH0 DUP4 ADD MSTORE PUSH2 0x388E DUP2 PUSH2 0x3855 JUMP JUMPDEST SWAP1 POP SWAP2 SWAP1 POP JUMP JUMPDEST PUSH0 PUSH2 0x389F DUP3 PUSH2 0x2D74 JUMP JUMPDEST SWAP2 POP PUSH1 0xFF DUP3 SUB PUSH2 0x38B2 JUMPI PUSH2 0x38B1 PUSH2 0x34DF JUMP JUMPDEST JUMPDEST PUSH1 0x1 DUP3 ADD SWAP1 POP SWAP2 SWAP1 POP JUMP JUMPDEST PUSH32 0x4E487B7100000000000000000000000000000000000000000000000000000000 PUSH0 MSTORE PUSH1 0x22 PUSH1 0x4 MSTORE PUSH1 0x24 PUSH0 REVERT JUMPDEST PUSH0 PUSH1 0x2 DUP3 DIV SWAP1 POP PUSH1 0x1 DUP3 AND DUP1 PUSH2 0x3901 JUMPI PUSH1 0x7F DUP3 AND SWAP2 POP JUMPDEST PUSH1 0x20 DUP3 LT DUP2 SUB PUSH2 0x3914 JUMPI PUSH2 0x3913 PUSH2 0x38BD JUMP JUMPDEST JUMPDEST POP SWAP2 SWAP1 POP JUMP JUMPDEST PUSH32 0x416E7377657220636F756E74206D69736D617463680000000000000000000000 PUSH0 DUP3 ADD MSTORE POP JUMP JUMPDEST PUSH0 PUSH2 0x394E PUSH1 0x15 DUP4 PUSH2 0x31CE JUMP JUMPDEST SWAP2 POP PUSH2 0x3959 DUP3 PUSH2 0x391A JUMP JUMPDEST PUSH1 0x20 DUP3 ADD SWAP1 POP SWAP2 SWAP1 POP JUMP JUMPDEST PUSH0 PUSH1 0x20 DUP3 ADD SWAP1 POP DUP2 DUP2 SUB PUSH0 DUP4 ADD MSTORE PUSH2 0x397B DUP2 PUSH2 0x3942 JUMP JUMPDEST SWAP1 POP SWAP2 SWAP1 POP JUMP JUMPDEST PUSH32 0x4E487B7100000000000000000000000000000000000000000000000000000000 PUSH0 MSTORE PUSH1 0x32 PUSH1 0x4 MSTORE PUSH1 0x24 PUSH0 REVERT JUMPDEST PUSH0 DUP2 SWAP1 POP SWAP3 SWAP2 POP POP JUMP JUMPDEST PUSH0 PUSH2 0x39C3 DUP3 PUSH2 0x31C4 JUMP JUMPDEST PUSH2 0x39CD DUP2 DUP6 PUSH2 0x39AF JUMP JUMPDEST SWAP4 POP PUSH2 0x39DD DUP2 DUP6 PUSH1 0x20 DUP7 ADD PUSH2 0x31DE JUMP JUMPDEST DUP1 DUP5 ADD SWAP2 POP POP SWAP3 SWAP2 POP POP JUMP JUMPDEST PUSH0 PUSH2 0x39F4 DUP3 DUP5 PUSH2 0x39B9 JUMP JUMPDEST SWAP2 POP DUP2 SWAP1 POP SWAP3 SWAP2 POP POP JUMP JUMPDEST PUSH0 PUSH2 0x3A09 DUP3 PUSH2 0x2C51 JUMP JUMPDEST SWAP2 POP PUSH32 0xFFFFFFFFFFFFFFFFFFFFFFFFFFFFFFFFFFFFFFFFFFFFFFFFFFFFFFFFFFFFFFFF DUP3 SUB PUSH2 0x3A3B JUMPI PUSH2 0x3A3A PUSH2 0x34DF JUMP JUMPDEST JUMPDEST PUSH1 0x1 DUP3 ADD SWAP1 POP SWAP2 SWAP1 POP JUMP JUMPDEST PUSH0 DUP2 MLOAD SWAP1 POP PUSH2 0x3A54 DUP2 PUSH2 0x2C5A JUMP JUMPDEST SWAP3 SWAP2 POP POP JUMP JUMPDEST PUSH0 PUSH1 0x20 DUP3 DUP5 SUB SLT ISZERO PUSH2 0x3A6F JUMPI PUSH2 0x3A6E PUSH2 0x2C49 JUMP JUMPDEST JUMPDEST PUSH0 PUSH2 0x3A7C DUP5 DUP3 DUP6 ADD PUSH2 0x3A46 JUMP JUMPDEST SWAP2 POP POP SWAP3 SWAP2 POP POP JUMP JUMPDEST PUSH32 0x496E73756666696369656E742072657075746174696F6E20746F20656E726F6C PUSH0 DUP3 ADD MSTORE PUSH32 0x6C00000000000000000000000000000000000000000000000000000000000000 PUSH1 0x20 DUP3 ADD MSTORE POP JUMP JUMPDEST PUSH0 PUSH2 0x3ADF PUSH1 0x21 DUP4 PUSH2 0x31CE JUMP JUMPDEST SWAP2 POP PUSH2 0x3AEA DUP3 PUSH2 0x3A85 JUMP JUMPDEST PUSH1 0x40 DUP3 ADD SWAP1 POP SWAP2 SWAP1 POP JUMP JUMPDEST PUSH0 PUSH1 0x20 DUP3 ADD SWAP1 POP DUP2 DUP2 SUB PUSH0 DUP4 ADD MSTORE PUSH2 0x3B0C DUP2 PUSH2 0x3AD3 JUMP JUMPDEST SWAP1 POP SWAP2 SWAP1 POP JUMP JUMPDEST PUSH32 0x436F75727365206E6F7420617070726F76656400000000000000000000000000 PUSH0 DUP3 ADD MSTORE POP JUMP JUMPDEST PUSH0 PUSH2 0x3B47 PUSH1 0x13 DUP4 PUSH2 0x31CE JUMP JUMPDEST SWAP2 POP PUSH2 0x3B52 DUP3 PUSH2 0x3B13 JUMP JUMPDEST PUSH1 0x20 DUP3 ADD SWAP1 POP SWAP2 SWAP1 POP JUMP JUMPDEST PUSH0 PUSH1 0x20 DUP3 ADD SWAP1 POP DUP2 DUP2 SUB PUSH0 DUP4 ADD MSTORE PUSH2 0x3B74 DUP2 PUSH2 0x3B3B JUMP JUMPDEST SWAP1 POP SWAP2 SWAP1 POP JUMP JUMPDEST PUSH32 0x416C726561647920656E726F6C6C656400000000000000000000000000000000 PUSH0 DUP3 ADD MSTORE POP JUMP JUMPDEST PUSH0 PUSH2 0x3BAF PUSH1 0x10 DUP4 PUSH2 0x31CE JUMP JUMPDEST SWAP2 POP PUSH2 0x3BBA DUP3 PUSH2 0x3B7B JUMP JUMPDEST PUSH1 0x20 DUP3 ADD SWAP1 POP SWAP2 SWAP1 POP JUMP JUMPDEST PUSH0 PUSH1 0x20 DUP3 ADD SWAP1 POP DUP2 DUP2 SUB PUSH0 DUP4 ADD MSTORE PUSH2 0x3BDC DUP2 PUSH2 0x3BA3 JUMP JUMPDEST SWAP1 POP SWAP2 SWAP1 POP JUMP JUMPDEST PUSH32 0x436F7572736520616C726561647920617070726F766564000000000000000000 PUSH0 DUP3 ADD MSTORE POP JUMP JUMPDEST PUSH0 PUSH2 0x3C17 PUSH1 0x17 DUP4 PUSH2 0x31CE JUMP JUMPDEST SWAP2 POP PUSH2 0x3C22 DUP3 PUSH2 0x3BE3 JUMP JUMPDEST PUSH1 0x20 DUP3 ADD SWAP1 POP SWAP2 SWAP1 POP JUMP JUMPDEST PUSH0 PUSH1 0x20 DUP3 ADD SWAP1 POP DUP2 DUP2 SUB PUSH0 DUP4 ADD MSTORE PUSH2 0x3C44 DUP2 PUSH2 0x3C0B JUMP JUMPDEST SWAP1 POP SWAP2 SWAP1 POP JUMP JUMPDEST PUSH32 0x496E73756666696369656E742072657075746174696F6E20746F206372656174 PUSH0 DUP3 ADD MSTORE PUSH32 0x6520636F75727365000000000000000000000000000000000000000000000000 PUSH1 0x20 DUP3 ADD MSTORE POP JUMP JUMPDEST PUSH0 PUSH2 0x3CA5 PUSH1 0x28 DUP4 PUSH2 0x31CE JUMP JUMPDEST SWAP2 POP PUSH2 0x3CB0 DUP3 PUSH2 0x3C4B JUMP JUMPDEST PUSH1 0x40 DUP3 ADD SWAP1 POP SWAP2 SWAP1 POP JUMP JUMPDEST PUSH0 PUSH1 0x20 DUP3 ADD SWAP1 POP DUP2 DUP2 SUB PUSH0 DUP4 ADD MSTORE PUSH2 0x3CD2 DUP2 PUSH2 0x3C99 JUMP JUMPDEST SWAP1 POP SWAP2 SWAP1 POP JUMP JUMPDEST PUSH0 DUP2 SWAP1 POP DUP2 PUSH0 MSTORE PUSH1 0x20 PUSH0 KECCAK256 SWAP1 POP SWAP2 SWAP1 POP JUMP JUMPDEST PUSH0 PUSH1 0x20 PUSH1 0x1F DUP4 ADD DIV SWAP1 POP SWAP2 SWAP1 POP JUMP JUMPDEST PUSH0 DUP3 DUP3 SHL SWAP1 POP SWAP3 SWAP2 POP POP JUMP JUMPDEST PUSH0 PUSH1 0x8 DUP4 MUL PUSH2 0x3D35 PUSH32 0xFFFFFFFFFFFFFFFFFFFFFFFFFFFFFFFFFFFFFFFFFFFFFFFFFFFFFFFFFFFFFFFF DUP3 PUSH2 0x3CFA JUMP JUMPDEST PUSH2 0x3D3F DUP7 DUP4 PUSH2 0x3CFA JUMP JUMPDEST SWAP6 POP DUP1 NOT DUP5 AND SWAP4 POP DUP1 DUP7 AND DUP5 OR SWAP3 POP POP POP SWAP4 SWAP3 POP POP POP JUMP JUMPDEST PUSH0 PUSH2 0x3D71 PUSH2 0x3D6C PUSH2 0x3D67 DUP5 PUSH2 0x2C51 JUMP JUMPDEST PUSH2 0x30B6 JUMP JUMPDEST PUSH2 0x2C51 JUMP JUMPDEST SWAP1 POP SWAP2 SWAP1 POP JUMP JUMPDEST PUSH0 DUP2 SWAP1 POP SWAP2 SWAP1 POP JUMP JUMPDEST PUSH2 0x3D8A DUP4 PUSH2 0x3D57 JUMP JUMPDEST PUSH2 0x3D9E PUSH2 0x3D96 DUP3 PUSH2 0x3D78 JUMP JUMPDEST DUP5 DUP5 SLOAD PUSH2 0x3D06 JUMP JUMPDEST DUP3 SSTORE POP POP POP POP JUMP JUMPDEST PUSH0 SWAP1 JUMP JUMPDEST PUSH2 0x3DB2 PUSH2 0x3DA6 JUMP JUMPDEST PUSH2 0x3DBD DUP2 DUP5 DUP5 PUSH2 0x3D81 JUMP JUMPDEST POP POP POP JUMP JUMPDEST JUMPDEST DUP2 DUP2 LT ISZERO PUSH2 0x3DE0 JUMPI PUSH2 0x3DD5 PUSH0 DUP3 PUSH2 0x3DAA JUMP JUMPDEST PUSH1 0x1 DUP2 ADD SWAP1 POP PUSH2 0x3DC3 JUMP JUMPDEST POP POP JUMP JUMPDEST PUSH1 0x1F DUP3 GT ISZERO PUSH2 0x3E25 JUMPI PUSH2 0x3DF6 DUP2 PUSH2 0x3CD9 JUMP JUMPDEST PUSH2 0x3DFF DUP5 PUSH2 0x3CEB JUMP JUMPDEST DUP2 ADD PUSH1 0x20 DUP6 LT ISZERO PUSH2 0x3E0E JUMPI DUP2 SWAP1 POP JUMPDEST PUSH2 0x3E22 PUSH2 0x3E1A DUP6 PUSH2 0x3CEB JUMP JUMPDEST DUP4 ADD DUP3 PUSH2 0x3DC2 JUMP JUMPDEST POP POP JUMPDEST POP POP POP JUMP JUMPDEST PUSH0 DUP3 DUP3 SHR SWAP1 POP SWAP3 SWAP2 POP POP JUMP JUMPDEST PUSH0 PUSH2 0x3E45 PUSH0 NOT DUP5 PUSH1 0x8 MUL PUSH2 0x3E2A JUMP JUMPDEST NOT DUP1 DUP4 AND SWAP2 POP POP SWAP3 SWAP2 POP POP JUMP JUMPDEST PUSH0 PUSH2 0x3E5D DUP4 DUP4 PUSH2 0x3E36 JUMP JUMPDEST SWAP2 POP DUP3 PUSH1 0x2 MUL DUP3 OR SWAP1 POP SWAP3 SWAP2 POP POP JUMP JUMPDEST PUSH2 0x3E76 DUP3 PUSH2 0x31C4 JUMP JUMPDEST PUSH8 0xFFFFFFFFFFFFFFFF DUP2 GT ISZERO PUSH2 0x3E8F JUMPI PUSH2 0x3E8E PUSH2 0x2E27 JUMP JUMPDEST JUMPDEST PUSH2 0x3E99 DUP3 SLOAD PUSH2 0x38EA JUMP JUMPDEST PUSH2 0x3EA4 DUP3 DUP3 DUP6 PUSH2 0x3DE4 JUMP JUMPDEST PUSH0 PUSH1 0x20 SWAP1 POP PUSH1 0x1F DUP4 GT PUSH1 0x1 DUP2 EQ PUSH2 0x3ED5 JUMPI PUSH0 DUP5 ISZERO PUSH2 0x3EC3 JUMPI DUP3 DUP8 ADD MLOAD SWAP1 POP JUMPDEST PUSH2 0x3ECD DUP6 DUP3 PUSH2 0x3E52 JUMP JUMPDEST DUP7 SSTORE POP PUSH2 0x3F34 JUMP JUMPDEST PUSH1 0x1F NOT DUP5 AND PUSH2 0x3EE3 DUP7 PUSH2 0x3CD9 JUMP JUMPDEST PUSH0 JUMPDEST DUP3 DUP2 LT ISZERO PUSH2 0x3F0A JUMPI DUP5 DUP10 ADD MLOAD DUP3 SSTORE PUSH1 0x1 DUP3 ADD SWAP2 POP PUSH1 0x20 DUP6 ADD SWAP5 POP PUSH1 0x20 DUP2 ADD SWAP1 POP PUSH2 0x3EE5 JUMP JUMPDEST DUP7 DUP4 LT ISZERO PUSH2 0x3F27 JUMPI DUP5 DUP10 ADD MLOAD PUSH2 0x3F23 PUSH1 0x1F DUP10 AND DUP3 PUSH2 0x3E36 JUMP JUMPDEST DUP4 SSTORE POP JUMPDEST PUSH1 0x1 PUSH1 0x2 DUP9 MUL ADD DUP9 SSTORE POP POP POP JUMPDEST POP POP POP POP POP POP JUMP JUMPDEST PUSH32 0x436F75727365206E6F7420706173736564000000000000000000000000000000 PUSH0 DUP3 ADD MSTORE POP JUMP JUMPDEST PUSH0 PUSH2 0x3F70 PUSH1 0x11 DUP4 PUSH2 0x31CE JUMP JUMPDEST SWAP2 POP PUSH2 0x3F7B DUP3 PUSH2 0x3F3C JUMP JUMPDEST PUSH1 0x20 DUP3 ADD SWAP1 POP SWAP2 SWAP1 POP JUMP JUMPDEST PUSH0 PUSH1 0x20 DUP3 ADD SWAP1 POP DUP2 DUP2 SUB PUSH0 DUP4 ADD MSTORE PUSH2 0x3F9D DUP2 PUSH2 0x3F64 JUMP JUMPDEST SWAP1 POP SWAP2 SWAP1 POP JUMP JUMPDEST PUSH32 0x52657761726420616C726561647920636C61696D656400000000000000000000 PUSH0 DUP3 ADD MSTORE POP JUMP JUMPDEST PUSH0 PUSH2 0x3FD8 PUSH1 0x16 DUP4 PUSH2 0x31CE JUMP JUMPDEST SWAP2 POP PUSH2 0x3FE3 DUP3 PUSH2 0x3FA4 JUMP JUMPDEST PUSH1 0x20 DUP3 ADD SWAP1 POP SWAP2 SWAP1 POP JUMP JUMPDEST PUSH0 PUSH1 0x20 DUP3 ADD SWAP1 POP DUP2 DUP2 SUB PUSH0 DUP4 ADD MSTORE PUSH2 0x4005 DUP2 PUSH2 0x3FCC JUMP JUMPDEST SWAP1 POP SWAP2 SWAP1 POP JUMP JUMPDEST PUSH32 0x5769746864726177616C20696E74657276616C206E6F74207265616368656400 PUSH0 DUP3 ADD MSTORE POP JUMP JUMPDEST PUSH0 PUSH2 0x4040 PUSH1 0x1F DUP4 PUSH2 0x31CE JUMP JUMPDEST SWAP2 POP PUSH2 0x404B DUP3 PUSH2 0x400C JUMP JUMPDEST PUSH1 0x20 DUP3 ADD SWAP1 POP SWAP2 SWAP1 POP JUMP JUMPDEST PUSH0 PUSH1 0x20 DUP3 ADD SWAP1 POP DUP2 DUP2 SUB PUSH0 DUP4 ADD MSTORE PUSH2 0x406D DUP2 PUSH2 0x4034 JUMP JUMPDEST SWAP1 POP SWAP2 SWAP1 POP JUMP JUMPDEST PUSH32 0x4661696C656420746F2077697468647261772067617320666565730000000000 PUSH0 DUP3 ADD MSTORE POP JUMP JUMPDEST PUSH0 PUSH2 0x40A8 PUSH1 0x1B DUP4 PUSH2 0x31CE JUMP JUMPDEST SWAP2 POP PUSH2 0x40B3 DUP3 PUSH2 0x4074 JUMP JUMPDEST PUSH1 0x20 DUP3 ADD SWAP1 POP SWAP2 SWAP1 POP JUMP JUMPDEST PUSH0 PUSH1 0x20 DUP3 ADD SWAP1 POP DUP2 DUP2 SUB PUSH0 DUP4 ADD MSTORE PUSH2 0x40D5 DUP2 PUSH2 0x409C JUMP JUMPDEST SWAP1 POP SWAP2 SWAP1 POP JUMP JUMPDEST PUSH32 0x4F6E6C7920636F757273652063726561746F722063616E20636C61696D207265 PUSH0 DUP3 ADD MSTORE PUSH32 0x7761726400000000000000000000000000000000000000000000000000000000 PUSH1 0x20 DUP3 ADD MSTORE POP JUMP JUMPDEST PUSH0 PUSH2 0x4136 PUSH1 0x24 DUP4 PUSH2 0x31CE JUMP JUMPDEST SWAP2 POP PUSH2 0x4141 DUP3 PUSH2 0x40DC JUMP JUMPDEST PUSH1 0x40 DUP3 ADD SWAP1 POP SWAP2 SWAP1 POP JUMP JUMPDEST PUSH0 PUSH1 0x20 DUP3 ADD SWAP1 POP DUP2 DUP2 SUB PUSH0 DUP4 ADD MSTORE PUSH2 0x4163 DUP2 PUSH2 0x412A JUMP JUMPDEST SWAP1 POP SWAP2 SWAP1 POP JUMP JUMPDEST PUSH0 PUSH2 0x4174 DUP3 PUSH2 0x2C51 JUMP JUMPDEST SWAP2 POP PUSH2 0x417F DUP4 PUSH2 0x2C51 JUMP JUMPDEST SWAP3 POP DUP3 DUP3 MUL PUSH2 0x418D DUP2 PUSH2 0x2C51 JUMP JUMPDEST SWAP2 POP DUP3 DUP3 DIV DUP5 EQ DUP4 ISZERO OR PUSH2 0x41A4 JUMPI PUSH2 0x41A3 PUSH2 0x34DF JUMP JUMPDEST JUMPDEST POP SWAP3 SWAP2 POP POP JUMP JUMPDEST PUSH32 0x4F6E6C7920636F757273652063726561746F722063616E206372656174652061 PUSH0 DUP3 ADD MSTORE PUSH32 0x207175697A000000000000000000000000000000000000000000000000000000 PUSH1 0x20 DUP3 ADD MSTORE POP JUMP JUMPDEST PUSH0 PUSH2 0x4205 PUSH1 0x25 DUP4 PUSH2 0x31CE JUMP JUMPDEST SWAP2 POP PUSH2 0x4210 DUP3 PUSH2 0x41AB JUMP JUMPDEST PUSH1 0x40 DUP3 ADD SWAP1 POP SWAP2 SWAP1 POP JUMP JUMPDEST PUSH0 PUSH1 0x20 DUP3 ADD SWAP1 POP DUP2 DUP2 SUB PUSH0 DUP4 ADD MSTORE PUSH2 0x4232 DUP2 PUSH2 0x41F9 JUMP JUMPDEST SWAP1 POP SWAP2 SWAP1 POP JUMP JUMPDEST PUSH32 0x436F75727365206D75737420626520617070726F76656420746F206372656174 PUSH0 DUP3 ADD MSTORE PUSH32 0x652061207175697A000000000000000000000000000000000000000000000000 PUSH1 0x20 DUP3 ADD MSTORE POP JUMP JUMPDEST PUSH0 PUSH2 0x4293 PUSH1 0x28 DUP4 PUSH2 0x31CE JUMP JUMPDEST SWAP2 POP PUSH2 0x429E DUP3 PUSH2 0x4239 JUMP JUMPDEST PUSH1 0x40 DUP3 ADD SWAP1 POP SWAP2 SWAP1 POP JUMP JUMPDEST PUSH0 PUSH1 0x20 DUP3 ADD SWAP1 POP DUP2 DUP2 SUB PUSH0 DUP4 ADD MSTORE PUSH2 0x42C0 DUP2 PUSH2 0x4287 JUMP JUMPDEST SWAP1 POP SWAP2 SWAP1 POP JUMP JUMPDEST PUSH32 0x4100000000000000000000000000000000000000000000000000000000000000 PUSH0 DUP3 ADD MSTORE POP JUMP JUMPDEST PUSH0 PUSH2 0x42FB PUSH1 0x1 DUP4 PUSH2 0x39AF JUMP JUMPDEST SWAP2 POP PUSH2 0x4306 DUP3 PUSH2 0x42C7 JUMP JUMPDEST PUSH1 0x1 DUP3 ADD SWAP1 POP SWAP2 SWAP1 POP JUMP JUMPDEST PUSH0 PUSH2 0x431B DUP3 PUSH2 0x42EF JUMP JUMPDEST SWAP2 POP DUP2 SWAP1 POP SWAP2 SWAP1 POP JUMP JUMPDEST PUSH32 0x4200000000000000000000000000000000000000000000000000000000000000 PUSH0 DUP3 ADD MSTORE POP JUMP JUMPDEST PUSH0 PUSH2 0x4359 PUSH1 0x1 DUP4 PUSH2 0x39AF JUMP JUMPDEST SWAP2 POP PUSH2 0x4364 DUP3 PUSH2 0x4325 JUMP JUMPDEST PUSH1 0x1 DUP3 ADD SWAP1 POP SWAP2 SWAP1 POP JUMP JUMPDEST PUSH0 PUSH2 0x4379 DUP3 PUSH2 0x434D JUMP JUMPDEST SWAP2 POP DUP2 SWAP1 POP SWAP2 SWAP1 POP JUMP JUMPDEST PUSH32 0x4300000000000000000000000000000000000000000000000000000000000000 PUSH0 DUP3 ADD MSTORE POP JUMP JUMPDEST PUSH0 PUSH2 0x43B7 PUSH1 0x1 DUP4 PUSH2 0x39AF JUMP JUMPDEST SWAP2 POP PUSH2 0x43C2 DUP3 PUSH2 0x4383 JUMP JUMPDEST PUSH1 0x1 DUP3 ADD SWAP1 POP SWAP2 SWAP1 POP JUMP JUMPDEST PUSH0 PUSH2 0x43D7 DUP3 PUSH2 0x43AB JUMP JUMPDEST SWAP2 POP DUP2 SWAP1 POP SWAP2 SWAP1 POP JUMP JUMPDEST PUSH32 0x4400000000000000000000000000000000000000000000000000000000000000 PUSH0 DUP3 ADD MSTORE POP JUMP JUMPDEST PUSH0 PUSH2 0x4415 PUSH1 0x1 DUP4 PUSH2 0x39AF JUMP JUMPDEST SWAP2 POP PUSH2 0x4420 DUP3 PUSH2 0x43E1 JUMP JUMPDEST PUSH1 0x1 DUP3 ADD SWAP1 POP SWAP2 SWAP1 POP JUMP JUMPDEST PUSH0 PUSH2 0x4435 DUP3 PUSH2 0x4409 JUMP JUMPDEST SWAP2 POP DUP2 SWAP1 POP SWAP2 SWAP1 POP JUMP JUMPDEST PUSH32 0x496E76616C696420636F727265637420616E7377657200000000000000000000 PUSH0 DUP3 ADD MSTORE POP JUMP JUMPDEST PUSH0 PUSH2 0x4473 PUSH1 0x16 DUP4 PUSH2 0x31CE JUMP JUMPDEST SWAP2 POP PUSH2 0x447E DUP3 PUSH2 0x443F JUMP JUMPDEST PUSH1 0x20 DUP3 ADD SWAP1 POP SWAP2 SWAP1 POP JUMP JUMPDEST PUSH0 PUSH1 0x20 DUP3 ADD SWAP1 POP DUP2 DUP2 SUB PUSH0 DUP4 ADD MSTORE PUSH2 0x44A0 DUP2 PUSH2 0x4467 JUMP JUMPDEST SWAP1 POP SWAP2 SWAP1 POP JUMP JUMPDEST PUSH32 0x5061757361626C653A2070617573656400000000000000000000000000000000 PUSH0 DUP3 ADD MSTORE POP JUMP JUMPDEST PUSH0 PUSH2 0x44DB PUSH1 0x10 DUP4 PUSH2 0x31CE JUMP JUMPDEST SWAP2 POP PUSH2 0x44E6 DUP3 PUSH2 0x44A7 JUMP JUMPDEST PUSH1 0x20 DUP3 ADD SWAP1 POP SWAP2 SWAP1 POP JUMP JUMPDEST PUSH0 PUSH1 0x20 DUP3 ADD SWAP1 POP DUP2 DUP2 SUB PUSH0 DUP4 ADD MSTORE PUSH2 0x4508 DUP2 PUSH2 0x44CF JUMP JUMPDEST SWAP1 POP SWAP2 SWAP1 POP JUMP JUMPDEST PUSH32 0x5061757361626C653A206E6F7420706175736564000000000000000000000000 PUSH0 DUP3 ADD MSTORE POP JUMP JUMPDEST PUSH0 PUSH2 0x4543 PUSH1 0x14 DUP4 PUSH2 0x31CE JUMP JUMPDEST SWAP2 POP PUSH2 0x454E DUP3 PUSH2 0x450F JUMP JUMPDEST PUSH1 0x20 DUP3 ADD SWAP1 POP SWAP2 SWAP1 POP JUMP JUMPDEST PUSH0 PUSH1 0x20 DUP3 ADD SWAP1 POP DUP2 DUP2 SUB PUSH0 DUP4 ADD MSTORE PUSH2 0x4570 DUP2 PUSH2 0x4537 JUMP JUMPDEST SWAP1 POP SWAP2 SWAP1 POP JUMP INVALID LOG2 PUSH5 0x6970667358 0x22 SLT KECCAK256 LOG4 MLOAD 0xD DUP7 PUSH10 0xE6D5B40730290CF8B9CA 0x28 KECCAK256 ADDRESS PUSH26 0xEBD37C2050B2627C3D1FB6CC1464736F6C634300081A00330000 "
				},
				"gasEstimates": {
					"creation": {
						"codeDepositCost": "3567400",
						"executionCost": "infinite",
						"totalCost": "infinite"
					},
					"external": {
						"CREATOR_REWARD_AMOUNT()": "369",
						"ENROLL_THRESHOLD()": "370",
						"GAS_FEE()": "436",
						"POST_THRESHOLD()": "414",
						"STUDENT_REWARD_AMOUNT()": "435",
						"WITHDRAWAL_INTERVAL()": "393",
						"accumulatedFees()": "2515",
						"approveCourse(uint256)": "infinite",
						"attemptQuiz(uint256,string[])": "infinite",
						"claimCreatorReward(uint256)": "infinite",
						"claimStudentReward(uint256)": "infinite",
						"courseCount()": "2515",
						"courseQuizzes(uint256,uint256)": "infinite",
						"courses(uint256)": "infinite",
						"createCourse(string)": "infinite",
						"createQuiz(uint256,string,string,string,string,string,string)": "infinite",
						"enrollInCourse(uint256)": "infinite",
						"enrollments(address,uint256)": "infinite",
						"lastWithdrawalTime()": "2516",
						"owner()": "2583",
						"pause()": "infinite",
						"paused()": "2636",
						"renounceOwnership()": "infinite",
						"reputationContract()": "infinite",
						"transferOwnership(address)": "infinite",
						"unpause()": "infinite",
						"updateReputationContract(address)": "infinite",
						"withdrawCreatorTokens(uint256,uint256)": "infinite",
						"withdrawGasFees()": "infinite"
					}
				},
				"methodIdentifiers": {
					"CREATOR_REWARD_AMOUNT()": "cf90b3be",
					"ENROLL_THRESHOLD()": "ae24f005",
					"GAS_FEE()": "ab8bb55e",
					"POST_THRESHOLD()": "a4e1f033",
					"STUDENT_REWARD_AMOUNT()": "fbf1aded",
					"WITHDRAWAL_INTERVAL()": "4c64c030",
					"accumulatedFees()": "587f5ed7",
					"approveCourse(uint256)": "75284998",
					"attemptQuiz(uint256,string[])": "5cb45cb5",
					"claimCreatorReward(uint256)": "ba2f0362",
					"claimStudentReward(uint256)": "996b5d8e",
					"courseCount()": "66055159",
					"courseQuizzes(uint256,uint256)": "b0aaefd6",
					"courses(uint256)": "96f979d2",
					"createCourse(string)": "8a38ab2c",
					"createQuiz(uint256,string,string,string,string,string,string)": "d69c575b",
					"enrollInCourse(uint256)": "5e52da27",
					"enrollments(address,uint256)": "07f910f8",
					"lastWithdrawalTime()": "34a014dc",
					"owner()": "8da5cb5b",
					"pause()": "8456cb59",
					"paused()": "5c975abb",
					"renounceOwnership()": "715018a6",
					"reputationContract()": "87bc1425",
					"transferOwnership(address)": "f2fde38b",
					"unpause()": "3f4ba83a",
					"updateReputationContract(address)": "905baa61",
					"withdrawCreatorTokens(uint256,uint256)": "03b1965b",
					"withdrawGasFees()": "b894af02"
				}
			},
			"storageLayout": {
				"storage": [
					{
						"astId": 8,
						"contract": "moonx/moonx.sol:DecentralLearning",
						"label": "_owner",
						"offset": 0,
						"slot": "0",
						"type": "t_address"
					},
					{
						"astId": 165,
						"contract": "moonx/moonx.sol:DecentralLearning",
						"label": "_paused",
						"offset": 20,
						"slot": "0",
						"type": "t_bool"
					},
					{
						"astId": 304,
						"contract": "moonx/moonx.sol:DecentralLearning",
						"label": "reputationContract",
						"offset": 0,
						"slot": "1",
						"type": "t_contract(IReputationContract)297"
					},
					{
						"astId": 324,
						"contract": "moonx/moonx.sol:DecentralLearning",
						"label": "lastWithdrawalTime",
						"offset": 0,
						"slot": "2",
						"type": "t_uint256"
					},
					{
						"astId": 326,
						"contract": "moonx/moonx.sol:DecentralLearning",
						"label": "accumulatedFees",
						"offset": 0,
						"slot": "3",
						"type": "t_uint256"
					},
					{
						"astId": 368,
						"contract": "moonx/moonx.sol:DecentralLearning",
						"label": "courses",
						"offset": 0,
						"slot": "4",
						"type": "t_mapping(t_uint256,t_struct(Course)339_storage)"
					},
					{
						"astId": 375,
						"contract": "moonx/moonx.sol:DecentralLearning",
						"label": "enrollments",
						"offset": 0,
						"slot": "5",
						"type": "t_mapping(t_address,t_mapping(t_uint256,t_struct(Enrollment)363_storage))"
					},
					{
						"astId": 381,
						"contract": "moonx/moonx.sol:DecentralLearning",
						"label": "courseQuizzes",
						"offset": 0,
						"slot": "6",
						"type": "t_mapping(t_uint256,t_array(t_struct(Quiz)354_storage)dyn_storage)"
					},
					{
						"astId": 383,
						"contract": "moonx/moonx.sol:DecentralLearning",
						"label": "courseCount",
						"offset": 0,
						"slot": "7",
						"type": "t_uint256"
					}
				],
				"types": {
					"t_address": {
						"encoding": "inplace",
						"label": "address",
						"numberOfBytes": "20"
					},
					"t_array(t_struct(Quiz)354_storage)dyn_storage": {
						"base": "t_struct(Quiz)354_storage",
						"encoding": "dynamic_array",
						"label": "struct DecentralLearning.Quiz[]",
						"numberOfBytes": "32"
					},
					"t_bool": {
						"encoding": "inplace",
						"label": "bool",
						"numberOfBytes": "1"
					},
					"t_bytes32": {
						"encoding": "inplace",
						"label": "bytes32",
						"numberOfBytes": "32"
					},
					"t_contract(IReputationContract)297": {
						"encoding": "inplace",
						"label": "contract IReputationContract",
						"numberOfBytes": "20"
					},
					"t_mapping(t_address,t_mapping(t_uint256,t_struct(Enrollment)363_storage))": {
						"encoding": "mapping",
						"key": "t_address",
						"label": "mapping(address => mapping(uint256 => struct DecentralLearning.Enrollment))",
						"numberOfBytes": "32",
						"value": "t_mapping(t_uint256,t_struct(Enrollment)363_storage)"
					},
					"t_mapping(t_uint256,t_array(t_struct(Quiz)354_storage)dyn_storage)": {
						"encoding": "mapping",
						"key": "t_uint256",
						"label": "mapping(uint256 => struct DecentralLearning.Quiz[])",
						"numberOfBytes": "32",
						"value": "t_array(t_struct(Quiz)354_storage)dyn_storage"
					},
					"t_mapping(t_uint256,t_struct(Course)339_storage)": {
						"encoding": "mapping",
						"key": "t_uint256",
						"label": "mapping(uint256 => struct DecentralLearning.Course)",
						"numberOfBytes": "32",
						"value": "t_struct(Course)339_storage"
					},
					"t_mapping(t_uint256,t_struct(Enrollment)363_storage)": {
						"encoding": "mapping",
						"key": "t_uint256",
						"label": "mapping(uint256 => struct DecentralLearning.Enrollment)",
						"numberOfBytes": "32",
						"value": "t_struct(Enrollment)363_storage"
					},
					"t_string_storage": {
						"encoding": "bytes",
						"label": "string",
						"numberOfBytes": "32"
					},
					"t_struct(Course)339_storage": {
						"encoding": "inplace",
						"label": "struct DecentralLearning.Course",
						"members": [
							{
								"astId": 328,
								"contract": "moonx/moonx.sol:DecentralLearning",
								"label": "creator",
								"offset": 0,
								"slot": "0",
								"type": "t_address"
							},
							{
								"astId": 330,
								"contract": "moonx/moonx.sol:DecentralLearning",
								"label": "metadataURI",
								"offset": 0,
								"slot": "1",
								"type": "t_string_storage"
							},
							{
								"astId": 332,
								"contract": "moonx/moonx.sol:DecentralLearning",
								"label": "approved",
								"offset": 0,
								"slot": "2",
								"type": "t_bool"
							},
							{
								"astId": 334,
								"contract": "moonx/moonx.sol:DecentralLearning",
								"label": "passedStudents",
								"offset": 0,
								"slot": "3",
								"type": "t_uint256"
							},
							{
								"astId": 336,
								"contract": "moonx/moonx.sol:DecentralLearning",
								"label": "totalRewarded",
								"offset": 0,
								"slot": "4",
								"type": "t_uint256"
							},
							{
								"astId": 338,
								"contract": "moonx/moonx.sol:DecentralLearning",
								"label": "totalEnrolled",
								"offset": 0,
								"slot": "5",
								"type": "t_uint256"
							}
						],
						"numberOfBytes": "192"
					},
					"t_struct(Enrollment)363_storage": {
						"encoding": "inplace",
						"label": "struct DecentralLearning.Enrollment",
						"members": [
							{
								"astId": 356,
								"contract": "moonx/moonx.sol:DecentralLearning",
								"label": "isEnrolled",
								"offset": 0,
								"slot": "0",
								"type": "t_bool"
							},
							{
								"astId": 358,
								"contract": "moonx/moonx.sol:DecentralLearning",
								"label": "attemptCount",
								"offset": 1,
								"slot": "0",
								"type": "t_uint8"
							},
							{
								"astId": 360,
								"contract": "moonx/moonx.sol:DecentralLearning",
								"label": "hasPassed",
								"offset": 2,
								"slot": "0",
								"type": "t_bool"
							},
							{
								"astId": 362,
								"contract": "moonx/moonx.sol:DecentralLearning",
								"label": "hasClaimedReward",
								"offset": 3,
								"slot": "0",
								"type": "t_bool"
							}
						],
						"numberOfBytes": "32"
					},
					"t_struct(Quiz)354_storage": {
						"encoding": "inplace",
						"label": "struct DecentralLearning.Quiz",
						"members": [
							{
								"astId": 341,
								"contract": "moonx/moonx.sol:DecentralLearning",
								"label": "courseId",
								"offset": 0,
								"slot": "0",
								"type": "t_uint256"
							},
							{
								"astId": 343,
								"contract": "moonx/moonx.sol:DecentralLearning",
								"label": "question",
								"offset": 0,
								"slot": "1",
								"type": "t_string_storage"
							},
							{
								"astId": 345,
								"contract": "moonx/moonx.sol:DecentralLearning",
								"label": "optionA",
								"offset": 0,
								"slot": "2",
								"type": "t_string_storage"
							},
							{
								"astId": 347,
								"contract": "moonx/moonx.sol:DecentralLearning",
								"label": "optionB",
								"offset": 0,
								"slot": "3",
								"type": "t_string_storage"
							},
							{
								"astId": 349,
								"contract": "moonx/moonx.sol:DecentralLearning",
								"label": "optionC",
								"offset": 0,
								"slot": "4",
								"type": "t_string_storage"
							},
							{
								"astId": 351,
								"contract": "moonx/moonx.sol:DecentralLearning",
								"label": "optionD",
								"offset": 0,
								"slot": "5",
								"type": "t_string_storage"
							},
							{
								"astId": 353,
								"contract": "moonx/moonx.sol:DecentralLearning",
								"label": "correctAnswerHash",
								"offset": 0,
								"slot": "6",
								"type": "t_bytes32"
							}
						],
						"numberOfBytes": "224"
					},
					"t_uint256": {
						"encoding": "inplace",
						"label": "uint256",
						"numberOfBytes": "32"
					},
					"t_uint8": {
						"encoding": "inplace",
						"label": "uint8",
						"numberOfBytes": "1"
					}
				}
			},
			"userdoc": {
				"kind": "user",
				"methods": {},
				"version": 1
			}
		}
	}
}