{
	"moonx/moonx.sol": {
		"DecentralLearning": {
			"abi": [
				{
					"inputs": [
						{
							"internalType": "address",
							"name": "_reputationContract",
							"type": "address"
						}
					],
					"stateMutability": "nonpayable",
					"type": "constructor"
				},
				{
					"inputs": [
						{
							"internalType": "address",
							"name": "owner",
							"type": "address"
						}
					],
					"name": "OwnableInvalidOwner",
					"type": "error"
				},
				{
					"inputs": [
						{
							"internalType": "address",
							"name": "account",
							"type": "address"
						}
					],
					"name": "OwnableUnauthorizedAccount",
					"type": "error"
				},
				{
					"anonymous": false,
					"inputs": [
						{
							"indexed": true,
							"internalType": "uint256",
							"name": "courseId",
							"type": "uint256"
						}
					],
					"name": "CourseApproved",
					"type": "event"
				},
				{
					"anonymous": false,
					"inputs": [
						{
							"indexed": true,
							"internalType": "uint256",
							"name": "courseId",
							"type": "uint256"
						},
						{
							"indexed": true,
							"internalType": "address",
							"name": "creator",
							"type": "address"
						}
					],
					"name": "CourseCreated",
					"type": "event"
				},
				{
					"anonymous": false,
					"inputs": [
						{
							"indexed": true,
							"internalType": "uint256",
							"name": "courseId",
							"type": "uint256"
						},
						{
							"indexed": true,
							"internalType": "address",
							"name": "creator",
							"type": "address"
						},
						{
							"indexed": false,
							"internalType": "uint256",
							"name": "amount",
							"type": "uint256"
						}
					],
					"name": "CreatorRewardClaimed",
					"type": "event"
				},
				{
					"anonymous": false,
					"inputs": [
						{
							"indexed": true,
							"internalType": "uint256",
							"name": "courseId",
							"type": "uint256"
						},
						{
							"indexed": true,
							"internalType": "address",
							"name": "creator",
							"type": "address"
						},
						{
							"indexed": false,
							"internalType": "uint256",
							"name": "amount",
							"type": "uint256"
						}
					],
					"name": "CreatorWithdrawal",
					"type": "event"
				},
				{
					"anonymous": false,
					"inputs": [
						{
							"indexed": false,
							"internalType": "uint256",
							"name": "amount",
							"type": "uint256"
						}
					],
					"name": "GasFeesWithdrawn",
					"type": "event"
				},
				{
					"anonymous": false,
					"inputs": [
						{
							"indexed": true,
							"internalType": "address",
							"name": "previousOwner",
							"type": "address"
						},
						{
							"indexed": true,
							"internalType": "address",
							"name": "newOwner",
							"type": "address"
						}
					],
					"name": "OwnershipTransferred",
					"type": "event"
				},
				{
					"anonymous": false,
					"inputs": [
						{
							"indexed": false,
							"internalType": "address",
							"name": "account",
							"type": "address"
						}
					],
					"name": "Paused",
					"type": "event"
				},
				{
					"anonymous": false,
					"inputs": [
						{
							"indexed": true,
							"internalType": "uint256",
							"name": "courseId",
							"type": "uint256"
						},
						{
							"indexed": true,
							"internalType": "address",
							"name": "user",
							"type": "address"
						},
						{
							"indexed": false,
							"internalType": "bool",
							"name": "passed",
							"type": "bool"
						}
					],
					"name": "QuizAttempted",
					"type": "event"
				},
				{
					"anonymous": false,
					"inputs": [
						{
							"indexed": true,
							"internalType": "uint256",
							"name": "courseId",
							"type": "uint256"
						},
						{
							"indexed": false,
							"internalType": "uint256",
							"name": "quizId",
							"type": "uint256"
						}
					],
					"name": "QuizCreated",
					"type": "event"
				},
				{
					"anonymous": false,
					"inputs": [
						{
							"indexed": true,
							"internalType": "uint256",
							"name": "courseId",
							"type": "uint256"
						},
						{
							"indexed": true,
							"internalType": "address",
							"name": "user",
							"type": "address"
						},
						{
							"indexed": false,
							"internalType": "uint256",
							"name": "amount",
							"type": "uint256"
						}
					],
					"name": "RewardClaimed",
					"type": "event"
				},
				{
					"anonymous": false,
					"inputs": [
						{
							"indexed": false,
							"internalType": "address",
							"name": "account",
							"type": "address"
						}
					],
					"name": "Unpaused",
					"type": "event"
				},
				{
					"anonymous": false,
					"inputs": [
						{
							"indexed": true,
							"internalType": "uint256",
							"name": "courseId",
							"type": "uint256"
						},
						{
							"indexed": true,
							"internalType": "address",
							"name": "user",
							"type": "address"
						}
					],
					"name": "UserEnrolled",
					"type": "event"
				},
				{
					"inputs": [],
					"name": "CREATOR_REWARD_AMOUNT",
					"outputs": [
						{
							"internalType": "uint256",
							"name": "",
							"type": "uint256"
						}
					],
					"stateMutability": "view",
					"type": "function"
				},
				{
					"inputs": [],
					"name": "ENROLL_THRESHOLD",
					"outputs": [
						{
							"internalType": "uint256",
							"name": "",
							"type": "uint256"
						}
					],
					"stateMutability": "view",
					"type": "function"
				},
				{
					"inputs": [],
					"name": "PLATFORMTX",
					"outputs": [
						{
							"internalType": "uint256",
							"name": "",
							"type": "uint256"
						}
					],
					"stateMutability": "view",
					"type": "function"
				},
				{
					"inputs": [],
					"name": "POST_THRESHOLD",
					"outputs": [
						{
							"internalType": "uint256",
							"name": "",
							"type": "uint256"
						}
					],
					"stateMutability": "view",
					"type": "function"
				},
				{
					"inputs": [],
					"name": "STUDENT_REWARD_AMOUNT",
					"outputs": [
						{
							"internalType": "uint256",
							"name": "",
							"type": "uint256"
						}
					],
					"stateMutability": "view",
					"type": "function"
				},
				{
					"inputs": [],
					"name": "WITHDRAWAL_INTERVAL",
					"outputs": [
						{
							"internalType": "uint256",
							"name": "",
							"type": "uint256"
						}
					],
					"stateMutability": "view",
					"type": "function"
				},
				{
					"inputs": [],
					"name": "accumulatedFees",
					"outputs": [
						{
							"internalType": "uint256",
							"name": "",
							"type": "uint256"
						}
					],
					"stateMutability": "view",
					"type": "function"
				},
				{
					"inputs": [
						{
							"internalType": "uint256",
							"name": "_courseId",
							"type": "uint256"
						}
					],
					"name": "approveCourse",
					"outputs": [],
					"stateMutability": "nonpayable",
					"type": "function"
				},
				{
					"inputs": [
						{
							"internalType": "uint256",
							"name": "_courseId",
							"type": "uint256"
						},
						{
							"internalType": "string[]",
							"name": "_answers",
							"type": "string[]"
						}
					],
					"name": "attemptQuiz",
					"outputs": [],
					"stateMutability": "payable",
					"type": "function"
				},
				{
					"inputs": [
						{
							"internalType": "uint256",
							"name": "_courseId",
							"type": "uint256"
						}
					],
					"name": "claimCreatorReward",
					"outputs": [],
					"stateMutability": "payable",
					"type": "function"
				},
				{
					"inputs": [],
					"name": "courseCount",
					"outputs": [
						{
							"internalType": "uint256",
							"name": "",
							"type": "uint256"
						}
					],
					"stateMutability": "view",
					"type": "function"
				},
				{
					"inputs": [
						{
							"internalType": "uint256",
							"name": "",
							"type": "uint256"
						},
						{
							"internalType": "uint256",
							"name": "",
							"type": "uint256"
						}
					],
					"name": "courseQuizzes",
					"outputs": [
						{
							"internalType": "uint256",
							"name": "courseId",
							"type": "uint256"
						},
						{
							"internalType": "string",
							"name": "question",
							"type": "string"
						},
						{
							"internalType": "string",
							"name": "optionA",
							"type": "string"
						},
						{
							"internalType": "string",
							"name": "optionB",
							"type": "string"
						},
						{
							"internalType": "string",
							"name": "optionC",
							"type": "string"
						},
						{
							"internalType": "string",
							"name": "optionD",
							"type": "string"
						},
						{
							"internalType": "bytes32",
							"name": "correctAnswerHash",
							"type": "bytes32"
						}
					],
					"stateMutability": "view",
					"type": "function"
				},
				{
					"inputs": [
						{
							"internalType": "uint256",
							"name": "",
							"type": "uint256"
						}
					],
					"name": "courses",
					"outputs": [
						{
							"internalType": "address",
							"name": "creator",
							"type": "address"
						},
						{
							"internalType": "string",
							"name": "metadataURI",
							"type": "string"
						},
						{
							"internalType": "bool",
							"name": "approved",
							"type": "bool"
						},
						{
							"internalType": "uint256",
							"name": "passedStudents",
							"type": "uint256"
						},
						{
							"internalType": "uint256",
							"name": "totalRewarded",
							"type": "uint256"
						},
						{
							"internalType": "uint256",
							"name": "totalEnrolled",
							"type": "uint256"
						}
					],
					"stateMutability": "view",
					"type": "function"
				},
				{
					"inputs": [
						{
							"internalType": "string",
							"name": "_metadataURI",
							"type": "string"
						},
						{
							"internalType": "string[]",
							"name": "_questions",
							"type": "string[]"
						},
						{
							"internalType": "string[]",
							"name": "_optionAs",
							"type": "string[]"
						},
						{
							"internalType": "string[]",
							"name": "_optionBs",
							"type": "string[]"
						},
						{
							"internalType": "string[]",
							"name": "_optionCs",
							"type": "string[]"
						},
						{
							"internalType": "string[]",
							"name": "_optionDs",
							"type": "string[]"
						},
						{
							"internalType": "string[]",
							"name": "_correctAnswers",
							"type": "string[]"
						}
					],
					"name": "createCourse",
					"outputs": [],
					"stateMutability": "payable",
					"type": "function"
				},
				{
					"inputs": [
						{
							"internalType": "uint256",
							"name": "_courseId",
							"type": "uint256"
						}
					],
					"name": "enrollInCourse",
					"outputs": [],
					"stateMutability": "payable",
					"type": "function"
				},
				{
					"inputs": [
						{
							"internalType": "address",
							"name": "",
							"type": "address"
						},
						{
							"internalType": "uint256",
							"name": "",
							"type": "uint256"
						}
					],
					"name": "enrollments",
					"outputs": [
						{
							"internalType": "bool",
							"name": "isEnrolled",
							"type": "bool"
						},
						{
							"internalType": "uint8",
							"name": "attemptCount",
							"type": "uint8"
						},
						{
							"internalType": "bool",
							"name": "hasPassed",
							"type": "bool"
						},
						{
							"internalType": "bool",
							"name": "hasClaimedReward",
							"type": "bool"
						}
					],
					"stateMutability": "view",
					"type": "function"
				},
				{
					"inputs": [],
					"name": "lastWithdrawalTime",
					"outputs": [
						{
							"internalType": "uint256",
							"name": "",
							"type": "uint256"
						}
					],
					"stateMutability": "view",
					"type": "function"
				},
				{
					"inputs": [],
					"name": "owner",
					"outputs": [
						{
							"internalType": "address",
							"name": "",
							"type": "address"
						}
					],
					"stateMutability": "view",
					"type": "function"
				},
				{
					"inputs": [],
					"name": "pause",
					"outputs": [],
					"stateMutability": "nonpayable",
					"type": "function"
				},
				{
					"inputs": [],
					"name": "paused",
					"outputs": [
						{
							"internalType": "bool",
							"name": "",
							"type": "bool"
						}
					],
					"stateMutability": "view",
					"type": "function"
				},
				{
					"inputs": [],
					"name": "renounceOwnership",
					"outputs": [],
					"stateMutability": "nonpayable",
					"type": "function"
				},
				{
					"inputs": [],
					"name": "reputationContract",
					"outputs": [
						{
							"internalType": "contract IReputationContract",
							"name": "",
							"type": "address"
						}
					],
					"stateMutability": "view",
					"type": "function"
				},
				{
					"inputs": [
						{
							"internalType": "address",
							"name": "newOwner",
							"type": "address"
						}
					],
					"name": "transferOwnership",
					"outputs": [],
					"stateMutability": "nonpayable",
					"type": "function"
				},
				{
					"inputs": [],
					"name": "unpause",
					"outputs": [],
					"stateMutability": "nonpayable",
					"type": "function"
				},
				{
					"inputs": [
						{
							"internalType": "address",
							"name": "_newReputationContract",
							"type": "address"
						}
					],
					"name": "updateReputationContract",
					"outputs": [],
					"stateMutability": "nonpayable",
					"type": "function"
				},
				{
					"inputs": [],
					"name": "withdrawGasFees",
					"outputs": [],
					"stateMutability": "nonpayable",
					"type": "function"
				},
				{
					"stateMutability": "payable",
					"type": "receive"
				}
			],
			"devdoc": {
				"errors": {
					"OwnableInvalidOwner(address)": [
						{
							"details": "The owner is not a valid owner account. (eg. `address(0)`)"
						}
					],
					"OwnableUnauthorizedAccount(address)": [
						{
							"details": "The caller account is not authorized to perform an operation."
						}
					]
				},
				"events": {
					"Paused(address)": {
						"details": "Emitted when the pause is triggered by `account`."
					},
					"Unpaused(address)": {
						"details": "Emitted when the pause is lifted by `account`."
					}
				},
				"kind": "dev",
				"methods": {
					"owner()": {
						"details": "Returns the address of the current owner."
					},
					"paused()": {
						"details": "Returns true if the contract is paused, and false otherwise."
					},
					"renounceOwnership()": {
						"details": "Leaves the contract without owner. It will not be possible to call `onlyOwner` functions. Can only be called by the current owner. NOTE: Renouncing ownership will leave the contract without an owner, thereby disabling any functionality that is only available to the owner."
					},
					"transferOwnership(address)": {
						"details": "Transfers ownership of the contract to a new account (`newOwner`). Can only be called by the current owner."
					}
				},
				"version": 1
			},
			"evm": {
				"assembly": "    /* \"moonx/moonx.sol\":273:8558  contract DecentralLearning is Ownable, Pausable {... */\n  mstore(0x40, 0x80)\n    /* \"moonx/moonx.sol\":2388:2573  constructor(address _reputationContract) Ownable(msg.sender) {... */\n  callvalue\n  dup1\n  iszero\n  tag_1\n  jumpi\n  0x00\n  dup1\n  revert\ntag_1:\n  pop\n  mload(0x40)\n  sub(codesize, bytecodeSize)\n  dup1\n  bytecodeSize\n  dup4\n  codecopy\n  dup2\n  dup2\n  add\n  0x40\n  mstore\n  dup2\n  add\n  swap1\n  tag_2\n  swap2\n  swap1\n  tag_3\n  jump\t// in\ntag_2:\n    /* \"moonx/moonx.sol\":2437:2447  msg.sender */\n  caller\n    /* \"@openzeppelin/contracts/access/Ownable.sol\":1297:1298  0 */\n  0x00\n    /* \"@openzeppelin/contracts/access/Ownable.sol\":1273:1299  initialOwner == address(0) */\n  0xffffffffffffffffffffffffffffffffffffffff\n  and\n    /* \"@openzeppelin/contracts/access/Ownable.sol\":1273:1285  initialOwner */\n  dup2\n    /* \"@openzeppelin/contracts/access/Ownable.sol\":1273:1299  initialOwner == address(0) */\n  0xffffffffffffffffffffffffffffffffffffffff\n  and\n  sub\n    /* \"@openzeppelin/contracts/access/Ownable.sol\":1269:1364  if (initialOwner == address(0)) {... */\n  tag_8\n  jumpi\n    /* \"@openzeppelin/contracts/access/Ownable.sol\":1350:1351  0 */\n  0x00\n    /* \"@openzeppelin/contracts/access/Ownable.sol\":1322:1353  OwnableInvalidOwner(address(0)) */\n  mload(0x40)\n  0x1e4fbdf700000000000000000000000000000000000000000000000000000000\n  dup2\n  mstore\n  0x04\n  add\n  tag_9\n  swap2\n  swap1\n  tag_10\n  jump\t// in\ntag_9:\n  mload(0x40)\n  dup1\n  swap2\n  sub\n  swap1\n  revert\n    /* \"@openzeppelin/contracts/access/Ownable.sol\":1269:1364  if (initialOwner == address(0)) {... */\ntag_8:\n    /* \"@openzeppelin/contracts/access/Ownable.sol\":1373:1405  _transferOwnership(initialOwner) */\n  tag_11\n    /* \"@openzeppelin/contracts/access/Ownable.sol\":1392:1404  initialOwner */\n  dup2\n    /* \"@openzeppelin/contracts/access/Ownable.sol\":1373:1391  _transferOwnership */\n  shl(0x20, tag_12)\n    /* \"@openzeppelin/contracts/access/Ownable.sol\":1373:1405  _transferOwnership(initialOwner) */\n  0x20\n  shr\n  jump\t// in\ntag_11:\n    /* \"@openzeppelin/contracts/access/Ownable.sol\":1225:1412  constructor(address initialOwner) {... */\n  pop\n    /* \"@openzeppelin/contracts/security/Pausable.sol\":1006:1011  false */\n  0x00\n    /* \"@openzeppelin/contracts/security/Pausable.sol\":996:1003  _paused */\n  dup1\n  0x14\n    /* \"@openzeppelin/contracts/security/Pausable.sol\":996:1011  _paused = false */\n  0x0100\n  exp\n  dup2\n  sload\n  dup2\n  0xff\n  mul\n  not\n  and\n  swap1\n  dup4\n  iszero\n  iszero\n  mul\n  or\n  swap1\n  sstore\n  pop\n    /* \"moonx/moonx.sol\":2500:2519  _reputationContract */\n  dup1\n    /* \"moonx/moonx.sol\":2459:2477  reputationContract */\n  0x01\n  0x00\n    /* \"moonx/moonx.sol\":2459:2520  reputationContract = IReputationContract(_reputationContract) */\n  0x0100\n  exp\n  dup2\n  sload\n  dup2\n  0xffffffffffffffffffffffffffffffffffffffff\n  mul\n  not\n  and\n  swap1\n  dup4\n  0xffffffffffffffffffffffffffffffffffffffff\n  and\n  mul\n  or\n  swap1\n  sstore\n  pop\n    /* \"moonx/moonx.sol\":2551:2566  block.timestamp */\n  timestamp\n    /* \"moonx/moonx.sol\":2530:2548  lastWithdrawalTime */\n  0x02\n    /* \"moonx/moonx.sol\":2530:2566  lastWithdrawalTime = block.timestamp */\n  dup2\n  swap1\n  sstore\n  pop\n    /* \"moonx/moonx.sol\":2388:2573  constructor(address _reputationContract) Ownable(msg.sender) {... */\n  pop\n    /* \"moonx/moonx.sol\":273:8558  contract DecentralLearning is Ownable, Pausable {... */\n  jump(tag_15)\n    /* \"@openzeppelin/contracts/access/Ownable.sol\":2912:3099  function _transferOwnership(address newOwner) internal virtual {... */\ntag_12:\n    /* \"@openzeppelin/contracts/access/Ownable.sol\":2985:3001  address oldOwner */\n  0x00\n    /* \"@openzeppelin/contracts/access/Ownable.sol\":3004:3010  _owner */\n  dup1\n  0x00\n  swap1\n  sload\n  swap1\n  0x0100\n  exp\n  swap1\n  div\n  0xffffffffffffffffffffffffffffffffffffffff\n  and\n    /* \"@openzeppelin/contracts/access/Ownable.sol\":2985:3010  address oldOwner = _owner */\n  swap1\n  pop\n    /* \"@openzeppelin/contracts/access/Ownable.sol\":3029:3037  newOwner */\n  dup2\n    /* \"@openzeppelin/contracts/access/Ownable.sol\":3020:3026  _owner */\n  0x00\n  dup1\n    /* \"@openzeppelin/contracts/access/Ownable.sol\":3020:3037  _owner = newOwner */\n  0x0100\n  exp\n  dup2\n  sload\n  dup2\n  0xffffffffffffffffffffffffffffffffffffffff\n  mul\n  not\n  and\n  swap1\n  dup4\n  0xffffffffffffffffffffffffffffffffffffffff\n  and\n  mul\n  or\n  swap1\n  sstore\n  pop\n    /* \"@openzeppelin/contracts/access/Ownable.sol\":3083:3091  newOwner */\n  dup2\n    /* \"@openzeppelin/contracts/access/Ownable.sol\":3052:3092  OwnershipTransferred(oldOwner, newOwner) */\n  0xffffffffffffffffffffffffffffffffffffffff\n  and\n    /* \"@openzeppelin/contracts/access/Ownable.sol\":3073:3081  oldOwner */\n  dup2\n    /* \"@openzeppelin/contracts/access/Ownable.sol\":3052:3092  OwnershipTransferred(oldOwner, newOwner) */\n  0xffffffffffffffffffffffffffffffffffffffff\n  and\n  0x8be0079c531659141344cd1fd0a4f28419497f9722a3daafe3b4186f6b6457e0\n  mload(0x40)\n  mload(0x40)\n  dup1\n  swap2\n  sub\n  swap1\n  log3\n    /* \"@openzeppelin/contracts/access/Ownable.sol\":2975:3099  {... */\n  pop\n    /* \"@openzeppelin/contracts/access/Ownable.sol\":2912:3099  function _transferOwnership(address newOwner) internal virtual {... */\n  pop\n  jump\t// out\n    /* \"#utility.yul\":88:205   */\ntag_18:\n    /* \"#utility.yul\":197:198   */\n  0x00\n    /* \"#utility.yul\":194:195   */\n  dup1\n    /* \"#utility.yul\":187:199   */\n  revert\n    /* \"#utility.yul\":334:460   */\ntag_20:\n    /* \"#utility.yul\":371:378   */\n  0x00\n    /* \"#utility.yul\":411:453   */\n  0xffffffffffffffffffffffffffffffffffffffff\n    /* \"#utility.yul\":404:409   */\n  dup3\n    /* \"#utility.yul\":400:454   */\n  and\n    /* \"#utility.yul\":389:454   */\n  swap1\n  pop\n    /* \"#utility.yul\":334:460   */\n  swap2\n  swap1\n  pop\n  jump\t// out\n    /* \"#utility.yul\":466:562   */\ntag_21:\n    /* \"#utility.yul\":503:510   */\n  0x00\n    /* \"#utility.yul\":532:556   */\n  tag_31\n    /* \"#utility.yul\":550:555   */\n  dup3\n    /* \"#utility.yul\":532:556   */\n  tag_20\n  jump\t// in\ntag_31:\n    /* \"#utility.yul\":521:556   */\n  swap1\n  pop\n    /* \"#utility.yul\":466:562   */\n  swap2\n  swap1\n  pop\n  jump\t// out\n    /* \"#utility.yul\":568:690   */\ntag_22:\n    /* \"#utility.yul\":641:665   */\n  tag_33\n    /* \"#utility.yul\":659:664   */\n  dup2\n    /* \"#utility.yul\":641:665   */\n  tag_21\n  jump\t// in\ntag_33:\n    /* \"#utility.yul\":634:639   */\n  dup2\n    /* \"#utility.yul\":631:666   */\n  eq\n    /* \"#utility.yul\":621:684   */\n  tag_34\n  jumpi\n    /* \"#utility.yul\":680:681   */\n  0x00\n    /* \"#utility.yul\":677:678   */\n  dup1\n    /* \"#utility.yul\":670:682   */\n  revert\n    /* \"#utility.yul\":621:684   */\ntag_34:\n    /* \"#utility.yul\":568:690   */\n  pop\n  jump\t// out\n    /* \"#utility.yul\":696:839   */\ntag_23:\n    /* \"#utility.yul\":753:758   */\n  0x00\n    /* \"#utility.yul\":784:790   */\n  dup2\n    /* \"#utility.yul\":778:791   */\n  mload\n    /* \"#utility.yul\":769:791   */\n  swap1\n  pop\n    /* \"#utility.yul\":800:833   */\n  tag_36\n    /* \"#utility.yul\":827:832   */\n  dup2\n    /* \"#utility.yul\":800:833   */\n  tag_22\n  jump\t// in\ntag_36:\n    /* \"#utility.yul\":696:839   */\n  swap3\n  swap2\n  pop\n  pop\n  jump\t// out\n    /* \"#utility.yul\":845:1196   */\ntag_3:\n    /* \"#utility.yul\":915:921   */\n  0x00\n    /* \"#utility.yul\":964:966   */\n  0x20\n    /* \"#utility.yul\":952:961   */\n  dup3\n    /* \"#utility.yul\":943:950   */\n  dup5\n    /* \"#utility.yul\":939:962   */\n  sub\n    /* \"#utility.yul\":935:967   */\n  slt\n    /* \"#utility.yul\":932:1051   */\n  iszero\n  tag_38\n  jumpi\n    /* \"#utility.yul\":970:1049   */\n  tag_39\n  tag_18\n  jump\t// in\ntag_39:\n    /* \"#utility.yul\":932:1051   */\ntag_38:\n    /* \"#utility.yul\":1090:1091   */\n  0x00\n    /* \"#utility.yul\":1115:1179   */\n  tag_40\n    /* \"#utility.yul\":1171:1178   */\n  dup5\n    /* \"#utility.yul\":1162:1168   */\n  dup3\n    /* \"#utility.yul\":1151:1160   */\n  dup6\n    /* \"#utility.yul\":1147:1169   */\n  add\n    /* \"#utility.yul\":1115:1179   */\n  tag_23\n  jump\t// in\ntag_40:\n    /* \"#utility.yul\":1105:1179   */\n  swap2\n  pop\n    /* \"#utility.yul\":1061:1189   */\n  pop\n    /* \"#utility.yul\":845:1196   */\n  swap3\n  swap2\n  pop\n  pop\n  jump\t// out\n    /* \"#utility.yul\":1202:1320   */\ntag_24:\n    /* \"#utility.yul\":1289:1313   */\n  tag_42\n    /* \"#utility.yul\":1307:1312   */\n  dup2\n    /* \"#utility.yul\":1289:1313   */\n  tag_21\n  jump\t// in\ntag_42:\n    /* \"#utility.yul\":1284:1287   */\n  dup3\n    /* \"#utility.yul\":1277:1314   */\n  mstore\n    /* \"#utility.yul\":1202:1320   */\n  pop\n  pop\n  jump\t// out\n    /* \"#utility.yul\":1326:1548   */\ntag_10:\n    /* \"#utility.yul\":1419:1423   */\n  0x00\n    /* \"#utility.yul\":1457:1459   */\n  0x20\n    /* \"#utility.yul\":1446:1455   */\n  dup3\n    /* \"#utility.yul\":1442:1460   */\n  add\n    /* \"#utility.yul\":1434:1460   */\n  swap1\n  pop\n    /* \"#utility.yul\":1470:1541   */\n  tag_44\n    /* \"#utility.yul\":1538:1539   */\n  0x00\n    /* \"#utility.yul\":1527:1536   */\n  dup4\n    /* \"#utility.yul\":1523:1540   */\n  add\n    /* \"#utility.yul\":1514:1520   */\n  dup5\n    /* \"#utility.yul\":1470:1541   */\n  tag_24\n  jump\t// in\ntag_44:\n    /* \"#utility.yul\":1326:1548   */\n  swap3\n  swap2\n  pop\n  pop\n  jump\t// out\n    /* \"moonx/moonx.sol\":273:8558  contract DecentralLearning is Ownable, Pausable {... */\ntag_15:\n  dataSize(sub_0)\n  dup1\n  dataOffset(sub_0)\n  0x00\n  codecopy\n  0x00\n  return\nstop\n\nsub_0: assembly {\n        /* \"moonx/moonx.sol\":273:8558  contract DecentralLearning is Ownable, Pausable {... */\n      mstore(0x40, 0x80)\n      jumpi(tag_1, lt(calldatasize, 0x04))\n      shr(0xe0, calldataload(0x00))\n      dup1\n      0x87bc1425\n      gt\n      tag_29\n      jumpi\n      dup1\n      0xae24f005\n      gt\n      tag_30\n      jumpi\n      dup1\n      0xba2f0362\n      gt\n      tag_31\n      jumpi\n      dup1\n      0xba2f0362\n      eq\n      tag_25\n      jumpi\n      dup1\n      0xcf90b3be\n      eq\n      tag_26\n      jumpi\n      dup1\n      0xf2fde38b\n      eq\n      tag_27\n      jumpi\n      dup1\n      0xfbf1aded\n      eq\n      tag_28\n      jumpi\n      jump(tag_2)\n    tag_31:\n      dup1\n      0xae24f005\n      eq\n      tag_22\n      jumpi\n      dup1\n      0xb0aaefd6\n      eq\n      tag_23\n      jumpi\n      dup1\n      0xb894af02\n      eq\n      tag_24\n      jumpi\n      jump(tag_2)\n    tag_30:\n      dup1\n      0x87bc1425\n      eq\n      tag_16\n      jumpi\n      dup1\n      0x8da5cb5b\n      eq\n      tag_17\n      jumpi\n      dup1\n      0x905baa61\n      eq\n      tag_18\n      jumpi\n      dup1\n      0x96f979d2\n      eq\n      tag_19\n      jumpi\n      dup1\n      0xa4d8754a\n      eq\n      tag_20\n      jumpi\n      dup1\n      0xa4e1f033\n      eq\n      tag_21\n      jumpi\n      jump(tag_2)\n    tag_29:\n      dup1\n      0x5cb45cb5\n      gt\n      tag_32\n      jumpi\n      dup1\n      0x715018a6\n      gt\n      tag_33\n      jumpi\n      dup1\n      0x715018a6\n      eq\n      tag_12\n      jumpi\n      dup1\n      0x75284998\n      eq\n      tag_13\n      jumpi\n      dup1\n      0x79370df3\n      eq\n      tag_14\n      jumpi\n      dup1\n      0x8456cb59\n      eq\n      tag_15\n      jumpi\n      jump(tag_2)\n    tag_33:\n      dup1\n      0x5cb45cb5\n      eq\n      tag_9\n      jumpi\n      dup1\n      0x5e52da27\n      eq\n      tag_10\n      jumpi\n      dup1\n      0x66055159\n      eq\n      tag_11\n      jumpi\n      jump(tag_2)\n    tag_32:\n      dup1\n      0x07f910f8\n      eq\n      tag_3\n      jumpi\n      dup1\n      0x34a014dc\n      eq\n      tag_4\n      jumpi\n      dup1\n      0x3f4ba83a\n      eq\n      tag_5\n      jumpi\n      dup1\n      0x4c64c030\n      eq\n      tag_6\n      jumpi\n      dup1\n      0x587f5ed7\n      eq\n      tag_7\n      jumpi\n      dup1\n      0x5c975abb\n      eq\n      tag_8\n      jumpi\n      jump(tag_2)\n    tag_1:\n      jumpi(tag_2, calldatasize)\n      stop\n    tag_2:\n      0x00\n      dup1\n      revert\n        /* \"moonx/moonx.sol\":1501:1570  mapping(address => mapping(uint256 => Enrollment)) public enrollments */\n    tag_3:\n      callvalue\n      dup1\n      iszero\n      tag_36\n      jumpi\n      0x00\n      dup1\n      revert\n    tag_36:\n      pop\n      tag_37\n      0x04\n      dup1\n      calldatasize\n      sub\n      dup2\n      add\n      swap1\n      tag_38\n      swap2\n      swap1\n      tag_39\n      jump\t// in\n    tag_38:\n      tag_40\n      jump\t// in\n    tag_37:\n      mload(0x40)\n      tag_41\n      swap5\n      swap4\n      swap3\n      swap2\n      swap1\n      tag_42\n      jump\t// in\n    tag_41:\n      mload(0x40)\n      dup1\n      swap2\n      sub\n      swap1\n      return\n        /* \"moonx/moonx.sol\":786:819  uint256 public lastWithdrawalTime */\n    tag_4:\n      callvalue\n      dup1\n      iszero\n      tag_43\n      jumpi\n      0x00\n      dup1\n      revert\n    tag_43:\n      pop\n      tag_44\n      tag_45\n      jump\t// in\n    tag_44:\n      mload(0x40)\n      tag_46\n      swap2\n      swap1\n      tag_47\n      jump\t// in\n    tag_46:\n      mload(0x40)\n      dup1\n      swap2\n      sub\n      swap1\n      return\n        /* \"moonx/moonx.sol\":8208:8273  function unpause() external onlyOwner {... */\n    tag_5:\n      callvalue\n      dup1\n      iszero\n      tag_48\n      jumpi\n      0x00\n      dup1\n      revert\n    tag_48:\n      pop\n      tag_49\n      tag_50\n      jump\t// in\n    tag_49:\n      stop\n        /* \"moonx/moonx.sol\":726:779  uint256 public constant WITHDRAWAL_INTERVAL = 50 days */\n    tag_6:\n      callvalue\n      dup1\n      iszero\n      tag_51\n      jumpi\n      0x00\n      dup1\n      revert\n    tag_51:\n      pop\n      tag_52\n      tag_53\n      jump\t// in\n    tag_52:\n      mload(0x40)\n      tag_54\n      swap2\n      swap1\n      tag_47\n      jump\t// in\n    tag_54:\n      mload(0x40)\n      dup1\n      swap2\n      sub\n      swap1\n      return\n        /* \"moonx/moonx.sol\":825:855  uint256 public accumulatedFees */\n    tag_7:\n      callvalue\n      dup1\n      iszero\n      tag_55\n      jumpi\n      0x00\n      dup1\n      revert\n    tag_55:\n      pop\n      tag_56\n      tag_57\n      jump\t// in\n    tag_56:\n      mload(0x40)\n      tag_58\n      swap2\n      swap1\n      tag_47\n      jump\t// in\n    tag_58:\n      mload(0x40)\n      dup1\n      swap2\n      sub\n      swap1\n      return\n        /* \"@openzeppelin/contracts/security/Pausable.sol\":1615:1699  function paused() public view virtual returns (bool) {... */\n    tag_8:\n      callvalue\n      dup1\n      iszero\n      tag_59\n      jumpi\n      0x00\n      dup1\n      revert\n    tag_59:\n      pop\n      tag_60\n      tag_61\n      jump\t// in\n    tag_60:\n      mload(0x40)\n      tag_62\n      swap2\n      swap1\n      tag_63\n      jump\t// in\n    tag_62:\n      mload(0x40)\n      dup1\n      swap2\n      sub\n      swap1\n      return\n        /* \"moonx/moonx.sol\":5611:6981  function attemptQuiz(uint256 _courseId, string[] memory _answers) external payable COLLECTPLATFORMTX {... */\n    tag_9:\n      tag_64\n      0x04\n      dup1\n      calldatasize\n      sub\n      dup2\n      add\n      swap1\n      tag_65\n      swap2\n      swap1\n      tag_66\n      jump\t// in\n    tag_65:\n      tag_67\n      jump\t// in\n    tag_64:\n      stop\n        /* \"moonx/moonx.sol\":5077:5604  function enrollInCourse(uint256 _courseId) external payable whenNotPaused COLLECTPLATFORMTX {... */\n    tag_10:\n      tag_68\n      0x04\n      dup1\n      calldatasize\n      sub\n      dup2\n      add\n      swap1\n      tag_69\n      swap2\n      swap1\n      tag_70\n      jump\t// in\n    tag_69:\n      tag_71\n      jump\t// in\n    tag_68:\n      stop\n        /* \"moonx/moonx.sol\":1675:1701  uint256 public courseCount */\n    tag_11:\n      callvalue\n      dup1\n      iszero\n      tag_72\n      jumpi\n      0x00\n      dup1\n      revert\n    tag_72:\n      pop\n      tag_73\n      tag_74\n      jump\t// in\n    tag_73:\n      mload(0x40)\n      tag_75\n      swap2\n      swap1\n      tag_47\n      jump\t// in\n    tag_75:\n      mload(0x40)\n      dup1\n      swap2\n      sub\n      swap1\n      return\n        /* \"@openzeppelin/contracts/access/Ownable.sol\":2293:2394  function renounceOwnership() public virtual onlyOwner {... */\n    tag_12:\n      callvalue\n      dup1\n      iszero\n      tag_76\n      jumpi\n      0x00\n      dup1\n      revert\n    tag_76:\n      pop\n      tag_77\n      tag_78\n      jump\t// in\n    tag_77:\n      stop\n        /* \"moonx/moonx.sol\":4845:5071  function approveCourse(uint256 _courseId) external onlyOwner {... */\n    tag_13:\n      callvalue\n      dup1\n      iszero\n      tag_79\n      jumpi\n      0x00\n      dup1\n      revert\n    tag_79:\n      pop\n      tag_80\n      0x04\n      dup1\n      calldatasize\n      sub\n      dup2\n      add\n      swap1\n      tag_81\n      swap2\n      swap1\n      tag_70\n      jump\t// in\n    tag_81:\n      tag_82\n      jump\t// in\n    tag_80:\n      stop\n        /* \"moonx/moonx.sol\":2871:4839  function createCourse(... */\n    tag_14:\n      tag_83\n      0x04\n      dup1\n      calldatasize\n      sub\n      dup2\n      add\n      swap1\n      tag_84\n      swap2\n      swap1\n      tag_85\n      jump\t// in\n    tag_84:\n      tag_86\n      jump\t// in\n    tag_83:\n      stop\n        /* \"moonx/moonx.sol\":8141:8202  function pause() external onlyOwner {... */\n    tag_15:\n      callvalue\n      dup1\n      iszero\n      tag_87\n      jumpi\n      0x00\n      dup1\n      revert\n    tag_87:\n      pop\n      tag_88\n      tag_89\n      jump\t// in\n    tag_88:\n      stop\n        /* \"moonx/moonx.sol\":327:372  IReputationContract public reputationContract */\n    tag_16:\n      callvalue\n      dup1\n      iszero\n      tag_90\n      jumpi\n      0x00\n      dup1\n      revert\n    tag_90:\n      pop\n      tag_91\n      tag_92\n      jump\t// in\n    tag_91:\n      mload(0x40)\n      tag_93\n      swap2\n      swap1\n      tag_94\n      jump\t// in\n    tag_93:\n      mload(0x40)\n      dup1\n      swap2\n      sub\n      swap1\n      return\n        /* \"@openzeppelin/contracts/access/Ownable.sol\":1638:1723  function owner() public view virtual returns (address) {... */\n    tag_17:\n      callvalue\n      dup1\n      iszero\n      tag_95\n      jumpi\n      0x00\n      dup1\n      revert\n    tag_95:\n      pop\n      tag_96\n      tag_97\n      jump\t// in\n    tag_96:\n      mload(0x40)\n      tag_98\n      swap2\n      swap1\n      tag_99\n      jump\t// in\n    tag_98:\n      mload(0x40)\n      dup1\n      swap2\n      sub\n      swap1\n      return\n        /* \"moonx/moonx.sol\":8279:8445  function updateReputationContract(address _newReputationContract) external onlyOwner {... */\n    tag_18:\n      callvalue\n      dup1\n      iszero\n      tag_100\n      jumpi\n      0x00\n      dup1\n      revert\n    tag_100:\n      pop\n      tag_101\n      0x04\n      dup1\n      calldatasize\n      sub\n      dup2\n      add\n      swap1\n      tag_102\n      swap2\n      swap1\n      tag_103\n      jump\t// in\n    tag_102:\n      tag_104\n      jump\t// in\n    tag_101:\n      stop\n        /* \"moonx/moonx.sol\":1454:1495  mapping(uint256 => Course) public courses */\n    tag_19:\n      callvalue\n      dup1\n      iszero\n      tag_105\n      jumpi\n      0x00\n      dup1\n      revert\n    tag_105:\n      pop\n      tag_106\n      0x04\n      dup1\n      calldatasize\n      sub\n      dup2\n      add\n      swap1\n      tag_107\n      swap2\n      swap1\n      tag_70\n      jump\t// in\n    tag_107:\n      tag_108\n      jump\t// in\n    tag_106:\n      mload(0x40)\n      tag_109\n      swap7\n      swap6\n      swap5\n      swap4\n      swap3\n      swap2\n      swap1\n      tag_110\n      jump\t// in\n    tag_109:\n      mload(0x40)\n      dup1\n      swap2\n      sub\n      swap1\n      return\n        /* \"moonx/moonx.sol\":653:700  uint256 public constant PLATFORMTX = 0.75 ether */\n    tag_20:\n      callvalue\n      dup1\n      iszero\n      tag_111\n      jumpi\n      0x00\n      dup1\n      revert\n    tag_111:\n      pop\n      tag_112\n      tag_113\n      jump\t// in\n    tag_112:\n      mload(0x40)\n      tag_114\n      swap2\n      swap1\n      tag_47\n      jump\t// in\n    tag_114:\n      mload(0x40)\n      dup1\n      swap2\n      sub\n      swap1\n      return\n        /* \"moonx/moonx.sol\":429:471  uint256 public constant POST_THRESHOLD = 5 */\n    tag_21:\n      callvalue\n      dup1\n      iszero\n      tag_115\n      jumpi\n      0x00\n      dup1\n      revert\n    tag_115:\n      pop\n      tag_116\n      tag_117\n      jump\t// in\n    tag_116:\n      mload(0x40)\n      tag_118\n      swap2\n      swap1\n      tag_47\n      jump\t// in\n    tag_118:\n      mload(0x40)\n      dup1\n      swap2\n      sub\n      swap1\n      return\n        /* \"moonx/moonx.sol\":379:423  uint256 public constant ENROLL_THRESHOLD = 5 */\n    tag_22:\n      callvalue\n      dup1\n      iszero\n      tag_119\n      jumpi\n      0x00\n      dup1\n      revert\n    tag_119:\n      pop\n      tag_120\n      tag_121\n      jump\t// in\n    tag_120:\n      mload(0x40)\n      tag_122\n      swap2\n      swap1\n      tag_47\n      jump\t// in\n    tag_122:\n      mload(0x40)\n      dup1\n      swap2\n      sub\n      swap1\n      return\n        /* \"moonx/moonx.sol\":1576:1623  mapping(uint256 => Quiz[]) public courseQuizzes */\n    tag_23:\n      callvalue\n      dup1\n      iszero\n      tag_123\n      jumpi\n      0x00\n      dup1\n      revert\n    tag_123:\n      pop\n      tag_124\n      0x04\n      dup1\n      calldatasize\n      sub\n      dup2\n      add\n      swap1\n      tag_125\n      swap2\n      swap1\n      tag_126\n      jump\t// in\n    tag_125:\n      tag_127\n      jump\t// in\n    tag_124:\n      mload(0x40)\n      tag_128\n      swap8\n      swap7\n      swap6\n      swap5\n      swap4\n      swap3\n      swap2\n      swap1\n      tag_129\n      jump\t// in\n    tag_128:\n      mload(0x40)\n      dup1\n      swap2\n      sub\n      swap1\n      return\n        /* \"moonx/moonx.sol\":7685:8135  function withdrawGasFees() external onlyOwner {... */\n    tag_24:\n      callvalue\n      dup1\n      iszero\n      tag_130\n      jumpi\n      0x00\n      dup1\n      revert\n    tag_130:\n      pop\n      tag_131\n      tag_132\n      jump\t// in\n    tag_131:\n      stop\n        /* \"moonx/moonx.sol\":6987:7678  function claimCreatorReward(uint256 _courseId) external payable whenNotPaused COLLECTPLATFORMTX {... */\n    tag_25:\n      tag_133\n      0x04\n      dup1\n      calldatasize\n      sub\n      dup2\n      add\n      swap1\n      tag_134\n      swap2\n      swap1\n      tag_70\n      jump\t// in\n    tag_134:\n      tag_135\n      jump\t// in\n    tag_133:\n      stop\n        /* \"moonx/moonx.sol\":557:612  uint256 public constant CREATOR_REWARD_AMOUNT = 1 ether */\n    tag_26:\n      callvalue\n      dup1\n      iszero\n      tag_136\n      jumpi\n      0x00\n      dup1\n      revert\n    tag_136:\n      pop\n      tag_137\n      tag_138\n      jump\t// in\n    tag_137:\n      mload(0x40)\n      tag_139\n      swap2\n      swap1\n      tag_47\n      jump\t// in\n    tag_139:\n      mload(0x40)\n      dup1\n      swap2\n      sub\n      swap1\n      return\n        /* \"@openzeppelin/contracts/access/Ownable.sol\":2543:2758  function transferOwnership(address newOwner) public virtual onlyOwner {... */\n    tag_27:\n      callvalue\n      dup1\n      iszero\n      tag_140\n      jumpi\n      0x00\n      dup1\n      revert\n    tag_140:\n      pop\n      tag_141\n      0x04\n      dup1\n      calldatasize\n      sub\n      dup2\n      add\n      swap1\n      tag_142\n      swap2\n      swap1\n      tag_103\n      jump\t// in\n    tag_142:\n      tag_143\n      jump\t// in\n    tag_141:\n      stop\n        /* \"moonx/moonx.sol\":477:533  uint256 public constant STUDENT_REWARD_AMOUNT = 10 ether */\n    tag_28:\n      callvalue\n      dup1\n      iszero\n      tag_144\n      jumpi\n      0x00\n      dup1\n      revert\n    tag_144:\n      pop\n      tag_145\n      tag_146\n      jump\t// in\n    tag_145:\n      mload(0x40)\n      tag_147\n      swap2\n      swap1\n      tag_47\n      jump\t// in\n    tag_147:\n      mload(0x40)\n      dup1\n      swap2\n      sub\n      swap1\n      return\n        /* \"moonx/moonx.sol\":1501:1570  mapping(address => mapping(uint256 => Enrollment)) public enrollments */\n    tag_40:\n      mstore(0x20, 0x05)\n      dup2\n      0x00\n      mstore\n      mstore(0x20, keccak256(0x00, 0x40))\n      dup1\n      0x00\n      mstore\n      keccak256(0x00, 0x40)\n      0x00\n      swap2\n      pop\n      swap2\n      pop\n      pop\n      dup1\n      0x00\n      add\n      0x00\n      swap1\n      sload\n      swap1\n      0x0100\n      exp\n      swap1\n      div\n      0xff\n      and\n      swap1\n      dup1\n      0x00\n      add\n      0x01\n      swap1\n      sload\n      swap1\n      0x0100\n      exp\n      swap1\n      div\n      0xff\n      and\n      swap1\n      dup1\n      0x00\n      add\n      0x02\n      swap1\n      sload\n      swap1\n      0x0100\n      exp\n      swap1\n      div\n      0xff\n      and\n      swap1\n      dup1\n      0x00\n      add\n      0x03\n      swap1\n      sload\n      swap1\n      0x0100\n      exp\n      swap1\n      div\n      0xff\n      and\n      swap1\n      pop\n      dup5\n      jump\t// out\n        /* \"moonx/moonx.sol\":786:819  uint256 public lastWithdrawalTime */\n    tag_45:\n      sload(0x02)\n      dup2\n      jump\t// out\n        /* \"moonx/moonx.sol\":8208:8273  function unpause() external onlyOwner {... */\n    tag_50:\n        /* \"@openzeppelin/contracts/access/Ownable.sol\":1531:1544  _checkOwner() */\n      tag_149\n        /* \"@openzeppelin/contracts/access/Ownable.sol\":1531:1542  _checkOwner */\n      tag_150\n        /* \"@openzeppelin/contracts/access/Ownable.sol\":1531:1544  _checkOwner() */\n      jump\t// in\n    tag_149:\n        /* \"moonx/moonx.sol\":8256:8266  _unpause() */\n      tag_152\n        /* \"moonx/moonx.sol\":8256:8264  _unpause */\n      tag_153\n        /* \"moonx/moonx.sol\":8256:8266  _unpause() */\n      jump\t// in\n    tag_152:\n        /* \"moonx/moonx.sol\":8208:8273  function unpause() external onlyOwner {... */\n      jump\t// out\n        /* \"moonx/moonx.sol\":726:779  uint256 public constant WITHDRAWAL_INTERVAL = 50 days */\n    tag_53:\n        /* \"moonx/moonx.sol\":772:779  50 days */\n      0x41eb00\n        /* \"moonx/moonx.sol\":726:779  uint256 public constant WITHDRAWAL_INTERVAL = 50 days */\n      dup2\n      jump\t// out\n        /* \"moonx/moonx.sol\":825:855  uint256 public accumulatedFees */\n    tag_57:\n      sload(0x03)\n      dup2\n      jump\t// out\n        /* \"@openzeppelin/contracts/security/Pausable.sol\":1615:1699  function paused() public view virtual returns (bool) {... */\n    tag_61:\n        /* \"@openzeppelin/contracts/security/Pausable.sol\":1662:1666  bool */\n      0x00\n        /* \"@openzeppelin/contracts/security/Pausable.sol\":1685:1692  _paused */\n      dup1\n      0x14\n      swap1\n      sload\n      swap1\n      0x0100\n      exp\n      swap1\n      div\n      0xff\n      and\n        /* \"@openzeppelin/contracts/security/Pausable.sol\":1678:1692  return _paused */\n      swap1\n      pop\n        /* \"@openzeppelin/contracts/security/Pausable.sol\":1615:1699  function paused() public view virtual returns (bool) {... */\n      swap1\n      jump\t// out\n        /* \"moonx/moonx.sol\":5611:6981  function attemptQuiz(uint256 _courseId, string[] memory _answers) external payable COLLECTPLATFORMTX {... */\n    tag_67:\n        /* \"moonx/moonx.sol\":690:700  0.75 ether */\n      0x0a688906bd8b0000\n        /* \"moonx/moonx.sol\":2626:2635  msg.value */\n      callvalue\n        /* \"moonx/moonx.sol\":2626:2649  msg.value >= PLATFORMTX */\n      lt\n      iszero\n        /* \"moonx/moonx.sol\":2618:2674  require(msg.value >= PLATFORMTX, \"Insufficient gas fee\") */\n      tag_156\n      jumpi\n      mload(0x40)\n      0x08c379a000000000000000000000000000000000000000000000000000000000\n      dup2\n      mstore\n      0x04\n      add\n      tag_157\n      swap1\n      tag_158\n      jump\t// in\n    tag_157:\n      mload(0x40)\n      dup1\n      swap2\n      sub\n      swap1\n      revert\n    tag_156:\n        /* \"moonx/moonx.sol\":690:700  0.75 ether */\n      0x0a688906bd8b0000\n        /* \"moonx/moonx.sol\":2684:2699  accumulatedFees */\n      0x03\n      0x00\n        /* \"moonx/moonx.sol\":2684:2713  accumulatedFees += PLATFORMTX */\n      dup3\n      dup3\n      sload\n      tag_159\n      swap2\n      swap1\n      tag_160\n      jump\t// in\n    tag_159:\n      swap3\n      pop\n      pop\n      dup2\n      swap1\n      sstore\n      pop\n        /* \"moonx/moonx.sol\":2723:2737  uint256 excess */\n      0x00\n        /* \"moonx/moonx.sol\":690:700  0.75 ether */\n      0x0a688906bd8b0000\n        /* \"moonx/moonx.sol\":2740:2749  msg.value */\n      callvalue\n        /* \"moonx/moonx.sol\":2740:2762  msg.value - PLATFORMTX */\n      tag_161\n      swap2\n      swap1\n      tag_162\n      jump\t// in\n    tag_161:\n        /* \"moonx/moonx.sol\":2723:2762  uint256 excess = msg.value - PLATFORMTX */\n      swap1\n      pop\n        /* \"moonx/moonx.sol\":2785:2786  0 */\n      0x00\n        /* \"moonx/moonx.sol\":2776:2782  excess */\n      dup2\n        /* \"moonx/moonx.sol\":2776:2786  excess > 0 */\n      gt\n        /* \"moonx/moonx.sol\":2772:2849  if (excess > 0) {... */\n      iszero\n      tag_163\n      jumpi\n        /* \"moonx/moonx.sol\":2810:2820  msg.sender */\n      caller\n        /* \"moonx/moonx.sol\":2802:2830  payable(msg.sender).transfer */\n      0xffffffffffffffffffffffffffffffffffffffff\n      and\n        /* \"moonx/moonx.sol\":2802:2838  payable(msg.sender).transfer(excess) */\n      0x08fc\n        /* \"moonx/moonx.sol\":2831:2837  excess */\n      dup3\n        /* \"moonx/moonx.sol\":2802:2838  payable(msg.sender).transfer(excess) */\n      swap1\n      dup2\n      iszero\n      mul\n      swap1\n      mload(0x40)\n      0x00\n      mload(0x40)\n      dup1\n      dup4\n      sub\n      dup2\n      dup6\n      dup9\n      dup9\n      call\n      swap4\n      pop\n      pop\n      pop\n      pop\n      iszero\n      dup1\n      iszero\n      tag_165\n      jumpi\n      returndatasize\n      0x00\n      dup1\n      returndatacopy\n      revert(0x00, returndatasize)\n    tag_165:\n      pop\n        /* \"moonx/moonx.sol\":2772:2849  if (excess > 0) {... */\n    tag_163:\n        /* \"moonx/moonx.sol\":5722:5751  Enrollment storage enrollment */\n      0x00\n        /* \"moonx/moonx.sol\":5754:5765  enrollments */\n      0x05\n        /* \"moonx/moonx.sol\":5754:5777  enrollments[msg.sender] */\n      0x00\n        /* \"moonx/moonx.sol\":5766:5776  msg.sender */\n      caller\n        /* \"moonx/moonx.sol\":5754:5777  enrollments[msg.sender] */\n      0xffffffffffffffffffffffffffffffffffffffff\n      and\n      0xffffffffffffffffffffffffffffffffffffffff\n      and\n      dup2\n      mstore\n      0x20\n      add\n      swap1\n      dup2\n      mstore\n      0x20\n      add\n      0x00\n      keccak256\n        /* \"moonx/moonx.sol\":5754:5788  enrollments[msg.sender][_courseId] */\n      0x00\n        /* \"moonx/moonx.sol\":5778:5787  _courseId */\n      dup6\n        /* \"moonx/moonx.sol\":5754:5788  enrollments[msg.sender][_courseId] */\n      dup2\n      mstore\n      0x20\n      add\n      swap1\n      dup2\n      mstore\n      0x20\n      add\n      0x00\n      keccak256\n        /* \"moonx/moonx.sol\":5722:5788  Enrollment storage enrollment = enrollments[msg.sender][_courseId] */\n      swap1\n      pop\n        /* \"moonx/moonx.sol\":5806:5816  enrollment */\n      dup1\n        /* \"moonx/moonx.sol\":5806:5827  enrollment.isEnrolled */\n      0x00\n      add\n      0x00\n      swap1\n      sload\n      swap1\n      0x0100\n      exp\n      swap1\n      div\n      0xff\n      and\n        /* \"moonx/moonx.sol\":5798:5864  require(enrollment.isEnrolled, \"User not enrolled in this course\") */\n      tag_167\n      jumpi\n      mload(0x40)\n      0x08c379a000000000000000000000000000000000000000000000000000000000\n      dup2\n      mstore\n      0x04\n      add\n      tag_168\n      swap1\n      tag_169\n      jump\t// in\n    tag_168:\n      mload(0x40)\n      dup1\n      swap2\n      sub\n      swap1\n      revert\n    tag_167:\n        /* \"moonx/moonx.sol\":5908:5909  2 */\n      0x02\n        /* \"moonx/moonx.sol\":5882:5892  enrollment */\n      dup2\n        /* \"moonx/moonx.sol\":5882:5905  enrollment.attemptCount */\n      0x00\n      add\n      0x01\n      swap1\n      sload\n      swap1\n      0x0100\n      exp\n      swap1\n      div\n      0xff\n      and\n        /* \"moonx/moonx.sol\":5882:5909  enrollment.attemptCount < 2 */\n      0xff\n      and\n      lt\n        /* \"moonx/moonx.sol\":5874:5938  require(enrollment.attemptCount < 2, \"Maximum attempts reached\") */\n      tag_170\n      jumpi\n      mload(0x40)\n      0x08c379a000000000000000000000000000000000000000000000000000000000\n      dup2\n      mstore\n      0x04\n      add\n      tag_171\n      swap1\n      tag_172\n      jump\t// in\n    tag_171:\n      mload(0x40)\n      dup1\n      swap2\n      sub\n      swap1\n      revert\n    tag_170:\n        /* \"moonx/moonx.sol\":5957:5967  enrollment */\n      dup1\n        /* \"moonx/moonx.sol\":5957:5977  enrollment.hasPassed */\n      0x00\n      add\n      0x02\n      swap1\n      sload\n      swap1\n      0x0100\n      exp\n      swap1\n      div\n      0xff\n      and\n        /* \"moonx/moonx.sol\":5956:5977  !enrollment.hasPassed */\n      iszero\n        /* \"moonx/moonx.sol\":5948:6017  require(!enrollment.hasPassed, \"User has already passed this course\") */\n      tag_173\n      jumpi\n      mload(0x40)\n      0x08c379a000000000000000000000000000000000000000000000000000000000\n      dup2\n      mstore\n      0x04\n      add\n      tag_174\n      swap1\n      tag_175\n      jump\t// in\n    tag_174:\n      mload(0x40)\n      dup1\n      swap2\n      sub\n      swap1\n      revert\n    tag_173:\n        /* \"moonx/moonx.sol\":6028:6038  enrollment */\n      dup1\n        /* \"moonx/moonx.sol\":6028:6051  enrollment.attemptCount */\n      0x00\n      add\n      0x01\n        /* \"moonx/moonx.sol\":6028:6053  enrollment.attemptCount++ */\n      dup2\n      dup2\n      swap1\n      sload\n      swap1\n      0x0100\n      exp\n      swap1\n      div\n      0xff\n      and\n      dup1\n      swap3\n      swap2\n      swap1\n      tag_176\n      swap1\n      tag_177\n      jump\t// in\n    tag_176:\n      swap2\n      swap1\n      0x0100\n      exp\n      dup2\n      sload\n      dup2\n      0xff\n      mul\n      not\n      and\n      swap1\n      dup4\n      0xff\n      and\n      mul\n      or\n      swap1\n      sstore\n      pop\n      pop\n        /* \"moonx/moonx.sol\":6063:6084  Quiz[] memory quizzes */\n      0x00\n        /* \"moonx/moonx.sol\":6087:6100  courseQuizzes */\n      0x06\n        /* \"moonx/moonx.sol\":6087:6111  courseQuizzes[_courseId] */\n      0x00\n        /* \"moonx/moonx.sol\":6101:6110  _courseId */\n      dup7\n        /* \"moonx/moonx.sol\":6087:6111  courseQuizzes[_courseId] */\n      dup2\n      mstore\n      0x20\n      add\n      swap1\n      dup2\n      mstore\n      0x20\n      add\n      0x00\n      keccak256\n        /* \"moonx/moonx.sol\":6063:6111  Quiz[] memory quizzes = courseQuizzes[_courseId] */\n      dup1\n      sload\n      dup1\n      0x20\n      mul\n      0x20\n      add\n      mload(0x40)\n      swap1\n      dup2\n      add\n      0x40\n      mstore\n      dup1\n      swap3\n      swap2\n      swap1\n      dup2\n      dup2\n      mstore\n      0x20\n      add\n      0x00\n      swap1\n    tag_178:\n      dup3\n      dup3\n      lt\n      iszero\n      tag_179\n      jumpi\n      dup4\n      dup3\n      swap1\n      0x00\n      mstore\n      keccak256(0x00, 0x20)\n      swap1\n      0x07\n      mul\n      add\n      mload(0x40)\n      dup1\n      0xe0\n      add\n      0x40\n      mstore\n      swap1\n      dup2\n      0x00\n      dup3\n      add\n      sload\n      dup2\n      mstore\n      0x20\n      add\n      0x01\n      dup3\n      add\n      dup1\n      sload\n      tag_181\n      swap1\n      tag_182\n      jump\t// in\n    tag_181:\n      dup1\n      0x1f\n      add\n      0x20\n      dup1\n      swap2\n      div\n      mul\n      0x20\n      add\n      mload(0x40)\n      swap1\n      dup2\n      add\n      0x40\n      mstore\n      dup1\n      swap3\n      swap2\n      swap1\n      dup2\n      dup2\n      mstore\n      0x20\n      add\n      dup3\n      dup1\n      sload\n      tag_183\n      swap1\n      tag_182\n      jump\t// in\n    tag_183:\n      dup1\n      iszero\n      tag_184\n      jumpi\n      dup1\n      0x1f\n      lt\n      tag_185\n      jumpi\n      0x0100\n      dup1\n      dup4\n      sload\n      div\n      mul\n      dup4\n      mstore\n      swap2\n      0x20\n      add\n      swap2\n      jump(tag_184)\n    tag_185:\n      dup3\n      add\n      swap2\n      swap1\n      0x00\n      mstore\n      keccak256(0x00, 0x20)\n      swap1\n    tag_186:\n      dup2\n      sload\n      dup2\n      mstore\n      swap1\n      0x01\n      add\n      swap1\n      0x20\n      add\n      dup1\n      dup4\n      gt\n      tag_186\n      jumpi\n      dup3\n      swap1\n      sub\n      0x1f\n      and\n      dup3\n      add\n      swap2\n    tag_184:\n      pop\n      pop\n      pop\n      pop\n      pop\n      dup2\n      mstore\n      0x20\n      add\n      0x02\n      dup3\n      add\n      dup1\n      sload\n      tag_187\n      swap1\n      tag_182\n      jump\t// in\n    tag_187:\n      dup1\n      0x1f\n      add\n      0x20\n      dup1\n      swap2\n      div\n      mul\n      0x20\n      add\n      mload(0x40)\n      swap1\n      dup2\n      add\n      0x40\n      mstore\n      dup1\n      swap3\n      swap2\n      swap1\n      dup2\n      dup2\n      mstore\n      0x20\n      add\n      dup3\n      dup1\n      sload\n      tag_188\n      swap1\n      tag_182\n      jump\t// in\n    tag_188:\n      dup1\n      iszero\n      tag_189\n      jumpi\n      dup1\n      0x1f\n      lt\n      tag_190\n      jumpi\n      0x0100\n      dup1\n      dup4\n      sload\n      div\n      mul\n      dup4\n      mstore\n      swap2\n      0x20\n      add\n      swap2\n      jump(tag_189)\n    tag_190:\n      dup3\n      add\n      swap2\n      swap1\n      0x00\n      mstore\n      keccak256(0x00, 0x20)\n      swap1\n    tag_191:\n      dup2\n      sload\n      dup2\n      mstore\n      swap1\n      0x01\n      add\n      swap1\n      0x20\n      add\n      dup1\n      dup4\n      gt\n      tag_191\n      jumpi\n      dup3\n      swap1\n      sub\n      0x1f\n      and\n      dup3\n      add\n      swap2\n    tag_189:\n      pop\n      pop\n      pop\n      pop\n      pop\n      dup2\n      mstore\n      0x20\n      add\n      0x03\n      dup3\n      add\n      dup1\n      sload\n      tag_192\n      swap1\n      tag_182\n      jump\t// in\n    tag_192:\n      dup1\n      0x1f\n      add\n      0x20\n      dup1\n      swap2\n      div\n      mul\n      0x20\n      add\n      mload(0x40)\n      swap1\n      dup2\n      add\n      0x40\n      mstore\n      dup1\n      swap3\n      swap2\n      swap1\n      dup2\n      dup2\n      mstore\n      0x20\n      add\n      dup3\n      dup1\n      sload\n      tag_193\n      swap1\n      tag_182\n      jump\t// in\n    tag_193:\n      dup1\n      iszero\n      tag_194\n      jumpi\n      dup1\n      0x1f\n      lt\n      tag_195\n      jumpi\n      0x0100\n      dup1\n      dup4\n      sload\n      div\n      mul\n      dup4\n      mstore\n      swap2\n      0x20\n      add\n      swap2\n      jump(tag_194)\n    tag_195:\n      dup3\n      add\n      swap2\n      swap1\n      0x00\n      mstore\n      keccak256(0x00, 0x20)\n      swap1\n    tag_196:\n      dup2\n      sload\n      dup2\n      mstore\n      swap1\n      0x01\n      add\n      swap1\n      0x20\n      add\n      dup1\n      dup4\n      gt\n      tag_196\n      jumpi\n      dup3\n      swap1\n      sub\n      0x1f\n      and\n      dup3\n      add\n      swap2\n    tag_194:\n      pop\n      pop\n      pop\n      pop\n      pop\n      dup2\n      mstore\n      0x20\n      add\n      0x04\n      dup3\n      add\n      dup1\n      sload\n      tag_197\n      swap1\n      tag_182\n      jump\t// in\n    tag_197:\n      dup1\n      0x1f\n      add\n      0x20\n      dup1\n      swap2\n      div\n      mul\n      0x20\n      add\n      mload(0x40)\n      swap1\n      dup2\n      add\n      0x40\n      mstore\n      dup1\n      swap3\n      swap2\n      swap1\n      dup2\n      dup2\n      mstore\n      0x20\n      add\n      dup3\n      dup1\n      sload\n      tag_198\n      swap1\n      tag_182\n      jump\t// in\n    tag_198:\n      dup1\n      iszero\n      tag_199\n      jumpi\n      dup1\n      0x1f\n      lt\n      tag_200\n      jumpi\n      0x0100\n      dup1\n      dup4\n      sload\n      div\n      mul\n      dup4\n      mstore\n      swap2\n      0x20\n      add\n      swap2\n      jump(tag_199)\n    tag_200:\n      dup3\n      add\n      swap2\n      swap1\n      0x00\n      mstore\n      keccak256(0x00, 0x20)\n      swap1\n    tag_201:\n      dup2\n      sload\n      dup2\n      mstore\n      swap1\n      0x01\n      add\n      swap1\n      0x20\n      add\n      dup1\n      dup4\n      gt\n      tag_201\n      jumpi\n      dup3\n      swap1\n      sub\n      0x1f\n      and\n      dup3\n      add\n      swap2\n    tag_199:\n      pop\n      pop\n      pop\n      pop\n      pop\n      dup2\n      mstore\n      0x20\n      add\n      0x05\n      dup3\n      add\n      dup1\n      sload\n      tag_202\n      swap1\n      tag_182\n      jump\t// in\n    tag_202:\n      dup1\n      0x1f\n      add\n      0x20\n      dup1\n      swap2\n      div\n      mul\n      0x20\n      add\n      mload(0x40)\n      swap1\n      dup2\n      add\n      0x40\n      mstore\n      dup1\n      swap3\n      swap2\n      swap1\n      dup2\n      dup2\n      mstore\n      0x20\n      add\n      dup3\n      dup1\n      sload\n      tag_203\n      swap1\n      tag_182\n      jump\t// in\n    tag_203:\n      dup1\n      iszero\n      tag_204\n      jumpi\n      dup1\n      0x1f\n      lt\n      tag_205\n      jumpi\n      0x0100\n      dup1\n      dup4\n      sload\n      div\n      mul\n      dup4\n      mstore\n      swap2\n      0x20\n      add\n      swap2\n      jump(tag_204)\n    tag_205:\n      dup3\n      add\n      swap2\n      swap1\n      0x00\n      mstore\n      keccak256(0x00, 0x20)\n      swap1\n    tag_206:\n      dup2\n      sload\n      dup2\n      mstore\n      swap1\n      0x01\n      add\n      swap1\n      0x20\n      add\n      dup1\n      dup4\n      gt\n      tag_206\n      jumpi\n      dup3\n      swap1\n      sub\n      0x1f\n      and\n      dup3\n      add\n      swap2\n    tag_204:\n      pop\n      pop\n      pop\n      pop\n      pop\n      dup2\n      mstore\n      0x20\n      add\n      0x06\n      dup3\n      add\n      sload\n      dup2\n      mstore\n      pop\n      pop\n      dup2\n      mstore\n      0x20\n      add\n      swap1\n      0x01\n      add\n      swap1\n      jump(tag_178)\n    tag_179:\n      pop\n      pop\n      pop\n      pop\n      swap1\n      pop\n        /* \"moonx/moonx.sol\":6148:6155  quizzes */\n      dup1\n        /* \"moonx/moonx.sol\":6148:6162  quizzes.length */\n      mload\n        /* \"moonx/moonx.sol\":6129:6137  _answers */\n      dup5\n        /* \"moonx/moonx.sol\":6129:6144  _answers.length */\n      mload\n        /* \"moonx/moonx.sol\":6129:6162  _answers.length == quizzes.length */\n      eq\n        /* \"moonx/moonx.sol\":6121:6188  require(_answers.length == quizzes.length, \"Answer count mismatch\") */\n      tag_207\n      jumpi\n      mload(0x40)\n      0x08c379a000000000000000000000000000000000000000000000000000000000\n      dup2\n      mstore\n      0x04\n      add\n      tag_208\n      swap1\n      tag_209\n      jump\t// in\n    tag_208:\n      mload(0x40)\n      dup1\n      swap2\n      sub\n      swap1\n      revert\n    tag_207:\n        /* \"moonx/moonx.sol\":6199:6210  bool passed */\n      0x00\n        /* \"moonx/moonx.sol\":6213:6217  true */\n      0x01\n        /* \"moonx/moonx.sol\":6199:6217  bool passed = true */\n      swap1\n      pop\n        /* \"moonx/moonx.sol\":6233:6242  uint256 i */\n      0x00\n        /* \"moonx/moonx.sol\":6228:6445  for (uint256 i = 0; i < quizzes.length; i++) {... */\n    tag_210:\n        /* \"moonx/moonx.sol\":6252:6259  quizzes */\n      dup3\n        /* \"moonx/moonx.sol\":6252:6266  quizzes.length */\n      mload\n        /* \"moonx/moonx.sol\":6248:6249  i */\n      dup2\n        /* \"moonx/moonx.sol\":6248:6266  i < quizzes.length */\n      lt\n        /* \"moonx/moonx.sol\":6228:6445  for (uint256 i = 0; i < quizzes.length; i++) {... */\n      iszero\n      tag_211\n      jumpi\n        /* \"moonx/moonx.sol\":6335:6342  quizzes */\n      dup3\n        /* \"moonx/moonx.sol\":6343:6344  i */\n      dup2\n        /* \"moonx/moonx.sol\":6335:6345  quizzes[i] */\n      dup2\n      mload\n      dup2\n      lt\n      tag_213\n      jumpi\n      tag_214\n      tag_215\n      jump\t// in\n    tag_214:\n    tag_213:\n      0x20\n      mul\n      0x20\n      add\n      add\n      mload\n        /* \"moonx/moonx.sol\":6335:6363  quizzes[i].correctAnswerHash */\n      0xc0\n      add\n      mload\n        /* \"moonx/moonx.sol\":6318:6326  _answers */\n      dup7\n        /* \"moonx/moonx.sol\":6327:6328  i */\n      dup3\n        /* \"moonx/moonx.sol\":6318:6329  _answers[i] */\n      dup2\n      mload\n      dup2\n      lt\n      tag_216\n      jumpi\n      tag_217\n      tag_215\n      jump\t// in\n    tag_217:\n    tag_216:\n      0x20\n      mul\n      0x20\n      add\n      add\n      mload\n        /* \"moonx/moonx.sol\":6301:6330  abi.encodePacked(_answers[i]) */\n      add(0x20, mload(0x40))\n      tag_218\n      swap2\n      swap1\n      tag_219\n      jump\t// in\n    tag_218:\n      mload(0x40)\n      0x20\n      dup2\n      dup4\n      sub\n      sub\n      dup2\n      mstore\n      swap1\n      0x40\n      mstore\n        /* \"moonx/moonx.sol\":6291:6331  keccak256(abi.encodePacked(_answers[i])) */\n      dup1\n      mload\n      swap1\n      0x20\n      add\n      keccak256\n        /* \"moonx/moonx.sol\":6291:6363  keccak256(abi.encodePacked(_answers[i])) != quizzes[i].correctAnswerHash */\n      eq\n        /* \"moonx/moonx.sol\":6287:6435  if (keccak256(abi.encodePacked(_answers[i])) != quizzes[i].correctAnswerHash) {... */\n      tag_220\n      jumpi\n        /* \"moonx/moonx.sol\":6392:6397  false */\n      0x00\n        /* \"moonx/moonx.sol\":6383:6397  passed = false */\n      swap2\n      pop\n        /* \"moonx/moonx.sol\":6415:6420  break */\n      jump(tag_211)\n        /* \"moonx/moonx.sol\":6287:6435  if (keccak256(abi.encodePacked(_answers[i])) != quizzes[i].correctAnswerHash) {... */\n    tag_220:\n        /* \"moonx/moonx.sol\":6268:6271  i++ */\n      dup1\n      dup1\n      0x01\n      add\n      swap2\n      pop\n      pop\n        /* \"moonx/moonx.sol\":6228:6445  for (uint256 i = 0; i < quizzes.length; i++) {... */\n      jump(tag_210)\n    tag_211:\n      pop\n        /* \"moonx/moonx.sol\":6459:6465  passed */\n      dup1\n        /* \"moonx/moonx.sol\":6455:6915  if (passed) {... */\n      iszero\n      tag_221\n      jumpi\n        /* \"moonx/moonx.sol\":6504:6508  true */\n      0x01\n        /* \"moonx/moonx.sol\":6481:6491  enrollment */\n      dup4\n        /* \"moonx/moonx.sol\":6481:6501  enrollment.hasPassed */\n      0x00\n      add\n      0x02\n        /* \"moonx/moonx.sol\":6481:6508  enrollment.hasPassed = true */\n      0x0100\n      exp\n      dup2\n      sload\n      dup2\n      0xff\n      mul\n      not\n      and\n      swap1\n      dup4\n      iszero\n      iszero\n      mul\n      or\n      swap1\n      sstore\n      pop\n        /* \"moonx/moonx.sol\":6522:6529  courses */\n      0x04\n        /* \"moonx/moonx.sol\":6522:6540  courses[_courseId] */\n      0x00\n        /* \"moonx/moonx.sol\":6530:6539  _courseId */\n      dup8\n        /* \"moonx/moonx.sol\":6522:6540  courses[_courseId] */\n      dup2\n      mstore\n      0x20\n      add\n      swap1\n      dup2\n      mstore\n      0x20\n      add\n      0x00\n      keccak256\n        /* \"moonx/moonx.sol\":6522:6555  courses[_courseId].passedStudents */\n      0x03\n      add\n      0x00\n        /* \"moonx/moonx.sol\":6522:6557  courses[_courseId].passedStudents++ */\n      dup2\n      sload\n      dup1\n      swap3\n      swap2\n      swap1\n      tag_222\n      swap1\n      tag_223\n      jump\t// in\n    tag_222:\n      swap2\n      swap1\n      pop\n      sstore\n      pop\n        /* \"moonx/moonx.sol\":525:533  10 ether */\n      0x8ac7230489e80000\n        /* \"moonx/moonx.sol\":6571:6578  courses */\n      0x04\n        /* \"moonx/moonx.sol\":6571:6589  courses[_courseId] */\n      0x00\n        /* \"moonx/moonx.sol\":6579:6588  _courseId */\n      dup9\n        /* \"moonx/moonx.sol\":6571:6589  courses[_courseId] */\n      dup2\n      mstore\n      0x20\n      add\n      swap1\n      dup2\n      mstore\n      0x20\n      add\n      0x00\n      keccak256\n        /* \"moonx/moonx.sol\":6571:6603  courses[_courseId].totalRewarded */\n      0x04\n      add\n      0x00\n        /* \"moonx/moonx.sol\":6571:6628  courses[_courseId].totalRewarded += STUDENT_REWARD_AMOUNT */\n      dup3\n      dup3\n      sload\n      tag_224\n      swap2\n      swap1\n      tag_160\n      jump\t// in\n    tag_224:\n      swap3\n      pop\n      pop\n      dup2\n      swap1\n      sstore\n      pop\n        /* \"moonx/moonx.sol\":6696:6708  bool success */\n      0x00\n        /* \"moonx/moonx.sol\":6722:6732  msg.sender */\n      caller\n        /* \"moonx/moonx.sol\":6714:6738  payable(msg.sender).call */\n      0xffffffffffffffffffffffffffffffffffffffff\n      and\n        /* \"moonx/moonx.sol\":525:533  10 ether */\n      0x8ac7230489e80000\n        /* \"moonx/moonx.sol\":6714:6772  payable(msg.sender).call{value: STUDENT_REWARD_AMOUNT}(\"\") */\n      mload(0x40)\n      tag_225\n      swap1\n      tag_226\n      jump\t// in\n    tag_225:\n      0x00\n      mload(0x40)\n      dup1\n      dup4\n      sub\n      dup2\n      dup6\n      dup8\n      gas\n      call\n      swap3\n      pop\n      pop\n      pop\n      returndatasize\n      dup1\n      0x00\n      dup2\n      eq\n      tag_229\n      jumpi\n      mload(0x40)\n      swap2\n      pop\n      and(add(returndatasize, 0x3f), not(0x1f))\n      dup3\n      add\n      0x40\n      mstore\n      returndatasize\n      dup3\n      mstore\n      returndatasize\n      0x00\n      0x20\n      dup5\n      add\n      returndatacopy\n      jump(tag_228)\n    tag_229:\n      0x60\n      swap2\n      pop\n    tag_228:\n      pop\n        /* \"moonx/moonx.sol\":6695:6772  (bool success, ) = payable(msg.sender).call{value: STUDENT_REWARD_AMOUNT}(\"\") */\n      pop\n      swap1\n      pop\n        /* \"moonx/moonx.sol\":6794:6801  success */\n      dup1\n        /* \"moonx/moonx.sol\":6786:6825  require(success, \"Failed to send MAND\") */\n      tag_230\n      jumpi\n      mload(0x40)\n      0x08c379a000000000000000000000000000000000000000000000000000000000\n      dup2\n      mstore\n      0x04\n      add\n      tag_231\n      swap1\n      tag_232\n      jump\t// in\n    tag_231:\n      mload(0x40)\n      dup1\n      swap2\n      sub\n      swap1\n      revert\n    tag_230:\n        /* \"moonx/moonx.sol\":6870:6880  msg.sender */\n      caller\n        /* \"moonx/moonx.sol\":6845:6904  RewardClaimed(_courseId, msg.sender, STUDENT_REWARD_AMOUNT) */\n      0xffffffffffffffffffffffffffffffffffffffff\n      and\n        /* \"moonx/moonx.sol\":6859:6868  _courseId */\n      dup8\n        /* \"moonx/moonx.sol\":6845:6904  RewardClaimed(_courseId, msg.sender, STUDENT_REWARD_AMOUNT) */\n      0x24b5efa61dd1cfc659205a97fb8ed868f3cb8c81922bab2b96423e5de1de2cb7\n        /* \"moonx/moonx.sol\":525:533  10 ether */\n      0x8ac7230489e80000\n        /* \"moonx/moonx.sol\":6845:6904  RewardClaimed(_courseId, msg.sender, STUDENT_REWARD_AMOUNT) */\n      mload(0x40)\n      tag_233\n      swap2\n      swap1\n      tag_47\n      jump\t// in\n    tag_233:\n      mload(0x40)\n      dup1\n      swap2\n      sub\n      swap1\n      log3\n        /* \"moonx/moonx.sol\":6467:6915  {... */\n      pop\n        /* \"moonx/moonx.sol\":6455:6915  if (passed) {... */\n    tag_221:\n        /* \"moonx/moonx.sol\":6955:6965  msg.sender */\n      caller\n        /* \"moonx/moonx.sol\":6930:6974  QuizAttempted(_courseId, msg.sender, passed) */\n      0xffffffffffffffffffffffffffffffffffffffff\n      and\n        /* \"moonx/moonx.sol\":6944:6953  _courseId */\n      dup7\n        /* \"moonx/moonx.sol\":6930:6974  QuizAttempted(_courseId, msg.sender, passed) */\n      0xaee8895c1bf669485cee2dd54d1eee9e65b02a244afb6f798f95d72405cdf7a5\n        /* \"moonx/moonx.sol\":6967:6973  passed */\n      dup4\n        /* \"moonx/moonx.sol\":6930:6974  QuizAttempted(_courseId, msg.sender, passed) */\n      mload(0x40)\n      tag_234\n      swap2\n      swap1\n      tag_63\n      jump\t// in\n    tag_234:\n      mload(0x40)\n      dup1\n      swap2\n      sub\n      swap1\n      log3\n        /* \"moonx/moonx.sol\":5712:6981  {... */\n      pop\n      pop\n      pop\n        /* \"moonx/moonx.sol\":2608:2866  {... */\n      pop\n        /* \"moonx/moonx.sol\":5611:6981  function attemptQuiz(uint256 _courseId, string[] memory _answers) external payable COLLECTPLATFORMTX {... */\n      pop\n      pop\n      jump\t// out\n        /* \"moonx/moonx.sol\":5077:5604  function enrollInCourse(uint256 _courseId) external payable whenNotPaused COLLECTPLATFORMTX {... */\n    tag_71:\n        /* \"@openzeppelin/contracts/security/Pausable.sol\":1239:1258  _requireNotPaused() */\n      tag_236\n        /* \"@openzeppelin/contracts/security/Pausable.sol\":1239:1256  _requireNotPaused */\n      tag_237\n        /* \"@openzeppelin/contracts/security/Pausable.sol\":1239:1258  _requireNotPaused() */\n      jump\t// in\n    tag_236:\n        /* \"moonx/moonx.sol\":690:700  0.75 ether */\n      0x0a688906bd8b0000\n        /* \"moonx/moonx.sol\":2626:2635  msg.value */\n      callvalue\n        /* \"moonx/moonx.sol\":2626:2649  msg.value >= PLATFORMTX */\n      lt\n      iszero\n        /* \"moonx/moonx.sol\":2618:2674  require(msg.value >= PLATFORMTX, \"Insufficient gas fee\") */\n      tag_239\n      jumpi\n      mload(0x40)\n      0x08c379a000000000000000000000000000000000000000000000000000000000\n      dup2\n      mstore\n      0x04\n      add\n      tag_240\n      swap1\n      tag_158\n      jump\t// in\n    tag_240:\n      mload(0x40)\n      dup1\n      swap2\n      sub\n      swap1\n      revert\n    tag_239:\n        /* \"moonx/moonx.sol\":690:700  0.75 ether */\n      0x0a688906bd8b0000\n        /* \"moonx/moonx.sol\":2684:2699  accumulatedFees */\n      0x03\n      0x00\n        /* \"moonx/moonx.sol\":2684:2713  accumulatedFees += PLATFORMTX */\n      dup3\n      dup3\n      sload\n      tag_241\n      swap2\n      swap1\n      tag_160\n      jump\t// in\n    tag_241:\n      swap3\n      pop\n      pop\n      dup2\n      swap1\n      sstore\n      pop\n        /* \"moonx/moonx.sol\":2723:2737  uint256 excess */\n      0x00\n        /* \"moonx/moonx.sol\":690:700  0.75 ether */\n      0x0a688906bd8b0000\n        /* \"moonx/moonx.sol\":2740:2749  msg.value */\n      callvalue\n        /* \"moonx/moonx.sol\":2740:2762  msg.value - PLATFORMTX */\n      tag_242\n      swap2\n      swap1\n      tag_162\n      jump\t// in\n    tag_242:\n        /* \"moonx/moonx.sol\":2723:2762  uint256 excess = msg.value - PLATFORMTX */\n      swap1\n      pop\n        /* \"moonx/moonx.sol\":2785:2786  0 */\n      0x00\n        /* \"moonx/moonx.sol\":2776:2782  excess */\n      dup2\n        /* \"moonx/moonx.sol\":2776:2786  excess > 0 */\n      gt\n        /* \"moonx/moonx.sol\":2772:2849  if (excess > 0) {... */\n      iszero\n      tag_243\n      jumpi\n        /* \"moonx/moonx.sol\":2810:2820  msg.sender */\n      caller\n        /* \"moonx/moonx.sol\":2802:2830  payable(msg.sender).transfer */\n      0xffffffffffffffffffffffffffffffffffffffff\n      and\n        /* \"moonx/moonx.sol\":2802:2838  payable(msg.sender).transfer(excess) */\n      0x08fc\n        /* \"moonx/moonx.sol\":2831:2837  excess */\n      dup3\n        /* \"moonx/moonx.sol\":2802:2838  payable(msg.sender).transfer(excess) */\n      swap1\n      dup2\n      iszero\n      mul\n      swap1\n      mload(0x40)\n      0x00\n      mload(0x40)\n      dup1\n      dup4\n      sub\n      dup2\n      dup6\n      dup9\n      dup9\n      call\n      swap4\n      pop\n      pop\n      pop\n      pop\n      iszero\n      dup1\n      iszero\n      tag_245\n      jumpi\n      returndatasize\n      0x00\n      dup1\n      returndatacopy\n      revert(0x00, returndatasize)\n    tag_245:\n      pop\n        /* \"moonx/moonx.sol\":2772:2849  if (excess > 0) {... */\n    tag_243:\n        /* \"moonx/moonx.sol\":422:423  5 */\n      0x05\n        /* \"moonx/moonx.sol\":5187:5205  reputationContract */\n      0x01\n      0x00\n      swap1\n      sload\n      swap1\n      0x0100\n      exp\n      swap1\n      div\n      0xffffffffffffffffffffffffffffffffffffffff\n      and\n        /* \"moonx/moonx.sol\":5187:5216  reputationContract.reputation */\n      0xffffffffffffffffffffffffffffffffffffffff\n      and\n      0xb9f79451\n        /* \"moonx/moonx.sol\":5217:5227  msg.sender */\n      caller\n        /* \"moonx/moonx.sol\":5187:5228  reputationContract.reputation(msg.sender) */\n      mload(0x40)\n      dup3\n      0xffffffff\n      and\n      0xe0\n      shl\n      dup2\n      mstore\n      0x04\n      add\n      tag_247\n      swap2\n      swap1\n      tag_99\n      jump\t// in\n    tag_247:\n      0x20\n      mload(0x40)\n      dup1\n      dup4\n      sub\n      dup2\n      dup7\n      gas\n      staticcall\n      iszero\n      dup1\n      iszero\n      tag_249\n      jumpi\n      returndatasize\n      0x00\n      dup1\n      returndatacopy\n      revert(0x00, returndatasize)\n    tag_249:\n      pop\n      pop\n      pop\n      pop\n      mload(0x40)\n      returndatasize\n      not(0x1f)\n      0x1f\n      dup3\n      add\n      and\n      dup3\n      add\n      dup1\n      0x40\n      mstore\n      pop\n      dup2\n      add\n      swap1\n      tag_250\n      swap2\n      swap1\n      tag_251\n      jump\t// in\n    tag_250:\n        /* \"moonx/moonx.sol\":5187:5248  reputationContract.reputation(msg.sender) >= ENROLL_THRESHOLD */\n      lt\n      iszero\n        /* \"moonx/moonx.sol\":5179:5286  require(reputationContract.reputation(msg.sender) >= ENROLL_THRESHOLD, \"Insufficient reputation to enroll\") */\n      tag_252\n      jumpi\n      mload(0x40)\n      0x08c379a000000000000000000000000000000000000000000000000000000000\n      dup2\n      mstore\n      0x04\n      add\n      tag_253\n      swap1\n      tag_254\n      jump\t// in\n    tag_253:\n      mload(0x40)\n      dup1\n      swap2\n      sub\n      swap1\n      revert\n    tag_252:\n        /* \"moonx/moonx.sol\":5304:5311  courses */\n      0x04\n        /* \"moonx/moonx.sol\":5304:5322  courses[_courseId] */\n      0x00\n        /* \"moonx/moonx.sol\":5312:5321  _courseId */\n      dup4\n        /* \"moonx/moonx.sol\":5304:5322  courses[_courseId] */\n      dup2\n      mstore\n      0x20\n      add\n      swap1\n      dup2\n      mstore\n      0x20\n      add\n      0x00\n      keccak256\n        /* \"moonx/moonx.sol\":5304:5331  courses[_courseId].approved */\n      0x02\n      add\n      0x00\n      swap1\n      sload\n      swap1\n      0x0100\n      exp\n      swap1\n      div\n      0xff\n      and\n        /* \"moonx/moonx.sol\":5296:5355  require(courses[_courseId].approved, \"Course not approved\") */\n      tag_255\n      jumpi\n      mload(0x40)\n      0x08c379a000000000000000000000000000000000000000000000000000000000\n      dup2\n      mstore\n      0x04\n      add\n      tag_256\n      swap1\n      tag_257\n      jump\t// in\n    tag_256:\n      mload(0x40)\n      dup1\n      swap2\n      sub\n      swap1\n      revert\n    tag_255:\n        /* \"moonx/moonx.sol\":5374:5385  enrollments */\n      0x05\n        /* \"moonx/moonx.sol\":5374:5397  enrollments[msg.sender] */\n      0x00\n        /* \"moonx/moonx.sol\":5386:5396  msg.sender */\n      caller\n        /* \"moonx/moonx.sol\":5374:5397  enrollments[msg.sender] */\n      0xffffffffffffffffffffffffffffffffffffffff\n      and\n      0xffffffffffffffffffffffffffffffffffffffff\n      and\n      dup2\n      mstore\n      0x20\n      add\n      swap1\n      dup2\n      mstore\n      0x20\n      add\n      0x00\n      keccak256\n        /* \"moonx/moonx.sol\":5374:5408  enrollments[msg.sender][_courseId] */\n      0x00\n        /* \"moonx/moonx.sol\":5398:5407  _courseId */\n      dup4\n        /* \"moonx/moonx.sol\":5374:5408  enrollments[msg.sender][_courseId] */\n      dup2\n      mstore\n      0x20\n      add\n      swap1\n      dup2\n      mstore\n      0x20\n      add\n      0x00\n      keccak256\n        /* \"moonx/moonx.sol\":5374:5419  enrollments[msg.sender][_courseId].isEnrolled */\n      0x00\n      add\n      0x00\n      swap1\n      sload\n      swap1\n      0x0100\n      exp\n      swap1\n      div\n      0xff\n      and\n        /* \"moonx/moonx.sol\":5373:5419  !enrollments[msg.sender][_courseId].isEnrolled */\n      iszero\n        /* \"moonx/moonx.sol\":5365:5440  require(!enrollments[msg.sender][_courseId].isEnrolled, \"Already enrolled\") */\n      tag_258\n      jumpi\n      mload(0x40)\n      0x08c379a000000000000000000000000000000000000000000000000000000000\n      dup2\n      mstore\n      0x04\n      add\n      tag_259\n      swap1\n      tag_260\n      jump\t// in\n    tag_259:\n      mload(0x40)\n      dup1\n      swap2\n      sub\n      swap1\n      revert\n    tag_258:\n        /* \"moonx/moonx.sol\":5499:5503  true */\n      0x01\n        /* \"moonx/moonx.sol\":5451:5462  enrollments */\n      0x05\n        /* \"moonx/moonx.sol\":5451:5474  enrollments[msg.sender] */\n      0x00\n        /* \"moonx/moonx.sol\":5463:5473  msg.sender */\n      caller\n        /* \"moonx/moonx.sol\":5451:5474  enrollments[msg.sender] */\n      0xffffffffffffffffffffffffffffffffffffffff\n      and\n      0xffffffffffffffffffffffffffffffffffffffff\n      and\n      dup2\n      mstore\n      0x20\n      add\n      swap1\n      dup2\n      mstore\n      0x20\n      add\n      0x00\n      keccak256\n        /* \"moonx/moonx.sol\":5451:5485  enrollments[msg.sender][_courseId] */\n      0x00\n        /* \"moonx/moonx.sol\":5475:5484  _courseId */\n      dup5\n        /* \"moonx/moonx.sol\":5451:5485  enrollments[msg.sender][_courseId] */\n      dup2\n      mstore\n      0x20\n      add\n      swap1\n      dup2\n      mstore\n      0x20\n      add\n      0x00\n      keccak256\n        /* \"moonx/moonx.sol\":5451:5496  enrollments[msg.sender][_courseId].isEnrolled */\n      0x00\n      add\n      0x00\n        /* \"moonx/moonx.sol\":5451:5503  enrollments[msg.sender][_courseId].isEnrolled = true */\n      0x0100\n      exp\n      dup2\n      sload\n      dup2\n      0xff\n      mul\n      not\n      and\n      swap1\n      dup4\n      iszero\n      iszero\n      mul\n      or\n      swap1\n      sstore\n      pop\n        /* \"moonx/moonx.sol\":5513:5520  courses */\n      0x04\n        /* \"moonx/moonx.sol\":5513:5531  courses[_courseId] */\n      0x00\n        /* \"moonx/moonx.sol\":5521:5530  _courseId */\n      dup4\n        /* \"moonx/moonx.sol\":5513:5531  courses[_courseId] */\n      dup2\n      mstore\n      0x20\n      add\n      swap1\n      dup2\n      mstore\n      0x20\n      add\n      0x00\n      keccak256\n        /* \"moonx/moonx.sol\":5513:5545  courses[_courseId].totalEnrolled */\n      0x05\n      add\n      0x00\n        /* \"moonx/moonx.sol\":5513:5547  courses[_courseId].totalEnrolled++ */\n      dup2\n      sload\n      dup1\n      swap3\n      swap2\n      swap1\n      tag_261\n      swap1\n      tag_223\n      jump\t// in\n    tag_261:\n      swap2\n      swap1\n      pop\n      sstore\n      pop\n        /* \"moonx/moonx.sol\":5586:5596  msg.sender */\n      caller\n        /* \"moonx/moonx.sol\":5562:5597  UserEnrolled(_courseId, msg.sender) */\n      0xffffffffffffffffffffffffffffffffffffffff\n      and\n        /* \"moonx/moonx.sol\":5575:5584  _courseId */\n      dup3\n        /* \"moonx/moonx.sol\":5562:5597  UserEnrolled(_courseId, msg.sender) */\n      0xfacf1a2842acbad124cbca0a047fe37bc246c68f814e0350c7bd8a022fd1dddb\n      mload(0x40)\n      mload(0x40)\n      dup1\n      swap2\n      sub\n      swap1\n      log3\n        /* \"moonx/moonx.sol\":2608:2866  {... */\n      pop\n        /* \"moonx/moonx.sol\":5077:5604  function enrollInCourse(uint256 _courseId) external payable whenNotPaused COLLECTPLATFORMTX {... */\n      pop\n      jump\t// out\n        /* \"moonx/moonx.sol\":1675:1701  uint256 public courseCount */\n    tag_74:\n      sload(0x07)\n      dup2\n      jump\t// out\n        /* \"@openzeppelin/contracts/access/Ownable.sol\":2293:2394  function renounceOwnership() public virtual onlyOwner {... */\n    tag_78:\n        /* \"@openzeppelin/contracts/access/Ownable.sol\":1531:1544  _checkOwner() */\n      tag_263\n        /* \"@openzeppelin/contracts/access/Ownable.sol\":1531:1542  _checkOwner */\n      tag_150\n        /* \"@openzeppelin/contracts/access/Ownable.sol\":1531:1544  _checkOwner() */\n      jump\t// in\n    tag_263:\n        /* \"@openzeppelin/contracts/access/Ownable.sol\":2357:2387  _transferOwnership(address(0)) */\n      tag_265\n        /* \"@openzeppelin/contracts/access/Ownable.sol\":2384:2385  0 */\n      0x00\n        /* \"@openzeppelin/contracts/access/Ownable.sol\":2357:2375  _transferOwnership */\n      tag_266\n        /* \"@openzeppelin/contracts/access/Ownable.sol\":2357:2387  _transferOwnership(address(0)) */\n      jump\t// in\n    tag_265:\n        /* \"@openzeppelin/contracts/access/Ownable.sol\":2293:2394  function renounceOwnership() public virtual onlyOwner {... */\n      jump\t// out\n        /* \"moonx/moonx.sol\":4845:5071  function approveCourse(uint256 _courseId) external onlyOwner {... */\n    tag_82:\n        /* \"@openzeppelin/contracts/access/Ownable.sol\":1531:1544  _checkOwner() */\n      tag_268\n        /* \"@openzeppelin/contracts/access/Ownable.sol\":1531:1542  _checkOwner */\n      tag_150\n        /* \"@openzeppelin/contracts/access/Ownable.sol\":1531:1544  _checkOwner() */\n      jump\t// in\n    tag_268:\n        /* \"moonx/moonx.sol\":4925:4932  courses */\n      0x04\n        /* \"moonx/moonx.sol\":4925:4943  courses[_courseId] */\n      0x00\n        /* \"moonx/moonx.sol\":4933:4942  _courseId */\n      dup3\n        /* \"moonx/moonx.sol\":4925:4943  courses[_courseId] */\n      dup2\n      mstore\n      0x20\n      add\n      swap1\n      dup2\n      mstore\n      0x20\n      add\n      0x00\n      keccak256\n        /* \"moonx/moonx.sol\":4925:4952  courses[_courseId].approved */\n      0x02\n      add\n      0x00\n      swap1\n      sload\n      swap1\n      0x0100\n      exp\n      swap1\n      div\n      0xff\n      and\n        /* \"moonx/moonx.sol\":4924:4952  !courses[_courseId].approved */\n      iszero\n        /* \"moonx/moonx.sol\":4916:4980  require(!courses[_courseId].approved, \"Course already approved\") */\n      tag_270\n      jumpi\n      mload(0x40)\n      0x08c379a000000000000000000000000000000000000000000000000000000000\n      dup2\n      mstore\n      0x04\n      add\n      tag_271\n      swap1\n      tag_272\n      jump\t// in\n    tag_271:\n      mload(0x40)\n      dup1\n      swap2\n      sub\n      swap1\n      revert\n    tag_270:\n        /* \"moonx/moonx.sol\":5020:5024  true */\n      0x01\n        /* \"moonx/moonx.sol\":4990:4997  courses */\n      0x04\n        /* \"moonx/moonx.sol\":4990:5008  courses[_courseId] */\n      0x00\n        /* \"moonx/moonx.sol\":4998:5007  _courseId */\n      dup4\n        /* \"moonx/moonx.sol\":4990:5008  courses[_courseId] */\n      dup2\n      mstore\n      0x20\n      add\n      swap1\n      dup2\n      mstore\n      0x20\n      add\n      0x00\n      keccak256\n        /* \"moonx/moonx.sol\":4990:5017  courses[_courseId].approved */\n      0x02\n      add\n      0x00\n        /* \"moonx/moonx.sol\":4990:5024  courses[_courseId].approved = true */\n      0x0100\n      exp\n      dup2\n      sload\n      dup2\n      0xff\n      mul\n      not\n      and\n      swap1\n      dup4\n      iszero\n      iszero\n      mul\n      or\n      swap1\n      sstore\n      pop\n        /* \"moonx/moonx.sol\":5054:5063  _courseId */\n      dup1\n        /* \"moonx/moonx.sol\":5039:5064  CourseApproved(_courseId) */\n      0x87c1c0e5cd17beb8c61a3337b32c66021cb179dd6f97d6d9ce923a029092bd45\n      mload(0x40)\n      mload(0x40)\n      dup1\n      swap2\n      sub\n      swap1\n      log2\n        /* \"moonx/moonx.sol\":4845:5071  function approveCourse(uint256 _courseId) external onlyOwner {... */\n      pop\n      jump\t// out\n        /* \"moonx/moonx.sol\":2871:4839  function createCourse(... */\n    tag_86:\n        /* \"@openzeppelin/contracts/security/Pausable.sol\":1239:1258  _requireNotPaused() */\n      tag_274\n        /* \"@openzeppelin/contracts/security/Pausable.sol\":1239:1256  _requireNotPaused */\n      tag_237\n        /* \"@openzeppelin/contracts/security/Pausable.sol\":1239:1258  _requireNotPaused() */\n      jump\t// in\n    tag_274:\n        /* \"moonx/moonx.sol\":690:700  0.75 ether */\n      0x0a688906bd8b0000\n        /* \"moonx/moonx.sol\":2626:2635  msg.value */\n      callvalue\n        /* \"moonx/moonx.sol\":2626:2649  msg.value >= PLATFORMTX */\n      lt\n      iszero\n        /* \"moonx/moonx.sol\":2618:2674  require(msg.value >= PLATFORMTX, \"Insufficient gas fee\") */\n      tag_276\n      jumpi\n      mload(0x40)\n      0x08c379a000000000000000000000000000000000000000000000000000000000\n      dup2\n      mstore\n      0x04\n      add\n      tag_277\n      swap1\n      tag_158\n      jump\t// in\n    tag_277:\n      mload(0x40)\n      dup1\n      swap2\n      sub\n      swap1\n      revert\n    tag_276:\n        /* \"moonx/moonx.sol\":690:700  0.75 ether */\n      0x0a688906bd8b0000\n        /* \"moonx/moonx.sol\":2684:2699  accumulatedFees */\n      0x03\n      0x00\n        /* \"moonx/moonx.sol\":2684:2713  accumulatedFees += PLATFORMTX */\n      dup3\n      dup3\n      sload\n      tag_278\n      swap2\n      swap1\n      tag_160\n      jump\t// in\n    tag_278:\n      swap3\n      pop\n      pop\n      dup2\n      swap1\n      sstore\n      pop\n        /* \"moonx/moonx.sol\":2723:2737  uint256 excess */\n      0x00\n        /* \"moonx/moonx.sol\":690:700  0.75 ether */\n      0x0a688906bd8b0000\n        /* \"moonx/moonx.sol\":2740:2749  msg.value */\n      callvalue\n        /* \"moonx/moonx.sol\":2740:2762  msg.value - PLATFORMTX */\n      tag_279\n      swap2\n      swap1\n      tag_162\n      jump\t// in\n    tag_279:\n        /* \"moonx/moonx.sol\":2723:2762  uint256 excess = msg.value - PLATFORMTX */\n      swap1\n      pop\n        /* \"moonx/moonx.sol\":2785:2786  0 */\n      0x00\n        /* \"moonx/moonx.sol\":2776:2782  excess */\n      dup2\n        /* \"moonx/moonx.sol\":2776:2786  excess > 0 */\n      gt\n        /* \"moonx/moonx.sol\":2772:2849  if (excess > 0) {... */\n      iszero\n      tag_280\n      jumpi\n        /* \"moonx/moonx.sol\":2810:2820  msg.sender */\n      caller\n        /* \"moonx/moonx.sol\":2802:2830  payable(msg.sender).transfer */\n      0xffffffffffffffffffffffffffffffffffffffff\n      and\n        /* \"moonx/moonx.sol\":2802:2838  payable(msg.sender).transfer(excess) */\n      0x08fc\n        /* \"moonx/moonx.sol\":2831:2837  excess */\n      dup3\n        /* \"moonx/moonx.sol\":2802:2838  payable(msg.sender).transfer(excess) */\n      swap1\n      dup2\n      iszero\n      mul\n      swap1\n      mload(0x40)\n      0x00\n      mload(0x40)\n      dup1\n      dup4\n      sub\n      dup2\n      dup6\n      dup9\n      dup9\n      call\n      swap4\n      pop\n      pop\n      pop\n      pop\n      iszero\n      dup1\n      iszero\n      tag_282\n      jumpi\n      returndatasize\n      0x00\n      dup1\n      returndatacopy\n      revert(0x00, returndatasize)\n    tag_282:\n      pop\n        /* \"moonx/moonx.sol\":2772:2849  if (excess > 0) {... */\n    tag_280:\n        /* \"moonx/moonx.sol\":470:471  5 */\n      0x05\n        /* \"moonx/moonx.sol\":3219:3237  reputationContract */\n      0x01\n      0x00\n      swap1\n      sload\n      swap1\n      0x0100\n      exp\n      swap1\n      div\n      0xffffffffffffffffffffffffffffffffffffffff\n      and\n        /* \"moonx/moonx.sol\":3219:3248  reputationContract.reputation */\n      0xffffffffffffffffffffffffffffffffffffffff\n      and\n      0xb9f79451\n        /* \"moonx/moonx.sol\":3249:3259  msg.sender */\n      caller\n        /* \"moonx/moonx.sol\":3219:3260  reputationContract.reputation(msg.sender) */\n      mload(0x40)\n      dup3\n      0xffffffff\n      and\n      0xe0\n      shl\n      dup2\n      mstore\n      0x04\n      add\n      tag_284\n      swap2\n      swap1\n      tag_99\n      jump\t// in\n    tag_284:\n      0x20\n      mload(0x40)\n      dup1\n      dup4\n      sub\n      dup2\n      dup7\n      gas\n      staticcall\n      iszero\n      dup1\n      iszero\n      tag_286\n      jumpi\n      returndatasize\n      0x00\n      dup1\n      returndatacopy\n      revert(0x00, returndatasize)\n    tag_286:\n      pop\n      pop\n      pop\n      pop\n      mload(0x40)\n      returndatasize\n      not(0x1f)\n      0x1f\n      dup3\n      add\n      and\n      dup3\n      add\n      dup1\n      0x40\n      mstore\n      pop\n      dup2\n      add\n      swap1\n      tag_287\n      swap2\n      swap1\n      tag_251\n      jump\t// in\n    tag_287:\n        /* \"moonx/moonx.sol\":3219:3278  reputationContract.reputation(msg.sender) >= POST_THRESHOLD */\n      lt\n      iszero\n        /* \"moonx/moonx.sol\":3211:3323  require(reputationContract.reputation(msg.sender) >= POST_THRESHOLD, \"Insufficient reputation to create course\") */\n      tag_288\n      jumpi\n      mload(0x40)\n      0x08c379a000000000000000000000000000000000000000000000000000000000\n      dup2\n      mstore\n      0x04\n      add\n      tag_289\n      swap1\n      tag_290\n      jump\t// in\n    tag_289:\n      mload(0x40)\n      dup1\n      swap2\n      sub\n      swap1\n      revert\n    tag_288:\n        /* \"moonx/moonx.sol\":3362:3363  5 */\n      0x05\n        /* \"moonx/moonx.sol\":3341:3351  _questions */\n      dup8\n        /* \"moonx/moonx.sol\":3341:3358  _questions.length */\n      mload\n        /* \"moonx/moonx.sol\":3341:3363  _questions.length == 5 */\n      eq\n        /* \"moonx/moonx.sol\":3341:3404  _questions.length == 5 && _questions.length == _optionAs.length */\n      dup1\n      iszero\n      tag_291\n      jumpi\n      pop\n        /* \"moonx/moonx.sol\":3388:3397  _optionAs */\n      dup6\n        /* \"moonx/moonx.sol\":3388:3404  _optionAs.length */\n      mload\n        /* \"moonx/moonx.sol\":3367:3377  _questions */\n      dup8\n        /* \"moonx/moonx.sol\":3367:3384  _questions.length */\n      mload\n        /* \"moonx/moonx.sol\":3367:3404  _questions.length == _optionAs.length */\n      eq\n        /* \"moonx/moonx.sol\":3341:3404  _questions.length == 5 && _questions.length == _optionAs.length */\n    tag_291:\n        /* \"moonx/moonx.sol\":3341:3461  _questions.length == 5 && _questions.length == _optionAs.length &&... */\n      dup1\n      iszero\n      tag_292\n      jumpi\n      pop\n        /* \"moonx/moonx.sol\":3445:3454  _optionBs */\n      dup5\n        /* \"moonx/moonx.sol\":3445:3461  _optionBs.length */\n      mload\n        /* \"moonx/moonx.sol\":3424:3434  _questions */\n      dup8\n        /* \"moonx/moonx.sol\":3424:3441  _questions.length */\n      mload\n        /* \"moonx/moonx.sol\":3424:3461  _questions.length == _optionBs.length */\n      eq\n        /* \"moonx/moonx.sol\":3341:3461  _questions.length == 5 && _questions.length == _optionAs.length &&... */\n    tag_292:\n        /* \"moonx/moonx.sol\":3341:3502  _questions.length == 5 && _questions.length == _optionAs.length &&... */\n      dup1\n      iszero\n      tag_293\n      jumpi\n      pop\n        /* \"moonx/moonx.sol\":3486:3495  _optionCs */\n      dup4\n        /* \"moonx/moonx.sol\":3486:3502  _optionCs.length */\n      mload\n        /* \"moonx/moonx.sol\":3465:3475  _questions */\n      dup8\n        /* \"moonx/moonx.sol\":3465:3482  _questions.length */\n      mload\n        /* \"moonx/moonx.sol\":3465:3502  _questions.length == _optionCs.length */\n      eq\n        /* \"moonx/moonx.sol\":3341:3502  _questions.length == 5 && _questions.length == _optionAs.length &&... */\n    tag_293:\n        /* \"moonx/moonx.sol\":3341:3559  _questions.length == 5 && _questions.length == _optionAs.length &&... */\n      dup1\n      iszero\n      tag_294\n      jumpi\n      pop\n        /* \"moonx/moonx.sol\":3543:3552  _optionDs */\n      dup3\n        /* \"moonx/moonx.sol\":3543:3559  _optionDs.length */\n      mload\n        /* \"moonx/moonx.sol\":3522:3532  _questions */\n      dup8\n        /* \"moonx/moonx.sol\":3522:3539  _questions.length */\n      mload\n        /* \"moonx/moonx.sol\":3522:3559  _questions.length == _optionDs.length */\n      eq\n        /* \"moonx/moonx.sol\":3341:3559  _questions.length == 5 && _questions.length == _optionAs.length &&... */\n    tag_294:\n        /* \"moonx/moonx.sol\":3341:3606  _questions.length == 5 && _questions.length == _optionAs.length &&... */\n      dup1\n      iszero\n      tag_295\n      jumpi\n      pop\n        /* \"moonx/moonx.sol\":3584:3599  _correctAnswers */\n      dup2\n        /* \"moonx/moonx.sol\":3584:3606  _correctAnswers.length */\n      mload\n        /* \"moonx/moonx.sol\":3563:3573  _questions */\n      dup8\n        /* \"moonx/moonx.sol\":3563:3580  _questions.length */\n      mload\n        /* \"moonx/moonx.sol\":3563:3606  _questions.length == _correctAnswers.length */\n      eq\n        /* \"moonx/moonx.sol\":3341:3606  _questions.length == 5 && _questions.length == _optionAs.length &&... */\n    tag_295:\n        /* \"moonx/moonx.sol\":3333:3645  require(_questions.length == 5 && _questions.length == _optionAs.length &&... */\n      tag_296\n      jumpi\n      mload(0x40)\n      0x08c379a000000000000000000000000000000000000000000000000000000000\n      dup2\n      mstore\n      0x04\n      add\n      tag_297\n      swap1\n      tag_298\n      jump\t// in\n    tag_297:\n      mload(0x40)\n      dup1\n      swap2\n      sub\n      swap1\n      revert\n    tag_296:\n        /* \"moonx/moonx.sol\":3656:3672  uint256 courseId */\n      0x00\n        /* \"moonx/moonx.sol\":3675:3686  courseCount */\n      0x07\n      0x00\n        /* \"moonx/moonx.sol\":3675:3688  courseCount++ */\n      dup2\n      sload\n      dup1\n      swap3\n      swap2\n      swap1\n      tag_299\n      swap1\n      tag_223\n      jump\t// in\n    tag_299:\n      swap2\n      swap1\n      pop\n      sstore\n        /* \"moonx/moonx.sol\":3656:3688  uint256 courseId = courseCount++ */\n      swap1\n      pop\n        /* \"moonx/moonx.sol\":3718:3766  Course(msg.sender, _metadataURI, false, 0, 0, 0) */\n      mload(0x40)\n      dup1\n      0xc0\n      add\n      0x40\n      mstore\n      dup1\n        /* \"moonx/moonx.sol\":3725:3735  msg.sender */\n      caller\n        /* \"moonx/moonx.sol\":3718:3766  Course(msg.sender, _metadataURI, false, 0, 0, 0) */\n      0xffffffffffffffffffffffffffffffffffffffff\n      and\n      dup2\n      mstore\n      0x20\n      add\n        /* \"moonx/moonx.sol\":3737:3749  _metadataURI */\n      dup11\n        /* \"moonx/moonx.sol\":3718:3766  Course(msg.sender, _metadataURI, false, 0, 0, 0) */\n      dup2\n      mstore\n      0x20\n      add\n        /* \"moonx/moonx.sol\":3751:3756  false */\n      0x00\n        /* \"moonx/moonx.sol\":3718:3766  Course(msg.sender, _metadataURI, false, 0, 0, 0) */\n      iszero\n      iszero\n      dup2\n      mstore\n      0x20\n      add\n        /* \"moonx/moonx.sol\":3758:3759  0 */\n      0x00\n        /* \"moonx/moonx.sol\":3718:3766  Course(msg.sender, _metadataURI, false, 0, 0, 0) */\n      dup2\n      mstore\n      0x20\n      add\n        /* \"moonx/moonx.sol\":3761:3762  0 */\n      0x00\n        /* \"moonx/moonx.sol\":3718:3766  Course(msg.sender, _metadataURI, false, 0, 0, 0) */\n      dup2\n      mstore\n      0x20\n      add\n        /* \"moonx/moonx.sol\":3764:3765  0 */\n      0x00\n        /* \"moonx/moonx.sol\":3718:3766  Course(msg.sender, _metadataURI, false, 0, 0, 0) */\n      dup2\n      mstore\n      pop\n        /* \"moonx/moonx.sol\":3698:3705  courses */\n      0x04\n        /* \"moonx/moonx.sol\":3698:3715  courses[courseId] */\n      0x00\n        /* \"moonx/moonx.sol\":3706:3714  courseId */\n      dup4\n        /* \"moonx/moonx.sol\":3698:3715  courses[courseId] */\n      dup2\n      mstore\n      0x20\n      add\n      swap1\n      dup2\n      mstore\n      0x20\n      add\n      0x00\n      keccak256\n        /* \"moonx/moonx.sol\":3698:3766  courses[courseId] = Course(msg.sender, _metadataURI, false, 0, 0, 0) */\n      0x00\n      dup3\n      add\n      mload\n      dup2\n      0x00\n      add\n      exp(0x0100, 0x00)\n      dup2\n      sload\n      dup2\n      0xffffffffffffffffffffffffffffffffffffffff\n      mul\n      not\n      and\n      swap1\n      dup4\n      0xffffffffffffffffffffffffffffffffffffffff\n      and\n      mul\n      or\n      swap1\n      sstore\n      pop\n      0x20\n      dup3\n      add\n      mload\n      dup2\n      0x01\n      add\n      swap1\n      dup2\n      tag_300\n      swap2\n      swap1\n      tag_301\n      jump\t// in\n    tag_300:\n      pop\n      0x40\n      dup3\n      add\n      mload\n      dup2\n      0x02\n      add\n      exp(0x0100, 0x00)\n      dup2\n      sload\n      dup2\n      0xff\n      mul\n      not\n      and\n      swap1\n      dup4\n      iszero\n      iszero\n      mul\n      or\n      swap1\n      sstore\n      pop\n      0x60\n      dup3\n      add\n      mload\n      dup2\n      0x03\n      add\n      sstore\n      0x80\n      dup3\n      add\n      mload\n      dup2\n      0x04\n      add\n      sstore\n      0xa0\n      dup3\n      add\n      mload\n      dup2\n      0x05\n      add\n      sstore\n      swap1\n      pop\n      pop\n        /* \"moonx/moonx.sol\":3815:3824  uint256 i */\n      0x00\n        /* \"moonx/moonx.sol\":3810:4782  for (uint256 i = 0; i < _questions.length; i++) {... */\n    tag_302:\n        /* \"moonx/moonx.sol\":3834:3844  _questions */\n      dup9\n        /* \"moonx/moonx.sol\":3834:3851  _questions.length */\n      mload\n        /* \"moonx/moonx.sol\":3830:3831  i */\n      dup2\n        /* \"moonx/moonx.sol\":3830:3851  i < _questions.length */\n      lt\n        /* \"moonx/moonx.sol\":3810:4782  for (uint256 i = 0; i < _questions.length; i++) {... */\n      iszero\n      tag_303\n      jumpi\n        /* \"moonx/moonx.sol\":3958:3979  abi.encodePacked(\"A\") */\n      add(0x20, mload(0x40))\n      tag_305\n      swap1\n      tag_306\n      jump\t// in\n    tag_305:\n      mload(0x40)\n      0x20\n      dup2\n      dup4\n      sub\n      sub\n      dup2\n      mstore\n      swap1\n      0x40\n      mstore\n        /* \"moonx/moonx.sol\":3948:3980  keccak256(abi.encodePacked(\"A\")) */\n      dup1\n      mload\n      swap1\n      0x20\n      add\n      keccak256\n        /* \"moonx/moonx.sol\":3924:3939  _correctAnswers */\n      dup5\n        /* \"moonx/moonx.sol\":3940:3941  i */\n      dup3\n        /* \"moonx/moonx.sol\":3924:3942  _correctAnswers[i] */\n      dup2\n      mload\n      dup2\n      lt\n      tag_307\n      jumpi\n      tag_308\n      tag_215\n      jump\t// in\n    tag_308:\n    tag_307:\n      0x20\n      mul\n      0x20\n      add\n      add\n      mload\n        /* \"moonx/moonx.sol\":3907:3943  abi.encodePacked(_correctAnswers[i]) */\n      add(0x20, mload(0x40))\n      tag_309\n      swap2\n      swap1\n      tag_219\n      jump\t// in\n    tag_309:\n      mload(0x40)\n      0x20\n      dup2\n      dup4\n      sub\n      sub\n      dup2\n      mstore\n      swap1\n      0x40\n      mstore\n        /* \"moonx/moonx.sol\":3897:3944  keccak256(abi.encodePacked(_correctAnswers[i])) */\n      dup1\n      mload\n      swap1\n      0x20\n      add\n      keccak256\n        /* \"moonx/moonx.sol\":3897:3980  keccak256(abi.encodePacked(_correctAnswers[i])) == keccak256(abi.encodePacked(\"A\")) */\n      eq\n        /* \"moonx/moonx.sol\":3897:4083  keccak256(abi.encodePacked(_correctAnswers[i])) == keccak256(abi.encodePacked(\"A\")) ||... */\n      dup1\n      tag_310\n      jumpi\n      pop\n        /* \"moonx/moonx.sol\":4061:4082  abi.encodePacked(\"B\") */\n      add(0x20, mload(0x40))\n      tag_311\n      swap1\n      tag_312\n      jump\t// in\n    tag_311:\n      mload(0x40)\n      0x20\n      dup2\n      dup4\n      sub\n      sub\n      dup2\n      mstore\n      swap1\n      0x40\n      mstore\n        /* \"moonx/moonx.sol\":4051:4083  keccak256(abi.encodePacked(\"B\")) */\n      dup1\n      mload\n      swap1\n      0x20\n      add\n      keccak256\n        /* \"moonx/moonx.sol\":4027:4042  _correctAnswers */\n      dup5\n        /* \"moonx/moonx.sol\":4043:4044  i */\n      dup3\n        /* \"moonx/moonx.sol\":4027:4045  _correctAnswers[i] */\n      dup2\n      mload\n      dup2\n      lt\n      tag_313\n      jumpi\n      tag_314\n      tag_215\n      jump\t// in\n    tag_314:\n    tag_313:\n      0x20\n      mul\n      0x20\n      add\n      add\n      mload\n        /* \"moonx/moonx.sol\":4010:4046  abi.encodePacked(_correctAnswers[i]) */\n      add(0x20, mload(0x40))\n      tag_315\n      swap2\n      swap1\n      tag_219\n      jump\t// in\n    tag_315:\n      mload(0x40)\n      0x20\n      dup2\n      dup4\n      sub\n      sub\n      dup2\n      mstore\n      swap1\n      0x40\n      mstore\n        /* \"moonx/moonx.sol\":4000:4047  keccak256(abi.encodePacked(_correctAnswers[i])) */\n      dup1\n      mload\n      swap1\n      0x20\n      add\n      keccak256\n        /* \"moonx/moonx.sol\":4000:4083  keccak256(abi.encodePacked(_correctAnswers[i])) == keccak256(abi.encodePacked(\"B\")) */\n      eq\n        /* \"moonx/moonx.sol\":3897:4083  keccak256(abi.encodePacked(_correctAnswers[i])) == keccak256(abi.encodePacked(\"A\")) ||... */\n    tag_310:\n        /* \"moonx/moonx.sol\":3897:4186  keccak256(abi.encodePacked(_correctAnswers[i])) == keccak256(abi.encodePacked(\"A\")) ||... */\n      dup1\n      tag_316\n      jumpi\n      pop\n        /* \"moonx/moonx.sol\":4164:4185  abi.encodePacked(\"C\") */\n      add(0x20, mload(0x40))\n      tag_317\n      swap1\n      tag_318\n      jump\t// in\n    tag_317:\n      mload(0x40)\n      0x20\n      dup2\n      dup4\n      sub\n      sub\n      dup2\n      mstore\n      swap1\n      0x40\n      mstore\n        /* \"moonx/moonx.sol\":4154:4186  keccak256(abi.encodePacked(\"C\")) */\n      dup1\n      mload\n      swap1\n      0x20\n      add\n      keccak256\n        /* \"moonx/moonx.sol\":4130:4145  _correctAnswers */\n      dup5\n        /* \"moonx/moonx.sol\":4146:4147  i */\n      dup3\n        /* \"moonx/moonx.sol\":4130:4148  _correctAnswers[i] */\n      dup2\n      mload\n      dup2\n      lt\n      tag_319\n      jumpi\n      tag_320\n      tag_215\n      jump\t// in\n    tag_320:\n    tag_319:\n      0x20\n      mul\n      0x20\n      add\n      add\n      mload\n        /* \"moonx/moonx.sol\":4113:4149  abi.encodePacked(_correctAnswers[i]) */\n      add(0x20, mload(0x40))\n      tag_321\n      swap2\n      swap1\n      tag_219\n      jump\t// in\n    tag_321:\n      mload(0x40)\n      0x20\n      dup2\n      dup4\n      sub\n      sub\n      dup2\n      mstore\n      swap1\n      0x40\n      mstore\n        /* \"moonx/moonx.sol\":4103:4150  keccak256(abi.encodePacked(_correctAnswers[i])) */\n      dup1\n      mload\n      swap1\n      0x20\n      add\n      keccak256\n        /* \"moonx/moonx.sol\":4103:4186  keccak256(abi.encodePacked(_correctAnswers[i])) == keccak256(abi.encodePacked(\"C\")) */\n      eq\n        /* \"moonx/moonx.sol\":3897:4186  keccak256(abi.encodePacked(_correctAnswers[i])) == keccak256(abi.encodePacked(\"A\")) ||... */\n    tag_316:\n        /* \"moonx/moonx.sol\":3897:4289  keccak256(abi.encodePacked(_correctAnswers[i])) == keccak256(abi.encodePacked(\"A\")) ||... */\n      dup1\n      tag_322\n      jumpi\n      pop\n        /* \"moonx/moonx.sol\":4267:4288  abi.encodePacked(\"D\") */\n      add(0x20, mload(0x40))\n      tag_323\n      swap1\n      tag_324\n      jump\t// in\n    tag_323:\n      mload(0x40)\n      0x20\n      dup2\n      dup4\n      sub\n      sub\n      dup2\n      mstore\n      swap1\n      0x40\n      mstore\n        /* \"moonx/moonx.sol\":4257:4289  keccak256(abi.encodePacked(\"D\")) */\n      dup1\n      mload\n      swap1\n      0x20\n      add\n      keccak256\n        /* \"moonx/moonx.sol\":4233:4248  _correctAnswers */\n      dup5\n        /* \"moonx/moonx.sol\":4249:4250  i */\n      dup3\n        /* \"moonx/moonx.sol\":4233:4251  _correctAnswers[i] */\n      dup2\n      mload\n      dup2\n      lt\n      tag_325\n      jumpi\n      tag_326\n      tag_215\n      jump\t// in\n    tag_326:\n    tag_325:\n      0x20\n      mul\n      0x20\n      add\n      add\n      mload\n        /* \"moonx/moonx.sol\":4216:4252  abi.encodePacked(_correctAnswers[i]) */\n      add(0x20, mload(0x40))\n      tag_327\n      swap2\n      swap1\n      tag_219\n      jump\t// in\n    tag_327:\n      mload(0x40)\n      0x20\n      dup2\n      dup4\n      sub\n      sub\n      dup2\n      mstore\n      swap1\n      0x40\n      mstore\n        /* \"moonx/moonx.sol\":4206:4253  keccak256(abi.encodePacked(_correctAnswers[i])) */\n      dup1\n      mload\n      swap1\n      0x20\n      add\n      keccak256\n        /* \"moonx/moonx.sol\":4206:4289  keccak256(abi.encodePacked(_correctAnswers[i])) == keccak256(abi.encodePacked(\"D\")) */\n      eq\n        /* \"moonx/moonx.sol\":3897:4289  keccak256(abi.encodePacked(_correctAnswers[i])) == keccak256(abi.encodePacked(\"A\")) ||... */\n    tag_322:\n        /* \"moonx/moonx.sol\":3872:4345  require(... */\n      tag_328\n      jumpi\n      mload(0x40)\n      0x08c379a000000000000000000000000000000000000000000000000000000000\n      dup2\n      mstore\n      0x04\n      add\n      tag_329\n      swap1\n      tag_330\n      jump\t// in\n    tag_329:\n      mload(0x40)\n      dup1\n      swap2\n      sub\n      swap1\n      revert\n    tag_328:\n        /* \"moonx/moonx.sol\":4360:4379  Quiz memory newQuiz */\n      0x00\n        /* \"moonx/moonx.sol\":4382:4719  Quiz({... */\n      mload(0x40)\n      dup1\n      0xe0\n      add\n      0x40\n      mstore\n      dup1\n        /* \"moonx/moonx.sol\":4415:4423  courseId */\n      dup5\n        /* \"moonx/moonx.sol\":4382:4719  Quiz({... */\n      dup2\n      mstore\n      0x20\n      add\n        /* \"moonx/moonx.sol\":4451:4461  _questions */\n      dup12\n        /* \"moonx/moonx.sol\":4462:4463  i */\n      dup5\n        /* \"moonx/moonx.sol\":4451:4464  _questions[i] */\n      dup2\n      mload\n      dup2\n      lt\n      tag_331\n      jumpi\n      tag_332\n      tag_215\n      jump\t// in\n    tag_332:\n    tag_331:\n      0x20\n      mul\n      0x20\n      add\n      add\n      mload\n        /* \"moonx/moonx.sol\":4382:4719  Quiz({... */\n      dup2\n      mstore\n      0x20\n      add\n        /* \"moonx/moonx.sol\":4491:4500  _optionAs */\n      dup11\n        /* \"moonx/moonx.sol\":4501:4502  i */\n      dup5\n        /* \"moonx/moonx.sol\":4491:4503  _optionAs[i] */\n      dup2\n      mload\n      dup2\n      lt\n      tag_333\n      jumpi\n      tag_334\n      tag_215\n      jump\t// in\n    tag_334:\n    tag_333:\n      0x20\n      mul\n      0x20\n      add\n      add\n      mload\n        /* \"moonx/moonx.sol\":4382:4719  Quiz({... */\n      dup2\n      mstore\n      0x20\n      add\n        /* \"moonx/moonx.sol\":4530:4539  _optionBs */\n      dup10\n        /* \"moonx/moonx.sol\":4540:4541  i */\n      dup5\n        /* \"moonx/moonx.sol\":4530:4542  _optionBs[i] */\n      dup2\n      mload\n      dup2\n      lt\n      tag_335\n      jumpi\n      tag_336\n      tag_215\n      jump\t// in\n    tag_336:\n    tag_335:\n      0x20\n      mul\n      0x20\n      add\n      add\n      mload\n        /* \"moonx/moonx.sol\":4382:4719  Quiz({... */\n      dup2\n      mstore\n      0x20\n      add\n        /* \"moonx/moonx.sol\":4569:4578  _optionCs */\n      dup9\n        /* \"moonx/moonx.sol\":4579:4580  i */\n      dup5\n        /* \"moonx/moonx.sol\":4569:4581  _optionCs[i] */\n      dup2\n      mload\n      dup2\n      lt\n      tag_337\n      jumpi\n      tag_338\n      tag_215\n      jump\t// in\n    tag_338:\n    tag_337:\n      0x20\n      mul\n      0x20\n      add\n      add\n      mload\n        /* \"moonx/moonx.sol\":4382:4719  Quiz({... */\n      dup2\n      mstore\n      0x20\n      add\n        /* \"moonx/moonx.sol\":4608:4617  _optionDs */\n      dup8\n        /* \"moonx/moonx.sol\":4618:4619  i */\n      dup5\n        /* \"moonx/moonx.sol\":4608:4620  _optionDs[i] */\n      dup2\n      mload\n      dup2\n      lt\n      tag_339\n      jumpi\n      tag_340\n      tag_215\n      jump\t// in\n    tag_340:\n    tag_339:\n      0x20\n      mul\n      0x20\n      add\n      add\n      mload\n        /* \"moonx/moonx.sol\":4382:4719  Quiz({... */\n      dup2\n      mstore\n      0x20\n      add\n        /* \"moonx/moonx.sol\":4684:4699  _correctAnswers */\n      dup7\n        /* \"moonx/moonx.sol\":4700:4701  i */\n      dup5\n        /* \"moonx/moonx.sol\":4684:4702  _correctAnswers[i] */\n      dup2\n      mload\n      dup2\n      lt\n      tag_341\n      jumpi\n      tag_342\n      tag_215\n      jump\t// in\n    tag_342:\n    tag_341:\n      0x20\n      mul\n      0x20\n      add\n      add\n      mload\n        /* \"moonx/moonx.sol\":4667:4703  abi.encodePacked(_correctAnswers[i]) */\n      add(0x20, mload(0x40))\n      tag_343\n      swap2\n      swap1\n      tag_219\n      jump\t// in\n    tag_343:\n      mload(0x40)\n      0x20\n      dup2\n      dup4\n      sub\n      sub\n      dup2\n      mstore\n      swap1\n      0x40\n      mstore\n        /* \"moonx/moonx.sol\":4657:4704  keccak256(abi.encodePacked(_correctAnswers[i])) */\n      dup1\n      mload\n      swap1\n      0x20\n      add\n      keccak256\n        /* \"moonx/moonx.sol\":4382:4719  Quiz({... */\n      dup2\n      mstore\n      pop\n        /* \"moonx/moonx.sol\":4360:4719  Quiz memory newQuiz = Quiz({... */\n      swap1\n      pop\n        /* \"moonx/moonx.sol\":4734:4747  courseQuizzes */\n      0x06\n        /* \"moonx/moonx.sol\":4734:4757  courseQuizzes[courseId] */\n      0x00\n        /* \"moonx/moonx.sol\":4748:4756  courseId */\n      dup5\n        /* \"moonx/moonx.sol\":4734:4757  courseQuizzes[courseId] */\n      dup2\n      mstore\n      0x20\n      add\n      swap1\n      dup2\n      mstore\n      0x20\n      add\n      0x00\n      keccak256\n        /* \"moonx/moonx.sol\":4763:4770  newQuiz */\n      dup2\n        /* \"moonx/moonx.sol\":4734:4771  courseQuizzes[courseId].push(newQuiz) */\n      swap1\n      dup1\n      0x01\n      dup2\n      sload\n      add\n      dup1\n      dup3\n      sstore\n      dup1\n      swap2\n      pop\n      pop\n      0x01\n      swap1\n      sub\n      swap1\n      0x00\n      mstore\n      keccak256(0x00, 0x20)\n      swap1\n      0x07\n      mul\n      add\n      0x00\n      swap1\n      swap2\n      swap1\n      swap2\n      swap1\n      swap2\n      pop\n      0x00\n      dup3\n      add\n      mload\n      dup2\n      0x00\n      add\n      sstore\n      0x20\n      dup3\n      add\n      mload\n      dup2\n      0x01\n      add\n      swap1\n      dup2\n      tag_345\n      swap2\n      swap1\n      tag_301\n      jump\t// in\n    tag_345:\n      pop\n      0x40\n      dup3\n      add\n      mload\n      dup2\n      0x02\n      add\n      swap1\n      dup2\n      tag_346\n      swap2\n      swap1\n      tag_301\n      jump\t// in\n    tag_346:\n      pop\n      0x60\n      dup3\n      add\n      mload\n      dup2\n      0x03\n      add\n      swap1\n      dup2\n      tag_347\n      swap2\n      swap1\n      tag_301\n      jump\t// in\n    tag_347:\n      pop\n      0x80\n      dup3\n      add\n      mload\n      dup2\n      0x04\n      add\n      swap1\n      dup2\n      tag_348\n      swap2\n      swap1\n      tag_301\n      jump\t// in\n    tag_348:\n      pop\n      0xa0\n      dup3\n      add\n      mload\n      dup2\n      0x05\n      add\n      swap1\n      dup2\n      tag_349\n      swap2\n      swap1\n      tag_301\n      jump\t// in\n    tag_349:\n      pop\n      0xc0\n      dup3\n      add\n      mload\n      dup2\n      0x06\n      add\n      sstore\n      pop\n      pop\n        /* \"moonx/moonx.sol\":3858:4782  {... */\n      pop\n        /* \"moonx/moonx.sol\":3853:3856  i++ */\n      dup1\n      dup1\n      0x01\n      add\n      swap2\n      pop\n      pop\n        /* \"moonx/moonx.sol\":3810:4782  for (uint256 i = 0; i < _questions.length; i++) {... */\n      jump(tag_302)\n    tag_303:\n      pop\n        /* \"moonx/moonx.sol\":4821:4831  msg.sender */\n      caller\n        /* \"moonx/moonx.sol\":4797:4832  CourseCreated(courseId, msg.sender) */\n      0xffffffffffffffffffffffffffffffffffffffff\n      and\n        /* \"moonx/moonx.sol\":4811:4819  courseId */\n      dup2\n        /* \"moonx/moonx.sol\":4797:4832  CourseCreated(courseId, msg.sender) */\n      0xa68f79aa37f9cdc81c2757cfb3e11e9d7d89ca0a5410fbcf1b61125bc17fb1b7\n      mload(0x40)\n      mload(0x40)\n      dup1\n      swap2\n      sub\n      swap1\n      log3\n        /* \"moonx/moonx.sol\":3201:4839  {... */\n      pop\n        /* \"moonx/moonx.sol\":2608:2866  {... */\n      pop\n        /* \"moonx/moonx.sol\":2871:4839  function createCourse(... */\n      pop\n      pop\n      pop\n      pop\n      pop\n      pop\n      pop\n      jump\t// out\n        /* \"moonx/moonx.sol\":8141:8202  function pause() external onlyOwner {... */\n    tag_89:\n        /* \"@openzeppelin/contracts/access/Ownable.sol\":1531:1544  _checkOwner() */\n      tag_351\n        /* \"@openzeppelin/contracts/access/Ownable.sol\":1531:1542  _checkOwner */\n      tag_150\n        /* \"@openzeppelin/contracts/access/Ownable.sol\":1531:1544  _checkOwner() */\n      jump\t// in\n    tag_351:\n        /* \"moonx/moonx.sol\":8187:8195  _pause() */\n      tag_353\n        /* \"moonx/moonx.sol\":8187:8193  _pause */\n      tag_354\n        /* \"moonx/moonx.sol\":8187:8195  _pause() */\n      jump\t// in\n    tag_353:\n        /* \"moonx/moonx.sol\":8141:8202  function pause() external onlyOwner {... */\n      jump\t// out\n        /* \"moonx/moonx.sol\":327:372  IReputationContract public reputationContract */\n    tag_92:\n      0x01\n      0x00\n      swap1\n      sload\n      swap1\n      0x0100\n      exp\n      swap1\n      div\n      0xffffffffffffffffffffffffffffffffffffffff\n      and\n      dup2\n      jump\t// out\n        /* \"@openzeppelin/contracts/access/Ownable.sol\":1638:1723  function owner() public view virtual returns (address) {... */\n    tag_97:\n        /* \"@openzeppelin/contracts/access/Ownable.sol\":1684:1691  address */\n      0x00\n        /* \"@openzeppelin/contracts/access/Ownable.sol\":1710:1716  _owner */\n      dup1\n      0x00\n      swap1\n      sload\n      swap1\n      0x0100\n      exp\n      swap1\n      div\n      0xffffffffffffffffffffffffffffffffffffffff\n      and\n        /* \"@openzeppelin/contracts/access/Ownable.sol\":1703:1716  return _owner */\n      swap1\n      pop\n        /* \"@openzeppelin/contracts/access/Ownable.sol\":1638:1723  function owner() public view virtual returns (address) {... */\n      swap1\n      jump\t// out\n        /* \"moonx/moonx.sol\":8279:8445  function updateReputationContract(address _newReputationContract) external onlyOwner {... */\n    tag_104:\n        /* \"@openzeppelin/contracts/access/Ownable.sol\":1531:1544  _checkOwner() */\n      tag_357\n        /* \"@openzeppelin/contracts/access/Ownable.sol\":1531:1542  _checkOwner */\n      tag_150\n        /* \"@openzeppelin/contracts/access/Ownable.sol\":1531:1544  _checkOwner() */\n      jump\t// in\n    tag_357:\n        /* \"moonx/moonx.sol\":8415:8437  _newReputationContract */\n      dup1\n        /* \"moonx/moonx.sol\":8374:8392  reputationContract */\n      0x01\n      0x00\n        /* \"moonx/moonx.sol\":8374:8438  reputationContract = IReputationContract(_newReputationContract) */\n      0x0100\n      exp\n      dup2\n      sload\n      dup2\n      0xffffffffffffffffffffffffffffffffffffffff\n      mul\n      not\n      and\n      swap1\n      dup4\n      0xffffffffffffffffffffffffffffffffffffffff\n      and\n      mul\n      or\n      swap1\n      sstore\n      pop\n        /* \"moonx/moonx.sol\":8279:8445  function updateReputationContract(address _newReputationContract) external onlyOwner {... */\n      pop\n      jump\t// out\n        /* \"moonx/moonx.sol\":1454:1495  mapping(uint256 => Course) public courses */\n    tag_108:\n      mstore(0x20, 0x04)\n      dup1\n      0x00\n      mstore\n      keccak256(0x00, 0x40)\n      0x00\n      swap2\n      pop\n      swap1\n      pop\n      dup1\n      0x00\n      add\n      0x00\n      swap1\n      sload\n      swap1\n      0x0100\n      exp\n      swap1\n      div\n      0xffffffffffffffffffffffffffffffffffffffff\n      and\n      swap1\n      dup1\n      0x01\n      add\n      dup1\n      sload\n      tag_359\n      swap1\n      tag_182\n      jump\t// in\n    tag_359:\n      dup1\n      0x1f\n      add\n      0x20\n      dup1\n      swap2\n      div\n      mul\n      0x20\n      add\n      mload(0x40)\n      swap1\n      dup2\n      add\n      0x40\n      mstore\n      dup1\n      swap3\n      swap2\n      swap1\n      dup2\n      dup2\n      mstore\n      0x20\n      add\n      dup3\n      dup1\n      sload\n      tag_360\n      swap1\n      tag_182\n      jump\t// in\n    tag_360:\n      dup1\n      iszero\n      tag_361\n      jumpi\n      dup1\n      0x1f\n      lt\n      tag_362\n      jumpi\n      0x0100\n      dup1\n      dup4\n      sload\n      div\n      mul\n      dup4\n      mstore\n      swap2\n      0x20\n      add\n      swap2\n      jump(tag_361)\n    tag_362:\n      dup3\n      add\n      swap2\n      swap1\n      0x00\n      mstore\n      keccak256(0x00, 0x20)\n      swap1\n    tag_363:\n      dup2\n      sload\n      dup2\n      mstore\n      swap1\n      0x01\n      add\n      swap1\n      0x20\n      add\n      dup1\n      dup4\n      gt\n      tag_363\n      jumpi\n      dup3\n      swap1\n      sub\n      0x1f\n      and\n      dup3\n      add\n      swap2\n    tag_361:\n      pop\n      pop\n      pop\n      pop\n      pop\n      swap1\n      dup1\n      0x02\n      add\n      0x00\n      swap1\n      sload\n      swap1\n      0x0100\n      exp\n      swap1\n      div\n      0xff\n      and\n      swap1\n      dup1\n      0x03\n      add\n      sload\n      swap1\n      dup1\n      0x04\n      add\n      sload\n      swap1\n      dup1\n      0x05\n      add\n      sload\n      swap1\n      pop\n      dup7\n      jump\t// out\n        /* \"moonx/moonx.sol\":653:700  uint256 public constant PLATFORMTX = 0.75 ether */\n    tag_113:\n        /* \"moonx/moonx.sol\":690:700  0.75 ether */\n      0x0a688906bd8b0000\n        /* \"moonx/moonx.sol\":653:700  uint256 public constant PLATFORMTX = 0.75 ether */\n      dup2\n      jump\t// out\n        /* \"moonx/moonx.sol\":429:471  uint256 public constant POST_THRESHOLD = 5 */\n    tag_117:\n        /* \"moonx/moonx.sol\":470:471  5 */\n      0x05\n        /* \"moonx/moonx.sol\":429:471  uint256 public constant POST_THRESHOLD = 5 */\n      dup2\n      jump\t// out\n        /* \"moonx/moonx.sol\":379:423  uint256 public constant ENROLL_THRESHOLD = 5 */\n    tag_121:\n        /* \"moonx/moonx.sol\":422:423  5 */\n      0x05\n        /* \"moonx/moonx.sol\":379:423  uint256 public constant ENROLL_THRESHOLD = 5 */\n      dup2\n      jump\t// out\n        /* \"moonx/moonx.sol\":1576:1623  mapping(uint256 => Quiz[]) public courseQuizzes */\n    tag_127:\n      mstore(0x20, 0x06)\n      dup2\n      0x00\n      mstore\n      keccak256(0x00, 0x40)\n      dup2\n      dup2\n      sload\n      dup2\n      lt\n      tag_364\n      jumpi\n      0x00\n      dup1\n      revert\n    tag_364:\n      swap1\n      0x00\n      mstore\n      keccak256(0x00, 0x20)\n      swap1\n      0x07\n      mul\n      add\n      0x00\n      swap2\n      pop\n      swap2\n      pop\n      pop\n      dup1\n      0x00\n      add\n      sload\n      swap1\n      dup1\n      0x01\n      add\n      dup1\n      sload\n      tag_366\n      swap1\n      tag_182\n      jump\t// in\n    tag_366:\n      dup1\n      0x1f\n      add\n      0x20\n      dup1\n      swap2\n      div\n      mul\n      0x20\n      add\n      mload(0x40)\n      swap1\n      dup2\n      add\n      0x40\n      mstore\n      dup1\n      swap3\n      swap2\n      swap1\n      dup2\n      dup2\n      mstore\n      0x20\n      add\n      dup3\n      dup1\n      sload\n      tag_367\n      swap1\n      tag_182\n      jump\t// in\n    tag_367:\n      dup1\n      iszero\n      tag_368\n      jumpi\n      dup1\n      0x1f\n      lt\n      tag_369\n      jumpi\n      0x0100\n      dup1\n      dup4\n      sload\n      div\n      mul\n      dup4\n      mstore\n      swap2\n      0x20\n      add\n      swap2\n      jump(tag_368)\n    tag_369:\n      dup3\n      add\n      swap2\n      swap1\n      0x00\n      mstore\n      keccak256(0x00, 0x20)\n      swap1\n    tag_370:\n      dup2\n      sload\n      dup2\n      mstore\n      swap1\n      0x01\n      add\n      swap1\n      0x20\n      add\n      dup1\n      dup4\n      gt\n      tag_370\n      jumpi\n      dup3\n      swap1\n      sub\n      0x1f\n      and\n      dup3\n      add\n      swap2\n    tag_368:\n      pop\n      pop\n      pop\n      pop\n      pop\n      swap1\n      dup1\n      0x02\n      add\n      dup1\n      sload\n      tag_371\n      swap1\n      tag_182\n      jump\t// in\n    tag_371:\n      dup1\n      0x1f\n      add\n      0x20\n      dup1\n      swap2\n      div\n      mul\n      0x20\n      add\n      mload(0x40)\n      swap1\n      dup2\n      add\n      0x40\n      mstore\n      dup1\n      swap3\n      swap2\n      swap1\n      dup2\n      dup2\n      mstore\n      0x20\n      add\n      dup3\n      dup1\n      sload\n      tag_372\n      swap1\n      tag_182\n      jump\t// in\n    tag_372:\n      dup1\n      iszero\n      tag_373\n      jumpi\n      dup1\n      0x1f\n      lt\n      tag_374\n      jumpi\n      0x0100\n      dup1\n      dup4\n      sload\n      div\n      mul\n      dup4\n      mstore\n      swap2\n      0x20\n      add\n      swap2\n      jump(tag_373)\n    tag_374:\n      dup3\n      add\n      swap2\n      swap1\n      0x00\n      mstore\n      keccak256(0x00, 0x20)\n      swap1\n    tag_375:\n      dup2\n      sload\n      dup2\n      mstore\n      swap1\n      0x01\n      add\n      swap1\n      0x20\n      add\n      dup1\n      dup4\n      gt\n      tag_375\n      jumpi\n      dup3\n      swap1\n      sub\n      0x1f\n      and\n      dup3\n      add\n      swap2\n    tag_373:\n      pop\n      pop\n      pop\n      pop\n      pop\n      swap1\n      dup1\n      0x03\n      add\n      dup1\n      sload\n      tag_376\n      swap1\n      tag_182\n      jump\t// in\n    tag_376:\n      dup1\n      0x1f\n      add\n      0x20\n      dup1\n      swap2\n      div\n      mul\n      0x20\n      add\n      mload(0x40)\n      swap1\n      dup2\n      add\n      0x40\n      mstore\n      dup1\n      swap3\n      swap2\n      swap1\n      dup2\n      dup2\n      mstore\n      0x20\n      add\n      dup3\n      dup1\n      sload\n      tag_377\n      swap1\n      tag_182\n      jump\t// in\n    tag_377:\n      dup1\n      iszero\n      tag_378\n      jumpi\n      dup1\n      0x1f\n      lt\n      tag_379\n      jumpi\n      0x0100\n      dup1\n      dup4\n      sload\n      div\n      mul\n      dup4\n      mstore\n      swap2\n      0x20\n      add\n      swap2\n      jump(tag_378)\n    tag_379:\n      dup3\n      add\n      swap2\n      swap1\n      0x00\n      mstore\n      keccak256(0x00, 0x20)\n      swap1\n    tag_380:\n      dup2\n      sload\n      dup2\n      mstore\n      swap1\n      0x01\n      add\n      swap1\n      0x20\n      add\n      dup1\n      dup4\n      gt\n      tag_380\n      jumpi\n      dup3\n      swap1\n      sub\n      0x1f\n      and\n      dup3\n      add\n      swap2\n    tag_378:\n      pop\n      pop\n      pop\n      pop\n      pop\n      swap1\n      dup1\n      0x04\n      add\n      dup1\n      sload\n      tag_381\n      swap1\n      tag_182\n      jump\t// in\n    tag_381:\n      dup1\n      0x1f\n      add\n      0x20\n      dup1\n      swap2\n      div\n      mul\n      0x20\n      add\n      mload(0x40)\n      swap1\n      dup2\n      add\n      0x40\n      mstore\n      dup1\n      swap3\n      swap2\n      swap1\n      dup2\n      dup2\n      mstore\n      0x20\n      add\n      dup3\n      dup1\n      sload\n      tag_382\n      swap1\n      tag_182\n      jump\t// in\n    tag_382:\n      dup1\n      iszero\n      tag_383\n      jumpi\n      dup1\n      0x1f\n      lt\n      tag_384\n      jumpi\n      0x0100\n      dup1\n      dup4\n      sload\n      div\n      mul\n      dup4\n      mstore\n      swap2\n      0x20\n      add\n      swap2\n      jump(tag_383)\n    tag_384:\n      dup3\n      add\n      swap2\n      swap1\n      0x00\n      mstore\n      keccak256(0x00, 0x20)\n      swap1\n    tag_385:\n      dup2\n      sload\n      dup2\n      mstore\n      swap1\n      0x01\n      add\n      swap1\n      0x20\n      add\n      dup1\n      dup4\n      gt\n      tag_385\n      jumpi\n      dup3\n      swap1\n      sub\n      0x1f\n      and\n      dup3\n      add\n      swap2\n    tag_383:\n      pop\n      pop\n      pop\n      pop\n      pop\n      swap1\n      dup1\n      0x05\n      add\n      dup1\n      sload\n      tag_386\n      swap1\n      tag_182\n      jump\t// in\n    tag_386:\n      dup1\n      0x1f\n      add\n      0x20\n      dup1\n      swap2\n      div\n      mul\n      0x20\n      add\n      mload(0x40)\n      swap1\n      dup2\n      add\n      0x40\n      mstore\n      dup1\n      swap3\n      swap2\n      swap1\n      dup2\n      dup2\n      mstore\n      0x20\n      add\n      dup3\n      dup1\n      sload\n      tag_387\n      swap1\n      tag_182\n      jump\t// in\n    tag_387:\n      dup1\n      iszero\n      tag_388\n      jumpi\n      dup1\n      0x1f\n      lt\n      tag_389\n      jumpi\n      0x0100\n      dup1\n      dup4\n      sload\n      div\n      mul\n      dup4\n      mstore\n      swap2\n      0x20\n      add\n      swap2\n      jump(tag_388)\n    tag_389:\n      dup3\n      add\n      swap2\n      swap1\n      0x00\n      mstore\n      keccak256(0x00, 0x20)\n      swap1\n    tag_390:\n      dup2\n      sload\n      dup2\n      mstore\n      swap1\n      0x01\n      add\n      swap1\n      0x20\n      add\n      dup1\n      dup4\n      gt\n      tag_390\n      jumpi\n      dup3\n      swap1\n      sub\n      0x1f\n      and\n      dup3\n      add\n      swap2\n    tag_388:\n      pop\n      pop\n      pop\n      pop\n      pop\n      swap1\n      dup1\n      0x06\n      add\n      sload\n      swap1\n      pop\n      dup8\n      jump\t// out\n        /* \"moonx/moonx.sol\":7685:8135  function withdrawGasFees() external onlyOwner {... */\n    tag_132:\n        /* \"@openzeppelin/contracts/access/Ownable.sol\":1531:1544  _checkOwner() */\n      tag_392\n        /* \"@openzeppelin/contracts/access/Ownable.sol\":1531:1542  _checkOwner */\n      tag_150\n        /* \"@openzeppelin/contracts/access/Ownable.sol\":1531:1544  _checkOwner() */\n      jump\t// in\n    tag_392:\n        /* \"moonx/moonx.sol\":772:779  50 days */\n      0x41eb00\n        /* \"moonx/moonx.sol\":7768:7786  lastWithdrawalTime */\n      sload(0x02)\n        /* \"moonx/moonx.sol\":7768:7808  lastWithdrawalTime + WITHDRAWAL_INTERVAL */\n      tag_394\n      swap2\n      swap1\n      tag_160\n      jump\t// in\n    tag_394:\n        /* \"moonx/moonx.sol\":7749:7764  block.timestamp */\n      timestamp\n        /* \"moonx/moonx.sol\":7749:7808  block.timestamp >= lastWithdrawalTime + WITHDRAWAL_INTERVAL */\n      lt\n      iszero\n        /* \"moonx/moonx.sol\":7741:7844  require(block.timestamp >= lastWithdrawalTime + WITHDRAWAL_INTERVAL, \"Withdrawal interval not reached\") */\n      tag_395\n      jumpi\n      mload(0x40)\n      0x08c379a000000000000000000000000000000000000000000000000000000000\n      dup2\n      mstore\n      0x04\n      add\n      tag_396\n      swap1\n      tag_397\n      jump\t// in\n    tag_396:\n      mload(0x40)\n      dup1\n      swap2\n      sub\n      swap1\n      revert\n    tag_395:\n        /* \"moonx/moonx.sol\":7854:7868  uint256 amount */\n      0x00\n        /* \"moonx/moonx.sol\":7871:7886  accumulatedFees */\n      sload(0x03)\n        /* \"moonx/moonx.sol\":7854:7886  uint256 amount = accumulatedFees */\n      swap1\n      pop\n        /* \"moonx/moonx.sol\":7914:7915  0 */\n      0x00\n        /* \"moonx/moonx.sol\":7896:7911  accumulatedFees */\n      0x03\n        /* \"moonx/moonx.sol\":7896:7915  accumulatedFees = 0 */\n      dup2\n      swap1\n      sstore\n      pop\n        /* \"moonx/moonx.sol\":7946:7961  block.timestamp */\n      timestamp\n        /* \"moonx/moonx.sol\":7925:7943  lastWithdrawalTime */\n      0x02\n        /* \"moonx/moonx.sol\":7925:7961  lastWithdrawalTime = block.timestamp */\n      dup2\n      swap1\n      sstore\n      pop\n        /* \"moonx/moonx.sol\":7973:7985  bool success */\n      0x00\n        /* \"moonx/moonx.sol\":7999:8006  owner() */\n      tag_398\n        /* \"moonx/moonx.sol\":7999:8004  owner */\n      tag_97\n        /* \"moonx/moonx.sol\":7999:8006  owner() */\n      jump\t// in\n    tag_398:\n        /* \"moonx/moonx.sol\":7991:8012  payable(owner()).call */\n      0xffffffffffffffffffffffffffffffffffffffff\n      and\n        /* \"moonx/moonx.sol\":8020:8026  amount */\n      dup3\n        /* \"moonx/moonx.sol\":7991:8031  payable(owner()).call{value: amount}(\"\") */\n      mload(0x40)\n      tag_399\n      swap1\n      tag_226\n      jump\t// in\n    tag_399:\n      0x00\n      mload(0x40)\n      dup1\n      dup4\n      sub\n      dup2\n      dup6\n      dup8\n      gas\n      call\n      swap3\n      pop\n      pop\n      pop\n      returndatasize\n      dup1\n      0x00\n      dup2\n      eq\n      tag_402\n      jumpi\n      mload(0x40)\n      swap2\n      pop\n      and(add(returndatasize, 0x3f), not(0x1f))\n      dup3\n      add\n      0x40\n      mstore\n      returndatasize\n      dup3\n      mstore\n      returndatasize\n      0x00\n      0x20\n      dup5\n      add\n      returndatacopy\n      jump(tag_401)\n    tag_402:\n      0x60\n      swap2\n      pop\n    tag_401:\n      pop\n        /* \"moonx/moonx.sol\":7972:8031  (bool success, ) = payable(owner()).call{value: amount}(\"\") */\n      pop\n      swap1\n      pop\n        /* \"moonx/moonx.sol\":8049:8056  success */\n      dup1\n        /* \"moonx/moonx.sol\":8041:8088  require(success, \"Failed to withdraw gas fees\") */\n      tag_403\n      jumpi\n      mload(0x40)\n      0x08c379a000000000000000000000000000000000000000000000000000000000\n      dup2\n      mstore\n      0x04\n      add\n      tag_404\n      swap1\n      tag_405\n      jump\t// in\n    tag_404:\n      mload(0x40)\n      dup1\n      swap2\n      sub\n      swap1\n      revert\n    tag_403:\n        /* \"moonx/moonx.sol\":8104:8128  GasFeesWithdrawn(amount) */\n      0x0d3c6acef4f1bd70f36dad19b43c6b794ac969b546734638671026f801d476fa\n        /* \"moonx/moonx.sol\":8121:8127  amount */\n      dup3\n        /* \"moonx/moonx.sol\":8104:8128  GasFeesWithdrawn(amount) */\n      mload(0x40)\n      tag_406\n      swap2\n      swap1\n      tag_47\n      jump\t// in\n    tag_406:\n      mload(0x40)\n      dup1\n      swap2\n      sub\n      swap1\n      log1\n        /* \"moonx/moonx.sol\":7731:8135  {... */\n      pop\n      pop\n        /* \"moonx/moonx.sol\":7685:8135  function withdrawGasFees() external onlyOwner {... */\n      jump\t// out\n        /* \"moonx/moonx.sol\":6987:7678  function claimCreatorReward(uint256 _courseId) external payable whenNotPaused COLLECTPLATFORMTX {... */\n    tag_135:\n        /* \"@openzeppelin/contracts/security/Pausable.sol\":1239:1258  _requireNotPaused() */\n      tag_408\n        /* \"@openzeppelin/contracts/security/Pausable.sol\":1239:1256  _requireNotPaused */\n      tag_237\n        /* \"@openzeppelin/contracts/security/Pausable.sol\":1239:1258  _requireNotPaused() */\n      jump\t// in\n    tag_408:\n        /* \"moonx/moonx.sol\":690:700  0.75 ether */\n      0x0a688906bd8b0000\n        /* \"moonx/moonx.sol\":2626:2635  msg.value */\n      callvalue\n        /* \"moonx/moonx.sol\":2626:2649  msg.value >= PLATFORMTX */\n      lt\n      iszero\n        /* \"moonx/moonx.sol\":2618:2674  require(msg.value >= PLATFORMTX, \"Insufficient gas fee\") */\n      tag_410\n      jumpi\n      mload(0x40)\n      0x08c379a000000000000000000000000000000000000000000000000000000000\n      dup2\n      mstore\n      0x04\n      add\n      tag_411\n      swap1\n      tag_158\n      jump\t// in\n    tag_411:\n      mload(0x40)\n      dup1\n      swap2\n      sub\n      swap1\n      revert\n    tag_410:\n        /* \"moonx/moonx.sol\":690:700  0.75 ether */\n      0x0a688906bd8b0000\n        /* \"moonx/moonx.sol\":2684:2699  accumulatedFees */\n      0x03\n      0x00\n        /* \"moonx/moonx.sol\":2684:2713  accumulatedFees += PLATFORMTX */\n      dup3\n      dup3\n      sload\n      tag_412\n      swap2\n      swap1\n      tag_160\n      jump\t// in\n    tag_412:\n      swap3\n      pop\n      pop\n      dup2\n      swap1\n      sstore\n      pop\n        /* \"moonx/moonx.sol\":2723:2737  uint256 excess */\n      0x00\n        /* \"moonx/moonx.sol\":690:700  0.75 ether */\n      0x0a688906bd8b0000\n        /* \"moonx/moonx.sol\":2740:2749  msg.value */\n      callvalue\n        /* \"moonx/moonx.sol\":2740:2762  msg.value - PLATFORMTX */\n      tag_413\n      swap2\n      swap1\n      tag_162\n      jump\t// in\n    tag_413:\n        /* \"moonx/moonx.sol\":2723:2762  uint256 excess = msg.value - PLATFORMTX */\n      swap1\n      pop\n        /* \"moonx/moonx.sol\":2785:2786  0 */\n      0x00\n        /* \"moonx/moonx.sol\":2776:2782  excess */\n      dup2\n        /* \"moonx/moonx.sol\":2776:2786  excess > 0 */\n      gt\n        /* \"moonx/moonx.sol\":2772:2849  if (excess > 0) {... */\n      iszero\n      tag_414\n      jumpi\n        /* \"moonx/moonx.sol\":2810:2820  msg.sender */\n      caller\n        /* \"moonx/moonx.sol\":2802:2830  payable(msg.sender).transfer */\n      0xffffffffffffffffffffffffffffffffffffffff\n      and\n        /* \"moonx/moonx.sol\":2802:2838  payable(msg.sender).transfer(excess) */\n      0x08fc\n        /* \"moonx/moonx.sol\":2831:2837  excess */\n      dup3\n        /* \"moonx/moonx.sol\":2802:2838  payable(msg.sender).transfer(excess) */\n      swap1\n      dup2\n      iszero\n      mul\n      swap1\n      mload(0x40)\n      0x00\n      mload(0x40)\n      dup1\n      dup4\n      sub\n      dup2\n      dup6\n      dup9\n      dup9\n      call\n      swap4\n      pop\n      pop\n      pop\n      pop\n      iszero\n      dup1\n      iszero\n      tag_416\n      jumpi\n      returndatasize\n      0x00\n      dup1\n      returndatacopy\n      revert(0x00, returndatasize)\n    tag_416:\n      pop\n        /* \"moonx/moonx.sol\":2772:2849  if (excess > 0) {... */\n    tag_414:\n        /* \"moonx/moonx.sol\":7093:7114  Course storage course */\n      0x00\n        /* \"moonx/moonx.sol\":7117:7124  courses */\n      0x04\n        /* \"moonx/moonx.sol\":7117:7135  courses[_courseId] */\n      0x00\n        /* \"moonx/moonx.sol\":7125:7134  _courseId */\n      dup5\n        /* \"moonx/moonx.sol\":7117:7135  courses[_courseId] */\n      dup2\n      mstore\n      0x20\n      add\n      swap1\n      dup2\n      mstore\n      0x20\n      add\n      0x00\n      keccak256\n        /* \"moonx/moonx.sol\":7093:7135  Course storage course = courses[_courseId] */\n      swap1\n      pop\n        /* \"moonx/moonx.sol\":7167:7173  course */\n      dup1\n        /* \"moonx/moonx.sol\":7167:7181  course.creator */\n      0x00\n      add\n      0x00\n      swap1\n      sload\n      swap1\n      0x0100\n      exp\n      swap1\n      div\n      0xffffffffffffffffffffffffffffffffffffffff\n      and\n        /* \"moonx/moonx.sol\":7153:7181  msg.sender == course.creator */\n      0xffffffffffffffffffffffffffffffffffffffff\n      and\n        /* \"moonx/moonx.sol\":7153:7163  msg.sender */\n      caller\n        /* \"moonx/moonx.sol\":7153:7181  msg.sender == course.creator */\n      0xffffffffffffffffffffffffffffffffffffffff\n      and\n      eq\n        /* \"moonx/moonx.sol\":7145:7222  require(msg.sender == course.creator, \"Only course creator can claim reward\") */\n      tag_418\n      jumpi\n      mload(0x40)\n      0x08c379a000000000000000000000000000000000000000000000000000000000\n      dup2\n      mstore\n      0x04\n      add\n      tag_419\n      swap1\n      tag_420\n      jump\t// in\n    tag_419:\n      mload(0x40)\n      dup1\n      swap2\n      sub\n      swap1\n      revert\n    tag_418:\n        /* \"moonx/moonx.sol\":7240:7246  course */\n      dup1\n        /* \"moonx/moonx.sol\":7240:7255  course.approved */\n      0x02\n      add\n      0x00\n      swap1\n      sload\n      swap1\n      0x0100\n      exp\n      swap1\n      div\n      0xff\n      and\n        /* \"moonx/moonx.sol\":7232:7279  require(course.approved, \"Course not approved\") */\n      tag_421\n      jumpi\n      mload(0x40)\n      0x08c379a000000000000000000000000000000000000000000000000000000000\n      dup2\n      mstore\n      0x04\n      add\n      tag_422\n      swap1\n      tag_257\n      jump\t// in\n    tag_422:\n      mload(0x40)\n      dup1\n      swap2\n      sub\n      swap1\n      revert\n    tag_421:\n        /* \"moonx/moonx.sol\":7290:7310  uint256 rewardAmount */\n      0x00\n        /* \"moonx/moonx.sol\":605:612  1 ether */\n      0x0de0b6b3a7640000\n        /* \"moonx/moonx.sol\":7313:7319  course */\n      dup3\n        /* \"moonx/moonx.sol\":7313:7334  course.passedStudents */\n      0x03\n      add\n      sload\n        /* \"moonx/moonx.sol\":7313:7358  course.passedStudents * CREATOR_REWARD_AMOUNT */\n      tag_423\n      swap2\n      swap1\n      tag_424\n      jump\t// in\n    tag_423:\n        /* \"moonx/moonx.sol\":7290:7358  uint256 rewardAmount = course.passedStudents * CREATOR_REWARD_AMOUNT */\n      swap1\n      pop\n        /* \"moonx/moonx.sol\":7392:7393  0 */\n      0x00\n        /* \"moonx/moonx.sol\":7368:7374  course */\n      dup3\n        /* \"moonx/moonx.sol\":7368:7389  course.passedStudents */\n      0x03\n      add\n        /* \"moonx/moonx.sol\":7368:7393  course.passedStudents = 0 */\n      dup2\n      swap1\n      sstore\n      pop\n        /* \"moonx/moonx.sol\":7458:7470  rewardAmount */\n      dup1\n        /* \"moonx/moonx.sol\":7434:7440  course */\n      dup3\n        /* \"moonx/moonx.sol\":7434:7454  course.totalRewarded */\n      0x04\n      add\n      0x00\n        /* \"moonx/moonx.sol\":7434:7470  course.totalRewarded += rewardAmount */\n      dup3\n      dup3\n      sload\n      tag_425\n      swap2\n      swap1\n      tag_160\n      jump\t// in\n    tag_425:\n      swap3\n      pop\n      pop\n      dup2\n      swap1\n      sstore\n      pop\n        /* \"moonx/moonx.sol\":7482:7494  bool success */\n      0x00\n        /* \"moonx/moonx.sol\":7508:7518  msg.sender */\n      caller\n        /* \"moonx/moonx.sol\":7500:7524  payable(msg.sender).call */\n      0xffffffffffffffffffffffffffffffffffffffff\n      and\n        /* \"moonx/moonx.sol\":7532:7544  rewardAmount */\n      dup3\n        /* \"moonx/moonx.sol\":7500:7549  payable(msg.sender).call{value: rewardAmount}(\"\") */\n      mload(0x40)\n      tag_426\n      swap1\n      tag_226\n      jump\t// in\n    tag_426:\n      0x00\n      mload(0x40)\n      dup1\n      dup4\n      sub\n      dup2\n      dup6\n      dup8\n      gas\n      call\n      swap3\n      pop\n      pop\n      pop\n      returndatasize\n      dup1\n      0x00\n      dup2\n      eq\n      tag_429\n      jumpi\n      mload(0x40)\n      swap2\n      pop\n      and(add(returndatasize, 0x3f), not(0x1f))\n      dup3\n      add\n      0x40\n      mstore\n      returndatasize\n      dup3\n      mstore\n      returndatasize\n      0x00\n      0x20\n      dup5\n      add\n      returndatacopy\n      jump(tag_428)\n    tag_429:\n      0x60\n      swap2\n      pop\n    tag_428:\n      pop\n        /* \"moonx/moonx.sol\":7481:7549  (bool success, ) = payable(msg.sender).call{value: rewardAmount}(\"\") */\n      pop\n      swap1\n      pop\n        /* \"moonx/moonx.sol\":7567:7574  success */\n      dup1\n        /* \"moonx/moonx.sol\":7559:7598  require(success, \"Failed to send MAND\") */\n      tag_430\n      jumpi\n      mload(0x40)\n      0x08c379a000000000000000000000000000000000000000000000000000000000\n      dup2\n      mstore\n      0x04\n      add\n      tag_431\n      swap1\n      tag_232\n      jump\t// in\n    tag_431:\n      mload(0x40)\n      dup1\n      swap2\n      sub\n      swap1\n      revert\n    tag_430:\n        /* \"moonx/moonx.sol\":7646:7656  msg.sender */\n      caller\n        /* \"moonx/moonx.sol\":7614:7671  CreatorRewardClaimed(_courseId, msg.sender, rewardAmount) */\n      0xffffffffffffffffffffffffffffffffffffffff\n      and\n        /* \"moonx/moonx.sol\":7635:7644  _courseId */\n      dup6\n        /* \"moonx/moonx.sol\":7614:7671  CreatorRewardClaimed(_courseId, msg.sender, rewardAmount) */\n      0xb67da43f4cc061f251c05601f44947d1be59a7ef5451a4a5230274da04f88246\n        /* \"moonx/moonx.sol\":7658:7670  rewardAmount */\n      dup5\n        /* \"moonx/moonx.sol\":7614:7671  CreatorRewardClaimed(_courseId, msg.sender, rewardAmount) */\n      mload(0x40)\n      tag_432\n      swap2\n      swap1\n      tag_47\n      jump\t// in\n    tag_432:\n      mload(0x40)\n      dup1\n      swap2\n      sub\n      swap1\n      log3\n        /* \"moonx/moonx.sol\":7083:7678  {... */\n      pop\n      pop\n      pop\n        /* \"moonx/moonx.sol\":2608:2866  {... */\n      pop\n        /* \"moonx/moonx.sol\":6987:7678  function claimCreatorReward(uint256 _courseId) external payable whenNotPaused COLLECTPLATFORMTX {... */\n      pop\n      jump\t// out\n        /* \"moonx/moonx.sol\":557:612  uint256 public constant CREATOR_REWARD_AMOUNT = 1 ether */\n    tag_138:\n        /* \"moonx/moonx.sol\":605:612  1 ether */\n      0x0de0b6b3a7640000\n        /* \"moonx/moonx.sol\":557:612  uint256 public constant CREATOR_REWARD_AMOUNT = 1 ether */\n      dup2\n      jump\t// out\n        /* \"@openzeppelin/contracts/access/Ownable.sol\":2543:2758  function transferOwnership(address newOwner) public virtual onlyOwner {... */\n    tag_143:\n        /* \"@openzeppelin/contracts/access/Ownable.sol\":1531:1544  _checkOwner() */\n      tag_434\n        /* \"@openzeppelin/contracts/access/Ownable.sol\":1531:1542  _checkOwner */\n      tag_150\n        /* \"@openzeppelin/contracts/access/Ownable.sol\":1531:1544  _checkOwner() */\n      jump\t// in\n    tag_434:\n        /* \"@openzeppelin/contracts/access/Ownable.sol\":2647:2648  0 */\n      0x00\n        /* \"@openzeppelin/contracts/access/Ownable.sol\":2627:2649  newOwner == address(0) */\n      0xffffffffffffffffffffffffffffffffffffffff\n      and\n        /* \"@openzeppelin/contracts/access/Ownable.sol\":2627:2635  newOwner */\n      dup2\n        /* \"@openzeppelin/contracts/access/Ownable.sol\":2627:2649  newOwner == address(0) */\n      0xffffffffffffffffffffffffffffffffffffffff\n      and\n      sub\n        /* \"@openzeppelin/contracts/access/Ownable.sol\":2623:2714  if (newOwner == address(0)) {... */\n      tag_436\n      jumpi\n        /* \"@openzeppelin/contracts/access/Ownable.sol\":2700:2701  0 */\n      0x00\n        /* \"@openzeppelin/contracts/access/Ownable.sol\":2672:2703  OwnableInvalidOwner(address(0)) */\n      mload(0x40)\n      0x1e4fbdf700000000000000000000000000000000000000000000000000000000\n      dup2\n      mstore\n      0x04\n      add\n      tag_437\n      swap2\n      swap1\n      tag_99\n      jump\t// in\n    tag_437:\n      mload(0x40)\n      dup1\n      swap2\n      sub\n      swap1\n      revert\n        /* \"@openzeppelin/contracts/access/Ownable.sol\":2623:2714  if (newOwner == address(0)) {... */\n    tag_436:\n        /* \"@openzeppelin/contracts/access/Ownable.sol\":2723:2751  _transferOwnership(newOwner) */\n      tag_438\n        /* \"@openzeppelin/contracts/access/Ownable.sol\":2742:2750  newOwner */\n      dup2\n        /* \"@openzeppelin/contracts/access/Ownable.sol\":2723:2741  _transferOwnership */\n      tag_266\n        /* \"@openzeppelin/contracts/access/Ownable.sol\":2723:2751  _transferOwnership(newOwner) */\n      jump\t// in\n    tag_438:\n        /* \"@openzeppelin/contracts/access/Ownable.sol\":2543:2758  function transferOwnership(address newOwner) public virtual onlyOwner {... */\n      pop\n      jump\t// out\n        /* \"moonx/moonx.sol\":477:533  uint256 public constant STUDENT_REWARD_AMOUNT = 10 ether */\n    tag_146:\n        /* \"moonx/moonx.sol\":525:533  10 ether */\n      0x8ac7230489e80000\n        /* \"moonx/moonx.sol\":477:533  uint256 public constant STUDENT_REWARD_AMOUNT = 10 ether */\n      dup2\n      jump\t// out\n        /* \"@openzeppelin/contracts/access/Ownable.sol\":1796:1958  function _checkOwner() internal view virtual {... */\n    tag_150:\n        /* \"@openzeppelin/contracts/access/Ownable.sol\":1866:1878  _msgSender() */\n      tag_440\n        /* \"@openzeppelin/contracts/access/Ownable.sol\":1866:1876  _msgSender */\n      tag_441\n        /* \"@openzeppelin/contracts/access/Ownable.sol\":1866:1878  _msgSender() */\n      jump\t// in\n    tag_440:\n        /* \"@openzeppelin/contracts/access/Ownable.sol\":1855:1878  owner() != _msgSender() */\n      0xffffffffffffffffffffffffffffffffffffffff\n      and\n        /* \"@openzeppelin/contracts/access/Ownable.sol\":1855:1862  owner() */\n      tag_442\n        /* \"@openzeppelin/contracts/access/Ownable.sol\":1855:1860  owner */\n      tag_97\n        /* \"@openzeppelin/contracts/access/Ownable.sol\":1855:1862  owner() */\n      jump\t// in\n    tag_442:\n        /* \"@openzeppelin/contracts/access/Ownable.sol\":1855:1878  owner() != _msgSender() */\n      0xffffffffffffffffffffffffffffffffffffffff\n      and\n      eq\n        /* \"@openzeppelin/contracts/access/Ownable.sol\":1851:1952  if (owner() != _msgSender()) {... */\n      tag_443\n      jumpi\n        /* \"@openzeppelin/contracts/access/Ownable.sol\":1928:1940  _msgSender() */\n      tag_444\n        /* \"@openzeppelin/contracts/access/Ownable.sol\":1928:1938  _msgSender */\n      tag_441\n        /* \"@openzeppelin/contracts/access/Ownable.sol\":1928:1940  _msgSender() */\n      jump\t// in\n    tag_444:\n        /* \"@openzeppelin/contracts/access/Ownable.sol\":1901:1941  OwnableUnauthorizedAccount(_msgSender()) */\n      mload(0x40)\n      0x118cdaa700000000000000000000000000000000000000000000000000000000\n      dup2\n      mstore\n      0x04\n      add\n      tag_445\n      swap2\n      swap1\n      tag_99\n      jump\t// in\n    tag_445:\n      mload(0x40)\n      dup1\n      swap2\n      sub\n      swap1\n      revert\n        /* \"@openzeppelin/contracts/access/Ownable.sol\":1851:1952  if (owner() != _msgSender()) {... */\n    tag_443:\n        /* \"@openzeppelin/contracts/access/Ownable.sol\":1796:1958  function _checkOwner() internal view virtual {... */\n      jump\t// out\n        /* \"@openzeppelin/contracts/security/Pausable.sol\":2433:2550  function _unpause() internal virtual whenPaused {... */\n    tag_153:\n        /* \"@openzeppelin/contracts/security/Pausable.sol\":1486:1502  _requirePaused() */\n      tag_447\n        /* \"@openzeppelin/contracts/security/Pausable.sol\":1486:1500  _requirePaused */\n      tag_448\n        /* \"@openzeppelin/contracts/security/Pausable.sol\":1486:1502  _requirePaused() */\n      jump\t// in\n    tag_447:\n        /* \"@openzeppelin/contracts/security/Pausable.sol\":2501:2506  false */\n      0x00\n        /* \"@openzeppelin/contracts/security/Pausable.sol\":2491:2498  _paused */\n      dup1\n      0x14\n        /* \"@openzeppelin/contracts/security/Pausable.sol\":2491:2506  _paused = false */\n      0x0100\n      exp\n      dup2\n      sload\n      dup2\n      0xff\n      mul\n      not\n      and\n      swap1\n      dup4\n      iszero\n      iszero\n      mul\n      or\n      swap1\n      sstore\n      pop\n        /* \"@openzeppelin/contracts/security/Pausable.sol\":2521:2543  Unpaused(_msgSender()) */\n      0x5db9ee0a495bf2e6ff9c91a7834c1ba4fdd244a5e8aa4e537bd38aeae4b073aa\n        /* \"@openzeppelin/contracts/security/Pausable.sol\":2530:2542  _msgSender() */\n      tag_450\n        /* \"@openzeppelin/contracts/security/Pausable.sol\":2530:2540  _msgSender */\n      tag_441\n        /* \"@openzeppelin/contracts/security/Pausable.sol\":2530:2542  _msgSender() */\n      jump\t// in\n    tag_450:\n        /* \"@openzeppelin/contracts/security/Pausable.sol\":2521:2543  Unpaused(_msgSender()) */\n      mload(0x40)\n      tag_451\n      swap2\n      swap1\n      tag_99\n      jump\t// in\n    tag_451:\n      mload(0x40)\n      dup1\n      swap2\n      sub\n      swap1\n      log1\n        /* \"@openzeppelin/contracts/security/Pausable.sol\":2433:2550  function _unpause() internal virtual whenPaused {... */\n      jump\t// out\n        /* \"@openzeppelin/contracts/security/Pausable.sol\":1767:1873  function _requireNotPaused() internal view virtual {... */\n    tag_237:\n        /* \"@openzeppelin/contracts/security/Pausable.sol\":1837:1845  paused() */\n      tag_453\n        /* \"@openzeppelin/contracts/security/Pausable.sol\":1837:1843  paused */\n      tag_61\n        /* \"@openzeppelin/contracts/security/Pausable.sol\":1837:1845  paused() */\n      jump\t// in\n    tag_453:\n        /* \"@openzeppelin/contracts/security/Pausable.sol\":1836:1845  !paused() */\n      iszero\n        /* \"@openzeppelin/contracts/security/Pausable.sol\":1828:1866  require(!paused(), \"Pausable: paused\") */\n      tag_454\n      jumpi\n      mload(0x40)\n      0x08c379a000000000000000000000000000000000000000000000000000000000\n      dup2\n      mstore\n      0x04\n      add\n      tag_455\n      swap1\n      tag_456\n      jump\t// in\n    tag_455:\n      mload(0x40)\n      dup1\n      swap2\n      sub\n      swap1\n      revert\n    tag_454:\n        /* \"@openzeppelin/contracts/security/Pausable.sol\":1767:1873  function _requireNotPaused() internal view virtual {... */\n      jump\t// out\n        /* \"@openzeppelin/contracts/access/Ownable.sol\":2912:3099  function _transferOwnership(address newOwner) internal virtual {... */\n    tag_266:\n        /* \"@openzeppelin/contracts/access/Ownable.sol\":2985:3001  address oldOwner */\n      0x00\n        /* \"@openzeppelin/contracts/access/Ownable.sol\":3004:3010  _owner */\n      dup1\n      0x00\n      swap1\n      sload\n      swap1\n      0x0100\n      exp\n      swap1\n      div\n      0xffffffffffffffffffffffffffffffffffffffff\n      and\n        /* \"@openzeppelin/contracts/access/Ownable.sol\":2985:3010  address oldOwner = _owner */\n      swap1\n      pop\n        /* \"@openzeppelin/contracts/access/Ownable.sol\":3029:3037  newOwner */\n      dup2\n        /* \"@openzeppelin/contracts/access/Ownable.sol\":3020:3026  _owner */\n      0x00\n      dup1\n        /* \"@openzeppelin/contracts/access/Ownable.sol\":3020:3037  _owner = newOwner */\n      0x0100\n      exp\n      dup2\n      sload\n      dup2\n      0xffffffffffffffffffffffffffffffffffffffff\n      mul\n      not\n      and\n      swap1\n      dup4\n      0xffffffffffffffffffffffffffffffffffffffff\n      and\n      mul\n      or\n      swap1\n      sstore\n      pop\n        /* \"@openzeppelin/contracts/access/Ownable.sol\":3083:3091  newOwner */\n      dup2\n        /* \"@openzeppelin/contracts/access/Ownable.sol\":3052:3092  OwnershipTransferred(oldOwner, newOwner) */\n      0xffffffffffffffffffffffffffffffffffffffff\n      and\n        /* \"@openzeppelin/contracts/access/Ownable.sol\":3073:3081  oldOwner */\n      dup2\n        /* \"@openzeppelin/contracts/access/Ownable.sol\":3052:3092  OwnershipTransferred(oldOwner, newOwner) */\n      0xffffffffffffffffffffffffffffffffffffffff\n      and\n      0x8be0079c531659141344cd1fd0a4f28419497f9722a3daafe3b4186f6b6457e0\n      mload(0x40)\n      mload(0x40)\n      dup1\n      swap2\n      sub\n      swap1\n      log3\n        /* \"@openzeppelin/contracts/access/Ownable.sol\":2975:3099  {... */\n      pop\n        /* \"@openzeppelin/contracts/access/Ownable.sol\":2912:3099  function _transferOwnership(address newOwner) internal virtual {... */\n      pop\n      jump\t// out\n        /* \"@openzeppelin/contracts/security/Pausable.sol\":2186:2301  function _pause() internal virtual whenNotPaused {... */\n    tag_354:\n        /* \"@openzeppelin/contracts/security/Pausable.sol\":1239:1258  _requireNotPaused() */\n      tag_459\n        /* \"@openzeppelin/contracts/security/Pausable.sol\":1239:1256  _requireNotPaused */\n      tag_237\n        /* \"@openzeppelin/contracts/security/Pausable.sol\":1239:1258  _requireNotPaused() */\n      jump\t// in\n    tag_459:\n        /* \"@openzeppelin/contracts/security/Pausable.sol\":2255:2259  true */\n      0x01\n        /* \"@openzeppelin/contracts/security/Pausable.sol\":2245:2252  _paused */\n      0x00\n      0x14\n        /* \"@openzeppelin/contracts/security/Pausable.sol\":2245:2259  _paused = true */\n      0x0100\n      exp\n      dup2\n      sload\n      dup2\n      0xff\n      mul\n      not\n      and\n      swap1\n      dup4\n      iszero\n      iszero\n      mul\n      or\n      swap1\n      sstore\n      pop\n        /* \"@openzeppelin/contracts/security/Pausable.sol\":2274:2294  Paused(_msgSender()) */\n      0x62e78cea01bee320cd4e420270b5ea74000d11b0c9f74754ebdbfc544b05a258\n        /* \"@openzeppelin/contracts/security/Pausable.sol\":2281:2293  _msgSender() */\n      tag_461\n        /* \"@openzeppelin/contracts/security/Pausable.sol\":2281:2291  _msgSender */\n      tag_441\n        /* \"@openzeppelin/contracts/security/Pausable.sol\":2281:2293  _msgSender() */\n      jump\t// in\n    tag_461:\n        /* \"@openzeppelin/contracts/security/Pausable.sol\":2274:2294  Paused(_msgSender()) */\n      mload(0x40)\n      tag_462\n      swap2\n      swap1\n      tag_99\n      jump\t// in\n    tag_462:\n      mload(0x40)\n      dup1\n      swap2\n      sub\n      swap1\n      log1\n        /* \"@openzeppelin/contracts/security/Pausable.sol\":2186:2301  function _pause() internal virtual whenNotPaused {... */\n      jump\t// out\n        /* \"@openzeppelin/contracts/utils/Context.sol\":656:752  function _msgSender() internal view virtual returns (address) {... */\n    tag_441:\n        /* \"@openzeppelin/contracts/utils/Context.sol\":709:716  address */\n      0x00\n        /* \"@openzeppelin/contracts/utils/Context.sol\":735:745  msg.sender */\n      caller\n        /* \"@openzeppelin/contracts/utils/Context.sol\":728:745  return msg.sender */\n      swap1\n      pop\n        /* \"@openzeppelin/contracts/utils/Context.sol\":656:752  function _msgSender() internal view virtual returns (address) {... */\n      swap1\n      jump\t// out\n        /* \"@openzeppelin/contracts/security/Pausable.sol\":1945:2051  function _requirePaused() internal view virtual {... */\n    tag_448:\n        /* \"@openzeppelin/contracts/security/Pausable.sol\":2011:2019  paused() */\n      tag_465\n        /* \"@openzeppelin/contracts/security/Pausable.sol\":2011:2017  paused */\n      tag_61\n        /* \"@openzeppelin/contracts/security/Pausable.sol\":2011:2019  paused() */\n      jump\t// in\n    tag_465:\n        /* \"@openzeppelin/contracts/security/Pausable.sol\":2003:2044  require(paused(), \"Pausable: not paused\") */\n      tag_466\n      jumpi\n      mload(0x40)\n      0x08c379a000000000000000000000000000000000000000000000000000000000\n      dup2\n      mstore\n      0x04\n      add\n      tag_467\n      swap1\n      tag_468\n      jump\t// in\n    tag_467:\n      mload(0x40)\n      dup1\n      swap2\n      sub\n      swap1\n      revert\n    tag_466:\n        /* \"@openzeppelin/contracts/security/Pausable.sol\":1945:2051  function _requirePaused() internal view virtual {... */\n      jump\t// out\n        /* \"#utility.yul\":7:82   */\n    tag_469:\n        /* \"#utility.yul\":40:46   */\n      0x00\n        /* \"#utility.yul\":73:75   */\n      0x40\n        /* \"#utility.yul\":67:76   */\n      mload\n        /* \"#utility.yul\":57:76   */\n      swap1\n      pop\n        /* \"#utility.yul\":7:82   */\n      swap1\n      jump\t// out\n        /* \"#utility.yul\":88:205   */\n    tag_470:\n        /* \"#utility.yul\":197:198   */\n      0x00\n        /* \"#utility.yul\":194:195   */\n      dup1\n        /* \"#utility.yul\":187:199   */\n      revert\n        /* \"#utility.yul\":211:328   */\n    tag_471:\n        /* \"#utility.yul\":320:321   */\n      0x00\n        /* \"#utility.yul\":317:318   */\n      dup1\n        /* \"#utility.yul\":310:322   */\n      revert\n        /* \"#utility.yul\":334:460   */\n    tag_472:\n        /* \"#utility.yul\":371:378   */\n      0x00\n        /* \"#utility.yul\":411:453   */\n      0xffffffffffffffffffffffffffffffffffffffff\n        /* \"#utility.yul\":404:409   */\n      dup3\n        /* \"#utility.yul\":400:454   */\n      and\n        /* \"#utility.yul\":389:454   */\n      swap1\n      pop\n        /* \"#utility.yul\":334:460   */\n      swap2\n      swap1\n      pop\n      jump\t// out\n        /* \"#utility.yul\":466:562   */\n    tag_473:\n        /* \"#utility.yul\":503:510   */\n      0x00\n        /* \"#utility.yul\":532:556   */\n      tag_582\n        /* \"#utility.yul\":550:555   */\n      dup3\n        /* \"#utility.yul\":532:556   */\n      tag_472\n      jump\t// in\n    tag_582:\n        /* \"#utility.yul\":521:556   */\n      swap1\n      pop\n        /* \"#utility.yul\":466:562   */\n      swap2\n      swap1\n      pop\n      jump\t// out\n        /* \"#utility.yul\":568:690   */\n    tag_474:\n        /* \"#utility.yul\":641:665   */\n      tag_584\n        /* \"#utility.yul\":659:664   */\n      dup2\n        /* \"#utility.yul\":641:665   */\n      tag_473\n      jump\t// in\n    tag_584:\n        /* \"#utility.yul\":634:639   */\n      dup2\n        /* \"#utility.yul\":631:666   */\n      eq\n        /* \"#utility.yul\":621:684   */\n      tag_585\n      jumpi\n        /* \"#utility.yul\":680:681   */\n      0x00\n        /* \"#utility.yul\":677:678   */\n      dup1\n        /* \"#utility.yul\":670:682   */\n      revert\n        /* \"#utility.yul\":621:684   */\n    tag_585:\n        /* \"#utility.yul\":568:690   */\n      pop\n      jump\t// out\n        /* \"#utility.yul\":696:835   */\n    tag_475:\n        /* \"#utility.yul\":742:747   */\n      0x00\n        /* \"#utility.yul\":780:786   */\n      dup2\n        /* \"#utility.yul\":767:787   */\n      calldataload\n        /* \"#utility.yul\":758:787   */\n      swap1\n      pop\n        /* \"#utility.yul\":796:829   */\n      tag_587\n        /* \"#utility.yul\":823:828   */\n      dup2\n        /* \"#utility.yul\":796:829   */\n      tag_474\n      jump\t// in\n    tag_587:\n        /* \"#utility.yul\":696:835   */\n      swap3\n      swap2\n      pop\n      pop\n      jump\t// out\n        /* \"#utility.yul\":841:918   */\n    tag_476:\n        /* \"#utility.yul\":878:885   */\n      0x00\n        /* \"#utility.yul\":907:912   */\n      dup2\n        /* \"#utility.yul\":896:912   */\n      swap1\n      pop\n        /* \"#utility.yul\":841:918   */\n      swap2\n      swap1\n      pop\n      jump\t// out\n        /* \"#utility.yul\":924:1046   */\n    tag_477:\n        /* \"#utility.yul\":997:1021   */\n      tag_590\n        /* \"#utility.yul\":1015:1020   */\n      dup2\n        /* \"#utility.yul\":997:1021   */\n      tag_476\n      jump\t// in\n    tag_590:\n        /* \"#utility.yul\":990:995   */\n      dup2\n        /* \"#utility.yul\":987:1022   */\n      eq\n        /* \"#utility.yul\":977:1040   */\n      tag_591\n      jumpi\n        /* \"#utility.yul\":1036:1037   */\n      0x00\n        /* \"#utility.yul\":1033:1034   */\n      dup1\n        /* \"#utility.yul\":1026:1038   */\n      revert\n        /* \"#utility.yul\":977:1040   */\n    tag_591:\n        /* \"#utility.yul\":924:1046   */\n      pop\n      jump\t// out\n        /* \"#utility.yul\":1052:1191   */\n    tag_478:\n        /* \"#utility.yul\":1098:1103   */\n      0x00\n        /* \"#utility.yul\":1136:1142   */\n      dup2\n        /* \"#utility.yul\":1123:1143   */\n      calldataload\n        /* \"#utility.yul\":1114:1143   */\n      swap1\n      pop\n        /* \"#utility.yul\":1152:1185   */\n      tag_593\n        /* \"#utility.yul\":1179:1184   */\n      dup2\n        /* \"#utility.yul\":1152:1185   */\n      tag_477\n      jump\t// in\n    tag_593:\n        /* \"#utility.yul\":1052:1191   */\n      swap3\n      swap2\n      pop\n      pop\n      jump\t// out\n        /* \"#utility.yul\":1197:1671   */\n    tag_39:\n        /* \"#utility.yul\":1265:1271   */\n      0x00\n        /* \"#utility.yul\":1273:1279   */\n      dup1\n        /* \"#utility.yul\":1322:1324   */\n      0x40\n        /* \"#utility.yul\":1310:1319   */\n      dup4\n        /* \"#utility.yul\":1301:1308   */\n      dup6\n        /* \"#utility.yul\":1297:1320   */\n      sub\n        /* \"#utility.yul\":1293:1325   */\n      slt\n        /* \"#utility.yul\":1290:1409   */\n      iszero\n      tag_595\n      jumpi\n        /* \"#utility.yul\":1328:1407   */\n      tag_596\n      tag_470\n      jump\t// in\n    tag_596:\n        /* \"#utility.yul\":1290:1409   */\n    tag_595:\n        /* \"#utility.yul\":1448:1449   */\n      0x00\n        /* \"#utility.yul\":1473:1526   */\n      tag_597\n        /* \"#utility.yul\":1518:1525   */\n      dup6\n        /* \"#utility.yul\":1509:1515   */\n      dup3\n        /* \"#utility.yul\":1498:1507   */\n      dup7\n        /* \"#utility.yul\":1494:1516   */\n      add\n        /* \"#utility.yul\":1473:1526   */\n      tag_475\n      jump\t// in\n    tag_597:\n        /* \"#utility.yul\":1463:1526   */\n      swap3\n      pop\n        /* \"#utility.yul\":1419:1536   */\n      pop\n        /* \"#utility.yul\":1575:1577   */\n      0x20\n        /* \"#utility.yul\":1601:1654   */\n      tag_598\n        /* \"#utility.yul\":1646:1653   */\n      dup6\n        /* \"#utility.yul\":1637:1643   */\n      dup3\n        /* \"#utility.yul\":1626:1635   */\n      dup7\n        /* \"#utility.yul\":1622:1644   */\n      add\n        /* \"#utility.yul\":1601:1654   */\n      tag_478\n      jump\t// in\n    tag_598:\n        /* \"#utility.yul\":1591:1654   */\n      swap2\n      pop\n        /* \"#utility.yul\":1546:1664   */\n      pop\n        /* \"#utility.yul\":1197:1671   */\n      swap3\n      pop\n      swap3\n      swap1\n      pop\n      jump\t// out\n        /* \"#utility.yul\":1677:1767   */\n    tag_479:\n        /* \"#utility.yul\":1711:1718   */\n      0x00\n        /* \"#utility.yul\":1754:1759   */\n      dup2\n        /* \"#utility.yul\":1747:1760   */\n      iszero\n        /* \"#utility.yul\":1740:1761   */\n      iszero\n        /* \"#utility.yul\":1729:1761   */\n      swap1\n      pop\n        /* \"#utility.yul\":1677:1767   */\n      swap2\n      swap1\n      pop\n      jump\t// out\n        /* \"#utility.yul\":1773:1882   */\n    tag_480:\n        /* \"#utility.yul\":1854:1875   */\n      tag_601\n        /* \"#utility.yul\":1869:1874   */\n      dup2\n        /* \"#utility.yul\":1854:1875   */\n      tag_479\n      jump\t// in\n    tag_601:\n        /* \"#utility.yul\":1849:1852   */\n      dup3\n        /* \"#utility.yul\":1842:1876   */\n      mstore\n        /* \"#utility.yul\":1773:1882   */\n      pop\n      pop\n      jump\t// out\n        /* \"#utility.yul\":1888:1974   */\n    tag_481:\n        /* \"#utility.yul\":1923:1930   */\n      0x00\n        /* \"#utility.yul\":1963:1967   */\n      0xff\n        /* \"#utility.yul\":1956:1961   */\n      dup3\n        /* \"#utility.yul\":1952:1968   */\n      and\n        /* \"#utility.yul\":1941:1968   */\n      swap1\n      pop\n        /* \"#utility.yul\":1888:1974   */\n      swap2\n      swap1\n      pop\n      jump\t// out\n        /* \"#utility.yul\":1980:2092   */\n    tag_482:\n        /* \"#utility.yul\":2063:2085   */\n      tag_604\n        /* \"#utility.yul\":2079:2084   */\n      dup2\n        /* \"#utility.yul\":2063:2085   */\n      tag_481\n      jump\t// in\n    tag_604:\n        /* \"#utility.yul\":2058:2061   */\n      dup3\n        /* \"#utility.yul\":2051:2086   */\n      mstore\n        /* \"#utility.yul\":1980:2092   */\n      pop\n      pop\n      jump\t// out\n        /* \"#utility.yul\":2098:2607   */\n    tag_42:\n        /* \"#utility.yul\":2253:2257   */\n      0x00\n        /* \"#utility.yul\":2291:2294   */\n      0x80\n        /* \"#utility.yul\":2280:2289   */\n      dup3\n        /* \"#utility.yul\":2276:2295   */\n      add\n        /* \"#utility.yul\":2268:2295   */\n      swap1\n      pop\n        /* \"#utility.yul\":2305:2370   */\n      tag_606\n        /* \"#utility.yul\":2367:2368   */\n      0x00\n        /* \"#utility.yul\":2356:2365   */\n      dup4\n        /* \"#utility.yul\":2352:2369   */\n      add\n        /* \"#utility.yul\":2343:2349   */\n      dup8\n        /* \"#utility.yul\":2305:2370   */\n      tag_480\n      jump\t// in\n    tag_606:\n        /* \"#utility.yul\":2380:2448   */\n      tag_607\n        /* \"#utility.yul\":2444:2446   */\n      0x20\n        /* \"#utility.yul\":2433:2442   */\n      dup4\n        /* \"#utility.yul\":2429:2447   */\n      add\n        /* \"#utility.yul\":2420:2426   */\n      dup7\n        /* \"#utility.yul\":2380:2448   */\n      tag_482\n      jump\t// in\n    tag_607:\n        /* \"#utility.yul\":2458:2524   */\n      tag_608\n        /* \"#utility.yul\":2520:2522   */\n      0x40\n        /* \"#utility.yul\":2509:2518   */\n      dup4\n        /* \"#utility.yul\":2505:2523   */\n      add\n        /* \"#utility.yul\":2496:2502   */\n      dup6\n        /* \"#utility.yul\":2458:2524   */\n      tag_480\n      jump\t// in\n    tag_608:\n        /* \"#utility.yul\":2534:2600   */\n      tag_609\n        /* \"#utility.yul\":2596:2598   */\n      0x60\n        /* \"#utility.yul\":2585:2594   */\n      dup4\n        /* \"#utility.yul\":2581:2599   */\n      add\n        /* \"#utility.yul\":2572:2578   */\n      dup5\n        /* \"#utility.yul\":2534:2600   */\n      tag_480\n      jump\t// in\n    tag_609:\n        /* \"#utility.yul\":2098:2607   */\n      swap6\n      swap5\n      pop\n      pop\n      pop\n      pop\n      pop\n      jump\t// out\n        /* \"#utility.yul\":2613:2731   */\n    tag_483:\n        /* \"#utility.yul\":2700:2724   */\n      tag_611\n        /* \"#utility.yul\":2718:2723   */\n      dup2\n        /* \"#utility.yul\":2700:2724   */\n      tag_476\n      jump\t// in\n    tag_611:\n        /* \"#utility.yul\":2695:2698   */\n      dup3\n        /* \"#utility.yul\":2688:2725   */\n      mstore\n        /* \"#utility.yul\":2613:2731   */\n      pop\n      pop\n      jump\t// out\n        /* \"#utility.yul\":2737:2959   */\n    tag_47:\n        /* \"#utility.yul\":2830:2834   */\n      0x00\n        /* \"#utility.yul\":2868:2870   */\n      0x20\n        /* \"#utility.yul\":2857:2866   */\n      dup3\n        /* \"#utility.yul\":2853:2871   */\n      add\n        /* \"#utility.yul\":2845:2871   */\n      swap1\n      pop\n        /* \"#utility.yul\":2881:2952   */\n      tag_613\n        /* \"#utility.yul\":2949:2950   */\n      0x00\n        /* \"#utility.yul\":2938:2947   */\n      dup4\n        /* \"#utility.yul\":2934:2951   */\n      add\n        /* \"#utility.yul\":2925:2931   */\n      dup5\n        /* \"#utility.yul\":2881:2952   */\n      tag_483\n      jump\t// in\n    tag_613:\n        /* \"#utility.yul\":2737:2959   */\n      swap3\n      swap2\n      pop\n      pop\n      jump\t// out\n        /* \"#utility.yul\":2965:3175   */\n    tag_63:\n        /* \"#utility.yul\":3052:3056   */\n      0x00\n        /* \"#utility.yul\":3090:3092   */\n      0x20\n        /* \"#utility.yul\":3079:3088   */\n      dup3\n        /* \"#utility.yul\":3075:3093   */\n      add\n        /* \"#utility.yul\":3067:3093   */\n      swap1\n      pop\n        /* \"#utility.yul\":3103:3168   */\n      tag_615\n        /* \"#utility.yul\":3165:3166   */\n      0x00\n        /* \"#utility.yul\":3154:3163   */\n      dup4\n        /* \"#utility.yul\":3150:3167   */\n      add\n        /* \"#utility.yul\":3141:3147   */\n      dup5\n        /* \"#utility.yul\":3103:3168   */\n      tag_480\n      jump\t// in\n    tag_615:\n        /* \"#utility.yul\":2965:3175   */\n      swap3\n      swap2\n      pop\n      pop\n      jump\t// out\n        /* \"#utility.yul\":3181:3298   */\n    tag_484:\n        /* \"#utility.yul\":3290:3291   */\n      0x00\n        /* \"#utility.yul\":3287:3288   */\n      dup1\n        /* \"#utility.yul\":3280:3292   */\n      revert\n        /* \"#utility.yul\":3304:3406   */\n    tag_485:\n        /* \"#utility.yul\":3345:3351   */\n      0x00\n        /* \"#utility.yul\":3396:3398   */\n      0x1f\n        /* \"#utility.yul\":3392:3399   */\n      not\n        /* \"#utility.yul\":3387:3389   */\n      0x1f\n        /* \"#utility.yul\":3380:3385   */\n      dup4\n        /* \"#utility.yul\":3376:3390   */\n      add\n        /* \"#utility.yul\":3372:3400   */\n      and\n        /* \"#utility.yul\":3362:3400   */\n      swap1\n      pop\n        /* \"#utility.yul\":3304:3406   */\n      swap2\n      swap1\n      pop\n      jump\t// out\n        /* \"#utility.yul\":3412:3592   */\n    tag_486:\n        /* \"#utility.yul\":3460:3537   */\n      0x4e487b7100000000000000000000000000000000000000000000000000000000\n        /* \"#utility.yul\":3457:3458   */\n      0x00\n        /* \"#utility.yul\":3450:3538   */\n      mstore\n        /* \"#utility.yul\":3557:3561   */\n      0x41\n        /* \"#utility.yul\":3554:3555   */\n      0x04\n        /* \"#utility.yul\":3547:3562   */\n      mstore\n        /* \"#utility.yul\":3581:3585   */\n      0x24\n        /* \"#utility.yul\":3578:3579   */\n      0x00\n        /* \"#utility.yul\":3571:3586   */\n      revert\n        /* \"#utility.yul\":3598:3879   */\n    tag_487:\n        /* \"#utility.yul\":3681:3708   */\n      tag_620\n        /* \"#utility.yul\":3703:3707   */\n      dup3\n        /* \"#utility.yul\":3681:3708   */\n      tag_485\n      jump\t// in\n    tag_620:\n        /* \"#utility.yul\":3673:3679   */\n      dup2\n        /* \"#utility.yul\":3669:3709   */\n      add\n        /* \"#utility.yul\":3811:3817   */\n      dup2\n        /* \"#utility.yul\":3799:3809   */\n      dup2\n        /* \"#utility.yul\":3796:3818   */\n      lt\n        /* \"#utility.yul\":3775:3793   */\n      0xffffffffffffffff\n        /* \"#utility.yul\":3763:3773   */\n      dup3\n        /* \"#utility.yul\":3760:3794   */\n      gt\n        /* \"#utility.yul\":3757:3819   */\n      or\n        /* \"#utility.yul\":3754:3842   */\n      iszero\n      tag_621\n      jumpi\n        /* \"#utility.yul\":3822:3840   */\n      tag_622\n      tag_486\n      jump\t// in\n    tag_622:\n        /* \"#utility.yul\":3754:3842   */\n    tag_621:\n        /* \"#utility.yul\":3862:3872   */\n      dup1\n        /* \"#utility.yul\":3858:3860   */\n      0x40\n        /* \"#utility.yul\":3851:3873   */\n      mstore\n        /* \"#utility.yul\":3641:3879   */\n      pop\n        /* \"#utility.yul\":3598:3879   */\n      pop\n      pop\n      jump\t// out\n        /* \"#utility.yul\":3885:4014   */\n    tag_488:\n        /* \"#utility.yul\":3919:3925   */\n      0x00\n        /* \"#utility.yul\":3946:3966   */\n      tag_624\n      tag_469\n      jump\t// in\n    tag_624:\n        /* \"#utility.yul\":3936:3966   */\n      swap1\n      pop\n        /* \"#utility.yul\":3975:4008   */\n      tag_625\n        /* \"#utility.yul\":4003:4007   */\n      dup3\n        /* \"#utility.yul\":3995:4001   */\n      dup3\n        /* \"#utility.yul\":3975:4008   */\n      tag_487\n      jump\t// in\n    tag_625:\n        /* \"#utility.yul\":3885:4014   */\n      swap2\n      swap1\n      pop\n      jump\t// out\n        /* \"#utility.yul\":4020:4341   */\n    tag_489:\n        /* \"#utility.yul\":4107:4111   */\n      0x00\n        /* \"#utility.yul\":4197:4215   */\n      0xffffffffffffffff\n        /* \"#utility.yul\":4189:4195   */\n      dup3\n        /* \"#utility.yul\":4186:4216   */\n      gt\n        /* \"#utility.yul\":4183:4239   */\n      iszero\n      tag_627\n      jumpi\n        /* \"#utility.yul\":4219:4237   */\n      tag_628\n      tag_486\n      jump\t// in\n    tag_628:\n        /* \"#utility.yul\":4183:4239   */\n    tag_627:\n        /* \"#utility.yul\":4269:4273   */\n      0x20\n        /* \"#utility.yul\":4261:4267   */\n      dup3\n        /* \"#utility.yul\":4257:4274   */\n      mul\n        /* \"#utility.yul\":4249:4274   */\n      swap1\n      pop\n        /* \"#utility.yul\":4329:4333   */\n      0x20\n        /* \"#utility.yul\":4323:4327   */\n      dup2\n        /* \"#utility.yul\":4319:4334   */\n      add\n        /* \"#utility.yul\":4311:4334   */\n      swap1\n      pop\n        /* \"#utility.yul\":4020:4341   */\n      swap2\n      swap1\n      pop\n      jump\t// out\n        /* \"#utility.yul\":4347:4464   */\n    tag_490:\n        /* \"#utility.yul\":4456:4457   */\n      0x00\n        /* \"#utility.yul\":4453:4454   */\n      dup1\n        /* \"#utility.yul\":4446:4458   */\n      revert\n        /* \"#utility.yul\":4470:4587   */\n    tag_491:\n        /* \"#utility.yul\":4579:4580   */\n      0x00\n        /* \"#utility.yul\":4576:4577   */\n      dup1\n        /* \"#utility.yul\":4569:4581   */\n      revert\n        /* \"#utility.yul\":4593:4901   */\n    tag_492:\n        /* \"#utility.yul\":4655:4659   */\n      0x00\n        /* \"#utility.yul\":4745:4763   */\n      0xffffffffffffffff\n        /* \"#utility.yul\":4737:4743   */\n      dup3\n        /* \"#utility.yul\":4734:4764   */\n      gt\n        /* \"#utility.yul\":4731:4787   */\n      iszero\n      tag_632\n      jumpi\n        /* \"#utility.yul\":4767:4785   */\n      tag_633\n      tag_486\n      jump\t// in\n    tag_633:\n        /* \"#utility.yul\":4731:4787   */\n    tag_632:\n        /* \"#utility.yul\":4805:4834   */\n      tag_634\n        /* \"#utility.yul\":4827:4833   */\n      dup3\n        /* \"#utility.yul\":4805:4834   */\n      tag_485\n      jump\t// in\n    tag_634:\n        /* \"#utility.yul\":4797:4834   */\n      swap1\n      pop\n        /* \"#utility.yul\":4889:4893   */\n      0x20\n        /* \"#utility.yul\":4883:4887   */\n      dup2\n        /* \"#utility.yul\":4879:4894   */\n      add\n        /* \"#utility.yul\":4871:4894   */\n      swap1\n      pop\n        /* \"#utility.yul\":4593:4901   */\n      swap2\n      swap1\n      pop\n      jump\t// out\n        /* \"#utility.yul\":4907:5055   */\n    tag_493:\n        /* \"#utility.yul\":5005:5011   */\n      dup3\n        /* \"#utility.yul\":5000:5003   */\n      dup2\n        /* \"#utility.yul\":4995:4998   */\n      dup4\n        /* \"#utility.yul\":4982:5012   */\n      calldatacopy\n        /* \"#utility.yul\":5046:5047   */\n      0x00\n        /* \"#utility.yul\":5037:5043   */\n      dup4\n        /* \"#utility.yul\":5032:5035   */\n      dup4\n        /* \"#utility.yul\":5028:5044   */\n      add\n        /* \"#utility.yul\":5021:5048   */\n      mstore\n        /* \"#utility.yul\":4907:5055   */\n      pop\n      pop\n      pop\n      jump\t// out\n        /* \"#utility.yul\":5061:5486   */\n    tag_494:\n        /* \"#utility.yul\":5139:5144   */\n      0x00\n        /* \"#utility.yul\":5164:5230   */\n      tag_637\n        /* \"#utility.yul\":5180:5229   */\n      tag_638\n        /* \"#utility.yul\":5222:5228   */\n      dup5\n        /* \"#utility.yul\":5180:5229   */\n      tag_492\n      jump\t// in\n    tag_638:\n        /* \"#utility.yul\":5164:5230   */\n      tag_488\n      jump\t// in\n    tag_637:\n        /* \"#utility.yul\":5155:5230   */\n      swap1\n      pop\n        /* \"#utility.yul\":5253:5259   */\n      dup3\n        /* \"#utility.yul\":5246:5251   */\n      dup2\n        /* \"#utility.yul\":5239:5260   */\n      mstore\n        /* \"#utility.yul\":5291:5295   */\n      0x20\n        /* \"#utility.yul\":5284:5289   */\n      dup2\n        /* \"#utility.yul\":5280:5296   */\n      add\n        /* \"#utility.yul\":5329:5332   */\n      dup5\n        /* \"#utility.yul\":5320:5326   */\n      dup5\n        /* \"#utility.yul\":5315:5318   */\n      dup5\n        /* \"#utility.yul\":5311:5327   */\n      add\n        /* \"#utility.yul\":5308:5333   */\n      gt\n        /* \"#utility.yul\":5305:5417   */\n      iszero\n      tag_639\n      jumpi\n        /* \"#utility.yul\":5336:5415   */\n      tag_640\n      tag_491\n      jump\t// in\n    tag_640:\n        /* \"#utility.yul\":5305:5417   */\n    tag_639:\n        /* \"#utility.yul\":5426:5480   */\n      tag_641\n        /* \"#utility.yul\":5473:5479   */\n      dup5\n        /* \"#utility.yul\":5468:5471   */\n      dup3\n        /* \"#utility.yul\":5463:5466   */\n      dup6\n        /* \"#utility.yul\":5426:5480   */\n      tag_493\n      jump\t// in\n    tag_641:\n        /* \"#utility.yul\":5145:5486   */\n      pop\n        /* \"#utility.yul\":5061:5486   */\n      swap4\n      swap3\n      pop\n      pop\n      pop\n      jump\t// out\n        /* \"#utility.yul\":5506:5846   */\n    tag_495:\n        /* \"#utility.yul\":5562:5567   */\n      0x00\n        /* \"#utility.yul\":5611:5614   */\n      dup3\n        /* \"#utility.yul\":5604:5608   */\n      0x1f\n        /* \"#utility.yul\":5596:5602   */\n      dup4\n        /* \"#utility.yul\":5592:5609   */\n      add\n        /* \"#utility.yul\":5588:5615   */\n      slt\n        /* \"#utility.yul\":5578:5700   */\n      tag_643\n      jumpi\n        /* \"#utility.yul\":5619:5698   */\n      tag_644\n      tag_484\n      jump\t// in\n    tag_644:\n        /* \"#utility.yul\":5578:5700   */\n    tag_643:\n        /* \"#utility.yul\":5736:5742   */\n      dup2\n        /* \"#utility.yul\":5723:5743   */\n      calldataload\n        /* \"#utility.yul\":5761:5840   */\n      tag_645\n        /* \"#utility.yul\":5836:5839   */\n      dup5\n        /* \"#utility.yul\":5828:5834   */\n      dup3\n        /* \"#utility.yul\":5821:5825   */\n      0x20\n        /* \"#utility.yul\":5813:5819   */\n      dup7\n        /* \"#utility.yul\":5809:5826   */\n      add\n        /* \"#utility.yul\":5761:5840   */\n      tag_494\n      jump\t// in\n    tag_645:\n        /* \"#utility.yul\":5752:5840   */\n      swap2\n      pop\n        /* \"#utility.yul\":5568:5846   */\n      pop\n        /* \"#utility.yul\":5506:5846   */\n      swap3\n      swap2\n      pop\n      pop\n      jump\t// out\n        /* \"#utility.yul\":5868:6813   */\n    tag_496:\n        /* \"#utility.yul\":5974:5979   */\n      0x00\n        /* \"#utility.yul\":5999:6090   */\n      tag_647\n        /* \"#utility.yul\":6015:6089   */\n      tag_648\n        /* \"#utility.yul\":6082:6088   */\n      dup5\n        /* \"#utility.yul\":6015:6089   */\n      tag_489\n      jump\t// in\n    tag_648:\n        /* \"#utility.yul\":5999:6090   */\n      tag_488\n      jump\t// in\n    tag_647:\n        /* \"#utility.yul\":5990:6090   */\n      swap1\n      pop\n        /* \"#utility.yul\":6110:6115   */\n      dup1\n        /* \"#utility.yul\":6139:6145   */\n      dup4\n        /* \"#utility.yul\":6132:6137   */\n      dup3\n        /* \"#utility.yul\":6125:6146   */\n      mstore\n        /* \"#utility.yul\":6173:6177   */\n      0x20\n        /* \"#utility.yul\":6166:6171   */\n      dup3\n        /* \"#utility.yul\":6162:6178   */\n      add\n        /* \"#utility.yul\":6155:6178   */\n      swap1\n      pop\n        /* \"#utility.yul\":6226:6230   */\n      0x20\n        /* \"#utility.yul\":6218:6224   */\n      dup5\n        /* \"#utility.yul\":6214:6231   */\n      mul\n        /* \"#utility.yul\":6206:6212   */\n      dup4\n        /* \"#utility.yul\":6202:6232   */\n      add\n        /* \"#utility.yul\":6255:6258   */\n      dup6\n        /* \"#utility.yul\":6247:6253   */\n      dup2\n        /* \"#utility.yul\":6244:6259   */\n      gt\n        /* \"#utility.yul\":6241:6363   */\n      iszero\n      tag_649\n      jumpi\n        /* \"#utility.yul\":6274:6353   */\n      tag_650\n      tag_490\n      jump\t// in\n    tag_650:\n        /* \"#utility.yul\":6241:6363   */\n    tag_649:\n        /* \"#utility.yul\":6389:6395   */\n      dup4\n        /* \"#utility.yul\":6372:6807   */\n    tag_651:\n        /* \"#utility.yul\":6406:6412   */\n      dup2\n        /* \"#utility.yul\":6401:6404   */\n      dup2\n        /* \"#utility.yul\":6398:6413   */\n      lt\n        /* \"#utility.yul\":6372:6807   */\n      iszero\n      tag_653\n      jumpi\n        /* \"#utility.yul\":6495:6498   */\n      dup1\n        /* \"#utility.yul\":6482:6499   */\n      calldataload\n        /* \"#utility.yul\":6531:6549   */\n      0xffffffffffffffff\n        /* \"#utility.yul\":6518:6529   */\n      dup2\n        /* \"#utility.yul\":6515:6550   */\n      gt\n        /* \"#utility.yul\":6512:6634   */\n      iszero\n      tag_654\n      jumpi\n        /* \"#utility.yul\":6553:6632   */\n      tag_655\n      tag_484\n      jump\t// in\n    tag_655:\n        /* \"#utility.yul\":6512:6634   */\n    tag_654:\n        /* \"#utility.yul\":6677:6688   */\n      dup1\n        /* \"#utility.yul\":6669:6675   */\n      dup7\n        /* \"#utility.yul\":6665:6689   */\n      add\n        /* \"#utility.yul\":6715:6762   */\n      tag_656\n        /* \"#utility.yul\":6758:6761   */\n      dup10\n        /* \"#utility.yul\":6746:6756   */\n      dup3\n        /* \"#utility.yul\":6715:6762   */\n      tag_495\n      jump\t// in\n    tag_656:\n        /* \"#utility.yul\":6710:6713   */\n      dup6\n        /* \"#utility.yul\":6703:6763   */\n      mstore\n        /* \"#utility.yul\":6792:6796   */\n      0x20\n        /* \"#utility.yul\":6787:6790   */\n      dup6\n        /* \"#utility.yul\":6783:6797   */\n      add\n        /* \"#utility.yul\":6776:6797   */\n      swap5\n      pop\n        /* \"#utility.yul\":6448:6807   */\n      pop\n      pop\n        /* \"#utility.yul\":6432:6436   */\n      0x20\n        /* \"#utility.yul\":6427:6430   */\n      dup2\n        /* \"#utility.yul\":6423:6437   */\n      add\n        /* \"#utility.yul\":6416:6437   */\n      swap1\n      pop\n        /* \"#utility.yul\":6372:6807   */\n      jump(tag_651)\n    tag_653:\n        /* \"#utility.yul\":6376:6397   */\n      pop\n        /* \"#utility.yul\":5980:6813   */\n      pop\n      pop\n        /* \"#utility.yul\":5868:6813   */\n      swap4\n      swap3\n      pop\n      pop\n      pop\n      jump\t// out\n        /* \"#utility.yul\":6835:7225   */\n    tag_497:\n        /* \"#utility.yul\":6916:6921   */\n      0x00\n        /* \"#utility.yul\":6965:6968   */\n      dup3\n        /* \"#utility.yul\":6958:6962   */\n      0x1f\n        /* \"#utility.yul\":6950:6956   */\n      dup4\n        /* \"#utility.yul\":6946:6963   */\n      add\n        /* \"#utility.yul\":6942:6969   */\n      slt\n        /* \"#utility.yul\":6932:7054   */\n      tag_658\n      jumpi\n        /* \"#utility.yul\":6973:7052   */\n      tag_659\n      tag_484\n      jump\t// in\n    tag_659:\n        /* \"#utility.yul\":6932:7054   */\n    tag_658:\n        /* \"#utility.yul\":7090:7096   */\n      dup2\n        /* \"#utility.yul\":7077:7097   */\n      calldataload\n        /* \"#utility.yul\":7115:7219   */\n      tag_660\n        /* \"#utility.yul\":7215:7218   */\n      dup5\n        /* \"#utility.yul\":7207:7213   */\n      dup3\n        /* \"#utility.yul\":7200:7204   */\n      0x20\n        /* \"#utility.yul\":7192:7198   */\n      dup7\n        /* \"#utility.yul\":7188:7205   */\n      add\n        /* \"#utility.yul\":7115:7219   */\n      tag_496\n      jump\t// in\n    tag_660:\n        /* \"#utility.yul\":7106:7219   */\n      swap2\n      pop\n        /* \"#utility.yul\":6922:7225   */\n      pop\n        /* \"#utility.yul\":6835:7225   */\n      swap3\n      swap2\n      pop\n      pop\n      jump\t// out\n        /* \"#utility.yul\":7231:7935   */\n    tag_66:\n        /* \"#utility.yul\":7334:7340   */\n      0x00\n        /* \"#utility.yul\":7342:7348   */\n      dup1\n        /* \"#utility.yul\":7391:7393   */\n      0x40\n        /* \"#utility.yul\":7379:7388   */\n      dup4\n        /* \"#utility.yul\":7370:7377   */\n      dup6\n        /* \"#utility.yul\":7366:7389   */\n      sub\n        /* \"#utility.yul\":7362:7394   */\n      slt\n        /* \"#utility.yul\":7359:7478   */\n      iszero\n      tag_662\n      jumpi\n        /* \"#utility.yul\":7397:7476   */\n      tag_663\n      tag_470\n      jump\t// in\n    tag_663:\n        /* \"#utility.yul\":7359:7478   */\n    tag_662:\n        /* \"#utility.yul\":7517:7518   */\n      0x00\n        /* \"#utility.yul\":7542:7595   */\n      tag_664\n        /* \"#utility.yul\":7587:7594   */\n      dup6\n        /* \"#utility.yul\":7578:7584   */\n      dup3\n        /* \"#utility.yul\":7567:7576   */\n      dup7\n        /* \"#utility.yul\":7563:7585   */\n      add\n        /* \"#utility.yul\":7542:7595   */\n      tag_478\n      jump\t// in\n    tag_664:\n        /* \"#utility.yul\":7532:7595   */\n      swap3\n      pop\n        /* \"#utility.yul\":7488:7605   */\n      pop\n        /* \"#utility.yul\":7672:7674   */\n      0x20\n        /* \"#utility.yul\":7661:7670   */\n      dup4\n        /* \"#utility.yul\":7657:7675   */\n      add\n        /* \"#utility.yul\":7644:7676   */\n      calldataload\n        /* \"#utility.yul\":7703:7721   */\n      0xffffffffffffffff\n        /* \"#utility.yul\":7695:7701   */\n      dup2\n        /* \"#utility.yul\":7692:7722   */\n      gt\n        /* \"#utility.yul\":7689:7806   */\n      iszero\n      tag_665\n      jumpi\n        /* \"#utility.yul\":7725:7804   */\n      tag_666\n      tag_471\n      jump\t// in\n    tag_666:\n        /* \"#utility.yul\":7689:7806   */\n    tag_665:\n        /* \"#utility.yul\":7830:7918   */\n      tag_667\n        /* \"#utility.yul\":7910:7917   */\n      dup6\n        /* \"#utility.yul\":7901:7907   */\n      dup3\n        /* \"#utility.yul\":7890:7899   */\n      dup7\n        /* \"#utility.yul\":7886:7908   */\n      add\n        /* \"#utility.yul\":7830:7918   */\n      tag_497\n      jump\t// in\n    tag_667:\n        /* \"#utility.yul\":7820:7918   */\n      swap2\n      pop\n        /* \"#utility.yul\":7615:7928   */\n      pop\n        /* \"#utility.yul\":7231:7935   */\n      swap3\n      pop\n      swap3\n      swap1\n      pop\n      jump\t// out\n        /* \"#utility.yul\":7941:8270   */\n    tag_70:\n        /* \"#utility.yul\":8000:8006   */\n      0x00\n        /* \"#utility.yul\":8049:8051   */\n      0x20\n        /* \"#utility.yul\":8037:8046   */\n      dup3\n        /* \"#utility.yul\":8028:8035   */\n      dup5\n        /* \"#utility.yul\":8024:8047   */\n      sub\n        /* \"#utility.yul\":8020:8052   */\n      slt\n        /* \"#utility.yul\":8017:8136   */\n      iszero\n      tag_669\n      jumpi\n        /* \"#utility.yul\":8055:8134   */\n      tag_670\n      tag_470\n      jump\t// in\n    tag_670:\n        /* \"#utility.yul\":8017:8136   */\n    tag_669:\n        /* \"#utility.yul\":8175:8176   */\n      0x00\n        /* \"#utility.yul\":8200:8253   */\n      tag_671\n        /* \"#utility.yul\":8245:8252   */\n      dup5\n        /* \"#utility.yul\":8236:8242   */\n      dup3\n        /* \"#utility.yul\":8225:8234   */\n      dup6\n        /* \"#utility.yul\":8221:8243   */\n      add\n        /* \"#utility.yul\":8200:8253   */\n      tag_478\n      jump\t// in\n    tag_671:\n        /* \"#utility.yul\":8190:8253   */\n      swap2\n      pop\n        /* \"#utility.yul\":8146:8263   */\n      pop\n        /* \"#utility.yul\":7941:8270   */\n      swap3\n      swap2\n      pop\n      pop\n      jump\t// out\n        /* \"#utility.yul\":8276:11039   */\n    tag_85:\n        /* \"#utility.yul\":8609:8615   */\n      0x00\n        /* \"#utility.yul\":8617:8623   */\n      dup1\n        /* \"#utility.yul\":8625:8631   */\n      0x00\n        /* \"#utility.yul\":8633:8639   */\n      dup1\n        /* \"#utility.yul\":8641:8647   */\n      0x00\n        /* \"#utility.yul\":8649:8655   */\n      dup1\n        /* \"#utility.yul\":8657:8663   */\n      0x00\n        /* \"#utility.yul\":8706:8709   */\n      0xe0\n        /* \"#utility.yul\":8694:8703   */\n      dup9\n        /* \"#utility.yul\":8685:8692   */\n      dup11\n        /* \"#utility.yul\":8681:8704   */\n      sub\n        /* \"#utility.yul\":8677:8710   */\n      slt\n        /* \"#utility.yul\":8674:8794   */\n      iszero\n      tag_673\n      jumpi\n        /* \"#utility.yul\":8713:8792   */\n      tag_674\n      tag_470\n      jump\t// in\n    tag_674:\n        /* \"#utility.yul\":8674:8794   */\n    tag_673:\n        /* \"#utility.yul\":8861:8862   */\n      0x00\n        /* \"#utility.yul\":8850:8859   */\n      dup9\n        /* \"#utility.yul\":8846:8863   */\n      add\n        /* \"#utility.yul\":8833:8864   */\n      calldataload\n        /* \"#utility.yul\":8891:8909   */\n      0xffffffffffffffff\n        /* \"#utility.yul\":8883:8889   */\n      dup2\n        /* \"#utility.yul\":8880:8910   */\n      gt\n        /* \"#utility.yul\":8877:8994   */\n      iszero\n      tag_675\n      jumpi\n        /* \"#utility.yul\":8913:8992   */\n      tag_676\n      tag_471\n      jump\t// in\n    tag_676:\n        /* \"#utility.yul\":8877:8994   */\n    tag_675:\n        /* \"#utility.yul\":9018:9081   */\n      tag_677\n        /* \"#utility.yul\":9073:9080   */\n      dup11\n        /* \"#utility.yul\":9064:9070   */\n      dup3\n        /* \"#utility.yul\":9053:9062   */\n      dup12\n        /* \"#utility.yul\":9049:9071   */\n      add\n        /* \"#utility.yul\":9018:9081   */\n      tag_495\n      jump\t// in\n    tag_677:\n        /* \"#utility.yul\":9008:9081   */\n      swap8\n      pop\n        /* \"#utility.yul\":8804:9091   */\n      pop\n        /* \"#utility.yul\":9158:9160   */\n      0x20\n        /* \"#utility.yul\":9147:9156   */\n      dup9\n        /* \"#utility.yul\":9143:9161   */\n      add\n        /* \"#utility.yul\":9130:9162   */\n      calldataload\n        /* \"#utility.yul\":9189:9207   */\n      0xffffffffffffffff\n        /* \"#utility.yul\":9181:9187   */\n      dup2\n        /* \"#utility.yul\":9178:9208   */\n      gt\n        /* \"#utility.yul\":9175:9292   */\n      iszero\n      tag_678\n      jumpi\n        /* \"#utility.yul\":9211:9290   */\n      tag_679\n      tag_471\n      jump\t// in\n    tag_679:\n        /* \"#utility.yul\":9175:9292   */\n    tag_678:\n        /* \"#utility.yul\":9316:9404   */\n      tag_680\n        /* \"#utility.yul\":9396:9403   */\n      dup11\n        /* \"#utility.yul\":9387:9393   */\n      dup3\n        /* \"#utility.yul\":9376:9385   */\n      dup12\n        /* \"#utility.yul\":9372:9394   */\n      add\n        /* \"#utility.yul\":9316:9404   */\n      tag_497\n      jump\t// in\n    tag_680:\n        /* \"#utility.yul\":9306:9404   */\n      swap7\n      pop\n        /* \"#utility.yul\":9101:9414   */\n      pop\n        /* \"#utility.yul\":9481:9483   */\n      0x40\n        /* \"#utility.yul\":9470:9479   */\n      dup9\n        /* \"#utility.yul\":9466:9484   */\n      add\n        /* \"#utility.yul\":9453:9485   */\n      calldataload\n        /* \"#utility.yul\":9512:9530   */\n      0xffffffffffffffff\n        /* \"#utility.yul\":9504:9510   */\n      dup2\n        /* \"#utility.yul\":9501:9531   */\n      gt\n        /* \"#utility.yul\":9498:9615   */\n      iszero\n      tag_681\n      jumpi\n        /* \"#utility.yul\":9534:9613   */\n      tag_682\n      tag_471\n      jump\t// in\n    tag_682:\n        /* \"#utility.yul\":9498:9615   */\n    tag_681:\n        /* \"#utility.yul\":9639:9727   */\n      tag_683\n        /* \"#utility.yul\":9719:9726   */\n      dup11\n        /* \"#utility.yul\":9710:9716   */\n      dup3\n        /* \"#utility.yul\":9699:9708   */\n      dup12\n        /* \"#utility.yul\":9695:9717   */\n      add\n        /* \"#utility.yul\":9639:9727   */\n      tag_497\n      jump\t// in\n    tag_683:\n        /* \"#utility.yul\":9629:9727   */\n      swap6\n      pop\n        /* \"#utility.yul\":9424:9737   */\n      pop\n        /* \"#utility.yul\":9804:9806   */\n      0x60\n        /* \"#utility.yul\":9793:9802   */\n      dup9\n        /* \"#utility.yul\":9789:9807   */\n      add\n        /* \"#utility.yul\":9776:9808   */\n      calldataload\n        /* \"#utility.yul\":9835:9853   */\n      0xffffffffffffffff\n        /* \"#utility.yul\":9827:9833   */\n      dup2\n        /* \"#utility.yul\":9824:9854   */\n      gt\n        /* \"#utility.yul\":9821:9938   */\n      iszero\n      tag_684\n      jumpi\n        /* \"#utility.yul\":9857:9936   */\n      tag_685\n      tag_471\n      jump\t// in\n    tag_685:\n        /* \"#utility.yul\":9821:9938   */\n    tag_684:\n        /* \"#utility.yul\":9962:10050   */\n      tag_686\n        /* \"#utility.yul\":10042:10049   */\n      dup11\n        /* \"#utility.yul\":10033:10039   */\n      dup3\n        /* \"#utility.yul\":10022:10031   */\n      dup12\n        /* \"#utility.yul\":10018:10040   */\n      add\n        /* \"#utility.yul\":9962:10050   */\n      tag_497\n      jump\t// in\n    tag_686:\n        /* \"#utility.yul\":9952:10050   */\n      swap5\n      pop\n        /* \"#utility.yul\":9747:10060   */\n      pop\n        /* \"#utility.yul\":10127:10130   */\n      0x80\n        /* \"#utility.yul\":10116:10125   */\n      dup9\n        /* \"#utility.yul\":10112:10131   */\n      add\n        /* \"#utility.yul\":10099:10132   */\n      calldataload\n        /* \"#utility.yul\":10159:10177   */\n      0xffffffffffffffff\n        /* \"#utility.yul\":10151:10157   */\n      dup2\n        /* \"#utility.yul\":10148:10178   */\n      gt\n        /* \"#utility.yul\":10145:10262   */\n      iszero\n      tag_687\n      jumpi\n        /* \"#utility.yul\":10181:10260   */\n      tag_688\n      tag_471\n      jump\t// in\n    tag_688:\n        /* \"#utility.yul\":10145:10262   */\n    tag_687:\n        /* \"#utility.yul\":10286:10374   */\n      tag_689\n        /* \"#utility.yul\":10366:10373   */\n      dup11\n        /* \"#utility.yul\":10357:10363   */\n      dup3\n        /* \"#utility.yul\":10346:10355   */\n      dup12\n        /* \"#utility.yul\":10342:10364   */\n      add\n        /* \"#utility.yul\":10286:10374   */\n      tag_497\n      jump\t// in\n    tag_689:\n        /* \"#utility.yul\":10276:10374   */\n      swap4\n      pop\n        /* \"#utility.yul\":10070:10384   */\n      pop\n        /* \"#utility.yul\":10451:10454   */\n      0xa0\n        /* \"#utility.yul\":10440:10449   */\n      dup9\n        /* \"#utility.yul\":10436:10455   */\n      add\n        /* \"#utility.yul\":10423:10456   */\n      calldataload\n        /* \"#utility.yul\":10483:10501   */\n      0xffffffffffffffff\n        /* \"#utility.yul\":10475:10481   */\n      dup2\n        /* \"#utility.yul\":10472:10502   */\n      gt\n        /* \"#utility.yul\":10469:10586   */\n      iszero\n      tag_690\n      jumpi\n        /* \"#utility.yul\":10505:10584   */\n      tag_691\n      tag_471\n      jump\t// in\n    tag_691:\n        /* \"#utility.yul\":10469:10586   */\n    tag_690:\n        /* \"#utility.yul\":10610:10698   */\n      tag_692\n        /* \"#utility.yul\":10690:10697   */\n      dup11\n        /* \"#utility.yul\":10681:10687   */\n      dup3\n        /* \"#utility.yul\":10670:10679   */\n      dup12\n        /* \"#utility.yul\":10666:10688   */\n      add\n        /* \"#utility.yul\":10610:10698   */\n      tag_497\n      jump\t// in\n    tag_692:\n        /* \"#utility.yul\":10600:10698   */\n      swap3\n      pop\n        /* \"#utility.yul\":10394:10708   */\n      pop\n        /* \"#utility.yul\":10775:10778   */\n      0xc0\n        /* \"#utility.yul\":10764:10773   */\n      dup9\n        /* \"#utility.yul\":10760:10779   */\n      add\n        /* \"#utility.yul\":10747:10780   */\n      calldataload\n        /* \"#utility.yul\":10807:10825   */\n      0xffffffffffffffff\n        /* \"#utility.yul\":10799:10805   */\n      dup2\n        /* \"#utility.yul\":10796:10826   */\n      gt\n        /* \"#utility.yul\":10793:10910   */\n      iszero\n      tag_693\n      jumpi\n        /* \"#utility.yul\":10829:10908   */\n      tag_694\n      tag_471\n      jump\t// in\n    tag_694:\n        /* \"#utility.yul\":10793:10910   */\n    tag_693:\n        /* \"#utility.yul\":10934:11022   */\n      tag_695\n        /* \"#utility.yul\":11014:11021   */\n      dup11\n        /* \"#utility.yul\":11005:11011   */\n      dup3\n        /* \"#utility.yul\":10994:11003   */\n      dup12\n        /* \"#utility.yul\":10990:11012   */\n      add\n        /* \"#utility.yul\":10934:11022   */\n      tag_497\n      jump\t// in\n    tag_695:\n        /* \"#utility.yul\":10924:11022   */\n      swap2\n      pop\n        /* \"#utility.yul\":10718:11032   */\n      pop\n        /* \"#utility.yul\":8276:11039   */\n      swap3\n      swap6\n      swap9\n      swap2\n      swap5\n      swap8\n      pop\n      swap3\n      swap6\n      pop\n      jump\t// out\n        /* \"#utility.yul\":11045:11105   */\n    tag_498:\n        /* \"#utility.yul\":11073:11076   */\n      0x00\n        /* \"#utility.yul\":11094:11099   */\n      dup2\n        /* \"#utility.yul\":11087:11099   */\n      swap1\n      pop\n        /* \"#utility.yul\":11045:11105   */\n      swap2\n      swap1\n      pop\n      jump\t// out\n        /* \"#utility.yul\":11111:11253   */\n    tag_499:\n        /* \"#utility.yul\":11161:11170   */\n      0x00\n        /* \"#utility.yul\":11194:11247   */\n      tag_698\n        /* \"#utility.yul\":11212:11246   */\n      tag_699\n        /* \"#utility.yul\":11221:11245   */\n      tag_700\n        /* \"#utility.yul\":11239:11244   */\n      dup5\n        /* \"#utility.yul\":11221:11245   */\n      tag_472\n      jump\t// in\n    tag_700:\n        /* \"#utility.yul\":11212:11246   */\n      tag_498\n      jump\t// in\n    tag_699:\n        /* \"#utility.yul\":11194:11247   */\n      tag_472\n      jump\t// in\n    tag_698:\n        /* \"#utility.yul\":11181:11247   */\n      swap1\n      pop\n        /* \"#utility.yul\":11111:11253   */\n      swap2\n      swap1\n      pop\n      jump\t// out\n        /* \"#utility.yul\":11259:11385   */\n    tag_500:\n        /* \"#utility.yul\":11309:11318   */\n      0x00\n        /* \"#utility.yul\":11342:11379   */\n      tag_702\n        /* \"#utility.yul\":11373:11378   */\n      dup3\n        /* \"#utility.yul\":11342:11379   */\n      tag_499\n      jump\t// in\n    tag_702:\n        /* \"#utility.yul\":11329:11379   */\n      swap1\n      pop\n        /* \"#utility.yul\":11259:11385   */\n      swap2\n      swap1\n      pop\n      jump\t// out\n        /* \"#utility.yul\":11391:11544   */\n    tag_501:\n        /* \"#utility.yul\":11468:11477   */\n      0x00\n        /* \"#utility.yul\":11501:11538   */\n      tag_704\n        /* \"#utility.yul\":11532:11537   */\n      dup3\n        /* \"#utility.yul\":11501:11538   */\n      tag_500\n      jump\t// in\n    tag_704:\n        /* \"#utility.yul\":11488:11538   */\n      swap1\n      pop\n        /* \"#utility.yul\":11391:11544   */\n      swap2\n      swap1\n      pop\n      jump\t// out\n        /* \"#utility.yul\":11550:11735   */\n    tag_502:\n        /* \"#utility.yul\":11664:11728   */\n      tag_706\n        /* \"#utility.yul\":11722:11727   */\n      dup2\n        /* \"#utility.yul\":11664:11728   */\n      tag_501\n      jump\t// in\n    tag_706:\n        /* \"#utility.yul\":11659:11662   */\n      dup3\n        /* \"#utility.yul\":11652:11729   */\n      mstore\n        /* \"#utility.yul\":11550:11735   */\n      pop\n      pop\n      jump\t// out\n        /* \"#utility.yul\":11741:12017   */\n    tag_94:\n        /* \"#utility.yul\":11861:11865   */\n      0x00\n        /* \"#utility.yul\":11899:11901   */\n      0x20\n        /* \"#utility.yul\":11888:11897   */\n      dup3\n        /* \"#utility.yul\":11884:11902   */\n      add\n        /* \"#utility.yul\":11876:11902   */\n      swap1\n      pop\n        /* \"#utility.yul\":11912:12010   */\n      tag_708\n        /* \"#utility.yul\":12007:12008   */\n      0x00\n        /* \"#utility.yul\":11996:12005   */\n      dup4\n        /* \"#utility.yul\":11992:12009   */\n      add\n        /* \"#utility.yul\":11983:11989   */\n      dup5\n        /* \"#utility.yul\":11912:12010   */\n      tag_502\n      jump\t// in\n    tag_708:\n        /* \"#utility.yul\":11741:12017   */\n      swap3\n      swap2\n      pop\n      pop\n      jump\t// out\n        /* \"#utility.yul\":12023:12141   */\n    tag_503:\n        /* \"#utility.yul\":12110:12134   */\n      tag_710\n        /* \"#utility.yul\":12128:12133   */\n      dup2\n        /* \"#utility.yul\":12110:12134   */\n      tag_473\n      jump\t// in\n    tag_710:\n        /* \"#utility.yul\":12105:12108   */\n      dup3\n        /* \"#utility.yul\":12098:12135   */\n      mstore\n        /* \"#utility.yul\":12023:12141   */\n      pop\n      pop\n      jump\t// out\n        /* \"#utility.yul\":12147:12369   */\n    tag_99:\n        /* \"#utility.yul\":12240:12244   */\n      0x00\n        /* \"#utility.yul\":12278:12280   */\n      0x20\n        /* \"#utility.yul\":12267:12276   */\n      dup3\n        /* \"#utility.yul\":12263:12281   */\n      add\n        /* \"#utility.yul\":12255:12281   */\n      swap1\n      pop\n        /* \"#utility.yul\":12291:12362   */\n      tag_712\n        /* \"#utility.yul\":12359:12360   */\n      0x00\n        /* \"#utility.yul\":12348:12357   */\n      dup4\n        /* \"#utility.yul\":12344:12361   */\n      add\n        /* \"#utility.yul\":12335:12341   */\n      dup5\n        /* \"#utility.yul\":12291:12362   */\n      tag_503\n      jump\t// in\n    tag_712:\n        /* \"#utility.yul\":12147:12369   */\n      swap3\n      swap2\n      pop\n      pop\n      jump\t// out\n        /* \"#utility.yul\":12375:12704   */\n    tag_103:\n        /* \"#utility.yul\":12434:12440   */\n      0x00\n        /* \"#utility.yul\":12483:12485   */\n      0x20\n        /* \"#utility.yul\":12471:12480   */\n      dup3\n        /* \"#utility.yul\":12462:12469   */\n      dup5\n        /* \"#utility.yul\":12458:12481   */\n      sub\n        /* \"#utility.yul\":12454:12486   */\n      slt\n        /* \"#utility.yul\":12451:12570   */\n      iszero\n      tag_714\n      jumpi\n        /* \"#utility.yul\":12489:12568   */\n      tag_715\n      tag_470\n      jump\t// in\n    tag_715:\n        /* \"#utility.yul\":12451:12570   */\n    tag_714:\n        /* \"#utility.yul\":12609:12610   */\n      0x00\n        /* \"#utility.yul\":12634:12687   */\n      tag_716\n        /* \"#utility.yul\":12679:12686   */\n      dup5\n        /* \"#utility.yul\":12670:12676   */\n      dup3\n        /* \"#utility.yul\":12659:12668   */\n      dup6\n        /* \"#utility.yul\":12655:12677   */\n      add\n        /* \"#utility.yul\":12634:12687   */\n      tag_475\n      jump\t// in\n    tag_716:\n        /* \"#utility.yul\":12624:12687   */\n      swap2\n      pop\n        /* \"#utility.yul\":12580:12697   */\n      pop\n        /* \"#utility.yul\":12375:12704   */\n      swap3\n      swap2\n      pop\n      pop\n      jump\t// out\n        /* \"#utility.yul\":12710:12809   */\n    tag_504:\n        /* \"#utility.yul\":12762:12768   */\n      0x00\n        /* \"#utility.yul\":12796:12801   */\n      dup2\n        /* \"#utility.yul\":12790:12802   */\n      mload\n        /* \"#utility.yul\":12780:12802   */\n      swap1\n      pop\n        /* \"#utility.yul\":12710:12809   */\n      swap2\n      swap1\n      pop\n      jump\t// out\n        /* \"#utility.yul\":12815:12984   */\n    tag_505:\n        /* \"#utility.yul\":12899:12910   */\n      0x00\n        /* \"#utility.yul\":12933:12939   */\n      dup3\n        /* \"#utility.yul\":12928:12931   */\n      dup3\n        /* \"#utility.yul\":12921:12940   */\n      mstore\n        /* \"#utility.yul\":12973:12977   */\n      0x20\n        /* \"#utility.yul\":12968:12971   */\n      dup3\n        /* \"#utility.yul\":12964:12978   */\n      add\n        /* \"#utility.yul\":12949:12978   */\n      swap1\n      pop\n        /* \"#utility.yul\":12815:12984   */\n      swap3\n      swap2\n      pop\n      pop\n      jump\t// out\n        /* \"#utility.yul\":12990:13129   */\n    tag_506:\n        /* \"#utility.yul\":13079:13085   */\n      dup3\n        /* \"#utility.yul\":13074:13077   */\n      dup2\n        /* \"#utility.yul\":13069:13072   */\n      dup4\n        /* \"#utility.yul\":13063:13086   */\n      mcopy\n        /* \"#utility.yul\":13120:13121   */\n      0x00\n        /* \"#utility.yul\":13111:13117   */\n      dup4\n        /* \"#utility.yul\":13106:13109   */\n      dup4\n        /* \"#utility.yul\":13102:13118   */\n      add\n        /* \"#utility.yul\":13095:13122   */\n      mstore\n        /* \"#utility.yul\":12990:13129   */\n      pop\n      pop\n      pop\n      jump\t// out\n        /* \"#utility.yul\":13135:13512   */\n    tag_507:\n        /* \"#utility.yul\":13223:13226   */\n      0x00\n        /* \"#utility.yul\":13251:13290   */\n      tag_721\n        /* \"#utility.yul\":13284:13289   */\n      dup3\n        /* \"#utility.yul\":13251:13290   */\n      tag_504\n      jump\t// in\n    tag_721:\n        /* \"#utility.yul\":13306:13377   */\n      tag_722\n        /* \"#utility.yul\":13370:13376   */\n      dup2\n        /* \"#utility.yul\":13365:13368   */\n      dup6\n        /* \"#utility.yul\":13306:13377   */\n      tag_505\n      jump\t// in\n    tag_722:\n        /* \"#utility.yul\":13299:13377   */\n      swap4\n      pop\n        /* \"#utility.yul\":13386:13451   */\n      tag_723\n        /* \"#utility.yul\":13444:13450   */\n      dup2\n        /* \"#utility.yul\":13439:13442   */\n      dup6\n        /* \"#utility.yul\":13432:13436   */\n      0x20\n        /* \"#utility.yul\":13425:13430   */\n      dup7\n        /* \"#utility.yul\":13421:13437   */\n      add\n        /* \"#utility.yul\":13386:13451   */\n      tag_506\n      jump\t// in\n    tag_723:\n        /* \"#utility.yul\":13476:13505   */\n      tag_724\n        /* \"#utility.yul\":13498:13504   */\n      dup2\n        /* \"#utility.yul\":13476:13505   */\n      tag_485\n      jump\t// in\n    tag_724:\n        /* \"#utility.yul\":13471:13474   */\n      dup5\n        /* \"#utility.yul\":13467:13506   */\n      add\n        /* \"#utility.yul\":13460:13506   */\n      swap2\n      pop\n        /* \"#utility.yul\":13227:13512   */\n      pop\n        /* \"#utility.yul\":13135:13512   */\n      swap3\n      swap2\n      pop\n      pop\n      jump\t// out\n        /* \"#utility.yul\":13518:14372   */\n    tag_110:\n        /* \"#utility.yul\":13765:13769   */\n      0x00\n        /* \"#utility.yul\":13803:13806   */\n      0xc0\n        /* \"#utility.yul\":13792:13801   */\n      dup3\n        /* \"#utility.yul\":13788:13807   */\n      add\n        /* \"#utility.yul\":13780:13807   */\n      swap1\n      pop\n        /* \"#utility.yul\":13817:13888   */\n      tag_726\n        /* \"#utility.yul\":13885:13886   */\n      0x00\n        /* \"#utility.yul\":13874:13883   */\n      dup4\n        /* \"#utility.yul\":13870:13887   */\n      add\n        /* \"#utility.yul\":13861:13867   */\n      dup10\n        /* \"#utility.yul\":13817:13888   */\n      tag_503\n      jump\t// in\n    tag_726:\n        /* \"#utility.yul\":13935:13944   */\n      dup2\n        /* \"#utility.yul\":13929:13933   */\n      dup2\n        /* \"#utility.yul\":13925:13945   */\n      sub\n        /* \"#utility.yul\":13920:13922   */\n      0x20\n        /* \"#utility.yul\":13909:13918   */\n      dup4\n        /* \"#utility.yul\":13905:13923   */\n      add\n        /* \"#utility.yul\":13898:13946   */\n      mstore\n        /* \"#utility.yul\":13963:14041   */\n      tag_727\n        /* \"#utility.yul\":14036:14040   */\n      dup2\n        /* \"#utility.yul\":14027:14033   */\n      dup9\n        /* \"#utility.yul\":13963:14041   */\n      tag_507\n      jump\t// in\n    tag_727:\n        /* \"#utility.yul\":13955:14041   */\n      swap1\n      pop\n        /* \"#utility.yul\":14051:14117   */\n      tag_728\n        /* \"#utility.yul\":14113:14115   */\n      0x40\n        /* \"#utility.yul\":14102:14111   */\n      dup4\n        /* \"#utility.yul\":14098:14116   */\n      add\n        /* \"#utility.yul\":14089:14095   */\n      dup8\n        /* \"#utility.yul\":14051:14117   */\n      tag_480\n      jump\t// in\n    tag_728:\n        /* \"#utility.yul\":14127:14199   */\n      tag_729\n        /* \"#utility.yul\":14195:14197   */\n      0x60\n        /* \"#utility.yul\":14184:14193   */\n      dup4\n        /* \"#utility.yul\":14180:14198   */\n      add\n        /* \"#utility.yul\":14171:14177   */\n      dup7\n        /* \"#utility.yul\":14127:14199   */\n      tag_483\n      jump\t// in\n    tag_729:\n        /* \"#utility.yul\":14209:14282   */\n      tag_730\n        /* \"#utility.yul\":14277:14280   */\n      0x80\n        /* \"#utility.yul\":14266:14275   */\n      dup4\n        /* \"#utility.yul\":14262:14281   */\n      add\n        /* \"#utility.yul\":14253:14259   */\n      dup6\n        /* \"#utility.yul\":14209:14282   */\n      tag_483\n      jump\t// in\n    tag_730:\n        /* \"#utility.yul\":14292:14365   */\n      tag_731\n        /* \"#utility.yul\":14360:14363   */\n      0xa0\n        /* \"#utility.yul\":14349:14358   */\n      dup4\n        /* \"#utility.yul\":14345:14364   */\n      add\n        /* \"#utility.yul\":14336:14342   */\n      dup5\n        /* \"#utility.yul\":14292:14365   */\n      tag_483\n      jump\t// in\n    tag_731:\n        /* \"#utility.yul\":13518:14372   */\n      swap8\n      swap7\n      pop\n      pop\n      pop\n      pop\n      pop\n      pop\n      pop\n      jump\t// out\n        /* \"#utility.yul\":14378:14852   */\n    tag_126:\n        /* \"#utility.yul\":14446:14452   */\n      0x00\n        /* \"#utility.yul\":14454:14460   */\n      dup1\n        /* \"#utility.yul\":14503:14505   */\n      0x40\n        /* \"#utility.yul\":14491:14500   */\n      dup4\n        /* \"#utility.yul\":14482:14489   */\n      dup6\n        /* \"#utility.yul\":14478:14501   */\n      sub\n        /* \"#utility.yul\":14474:14506   */\n      slt\n        /* \"#utility.yul\":14471:14590   */\n      iszero\n      tag_733\n      jumpi\n        /* \"#utility.yul\":14509:14588   */\n      tag_734\n      tag_470\n      jump\t// in\n    tag_734:\n        /* \"#utility.yul\":14471:14590   */\n    tag_733:\n        /* \"#utility.yul\":14629:14630   */\n      0x00\n        /* \"#utility.yul\":14654:14707   */\n      tag_735\n        /* \"#utility.yul\":14699:14706   */\n      dup6\n        /* \"#utility.yul\":14690:14696   */\n      dup3\n        /* \"#utility.yul\":14679:14688   */\n      dup7\n        /* \"#utility.yul\":14675:14697   */\n      add\n        /* \"#utility.yul\":14654:14707   */\n      tag_478\n      jump\t// in\n    tag_735:\n        /* \"#utility.yul\":14644:14707   */\n      swap3\n      pop\n        /* \"#utility.yul\":14600:14717   */\n      pop\n        /* \"#utility.yul\":14756:14758   */\n      0x20\n        /* \"#utility.yul\":14782:14835   */\n      tag_736\n        /* \"#utility.yul\":14827:14834   */\n      dup6\n        /* \"#utility.yul\":14818:14824   */\n      dup3\n        /* \"#utility.yul\":14807:14816   */\n      dup7\n        /* \"#utility.yul\":14803:14825   */\n      add\n        /* \"#utility.yul\":14782:14835   */\n      tag_478\n      jump\t// in\n    tag_736:\n        /* \"#utility.yul\":14772:14835   */\n      swap2\n      pop\n        /* \"#utility.yul\":14727:14845   */\n      pop\n        /* \"#utility.yul\":14378:14852   */\n      swap3\n      pop\n      swap3\n      swap1\n      pop\n      jump\t// out\n        /* \"#utility.yul\":14858:14935   */\n    tag_508:\n        /* \"#utility.yul\":14895:14902   */\n      0x00\n        /* \"#utility.yul\":14924:14929   */\n      dup2\n        /* \"#utility.yul\":14913:14929   */\n      swap1\n      pop\n        /* \"#utility.yul\":14858:14935   */\n      swap2\n      swap1\n      pop\n      jump\t// out\n        /* \"#utility.yul\":14941:15059   */\n    tag_509:\n        /* \"#utility.yul\":15028:15052   */\n      tag_739\n        /* \"#utility.yul\":15046:15051   */\n      dup2\n        /* \"#utility.yul\":15028:15052   */\n      tag_508\n      jump\t// in\n    tag_739:\n        /* \"#utility.yul\":15023:15026   */\n      dup3\n        /* \"#utility.yul\":15016:15053   */\n      mstore\n        /* \"#utility.yul\":14941:15059   */\n      pop\n      pop\n      jump\t// out\n        /* \"#utility.yul\":15065:16406   */\n    tag_129:\n        /* \"#utility.yul\":15426:15430   */\n      0x00\n        /* \"#utility.yul\":15464:15467   */\n      0xe0\n        /* \"#utility.yul\":15453:15462   */\n      dup3\n        /* \"#utility.yul\":15449:15468   */\n      add\n        /* \"#utility.yul\":15441:15468   */\n      swap1\n      pop\n        /* \"#utility.yul\":15478:15549   */\n      tag_741\n        /* \"#utility.yul\":15546:15547   */\n      0x00\n        /* \"#utility.yul\":15535:15544   */\n      dup4\n        /* \"#utility.yul\":15531:15548   */\n      add\n        /* \"#utility.yul\":15522:15528   */\n      dup11\n        /* \"#utility.yul\":15478:15549   */\n      tag_483\n      jump\t// in\n    tag_741:\n        /* \"#utility.yul\":15596:15605   */\n      dup2\n        /* \"#utility.yul\":15590:15594   */\n      dup2\n        /* \"#utility.yul\":15586:15606   */\n      sub\n        /* \"#utility.yul\":15581:15583   */\n      0x20\n        /* \"#utility.yul\":15570:15579   */\n      dup4\n        /* \"#utility.yul\":15566:15584   */\n      add\n        /* \"#utility.yul\":15559:15607   */\n      mstore\n        /* \"#utility.yul\":15624:15702   */\n      tag_742\n        /* \"#utility.yul\":15697:15701   */\n      dup2\n        /* \"#utility.yul\":15688:15694   */\n      dup10\n        /* \"#utility.yul\":15624:15702   */\n      tag_507\n      jump\t// in\n    tag_742:\n        /* \"#utility.yul\":15616:15702   */\n      swap1\n      pop\n        /* \"#utility.yul\":15749:15758   */\n      dup2\n        /* \"#utility.yul\":15743:15747   */\n      dup2\n        /* \"#utility.yul\":15739:15759   */\n      sub\n        /* \"#utility.yul\":15734:15736   */\n      0x40\n        /* \"#utility.yul\":15723:15732   */\n      dup4\n        /* \"#utility.yul\":15719:15737   */\n      add\n        /* \"#utility.yul\":15712:15760   */\n      mstore\n        /* \"#utility.yul\":15777:15855   */\n      tag_743\n        /* \"#utility.yul\":15850:15854   */\n      dup2\n        /* \"#utility.yul\":15841:15847   */\n      dup9\n        /* \"#utility.yul\":15777:15855   */\n      tag_507\n      jump\t// in\n    tag_743:\n        /* \"#utility.yul\":15769:15855   */\n      swap1\n      pop\n        /* \"#utility.yul\":15902:15911   */\n      dup2\n        /* \"#utility.yul\":15896:15900   */\n      dup2\n        /* \"#utility.yul\":15892:15912   */\n      sub\n        /* \"#utility.yul\":15887:15889   */\n      0x60\n        /* \"#utility.yul\":15876:15885   */\n      dup4\n        /* \"#utility.yul\":15872:15890   */\n      add\n        /* \"#utility.yul\":15865:15913   */\n      mstore\n        /* \"#utility.yul\":15930:16008   */\n      tag_744\n        /* \"#utility.yul\":16003:16007   */\n      dup2\n        /* \"#utility.yul\":15994:16000   */\n      dup8\n        /* \"#utility.yul\":15930:16008   */\n      tag_507\n      jump\t// in\n    tag_744:\n        /* \"#utility.yul\":15922:16008   */\n      swap1\n      pop\n        /* \"#utility.yul\":16056:16065   */\n      dup2\n        /* \"#utility.yul\":16050:16054   */\n      dup2\n        /* \"#utility.yul\":16046:16066   */\n      sub\n        /* \"#utility.yul\":16040:16043   */\n      0x80\n        /* \"#utility.yul\":16029:16038   */\n      dup4\n        /* \"#utility.yul\":16025:16044   */\n      add\n        /* \"#utility.yul\":16018:16067   */\n      mstore\n        /* \"#utility.yul\":16084:16162   */\n      tag_745\n        /* \"#utility.yul\":16157:16161   */\n      dup2\n        /* \"#utility.yul\":16148:16154   */\n      dup7\n        /* \"#utility.yul\":16084:16162   */\n      tag_507\n      jump\t// in\n    tag_745:\n        /* \"#utility.yul\":16076:16162   */\n      swap1\n      pop\n        /* \"#utility.yul\":16210:16219   */\n      dup2\n        /* \"#utility.yul\":16204:16208   */\n      dup2\n        /* \"#utility.yul\":16200:16220   */\n      sub\n        /* \"#utility.yul\":16194:16197   */\n      0xa0\n        /* \"#utility.yul\":16183:16192   */\n      dup4\n        /* \"#utility.yul\":16179:16198   */\n      add\n        /* \"#utility.yul\":16172:16221   */\n      mstore\n        /* \"#utility.yul\":16238:16316   */\n      tag_746\n        /* \"#utility.yul\":16311:16315   */\n      dup2\n        /* \"#utility.yul\":16302:16308   */\n      dup6\n        /* \"#utility.yul\":16238:16316   */\n      tag_507\n      jump\t// in\n    tag_746:\n        /* \"#utility.yul\":16230:16316   */\n      swap1\n      pop\n        /* \"#utility.yul\":16326:16399   */\n      tag_747\n        /* \"#utility.yul\":16394:16397   */\n      0xc0\n        /* \"#utility.yul\":16383:16392   */\n      dup4\n        /* \"#utility.yul\":16379:16398   */\n      add\n        /* \"#utility.yul\":16370:16376   */\n      dup5\n        /* \"#utility.yul\":16326:16399   */\n      tag_509\n      jump\t// in\n    tag_747:\n        /* \"#utility.yul\":15065:16406   */\n      swap9\n      swap8\n      pop\n      pop\n      pop\n      pop\n      pop\n      pop\n      pop\n      pop\n      jump\t// out\n        /* \"#utility.yul\":16412:16582   */\n    tag_510:\n        /* \"#utility.yul\":16552:16574   */\n      0x496e73756666696369656e742067617320666565000000000000000000000000\n        /* \"#utility.yul\":16548:16549   */\n      0x00\n        /* \"#utility.yul\":16540:16546   */\n      dup3\n        /* \"#utility.yul\":16536:16550   */\n      add\n        /* \"#utility.yul\":16529:16575   */\n      mstore\n        /* \"#utility.yul\":16412:16582   */\n      pop\n      jump\t// out\n        /* \"#utility.yul\":16588:16954   */\n    tag_511:\n        /* \"#utility.yul\":16730:16733   */\n      0x00\n        /* \"#utility.yul\":16751:16818   */\n      tag_750\n        /* \"#utility.yul\":16815:16817   */\n      0x14\n        /* \"#utility.yul\":16810:16813   */\n      dup4\n        /* \"#utility.yul\":16751:16818   */\n      tag_505\n      jump\t// in\n    tag_750:\n        /* \"#utility.yul\":16744:16818   */\n      swap2\n      pop\n        /* \"#utility.yul\":16827:16920   */\n      tag_751\n        /* \"#utility.yul\":16916:16919   */\n      dup3\n        /* \"#utility.yul\":16827:16920   */\n      tag_510\n      jump\t// in\n    tag_751:\n        /* \"#utility.yul\":16945:16947   */\n      0x20\n        /* \"#utility.yul\":16940:16943   */\n      dup3\n        /* \"#utility.yul\":16936:16948   */\n      add\n        /* \"#utility.yul\":16929:16948   */\n      swap1\n      pop\n        /* \"#utility.yul\":16588:16954   */\n      swap2\n      swap1\n      pop\n      jump\t// out\n        /* \"#utility.yul\":16960:17379   */\n    tag_158:\n        /* \"#utility.yul\":17126:17130   */\n      0x00\n        /* \"#utility.yul\":17164:17166   */\n      0x20\n        /* \"#utility.yul\":17153:17162   */\n      dup3\n        /* \"#utility.yul\":17149:17167   */\n      add\n        /* \"#utility.yul\":17141:17167   */\n      swap1\n      pop\n        /* \"#utility.yul\":17213:17222   */\n      dup2\n        /* \"#utility.yul\":17207:17211   */\n      dup2\n        /* \"#utility.yul\":17203:17223   */\n      sub\n        /* \"#utility.yul\":17199:17200   */\n      0x00\n        /* \"#utility.yul\":17188:17197   */\n      dup4\n        /* \"#utility.yul\":17184:17201   */\n      add\n        /* \"#utility.yul\":17177:17224   */\n      mstore\n        /* \"#utility.yul\":17241:17372   */\n      tag_753\n        /* \"#utility.yul\":17367:17371   */\n      dup2\n        /* \"#utility.yul\":17241:17372   */\n      tag_511\n      jump\t// in\n    tag_753:\n        /* \"#utility.yul\":17233:17372   */\n      swap1\n      pop\n        /* \"#utility.yul\":16960:17379   */\n      swap2\n      swap1\n      pop\n      jump\t// out\n        /* \"#utility.yul\":17385:17565   */\n    tag_512:\n        /* \"#utility.yul\":17433:17510   */\n      0x4e487b7100000000000000000000000000000000000000000000000000000000\n        /* \"#utility.yul\":17430:17431   */\n      0x00\n        /* \"#utility.yul\":17423:17511   */\n      mstore\n        /* \"#utility.yul\":17530:17534   */\n      0x11\n        /* \"#utility.yul\":17527:17528   */\n      0x04\n        /* \"#utility.yul\":17520:17535   */\n      mstore\n        /* \"#utility.yul\":17554:17558   */\n      0x24\n        /* \"#utility.yul\":17551:17552   */\n      0x00\n        /* \"#utility.yul\":17544:17559   */\n      revert\n        /* \"#utility.yul\":17571:17762   */\n    tag_160:\n        /* \"#utility.yul\":17611:17614   */\n      0x00\n        /* \"#utility.yul\":17630:17650   */\n      tag_756\n        /* \"#utility.yul\":17648:17649   */\n      dup3\n        /* \"#utility.yul\":17630:17650   */\n      tag_476\n      jump\t// in\n    tag_756:\n        /* \"#utility.yul\":17625:17650   */\n      swap2\n      pop\n        /* \"#utility.yul\":17664:17684   */\n      tag_757\n        /* \"#utility.yul\":17682:17683   */\n      dup4\n        /* \"#utility.yul\":17664:17684   */\n      tag_476\n      jump\t// in\n    tag_757:\n        /* \"#utility.yul\":17659:17684   */\n      swap3\n      pop\n        /* \"#utility.yul\":17707:17708   */\n      dup3\n        /* \"#utility.yul\":17704:17705   */\n      dup3\n        /* \"#utility.yul\":17700:17709   */\n      add\n        /* \"#utility.yul\":17693:17709   */\n      swap1\n      pop\n        /* \"#utility.yul\":17728:17731   */\n      dup1\n        /* \"#utility.yul\":17725:17726   */\n      dup3\n        /* \"#utility.yul\":17722:17732   */\n      gt\n        /* \"#utility.yul\":17719:17755   */\n      iszero\n      tag_758\n      jumpi\n        /* \"#utility.yul\":17735:17753   */\n      tag_759\n      tag_512\n      jump\t// in\n    tag_759:\n        /* \"#utility.yul\":17719:17755   */\n    tag_758:\n        /* \"#utility.yul\":17571:17762   */\n      swap3\n      swap2\n      pop\n      pop\n      jump\t// out\n        /* \"#utility.yul\":17768:17962   */\n    tag_162:\n        /* \"#utility.yul\":17808:17812   */\n      0x00\n        /* \"#utility.yul\":17828:17848   */\n      tag_761\n        /* \"#utility.yul\":17846:17847   */\n      dup3\n        /* \"#utility.yul\":17828:17848   */\n      tag_476\n      jump\t// in\n    tag_761:\n        /* \"#utility.yul\":17823:17848   */\n      swap2\n      pop\n        /* \"#utility.yul\":17862:17882   */\n      tag_762\n        /* \"#utility.yul\":17880:17881   */\n      dup4\n        /* \"#utility.yul\":17862:17882   */\n      tag_476\n      jump\t// in\n    tag_762:\n        /* \"#utility.yul\":17857:17882   */\n      swap3\n      pop\n        /* \"#utility.yul\":17906:17907   */\n      dup3\n        /* \"#utility.yul\":17903:17904   */\n      dup3\n        /* \"#utility.yul\":17899:17908   */\n      sub\n        /* \"#utility.yul\":17891:17908   */\n      swap1\n      pop\n        /* \"#utility.yul\":17930:17931   */\n      dup2\n        /* \"#utility.yul\":17924:17928   */\n      dup2\n        /* \"#utility.yul\":17921:17932   */\n      gt\n        /* \"#utility.yul\":17918:17955   */\n      iszero\n      tag_763\n      jumpi\n        /* \"#utility.yul\":17935:17953   */\n      tag_764\n      tag_512\n      jump\t// in\n    tag_764:\n        /* \"#utility.yul\":17918:17955   */\n    tag_763:\n        /* \"#utility.yul\":17768:17962   */\n      swap3\n      swap2\n      pop\n      pop\n      jump\t// out\n        /* \"#utility.yul\":17968:18150   */\n    tag_513:\n        /* \"#utility.yul\":18108:18142   */\n      0x55736572206e6f7420656e726f6c6c656420696e207468697320636f75727365\n        /* \"#utility.yul\":18104:18105   */\n      0x00\n        /* \"#utility.yul\":18096:18102   */\n      dup3\n        /* \"#utility.yul\":18092:18106   */\n      add\n        /* \"#utility.yul\":18085:18143   */\n      mstore\n        /* \"#utility.yul\":17968:18150   */\n      pop\n      jump\t// out\n        /* \"#utility.yul\":18156:18522   */\n    tag_514:\n        /* \"#utility.yul\":18298:18301   */\n      0x00\n        /* \"#utility.yul\":18319:18386   */\n      tag_767\n        /* \"#utility.yul\":18383:18385   */\n      0x20\n        /* \"#utility.yul\":18378:18381   */\n      dup4\n        /* \"#utility.yul\":18319:18386   */\n      tag_505\n      jump\t// in\n    tag_767:\n        /* \"#utility.yul\":18312:18386   */\n      swap2\n      pop\n        /* \"#utility.yul\":18395:18488   */\n      tag_768\n        /* \"#utility.yul\":18484:18487   */\n      dup3\n        /* \"#utility.yul\":18395:18488   */\n      tag_513\n      jump\t// in\n    tag_768:\n        /* \"#utility.yul\":18513:18515   */\n      0x20\n        /* \"#utility.yul\":18508:18511   */\n      dup3\n        /* \"#utility.yul\":18504:18516   */\n      add\n        /* \"#utility.yul\":18497:18516   */\n      swap1\n      pop\n        /* \"#utility.yul\":18156:18522   */\n      swap2\n      swap1\n      pop\n      jump\t// out\n        /* \"#utility.yul\":18528:18947   */\n    tag_169:\n        /* \"#utility.yul\":18694:18698   */\n      0x00\n        /* \"#utility.yul\":18732:18734   */\n      0x20\n        /* \"#utility.yul\":18721:18730   */\n      dup3\n        /* \"#utility.yul\":18717:18735   */\n      add\n        /* \"#utility.yul\":18709:18735   */\n      swap1\n      pop\n        /* \"#utility.yul\":18781:18790   */\n      dup2\n        /* \"#utility.yul\":18775:18779   */\n      dup2\n        /* \"#utility.yul\":18771:18791   */\n      sub\n        /* \"#utility.yul\":18767:18768   */\n      0x00\n        /* \"#utility.yul\":18756:18765   */\n      dup4\n        /* \"#utility.yul\":18752:18769   */\n      add\n        /* \"#utility.yul\":18745:18792   */\n      mstore\n        /* \"#utility.yul\":18809:18940   */\n      tag_770\n        /* \"#utility.yul\":18935:18939   */\n      dup2\n        /* \"#utility.yul\":18809:18940   */\n      tag_514\n      jump\t// in\n    tag_770:\n        /* \"#utility.yul\":18801:18940   */\n      swap1\n      pop\n        /* \"#utility.yul\":18528:18947   */\n      swap2\n      swap1\n      pop\n      jump\t// out\n        /* \"#utility.yul\":18953:19127   */\n    tag_515:\n        /* \"#utility.yul\":19093:19119   */\n      0x4d6178696d756d20617474656d70747320726561636865640000000000000000\n        /* \"#utility.yul\":19089:19090   */\n      0x00\n        /* \"#utility.yul\":19081:19087   */\n      dup3\n        /* \"#utility.yul\":19077:19091   */\n      add\n        /* \"#utility.yul\":19070:19120   */\n      mstore\n        /* \"#utility.yul\":18953:19127   */\n      pop\n      jump\t// out\n        /* \"#utility.yul\":19133:19499   */\n    tag_516:\n        /* \"#utility.yul\":19275:19278   */\n      0x00\n        /* \"#utility.yul\":19296:19363   */\n      tag_773\n        /* \"#utility.yul\":19360:19362   */\n      0x18\n        /* \"#utility.yul\":19355:19358   */\n      dup4\n        /* \"#utility.yul\":19296:19363   */\n      tag_505\n      jump\t// in\n    tag_773:\n        /* \"#utility.yul\":19289:19363   */\n      swap2\n      pop\n        /* \"#utility.yul\":19372:19465   */\n      tag_774\n        /* \"#utility.yul\":19461:19464   */\n      dup3\n        /* \"#utility.yul\":19372:19465   */\n      tag_515\n      jump\t// in\n    tag_774:\n        /* \"#utility.yul\":19490:19492   */\n      0x20\n        /* \"#utility.yul\":19485:19488   */\n      dup3\n        /* \"#utility.yul\":19481:19493   */\n      add\n        /* \"#utility.yul\":19474:19493   */\n      swap1\n      pop\n        /* \"#utility.yul\":19133:19499   */\n      swap2\n      swap1\n      pop\n      jump\t// out\n        /* \"#utility.yul\":19505:19924   */\n    tag_172:\n        /* \"#utility.yul\":19671:19675   */\n      0x00\n        /* \"#utility.yul\":19709:19711   */\n      0x20\n        /* \"#utility.yul\":19698:19707   */\n      dup3\n        /* \"#utility.yul\":19694:19712   */\n      add\n        /* \"#utility.yul\":19686:19712   */\n      swap1\n      pop\n        /* \"#utility.yul\":19758:19767   */\n      dup2\n        /* \"#utility.yul\":19752:19756   */\n      dup2\n        /* \"#utility.yul\":19748:19768   */\n      sub\n        /* \"#utility.yul\":19744:19745   */\n      0x00\n        /* \"#utility.yul\":19733:19742   */\n      dup4\n        /* \"#utility.yul\":19729:19746   */\n      add\n        /* \"#utility.yul\":19722:19769   */\n      mstore\n        /* \"#utility.yul\":19786:19917   */\n      tag_776\n        /* \"#utility.yul\":19912:19916   */\n      dup2\n        /* \"#utility.yul\":19786:19917   */\n      tag_516\n      jump\t// in\n    tag_776:\n        /* \"#utility.yul\":19778:19917   */\n      swap1\n      pop\n        /* \"#utility.yul\":19505:19924   */\n      swap2\n      swap1\n      pop\n      jump\t// out\n        /* \"#utility.yul\":19930:20152   */\n    tag_517:\n        /* \"#utility.yul\":20070:20104   */\n      0x557365722068617320616c726561647920706173736564207468697320636f75\n        /* \"#utility.yul\":20066:20067   */\n      0x00\n        /* \"#utility.yul\":20058:20064   */\n      dup3\n        /* \"#utility.yul\":20054:20068   */\n      add\n        /* \"#utility.yul\":20047:20105   */\n      mstore\n        /* \"#utility.yul\":20139:20144   */\n      0x7273650000000000000000000000000000000000000000000000000000000000\n        /* \"#utility.yul\":20134:20136   */\n      0x20\n        /* \"#utility.yul\":20126:20132   */\n      dup3\n        /* \"#utility.yul\":20122:20137   */\n      add\n        /* \"#utility.yul\":20115:20145   */\n      mstore\n        /* \"#utility.yul\":19930:20152   */\n      pop\n      jump\t// out\n        /* \"#utility.yul\":20158:20524   */\n    tag_518:\n        /* \"#utility.yul\":20300:20303   */\n      0x00\n        /* \"#utility.yul\":20321:20388   */\n      tag_779\n        /* \"#utility.yul\":20385:20387   */\n      0x23\n        /* \"#utility.yul\":20380:20383   */\n      dup4\n        /* \"#utility.yul\":20321:20388   */\n      tag_505\n      jump\t// in\n    tag_779:\n        /* \"#utility.yul\":20314:20388   */\n      swap2\n      pop\n        /* \"#utility.yul\":20397:20490   */\n      tag_780\n        /* \"#utility.yul\":20486:20489   */\n      dup3\n        /* \"#utility.yul\":20397:20490   */\n      tag_517\n      jump\t// in\n    tag_780:\n        /* \"#utility.yul\":20515:20517   */\n      0x40\n        /* \"#utility.yul\":20510:20513   */\n      dup3\n        /* \"#utility.yul\":20506:20518   */\n      add\n        /* \"#utility.yul\":20499:20518   */\n      swap1\n      pop\n        /* \"#utility.yul\":20158:20524   */\n      swap2\n      swap1\n      pop\n      jump\t// out\n        /* \"#utility.yul\":20530:20949   */\n    tag_175:\n        /* \"#utility.yul\":20696:20700   */\n      0x00\n        /* \"#utility.yul\":20734:20736   */\n      0x20\n        /* \"#utility.yul\":20723:20732   */\n      dup3\n        /* \"#utility.yul\":20719:20737   */\n      add\n        /* \"#utility.yul\":20711:20737   */\n      swap1\n      pop\n        /* \"#utility.yul\":20783:20792   */\n      dup2\n        /* \"#utility.yul\":20777:20781   */\n      dup2\n        /* \"#utility.yul\":20773:20793   */\n      sub\n        /* \"#utility.yul\":20769:20770   */\n      0x00\n        /* \"#utility.yul\":20758:20767   */\n      dup4\n        /* \"#utility.yul\":20754:20771   */\n      add\n        /* \"#utility.yul\":20747:20794   */\n      mstore\n        /* \"#utility.yul\":20811:20942   */\n      tag_782\n        /* \"#utility.yul\":20937:20941   */\n      dup2\n        /* \"#utility.yul\":20811:20942   */\n      tag_518\n      jump\t// in\n    tag_782:\n        /* \"#utility.yul\":20803:20942   */\n      swap1\n      pop\n        /* \"#utility.yul\":20530:20949   */\n      swap2\n      swap1\n      pop\n      jump\t// out\n        /* \"#utility.yul\":20955:21122   */\n    tag_177:\n        /* \"#utility.yul\":20992:20995   */\n      0x00\n        /* \"#utility.yul\":21015:21037   */\n      tag_784\n        /* \"#utility.yul\":21031:21036   */\n      dup3\n        /* \"#utility.yul\":21015:21037   */\n      tag_481\n      jump\t// in\n    tag_784:\n        /* \"#utility.yul\":21006:21037   */\n      swap2\n      pop\n        /* \"#utility.yul\":21059:21063   */\n      0xff\n        /* \"#utility.yul\":21052:21057   */\n      dup3\n        /* \"#utility.yul\":21049:21064   */\n      sub\n        /* \"#utility.yul\":21046:21087   */\n      tag_785\n      jumpi\n        /* \"#utility.yul\":21067:21085   */\n      tag_786\n      tag_512\n      jump\t// in\n    tag_786:\n        /* \"#utility.yul\":21046:21087   */\n    tag_785:\n        /* \"#utility.yul\":21114:21115   */\n      0x01\n        /* \"#utility.yul\":21107:21112   */\n      dup3\n        /* \"#utility.yul\":21103:21116   */\n      add\n        /* \"#utility.yul\":21096:21116   */\n      swap1\n      pop\n        /* \"#utility.yul\":20955:21122   */\n      swap2\n      swap1\n      pop\n      jump\t// out\n        /* \"#utility.yul\":21128:21308   */\n    tag_519:\n        /* \"#utility.yul\":21176:21253   */\n      0x4e487b7100000000000000000000000000000000000000000000000000000000\n        /* \"#utility.yul\":21173:21174   */\n      0x00\n        /* \"#utility.yul\":21166:21254   */\n      mstore\n        /* \"#utility.yul\":21273:21277   */\n      0x22\n        /* \"#utility.yul\":21270:21271   */\n      0x04\n        /* \"#utility.yul\":21263:21278   */\n      mstore\n        /* \"#utility.yul\":21297:21301   */\n      0x24\n        /* \"#utility.yul\":21294:21295   */\n      0x00\n        /* \"#utility.yul\":21287:21302   */\n      revert\n        /* \"#utility.yul\":21314:21634   */\n    tag_182:\n        /* \"#utility.yul\":21358:21364   */\n      0x00\n        /* \"#utility.yul\":21395:21396   */\n      0x02\n        /* \"#utility.yul\":21389:21393   */\n      dup3\n        /* \"#utility.yul\":21385:21397   */\n      div\n        /* \"#utility.yul\":21375:21397   */\n      swap1\n      pop\n        /* \"#utility.yul\":21442:21443   */\n      0x01\n        /* \"#utility.yul\":21436:21440   */\n      dup3\n        /* \"#utility.yul\":21432:21444   */\n      and\n        /* \"#utility.yul\":21463:21481   */\n      dup1\n        /* \"#utility.yul\":21453:21534   */\n      tag_789\n      jumpi\n        /* \"#utility.yul\":21519:21523   */\n      0x7f\n        /* \"#utility.yul\":21511:21517   */\n      dup3\n        /* \"#utility.yul\":21507:21524   */\n      and\n        /* \"#utility.yul\":21497:21524   */\n      swap2\n      pop\n        /* \"#utility.yul\":21453:21534   */\n    tag_789:\n        /* \"#utility.yul\":21581:21583   */\n      0x20\n        /* \"#utility.yul\":21573:21579   */\n      dup3\n        /* \"#utility.yul\":21570:21584   */\n      lt\n        /* \"#utility.yul\":21550:21568   */\n      dup2\n        /* \"#utility.yul\":21547:21585   */\n      sub\n        /* \"#utility.yul\":21544:21628   */\n      tag_790\n      jumpi\n        /* \"#utility.yul\":21600:21618   */\n      tag_791\n      tag_519\n      jump\t// in\n    tag_791:\n        /* \"#utility.yul\":21544:21628   */\n    tag_790:\n        /* \"#utility.yul\":21365:21634   */\n      pop\n        /* \"#utility.yul\":21314:21634   */\n      swap2\n      swap1\n      pop\n      jump\t// out\n        /* \"#utility.yul\":21640:21811   */\n    tag_520:\n        /* \"#utility.yul\":21780:21803   */\n      0x416e7377657220636f756e74206d69736d617463680000000000000000000000\n        /* \"#utility.yul\":21776:21777   */\n      0x00\n        /* \"#utility.yul\":21768:21774   */\n      dup3\n        /* \"#utility.yul\":21764:21778   */\n      add\n        /* \"#utility.yul\":21757:21804   */\n      mstore\n        /* \"#utility.yul\":21640:21811   */\n      pop\n      jump\t// out\n        /* \"#utility.yul\":21817:22183   */\n    tag_521:\n        /* \"#utility.yul\":21959:21962   */\n      0x00\n        /* \"#utility.yul\":21980:22047   */\n      tag_794\n        /* \"#utility.yul\":22044:22046   */\n      0x15\n        /* \"#utility.yul\":22039:22042   */\n      dup4\n        /* \"#utility.yul\":21980:22047   */\n      tag_505\n      jump\t// in\n    tag_794:\n        /* \"#utility.yul\":21973:22047   */\n      swap2\n      pop\n        /* \"#utility.yul\":22056:22149   */\n      tag_795\n        /* \"#utility.yul\":22145:22148   */\n      dup3\n        /* \"#utility.yul\":22056:22149   */\n      tag_520\n      jump\t// in\n    tag_795:\n        /* \"#utility.yul\":22174:22176   */\n      0x20\n        /* \"#utility.yul\":22169:22172   */\n      dup3\n        /* \"#utility.yul\":22165:22177   */\n      add\n        /* \"#utility.yul\":22158:22177   */\n      swap1\n      pop\n        /* \"#utility.yul\":21817:22183   */\n      swap2\n      swap1\n      pop\n      jump\t// out\n        /* \"#utility.yul\":22189:22608   */\n    tag_209:\n        /* \"#utility.yul\":22355:22359   */\n      0x00\n        /* \"#utility.yul\":22393:22395   */\n      0x20\n        /* \"#utility.yul\":22382:22391   */\n      dup3\n        /* \"#utility.yul\":22378:22396   */\n      add\n        /* \"#utility.yul\":22370:22396   */\n      swap1\n      pop\n        /* \"#utility.yul\":22442:22451   */\n      dup2\n        /* \"#utility.yul\":22436:22440   */\n      dup2\n        /* \"#utility.yul\":22432:22452   */\n      sub\n        /* \"#utility.yul\":22428:22429   */\n      0x00\n        /* \"#utility.yul\":22417:22426   */\n      dup4\n        /* \"#utility.yul\":22413:22430   */\n      add\n        /* \"#utility.yul\":22406:22453   */\n      mstore\n        /* \"#utility.yul\":22470:22601   */\n      tag_797\n        /* \"#utility.yul\":22596:22600   */\n      dup2\n        /* \"#utility.yul\":22470:22601   */\n      tag_521\n      jump\t// in\n    tag_797:\n        /* \"#utility.yul\":22462:22601   */\n      swap1\n      pop\n        /* \"#utility.yul\":22189:22608   */\n      swap2\n      swap1\n      pop\n      jump\t// out\n        /* \"#utility.yul\":22614:22794   */\n    tag_215:\n        /* \"#utility.yul\":22662:22739   */\n      0x4e487b7100000000000000000000000000000000000000000000000000000000\n        /* \"#utility.yul\":22659:22660   */\n      0x00\n        /* \"#utility.yul\":22652:22740   */\n      mstore\n        /* \"#utility.yul\":22759:22763   */\n      0x32\n        /* \"#utility.yul\":22756:22757   */\n      0x04\n        /* \"#utility.yul\":22749:22764   */\n      mstore\n        /* \"#utility.yul\":22783:22787   */\n      0x24\n        /* \"#utility.yul\":22780:22781   */\n      0x00\n        /* \"#utility.yul\":22773:22788   */\n      revert\n        /* \"#utility.yul\":22800:22948   */\n    tag_522:\n        /* \"#utility.yul\":22902:22913   */\n      0x00\n        /* \"#utility.yul\":22939:22942   */\n      dup2\n        /* \"#utility.yul\":22924:22942   */\n      swap1\n      pop\n        /* \"#utility.yul\":22800:22948   */\n      swap3\n      swap2\n      pop\n      pop\n      jump\t// out\n        /* \"#utility.yul\":22954:23344   */\n    tag_523:\n        /* \"#utility.yul\":23060:23063   */\n      0x00\n        /* \"#utility.yul\":23088:23127   */\n      tag_801\n        /* \"#utility.yul\":23121:23126   */\n      dup3\n        /* \"#utility.yul\":23088:23127   */\n      tag_504\n      jump\t// in\n    tag_801:\n        /* \"#utility.yul\":23143:23232   */\n      tag_802\n        /* \"#utility.yul\":23225:23231   */\n      dup2\n        /* \"#utility.yul\":23220:23223   */\n      dup6\n        /* \"#utility.yul\":23143:23232   */\n      tag_522\n      jump\t// in\n    tag_802:\n        /* \"#utility.yul\":23136:23232   */\n      swap4\n      pop\n        /* \"#utility.yul\":23241:23306   */\n      tag_803\n        /* \"#utility.yul\":23299:23305   */\n      dup2\n        /* \"#utility.yul\":23294:23297   */\n      dup6\n        /* \"#utility.yul\":23287:23291   */\n      0x20\n        /* \"#utility.yul\":23280:23285   */\n      dup7\n        /* \"#utility.yul\":23276:23292   */\n      add\n        /* \"#utility.yul\":23241:23306   */\n      tag_506\n      jump\t// in\n    tag_803:\n        /* \"#utility.yul\":23331:23337   */\n      dup1\n        /* \"#utility.yul\":23326:23329   */\n      dup5\n        /* \"#utility.yul\":23322:23338   */\n      add\n        /* \"#utility.yul\":23315:23338   */\n      swap2\n      pop\n        /* \"#utility.yul\":23064:23344   */\n      pop\n        /* \"#utility.yul\":22954:23344   */\n      swap3\n      swap2\n      pop\n      pop\n      jump\t// out\n        /* \"#utility.yul\":23350:23625   */\n    tag_219:\n        /* \"#utility.yul\":23482:23485   */\n      0x00\n        /* \"#utility.yul\":23504:23599   */\n      tag_805\n        /* \"#utility.yul\":23595:23598   */\n      dup3\n        /* \"#utility.yul\":23586:23592   */\n      dup5\n        /* \"#utility.yul\":23504:23599   */\n      tag_523\n      jump\t// in\n    tag_805:\n        /* \"#utility.yul\":23497:23599   */\n      swap2\n      pop\n        /* \"#utility.yul\":23616:23619   */\n      dup2\n        /* \"#utility.yul\":23609:23619   */\n      swap1\n      pop\n        /* \"#utility.yul\":23350:23625   */\n      swap3\n      swap2\n      pop\n      pop\n      jump\t// out\n        /* \"#utility.yul\":23631:23864   */\n    tag_223:\n        /* \"#utility.yul\":23670:23673   */\n      0x00\n        /* \"#utility.yul\":23693:23717   */\n      tag_807\n        /* \"#utility.yul\":23711:23716   */\n      dup3\n        /* \"#utility.yul\":23693:23717   */\n      tag_476\n      jump\t// in\n    tag_807:\n        /* \"#utility.yul\":23684:23717   */\n      swap2\n      pop\n        /* \"#utility.yul\":23739:23805   */\n      0xffffffffffffffffffffffffffffffffffffffffffffffffffffffffffffffff\n        /* \"#utility.yul\":23732:23737   */\n      dup3\n        /* \"#utility.yul\":23729:23806   */\n      sub\n        /* \"#utility.yul\":23726:23829   */\n      tag_808\n      jumpi\n        /* \"#utility.yul\":23809:23827   */\n      tag_809\n      tag_512\n      jump\t// in\n    tag_809:\n        /* \"#utility.yul\":23726:23829   */\n    tag_808:\n        /* \"#utility.yul\":23856:23857   */\n      0x01\n        /* \"#utility.yul\":23849:23854   */\n      dup3\n        /* \"#utility.yul\":23845:23858   */\n      add\n        /* \"#utility.yul\":23838:23858   */\n      swap1\n      pop\n        /* \"#utility.yul\":23631:23864   */\n      swap2\n      swap1\n      pop\n      jump\t// out\n        /* \"#utility.yul\":23870:24017   */\n    tag_524:\n        /* \"#utility.yul\":23971:23982   */\n      0x00\n        /* \"#utility.yul\":24008:24011   */\n      dup2\n        /* \"#utility.yul\":23993:24011   */\n      swap1\n      pop\n        /* \"#utility.yul\":23870:24017   */\n      swap3\n      swap2\n      pop\n      pop\n      jump\t// out\n        /* \"#utility.yul\":24023:24137   */\n    tag_525:\n      pop\n      jump\t// out\n        /* \"#utility.yul\":24143:24541   */\n    tag_526:\n        /* \"#utility.yul\":24302:24305   */\n      0x00\n        /* \"#utility.yul\":24323:24406   */\n      tag_813\n        /* \"#utility.yul\":24404:24405   */\n      0x00\n        /* \"#utility.yul\":24399:24402   */\n      dup4\n        /* \"#utility.yul\":24323:24406   */\n      tag_524\n      jump\t// in\n    tag_813:\n        /* \"#utility.yul\":24316:24406   */\n      swap2\n      pop\n        /* \"#utility.yul\":24415:24508   */\n      tag_814\n        /* \"#utility.yul\":24504:24507   */\n      dup3\n        /* \"#utility.yul\":24415:24508   */\n      tag_525\n      jump\t// in\n    tag_814:\n        /* \"#utility.yul\":24533:24534   */\n      0x00\n        /* \"#utility.yul\":24528:24531   */\n      dup3\n        /* \"#utility.yul\":24524:24535   */\n      add\n        /* \"#utility.yul\":24517:24535   */\n      swap1\n      pop\n        /* \"#utility.yul\":24143:24541   */\n      swap2\n      swap1\n      pop\n      jump\t// out\n        /* \"#utility.yul\":24547:24926   */\n    tag_226:\n        /* \"#utility.yul\":24731:24734   */\n      0x00\n        /* \"#utility.yul\":24753:24900   */\n      tag_816\n        /* \"#utility.yul\":24896:24899   */\n      dup3\n        /* \"#utility.yul\":24753:24900   */\n      tag_526\n      jump\t// in\n    tag_816:\n        /* \"#utility.yul\":24746:24900   */\n      swap2\n      pop\n        /* \"#utility.yul\":24917:24920   */\n      dup2\n        /* \"#utility.yul\":24910:24920   */\n      swap1\n      pop\n        /* \"#utility.yul\":24547:24926   */\n      swap2\n      swap1\n      pop\n      jump\t// out\n        /* \"#utility.yul\":24932:25101   */\n    tag_527:\n        /* \"#utility.yul\":25072:25093   */\n      0x4661696c656420746f2073656e64204d414e4400000000000000000000000000\n        /* \"#utility.yul\":25068:25069   */\n      0x00\n        /* \"#utility.yul\":25060:25066   */\n      dup3\n        /* \"#utility.yul\":25056:25070   */\n      add\n        /* \"#utility.yul\":25049:25094   */\n      mstore\n        /* \"#utility.yul\":24932:25101   */\n      pop\n      jump\t// out\n        /* \"#utility.yul\":25107:25473   */\n    tag_528:\n        /* \"#utility.yul\":25249:25252   */\n      0x00\n        /* \"#utility.yul\":25270:25337   */\n      tag_819\n        /* \"#utility.yul\":25334:25336   */\n      0x13\n        /* \"#utility.yul\":25329:25332   */\n      dup4\n        /* \"#utility.yul\":25270:25337   */\n      tag_505\n      jump\t// in\n    tag_819:\n        /* \"#utility.yul\":25263:25337   */\n      swap2\n      pop\n        /* \"#utility.yul\":25346:25439   */\n      tag_820\n        /* \"#utility.yul\":25435:25438   */\n      dup3\n        /* \"#utility.yul\":25346:25439   */\n      tag_527\n      jump\t// in\n    tag_820:\n        /* \"#utility.yul\":25464:25466   */\n      0x20\n        /* \"#utility.yul\":25459:25462   */\n      dup3\n        /* \"#utility.yul\":25455:25467   */\n      add\n        /* \"#utility.yul\":25448:25467   */\n      swap1\n      pop\n        /* \"#utility.yul\":25107:25473   */\n      swap2\n      swap1\n      pop\n      jump\t// out\n        /* \"#utility.yul\":25479:25898   */\n    tag_232:\n        /* \"#utility.yul\":25645:25649   */\n      0x00\n        /* \"#utility.yul\":25683:25685   */\n      0x20\n        /* \"#utility.yul\":25672:25681   */\n      dup3\n        /* \"#utility.yul\":25668:25686   */\n      add\n        /* \"#utility.yul\":25660:25686   */\n      swap1\n      pop\n        /* \"#utility.yul\":25732:25741   */\n      dup2\n        /* \"#utility.yul\":25726:25730   */\n      dup2\n        /* \"#utility.yul\":25722:25742   */\n      sub\n        /* \"#utility.yul\":25718:25719   */\n      0x00\n        /* \"#utility.yul\":25707:25716   */\n      dup4\n        /* \"#utility.yul\":25703:25720   */\n      add\n        /* \"#utility.yul\":25696:25743   */\n      mstore\n        /* \"#utility.yul\":25760:25891   */\n      tag_822\n        /* \"#utility.yul\":25886:25890   */\n      dup2\n        /* \"#utility.yul\":25760:25891   */\n      tag_528\n      jump\t// in\n    tag_822:\n        /* \"#utility.yul\":25752:25891   */\n      swap1\n      pop\n        /* \"#utility.yul\":25479:25898   */\n      swap2\n      swap1\n      pop\n      jump\t// out\n        /* \"#utility.yul\":25904:26047   */\n    tag_529:\n        /* \"#utility.yul\":25961:25966   */\n      0x00\n        /* \"#utility.yul\":25992:25998   */\n      dup2\n        /* \"#utility.yul\":25986:25999   */\n      mload\n        /* \"#utility.yul\":25977:25999   */\n      swap1\n      pop\n        /* \"#utility.yul\":26008:26041   */\n      tag_824\n        /* \"#utility.yul\":26035:26040   */\n      dup2\n        /* \"#utility.yul\":26008:26041   */\n      tag_477\n      jump\t// in\n    tag_824:\n        /* \"#utility.yul\":25904:26047   */\n      swap3\n      swap2\n      pop\n      pop\n      jump\t// out\n        /* \"#utility.yul\":26053:26404   */\n    tag_251:\n        /* \"#utility.yul\":26123:26129   */\n      0x00\n        /* \"#utility.yul\":26172:26174   */\n      0x20\n        /* \"#utility.yul\":26160:26169   */\n      dup3\n        /* \"#utility.yul\":26151:26158   */\n      dup5\n        /* \"#utility.yul\":26147:26170   */\n      sub\n        /* \"#utility.yul\":26143:26175   */\n      slt\n        /* \"#utility.yul\":26140:26259   */\n      iszero\n      tag_826\n      jumpi\n        /* \"#utility.yul\":26178:26257   */\n      tag_827\n      tag_470\n      jump\t// in\n    tag_827:\n        /* \"#utility.yul\":26140:26259   */\n    tag_826:\n        /* \"#utility.yul\":26298:26299   */\n      0x00\n        /* \"#utility.yul\":26323:26387   */\n      tag_828\n        /* \"#utility.yul\":26379:26386   */\n      dup5\n        /* \"#utility.yul\":26370:26376   */\n      dup3\n        /* \"#utility.yul\":26359:26368   */\n      dup6\n        /* \"#utility.yul\":26355:26377   */\n      add\n        /* \"#utility.yul\":26323:26387   */\n      tag_529\n      jump\t// in\n    tag_828:\n        /* \"#utility.yul\":26313:26387   */\n      swap2\n      pop\n        /* \"#utility.yul\":26269:26397   */\n      pop\n        /* \"#utility.yul\":26053:26404   */\n      swap3\n      swap2\n      pop\n      pop\n      jump\t// out\n        /* \"#utility.yul\":26410:26630   */\n    tag_530:\n        /* \"#utility.yul\":26550:26584   */\n      0x496e73756666696369656e742072657075746174696f6e20746f20656e726f6c\n        /* \"#utility.yul\":26546:26547   */\n      0x00\n        /* \"#utility.yul\":26538:26544   */\n      dup3\n        /* \"#utility.yul\":26534:26548   */\n      add\n        /* \"#utility.yul\":26527:26585   */\n      mstore\n        /* \"#utility.yul\":26619:26622   */\n      0x6c00000000000000000000000000000000000000000000000000000000000000\n        /* \"#utility.yul\":26614:26616   */\n      0x20\n        /* \"#utility.yul\":26606:26612   */\n      dup3\n        /* \"#utility.yul\":26602:26617   */\n      add\n        /* \"#utility.yul\":26595:26623   */\n      mstore\n        /* \"#utility.yul\":26410:26630   */\n      pop\n      jump\t// out\n        /* \"#utility.yul\":26636:27002   */\n    tag_531:\n        /* \"#utility.yul\":26778:26781   */\n      0x00\n        /* \"#utility.yul\":26799:26866   */\n      tag_831\n        /* \"#utility.yul\":26863:26865   */\n      0x21\n        /* \"#utility.yul\":26858:26861   */\n      dup4\n        /* \"#utility.yul\":26799:26866   */\n      tag_505\n      jump\t// in\n    tag_831:\n        /* \"#utility.yul\":26792:26866   */\n      swap2\n      pop\n        /* \"#utility.yul\":26875:26968   */\n      tag_832\n        /* \"#utility.yul\":26964:26967   */\n      dup3\n        /* \"#utility.yul\":26875:26968   */\n      tag_530\n      jump\t// in\n    tag_832:\n        /* \"#utility.yul\":26993:26995   */\n      0x40\n        /* \"#utility.yul\":26988:26991   */\n      dup3\n        /* \"#utility.yul\":26984:26996   */\n      add\n        /* \"#utility.yul\":26977:26996   */\n      swap1\n      pop\n        /* \"#utility.yul\":26636:27002   */\n      swap2\n      swap1\n      pop\n      jump\t// out\n        /* \"#utility.yul\":27008:27427   */\n    tag_254:\n        /* \"#utility.yul\":27174:27178   */\n      0x00\n        /* \"#utility.yul\":27212:27214   */\n      0x20\n        /* \"#utility.yul\":27201:27210   */\n      dup3\n        /* \"#utility.yul\":27197:27215   */\n      add\n        /* \"#utility.yul\":27189:27215   */\n      swap1\n      pop\n        /* \"#utility.yul\":27261:27270   */\n      dup2\n        /* \"#utility.yul\":27255:27259   */\n      dup2\n        /* \"#utility.yul\":27251:27271   */\n      sub\n        /* \"#utility.yul\":27247:27248   */\n      0x00\n        /* \"#utility.yul\":27236:27245   */\n      dup4\n        /* \"#utility.yul\":27232:27249   */\n      add\n        /* \"#utility.yul\":27225:27272   */\n      mstore\n        /* \"#utility.yul\":27289:27420   */\n      tag_834\n        /* \"#utility.yul\":27415:27419   */\n      dup2\n        /* \"#utility.yul\":27289:27420   */\n      tag_531\n      jump\t// in\n    tag_834:\n        /* \"#utility.yul\":27281:27420   */\n      swap1\n      pop\n        /* \"#utility.yul\":27008:27427   */\n      swap2\n      swap1\n      pop\n      jump\t// out\n        /* \"#utility.yul\":27433:27602   */\n    tag_532:\n        /* \"#utility.yul\":27573:27594   */\n      0x436f75727365206e6f7420617070726f76656400000000000000000000000000\n        /* \"#utility.yul\":27569:27570   */\n      0x00\n        /* \"#utility.yul\":27561:27567   */\n      dup3\n        /* \"#utility.yul\":27557:27571   */\n      add\n        /* \"#utility.yul\":27550:27595   */\n      mstore\n        /* \"#utility.yul\":27433:27602   */\n      pop\n      jump\t// out\n        /* \"#utility.yul\":27608:27974   */\n    tag_533:\n        /* \"#utility.yul\":27750:27753   */\n      0x00\n        /* \"#utility.yul\":27771:27838   */\n      tag_837\n        /* \"#utility.yul\":27835:27837   */\n      0x13\n        /* \"#utility.yul\":27830:27833   */\n      dup4\n        /* \"#utility.yul\":27771:27838   */\n      tag_505\n      jump\t// in\n    tag_837:\n        /* \"#utility.yul\":27764:27838   */\n      swap2\n      pop\n        /* \"#utility.yul\":27847:27940   */\n      tag_838\n        /* \"#utility.yul\":27936:27939   */\n      dup3\n        /* \"#utility.yul\":27847:27940   */\n      tag_532\n      jump\t// in\n    tag_838:\n        /* \"#utility.yul\":27965:27967   */\n      0x20\n        /* \"#utility.yul\":27960:27963   */\n      dup3\n        /* \"#utility.yul\":27956:27968   */\n      add\n        /* \"#utility.yul\":27949:27968   */\n      swap1\n      pop\n        /* \"#utility.yul\":27608:27974   */\n      swap2\n      swap1\n      pop\n      jump\t// out\n        /* \"#utility.yul\":27980:28399   */\n    tag_257:\n        /* \"#utility.yul\":28146:28150   */\n      0x00\n        /* \"#utility.yul\":28184:28186   */\n      0x20\n        /* \"#utility.yul\":28173:28182   */\n      dup3\n        /* \"#utility.yul\":28169:28187   */\n      add\n        /* \"#utility.yul\":28161:28187   */\n      swap1\n      pop\n        /* \"#utility.yul\":28233:28242   */\n      dup2\n        /* \"#utility.yul\":28227:28231   */\n      dup2\n        /* \"#utility.yul\":28223:28243   */\n      sub\n        /* \"#utility.yul\":28219:28220   */\n      0x00\n        /* \"#utility.yul\":28208:28217   */\n      dup4\n        /* \"#utility.yul\":28204:28221   */\n      add\n        /* \"#utility.yul\":28197:28244   */\n      mstore\n        /* \"#utility.yul\":28261:28392   */\n      tag_840\n        /* \"#utility.yul\":28387:28391   */\n      dup2\n        /* \"#utility.yul\":28261:28392   */\n      tag_533\n      jump\t// in\n    tag_840:\n        /* \"#utility.yul\":28253:28392   */\n      swap1\n      pop\n        /* \"#utility.yul\":27980:28399   */\n      swap2\n      swap1\n      pop\n      jump\t// out\n        /* \"#utility.yul\":28405:28571   */\n    tag_534:\n        /* \"#utility.yul\":28545:28563   */\n      0x416c726561647920656e726f6c6c656400000000000000000000000000000000\n        /* \"#utility.yul\":28541:28542   */\n      0x00\n        /* \"#utility.yul\":28533:28539   */\n      dup3\n        /* \"#utility.yul\":28529:28543   */\n      add\n        /* \"#utility.yul\":28522:28564   */\n      mstore\n        /* \"#utility.yul\":28405:28571   */\n      pop\n      jump\t// out\n        /* \"#utility.yul\":28577:28943   */\n    tag_535:\n        /* \"#utility.yul\":28719:28722   */\n      0x00\n        /* \"#utility.yul\":28740:28807   */\n      tag_843\n        /* \"#utility.yul\":28804:28806   */\n      0x10\n        /* \"#utility.yul\":28799:28802   */\n      dup4\n        /* \"#utility.yul\":28740:28807   */\n      tag_505\n      jump\t// in\n    tag_843:\n        /* \"#utility.yul\":28733:28807   */\n      swap2\n      pop\n        /* \"#utility.yul\":28816:28909   */\n      tag_844\n        /* \"#utility.yul\":28905:28908   */\n      dup3\n        /* \"#utility.yul\":28816:28909   */\n      tag_534\n      jump\t// in\n    tag_844:\n        /* \"#utility.yul\":28934:28936   */\n      0x20\n        /* \"#utility.yul\":28929:28932   */\n      dup3\n        /* \"#utility.yul\":28925:28937   */\n      add\n        /* \"#utility.yul\":28918:28937   */\n      swap1\n      pop\n        /* \"#utility.yul\":28577:28943   */\n      swap2\n      swap1\n      pop\n      jump\t// out\n        /* \"#utility.yul\":28949:29368   */\n    tag_260:\n        /* \"#utility.yul\":29115:29119   */\n      0x00\n        /* \"#utility.yul\":29153:29155   */\n      0x20\n        /* \"#utility.yul\":29142:29151   */\n      dup3\n        /* \"#utility.yul\":29138:29156   */\n      add\n        /* \"#utility.yul\":29130:29156   */\n      swap1\n      pop\n        /* \"#utility.yul\":29202:29211   */\n      dup2\n        /* \"#utility.yul\":29196:29200   */\n      dup2\n        /* \"#utility.yul\":29192:29212   */\n      sub\n        /* \"#utility.yul\":29188:29189   */\n      0x00\n        /* \"#utility.yul\":29177:29186   */\n      dup4\n        /* \"#utility.yul\":29173:29190   */\n      add\n        /* \"#utility.yul\":29166:29213   */\n      mstore\n        /* \"#utility.yul\":29230:29361   */\n      tag_846\n        /* \"#utility.yul\":29356:29360   */\n      dup2\n        /* \"#utility.yul\":29230:29361   */\n      tag_535\n      jump\t// in\n    tag_846:\n        /* \"#utility.yul\":29222:29361   */\n      swap1\n      pop\n        /* \"#utility.yul\":28949:29368   */\n      swap2\n      swap1\n      pop\n      jump\t// out\n        /* \"#utility.yul\":29374:29547   */\n    tag_536:\n        /* \"#utility.yul\":29514:29539   */\n      0x436f7572736520616c726561647920617070726f766564000000000000000000\n        /* \"#utility.yul\":29510:29511   */\n      0x00\n        /* \"#utility.yul\":29502:29508   */\n      dup3\n        /* \"#utility.yul\":29498:29512   */\n      add\n        /* \"#utility.yul\":29491:29540   */\n      mstore\n        /* \"#utility.yul\":29374:29547   */\n      pop\n      jump\t// out\n        /* \"#utility.yul\":29553:29919   */\n    tag_537:\n        /* \"#utility.yul\":29695:29698   */\n      0x00\n        /* \"#utility.yul\":29716:29783   */\n      tag_849\n        /* \"#utility.yul\":29780:29782   */\n      0x17\n        /* \"#utility.yul\":29775:29778   */\n      dup4\n        /* \"#utility.yul\":29716:29783   */\n      tag_505\n      jump\t// in\n    tag_849:\n        /* \"#utility.yul\":29709:29783   */\n      swap2\n      pop\n        /* \"#utility.yul\":29792:29885   */\n      tag_850\n        /* \"#utility.yul\":29881:29884   */\n      dup3\n        /* \"#utility.yul\":29792:29885   */\n      tag_536\n      jump\t// in\n    tag_850:\n        /* \"#utility.yul\":29910:29912   */\n      0x20\n        /* \"#utility.yul\":29905:29908   */\n      dup3\n        /* \"#utility.yul\":29901:29913   */\n      add\n        /* \"#utility.yul\":29894:29913   */\n      swap1\n      pop\n        /* \"#utility.yul\":29553:29919   */\n      swap2\n      swap1\n      pop\n      jump\t// out\n        /* \"#utility.yul\":29925:30344   */\n    tag_272:\n        /* \"#utility.yul\":30091:30095   */\n      0x00\n        /* \"#utility.yul\":30129:30131   */\n      0x20\n        /* \"#utility.yul\":30118:30127   */\n      dup3\n        /* \"#utility.yul\":30114:30132   */\n      add\n        /* \"#utility.yul\":30106:30132   */\n      swap1\n      pop\n        /* \"#utility.yul\":30178:30187   */\n      dup2\n        /* \"#utility.yul\":30172:30176   */\n      dup2\n        /* \"#utility.yul\":30168:30188   */\n      sub\n        /* \"#utility.yul\":30164:30165   */\n      0x00\n        /* \"#utility.yul\":30153:30162   */\n      dup4\n        /* \"#utility.yul\":30149:30166   */\n      add\n        /* \"#utility.yul\":30142:30189   */\n      mstore\n        /* \"#utility.yul\":30206:30337   */\n      tag_852\n        /* \"#utility.yul\":30332:30336   */\n      dup2\n        /* \"#utility.yul\":30206:30337   */\n      tag_537\n      jump\t// in\n    tag_852:\n        /* \"#utility.yul\":30198:30337   */\n      swap1\n      pop\n        /* \"#utility.yul\":29925:30344   */\n      swap2\n      swap1\n      pop\n      jump\t// out\n        /* \"#utility.yul\":30350:30577   */\n    tag_538:\n        /* \"#utility.yul\":30490:30524   */\n      0x496e73756666696369656e742072657075746174696f6e20746f206372656174\n        /* \"#utility.yul\":30486:30487   */\n      0x00\n        /* \"#utility.yul\":30478:30484   */\n      dup3\n        /* \"#utility.yul\":30474:30488   */\n      add\n        /* \"#utility.yul\":30467:30525   */\n      mstore\n        /* \"#utility.yul\":30559:30569   */\n      0x6520636f75727365000000000000000000000000000000000000000000000000\n        /* \"#utility.yul\":30554:30556   */\n      0x20\n        /* \"#utility.yul\":30546:30552   */\n      dup3\n        /* \"#utility.yul\":30542:30557   */\n      add\n        /* \"#utility.yul\":30535:30570   */\n      mstore\n        /* \"#utility.yul\":30350:30577   */\n      pop\n      jump\t// out\n        /* \"#utility.yul\":30583:30949   */\n    tag_539:\n        /* \"#utility.yul\":30725:30728   */\n      0x00\n        /* \"#utility.yul\":30746:30813   */\n      tag_855\n        /* \"#utility.yul\":30810:30812   */\n      0x28\n        /* \"#utility.yul\":30805:30808   */\n      dup4\n        /* \"#utility.yul\":30746:30813   */\n      tag_505\n      jump\t// in\n    tag_855:\n        /* \"#utility.yul\":30739:30813   */\n      swap2\n      pop\n        /* \"#utility.yul\":30822:30915   */\n      tag_856\n        /* \"#utility.yul\":30911:30914   */\n      dup3\n        /* \"#utility.yul\":30822:30915   */\n      tag_538\n      jump\t// in\n    tag_856:\n        /* \"#utility.yul\":30940:30942   */\n      0x40\n        /* \"#utility.yul\":30935:30938   */\n      dup3\n        /* \"#utility.yul\":30931:30943   */\n      add\n        /* \"#utility.yul\":30924:30943   */\n      swap1\n      pop\n        /* \"#utility.yul\":30583:30949   */\n      swap2\n      swap1\n      pop\n      jump\t// out\n        /* \"#utility.yul\":30955:31374   */\n    tag_290:\n        /* \"#utility.yul\":31121:31125   */\n      0x00\n        /* \"#utility.yul\":31159:31161   */\n      0x20\n        /* \"#utility.yul\":31148:31157   */\n      dup3\n        /* \"#utility.yul\":31144:31162   */\n      add\n        /* \"#utility.yul\":31136:31162   */\n      swap1\n      pop\n        /* \"#utility.yul\":31208:31217   */\n      dup2\n        /* \"#utility.yul\":31202:31206   */\n      dup2\n        /* \"#utility.yul\":31198:31218   */\n      sub\n        /* \"#utility.yul\":31194:31195   */\n      0x00\n        /* \"#utility.yul\":31183:31192   */\n      dup4\n        /* \"#utility.yul\":31179:31196   */\n      add\n        /* \"#utility.yul\":31172:31219   */\n      mstore\n        /* \"#utility.yul\":31236:31367   */\n      tag_858\n        /* \"#utility.yul\":31362:31366   */\n      dup2\n        /* \"#utility.yul\":31236:31367   */\n      tag_539\n      jump\t// in\n    tag_858:\n        /* \"#utility.yul\":31228:31367   */\n      swap1\n      pop\n        /* \"#utility.yul\":30955:31374   */\n      swap2\n      swap1\n      pop\n      jump\t// out\n        /* \"#utility.yul\":31380:31547   */\n    tag_540:\n        /* \"#utility.yul\":31520:31539   */\n      0x496e76616c6964207175697a2064617461000000000000000000000000000000\n        /* \"#utility.yul\":31516:31517   */\n      0x00\n        /* \"#utility.yul\":31508:31514   */\n      dup3\n        /* \"#utility.yul\":31504:31518   */\n      add\n        /* \"#utility.yul\":31497:31540   */\n      mstore\n        /* \"#utility.yul\":31380:31547   */\n      pop\n      jump\t// out\n        /* \"#utility.yul\":31553:31919   */\n    tag_541:\n        /* \"#utility.yul\":31695:31698   */\n      0x00\n        /* \"#utility.yul\":31716:31783   */\n      tag_861\n        /* \"#utility.yul\":31780:31782   */\n      0x11\n        /* \"#utility.yul\":31775:31778   */\n      dup4\n        /* \"#utility.yul\":31716:31783   */\n      tag_505\n      jump\t// in\n    tag_861:\n        /* \"#utility.yul\":31709:31783   */\n      swap2\n      pop\n        /* \"#utility.yul\":31792:31885   */\n      tag_862\n        /* \"#utility.yul\":31881:31884   */\n      dup3\n        /* \"#utility.yul\":31792:31885   */\n      tag_540\n      jump\t// in\n    tag_862:\n        /* \"#utility.yul\":31910:31912   */\n      0x20\n        /* \"#utility.yul\":31905:31908   */\n      dup3\n        /* \"#utility.yul\":31901:31913   */\n      add\n        /* \"#utility.yul\":31894:31913   */\n      swap1\n      pop\n        /* \"#utility.yul\":31553:31919   */\n      swap2\n      swap1\n      pop\n      jump\t// out\n        /* \"#utility.yul\":31925:32344   */\n    tag_298:\n        /* \"#utility.yul\":32091:32095   */\n      0x00\n        /* \"#utility.yul\":32129:32131   */\n      0x20\n        /* \"#utility.yul\":32118:32127   */\n      dup3\n        /* \"#utility.yul\":32114:32132   */\n      add\n        /* \"#utility.yul\":32106:32132   */\n      swap1\n      pop\n        /* \"#utility.yul\":32178:32187   */\n      dup2\n        /* \"#utility.yul\":32172:32176   */\n      dup2\n        /* \"#utility.yul\":32168:32188   */\n      sub\n        /* \"#utility.yul\":32164:32165   */\n      0x00\n        /* \"#utility.yul\":32153:32162   */\n      dup4\n        /* \"#utility.yul\":32149:32166   */\n      add\n        /* \"#utility.yul\":32142:32189   */\n      mstore\n        /* \"#utility.yul\":32206:32337   */\n      tag_864\n        /* \"#utility.yul\":32332:32336   */\n      dup2\n        /* \"#utility.yul\":32206:32337   */\n      tag_541\n      jump\t// in\n    tag_864:\n        /* \"#utility.yul\":32198:32337   */\n      swap1\n      pop\n        /* \"#utility.yul\":31925:32344   */\n      swap2\n      swap1\n      pop\n      jump\t// out\n        /* \"#utility.yul\":32350:32491   */\n    tag_542:\n        /* \"#utility.yul\":32399:32403   */\n      0x00\n        /* \"#utility.yul\":32422:32425   */\n      dup2\n        /* \"#utility.yul\":32414:32425   */\n      swap1\n      pop\n        /* \"#utility.yul\":32445:32448   */\n      dup2\n        /* \"#utility.yul\":32442:32443   */\n      0x00\n        /* \"#utility.yul\":32435:32449   */\n      mstore\n        /* \"#utility.yul\":32479:32483   */\n      0x20\n        /* \"#utility.yul\":32476:32477   */\n      0x00\n        /* \"#utility.yul\":32466:32484   */\n      keccak256\n        /* \"#utility.yul\":32458:32484   */\n      swap1\n      pop\n        /* \"#utility.yul\":32350:32491   */\n      swap2\n      swap1\n      pop\n      jump\t// out\n        /* \"#utility.yul\":32497:32590   */\n    tag_543:\n        /* \"#utility.yul\":32534:32540   */\n      0x00\n        /* \"#utility.yul\":32581:32583   */\n      0x20\n        /* \"#utility.yul\":32576:32578   */\n      0x1f\n        /* \"#utility.yul\":32569:32574   */\n      dup4\n        /* \"#utility.yul\":32565:32579   */\n      add\n        /* \"#utility.yul\":32561:32584   */\n      div\n        /* \"#utility.yul\":32551:32584   */\n      swap1\n      pop\n        /* \"#utility.yul\":32497:32590   */\n      swap2\n      swap1\n      pop\n      jump\t// out\n        /* \"#utility.yul\":32596:32703   */\n    tag_544:\n        /* \"#utility.yul\":32640:32648   */\n      0x00\n        /* \"#utility.yul\":32690:32695   */\n      dup3\n        /* \"#utility.yul\":32684:32688   */\n      dup3\n        /* \"#utility.yul\":32680:32696   */\n      shl\n        /* \"#utility.yul\":32659:32696   */\n      swap1\n      pop\n        /* \"#utility.yul\":32596:32703   */\n      swap3\n      swap2\n      pop\n      pop\n      jump\t// out\n        /* \"#utility.yul\":32709:33102   */\n    tag_545:\n        /* \"#utility.yul\":32778:32784   */\n      0x00\n        /* \"#utility.yul\":32828:32829   */\n      0x08\n        /* \"#utility.yul\":32816:32826   */\n      dup4\n        /* \"#utility.yul\":32812:32830   */\n      mul\n        /* \"#utility.yul\":32851:32948   */\n      tag_869\n        /* \"#utility.yul\":32881:32947   */\n      0xffffffffffffffffffffffffffffffffffffffffffffffffffffffffffffffff\n        /* \"#utility.yul\":32870:32879   */\n      dup3\n        /* \"#utility.yul\":32851:32948   */\n      tag_544\n      jump\t// in\n    tag_869:\n        /* \"#utility.yul\":32969:33008   */\n      tag_870\n        /* \"#utility.yul\":32999:33007   */\n      dup7\n        /* \"#utility.yul\":32988:32997   */\n      dup4\n        /* \"#utility.yul\":32969:33008   */\n      tag_544\n      jump\t// in\n    tag_870:\n        /* \"#utility.yul\":32957:33008   */\n      swap6\n      pop\n        /* \"#utility.yul\":33041:33045   */\n      dup1\n        /* \"#utility.yul\":33037:33046   */\n      not\n        /* \"#utility.yul\":33030:33035   */\n      dup5\n        /* \"#utility.yul\":33026:33047   */\n      and\n        /* \"#utility.yul\":33017:33047   */\n      swap4\n      pop\n        /* \"#utility.yul\":33090:33094   */\n      dup1\n        /* \"#utility.yul\":33080:33088   */\n      dup7\n        /* \"#utility.yul\":33076:33095   */\n      and\n        /* \"#utility.yul\":33069:33074   */\n      dup5\n        /* \"#utility.yul\":33066:33096   */\n      or\n        /* \"#utility.yul\":33056:33096   */\n      swap3\n      pop\n        /* \"#utility.yul\":32785:33102   */\n      pop\n      pop\n        /* \"#utility.yul\":32709:33102   */\n      swap4\n      swap3\n      pop\n      pop\n      pop\n      jump\t// out\n        /* \"#utility.yul\":33108:33250   */\n    tag_546:\n        /* \"#utility.yul\":33158:33167   */\n      0x00\n        /* \"#utility.yul\":33191:33244   */\n      tag_872\n        /* \"#utility.yul\":33209:33243   */\n      tag_873\n        /* \"#utility.yul\":33218:33242   */\n      tag_874\n        /* \"#utility.yul\":33236:33241   */\n      dup5\n        /* \"#utility.yul\":33218:33242   */\n      tag_476\n      jump\t// in\n    tag_874:\n        /* \"#utility.yul\":33209:33243   */\n      tag_498\n      jump\t// in\n    tag_873:\n        /* \"#utility.yul\":33191:33244   */\n      tag_476\n      jump\t// in\n    tag_872:\n        /* \"#utility.yul\":33178:33244   */\n      swap1\n      pop\n        /* \"#utility.yul\":33108:33250   */\n      swap2\n      swap1\n      pop\n      jump\t// out\n        /* \"#utility.yul\":33256:33331   */\n    tag_547:\n        /* \"#utility.yul\":33299:33302   */\n      0x00\n        /* \"#utility.yul\":33320:33325   */\n      dup2\n        /* \"#utility.yul\":33313:33325   */\n      swap1\n      pop\n        /* \"#utility.yul\":33256:33331   */\n      swap2\n      swap1\n      pop\n      jump\t// out\n        /* \"#utility.yul\":33337:33606   */\n    tag_548:\n        /* \"#utility.yul\":33447:33486   */\n      tag_877\n        /* \"#utility.yul\":33478:33485   */\n      dup4\n        /* \"#utility.yul\":33447:33486   */\n      tag_546\n      jump\t// in\n    tag_877:\n        /* \"#utility.yul\":33508:33599   */\n      tag_878\n        /* \"#utility.yul\":33557:33598   */\n      tag_879\n        /* \"#utility.yul\":33581:33597   */\n      dup3\n        /* \"#utility.yul\":33557:33598   */\n      tag_547\n      jump\t// in\n    tag_879:\n        /* \"#utility.yul\":33549:33555   */\n      dup5\n        /* \"#utility.yul\":33542:33546   */\n      dup5\n        /* \"#utility.yul\":33536:33547   */\n      sload\n        /* \"#utility.yul\":33508:33599   */\n      tag_545\n      jump\t// in\n    tag_878:\n        /* \"#utility.yul\":33502:33506   */\n      dup3\n        /* \"#utility.yul\":33495:33600   */\n      sstore\n        /* \"#utility.yul\":33413:33606   */\n      pop\n        /* \"#utility.yul\":33337:33606   */\n      pop\n      pop\n      pop\n      jump\t// out\n        /* \"#utility.yul\":33612:33685   */\n    tag_549:\n        /* \"#utility.yul\":33657:33660   */\n      0x00\n        /* \"#utility.yul\":33612:33685   */\n      swap1\n      jump\t// out\n        /* \"#utility.yul\":33691:33880   */\n    tag_550:\n        /* \"#utility.yul\":33768:33800   */\n      tag_882\n      tag_549\n      jump\t// in\n    tag_882:\n        /* \"#utility.yul\":33809:33874   */\n      tag_883\n        /* \"#utility.yul\":33867:33873   */\n      dup2\n        /* \"#utility.yul\":33859:33865   */\n      dup5\n        /* \"#utility.yul\":33853:33857   */\n      dup5\n        /* \"#utility.yul\":33809:33874   */\n      tag_548\n      jump\t// in\n    tag_883:\n        /* \"#utility.yul\":33744:33880   */\n      pop\n        /* \"#utility.yul\":33691:33880   */\n      pop\n      pop\n      jump\t// out\n        /* \"#utility.yul\":33886:34072   */\n    tag_551:\n        /* \"#utility.yul\":33946:34066   */\n    tag_885:\n        /* \"#utility.yul\":33963:33966   */\n      dup2\n        /* \"#utility.yul\":33956:33961   */\n      dup2\n        /* \"#utility.yul\":33953:33967   */\n      lt\n        /* \"#utility.yul\":33946:34066   */\n      iszero\n      tag_887\n      jumpi\n        /* \"#utility.yul\":34017:34056   */\n      tag_888\n        /* \"#utility.yul\":34054:34055   */\n      0x00\n        /* \"#utility.yul\":34047:34052   */\n      dup3\n        /* \"#utility.yul\":34017:34056   */\n      tag_550\n      jump\t// in\n    tag_888:\n        /* \"#utility.yul\":33990:33991   */\n      0x01\n        /* \"#utility.yul\":33983:33988   */\n      dup2\n        /* \"#utility.yul\":33979:33992   */\n      add\n        /* \"#utility.yul\":33970:33992   */\n      swap1\n      pop\n        /* \"#utility.yul\":33946:34066   */\n      jump(tag_885)\n    tag_887:\n        /* \"#utility.yul\":33886:34072   */\n      pop\n      pop\n      jump\t// out\n        /* \"#utility.yul\":34078:34621   */\n    tag_552:\n        /* \"#utility.yul\":34179:34181   */\n      0x1f\n        /* \"#utility.yul\":34174:34177   */\n      dup3\n        /* \"#utility.yul\":34171:34182   */\n      gt\n        /* \"#utility.yul\":34168:34614   */\n      iszero\n      tag_890\n      jumpi\n        /* \"#utility.yul\":34213:34251   */\n      tag_891\n        /* \"#utility.yul\":34245:34250   */\n      dup2\n        /* \"#utility.yul\":34213:34251   */\n      tag_542\n      jump\t// in\n    tag_891:\n        /* \"#utility.yul\":34297:34326   */\n      tag_892\n        /* \"#utility.yul\":34315:34325   */\n      dup5\n        /* \"#utility.yul\":34297:34326   */\n      tag_543\n      jump\t// in\n    tag_892:\n        /* \"#utility.yul\":34287:34295   */\n      dup2\n        /* \"#utility.yul\":34283:34327   */\n      add\n        /* \"#utility.yul\":34480:34482   */\n      0x20\n        /* \"#utility.yul\":34468:34478   */\n      dup6\n        /* \"#utility.yul\":34465:34483   */\n      lt\n        /* \"#utility.yul\":34462:34511   */\n      iszero\n      tag_893\n      jumpi\n        /* \"#utility.yul\":34501:34509   */\n      dup2\n        /* \"#utility.yul\":34486:34509   */\n      swap1\n      pop\n        /* \"#utility.yul\":34462:34511   */\n    tag_893:\n        /* \"#utility.yul\":34524:34604   */\n      tag_894\n        /* \"#utility.yul\":34580:34602   */\n      tag_895\n        /* \"#utility.yul\":34598:34601   */\n      dup6\n        /* \"#utility.yul\":34580:34602   */\n      tag_543\n      jump\t// in\n    tag_895:\n        /* \"#utility.yul\":34570:34578   */\n      dup4\n        /* \"#utility.yul\":34566:34603   */\n      add\n        /* \"#utility.yul\":34553:34564   */\n      dup3\n        /* \"#utility.yul\":34524:34604   */\n      tag_551\n      jump\t// in\n    tag_894:\n        /* \"#utility.yul\":34183:34614   */\n      pop\n      pop\n        /* \"#utility.yul\":34168:34614   */\n    tag_890:\n        /* \"#utility.yul\":34078:34621   */\n      pop\n      pop\n      pop\n      jump\t// out\n        /* \"#utility.yul\":34627:34744   */\n    tag_553:\n        /* \"#utility.yul\":34681:34689   */\n      0x00\n        /* \"#utility.yul\":34731:34736   */\n      dup3\n        /* \"#utility.yul\":34725:34729   */\n      dup3\n        /* \"#utility.yul\":34721:34737   */\n      shr\n        /* \"#utility.yul\":34700:34737   */\n      swap1\n      pop\n        /* \"#utility.yul\":34627:34744   */\n      swap3\n      swap2\n      pop\n      pop\n      jump\t// out\n        /* \"#utility.yul\":34750:34919   */\n    tag_554:\n        /* \"#utility.yul\":34794:34800   */\n      0x00\n        /* \"#utility.yul\":34827:34878   */\n      tag_898\n        /* \"#utility.yul\":34875:34876   */\n      0x00\n        /* \"#utility.yul\":34871:34877   */\n      not\n        /* \"#utility.yul\":34863:34868   */\n      dup5\n        /* \"#utility.yul\":34860:34861   */\n      0x08\n        /* \"#utility.yul\":34856:34869   */\n      mul\n        /* \"#utility.yul\":34827:34878   */\n      tag_553\n      jump\t// in\n    tag_898:\n        /* \"#utility.yul\":34823:34879   */\n      not\n        /* \"#utility.yul\":34908:34912   */\n      dup1\n        /* \"#utility.yul\":34902:34906   */\n      dup4\n        /* \"#utility.yul\":34898:34913   */\n      and\n        /* \"#utility.yul\":34888:34913   */\n      swap2\n      pop\n        /* \"#utility.yul\":34801:34919   */\n      pop\n        /* \"#utility.yul\":34750:34919   */\n      swap3\n      swap2\n      pop\n      pop\n      jump\t// out\n        /* \"#utility.yul\":34924:35219   */\n    tag_555:\n        /* \"#utility.yul\":35000:35004   */\n      0x00\n        /* \"#utility.yul\":35146:35175   */\n      tag_900\n        /* \"#utility.yul\":35171:35174   */\n      dup4\n        /* \"#utility.yul\":35165:35169   */\n      dup4\n        /* \"#utility.yul\":35146:35175   */\n      tag_554\n      jump\t// in\n    tag_900:\n        /* \"#utility.yul\":35138:35175   */\n      swap2\n      pop\n        /* \"#utility.yul\":35208:35211   */\n      dup3\n        /* \"#utility.yul\":35205:35206   */\n      0x02\n        /* \"#utility.yul\":35201:35212   */\n      mul\n        /* \"#utility.yul\":35195:35199   */\n      dup3\n        /* \"#utility.yul\":35192:35213   */\n      or\n        /* \"#utility.yul\":35184:35213   */\n      swap1\n      pop\n        /* \"#utility.yul\":34924:35219   */\n      swap3\n      swap2\n      pop\n      pop\n      jump\t// out\n        /* \"#utility.yul\":35224:36619   */\n    tag_301:\n        /* \"#utility.yul\":35341:35378   */\n      tag_902\n        /* \"#utility.yul\":35374:35377   */\n      dup3\n        /* \"#utility.yul\":35341:35378   */\n      tag_504\n      jump\t// in\n    tag_902:\n        /* \"#utility.yul\":35443:35461   */\n      0xffffffffffffffff\n        /* \"#utility.yul\":35435:35441   */\n      dup2\n        /* \"#utility.yul\":35432:35462   */\n      gt\n        /* \"#utility.yul\":35429:35485   */\n      iszero\n      tag_903\n      jumpi\n        /* \"#utility.yul\":35465:35483   */\n      tag_904\n      tag_486\n      jump\t// in\n    tag_904:\n        /* \"#utility.yul\":35429:35485   */\n    tag_903:\n        /* \"#utility.yul\":35509:35547   */\n      tag_905\n        /* \"#utility.yul\":35541:35545   */\n      dup3\n        /* \"#utility.yul\":35535:35546   */\n      sload\n        /* \"#utility.yul\":35509:35547   */\n      tag_182\n      jump\t// in\n    tag_905:\n        /* \"#utility.yul\":35594:35661   */\n      tag_906\n        /* \"#utility.yul\":35654:35660   */\n      dup3\n        /* \"#utility.yul\":35646:35652   */\n      dup3\n        /* \"#utility.yul\":35640:35644   */\n      dup6\n        /* \"#utility.yul\":35594:35661   */\n      tag_552\n      jump\t// in\n    tag_906:\n        /* \"#utility.yul\":35688:35689   */\n      0x00\n        /* \"#utility.yul\":35712:35716   */\n      0x20\n        /* \"#utility.yul\":35699:35716   */\n      swap1\n      pop\n        /* \"#utility.yul\":35744:35746   */\n      0x1f\n        /* \"#utility.yul\":35736:35742   */\n      dup4\n        /* \"#utility.yul\":35733:35747   */\n      gt\n        /* \"#utility.yul\":35761:35762   */\n      0x01\n        /* \"#utility.yul\":35756:36374   */\n      dup2\n      eq\n      tag_908\n      jumpi\n        /* \"#utility.yul\":36418:36419   */\n      0x00\n        /* \"#utility.yul\":36435:36441   */\n      dup5\n        /* \"#utility.yul\":36432:36509   */\n      iszero\n      tag_909\n      jumpi\n        /* \"#utility.yul\":36484:36493   */\n      dup3\n        /* \"#utility.yul\":36479:36482   */\n      dup8\n        /* \"#utility.yul\":36475:36494   */\n      add\n        /* \"#utility.yul\":36469:36495   */\n      mload\n        /* \"#utility.yul\":36460:36495   */\n      swap1\n      pop\n        /* \"#utility.yul\":36432:36509   */\n    tag_909:\n        /* \"#utility.yul\":36535:36602   */\n      tag_910\n        /* \"#utility.yul\":36595:36601   */\n      dup6\n        /* \"#utility.yul\":36588:36593   */\n      dup3\n        /* \"#utility.yul\":36535:36602   */\n      tag_555\n      jump\t// in\n    tag_910:\n        /* \"#utility.yul\":36529:36533   */\n      dup7\n        /* \"#utility.yul\":36522:36603   */\n      sstore\n        /* \"#utility.yul\":36391:36613   */\n      pop\n        /* \"#utility.yul\":35726:36613   */\n      jump(tag_907)\n        /* \"#utility.yul\":35756:36374   */\n    tag_908:\n        /* \"#utility.yul\":35808:35812   */\n      0x1f\n        /* \"#utility.yul\":35804:35813   */\n      not\n        /* \"#utility.yul\":35796:35802   */\n      dup5\n        /* \"#utility.yul\":35792:35814   */\n      and\n        /* \"#utility.yul\":35842:35879   */\n      tag_911\n        /* \"#utility.yul\":35874:35878   */\n      dup7\n        /* \"#utility.yul\":35842:35879   */\n      tag_542\n      jump\t// in\n    tag_911:\n        /* \"#utility.yul\":35901:35902   */\n      0x00\n        /* \"#utility.yul\":35915:36123   */\n    tag_912:\n        /* \"#utility.yul\":35929:35936   */\n      dup3\n        /* \"#utility.yul\":35926:35927   */\n      dup2\n        /* \"#utility.yul\":35923:35937   */\n      lt\n        /* \"#utility.yul\":35915:36123   */\n      iszero\n      tag_914\n      jumpi\n        /* \"#utility.yul\":36008:36017   */\n      dup5\n        /* \"#utility.yul\":36003:36006   */\n      dup10\n        /* \"#utility.yul\":35999:36018   */\n      add\n        /* \"#utility.yul\":35993:36019   */\n      mload\n        /* \"#utility.yul\":35985:35991   */\n      dup3\n        /* \"#utility.yul\":35978:36020   */\n      sstore\n        /* \"#utility.yul\":36059:36060   */\n      0x01\n        /* \"#utility.yul\":36051:36057   */\n      dup3\n        /* \"#utility.yul\":36047:36061   */\n      add\n        /* \"#utility.yul\":36037:36061   */\n      swap2\n      pop\n        /* \"#utility.yul\":36106:36108   */\n      0x20\n        /* \"#utility.yul\":36095:36104   */\n      dup6\n        /* \"#utility.yul\":36091:36109   */\n      add\n        /* \"#utility.yul\":36078:36109   */\n      swap5\n      pop\n        /* \"#utility.yul\":35952:35956   */\n      0x20\n        /* \"#utility.yul\":35949:35950   */\n      dup2\n        /* \"#utility.yul\":35945:35957   */\n      add\n        /* \"#utility.yul\":35940:35957   */\n      swap1\n      pop\n        /* \"#utility.yul\":35915:36123   */\n      jump(tag_912)\n    tag_914:\n        /* \"#utility.yul\":36151:36157   */\n      dup7\n        /* \"#utility.yul\":36142:36149   */\n      dup4\n        /* \"#utility.yul\":36139:36158   */\n      lt\n        /* \"#utility.yul\":36136:36315   */\n      iszero\n      tag_915\n      jumpi\n        /* \"#utility.yul\":36209:36218   */\n      dup5\n        /* \"#utility.yul\":36204:36207   */\n      dup10\n        /* \"#utility.yul\":36200:36219   */\n      add\n        /* \"#utility.yul\":36194:36220   */\n      mload\n        /* \"#utility.yul\":36252:36300   */\n      tag_916\n        /* \"#utility.yul\":36294:36298   */\n      0x1f\n        /* \"#utility.yul\":36286:36292   */\n      dup10\n        /* \"#utility.yul\":36282:36299   */\n      and\n        /* \"#utility.yul\":36271:36280   */\n      dup3\n        /* \"#utility.yul\":36252:36300   */\n      tag_554\n      jump\t// in\n    tag_916:\n        /* \"#utility.yul\":36244:36250   */\n      dup4\n        /* \"#utility.yul\":36237:36301   */\n      sstore\n        /* \"#utility.yul\":36159:36315   */\n      pop\n        /* \"#utility.yul\":36136:36315   */\n    tag_915:\n        /* \"#utility.yul\":36361:36362   */\n      0x01\n        /* \"#utility.yul\":36357:36358   */\n      0x02\n        /* \"#utility.yul\":36349:36355   */\n      dup9\n        /* \"#utility.yul\":36345:36359   */\n      mul\n        /* \"#utility.yul\":36341:36363   */\n      add\n        /* \"#utility.yul\":36335:36339   */\n      dup9\n        /* \"#utility.yul\":36328:36364   */\n      sstore\n        /* \"#utility.yul\":35763:36374   */\n      pop\n      pop\n      pop\n        /* \"#utility.yul\":35726:36613   */\n    tag_907:\n      pop\n        /* \"#utility.yul\":35316:36619   */\n      pop\n      pop\n      pop\n        /* \"#utility.yul\":35224:36619   */\n      pop\n      pop\n      jump\t// out\n        /* \"#utility.yul\":36625:36776   */\n    tag_556:\n        /* \"#utility.yul\":36765:36768   */\n      0x4100000000000000000000000000000000000000000000000000000000000000\n        /* \"#utility.yul\":36761:36762   */\n      0x00\n        /* \"#utility.yul\":36753:36759   */\n      dup3\n        /* \"#utility.yul\":36749:36763   */\n      add\n        /* \"#utility.yul\":36742:36769   */\n      mstore\n        /* \"#utility.yul\":36625:36776   */\n      pop\n      jump\t// out\n        /* \"#utility.yul\":36782:37182   */\n    tag_557:\n        /* \"#utility.yul\":36942:36945   */\n      0x00\n        /* \"#utility.yul\":36963:37047   */\n      tag_919\n        /* \"#utility.yul\":37045:37046   */\n      0x01\n        /* \"#utility.yul\":37040:37043   */\n      dup4\n        /* \"#utility.yul\":36963:37047   */\n      tag_522\n      jump\t// in\n    tag_919:\n        /* \"#utility.yul\":36956:37047   */\n      swap2\n      pop\n        /* \"#utility.yul\":37056:37149   */\n      tag_920\n        /* \"#utility.yul\":37145:37148   */\n      dup3\n        /* \"#utility.yul\":37056:37149   */\n      tag_556\n      jump\t// in\n    tag_920:\n        /* \"#utility.yul\":37174:37175   */\n      0x01\n        /* \"#utility.yul\":37169:37172   */\n      dup3\n        /* \"#utility.yul\":37165:37176   */\n      add\n        /* \"#utility.yul\":37158:37176   */\n      swap1\n      pop\n        /* \"#utility.yul\":36782:37182   */\n      swap2\n      swap1\n      pop\n      jump\t// out\n        /* \"#utility.yul\":37188:37569   */\n    tag_306:\n        /* \"#utility.yul\":37373:37376   */\n      0x00\n        /* \"#utility.yul\":37395:37543   */\n      tag_922\n        /* \"#utility.yul\":37539:37542   */\n      dup3\n        /* \"#utility.yul\":37395:37543   */\n      tag_557\n      jump\t// in\n    tag_922:\n        /* \"#utility.yul\":37388:37543   */\n      swap2\n      pop\n        /* \"#utility.yul\":37560:37563   */\n      dup2\n        /* \"#utility.yul\":37553:37563   */\n      swap1\n      pop\n        /* \"#utility.yul\":37188:37569   */\n      swap2\n      swap1\n      pop\n      jump\t// out\n        /* \"#utility.yul\":37575:37726   */\n    tag_558:\n        /* \"#utility.yul\":37715:37718   */\n      0x4200000000000000000000000000000000000000000000000000000000000000\n        /* \"#utility.yul\":37711:37712   */\n      0x00\n        /* \"#utility.yul\":37703:37709   */\n      dup3\n        /* \"#utility.yul\":37699:37713   */\n      add\n        /* \"#utility.yul\":37692:37719   */\n      mstore\n        /* \"#utility.yul\":37575:37726   */\n      pop\n      jump\t// out\n        /* \"#utility.yul\":37732:38132   */\n    tag_559:\n        /* \"#utility.yul\":37892:37895   */\n      0x00\n        /* \"#utility.yul\":37913:37997   */\n      tag_925\n        /* \"#utility.yul\":37995:37996   */\n      0x01\n        /* \"#utility.yul\":37990:37993   */\n      dup4\n        /* \"#utility.yul\":37913:37997   */\n      tag_522\n      jump\t// in\n    tag_925:\n        /* \"#utility.yul\":37906:37997   */\n      swap2\n      pop\n        /* \"#utility.yul\":38006:38099   */\n      tag_926\n        /* \"#utility.yul\":38095:38098   */\n      dup3\n        /* \"#utility.yul\":38006:38099   */\n      tag_558\n      jump\t// in\n    tag_926:\n        /* \"#utility.yul\":38124:38125   */\n      0x01\n        /* \"#utility.yul\":38119:38122   */\n      dup3\n        /* \"#utility.yul\":38115:38126   */\n      add\n        /* \"#utility.yul\":38108:38126   */\n      swap1\n      pop\n        /* \"#utility.yul\":37732:38132   */\n      swap2\n      swap1\n      pop\n      jump\t// out\n        /* \"#utility.yul\":38138:38519   */\n    tag_312:\n        /* \"#utility.yul\":38323:38326   */\n      0x00\n        /* \"#utility.yul\":38345:38493   */\n      tag_928\n        /* \"#utility.yul\":38489:38492   */\n      dup3\n        /* \"#utility.yul\":38345:38493   */\n      tag_559\n      jump\t// in\n    tag_928:\n        /* \"#utility.yul\":38338:38493   */\n      swap2\n      pop\n        /* \"#utility.yul\":38510:38513   */\n      dup2\n        /* \"#utility.yul\":38503:38513   */\n      swap1\n      pop\n        /* \"#utility.yul\":38138:38519   */\n      swap2\n      swap1\n      pop\n      jump\t// out\n        /* \"#utility.yul\":38525:38676   */\n    tag_560:\n        /* \"#utility.yul\":38665:38668   */\n      0x4300000000000000000000000000000000000000000000000000000000000000\n        /* \"#utility.yul\":38661:38662   */\n      0x00\n        /* \"#utility.yul\":38653:38659   */\n      dup3\n        /* \"#utility.yul\":38649:38663   */\n      add\n        /* \"#utility.yul\":38642:38669   */\n      mstore\n        /* \"#utility.yul\":38525:38676   */\n      pop\n      jump\t// out\n        /* \"#utility.yul\":38682:39082   */\n    tag_561:\n        /* \"#utility.yul\":38842:38845   */\n      0x00\n        /* \"#utility.yul\":38863:38947   */\n      tag_931\n        /* \"#utility.yul\":38945:38946   */\n      0x01\n        /* \"#utility.yul\":38940:38943   */\n      dup4\n        /* \"#utility.yul\":38863:38947   */\n      tag_522\n      jump\t// in\n    tag_931:\n        /* \"#utility.yul\":38856:38947   */\n      swap2\n      pop\n        /* \"#utility.yul\":38956:39049   */\n      tag_932\n        /* \"#utility.yul\":39045:39048   */\n      dup3\n        /* \"#utility.yul\":38956:39049   */\n      tag_560\n      jump\t// in\n    tag_932:\n        /* \"#utility.yul\":39074:39075   */\n      0x01\n        /* \"#utility.yul\":39069:39072   */\n      dup3\n        /* \"#utility.yul\":39065:39076   */\n      add\n        /* \"#utility.yul\":39058:39076   */\n      swap1\n      pop\n        /* \"#utility.yul\":38682:39082   */\n      swap2\n      swap1\n      pop\n      jump\t// out\n        /* \"#utility.yul\":39088:39469   */\n    tag_318:\n        /* \"#utility.yul\":39273:39276   */\n      0x00\n        /* \"#utility.yul\":39295:39443   */\n      tag_934\n        /* \"#utility.yul\":39439:39442   */\n      dup3\n        /* \"#utility.yul\":39295:39443   */\n      tag_561\n      jump\t// in\n    tag_934:\n        /* \"#utility.yul\":39288:39443   */\n      swap2\n      pop\n        /* \"#utility.yul\":39460:39463   */\n      dup2\n        /* \"#utility.yul\":39453:39463   */\n      swap1\n      pop\n        /* \"#utility.yul\":39088:39469   */\n      swap2\n      swap1\n      pop\n      jump\t// out\n        /* \"#utility.yul\":39475:39626   */\n    tag_562:\n        /* \"#utility.yul\":39615:39618   */\n      0x4400000000000000000000000000000000000000000000000000000000000000\n        /* \"#utility.yul\":39611:39612   */\n      0x00\n        /* \"#utility.yul\":39603:39609   */\n      dup3\n        /* \"#utility.yul\":39599:39613   */\n      add\n        /* \"#utility.yul\":39592:39619   */\n      mstore\n        /* \"#utility.yul\":39475:39626   */\n      pop\n      jump\t// out\n        /* \"#utility.yul\":39632:40032   */\n    tag_563:\n        /* \"#utility.yul\":39792:39795   */\n      0x00\n        /* \"#utility.yul\":39813:39897   */\n      tag_937\n        /* \"#utility.yul\":39895:39896   */\n      0x01\n        /* \"#utility.yul\":39890:39893   */\n      dup4\n        /* \"#utility.yul\":39813:39897   */\n      tag_522\n      jump\t// in\n    tag_937:\n        /* \"#utility.yul\":39806:39897   */\n      swap2\n      pop\n        /* \"#utility.yul\":39906:39999   */\n      tag_938\n        /* \"#utility.yul\":39995:39998   */\n      dup3\n        /* \"#utility.yul\":39906:39999   */\n      tag_562\n      jump\t// in\n    tag_938:\n        /* \"#utility.yul\":40024:40025   */\n      0x01\n        /* \"#utility.yul\":40019:40022   */\n      dup3\n        /* \"#utility.yul\":40015:40026   */\n      add\n        /* \"#utility.yul\":40008:40026   */\n      swap1\n      pop\n        /* \"#utility.yul\":39632:40032   */\n      swap2\n      swap1\n      pop\n      jump\t// out\n        /* \"#utility.yul\":40038:40419   */\n    tag_324:\n        /* \"#utility.yul\":40223:40226   */\n      0x00\n        /* \"#utility.yul\":40245:40393   */\n      tag_940\n        /* \"#utility.yul\":40389:40392   */\n      dup3\n        /* \"#utility.yul\":40245:40393   */\n      tag_563\n      jump\t// in\n    tag_940:\n        /* \"#utility.yul\":40238:40393   */\n      swap2\n      pop\n        /* \"#utility.yul\":40410:40413   */\n      dup2\n        /* \"#utility.yul\":40403:40413   */\n      swap1\n      pop\n        /* \"#utility.yul\":40038:40419   */\n      swap2\n      swap1\n      pop\n      jump\t// out\n        /* \"#utility.yul\":40425:40597   */\n    tag_564:\n        /* \"#utility.yul\":40565:40589   */\n      0x496e76616c696420636f727265637420616e7377657200000000000000000000\n        /* \"#utility.yul\":40561:40562   */\n      0x00\n        /* \"#utility.yul\":40553:40559   */\n      dup3\n        /* \"#utility.yul\":40549:40563   */\n      add\n        /* \"#utility.yul\":40542:40590   */\n      mstore\n        /* \"#utility.yul\":40425:40597   */\n      pop\n      jump\t// out\n        /* \"#utility.yul\":40603:40969   */\n    tag_565:\n        /* \"#utility.yul\":40745:40748   */\n      0x00\n        /* \"#utility.yul\":40766:40833   */\n      tag_943\n        /* \"#utility.yul\":40830:40832   */\n      0x16\n        /* \"#utility.yul\":40825:40828   */\n      dup4\n        /* \"#utility.yul\":40766:40833   */\n      tag_505\n      jump\t// in\n    tag_943:\n        /* \"#utility.yul\":40759:40833   */\n      swap2\n      pop\n        /* \"#utility.yul\":40842:40935   */\n      tag_944\n        /* \"#utility.yul\":40931:40934   */\n      dup3\n        /* \"#utility.yul\":40842:40935   */\n      tag_564\n      jump\t// in\n    tag_944:\n        /* \"#utility.yul\":40960:40962   */\n      0x20\n        /* \"#utility.yul\":40955:40958   */\n      dup3\n        /* \"#utility.yul\":40951:40963   */\n      add\n        /* \"#utility.yul\":40944:40963   */\n      swap1\n      pop\n        /* \"#utility.yul\":40603:40969   */\n      swap2\n      swap1\n      pop\n      jump\t// out\n        /* \"#utility.yul\":40975:41394   */\n    tag_330:\n        /* \"#utility.yul\":41141:41145   */\n      0x00\n        /* \"#utility.yul\":41179:41181   */\n      0x20\n        /* \"#utility.yul\":41168:41177   */\n      dup3\n        /* \"#utility.yul\":41164:41182   */\n      add\n        /* \"#utility.yul\":41156:41182   */\n      swap1\n      pop\n        /* \"#utility.yul\":41228:41237   */\n      dup2\n        /* \"#utility.yul\":41222:41226   */\n      dup2\n        /* \"#utility.yul\":41218:41238   */\n      sub\n        /* \"#utility.yul\":41214:41215   */\n      0x00\n        /* \"#utility.yul\":41203:41212   */\n      dup4\n        /* \"#utility.yul\":41199:41216   */\n      add\n        /* \"#utility.yul\":41192:41239   */\n      mstore\n        /* \"#utility.yul\":41256:41387   */\n      tag_946\n        /* \"#utility.yul\":41382:41386   */\n      dup2\n        /* \"#utility.yul\":41256:41387   */\n      tag_565\n      jump\t// in\n    tag_946:\n        /* \"#utility.yul\":41248:41387   */\n      swap1\n      pop\n        /* \"#utility.yul\":40975:41394   */\n      swap2\n      swap1\n      pop\n      jump\t// out\n        /* \"#utility.yul\":41400:41581   */\n    tag_566:\n        /* \"#utility.yul\":41540:41573   */\n      0x5769746864726177616c20696e74657276616c206e6f74207265616368656400\n        /* \"#utility.yul\":41536:41537   */\n      0x00\n        /* \"#utility.yul\":41528:41534   */\n      dup3\n        /* \"#utility.yul\":41524:41538   */\n      add\n        /* \"#utility.yul\":41517:41574   */\n      mstore\n        /* \"#utility.yul\":41400:41581   */\n      pop\n      jump\t// out\n        /* \"#utility.yul\":41587:41953   */\n    tag_567:\n        /* \"#utility.yul\":41729:41732   */\n      0x00\n        /* \"#utility.yul\":41750:41817   */\n      tag_949\n        /* \"#utility.yul\":41814:41816   */\n      0x1f\n        /* \"#utility.yul\":41809:41812   */\n      dup4\n        /* \"#utility.yul\":41750:41817   */\n      tag_505\n      jump\t// in\n    tag_949:\n        /* \"#utility.yul\":41743:41817   */\n      swap2\n      pop\n        /* \"#utility.yul\":41826:41919   */\n      tag_950\n        /* \"#utility.yul\":41915:41918   */\n      dup3\n        /* \"#utility.yul\":41826:41919   */\n      tag_566\n      jump\t// in\n    tag_950:\n        /* \"#utility.yul\":41944:41946   */\n      0x20\n        /* \"#utility.yul\":41939:41942   */\n      dup3\n        /* \"#utility.yul\":41935:41947   */\n      add\n        /* \"#utility.yul\":41928:41947   */\n      swap1\n      pop\n        /* \"#utility.yul\":41587:41953   */\n      swap2\n      swap1\n      pop\n      jump\t// out\n        /* \"#utility.yul\":41959:42378   */\n    tag_397:\n        /* \"#utility.yul\":42125:42129   */\n      0x00\n        /* \"#utility.yul\":42163:42165   */\n      0x20\n        /* \"#utility.yul\":42152:42161   */\n      dup3\n        /* \"#utility.yul\":42148:42166   */\n      add\n        /* \"#utility.yul\":42140:42166   */\n      swap1\n      pop\n        /* \"#utility.yul\":42212:42221   */\n      dup2\n        /* \"#utility.yul\":42206:42210   */\n      dup2\n        /* \"#utility.yul\":42202:42222   */\n      sub\n        /* \"#utility.yul\":42198:42199   */\n      0x00\n        /* \"#utility.yul\":42187:42196   */\n      dup4\n        /* \"#utility.yul\":42183:42200   */\n      add\n        /* \"#utility.yul\":42176:42223   */\n      mstore\n        /* \"#utility.yul\":42240:42371   */\n      tag_952\n        /* \"#utility.yul\":42366:42370   */\n      dup2\n        /* \"#utility.yul\":42240:42371   */\n      tag_567\n      jump\t// in\n    tag_952:\n        /* \"#utility.yul\":42232:42371   */\n      swap1\n      pop\n        /* \"#utility.yul\":41959:42378   */\n      swap2\n      swap1\n      pop\n      jump\t// out\n        /* \"#utility.yul\":42384:42561   */\n    tag_568:\n        /* \"#utility.yul\":42524:42553   */\n      0x4661696c656420746f2077697468647261772067617320666565730000000000\n        /* \"#utility.yul\":42520:42521   */\n      0x00\n        /* \"#utility.yul\":42512:42518   */\n      dup3\n        /* \"#utility.yul\":42508:42522   */\n      add\n        /* \"#utility.yul\":42501:42554   */\n      mstore\n        /* \"#utility.yul\":42384:42561   */\n      pop\n      jump\t// out\n        /* \"#utility.yul\":42567:42933   */\n    tag_569:\n        /* \"#utility.yul\":42709:42712   */\n      0x00\n        /* \"#utility.yul\":42730:42797   */\n      tag_955\n        /* \"#utility.yul\":42794:42796   */\n      0x1b\n        /* \"#utility.yul\":42789:42792   */\n      dup4\n        /* \"#utility.yul\":42730:42797   */\n      tag_505\n      jump\t// in\n    tag_955:\n        /* \"#utility.yul\":42723:42797   */\n      swap2\n      pop\n        /* \"#utility.yul\":42806:42899   */\n      tag_956\n        /* \"#utility.yul\":42895:42898   */\n      dup3\n        /* \"#utility.yul\":42806:42899   */\n      tag_568\n      jump\t// in\n    tag_956:\n        /* \"#utility.yul\":42924:42926   */\n      0x20\n        /* \"#utility.yul\":42919:42922   */\n      dup3\n        /* \"#utility.yul\":42915:42927   */\n      add\n        /* \"#utility.yul\":42908:42927   */\n      swap1\n      pop\n        /* \"#utility.yul\":42567:42933   */\n      swap2\n      swap1\n      pop\n      jump\t// out\n        /* \"#utility.yul\":42939:43358   */\n    tag_405:\n        /* \"#utility.yul\":43105:43109   */\n      0x00\n        /* \"#utility.yul\":43143:43145   */\n      0x20\n        /* \"#utility.yul\":43132:43141   */\n      dup3\n        /* \"#utility.yul\":43128:43146   */\n      add\n        /* \"#utility.yul\":43120:43146   */\n      swap1\n      pop\n        /* \"#utility.yul\":43192:43201   */\n      dup2\n        /* \"#utility.yul\":43186:43190   */\n      dup2\n        /* \"#utility.yul\":43182:43202   */\n      sub\n        /* \"#utility.yul\":43178:43179   */\n      0x00\n        /* \"#utility.yul\":43167:43176   */\n      dup4\n        /* \"#utility.yul\":43163:43180   */\n      add\n        /* \"#utility.yul\":43156:43203   */\n      mstore\n        /* \"#utility.yul\":43220:43351   */\n      tag_958\n        /* \"#utility.yul\":43346:43350   */\n      dup2\n        /* \"#utility.yul\":43220:43351   */\n      tag_569\n      jump\t// in\n    tag_958:\n        /* \"#utility.yul\":43212:43351   */\n      swap1\n      pop\n        /* \"#utility.yul\":42939:43358   */\n      swap2\n      swap1\n      pop\n      jump\t// out\n        /* \"#utility.yul\":43364:43587   */\n    tag_570:\n        /* \"#utility.yul\":43504:43538   */\n      0x4f6e6c7920636f757273652063726561746f722063616e20636c61696d207265\n        /* \"#utility.yul\":43500:43501   */\n      0x00\n        /* \"#utility.yul\":43492:43498   */\n      dup3\n        /* \"#utility.yul\":43488:43502   */\n      add\n        /* \"#utility.yul\":43481:43539   */\n      mstore\n        /* \"#utility.yul\":43573:43579   */\n      0x7761726400000000000000000000000000000000000000000000000000000000\n        /* \"#utility.yul\":43568:43570   */\n      0x20\n        /* \"#utility.yul\":43560:43566   */\n      dup3\n        /* \"#utility.yul\":43556:43571   */\n      add\n        /* \"#utility.yul\":43549:43580   */\n      mstore\n        /* \"#utility.yul\":43364:43587   */\n      pop\n      jump\t// out\n        /* \"#utility.yul\":43593:43959   */\n    tag_571:\n        /* \"#utility.yul\":43735:43738   */\n      0x00\n        /* \"#utility.yul\":43756:43823   */\n      tag_961\n        /* \"#utility.yul\":43820:43822   */\n      0x24\n        /* \"#utility.yul\":43815:43818   */\n      dup4\n        /* \"#utility.yul\":43756:43823   */\n      tag_505\n      jump\t// in\n    tag_961:\n        /* \"#utility.yul\":43749:43823   */\n      swap2\n      pop\n        /* \"#utility.yul\":43832:43925   */\n      tag_962\n        /* \"#utility.yul\":43921:43924   */\n      dup3\n        /* \"#utility.yul\":43832:43925   */\n      tag_570\n      jump\t// in\n    tag_962:\n        /* \"#utility.yul\":43950:43952   */\n      0x40\n        /* \"#utility.yul\":43945:43948   */\n      dup3\n        /* \"#utility.yul\":43941:43953   */\n      add\n        /* \"#utility.yul\":43934:43953   */\n      swap1\n      pop\n        /* \"#utility.yul\":43593:43959   */\n      swap2\n      swap1\n      pop\n      jump\t// out\n        /* \"#utility.yul\":43965:44384   */\n    tag_420:\n        /* \"#utility.yul\":44131:44135   */\n      0x00\n        /* \"#utility.yul\":44169:44171   */\n      0x20\n        /* \"#utility.yul\":44158:44167   */\n      dup3\n        /* \"#utility.yul\":44154:44172   */\n      add\n        /* \"#utility.yul\":44146:44172   */\n      swap1\n      pop\n        /* \"#utility.yul\":44218:44227   */\n      dup2\n        /* \"#utility.yul\":44212:44216   */\n      dup2\n        /* \"#utility.yul\":44208:44228   */\n      sub\n        /* \"#utility.yul\":44204:44205   */\n      0x00\n        /* \"#utility.yul\":44193:44202   */\n      dup4\n        /* \"#utility.yul\":44189:44206   */\n      add\n        /* \"#utility.yul\":44182:44229   */\n      mstore\n        /* \"#utility.yul\":44246:44377   */\n      tag_964\n        /* \"#utility.yul\":44372:44376   */\n      dup2\n        /* \"#utility.yul\":44246:44377   */\n      tag_571\n      jump\t// in\n    tag_964:\n        /* \"#utility.yul\":44238:44377   */\n      swap1\n      pop\n        /* \"#utility.yul\":43965:44384   */\n      swap2\n      swap1\n      pop\n      jump\t// out\n        /* \"#utility.yul\":44390:44800   */\n    tag_424:\n        /* \"#utility.yul\":44430:44437   */\n      0x00\n        /* \"#utility.yul\":44453:44473   */\n      tag_966\n        /* \"#utility.yul\":44471:44472   */\n      dup3\n        /* \"#utility.yul\":44453:44473   */\n      tag_476\n      jump\t// in\n    tag_966:\n        /* \"#utility.yul\":44448:44473   */\n      swap2\n      pop\n        /* \"#utility.yul\":44487:44507   */\n      tag_967\n        /* \"#utility.yul\":44505:44506   */\n      dup4\n        /* \"#utility.yul\":44487:44507   */\n      tag_476\n      jump\t// in\n    tag_967:\n        /* \"#utility.yul\":44482:44507   */\n      swap3\n      pop\n        /* \"#utility.yul\":44542:44543   */\n      dup3\n        /* \"#utility.yul\":44539:44540   */\n      dup3\n        /* \"#utility.yul\":44535:44544   */\n      mul\n        /* \"#utility.yul\":44564:44594   */\n      tag_968\n        /* \"#utility.yul\":44582:44593   */\n      dup2\n        /* \"#utility.yul\":44564:44594   */\n      tag_476\n      jump\t// in\n    tag_968:\n        /* \"#utility.yul\":44553:44594   */\n      swap2\n      pop\n        /* \"#utility.yul\":44743:44744   */\n      dup3\n        /* \"#utility.yul\":44734:44741   */\n      dup3\n        /* \"#utility.yul\":44730:44745   */\n      div\n        /* \"#utility.yul\":44727:44728   */\n      dup5\n        /* \"#utility.yul\":44724:44746   */\n      eq\n        /* \"#utility.yul\":44704:44705   */\n      dup4\n        /* \"#utility.yul\":44697:44706   */\n      iszero\n        /* \"#utility.yul\":44677:44760   */\n      or\n        /* \"#utility.yul\":44654:44793   */\n      tag_969\n      jumpi\n        /* \"#utility.yul\":44773:44791   */\n      tag_970\n      tag_512\n      jump\t// in\n    tag_970:\n        /* \"#utility.yul\":44654:44793   */\n    tag_969:\n        /* \"#utility.yul\":44438:44800   */\n      pop\n        /* \"#utility.yul\":44390:44800   */\n      swap3\n      swap2\n      pop\n      pop\n      jump\t// out\n        /* \"#utility.yul\":44806:44972   */\n    tag_572:\n        /* \"#utility.yul\":44946:44964   */\n      0x5061757361626c653a2070617573656400000000000000000000000000000000\n        /* \"#utility.yul\":44942:44943   */\n      0x00\n        /* \"#utility.yul\":44934:44940   */\n      dup3\n        /* \"#utility.yul\":44930:44944   */\n      add\n        /* \"#utility.yul\":44923:44965   */\n      mstore\n        /* \"#utility.yul\":44806:44972   */\n      pop\n      jump\t// out\n        /* \"#utility.yul\":44978:45344   */\n    tag_573:\n        /* \"#utility.yul\":45120:45123   */\n      0x00\n        /* \"#utility.yul\":45141:45208   */\n      tag_973\n        /* \"#utility.yul\":45205:45207   */\n      0x10\n        /* \"#utility.yul\":45200:45203   */\n      dup4\n        /* \"#utility.yul\":45141:45208   */\n      tag_505\n      jump\t// in\n    tag_973:\n        /* \"#utility.yul\":45134:45208   */\n      swap2\n      pop\n        /* \"#utility.yul\":45217:45310   */\n      tag_974\n        /* \"#utility.yul\":45306:45309   */\n      dup3\n        /* \"#utility.yul\":45217:45310   */\n      tag_572\n      jump\t// in\n    tag_974:\n        /* \"#utility.yul\":45335:45337   */\n      0x20\n        /* \"#utility.yul\":45330:45333   */\n      dup3\n        /* \"#utility.yul\":45326:45338   */\n      add\n        /* \"#utility.yul\":45319:45338   */\n      swap1\n      pop\n        /* \"#utility.yul\":44978:45344   */\n      swap2\n      swap1\n      pop\n      jump\t// out\n        /* \"#utility.yul\":45350:45769   */\n    tag_456:\n        /* \"#utility.yul\":45516:45520   */\n      0x00\n        /* \"#utility.yul\":45554:45556   */\n      0x20\n        /* \"#utility.yul\":45543:45552   */\n      dup3\n        /* \"#utility.yul\":45539:45557   */\n      add\n        /* \"#utility.yul\":45531:45557   */\n      swap1\n      pop\n        /* \"#utility.yul\":45603:45612   */\n      dup2\n        /* \"#utility.yul\":45597:45601   */\n      dup2\n        /* \"#utility.yul\":45593:45613   */\n      sub\n        /* \"#utility.yul\":45589:45590   */\n      0x00\n        /* \"#utility.yul\":45578:45587   */\n      dup4\n        /* \"#utility.yul\":45574:45591   */\n      add\n        /* \"#utility.yul\":45567:45614   */\n      mstore\n        /* \"#utility.yul\":45631:45762   */\n      tag_976\n        /* \"#utility.yul\":45757:45761   */\n      dup2\n        /* \"#utility.yul\":45631:45762   */\n      tag_573\n      jump\t// in\n    tag_976:\n        /* \"#utility.yul\":45623:45762   */\n      swap1\n      pop\n        /* \"#utility.yul\":45350:45769   */\n      swap2\n      swap1\n      pop\n      jump\t// out\n        /* \"#utility.yul\":45775:45945   */\n    tag_574:\n        /* \"#utility.yul\":45915:45937   */\n      0x5061757361626c653a206e6f7420706175736564000000000000000000000000\n        /* \"#utility.yul\":45911:45912   */\n      0x00\n        /* \"#utility.yul\":45903:45909   */\n      dup3\n        /* \"#utility.yul\":45899:45913   */\n      add\n        /* \"#utility.yul\":45892:45938   */\n      mstore\n        /* \"#utility.yul\":45775:45945   */\n      pop\n      jump\t// out\n        /* \"#utility.yul\":45951:46317   */\n    tag_575:\n        /* \"#utility.yul\":46093:46096   */\n      0x00\n        /* \"#utility.yul\":46114:46181   */\n      tag_979\n        /* \"#utility.yul\":46178:46180   */\n      0x14\n        /* \"#utility.yul\":46173:46176   */\n      dup4\n        /* \"#utility.yul\":46114:46181   */\n      tag_505\n      jump\t// in\n    tag_979:\n        /* \"#utility.yul\":46107:46181   */\n      swap2\n      pop\n        /* \"#utility.yul\":46190:46283   */\n      tag_980\n        /* \"#utility.yul\":46279:46282   */\n      dup3\n        /* \"#utility.yul\":46190:46283   */\n      tag_574\n      jump\t// in\n    tag_980:\n        /* \"#utility.yul\":46308:46310   */\n      0x20\n        /* \"#utility.yul\":46303:46306   */\n      dup3\n        /* \"#utility.yul\":46299:46311   */\n      add\n        /* \"#utility.yul\":46292:46311   */\n      swap1\n      pop\n        /* \"#utility.yul\":45951:46317   */\n      swap2\n      swap1\n      pop\n      jump\t// out\n        /* \"#utility.yul\":46323:46742   */\n    tag_468:\n        /* \"#utility.yul\":46489:46493   */\n      0x00\n        /* \"#utility.yul\":46527:46529   */\n      0x20\n        /* \"#utility.yul\":46516:46525   */\n      dup3\n        /* \"#utility.yul\":46512:46530   */\n      add\n        /* \"#utility.yul\":46504:46530   */\n      swap1\n      pop\n        /* \"#utility.yul\":46576:46585   */\n      dup2\n        /* \"#utility.yul\":46570:46574   */\n      dup2\n        /* \"#utility.yul\":46566:46586   */\n      sub\n        /* \"#utility.yul\":46562:46563   */\n      0x00\n        /* \"#utility.yul\":46551:46560   */\n      dup4\n        /* \"#utility.yul\":46547:46564   */\n      add\n        /* \"#utility.yul\":46540:46587   */\n      mstore\n        /* \"#utility.yul\":46604:46735   */\n      tag_982\n        /* \"#utility.yul\":46730:46734   */\n      dup2\n        /* \"#utility.yul\":46604:46735   */\n      tag_575\n      jump\t// in\n    tag_982:\n        /* \"#utility.yul\":46596:46735   */\n      swap1\n      pop\n        /* \"#utility.yul\":46323:46742   */\n      swap2\n      swap1\n      pop\n      jump\t// out\n\n    auxdata: 0xa2646970667358221220e6dc82b1304d4f04fe52ba3de0b0c80512f5de13be926f920cd4d6451e6f82e364736f6c634300081a0033\n}\n",
				"bytecode": {
					"linkReferences": {},
					"object": "608060405234801561000f575f80fd5b50604051613f94380380613f9483398181016040528101906100319190610237565b335f73ffffffffffffffffffffffffffffffffffffffff168173ffffffffffffffffffffffffffffffffffffffff16036100a2575f6040517f1e4fbdf70000000000000000000000000000000000000000000000000000000081526004016100999190610271565b60405180910390fd5b6100b18161011860201b60201c565b505f8060146101000a81548160ff0219169083151502179055508060015f6101000a81548173ffffffffffffffffffffffffffffffffffffffff021916908373ffffffffffffffffffffffffffffffffffffffff160217905550426002819055505061028a565b5f805f9054906101000a900473ffffffffffffffffffffffffffffffffffffffff169050815f806101000a81548173ffffffffffffffffffffffffffffffffffffffff021916908373ffffffffffffffffffffffffffffffffffffffff1602179055508173ffffffffffffffffffffffffffffffffffffffff168173ffffffffffffffffffffffffffffffffffffffff167f8be0079c531659141344cd1fd0a4f28419497f9722a3daafe3b4186f6b6457e060405160405180910390a35050565b5f80fd5b5f73ffffffffffffffffffffffffffffffffffffffff82169050919050565b5f610206826101dd565b9050919050565b610216816101fc565b8114610220575f80fd5b50565b5f815190506102318161020d565b92915050565b5f6020828403121561024c5761024b6101d9565b5b5f61025984828501610223565b91505092915050565b61026b816101fc565b82525050565b5f6020820190506102845f830184610262565b92915050565b613cfd806102975f395ff3fe608060405260043610610184575f3560e01c806387bc1425116100d0578063ae24f00511610089578063ba2f036211610063578063ba2f0362146104f1578063cf90b3be1461050d578063f2fde38b14610537578063fbf1aded1461055f5761018b565b8063ae24f0051461046f578063b0aaefd614610499578063b894af02146104db5761018b565b806387bc14251461035e5780638da5cb5b14610388578063905baa61146103b257806396f979d2146103da578063a4d8754a1461041b578063a4e1f033146104455761018b565b80635cb45cb51161013d578063715018a611610117578063715018a6146102ee578063752849981461030457806379370df31461032c5780638456cb59146103485761018b565b80635cb45cb51461028c5780635e52da27146102a857806366055159146102c45761018b565b806307f910f81461018f57806334a014dc146101ce5780633f4ba83a146101f85780634c64c0301461020e578063587f5ed7146102385780635c975abb146102625761018b565b3661018b57005b5f80fd5b34801561019a575f80fd5b506101b560048036038101906101b091906126f9565b610589565b6040516101c5949392919061276c565b60405180910390f35b3480156101d9575f80fd5b506101e26105f0565b6040516101ef91906127be565b60405180910390f35b348015610203575f80fd5b5061020c6105f6565b005b348015610219575f80fd5b50610222610608565b60405161022f91906127be565b60405180910390f35b348015610243575f80fd5b5061024c61060f565b60405161025991906127be565b60405180910390f35b34801561026d575f80fd5b50610276610615565b60405161028391906127d7565b60405180910390f35b6102a660048036038101906102a19190612a0e565b61062a565b005b6102c260048036038101906102bd9190612a68565b610e6d565b005b3480156102cf575f80fd5b506102d86111f2565b6040516102e591906127be565b60405180910390f35b3480156102f9575f80fd5b506103026111f8565b005b34801561030f575f80fd5b5061032a60048036038101906103259190612a68565b61120b565b005b61034660048036038101906103419190612a93565b6112d0565b005b348015610353575f80fd5b5061035c611a1c565b005b348015610369575f80fd5b50610372611a2e565b60405161037f9190612c4f565b60405180910390f35b348015610393575f80fd5b5061039c611a53565b6040516103a99190612c77565b60405180910390f35b3480156103bd575f80fd5b506103d860048036038101906103d39190612c90565b611a7a565b005b3480156103e5575f80fd5b5061040060048036038101906103fb9190612a68565b611ac5565b60405161041296959493929190612d1b565b60405180910390f35b348015610426575f80fd5b5061042f611bae565b60405161043c91906127be565b60405180910390f35b348015610450575f80fd5b50610459611bba565b60405161046691906127be565b60405180910390f35b34801561047a575f80fd5b50610483611bbf565b60405161049091906127be565b60405180910390f35b3480156104a4575f80fd5b506104bf60048036038101906104ba9190612d81565b611bc4565b6040516104d29796959493929190612dd7565b60405180910390f35b3480156104e6575f80fd5b506104ef611eba565b005b61050b60048036038101906105069190612a68565b612013565b005b348015610518575f80fd5b5061052161231a565b60405161052e91906127be565b60405180910390f35b348015610542575f80fd5b5061055d60048036038101906105589190612c90565b612326565b005b34801561056a575f80fd5b506105736123aa565b60405161058091906127be565b60405180910390f35b6005602052815f5260405f20602052805f5260405f205f9150915050805f015f9054906101000a900460ff1690805f0160019054906101000a900460ff1690805f0160029054906101000a900460ff1690805f0160039054906101000a900460ff16905084565b60025481565b6105fe6123b6565b61060661243d565b565b6241eb0081565b60035481565b5f8060149054906101000a900460ff16905090565b670a688906bd8b0000341015610675576040517f08c379a000000000000000000000000000000000000000000000000000000000815260040161066c90612eb1565b60405180910390fd5b670a688906bd8b000060035f82825461068e9190612efc565b925050819055505f670a688906bd8b0000346106aa9190612f2f565b90505f8111156106f9573373ffffffffffffffffffffffffffffffffffffffff166108fc8290811502906040515f60405180830381858888f193505050501580156106f7573d5f803e3d5ffd5b505b5f60055f3373ffffffffffffffffffffffffffffffffffffffff1673ffffffffffffffffffffffffffffffffffffffff1681526020019081526020015f205f8581526020019081526020015f209050805f015f9054906101000a900460ff16610797576040517f08c379a000000000000000000000000000000000000000000000000000000000815260040161078e90612fac565b60405180910390fd5b6002815f0160019054906101000a900460ff1660ff16106107ed576040517f08c379a00000000000000000000000000000000000000000000000000000000081526004016107e490613014565b60405180910390fd5b805f0160029054906101000a900460ff161561083e576040517f08c379a0000000000000000000000000000000000000000000000000000000008152600401610835906130a2565b60405180910390fd5b805f01600181819054906101000a900460ff168092919061085e906130c0565b91906101000a81548160ff021916908360ff160217905550505f60065f8681526020019081526020015f20805480602002602001604051908101604052809291908181526020015f905b82821015610bbb578382905f5260205f2090600702016040518060e00160405290815f82015481526020016001820180546108e290613115565b80601f016020809104026020016040519081016040528092919081815260200182805461090e90613115565b80156109595780601f1061093057610100808354040283529160200191610959565b820191905f5260205f20905b81548152906001019060200180831161093c57829003601f168201915b5050505050815260200160028201805461097290613115565b80601f016020809104026020016040519081016040528092919081815260200182805461099e90613115565b80156109e95780601f106109c0576101008083540402835291602001916109e9565b820191905f5260205f20905b8154815290600101906020018083116109cc57829003601f168201915b50505050508152602001600382018054610a0290613115565b80601f0160208091040260200160405190810160405280929190818152602001828054610a2e90613115565b8015610a795780601f10610a5057610100808354040283529160200191610a79565b820191905f5260205f20905b815481529060010190602001808311610a5c57829003601f168201915b50505050508152602001600482018054610a9290613115565b80601f0160208091040260200160405190810160405280929190818152602001828054610abe90613115565b8015610b095780601f10610ae057610100808354040283529160200191610b09565b820191905f5260205f20905b815481529060010190602001808311610aec57829003601f168201915b50505050508152602001600582018054610b2290613115565b80601f0160208091040260200160405190810160405280929190818152602001828054610b4e90613115565b8015610b995780601f10610b7057610100808354040283529160200191610b99565b820191905f5260205f20905b815481529060010190602001808311610b7c57829003601f168201915b50505050508152602001600682015481525050815260200190600101906108a8565b5050505090508051845114610c05576040517f08c379a0000000000000000000000000000000000000000000000000000000008152600401610bfc9061318f565b60405180910390fd5b5f600190505f5b8251811015610c8f57828181518110610c2857610c276131ad565b5b602002602001015160c00151868281518110610c4757610c466131ad565b5b6020026020010151604051602001610c5f9190613214565b6040516020818303038152906040528051906020012014610c82575f9150610c8f565b8080600101915050610c0c565b508015610e16576001835f0160026101000a81548160ff02191690831515021790555060045f8781526020019081526020015f206003015f815480929190610cd69061322a565b9190505550678ac7230489e8000060045f8881526020019081526020015f206004015f828254610d069190612efc565b925050819055505f3373ffffffffffffffffffffffffffffffffffffffff16678ac7230489e80000604051610d3a9061329e565b5f6040518083038185875af1925050503d805f8114610d74576040519150601f19603f3d011682016040523d82523d5f602084013e610d79565b606091505b5050905080610dbd576040517f08c379a0000000000000000000000000000000000000000000000000000000008152600401610db4906132fc565b60405180910390fd5b3373ffffffffffffffffffffffffffffffffffffffff16877f24b5efa61dd1cfc659205a97fb8ed868f3cb8c81922bab2b96423e5de1de2cb7678ac7230489e80000604051610e0c91906127be565b60405180910390a3505b3373ffffffffffffffffffffffffffffffffffffffff16867faee8895c1bf669485cee2dd54d1eee9e65b02a244afb6f798f95d72405cdf7a583604051610e5d91906127d7565b60405180910390a3505050505050565b610e7561249e565b670a688906bd8b0000341015610ec0576040517f08c379a0000000000000000000000000000000000000000000000000000000008152600401610eb790612eb1565b60405180910390fd5b670a688906bd8b000060035f828254610ed99190612efc565b925050819055505f670a688906bd8b000034610ef59190612f2f565b90505f811115610f44573373ffffffffffffffffffffffffffffffffffffffff166108fc8290811502906040515f60405180830381858888f19350505050158015610f42573d5f803e3d5ffd5b505b600560015f9054906101000a900473ffffffffffffffffffffffffffffffffffffffff1673ffffffffffffffffffffffffffffffffffffffff1663b9f79451336040518263ffffffff1660e01b8152600401610fa09190612c77565b602060405180830381865afa158015610fbb573d5f803e3d5ffd5b505050506040513d601f19601f82011682018060405250810190610fdf919061332e565b1015611020576040517f08c379a0000000000000000000000000000000000000000000000000000000008152600401611017906133c9565b60405180910390fd5b60045f8381526020019081526020015f206002015f9054906101000a900460ff16611080576040517f08c379a000000000000000000000000000000000000000000000000000000000815260040161107790613431565b60405180910390fd5b60055f3373ffffffffffffffffffffffffffffffffffffffff1673ffffffffffffffffffffffffffffffffffffffff1681526020019081526020015f205f8381526020019081526020015f205f015f9054906101000a900460ff161561111b576040517f08c379a000000000000000000000000000000000000000000000000000000000815260040161111290613499565b60405180910390fd5b600160055f3373ffffffffffffffffffffffffffffffffffffffff1673ffffffffffffffffffffffffffffffffffffffff1681526020019081526020015f205f8481526020019081526020015f205f015f6101000a81548160ff02191690831515021790555060045f8381526020019081526020015f206005015f8154809291906111a59061322a565b91905055503373ffffffffffffffffffffffffffffffffffffffff16827ffacf1a2842acbad124cbca0a047fe37bc246c68f814e0350c7bd8a022fd1dddb60405160405180910390a35050565b60075481565b6112006123b6565b6112095f6124e8565b565b6112136123b6565b60045f8281526020019081526020015f206002015f9054906101000a900460ff1615611274576040517f08c379a000000000000000000000000000000000000000000000000000000000815260040161126b90613501565b60405180910390fd5b600160045f8381526020019081526020015f206002015f6101000a81548160ff021916908315150217905550807f87c1c0e5cd17beb8c61a3337b32c66021cb179dd6f97d6d9ce923a029092bd4560405160405180910390a250565b6112d861249e565b670a688906bd8b0000341015611323576040517f08c379a000000000000000000000000000000000000000000000000000000000815260040161131a90612eb1565b60405180910390fd5b670a688906bd8b000060035f82825461133c9190612efc565b925050819055505f670a688906bd8b0000346113589190612f2f565b90505f8111156113a7573373ffffffffffffffffffffffffffffffffffffffff166108fc8290811502906040515f60405180830381858888f193505050501580156113a5573d5f803e3d5ffd5b505b600560015f9054906101000a900473ffffffffffffffffffffffffffffffffffffffff1673ffffffffffffffffffffffffffffffffffffffff1663b9f79451336040518263ffffffff1660e01b81526004016114039190612c77565b602060405180830381865afa15801561141e573d5f803e3d5ffd5b505050506040513d601f19601f82011682018060405250810190611442919061332e565b1015611483576040517f08c379a000000000000000000000000000000000000000000000000000000000815260040161147a9061358f565b60405180910390fd5b60058751148015611495575085518751145b80156114a2575084518751145b80156114af575083518751145b80156114bc575082518751145b80156114c9575081518751145b611508576040517f08c379a00000000000000000000000000000000000000000000000000000000081526004016114ff906135f7565b60405180910390fd5b5f60075f81548092919061151b9061322a565b9190505590506040518060c001604052803373ffffffffffffffffffffffffffffffffffffffff1681526020018a81526020015f151581526020015f81526020015f81526020015f81525060045f8381526020019081526020015f205f820151815f015f6101000a81548173ffffffffffffffffffffffffffffffffffffffff021916908373ffffffffffffffffffffffffffffffffffffffff16021790555060208201518160010190816115d091906137a9565b506040820151816002015f6101000a81548160ff021916908315150217905550606082015181600301556080820151816004015560a082015181600501559050505f5b88518110156119cc5760405160200161162b906138c2565b60405160208183030381529060405280519060200120848281518110611654576116536131ad565b5b602002602001015160405160200161166c9190613214565b6040516020818303038152906040528051906020012014806116f1575060405160200161169890613920565b604051602081830303815290604052805190602001208482815181106116c1576116c06131ad565b5b60200260200101516040516020016116d99190613214565b60405160208183030381529060405280519060200120145b8061175f57506040516020016117069061397e565b6040516020818303038152906040528051906020012084828151811061172f5761172e6131ad565b5b60200260200101516040516020016117479190613214565b60405160208183030381529060405280519060200120145b806117cd5750604051602001611774906139dc565b6040516020818303038152906040528051906020012084828151811061179d5761179c6131ad565b5b60200260200101516040516020016117b59190613214565b60405160208183030381529060405280519060200120145b61180c576040517f08c379a000000000000000000000000000000000000000000000000000000000815260040161180390613a3a565b60405180910390fd5b5f6040518060e001604052808481526020018b8481518110611831576118306131ad565b5b602002602001015181526020018a8481518110611851576118506131ad565b5b60200260200101518152602001898481518110611871576118706131ad565b5b60200260200101518152602001888481518110611891576118906131ad565b5b602002602001015181526020018784815181106118b1576118b06131ad565b5b602002602001015181526020018684815181106118d1576118d06131ad565b5b60200260200101516040516020016118e99190613214565b60405160208183030381529060405280519060200120815250905060065f8481526020019081526020015f2081908060018154018082558091505060019003905f5260205f2090600702015f909190919091505f820151815f0155602082015181600101908161195991906137a9565b50604082015181600201908161196f91906137a9565b50606082015181600301908161198591906137a9565b50608082015181600401908161199b91906137a9565b5060a08201518160050190816119b191906137a9565b5060c082015181600601555050508080600101915050611613565b503373ffffffffffffffffffffffffffffffffffffffff16817fa68f79aa37f9cdc81c2757cfb3e11e9d7d89ca0a5410fbcf1b61125bc17fb1b760405160405180910390a3505050505050505050565b611a246123b6565b611a2c6125a9565b565b60015f9054906101000a900473ffffffffffffffffffffffffffffffffffffffff1681565b5f805f9054906101000a900473ffffffffffffffffffffffffffffffffffffffff16905090565b611a826123b6565b8060015f6101000a81548173ffffffffffffffffffffffffffffffffffffffff021916908373ffffffffffffffffffffffffffffffffffffffff16021790555050565b6004602052805f5260405f205f91509050805f015f9054906101000a900473ffffffffffffffffffffffffffffffffffffffff1690806001018054611b0990613115565b80601f0160208091040260200160405190810160405280929190818152602001828054611b3590613115565b8015611b805780601f10611b5757610100808354040283529160200191611b80565b820191905f5260205f20905b815481529060010190602001808311611b6357829003601f168201915b505050505090806002015f9054906101000a900460ff16908060030154908060040154908060050154905086565b670a688906bd8b000081565b600581565b600581565b6006602052815f5260405f208181548110611bdd575f80fd5b905f5260205f2090600702015f9150915050805f015490806001018054611c0390613115565b80601f0160208091040260200160405190810160405280929190818152602001828054611c2f90613115565b8015611c7a5780601f10611c5157610100808354040283529160200191611c7a565b820191905f5260205f20905b815481529060010190602001808311611c5d57829003601f168201915b505050505090806002018054611c8f90613115565b80601f0160208091040260200160405190810160405280929190818152602001828054611cbb90613115565b8015611d065780601f10611cdd57610100808354040283529160200191611d06565b820191905f5260205f20905b815481529060010190602001808311611ce957829003601f168201915b505050505090806003018054611d1b90613115565b80601f0160208091040260200160405190810160405280929190818152602001828054611d4790613115565b8015611d925780601f10611d6957610100808354040283529160200191611d92565b820191905f5260205f20905b815481529060010190602001808311611d7557829003601f168201915b505050505090806004018054611da790613115565b80601f0160208091040260200160405190810160405280929190818152602001828054611dd390613115565b8015611e1e5780601f10611df557610100808354040283529160200191611e1e565b820191905f5260205f20905b815481529060010190602001808311611e0157829003601f168201915b505050505090806005018054611e3390613115565b80601f0160208091040260200160405190810160405280929190818152602001828054611e5f90613115565b8015611eaa5780601f10611e8157610100808354040283529160200191611eaa565b820191905f5260205f20905b815481529060010190602001808311611e8d57829003601f168201915b5050505050908060060154905087565b611ec26123b6565b6241eb00600254611ed39190612efc565b421015611f15576040517f08c379a0000000000000000000000000000000000000000000000000000000008152600401611f0c90613aa2565b60405180910390fd5b5f60035490505f600381905550426002819055505f611f32611a53565b73ffffffffffffffffffffffffffffffffffffffff1682604051611f559061329e565b5f6040518083038185875af1925050503d805f8114611f8f576040519150601f19603f3d011682016040523d82523d5f602084013e611f94565b606091505b5050905080611fd8576040517f08c379a0000000000000000000000000000000000000000000000000000000008152600401611fcf90613b0a565b60405180910390fd5b7f0d3c6acef4f1bd70f36dad19b43c6b794ac969b546734638671026f801d476fa8260405161200791906127be565b60405180910390a15050565b61201b61249e565b670a688906bd8b0000341015612066576040517f08c379a000000000000000000000000000000000000000000000000000000000815260040161205d90612eb1565b60405180910390fd5b670a688906bd8b000060035f82825461207f9190612efc565b925050819055505f670a688906bd8b00003461209b9190612f2f565b90505f8111156120ea573373ffffffffffffffffffffffffffffffffffffffff166108fc8290811502906040515f60405180830381858888f193505050501580156120e8573d5f803e3d5ffd5b505b5f60045f8481526020019081526020015f209050805f015f9054906101000a900473ffffffffffffffffffffffffffffffffffffffff1673ffffffffffffffffffffffffffffffffffffffff163373ffffffffffffffffffffffffffffffffffffffff161461218e576040517f08c379a000000000000000000000000000000000000000000000000000000000815260040161218590613b98565b60405180910390fd5b806002015f9054906101000a900460ff166121de576040517f08c379a00000000000000000000000000000000000000000000000000000000081526004016121d590613431565b60405180910390fd5b5f670de0b6b3a764000082600301546121f79190613bb6565b90505f826003018190555080826004015f8282546122159190612efc565b925050819055505f3373ffffffffffffffffffffffffffffffffffffffff16826040516122419061329e565b5f6040518083038185875af1925050503d805f811461227b576040519150601f19603f3d011682016040523d82523d5f602084013e612280565b606091505b50509050806122c4576040517f08c379a00000000000000000000000000000000000000000000000000000000081526004016122bb906132fc565b60405180910390fd5b3373ffffffffffffffffffffffffffffffffffffffff16857fb67da43f4cc061f251c05601f44947d1be59a7ef5451a4a5230274da04f882468460405161230b91906127be565b60405180910390a35050505050565b670de0b6b3a764000081565b61232e6123b6565b5f73ffffffffffffffffffffffffffffffffffffffff168173ffffffffffffffffffffffffffffffffffffffff160361239e575f6040517f1e4fbdf70000000000000000000000000000000000000000000000000000000081526004016123959190612c77565b60405180910390fd5b6123a7816124e8565b50565b678ac7230489e8000081565b6123be61260b565b73ffffffffffffffffffffffffffffffffffffffff166123dc611a53565b73ffffffffffffffffffffffffffffffffffffffff161461243b576123ff61260b565b6040517f118cdaa70000000000000000000000000000000000000000000000000000000081526004016124329190612c77565b60405180910390fd5b565b612445612612565b5f8060146101000a81548160ff0219169083151502179055507f5db9ee0a495bf2e6ff9c91a7834c1ba4fdd244a5e8aa4e537bd38aeae4b073aa61248761260b565b6040516124949190612c77565b60405180910390a1565b6124a6610615565b156124e6576040517f08c379a00000000000000000000000000000000000000000000000000000000081526004016124dd90613c41565b60405180910390fd5b565b5f805f9054906101000a900473ffffffffffffffffffffffffffffffffffffffff169050815f806101000a81548173ffffffffffffffffffffffffffffffffffffffff021916908373ffffffffffffffffffffffffffffffffffffffff1602179055508173ffffffffffffffffffffffffffffffffffffffff168173ffffffffffffffffffffffffffffffffffffffff167f8be0079c531659141344cd1fd0a4f28419497f9722a3daafe3b4186f6b6457e060405160405180910390a35050565b6125b161249e565b60015f60146101000a81548160ff0219169083151502179055507f62e78cea01bee320cd4e420270b5ea74000d11b0c9f74754ebdbfc544b05a2586125f461260b565b6040516126019190612c77565b60405180910390a1565b5f33905090565b61261a610615565b612659576040517f08c379a000000000000000000000000000000000000000000000000000000000815260040161265090613ca9565b60405180910390fd5b565b5f604051905090565b5f80fd5b5f80fd5b5f73ffffffffffffffffffffffffffffffffffffffff82169050919050565b5f6126958261266c565b9050919050565b6126a58161268b565b81146126af575f80fd5b50565b5f813590506126c08161269c565b92915050565b5f819050919050565b6126d8816126c6565b81146126e2575f80fd5b50565b5f813590506126f3816126cf565b92915050565b5f806040838503121561270f5761270e612664565b5b5f61271c858286016126b2565b925050602061272d858286016126e5565b9150509250929050565b5f8115159050919050565b61274b81612737565b82525050565b5f60ff82169050919050565b61276681612751565b82525050565b5f60808201905061277f5f830187612742565b61278c602083018661275d565b6127996040830185612742565b6127a66060830184612742565b95945050505050565b6127b8816126c6565b82525050565b5f6020820190506127d15f8301846127af565b92915050565b5f6020820190506127ea5f830184612742565b92915050565b5f80fd5b5f601f19601f8301169050919050565b7f4e487b71000000000000000000000000000000000000000000000000000000005f52604160045260245ffd5b61283a826127f4565b810181811067ffffffffffffffff8211171561285957612858612804565b5b80604052505050565b5f61286b61265b565b90506128778282612831565b919050565b5f67ffffffffffffffff82111561289657612895612804565b5b602082029050602081019050919050565b5f80fd5b5f80fd5b5f67ffffffffffffffff8211156128c9576128c8612804565b5b6128d2826127f4565b9050602081019050919050565b828183375f83830152505050565b5f6128ff6128fa846128af565b612862565b90508281526020810184848401111561291b5761291a6128ab565b5b6129268482856128df565b509392505050565b5f82601f830112612942576129416127f0565b5b81356129528482602086016128ed565b91505092915050565b5f61296d6129688461287c565b612862565b905080838252602082019050602084028301858111156129905761298f6128a7565b5b835b818110156129d757803567ffffffffffffffff8111156129b5576129b46127f0565b5b8086016129c2898261292e565b85526020850194505050602081019050612992565b5050509392505050565b5f82601f8301126129f5576129f46127f0565b5b8135612a0584826020860161295b565b91505092915050565b5f8060408385031215612a2457612a23612664565b5b5f612a31858286016126e5565b925050602083013567ffffffffffffffff811115612a5257612a51612668565b5b612a5e858286016129e1565b9150509250929050565b5f60208284031215612a7d57612a7c612664565b5b5f612a8a848285016126e5565b91505092915050565b5f805f805f805f60e0888a031215612aae57612aad612664565b5b5f88013567ffffffffffffffff811115612acb57612aca612668565b5b612ad78a828b0161292e565b975050602088013567ffffffffffffffff811115612af857612af7612668565b5b612b048a828b016129e1565b965050604088013567ffffffffffffffff811115612b2557612b24612668565b5b612b318a828b016129e1565b955050606088013567ffffffffffffffff811115612b5257612b51612668565b5b612b5e8a828b016129e1565b945050608088013567ffffffffffffffff811115612b7f57612b7e612668565b5b612b8b8a828b016129e1565b93505060a088013567ffffffffffffffff811115612bac57612bab612668565b5b612bb88a828b016129e1565b92505060c088013567ffffffffffffffff811115612bd957612bd8612668565b5b612be58a828b016129e1565b91505092959891949750929550565b5f819050919050565b5f612c17612c12612c0d8461266c565b612bf4565b61266c565b9050919050565b5f612c2882612bfd565b9050919050565b5f612c3982612c1e565b9050919050565b612c4981612c2f565b82525050565b5f602082019050612c625f830184612c40565b92915050565b612c718161268b565b82525050565b5f602082019050612c8a5f830184612c68565b92915050565b5f60208284031215612ca557612ca4612664565b5b5f612cb2848285016126b2565b91505092915050565b5f81519050919050565b5f82825260208201905092915050565b8281835e5f83830152505050565b5f612ced82612cbb565b612cf78185612cc5565b9350612d07818560208601612cd5565b612d10816127f4565b840191505092915050565b5f60c082019050612d2e5f830189612c68565b8181036020830152612d408188612ce3565b9050612d4f6040830187612742565b612d5c60608301866127af565b612d6960808301856127af565b612d7660a08301846127af565b979650505050505050565b5f8060408385031215612d9757612d96612664565b5b5f612da4858286016126e5565b9250506020612db5858286016126e5565b9150509250929050565b5f819050919050565b612dd181612dbf565b82525050565b5f60e082019050612dea5f83018a6127af565b8181036020830152612dfc8189612ce3565b90508181036040830152612e108188612ce3565b90508181036060830152612e248187612ce3565b90508181036080830152612e388186612ce3565b905081810360a0830152612e4c8185612ce3565b9050612e5b60c0830184612dc8565b98975050505050505050565b7f496e73756666696369656e7420676173206665650000000000000000000000005f82015250565b5f612e9b601483612cc5565b9150612ea682612e67565b602082019050919050565b5f6020820190508181035f830152612ec881612e8f565b9050919050565b7f4e487b71000000000000000000000000000000000000000000000000000000005f52601160045260245ffd5b5f612f06826126c6565b9150612f11836126c6565b9250828201905080821115612f2957612f28612ecf565b5b92915050565b5f612f39826126c6565b9150612f44836126c6565b9250828203905081811115612f5c57612f5b612ecf565b5b92915050565b7f55736572206e6f7420656e726f6c6c656420696e207468697320636f757273655f82015250565b5f612f96602083612cc5565b9150612fa182612f62565b602082019050919050565b5f6020820190508181035f830152612fc381612f8a565b9050919050565b7f4d6178696d756d20617474656d707473207265616368656400000000000000005f82015250565b5f612ffe601883612cc5565b915061300982612fca565b602082019050919050565b5f6020820190508181035f83015261302b81612ff2565b9050919050565b7f557365722068617320616c726561647920706173736564207468697320636f755f8201527f7273650000000000000000000000000000000000000000000000000000000000602082015250565b5f61308c602383612cc5565b915061309782613032565b604082019050919050565b5f6020820190508181035f8301526130b981613080565b9050919050565b5f6130ca82612751565b915060ff82036130dd576130dc612ecf565b5b600182019050919050565b7f4e487b71000000000000000000000000000000000000000000000000000000005f52602260045260245ffd5b5f600282049050600182168061312c57607f821691505b60208210810361313f5761313e6130e8565b5b50919050565b7f416e7377657220636f756e74206d69736d6174636800000000000000000000005f82015250565b5f613179601583612cc5565b915061318482613145565b602082019050919050565b5f6020820190508181035f8301526131a68161316d565b9050919050565b7f4e487b71000000000000000000000000000000000000000000000000000000005f52603260045260245ffd5b5f81905092915050565b5f6131ee82612cbb565b6131f881856131da565b9350613208818560208601612cd5565b80840191505092915050565b5f61321f82846131e4565b915081905092915050565b5f613234826126c6565b91507fffffffffffffffffffffffffffffffffffffffffffffffffffffffffffffffff820361326657613265612ecf565b5b600182019050919050565b5f81905092915050565b50565b5f6132895f83613271565b91506132948261327b565b5f82019050919050565b5f6132a88261327e565b9150819050919050565b7f4661696c656420746f2073656e64204d414e44000000000000000000000000005f82015250565b5f6132e6601383612cc5565b91506132f1826132b2565b602082019050919050565b5f6020820190508181035f830152613313816132da565b9050919050565b5f81519050613328816126cf565b92915050565b5f6020828403121561334357613342612664565b5b5f6133508482850161331a565b91505092915050565b7f496e73756666696369656e742072657075746174696f6e20746f20656e726f6c5f8201527f6c00000000000000000000000000000000000000000000000000000000000000602082015250565b5f6133b3602183612cc5565b91506133be82613359565b604082019050919050565b5f6020820190508181035f8301526133e0816133a7565b9050919050565b7f436f75727365206e6f7420617070726f766564000000000000000000000000005f82015250565b5f61341b601383612cc5565b9150613426826133e7565b602082019050919050565b5f6020820190508181035f8301526134488161340f565b9050919050565b7f416c726561647920656e726f6c6c6564000000000000000000000000000000005f82015250565b5f613483601083612cc5565b915061348e8261344f565b602082019050919050565b5f6020820190508181035f8301526134b081613477565b9050919050565b7f436f7572736520616c726561647920617070726f7665640000000000000000005f82015250565b5f6134eb601783612cc5565b91506134f6826134b7565b602082019050919050565b5f6020820190508181035f830152613518816134df565b9050919050565b7f496e73756666696369656e742072657075746174696f6e20746f2063726561745f8201527f6520636f75727365000000000000000000000000000000000000000000000000602082015250565b5f613579602883612cc5565b91506135848261351f565b604082019050919050565b5f6020820190508181035f8301526135a68161356d565b9050919050565b7f496e76616c6964207175697a20646174610000000000000000000000000000005f82015250565b5f6135e1601183612cc5565b91506135ec826135ad565b602082019050919050565b5f6020820190508181035f83015261360e816135d5565b9050919050565b5f819050815f5260205f209050919050565b5f6020601f8301049050919050565b5f82821b905092915050565b5f600883026136717fffffffffffffffffffffffffffffffffffffffffffffffffffffffffffffffff82613636565b61367b8683613636565b95508019841693508086168417925050509392505050565b5f6136ad6136a86136a3846126c6565b612bf4565b6126c6565b9050919050565b5f819050919050565b6136c683613693565b6136da6136d2826136b4565b848454613642565b825550505050565b5f90565b6136ee6136e2565b6136f98184846136bd565b505050565b5b8181101561371c576137115f826136e6565b6001810190506136ff565b5050565b601f8211156137615761373281613615565b61373b84613627565b8101602085101561374a578190505b61375e61375685613627565b8301826136fe565b50505b505050565b5f82821c905092915050565b5f6137815f1984600802613766565b1980831691505092915050565b5f6137998383613772565b9150826002028217905092915050565b6137b282612cbb565b67ffffffffffffffff8111156137cb576137ca612804565b5b6137d58254613115565b6137e0828285613720565b5f60209050601f831160018114613811575f84156137ff578287015190505b613809858261378e565b865550613870565b601f19841661381f86613615565b5f5b8281101561384657848901518255600182019150602085019450602081019050613821565b86831015613863578489015161385f601f891682613772565b8355505b6001600288020188555050505b505050505050565b7f41000000000000000000000000000000000000000000000000000000000000005f82015250565b5f6138ac6001836131da565b91506138b782613878565b600182019050919050565b5f6138cc826138a0565b9150819050919050565b7f42000000000000000000000000000000000000000000000000000000000000005f82015250565b5f61390a6001836131da565b9150613915826138d6565b600182019050919050565b5f61392a826138fe565b9150819050919050565b7f43000000000000000000000000000000000000000000000000000000000000005f82015250565b5f6139686001836131da565b915061397382613934565b600182019050919050565b5f6139888261395c565b9150819050919050565b7f44000000000000000000000000000000000000000000000000000000000000005f82015250565b5f6139c66001836131da565b91506139d182613992565b600182019050919050565b5f6139e6826139ba565b9150819050919050565b7f496e76616c696420636f727265637420616e73776572000000000000000000005f82015250565b5f613a24601683612cc5565b9150613a2f826139f0565b602082019050919050565b5f6020820190508181035f830152613a5181613a18565b9050919050565b7f5769746864726177616c20696e74657276616c206e6f742072656163686564005f82015250565b5f613a8c601f83612cc5565b9150613a9782613a58565b602082019050919050565b5f6020820190508181035f830152613ab981613a80565b9050919050565b7f4661696c656420746f20776974686472617720676173206665657300000000005f82015250565b5f613af4601b83612cc5565b9150613aff82613ac0565b602082019050919050565b5f6020820190508181035f830152613b2181613ae8565b9050919050565b7f4f6e6c7920636f757273652063726561746f722063616e20636c61696d2072655f8201527f7761726400000000000000000000000000000000000000000000000000000000602082015250565b5f613b82602483612cc5565b9150613b8d82613b28565b604082019050919050565b5f6020820190508181035f830152613baf81613b76565b9050919050565b5f613bc0826126c6565b9150613bcb836126c6565b9250828202613bd9816126c6565b91508282048414831517613bf057613bef612ecf565b5b5092915050565b7f5061757361626c653a20706175736564000000000000000000000000000000005f82015250565b5f613c2b601083612cc5565b9150613c3682613bf7565b602082019050919050565b5f6020820190508181035f830152613c5881613c1f565b9050919050565b7f5061757361626c653a206e6f74207061757365640000000000000000000000005f82015250565b5f613c93601483612cc5565b9150613c9e82613c5f565b602082019050919050565b5f6020820190508181035f830152613cc081613c87565b905091905056fea2646970667358221220e6dc82b1304d4f04fe52ba3de0b0c80512f5de13be926f920cd4d6451e6f82e364736f6c634300081a0033",
					"opcodes": "PUSH1 0x80 PUSH1 0x40 MSTORE CALLVALUE DUP1 ISZERO PUSH2 0xF JUMPI PUSH0 DUP1 REVERT JUMPDEST POP PUSH1 0x40 MLOAD PUSH2 0x3F94 CODESIZE SUB DUP1 PUSH2 0x3F94 DUP4 CODECOPY DUP2 DUP2 ADD PUSH1 0x40 MSTORE DUP2 ADD SWAP1 PUSH2 0x31 SWAP2 SWAP1 PUSH2 0x237 JUMP JUMPDEST CALLER PUSH0 PUSH20 0xFFFFFFFFFFFFFFFFFFFFFFFFFFFFFFFFFFFFFFFF AND DUP2 PUSH20 0xFFFFFFFFFFFFFFFFFFFFFFFFFFFFFFFFFFFFFFFF AND SUB PUSH2 0xA2 JUMPI PUSH0 PUSH1 0x40 MLOAD PUSH32 0x1E4FBDF700000000000000000000000000000000000000000000000000000000 DUP2 MSTORE PUSH1 0x4 ADD PUSH2 0x99 SWAP2 SWAP1 PUSH2 0x271 JUMP JUMPDEST PUSH1 0x40 MLOAD DUP1 SWAP2 SUB SWAP1 REVERT JUMPDEST PUSH2 0xB1 DUP2 PUSH2 0x118 PUSH1 0x20 SHL PUSH1 0x20 SHR JUMP JUMPDEST POP PUSH0 DUP1 PUSH1 0x14 PUSH2 0x100 EXP DUP2 SLOAD DUP2 PUSH1 0xFF MUL NOT AND SWAP1 DUP4 ISZERO ISZERO MUL OR SWAP1 SSTORE POP DUP1 PUSH1 0x1 PUSH0 PUSH2 0x100 EXP DUP2 SLOAD DUP2 PUSH20 0xFFFFFFFFFFFFFFFFFFFFFFFFFFFFFFFFFFFFFFFF MUL NOT AND SWAP1 DUP4 PUSH20 0xFFFFFFFFFFFFFFFFFFFFFFFFFFFFFFFFFFFFFFFF AND MUL OR SWAP1 SSTORE POP TIMESTAMP PUSH1 0x2 DUP2 SWAP1 SSTORE POP POP PUSH2 0x28A JUMP JUMPDEST PUSH0 DUP1 PUSH0 SWAP1 SLOAD SWAP1 PUSH2 0x100 EXP SWAP1 DIV PUSH20 0xFFFFFFFFFFFFFFFFFFFFFFFFFFFFFFFFFFFFFFFF AND SWAP1 POP DUP2 PUSH0 DUP1 PUSH2 0x100 EXP DUP2 SLOAD DUP2 PUSH20 0xFFFFFFFFFFFFFFFFFFFFFFFFFFFFFFFFFFFFFFFF MUL NOT AND SWAP1 DUP4 PUSH20 0xFFFFFFFFFFFFFFFFFFFFFFFFFFFFFFFFFFFFFFFF AND MUL OR SWAP1 SSTORE POP DUP2 PUSH20 0xFFFFFFFFFFFFFFFFFFFFFFFFFFFFFFFFFFFFFFFF AND DUP2 PUSH20 0xFFFFFFFFFFFFFFFFFFFFFFFFFFFFFFFFFFFFFFFF AND PUSH32 0x8BE0079C531659141344CD1FD0A4F28419497F9722A3DAAFE3B4186F6B6457E0 PUSH1 0x40 MLOAD PUSH1 0x40 MLOAD DUP1 SWAP2 SUB SWAP1 LOG3 POP POP JUMP JUMPDEST PUSH0 DUP1 REVERT JUMPDEST PUSH0 PUSH20 0xFFFFFFFFFFFFFFFFFFFFFFFFFFFFFFFFFFFFFFFF DUP3 AND SWAP1 POP SWAP2 SWAP1 POP JUMP JUMPDEST PUSH0 PUSH2 0x206 DUP3 PUSH2 0x1DD JUMP JUMPDEST SWAP1 POP SWAP2 SWAP1 POP JUMP JUMPDEST PUSH2 0x216 DUP2 PUSH2 0x1FC JUMP JUMPDEST DUP2 EQ PUSH2 0x220 JUMPI PUSH0 DUP1 REVERT JUMPDEST POP JUMP JUMPDEST PUSH0 DUP2 MLOAD SWAP1 POP PUSH2 0x231 DUP2 PUSH2 0x20D JUMP JUMPDEST SWAP3 SWAP2 POP POP JUMP JUMPDEST PUSH0 PUSH1 0x20 DUP3 DUP5 SUB SLT ISZERO PUSH2 0x24C JUMPI PUSH2 0x24B PUSH2 0x1D9 JUMP JUMPDEST JUMPDEST PUSH0 PUSH2 0x259 DUP5 DUP3 DUP6 ADD PUSH2 0x223 JUMP JUMPDEST SWAP2 POP POP SWAP3 SWAP2 POP POP JUMP JUMPDEST PUSH2 0x26B DUP2 PUSH2 0x1FC JUMP JUMPDEST DUP3 MSTORE POP POP JUMP JUMPDEST PUSH0 PUSH1 0x20 DUP3 ADD SWAP1 POP PUSH2 0x284 PUSH0 DUP4 ADD DUP5 PUSH2 0x262 JUMP JUMPDEST SWAP3 SWAP2 POP POP JUMP JUMPDEST PUSH2 0x3CFD DUP1 PUSH2 0x297 PUSH0 CODECOPY PUSH0 RETURN INVALID PUSH1 0x80 PUSH1 0x40 MSTORE PUSH1 0x4 CALLDATASIZE LT PUSH2 0x184 JUMPI PUSH0 CALLDATALOAD PUSH1 0xE0 SHR DUP1 PUSH4 0x87BC1425 GT PUSH2 0xD0 JUMPI DUP1 PUSH4 0xAE24F005 GT PUSH2 0x89 JUMPI DUP1 PUSH4 0xBA2F0362 GT PUSH2 0x63 JUMPI DUP1 PUSH4 0xBA2F0362 EQ PUSH2 0x4F1 JUMPI DUP1 PUSH4 0xCF90B3BE EQ PUSH2 0x50D JUMPI DUP1 PUSH4 0xF2FDE38B EQ PUSH2 0x537 JUMPI DUP1 PUSH4 0xFBF1ADED EQ PUSH2 0x55F JUMPI PUSH2 0x18B JUMP JUMPDEST DUP1 PUSH4 0xAE24F005 EQ PUSH2 0x46F JUMPI DUP1 PUSH4 0xB0AAEFD6 EQ PUSH2 0x499 JUMPI DUP1 PUSH4 0xB894AF02 EQ PUSH2 0x4DB JUMPI PUSH2 0x18B JUMP JUMPDEST DUP1 PUSH4 0x87BC1425 EQ PUSH2 0x35E JUMPI DUP1 PUSH4 0x8DA5CB5B EQ PUSH2 0x388 JUMPI DUP1 PUSH4 0x905BAA61 EQ PUSH2 0x3B2 JUMPI DUP1 PUSH4 0x96F979D2 EQ PUSH2 0x3DA JUMPI DUP1 PUSH4 0xA4D8754A EQ PUSH2 0x41B JUMPI DUP1 PUSH4 0xA4E1F033 EQ PUSH2 0x445 JUMPI PUSH2 0x18B JUMP JUMPDEST DUP1 PUSH4 0x5CB45CB5 GT PUSH2 0x13D JUMPI DUP1 PUSH4 0x715018A6 GT PUSH2 0x117 JUMPI DUP1 PUSH4 0x715018A6 EQ PUSH2 0x2EE JUMPI DUP1 PUSH4 0x75284998 EQ PUSH2 0x304 JUMPI DUP1 PUSH4 0x79370DF3 EQ PUSH2 0x32C JUMPI DUP1 PUSH4 0x8456CB59 EQ PUSH2 0x348 JUMPI PUSH2 0x18B JUMP JUMPDEST DUP1 PUSH4 0x5CB45CB5 EQ PUSH2 0x28C JUMPI DUP1 PUSH4 0x5E52DA27 EQ PUSH2 0x2A8 JUMPI DUP1 PUSH4 0x66055159 EQ PUSH2 0x2C4 JUMPI PUSH2 0x18B JUMP JUMPDEST DUP1 PUSH4 0x7F910F8 EQ PUSH2 0x18F JUMPI DUP1 PUSH4 0x34A014DC EQ PUSH2 0x1CE JUMPI DUP1 PUSH4 0x3F4BA83A EQ PUSH2 0x1F8 JUMPI DUP1 PUSH4 0x4C64C030 EQ PUSH2 0x20E JUMPI DUP1 PUSH4 0x587F5ED7 EQ PUSH2 0x238 JUMPI DUP1 PUSH4 0x5C975ABB EQ PUSH2 0x262 JUMPI PUSH2 0x18B JUMP JUMPDEST CALLDATASIZE PUSH2 0x18B JUMPI STOP JUMPDEST PUSH0 DUP1 REVERT JUMPDEST CALLVALUE DUP1 ISZERO PUSH2 0x19A JUMPI PUSH0 DUP1 REVERT JUMPDEST POP PUSH2 0x1B5 PUSH1 0x4 DUP1 CALLDATASIZE SUB DUP2 ADD SWAP1 PUSH2 0x1B0 SWAP2 SWAP1 PUSH2 0x26F9 JUMP JUMPDEST PUSH2 0x589 JUMP JUMPDEST PUSH1 0x40 MLOAD PUSH2 0x1C5 SWAP5 SWAP4 SWAP3 SWAP2 SWAP1 PUSH2 0x276C JUMP JUMPDEST PUSH1 0x40 MLOAD DUP1 SWAP2 SUB SWAP1 RETURN JUMPDEST CALLVALUE DUP1 ISZERO PUSH2 0x1D9 JUMPI PUSH0 DUP1 REVERT JUMPDEST POP PUSH2 0x1E2 PUSH2 0x5F0 JUMP JUMPDEST PUSH1 0x40 MLOAD PUSH2 0x1EF SWAP2 SWAP1 PUSH2 0x27BE JUMP JUMPDEST PUSH1 0x40 MLOAD DUP1 SWAP2 SUB SWAP1 RETURN JUMPDEST CALLVALUE DUP1 ISZERO PUSH2 0x203 JUMPI PUSH0 DUP1 REVERT JUMPDEST POP PUSH2 0x20C PUSH2 0x5F6 JUMP JUMPDEST STOP JUMPDEST CALLVALUE DUP1 ISZERO PUSH2 0x219 JUMPI PUSH0 DUP1 REVERT JUMPDEST POP PUSH2 0x222 PUSH2 0x608 JUMP JUMPDEST PUSH1 0x40 MLOAD PUSH2 0x22F SWAP2 SWAP1 PUSH2 0x27BE JUMP JUMPDEST PUSH1 0x40 MLOAD DUP1 SWAP2 SUB SWAP1 RETURN JUMPDEST CALLVALUE DUP1 ISZERO PUSH2 0x243 JUMPI PUSH0 DUP1 REVERT JUMPDEST POP PUSH2 0x24C PUSH2 0x60F JUMP JUMPDEST PUSH1 0x40 MLOAD PUSH2 0x259 SWAP2 SWAP1 PUSH2 0x27BE JUMP JUMPDEST PUSH1 0x40 MLOAD DUP1 SWAP2 SUB SWAP1 RETURN JUMPDEST CALLVALUE DUP1 ISZERO PUSH2 0x26D JUMPI PUSH0 DUP1 REVERT JUMPDEST POP PUSH2 0x276 PUSH2 0x615 JUMP JUMPDEST PUSH1 0x40 MLOAD PUSH2 0x283 SWAP2 SWAP1 PUSH2 0x27D7 JUMP JUMPDEST PUSH1 0x40 MLOAD DUP1 SWAP2 SUB SWAP1 RETURN JUMPDEST PUSH2 0x2A6 PUSH1 0x4 DUP1 CALLDATASIZE SUB DUP2 ADD SWAP1 PUSH2 0x2A1 SWAP2 SWAP1 PUSH2 0x2A0E JUMP JUMPDEST PUSH2 0x62A JUMP JUMPDEST STOP JUMPDEST PUSH2 0x2C2 PUSH1 0x4 DUP1 CALLDATASIZE SUB DUP2 ADD SWAP1 PUSH2 0x2BD SWAP2 SWAP1 PUSH2 0x2A68 JUMP JUMPDEST PUSH2 0xE6D JUMP JUMPDEST STOP JUMPDEST CALLVALUE DUP1 ISZERO PUSH2 0x2CF JUMPI PUSH0 DUP1 REVERT JUMPDEST POP PUSH2 0x2D8 PUSH2 0x11F2 JUMP JUMPDEST PUSH1 0x40 MLOAD PUSH2 0x2E5 SWAP2 SWAP1 PUSH2 0x27BE JUMP JUMPDEST PUSH1 0x40 MLOAD DUP1 SWAP2 SUB SWAP1 RETURN JUMPDEST CALLVALUE DUP1 ISZERO PUSH2 0x2F9 JUMPI PUSH0 DUP1 REVERT JUMPDEST POP PUSH2 0x302 PUSH2 0x11F8 JUMP JUMPDEST STOP JUMPDEST CALLVALUE DUP1 ISZERO PUSH2 0x30F JUMPI PUSH0 DUP1 REVERT JUMPDEST POP PUSH2 0x32A PUSH1 0x4 DUP1 CALLDATASIZE SUB DUP2 ADD SWAP1 PUSH2 0x325 SWAP2 SWAP1 PUSH2 0x2A68 JUMP JUMPDEST PUSH2 0x120B JUMP JUMPDEST STOP JUMPDEST PUSH2 0x346 PUSH1 0x4 DUP1 CALLDATASIZE SUB DUP2 ADD SWAP1 PUSH2 0x341 SWAP2 SWAP1 PUSH2 0x2A93 JUMP JUMPDEST PUSH2 0x12D0 JUMP JUMPDEST STOP JUMPDEST CALLVALUE DUP1 ISZERO PUSH2 0x353 JUMPI PUSH0 DUP1 REVERT JUMPDEST POP PUSH2 0x35C PUSH2 0x1A1C JUMP JUMPDEST STOP JUMPDEST CALLVALUE DUP1 ISZERO PUSH2 0x369 JUMPI PUSH0 DUP1 REVERT JUMPDEST POP PUSH2 0x372 PUSH2 0x1A2E JUMP JUMPDEST PUSH1 0x40 MLOAD PUSH2 0x37F SWAP2 SWAP1 PUSH2 0x2C4F JUMP JUMPDEST PUSH1 0x40 MLOAD DUP1 SWAP2 SUB SWAP1 RETURN JUMPDEST CALLVALUE DUP1 ISZERO PUSH2 0x393 JUMPI PUSH0 DUP1 REVERT JUMPDEST POP PUSH2 0x39C PUSH2 0x1A53 JUMP JUMPDEST PUSH1 0x40 MLOAD PUSH2 0x3A9 SWAP2 SWAP1 PUSH2 0x2C77 JUMP JUMPDEST PUSH1 0x40 MLOAD DUP1 SWAP2 SUB SWAP1 RETURN JUMPDEST CALLVALUE DUP1 ISZERO PUSH2 0x3BD JUMPI PUSH0 DUP1 REVERT JUMPDEST POP PUSH2 0x3D8 PUSH1 0x4 DUP1 CALLDATASIZE SUB DUP2 ADD SWAP1 PUSH2 0x3D3 SWAP2 SWAP1 PUSH2 0x2C90 JUMP JUMPDEST PUSH2 0x1A7A JUMP JUMPDEST STOP JUMPDEST CALLVALUE DUP1 ISZERO PUSH2 0x3E5 JUMPI PUSH0 DUP1 REVERT JUMPDEST POP PUSH2 0x400 PUSH1 0x4 DUP1 CALLDATASIZE SUB DUP2 ADD SWAP1 PUSH2 0x3FB SWAP2 SWAP1 PUSH2 0x2A68 JUMP JUMPDEST PUSH2 0x1AC5 JUMP JUMPDEST PUSH1 0x40 MLOAD PUSH2 0x412 SWAP7 SWAP6 SWAP5 SWAP4 SWAP3 SWAP2 SWAP1 PUSH2 0x2D1B JUMP JUMPDEST PUSH1 0x40 MLOAD DUP1 SWAP2 SUB SWAP1 RETURN JUMPDEST CALLVALUE DUP1 ISZERO PUSH2 0x426 JUMPI PUSH0 DUP1 REVERT JUMPDEST POP PUSH2 0x42F PUSH2 0x1BAE JUMP JUMPDEST PUSH1 0x40 MLOAD PUSH2 0x43C SWAP2 SWAP1 PUSH2 0x27BE JUMP JUMPDEST PUSH1 0x40 MLOAD DUP1 SWAP2 SUB SWAP1 RETURN JUMPDEST CALLVALUE DUP1 ISZERO PUSH2 0x450 JUMPI PUSH0 DUP1 REVERT JUMPDEST POP PUSH2 0x459 PUSH2 0x1BBA JUMP JUMPDEST PUSH1 0x40 MLOAD PUSH2 0x466 SWAP2 SWAP1 PUSH2 0x27BE JUMP JUMPDEST PUSH1 0x40 MLOAD DUP1 SWAP2 SUB SWAP1 RETURN JUMPDEST CALLVALUE DUP1 ISZERO PUSH2 0x47A JUMPI PUSH0 DUP1 REVERT JUMPDEST POP PUSH2 0x483 PUSH2 0x1BBF JUMP JUMPDEST PUSH1 0x40 MLOAD PUSH2 0x490 SWAP2 SWAP1 PUSH2 0x27BE JUMP JUMPDEST PUSH1 0x40 MLOAD DUP1 SWAP2 SUB SWAP1 RETURN JUMPDEST CALLVALUE DUP1 ISZERO PUSH2 0x4A4 JUMPI PUSH0 DUP1 REVERT JUMPDEST POP PUSH2 0x4BF PUSH1 0x4 DUP1 CALLDATASIZE SUB DUP2 ADD SWAP1 PUSH2 0x4BA SWAP2 SWAP1 PUSH2 0x2D81 JUMP JUMPDEST PUSH2 0x1BC4 JUMP JUMPDEST PUSH1 0x40 MLOAD PUSH2 0x4D2 SWAP8 SWAP7 SWAP6 SWAP5 SWAP4 SWAP3 SWAP2 SWAP1 PUSH2 0x2DD7 JUMP JUMPDEST PUSH1 0x40 MLOAD DUP1 SWAP2 SUB SWAP1 RETURN JUMPDEST CALLVALUE DUP1 ISZERO PUSH2 0x4E6 JUMPI PUSH0 DUP1 REVERT JUMPDEST POP PUSH2 0x4EF PUSH2 0x1EBA JUMP JUMPDEST STOP JUMPDEST PUSH2 0x50B PUSH1 0x4 DUP1 CALLDATASIZE SUB DUP2 ADD SWAP1 PUSH2 0x506 SWAP2 SWAP1 PUSH2 0x2A68 JUMP JUMPDEST PUSH2 0x2013 JUMP JUMPDEST STOP JUMPDEST CALLVALUE DUP1 ISZERO PUSH2 0x518 JUMPI PUSH0 DUP1 REVERT JUMPDEST POP PUSH2 0x521 PUSH2 0x231A JUMP JUMPDEST PUSH1 0x40 MLOAD PUSH2 0x52E SWAP2 SWAP1 PUSH2 0x27BE JUMP JUMPDEST PUSH1 0x40 MLOAD DUP1 SWAP2 SUB SWAP1 RETURN JUMPDEST CALLVALUE DUP1 ISZERO PUSH2 0x542 JUMPI PUSH0 DUP1 REVERT JUMPDEST POP PUSH2 0x55D PUSH1 0x4 DUP1 CALLDATASIZE SUB DUP2 ADD SWAP1 PUSH2 0x558 SWAP2 SWAP1 PUSH2 0x2C90 JUMP JUMPDEST PUSH2 0x2326 JUMP JUMPDEST STOP JUMPDEST CALLVALUE DUP1 ISZERO PUSH2 0x56A JUMPI PUSH0 DUP1 REVERT JUMPDEST POP PUSH2 0x573 PUSH2 0x23AA JUMP JUMPDEST PUSH1 0x40 MLOAD PUSH2 0x580 SWAP2 SWAP1 PUSH2 0x27BE JUMP JUMPDEST PUSH1 0x40 MLOAD DUP1 SWAP2 SUB SWAP1 RETURN JUMPDEST PUSH1 0x5 PUSH1 0x20 MSTORE DUP2 PUSH0 MSTORE PUSH1 0x40 PUSH0 KECCAK256 PUSH1 0x20 MSTORE DUP1 PUSH0 MSTORE PUSH1 0x40 PUSH0 KECCAK256 PUSH0 SWAP2 POP SWAP2 POP POP DUP1 PUSH0 ADD PUSH0 SWAP1 SLOAD SWAP1 PUSH2 0x100 EXP SWAP1 DIV PUSH1 0xFF AND SWAP1 DUP1 PUSH0 ADD PUSH1 0x1 SWAP1 SLOAD SWAP1 PUSH2 0x100 EXP SWAP1 DIV PUSH1 0xFF AND SWAP1 DUP1 PUSH0 ADD PUSH1 0x2 SWAP1 SLOAD SWAP1 PUSH2 0x100 EXP SWAP1 DIV PUSH1 0xFF AND SWAP1 DUP1 PUSH0 ADD PUSH1 0x3 SWAP1 SLOAD SWAP1 PUSH2 0x100 EXP SWAP1 DIV PUSH1 0xFF AND SWAP1 POP DUP5 JUMP JUMPDEST PUSH1 0x2 SLOAD DUP2 JUMP JUMPDEST PUSH2 0x5FE PUSH2 0x23B6 JUMP JUMPDEST PUSH2 0x606 PUSH2 0x243D JUMP JUMPDEST JUMP JUMPDEST PUSH3 0x41EB00 DUP2 JUMP JUMPDEST PUSH1 0x3 SLOAD DUP2 JUMP JUMPDEST PUSH0 DUP1 PUSH1 0x14 SWAP1 SLOAD SWAP1 PUSH2 0x100 EXP SWAP1 DIV PUSH1 0xFF AND SWAP1 POP SWAP1 JUMP JUMPDEST PUSH8 0xA688906BD8B0000 CALLVALUE LT ISZERO PUSH2 0x675 JUMPI PUSH1 0x40 MLOAD PUSH32 0x8C379A000000000000000000000000000000000000000000000000000000000 DUP2 MSTORE PUSH1 0x4 ADD PUSH2 0x66C SWAP1 PUSH2 0x2EB1 JUMP JUMPDEST PUSH1 0x40 MLOAD DUP1 SWAP2 SUB SWAP1 REVERT JUMPDEST PUSH8 0xA688906BD8B0000 PUSH1 0x3 PUSH0 DUP3 DUP3 SLOAD PUSH2 0x68E SWAP2 SWAP1 PUSH2 0x2EFC JUMP JUMPDEST SWAP3 POP POP DUP2 SWAP1 SSTORE POP PUSH0 PUSH8 0xA688906BD8B0000 CALLVALUE PUSH2 0x6AA SWAP2 SWAP1 PUSH2 0x2F2F JUMP JUMPDEST SWAP1 POP PUSH0 DUP2 GT ISZERO PUSH2 0x6F9 JUMPI CALLER PUSH20 0xFFFFFFFFFFFFFFFFFFFFFFFFFFFFFFFFFFFFFFFF AND PUSH2 0x8FC DUP3 SWAP1 DUP2 ISZERO MUL SWAP1 PUSH1 0x40 MLOAD PUSH0 PUSH1 0x40 MLOAD DUP1 DUP4 SUB DUP2 DUP6 DUP9 DUP9 CALL SWAP4 POP POP POP POP ISZERO DUP1 ISZERO PUSH2 0x6F7 JUMPI RETURNDATASIZE PUSH0 DUP1 RETURNDATACOPY RETURNDATASIZE PUSH0 REVERT JUMPDEST POP JUMPDEST PUSH0 PUSH1 0x5 PUSH0 CALLER PUSH20 0xFFFFFFFFFFFFFFFFFFFFFFFFFFFFFFFFFFFFFFFF AND PUSH20 0xFFFFFFFFFFFFFFFFFFFFFFFFFFFFFFFFFFFFFFFF AND DUP2 MSTORE PUSH1 0x20 ADD SWAP1 DUP2 MSTORE PUSH1 0x20 ADD PUSH0 KECCAK256 PUSH0 DUP6 DUP2 MSTORE PUSH1 0x20 ADD SWAP1 DUP2 MSTORE PUSH1 0x20 ADD PUSH0 KECCAK256 SWAP1 POP DUP1 PUSH0 ADD PUSH0 SWAP1 SLOAD SWAP1 PUSH2 0x100 EXP SWAP1 DIV PUSH1 0xFF AND PUSH2 0x797 JUMPI PUSH1 0x40 MLOAD PUSH32 0x8C379A000000000000000000000000000000000000000000000000000000000 DUP2 MSTORE PUSH1 0x4 ADD PUSH2 0x78E SWAP1 PUSH2 0x2FAC JUMP JUMPDEST PUSH1 0x40 MLOAD DUP1 SWAP2 SUB SWAP1 REVERT JUMPDEST PUSH1 0x2 DUP2 PUSH0 ADD PUSH1 0x1 SWAP1 SLOAD SWAP1 PUSH2 0x100 EXP SWAP1 DIV PUSH1 0xFF AND PUSH1 0xFF AND LT PUSH2 0x7ED JUMPI PUSH1 0x40 MLOAD PUSH32 0x8C379A000000000000000000000000000000000000000000000000000000000 DUP2 MSTORE PUSH1 0x4 ADD PUSH2 0x7E4 SWAP1 PUSH2 0x3014 JUMP JUMPDEST PUSH1 0x40 MLOAD DUP1 SWAP2 SUB SWAP1 REVERT JUMPDEST DUP1 PUSH0 ADD PUSH1 0x2 SWAP1 SLOAD SWAP1 PUSH2 0x100 EXP SWAP1 DIV PUSH1 0xFF AND ISZERO PUSH2 0x83E JUMPI PUSH1 0x40 MLOAD PUSH32 0x8C379A000000000000000000000000000000000000000000000000000000000 DUP2 MSTORE PUSH1 0x4 ADD PUSH2 0x835 SWAP1 PUSH2 0x30A2 JUMP JUMPDEST PUSH1 0x40 MLOAD DUP1 SWAP2 SUB SWAP1 REVERT JUMPDEST DUP1 PUSH0 ADD PUSH1 0x1 DUP2 DUP2 SWAP1 SLOAD SWAP1 PUSH2 0x100 EXP SWAP1 DIV PUSH1 0xFF AND DUP1 SWAP3 SWAP2 SWAP1 PUSH2 0x85E SWAP1 PUSH2 0x30C0 JUMP JUMPDEST SWAP2 SWAP1 PUSH2 0x100 EXP DUP2 SLOAD DUP2 PUSH1 0xFF MUL NOT AND SWAP1 DUP4 PUSH1 0xFF AND MUL OR SWAP1 SSTORE POP POP PUSH0 PUSH1 0x6 PUSH0 DUP7 DUP2 MSTORE PUSH1 0x20 ADD SWAP1 DUP2 MSTORE PUSH1 0x20 ADD PUSH0 KECCAK256 DUP1 SLOAD DUP1 PUSH1 0x20 MUL PUSH1 0x20 ADD PUSH1 0x40 MLOAD SWAP1 DUP2 ADD PUSH1 0x40 MSTORE DUP1 SWAP3 SWAP2 SWAP1 DUP2 DUP2 MSTORE PUSH1 0x20 ADD PUSH0 SWAP1 JUMPDEST DUP3 DUP3 LT ISZERO PUSH2 0xBBB JUMPI DUP4 DUP3 SWAP1 PUSH0 MSTORE PUSH1 0x20 PUSH0 KECCAK256 SWAP1 PUSH1 0x7 MUL ADD PUSH1 0x40 MLOAD DUP1 PUSH1 0xE0 ADD PUSH1 0x40 MSTORE SWAP1 DUP2 PUSH0 DUP3 ADD SLOAD DUP2 MSTORE PUSH1 0x20 ADD PUSH1 0x1 DUP3 ADD DUP1 SLOAD PUSH2 0x8E2 SWAP1 PUSH2 0x3115 JUMP JUMPDEST DUP1 PUSH1 0x1F ADD PUSH1 0x20 DUP1 SWAP2 DIV MUL PUSH1 0x20 ADD PUSH1 0x40 MLOAD SWAP1 DUP2 ADD PUSH1 0x40 MSTORE DUP1 SWAP3 SWAP2 SWAP1 DUP2 DUP2 MSTORE PUSH1 0x20 ADD DUP3 DUP1 SLOAD PUSH2 0x90E SWAP1 PUSH2 0x3115 JUMP JUMPDEST DUP1 ISZERO PUSH2 0x959 JUMPI DUP1 PUSH1 0x1F LT PUSH2 0x930 JUMPI PUSH2 0x100 DUP1 DUP4 SLOAD DIV MUL DUP4 MSTORE SWAP2 PUSH1 0x20 ADD SWAP2 PUSH2 0x959 JUMP JUMPDEST DUP3 ADD SWAP2 SWAP1 PUSH0 MSTORE PUSH1 0x20 PUSH0 KECCAK256 SWAP1 JUMPDEST DUP2 SLOAD DUP2 MSTORE SWAP1 PUSH1 0x1 ADD SWAP1 PUSH1 0x20 ADD DUP1 DUP4 GT PUSH2 0x93C JUMPI DUP3 SWAP1 SUB PUSH1 0x1F AND DUP3 ADD SWAP2 JUMPDEST POP POP POP POP POP DUP2 MSTORE PUSH1 0x20 ADD PUSH1 0x2 DUP3 ADD DUP1 SLOAD PUSH2 0x972 SWAP1 PUSH2 0x3115 JUMP JUMPDEST DUP1 PUSH1 0x1F ADD PUSH1 0x20 DUP1 SWAP2 DIV MUL PUSH1 0x20 ADD PUSH1 0x40 MLOAD SWAP1 DUP2 ADD PUSH1 0x40 MSTORE DUP1 SWAP3 SWAP2 SWAP1 DUP2 DUP2 MSTORE PUSH1 0x20 ADD DUP3 DUP1 SLOAD PUSH2 0x99E SWAP1 PUSH2 0x3115 JUMP JUMPDEST DUP1 ISZERO PUSH2 0x9E9 JUMPI DUP1 PUSH1 0x1F LT PUSH2 0x9C0 JUMPI PUSH2 0x100 DUP1 DUP4 SLOAD DIV MUL DUP4 MSTORE SWAP2 PUSH1 0x20 ADD SWAP2 PUSH2 0x9E9 JUMP JUMPDEST DUP3 ADD SWAP2 SWAP1 PUSH0 MSTORE PUSH1 0x20 PUSH0 KECCAK256 SWAP1 JUMPDEST DUP2 SLOAD DUP2 MSTORE SWAP1 PUSH1 0x1 ADD SWAP1 PUSH1 0x20 ADD DUP1 DUP4 GT PUSH2 0x9CC JUMPI DUP3 SWAP1 SUB PUSH1 0x1F AND DUP3 ADD SWAP2 JUMPDEST POP POP POP POP POP DUP2 MSTORE PUSH1 0x20 ADD PUSH1 0x3 DUP3 ADD DUP1 SLOAD PUSH2 0xA02 SWAP1 PUSH2 0x3115 JUMP JUMPDEST DUP1 PUSH1 0x1F ADD PUSH1 0x20 DUP1 SWAP2 DIV MUL PUSH1 0x20 ADD PUSH1 0x40 MLOAD SWAP1 DUP2 ADD PUSH1 0x40 MSTORE DUP1 SWAP3 SWAP2 SWAP1 DUP2 DUP2 MSTORE PUSH1 0x20 ADD DUP3 DUP1 SLOAD PUSH2 0xA2E SWAP1 PUSH2 0x3115 JUMP JUMPDEST DUP1 ISZERO PUSH2 0xA79 JUMPI DUP1 PUSH1 0x1F LT PUSH2 0xA50 JUMPI PUSH2 0x100 DUP1 DUP4 SLOAD DIV MUL DUP4 MSTORE SWAP2 PUSH1 0x20 ADD SWAP2 PUSH2 0xA79 JUMP JUMPDEST DUP3 ADD SWAP2 SWAP1 PUSH0 MSTORE PUSH1 0x20 PUSH0 KECCAK256 SWAP1 JUMPDEST DUP2 SLOAD DUP2 MSTORE SWAP1 PUSH1 0x1 ADD SWAP1 PUSH1 0x20 ADD DUP1 DUP4 GT PUSH2 0xA5C JUMPI DUP3 SWAP1 SUB PUSH1 0x1F AND DUP3 ADD SWAP2 JUMPDEST POP POP POP POP POP DUP2 MSTORE PUSH1 0x20 ADD PUSH1 0x4 DUP3 ADD DUP1 SLOAD PUSH2 0xA92 SWAP1 PUSH2 0x3115 JUMP JUMPDEST DUP1 PUSH1 0x1F ADD PUSH1 0x20 DUP1 SWAP2 DIV MUL PUSH1 0x20 ADD PUSH1 0x40 MLOAD SWAP1 DUP2 ADD PUSH1 0x40 MSTORE DUP1 SWAP3 SWAP2 SWAP1 DUP2 DUP2 MSTORE PUSH1 0x20 ADD DUP3 DUP1 SLOAD PUSH2 0xABE SWAP1 PUSH2 0x3115 JUMP JUMPDEST DUP1 ISZERO PUSH2 0xB09 JUMPI DUP1 PUSH1 0x1F LT PUSH2 0xAE0 JUMPI PUSH2 0x100 DUP1 DUP4 SLOAD DIV MUL DUP4 MSTORE SWAP2 PUSH1 0x20 ADD SWAP2 PUSH2 0xB09 JUMP JUMPDEST DUP3 ADD SWAP2 SWAP1 PUSH0 MSTORE PUSH1 0x20 PUSH0 KECCAK256 SWAP1 JUMPDEST DUP2 SLOAD DUP2 MSTORE SWAP1 PUSH1 0x1 ADD SWAP1 PUSH1 0x20 ADD DUP1 DUP4 GT PUSH2 0xAEC JUMPI DUP3 SWAP1 SUB PUSH1 0x1F AND DUP3 ADD SWAP2 JUMPDEST POP POP POP POP POP DUP2 MSTORE PUSH1 0x20 ADD PUSH1 0x5 DUP3 ADD DUP1 SLOAD PUSH2 0xB22 SWAP1 PUSH2 0x3115 JUMP JUMPDEST DUP1 PUSH1 0x1F ADD PUSH1 0x20 DUP1 SWAP2 DIV MUL PUSH1 0x20 ADD PUSH1 0x40 MLOAD SWAP1 DUP2 ADD PUSH1 0x40 MSTORE DUP1 SWAP3 SWAP2 SWAP1 DUP2 DUP2 MSTORE PUSH1 0x20 ADD DUP3 DUP1 SLOAD PUSH2 0xB4E SWAP1 PUSH2 0x3115 JUMP JUMPDEST DUP1 ISZERO PUSH2 0xB99 JUMPI DUP1 PUSH1 0x1F LT PUSH2 0xB70 JUMPI PUSH2 0x100 DUP1 DUP4 SLOAD DIV MUL DUP4 MSTORE SWAP2 PUSH1 0x20 ADD SWAP2 PUSH2 0xB99 JUMP JUMPDEST DUP3 ADD SWAP2 SWAP1 PUSH0 MSTORE PUSH1 0x20 PUSH0 KECCAK256 SWAP1 JUMPDEST DUP2 SLOAD DUP2 MSTORE SWAP1 PUSH1 0x1 ADD SWAP1 PUSH1 0x20 ADD DUP1 DUP4 GT PUSH2 0xB7C JUMPI DUP3 SWAP1 SUB PUSH1 0x1F AND DUP3 ADD SWAP2 JUMPDEST POP POP POP POP POP DUP2 MSTORE PUSH1 0x20 ADD PUSH1 0x6 DUP3 ADD SLOAD DUP2 MSTORE POP POP DUP2 MSTORE PUSH1 0x20 ADD SWAP1 PUSH1 0x1 ADD SWAP1 PUSH2 0x8A8 JUMP JUMPDEST POP POP POP POP SWAP1 POP DUP1 MLOAD DUP5 MLOAD EQ PUSH2 0xC05 JUMPI PUSH1 0x40 MLOAD PUSH32 0x8C379A000000000000000000000000000000000000000000000000000000000 DUP2 MSTORE PUSH1 0x4 ADD PUSH2 0xBFC SWAP1 PUSH2 0x318F JUMP JUMPDEST PUSH1 0x40 MLOAD DUP1 SWAP2 SUB SWAP1 REVERT JUMPDEST PUSH0 PUSH1 0x1 SWAP1 POP PUSH0 JUMPDEST DUP3 MLOAD DUP2 LT ISZERO PUSH2 0xC8F JUMPI DUP3 DUP2 DUP2 MLOAD DUP2 LT PUSH2 0xC28 JUMPI PUSH2 0xC27 PUSH2 0x31AD JUMP JUMPDEST JUMPDEST PUSH1 0x20 MUL PUSH1 0x20 ADD ADD MLOAD PUSH1 0xC0 ADD MLOAD DUP7 DUP3 DUP2 MLOAD DUP2 LT PUSH2 0xC47 JUMPI PUSH2 0xC46 PUSH2 0x31AD JUMP JUMPDEST JUMPDEST PUSH1 0x20 MUL PUSH1 0x20 ADD ADD MLOAD PUSH1 0x40 MLOAD PUSH1 0x20 ADD PUSH2 0xC5F SWAP2 SWAP1 PUSH2 0x3214 JUMP JUMPDEST PUSH1 0x40 MLOAD PUSH1 0x20 DUP2 DUP4 SUB SUB DUP2 MSTORE SWAP1 PUSH1 0x40 MSTORE DUP1 MLOAD SWAP1 PUSH1 0x20 ADD KECCAK256 EQ PUSH2 0xC82 JUMPI PUSH0 SWAP2 POP PUSH2 0xC8F JUMP JUMPDEST DUP1 DUP1 PUSH1 0x1 ADD SWAP2 POP POP PUSH2 0xC0C JUMP JUMPDEST POP DUP1 ISZERO PUSH2 0xE16 JUMPI PUSH1 0x1 DUP4 PUSH0 ADD PUSH1 0x2 PUSH2 0x100 EXP DUP2 SLOAD DUP2 PUSH1 0xFF MUL NOT AND SWAP1 DUP4 ISZERO ISZERO MUL OR SWAP1 SSTORE POP PUSH1 0x4 PUSH0 DUP8 DUP2 MSTORE PUSH1 0x20 ADD SWAP1 DUP2 MSTORE PUSH1 0x20 ADD PUSH0 KECCAK256 PUSH1 0x3 ADD PUSH0 DUP2 SLOAD DUP1 SWAP3 SWAP2 SWAP1 PUSH2 0xCD6 SWAP1 PUSH2 0x322A JUMP JUMPDEST SWAP2 SWAP1 POP SSTORE POP PUSH8 0x8AC7230489E80000 PUSH1 0x4 PUSH0 DUP9 DUP2 MSTORE PUSH1 0x20 ADD SWAP1 DUP2 MSTORE PUSH1 0x20 ADD PUSH0 KECCAK256 PUSH1 0x4 ADD PUSH0 DUP3 DUP3 SLOAD PUSH2 0xD06 SWAP2 SWAP1 PUSH2 0x2EFC JUMP JUMPDEST SWAP3 POP POP DUP2 SWAP1 SSTORE POP PUSH0 CALLER PUSH20 0xFFFFFFFFFFFFFFFFFFFFFFFFFFFFFFFFFFFFFFFF AND PUSH8 0x8AC7230489E80000 PUSH1 0x40 MLOAD PUSH2 0xD3A SWAP1 PUSH2 0x329E JUMP JUMPDEST PUSH0 PUSH1 0x40 MLOAD DUP1 DUP4 SUB DUP2 DUP6 DUP8 GAS CALL SWAP3 POP POP POP RETURNDATASIZE DUP1 PUSH0 DUP2 EQ PUSH2 0xD74 JUMPI PUSH1 0x40 MLOAD SWAP2 POP PUSH1 0x1F NOT PUSH1 0x3F RETURNDATASIZE ADD AND DUP3 ADD PUSH1 0x40 MSTORE RETURNDATASIZE DUP3 MSTORE RETURNDATASIZE PUSH0 PUSH1 0x20 DUP5 ADD RETURNDATACOPY PUSH2 0xD79 JUMP JUMPDEST PUSH1 0x60 SWAP2 POP JUMPDEST POP POP SWAP1 POP DUP1 PUSH2 0xDBD JUMPI PUSH1 0x40 MLOAD PUSH32 0x8C379A000000000000000000000000000000000000000000000000000000000 DUP2 MSTORE PUSH1 0x4 ADD PUSH2 0xDB4 SWAP1 PUSH2 0x32FC JUMP JUMPDEST PUSH1 0x40 MLOAD DUP1 SWAP2 SUB SWAP1 REVERT JUMPDEST CALLER PUSH20 0xFFFFFFFFFFFFFFFFFFFFFFFFFFFFFFFFFFFFFFFF AND DUP8 PUSH32 0x24B5EFA61DD1CFC659205A97FB8ED868F3CB8C81922BAB2B96423E5DE1DE2CB7 PUSH8 0x8AC7230489E80000 PUSH1 0x40 MLOAD PUSH2 0xE0C SWAP2 SWAP1 PUSH2 0x27BE JUMP JUMPDEST PUSH1 0x40 MLOAD DUP1 SWAP2 SUB SWAP1 LOG3 POP JUMPDEST CALLER PUSH20 0xFFFFFFFFFFFFFFFFFFFFFFFFFFFFFFFFFFFFFFFF AND DUP7 PUSH32 0xAEE8895C1BF669485CEE2DD54D1EEE9E65B02A244AFB6F798F95D72405CDF7A5 DUP4 PUSH1 0x40 MLOAD PUSH2 0xE5D SWAP2 SWAP1 PUSH2 0x27D7 JUMP JUMPDEST PUSH1 0x40 MLOAD DUP1 SWAP2 SUB SWAP1 LOG3 POP POP POP POP POP POP JUMP JUMPDEST PUSH2 0xE75 PUSH2 0x249E JUMP JUMPDEST PUSH8 0xA688906BD8B0000 CALLVALUE LT ISZERO PUSH2 0xEC0 JUMPI PUSH1 0x40 MLOAD PUSH32 0x8C379A000000000000000000000000000000000000000000000000000000000 DUP2 MSTORE PUSH1 0x4 ADD PUSH2 0xEB7 SWAP1 PUSH2 0x2EB1 JUMP JUMPDEST PUSH1 0x40 MLOAD DUP1 SWAP2 SUB SWAP1 REVERT JUMPDEST PUSH8 0xA688906BD8B0000 PUSH1 0x3 PUSH0 DUP3 DUP3 SLOAD PUSH2 0xED9 SWAP2 SWAP1 PUSH2 0x2EFC JUMP JUMPDEST SWAP3 POP POP DUP2 SWAP1 SSTORE POP PUSH0 PUSH8 0xA688906BD8B0000 CALLVALUE PUSH2 0xEF5 SWAP2 SWAP1 PUSH2 0x2F2F JUMP JUMPDEST SWAP1 POP PUSH0 DUP2 GT ISZERO PUSH2 0xF44 JUMPI CALLER PUSH20 0xFFFFFFFFFFFFFFFFFFFFFFFFFFFFFFFFFFFFFFFF AND PUSH2 0x8FC DUP3 SWAP1 DUP2 ISZERO MUL SWAP1 PUSH1 0x40 MLOAD PUSH0 PUSH1 0x40 MLOAD DUP1 DUP4 SUB DUP2 DUP6 DUP9 DUP9 CALL SWAP4 POP POP POP POP ISZERO DUP1 ISZERO PUSH2 0xF42 JUMPI RETURNDATASIZE PUSH0 DUP1 RETURNDATACOPY RETURNDATASIZE PUSH0 REVERT JUMPDEST POP JUMPDEST PUSH1 0x5 PUSH1 0x1 PUSH0 SWAP1 SLOAD SWAP1 PUSH2 0x100 EXP SWAP1 DIV PUSH20 0xFFFFFFFFFFFFFFFFFFFFFFFFFFFFFFFFFFFFFFFF AND PUSH20 0xFFFFFFFFFFFFFFFFFFFFFFFFFFFFFFFFFFFFFFFF AND PUSH4 0xB9F79451 CALLER PUSH1 0x40 MLOAD DUP3 PUSH4 0xFFFFFFFF AND PUSH1 0xE0 SHL DUP2 MSTORE PUSH1 0x4 ADD PUSH2 0xFA0 SWAP2 SWAP1 PUSH2 0x2C77 JUMP JUMPDEST PUSH1 0x20 PUSH1 0x40 MLOAD DUP1 DUP4 SUB DUP2 DUP7 GAS STATICCALL ISZERO DUP1 ISZERO PUSH2 0xFBB JUMPI RETURNDATASIZE PUSH0 DUP1 RETURNDATACOPY RETURNDATASIZE PUSH0 REVERT JUMPDEST POP POP POP POP PUSH1 0x40 MLOAD RETURNDATASIZE PUSH1 0x1F NOT PUSH1 0x1F DUP3 ADD AND DUP3 ADD DUP1 PUSH1 0x40 MSTORE POP DUP2 ADD SWAP1 PUSH2 0xFDF SWAP2 SWAP1 PUSH2 0x332E JUMP JUMPDEST LT ISZERO PUSH2 0x1020 JUMPI PUSH1 0x40 MLOAD PUSH32 0x8C379A000000000000000000000000000000000000000000000000000000000 DUP2 MSTORE PUSH1 0x4 ADD PUSH2 0x1017 SWAP1 PUSH2 0x33C9 JUMP JUMPDEST PUSH1 0x40 MLOAD DUP1 SWAP2 SUB SWAP1 REVERT JUMPDEST PUSH1 0x4 PUSH0 DUP4 DUP2 MSTORE PUSH1 0x20 ADD SWAP1 DUP2 MSTORE PUSH1 0x20 ADD PUSH0 KECCAK256 PUSH1 0x2 ADD PUSH0 SWAP1 SLOAD SWAP1 PUSH2 0x100 EXP SWAP1 DIV PUSH1 0xFF AND PUSH2 0x1080 JUMPI PUSH1 0x40 MLOAD PUSH32 0x8C379A000000000000000000000000000000000000000000000000000000000 DUP2 MSTORE PUSH1 0x4 ADD PUSH2 0x1077 SWAP1 PUSH2 0x3431 JUMP JUMPDEST PUSH1 0x40 MLOAD DUP1 SWAP2 SUB SWAP1 REVERT JUMPDEST PUSH1 0x5 PUSH0 CALLER PUSH20 0xFFFFFFFFFFFFFFFFFFFFFFFFFFFFFFFFFFFFFFFF AND PUSH20 0xFFFFFFFFFFFFFFFFFFFFFFFFFFFFFFFFFFFFFFFF AND DUP2 MSTORE PUSH1 0x20 ADD SWAP1 DUP2 MSTORE PUSH1 0x20 ADD PUSH0 KECCAK256 PUSH0 DUP4 DUP2 MSTORE PUSH1 0x20 ADD SWAP1 DUP2 MSTORE PUSH1 0x20 ADD PUSH0 KECCAK256 PUSH0 ADD PUSH0 SWAP1 SLOAD SWAP1 PUSH2 0x100 EXP SWAP1 DIV PUSH1 0xFF AND ISZERO PUSH2 0x111B JUMPI PUSH1 0x40 MLOAD PUSH32 0x8C379A000000000000000000000000000000000000000000000000000000000 DUP2 MSTORE PUSH1 0x4 ADD PUSH2 0x1112 SWAP1 PUSH2 0x3499 JUMP JUMPDEST PUSH1 0x40 MLOAD DUP1 SWAP2 SUB SWAP1 REVERT JUMPDEST PUSH1 0x1 PUSH1 0x5 PUSH0 CALLER PUSH20 0xFFFFFFFFFFFFFFFFFFFFFFFFFFFFFFFFFFFFFFFF AND PUSH20 0xFFFFFFFFFFFFFFFFFFFFFFFFFFFFFFFFFFFFFFFF AND DUP2 MSTORE PUSH1 0x20 ADD SWAP1 DUP2 MSTORE PUSH1 0x20 ADD PUSH0 KECCAK256 PUSH0 DUP5 DUP2 MSTORE PUSH1 0x20 ADD SWAP1 DUP2 MSTORE PUSH1 0x20 ADD PUSH0 KECCAK256 PUSH0 ADD PUSH0 PUSH2 0x100 EXP DUP2 SLOAD DUP2 PUSH1 0xFF MUL NOT AND SWAP1 DUP4 ISZERO ISZERO MUL OR SWAP1 SSTORE POP PUSH1 0x4 PUSH0 DUP4 DUP2 MSTORE PUSH1 0x20 ADD SWAP1 DUP2 MSTORE PUSH1 0x20 ADD PUSH0 KECCAK256 PUSH1 0x5 ADD PUSH0 DUP2 SLOAD DUP1 SWAP3 SWAP2 SWAP1 PUSH2 0x11A5 SWAP1 PUSH2 0x322A JUMP JUMPDEST SWAP2 SWAP1 POP SSTORE POP CALLER PUSH20 0xFFFFFFFFFFFFFFFFFFFFFFFFFFFFFFFFFFFFFFFF AND DUP3 PUSH32 0xFACF1A2842ACBAD124CBCA0A047FE37BC246C68F814E0350C7BD8A022FD1DDDB PUSH1 0x40 MLOAD PUSH1 0x40 MLOAD DUP1 SWAP2 SUB SWAP1 LOG3 POP POP JUMP JUMPDEST PUSH1 0x7 SLOAD DUP2 JUMP JUMPDEST PUSH2 0x1200 PUSH2 0x23B6 JUMP JUMPDEST PUSH2 0x1209 PUSH0 PUSH2 0x24E8 JUMP JUMPDEST JUMP JUMPDEST PUSH2 0x1213 PUSH2 0x23B6 JUMP JUMPDEST PUSH1 0x4 PUSH0 DUP3 DUP2 MSTORE PUSH1 0x20 ADD SWAP1 DUP2 MSTORE PUSH1 0x20 ADD PUSH0 KECCAK256 PUSH1 0x2 ADD PUSH0 SWAP1 SLOAD SWAP1 PUSH2 0x100 EXP SWAP1 DIV PUSH1 0xFF AND ISZERO PUSH2 0x1274 JUMPI PUSH1 0x40 MLOAD PUSH32 0x8C379A000000000000000000000000000000000000000000000000000000000 DUP2 MSTORE PUSH1 0x4 ADD PUSH2 0x126B SWAP1 PUSH2 0x3501 JUMP JUMPDEST PUSH1 0x40 MLOAD DUP1 SWAP2 SUB SWAP1 REVERT JUMPDEST PUSH1 0x1 PUSH1 0x4 PUSH0 DUP4 DUP2 MSTORE PUSH1 0x20 ADD SWAP1 DUP2 MSTORE PUSH1 0x20 ADD PUSH0 KECCAK256 PUSH1 0x2 ADD PUSH0 PUSH2 0x100 EXP DUP2 SLOAD DUP2 PUSH1 0xFF MUL NOT AND SWAP1 DUP4 ISZERO ISZERO MUL OR SWAP1 SSTORE POP DUP1 PUSH32 0x87C1C0E5CD17BEB8C61A3337B32C66021CB179DD6F97D6D9CE923A029092BD45 PUSH1 0x40 MLOAD PUSH1 0x40 MLOAD DUP1 SWAP2 SUB SWAP1 LOG2 POP JUMP JUMPDEST PUSH2 0x12D8 PUSH2 0x249E JUMP JUMPDEST PUSH8 0xA688906BD8B0000 CALLVALUE LT ISZERO PUSH2 0x1323 JUMPI PUSH1 0x40 MLOAD PUSH32 0x8C379A000000000000000000000000000000000000000000000000000000000 DUP2 MSTORE PUSH1 0x4 ADD PUSH2 0x131A SWAP1 PUSH2 0x2EB1 JUMP JUMPDEST PUSH1 0x40 MLOAD DUP1 SWAP2 SUB SWAP1 REVERT JUMPDEST PUSH8 0xA688906BD8B0000 PUSH1 0x3 PUSH0 DUP3 DUP3 SLOAD PUSH2 0x133C SWAP2 SWAP1 PUSH2 0x2EFC JUMP JUMPDEST SWAP3 POP POP DUP2 SWAP1 SSTORE POP PUSH0 PUSH8 0xA688906BD8B0000 CALLVALUE PUSH2 0x1358 SWAP2 SWAP1 PUSH2 0x2F2F JUMP JUMPDEST SWAP1 POP PUSH0 DUP2 GT ISZERO PUSH2 0x13A7 JUMPI CALLER PUSH20 0xFFFFFFFFFFFFFFFFFFFFFFFFFFFFFFFFFFFFFFFF AND PUSH2 0x8FC DUP3 SWAP1 DUP2 ISZERO MUL SWAP1 PUSH1 0x40 MLOAD PUSH0 PUSH1 0x40 MLOAD DUP1 DUP4 SUB DUP2 DUP6 DUP9 DUP9 CALL SWAP4 POP POP POP POP ISZERO DUP1 ISZERO PUSH2 0x13A5 JUMPI RETURNDATASIZE PUSH0 DUP1 RETURNDATACOPY RETURNDATASIZE PUSH0 REVERT JUMPDEST POP JUMPDEST PUSH1 0x5 PUSH1 0x1 PUSH0 SWAP1 SLOAD SWAP1 PUSH2 0x100 EXP SWAP1 DIV PUSH20 0xFFFFFFFFFFFFFFFFFFFFFFFFFFFFFFFFFFFFFFFF AND PUSH20 0xFFFFFFFFFFFFFFFFFFFFFFFFFFFFFFFFFFFFFFFF AND PUSH4 0xB9F79451 CALLER PUSH1 0x40 MLOAD DUP3 PUSH4 0xFFFFFFFF AND PUSH1 0xE0 SHL DUP2 MSTORE PUSH1 0x4 ADD PUSH2 0x1403 SWAP2 SWAP1 PUSH2 0x2C77 JUMP JUMPDEST PUSH1 0x20 PUSH1 0x40 MLOAD DUP1 DUP4 SUB DUP2 DUP7 GAS STATICCALL ISZERO DUP1 ISZERO PUSH2 0x141E JUMPI RETURNDATASIZE PUSH0 DUP1 RETURNDATACOPY RETURNDATASIZE PUSH0 REVERT JUMPDEST POP POP POP POP PUSH1 0x40 MLOAD RETURNDATASIZE PUSH1 0x1F NOT PUSH1 0x1F DUP3 ADD AND DUP3 ADD DUP1 PUSH1 0x40 MSTORE POP DUP2 ADD SWAP1 PUSH2 0x1442 SWAP2 SWAP1 PUSH2 0x332E JUMP JUMPDEST LT ISZERO PUSH2 0x1483 JUMPI PUSH1 0x40 MLOAD PUSH32 0x8C379A000000000000000000000000000000000000000000000000000000000 DUP2 MSTORE PUSH1 0x4 ADD PUSH2 0x147A SWAP1 PUSH2 0x358F JUMP JUMPDEST PUSH1 0x40 MLOAD DUP1 SWAP2 SUB SWAP1 REVERT JUMPDEST PUSH1 0x5 DUP8 MLOAD EQ DUP1 ISZERO PUSH2 0x1495 JUMPI POP DUP6 MLOAD DUP8 MLOAD EQ JUMPDEST DUP1 ISZERO PUSH2 0x14A2 JUMPI POP DUP5 MLOAD DUP8 MLOAD EQ JUMPDEST DUP1 ISZERO PUSH2 0x14AF JUMPI POP DUP4 MLOAD DUP8 MLOAD EQ JUMPDEST DUP1 ISZERO PUSH2 0x14BC JUMPI POP DUP3 MLOAD DUP8 MLOAD EQ JUMPDEST DUP1 ISZERO PUSH2 0x14C9 JUMPI POP DUP2 MLOAD DUP8 MLOAD EQ JUMPDEST PUSH2 0x1508 JUMPI PUSH1 0x40 MLOAD PUSH32 0x8C379A000000000000000000000000000000000000000000000000000000000 DUP2 MSTORE PUSH1 0x4 ADD PUSH2 0x14FF SWAP1 PUSH2 0x35F7 JUMP JUMPDEST PUSH1 0x40 MLOAD DUP1 SWAP2 SUB SWAP1 REVERT JUMPDEST PUSH0 PUSH1 0x7 PUSH0 DUP2 SLOAD DUP1 SWAP3 SWAP2 SWAP1 PUSH2 0x151B SWAP1 PUSH2 0x322A JUMP JUMPDEST SWAP2 SWAP1 POP SSTORE SWAP1 POP PUSH1 0x40 MLOAD DUP1 PUSH1 0xC0 ADD PUSH1 0x40 MSTORE DUP1 CALLER PUSH20 0xFFFFFFFFFFFFFFFFFFFFFFFFFFFFFFFFFFFFFFFF AND DUP2 MSTORE PUSH1 0x20 ADD DUP11 DUP2 MSTORE PUSH1 0x20 ADD PUSH0 ISZERO ISZERO DUP2 MSTORE PUSH1 0x20 ADD PUSH0 DUP2 MSTORE PUSH1 0x20 ADD PUSH0 DUP2 MSTORE PUSH1 0x20 ADD PUSH0 DUP2 MSTORE POP PUSH1 0x4 PUSH0 DUP4 DUP2 MSTORE PUSH1 0x20 ADD SWAP1 DUP2 MSTORE PUSH1 0x20 ADD PUSH0 KECCAK256 PUSH0 DUP3 ADD MLOAD DUP2 PUSH0 ADD PUSH0 PUSH2 0x100 EXP DUP2 SLOAD DUP2 PUSH20 0xFFFFFFFFFFFFFFFFFFFFFFFFFFFFFFFFFFFFFFFF MUL NOT AND SWAP1 DUP4 PUSH20 0xFFFFFFFFFFFFFFFFFFFFFFFFFFFFFFFFFFFFFFFF AND MUL OR SWAP1 SSTORE POP PUSH1 0x20 DUP3 ADD MLOAD DUP2 PUSH1 0x1 ADD SWAP1 DUP2 PUSH2 0x15D0 SWAP2 SWAP1 PUSH2 0x37A9 JUMP JUMPDEST POP PUSH1 0x40 DUP3 ADD MLOAD DUP2 PUSH1 0x2 ADD PUSH0 PUSH2 0x100 EXP DUP2 SLOAD DUP2 PUSH1 0xFF MUL NOT AND SWAP1 DUP4 ISZERO ISZERO MUL OR SWAP1 SSTORE POP PUSH1 0x60 DUP3 ADD MLOAD DUP2 PUSH1 0x3 ADD SSTORE PUSH1 0x80 DUP3 ADD MLOAD DUP2 PUSH1 0x4 ADD SSTORE PUSH1 0xA0 DUP3 ADD MLOAD DUP2 PUSH1 0x5 ADD SSTORE SWAP1 POP POP PUSH0 JUMPDEST DUP9 MLOAD DUP2 LT ISZERO PUSH2 0x19CC JUMPI PUSH1 0x40 MLOAD PUSH1 0x20 ADD PUSH2 0x162B SWAP1 PUSH2 0x38C2 JUMP JUMPDEST PUSH1 0x40 MLOAD PUSH1 0x20 DUP2 DUP4 SUB SUB DUP2 MSTORE SWAP1 PUSH1 0x40 MSTORE DUP1 MLOAD SWAP1 PUSH1 0x20 ADD KECCAK256 DUP5 DUP3 DUP2 MLOAD DUP2 LT PUSH2 0x1654 JUMPI PUSH2 0x1653 PUSH2 0x31AD JUMP JUMPDEST JUMPDEST PUSH1 0x20 MUL PUSH1 0x20 ADD ADD MLOAD PUSH1 0x40 MLOAD PUSH1 0x20 ADD PUSH2 0x166C SWAP2 SWAP1 PUSH2 0x3214 JUMP JUMPDEST PUSH1 0x40 MLOAD PUSH1 0x20 DUP2 DUP4 SUB SUB DUP2 MSTORE SWAP1 PUSH1 0x40 MSTORE DUP1 MLOAD SWAP1 PUSH1 0x20 ADD KECCAK256 EQ DUP1 PUSH2 0x16F1 JUMPI POP PUSH1 0x40 MLOAD PUSH1 0x20 ADD PUSH2 0x1698 SWAP1 PUSH2 0x3920 JUMP JUMPDEST PUSH1 0x40 MLOAD PUSH1 0x20 DUP2 DUP4 SUB SUB DUP2 MSTORE SWAP1 PUSH1 0x40 MSTORE DUP1 MLOAD SWAP1 PUSH1 0x20 ADD KECCAK256 DUP5 DUP3 DUP2 MLOAD DUP2 LT PUSH2 0x16C1 JUMPI PUSH2 0x16C0 PUSH2 0x31AD JUMP JUMPDEST JUMPDEST PUSH1 0x20 MUL PUSH1 0x20 ADD ADD MLOAD PUSH1 0x40 MLOAD PUSH1 0x20 ADD PUSH2 0x16D9 SWAP2 SWAP1 PUSH2 0x3214 JUMP JUMPDEST PUSH1 0x40 MLOAD PUSH1 0x20 DUP2 DUP4 SUB SUB DUP2 MSTORE SWAP1 PUSH1 0x40 MSTORE DUP1 MLOAD SWAP1 PUSH1 0x20 ADD KECCAK256 EQ JUMPDEST DUP1 PUSH2 0x175F JUMPI POP PUSH1 0x40 MLOAD PUSH1 0x20 ADD PUSH2 0x1706 SWAP1 PUSH2 0x397E JUMP JUMPDEST PUSH1 0x40 MLOAD PUSH1 0x20 DUP2 DUP4 SUB SUB DUP2 MSTORE SWAP1 PUSH1 0x40 MSTORE DUP1 MLOAD SWAP1 PUSH1 0x20 ADD KECCAK256 DUP5 DUP3 DUP2 MLOAD DUP2 LT PUSH2 0x172F JUMPI PUSH2 0x172E PUSH2 0x31AD JUMP JUMPDEST JUMPDEST PUSH1 0x20 MUL PUSH1 0x20 ADD ADD MLOAD PUSH1 0x40 MLOAD PUSH1 0x20 ADD PUSH2 0x1747 SWAP2 SWAP1 PUSH2 0x3214 JUMP JUMPDEST PUSH1 0x40 MLOAD PUSH1 0x20 DUP2 DUP4 SUB SUB DUP2 MSTORE SWAP1 PUSH1 0x40 MSTORE DUP1 MLOAD SWAP1 PUSH1 0x20 ADD KECCAK256 EQ JUMPDEST DUP1 PUSH2 0x17CD JUMPI POP PUSH1 0x40 MLOAD PUSH1 0x20 ADD PUSH2 0x1774 SWAP1 PUSH2 0x39DC JUMP JUMPDEST PUSH1 0x40 MLOAD PUSH1 0x20 DUP2 DUP4 SUB SUB DUP2 MSTORE SWAP1 PUSH1 0x40 MSTORE DUP1 MLOAD SWAP1 PUSH1 0x20 ADD KECCAK256 DUP5 DUP3 DUP2 MLOAD DUP2 LT PUSH2 0x179D JUMPI PUSH2 0x179C PUSH2 0x31AD JUMP JUMPDEST JUMPDEST PUSH1 0x20 MUL PUSH1 0x20 ADD ADD MLOAD PUSH1 0x40 MLOAD PUSH1 0x20 ADD PUSH2 0x17B5 SWAP2 SWAP1 PUSH2 0x3214 JUMP JUMPDEST PUSH1 0x40 MLOAD PUSH1 0x20 DUP2 DUP4 SUB SUB DUP2 MSTORE SWAP1 PUSH1 0x40 MSTORE DUP1 MLOAD SWAP1 PUSH1 0x20 ADD KECCAK256 EQ JUMPDEST PUSH2 0x180C JUMPI PUSH1 0x40 MLOAD PUSH32 0x8C379A000000000000000000000000000000000000000000000000000000000 DUP2 MSTORE PUSH1 0x4 ADD PUSH2 0x1803 SWAP1 PUSH2 0x3A3A JUMP JUMPDEST PUSH1 0x40 MLOAD DUP1 SWAP2 SUB SWAP1 REVERT JUMPDEST PUSH0 PUSH1 0x40 MLOAD DUP1 PUSH1 0xE0 ADD PUSH1 0x40 MSTORE DUP1 DUP5 DUP2 MSTORE PUSH1 0x20 ADD DUP12 DUP5 DUP2 MLOAD DUP2 LT PUSH2 0x1831 JUMPI PUSH2 0x1830 PUSH2 0x31AD JUMP JUMPDEST JUMPDEST PUSH1 0x20 MUL PUSH1 0x20 ADD ADD MLOAD DUP2 MSTORE PUSH1 0x20 ADD DUP11 DUP5 DUP2 MLOAD DUP2 LT PUSH2 0x1851 JUMPI PUSH2 0x1850 PUSH2 0x31AD JUMP JUMPDEST JUMPDEST PUSH1 0x20 MUL PUSH1 0x20 ADD ADD MLOAD DUP2 MSTORE PUSH1 0x20 ADD DUP10 DUP5 DUP2 MLOAD DUP2 LT PUSH2 0x1871 JUMPI PUSH2 0x1870 PUSH2 0x31AD JUMP JUMPDEST JUMPDEST PUSH1 0x20 MUL PUSH1 0x20 ADD ADD MLOAD DUP2 MSTORE PUSH1 0x20 ADD DUP9 DUP5 DUP2 MLOAD DUP2 LT PUSH2 0x1891 JUMPI PUSH2 0x1890 PUSH2 0x31AD JUMP JUMPDEST JUMPDEST PUSH1 0x20 MUL PUSH1 0x20 ADD ADD MLOAD DUP2 MSTORE PUSH1 0x20 ADD DUP8 DUP5 DUP2 MLOAD DUP2 LT PUSH2 0x18B1 JUMPI PUSH2 0x18B0 PUSH2 0x31AD JUMP JUMPDEST JUMPDEST PUSH1 0x20 MUL PUSH1 0x20 ADD ADD MLOAD DUP2 MSTORE PUSH1 0x20 ADD DUP7 DUP5 DUP2 MLOAD DUP2 LT PUSH2 0x18D1 JUMPI PUSH2 0x18D0 PUSH2 0x31AD JUMP JUMPDEST JUMPDEST PUSH1 0x20 MUL PUSH1 0x20 ADD ADD MLOAD PUSH1 0x40 MLOAD PUSH1 0x20 ADD PUSH2 0x18E9 SWAP2 SWAP1 PUSH2 0x3214 JUMP JUMPDEST PUSH1 0x40 MLOAD PUSH1 0x20 DUP2 DUP4 SUB SUB DUP2 MSTORE SWAP1 PUSH1 0x40 MSTORE DUP1 MLOAD SWAP1 PUSH1 0x20 ADD KECCAK256 DUP2 MSTORE POP SWAP1 POP PUSH1 0x6 PUSH0 DUP5 DUP2 MSTORE PUSH1 0x20 ADD SWAP1 DUP2 MSTORE PUSH1 0x20 ADD PUSH0 KECCAK256 DUP2 SWAP1 DUP1 PUSH1 0x1 DUP2 SLOAD ADD DUP1 DUP3 SSTORE DUP1 SWAP2 POP POP PUSH1 0x1 SWAP1 SUB SWAP1 PUSH0 MSTORE PUSH1 0x20 PUSH0 KECCAK256 SWAP1 PUSH1 0x7 MUL ADD PUSH0 SWAP1 SWAP2 SWAP1 SWAP2 SWAP1 SWAP2 POP PUSH0 DUP3 ADD MLOAD DUP2 PUSH0 ADD SSTORE PUSH1 0x20 DUP3 ADD MLOAD DUP2 PUSH1 0x1 ADD SWAP1 DUP2 PUSH2 0x1959 SWAP2 SWAP1 PUSH2 0x37A9 JUMP JUMPDEST POP PUSH1 0x40 DUP3 ADD MLOAD DUP2 PUSH1 0x2 ADD SWAP1 DUP2 PUSH2 0x196F SWAP2 SWAP1 PUSH2 0x37A9 JUMP JUMPDEST POP PUSH1 0x60 DUP3 ADD MLOAD DUP2 PUSH1 0x3 ADD SWAP1 DUP2 PUSH2 0x1985 SWAP2 SWAP1 PUSH2 0x37A9 JUMP JUMPDEST POP PUSH1 0x80 DUP3 ADD MLOAD DUP2 PUSH1 0x4 ADD SWAP1 DUP2 PUSH2 0x199B SWAP2 SWAP1 PUSH2 0x37A9 JUMP JUMPDEST POP PUSH1 0xA0 DUP3 ADD MLOAD DUP2 PUSH1 0x5 ADD SWAP1 DUP2 PUSH2 0x19B1 SWAP2 SWAP1 PUSH2 0x37A9 JUMP JUMPDEST POP PUSH1 0xC0 DUP3 ADD MLOAD DUP2 PUSH1 0x6 ADD SSTORE POP POP POP DUP1 DUP1 PUSH1 0x1 ADD SWAP2 POP POP PUSH2 0x1613 JUMP JUMPDEST POP CALLER PUSH20 0xFFFFFFFFFFFFFFFFFFFFFFFFFFFFFFFFFFFFFFFF AND DUP2 PUSH32 0xA68F79AA37F9CDC81C2757CFB3E11E9D7D89CA0A5410FBCF1B61125BC17FB1B7 PUSH1 0x40 MLOAD PUSH1 0x40 MLOAD DUP1 SWAP2 SUB SWAP1 LOG3 POP POP POP POP POP POP POP POP POP JUMP JUMPDEST PUSH2 0x1A24 PUSH2 0x23B6 JUMP JUMPDEST PUSH2 0x1A2C PUSH2 0x25A9 JUMP JUMPDEST JUMP JUMPDEST PUSH1 0x1 PUSH0 SWAP1 SLOAD SWAP1 PUSH2 0x100 EXP SWAP1 DIV PUSH20 0xFFFFFFFFFFFFFFFFFFFFFFFFFFFFFFFFFFFFFFFF AND DUP2 JUMP JUMPDEST PUSH0 DUP1 PUSH0 SWAP1 SLOAD SWAP1 PUSH2 0x100 EXP SWAP1 DIV PUSH20 0xFFFFFFFFFFFFFFFFFFFFFFFFFFFFFFFFFFFFFFFF AND SWAP1 POP SWAP1 JUMP JUMPDEST PUSH2 0x1A82 PUSH2 0x23B6 JUMP JUMPDEST DUP1 PUSH1 0x1 PUSH0 PUSH2 0x100 EXP DUP2 SLOAD DUP2 PUSH20 0xFFFFFFFFFFFFFFFFFFFFFFFFFFFFFFFFFFFFFFFF MUL NOT AND SWAP1 DUP4 PUSH20 0xFFFFFFFFFFFFFFFFFFFFFFFFFFFFFFFFFFFFFFFF AND MUL OR SWAP1 SSTORE POP POP JUMP JUMPDEST PUSH1 0x4 PUSH1 0x20 MSTORE DUP1 PUSH0 MSTORE PUSH1 0x40 PUSH0 KECCAK256 PUSH0 SWAP2 POP SWAP1 POP DUP1 PUSH0 ADD PUSH0 SWAP1 SLOAD SWAP1 PUSH2 0x100 EXP SWAP1 DIV PUSH20 0xFFFFFFFFFFFFFFFFFFFFFFFFFFFFFFFFFFFFFFFF AND SWAP1 DUP1 PUSH1 0x1 ADD DUP1 SLOAD PUSH2 0x1B09 SWAP1 PUSH2 0x3115 JUMP JUMPDEST DUP1 PUSH1 0x1F ADD PUSH1 0x20 DUP1 SWAP2 DIV MUL PUSH1 0x20 ADD PUSH1 0x40 MLOAD SWAP1 DUP2 ADD PUSH1 0x40 MSTORE DUP1 SWAP3 SWAP2 SWAP1 DUP2 DUP2 MSTORE PUSH1 0x20 ADD DUP3 DUP1 SLOAD PUSH2 0x1B35 SWAP1 PUSH2 0x3115 JUMP JUMPDEST DUP1 ISZERO PUSH2 0x1B80 JUMPI DUP1 PUSH1 0x1F LT PUSH2 0x1B57 JUMPI PUSH2 0x100 DUP1 DUP4 SLOAD DIV MUL DUP4 MSTORE SWAP2 PUSH1 0x20 ADD SWAP2 PUSH2 0x1B80 JUMP JUMPDEST DUP3 ADD SWAP2 SWAP1 PUSH0 MSTORE PUSH1 0x20 PUSH0 KECCAK256 SWAP1 JUMPDEST DUP2 SLOAD DUP2 MSTORE SWAP1 PUSH1 0x1 ADD SWAP1 PUSH1 0x20 ADD DUP1 DUP4 GT PUSH2 0x1B63 JUMPI DUP3 SWAP1 SUB PUSH1 0x1F AND DUP3 ADD SWAP2 JUMPDEST POP POP POP POP POP SWAP1 DUP1 PUSH1 0x2 ADD PUSH0 SWAP1 SLOAD SWAP1 PUSH2 0x100 EXP SWAP1 DIV PUSH1 0xFF AND SWAP1 DUP1 PUSH1 0x3 ADD SLOAD SWAP1 DUP1 PUSH1 0x4 ADD SLOAD SWAP1 DUP1 PUSH1 0x5 ADD SLOAD SWAP1 POP DUP7 JUMP JUMPDEST PUSH8 0xA688906BD8B0000 DUP2 JUMP JUMPDEST PUSH1 0x5 DUP2 JUMP JUMPDEST PUSH1 0x5 DUP2 JUMP JUMPDEST PUSH1 0x6 PUSH1 0x20 MSTORE DUP2 PUSH0 MSTORE PUSH1 0x40 PUSH0 KECCAK256 DUP2 DUP2 SLOAD DUP2 LT PUSH2 0x1BDD JUMPI PUSH0 DUP1 REVERT JUMPDEST SWAP1 PUSH0 MSTORE PUSH1 0x20 PUSH0 KECCAK256 SWAP1 PUSH1 0x7 MUL ADD PUSH0 SWAP2 POP SWAP2 POP POP DUP1 PUSH0 ADD SLOAD SWAP1 DUP1 PUSH1 0x1 ADD DUP1 SLOAD PUSH2 0x1C03 SWAP1 PUSH2 0x3115 JUMP JUMPDEST DUP1 PUSH1 0x1F ADD PUSH1 0x20 DUP1 SWAP2 DIV MUL PUSH1 0x20 ADD PUSH1 0x40 MLOAD SWAP1 DUP2 ADD PUSH1 0x40 MSTORE DUP1 SWAP3 SWAP2 SWAP1 DUP2 DUP2 MSTORE PUSH1 0x20 ADD DUP3 DUP1 SLOAD PUSH2 0x1C2F SWAP1 PUSH2 0x3115 JUMP JUMPDEST DUP1 ISZERO PUSH2 0x1C7A JUMPI DUP1 PUSH1 0x1F LT PUSH2 0x1C51 JUMPI PUSH2 0x100 DUP1 DUP4 SLOAD DIV MUL DUP4 MSTORE SWAP2 PUSH1 0x20 ADD SWAP2 PUSH2 0x1C7A JUMP JUMPDEST DUP3 ADD SWAP2 SWAP1 PUSH0 MSTORE PUSH1 0x20 PUSH0 KECCAK256 SWAP1 JUMPDEST DUP2 SLOAD DUP2 MSTORE SWAP1 PUSH1 0x1 ADD SWAP1 PUSH1 0x20 ADD DUP1 DUP4 GT PUSH2 0x1C5D JUMPI DUP3 SWAP1 SUB PUSH1 0x1F AND DUP3 ADD SWAP2 JUMPDEST POP POP POP POP POP SWAP1 DUP1 PUSH1 0x2 ADD DUP1 SLOAD PUSH2 0x1C8F SWAP1 PUSH2 0x3115 JUMP JUMPDEST DUP1 PUSH1 0x1F ADD PUSH1 0x20 DUP1 SWAP2 DIV MUL PUSH1 0x20 ADD PUSH1 0x40 MLOAD SWAP1 DUP2 ADD PUSH1 0x40 MSTORE DUP1 SWAP3 SWAP2 SWAP1 DUP2 DUP2 MSTORE PUSH1 0x20 ADD DUP3 DUP1 SLOAD PUSH2 0x1CBB SWAP1 PUSH2 0x3115 JUMP JUMPDEST DUP1 ISZERO PUSH2 0x1D06 JUMPI DUP1 PUSH1 0x1F LT PUSH2 0x1CDD JUMPI PUSH2 0x100 DUP1 DUP4 SLOAD DIV MUL DUP4 MSTORE SWAP2 PUSH1 0x20 ADD SWAP2 PUSH2 0x1D06 JUMP JUMPDEST DUP3 ADD SWAP2 SWAP1 PUSH0 MSTORE PUSH1 0x20 PUSH0 KECCAK256 SWAP1 JUMPDEST DUP2 SLOAD DUP2 MSTORE SWAP1 PUSH1 0x1 ADD SWAP1 PUSH1 0x20 ADD DUP1 DUP4 GT PUSH2 0x1CE9 JUMPI DUP3 SWAP1 SUB PUSH1 0x1F AND DUP3 ADD SWAP2 JUMPDEST POP POP POP POP POP SWAP1 DUP1 PUSH1 0x3 ADD DUP1 SLOAD PUSH2 0x1D1B SWAP1 PUSH2 0x3115 JUMP JUMPDEST DUP1 PUSH1 0x1F ADD PUSH1 0x20 DUP1 SWAP2 DIV MUL PUSH1 0x20 ADD PUSH1 0x40 MLOAD SWAP1 DUP2 ADD PUSH1 0x40 MSTORE DUP1 SWAP3 SWAP2 SWAP1 DUP2 DUP2 MSTORE PUSH1 0x20 ADD DUP3 DUP1 SLOAD PUSH2 0x1D47 SWAP1 PUSH2 0x3115 JUMP JUMPDEST DUP1 ISZERO PUSH2 0x1D92 JUMPI DUP1 PUSH1 0x1F LT PUSH2 0x1D69 JUMPI PUSH2 0x100 DUP1 DUP4 SLOAD DIV MUL DUP4 MSTORE SWAP2 PUSH1 0x20 ADD SWAP2 PUSH2 0x1D92 JUMP JUMPDEST DUP3 ADD SWAP2 SWAP1 PUSH0 MSTORE PUSH1 0x20 PUSH0 KECCAK256 SWAP1 JUMPDEST DUP2 SLOAD DUP2 MSTORE SWAP1 PUSH1 0x1 ADD SWAP1 PUSH1 0x20 ADD DUP1 DUP4 GT PUSH2 0x1D75 JUMPI DUP3 SWAP1 SUB PUSH1 0x1F AND DUP3 ADD SWAP2 JUMPDEST POP POP POP POP POP SWAP1 DUP1 PUSH1 0x4 ADD DUP1 SLOAD PUSH2 0x1DA7 SWAP1 PUSH2 0x3115 JUMP JUMPDEST DUP1 PUSH1 0x1F ADD PUSH1 0x20 DUP1 SWAP2 DIV MUL PUSH1 0x20 ADD PUSH1 0x40 MLOAD SWAP1 DUP2 ADD PUSH1 0x40 MSTORE DUP1 SWAP3 SWAP2 SWAP1 DUP2 DUP2 MSTORE PUSH1 0x20 ADD DUP3 DUP1 SLOAD PUSH2 0x1DD3 SWAP1 PUSH2 0x3115 JUMP JUMPDEST DUP1 ISZERO PUSH2 0x1E1E JUMPI DUP1 PUSH1 0x1F LT PUSH2 0x1DF5 JUMPI PUSH2 0x100 DUP1 DUP4 SLOAD DIV MUL DUP4 MSTORE SWAP2 PUSH1 0x20 ADD SWAP2 PUSH2 0x1E1E JUMP JUMPDEST DUP3 ADD SWAP2 SWAP1 PUSH0 MSTORE PUSH1 0x20 PUSH0 KECCAK256 SWAP1 JUMPDEST DUP2 SLOAD DUP2 MSTORE SWAP1 PUSH1 0x1 ADD SWAP1 PUSH1 0x20 ADD DUP1 DUP4 GT PUSH2 0x1E01 JUMPI DUP3 SWAP1 SUB PUSH1 0x1F AND DUP3 ADD SWAP2 JUMPDEST POP POP POP POP POP SWAP1 DUP1 PUSH1 0x5 ADD DUP1 SLOAD PUSH2 0x1E33 SWAP1 PUSH2 0x3115 JUMP JUMPDEST DUP1 PUSH1 0x1F ADD PUSH1 0x20 DUP1 SWAP2 DIV MUL PUSH1 0x20 ADD PUSH1 0x40 MLOAD SWAP1 DUP2 ADD PUSH1 0x40 MSTORE DUP1 SWAP3 SWAP2 SWAP1 DUP2 DUP2 MSTORE PUSH1 0x20 ADD DUP3 DUP1 SLOAD PUSH2 0x1E5F SWAP1 PUSH2 0x3115 JUMP JUMPDEST DUP1 ISZERO PUSH2 0x1EAA JUMPI DUP1 PUSH1 0x1F LT PUSH2 0x1E81 JUMPI PUSH2 0x100 DUP1 DUP4 SLOAD DIV MUL DUP4 MSTORE SWAP2 PUSH1 0x20 ADD SWAP2 PUSH2 0x1EAA JUMP JUMPDEST DUP3 ADD SWAP2 SWAP1 PUSH0 MSTORE PUSH1 0x20 PUSH0 KECCAK256 SWAP1 JUMPDEST DUP2 SLOAD DUP2 MSTORE SWAP1 PUSH1 0x1 ADD SWAP1 PUSH1 0x20 ADD DUP1 DUP4 GT PUSH2 0x1E8D JUMPI DUP3 SWAP1 SUB PUSH1 0x1F AND DUP3 ADD SWAP2 JUMPDEST POP POP POP POP POP SWAP1 DUP1 PUSH1 0x6 ADD SLOAD SWAP1 POP DUP8 JUMP JUMPDEST PUSH2 0x1EC2 PUSH2 0x23B6 JUMP JUMPDEST PUSH3 0x41EB00 PUSH1 0x2 SLOAD PUSH2 0x1ED3 SWAP2 SWAP1 PUSH2 0x2EFC JUMP JUMPDEST TIMESTAMP LT ISZERO PUSH2 0x1F15 JUMPI PUSH1 0x40 MLOAD PUSH32 0x8C379A000000000000000000000000000000000000000000000000000000000 DUP2 MSTORE PUSH1 0x4 ADD PUSH2 0x1F0C SWAP1 PUSH2 0x3AA2 JUMP JUMPDEST PUSH1 0x40 MLOAD DUP1 SWAP2 SUB SWAP1 REVERT JUMPDEST PUSH0 PUSH1 0x3 SLOAD SWAP1 POP PUSH0 PUSH1 0x3 DUP2 SWAP1 SSTORE POP TIMESTAMP PUSH1 0x2 DUP2 SWAP1 SSTORE POP PUSH0 PUSH2 0x1F32 PUSH2 0x1A53 JUMP JUMPDEST PUSH20 0xFFFFFFFFFFFFFFFFFFFFFFFFFFFFFFFFFFFFFFFF AND DUP3 PUSH1 0x40 MLOAD PUSH2 0x1F55 SWAP1 PUSH2 0x329E JUMP JUMPDEST PUSH0 PUSH1 0x40 MLOAD DUP1 DUP4 SUB DUP2 DUP6 DUP8 GAS CALL SWAP3 POP POP POP RETURNDATASIZE DUP1 PUSH0 DUP2 EQ PUSH2 0x1F8F JUMPI PUSH1 0x40 MLOAD SWAP2 POP PUSH1 0x1F NOT PUSH1 0x3F RETURNDATASIZE ADD AND DUP3 ADD PUSH1 0x40 MSTORE RETURNDATASIZE DUP3 MSTORE RETURNDATASIZE PUSH0 PUSH1 0x20 DUP5 ADD RETURNDATACOPY PUSH2 0x1F94 JUMP JUMPDEST PUSH1 0x60 SWAP2 POP JUMPDEST POP POP SWAP1 POP DUP1 PUSH2 0x1FD8 JUMPI PUSH1 0x40 MLOAD PUSH32 0x8C379A000000000000000000000000000000000000000000000000000000000 DUP2 MSTORE PUSH1 0x4 ADD PUSH2 0x1FCF SWAP1 PUSH2 0x3B0A JUMP JUMPDEST PUSH1 0x40 MLOAD DUP1 SWAP2 SUB SWAP1 REVERT JUMPDEST PUSH32 0xD3C6ACEF4F1BD70F36DAD19B43C6B794AC969B546734638671026F801D476FA DUP3 PUSH1 0x40 MLOAD PUSH2 0x2007 SWAP2 SWAP1 PUSH2 0x27BE JUMP JUMPDEST PUSH1 0x40 MLOAD DUP1 SWAP2 SUB SWAP1 LOG1 POP POP JUMP JUMPDEST PUSH2 0x201B PUSH2 0x249E JUMP JUMPDEST PUSH8 0xA688906BD8B0000 CALLVALUE LT ISZERO PUSH2 0x2066 JUMPI PUSH1 0x40 MLOAD PUSH32 0x8C379A000000000000000000000000000000000000000000000000000000000 DUP2 MSTORE PUSH1 0x4 ADD PUSH2 0x205D SWAP1 PUSH2 0x2EB1 JUMP JUMPDEST PUSH1 0x40 MLOAD DUP1 SWAP2 SUB SWAP1 REVERT JUMPDEST PUSH8 0xA688906BD8B0000 PUSH1 0x3 PUSH0 DUP3 DUP3 SLOAD PUSH2 0x207F SWAP2 SWAP1 PUSH2 0x2EFC JUMP JUMPDEST SWAP3 POP POP DUP2 SWAP1 SSTORE POP PUSH0 PUSH8 0xA688906BD8B0000 CALLVALUE PUSH2 0x209B SWAP2 SWAP1 PUSH2 0x2F2F JUMP JUMPDEST SWAP1 POP PUSH0 DUP2 GT ISZERO PUSH2 0x20EA JUMPI CALLER PUSH20 0xFFFFFFFFFFFFFFFFFFFFFFFFFFFFFFFFFFFFFFFF AND PUSH2 0x8FC DUP3 SWAP1 DUP2 ISZERO MUL SWAP1 PUSH1 0x40 MLOAD PUSH0 PUSH1 0x40 MLOAD DUP1 DUP4 SUB DUP2 DUP6 DUP9 DUP9 CALL SWAP4 POP POP POP POP ISZERO DUP1 ISZERO PUSH2 0x20E8 JUMPI RETURNDATASIZE PUSH0 DUP1 RETURNDATACOPY RETURNDATASIZE PUSH0 REVERT JUMPDEST POP JUMPDEST PUSH0 PUSH1 0x4 PUSH0 DUP5 DUP2 MSTORE PUSH1 0x20 ADD SWAP1 DUP2 MSTORE PUSH1 0x20 ADD PUSH0 KECCAK256 SWAP1 POP DUP1 PUSH0 ADD PUSH0 SWAP1 SLOAD SWAP1 PUSH2 0x100 EXP SWAP1 DIV PUSH20 0xFFFFFFFFFFFFFFFFFFFFFFFFFFFFFFFFFFFFFFFF AND PUSH20 0xFFFFFFFFFFFFFFFFFFFFFFFFFFFFFFFFFFFFFFFF AND CALLER PUSH20 0xFFFFFFFFFFFFFFFFFFFFFFFFFFFFFFFFFFFFFFFF AND EQ PUSH2 0x218E JUMPI PUSH1 0x40 MLOAD PUSH32 0x8C379A000000000000000000000000000000000000000000000000000000000 DUP2 MSTORE PUSH1 0x4 ADD PUSH2 0x2185 SWAP1 PUSH2 0x3B98 JUMP JUMPDEST PUSH1 0x40 MLOAD DUP1 SWAP2 SUB SWAP1 REVERT JUMPDEST DUP1 PUSH1 0x2 ADD PUSH0 SWAP1 SLOAD SWAP1 PUSH2 0x100 EXP SWAP1 DIV PUSH1 0xFF AND PUSH2 0x21DE JUMPI PUSH1 0x40 MLOAD PUSH32 0x8C379A000000000000000000000000000000000000000000000000000000000 DUP2 MSTORE PUSH1 0x4 ADD PUSH2 0x21D5 SWAP1 PUSH2 0x3431 JUMP JUMPDEST PUSH1 0x40 MLOAD DUP1 SWAP2 SUB SWAP1 REVERT JUMPDEST PUSH0 PUSH8 0xDE0B6B3A7640000 DUP3 PUSH1 0x3 ADD SLOAD PUSH2 0x21F7 SWAP2 SWAP1 PUSH2 0x3BB6 JUMP JUMPDEST SWAP1 POP PUSH0 DUP3 PUSH1 0x3 ADD DUP2 SWAP1 SSTORE POP DUP1 DUP3 PUSH1 0x4 ADD PUSH0 DUP3 DUP3 SLOAD PUSH2 0x2215 SWAP2 SWAP1 PUSH2 0x2EFC JUMP JUMPDEST SWAP3 POP POP DUP2 SWAP1 SSTORE POP PUSH0 CALLER PUSH20 0xFFFFFFFFFFFFFFFFFFFFFFFFFFFFFFFFFFFFFFFF AND DUP3 PUSH1 0x40 MLOAD PUSH2 0x2241 SWAP1 PUSH2 0x329E JUMP JUMPDEST PUSH0 PUSH1 0x40 MLOAD DUP1 DUP4 SUB DUP2 DUP6 DUP8 GAS CALL SWAP3 POP POP POP RETURNDATASIZE DUP1 PUSH0 DUP2 EQ PUSH2 0x227B JUMPI PUSH1 0x40 MLOAD SWAP2 POP PUSH1 0x1F NOT PUSH1 0x3F RETURNDATASIZE ADD AND DUP3 ADD PUSH1 0x40 MSTORE RETURNDATASIZE DUP3 MSTORE RETURNDATASIZE PUSH0 PUSH1 0x20 DUP5 ADD RETURNDATACOPY PUSH2 0x2280 JUMP JUMPDEST PUSH1 0x60 SWAP2 POP JUMPDEST POP POP SWAP1 POP DUP1 PUSH2 0x22C4 JUMPI PUSH1 0x40 MLOAD PUSH32 0x8C379A000000000000000000000000000000000000000000000000000000000 DUP2 MSTORE PUSH1 0x4 ADD PUSH2 0x22BB SWAP1 PUSH2 0x32FC JUMP JUMPDEST PUSH1 0x40 MLOAD DUP1 SWAP2 SUB SWAP1 REVERT JUMPDEST CALLER PUSH20 0xFFFFFFFFFFFFFFFFFFFFFFFFFFFFFFFFFFFFFFFF AND DUP6 PUSH32 0xB67DA43F4CC061F251C05601F44947D1BE59A7EF5451A4A5230274DA04F88246 DUP5 PUSH1 0x40 MLOAD PUSH2 0x230B SWAP2 SWAP1 PUSH2 0x27BE JUMP JUMPDEST PUSH1 0x40 MLOAD DUP1 SWAP2 SUB SWAP1 LOG3 POP POP POP POP POP JUMP JUMPDEST PUSH8 0xDE0B6B3A7640000 DUP2 JUMP JUMPDEST PUSH2 0x232E PUSH2 0x23B6 JUMP JUMPDEST PUSH0 PUSH20 0xFFFFFFFFFFFFFFFFFFFFFFFFFFFFFFFFFFFFFFFF AND DUP2 PUSH20 0xFFFFFFFFFFFFFFFFFFFFFFFFFFFFFFFFFFFFFFFF AND SUB PUSH2 0x239E JUMPI PUSH0 PUSH1 0x40 MLOAD PUSH32 0x1E4FBDF700000000000000000000000000000000000000000000000000000000 DUP2 MSTORE PUSH1 0x4 ADD PUSH2 0x2395 SWAP2 SWAP1 PUSH2 0x2C77 JUMP JUMPDEST PUSH1 0x40 MLOAD DUP1 SWAP2 SUB SWAP1 REVERT JUMPDEST PUSH2 0x23A7 DUP2 PUSH2 0x24E8 JUMP JUMPDEST POP JUMP JUMPDEST PUSH8 0x8AC7230489E80000 DUP2 JUMP JUMPDEST PUSH2 0x23BE PUSH2 0x260B JUMP JUMPDEST PUSH20 0xFFFFFFFFFFFFFFFFFFFFFFFFFFFFFFFFFFFFFFFF AND PUSH2 0x23DC PUSH2 0x1A53 JUMP JUMPDEST PUSH20 0xFFFFFFFFFFFFFFFFFFFFFFFFFFFFFFFFFFFFFFFF AND EQ PUSH2 0x243B JUMPI PUSH2 0x23FF PUSH2 0x260B JUMP JUMPDEST PUSH1 0x40 MLOAD PUSH32 0x118CDAA700000000000000000000000000000000000000000000000000000000 DUP2 MSTORE PUSH1 0x4 ADD PUSH2 0x2432 SWAP2 SWAP1 PUSH2 0x2C77 JUMP JUMPDEST PUSH1 0x40 MLOAD DUP1 SWAP2 SUB SWAP1 REVERT JUMPDEST JUMP JUMPDEST PUSH2 0x2445 PUSH2 0x2612 JUMP JUMPDEST PUSH0 DUP1 PUSH1 0x14 PUSH2 0x100 EXP DUP2 SLOAD DUP2 PUSH1 0xFF MUL NOT AND SWAP1 DUP4 ISZERO ISZERO MUL OR SWAP1 SSTORE POP PUSH32 0x5DB9EE0A495BF2E6FF9C91A7834C1BA4FDD244A5E8AA4E537BD38AEAE4B073AA PUSH2 0x2487 PUSH2 0x260B JUMP JUMPDEST PUSH1 0x40 MLOAD PUSH2 0x2494 SWAP2 SWAP1 PUSH2 0x2C77 JUMP JUMPDEST PUSH1 0x40 MLOAD DUP1 SWAP2 SUB SWAP1 LOG1 JUMP JUMPDEST PUSH2 0x24A6 PUSH2 0x615 JUMP JUMPDEST ISZERO PUSH2 0x24E6 JUMPI PUSH1 0x40 MLOAD PUSH32 0x8C379A000000000000000000000000000000000000000000000000000000000 DUP2 MSTORE PUSH1 0x4 ADD PUSH2 0x24DD SWAP1 PUSH2 0x3C41 JUMP JUMPDEST PUSH1 0x40 MLOAD DUP1 SWAP2 SUB SWAP1 REVERT JUMPDEST JUMP JUMPDEST PUSH0 DUP1 PUSH0 SWAP1 SLOAD SWAP1 PUSH2 0x100 EXP SWAP1 DIV PUSH20 0xFFFFFFFFFFFFFFFFFFFFFFFFFFFFFFFFFFFFFFFF AND SWAP1 POP DUP2 PUSH0 DUP1 PUSH2 0x100 EXP DUP2 SLOAD DUP2 PUSH20 0xFFFFFFFFFFFFFFFFFFFFFFFFFFFFFFFFFFFFFFFF MUL NOT AND SWAP1 DUP4 PUSH20 0xFFFFFFFFFFFFFFFFFFFFFFFFFFFFFFFFFFFFFFFF AND MUL OR SWAP1 SSTORE POP DUP2 PUSH20 0xFFFFFFFFFFFFFFFFFFFFFFFFFFFFFFFFFFFFFFFF AND DUP2 PUSH20 0xFFFFFFFFFFFFFFFFFFFFFFFFFFFFFFFFFFFFFFFF AND PUSH32 0x8BE0079C531659141344CD1FD0A4F28419497F9722A3DAAFE3B4186F6B6457E0 PUSH1 0x40 MLOAD PUSH1 0x40 MLOAD DUP1 SWAP2 SUB SWAP1 LOG3 POP POP JUMP JUMPDEST PUSH2 0x25B1 PUSH2 0x249E JUMP JUMPDEST PUSH1 0x1 PUSH0 PUSH1 0x14 PUSH2 0x100 EXP DUP2 SLOAD DUP2 PUSH1 0xFF MUL NOT AND SWAP1 DUP4 ISZERO ISZERO MUL OR SWAP1 SSTORE POP PUSH32 0x62E78CEA01BEE320CD4E420270B5EA74000D11B0C9F74754EBDBFC544B05A258 PUSH2 0x25F4 PUSH2 0x260B JUMP JUMPDEST PUSH1 0x40 MLOAD PUSH2 0x2601 SWAP2 SWAP1 PUSH2 0x2C77 JUMP JUMPDEST PUSH1 0x40 MLOAD DUP1 SWAP2 SUB SWAP1 LOG1 JUMP JUMPDEST PUSH0 CALLER SWAP1 POP SWAP1 JUMP JUMPDEST PUSH2 0x261A PUSH2 0x615 JUMP JUMPDEST PUSH2 0x2659 JUMPI PUSH1 0x40 MLOAD PUSH32 0x8C379A000000000000000000000000000000000000000000000000000000000 DUP2 MSTORE PUSH1 0x4 ADD PUSH2 0x2650 SWAP1 PUSH2 0x3CA9 JUMP JUMPDEST PUSH1 0x40 MLOAD DUP1 SWAP2 SUB SWAP1 REVERT JUMPDEST JUMP JUMPDEST PUSH0 PUSH1 0x40 MLOAD SWAP1 POP SWAP1 JUMP JUMPDEST PUSH0 DUP1 REVERT JUMPDEST PUSH0 DUP1 REVERT JUMPDEST PUSH0 PUSH20 0xFFFFFFFFFFFFFFFFFFFFFFFFFFFFFFFFFFFFFFFF DUP3 AND SWAP1 POP SWAP2 SWAP1 POP JUMP JUMPDEST PUSH0 PUSH2 0x2695 DUP3 PUSH2 0x266C JUMP JUMPDEST SWAP1 POP SWAP2 SWAP1 POP JUMP JUMPDEST PUSH2 0x26A5 DUP2 PUSH2 0x268B JUMP JUMPDEST DUP2 EQ PUSH2 0x26AF JUMPI PUSH0 DUP1 REVERT JUMPDEST POP JUMP JUMPDEST PUSH0 DUP2 CALLDATALOAD SWAP1 POP PUSH2 0x26C0 DUP2 PUSH2 0x269C JUMP JUMPDEST SWAP3 SWAP2 POP POP JUMP JUMPDEST PUSH0 DUP2 SWAP1 POP SWAP2 SWAP1 POP JUMP JUMPDEST PUSH2 0x26D8 DUP2 PUSH2 0x26C6 JUMP JUMPDEST DUP2 EQ PUSH2 0x26E2 JUMPI PUSH0 DUP1 REVERT JUMPDEST POP JUMP JUMPDEST PUSH0 DUP2 CALLDATALOAD SWAP1 POP PUSH2 0x26F3 DUP2 PUSH2 0x26CF JUMP JUMPDEST SWAP3 SWAP2 POP POP JUMP JUMPDEST PUSH0 DUP1 PUSH1 0x40 DUP4 DUP6 SUB SLT ISZERO PUSH2 0x270F JUMPI PUSH2 0x270E PUSH2 0x2664 JUMP JUMPDEST JUMPDEST PUSH0 PUSH2 0x271C DUP6 DUP3 DUP7 ADD PUSH2 0x26B2 JUMP JUMPDEST SWAP3 POP POP PUSH1 0x20 PUSH2 0x272D DUP6 DUP3 DUP7 ADD PUSH2 0x26E5 JUMP JUMPDEST SWAP2 POP POP SWAP3 POP SWAP3 SWAP1 POP JUMP JUMPDEST PUSH0 DUP2 ISZERO ISZERO SWAP1 POP SWAP2 SWAP1 POP JUMP JUMPDEST PUSH2 0x274B DUP2 PUSH2 0x2737 JUMP JUMPDEST DUP3 MSTORE POP POP JUMP JUMPDEST PUSH0 PUSH1 0xFF DUP3 AND SWAP1 POP SWAP2 SWAP1 POP JUMP JUMPDEST PUSH2 0x2766 DUP2 PUSH2 0x2751 JUMP JUMPDEST DUP3 MSTORE POP POP JUMP JUMPDEST PUSH0 PUSH1 0x80 DUP3 ADD SWAP1 POP PUSH2 0x277F PUSH0 DUP4 ADD DUP8 PUSH2 0x2742 JUMP JUMPDEST PUSH2 0x278C PUSH1 0x20 DUP4 ADD DUP7 PUSH2 0x275D JUMP JUMPDEST PUSH2 0x2799 PUSH1 0x40 DUP4 ADD DUP6 PUSH2 0x2742 JUMP JUMPDEST PUSH2 0x27A6 PUSH1 0x60 DUP4 ADD DUP5 PUSH2 0x2742 JUMP JUMPDEST SWAP6 SWAP5 POP POP POP POP POP JUMP JUMPDEST PUSH2 0x27B8 DUP2 PUSH2 0x26C6 JUMP JUMPDEST DUP3 MSTORE POP POP JUMP JUMPDEST PUSH0 PUSH1 0x20 DUP3 ADD SWAP1 POP PUSH2 0x27D1 PUSH0 DUP4 ADD DUP5 PUSH2 0x27AF JUMP JUMPDEST SWAP3 SWAP2 POP POP JUMP JUMPDEST PUSH0 PUSH1 0x20 DUP3 ADD SWAP1 POP PUSH2 0x27EA PUSH0 DUP4 ADD DUP5 PUSH2 0x2742 JUMP JUMPDEST SWAP3 SWAP2 POP POP JUMP JUMPDEST PUSH0 DUP1 REVERT JUMPDEST PUSH0 PUSH1 0x1F NOT PUSH1 0x1F DUP4 ADD AND SWAP1 POP SWAP2 SWAP1 POP JUMP JUMPDEST PUSH32 0x4E487B7100000000000000000000000000000000000000000000000000000000 PUSH0 MSTORE PUSH1 0x41 PUSH1 0x4 MSTORE PUSH1 0x24 PUSH0 REVERT JUMPDEST PUSH2 0x283A DUP3 PUSH2 0x27F4 JUMP JUMPDEST DUP2 ADD DUP2 DUP2 LT PUSH8 0xFFFFFFFFFFFFFFFF DUP3 GT OR ISZERO PUSH2 0x2859 JUMPI PUSH2 0x2858 PUSH2 0x2804 JUMP JUMPDEST JUMPDEST DUP1 PUSH1 0x40 MSTORE POP POP POP JUMP JUMPDEST PUSH0 PUSH2 0x286B PUSH2 0x265B JUMP JUMPDEST SWAP1 POP PUSH2 0x2877 DUP3 DUP3 PUSH2 0x2831 JUMP JUMPDEST SWAP2 SWAP1 POP JUMP JUMPDEST PUSH0 PUSH8 0xFFFFFFFFFFFFFFFF DUP3 GT ISZERO PUSH2 0x2896 JUMPI PUSH2 0x2895 PUSH2 0x2804 JUMP JUMPDEST JUMPDEST PUSH1 0x20 DUP3 MUL SWAP1 POP PUSH1 0x20 DUP2 ADD SWAP1 POP SWAP2 SWAP1 POP JUMP JUMPDEST PUSH0 DUP1 REVERT JUMPDEST PUSH0 DUP1 REVERT JUMPDEST PUSH0 PUSH8 0xFFFFFFFFFFFFFFFF DUP3 GT ISZERO PUSH2 0x28C9 JUMPI PUSH2 0x28C8 PUSH2 0x2804 JUMP JUMPDEST JUMPDEST PUSH2 0x28D2 DUP3 PUSH2 0x27F4 JUMP JUMPDEST SWAP1 POP PUSH1 0x20 DUP2 ADD SWAP1 POP SWAP2 SWAP1 POP JUMP JUMPDEST DUP3 DUP2 DUP4 CALLDATACOPY PUSH0 DUP4 DUP4 ADD MSTORE POP POP POP JUMP JUMPDEST PUSH0 PUSH2 0x28FF PUSH2 0x28FA DUP5 PUSH2 0x28AF JUMP JUMPDEST PUSH2 0x2862 JUMP JUMPDEST SWAP1 POP DUP3 DUP2 MSTORE PUSH1 0x20 DUP2 ADD DUP5 DUP5 DUP5 ADD GT ISZERO PUSH2 0x291B JUMPI PUSH2 0x291A PUSH2 0x28AB JUMP JUMPDEST JUMPDEST PUSH2 0x2926 DUP5 DUP3 DUP6 PUSH2 0x28DF JUMP JUMPDEST POP SWAP4 SWAP3 POP POP POP JUMP JUMPDEST PUSH0 DUP3 PUSH1 0x1F DUP4 ADD SLT PUSH2 0x2942 JUMPI PUSH2 0x2941 PUSH2 0x27F0 JUMP JUMPDEST JUMPDEST DUP2 CALLDATALOAD PUSH2 0x2952 DUP5 DUP3 PUSH1 0x20 DUP7 ADD PUSH2 0x28ED JUMP JUMPDEST SWAP2 POP POP SWAP3 SWAP2 POP POP JUMP JUMPDEST PUSH0 PUSH2 0x296D PUSH2 0x2968 DUP5 PUSH2 0x287C JUMP JUMPDEST PUSH2 0x2862 JUMP JUMPDEST SWAP1 POP DUP1 DUP4 DUP3 MSTORE PUSH1 0x20 DUP3 ADD SWAP1 POP PUSH1 0x20 DUP5 MUL DUP4 ADD DUP6 DUP2 GT ISZERO PUSH2 0x2990 JUMPI PUSH2 0x298F PUSH2 0x28A7 JUMP JUMPDEST JUMPDEST DUP4 JUMPDEST DUP2 DUP2 LT ISZERO PUSH2 0x29D7 JUMPI DUP1 CALLDATALOAD PUSH8 0xFFFFFFFFFFFFFFFF DUP2 GT ISZERO PUSH2 0x29B5 JUMPI PUSH2 0x29B4 PUSH2 0x27F0 JUMP JUMPDEST JUMPDEST DUP1 DUP7 ADD PUSH2 0x29C2 DUP10 DUP3 PUSH2 0x292E JUMP JUMPDEST DUP6 MSTORE PUSH1 0x20 DUP6 ADD SWAP5 POP POP POP PUSH1 0x20 DUP2 ADD SWAP1 POP PUSH2 0x2992 JUMP JUMPDEST POP POP POP SWAP4 SWAP3 POP POP POP JUMP JUMPDEST PUSH0 DUP3 PUSH1 0x1F DUP4 ADD SLT PUSH2 0x29F5 JUMPI PUSH2 0x29F4 PUSH2 0x27F0 JUMP JUMPDEST JUMPDEST DUP2 CALLDATALOAD PUSH2 0x2A05 DUP5 DUP3 PUSH1 0x20 DUP7 ADD PUSH2 0x295B JUMP JUMPDEST SWAP2 POP POP SWAP3 SWAP2 POP POP JUMP JUMPDEST PUSH0 DUP1 PUSH1 0x40 DUP4 DUP6 SUB SLT ISZERO PUSH2 0x2A24 JUMPI PUSH2 0x2A23 PUSH2 0x2664 JUMP JUMPDEST JUMPDEST PUSH0 PUSH2 0x2A31 DUP6 DUP3 DUP7 ADD PUSH2 0x26E5 JUMP JUMPDEST SWAP3 POP POP PUSH1 0x20 DUP4 ADD CALLDATALOAD PUSH8 0xFFFFFFFFFFFFFFFF DUP2 GT ISZERO PUSH2 0x2A52 JUMPI PUSH2 0x2A51 PUSH2 0x2668 JUMP JUMPDEST JUMPDEST PUSH2 0x2A5E DUP6 DUP3 DUP7 ADD PUSH2 0x29E1 JUMP JUMPDEST SWAP2 POP POP SWAP3 POP SWAP3 SWAP1 POP JUMP JUMPDEST PUSH0 PUSH1 0x20 DUP3 DUP5 SUB SLT ISZERO PUSH2 0x2A7D JUMPI PUSH2 0x2A7C PUSH2 0x2664 JUMP JUMPDEST JUMPDEST PUSH0 PUSH2 0x2A8A DUP5 DUP3 DUP6 ADD PUSH2 0x26E5 JUMP JUMPDEST SWAP2 POP POP SWAP3 SWAP2 POP POP JUMP JUMPDEST PUSH0 DUP1 PUSH0 DUP1 PUSH0 DUP1 PUSH0 PUSH1 0xE0 DUP9 DUP11 SUB SLT ISZERO PUSH2 0x2AAE JUMPI PUSH2 0x2AAD PUSH2 0x2664 JUMP JUMPDEST JUMPDEST PUSH0 DUP9 ADD CALLDATALOAD PUSH8 0xFFFFFFFFFFFFFFFF DUP2 GT ISZERO PUSH2 0x2ACB JUMPI PUSH2 0x2ACA PUSH2 0x2668 JUMP JUMPDEST JUMPDEST PUSH2 0x2AD7 DUP11 DUP3 DUP12 ADD PUSH2 0x292E JUMP JUMPDEST SWAP8 POP POP PUSH1 0x20 DUP9 ADD CALLDATALOAD PUSH8 0xFFFFFFFFFFFFFFFF DUP2 GT ISZERO PUSH2 0x2AF8 JUMPI PUSH2 0x2AF7 PUSH2 0x2668 JUMP JUMPDEST JUMPDEST PUSH2 0x2B04 DUP11 DUP3 DUP12 ADD PUSH2 0x29E1 JUMP JUMPDEST SWAP7 POP POP PUSH1 0x40 DUP9 ADD CALLDATALOAD PUSH8 0xFFFFFFFFFFFFFFFF DUP2 GT ISZERO PUSH2 0x2B25 JUMPI PUSH2 0x2B24 PUSH2 0x2668 JUMP JUMPDEST JUMPDEST PUSH2 0x2B31 DUP11 DUP3 DUP12 ADD PUSH2 0x29E1 JUMP JUMPDEST SWAP6 POP POP PUSH1 0x60 DUP9 ADD CALLDATALOAD PUSH8 0xFFFFFFFFFFFFFFFF DUP2 GT ISZERO PUSH2 0x2B52 JUMPI PUSH2 0x2B51 PUSH2 0x2668 JUMP JUMPDEST JUMPDEST PUSH2 0x2B5E DUP11 DUP3 DUP12 ADD PUSH2 0x29E1 JUMP JUMPDEST SWAP5 POP POP PUSH1 0x80 DUP9 ADD CALLDATALOAD PUSH8 0xFFFFFFFFFFFFFFFF DUP2 GT ISZERO PUSH2 0x2B7F JUMPI PUSH2 0x2B7E PUSH2 0x2668 JUMP JUMPDEST JUMPDEST PUSH2 0x2B8B DUP11 DUP3 DUP12 ADD PUSH2 0x29E1 JUMP JUMPDEST SWAP4 POP POP PUSH1 0xA0 DUP9 ADD CALLDATALOAD PUSH8 0xFFFFFFFFFFFFFFFF DUP2 GT ISZERO PUSH2 0x2BAC JUMPI PUSH2 0x2BAB PUSH2 0x2668 JUMP JUMPDEST JUMPDEST PUSH2 0x2BB8 DUP11 DUP3 DUP12 ADD PUSH2 0x29E1 JUMP JUMPDEST SWAP3 POP POP PUSH1 0xC0 DUP9 ADD CALLDATALOAD PUSH8 0xFFFFFFFFFFFFFFFF DUP2 GT ISZERO PUSH2 0x2BD9 JUMPI PUSH2 0x2BD8 PUSH2 0x2668 JUMP JUMPDEST JUMPDEST PUSH2 0x2BE5 DUP11 DUP3 DUP12 ADD PUSH2 0x29E1 JUMP JUMPDEST SWAP2 POP POP SWAP3 SWAP6 SWAP9 SWAP2 SWAP5 SWAP8 POP SWAP3 SWAP6 POP JUMP JUMPDEST PUSH0 DUP2 SWAP1 POP SWAP2 SWAP1 POP JUMP JUMPDEST PUSH0 PUSH2 0x2C17 PUSH2 0x2C12 PUSH2 0x2C0D DUP5 PUSH2 0x266C JUMP JUMPDEST PUSH2 0x2BF4 JUMP JUMPDEST PUSH2 0x266C JUMP JUMPDEST SWAP1 POP SWAP2 SWAP1 POP JUMP JUMPDEST PUSH0 PUSH2 0x2C28 DUP3 PUSH2 0x2BFD JUMP JUMPDEST SWAP1 POP SWAP2 SWAP1 POP JUMP JUMPDEST PUSH0 PUSH2 0x2C39 DUP3 PUSH2 0x2C1E JUMP JUMPDEST SWAP1 POP SWAP2 SWAP1 POP JUMP JUMPDEST PUSH2 0x2C49 DUP2 PUSH2 0x2C2F JUMP JUMPDEST DUP3 MSTORE POP POP JUMP JUMPDEST PUSH0 PUSH1 0x20 DUP3 ADD SWAP1 POP PUSH2 0x2C62 PUSH0 DUP4 ADD DUP5 PUSH2 0x2C40 JUMP JUMPDEST SWAP3 SWAP2 POP POP JUMP JUMPDEST PUSH2 0x2C71 DUP2 PUSH2 0x268B JUMP JUMPDEST DUP3 MSTORE POP POP JUMP JUMPDEST PUSH0 PUSH1 0x20 DUP3 ADD SWAP1 POP PUSH2 0x2C8A PUSH0 DUP4 ADD DUP5 PUSH2 0x2C68 JUMP JUMPDEST SWAP3 SWAP2 POP POP JUMP JUMPDEST PUSH0 PUSH1 0x20 DUP3 DUP5 SUB SLT ISZERO PUSH2 0x2CA5 JUMPI PUSH2 0x2CA4 PUSH2 0x2664 JUMP JUMPDEST JUMPDEST PUSH0 PUSH2 0x2CB2 DUP5 DUP3 DUP6 ADD PUSH2 0x26B2 JUMP JUMPDEST SWAP2 POP POP SWAP3 SWAP2 POP POP JUMP JUMPDEST PUSH0 DUP2 MLOAD SWAP1 POP SWAP2 SWAP1 POP JUMP JUMPDEST PUSH0 DUP3 DUP3 MSTORE PUSH1 0x20 DUP3 ADD SWAP1 POP SWAP3 SWAP2 POP POP JUMP JUMPDEST DUP3 DUP2 DUP4 MCOPY PUSH0 DUP4 DUP4 ADD MSTORE POP POP POP JUMP JUMPDEST PUSH0 PUSH2 0x2CED DUP3 PUSH2 0x2CBB JUMP JUMPDEST PUSH2 0x2CF7 DUP2 DUP6 PUSH2 0x2CC5 JUMP JUMPDEST SWAP4 POP PUSH2 0x2D07 DUP2 DUP6 PUSH1 0x20 DUP7 ADD PUSH2 0x2CD5 JUMP JUMPDEST PUSH2 0x2D10 DUP2 PUSH2 0x27F4 JUMP JUMPDEST DUP5 ADD SWAP2 POP POP SWAP3 SWAP2 POP POP JUMP JUMPDEST PUSH0 PUSH1 0xC0 DUP3 ADD SWAP1 POP PUSH2 0x2D2E PUSH0 DUP4 ADD DUP10 PUSH2 0x2C68 JUMP JUMPDEST DUP2 DUP2 SUB PUSH1 0x20 DUP4 ADD MSTORE PUSH2 0x2D40 DUP2 DUP9 PUSH2 0x2CE3 JUMP JUMPDEST SWAP1 POP PUSH2 0x2D4F PUSH1 0x40 DUP4 ADD DUP8 PUSH2 0x2742 JUMP JUMPDEST PUSH2 0x2D5C PUSH1 0x60 DUP4 ADD DUP7 PUSH2 0x27AF JUMP JUMPDEST PUSH2 0x2D69 PUSH1 0x80 DUP4 ADD DUP6 PUSH2 0x27AF JUMP JUMPDEST PUSH2 0x2D76 PUSH1 0xA0 DUP4 ADD DUP5 PUSH2 0x27AF JUMP JUMPDEST SWAP8 SWAP7 POP POP POP POP POP POP POP JUMP JUMPDEST PUSH0 DUP1 PUSH1 0x40 DUP4 DUP6 SUB SLT ISZERO PUSH2 0x2D97 JUMPI PUSH2 0x2D96 PUSH2 0x2664 JUMP JUMPDEST JUMPDEST PUSH0 PUSH2 0x2DA4 DUP6 DUP3 DUP7 ADD PUSH2 0x26E5 JUMP JUMPDEST SWAP3 POP POP PUSH1 0x20 PUSH2 0x2DB5 DUP6 DUP3 DUP7 ADD PUSH2 0x26E5 JUMP JUMPDEST SWAP2 POP POP SWAP3 POP SWAP3 SWAP1 POP JUMP JUMPDEST PUSH0 DUP2 SWAP1 POP SWAP2 SWAP1 POP JUMP JUMPDEST PUSH2 0x2DD1 DUP2 PUSH2 0x2DBF JUMP JUMPDEST DUP3 MSTORE POP POP JUMP JUMPDEST PUSH0 PUSH1 0xE0 DUP3 ADD SWAP1 POP PUSH2 0x2DEA PUSH0 DUP4 ADD DUP11 PUSH2 0x27AF JUMP JUMPDEST DUP2 DUP2 SUB PUSH1 0x20 DUP4 ADD MSTORE PUSH2 0x2DFC DUP2 DUP10 PUSH2 0x2CE3 JUMP JUMPDEST SWAP1 POP DUP2 DUP2 SUB PUSH1 0x40 DUP4 ADD MSTORE PUSH2 0x2E10 DUP2 DUP9 PUSH2 0x2CE3 JUMP JUMPDEST SWAP1 POP DUP2 DUP2 SUB PUSH1 0x60 DUP4 ADD MSTORE PUSH2 0x2E24 DUP2 DUP8 PUSH2 0x2CE3 JUMP JUMPDEST SWAP1 POP DUP2 DUP2 SUB PUSH1 0x80 DUP4 ADD MSTORE PUSH2 0x2E38 DUP2 DUP7 PUSH2 0x2CE3 JUMP JUMPDEST SWAP1 POP DUP2 DUP2 SUB PUSH1 0xA0 DUP4 ADD MSTORE PUSH2 0x2E4C DUP2 DUP6 PUSH2 0x2CE3 JUMP JUMPDEST SWAP1 POP PUSH2 0x2E5B PUSH1 0xC0 DUP4 ADD DUP5 PUSH2 0x2DC8 JUMP JUMPDEST SWAP9 SWAP8 POP POP POP POP POP POP POP POP JUMP JUMPDEST PUSH32 0x496E73756666696369656E742067617320666565000000000000000000000000 PUSH0 DUP3 ADD MSTORE POP JUMP JUMPDEST PUSH0 PUSH2 0x2E9B PUSH1 0x14 DUP4 PUSH2 0x2CC5 JUMP JUMPDEST SWAP2 POP PUSH2 0x2EA6 DUP3 PUSH2 0x2E67 JUMP JUMPDEST PUSH1 0x20 DUP3 ADD SWAP1 POP SWAP2 SWAP1 POP JUMP JUMPDEST PUSH0 PUSH1 0x20 DUP3 ADD SWAP1 POP DUP2 DUP2 SUB PUSH0 DUP4 ADD MSTORE PUSH2 0x2EC8 DUP2 PUSH2 0x2E8F JUMP JUMPDEST SWAP1 POP SWAP2 SWAP1 POP JUMP JUMPDEST PUSH32 0x4E487B7100000000000000000000000000000000000000000000000000000000 PUSH0 MSTORE PUSH1 0x11 PUSH1 0x4 MSTORE PUSH1 0x24 PUSH0 REVERT JUMPDEST PUSH0 PUSH2 0x2F06 DUP3 PUSH2 0x26C6 JUMP JUMPDEST SWAP2 POP PUSH2 0x2F11 DUP4 PUSH2 0x26C6 JUMP JUMPDEST SWAP3 POP DUP3 DUP3 ADD SWAP1 POP DUP1 DUP3 GT ISZERO PUSH2 0x2F29 JUMPI PUSH2 0x2F28 PUSH2 0x2ECF JUMP JUMPDEST JUMPDEST SWAP3 SWAP2 POP POP JUMP JUMPDEST PUSH0 PUSH2 0x2F39 DUP3 PUSH2 0x26C6 JUMP JUMPDEST SWAP2 POP PUSH2 0x2F44 DUP4 PUSH2 0x26C6 JUMP JUMPDEST SWAP3 POP DUP3 DUP3 SUB SWAP1 POP DUP2 DUP2 GT ISZERO PUSH2 0x2F5C JUMPI PUSH2 0x2F5B PUSH2 0x2ECF JUMP JUMPDEST JUMPDEST SWAP3 SWAP2 POP POP JUMP JUMPDEST PUSH32 0x55736572206E6F7420656E726F6C6C656420696E207468697320636F75727365 PUSH0 DUP3 ADD MSTORE POP JUMP JUMPDEST PUSH0 PUSH2 0x2F96 PUSH1 0x20 DUP4 PUSH2 0x2CC5 JUMP JUMPDEST SWAP2 POP PUSH2 0x2FA1 DUP3 PUSH2 0x2F62 JUMP JUMPDEST PUSH1 0x20 DUP3 ADD SWAP1 POP SWAP2 SWAP1 POP JUMP JUMPDEST PUSH0 PUSH1 0x20 DUP3 ADD SWAP1 POP DUP2 DUP2 SUB PUSH0 DUP4 ADD MSTORE PUSH2 0x2FC3 DUP2 PUSH2 0x2F8A JUMP JUMPDEST SWAP1 POP SWAP2 SWAP1 POP JUMP JUMPDEST PUSH32 0x4D6178696D756D20617474656D70747320726561636865640000000000000000 PUSH0 DUP3 ADD MSTORE POP JUMP JUMPDEST PUSH0 PUSH2 0x2FFE PUSH1 0x18 DUP4 PUSH2 0x2CC5 JUMP JUMPDEST SWAP2 POP PUSH2 0x3009 DUP3 PUSH2 0x2FCA JUMP JUMPDEST PUSH1 0x20 DUP3 ADD SWAP1 POP SWAP2 SWAP1 POP JUMP JUMPDEST PUSH0 PUSH1 0x20 DUP3 ADD SWAP1 POP DUP2 DUP2 SUB PUSH0 DUP4 ADD MSTORE PUSH2 0x302B DUP2 PUSH2 0x2FF2 JUMP JUMPDEST SWAP1 POP SWAP2 SWAP1 POP JUMP JUMPDEST PUSH32 0x557365722068617320616C726561647920706173736564207468697320636F75 PUSH0 DUP3 ADD MSTORE PUSH32 0x7273650000000000000000000000000000000000000000000000000000000000 PUSH1 0x20 DUP3 ADD MSTORE POP JUMP JUMPDEST PUSH0 PUSH2 0x308C PUSH1 0x23 DUP4 PUSH2 0x2CC5 JUMP JUMPDEST SWAP2 POP PUSH2 0x3097 DUP3 PUSH2 0x3032 JUMP JUMPDEST PUSH1 0x40 DUP3 ADD SWAP1 POP SWAP2 SWAP1 POP JUMP JUMPDEST PUSH0 PUSH1 0x20 DUP3 ADD SWAP1 POP DUP2 DUP2 SUB PUSH0 DUP4 ADD MSTORE PUSH2 0x30B9 DUP2 PUSH2 0x3080 JUMP JUMPDEST SWAP1 POP SWAP2 SWAP1 POP JUMP JUMPDEST PUSH0 PUSH2 0x30CA DUP3 PUSH2 0x2751 JUMP JUMPDEST SWAP2 POP PUSH1 0xFF DUP3 SUB PUSH2 0x30DD JUMPI PUSH2 0x30DC PUSH2 0x2ECF JUMP JUMPDEST JUMPDEST PUSH1 0x1 DUP3 ADD SWAP1 POP SWAP2 SWAP1 POP JUMP JUMPDEST PUSH32 0x4E487B7100000000000000000000000000000000000000000000000000000000 PUSH0 MSTORE PUSH1 0x22 PUSH1 0x4 MSTORE PUSH1 0x24 PUSH0 REVERT JUMPDEST PUSH0 PUSH1 0x2 DUP3 DIV SWAP1 POP PUSH1 0x1 DUP3 AND DUP1 PUSH2 0x312C JUMPI PUSH1 0x7F DUP3 AND SWAP2 POP JUMPDEST PUSH1 0x20 DUP3 LT DUP2 SUB PUSH2 0x313F JUMPI PUSH2 0x313E PUSH2 0x30E8 JUMP JUMPDEST JUMPDEST POP SWAP2 SWAP1 POP JUMP JUMPDEST PUSH32 0x416E7377657220636F756E74206D69736D617463680000000000000000000000 PUSH0 DUP3 ADD MSTORE POP JUMP JUMPDEST PUSH0 PUSH2 0x3179 PUSH1 0x15 DUP4 PUSH2 0x2CC5 JUMP JUMPDEST SWAP2 POP PUSH2 0x3184 DUP3 PUSH2 0x3145 JUMP JUMPDEST PUSH1 0x20 DUP3 ADD SWAP1 POP SWAP2 SWAP1 POP JUMP JUMPDEST PUSH0 PUSH1 0x20 DUP3 ADD SWAP1 POP DUP2 DUP2 SUB PUSH0 DUP4 ADD MSTORE PUSH2 0x31A6 DUP2 PUSH2 0x316D JUMP JUMPDEST SWAP1 POP SWAP2 SWAP1 POP JUMP JUMPDEST PUSH32 0x4E487B7100000000000000000000000000000000000000000000000000000000 PUSH0 MSTORE PUSH1 0x32 PUSH1 0x4 MSTORE PUSH1 0x24 PUSH0 REVERT JUMPDEST PUSH0 DUP2 SWAP1 POP SWAP3 SWAP2 POP POP JUMP JUMPDEST PUSH0 PUSH2 0x31EE DUP3 PUSH2 0x2CBB JUMP JUMPDEST PUSH2 0x31F8 DUP2 DUP6 PUSH2 0x31DA JUMP JUMPDEST SWAP4 POP PUSH2 0x3208 DUP2 DUP6 PUSH1 0x20 DUP7 ADD PUSH2 0x2CD5 JUMP JUMPDEST DUP1 DUP5 ADD SWAP2 POP POP SWAP3 SWAP2 POP POP JUMP JUMPDEST PUSH0 PUSH2 0x321F DUP3 DUP5 PUSH2 0x31E4 JUMP JUMPDEST SWAP2 POP DUP2 SWAP1 POP SWAP3 SWAP2 POP POP JUMP JUMPDEST PUSH0 PUSH2 0x3234 DUP3 PUSH2 0x26C6 JUMP JUMPDEST SWAP2 POP PUSH32 0xFFFFFFFFFFFFFFFFFFFFFFFFFFFFFFFFFFFFFFFFFFFFFFFFFFFFFFFFFFFFFFFF DUP3 SUB PUSH2 0x3266 JUMPI PUSH2 0x3265 PUSH2 0x2ECF JUMP JUMPDEST JUMPDEST PUSH1 0x1 DUP3 ADD SWAP1 POP SWAP2 SWAP1 POP JUMP JUMPDEST PUSH0 DUP2 SWAP1 POP SWAP3 SWAP2 POP POP JUMP JUMPDEST POP JUMP JUMPDEST PUSH0 PUSH2 0x3289 PUSH0 DUP4 PUSH2 0x3271 JUMP JUMPDEST SWAP2 POP PUSH2 0x3294 DUP3 PUSH2 0x327B JUMP JUMPDEST PUSH0 DUP3 ADD SWAP1 POP SWAP2 SWAP1 POP JUMP JUMPDEST PUSH0 PUSH2 0x32A8 DUP3 PUSH2 0x327E JUMP JUMPDEST SWAP2 POP DUP2 SWAP1 POP SWAP2 SWAP1 POP JUMP JUMPDEST PUSH32 0x4661696C656420746F2073656E64204D414E4400000000000000000000000000 PUSH0 DUP3 ADD MSTORE POP JUMP JUMPDEST PUSH0 PUSH2 0x32E6 PUSH1 0x13 DUP4 PUSH2 0x2CC5 JUMP JUMPDEST SWAP2 POP PUSH2 0x32F1 DUP3 PUSH2 0x32B2 JUMP JUMPDEST PUSH1 0x20 DUP3 ADD SWAP1 POP SWAP2 SWAP1 POP JUMP JUMPDEST PUSH0 PUSH1 0x20 DUP3 ADD SWAP1 POP DUP2 DUP2 SUB PUSH0 DUP4 ADD MSTORE PUSH2 0x3313 DUP2 PUSH2 0x32DA JUMP JUMPDEST SWAP1 POP SWAP2 SWAP1 POP JUMP JUMPDEST PUSH0 DUP2 MLOAD SWAP1 POP PUSH2 0x3328 DUP2 PUSH2 0x26CF JUMP JUMPDEST SWAP3 SWAP2 POP POP JUMP JUMPDEST PUSH0 PUSH1 0x20 DUP3 DUP5 SUB SLT ISZERO PUSH2 0x3343 JUMPI PUSH2 0x3342 PUSH2 0x2664 JUMP JUMPDEST JUMPDEST PUSH0 PUSH2 0x3350 DUP5 DUP3 DUP6 ADD PUSH2 0x331A JUMP JUMPDEST SWAP2 POP POP SWAP3 SWAP2 POP POP JUMP JUMPDEST PUSH32 0x496E73756666696369656E742072657075746174696F6E20746F20656E726F6C PUSH0 DUP3 ADD MSTORE PUSH32 0x6C00000000000000000000000000000000000000000000000000000000000000 PUSH1 0x20 DUP3 ADD MSTORE POP JUMP JUMPDEST PUSH0 PUSH2 0x33B3 PUSH1 0x21 DUP4 PUSH2 0x2CC5 JUMP JUMPDEST SWAP2 POP PUSH2 0x33BE DUP3 PUSH2 0x3359 JUMP JUMPDEST PUSH1 0x40 DUP3 ADD SWAP1 POP SWAP2 SWAP1 POP JUMP JUMPDEST PUSH0 PUSH1 0x20 DUP3 ADD SWAP1 POP DUP2 DUP2 SUB PUSH0 DUP4 ADD MSTORE PUSH2 0x33E0 DUP2 PUSH2 0x33A7 JUMP JUMPDEST SWAP1 POP SWAP2 SWAP1 POP JUMP JUMPDEST PUSH32 0x436F75727365206E6F7420617070726F76656400000000000000000000000000 PUSH0 DUP3 ADD MSTORE POP JUMP JUMPDEST PUSH0 PUSH2 0x341B PUSH1 0x13 DUP4 PUSH2 0x2CC5 JUMP JUMPDEST SWAP2 POP PUSH2 0x3426 DUP3 PUSH2 0x33E7 JUMP JUMPDEST PUSH1 0x20 DUP3 ADD SWAP1 POP SWAP2 SWAP1 POP JUMP JUMPDEST PUSH0 PUSH1 0x20 DUP3 ADD SWAP1 POP DUP2 DUP2 SUB PUSH0 DUP4 ADD MSTORE PUSH2 0x3448 DUP2 PUSH2 0x340F JUMP JUMPDEST SWAP1 POP SWAP2 SWAP1 POP JUMP JUMPDEST PUSH32 0x416C726561647920656E726F6C6C656400000000000000000000000000000000 PUSH0 DUP3 ADD MSTORE POP JUMP JUMPDEST PUSH0 PUSH2 0x3483 PUSH1 0x10 DUP4 PUSH2 0x2CC5 JUMP JUMPDEST SWAP2 POP PUSH2 0x348E DUP3 PUSH2 0x344F JUMP JUMPDEST PUSH1 0x20 DUP3 ADD SWAP1 POP SWAP2 SWAP1 POP JUMP JUMPDEST PUSH0 PUSH1 0x20 DUP3 ADD SWAP1 POP DUP2 DUP2 SUB PUSH0 DUP4 ADD MSTORE PUSH2 0x34B0 DUP2 PUSH2 0x3477 JUMP JUMPDEST SWAP1 POP SWAP2 SWAP1 POP JUMP JUMPDEST PUSH32 0x436F7572736520616C726561647920617070726F766564000000000000000000 PUSH0 DUP3 ADD MSTORE POP JUMP JUMPDEST PUSH0 PUSH2 0x34EB PUSH1 0x17 DUP4 PUSH2 0x2CC5 JUMP JUMPDEST SWAP2 POP PUSH2 0x34F6 DUP3 PUSH2 0x34B7 JUMP JUMPDEST PUSH1 0x20 DUP3 ADD SWAP1 POP SWAP2 SWAP1 POP JUMP JUMPDEST PUSH0 PUSH1 0x20 DUP3 ADD SWAP1 POP DUP2 DUP2 SUB PUSH0 DUP4 ADD MSTORE PUSH2 0x3518 DUP2 PUSH2 0x34DF JUMP JUMPDEST SWAP1 POP SWAP2 SWAP1 POP JUMP JUMPDEST PUSH32 0x496E73756666696369656E742072657075746174696F6E20746F206372656174 PUSH0 DUP3 ADD MSTORE PUSH32 0x6520636F75727365000000000000000000000000000000000000000000000000 PUSH1 0x20 DUP3 ADD MSTORE POP JUMP JUMPDEST PUSH0 PUSH2 0x3579 PUSH1 0x28 DUP4 PUSH2 0x2CC5 JUMP JUMPDEST SWAP2 POP PUSH2 0x3584 DUP3 PUSH2 0x351F JUMP JUMPDEST PUSH1 0x40 DUP3 ADD SWAP1 POP SWAP2 SWAP1 POP JUMP JUMPDEST PUSH0 PUSH1 0x20 DUP3 ADD SWAP1 POP DUP2 DUP2 SUB PUSH0 DUP4 ADD MSTORE PUSH2 0x35A6 DUP2 PUSH2 0x356D JUMP JUMPDEST SWAP1 POP SWAP2 SWAP1 POP JUMP JUMPDEST PUSH32 0x496E76616C6964207175697A2064617461000000000000000000000000000000 PUSH0 DUP3 ADD MSTORE POP JUMP JUMPDEST PUSH0 PUSH2 0x35E1 PUSH1 0x11 DUP4 PUSH2 0x2CC5 JUMP JUMPDEST SWAP2 POP PUSH2 0x35EC DUP3 PUSH2 0x35AD JUMP JUMPDEST PUSH1 0x20 DUP3 ADD SWAP1 POP SWAP2 SWAP1 POP JUMP JUMPDEST PUSH0 PUSH1 0x20 DUP3 ADD SWAP1 POP DUP2 DUP2 SUB PUSH0 DUP4 ADD MSTORE PUSH2 0x360E DUP2 PUSH2 0x35D5 JUMP JUMPDEST SWAP1 POP SWAP2 SWAP1 POP JUMP JUMPDEST PUSH0 DUP2 SWAP1 POP DUP2 PUSH0 MSTORE PUSH1 0x20 PUSH0 KECCAK256 SWAP1 POP SWAP2 SWAP1 POP JUMP JUMPDEST PUSH0 PUSH1 0x20 PUSH1 0x1F DUP4 ADD DIV SWAP1 POP SWAP2 SWAP1 POP JUMP JUMPDEST PUSH0 DUP3 DUP3 SHL SWAP1 POP SWAP3 SWAP2 POP POP JUMP JUMPDEST PUSH0 PUSH1 0x8 DUP4 MUL PUSH2 0x3671 PUSH32 0xFFFFFFFFFFFFFFFFFFFFFFFFFFFFFFFFFFFFFFFFFFFFFFFFFFFFFFFFFFFFFFFF DUP3 PUSH2 0x3636 JUMP JUMPDEST PUSH2 0x367B DUP7 DUP4 PUSH2 0x3636 JUMP JUMPDEST SWAP6 POP DUP1 NOT DUP5 AND SWAP4 POP DUP1 DUP7 AND DUP5 OR SWAP3 POP POP POP SWAP4 SWAP3 POP POP POP JUMP JUMPDEST PUSH0 PUSH2 0x36AD PUSH2 0x36A8 PUSH2 0x36A3 DUP5 PUSH2 0x26C6 JUMP JUMPDEST PUSH2 0x2BF4 JUMP JUMPDEST PUSH2 0x26C6 JUMP JUMPDEST SWAP1 POP SWAP2 SWAP1 POP JUMP JUMPDEST PUSH0 DUP2 SWAP1 POP SWAP2 SWAP1 POP JUMP JUMPDEST PUSH2 0x36C6 DUP4 PUSH2 0x3693 JUMP JUMPDEST PUSH2 0x36DA PUSH2 0x36D2 DUP3 PUSH2 0x36B4 JUMP JUMPDEST DUP5 DUP5 SLOAD PUSH2 0x3642 JUMP JUMPDEST DUP3 SSTORE POP POP POP POP JUMP JUMPDEST PUSH0 SWAP1 JUMP JUMPDEST PUSH2 0x36EE PUSH2 0x36E2 JUMP JUMPDEST PUSH2 0x36F9 DUP2 DUP5 DUP5 PUSH2 0x36BD JUMP JUMPDEST POP POP POP JUMP JUMPDEST JUMPDEST DUP2 DUP2 LT ISZERO PUSH2 0x371C JUMPI PUSH2 0x3711 PUSH0 DUP3 PUSH2 0x36E6 JUMP JUMPDEST PUSH1 0x1 DUP2 ADD SWAP1 POP PUSH2 0x36FF JUMP JUMPDEST POP POP JUMP JUMPDEST PUSH1 0x1F DUP3 GT ISZERO PUSH2 0x3761 JUMPI PUSH2 0x3732 DUP2 PUSH2 0x3615 JUMP JUMPDEST PUSH2 0x373B DUP5 PUSH2 0x3627 JUMP JUMPDEST DUP2 ADD PUSH1 0x20 DUP6 LT ISZERO PUSH2 0x374A JUMPI DUP2 SWAP1 POP JUMPDEST PUSH2 0x375E PUSH2 0x3756 DUP6 PUSH2 0x3627 JUMP JUMPDEST DUP4 ADD DUP3 PUSH2 0x36FE JUMP JUMPDEST POP POP JUMPDEST POP POP POP JUMP JUMPDEST PUSH0 DUP3 DUP3 SHR SWAP1 POP SWAP3 SWAP2 POP POP JUMP JUMPDEST PUSH0 PUSH2 0x3781 PUSH0 NOT DUP5 PUSH1 0x8 MUL PUSH2 0x3766 JUMP JUMPDEST NOT DUP1 DUP4 AND SWAP2 POP POP SWAP3 SWAP2 POP POP JUMP JUMPDEST PUSH0 PUSH2 0x3799 DUP4 DUP4 PUSH2 0x3772 JUMP JUMPDEST SWAP2 POP DUP3 PUSH1 0x2 MUL DUP3 OR SWAP1 POP SWAP3 SWAP2 POP POP JUMP JUMPDEST PUSH2 0x37B2 DUP3 PUSH2 0x2CBB JUMP JUMPDEST PUSH8 0xFFFFFFFFFFFFFFFF DUP2 GT ISZERO PUSH2 0x37CB JUMPI PUSH2 0x37CA PUSH2 0x2804 JUMP JUMPDEST JUMPDEST PUSH2 0x37D5 DUP3 SLOAD PUSH2 0x3115 JUMP JUMPDEST PUSH2 0x37E0 DUP3 DUP3 DUP6 PUSH2 0x3720 JUMP JUMPDEST PUSH0 PUSH1 0x20 SWAP1 POP PUSH1 0x1F DUP4 GT PUSH1 0x1 DUP2 EQ PUSH2 0x3811 JUMPI PUSH0 DUP5 ISZERO PUSH2 0x37FF JUMPI DUP3 DUP8 ADD MLOAD SWAP1 POP JUMPDEST PUSH2 0x3809 DUP6 DUP3 PUSH2 0x378E JUMP JUMPDEST DUP7 SSTORE POP PUSH2 0x3870 JUMP JUMPDEST PUSH1 0x1F NOT DUP5 AND PUSH2 0x381F DUP7 PUSH2 0x3615 JUMP JUMPDEST PUSH0 JUMPDEST DUP3 DUP2 LT ISZERO PUSH2 0x3846 JUMPI DUP5 DUP10 ADD MLOAD DUP3 SSTORE PUSH1 0x1 DUP3 ADD SWAP2 POP PUSH1 0x20 DUP6 ADD SWAP5 POP PUSH1 0x20 DUP2 ADD SWAP1 POP PUSH2 0x3821 JUMP JUMPDEST DUP7 DUP4 LT ISZERO PUSH2 0x3863 JUMPI DUP5 DUP10 ADD MLOAD PUSH2 0x385F PUSH1 0x1F DUP10 AND DUP3 PUSH2 0x3772 JUMP JUMPDEST DUP4 SSTORE POP JUMPDEST PUSH1 0x1 PUSH1 0x2 DUP9 MUL ADD DUP9 SSTORE POP POP POP JUMPDEST POP POP POP POP POP POP JUMP JUMPDEST PUSH32 0x4100000000000000000000000000000000000000000000000000000000000000 PUSH0 DUP3 ADD MSTORE POP JUMP JUMPDEST PUSH0 PUSH2 0x38AC PUSH1 0x1 DUP4 PUSH2 0x31DA JUMP JUMPDEST SWAP2 POP PUSH2 0x38B7 DUP3 PUSH2 0x3878 JUMP JUMPDEST PUSH1 0x1 DUP3 ADD SWAP1 POP SWAP2 SWAP1 POP JUMP JUMPDEST PUSH0 PUSH2 0x38CC DUP3 PUSH2 0x38A0 JUMP JUMPDEST SWAP2 POP DUP2 SWAP1 POP SWAP2 SWAP1 POP JUMP JUMPDEST PUSH32 0x4200000000000000000000000000000000000000000000000000000000000000 PUSH0 DUP3 ADD MSTORE POP JUMP JUMPDEST PUSH0 PUSH2 0x390A PUSH1 0x1 DUP4 PUSH2 0x31DA JUMP JUMPDEST SWAP2 POP PUSH2 0x3915 DUP3 PUSH2 0x38D6 JUMP JUMPDEST PUSH1 0x1 DUP3 ADD SWAP1 POP SWAP2 SWAP1 POP JUMP JUMPDEST PUSH0 PUSH2 0x392A DUP3 PUSH2 0x38FE JUMP JUMPDEST SWAP2 POP DUP2 SWAP1 POP SWAP2 SWAP1 POP JUMP JUMPDEST PUSH32 0x4300000000000000000000000000000000000000000000000000000000000000 PUSH0 DUP3 ADD MSTORE POP JUMP JUMPDEST PUSH0 PUSH2 0x3968 PUSH1 0x1 DUP4 PUSH2 0x31DA JUMP JUMPDEST SWAP2 POP PUSH2 0x3973 DUP3 PUSH2 0x3934 JUMP JUMPDEST PUSH1 0x1 DUP3 ADD SWAP1 POP SWAP2 SWAP1 POP JUMP JUMPDEST PUSH0 PUSH2 0x3988 DUP3 PUSH2 0x395C JUMP JUMPDEST SWAP2 POP DUP2 SWAP1 POP SWAP2 SWAP1 POP JUMP JUMPDEST PUSH32 0x4400000000000000000000000000000000000000000000000000000000000000 PUSH0 DUP3 ADD MSTORE POP JUMP JUMPDEST PUSH0 PUSH2 0x39C6 PUSH1 0x1 DUP4 PUSH2 0x31DA JUMP JUMPDEST SWAP2 POP PUSH2 0x39D1 DUP3 PUSH2 0x3992 JUMP JUMPDEST PUSH1 0x1 DUP3 ADD SWAP1 POP SWAP2 SWAP1 POP JUMP JUMPDEST PUSH0 PUSH2 0x39E6 DUP3 PUSH2 0x39BA JUMP JUMPDEST SWAP2 POP DUP2 SWAP1 POP SWAP2 SWAP1 POP JUMP JUMPDEST PUSH32 0x496E76616C696420636F727265637420616E7377657200000000000000000000 PUSH0 DUP3 ADD MSTORE POP JUMP JUMPDEST PUSH0 PUSH2 0x3A24 PUSH1 0x16 DUP4 PUSH2 0x2CC5 JUMP JUMPDEST SWAP2 POP PUSH2 0x3A2F DUP3 PUSH2 0x39F0 JUMP JUMPDEST PUSH1 0x20 DUP3 ADD SWAP1 POP SWAP2 SWAP1 POP JUMP JUMPDEST PUSH0 PUSH1 0x20 DUP3 ADD SWAP1 POP DUP2 DUP2 SUB PUSH0 DUP4 ADD MSTORE PUSH2 0x3A51 DUP2 PUSH2 0x3A18 JUMP JUMPDEST SWAP1 POP SWAP2 SWAP1 POP JUMP JUMPDEST PUSH32 0x5769746864726177616C20696E74657276616C206E6F74207265616368656400 PUSH0 DUP3 ADD MSTORE POP JUMP JUMPDEST PUSH0 PUSH2 0x3A8C PUSH1 0x1F DUP4 PUSH2 0x2CC5 JUMP JUMPDEST SWAP2 POP PUSH2 0x3A97 DUP3 PUSH2 0x3A58 JUMP JUMPDEST PUSH1 0x20 DUP3 ADD SWAP1 POP SWAP2 SWAP1 POP JUMP JUMPDEST PUSH0 PUSH1 0x20 DUP3 ADD SWAP1 POP DUP2 DUP2 SUB PUSH0 DUP4 ADD MSTORE PUSH2 0x3AB9 DUP2 PUSH2 0x3A80 JUMP JUMPDEST SWAP1 POP SWAP2 SWAP1 POP JUMP JUMPDEST PUSH32 0x4661696C656420746F2077697468647261772067617320666565730000000000 PUSH0 DUP3 ADD MSTORE POP JUMP JUMPDEST PUSH0 PUSH2 0x3AF4 PUSH1 0x1B DUP4 PUSH2 0x2CC5 JUMP JUMPDEST SWAP2 POP PUSH2 0x3AFF DUP3 PUSH2 0x3AC0 JUMP JUMPDEST PUSH1 0x20 DUP3 ADD SWAP1 POP SWAP2 SWAP1 POP JUMP JUMPDEST PUSH0 PUSH1 0x20 DUP3 ADD SWAP1 POP DUP2 DUP2 SUB PUSH0 DUP4 ADD MSTORE PUSH2 0x3B21 DUP2 PUSH2 0x3AE8 JUMP JUMPDEST SWAP1 POP SWAP2 SWAP1 POP JUMP JUMPDEST PUSH32 0x4F6E6C7920636F757273652063726561746F722063616E20636C61696D207265 PUSH0 DUP3 ADD MSTORE PUSH32 0x7761726400000000000000000000000000000000000000000000000000000000 PUSH1 0x20 DUP3 ADD MSTORE POP JUMP JUMPDEST PUSH0 PUSH2 0x3B82 PUSH1 0x24 DUP4 PUSH2 0x2CC5 JUMP JUMPDEST SWAP2 POP PUSH2 0x3B8D DUP3 PUSH2 0x3B28 JUMP JUMPDEST PUSH1 0x40 DUP3 ADD SWAP1 POP SWAP2 SWAP1 POP JUMP JUMPDEST PUSH0 PUSH1 0x20 DUP3 ADD SWAP1 POP DUP2 DUP2 SUB PUSH0 DUP4 ADD MSTORE PUSH2 0x3BAF DUP2 PUSH2 0x3B76 JUMP JUMPDEST SWAP1 POP SWAP2 SWAP1 POP JUMP JUMPDEST PUSH0 PUSH2 0x3BC0 DUP3 PUSH2 0x26C6 JUMP JUMPDEST SWAP2 POP PUSH2 0x3BCB DUP4 PUSH2 0x26C6 JUMP JUMPDEST SWAP3 POP DUP3 DUP3 MUL PUSH2 0x3BD9 DUP2 PUSH2 0x26C6 JUMP JUMPDEST SWAP2 POP DUP3 DUP3 DIV DUP5 EQ DUP4 ISZERO OR PUSH2 0x3BF0 JUMPI PUSH2 0x3BEF PUSH2 0x2ECF JUMP JUMPDEST JUMPDEST POP SWAP3 SWAP2 POP POP JUMP JUMPDEST PUSH32 0x5061757361626C653A2070617573656400000000000000000000000000000000 PUSH0 DUP3 ADD MSTORE POP JUMP JUMPDEST PUSH0 PUSH2 0x3C2B PUSH1 0x10 DUP4 PUSH2 0x2CC5 JUMP JUMPDEST SWAP2 POP PUSH2 0x3C36 DUP3 PUSH2 0x3BF7 JUMP JUMPDEST PUSH1 0x20 DUP3 ADD SWAP1 POP SWAP2 SWAP1 POP JUMP JUMPDEST PUSH0 PUSH1 0x20 DUP3 ADD SWAP1 POP DUP2 DUP2 SUB PUSH0 DUP4 ADD MSTORE PUSH2 0x3C58 DUP2 PUSH2 0x3C1F JUMP JUMPDEST SWAP1 POP SWAP2 SWAP1 POP JUMP JUMPDEST PUSH32 0x5061757361626C653A206E6F7420706175736564000000000000000000000000 PUSH0 DUP3 ADD MSTORE POP JUMP JUMPDEST PUSH0 PUSH2 0x3C93 PUSH1 0x14 DUP4 PUSH2 0x2CC5 JUMP JUMPDEST SWAP2 POP PUSH2 0x3C9E DUP3 PUSH2 0x3C5F JUMP JUMPDEST PUSH1 0x20 DUP3 ADD SWAP1 POP SWAP2 SWAP1 POP JUMP JUMPDEST PUSH0 PUSH1 0x20 DUP3 ADD SWAP1 POP DUP2 DUP2 SUB PUSH0 DUP4 ADD MSTORE PUSH2 0x3CC0 DUP2 PUSH2 0x3C87 JUMP JUMPDEST SWAP1 POP SWAP2 SWAP1 POP JUMP INVALID LOG2 PUSH5 0x6970667358 0x22 SLT KECCAK256 0xE6 0xDC DUP3 0xB1 ADDRESS 0x4D 0x4F DIV INVALID MSTORE 0xBA RETURNDATASIZE 0xE0 0xB0 0xC8 SDIV SLT CREATE2 0xDE SGT 0xBE SWAP3 PUSH16 0x920CD4D6451E6F82E364736F6C634300 ADDMOD BYTE STOP CALLER "
				},
				"gasEstimates": {
					"creation": {
						"codeDepositCost": "3122600",
						"executionCost": "infinite",
						"totalCost": "infinite"
					},
					"external": {
						"CREATOR_REWARD_AMOUNT()": "391",
						"ENROLL_THRESHOLD()": "370",
						"PLATFORMTX()": "436",
						"POST_THRESHOLD()": "458",
						"STUDENT_REWARD_AMOUNT()": "435",
						"WITHDRAWAL_INTERVAL()": "415",
						"accumulatedFees()": "2537",
						"approveCourse(uint256)": "infinite",
						"attemptQuiz(uint256,string[])": "infinite",
						"claimCreatorReward(uint256)": "infinite",
						"courseCount()": "2515",
						"courseQuizzes(uint256,uint256)": "infinite",
						"courses(uint256)": "infinite",
						"createCourse(string,string[],string[],string[],string[],string[],string[])": "infinite",
						"enrollInCourse(uint256)": "infinite",
						"enrollments(address,uint256)": "infinite",
						"lastWithdrawalTime()": "2471",
						"owner()": "2560",
						"pause()": "infinite",
						"paused()": "2658",
						"renounceOwnership()": "infinite",
						"reputationContract()": "infinite",
						"transferOwnership(address)": "infinite",
						"unpause()": "infinite",
						"updateReputationContract(address)": "infinite",
						"withdrawGasFees()": "infinite"
					}
				},
				"methodIdentifiers": {
					"CREATOR_REWARD_AMOUNT()": "cf90b3be",
					"ENROLL_THRESHOLD()": "ae24f005",
					"PLATFORMTX()": "a4d8754a",
					"POST_THRESHOLD()": "a4e1f033",
					"STUDENT_REWARD_AMOUNT()": "fbf1aded",
					"WITHDRAWAL_INTERVAL()": "4c64c030",
					"accumulatedFees()": "587f5ed7",
					"approveCourse(uint256)": "75284998",
					"attemptQuiz(uint256,string[])": "5cb45cb5",
					"claimCreatorReward(uint256)": "ba2f0362",
					"courseCount()": "66055159",
					"courseQuizzes(uint256,uint256)": "b0aaefd6",
					"courses(uint256)": "96f979d2",
					"createCourse(string,string[],string[],string[],string[],string[],string[])": "79370df3",
					"enrollInCourse(uint256)": "5e52da27",
					"enrollments(address,uint256)": "07f910f8",
					"lastWithdrawalTime()": "34a014dc",
					"owner()": "8da5cb5b",
					"pause()": "8456cb59",
					"paused()": "5c975abb",
					"renounceOwnership()": "715018a6",
					"reputationContract()": "87bc1425",
					"transferOwnership(address)": "f2fde38b",
					"unpause()": "3f4ba83a",
					"updateReputationContract(address)": "905baa61",
					"withdrawGasFees()": "b894af02"
				}
			},
			"storageLayout": {
				"storage": [
					{
						"astId": 8,
						"contract": "moonx/moonx.sol:DecentralLearning",
						"label": "_owner",
						"offset": 0,
						"slot": "0",
						"type": "t_address"
					},
					{
						"astId": 165,
						"contract": "moonx/moonx.sol:DecentralLearning",
						"label": "_paused",
						"offset": 20,
						"slot": "0",
						"type": "t_bool"
					},
					{
						"astId": 304,
						"contract": "moonx/moonx.sol:DecentralLearning",
						"label": "reputationContract",
						"offset": 0,
						"slot": "1",
						"type": "t_contract(IReputationContract)297"
					},
					{
						"astId": 324,
						"contract": "moonx/moonx.sol:DecentralLearning",
						"label": "lastWithdrawalTime",
						"offset": 0,
						"slot": "2",
						"type": "t_uint256"
					},
					{
						"astId": 326,
						"contract": "moonx/moonx.sol:DecentralLearning",
						"label": "accumulatedFees",
						"offset": 0,
						"slot": "3",
						"type": "t_uint256"
					},
					{
						"astId": 368,
						"contract": "moonx/moonx.sol:DecentralLearning",
						"label": "courses",
						"offset": 0,
						"slot": "4",
						"type": "t_mapping(t_uint256,t_struct(Course)339_storage)"
					},
					{
						"astId": 375,
						"contract": "moonx/moonx.sol:DecentralLearning",
						"label": "enrollments",
						"offset": 0,
						"slot": "5",
						"type": "t_mapping(t_address,t_mapping(t_uint256,t_struct(Enrollment)363_storage))"
					},
					{
						"astId": 381,
						"contract": "moonx/moonx.sol:DecentralLearning",
						"label": "courseQuizzes",
						"offset": 0,
						"slot": "6",
						"type": "t_mapping(t_uint256,t_array(t_struct(Quiz)354_storage)dyn_storage)"
					},
					{
						"astId": 383,
						"contract": "moonx/moonx.sol:DecentralLearning",
						"label": "courseCount",
						"offset": 0,
						"slot": "7",
						"type": "t_uint256"
					}
				],
				"types": {
					"t_address": {
						"encoding": "inplace",
						"label": "address",
						"numberOfBytes": "20"
					},
					"t_array(t_struct(Quiz)354_storage)dyn_storage": {
						"base": "t_struct(Quiz)354_storage",
						"encoding": "dynamic_array",
						"label": "struct DecentralLearning.Quiz[]",
						"numberOfBytes": "32"
					},
					"t_bool": {
						"encoding": "inplace",
						"label": "bool",
						"numberOfBytes": "1"
					},
					"t_bytes32": {
						"encoding": "inplace",
						"label": "bytes32",
						"numberOfBytes": "32"
					},
					"t_contract(IReputationContract)297": {
						"encoding": "inplace",
						"label": "contract IReputationContract",
						"numberOfBytes": "20"
					},
					"t_mapping(t_address,t_mapping(t_uint256,t_struct(Enrollment)363_storage))": {
						"encoding": "mapping",
						"key": "t_address",
						"label": "mapping(address => mapping(uint256 => struct DecentralLearning.Enrollment))",
						"numberOfBytes": "32",
						"value": "t_mapping(t_uint256,t_struct(Enrollment)363_storage)"
					},
					"t_mapping(t_uint256,t_array(t_struct(Quiz)354_storage)dyn_storage)": {
						"encoding": "mapping",
						"key": "t_uint256",
						"label": "mapping(uint256 => struct DecentralLearning.Quiz[])",
						"numberOfBytes": "32",
						"value": "t_array(t_struct(Quiz)354_storage)dyn_storage"
					},
					"t_mapping(t_uint256,t_struct(Course)339_storage)": {
						"encoding": "mapping",
						"key": "t_uint256",
						"label": "mapping(uint256 => struct DecentralLearning.Course)",
						"numberOfBytes": "32",
						"value": "t_struct(Course)339_storage"
					},
					"t_mapping(t_uint256,t_struct(Enrollment)363_storage)": {
						"encoding": "mapping",
						"key": "t_uint256",
						"label": "mapping(uint256 => struct DecentralLearning.Enrollment)",
						"numberOfBytes": "32",
						"value": "t_struct(Enrollment)363_storage"
					},
					"t_string_storage": {
						"encoding": "bytes",
						"label": "string",
						"numberOfBytes": "32"
					},
					"t_struct(Course)339_storage": {
						"encoding": "inplace",
						"label": "struct DecentralLearning.Course",
						"members": [
							{
								"astId": 328,
								"contract": "moonx/moonx.sol:DecentralLearning",
								"label": "creator",
								"offset": 0,
								"slot": "0",
								"type": "t_address"
							},
							{
								"astId": 330,
								"contract": "moonx/moonx.sol:DecentralLearning",
								"label": "metadataURI",
								"offset": 0,
								"slot": "1",
								"type": "t_string_storage"
							},
							{
								"astId": 332,
								"contract": "moonx/moonx.sol:DecentralLearning",
								"label": "approved",
								"offset": 0,
								"slot": "2",
								"type": "t_bool"
							},
							{
								"astId": 334,
								"contract": "moonx/moonx.sol:DecentralLearning",
								"label": "passedStudents",
								"offset": 0,
								"slot": "3",
								"type": "t_uint256"
							},
							{
								"astId": 336,
								"contract": "moonx/moonx.sol:DecentralLearning",
								"label": "totalRewarded",
								"offset": 0,
								"slot": "4",
								"type": "t_uint256"
							},
							{
								"astId": 338,
								"contract": "moonx/moonx.sol:DecentralLearning",
								"label": "totalEnrolled",
								"offset": 0,
								"slot": "5",
								"type": "t_uint256"
							}
						],
						"numberOfBytes": "192"
					},
					"t_struct(Enrollment)363_storage": {
						"encoding": "inplace",
						"label": "struct DecentralLearning.Enrollment",
						"members": [
							{
								"astId": 356,
								"contract": "moonx/moonx.sol:DecentralLearning",
								"label": "isEnrolled",
								"offset": 0,
								"slot": "0",
								"type": "t_bool"
							},
							{
								"astId": 358,
								"contract": "moonx/moonx.sol:DecentralLearning",
								"label": "attemptCount",
								"offset": 1,
								"slot": "0",
								"type": "t_uint8"
							},
							{
								"astId": 360,
								"contract": "moonx/moonx.sol:DecentralLearning",
								"label": "hasPassed",
								"offset": 2,
								"slot": "0",
								"type": "t_bool"
							},
							{
								"astId": 362,
								"contract": "moonx/moonx.sol:DecentralLearning",
								"label": "hasClaimedReward",
								"offset": 3,
								"slot": "0",
								"type": "t_bool"
							}
						],
						"numberOfBytes": "32"
					},
					"t_struct(Quiz)354_storage": {
						"encoding": "inplace",
						"label": "struct DecentralLearning.Quiz",
						"members": [
							{
								"astId": 341,
								"contract": "moonx/moonx.sol:DecentralLearning",
								"label": "courseId",
								"offset": 0,
								"slot": "0",
								"type": "t_uint256"
							},
							{
								"astId": 343,
								"contract": "moonx/moonx.sol:DecentralLearning",
								"label": "question",
								"offset": 0,
								"slot": "1",
								"type": "t_string_storage"
							},
							{
								"astId": 345,
								"contract": "moonx/moonx.sol:DecentralLearning",
								"label": "optionA",
								"offset": 0,
								"slot": "2",
								"type": "t_string_storage"
							},
							{
								"astId": 347,
								"contract": "moonx/moonx.sol:DecentralLearning",
								"label": "optionB",
								"offset": 0,
								"slot": "3",
								"type": "t_string_storage"
							},
							{
								"astId": 349,
								"contract": "moonx/moonx.sol:DecentralLearning",
								"label": "optionC",
								"offset": 0,
								"slot": "4",
								"type": "t_string_storage"
							},
							{
								"astId": 351,
								"contract": "moonx/moonx.sol:DecentralLearning",
								"label": "optionD",
								"offset": 0,
								"slot": "5",
								"type": "t_string_storage"
							},
							{
								"astId": 353,
								"contract": "moonx/moonx.sol:DecentralLearning",
								"label": "correctAnswerHash",
								"offset": 0,
								"slot": "6",
								"type": "t_bytes32"
							}
						],
						"numberOfBytes": "224"
					},
					"t_uint256": {
						"encoding": "inplace",
						"label": "uint256",
						"numberOfBytes": "32"
					},
					"t_uint8": {
						"encoding": "inplace",
						"label": "uint8",
						"numberOfBytes": "1"
					}
				}
			},
			"userdoc": {
				"kind": "user",
				"methods": {},
				"version": 1
			}
		}
	}
}