{
	"moonx/moonx.sol": {
		"DecentralLearning": {
			"abi": [
				{
					"inputs": [
						{
							"internalType": "address",
							"name": "_reputationContract",
							"type": "address"
						}
					],
					"stateMutability": "nonpayable",
					"type": "constructor"
				},
				{
					"inputs": [
						{
							"internalType": "address",
							"name": "owner",
							"type": "address"
						}
					],
					"name": "OwnableInvalidOwner",
					"type": "error"
				},
				{
					"inputs": [
						{
							"internalType": "address",
							"name": "account",
							"type": "address"
						}
					],
					"name": "OwnableUnauthorizedAccount",
					"type": "error"
				},
				{
					"anonymous": false,
					"inputs": [
						{
							"indexed": true,
							"internalType": "uint256",
							"name": "courseId",
							"type": "uint256"
						}
					],
					"name": "CourseApproved",
					"type": "event"
				},
				{
					"anonymous": false,
					"inputs": [
						{
							"indexed": true,
							"internalType": "uint256",
							"name": "courseId",
							"type": "uint256"
						},
						{
							"indexed": true,
							"internalType": "address",
							"name": "creator",
							"type": "address"
						}
					],
					"name": "CourseCreated",
					"type": "event"
				},
				{
					"anonymous": false,
					"inputs": [
						{
							"indexed": true,
							"internalType": "uint256",
							"name": "courseId",
							"type": "uint256"
						},
						{
							"indexed": true,
							"internalType": "address",
							"name": "creator",
							"type": "address"
						},
						{
							"indexed": false,
							"internalType": "uint256",
							"name": "amount",
							"type": "uint256"
						}
					],
					"name": "CreatorWithdrawal",
					"type": "event"
				},
				{
					"anonymous": false,
					"inputs": [
						{
							"indexed": false,
							"internalType": "uint256",
							"name": "amount",
							"type": "uint256"
						}
					],
					"name": "GasFeesWithdrawn",
					"type": "event"
				},
				{
					"anonymous": false,
					"inputs": [
						{
							"indexed": true,
							"internalType": "address",
							"name": "previousOwner",
							"type": "address"
						},
						{
							"indexed": true,
							"internalType": "address",
							"name": "newOwner",
							"type": "address"
						}
					],
					"name": "OwnershipTransferred",
					"type": "event"
				},
				{
					"anonymous": false,
					"inputs": [
						{
							"indexed": false,
							"internalType": "address",
							"name": "account",
							"type": "address"
						}
					],
					"name": "Paused",
					"type": "event"
				},
				{
					"anonymous": false,
					"inputs": [
						{
							"indexed": true,
							"internalType": "uint256",
							"name": "courseId",
							"type": "uint256"
						},
						{
							"indexed": true,
							"internalType": "address",
							"name": "user",
							"type": "address"
						},
						{
							"indexed": false,
							"internalType": "bool",
							"name": "passed",
							"type": "bool"
						}
					],
					"name": "QuizAttempted",
					"type": "event"
				},
				{
					"anonymous": false,
					"inputs": [
						{
							"indexed": true,
							"internalType": "uint256",
							"name": "courseId",
							"type": "uint256"
						},
						{
							"indexed": false,
							"internalType": "uint256",
							"name": "quizId",
							"type": "uint256"
						}
					],
					"name": "QuizCreated",
					"type": "event"
				},
				{
					"anonymous": false,
					"inputs": [
						{
							"indexed": true,
							"internalType": "uint256",
							"name": "courseId",
							"type": "uint256"
						},
						{
							"indexed": true,
							"internalType": "address",
							"name": "user",
							"type": "address"
						},
						{
							"indexed": false,
							"internalType": "uint256",
							"name": "amount",
							"type": "uint256"
						}
					],
					"name": "RewardClaimed",
					"type": "event"
				},
				{
					"anonymous": false,
					"inputs": [
						{
							"indexed": false,
							"internalType": "address",
							"name": "account",
							"type": "address"
						}
					],
					"name": "Unpaused",
					"type": "event"
				},
				{
					"anonymous": false,
					"inputs": [
						{
							"indexed": true,
							"internalType": "uint256",
							"name": "courseId",
							"type": "uint256"
						},
						{
							"indexed": true,
							"internalType": "address",
							"name": "user",
							"type": "address"
						}
					],
					"name": "UserEnrolled",
					"type": "event"
				},
				{
					"inputs": [],
					"name": "WITHDRAWAL_INTERVAL",
					"outputs": [
						{
							"internalType": "uint256",
							"name": "",
							"type": "uint256"
						}
					],
					"stateMutability": "view",
					"type": "function"
				},
				{
					"inputs": [],
					"name": "accumulatedFees",
					"outputs": [
						{
							"internalType": "uint256",
							"name": "",
							"type": "uint256"
						}
					],
					"stateMutability": "view",
					"type": "function"
				},
				{
					"inputs": [
						{
							"internalType": "uint256",
							"name": "_courseId",
							"type": "uint256"
						}
					],
					"name": "approveCourse",
					"outputs": [],
					"stateMutability": "nonpayable",
					"type": "function"
				},
				{
					"inputs": [
						{
							"internalType": "uint256",
							"name": "_courseId",
							"type": "uint256"
						},
						{
							"internalType": "string[]",
							"name": "_answers",
							"type": "string[]"
						}
					],
					"name": "attemptQuiz",
					"outputs": [],
					"stateMutability": "payable",
					"type": "function"
				},
				{
					"inputs": [],
					"name": "courseCount",
					"outputs": [
						{
							"internalType": "uint256",
							"name": "",
							"type": "uint256"
						}
					],
					"stateMutability": "view",
					"type": "function"
				},
				{
					"inputs": [
						{
							"internalType": "uint256",
							"name": "",
							"type": "uint256"
						},
						{
							"internalType": "uint256",
							"name": "",
							"type": "uint256"
						}
					],
					"name": "courseQuizzes",
					"outputs": [
						{
							"internalType": "uint256",
							"name": "courseId",
							"type": "uint256"
						},
						{
							"internalType": "string",
							"name": "question",
							"type": "string"
						},
						{
							"internalType": "string",
							"name": "optionA",
							"type": "string"
						},
						{
							"internalType": "string",
							"name": "optionB",
							"type": "string"
						},
						{
							"internalType": "string",
							"name": "optionC",
							"type": "string"
						},
						{
							"internalType": "string",
							"name": "optionD",
							"type": "string"
						},
						{
							"internalType": "bytes32",
							"name": "correctAnswerHash",
							"type": "bytes32"
						}
					],
					"stateMutability": "view",
					"type": "function"
				},
				{
					"inputs": [
						{
							"internalType": "uint256",
							"name": "",
							"type": "uint256"
						}
					],
					"name": "courses",
					"outputs": [
						{
							"internalType": "address",
							"name": "creator",
							"type": "address"
						},
						{
							"internalType": "string",
							"name": "metadataURI",
							"type": "string"
						},
						{
							"internalType": "bool",
							"name": "approved",
							"type": "bool"
						},
						{
							"internalType": "uint32",
							"name": "passedStudents",
							"type": "uint32"
						},
						{
							"internalType": "uint256",
							"name": "totalRewarded",
							"type": "uint256"
						},
						{
							"internalType": "uint32",
							"name": "totalEnrolled",
							"type": "uint32"
						}
					],
					"stateMutability": "view",
					"type": "function"
				},
				{
					"inputs": [
						{
							"internalType": "string",
							"name": "_metadataURI",
							"type": "string"
						},
						{
							"internalType": "string[]",
							"name": "_questions",
							"type": "string[]"
						},
						{
							"internalType": "string[]",
							"name": "_optionAs",
							"type": "string[]"
						},
						{
							"internalType": "string[]",
							"name": "_optionBs",
							"type": "string[]"
						},
						{
							"internalType": "string[]",
							"name": "_optionCs",
							"type": "string[]"
						},
						{
							"internalType": "string[]",
							"name": "_optionDs",
							"type": "string[]"
						},
						{
							"internalType": "string[]",
							"name": "_correctAnswers",
							"type": "string[]"
						}
					],
					"name": "createCourse",
					"outputs": [],
					"stateMutability": "payable",
					"type": "function"
				},
				{
					"inputs": [],
					"name": "creatorRewardAmount",
					"outputs": [
						{
							"internalType": "uint256",
							"name": "",
							"type": "uint256"
						}
					],
					"stateMutability": "view",
					"type": "function"
				},
				{
					"inputs": [
						{
							"internalType": "uint256",
							"name": "_courseId",
							"type": "uint256"
						}
					],
					"name": "enrollInCourse",
					"outputs": [],
					"stateMutability": "payable",
					"type": "function"
				},
				{
					"inputs": [],
					"name": "enrollThreshold",
					"outputs": [
						{
							"internalType": "uint256",
							"name": "",
							"type": "uint256"
						}
					],
					"stateMutability": "view",
					"type": "function"
				},
				{
					"inputs": [
						{
							"internalType": "address",
							"name": "",
							"type": "address"
						},
						{
							"internalType": "uint256",
							"name": "",
							"type": "uint256"
						}
					],
					"name": "enrollments",
					"outputs": [
						{
							"internalType": "bool",
							"name": "isEnrolled",
							"type": "bool"
						},
						{
							"internalType": "uint8",
							"name": "attemptCount",
							"type": "uint8"
						},
						{
							"internalType": "bool",
							"name": "hasPassed",
							"type": "bool"
						},
						{
							"internalType": "bool",
							"name": "hasClaimedReward",
							"type": "bool"
						}
					],
					"stateMutability": "view",
					"type": "function"
				},
				{
					"inputs": [],
					"name": "lastWithdrawalTime",
					"outputs": [
						{
							"internalType": "uint256",
							"name": "",
							"type": "uint256"
						}
					],
					"stateMutability": "view",
					"type": "function"
				},
				{
					"inputs": [],
					"name": "owner",
					"outputs": [
						{
							"internalType": "address",
							"name": "",
							"type": "address"
						}
					],
					"stateMutability": "view",
					"type": "function"
				},
				{
					"inputs": [],
					"name": "pause",
					"outputs": [],
					"stateMutability": "nonpayable",
					"type": "function"
				},
				{
					"inputs": [],
					"name": "paused",
					"outputs": [
						{
							"internalType": "bool",
							"name": "",
							"type": "bool"
						}
					],
					"stateMutability": "view",
					"type": "function"
				},
				{
					"inputs": [],
					"name": "platformTx",
					"outputs": [
						{
							"internalType": "uint256",
							"name": "",
							"type": "uint256"
						}
					],
					"stateMutability": "view",
					"type": "function"
				},
				{
					"inputs": [],
					"name": "postThreshold",
					"outputs": [
						{
							"internalType": "uint256",
							"name": "",
							"type": "uint256"
						}
					],
					"stateMutability": "view",
					"type": "function"
				},
				{
					"inputs": [],
					"name": "renounceOwnership",
					"outputs": [],
					"stateMutability": "nonpayable",
					"type": "function"
				},
				{
					"inputs": [],
					"name": "reputationContract",
					"outputs": [
						{
							"internalType": "contract IReputationContract",
							"name": "",
							"type": "address"
						}
					],
					"stateMutability": "view",
					"type": "function"
				},
				{
					"inputs": [],
					"name": "studentRewardAmount",
					"outputs": [
						{
							"internalType": "uint256",
							"name": "",
							"type": "uint256"
						}
					],
					"stateMutability": "view",
					"type": "function"
				},
				{
					"inputs": [
						{
							"internalType": "address",
							"name": "newOwner",
							"type": "address"
						}
					],
					"name": "transferOwnership",
					"outputs": [],
					"stateMutability": "nonpayable",
					"type": "function"
				},
				{
					"inputs": [],
					"name": "unpause",
					"outputs": [],
					"stateMutability": "nonpayable",
					"type": "function"
				},
				{
					"inputs": [
						{
							"internalType": "uint256",
							"name": "_newReward",
							"type": "uint256"
						}
					],
					"name": "updateCreatorReward",
					"outputs": [],
					"stateMutability": "nonpayable",
					"type": "function"
				},
				{
					"inputs": [
						{
							"internalType": "uint256",
							"name": "_newThreshold",
							"type": "uint256"
						}
					],
					"name": "updateEnrollThreshold",
					"outputs": [],
					"stateMutability": "nonpayable",
					"type": "function"
				},
				{
					"inputs": [
						{
							"internalType": "uint256",
							"name": "_newFee",
							"type": "uint256"
						}
					],
					"name": "updatePlatformFee",
					"outputs": [],
					"stateMutability": "nonpayable",
					"type": "function"
				},
				{
					"inputs": [
						{
							"internalType": "uint256",
							"name": "_newThreshold",
							"type": "uint256"
						}
					],
					"name": "updatePostThreshold",
					"outputs": [],
					"stateMutability": "nonpayable",
					"type": "function"
				},
				{
					"inputs": [
						{
							"internalType": "address",
							"name": "_newReputationContract",
							"type": "address"
						}
					],
					"name": "updateReputationContract",
					"outputs": [],
					"stateMutability": "nonpayable",
					"type": "function"
				},
				{
					"inputs": [
						{
							"internalType": "uint256",
							"name": "_newReward",
							"type": "uint256"
						}
					],
					"name": "updateStudentReward",
					"outputs": [],
					"stateMutability": "nonpayable",
					"type": "function"
				},
				{
					"inputs": [],
					"name": "w_PlatformFees",
					"outputs": [],
					"stateMutability": "nonpayable",
					"type": "function"
				},
				{
					"stateMutability": "payable",
					"type": "receive"
				}
			],
			"devdoc": {
				"errors": {
					"OwnableInvalidOwner(address)": [
						{
							"details": "The owner is not a valid owner account. (eg. `address(0)`)"
						}
					],
					"OwnableUnauthorizedAccount(address)": [
						{
							"details": "The caller account is not authorized to perform an operation."
						}
					]
				},
				"events": {
					"Paused(address)": {
						"details": "Emitted when the pause is triggered by `account`."
					},
					"Unpaused(address)": {
						"details": "Emitted when the pause is lifted by `account`."
					}
				},
				"kind": "dev",
				"methods": {
					"owner()": {
						"details": "Returns the address of the current owner."
					},
					"paused()": {
						"details": "Returns true if the contract is paused, and false otherwise."
					},
					"renounceOwnership()": {
						"details": "Leaves the contract without owner. It will not be possible to call `onlyOwner` functions. Can only be called by the current owner. NOTE: Renouncing ownership will leave the contract without an owner, thereby disabling any functionality that is only available to the owner."
					},
					"transferOwnership(address)": {
						"details": "Transfers ownership of the contract to a new account (`newOwner`). Can only be called by the current owner."
					}
				},
				"version": 1
			},
			"evm": {
				"assembly": "    /* \"moonx/moonx.sol\":273:8628  contract DecentralLearning is Ownable, Pausable {... */\n  mstore(0x40, 0xa0)\n    /* \"moonx/moonx.sol\":608:615  31 days */\n  0x28de80\n    /* \"moonx/moonx.sol\":561:615  uint256 public immutable WITHDRAWAL_INTERVAL = 31 days */\n  0x80\n  swap1\n  dup2\n  mstore\n  pop\n    /* \"moonx/moonx.sol\":2123:2488  constructor(address _reputationContract) Ownable(msg.sender) {... */\n  callvalue\n  dup1\n  iszero\n  tag_1\n  jumpi\n  0x00\n  dup1\n  revert\ntag_1:\n  pop\n  mload(0x40)\n  sub(codesize, bytecodeSize)\n  dup1\n  bytecodeSize\n  dup4\n  codecopy\n  dup2\n  dup2\n  add\n  0x40\n  mstore\n  dup2\n  add\n  swap1\n  tag_2\n  swap2\n  swap1\n  tag_3\n  jump\t// in\ntag_2:\n    /* \"moonx/moonx.sol\":2172:2182  msg.sender */\n  caller\n    /* \"@openzeppelin/contracts/access/Ownable.sol\":1297:1298  0 */\n  0x00\n    /* \"@openzeppelin/contracts/access/Ownable.sol\":1273:1299  initialOwner == address(0) */\n  0xffffffffffffffffffffffffffffffffffffffff\n  and\n    /* \"@openzeppelin/contracts/access/Ownable.sol\":1273:1285  initialOwner */\n  dup2\n    /* \"@openzeppelin/contracts/access/Ownable.sol\":1273:1299  initialOwner == address(0) */\n  0xffffffffffffffffffffffffffffffffffffffff\n  and\n  sub\n    /* \"@openzeppelin/contracts/access/Ownable.sol\":1269:1364  if (initialOwner == address(0)) {... */\n  tag_8\n  jumpi\n    /* \"@openzeppelin/contracts/access/Ownable.sol\":1350:1351  0 */\n  0x00\n    /* \"@openzeppelin/contracts/access/Ownable.sol\":1322:1353  OwnableInvalidOwner(address(0)) */\n  mload(0x40)\n  0x1e4fbdf700000000000000000000000000000000000000000000000000000000\n  dup2\n  mstore\n  0x04\n  add\n  tag_9\n  swap2\n  swap1\n  tag_10\n  jump\t// in\ntag_9:\n  mload(0x40)\n  dup1\n  swap2\n  sub\n  swap1\n  revert\n    /* \"@openzeppelin/contracts/access/Ownable.sol\":1269:1364  if (initialOwner == address(0)) {... */\ntag_8:\n    /* \"@openzeppelin/contracts/access/Ownable.sol\":1373:1405  _transferOwnership(initialOwner) */\n  tag_11\n    /* \"@openzeppelin/contracts/access/Ownable.sol\":1392:1404  initialOwner */\n  dup2\n    /* \"@openzeppelin/contracts/access/Ownable.sol\":1373:1391  _transferOwnership */\n  shl(0x20, tag_12)\n    /* \"@openzeppelin/contracts/access/Ownable.sol\":1373:1405  _transferOwnership(initialOwner) */\n  0x20\n  shr\n  jump\t// in\ntag_11:\n    /* \"@openzeppelin/contracts/access/Ownable.sol\":1225:1412  constructor(address initialOwner) {... */\n  pop\n    /* \"@openzeppelin/contracts/security/Pausable.sol\":1006:1011  false */\n  0x00\n    /* \"@openzeppelin/contracts/security/Pausable.sol\":996:1003  _paused */\n  dup1\n  0x14\n    /* \"@openzeppelin/contracts/security/Pausable.sol\":996:1011  _paused = false */\n  0x0100\n  exp\n  dup2\n  sload\n  dup2\n  0xff\n  mul\n  not\n  and\n  swap1\n  dup4\n  iszero\n  iszero\n  mul\n  or\n  swap1\n  sstore\n  pop\n    /* \"moonx/moonx.sol\":2235:2254  _reputationContract */\n  dup1\n    /* \"moonx/moonx.sol\":2194:2212  reputationContract */\n  0x01\n  0x00\n    /* \"moonx/moonx.sol\":2194:2255  reputationContract = IReputationContract(_reputationContract) */\n  0x0100\n  exp\n  dup2\n  sload\n  dup2\n  0xffffffffffffffffffffffffffffffffffffffff\n  mul\n  not\n  and\n  swap1\n  dup4\n  0xffffffffffffffffffffffffffffffffffffffff\n  and\n  mul\n  or\n  swap1\n  sstore\n  pop\n    /* \"moonx/moonx.sol\":2286:2301  block.timestamp */\n  timestamp\n    /* \"moonx/moonx.sol\":2265:2283  lastWithdrawalTime */\n  0x07\n    /* \"moonx/moonx.sol\":2265:2301  lastWithdrawalTime = block.timestamp */\n  dup2\n  swap1\n  sstore\n  pop\n    /* \"moonx/moonx.sol\":2329:2336  1 ether */\n  0x0de0b6b3a7640000\n    /* \"moonx/moonx.sol\":2311:2326  enrollThreshold */\n  0x02\n    /* \"moonx/moonx.sol\":2311:2336  enrollThreshold = 1 ether */\n  dup2\n  swap1\n  sstore\n  pop\n    /* \"moonx/moonx.sol\":2362:2369  5 ether */\n  0x4563918244f40000\n    /* \"moonx/moonx.sol\":2346:2359  postThreshold */\n  0x03\n    /* \"moonx/moonx.sol\":2346:2369  postThreshold = 5 ether */\n  dup2\n  swap1\n  sstore\n  pop\n    /* \"moonx/moonx.sol\":2401:2409  10 ether */\n  0x8ac7230489e80000\n    /* \"moonx/moonx.sol\":2379:2398  studentRewardAmount */\n  0x04\n    /* \"moonx/moonx.sol\":2379:2409  studentRewardAmount = 10 ether */\n  dup2\n  swap1\n  sstore\n  pop\n    /* \"moonx/moonx.sol\":2441:2448  1 ether */\n  0x0de0b6b3a7640000\n    /* \"moonx/moonx.sol\":2419:2438  creatorRewardAmount */\n  0x05\n    /* \"moonx/moonx.sol\":2419:2448  creatorRewardAmount = 1 ether */\n  dup2\n  swap1\n  sstore\n  pop\n    /* \"moonx/moonx.sol\":2471:2481  0.75 ether */\n  0x0a688906bd8b0000\n    /* \"moonx/moonx.sol\":2458:2468  platformTx */\n  0x06\n    /* \"moonx/moonx.sol\":2458:2481  platformTx = 0.75 ether */\n  dup2\n  swap1\n  sstore\n  pop\n    /* \"moonx/moonx.sol\":2123:2488  constructor(address _reputationContract) Ownable(msg.sender) {... */\n  pop\n    /* \"moonx/moonx.sol\":273:8628  contract DecentralLearning is Ownable, Pausable {... */\n  jump(tag_15)\n    /* \"@openzeppelin/contracts/access/Ownable.sol\":2912:3099  function _transferOwnership(address newOwner) internal virtual {... */\ntag_12:\n    /* \"@openzeppelin/contracts/access/Ownable.sol\":2985:3001  address oldOwner */\n  0x00\n    /* \"@openzeppelin/contracts/access/Ownable.sol\":3004:3010  _owner */\n  dup1\n  0x00\n  swap1\n  sload\n  swap1\n  0x0100\n  exp\n  swap1\n  div\n  0xffffffffffffffffffffffffffffffffffffffff\n  and\n    /* \"@openzeppelin/contracts/access/Ownable.sol\":2985:3010  address oldOwner = _owner */\n  swap1\n  pop\n    /* \"@openzeppelin/contracts/access/Ownable.sol\":3029:3037  newOwner */\n  dup2\n    /* \"@openzeppelin/contracts/access/Ownable.sol\":3020:3026  _owner */\n  0x00\n  dup1\n    /* \"@openzeppelin/contracts/access/Ownable.sol\":3020:3037  _owner = newOwner */\n  0x0100\n  exp\n  dup2\n  sload\n  dup2\n  0xffffffffffffffffffffffffffffffffffffffff\n  mul\n  not\n  and\n  swap1\n  dup4\n  0xffffffffffffffffffffffffffffffffffffffff\n  and\n  mul\n  or\n  swap1\n  sstore\n  pop\n    /* \"@openzeppelin/contracts/access/Ownable.sol\":3083:3091  newOwner */\n  dup2\n    /* \"@openzeppelin/contracts/access/Ownable.sol\":3052:3092  OwnershipTransferred(oldOwner, newOwner) */\n  0xffffffffffffffffffffffffffffffffffffffff\n  and\n    /* \"@openzeppelin/contracts/access/Ownable.sol\":3073:3081  oldOwner */\n  dup2\n    /* \"@openzeppelin/contracts/access/Ownable.sol\":3052:3092  OwnershipTransferred(oldOwner, newOwner) */\n  0xffffffffffffffffffffffffffffffffffffffff\n  and\n  0x8be0079c531659141344cd1fd0a4f28419497f9722a3daafe3b4186f6b6457e0\n  mload(0x40)\n  mload(0x40)\n  dup1\n  swap2\n  sub\n  swap1\n  log3\n    /* \"@openzeppelin/contracts/access/Ownable.sol\":2975:3099  {... */\n  pop\n    /* \"@openzeppelin/contracts/access/Ownable.sol\":2912:3099  function _transferOwnership(address newOwner) internal virtual {... */\n  pop\n  jump\t// out\n    /* \"#utility.yul\":88:205   */\ntag_18:\n    /* \"#utility.yul\":197:198   */\n  0x00\n    /* \"#utility.yul\":194:195   */\n  dup1\n    /* \"#utility.yul\":187:199   */\n  revert\n    /* \"#utility.yul\":334:460   */\ntag_20:\n    /* \"#utility.yul\":371:378   */\n  0x00\n    /* \"#utility.yul\":411:453   */\n  0xffffffffffffffffffffffffffffffffffffffff\n    /* \"#utility.yul\":404:409   */\n  dup3\n    /* \"#utility.yul\":400:454   */\n  and\n    /* \"#utility.yul\":389:454   */\n  swap1\n  pop\n    /* \"#utility.yul\":334:460   */\n  swap2\n  swap1\n  pop\n  jump\t// out\n    /* \"#utility.yul\":466:562   */\ntag_21:\n    /* \"#utility.yul\":503:510   */\n  0x00\n    /* \"#utility.yul\":532:556   */\n  tag_31\n    /* \"#utility.yul\":550:555   */\n  dup3\n    /* \"#utility.yul\":532:556   */\n  tag_20\n  jump\t// in\ntag_31:\n    /* \"#utility.yul\":521:556   */\n  swap1\n  pop\n    /* \"#utility.yul\":466:562   */\n  swap2\n  swap1\n  pop\n  jump\t// out\n    /* \"#utility.yul\":568:690   */\ntag_22:\n    /* \"#utility.yul\":641:665   */\n  tag_33\n    /* \"#utility.yul\":659:664   */\n  dup2\n    /* \"#utility.yul\":641:665   */\n  tag_21\n  jump\t// in\ntag_33:\n    /* \"#utility.yul\":634:639   */\n  dup2\n    /* \"#utility.yul\":631:666   */\n  eq\n    /* \"#utility.yul\":621:684   */\n  tag_34\n  jumpi\n    /* \"#utility.yul\":680:681   */\n  0x00\n    /* \"#utility.yul\":677:678   */\n  dup1\n    /* \"#utility.yul\":670:682   */\n  revert\n    /* \"#utility.yul\":621:684   */\ntag_34:\n    /* \"#utility.yul\":568:690   */\n  pop\n  jump\t// out\n    /* \"#utility.yul\":696:839   */\ntag_23:\n    /* \"#utility.yul\":753:758   */\n  0x00\n    /* \"#utility.yul\":784:790   */\n  dup2\n    /* \"#utility.yul\":778:791   */\n  mload\n    /* \"#utility.yul\":769:791   */\n  swap1\n  pop\n    /* \"#utility.yul\":800:833   */\n  tag_36\n    /* \"#utility.yul\":827:832   */\n  dup2\n    /* \"#utility.yul\":800:833   */\n  tag_22\n  jump\t// in\ntag_36:\n    /* \"#utility.yul\":696:839   */\n  swap3\n  swap2\n  pop\n  pop\n  jump\t// out\n    /* \"#utility.yul\":845:1196   */\ntag_3:\n    /* \"#utility.yul\":915:921   */\n  0x00\n    /* \"#utility.yul\":964:966   */\n  0x20\n    /* \"#utility.yul\":952:961   */\n  dup3\n    /* \"#utility.yul\":943:950   */\n  dup5\n    /* \"#utility.yul\":939:962   */\n  sub\n    /* \"#utility.yul\":935:967   */\n  slt\n    /* \"#utility.yul\":932:1051   */\n  iszero\n  tag_38\n  jumpi\n    /* \"#utility.yul\":970:1049   */\n  tag_39\n  tag_18\n  jump\t// in\ntag_39:\n    /* \"#utility.yul\":932:1051   */\ntag_38:\n    /* \"#utility.yul\":1090:1091   */\n  0x00\n    /* \"#utility.yul\":1115:1179   */\n  tag_40\n    /* \"#utility.yul\":1171:1178   */\n  dup5\n    /* \"#utility.yul\":1162:1168   */\n  dup3\n    /* \"#utility.yul\":1151:1160   */\n  dup6\n    /* \"#utility.yul\":1147:1169   */\n  add\n    /* \"#utility.yul\":1115:1179   */\n  tag_23\n  jump\t// in\ntag_40:\n    /* \"#utility.yul\":1105:1179   */\n  swap2\n  pop\n    /* \"#utility.yul\":1061:1189   */\n  pop\n    /* \"#utility.yul\":845:1196   */\n  swap3\n  swap2\n  pop\n  pop\n  jump\t// out\n    /* \"#utility.yul\":1202:1320   */\ntag_24:\n    /* \"#utility.yul\":1289:1313   */\n  tag_42\n    /* \"#utility.yul\":1307:1312   */\n  dup2\n    /* \"#utility.yul\":1289:1313   */\n  tag_21\n  jump\t// in\ntag_42:\n    /* \"#utility.yul\":1284:1287   */\n  dup3\n    /* \"#utility.yul\":1277:1314   */\n  mstore\n    /* \"#utility.yul\":1202:1320   */\n  pop\n  pop\n  jump\t// out\n    /* \"#utility.yul\":1326:1548   */\ntag_10:\n    /* \"#utility.yul\":1419:1423   */\n  0x00\n    /* \"#utility.yul\":1457:1459   */\n  0x20\n    /* \"#utility.yul\":1446:1455   */\n  dup3\n    /* \"#utility.yul\":1442:1460   */\n  add\n    /* \"#utility.yul\":1434:1460   */\n  swap1\n  pop\n    /* \"#utility.yul\":1470:1541   */\n  tag_44\n    /* \"#utility.yul\":1538:1539   */\n  0x00\n    /* \"#utility.yul\":1527:1536   */\n  dup4\n    /* \"#utility.yul\":1523:1540   */\n  add\n    /* \"#utility.yul\":1514:1520   */\n  dup5\n    /* \"#utility.yul\":1470:1541   */\n  tag_24\n  jump\t// in\ntag_44:\n    /* \"#utility.yul\":1326:1548   */\n  swap3\n  swap2\n  pop\n  pop\n  jump\t// out\n    /* \"moonx/moonx.sol\":273:8628  contract DecentralLearning is Ownable, Pausable {... */\ntag_15:\n  mload(0x80)\n  codecopy(0x00, dataOffset(sub_0), dataSize(sub_0))\n  0x00\n  assignImmutable(\"0x7aec2e6420b6fcb778a66c2b9d8fa18a316e494bda11ec5e5a11deee861d114c\")\n  return(0x00, dataSize(sub_0))\nstop\n\nsub_0: assembly {\n        /* \"moonx/moonx.sol\":273:8628  contract DecentralLearning is Ownable, Pausable {... */\n      mstore(0x40, 0x80)\n      jumpi(tag_1, lt(calldatasize, 0x04))\n      shr(0xe0, calldataload(0x00))\n      dup1\n      0x8456cb59\n      gt\n      tag_33\n      jumpi\n      dup1\n      0xaa0b5988\n      gt\n      tag_34\n      jumpi\n      dup1\n      0xd731559b\n      gt\n      tag_35\n      jumpi\n      dup1\n      0xd731559b\n      eq\n      tag_29\n      jumpi\n      dup1\n      0xdcd1473b\n      eq\n      tag_30\n      jumpi\n      dup1\n      0xed25f27c\n      eq\n      tag_31\n      jumpi\n      dup1\n      0xf2fde38b\n      eq\n      tag_32\n      jumpi\n      jump(tag_2)\n    tag_35:\n      dup1\n      0xaa0b5988\n      eq\n      tag_25\n      jumpi\n      dup1\n      0xaf252dfe\n      eq\n      tag_26\n      jumpi\n      dup1\n      0xb0aaefd6\n      eq\n      tag_27\n      jumpi\n      dup1\n      0xb8350f37\n      eq\n      tag_28\n      jumpi\n      jump(tag_2)\n    tag_34:\n      dup1\n      0x905baa61\n      gt\n      tag_36\n      jumpi\n      dup1\n      0x905baa61\n      eq\n      tag_21\n      jumpi\n      dup1\n      0x955cf223\n      eq\n      tag_22\n      jumpi\n      dup1\n      0x96f979d2\n      eq\n      tag_23\n      jumpi\n      dup1\n      0xa888f74c\n      eq\n      tag_24\n      jumpi\n      jump(tag_2)\n    tag_36:\n      dup1\n      0x8456cb59\n      eq\n      tag_18\n      jumpi\n      dup1\n      0x87bc1425\n      eq\n      tag_19\n      jumpi\n      dup1\n      0x8da5cb5b\n      eq\n      tag_20\n      jumpi\n      jump(tag_2)\n    tag_33:\n      dup1\n      0x587f5ed7\n      gt\n      tag_37\n      jumpi\n      dup1\n      0x66055159\n      gt\n      tag_38\n      jumpi\n      dup1\n      0x66055159\n      eq\n      tag_14\n      jumpi\n      dup1\n      0x715018a6\n      eq\n      tag_15\n      jumpi\n      dup1\n      0x75284998\n      eq\n      tag_16\n      jumpi\n      dup1\n      0x79370df3\n      eq\n      tag_17\n      jumpi\n      jump(tag_2)\n    tag_38:\n      dup1\n      0x587f5ed7\n      eq\n      tag_10\n      jumpi\n      dup1\n      0x5c975abb\n      eq\n      tag_11\n      jumpi\n      dup1\n      0x5cb45cb5\n      eq\n      tag_12\n      jumpi\n      dup1\n      0x5e52da27\n      eq\n      tag_13\n      jumpi\n      jump(tag_2)\n    tag_37:\n      dup1\n      0x1ae9df9a\n      gt\n      tag_39\n      jumpi\n      dup1\n      0x1ae9df9a\n      eq\n      tag_6\n      jumpi\n      dup1\n      0x34a014dc\n      eq\n      tag_7\n      jumpi\n      dup1\n      0x3f4ba83a\n      eq\n      tag_8\n      jumpi\n      dup1\n      0x4c64c030\n      eq\n      tag_9\n      jumpi\n      jump(tag_2)\n    tag_39:\n      dup1\n      0x05977b4d\n      eq\n      tag_3\n      jumpi\n      dup1\n      0x07f910f8\n      eq\n      tag_4\n      jumpi\n      dup1\n      0x15ba75f4\n      eq\n      tag_5\n      jumpi\n      jump(tag_2)\n    tag_1:\n      jumpi(tag_2, calldatasize)\n      stop\n    tag_2:\n      0x00\n      dup1\n      revert\n        /* \"moonx/moonx.sol\":8242:8426  function updateCreatorReward(uint256 _newReward) external onlyOwner {... */\n    tag_3:\n      callvalue\n      dup1\n      iszero\n      tag_42\n      jumpi\n      0x00\n      dup1\n      revert\n    tag_42:\n      pop\n      tag_43\n      0x04\n      dup1\n      calldatasize\n      sub\n      dup2\n      add\n      swap1\n      tag_44\n      swap2\n      swap1\n      tag_45\n      jump\t// in\n    tag_44:\n      tag_46\n      jump\t// in\n    tag_43:\n      stop\n        /* \"moonx/moonx.sol\":1335:1404  mapping(address => mapping(uint256 => Enrollment)) public enrollments */\n    tag_4:\n      callvalue\n      dup1\n      iszero\n      tag_47\n      jumpi\n      0x00\n      dup1\n      revert\n    tag_47:\n      pop\n      tag_48\n      0x04\n      dup1\n      calldatasize\n      sub\n      dup2\n      add\n      swap1\n      tag_49\n      swap2\n      swap1\n      tag_50\n      jump\t// in\n    tag_49:\n      tag_51\n      jump\t// in\n    tag_48:\n      mload(0x40)\n      tag_52\n      swap5\n      swap4\n      swap3\n      swap2\n      swap1\n      tag_53\n      jump\t// in\n    tag_52:\n      mload(0x40)\n      dup1\n      swap2\n      sub\n      swap1\n      return\n        /* \"moonx/moonx.sol\":6895:7344  function w_PlatformFees() external onlyOwner {... */\n    tag_5:\n      callvalue\n      dup1\n      iszero\n      tag_54\n      jumpi\n      0x00\n      dup1\n      revert\n    tag_54:\n      pop\n      tag_55\n      tag_56\n      jump\t// in\n    tag_55:\n      stop\n        /* \"moonx/moonx.sol\":7858:8047  function updatePostThreshold(uint256 _newThreshold) external onlyOwner {... */\n    tag_6:\n      callvalue\n      dup1\n      iszero\n      tag_57\n      jumpi\n      0x00\n      dup1\n      revert\n    tag_57:\n      pop\n      tag_58\n      0x04\n      dup1\n      calldatasize\n      sub\n      dup2\n      add\n      swap1\n      tag_59\n      swap2\n      swap1\n      tag_45\n      jump\t// in\n    tag_59:\n      tag_60\n      jump\t// in\n    tag_58:\n      stop\n        /* \"moonx/moonx.sol\":622:655  uint256 public lastWithdrawalTime */\n    tag_7:\n      callvalue\n      dup1\n      iszero\n      tag_61\n      jumpi\n      0x00\n      dup1\n      revert\n    tag_61:\n      pop\n      tag_62\n      tag_63\n      jump\t// in\n    tag_62:\n      mload(0x40)\n      tag_64\n      swap2\n      swap1\n      tag_65\n      jump\t// in\n    tag_64:\n      mload(0x40)\n      dup1\n      swap2\n      sub\n      swap1\n      return\n        /* \"moonx/moonx.sol\":7417:7482  function unpause() external onlyOwner {... */\n    tag_8:\n      callvalue\n      dup1\n      iszero\n      tag_66\n      jumpi\n      0x00\n      dup1\n      revert\n    tag_66:\n      pop\n      tag_67\n      tag_68\n      jump\t// in\n    tag_67:\n      stop\n        /* \"moonx/moonx.sol\":561:615  uint256 public immutable WITHDRAWAL_INTERVAL = 31 days */\n    tag_9:\n      callvalue\n      dup1\n      iszero\n      tag_69\n      jumpi\n      0x00\n      dup1\n      revert\n    tag_69:\n      pop\n      tag_70\n      tag_71\n      jump\t// in\n    tag_70:\n      mload(0x40)\n      tag_72\n      swap2\n      swap1\n      tag_65\n      jump\t// in\n    tag_72:\n      mload(0x40)\n      dup1\n      swap2\n      sub\n      swap1\n      return\n        /* \"moonx/moonx.sol\":661:691  uint256 public accumulatedFees */\n    tag_10:\n      callvalue\n      dup1\n      iszero\n      tag_73\n      jumpi\n      0x00\n      dup1\n      revert\n    tag_73:\n      pop\n      tag_74\n      tag_75\n      jump\t// in\n    tag_74:\n      mload(0x40)\n      tag_76\n      swap2\n      swap1\n      tag_65\n      jump\t// in\n    tag_76:\n      mload(0x40)\n      dup1\n      swap2\n      sub\n      swap1\n      return\n        /* \"@openzeppelin/contracts/security/Pausable.sol\":1615:1699  function paused() public view virtual returns (bool) {... */\n    tag_11:\n      callvalue\n      dup1\n      iszero\n      tag_77\n      jumpi\n      0x00\n      dup1\n      revert\n    tag_77:\n      pop\n      tag_78\n      tag_79\n      jump\t// in\n    tag_78:\n      mload(0x40)\n      tag_80\n      swap2\n      swap1\n      tag_81\n      jump\t// in\n    tag_80:\n      mload(0x40)\n      dup1\n      swap2\n      sub\n      swap1\n      return\n        /* \"moonx/moonx.sol\":5524:6888  function attemptQuiz(uint256 _courseId, string[] memory _answers) external payable COLLECTPLATFORMTX {... */\n    tag_12:\n      tag_82\n      0x04\n      dup1\n      calldatasize\n      sub\n      dup2\n      add\n      swap1\n      tag_83\n      swap2\n      swap1\n      tag_84\n      jump\t// in\n    tag_83:\n      tag_85\n      jump\t// in\n    tag_82:\n      stop\n        /* \"moonx/moonx.sol\":4991:5517  function enrollInCourse(uint256 _courseId) external payable whenNotPaused COLLECTPLATFORMTX {... */\n    tag_13:\n      tag_86\n      0x04\n      dup1\n      calldatasize\n      sub\n      dup2\n      add\n      swap1\n      tag_87\n      swap2\n      swap1\n      tag_45\n      jump\t// in\n    tag_87:\n      tag_88\n      jump\t// in\n    tag_86:\n      stop\n        /* \"moonx/moonx.sol\":1509:1535  uint256 public courseCount */\n    tag_14:\n      callvalue\n      dup1\n      iszero\n      tag_89\n      jumpi\n      0x00\n      dup1\n      revert\n    tag_89:\n      pop\n      tag_90\n      tag_91\n      jump\t// in\n    tag_90:\n      mload(0x40)\n      tag_92\n      swap2\n      swap1\n      tag_65\n      jump\t// in\n    tag_92:\n      mload(0x40)\n      dup1\n      swap2\n      sub\n      swap1\n      return\n        /* \"@openzeppelin/contracts/access/Ownable.sol\":2293:2394  function renounceOwnership() public virtual onlyOwner {... */\n    tag_15:\n      callvalue\n      dup1\n      iszero\n      tag_93\n      jumpi\n      0x00\n      dup1\n      revert\n    tag_93:\n      pop\n      tag_94\n      tag_95\n      jump\t// in\n    tag_94:\n      stop\n        /* \"moonx/moonx.sol\":4759:4985  function approveCourse(uint256 _courseId) external onlyOwner {... */\n    tag_16:\n      callvalue\n      dup1\n      iszero\n      tag_96\n      jumpi\n      0x00\n      dup1\n      revert\n    tag_96:\n      pop\n      tag_97\n      0x04\n      dup1\n      calldatasize\n      sub\n      dup2\n      add\n      swap1\n      tag_98\n      swap2\n      swap1\n      tag_45\n      jump\t// in\n    tag_98:\n      tag_99\n      jump\t// in\n    tag_97:\n      stop\n        /* \"moonx/moonx.sol\":2786:4753  function createCourse(... */\n    tag_17:\n      tag_100\n      0x04\n      dup1\n      calldatasize\n      sub\n      dup2\n      add\n      swap1\n      tag_101\n      swap2\n      swap1\n      tag_102\n      jump\t// in\n    tag_101:\n      tag_103\n      jump\t// in\n    tag_100:\n      stop\n        /* \"moonx/moonx.sol\":7350:7411  function pause() external onlyOwner {... */\n    tag_18:\n      callvalue\n      dup1\n      iszero\n      tag_104\n      jumpi\n      0x00\n      dup1\n      revert\n    tag_104:\n      pop\n      tag_105\n      tag_106\n      jump\t// in\n    tag_105:\n      stop\n        /* \"moonx/moonx.sol\":327:372  IReputationContract public reputationContract */\n    tag_19:\n      callvalue\n      dup1\n      iszero\n      tag_107\n      jumpi\n      0x00\n      dup1\n      revert\n    tag_107:\n      pop\n      tag_108\n      tag_109\n      jump\t// in\n    tag_108:\n      mload(0x40)\n      tag_110\n      swap2\n      swap1\n      tag_111\n      jump\t// in\n    tag_110:\n      mload(0x40)\n      dup1\n      swap2\n      sub\n      swap1\n      return\n        /* \"@openzeppelin/contracts/access/Ownable.sol\":1638:1723  function owner() public view virtual returns (address) {... */\n    tag_20:\n      callvalue\n      dup1\n      iszero\n      tag_112\n      jumpi\n      0x00\n      dup1\n      revert\n    tag_112:\n      pop\n      tag_113\n      tag_114\n      jump\t// in\n    tag_113:\n      mload(0x40)\n      tag_115\n      swap2\n      swap1\n      tag_116\n      jump\t// in\n    tag_115:\n      mload(0x40)\n      dup1\n      swap2\n      sub\n      swap1\n      return\n        /* \"moonx/moonx.sol\":7488:7654  function updateReputationContract(address _newReputationContract) external onlyOwner {... */\n    tag_21:\n      callvalue\n      dup1\n      iszero\n      tag_117\n      jumpi\n      0x00\n      dup1\n      revert\n    tag_117:\n      pop\n      tag_118\n      0x04\n      dup1\n      calldatasize\n      sub\n      dup2\n      add\n      swap1\n      tag_119\n      swap2\n      swap1\n      tag_120\n      jump\t// in\n    tag_119:\n      tag_121\n      jump\t// in\n    tag_118:\n      stop\n        /* \"moonx/moonx.sol\":379:409  uint256 public enrollThreshold */\n    tag_22:\n      callvalue\n      dup1\n      iszero\n      tag_122\n      jumpi\n      0x00\n      dup1\n      revert\n    tag_122:\n      pop\n      tag_123\n      tag_124\n      jump\t// in\n    tag_123:\n      mload(0x40)\n      tag_125\n      swap2\n      swap1\n      tag_65\n      jump\t// in\n    tag_125:\n      mload(0x40)\n      dup1\n      swap2\n      sub\n      swap1\n      return\n        /* \"moonx/moonx.sol\":1288:1329  mapping(uint256 => Course) public courses */\n    tag_23:\n      callvalue\n      dup1\n      iszero\n      tag_126\n      jumpi\n      0x00\n      dup1\n      revert\n    tag_126:\n      pop\n      tag_127\n      0x04\n      dup1\n      calldatasize\n      sub\n      dup2\n      add\n      swap1\n      tag_128\n      swap2\n      swap1\n      tag_45\n      jump\t// in\n    tag_128:\n      tag_129\n      jump\t// in\n    tag_127:\n      mload(0x40)\n      tag_130\n      swap7\n      swap6\n      swap5\n      swap4\n      swap3\n      swap2\n      swap1\n      tag_131\n      jump\t// in\n    tag_130:\n      mload(0x40)\n      dup1\n      swap2\n      sub\n      swap1\n      return\n        /* \"moonx/moonx.sol\":489:523  uint256 public creatorRewardAmount */\n    tag_24:\n      callvalue\n      dup1\n      iszero\n      tag_132\n      jumpi\n      0x00\n      dup1\n      revert\n    tag_132:\n      pop\n      tag_133\n      tag_134\n      jump\t// in\n    tag_133:\n      mload(0x40)\n      tag_135\n      swap2\n      swap1\n      tag_65\n      jump\t// in\n    tag_135:\n      mload(0x40)\n      dup1\n      swap2\n      sub\n      swap1\n      return\n        /* \"moonx/moonx.sol\":8432:8592  function updatePlatformFee(uint256 _newFee) external onlyOwner {... */\n    tag_25:\n      callvalue\n      dup1\n      iszero\n      tag_136\n      jumpi\n      0x00\n      dup1\n      revert\n    tag_136:\n      pop\n      tag_137\n      0x04\n      dup1\n      calldatasize\n      sub\n      dup2\n      add\n      swap1\n      tag_138\n      swap2\n      swap1\n      tag_45\n      jump\t// in\n    tag_138:\n      tag_139\n      jump\t// in\n    tag_137:\n      stop\n        /* \"moonx/moonx.sol\":529:554  uint256 public platformTx */\n    tag_26:\n      callvalue\n      dup1\n      iszero\n      tag_140\n      jumpi\n      0x00\n      dup1\n      revert\n    tag_140:\n      pop\n      tag_141\n      tag_142\n      jump\t// in\n    tag_141:\n      mload(0x40)\n      tag_143\n      swap2\n      swap1\n      tag_65\n      jump\t// in\n    tag_143:\n      mload(0x40)\n      dup1\n      swap2\n      sub\n      swap1\n      return\n        /* \"moonx/moonx.sol\":1410:1457  mapping(uint256 => Quiz[]) public courseQuizzes */\n    tag_27:\n      callvalue\n      dup1\n      iszero\n      tag_144\n      jumpi\n      0x00\n      dup1\n      revert\n    tag_144:\n      pop\n      tag_145\n      0x04\n      dup1\n      calldatasize\n      sub\n      dup2\n      add\n      swap1\n      tag_146\n      swap2\n      swap1\n      tag_147\n      jump\t// in\n    tag_146:\n      tag_148\n      jump\t// in\n    tag_145:\n      mload(0x40)\n      tag_149\n      swap8\n      swap7\n      swap6\n      swap5\n      swap4\n      swap3\n      swap2\n      swap1\n      tag_150\n      jump\t// in\n    tag_149:\n      mload(0x40)\n      dup1\n      swap2\n      sub\n      swap1\n      return\n        /* \"moonx/moonx.sol\":8053:8236  function updateStudentReward(uint256 _newReward) external onlyOwner {... */\n    tag_28:\n      callvalue\n      dup1\n      iszero\n      tag_151\n      jumpi\n      0x00\n      dup1\n      revert\n    tag_151:\n      pop\n      tag_152\n      0x04\n      dup1\n      calldatasize\n      sub\n      dup2\n      add\n      swap1\n      tag_153\n      swap2\n      swap1\n      tag_45\n      jump\t// in\n    tag_153:\n      tag_154\n      jump\t// in\n    tag_152:\n      stop\n        /* \"moonx/moonx.sol\":449:483  uint256 public studentRewardAmount */\n    tag_29:\n      callvalue\n      dup1\n      iszero\n      tag_155\n      jumpi\n      0x00\n      dup1\n      revert\n    tag_155:\n      pop\n      tag_156\n      tag_157\n      jump\t// in\n    tag_156:\n      mload(0x40)\n      tag_158\n      swap2\n      swap1\n      tag_65\n      jump\t// in\n    tag_158:\n      mload(0x40)\n      dup1\n      swap2\n      sub\n      swap1\n      return\n        /* \"moonx/moonx.sol\":7659:7852  function updateEnrollThreshold(uint256 _newThreshold) external onlyOwner {... */\n    tag_30:\n      callvalue\n      dup1\n      iszero\n      tag_159\n      jumpi\n      0x00\n      dup1\n      revert\n    tag_159:\n      pop\n      tag_160\n      0x04\n      dup1\n      calldatasize\n      sub\n      dup2\n      add\n      swap1\n      tag_161\n      swap2\n      swap1\n      tag_45\n      jump\t// in\n    tag_161:\n      tag_162\n      jump\t// in\n    tag_160:\n      stop\n        /* \"moonx/moonx.sol\":415:443  uint256 public postThreshold */\n    tag_31:\n      callvalue\n      dup1\n      iszero\n      tag_163\n      jumpi\n      0x00\n      dup1\n      revert\n    tag_163:\n      pop\n      tag_164\n      tag_165\n      jump\t// in\n    tag_164:\n      mload(0x40)\n      tag_166\n      swap2\n      swap1\n      tag_65\n      jump\t// in\n    tag_166:\n      mload(0x40)\n      dup1\n      swap2\n      sub\n      swap1\n      return\n        /* \"@openzeppelin/contracts/access/Ownable.sol\":2543:2758  function transferOwnership(address newOwner) public virtual onlyOwner {... */\n    tag_32:\n      callvalue\n      dup1\n      iszero\n      tag_167\n      jumpi\n      0x00\n      dup1\n      revert\n    tag_167:\n      pop\n      tag_168\n      0x04\n      dup1\n      calldatasize\n      sub\n      dup2\n      add\n      swap1\n      tag_169\n      swap2\n      swap1\n      tag_120\n      jump\t// in\n    tag_169:\n      tag_170\n      jump\t// in\n    tag_168:\n      stop\n        /* \"moonx/moonx.sol\":8242:8426  function updateCreatorReward(uint256 _newReward) external onlyOwner {... */\n    tag_46:\n        /* \"@openzeppelin/contracts/access/Ownable.sol\":1531:1544  _checkOwner() */\n      tag_172\n        /* \"@openzeppelin/contracts/access/Ownable.sol\":1531:1542  _checkOwner */\n      tag_173\n        /* \"@openzeppelin/contracts/access/Ownable.sol\":1531:1544  _checkOwner() */\n      jump\t// in\n    tag_172:\n        /* \"moonx/moonx.sol\":8341:8342  0 */\n      0x00\n        /* \"moonx/moonx.sol\":8328:8338  _newReward */\n      dup2\n        /* \"moonx/moonx.sol\":8328:8342  _newReward > 0 */\n      gt\n        /* \"moonx/moonx.sol\":8320:8376  require(_newReward > 0, \"Reward must be greater than 0\") */\n      tag_175\n      jumpi\n      mload(0x40)\n      0x08c379a000000000000000000000000000000000000000000000000000000000\n      dup2\n      mstore\n      0x04\n      add\n      tag_176\n      swap1\n      tag_177\n      jump\t// in\n    tag_176:\n      mload(0x40)\n      dup1\n      swap2\n      sub\n      swap1\n      revert\n    tag_175:\n        /* \"moonx/moonx.sol\":8409:8419  _newReward */\n      dup1\n        /* \"moonx/moonx.sol\":8387:8406  creatorRewardAmount */\n      0x05\n        /* \"moonx/moonx.sol\":8387:8419  creatorRewardAmount = _newReward */\n      dup2\n      swap1\n      sstore\n      pop\n        /* \"moonx/moonx.sol\":8242:8426  function updateCreatorReward(uint256 _newReward) external onlyOwner {... */\n      pop\n      jump\t// out\n        /* \"moonx/moonx.sol\":1335:1404  mapping(address => mapping(uint256 => Enrollment)) public enrollments */\n    tag_51:\n      mstore(0x20, 0x0a)\n      dup2\n      0x00\n      mstore\n      mstore(0x20, keccak256(0x00, 0x40))\n      dup1\n      0x00\n      mstore\n      keccak256(0x00, 0x40)\n      0x00\n      swap2\n      pop\n      swap2\n      pop\n      pop\n      dup1\n      0x00\n      add\n      0x00\n      swap1\n      sload\n      swap1\n      0x0100\n      exp\n      swap1\n      div\n      0xff\n      and\n      swap1\n      dup1\n      0x00\n      add\n      0x01\n      swap1\n      sload\n      swap1\n      0x0100\n      exp\n      swap1\n      div\n      0xff\n      and\n      swap1\n      dup1\n      0x00\n      add\n      0x02\n      swap1\n      sload\n      swap1\n      0x0100\n      exp\n      swap1\n      div\n      0xff\n      and\n      swap1\n      dup1\n      0x00\n      add\n      0x03\n      swap1\n      sload\n      swap1\n      0x0100\n      exp\n      swap1\n      div\n      0xff\n      and\n      swap1\n      pop\n      dup5\n      jump\t// out\n        /* \"moonx/moonx.sol\":6895:7344  function w_PlatformFees() external onlyOwner {... */\n    tag_56:\n        /* \"@openzeppelin/contracts/access/Ownable.sol\":1531:1544  _checkOwner() */\n      tag_179\n        /* \"@openzeppelin/contracts/access/Ownable.sol\":1531:1542  _checkOwner */\n      tag_173\n        /* \"@openzeppelin/contracts/access/Ownable.sol\":1531:1544  _checkOwner() */\n      jump\t// in\n    tag_179:\n        /* \"moonx/moonx.sol\":6998:7017  WITHDRAWAL_INTERVAL */\n      immutable(\"0x7aec2e6420b6fcb778a66c2b9d8fa18a316e494bda11ec5e5a11deee861d114c\")\n        /* \"moonx/moonx.sol\":6977:6995  lastWithdrawalTime */\n      sload(0x07)\n        /* \"moonx/moonx.sol\":6977:7017  lastWithdrawalTime + WITHDRAWAL_INTERVAL */\n      tag_181\n      swap2\n      swap1\n      tag_182\n      jump\t// in\n    tag_181:\n        /* \"moonx/moonx.sol\":6958:6973  block.timestamp */\n      timestamp\n        /* \"moonx/moonx.sol\":6958:7017  block.timestamp >= lastWithdrawalTime + WITHDRAWAL_INTERVAL */\n      lt\n      iszero\n        /* \"moonx/moonx.sol\":6950:7053  require(block.timestamp >= lastWithdrawalTime + WITHDRAWAL_INTERVAL, \"Withdrawal interval not reached\") */\n      tag_183\n      jumpi\n      mload(0x40)\n      0x08c379a000000000000000000000000000000000000000000000000000000000\n      dup2\n      mstore\n      0x04\n      add\n      tag_184\n      swap1\n      tag_185\n      jump\t// in\n    tag_184:\n      mload(0x40)\n      dup1\n      swap2\n      sub\n      swap1\n      revert\n    tag_183:\n        /* \"moonx/moonx.sol\":7063:7077  uint256 amount */\n      0x00\n        /* \"moonx/moonx.sol\":7080:7095  accumulatedFees */\n      sload(0x08)\n        /* \"moonx/moonx.sol\":7063:7095  uint256 amount = accumulatedFees */\n      swap1\n      pop\n        /* \"moonx/moonx.sol\":7123:7124  0 */\n      0x00\n        /* \"moonx/moonx.sol\":7105:7120  accumulatedFees */\n      0x08\n        /* \"moonx/moonx.sol\":7105:7124  accumulatedFees = 0 */\n      dup2\n      swap1\n      sstore\n      pop\n        /* \"moonx/moonx.sol\":7155:7170  block.timestamp */\n      timestamp\n        /* \"moonx/moonx.sol\":7134:7152  lastWithdrawalTime */\n      0x07\n        /* \"moonx/moonx.sol\":7134:7170  lastWithdrawalTime = block.timestamp */\n      dup2\n      swap1\n      sstore\n      pop\n        /* \"moonx/moonx.sol\":7182:7194  bool success */\n      0x00\n        /* \"moonx/moonx.sol\":7208:7215  owner() */\n      tag_186\n        /* \"moonx/moonx.sol\":7208:7213  owner */\n      tag_114\n        /* \"moonx/moonx.sol\":7208:7215  owner() */\n      jump\t// in\n    tag_186:\n        /* \"moonx/moonx.sol\":7200:7221  payable(owner()).call */\n      0xffffffffffffffffffffffffffffffffffffffff\n      and\n        /* \"moonx/moonx.sol\":7229:7235  amount */\n      dup3\n        /* \"moonx/moonx.sol\":7200:7240  payable(owner()).call{value: amount}(\"\") */\n      mload(0x40)\n      tag_187\n      swap1\n      tag_188\n      jump\t// in\n    tag_187:\n      0x00\n      mload(0x40)\n      dup1\n      dup4\n      sub\n      dup2\n      dup6\n      dup8\n      gas\n      call\n      swap3\n      pop\n      pop\n      pop\n      returndatasize\n      dup1\n      0x00\n      dup2\n      eq\n      tag_191\n      jumpi\n      mload(0x40)\n      swap2\n      pop\n      and(add(returndatasize, 0x3f), not(0x1f))\n      dup3\n      add\n      0x40\n      mstore\n      returndatasize\n      dup3\n      mstore\n      returndatasize\n      0x00\n      0x20\n      dup5\n      add\n      returndatacopy\n      jump(tag_190)\n    tag_191:\n      0x60\n      swap2\n      pop\n    tag_190:\n      pop\n        /* \"moonx/moonx.sol\":7181:7240  (bool success, ) = payable(owner()).call{value: amount}(\"\") */\n      pop\n      swap1\n      pop\n        /* \"moonx/moonx.sol\":7258:7265  success */\n      dup1\n        /* \"moonx/moonx.sol\":7250:7297  require(success, \"Failed to withdraw gas fees\") */\n      tag_192\n      jumpi\n      mload(0x40)\n      0x08c379a000000000000000000000000000000000000000000000000000000000\n      dup2\n      mstore\n      0x04\n      add\n      tag_193\n      swap1\n      tag_194\n      jump\t// in\n    tag_193:\n      mload(0x40)\n      dup1\n      swap2\n      sub\n      swap1\n      revert\n    tag_192:\n        /* \"moonx/moonx.sol\":7313:7337  GasFeesWithdrawn(amount) */\n      0x0d3c6acef4f1bd70f36dad19b43c6b794ac969b546734638671026f801d476fa\n        /* \"moonx/moonx.sol\":7330:7336  amount */\n      dup3\n        /* \"moonx/moonx.sol\":7313:7337  GasFeesWithdrawn(amount) */\n      mload(0x40)\n      tag_195\n      swap2\n      swap1\n      tag_65\n      jump\t// in\n    tag_195:\n      mload(0x40)\n      dup1\n      swap2\n      sub\n      swap1\n      log1\n        /* \"moonx/moonx.sol\":6940:7344  {... */\n      pop\n      pop\n        /* \"moonx/moonx.sol\":6895:7344  function w_PlatformFees() external onlyOwner {... */\n      jump\t// out\n        /* \"moonx/moonx.sol\":7858:8047  function updatePostThreshold(uint256 _newThreshold) external onlyOwner {... */\n    tag_60:\n        /* \"@openzeppelin/contracts/access/Ownable.sol\":1531:1544  _checkOwner() */\n      tag_197\n        /* \"@openzeppelin/contracts/access/Ownable.sol\":1531:1542  _checkOwner */\n      tag_173\n        /* \"@openzeppelin/contracts/access/Ownable.sol\":1531:1544  _checkOwner() */\n      jump\t// in\n    tag_197:\n        /* \"moonx/moonx.sol\":7963:7964  0 */\n      0x00\n        /* \"moonx/moonx.sol\":7947:7960  _newThreshold */\n      dup2\n        /* \"moonx/moonx.sol\":7947:7964  _newThreshold > 0 */\n      gt\n        /* \"moonx/moonx.sol\":7939:8001  require(_newThreshold > 0, \"Threshold must be greater than 0\") */\n      tag_199\n      jumpi\n      mload(0x40)\n      0x08c379a000000000000000000000000000000000000000000000000000000000\n      dup2\n      mstore\n      0x04\n      add\n      tag_200\n      swap1\n      tag_201\n      jump\t// in\n    tag_200:\n      mload(0x40)\n      dup1\n      swap2\n      sub\n      swap1\n      revert\n    tag_199:\n        /* \"moonx/moonx.sol\":8027:8040  _newThreshold */\n      dup1\n        /* \"moonx/moonx.sol\":8011:8024  postThreshold */\n      0x03\n        /* \"moonx/moonx.sol\":8011:8040  postThreshold = _newThreshold */\n      dup2\n      swap1\n      sstore\n      pop\n        /* \"moonx/moonx.sol\":7858:8047  function updatePostThreshold(uint256 _newThreshold) external onlyOwner {... */\n      pop\n      jump\t// out\n        /* \"moonx/moonx.sol\":622:655  uint256 public lastWithdrawalTime */\n    tag_63:\n      sload(0x07)\n      dup2\n      jump\t// out\n        /* \"moonx/moonx.sol\":7417:7482  function unpause() external onlyOwner {... */\n    tag_68:\n        /* \"@openzeppelin/contracts/access/Ownable.sol\":1531:1544  _checkOwner() */\n      tag_203\n        /* \"@openzeppelin/contracts/access/Ownable.sol\":1531:1542  _checkOwner */\n      tag_173\n        /* \"@openzeppelin/contracts/access/Ownable.sol\":1531:1544  _checkOwner() */\n      jump\t// in\n    tag_203:\n        /* \"moonx/moonx.sol\":7465:7475  _unpause() */\n      tag_205\n        /* \"moonx/moonx.sol\":7465:7473  _unpause */\n      tag_206\n        /* \"moonx/moonx.sol\":7465:7475  _unpause() */\n      jump\t// in\n    tag_205:\n        /* \"moonx/moonx.sol\":7417:7482  function unpause() external onlyOwner {... */\n      jump\t// out\n        /* \"moonx/moonx.sol\":561:615  uint256 public immutable WITHDRAWAL_INTERVAL = 31 days */\n    tag_71:\n      immutable(\"0x7aec2e6420b6fcb778a66c2b9d8fa18a316e494bda11ec5e5a11deee861d114c\")\n      dup2\n      jump\t// out\n        /* \"moonx/moonx.sol\":661:691  uint256 public accumulatedFees */\n    tag_75:\n      sload(0x08)\n      dup2\n      jump\t// out\n        /* \"@openzeppelin/contracts/security/Pausable.sol\":1615:1699  function paused() public view virtual returns (bool) {... */\n    tag_79:\n        /* \"@openzeppelin/contracts/security/Pausable.sol\":1662:1666  bool */\n      0x00\n        /* \"@openzeppelin/contracts/security/Pausable.sol\":1685:1692  _paused */\n      dup1\n      0x14\n      swap1\n      sload\n      swap1\n      0x0100\n      exp\n      swap1\n      div\n      0xff\n      and\n        /* \"@openzeppelin/contracts/security/Pausable.sol\":1678:1692  return _paused */\n      swap1\n      pop\n        /* \"@openzeppelin/contracts/security/Pausable.sol\":1615:1699  function paused() public view virtual returns (bool) {... */\n      swap1\n      jump\t// out\n        /* \"moonx/moonx.sol\":5524:6888  function attemptQuiz(uint256 _courseId, string[] memory _answers) external payable COLLECTPLATFORMTX {... */\n    tag_85:\n        /* \"moonx/moonx.sol\":2554:2564  platformTx */\n      sload(0x06)\n        /* \"moonx/moonx.sol\":2541:2550  msg.value */\n      callvalue\n        /* \"moonx/moonx.sol\":2541:2564  msg.value >= platformTx */\n      lt\n      iszero\n        /* \"moonx/moonx.sol\":2533:2589  require(msg.value >= platformTx, \"Insufficient gas fee\") */\n      tag_209\n      jumpi\n      mload(0x40)\n      0x08c379a000000000000000000000000000000000000000000000000000000000\n      dup2\n      mstore\n      0x04\n      add\n      tag_210\n      swap1\n      tag_211\n      jump\t// in\n    tag_210:\n      mload(0x40)\n      dup1\n      swap2\n      sub\n      swap1\n      revert\n    tag_209:\n        /* \"moonx/moonx.sol\":2618:2628  platformTx */\n      sload(0x06)\n        /* \"moonx/moonx.sol\":2599:2614  accumulatedFees */\n      0x08\n      0x00\n        /* \"moonx/moonx.sol\":2599:2628  accumulatedFees += platformTx */\n      dup3\n      dup3\n      sload\n      tag_212\n      swap2\n      swap1\n      tag_182\n      jump\t// in\n    tag_212:\n      swap3\n      pop\n      pop\n      dup2\n      swap1\n      sstore\n      pop\n        /* \"moonx/moonx.sol\":2638:2652  uint256 excess */\n      0x00\n        /* \"moonx/moonx.sol\":2667:2677  platformTx */\n      sload(0x06)\n        /* \"moonx/moonx.sol\":2655:2664  msg.value */\n      callvalue\n        /* \"moonx/moonx.sol\":2655:2677  msg.value - platformTx */\n      tag_213\n      swap2\n      swap1\n      tag_214\n      jump\t// in\n    tag_213:\n        /* \"moonx/moonx.sol\":2638:2677  uint256 excess = msg.value - platformTx */\n      swap1\n      pop\n        /* \"moonx/moonx.sol\":2700:2701  0 */\n      0x00\n        /* \"moonx/moonx.sol\":2691:2697  excess */\n      dup2\n        /* \"moonx/moonx.sol\":2691:2701  excess > 0 */\n      gt\n        /* \"moonx/moonx.sol\":2687:2764  if (excess > 0) {... */\n      iszero\n      tag_215\n      jumpi\n        /* \"moonx/moonx.sol\":2725:2735  msg.sender */\n      caller\n        /* \"moonx/moonx.sol\":2717:2745  payable(msg.sender).transfer */\n      0xffffffffffffffffffffffffffffffffffffffff\n      and\n        /* \"moonx/moonx.sol\":2717:2753  payable(msg.sender).transfer(excess) */\n      0x08fc\n        /* \"moonx/moonx.sol\":2746:2752  excess */\n      dup3\n        /* \"moonx/moonx.sol\":2717:2753  payable(msg.sender).transfer(excess) */\n      swap1\n      dup2\n      iszero\n      mul\n      swap1\n      mload(0x40)\n      0x00\n      mload(0x40)\n      dup1\n      dup4\n      sub\n      dup2\n      dup6\n      dup9\n      dup9\n      call\n      swap4\n      pop\n      pop\n      pop\n      pop\n      iszero\n      dup1\n      iszero\n      tag_217\n      jumpi\n      returndatasize\n      0x00\n      dup1\n      returndatacopy\n      revert(0x00, returndatasize)\n    tag_217:\n      pop\n        /* \"moonx/moonx.sol\":2687:2764  if (excess > 0) {... */\n    tag_215:\n        /* \"moonx/moonx.sol\":5635:5664  Enrollment storage enrollment */\n      0x00\n        /* \"moonx/moonx.sol\":5667:5678  enrollments */\n      0x0a\n        /* \"moonx/moonx.sol\":5667:5690  enrollments[msg.sender] */\n      0x00\n        /* \"moonx/moonx.sol\":5679:5689  msg.sender */\n      caller\n        /* \"moonx/moonx.sol\":5667:5690  enrollments[msg.sender] */\n      0xffffffffffffffffffffffffffffffffffffffff\n      and\n      0xffffffffffffffffffffffffffffffffffffffff\n      and\n      dup2\n      mstore\n      0x20\n      add\n      swap1\n      dup2\n      mstore\n      0x20\n      add\n      0x00\n      keccak256\n        /* \"moonx/moonx.sol\":5667:5701  enrollments[msg.sender][_courseId] */\n      0x00\n        /* \"moonx/moonx.sol\":5691:5700  _courseId */\n      dup6\n        /* \"moonx/moonx.sol\":5667:5701  enrollments[msg.sender][_courseId] */\n      dup2\n      mstore\n      0x20\n      add\n      swap1\n      dup2\n      mstore\n      0x20\n      add\n      0x00\n      keccak256\n        /* \"moonx/moonx.sol\":5635:5701  Enrollment storage enrollment = enrollments[msg.sender][_courseId] */\n      swap1\n      pop\n        /* \"moonx/moonx.sol\":5719:5729  enrollment */\n      dup1\n        /* \"moonx/moonx.sol\":5719:5740  enrollment.isEnrolled */\n      0x00\n      add\n      0x00\n      swap1\n      sload\n      swap1\n      0x0100\n      exp\n      swap1\n      div\n      0xff\n      and\n        /* \"moonx/moonx.sol\":5711:5777  require(enrollment.isEnrolled, \"User not enrolled in this course\") */\n      tag_219\n      jumpi\n      mload(0x40)\n      0x08c379a000000000000000000000000000000000000000000000000000000000\n      dup2\n      mstore\n      0x04\n      add\n      tag_220\n      swap1\n      tag_221\n      jump\t// in\n    tag_220:\n      mload(0x40)\n      dup1\n      swap2\n      sub\n      swap1\n      revert\n    tag_219:\n        /* \"moonx/moonx.sol\":5821:5822  2 */\n      0x02\n        /* \"moonx/moonx.sol\":5795:5805  enrollment */\n      dup2\n        /* \"moonx/moonx.sol\":5795:5818  enrollment.attemptCount */\n      0x00\n      add\n      0x01\n      swap1\n      sload\n      swap1\n      0x0100\n      exp\n      swap1\n      div\n      0xff\n      and\n        /* \"moonx/moonx.sol\":5795:5822  enrollment.attemptCount < 2 */\n      0xff\n      and\n      lt\n        /* \"moonx/moonx.sol\":5787:5851  require(enrollment.attemptCount < 2, \"Maximum attempts reached\") */\n      tag_222\n      jumpi\n      mload(0x40)\n      0x08c379a000000000000000000000000000000000000000000000000000000000\n      dup2\n      mstore\n      0x04\n      add\n      tag_223\n      swap1\n      tag_224\n      jump\t// in\n    tag_223:\n      mload(0x40)\n      dup1\n      swap2\n      sub\n      swap1\n      revert\n    tag_222:\n        /* \"moonx/moonx.sol\":5870:5880  enrollment */\n      dup1\n        /* \"moonx/moonx.sol\":5870:5890  enrollment.hasPassed */\n      0x00\n      add\n      0x02\n      swap1\n      sload\n      swap1\n      0x0100\n      exp\n      swap1\n      div\n      0xff\n      and\n        /* \"moonx/moonx.sol\":5869:5890  !enrollment.hasPassed */\n      iszero\n        /* \"moonx/moonx.sol\":5861:5930  require(!enrollment.hasPassed, \"User has already passed this course\") */\n      tag_225\n      jumpi\n      mload(0x40)\n      0x08c379a000000000000000000000000000000000000000000000000000000000\n      dup2\n      mstore\n      0x04\n      add\n      tag_226\n      swap1\n      tag_227\n      jump\t// in\n    tag_226:\n      mload(0x40)\n      dup1\n      swap2\n      sub\n      swap1\n      revert\n    tag_225:\n        /* \"moonx/moonx.sol\":5941:5951  enrollment */\n      dup1\n        /* \"moonx/moonx.sol\":5941:5964  enrollment.attemptCount */\n      0x00\n      add\n      0x01\n        /* \"moonx/moonx.sol\":5941:5966  enrollment.attemptCount++ */\n      dup2\n      dup2\n      swap1\n      sload\n      swap1\n      0x0100\n      exp\n      swap1\n      div\n      0xff\n      and\n      dup1\n      swap3\n      swap2\n      swap1\n      tag_228\n      swap1\n      tag_229\n      jump\t// in\n    tag_228:\n      swap2\n      swap1\n      0x0100\n      exp\n      dup2\n      sload\n      dup2\n      0xff\n      mul\n      not\n      and\n      swap1\n      dup4\n      0xff\n      and\n      mul\n      or\n      swap1\n      sstore\n      pop\n      pop\n        /* \"moonx/moonx.sol\":5976:5997  Quiz[] memory quizzes */\n      0x00\n        /* \"moonx/moonx.sol\":6000:6013  courseQuizzes */\n      0x0b\n        /* \"moonx/moonx.sol\":6000:6024  courseQuizzes[_courseId] */\n      0x00\n        /* \"moonx/moonx.sol\":6014:6023  _courseId */\n      dup7\n        /* \"moonx/moonx.sol\":6000:6024  courseQuizzes[_courseId] */\n      dup2\n      mstore\n      0x20\n      add\n      swap1\n      dup2\n      mstore\n      0x20\n      add\n      0x00\n      keccak256\n        /* \"moonx/moonx.sol\":5976:6024  Quiz[] memory quizzes = courseQuizzes[_courseId] */\n      dup1\n      sload\n      dup1\n      0x20\n      mul\n      0x20\n      add\n      mload(0x40)\n      swap1\n      dup2\n      add\n      0x40\n      mstore\n      dup1\n      swap3\n      swap2\n      swap1\n      dup2\n      dup2\n      mstore\n      0x20\n      add\n      0x00\n      swap1\n    tag_230:\n      dup3\n      dup3\n      lt\n      iszero\n      tag_231\n      jumpi\n      dup4\n      dup3\n      swap1\n      0x00\n      mstore\n      keccak256(0x00, 0x20)\n      swap1\n      0x07\n      mul\n      add\n      mload(0x40)\n      dup1\n      0xe0\n      add\n      0x40\n      mstore\n      swap1\n      dup2\n      0x00\n      dup3\n      add\n      sload\n      dup2\n      mstore\n      0x20\n      add\n      0x01\n      dup3\n      add\n      dup1\n      sload\n      tag_233\n      swap1\n      tag_234\n      jump\t// in\n    tag_233:\n      dup1\n      0x1f\n      add\n      0x20\n      dup1\n      swap2\n      div\n      mul\n      0x20\n      add\n      mload(0x40)\n      swap1\n      dup2\n      add\n      0x40\n      mstore\n      dup1\n      swap3\n      swap2\n      swap1\n      dup2\n      dup2\n      mstore\n      0x20\n      add\n      dup3\n      dup1\n      sload\n      tag_235\n      swap1\n      tag_234\n      jump\t// in\n    tag_235:\n      dup1\n      iszero\n      tag_236\n      jumpi\n      dup1\n      0x1f\n      lt\n      tag_237\n      jumpi\n      0x0100\n      dup1\n      dup4\n      sload\n      div\n      mul\n      dup4\n      mstore\n      swap2\n      0x20\n      add\n      swap2\n      jump(tag_236)\n    tag_237:\n      dup3\n      add\n      swap2\n      swap1\n      0x00\n      mstore\n      keccak256(0x00, 0x20)\n      swap1\n    tag_238:\n      dup2\n      sload\n      dup2\n      mstore\n      swap1\n      0x01\n      add\n      swap1\n      0x20\n      add\n      dup1\n      dup4\n      gt\n      tag_238\n      jumpi\n      dup3\n      swap1\n      sub\n      0x1f\n      and\n      dup3\n      add\n      swap2\n    tag_236:\n      pop\n      pop\n      pop\n      pop\n      pop\n      dup2\n      mstore\n      0x20\n      add\n      0x02\n      dup3\n      add\n      dup1\n      sload\n      tag_239\n      swap1\n      tag_234\n      jump\t// in\n    tag_239:\n      dup1\n      0x1f\n      add\n      0x20\n      dup1\n      swap2\n      div\n      mul\n      0x20\n      add\n      mload(0x40)\n      swap1\n      dup2\n      add\n      0x40\n      mstore\n      dup1\n      swap3\n      swap2\n      swap1\n      dup2\n      dup2\n      mstore\n      0x20\n      add\n      dup3\n      dup1\n      sload\n      tag_240\n      swap1\n      tag_234\n      jump\t// in\n    tag_240:\n      dup1\n      iszero\n      tag_241\n      jumpi\n      dup1\n      0x1f\n      lt\n      tag_242\n      jumpi\n      0x0100\n      dup1\n      dup4\n      sload\n      div\n      mul\n      dup4\n      mstore\n      swap2\n      0x20\n      add\n      swap2\n      jump(tag_241)\n    tag_242:\n      dup3\n      add\n      swap2\n      swap1\n      0x00\n      mstore\n      keccak256(0x00, 0x20)\n      swap1\n    tag_243:\n      dup2\n      sload\n      dup2\n      mstore\n      swap1\n      0x01\n      add\n      swap1\n      0x20\n      add\n      dup1\n      dup4\n      gt\n      tag_243\n      jumpi\n      dup3\n      swap1\n      sub\n      0x1f\n      and\n      dup3\n      add\n      swap2\n    tag_241:\n      pop\n      pop\n      pop\n      pop\n      pop\n      dup2\n      mstore\n      0x20\n      add\n      0x03\n      dup3\n      add\n      dup1\n      sload\n      tag_244\n      swap1\n      tag_234\n      jump\t// in\n    tag_244:\n      dup1\n      0x1f\n      add\n      0x20\n      dup1\n      swap2\n      div\n      mul\n      0x20\n      add\n      mload(0x40)\n      swap1\n      dup2\n      add\n      0x40\n      mstore\n      dup1\n      swap3\n      swap2\n      swap1\n      dup2\n      dup2\n      mstore\n      0x20\n      add\n      dup3\n      dup1\n      sload\n      tag_245\n      swap1\n      tag_234\n      jump\t// in\n    tag_245:\n      dup1\n      iszero\n      tag_246\n      jumpi\n      dup1\n      0x1f\n      lt\n      tag_247\n      jumpi\n      0x0100\n      dup1\n      dup4\n      sload\n      div\n      mul\n      dup4\n      mstore\n      swap2\n      0x20\n      add\n      swap2\n      jump(tag_246)\n    tag_247:\n      dup3\n      add\n      swap2\n      swap1\n      0x00\n      mstore\n      keccak256(0x00, 0x20)\n      swap1\n    tag_248:\n      dup2\n      sload\n      dup2\n      mstore\n      swap1\n      0x01\n      add\n      swap1\n      0x20\n      add\n      dup1\n      dup4\n      gt\n      tag_248\n      jumpi\n      dup3\n      swap1\n      sub\n      0x1f\n      and\n      dup3\n      add\n      swap2\n    tag_246:\n      pop\n      pop\n      pop\n      pop\n      pop\n      dup2\n      mstore\n      0x20\n      add\n      0x04\n      dup3\n      add\n      dup1\n      sload\n      tag_249\n      swap1\n      tag_234\n      jump\t// in\n    tag_249:\n      dup1\n      0x1f\n      add\n      0x20\n      dup1\n      swap2\n      div\n      mul\n      0x20\n      add\n      mload(0x40)\n      swap1\n      dup2\n      add\n      0x40\n      mstore\n      dup1\n      swap3\n      swap2\n      swap1\n      dup2\n      dup2\n      mstore\n      0x20\n      add\n      dup3\n      dup1\n      sload\n      tag_250\n      swap1\n      tag_234\n      jump\t// in\n    tag_250:\n      dup1\n      iszero\n      tag_251\n      jumpi\n      dup1\n      0x1f\n      lt\n      tag_252\n      jumpi\n      0x0100\n      dup1\n      dup4\n      sload\n      div\n      mul\n      dup4\n      mstore\n      swap2\n      0x20\n      add\n      swap2\n      jump(tag_251)\n    tag_252:\n      dup3\n      add\n      swap2\n      swap1\n      0x00\n      mstore\n      keccak256(0x00, 0x20)\n      swap1\n    tag_253:\n      dup2\n      sload\n      dup2\n      mstore\n      swap1\n      0x01\n      add\n      swap1\n      0x20\n      add\n      dup1\n      dup4\n      gt\n      tag_253\n      jumpi\n      dup3\n      swap1\n      sub\n      0x1f\n      and\n      dup3\n      add\n      swap2\n    tag_251:\n      pop\n      pop\n      pop\n      pop\n      pop\n      dup2\n      mstore\n      0x20\n      add\n      0x05\n      dup3\n      add\n      dup1\n      sload\n      tag_254\n      swap1\n      tag_234\n      jump\t// in\n    tag_254:\n      dup1\n      0x1f\n      add\n      0x20\n      dup1\n      swap2\n      div\n      mul\n      0x20\n      add\n      mload(0x40)\n      swap1\n      dup2\n      add\n      0x40\n      mstore\n      dup1\n      swap3\n      swap2\n      swap1\n      dup2\n      dup2\n      mstore\n      0x20\n      add\n      dup3\n      dup1\n      sload\n      tag_255\n      swap1\n      tag_234\n      jump\t// in\n    tag_255:\n      dup1\n      iszero\n      tag_256\n      jumpi\n      dup1\n      0x1f\n      lt\n      tag_257\n      jumpi\n      0x0100\n      dup1\n      dup4\n      sload\n      div\n      mul\n      dup4\n      mstore\n      swap2\n      0x20\n      add\n      swap2\n      jump(tag_256)\n    tag_257:\n      dup3\n      add\n      swap2\n      swap1\n      0x00\n      mstore\n      keccak256(0x00, 0x20)\n      swap1\n    tag_258:\n      dup2\n      sload\n      dup2\n      mstore\n      swap1\n      0x01\n      add\n      swap1\n      0x20\n      add\n      dup1\n      dup4\n      gt\n      tag_258\n      jumpi\n      dup3\n      swap1\n      sub\n      0x1f\n      and\n      dup3\n      add\n      swap2\n    tag_256:\n      pop\n      pop\n      pop\n      pop\n      pop\n      dup2\n      mstore\n      0x20\n      add\n      0x06\n      dup3\n      add\n      sload\n      dup2\n      mstore\n      pop\n      pop\n      dup2\n      mstore\n      0x20\n      add\n      swap1\n      0x01\n      add\n      swap1\n      jump(tag_230)\n    tag_231:\n      pop\n      pop\n      pop\n      pop\n      swap1\n      pop\n        /* \"moonx/moonx.sol\":6061:6068  quizzes */\n      dup1\n        /* \"moonx/moonx.sol\":6061:6075  quizzes.length */\n      mload\n        /* \"moonx/moonx.sol\":6042:6050  _answers */\n      dup5\n        /* \"moonx/moonx.sol\":6042:6057  _answers.length */\n      mload\n        /* \"moonx/moonx.sol\":6042:6075  _answers.length == quizzes.length */\n      eq\n        /* \"moonx/moonx.sol\":6034:6101  require(_answers.length == quizzes.length, \"Answer count mismatch\") */\n      tag_259\n      jumpi\n      mload(0x40)\n      0x08c379a000000000000000000000000000000000000000000000000000000000\n      dup2\n      mstore\n      0x04\n      add\n      tag_260\n      swap1\n      tag_261\n      jump\t// in\n    tag_260:\n      mload(0x40)\n      dup1\n      swap2\n      sub\n      swap1\n      revert\n    tag_259:\n        /* \"moonx/moonx.sol\":6112:6123  bool passed */\n      0x00\n        /* \"moonx/moonx.sol\":6126:6130  true */\n      0x01\n        /* \"moonx/moonx.sol\":6112:6130  bool passed = true */\n      swap1\n      pop\n        /* \"moonx/moonx.sol\":6146:6155  uint256 i */\n      0x00\n        /* \"moonx/moonx.sol\":6141:6358  for (uint256 i = 0; i < quizzes.length; i++) {... */\n    tag_262:\n        /* \"moonx/moonx.sol\":6165:6172  quizzes */\n      dup3\n        /* \"moonx/moonx.sol\":6165:6179  quizzes.length */\n      mload\n        /* \"moonx/moonx.sol\":6161:6162  i */\n      dup2\n        /* \"moonx/moonx.sol\":6161:6179  i < quizzes.length */\n      lt\n        /* \"moonx/moonx.sol\":6141:6358  for (uint256 i = 0; i < quizzes.length; i++) {... */\n      iszero\n      tag_263\n      jumpi\n        /* \"moonx/moonx.sol\":6248:6255  quizzes */\n      dup3\n        /* \"moonx/moonx.sol\":6256:6257  i */\n      dup2\n        /* \"moonx/moonx.sol\":6248:6258  quizzes[i] */\n      dup2\n      mload\n      dup2\n      lt\n      tag_265\n      jumpi\n      tag_266\n      tag_267\n      jump\t// in\n    tag_266:\n    tag_265:\n      0x20\n      mul\n      0x20\n      add\n      add\n      mload\n        /* \"moonx/moonx.sol\":6248:6276  quizzes[i].correctAnswerHash */\n      0xc0\n      add\n      mload\n        /* \"moonx/moonx.sol\":6231:6239  _answers */\n      dup7\n        /* \"moonx/moonx.sol\":6240:6241  i */\n      dup3\n        /* \"moonx/moonx.sol\":6231:6242  _answers[i] */\n      dup2\n      mload\n      dup2\n      lt\n      tag_268\n      jumpi\n      tag_269\n      tag_267\n      jump\t// in\n    tag_269:\n    tag_268:\n      0x20\n      mul\n      0x20\n      add\n      add\n      mload\n        /* \"moonx/moonx.sol\":6214:6243  abi.encodePacked(_answers[i]) */\n      add(0x20, mload(0x40))\n      tag_270\n      swap2\n      swap1\n      tag_271\n      jump\t// in\n    tag_270:\n      mload(0x40)\n      0x20\n      dup2\n      dup4\n      sub\n      sub\n      dup2\n      mstore\n      swap1\n      0x40\n      mstore\n        /* \"moonx/moonx.sol\":6204:6244  keccak256(abi.encodePacked(_answers[i])) */\n      dup1\n      mload\n      swap1\n      0x20\n      add\n      keccak256\n        /* \"moonx/moonx.sol\":6204:6276  keccak256(abi.encodePacked(_answers[i])) != quizzes[i].correctAnswerHash */\n      eq\n        /* \"moonx/moonx.sol\":6200:6348  if (keccak256(abi.encodePacked(_answers[i])) != quizzes[i].correctAnswerHash) {... */\n      tag_272\n      jumpi\n        /* \"moonx/moonx.sol\":6305:6310  false */\n      0x00\n        /* \"moonx/moonx.sol\":6296:6310  passed = false */\n      swap2\n      pop\n        /* \"moonx/moonx.sol\":6328:6333  break */\n      jump(tag_263)\n        /* \"moonx/moonx.sol\":6200:6348  if (keccak256(abi.encodePacked(_answers[i])) != quizzes[i].correctAnswerHash) {... */\n    tag_272:\n        /* \"moonx/moonx.sol\":6181:6184  i++ */\n      dup1\n      dup1\n      0x01\n      add\n      swap2\n      pop\n      pop\n        /* \"moonx/moonx.sol\":6141:6358  for (uint256 i = 0; i < quizzes.length; i++) {... */\n      jump(tag_262)\n    tag_263:\n      pop\n        /* \"moonx/moonx.sol\":6372:6378  passed */\n      dup1\n        /* \"moonx/moonx.sol\":6368:6822  if (passed) {... */\n      iszero\n      tag_273\n      jumpi\n        /* \"moonx/moonx.sol\":6417:6421  true */\n      0x01\n        /* \"moonx/moonx.sol\":6394:6404  enrollment */\n      dup4\n        /* \"moonx/moonx.sol\":6394:6414  enrollment.hasPassed */\n      0x00\n      add\n      0x02\n        /* \"moonx/moonx.sol\":6394:6421  enrollment.hasPassed = true */\n      0x0100\n      exp\n      dup2\n      sload\n      dup2\n      0xff\n      mul\n      not\n      and\n      swap1\n      dup4\n      iszero\n      iszero\n      mul\n      or\n      swap1\n      sstore\n      pop\n        /* \"moonx/moonx.sol\":6435:6442  courses */\n      0x09\n        /* \"moonx/moonx.sol\":6435:6453  courses[_courseId] */\n      0x00\n        /* \"moonx/moonx.sol\":6443:6452  _courseId */\n      dup8\n        /* \"moonx/moonx.sol\":6435:6453  courses[_courseId] */\n      dup2\n      mstore\n      0x20\n      add\n      swap1\n      dup2\n      mstore\n      0x20\n      add\n      0x00\n      keccak256\n        /* \"moonx/moonx.sol\":6435:6468  courses[_courseId].passedStudents */\n      0x02\n      add\n      0x01\n        /* \"moonx/moonx.sol\":6435:6470  courses[_courseId].passedStudents++ */\n      dup2\n      dup2\n      swap1\n      sload\n      swap1\n      0x0100\n      exp\n      swap1\n      div\n      0xffffffff\n      and\n      dup1\n      swap3\n      swap2\n      swap1\n      tag_274\n      swap1\n      tag_275\n      jump\t// in\n    tag_274:\n      swap2\n      swap1\n      0x0100\n      exp\n      dup2\n      sload\n      dup2\n      0xffffffff\n      mul\n      not\n      and\n      swap1\n      dup4\n      0xffffffff\n      and\n      mul\n      or\n      swap1\n      sstore\n      pop\n      pop\n        /* \"moonx/moonx.sol\":6520:6539  studentRewardAmount */\n      sload(0x04)\n        /* \"moonx/moonx.sol\":6484:6491  courses */\n      0x09\n        /* \"moonx/moonx.sol\":6484:6502  courses[_courseId] */\n      0x00\n        /* \"moonx/moonx.sol\":6492:6501  _courseId */\n      dup9\n        /* \"moonx/moonx.sol\":6484:6502  courses[_courseId] */\n      dup2\n      mstore\n      0x20\n      add\n      swap1\n      dup2\n      mstore\n      0x20\n      add\n      0x00\n      keccak256\n        /* \"moonx/moonx.sol\":6484:6516  courses[_courseId].totalRewarded */\n      0x03\n      add\n      0x00\n        /* \"moonx/moonx.sol\":6484:6539  courses[_courseId].totalRewarded += studentRewardAmount */\n      dup3\n      dup3\n      sload\n      tag_276\n      swap2\n      swap1\n      tag_182\n      jump\t// in\n    tag_276:\n      swap3\n      pop\n      pop\n      dup2\n      swap1\n      sstore\n      pop\n        /* \"moonx/moonx.sol\":6607:6619  bool success */\n      0x00\n        /* \"moonx/moonx.sol\":6633:6643  msg.sender */\n      caller\n        /* \"moonx/moonx.sol\":6625:6649  payable(msg.sender).call */\n      0xffffffffffffffffffffffffffffffffffffffff\n      and\n        /* \"moonx/moonx.sol\":6657:6676  studentRewardAmount */\n      sload(0x04)\n        /* \"moonx/moonx.sol\":6625:6681  payable(msg.sender).call{value: studentRewardAmount}(\"\") */\n      mload(0x40)\n      tag_277\n      swap1\n      tag_188\n      jump\t// in\n    tag_277:\n      0x00\n      mload(0x40)\n      dup1\n      dup4\n      sub\n      dup2\n      dup6\n      dup8\n      gas\n      call\n      swap3\n      pop\n      pop\n      pop\n      returndatasize\n      dup1\n      0x00\n      dup2\n      eq\n      tag_280\n      jumpi\n      mload(0x40)\n      swap2\n      pop\n      and(add(returndatasize, 0x3f), not(0x1f))\n      dup3\n      add\n      0x40\n      mstore\n      returndatasize\n      dup3\n      mstore\n      returndatasize\n      0x00\n      0x20\n      dup5\n      add\n      returndatacopy\n      jump(tag_279)\n    tag_280:\n      0x60\n      swap2\n      pop\n    tag_279:\n      pop\n        /* \"moonx/moonx.sol\":6606:6681  (bool success, ) = payable(msg.sender).call{value: studentRewardAmount}(\"\") */\n      pop\n      swap1\n      pop\n        /* \"moonx/moonx.sol\":6703:6710  success */\n      dup1\n        /* \"moonx/moonx.sol\":6695:6734  require(success, \"Failed to send MAND\") */\n      tag_281\n      jumpi\n      mload(0x40)\n      0x08c379a000000000000000000000000000000000000000000000000000000000\n      dup2\n      mstore\n      0x04\n      add\n      tag_282\n      swap1\n      tag_283\n      jump\t// in\n    tag_282:\n      mload(0x40)\n      dup1\n      swap2\n      sub\n      swap1\n      revert\n    tag_281:\n        /* \"moonx/moonx.sol\":6779:6789  msg.sender */\n      caller\n        /* \"moonx/moonx.sol\":6754:6811  RewardClaimed(_courseId, msg.sender, studentRewardAmount) */\n      0xffffffffffffffffffffffffffffffffffffffff\n      and\n        /* \"moonx/moonx.sol\":6768:6777  _courseId */\n      dup8\n        /* \"moonx/moonx.sol\":6754:6811  RewardClaimed(_courseId, msg.sender, studentRewardAmount) */\n      0x24b5efa61dd1cfc659205a97fb8ed868f3cb8c81922bab2b96423e5de1de2cb7\n        /* \"moonx/moonx.sol\":6791:6810  studentRewardAmount */\n      sload(0x04)\n        /* \"moonx/moonx.sol\":6754:6811  RewardClaimed(_courseId, msg.sender, studentRewardAmount) */\n      mload(0x40)\n      tag_284\n      swap2\n      swap1\n      tag_65\n      jump\t// in\n    tag_284:\n      mload(0x40)\n      dup1\n      swap2\n      sub\n      swap1\n      log3\n        /* \"moonx/moonx.sol\":6380:6822  {... */\n      pop\n        /* \"moonx/moonx.sol\":6368:6822  if (passed) {... */\n    tag_273:\n        /* \"moonx/moonx.sol\":6862:6872  msg.sender */\n      caller\n        /* \"moonx/moonx.sol\":6837:6881  QuizAttempted(_courseId, msg.sender, passed) */\n      0xffffffffffffffffffffffffffffffffffffffff\n      and\n        /* \"moonx/moonx.sol\":6851:6860  _courseId */\n      dup7\n        /* \"moonx/moonx.sol\":6837:6881  QuizAttempted(_courseId, msg.sender, passed) */\n      0xaee8895c1bf669485cee2dd54d1eee9e65b02a244afb6f798f95d72405cdf7a5\n        /* \"moonx/moonx.sol\":6874:6880  passed */\n      dup4\n        /* \"moonx/moonx.sol\":6837:6881  QuizAttempted(_courseId, msg.sender, passed) */\n      mload(0x40)\n      tag_285\n      swap2\n      swap1\n      tag_81\n      jump\t// in\n    tag_285:\n      mload(0x40)\n      dup1\n      swap2\n      sub\n      swap1\n      log3\n        /* \"moonx/moonx.sol\":5625:6888  {... */\n      pop\n      pop\n      pop\n        /* \"moonx/moonx.sol\":2523:2781  {... */\n      pop\n        /* \"moonx/moonx.sol\":5524:6888  function attemptQuiz(uint256 _courseId, string[] memory _answers) external payable COLLECTPLATFORMTX {... */\n      pop\n      pop\n      jump\t// out\n        /* \"moonx/moonx.sol\":4991:5517  function enrollInCourse(uint256 _courseId) external payable whenNotPaused COLLECTPLATFORMTX {... */\n    tag_88:\n        /* \"@openzeppelin/contracts/security/Pausable.sol\":1239:1258  _requireNotPaused() */\n      tag_287\n        /* \"@openzeppelin/contracts/security/Pausable.sol\":1239:1256  _requireNotPaused */\n      tag_288\n        /* \"@openzeppelin/contracts/security/Pausable.sol\":1239:1258  _requireNotPaused() */\n      jump\t// in\n    tag_287:\n        /* \"moonx/moonx.sol\":2554:2564  platformTx */\n      sload(0x06)\n        /* \"moonx/moonx.sol\":2541:2550  msg.value */\n      callvalue\n        /* \"moonx/moonx.sol\":2541:2564  msg.value >= platformTx */\n      lt\n      iszero\n        /* \"moonx/moonx.sol\":2533:2589  require(msg.value >= platformTx, \"Insufficient gas fee\") */\n      tag_290\n      jumpi\n      mload(0x40)\n      0x08c379a000000000000000000000000000000000000000000000000000000000\n      dup2\n      mstore\n      0x04\n      add\n      tag_291\n      swap1\n      tag_211\n      jump\t// in\n    tag_291:\n      mload(0x40)\n      dup1\n      swap2\n      sub\n      swap1\n      revert\n    tag_290:\n        /* \"moonx/moonx.sol\":2618:2628  platformTx */\n      sload(0x06)\n        /* \"moonx/moonx.sol\":2599:2614  accumulatedFees */\n      0x08\n      0x00\n        /* \"moonx/moonx.sol\":2599:2628  accumulatedFees += platformTx */\n      dup3\n      dup3\n      sload\n      tag_292\n      swap2\n      swap1\n      tag_182\n      jump\t// in\n    tag_292:\n      swap3\n      pop\n      pop\n      dup2\n      swap1\n      sstore\n      pop\n        /* \"moonx/moonx.sol\":2638:2652  uint256 excess */\n      0x00\n        /* \"moonx/moonx.sol\":2667:2677  platformTx */\n      sload(0x06)\n        /* \"moonx/moonx.sol\":2655:2664  msg.value */\n      callvalue\n        /* \"moonx/moonx.sol\":2655:2677  msg.value - platformTx */\n      tag_293\n      swap2\n      swap1\n      tag_214\n      jump\t// in\n    tag_293:\n        /* \"moonx/moonx.sol\":2638:2677  uint256 excess = msg.value - platformTx */\n      swap1\n      pop\n        /* \"moonx/moonx.sol\":2700:2701  0 */\n      0x00\n        /* \"moonx/moonx.sol\":2691:2697  excess */\n      dup2\n        /* \"moonx/moonx.sol\":2691:2701  excess > 0 */\n      gt\n        /* \"moonx/moonx.sol\":2687:2764  if (excess > 0) {... */\n      iszero\n      tag_294\n      jumpi\n        /* \"moonx/moonx.sol\":2725:2735  msg.sender */\n      caller\n        /* \"moonx/moonx.sol\":2717:2745  payable(msg.sender).transfer */\n      0xffffffffffffffffffffffffffffffffffffffff\n      and\n        /* \"moonx/moonx.sol\":2717:2753  payable(msg.sender).transfer(excess) */\n      0x08fc\n        /* \"moonx/moonx.sol\":2746:2752  excess */\n      dup3\n        /* \"moonx/moonx.sol\":2717:2753  payable(msg.sender).transfer(excess) */\n      swap1\n      dup2\n      iszero\n      mul\n      swap1\n      mload(0x40)\n      0x00\n      mload(0x40)\n      dup1\n      dup4\n      sub\n      dup2\n      dup6\n      dup9\n      dup9\n      call\n      swap4\n      pop\n      pop\n      pop\n      pop\n      iszero\n      dup1\n      iszero\n      tag_296\n      jumpi\n      returndatasize\n      0x00\n      dup1\n      returndatacopy\n      revert(0x00, returndatasize)\n    tag_296:\n      pop\n        /* \"moonx/moonx.sol\":2687:2764  if (excess > 0) {... */\n    tag_294:\n        /* \"moonx/moonx.sol\":5146:5161  enrollThreshold */\n      sload(0x02)\n        /* \"moonx/moonx.sol\":5101:5119  reputationContract */\n      0x01\n      0x00\n      swap1\n      sload\n      swap1\n      0x0100\n      exp\n      swap1\n      div\n      0xffffffffffffffffffffffffffffffffffffffff\n      and\n        /* \"moonx/moonx.sol\":5101:5130  reputationContract.reputation */\n      0xffffffffffffffffffffffffffffffffffffffff\n      and\n      0xb9f79451\n        /* \"moonx/moonx.sol\":5131:5141  msg.sender */\n      caller\n        /* \"moonx/moonx.sol\":5101:5142  reputationContract.reputation(msg.sender) */\n      mload(0x40)\n      dup3\n      0xffffffff\n      and\n      0xe0\n      shl\n      dup2\n      mstore\n      0x04\n      add\n      tag_298\n      swap2\n      swap1\n      tag_116\n      jump\t// in\n    tag_298:\n      0x20\n      mload(0x40)\n      dup1\n      dup4\n      sub\n      dup2\n      dup7\n      gas\n      staticcall\n      iszero\n      dup1\n      iszero\n      tag_300\n      jumpi\n      returndatasize\n      0x00\n      dup1\n      returndatacopy\n      revert(0x00, returndatasize)\n    tag_300:\n      pop\n      pop\n      pop\n      pop\n      mload(0x40)\n      returndatasize\n      not(0x1f)\n      0x1f\n      dup3\n      add\n      and\n      dup3\n      add\n      dup1\n      0x40\n      mstore\n      pop\n      dup2\n      add\n      swap1\n      tag_301\n      swap2\n      swap1\n      tag_302\n      jump\t// in\n    tag_301:\n        /* \"moonx/moonx.sol\":5101:5161  reputationContract.reputation(msg.sender) >= enrollThreshold */\n      lt\n      iszero\n        /* \"moonx/moonx.sol\":5093:5199  require(reputationContract.reputation(msg.sender) >= enrollThreshold, \"Insufficient reputation to enroll\") */\n      tag_303\n      jumpi\n      mload(0x40)\n      0x08c379a000000000000000000000000000000000000000000000000000000000\n      dup2\n      mstore\n      0x04\n      add\n      tag_304\n      swap1\n      tag_305\n      jump\t// in\n    tag_304:\n      mload(0x40)\n      dup1\n      swap2\n      sub\n      swap1\n      revert\n    tag_303:\n        /* \"moonx/moonx.sol\":5217:5224  courses */\n      0x09\n        /* \"moonx/moonx.sol\":5217:5235  courses[_courseId] */\n      0x00\n        /* \"moonx/moonx.sol\":5225:5234  _courseId */\n      dup4\n        /* \"moonx/moonx.sol\":5217:5235  courses[_courseId] */\n      dup2\n      mstore\n      0x20\n      add\n      swap1\n      dup2\n      mstore\n      0x20\n      add\n      0x00\n      keccak256\n        /* \"moonx/moonx.sol\":5217:5244  courses[_courseId].approved */\n      0x02\n      add\n      0x00\n      swap1\n      sload\n      swap1\n      0x0100\n      exp\n      swap1\n      div\n      0xff\n      and\n        /* \"moonx/moonx.sol\":5209:5268  require(courses[_courseId].approved, \"Course not approved\") */\n      tag_306\n      jumpi\n      mload(0x40)\n      0x08c379a000000000000000000000000000000000000000000000000000000000\n      dup2\n      mstore\n      0x04\n      add\n      tag_307\n      swap1\n      tag_308\n      jump\t// in\n    tag_307:\n      mload(0x40)\n      dup1\n      swap2\n      sub\n      swap1\n      revert\n    tag_306:\n        /* \"moonx/moonx.sol\":5287:5298  enrollments */\n      0x0a\n        /* \"moonx/moonx.sol\":5287:5310  enrollments[msg.sender] */\n      0x00\n        /* \"moonx/moonx.sol\":5299:5309  msg.sender */\n      caller\n        /* \"moonx/moonx.sol\":5287:5310  enrollments[msg.sender] */\n      0xffffffffffffffffffffffffffffffffffffffff\n      and\n      0xffffffffffffffffffffffffffffffffffffffff\n      and\n      dup2\n      mstore\n      0x20\n      add\n      swap1\n      dup2\n      mstore\n      0x20\n      add\n      0x00\n      keccak256\n        /* \"moonx/moonx.sol\":5287:5321  enrollments[msg.sender][_courseId] */\n      0x00\n        /* \"moonx/moonx.sol\":5311:5320  _courseId */\n      dup4\n        /* \"moonx/moonx.sol\":5287:5321  enrollments[msg.sender][_courseId] */\n      dup2\n      mstore\n      0x20\n      add\n      swap1\n      dup2\n      mstore\n      0x20\n      add\n      0x00\n      keccak256\n        /* \"moonx/moonx.sol\":5287:5332  enrollments[msg.sender][_courseId].isEnrolled */\n      0x00\n      add\n      0x00\n      swap1\n      sload\n      swap1\n      0x0100\n      exp\n      swap1\n      div\n      0xff\n      and\n        /* \"moonx/moonx.sol\":5286:5332  !enrollments[msg.sender][_courseId].isEnrolled */\n      iszero\n        /* \"moonx/moonx.sol\":5278:5353  require(!enrollments[msg.sender][_courseId].isEnrolled, \"Already enrolled\") */\n      tag_309\n      jumpi\n      mload(0x40)\n      0x08c379a000000000000000000000000000000000000000000000000000000000\n      dup2\n      mstore\n      0x04\n      add\n      tag_310\n      swap1\n      tag_311\n      jump\t// in\n    tag_310:\n      mload(0x40)\n      dup1\n      swap2\n      sub\n      swap1\n      revert\n    tag_309:\n        /* \"moonx/moonx.sol\":5412:5416  true */\n      0x01\n        /* \"moonx/moonx.sol\":5364:5375  enrollments */\n      0x0a\n        /* \"moonx/moonx.sol\":5364:5387  enrollments[msg.sender] */\n      0x00\n        /* \"moonx/moonx.sol\":5376:5386  msg.sender */\n      caller\n        /* \"moonx/moonx.sol\":5364:5387  enrollments[msg.sender] */\n      0xffffffffffffffffffffffffffffffffffffffff\n      and\n      0xffffffffffffffffffffffffffffffffffffffff\n      and\n      dup2\n      mstore\n      0x20\n      add\n      swap1\n      dup2\n      mstore\n      0x20\n      add\n      0x00\n      keccak256\n        /* \"moonx/moonx.sol\":5364:5398  enrollments[msg.sender][_courseId] */\n      0x00\n        /* \"moonx/moonx.sol\":5388:5397  _courseId */\n      dup5\n        /* \"moonx/moonx.sol\":5364:5398  enrollments[msg.sender][_courseId] */\n      dup2\n      mstore\n      0x20\n      add\n      swap1\n      dup2\n      mstore\n      0x20\n      add\n      0x00\n      keccak256\n        /* \"moonx/moonx.sol\":5364:5409  enrollments[msg.sender][_courseId].isEnrolled */\n      0x00\n      add\n      0x00\n        /* \"moonx/moonx.sol\":5364:5416  enrollments[msg.sender][_courseId].isEnrolled = true */\n      0x0100\n      exp\n      dup2\n      sload\n      dup2\n      0xff\n      mul\n      not\n      and\n      swap1\n      dup4\n      iszero\n      iszero\n      mul\n      or\n      swap1\n      sstore\n      pop\n        /* \"moonx/moonx.sol\":5426:5433  courses */\n      0x09\n        /* \"moonx/moonx.sol\":5426:5444  courses[_courseId] */\n      0x00\n        /* \"moonx/moonx.sol\":5434:5443  _courseId */\n      dup4\n        /* \"moonx/moonx.sol\":5426:5444  courses[_courseId] */\n      dup2\n      mstore\n      0x20\n      add\n      swap1\n      dup2\n      mstore\n      0x20\n      add\n      0x00\n      keccak256\n        /* \"moonx/moonx.sol\":5426:5458  courses[_courseId].totalEnrolled */\n      0x04\n      add\n      0x00\n        /* \"moonx/moonx.sol\":5426:5460  courses[_courseId].totalEnrolled++ */\n      dup2\n      dup2\n      swap1\n      sload\n      swap1\n      0x0100\n      exp\n      swap1\n      div\n      0xffffffff\n      and\n      dup1\n      swap3\n      swap2\n      swap1\n      tag_312\n      swap1\n      tag_275\n      jump\t// in\n    tag_312:\n      swap2\n      swap1\n      0x0100\n      exp\n      dup2\n      sload\n      dup2\n      0xffffffff\n      mul\n      not\n      and\n      swap1\n      dup4\n      0xffffffff\n      and\n      mul\n      or\n      swap1\n      sstore\n      pop\n      pop\n        /* \"moonx/moonx.sol\":5499:5509  msg.sender */\n      caller\n        /* \"moonx/moonx.sol\":5475:5510  UserEnrolled(_courseId, msg.sender) */\n      0xffffffffffffffffffffffffffffffffffffffff\n      and\n        /* \"moonx/moonx.sol\":5488:5497  _courseId */\n      dup3\n        /* \"moonx/moonx.sol\":5475:5510  UserEnrolled(_courseId, msg.sender) */\n      0xfacf1a2842acbad124cbca0a047fe37bc246c68f814e0350c7bd8a022fd1dddb\n      mload(0x40)\n      mload(0x40)\n      dup1\n      swap2\n      sub\n      swap1\n      log3\n        /* \"moonx/moonx.sol\":2523:2781  {... */\n      pop\n        /* \"moonx/moonx.sol\":4991:5517  function enrollInCourse(uint256 _courseId) external payable whenNotPaused COLLECTPLATFORMTX {... */\n      pop\n      jump\t// out\n        /* \"moonx/moonx.sol\":1509:1535  uint256 public courseCount */\n    tag_91:\n      sload(0x0c)\n      dup2\n      jump\t// out\n        /* \"@openzeppelin/contracts/access/Ownable.sol\":2293:2394  function renounceOwnership() public virtual onlyOwner {... */\n    tag_95:\n        /* \"@openzeppelin/contracts/access/Ownable.sol\":1531:1544  _checkOwner() */\n      tag_314\n        /* \"@openzeppelin/contracts/access/Ownable.sol\":1531:1542  _checkOwner */\n      tag_173\n        /* \"@openzeppelin/contracts/access/Ownable.sol\":1531:1544  _checkOwner() */\n      jump\t// in\n    tag_314:\n        /* \"@openzeppelin/contracts/access/Ownable.sol\":2357:2387  _transferOwnership(address(0)) */\n      tag_316\n        /* \"@openzeppelin/contracts/access/Ownable.sol\":2384:2385  0 */\n      0x00\n        /* \"@openzeppelin/contracts/access/Ownable.sol\":2357:2375  _transferOwnership */\n      tag_317\n        /* \"@openzeppelin/contracts/access/Ownable.sol\":2357:2387  _transferOwnership(address(0)) */\n      jump\t// in\n    tag_316:\n        /* \"@openzeppelin/contracts/access/Ownable.sol\":2293:2394  function renounceOwnership() public virtual onlyOwner {... */\n      jump\t// out\n        /* \"moonx/moonx.sol\":4759:4985  function approveCourse(uint256 _courseId) external onlyOwner {... */\n    tag_99:\n        /* \"@openzeppelin/contracts/access/Ownable.sol\":1531:1544  _checkOwner() */\n      tag_319\n        /* \"@openzeppelin/contracts/access/Ownable.sol\":1531:1542  _checkOwner */\n      tag_173\n        /* \"@openzeppelin/contracts/access/Ownable.sol\":1531:1544  _checkOwner() */\n      jump\t// in\n    tag_319:\n        /* \"moonx/moonx.sol\":4839:4846  courses */\n      0x09\n        /* \"moonx/moonx.sol\":4839:4857  courses[_courseId] */\n      0x00\n        /* \"moonx/moonx.sol\":4847:4856  _courseId */\n      dup3\n        /* \"moonx/moonx.sol\":4839:4857  courses[_courseId] */\n      dup2\n      mstore\n      0x20\n      add\n      swap1\n      dup2\n      mstore\n      0x20\n      add\n      0x00\n      keccak256\n        /* \"moonx/moonx.sol\":4839:4866  courses[_courseId].approved */\n      0x02\n      add\n      0x00\n      swap1\n      sload\n      swap1\n      0x0100\n      exp\n      swap1\n      div\n      0xff\n      and\n        /* \"moonx/moonx.sol\":4838:4866  !courses[_courseId].approved */\n      iszero\n        /* \"moonx/moonx.sol\":4830:4894  require(!courses[_courseId].approved, \"Course already approved\") */\n      tag_321\n      jumpi\n      mload(0x40)\n      0x08c379a000000000000000000000000000000000000000000000000000000000\n      dup2\n      mstore\n      0x04\n      add\n      tag_322\n      swap1\n      tag_323\n      jump\t// in\n    tag_322:\n      mload(0x40)\n      dup1\n      swap2\n      sub\n      swap1\n      revert\n    tag_321:\n        /* \"moonx/moonx.sol\":4934:4938  true */\n      0x01\n        /* \"moonx/moonx.sol\":4904:4911  courses */\n      0x09\n        /* \"moonx/moonx.sol\":4904:4922  courses[_courseId] */\n      0x00\n        /* \"moonx/moonx.sol\":4912:4921  _courseId */\n      dup4\n        /* \"moonx/moonx.sol\":4904:4922  courses[_courseId] */\n      dup2\n      mstore\n      0x20\n      add\n      swap1\n      dup2\n      mstore\n      0x20\n      add\n      0x00\n      keccak256\n        /* \"moonx/moonx.sol\":4904:4931  courses[_courseId].approved */\n      0x02\n      add\n      0x00\n        /* \"moonx/moonx.sol\":4904:4938  courses[_courseId].approved = true */\n      0x0100\n      exp\n      dup2\n      sload\n      dup2\n      0xff\n      mul\n      not\n      and\n      swap1\n      dup4\n      iszero\n      iszero\n      mul\n      or\n      swap1\n      sstore\n      pop\n        /* \"moonx/moonx.sol\":4968:4977  _courseId */\n      dup1\n        /* \"moonx/moonx.sol\":4953:4978  CourseApproved(_courseId) */\n      0x87c1c0e5cd17beb8c61a3337b32c66021cb179dd6f97d6d9ce923a029092bd45\n      mload(0x40)\n      mload(0x40)\n      dup1\n      swap2\n      sub\n      swap1\n      log2\n        /* \"moonx/moonx.sol\":4759:4985  function approveCourse(uint256 _courseId) external onlyOwner {... */\n      pop\n      jump\t// out\n        /* \"moonx/moonx.sol\":2786:4753  function createCourse(... */\n    tag_103:\n        /* \"@openzeppelin/contracts/security/Pausable.sol\":1239:1258  _requireNotPaused() */\n      tag_325\n        /* \"@openzeppelin/contracts/security/Pausable.sol\":1239:1256  _requireNotPaused */\n      tag_288\n        /* \"@openzeppelin/contracts/security/Pausable.sol\":1239:1258  _requireNotPaused() */\n      jump\t// in\n    tag_325:\n        /* \"moonx/moonx.sol\":2554:2564  platformTx */\n      sload(0x06)\n        /* \"moonx/moonx.sol\":2541:2550  msg.value */\n      callvalue\n        /* \"moonx/moonx.sol\":2541:2564  msg.value >= platformTx */\n      lt\n      iszero\n        /* \"moonx/moonx.sol\":2533:2589  require(msg.value >= platformTx, \"Insufficient gas fee\") */\n      tag_327\n      jumpi\n      mload(0x40)\n      0x08c379a000000000000000000000000000000000000000000000000000000000\n      dup2\n      mstore\n      0x04\n      add\n      tag_328\n      swap1\n      tag_211\n      jump\t// in\n    tag_328:\n      mload(0x40)\n      dup1\n      swap2\n      sub\n      swap1\n      revert\n    tag_327:\n        /* \"moonx/moonx.sol\":2618:2628  platformTx */\n      sload(0x06)\n        /* \"moonx/moonx.sol\":2599:2614  accumulatedFees */\n      0x08\n      0x00\n        /* \"moonx/moonx.sol\":2599:2628  accumulatedFees += platformTx */\n      dup3\n      dup3\n      sload\n      tag_329\n      swap2\n      swap1\n      tag_182\n      jump\t// in\n    tag_329:\n      swap3\n      pop\n      pop\n      dup2\n      swap1\n      sstore\n      pop\n        /* \"moonx/moonx.sol\":2638:2652  uint256 excess */\n      0x00\n        /* \"moonx/moonx.sol\":2667:2677  platformTx */\n      sload(0x06)\n        /* \"moonx/moonx.sol\":2655:2664  msg.value */\n      callvalue\n        /* \"moonx/moonx.sol\":2655:2677  msg.value - platformTx */\n      tag_330\n      swap2\n      swap1\n      tag_214\n      jump\t// in\n    tag_330:\n        /* \"moonx/moonx.sol\":2638:2677  uint256 excess = msg.value - platformTx */\n      swap1\n      pop\n        /* \"moonx/moonx.sol\":2700:2701  0 */\n      0x00\n        /* \"moonx/moonx.sol\":2691:2697  excess */\n      dup2\n        /* \"moonx/moonx.sol\":2691:2701  excess > 0 */\n      gt\n        /* \"moonx/moonx.sol\":2687:2764  if (excess > 0) {... */\n      iszero\n      tag_331\n      jumpi\n        /* \"moonx/moonx.sol\":2725:2735  msg.sender */\n      caller\n        /* \"moonx/moonx.sol\":2717:2745  payable(msg.sender).transfer */\n      0xffffffffffffffffffffffffffffffffffffffff\n      and\n        /* \"moonx/moonx.sol\":2717:2753  payable(msg.sender).transfer(excess) */\n      0x08fc\n        /* \"moonx/moonx.sol\":2746:2752  excess */\n      dup3\n        /* \"moonx/moonx.sol\":2717:2753  payable(msg.sender).transfer(excess) */\n      swap1\n      dup2\n      iszero\n      mul\n      swap1\n      mload(0x40)\n      0x00\n      mload(0x40)\n      dup1\n      dup4\n      sub\n      dup2\n      dup6\n      dup9\n      dup9\n      call\n      swap4\n      pop\n      pop\n      pop\n      pop\n      iszero\n      dup1\n      iszero\n      tag_333\n      jumpi\n      returndatasize\n      0x00\n      dup1\n      returndatacopy\n      revert(0x00, returndatasize)\n    tag_333:\n      pop\n        /* \"moonx/moonx.sol\":2687:2764  if (excess > 0) {... */\n    tag_331:\n        /* \"moonx/moonx.sol\":3179:3192  postThreshold */\n      sload(0x03)\n        /* \"moonx/moonx.sol\":3134:3152  reputationContract */\n      0x01\n      0x00\n      swap1\n      sload\n      swap1\n      0x0100\n      exp\n      swap1\n      div\n      0xffffffffffffffffffffffffffffffffffffffff\n      and\n        /* \"moonx/moonx.sol\":3134:3163  reputationContract.reputation */\n      0xffffffffffffffffffffffffffffffffffffffff\n      and\n      0xb9f79451\n        /* \"moonx/moonx.sol\":3164:3174  msg.sender */\n      caller\n        /* \"moonx/moonx.sol\":3134:3175  reputationContract.reputation(msg.sender) */\n      mload(0x40)\n      dup3\n      0xffffffff\n      and\n      0xe0\n      shl\n      dup2\n      mstore\n      0x04\n      add\n      tag_335\n      swap2\n      swap1\n      tag_116\n      jump\t// in\n    tag_335:\n      0x20\n      mload(0x40)\n      dup1\n      dup4\n      sub\n      dup2\n      dup7\n      gas\n      staticcall\n      iszero\n      dup1\n      iszero\n      tag_337\n      jumpi\n      returndatasize\n      0x00\n      dup1\n      returndatacopy\n      revert(0x00, returndatasize)\n    tag_337:\n      pop\n      pop\n      pop\n      pop\n      mload(0x40)\n      returndatasize\n      not(0x1f)\n      0x1f\n      dup3\n      add\n      and\n      dup3\n      add\n      dup1\n      0x40\n      mstore\n      pop\n      dup2\n      add\n      swap1\n      tag_338\n      swap2\n      swap1\n      tag_302\n      jump\t// in\n    tag_338:\n        /* \"moonx/moonx.sol\":3134:3192  reputationContract.reputation(msg.sender) >= postThreshold */\n      lt\n      iszero\n        /* \"moonx/moonx.sol\":3126:3237  require(reputationContract.reputation(msg.sender) >= postThreshold, \"Insufficient reputation to create course\") */\n      tag_339\n      jumpi\n      mload(0x40)\n      0x08c379a000000000000000000000000000000000000000000000000000000000\n      dup2\n      mstore\n      0x04\n      add\n      tag_340\n      swap1\n      tag_341\n      jump\t// in\n    tag_340:\n      mload(0x40)\n      dup1\n      swap2\n      sub\n      swap1\n      revert\n    tag_339:\n        /* \"moonx/moonx.sol\":3276:3277  5 */\n      0x05\n        /* \"moonx/moonx.sol\":3255:3265  _questions */\n      dup8\n        /* \"moonx/moonx.sol\":3255:3272  _questions.length */\n      mload\n        /* \"moonx/moonx.sol\":3255:3277  _questions.length == 5 */\n      eq\n        /* \"moonx/moonx.sol\":3255:3318  _questions.length == 5 && _questions.length == _optionAs.length */\n      dup1\n      iszero\n      tag_342\n      jumpi\n      pop\n        /* \"moonx/moonx.sol\":3302:3311  _optionAs */\n      dup6\n        /* \"moonx/moonx.sol\":3302:3318  _optionAs.length */\n      mload\n        /* \"moonx/moonx.sol\":3281:3291  _questions */\n      dup8\n        /* \"moonx/moonx.sol\":3281:3298  _questions.length */\n      mload\n        /* \"moonx/moonx.sol\":3281:3318  _questions.length == _optionAs.length */\n      eq\n        /* \"moonx/moonx.sol\":3255:3318  _questions.length == 5 && _questions.length == _optionAs.length */\n    tag_342:\n        /* \"moonx/moonx.sol\":3255:3375  _questions.length == 5 && _questions.length == _optionAs.length &&... */\n      dup1\n      iszero\n      tag_343\n      jumpi\n      pop\n        /* \"moonx/moonx.sol\":3359:3368  _optionBs */\n      dup5\n        /* \"moonx/moonx.sol\":3359:3375  _optionBs.length */\n      mload\n        /* \"moonx/moonx.sol\":3338:3348  _questions */\n      dup8\n        /* \"moonx/moonx.sol\":3338:3355  _questions.length */\n      mload\n        /* \"moonx/moonx.sol\":3338:3375  _questions.length == _optionBs.length */\n      eq\n        /* \"moonx/moonx.sol\":3255:3375  _questions.length == 5 && _questions.length == _optionAs.length &&... */\n    tag_343:\n        /* \"moonx/moonx.sol\":3255:3416  _questions.length == 5 && _questions.length == _optionAs.length &&... */\n      dup1\n      iszero\n      tag_344\n      jumpi\n      pop\n        /* \"moonx/moonx.sol\":3400:3409  _optionCs */\n      dup4\n        /* \"moonx/moonx.sol\":3400:3416  _optionCs.length */\n      mload\n        /* \"moonx/moonx.sol\":3379:3389  _questions */\n      dup8\n        /* \"moonx/moonx.sol\":3379:3396  _questions.length */\n      mload\n        /* \"moonx/moonx.sol\":3379:3416  _questions.length == _optionCs.length */\n      eq\n        /* \"moonx/moonx.sol\":3255:3416  _questions.length == 5 && _questions.length == _optionAs.length &&... */\n    tag_344:\n        /* \"moonx/moonx.sol\":3255:3473  _questions.length == 5 && _questions.length == _optionAs.length &&... */\n      dup1\n      iszero\n      tag_345\n      jumpi\n      pop\n        /* \"moonx/moonx.sol\":3457:3466  _optionDs */\n      dup3\n        /* \"moonx/moonx.sol\":3457:3473  _optionDs.length */\n      mload\n        /* \"moonx/moonx.sol\":3436:3446  _questions */\n      dup8\n        /* \"moonx/moonx.sol\":3436:3453  _questions.length */\n      mload\n        /* \"moonx/moonx.sol\":3436:3473  _questions.length == _optionDs.length */\n      eq\n        /* \"moonx/moonx.sol\":3255:3473  _questions.length == 5 && _questions.length == _optionAs.length &&... */\n    tag_345:\n        /* \"moonx/moonx.sol\":3255:3520  _questions.length == 5 && _questions.length == _optionAs.length &&... */\n      dup1\n      iszero\n      tag_346\n      jumpi\n      pop\n        /* \"moonx/moonx.sol\":3498:3513  _correctAnswers */\n      dup2\n        /* \"moonx/moonx.sol\":3498:3520  _correctAnswers.length */\n      mload\n        /* \"moonx/moonx.sol\":3477:3487  _questions */\n      dup8\n        /* \"moonx/moonx.sol\":3477:3494  _questions.length */\n      mload\n        /* \"moonx/moonx.sol\":3477:3520  _questions.length == _correctAnswers.length */\n      eq\n        /* \"moonx/moonx.sol\":3255:3520  _questions.length == 5 && _questions.length == _optionAs.length &&... */\n    tag_346:\n        /* \"moonx/moonx.sol\":3247:3559  require(_questions.length == 5 && _questions.length == _optionAs.length &&... */\n      tag_347\n      jumpi\n      mload(0x40)\n      0x08c379a000000000000000000000000000000000000000000000000000000000\n      dup2\n      mstore\n      0x04\n      add\n      tag_348\n      swap1\n      tag_349\n      jump\t// in\n    tag_348:\n      mload(0x40)\n      dup1\n      swap2\n      sub\n      swap1\n      revert\n    tag_347:\n        /* \"moonx/moonx.sol\":3570:3586  uint256 courseId */\n      0x00\n        /* \"moonx/moonx.sol\":3589:3600  courseCount */\n      0x0c\n      0x00\n        /* \"moonx/moonx.sol\":3589:3602  courseCount++ */\n      dup2\n      sload\n      dup1\n      swap3\n      swap2\n      swap1\n      tag_350\n      swap1\n      tag_351\n      jump\t// in\n    tag_350:\n      swap2\n      swap1\n      pop\n      sstore\n        /* \"moonx/moonx.sol\":3570:3602  uint256 courseId = courseCount++ */\n      swap1\n      pop\n        /* \"moonx/moonx.sol\":3632:3680  Course(msg.sender, _metadataURI, false, 0, 0, 0) */\n      mload(0x40)\n      dup1\n      0xc0\n      add\n      0x40\n      mstore\n      dup1\n        /* \"moonx/moonx.sol\":3639:3649  msg.sender */\n      caller\n        /* \"moonx/moonx.sol\":3632:3680  Course(msg.sender, _metadataURI, false, 0, 0, 0) */\n      0xffffffffffffffffffffffffffffffffffffffff\n      and\n      dup2\n      mstore\n      0x20\n      add\n        /* \"moonx/moonx.sol\":3651:3663  _metadataURI */\n      dup11\n        /* \"moonx/moonx.sol\":3632:3680  Course(msg.sender, _metadataURI, false, 0, 0, 0) */\n      dup2\n      mstore\n      0x20\n      add\n        /* \"moonx/moonx.sol\":3665:3670  false */\n      0x00\n        /* \"moonx/moonx.sol\":3632:3680  Course(msg.sender, _metadataURI, false, 0, 0, 0) */\n      iszero\n      iszero\n      dup2\n      mstore\n      0x20\n      add\n        /* \"moonx/moonx.sol\":3672:3673  0 */\n      0x00\n        /* \"moonx/moonx.sol\":3632:3680  Course(msg.sender, _metadataURI, false, 0, 0, 0) */\n      0xffffffff\n      and\n      dup2\n      mstore\n      0x20\n      add\n        /* \"moonx/moonx.sol\":3675:3676  0 */\n      0x00\n        /* \"moonx/moonx.sol\":3632:3680  Course(msg.sender, _metadataURI, false, 0, 0, 0) */\n      dup2\n      mstore\n      0x20\n      add\n        /* \"moonx/moonx.sol\":3678:3679  0 */\n      0x00\n        /* \"moonx/moonx.sol\":3632:3680  Course(msg.sender, _metadataURI, false, 0, 0, 0) */\n      0xffffffff\n      and\n      dup2\n      mstore\n      pop\n        /* \"moonx/moonx.sol\":3612:3619  courses */\n      0x09\n        /* \"moonx/moonx.sol\":3612:3629  courses[courseId] */\n      0x00\n        /* \"moonx/moonx.sol\":3620:3628  courseId */\n      dup4\n        /* \"moonx/moonx.sol\":3612:3629  courses[courseId] */\n      dup2\n      mstore\n      0x20\n      add\n      swap1\n      dup2\n      mstore\n      0x20\n      add\n      0x00\n      keccak256\n        /* \"moonx/moonx.sol\":3612:3680  courses[courseId] = Course(msg.sender, _metadataURI, false, 0, 0, 0) */\n      0x00\n      dup3\n      add\n      mload\n      dup2\n      0x00\n      add\n      exp(0x0100, 0x00)\n      dup2\n      sload\n      dup2\n      0xffffffffffffffffffffffffffffffffffffffff\n      mul\n      not\n      and\n      swap1\n      dup4\n      0xffffffffffffffffffffffffffffffffffffffff\n      and\n      mul\n      or\n      swap1\n      sstore\n      pop\n      0x20\n      dup3\n      add\n      mload\n      dup2\n      0x01\n      add\n      swap1\n      dup2\n      tag_352\n      swap2\n      swap1\n      tag_353\n      jump\t// in\n    tag_352:\n      pop\n      0x40\n      dup3\n      add\n      mload\n      dup2\n      0x02\n      add\n      exp(0x0100, 0x00)\n      dup2\n      sload\n      dup2\n      0xff\n      mul\n      not\n      and\n      swap1\n      dup4\n      iszero\n      iszero\n      mul\n      or\n      swap1\n      sstore\n      pop\n      0x60\n      dup3\n      add\n      mload\n      dup2\n      0x02\n      add\n      exp(0x0100, 0x01)\n      dup2\n      sload\n      dup2\n      0xffffffff\n      mul\n      not\n      and\n      swap1\n      dup4\n      0xffffffff\n      and\n      mul\n      or\n      swap1\n      sstore\n      pop\n      0x80\n      dup3\n      add\n      mload\n      dup2\n      0x03\n      add\n      sstore\n      0xa0\n      dup3\n      add\n      mload\n      dup2\n      0x04\n      add\n      exp(0x0100, 0x00)\n      dup2\n      sload\n      dup2\n      0xffffffff\n      mul\n      not\n      and\n      swap1\n      dup4\n      0xffffffff\n      and\n      mul\n      or\n      swap1\n      sstore\n      pop\n      swap1\n      pop\n      pop\n        /* \"moonx/moonx.sol\":3729:3738  uint256 i */\n      0x00\n        /* \"moonx/moonx.sol\":3724:4696  for (uint256 i = 0; i < _questions.length; i++) {... */\n    tag_354:\n        /* \"moonx/moonx.sol\":3748:3758  _questions */\n      dup9\n        /* \"moonx/moonx.sol\":3748:3765  _questions.length */\n      mload\n        /* \"moonx/moonx.sol\":3744:3745  i */\n      dup2\n        /* \"moonx/moonx.sol\":3744:3765  i < _questions.length */\n      lt\n        /* \"moonx/moonx.sol\":3724:4696  for (uint256 i = 0; i < _questions.length; i++) {... */\n      iszero\n      tag_355\n      jumpi\n        /* \"moonx/moonx.sol\":3872:3893  abi.encodePacked(\"A\") */\n      add(0x20, mload(0x40))\n      tag_357\n      swap1\n      tag_358\n      jump\t// in\n    tag_357:\n      mload(0x40)\n      0x20\n      dup2\n      dup4\n      sub\n      sub\n      dup2\n      mstore\n      swap1\n      0x40\n      mstore\n        /* \"moonx/moonx.sol\":3862:3894  keccak256(abi.encodePacked(\"A\")) */\n      dup1\n      mload\n      swap1\n      0x20\n      add\n      keccak256\n        /* \"moonx/moonx.sol\":3838:3853  _correctAnswers */\n      dup5\n        /* \"moonx/moonx.sol\":3854:3855  i */\n      dup3\n        /* \"moonx/moonx.sol\":3838:3856  _correctAnswers[i] */\n      dup2\n      mload\n      dup2\n      lt\n      tag_359\n      jumpi\n      tag_360\n      tag_267\n      jump\t// in\n    tag_360:\n    tag_359:\n      0x20\n      mul\n      0x20\n      add\n      add\n      mload\n        /* \"moonx/moonx.sol\":3821:3857  abi.encodePacked(_correctAnswers[i]) */\n      add(0x20, mload(0x40))\n      tag_361\n      swap2\n      swap1\n      tag_271\n      jump\t// in\n    tag_361:\n      mload(0x40)\n      0x20\n      dup2\n      dup4\n      sub\n      sub\n      dup2\n      mstore\n      swap1\n      0x40\n      mstore\n        /* \"moonx/moonx.sol\":3811:3858  keccak256(abi.encodePacked(_correctAnswers[i])) */\n      dup1\n      mload\n      swap1\n      0x20\n      add\n      keccak256\n        /* \"moonx/moonx.sol\":3811:3894  keccak256(abi.encodePacked(_correctAnswers[i])) == keccak256(abi.encodePacked(\"A\")) */\n      eq\n        /* \"moonx/moonx.sol\":3811:3997  keccak256(abi.encodePacked(_correctAnswers[i])) == keccak256(abi.encodePacked(\"A\")) ||... */\n      dup1\n      tag_362\n      jumpi\n      pop\n        /* \"moonx/moonx.sol\":3975:3996  abi.encodePacked(\"B\") */\n      add(0x20, mload(0x40))\n      tag_363\n      swap1\n      tag_364\n      jump\t// in\n    tag_363:\n      mload(0x40)\n      0x20\n      dup2\n      dup4\n      sub\n      sub\n      dup2\n      mstore\n      swap1\n      0x40\n      mstore\n        /* \"moonx/moonx.sol\":3965:3997  keccak256(abi.encodePacked(\"B\")) */\n      dup1\n      mload\n      swap1\n      0x20\n      add\n      keccak256\n        /* \"moonx/moonx.sol\":3941:3956  _correctAnswers */\n      dup5\n        /* \"moonx/moonx.sol\":3957:3958  i */\n      dup3\n        /* \"moonx/moonx.sol\":3941:3959  _correctAnswers[i] */\n      dup2\n      mload\n      dup2\n      lt\n      tag_365\n      jumpi\n      tag_366\n      tag_267\n      jump\t// in\n    tag_366:\n    tag_365:\n      0x20\n      mul\n      0x20\n      add\n      add\n      mload\n        /* \"moonx/moonx.sol\":3924:3960  abi.encodePacked(_correctAnswers[i]) */\n      add(0x20, mload(0x40))\n      tag_367\n      swap2\n      swap1\n      tag_271\n      jump\t// in\n    tag_367:\n      mload(0x40)\n      0x20\n      dup2\n      dup4\n      sub\n      sub\n      dup2\n      mstore\n      swap1\n      0x40\n      mstore\n        /* \"moonx/moonx.sol\":3914:3961  keccak256(abi.encodePacked(_correctAnswers[i])) */\n      dup1\n      mload\n      swap1\n      0x20\n      add\n      keccak256\n        /* \"moonx/moonx.sol\":3914:3997  keccak256(abi.encodePacked(_correctAnswers[i])) == keccak256(abi.encodePacked(\"B\")) */\n      eq\n        /* \"moonx/moonx.sol\":3811:3997  keccak256(abi.encodePacked(_correctAnswers[i])) == keccak256(abi.encodePacked(\"A\")) ||... */\n    tag_362:\n        /* \"moonx/moonx.sol\":3811:4100  keccak256(abi.encodePacked(_correctAnswers[i])) == keccak256(abi.encodePacked(\"A\")) ||... */\n      dup1\n      tag_368\n      jumpi\n      pop\n        /* \"moonx/moonx.sol\":4078:4099  abi.encodePacked(\"C\") */\n      add(0x20, mload(0x40))\n      tag_369\n      swap1\n      tag_370\n      jump\t// in\n    tag_369:\n      mload(0x40)\n      0x20\n      dup2\n      dup4\n      sub\n      sub\n      dup2\n      mstore\n      swap1\n      0x40\n      mstore\n        /* \"moonx/moonx.sol\":4068:4100  keccak256(abi.encodePacked(\"C\")) */\n      dup1\n      mload\n      swap1\n      0x20\n      add\n      keccak256\n        /* \"moonx/moonx.sol\":4044:4059  _correctAnswers */\n      dup5\n        /* \"moonx/moonx.sol\":4060:4061  i */\n      dup3\n        /* \"moonx/moonx.sol\":4044:4062  _correctAnswers[i] */\n      dup2\n      mload\n      dup2\n      lt\n      tag_371\n      jumpi\n      tag_372\n      tag_267\n      jump\t// in\n    tag_372:\n    tag_371:\n      0x20\n      mul\n      0x20\n      add\n      add\n      mload\n        /* \"moonx/moonx.sol\":4027:4063  abi.encodePacked(_correctAnswers[i]) */\n      add(0x20, mload(0x40))\n      tag_373\n      swap2\n      swap1\n      tag_271\n      jump\t// in\n    tag_373:\n      mload(0x40)\n      0x20\n      dup2\n      dup4\n      sub\n      sub\n      dup2\n      mstore\n      swap1\n      0x40\n      mstore\n        /* \"moonx/moonx.sol\":4017:4064  keccak256(abi.encodePacked(_correctAnswers[i])) */\n      dup1\n      mload\n      swap1\n      0x20\n      add\n      keccak256\n        /* \"moonx/moonx.sol\":4017:4100  keccak256(abi.encodePacked(_correctAnswers[i])) == keccak256(abi.encodePacked(\"C\")) */\n      eq\n        /* \"moonx/moonx.sol\":3811:4100  keccak256(abi.encodePacked(_correctAnswers[i])) == keccak256(abi.encodePacked(\"A\")) ||... */\n    tag_368:\n        /* \"moonx/moonx.sol\":3811:4203  keccak256(abi.encodePacked(_correctAnswers[i])) == keccak256(abi.encodePacked(\"A\")) ||... */\n      dup1\n      tag_374\n      jumpi\n      pop\n        /* \"moonx/moonx.sol\":4181:4202  abi.encodePacked(\"D\") */\n      add(0x20, mload(0x40))\n      tag_375\n      swap1\n      tag_376\n      jump\t// in\n    tag_375:\n      mload(0x40)\n      0x20\n      dup2\n      dup4\n      sub\n      sub\n      dup2\n      mstore\n      swap1\n      0x40\n      mstore\n        /* \"moonx/moonx.sol\":4171:4203  keccak256(abi.encodePacked(\"D\")) */\n      dup1\n      mload\n      swap1\n      0x20\n      add\n      keccak256\n        /* \"moonx/moonx.sol\":4147:4162  _correctAnswers */\n      dup5\n        /* \"moonx/moonx.sol\":4163:4164  i */\n      dup3\n        /* \"moonx/moonx.sol\":4147:4165  _correctAnswers[i] */\n      dup2\n      mload\n      dup2\n      lt\n      tag_377\n      jumpi\n      tag_378\n      tag_267\n      jump\t// in\n    tag_378:\n    tag_377:\n      0x20\n      mul\n      0x20\n      add\n      add\n      mload\n        /* \"moonx/moonx.sol\":4130:4166  abi.encodePacked(_correctAnswers[i]) */\n      add(0x20, mload(0x40))\n      tag_379\n      swap2\n      swap1\n      tag_271\n      jump\t// in\n    tag_379:\n      mload(0x40)\n      0x20\n      dup2\n      dup4\n      sub\n      sub\n      dup2\n      mstore\n      swap1\n      0x40\n      mstore\n        /* \"moonx/moonx.sol\":4120:4167  keccak256(abi.encodePacked(_correctAnswers[i])) */\n      dup1\n      mload\n      swap1\n      0x20\n      add\n      keccak256\n        /* \"moonx/moonx.sol\":4120:4203  keccak256(abi.encodePacked(_correctAnswers[i])) == keccak256(abi.encodePacked(\"D\")) */\n      eq\n        /* \"moonx/moonx.sol\":3811:4203  keccak256(abi.encodePacked(_correctAnswers[i])) == keccak256(abi.encodePacked(\"A\")) ||... */\n    tag_374:\n        /* \"moonx/moonx.sol\":3786:4259  require(... */\n      tag_380\n      jumpi\n      mload(0x40)\n      0x08c379a000000000000000000000000000000000000000000000000000000000\n      dup2\n      mstore\n      0x04\n      add\n      tag_381\n      swap1\n      tag_382\n      jump\t// in\n    tag_381:\n      mload(0x40)\n      dup1\n      swap2\n      sub\n      swap1\n      revert\n    tag_380:\n        /* \"moonx/moonx.sol\":4274:4293  Quiz memory newQuiz */\n      0x00\n        /* \"moonx/moonx.sol\":4296:4633  Quiz({... */\n      mload(0x40)\n      dup1\n      0xe0\n      add\n      0x40\n      mstore\n      dup1\n        /* \"moonx/moonx.sol\":4329:4337  courseId */\n      dup5\n        /* \"moonx/moonx.sol\":4296:4633  Quiz({... */\n      dup2\n      mstore\n      0x20\n      add\n        /* \"moonx/moonx.sol\":4365:4375  _questions */\n      dup12\n        /* \"moonx/moonx.sol\":4376:4377  i */\n      dup5\n        /* \"moonx/moonx.sol\":4365:4378  _questions[i] */\n      dup2\n      mload\n      dup2\n      lt\n      tag_383\n      jumpi\n      tag_384\n      tag_267\n      jump\t// in\n    tag_384:\n    tag_383:\n      0x20\n      mul\n      0x20\n      add\n      add\n      mload\n        /* \"moonx/moonx.sol\":4296:4633  Quiz({... */\n      dup2\n      mstore\n      0x20\n      add\n        /* \"moonx/moonx.sol\":4405:4414  _optionAs */\n      dup11\n        /* \"moonx/moonx.sol\":4415:4416  i */\n      dup5\n        /* \"moonx/moonx.sol\":4405:4417  _optionAs[i] */\n      dup2\n      mload\n      dup2\n      lt\n      tag_385\n      jumpi\n      tag_386\n      tag_267\n      jump\t// in\n    tag_386:\n    tag_385:\n      0x20\n      mul\n      0x20\n      add\n      add\n      mload\n        /* \"moonx/moonx.sol\":4296:4633  Quiz({... */\n      dup2\n      mstore\n      0x20\n      add\n        /* \"moonx/moonx.sol\":4444:4453  _optionBs */\n      dup10\n        /* \"moonx/moonx.sol\":4454:4455  i */\n      dup5\n        /* \"moonx/moonx.sol\":4444:4456  _optionBs[i] */\n      dup2\n      mload\n      dup2\n      lt\n      tag_387\n      jumpi\n      tag_388\n      tag_267\n      jump\t// in\n    tag_388:\n    tag_387:\n      0x20\n      mul\n      0x20\n      add\n      add\n      mload\n        /* \"moonx/moonx.sol\":4296:4633  Quiz({... */\n      dup2\n      mstore\n      0x20\n      add\n        /* \"moonx/moonx.sol\":4483:4492  _optionCs */\n      dup9\n        /* \"moonx/moonx.sol\":4493:4494  i */\n      dup5\n        /* \"moonx/moonx.sol\":4483:4495  _optionCs[i] */\n      dup2\n      mload\n      dup2\n      lt\n      tag_389\n      jumpi\n      tag_390\n      tag_267\n      jump\t// in\n    tag_390:\n    tag_389:\n      0x20\n      mul\n      0x20\n      add\n      add\n      mload\n        /* \"moonx/moonx.sol\":4296:4633  Quiz({... */\n      dup2\n      mstore\n      0x20\n      add\n        /* \"moonx/moonx.sol\":4522:4531  _optionDs */\n      dup8\n        /* \"moonx/moonx.sol\":4532:4533  i */\n      dup5\n        /* \"moonx/moonx.sol\":4522:4534  _optionDs[i] */\n      dup2\n      mload\n      dup2\n      lt\n      tag_391\n      jumpi\n      tag_392\n      tag_267\n      jump\t// in\n    tag_392:\n    tag_391:\n      0x20\n      mul\n      0x20\n      add\n      add\n      mload\n        /* \"moonx/moonx.sol\":4296:4633  Quiz({... */\n      dup2\n      mstore\n      0x20\n      add\n        /* \"moonx/moonx.sol\":4598:4613  _correctAnswers */\n      dup7\n        /* \"moonx/moonx.sol\":4614:4615  i */\n      dup5\n        /* \"moonx/moonx.sol\":4598:4616  _correctAnswers[i] */\n      dup2\n      mload\n      dup2\n      lt\n      tag_393\n      jumpi\n      tag_394\n      tag_267\n      jump\t// in\n    tag_394:\n    tag_393:\n      0x20\n      mul\n      0x20\n      add\n      add\n      mload\n        /* \"moonx/moonx.sol\":4581:4617  abi.encodePacked(_correctAnswers[i]) */\n      add(0x20, mload(0x40))\n      tag_395\n      swap2\n      swap1\n      tag_271\n      jump\t// in\n    tag_395:\n      mload(0x40)\n      0x20\n      dup2\n      dup4\n      sub\n      sub\n      dup2\n      mstore\n      swap1\n      0x40\n      mstore\n        /* \"moonx/moonx.sol\":4571:4618  keccak256(abi.encodePacked(_correctAnswers[i])) */\n      dup1\n      mload\n      swap1\n      0x20\n      add\n      keccak256\n        /* \"moonx/moonx.sol\":4296:4633  Quiz({... */\n      dup2\n      mstore\n      pop\n        /* \"moonx/moonx.sol\":4274:4633  Quiz memory newQuiz = Quiz({... */\n      swap1\n      pop\n        /* \"moonx/moonx.sol\":4648:4661  courseQuizzes */\n      0x0b\n        /* \"moonx/moonx.sol\":4648:4671  courseQuizzes[courseId] */\n      0x00\n        /* \"moonx/moonx.sol\":4662:4670  courseId */\n      dup5\n        /* \"moonx/moonx.sol\":4648:4671  courseQuizzes[courseId] */\n      dup2\n      mstore\n      0x20\n      add\n      swap1\n      dup2\n      mstore\n      0x20\n      add\n      0x00\n      keccak256\n        /* \"moonx/moonx.sol\":4677:4684  newQuiz */\n      dup2\n        /* \"moonx/moonx.sol\":4648:4685  courseQuizzes[courseId].push(newQuiz) */\n      swap1\n      dup1\n      0x01\n      dup2\n      sload\n      add\n      dup1\n      dup3\n      sstore\n      dup1\n      swap2\n      pop\n      pop\n      0x01\n      swap1\n      sub\n      swap1\n      0x00\n      mstore\n      keccak256(0x00, 0x20)\n      swap1\n      0x07\n      mul\n      add\n      0x00\n      swap1\n      swap2\n      swap1\n      swap2\n      swap1\n      swap2\n      pop\n      0x00\n      dup3\n      add\n      mload\n      dup2\n      0x00\n      add\n      sstore\n      0x20\n      dup3\n      add\n      mload\n      dup2\n      0x01\n      add\n      swap1\n      dup2\n      tag_397\n      swap2\n      swap1\n      tag_353\n      jump\t// in\n    tag_397:\n      pop\n      0x40\n      dup3\n      add\n      mload\n      dup2\n      0x02\n      add\n      swap1\n      dup2\n      tag_398\n      swap2\n      swap1\n      tag_353\n      jump\t// in\n    tag_398:\n      pop\n      0x60\n      dup3\n      add\n      mload\n      dup2\n      0x03\n      add\n      swap1\n      dup2\n      tag_399\n      swap2\n      swap1\n      tag_353\n      jump\t// in\n    tag_399:\n      pop\n      0x80\n      dup3\n      add\n      mload\n      dup2\n      0x04\n      add\n      swap1\n      dup2\n      tag_400\n      swap2\n      swap1\n      tag_353\n      jump\t// in\n    tag_400:\n      pop\n      0xa0\n      dup3\n      add\n      mload\n      dup2\n      0x05\n      add\n      swap1\n      dup2\n      tag_401\n      swap2\n      swap1\n      tag_353\n      jump\t// in\n    tag_401:\n      pop\n      0xc0\n      dup3\n      add\n      mload\n      dup2\n      0x06\n      add\n      sstore\n      pop\n      pop\n        /* \"moonx/moonx.sol\":3772:4696  {... */\n      pop\n        /* \"moonx/moonx.sol\":3767:3770  i++ */\n      dup1\n      dup1\n      0x01\n      add\n      swap2\n      pop\n      pop\n        /* \"moonx/moonx.sol\":3724:4696  for (uint256 i = 0; i < _questions.length; i++) {... */\n      jump(tag_354)\n    tag_355:\n      pop\n        /* \"moonx/moonx.sol\":4735:4745  msg.sender */\n      caller\n        /* \"moonx/moonx.sol\":4711:4746  CourseCreated(courseId, msg.sender) */\n      0xffffffffffffffffffffffffffffffffffffffff\n      and\n        /* \"moonx/moonx.sol\":4725:4733  courseId */\n      dup2\n        /* \"moonx/moonx.sol\":4711:4746  CourseCreated(courseId, msg.sender) */\n      0xa68f79aa37f9cdc81c2757cfb3e11e9d7d89ca0a5410fbcf1b61125bc17fb1b7\n      mload(0x40)\n      mload(0x40)\n      dup1\n      swap2\n      sub\n      swap1\n      log3\n        /* \"moonx/moonx.sol\":3116:4753  {... */\n      pop\n        /* \"moonx/moonx.sol\":2523:2781  {... */\n      pop\n        /* \"moonx/moonx.sol\":2786:4753  function createCourse(... */\n      pop\n      pop\n      pop\n      pop\n      pop\n      pop\n      pop\n      jump\t// out\n        /* \"moonx/moonx.sol\":7350:7411  function pause() external onlyOwner {... */\n    tag_106:\n        /* \"@openzeppelin/contracts/access/Ownable.sol\":1531:1544  _checkOwner() */\n      tag_403\n        /* \"@openzeppelin/contracts/access/Ownable.sol\":1531:1542  _checkOwner */\n      tag_173\n        /* \"@openzeppelin/contracts/access/Ownable.sol\":1531:1544  _checkOwner() */\n      jump\t// in\n    tag_403:\n        /* \"moonx/moonx.sol\":7396:7404  _pause() */\n      tag_405\n        /* \"moonx/moonx.sol\":7396:7402  _pause */\n      tag_406\n        /* \"moonx/moonx.sol\":7396:7404  _pause() */\n      jump\t// in\n    tag_405:\n        /* \"moonx/moonx.sol\":7350:7411  function pause() external onlyOwner {... */\n      jump\t// out\n        /* \"moonx/moonx.sol\":327:372  IReputationContract public reputationContract */\n    tag_109:\n      0x01\n      0x00\n      swap1\n      sload\n      swap1\n      0x0100\n      exp\n      swap1\n      div\n      0xffffffffffffffffffffffffffffffffffffffff\n      and\n      dup2\n      jump\t// out\n        /* \"@openzeppelin/contracts/access/Ownable.sol\":1638:1723  function owner() public view virtual returns (address) {... */\n    tag_114:\n        /* \"@openzeppelin/contracts/access/Ownable.sol\":1684:1691  address */\n      0x00\n        /* \"@openzeppelin/contracts/access/Ownable.sol\":1710:1716  _owner */\n      dup1\n      0x00\n      swap1\n      sload\n      swap1\n      0x0100\n      exp\n      swap1\n      div\n      0xffffffffffffffffffffffffffffffffffffffff\n      and\n        /* \"@openzeppelin/contracts/access/Ownable.sol\":1703:1716  return _owner */\n      swap1\n      pop\n        /* \"@openzeppelin/contracts/access/Ownable.sol\":1638:1723  function owner() public view virtual returns (address) {... */\n      swap1\n      jump\t// out\n        /* \"moonx/moonx.sol\":7488:7654  function updateReputationContract(address _newReputationContract) external onlyOwner {... */\n    tag_121:\n        /* \"@openzeppelin/contracts/access/Ownable.sol\":1531:1544  _checkOwner() */\n      tag_409\n        /* \"@openzeppelin/contracts/access/Ownable.sol\":1531:1542  _checkOwner */\n      tag_173\n        /* \"@openzeppelin/contracts/access/Ownable.sol\":1531:1544  _checkOwner() */\n      jump\t// in\n    tag_409:\n        /* \"moonx/moonx.sol\":7624:7646  _newReputationContract */\n      dup1\n        /* \"moonx/moonx.sol\":7583:7601  reputationContract */\n      0x01\n      0x00\n        /* \"moonx/moonx.sol\":7583:7647  reputationContract = IReputationContract(_newReputationContract) */\n      0x0100\n      exp\n      dup2\n      sload\n      dup2\n      0xffffffffffffffffffffffffffffffffffffffff\n      mul\n      not\n      and\n      swap1\n      dup4\n      0xffffffffffffffffffffffffffffffffffffffff\n      and\n      mul\n      or\n      swap1\n      sstore\n      pop\n        /* \"moonx/moonx.sol\":7488:7654  function updateReputationContract(address _newReputationContract) external onlyOwner {... */\n      pop\n      jump\t// out\n        /* \"moonx/moonx.sol\":379:409  uint256 public enrollThreshold */\n    tag_124:\n      sload(0x02)\n      dup2\n      jump\t// out\n        /* \"moonx/moonx.sol\":1288:1329  mapping(uint256 => Course) public courses */\n    tag_129:\n      mstore(0x20, 0x09)\n      dup1\n      0x00\n      mstore\n      keccak256(0x00, 0x40)\n      0x00\n      swap2\n      pop\n      swap1\n      pop\n      dup1\n      0x00\n      add\n      0x00\n      swap1\n      sload\n      swap1\n      0x0100\n      exp\n      swap1\n      div\n      0xffffffffffffffffffffffffffffffffffffffff\n      and\n      swap1\n      dup1\n      0x01\n      add\n      dup1\n      sload\n      tag_411\n      swap1\n      tag_234\n      jump\t// in\n    tag_411:\n      dup1\n      0x1f\n      add\n      0x20\n      dup1\n      swap2\n      div\n      mul\n      0x20\n      add\n      mload(0x40)\n      swap1\n      dup2\n      add\n      0x40\n      mstore\n      dup1\n      swap3\n      swap2\n      swap1\n      dup2\n      dup2\n      mstore\n      0x20\n      add\n      dup3\n      dup1\n      sload\n      tag_412\n      swap1\n      tag_234\n      jump\t// in\n    tag_412:\n      dup1\n      iszero\n      tag_413\n      jumpi\n      dup1\n      0x1f\n      lt\n      tag_414\n      jumpi\n      0x0100\n      dup1\n      dup4\n      sload\n      div\n      mul\n      dup4\n      mstore\n      swap2\n      0x20\n      add\n      swap2\n      jump(tag_413)\n    tag_414:\n      dup3\n      add\n      swap2\n      swap1\n      0x00\n      mstore\n      keccak256(0x00, 0x20)\n      swap1\n    tag_415:\n      dup2\n      sload\n      dup2\n      mstore\n      swap1\n      0x01\n      add\n      swap1\n      0x20\n      add\n      dup1\n      dup4\n      gt\n      tag_415\n      jumpi\n      dup3\n      swap1\n      sub\n      0x1f\n      and\n      dup3\n      add\n      swap2\n    tag_413:\n      pop\n      pop\n      pop\n      pop\n      pop\n      swap1\n      dup1\n      0x02\n      add\n      0x00\n      swap1\n      sload\n      swap1\n      0x0100\n      exp\n      swap1\n      div\n      0xff\n      and\n      swap1\n      dup1\n      0x02\n      add\n      0x01\n      swap1\n      sload\n      swap1\n      0x0100\n      exp\n      swap1\n      div\n      0xffffffff\n      and\n      swap1\n      dup1\n      0x03\n      add\n      sload\n      swap1\n      dup1\n      0x04\n      add\n      0x00\n      swap1\n      sload\n      swap1\n      0x0100\n      exp\n      swap1\n      div\n      0xffffffff\n      and\n      swap1\n      pop\n      dup7\n      jump\t// out\n        /* \"moonx/moonx.sol\":489:523  uint256 public creatorRewardAmount */\n    tag_134:\n      sload(0x05)\n      dup2\n      jump\t// out\n        /* \"moonx/moonx.sol\":8432:8592  function updatePlatformFee(uint256 _newFee) external onlyOwner {... */\n    tag_139:\n        /* \"@openzeppelin/contracts/access/Ownable.sol\":1531:1544  _checkOwner() */\n      tag_417\n        /* \"@openzeppelin/contracts/access/Ownable.sol\":1531:1542  _checkOwner */\n      tag_173\n        /* \"@openzeppelin/contracts/access/Ownable.sol\":1531:1544  _checkOwner() */\n      jump\t// in\n    tag_417:\n        /* \"moonx/moonx.sol\":8523:8524  0 */\n      0x00\n        /* \"moonx/moonx.sol\":8513:8520  _newFee */\n      dup2\n        /* \"moonx/moonx.sol\":8513:8524  _newFee > 0 */\n      gt\n        /* \"moonx/moonx.sol\":8505:8555  require(_newFee > 0, \"Fee must be greater than 0\") */\n      tag_419\n      jumpi\n      mload(0x40)\n      0x08c379a000000000000000000000000000000000000000000000000000000000\n      dup2\n      mstore\n      0x04\n      add\n      tag_420\n      swap1\n      tag_421\n      jump\t// in\n    tag_420:\n      mload(0x40)\n      dup1\n      swap2\n      sub\n      swap1\n      revert\n    tag_419:\n        /* \"moonx/moonx.sol\":8578:8585  _newFee */\n      dup1\n        /* \"moonx/moonx.sol\":8565:8575  platformTx */\n      0x06\n        /* \"moonx/moonx.sol\":8565:8585  platformTx = _newFee */\n      dup2\n      swap1\n      sstore\n      pop\n        /* \"moonx/moonx.sol\":8432:8592  function updatePlatformFee(uint256 _newFee) external onlyOwner {... */\n      pop\n      jump\t// out\n        /* \"moonx/moonx.sol\":529:554  uint256 public platformTx */\n    tag_142:\n      sload(0x06)\n      dup2\n      jump\t// out\n        /* \"moonx/moonx.sol\":1410:1457  mapping(uint256 => Quiz[]) public courseQuizzes */\n    tag_148:\n      mstore(0x20, 0x0b)\n      dup2\n      0x00\n      mstore\n      keccak256(0x00, 0x40)\n      dup2\n      dup2\n      sload\n      dup2\n      lt\n      tag_422\n      jumpi\n      0x00\n      dup1\n      revert\n    tag_422:\n      swap1\n      0x00\n      mstore\n      keccak256(0x00, 0x20)\n      swap1\n      0x07\n      mul\n      add\n      0x00\n      swap2\n      pop\n      swap2\n      pop\n      pop\n      dup1\n      0x00\n      add\n      sload\n      swap1\n      dup1\n      0x01\n      add\n      dup1\n      sload\n      tag_424\n      swap1\n      tag_234\n      jump\t// in\n    tag_424:\n      dup1\n      0x1f\n      add\n      0x20\n      dup1\n      swap2\n      div\n      mul\n      0x20\n      add\n      mload(0x40)\n      swap1\n      dup2\n      add\n      0x40\n      mstore\n      dup1\n      swap3\n      swap2\n      swap1\n      dup2\n      dup2\n      mstore\n      0x20\n      add\n      dup3\n      dup1\n      sload\n      tag_425\n      swap1\n      tag_234\n      jump\t// in\n    tag_425:\n      dup1\n      iszero\n      tag_426\n      jumpi\n      dup1\n      0x1f\n      lt\n      tag_427\n      jumpi\n      0x0100\n      dup1\n      dup4\n      sload\n      div\n      mul\n      dup4\n      mstore\n      swap2\n      0x20\n      add\n      swap2\n      jump(tag_426)\n    tag_427:\n      dup3\n      add\n      swap2\n      swap1\n      0x00\n      mstore\n      keccak256(0x00, 0x20)\n      swap1\n    tag_428:\n      dup2\n      sload\n      dup2\n      mstore\n      swap1\n      0x01\n      add\n      swap1\n      0x20\n      add\n      dup1\n      dup4\n      gt\n      tag_428\n      jumpi\n      dup3\n      swap1\n      sub\n      0x1f\n      and\n      dup3\n      add\n      swap2\n    tag_426:\n      pop\n      pop\n      pop\n      pop\n      pop\n      swap1\n      dup1\n      0x02\n      add\n      dup1\n      sload\n      tag_429\n      swap1\n      tag_234\n      jump\t// in\n    tag_429:\n      dup1\n      0x1f\n      add\n      0x20\n      dup1\n      swap2\n      div\n      mul\n      0x20\n      add\n      mload(0x40)\n      swap1\n      dup2\n      add\n      0x40\n      mstore\n      dup1\n      swap3\n      swap2\n      swap1\n      dup2\n      dup2\n      mstore\n      0x20\n      add\n      dup3\n      dup1\n      sload\n      tag_430\n      swap1\n      tag_234\n      jump\t// in\n    tag_430:\n      dup1\n      iszero\n      tag_431\n      jumpi\n      dup1\n      0x1f\n      lt\n      tag_432\n      jumpi\n      0x0100\n      dup1\n      dup4\n      sload\n      div\n      mul\n      dup4\n      mstore\n      swap2\n      0x20\n      add\n      swap2\n      jump(tag_431)\n    tag_432:\n      dup3\n      add\n      swap2\n      swap1\n      0x00\n      mstore\n      keccak256(0x00, 0x20)\n      swap1\n    tag_433:\n      dup2\n      sload\n      dup2\n      mstore\n      swap1\n      0x01\n      add\n      swap1\n      0x20\n      add\n      dup1\n      dup4\n      gt\n      tag_433\n      jumpi\n      dup3\n      swap1\n      sub\n      0x1f\n      and\n      dup3\n      add\n      swap2\n    tag_431:\n      pop\n      pop\n      pop\n      pop\n      pop\n      swap1\n      dup1\n      0x03\n      add\n      dup1\n      sload\n      tag_434\n      swap1\n      tag_234\n      jump\t// in\n    tag_434:\n      dup1\n      0x1f\n      add\n      0x20\n      dup1\n      swap2\n      div\n      mul\n      0x20\n      add\n      mload(0x40)\n      swap1\n      dup2\n      add\n      0x40\n      mstore\n      dup1\n      swap3\n      swap2\n      swap1\n      dup2\n      dup2\n      mstore\n      0x20\n      add\n      dup3\n      dup1\n      sload\n      tag_435\n      swap1\n      tag_234\n      jump\t// in\n    tag_435:\n      dup1\n      iszero\n      tag_436\n      jumpi\n      dup1\n      0x1f\n      lt\n      tag_437\n      jumpi\n      0x0100\n      dup1\n      dup4\n      sload\n      div\n      mul\n      dup4\n      mstore\n      swap2\n      0x20\n      add\n      swap2\n      jump(tag_436)\n    tag_437:\n      dup3\n      add\n      swap2\n      swap1\n      0x00\n      mstore\n      keccak256(0x00, 0x20)\n      swap1\n    tag_438:\n      dup2\n      sload\n      dup2\n      mstore\n      swap1\n      0x01\n      add\n      swap1\n      0x20\n      add\n      dup1\n      dup4\n      gt\n      tag_438\n      jumpi\n      dup3\n      swap1\n      sub\n      0x1f\n      and\n      dup3\n      add\n      swap2\n    tag_436:\n      pop\n      pop\n      pop\n      pop\n      pop\n      swap1\n      dup1\n      0x04\n      add\n      dup1\n      sload\n      tag_439\n      swap1\n      tag_234\n      jump\t// in\n    tag_439:\n      dup1\n      0x1f\n      add\n      0x20\n      dup1\n      swap2\n      div\n      mul\n      0x20\n      add\n      mload(0x40)\n      swap1\n      dup2\n      add\n      0x40\n      mstore\n      dup1\n      swap3\n      swap2\n      swap1\n      dup2\n      dup2\n      mstore\n      0x20\n      add\n      dup3\n      dup1\n      sload\n      tag_440\n      swap1\n      tag_234\n      jump\t// in\n    tag_440:\n      dup1\n      iszero\n      tag_441\n      jumpi\n      dup1\n      0x1f\n      lt\n      tag_442\n      jumpi\n      0x0100\n      dup1\n      dup4\n      sload\n      div\n      mul\n      dup4\n      mstore\n      swap2\n      0x20\n      add\n      swap2\n      jump(tag_441)\n    tag_442:\n      dup3\n      add\n      swap2\n      swap1\n      0x00\n      mstore\n      keccak256(0x00, 0x20)\n      swap1\n    tag_443:\n      dup2\n      sload\n      dup2\n      mstore\n      swap1\n      0x01\n      add\n      swap1\n      0x20\n      add\n      dup1\n      dup4\n      gt\n      tag_443\n      jumpi\n      dup3\n      swap1\n      sub\n      0x1f\n      and\n      dup3\n      add\n      swap2\n    tag_441:\n      pop\n      pop\n      pop\n      pop\n      pop\n      swap1\n      dup1\n      0x05\n      add\n      dup1\n      sload\n      tag_444\n      swap1\n      tag_234\n      jump\t// in\n    tag_444:\n      dup1\n      0x1f\n      add\n      0x20\n      dup1\n      swap2\n      div\n      mul\n      0x20\n      add\n      mload(0x40)\n      swap1\n      dup2\n      add\n      0x40\n      mstore\n      dup1\n      swap3\n      swap2\n      swap1\n      dup2\n      dup2\n      mstore\n      0x20\n      add\n      dup3\n      dup1\n      sload\n      tag_445\n      swap1\n      tag_234\n      jump\t// in\n    tag_445:\n      dup1\n      iszero\n      tag_446\n      jumpi\n      dup1\n      0x1f\n      lt\n      tag_447\n      jumpi\n      0x0100\n      dup1\n      dup4\n      sload\n      div\n      mul\n      dup4\n      mstore\n      swap2\n      0x20\n      add\n      swap2\n      jump(tag_446)\n    tag_447:\n      dup3\n      add\n      swap2\n      swap1\n      0x00\n      mstore\n      keccak256(0x00, 0x20)\n      swap1\n    tag_448:\n      dup2\n      sload\n      dup2\n      mstore\n      swap1\n      0x01\n      add\n      swap1\n      0x20\n      add\n      dup1\n      dup4\n      gt\n      tag_448\n      jumpi\n      dup3\n      swap1\n      sub\n      0x1f\n      and\n      dup3\n      add\n      swap2\n    tag_446:\n      pop\n      pop\n      pop\n      pop\n      pop\n      swap1\n      dup1\n      0x06\n      add\n      sload\n      swap1\n      pop\n      dup8\n      jump\t// out\n        /* \"moonx/moonx.sol\":8053:8236  function updateStudentReward(uint256 _newReward) external onlyOwner {... */\n    tag_154:\n        /* \"@openzeppelin/contracts/access/Ownable.sol\":1531:1544  _checkOwner() */\n      tag_450\n        /* \"@openzeppelin/contracts/access/Ownable.sol\":1531:1542  _checkOwner */\n      tag_173\n        /* \"@openzeppelin/contracts/access/Ownable.sol\":1531:1544  _checkOwner() */\n      jump\t// in\n    tag_450:\n        /* \"moonx/moonx.sol\":8152:8153  0 */\n      0x00\n        /* \"moonx/moonx.sol\":8139:8149  _newReward */\n      dup2\n        /* \"moonx/moonx.sol\":8139:8153  _newReward > 0 */\n      gt\n        /* \"moonx/moonx.sol\":8131:8187  require(_newReward > 0, \"Reward must be greater than 0\") */\n      tag_452\n      jumpi\n      mload(0x40)\n      0x08c379a000000000000000000000000000000000000000000000000000000000\n      dup2\n      mstore\n      0x04\n      add\n      tag_453\n      swap1\n      tag_177\n      jump\t// in\n    tag_453:\n      mload(0x40)\n      dup1\n      swap2\n      sub\n      swap1\n      revert\n    tag_452:\n        /* \"moonx/moonx.sol\":8219:8229  _newReward */\n      dup1\n        /* \"moonx/moonx.sol\":8197:8216  studentRewardAmount */\n      0x04\n        /* \"moonx/moonx.sol\":8197:8229  studentRewardAmount = _newReward */\n      dup2\n      swap1\n      sstore\n      pop\n        /* \"moonx/moonx.sol\":8053:8236  function updateStudentReward(uint256 _newReward) external onlyOwner {... */\n      pop\n      jump\t// out\n        /* \"moonx/moonx.sol\":449:483  uint256 public studentRewardAmount */\n    tag_157:\n      sload(0x04)\n      dup2\n      jump\t// out\n        /* \"moonx/moonx.sol\":7659:7852  function updateEnrollThreshold(uint256 _newThreshold) external onlyOwner {... */\n    tag_162:\n        /* \"@openzeppelin/contracts/access/Ownable.sol\":1531:1544  _checkOwner() */\n      tag_455\n        /* \"@openzeppelin/contracts/access/Ownable.sol\":1531:1542  _checkOwner */\n      tag_173\n        /* \"@openzeppelin/contracts/access/Ownable.sol\":1531:1544  _checkOwner() */\n      jump\t// in\n    tag_455:\n        /* \"moonx/moonx.sol\":7766:7767  0 */\n      0x00\n        /* \"moonx/moonx.sol\":7750:7763  _newThreshold */\n      dup2\n        /* \"moonx/moonx.sol\":7750:7767  _newThreshold > 0 */\n      gt\n        /* \"moonx/moonx.sol\":7742:7804  require(_newThreshold > 0, \"Threshold must be greater than 0\") */\n      tag_457\n      jumpi\n      mload(0x40)\n      0x08c379a000000000000000000000000000000000000000000000000000000000\n      dup2\n      mstore\n      0x04\n      add\n      tag_458\n      swap1\n      tag_201\n      jump\t// in\n    tag_458:\n      mload(0x40)\n      dup1\n      swap2\n      sub\n      swap1\n      revert\n    tag_457:\n        /* \"moonx/moonx.sol\":7832:7845  _newThreshold */\n      dup1\n        /* \"moonx/moonx.sol\":7814:7829  enrollThreshold */\n      0x02\n        /* \"moonx/moonx.sol\":7814:7845  enrollThreshold = _newThreshold */\n      dup2\n      swap1\n      sstore\n      pop\n        /* \"moonx/moonx.sol\":7659:7852  function updateEnrollThreshold(uint256 _newThreshold) external onlyOwner {... */\n      pop\n      jump\t// out\n        /* \"moonx/moonx.sol\":415:443  uint256 public postThreshold */\n    tag_165:\n      sload(0x03)\n      dup2\n      jump\t// out\n        /* \"@openzeppelin/contracts/access/Ownable.sol\":2543:2758  function transferOwnership(address newOwner) public virtual onlyOwner {... */\n    tag_170:\n        /* \"@openzeppelin/contracts/access/Ownable.sol\":1531:1544  _checkOwner() */\n      tag_460\n        /* \"@openzeppelin/contracts/access/Ownable.sol\":1531:1542  _checkOwner */\n      tag_173\n        /* \"@openzeppelin/contracts/access/Ownable.sol\":1531:1544  _checkOwner() */\n      jump\t// in\n    tag_460:\n        /* \"@openzeppelin/contracts/access/Ownable.sol\":2647:2648  0 */\n      0x00\n        /* \"@openzeppelin/contracts/access/Ownable.sol\":2627:2649  newOwner == address(0) */\n      0xffffffffffffffffffffffffffffffffffffffff\n      and\n        /* \"@openzeppelin/contracts/access/Ownable.sol\":2627:2635  newOwner */\n      dup2\n        /* \"@openzeppelin/contracts/access/Ownable.sol\":2627:2649  newOwner == address(0) */\n      0xffffffffffffffffffffffffffffffffffffffff\n      and\n      sub\n        /* \"@openzeppelin/contracts/access/Ownable.sol\":2623:2714  if (newOwner == address(0)) {... */\n      tag_462\n      jumpi\n        /* \"@openzeppelin/contracts/access/Ownable.sol\":2700:2701  0 */\n      0x00\n        /* \"@openzeppelin/contracts/access/Ownable.sol\":2672:2703  OwnableInvalidOwner(address(0)) */\n      mload(0x40)\n      0x1e4fbdf700000000000000000000000000000000000000000000000000000000\n      dup2\n      mstore\n      0x04\n      add\n      tag_463\n      swap2\n      swap1\n      tag_116\n      jump\t// in\n    tag_463:\n      mload(0x40)\n      dup1\n      swap2\n      sub\n      swap1\n      revert\n        /* \"@openzeppelin/contracts/access/Ownable.sol\":2623:2714  if (newOwner == address(0)) {... */\n    tag_462:\n        /* \"@openzeppelin/contracts/access/Ownable.sol\":2723:2751  _transferOwnership(newOwner) */\n      tag_464\n        /* \"@openzeppelin/contracts/access/Ownable.sol\":2742:2750  newOwner */\n      dup2\n        /* \"@openzeppelin/contracts/access/Ownable.sol\":2723:2741  _transferOwnership */\n      tag_317\n        /* \"@openzeppelin/contracts/access/Ownable.sol\":2723:2751  _transferOwnership(newOwner) */\n      jump\t// in\n    tag_464:\n        /* \"@openzeppelin/contracts/access/Ownable.sol\":2543:2758  function transferOwnership(address newOwner) public virtual onlyOwner {... */\n      pop\n      jump\t// out\n        /* \"@openzeppelin/contracts/access/Ownable.sol\":1796:1958  function _checkOwner() internal view virtual {... */\n    tag_173:\n        /* \"@openzeppelin/contracts/access/Ownable.sol\":1866:1878  _msgSender() */\n      tag_466\n        /* \"@openzeppelin/contracts/access/Ownable.sol\":1866:1876  _msgSender */\n      tag_467\n        /* \"@openzeppelin/contracts/access/Ownable.sol\":1866:1878  _msgSender() */\n      jump\t// in\n    tag_466:\n        /* \"@openzeppelin/contracts/access/Ownable.sol\":1855:1878  owner() != _msgSender() */\n      0xffffffffffffffffffffffffffffffffffffffff\n      and\n        /* \"@openzeppelin/contracts/access/Ownable.sol\":1855:1862  owner() */\n      tag_468\n        /* \"@openzeppelin/contracts/access/Ownable.sol\":1855:1860  owner */\n      tag_114\n        /* \"@openzeppelin/contracts/access/Ownable.sol\":1855:1862  owner() */\n      jump\t// in\n    tag_468:\n        /* \"@openzeppelin/contracts/access/Ownable.sol\":1855:1878  owner() != _msgSender() */\n      0xffffffffffffffffffffffffffffffffffffffff\n      and\n      eq\n        /* \"@openzeppelin/contracts/access/Ownable.sol\":1851:1952  if (owner() != _msgSender()) {... */\n      tag_469\n      jumpi\n        /* \"@openzeppelin/contracts/access/Ownable.sol\":1928:1940  _msgSender() */\n      tag_470\n        /* \"@openzeppelin/contracts/access/Ownable.sol\":1928:1938  _msgSender */\n      tag_467\n        /* \"@openzeppelin/contracts/access/Ownable.sol\":1928:1940  _msgSender() */\n      jump\t// in\n    tag_470:\n        /* \"@openzeppelin/contracts/access/Ownable.sol\":1901:1941  OwnableUnauthorizedAccount(_msgSender()) */\n      mload(0x40)\n      0x118cdaa700000000000000000000000000000000000000000000000000000000\n      dup2\n      mstore\n      0x04\n      add\n      tag_471\n      swap2\n      swap1\n      tag_116\n      jump\t// in\n    tag_471:\n      mload(0x40)\n      dup1\n      swap2\n      sub\n      swap1\n      revert\n        /* \"@openzeppelin/contracts/access/Ownable.sol\":1851:1952  if (owner() != _msgSender()) {... */\n    tag_469:\n        /* \"@openzeppelin/contracts/access/Ownable.sol\":1796:1958  function _checkOwner() internal view virtual {... */\n      jump\t// out\n        /* \"@openzeppelin/contracts/security/Pausable.sol\":2433:2550  function _unpause() internal virtual whenPaused {... */\n    tag_206:\n        /* \"@openzeppelin/contracts/security/Pausable.sol\":1486:1502  _requirePaused() */\n      tag_473\n        /* \"@openzeppelin/contracts/security/Pausable.sol\":1486:1500  _requirePaused */\n      tag_474\n        /* \"@openzeppelin/contracts/security/Pausable.sol\":1486:1502  _requirePaused() */\n      jump\t// in\n    tag_473:\n        /* \"@openzeppelin/contracts/security/Pausable.sol\":2501:2506  false */\n      0x00\n        /* \"@openzeppelin/contracts/security/Pausable.sol\":2491:2498  _paused */\n      dup1\n      0x14\n        /* \"@openzeppelin/contracts/security/Pausable.sol\":2491:2506  _paused = false */\n      0x0100\n      exp\n      dup2\n      sload\n      dup2\n      0xff\n      mul\n      not\n      and\n      swap1\n      dup4\n      iszero\n      iszero\n      mul\n      or\n      swap1\n      sstore\n      pop\n        /* \"@openzeppelin/contracts/security/Pausable.sol\":2521:2543  Unpaused(_msgSender()) */\n      0x5db9ee0a495bf2e6ff9c91a7834c1ba4fdd244a5e8aa4e537bd38aeae4b073aa\n        /* \"@openzeppelin/contracts/security/Pausable.sol\":2530:2542  _msgSender() */\n      tag_476\n        /* \"@openzeppelin/contracts/security/Pausable.sol\":2530:2540  _msgSender */\n      tag_467\n        /* \"@openzeppelin/contracts/security/Pausable.sol\":2530:2542  _msgSender() */\n      jump\t// in\n    tag_476:\n        /* \"@openzeppelin/contracts/security/Pausable.sol\":2521:2543  Unpaused(_msgSender()) */\n      mload(0x40)\n      tag_477\n      swap2\n      swap1\n      tag_116\n      jump\t// in\n    tag_477:\n      mload(0x40)\n      dup1\n      swap2\n      sub\n      swap1\n      log1\n        /* \"@openzeppelin/contracts/security/Pausable.sol\":2433:2550  function _unpause() internal virtual whenPaused {... */\n      jump\t// out\n        /* \"@openzeppelin/contracts/security/Pausable.sol\":1767:1873  function _requireNotPaused() internal view virtual {... */\n    tag_288:\n        /* \"@openzeppelin/contracts/security/Pausable.sol\":1837:1845  paused() */\n      tag_479\n        /* \"@openzeppelin/contracts/security/Pausable.sol\":1837:1843  paused */\n      tag_79\n        /* \"@openzeppelin/contracts/security/Pausable.sol\":1837:1845  paused() */\n      jump\t// in\n    tag_479:\n        /* \"@openzeppelin/contracts/security/Pausable.sol\":1836:1845  !paused() */\n      iszero\n        /* \"@openzeppelin/contracts/security/Pausable.sol\":1828:1866  require(!paused(), \"Pausable: paused\") */\n      tag_480\n      jumpi\n      mload(0x40)\n      0x08c379a000000000000000000000000000000000000000000000000000000000\n      dup2\n      mstore\n      0x04\n      add\n      tag_481\n      swap1\n      tag_482\n      jump\t// in\n    tag_481:\n      mload(0x40)\n      dup1\n      swap2\n      sub\n      swap1\n      revert\n    tag_480:\n        /* \"@openzeppelin/contracts/security/Pausable.sol\":1767:1873  function _requireNotPaused() internal view virtual {... */\n      jump\t// out\n        /* \"@openzeppelin/contracts/access/Ownable.sol\":2912:3099  function _transferOwnership(address newOwner) internal virtual {... */\n    tag_317:\n        /* \"@openzeppelin/contracts/access/Ownable.sol\":2985:3001  address oldOwner */\n      0x00\n        /* \"@openzeppelin/contracts/access/Ownable.sol\":3004:3010  _owner */\n      dup1\n      0x00\n      swap1\n      sload\n      swap1\n      0x0100\n      exp\n      swap1\n      div\n      0xffffffffffffffffffffffffffffffffffffffff\n      and\n        /* \"@openzeppelin/contracts/access/Ownable.sol\":2985:3010  address oldOwner = _owner */\n      swap1\n      pop\n        /* \"@openzeppelin/contracts/access/Ownable.sol\":3029:3037  newOwner */\n      dup2\n        /* \"@openzeppelin/contracts/access/Ownable.sol\":3020:3026  _owner */\n      0x00\n      dup1\n        /* \"@openzeppelin/contracts/access/Ownable.sol\":3020:3037  _owner = newOwner */\n      0x0100\n      exp\n      dup2\n      sload\n      dup2\n      0xffffffffffffffffffffffffffffffffffffffff\n      mul\n      not\n      and\n      swap1\n      dup4\n      0xffffffffffffffffffffffffffffffffffffffff\n      and\n      mul\n      or\n      swap1\n      sstore\n      pop\n        /* \"@openzeppelin/contracts/access/Ownable.sol\":3083:3091  newOwner */\n      dup2\n        /* \"@openzeppelin/contracts/access/Ownable.sol\":3052:3092  OwnershipTransferred(oldOwner, newOwner) */\n      0xffffffffffffffffffffffffffffffffffffffff\n      and\n        /* \"@openzeppelin/contracts/access/Ownable.sol\":3073:3081  oldOwner */\n      dup2\n        /* \"@openzeppelin/contracts/access/Ownable.sol\":3052:3092  OwnershipTransferred(oldOwner, newOwner) */\n      0xffffffffffffffffffffffffffffffffffffffff\n      and\n      0x8be0079c531659141344cd1fd0a4f28419497f9722a3daafe3b4186f6b6457e0\n      mload(0x40)\n      mload(0x40)\n      dup1\n      swap2\n      sub\n      swap1\n      log3\n        /* \"@openzeppelin/contracts/access/Ownable.sol\":2975:3099  {... */\n      pop\n        /* \"@openzeppelin/contracts/access/Ownable.sol\":2912:3099  function _transferOwnership(address newOwner) internal virtual {... */\n      pop\n      jump\t// out\n        /* \"@openzeppelin/contracts/security/Pausable.sol\":2186:2301  function _pause() internal virtual whenNotPaused {... */\n    tag_406:\n        /* \"@openzeppelin/contracts/security/Pausable.sol\":1239:1258  _requireNotPaused() */\n      tag_485\n        /* \"@openzeppelin/contracts/security/Pausable.sol\":1239:1256  _requireNotPaused */\n      tag_288\n        /* \"@openzeppelin/contracts/security/Pausable.sol\":1239:1258  _requireNotPaused() */\n      jump\t// in\n    tag_485:\n        /* \"@openzeppelin/contracts/security/Pausable.sol\":2255:2259  true */\n      0x01\n        /* \"@openzeppelin/contracts/security/Pausable.sol\":2245:2252  _paused */\n      0x00\n      0x14\n        /* \"@openzeppelin/contracts/security/Pausable.sol\":2245:2259  _paused = true */\n      0x0100\n      exp\n      dup2\n      sload\n      dup2\n      0xff\n      mul\n      not\n      and\n      swap1\n      dup4\n      iszero\n      iszero\n      mul\n      or\n      swap1\n      sstore\n      pop\n        /* \"@openzeppelin/contracts/security/Pausable.sol\":2274:2294  Paused(_msgSender()) */\n      0x62e78cea01bee320cd4e420270b5ea74000d11b0c9f74754ebdbfc544b05a258\n        /* \"@openzeppelin/contracts/security/Pausable.sol\":2281:2293  _msgSender() */\n      tag_487\n        /* \"@openzeppelin/contracts/security/Pausable.sol\":2281:2291  _msgSender */\n      tag_467\n        /* \"@openzeppelin/contracts/security/Pausable.sol\":2281:2293  _msgSender() */\n      jump\t// in\n    tag_487:\n        /* \"@openzeppelin/contracts/security/Pausable.sol\":2274:2294  Paused(_msgSender()) */\n      mload(0x40)\n      tag_488\n      swap2\n      swap1\n      tag_116\n      jump\t// in\n    tag_488:\n      mload(0x40)\n      dup1\n      swap2\n      sub\n      swap1\n      log1\n        /* \"@openzeppelin/contracts/security/Pausable.sol\":2186:2301  function _pause() internal virtual whenNotPaused {... */\n      jump\t// out\n        /* \"@openzeppelin/contracts/utils/Context.sol\":656:752  function _msgSender() internal view virtual returns (address) {... */\n    tag_467:\n        /* \"@openzeppelin/contracts/utils/Context.sol\":709:716  address */\n      0x00\n        /* \"@openzeppelin/contracts/utils/Context.sol\":735:745  msg.sender */\n      caller\n        /* \"@openzeppelin/contracts/utils/Context.sol\":728:745  return msg.sender */\n      swap1\n      pop\n        /* \"@openzeppelin/contracts/utils/Context.sol\":656:752  function _msgSender() internal view virtual returns (address) {... */\n      swap1\n      jump\t// out\n        /* \"@openzeppelin/contracts/security/Pausable.sol\":1945:2051  function _requirePaused() internal view virtual {... */\n    tag_474:\n        /* \"@openzeppelin/contracts/security/Pausable.sol\":2011:2019  paused() */\n      tag_491\n        /* \"@openzeppelin/contracts/security/Pausable.sol\":2011:2017  paused */\n      tag_79\n        /* \"@openzeppelin/contracts/security/Pausable.sol\":2011:2019  paused() */\n      jump\t// in\n    tag_491:\n        /* \"@openzeppelin/contracts/security/Pausable.sol\":2003:2044  require(paused(), \"Pausable: not paused\") */\n      tag_492\n      jumpi\n      mload(0x40)\n      0x08c379a000000000000000000000000000000000000000000000000000000000\n      dup2\n      mstore\n      0x04\n      add\n      tag_493\n      swap1\n      tag_494\n      jump\t// in\n    tag_493:\n      mload(0x40)\n      dup1\n      swap2\n      sub\n      swap1\n      revert\n    tag_492:\n        /* \"@openzeppelin/contracts/security/Pausable.sol\":1945:2051  function _requirePaused() internal view virtual {... */\n      jump\t// out\n        /* \"#utility.yul\":7:82   */\n    tag_495:\n        /* \"#utility.yul\":40:46   */\n      0x00\n        /* \"#utility.yul\":73:75   */\n      0x40\n        /* \"#utility.yul\":67:76   */\n      mload\n        /* \"#utility.yul\":57:76   */\n      swap1\n      pop\n        /* \"#utility.yul\":7:82   */\n      swap1\n      jump\t// out\n        /* \"#utility.yul\":88:205   */\n    tag_496:\n        /* \"#utility.yul\":197:198   */\n      0x00\n        /* \"#utility.yul\":194:195   */\n      dup1\n        /* \"#utility.yul\":187:199   */\n      revert\n        /* \"#utility.yul\":211:328   */\n    tag_497:\n        /* \"#utility.yul\":320:321   */\n      0x00\n        /* \"#utility.yul\":317:318   */\n      dup1\n        /* \"#utility.yul\":310:322   */\n      revert\n        /* \"#utility.yul\":334:411   */\n    tag_498:\n        /* \"#utility.yul\":371:378   */\n      0x00\n        /* \"#utility.yul\":400:405   */\n      dup2\n        /* \"#utility.yul\":389:405   */\n      swap1\n      pop\n        /* \"#utility.yul\":334:411   */\n      swap2\n      swap1\n      pop\n      jump\t// out\n        /* \"#utility.yul\":417:539   */\n    tag_499:\n        /* \"#utility.yul\":490:514   */\n      tag_614\n        /* \"#utility.yul\":508:513   */\n      dup2\n        /* \"#utility.yul\":490:514   */\n      tag_498\n      jump\t// in\n    tag_614:\n        /* \"#utility.yul\":483:488   */\n      dup2\n        /* \"#utility.yul\":480:515   */\n      eq\n        /* \"#utility.yul\":470:533   */\n      tag_615\n      jumpi\n        /* \"#utility.yul\":529:530   */\n      0x00\n        /* \"#utility.yul\":526:527   */\n      dup1\n        /* \"#utility.yul\":519:531   */\n      revert\n        /* \"#utility.yul\":470:533   */\n    tag_615:\n        /* \"#utility.yul\":417:539   */\n      pop\n      jump\t// out\n        /* \"#utility.yul\":545:684   */\n    tag_500:\n        /* \"#utility.yul\":591:596   */\n      0x00\n        /* \"#utility.yul\":629:635   */\n      dup2\n        /* \"#utility.yul\":616:636   */\n      calldataload\n        /* \"#utility.yul\":607:636   */\n      swap1\n      pop\n        /* \"#utility.yul\":645:678   */\n      tag_617\n        /* \"#utility.yul\":672:677   */\n      dup2\n        /* \"#utility.yul\":645:678   */\n      tag_499\n      jump\t// in\n    tag_617:\n        /* \"#utility.yul\":545:684   */\n      swap3\n      swap2\n      pop\n      pop\n      jump\t// out\n        /* \"#utility.yul\":690:1019   */\n    tag_45:\n        /* \"#utility.yul\":749:755   */\n      0x00\n        /* \"#utility.yul\":798:800   */\n      0x20\n        /* \"#utility.yul\":786:795   */\n      dup3\n        /* \"#utility.yul\":777:784   */\n      dup5\n        /* \"#utility.yul\":773:796   */\n      sub\n        /* \"#utility.yul\":769:801   */\n      slt\n        /* \"#utility.yul\":766:885   */\n      iszero\n      tag_619\n      jumpi\n        /* \"#utility.yul\":804:883   */\n      tag_620\n      tag_496\n      jump\t// in\n    tag_620:\n        /* \"#utility.yul\":766:885   */\n    tag_619:\n        /* \"#utility.yul\":924:925   */\n      0x00\n        /* \"#utility.yul\":949:1002   */\n      tag_621\n        /* \"#utility.yul\":994:1001   */\n      dup5\n        /* \"#utility.yul\":985:991   */\n      dup3\n        /* \"#utility.yul\":974:983   */\n      dup6\n        /* \"#utility.yul\":970:992   */\n      add\n        /* \"#utility.yul\":949:1002   */\n      tag_500\n      jump\t// in\n    tag_621:\n        /* \"#utility.yul\":939:1002   */\n      swap2\n      pop\n        /* \"#utility.yul\":895:1012   */\n      pop\n        /* \"#utility.yul\":690:1019   */\n      swap3\n      swap2\n      pop\n      pop\n      jump\t// out\n        /* \"#utility.yul\":1025:1151   */\n    tag_501:\n        /* \"#utility.yul\":1062:1069   */\n      0x00\n        /* \"#utility.yul\":1102:1144   */\n      0xffffffffffffffffffffffffffffffffffffffff\n        /* \"#utility.yul\":1095:1100   */\n      dup3\n        /* \"#utility.yul\":1091:1145   */\n      and\n        /* \"#utility.yul\":1080:1145   */\n      swap1\n      pop\n        /* \"#utility.yul\":1025:1151   */\n      swap2\n      swap1\n      pop\n      jump\t// out\n        /* \"#utility.yul\":1157:1253   */\n    tag_502:\n        /* \"#utility.yul\":1194:1201   */\n      0x00\n        /* \"#utility.yul\":1223:1247   */\n      tag_624\n        /* \"#utility.yul\":1241:1246   */\n      dup3\n        /* \"#utility.yul\":1223:1247   */\n      tag_501\n      jump\t// in\n    tag_624:\n        /* \"#utility.yul\":1212:1247   */\n      swap1\n      pop\n        /* \"#utility.yul\":1157:1253   */\n      swap2\n      swap1\n      pop\n      jump\t// out\n        /* \"#utility.yul\":1259:1381   */\n    tag_503:\n        /* \"#utility.yul\":1332:1356   */\n      tag_626\n        /* \"#utility.yul\":1350:1355   */\n      dup2\n        /* \"#utility.yul\":1332:1356   */\n      tag_502\n      jump\t// in\n    tag_626:\n        /* \"#utility.yul\":1325:1330   */\n      dup2\n        /* \"#utility.yul\":1322:1357   */\n      eq\n        /* \"#utility.yul\":1312:1375   */\n      tag_627\n      jumpi\n        /* \"#utility.yul\":1371:1372   */\n      0x00\n        /* \"#utility.yul\":1368:1369   */\n      dup1\n        /* \"#utility.yul\":1361:1373   */\n      revert\n        /* \"#utility.yul\":1312:1375   */\n    tag_627:\n        /* \"#utility.yul\":1259:1381   */\n      pop\n      jump\t// out\n        /* \"#utility.yul\":1387:1526   */\n    tag_504:\n        /* \"#utility.yul\":1433:1438   */\n      0x00\n        /* \"#utility.yul\":1471:1477   */\n      dup2\n        /* \"#utility.yul\":1458:1478   */\n      calldataload\n        /* \"#utility.yul\":1449:1478   */\n      swap1\n      pop\n        /* \"#utility.yul\":1487:1520   */\n      tag_629\n        /* \"#utility.yul\":1514:1519   */\n      dup2\n        /* \"#utility.yul\":1487:1520   */\n      tag_503\n      jump\t// in\n    tag_629:\n        /* \"#utility.yul\":1387:1526   */\n      swap3\n      swap2\n      pop\n      pop\n      jump\t// out\n        /* \"#utility.yul\":1532:2006   */\n    tag_50:\n        /* \"#utility.yul\":1600:1606   */\n      0x00\n        /* \"#utility.yul\":1608:1614   */\n      dup1\n        /* \"#utility.yul\":1657:1659   */\n      0x40\n        /* \"#utility.yul\":1645:1654   */\n      dup4\n        /* \"#utility.yul\":1636:1643   */\n      dup6\n        /* \"#utility.yul\":1632:1655   */\n      sub\n        /* \"#utility.yul\":1628:1660   */\n      slt\n        /* \"#utility.yul\":1625:1744   */\n      iszero\n      tag_631\n      jumpi\n        /* \"#utility.yul\":1663:1742   */\n      tag_632\n      tag_496\n      jump\t// in\n    tag_632:\n        /* \"#utility.yul\":1625:1744   */\n    tag_631:\n        /* \"#utility.yul\":1783:1784   */\n      0x00\n        /* \"#utility.yul\":1808:1861   */\n      tag_633\n        /* \"#utility.yul\":1853:1860   */\n      dup6\n        /* \"#utility.yul\":1844:1850   */\n      dup3\n        /* \"#utility.yul\":1833:1842   */\n      dup7\n        /* \"#utility.yul\":1829:1851   */\n      add\n        /* \"#utility.yul\":1808:1861   */\n      tag_504\n      jump\t// in\n    tag_633:\n        /* \"#utility.yul\":1798:1861   */\n      swap3\n      pop\n        /* \"#utility.yul\":1754:1871   */\n      pop\n        /* \"#utility.yul\":1910:1912   */\n      0x20\n        /* \"#utility.yul\":1936:1989   */\n      tag_634\n        /* \"#utility.yul\":1981:1988   */\n      dup6\n        /* \"#utility.yul\":1972:1978   */\n      dup3\n        /* \"#utility.yul\":1961:1970   */\n      dup7\n        /* \"#utility.yul\":1957:1979   */\n      add\n        /* \"#utility.yul\":1936:1989   */\n      tag_500\n      jump\t// in\n    tag_634:\n        /* \"#utility.yul\":1926:1989   */\n      swap2\n      pop\n        /* \"#utility.yul\":1881:1999   */\n      pop\n        /* \"#utility.yul\":1532:2006   */\n      swap3\n      pop\n      swap3\n      swap1\n      pop\n      jump\t// out\n        /* \"#utility.yul\":2012:2102   */\n    tag_505:\n        /* \"#utility.yul\":2046:2053   */\n      0x00\n        /* \"#utility.yul\":2089:2094   */\n      dup2\n        /* \"#utility.yul\":2082:2095   */\n      iszero\n        /* \"#utility.yul\":2075:2096   */\n      iszero\n        /* \"#utility.yul\":2064:2096   */\n      swap1\n      pop\n        /* \"#utility.yul\":2012:2102   */\n      swap2\n      swap1\n      pop\n      jump\t// out\n        /* \"#utility.yul\":2108:2217   */\n    tag_506:\n        /* \"#utility.yul\":2189:2210   */\n      tag_637\n        /* \"#utility.yul\":2204:2209   */\n      dup2\n        /* \"#utility.yul\":2189:2210   */\n      tag_505\n      jump\t// in\n    tag_637:\n        /* \"#utility.yul\":2184:2187   */\n      dup3\n        /* \"#utility.yul\":2177:2211   */\n      mstore\n        /* \"#utility.yul\":2108:2217   */\n      pop\n      pop\n      jump\t// out\n        /* \"#utility.yul\":2223:2309   */\n    tag_507:\n        /* \"#utility.yul\":2258:2265   */\n      0x00\n        /* \"#utility.yul\":2298:2302   */\n      0xff\n        /* \"#utility.yul\":2291:2296   */\n      dup3\n        /* \"#utility.yul\":2287:2303   */\n      and\n        /* \"#utility.yul\":2276:2303   */\n      swap1\n      pop\n        /* \"#utility.yul\":2223:2309   */\n      swap2\n      swap1\n      pop\n      jump\t// out\n        /* \"#utility.yul\":2315:2427   */\n    tag_508:\n        /* \"#utility.yul\":2398:2420   */\n      tag_640\n        /* \"#utility.yul\":2414:2419   */\n      dup2\n        /* \"#utility.yul\":2398:2420   */\n      tag_507\n      jump\t// in\n    tag_640:\n        /* \"#utility.yul\":2393:2396   */\n      dup3\n        /* \"#utility.yul\":2386:2421   */\n      mstore\n        /* \"#utility.yul\":2315:2427   */\n      pop\n      pop\n      jump\t// out\n        /* \"#utility.yul\":2433:2942   */\n    tag_53:\n        /* \"#utility.yul\":2588:2592   */\n      0x00\n        /* \"#utility.yul\":2626:2629   */\n      0x80\n        /* \"#utility.yul\":2615:2624   */\n      dup3\n        /* \"#utility.yul\":2611:2630   */\n      add\n        /* \"#utility.yul\":2603:2630   */\n      swap1\n      pop\n        /* \"#utility.yul\":2640:2705   */\n      tag_642\n        /* \"#utility.yul\":2702:2703   */\n      0x00\n        /* \"#utility.yul\":2691:2700   */\n      dup4\n        /* \"#utility.yul\":2687:2704   */\n      add\n        /* \"#utility.yul\":2678:2684   */\n      dup8\n        /* \"#utility.yul\":2640:2705   */\n      tag_506\n      jump\t// in\n    tag_642:\n        /* \"#utility.yul\":2715:2783   */\n      tag_643\n        /* \"#utility.yul\":2779:2781   */\n      0x20\n        /* \"#utility.yul\":2768:2777   */\n      dup4\n        /* \"#utility.yul\":2764:2782   */\n      add\n        /* \"#utility.yul\":2755:2761   */\n      dup7\n        /* \"#utility.yul\":2715:2783   */\n      tag_508\n      jump\t// in\n    tag_643:\n        /* \"#utility.yul\":2793:2859   */\n      tag_644\n        /* \"#utility.yul\":2855:2857   */\n      0x40\n        /* \"#utility.yul\":2844:2853   */\n      dup4\n        /* \"#utility.yul\":2840:2858   */\n      add\n        /* \"#utility.yul\":2831:2837   */\n      dup6\n        /* \"#utility.yul\":2793:2859   */\n      tag_506\n      jump\t// in\n    tag_644:\n        /* \"#utility.yul\":2869:2935   */\n      tag_645\n        /* \"#utility.yul\":2931:2933   */\n      0x60\n        /* \"#utility.yul\":2920:2929   */\n      dup4\n        /* \"#utility.yul\":2916:2934   */\n      add\n        /* \"#utility.yul\":2907:2913   */\n      dup5\n        /* \"#utility.yul\":2869:2935   */\n      tag_506\n      jump\t// in\n    tag_645:\n        /* \"#utility.yul\":2433:2942   */\n      swap6\n      swap5\n      pop\n      pop\n      pop\n      pop\n      pop\n      jump\t// out\n        /* \"#utility.yul\":2948:3066   */\n    tag_509:\n        /* \"#utility.yul\":3035:3059   */\n      tag_647\n        /* \"#utility.yul\":3053:3058   */\n      dup2\n        /* \"#utility.yul\":3035:3059   */\n      tag_498\n      jump\t// in\n    tag_647:\n        /* \"#utility.yul\":3030:3033   */\n      dup3\n        /* \"#utility.yul\":3023:3060   */\n      mstore\n        /* \"#utility.yul\":2948:3066   */\n      pop\n      pop\n      jump\t// out\n        /* \"#utility.yul\":3072:3294   */\n    tag_65:\n        /* \"#utility.yul\":3165:3169   */\n      0x00\n        /* \"#utility.yul\":3203:3205   */\n      0x20\n        /* \"#utility.yul\":3192:3201   */\n      dup3\n        /* \"#utility.yul\":3188:3206   */\n      add\n        /* \"#utility.yul\":3180:3206   */\n      swap1\n      pop\n        /* \"#utility.yul\":3216:3287   */\n      tag_649\n        /* \"#utility.yul\":3284:3285   */\n      0x00\n        /* \"#utility.yul\":3273:3282   */\n      dup4\n        /* \"#utility.yul\":3269:3286   */\n      add\n        /* \"#utility.yul\":3260:3266   */\n      dup5\n        /* \"#utility.yul\":3216:3287   */\n      tag_509\n      jump\t// in\n    tag_649:\n        /* \"#utility.yul\":3072:3294   */\n      swap3\n      swap2\n      pop\n      pop\n      jump\t// out\n        /* \"#utility.yul\":3300:3510   */\n    tag_81:\n        /* \"#utility.yul\":3387:3391   */\n      0x00\n        /* \"#utility.yul\":3425:3427   */\n      0x20\n        /* \"#utility.yul\":3414:3423   */\n      dup3\n        /* \"#utility.yul\":3410:3428   */\n      add\n        /* \"#utility.yul\":3402:3428   */\n      swap1\n      pop\n        /* \"#utility.yul\":3438:3503   */\n      tag_651\n        /* \"#utility.yul\":3500:3501   */\n      0x00\n        /* \"#utility.yul\":3489:3498   */\n      dup4\n        /* \"#utility.yul\":3485:3502   */\n      add\n        /* \"#utility.yul\":3476:3482   */\n      dup5\n        /* \"#utility.yul\":3438:3503   */\n      tag_506\n      jump\t// in\n    tag_651:\n        /* \"#utility.yul\":3300:3510   */\n      swap3\n      swap2\n      pop\n      pop\n      jump\t// out\n        /* \"#utility.yul\":3516:3633   */\n    tag_510:\n        /* \"#utility.yul\":3625:3626   */\n      0x00\n        /* \"#utility.yul\":3622:3623   */\n      dup1\n        /* \"#utility.yul\":3615:3627   */\n      revert\n        /* \"#utility.yul\":3639:3741   */\n    tag_511:\n        /* \"#utility.yul\":3680:3686   */\n      0x00\n        /* \"#utility.yul\":3731:3733   */\n      0x1f\n        /* \"#utility.yul\":3727:3734   */\n      not\n        /* \"#utility.yul\":3722:3724   */\n      0x1f\n        /* \"#utility.yul\":3715:3720   */\n      dup4\n        /* \"#utility.yul\":3711:3725   */\n      add\n        /* \"#utility.yul\":3707:3735   */\n      and\n        /* \"#utility.yul\":3697:3735   */\n      swap1\n      pop\n        /* \"#utility.yul\":3639:3741   */\n      swap2\n      swap1\n      pop\n      jump\t// out\n        /* \"#utility.yul\":3747:3927   */\n    tag_512:\n        /* \"#utility.yul\":3795:3872   */\n      0x4e487b7100000000000000000000000000000000000000000000000000000000\n        /* \"#utility.yul\":3792:3793   */\n      0x00\n        /* \"#utility.yul\":3785:3873   */\n      mstore\n        /* \"#utility.yul\":3892:3896   */\n      0x41\n        /* \"#utility.yul\":3889:3890   */\n      0x04\n        /* \"#utility.yul\":3882:3897   */\n      mstore\n        /* \"#utility.yul\":3916:3920   */\n      0x24\n        /* \"#utility.yul\":3913:3914   */\n      0x00\n        /* \"#utility.yul\":3906:3921   */\n      revert\n        /* \"#utility.yul\":3933:4214   */\n    tag_513:\n        /* \"#utility.yul\":4016:4043   */\n      tag_656\n        /* \"#utility.yul\":4038:4042   */\n      dup3\n        /* \"#utility.yul\":4016:4043   */\n      tag_511\n      jump\t// in\n    tag_656:\n        /* \"#utility.yul\":4008:4014   */\n      dup2\n        /* \"#utility.yul\":4004:4044   */\n      add\n        /* \"#utility.yul\":4146:4152   */\n      dup2\n        /* \"#utility.yul\":4134:4144   */\n      dup2\n        /* \"#utility.yul\":4131:4153   */\n      lt\n        /* \"#utility.yul\":4110:4128   */\n      0xffffffffffffffff\n        /* \"#utility.yul\":4098:4108   */\n      dup3\n        /* \"#utility.yul\":4095:4129   */\n      gt\n        /* \"#utility.yul\":4092:4154   */\n      or\n        /* \"#utility.yul\":4089:4177   */\n      iszero\n      tag_657\n      jumpi\n        /* \"#utility.yul\":4157:4175   */\n      tag_658\n      tag_512\n      jump\t// in\n    tag_658:\n        /* \"#utility.yul\":4089:4177   */\n    tag_657:\n        /* \"#utility.yul\":4197:4207   */\n      dup1\n        /* \"#utility.yul\":4193:4195   */\n      0x40\n        /* \"#utility.yul\":4186:4208   */\n      mstore\n        /* \"#utility.yul\":3976:4214   */\n      pop\n        /* \"#utility.yul\":3933:4214   */\n      pop\n      pop\n      jump\t// out\n        /* \"#utility.yul\":4220:4349   */\n    tag_514:\n        /* \"#utility.yul\":4254:4260   */\n      0x00\n        /* \"#utility.yul\":4281:4301   */\n      tag_660\n      tag_495\n      jump\t// in\n    tag_660:\n        /* \"#utility.yul\":4271:4301   */\n      swap1\n      pop\n        /* \"#utility.yul\":4310:4343   */\n      tag_661\n        /* \"#utility.yul\":4338:4342   */\n      dup3\n        /* \"#utility.yul\":4330:4336   */\n      dup3\n        /* \"#utility.yul\":4310:4343   */\n      tag_513\n      jump\t// in\n    tag_661:\n        /* \"#utility.yul\":4220:4349   */\n      swap2\n      swap1\n      pop\n      jump\t// out\n        /* \"#utility.yul\":4355:4676   */\n    tag_515:\n        /* \"#utility.yul\":4442:4446   */\n      0x00\n        /* \"#utility.yul\":4532:4550   */\n      0xffffffffffffffff\n        /* \"#utility.yul\":4524:4530   */\n      dup3\n        /* \"#utility.yul\":4521:4551   */\n      gt\n        /* \"#utility.yul\":4518:4574   */\n      iszero\n      tag_663\n      jumpi\n        /* \"#utility.yul\":4554:4572   */\n      tag_664\n      tag_512\n      jump\t// in\n    tag_664:\n        /* \"#utility.yul\":4518:4574   */\n    tag_663:\n        /* \"#utility.yul\":4604:4608   */\n      0x20\n        /* \"#utility.yul\":4596:4602   */\n      dup3\n        /* \"#utility.yul\":4592:4609   */\n      mul\n        /* \"#utility.yul\":4584:4609   */\n      swap1\n      pop\n        /* \"#utility.yul\":4664:4668   */\n      0x20\n        /* \"#utility.yul\":4658:4662   */\n      dup2\n        /* \"#utility.yul\":4654:4669   */\n      add\n        /* \"#utility.yul\":4646:4669   */\n      swap1\n      pop\n        /* \"#utility.yul\":4355:4676   */\n      swap2\n      swap1\n      pop\n      jump\t// out\n        /* \"#utility.yul\":4682:4799   */\n    tag_516:\n        /* \"#utility.yul\":4791:4792   */\n      0x00\n        /* \"#utility.yul\":4788:4789   */\n      dup1\n        /* \"#utility.yul\":4781:4793   */\n      revert\n        /* \"#utility.yul\":4805:4922   */\n    tag_517:\n        /* \"#utility.yul\":4914:4915   */\n      0x00\n        /* \"#utility.yul\":4911:4912   */\n      dup1\n        /* \"#utility.yul\":4904:4916   */\n      revert\n        /* \"#utility.yul\":4928:5236   */\n    tag_518:\n        /* \"#utility.yul\":4990:4994   */\n      0x00\n        /* \"#utility.yul\":5080:5098   */\n      0xffffffffffffffff\n        /* \"#utility.yul\":5072:5078   */\n      dup3\n        /* \"#utility.yul\":5069:5099   */\n      gt\n        /* \"#utility.yul\":5066:5122   */\n      iszero\n      tag_668\n      jumpi\n        /* \"#utility.yul\":5102:5120   */\n      tag_669\n      tag_512\n      jump\t// in\n    tag_669:\n        /* \"#utility.yul\":5066:5122   */\n    tag_668:\n        /* \"#utility.yul\":5140:5169   */\n      tag_670\n        /* \"#utility.yul\":5162:5168   */\n      dup3\n        /* \"#utility.yul\":5140:5169   */\n      tag_511\n      jump\t// in\n    tag_670:\n        /* \"#utility.yul\":5132:5169   */\n      swap1\n      pop\n        /* \"#utility.yul\":5224:5228   */\n      0x20\n        /* \"#utility.yul\":5218:5222   */\n      dup2\n        /* \"#utility.yul\":5214:5229   */\n      add\n        /* \"#utility.yul\":5206:5229   */\n      swap1\n      pop\n        /* \"#utility.yul\":4928:5236   */\n      swap2\n      swap1\n      pop\n      jump\t// out\n        /* \"#utility.yul\":5242:5390   */\n    tag_519:\n        /* \"#utility.yul\":5340:5346   */\n      dup3\n        /* \"#utility.yul\":5335:5338   */\n      dup2\n        /* \"#utility.yul\":5330:5333   */\n      dup4\n        /* \"#utility.yul\":5317:5347   */\n      calldatacopy\n        /* \"#utility.yul\":5381:5382   */\n      0x00\n        /* \"#utility.yul\":5372:5378   */\n      dup4\n        /* \"#utility.yul\":5367:5370   */\n      dup4\n        /* \"#utility.yul\":5363:5379   */\n      add\n        /* \"#utility.yul\":5356:5383   */\n      mstore\n        /* \"#utility.yul\":5242:5390   */\n      pop\n      pop\n      pop\n      jump\t// out\n        /* \"#utility.yul\":5396:5821   */\n    tag_520:\n        /* \"#utility.yul\":5474:5479   */\n      0x00\n        /* \"#utility.yul\":5499:5565   */\n      tag_673\n        /* \"#utility.yul\":5515:5564   */\n      tag_674\n        /* \"#utility.yul\":5557:5563   */\n      dup5\n        /* \"#utility.yul\":5515:5564   */\n      tag_518\n      jump\t// in\n    tag_674:\n        /* \"#utility.yul\":5499:5565   */\n      tag_514\n      jump\t// in\n    tag_673:\n        /* \"#utility.yul\":5490:5565   */\n      swap1\n      pop\n        /* \"#utility.yul\":5588:5594   */\n      dup3\n        /* \"#utility.yul\":5581:5586   */\n      dup2\n        /* \"#utility.yul\":5574:5595   */\n      mstore\n        /* \"#utility.yul\":5626:5630   */\n      0x20\n        /* \"#utility.yul\":5619:5624   */\n      dup2\n        /* \"#utility.yul\":5615:5631   */\n      add\n        /* \"#utility.yul\":5664:5667   */\n      dup5\n        /* \"#utility.yul\":5655:5661   */\n      dup5\n        /* \"#utility.yul\":5650:5653   */\n      dup5\n        /* \"#utility.yul\":5646:5662   */\n      add\n        /* \"#utility.yul\":5643:5668   */\n      gt\n        /* \"#utility.yul\":5640:5752   */\n      iszero\n      tag_675\n      jumpi\n        /* \"#utility.yul\":5671:5750   */\n      tag_676\n      tag_517\n      jump\t// in\n    tag_676:\n        /* \"#utility.yul\":5640:5752   */\n    tag_675:\n        /* \"#utility.yul\":5761:5815   */\n      tag_677\n        /* \"#utility.yul\":5808:5814   */\n      dup5\n        /* \"#utility.yul\":5803:5806   */\n      dup3\n        /* \"#utility.yul\":5798:5801   */\n      dup6\n        /* \"#utility.yul\":5761:5815   */\n      tag_519\n      jump\t// in\n    tag_677:\n        /* \"#utility.yul\":5480:5821   */\n      pop\n        /* \"#utility.yul\":5396:5821   */\n      swap4\n      swap3\n      pop\n      pop\n      pop\n      jump\t// out\n        /* \"#utility.yul\":5841:6181   */\n    tag_521:\n        /* \"#utility.yul\":5897:5902   */\n      0x00\n        /* \"#utility.yul\":5946:5949   */\n      dup3\n        /* \"#utility.yul\":5939:5943   */\n      0x1f\n        /* \"#utility.yul\":5931:5937   */\n      dup4\n        /* \"#utility.yul\":5927:5944   */\n      add\n        /* \"#utility.yul\":5923:5950   */\n      slt\n        /* \"#utility.yul\":5913:6035   */\n      tag_679\n      jumpi\n        /* \"#utility.yul\":5954:6033   */\n      tag_680\n      tag_510\n      jump\t// in\n    tag_680:\n        /* \"#utility.yul\":5913:6035   */\n    tag_679:\n        /* \"#utility.yul\":6071:6077   */\n      dup2\n        /* \"#utility.yul\":6058:6078   */\n      calldataload\n        /* \"#utility.yul\":6096:6175   */\n      tag_681\n        /* \"#utility.yul\":6171:6174   */\n      dup5\n        /* \"#utility.yul\":6163:6169   */\n      dup3\n        /* \"#utility.yul\":6156:6160   */\n      0x20\n        /* \"#utility.yul\":6148:6154   */\n      dup7\n        /* \"#utility.yul\":6144:6161   */\n      add\n        /* \"#utility.yul\":6096:6175   */\n      tag_520\n      jump\t// in\n    tag_681:\n        /* \"#utility.yul\":6087:6175   */\n      swap2\n      pop\n        /* \"#utility.yul\":5903:6181   */\n      pop\n        /* \"#utility.yul\":5841:6181   */\n      swap3\n      swap2\n      pop\n      pop\n      jump\t// out\n        /* \"#utility.yul\":6203:7148   */\n    tag_522:\n        /* \"#utility.yul\":6309:6314   */\n      0x00\n        /* \"#utility.yul\":6334:6425   */\n      tag_683\n        /* \"#utility.yul\":6350:6424   */\n      tag_684\n        /* \"#utility.yul\":6417:6423   */\n      dup5\n        /* \"#utility.yul\":6350:6424   */\n      tag_515\n      jump\t// in\n    tag_684:\n        /* \"#utility.yul\":6334:6425   */\n      tag_514\n      jump\t// in\n    tag_683:\n        /* \"#utility.yul\":6325:6425   */\n      swap1\n      pop\n        /* \"#utility.yul\":6445:6450   */\n      dup1\n        /* \"#utility.yul\":6474:6480   */\n      dup4\n        /* \"#utility.yul\":6467:6472   */\n      dup3\n        /* \"#utility.yul\":6460:6481   */\n      mstore\n        /* \"#utility.yul\":6508:6512   */\n      0x20\n        /* \"#utility.yul\":6501:6506   */\n      dup3\n        /* \"#utility.yul\":6497:6513   */\n      add\n        /* \"#utility.yul\":6490:6513   */\n      swap1\n      pop\n        /* \"#utility.yul\":6561:6565   */\n      0x20\n        /* \"#utility.yul\":6553:6559   */\n      dup5\n        /* \"#utility.yul\":6549:6566   */\n      mul\n        /* \"#utility.yul\":6541:6547   */\n      dup4\n        /* \"#utility.yul\":6537:6567   */\n      add\n        /* \"#utility.yul\":6590:6593   */\n      dup6\n        /* \"#utility.yul\":6582:6588   */\n      dup2\n        /* \"#utility.yul\":6579:6594   */\n      gt\n        /* \"#utility.yul\":6576:6698   */\n      iszero\n      tag_685\n      jumpi\n        /* \"#utility.yul\":6609:6688   */\n      tag_686\n      tag_516\n      jump\t// in\n    tag_686:\n        /* \"#utility.yul\":6576:6698   */\n    tag_685:\n        /* \"#utility.yul\":6724:6730   */\n      dup4\n        /* \"#utility.yul\":6707:7142   */\n    tag_687:\n        /* \"#utility.yul\":6741:6747   */\n      dup2\n        /* \"#utility.yul\":6736:6739   */\n      dup2\n        /* \"#utility.yul\":6733:6748   */\n      lt\n        /* \"#utility.yul\":6707:7142   */\n      iszero\n      tag_689\n      jumpi\n        /* \"#utility.yul\":6830:6833   */\n      dup1\n        /* \"#utility.yul\":6817:6834   */\n      calldataload\n        /* \"#utility.yul\":6866:6884   */\n      0xffffffffffffffff\n        /* \"#utility.yul\":6853:6864   */\n      dup2\n        /* \"#utility.yul\":6850:6885   */\n      gt\n        /* \"#utility.yul\":6847:6969   */\n      iszero\n      tag_690\n      jumpi\n        /* \"#utility.yul\":6888:6967   */\n      tag_691\n      tag_510\n      jump\t// in\n    tag_691:\n        /* \"#utility.yul\":6847:6969   */\n    tag_690:\n        /* \"#utility.yul\":7012:7023   */\n      dup1\n        /* \"#utility.yul\":7004:7010   */\n      dup7\n        /* \"#utility.yul\":7000:7024   */\n      add\n        /* \"#utility.yul\":7050:7097   */\n      tag_692\n        /* \"#utility.yul\":7093:7096   */\n      dup10\n        /* \"#utility.yul\":7081:7091   */\n      dup3\n        /* \"#utility.yul\":7050:7097   */\n      tag_521\n      jump\t// in\n    tag_692:\n        /* \"#utility.yul\":7045:7048   */\n      dup6\n        /* \"#utility.yul\":7038:7098   */\n      mstore\n        /* \"#utility.yul\":7127:7131   */\n      0x20\n        /* \"#utility.yul\":7122:7125   */\n      dup6\n        /* \"#utility.yul\":7118:7132   */\n      add\n        /* \"#utility.yul\":7111:7132   */\n      swap5\n      pop\n        /* \"#utility.yul\":6783:7142   */\n      pop\n      pop\n        /* \"#utility.yul\":6767:6771   */\n      0x20\n        /* \"#utility.yul\":6762:6765   */\n      dup2\n        /* \"#utility.yul\":6758:6772   */\n      add\n        /* \"#utility.yul\":6751:6772   */\n      swap1\n      pop\n        /* \"#utility.yul\":6707:7142   */\n      jump(tag_687)\n    tag_689:\n        /* \"#utility.yul\":6711:6732   */\n      pop\n        /* \"#utility.yul\":6315:7148   */\n      pop\n      pop\n        /* \"#utility.yul\":6203:7148   */\n      swap4\n      swap3\n      pop\n      pop\n      pop\n      jump\t// out\n        /* \"#utility.yul\":7170:7560   */\n    tag_523:\n        /* \"#utility.yul\":7251:7256   */\n      0x00\n        /* \"#utility.yul\":7300:7303   */\n      dup3\n        /* \"#utility.yul\":7293:7297   */\n      0x1f\n        /* \"#utility.yul\":7285:7291   */\n      dup4\n        /* \"#utility.yul\":7281:7298   */\n      add\n        /* \"#utility.yul\":7277:7304   */\n      slt\n        /* \"#utility.yul\":7267:7389   */\n      tag_694\n      jumpi\n        /* \"#utility.yul\":7308:7387   */\n      tag_695\n      tag_510\n      jump\t// in\n    tag_695:\n        /* \"#utility.yul\":7267:7389   */\n    tag_694:\n        /* \"#utility.yul\":7425:7431   */\n      dup2\n        /* \"#utility.yul\":7412:7432   */\n      calldataload\n        /* \"#utility.yul\":7450:7554   */\n      tag_696\n        /* \"#utility.yul\":7550:7553   */\n      dup5\n        /* \"#utility.yul\":7542:7548   */\n      dup3\n        /* \"#utility.yul\":7535:7539   */\n      0x20\n        /* \"#utility.yul\":7527:7533   */\n      dup7\n        /* \"#utility.yul\":7523:7540   */\n      add\n        /* \"#utility.yul\":7450:7554   */\n      tag_522\n      jump\t// in\n    tag_696:\n        /* \"#utility.yul\":7441:7554   */\n      swap2\n      pop\n        /* \"#utility.yul\":7257:7560   */\n      pop\n        /* \"#utility.yul\":7170:7560   */\n      swap3\n      swap2\n      pop\n      pop\n      jump\t// out\n        /* \"#utility.yul\":7566:8270   */\n    tag_84:\n        /* \"#utility.yul\":7669:7675   */\n      0x00\n        /* \"#utility.yul\":7677:7683   */\n      dup1\n        /* \"#utility.yul\":7726:7728   */\n      0x40\n        /* \"#utility.yul\":7714:7723   */\n      dup4\n        /* \"#utility.yul\":7705:7712   */\n      dup6\n        /* \"#utility.yul\":7701:7724   */\n      sub\n        /* \"#utility.yul\":7697:7729   */\n      slt\n        /* \"#utility.yul\":7694:7813   */\n      iszero\n      tag_698\n      jumpi\n        /* \"#utility.yul\":7732:7811   */\n      tag_699\n      tag_496\n      jump\t// in\n    tag_699:\n        /* \"#utility.yul\":7694:7813   */\n    tag_698:\n        /* \"#utility.yul\":7852:7853   */\n      0x00\n        /* \"#utility.yul\":7877:7930   */\n      tag_700\n        /* \"#utility.yul\":7922:7929   */\n      dup6\n        /* \"#utility.yul\":7913:7919   */\n      dup3\n        /* \"#utility.yul\":7902:7911   */\n      dup7\n        /* \"#utility.yul\":7898:7920   */\n      add\n        /* \"#utility.yul\":7877:7930   */\n      tag_500\n      jump\t// in\n    tag_700:\n        /* \"#utility.yul\":7867:7930   */\n      swap3\n      pop\n        /* \"#utility.yul\":7823:7940   */\n      pop\n        /* \"#utility.yul\":8007:8009   */\n      0x20\n        /* \"#utility.yul\":7996:8005   */\n      dup4\n        /* \"#utility.yul\":7992:8010   */\n      add\n        /* \"#utility.yul\":7979:8011   */\n      calldataload\n        /* \"#utility.yul\":8038:8056   */\n      0xffffffffffffffff\n        /* \"#utility.yul\":8030:8036   */\n      dup2\n        /* \"#utility.yul\":8027:8057   */\n      gt\n        /* \"#utility.yul\":8024:8141   */\n      iszero\n      tag_701\n      jumpi\n        /* \"#utility.yul\":8060:8139   */\n      tag_702\n      tag_497\n      jump\t// in\n    tag_702:\n        /* \"#utility.yul\":8024:8141   */\n    tag_701:\n        /* \"#utility.yul\":8165:8253   */\n      tag_703\n        /* \"#utility.yul\":8245:8252   */\n      dup6\n        /* \"#utility.yul\":8236:8242   */\n      dup3\n        /* \"#utility.yul\":8225:8234   */\n      dup7\n        /* \"#utility.yul\":8221:8243   */\n      add\n        /* \"#utility.yul\":8165:8253   */\n      tag_523\n      jump\t// in\n    tag_703:\n        /* \"#utility.yul\":8155:8253   */\n      swap2\n      pop\n        /* \"#utility.yul\":7950:8263   */\n      pop\n        /* \"#utility.yul\":7566:8270   */\n      swap3\n      pop\n      swap3\n      swap1\n      pop\n      jump\t// out\n        /* \"#utility.yul\":8276:11039   */\n    tag_102:\n        /* \"#utility.yul\":8609:8615   */\n      0x00\n        /* \"#utility.yul\":8617:8623   */\n      dup1\n        /* \"#utility.yul\":8625:8631   */\n      0x00\n        /* \"#utility.yul\":8633:8639   */\n      dup1\n        /* \"#utility.yul\":8641:8647   */\n      0x00\n        /* \"#utility.yul\":8649:8655   */\n      dup1\n        /* \"#utility.yul\":8657:8663   */\n      0x00\n        /* \"#utility.yul\":8706:8709   */\n      0xe0\n        /* \"#utility.yul\":8694:8703   */\n      dup9\n        /* \"#utility.yul\":8685:8692   */\n      dup11\n        /* \"#utility.yul\":8681:8704   */\n      sub\n        /* \"#utility.yul\":8677:8710   */\n      slt\n        /* \"#utility.yul\":8674:8794   */\n      iszero\n      tag_705\n      jumpi\n        /* \"#utility.yul\":8713:8792   */\n      tag_706\n      tag_496\n      jump\t// in\n    tag_706:\n        /* \"#utility.yul\":8674:8794   */\n    tag_705:\n        /* \"#utility.yul\":8861:8862   */\n      0x00\n        /* \"#utility.yul\":8850:8859   */\n      dup9\n        /* \"#utility.yul\":8846:8863   */\n      add\n        /* \"#utility.yul\":8833:8864   */\n      calldataload\n        /* \"#utility.yul\":8891:8909   */\n      0xffffffffffffffff\n        /* \"#utility.yul\":8883:8889   */\n      dup2\n        /* \"#utility.yul\":8880:8910   */\n      gt\n        /* \"#utility.yul\":8877:8994   */\n      iszero\n      tag_707\n      jumpi\n        /* \"#utility.yul\":8913:8992   */\n      tag_708\n      tag_497\n      jump\t// in\n    tag_708:\n        /* \"#utility.yul\":8877:8994   */\n    tag_707:\n        /* \"#utility.yul\":9018:9081   */\n      tag_709\n        /* \"#utility.yul\":9073:9080   */\n      dup11\n        /* \"#utility.yul\":9064:9070   */\n      dup3\n        /* \"#utility.yul\":9053:9062   */\n      dup12\n        /* \"#utility.yul\":9049:9071   */\n      add\n        /* \"#utility.yul\":9018:9081   */\n      tag_521\n      jump\t// in\n    tag_709:\n        /* \"#utility.yul\":9008:9081   */\n      swap8\n      pop\n        /* \"#utility.yul\":8804:9091   */\n      pop\n        /* \"#utility.yul\":9158:9160   */\n      0x20\n        /* \"#utility.yul\":9147:9156   */\n      dup9\n        /* \"#utility.yul\":9143:9161   */\n      add\n        /* \"#utility.yul\":9130:9162   */\n      calldataload\n        /* \"#utility.yul\":9189:9207   */\n      0xffffffffffffffff\n        /* \"#utility.yul\":9181:9187   */\n      dup2\n        /* \"#utility.yul\":9178:9208   */\n      gt\n        /* \"#utility.yul\":9175:9292   */\n      iszero\n      tag_710\n      jumpi\n        /* \"#utility.yul\":9211:9290   */\n      tag_711\n      tag_497\n      jump\t// in\n    tag_711:\n        /* \"#utility.yul\":9175:9292   */\n    tag_710:\n        /* \"#utility.yul\":9316:9404   */\n      tag_712\n        /* \"#utility.yul\":9396:9403   */\n      dup11\n        /* \"#utility.yul\":9387:9393   */\n      dup3\n        /* \"#utility.yul\":9376:9385   */\n      dup12\n        /* \"#utility.yul\":9372:9394   */\n      add\n        /* \"#utility.yul\":9316:9404   */\n      tag_523\n      jump\t// in\n    tag_712:\n        /* \"#utility.yul\":9306:9404   */\n      swap7\n      pop\n        /* \"#utility.yul\":9101:9414   */\n      pop\n        /* \"#utility.yul\":9481:9483   */\n      0x40\n        /* \"#utility.yul\":9470:9479   */\n      dup9\n        /* \"#utility.yul\":9466:9484   */\n      add\n        /* \"#utility.yul\":9453:9485   */\n      calldataload\n        /* \"#utility.yul\":9512:9530   */\n      0xffffffffffffffff\n        /* \"#utility.yul\":9504:9510   */\n      dup2\n        /* \"#utility.yul\":9501:9531   */\n      gt\n        /* \"#utility.yul\":9498:9615   */\n      iszero\n      tag_713\n      jumpi\n        /* \"#utility.yul\":9534:9613   */\n      tag_714\n      tag_497\n      jump\t// in\n    tag_714:\n        /* \"#utility.yul\":9498:9615   */\n    tag_713:\n        /* \"#utility.yul\":9639:9727   */\n      tag_715\n        /* \"#utility.yul\":9719:9726   */\n      dup11\n        /* \"#utility.yul\":9710:9716   */\n      dup3\n        /* \"#utility.yul\":9699:9708   */\n      dup12\n        /* \"#utility.yul\":9695:9717   */\n      add\n        /* \"#utility.yul\":9639:9727   */\n      tag_523\n      jump\t// in\n    tag_715:\n        /* \"#utility.yul\":9629:9727   */\n      swap6\n      pop\n        /* \"#utility.yul\":9424:9737   */\n      pop\n        /* \"#utility.yul\":9804:9806   */\n      0x60\n        /* \"#utility.yul\":9793:9802   */\n      dup9\n        /* \"#utility.yul\":9789:9807   */\n      add\n        /* \"#utility.yul\":9776:9808   */\n      calldataload\n        /* \"#utility.yul\":9835:9853   */\n      0xffffffffffffffff\n        /* \"#utility.yul\":9827:9833   */\n      dup2\n        /* \"#utility.yul\":9824:9854   */\n      gt\n        /* \"#utility.yul\":9821:9938   */\n      iszero\n      tag_716\n      jumpi\n        /* \"#utility.yul\":9857:9936   */\n      tag_717\n      tag_497\n      jump\t// in\n    tag_717:\n        /* \"#utility.yul\":9821:9938   */\n    tag_716:\n        /* \"#utility.yul\":9962:10050   */\n      tag_718\n        /* \"#utility.yul\":10042:10049   */\n      dup11\n        /* \"#utility.yul\":10033:10039   */\n      dup3\n        /* \"#utility.yul\":10022:10031   */\n      dup12\n        /* \"#utility.yul\":10018:10040   */\n      add\n        /* \"#utility.yul\":9962:10050   */\n      tag_523\n      jump\t// in\n    tag_718:\n        /* \"#utility.yul\":9952:10050   */\n      swap5\n      pop\n        /* \"#utility.yul\":9747:10060   */\n      pop\n        /* \"#utility.yul\":10127:10130   */\n      0x80\n        /* \"#utility.yul\":10116:10125   */\n      dup9\n        /* \"#utility.yul\":10112:10131   */\n      add\n        /* \"#utility.yul\":10099:10132   */\n      calldataload\n        /* \"#utility.yul\":10159:10177   */\n      0xffffffffffffffff\n        /* \"#utility.yul\":10151:10157   */\n      dup2\n        /* \"#utility.yul\":10148:10178   */\n      gt\n        /* \"#utility.yul\":10145:10262   */\n      iszero\n      tag_719\n      jumpi\n        /* \"#utility.yul\":10181:10260   */\n      tag_720\n      tag_497\n      jump\t// in\n    tag_720:\n        /* \"#utility.yul\":10145:10262   */\n    tag_719:\n        /* \"#utility.yul\":10286:10374   */\n      tag_721\n        /* \"#utility.yul\":10366:10373   */\n      dup11\n        /* \"#utility.yul\":10357:10363   */\n      dup3\n        /* \"#utility.yul\":10346:10355   */\n      dup12\n        /* \"#utility.yul\":10342:10364   */\n      add\n        /* \"#utility.yul\":10286:10374   */\n      tag_523\n      jump\t// in\n    tag_721:\n        /* \"#utility.yul\":10276:10374   */\n      swap4\n      pop\n        /* \"#utility.yul\":10070:10384   */\n      pop\n        /* \"#utility.yul\":10451:10454   */\n      0xa0\n        /* \"#utility.yul\":10440:10449   */\n      dup9\n        /* \"#utility.yul\":10436:10455   */\n      add\n        /* \"#utility.yul\":10423:10456   */\n      calldataload\n        /* \"#utility.yul\":10483:10501   */\n      0xffffffffffffffff\n        /* \"#utility.yul\":10475:10481   */\n      dup2\n        /* \"#utility.yul\":10472:10502   */\n      gt\n        /* \"#utility.yul\":10469:10586   */\n      iszero\n      tag_722\n      jumpi\n        /* \"#utility.yul\":10505:10584   */\n      tag_723\n      tag_497\n      jump\t// in\n    tag_723:\n        /* \"#utility.yul\":10469:10586   */\n    tag_722:\n        /* \"#utility.yul\":10610:10698   */\n      tag_724\n        /* \"#utility.yul\":10690:10697   */\n      dup11\n        /* \"#utility.yul\":10681:10687   */\n      dup3\n        /* \"#utility.yul\":10670:10679   */\n      dup12\n        /* \"#utility.yul\":10666:10688   */\n      add\n        /* \"#utility.yul\":10610:10698   */\n      tag_523\n      jump\t// in\n    tag_724:\n        /* \"#utility.yul\":10600:10698   */\n      swap3\n      pop\n        /* \"#utility.yul\":10394:10708   */\n      pop\n        /* \"#utility.yul\":10775:10778   */\n      0xc0\n        /* \"#utility.yul\":10764:10773   */\n      dup9\n        /* \"#utility.yul\":10760:10779   */\n      add\n        /* \"#utility.yul\":10747:10780   */\n      calldataload\n        /* \"#utility.yul\":10807:10825   */\n      0xffffffffffffffff\n        /* \"#utility.yul\":10799:10805   */\n      dup2\n        /* \"#utility.yul\":10796:10826   */\n      gt\n        /* \"#utility.yul\":10793:10910   */\n      iszero\n      tag_725\n      jumpi\n        /* \"#utility.yul\":10829:10908   */\n      tag_726\n      tag_497\n      jump\t// in\n    tag_726:\n        /* \"#utility.yul\":10793:10910   */\n    tag_725:\n        /* \"#utility.yul\":10934:11022   */\n      tag_727\n        /* \"#utility.yul\":11014:11021   */\n      dup11\n        /* \"#utility.yul\":11005:11011   */\n      dup3\n        /* \"#utility.yul\":10994:11003   */\n      dup12\n        /* \"#utility.yul\":10990:11012   */\n      add\n        /* \"#utility.yul\":10934:11022   */\n      tag_523\n      jump\t// in\n    tag_727:\n        /* \"#utility.yul\":10924:11022   */\n      swap2\n      pop\n        /* \"#utility.yul\":10718:11032   */\n      pop\n        /* \"#utility.yul\":8276:11039   */\n      swap3\n      swap6\n      swap9\n      swap2\n      swap5\n      swap8\n      pop\n      swap3\n      swap6\n      pop\n      jump\t// out\n        /* \"#utility.yul\":11045:11105   */\n    tag_524:\n        /* \"#utility.yul\":11073:11076   */\n      0x00\n        /* \"#utility.yul\":11094:11099   */\n      dup2\n        /* \"#utility.yul\":11087:11099   */\n      swap1\n      pop\n        /* \"#utility.yul\":11045:11105   */\n      swap2\n      swap1\n      pop\n      jump\t// out\n        /* \"#utility.yul\":11111:11253   */\n    tag_525:\n        /* \"#utility.yul\":11161:11170   */\n      0x00\n        /* \"#utility.yul\":11194:11247   */\n      tag_730\n        /* \"#utility.yul\":11212:11246   */\n      tag_731\n        /* \"#utility.yul\":11221:11245   */\n      tag_732\n        /* \"#utility.yul\":11239:11244   */\n      dup5\n        /* \"#utility.yul\":11221:11245   */\n      tag_501\n      jump\t// in\n    tag_732:\n        /* \"#utility.yul\":11212:11246   */\n      tag_524\n      jump\t// in\n    tag_731:\n        /* \"#utility.yul\":11194:11247   */\n      tag_501\n      jump\t// in\n    tag_730:\n        /* \"#utility.yul\":11181:11247   */\n      swap1\n      pop\n        /* \"#utility.yul\":11111:11253   */\n      swap2\n      swap1\n      pop\n      jump\t// out\n        /* \"#utility.yul\":11259:11385   */\n    tag_526:\n        /* \"#utility.yul\":11309:11318   */\n      0x00\n        /* \"#utility.yul\":11342:11379   */\n      tag_734\n        /* \"#utility.yul\":11373:11378   */\n      dup3\n        /* \"#utility.yul\":11342:11379   */\n      tag_525\n      jump\t// in\n    tag_734:\n        /* \"#utility.yul\":11329:11379   */\n      swap1\n      pop\n        /* \"#utility.yul\":11259:11385   */\n      swap2\n      swap1\n      pop\n      jump\t// out\n        /* \"#utility.yul\":11391:11544   */\n    tag_527:\n        /* \"#utility.yul\":11468:11477   */\n      0x00\n        /* \"#utility.yul\":11501:11538   */\n      tag_736\n        /* \"#utility.yul\":11532:11537   */\n      dup3\n        /* \"#utility.yul\":11501:11538   */\n      tag_526\n      jump\t// in\n    tag_736:\n        /* \"#utility.yul\":11488:11538   */\n      swap1\n      pop\n        /* \"#utility.yul\":11391:11544   */\n      swap2\n      swap1\n      pop\n      jump\t// out\n        /* \"#utility.yul\":11550:11735   */\n    tag_528:\n        /* \"#utility.yul\":11664:11728   */\n      tag_738\n        /* \"#utility.yul\":11722:11727   */\n      dup2\n        /* \"#utility.yul\":11664:11728   */\n      tag_527\n      jump\t// in\n    tag_738:\n        /* \"#utility.yul\":11659:11662   */\n      dup3\n        /* \"#utility.yul\":11652:11729   */\n      mstore\n        /* \"#utility.yul\":11550:11735   */\n      pop\n      pop\n      jump\t// out\n        /* \"#utility.yul\":11741:12017   */\n    tag_111:\n        /* \"#utility.yul\":11861:11865   */\n      0x00\n        /* \"#utility.yul\":11899:11901   */\n      0x20\n        /* \"#utility.yul\":11888:11897   */\n      dup3\n        /* \"#utility.yul\":11884:11902   */\n      add\n        /* \"#utility.yul\":11876:11902   */\n      swap1\n      pop\n        /* \"#utility.yul\":11912:12010   */\n      tag_740\n        /* \"#utility.yul\":12007:12008   */\n      0x00\n        /* \"#utility.yul\":11996:12005   */\n      dup4\n        /* \"#utility.yul\":11992:12009   */\n      add\n        /* \"#utility.yul\":11983:11989   */\n      dup5\n        /* \"#utility.yul\":11912:12010   */\n      tag_528\n      jump\t// in\n    tag_740:\n        /* \"#utility.yul\":11741:12017   */\n      swap3\n      swap2\n      pop\n      pop\n      jump\t// out\n        /* \"#utility.yul\":12023:12141   */\n    tag_529:\n        /* \"#utility.yul\":12110:12134   */\n      tag_742\n        /* \"#utility.yul\":12128:12133   */\n      dup2\n        /* \"#utility.yul\":12110:12134   */\n      tag_502\n      jump\t// in\n    tag_742:\n        /* \"#utility.yul\":12105:12108   */\n      dup3\n        /* \"#utility.yul\":12098:12135   */\n      mstore\n        /* \"#utility.yul\":12023:12141   */\n      pop\n      pop\n      jump\t// out\n        /* \"#utility.yul\":12147:12369   */\n    tag_116:\n        /* \"#utility.yul\":12240:12244   */\n      0x00\n        /* \"#utility.yul\":12278:12280   */\n      0x20\n        /* \"#utility.yul\":12267:12276   */\n      dup3\n        /* \"#utility.yul\":12263:12281   */\n      add\n        /* \"#utility.yul\":12255:12281   */\n      swap1\n      pop\n        /* \"#utility.yul\":12291:12362   */\n      tag_744\n        /* \"#utility.yul\":12359:12360   */\n      0x00\n        /* \"#utility.yul\":12348:12357   */\n      dup4\n        /* \"#utility.yul\":12344:12361   */\n      add\n        /* \"#utility.yul\":12335:12341   */\n      dup5\n        /* \"#utility.yul\":12291:12362   */\n      tag_529\n      jump\t// in\n    tag_744:\n        /* \"#utility.yul\":12147:12369   */\n      swap3\n      swap2\n      pop\n      pop\n      jump\t// out\n        /* \"#utility.yul\":12375:12704   */\n    tag_120:\n        /* \"#utility.yul\":12434:12440   */\n      0x00\n        /* \"#utility.yul\":12483:12485   */\n      0x20\n        /* \"#utility.yul\":12471:12480   */\n      dup3\n        /* \"#utility.yul\":12462:12469   */\n      dup5\n        /* \"#utility.yul\":12458:12481   */\n      sub\n        /* \"#utility.yul\":12454:12486   */\n      slt\n        /* \"#utility.yul\":12451:12570   */\n      iszero\n      tag_746\n      jumpi\n        /* \"#utility.yul\":12489:12568   */\n      tag_747\n      tag_496\n      jump\t// in\n    tag_747:\n        /* \"#utility.yul\":12451:12570   */\n    tag_746:\n        /* \"#utility.yul\":12609:12610   */\n      0x00\n        /* \"#utility.yul\":12634:12687   */\n      tag_748\n        /* \"#utility.yul\":12679:12686   */\n      dup5\n        /* \"#utility.yul\":12670:12676   */\n      dup3\n        /* \"#utility.yul\":12659:12668   */\n      dup6\n        /* \"#utility.yul\":12655:12677   */\n      add\n        /* \"#utility.yul\":12634:12687   */\n      tag_504\n      jump\t// in\n    tag_748:\n        /* \"#utility.yul\":12624:12687   */\n      swap2\n      pop\n        /* \"#utility.yul\":12580:12697   */\n      pop\n        /* \"#utility.yul\":12375:12704   */\n      swap3\n      swap2\n      pop\n      pop\n      jump\t// out\n        /* \"#utility.yul\":12710:12809   */\n    tag_530:\n        /* \"#utility.yul\":12762:12768   */\n      0x00\n        /* \"#utility.yul\":12796:12801   */\n      dup2\n        /* \"#utility.yul\":12790:12802   */\n      mload\n        /* \"#utility.yul\":12780:12802   */\n      swap1\n      pop\n        /* \"#utility.yul\":12710:12809   */\n      swap2\n      swap1\n      pop\n      jump\t// out\n        /* \"#utility.yul\":12815:12984   */\n    tag_531:\n        /* \"#utility.yul\":12899:12910   */\n      0x00\n        /* \"#utility.yul\":12933:12939   */\n      dup3\n        /* \"#utility.yul\":12928:12931   */\n      dup3\n        /* \"#utility.yul\":12921:12940   */\n      mstore\n        /* \"#utility.yul\":12973:12977   */\n      0x20\n        /* \"#utility.yul\":12968:12971   */\n      dup3\n        /* \"#utility.yul\":12964:12978   */\n      add\n        /* \"#utility.yul\":12949:12978   */\n      swap1\n      pop\n        /* \"#utility.yul\":12815:12984   */\n      swap3\n      swap2\n      pop\n      pop\n      jump\t// out\n        /* \"#utility.yul\":12990:13129   */\n    tag_532:\n        /* \"#utility.yul\":13079:13085   */\n      dup3\n        /* \"#utility.yul\":13074:13077   */\n      dup2\n        /* \"#utility.yul\":13069:13072   */\n      dup4\n        /* \"#utility.yul\":13063:13086   */\n      mcopy\n        /* \"#utility.yul\":13120:13121   */\n      0x00\n        /* \"#utility.yul\":13111:13117   */\n      dup4\n        /* \"#utility.yul\":13106:13109   */\n      dup4\n        /* \"#utility.yul\":13102:13118   */\n      add\n        /* \"#utility.yul\":13095:13122   */\n      mstore\n        /* \"#utility.yul\":12990:13129   */\n      pop\n      pop\n      pop\n      jump\t// out\n        /* \"#utility.yul\":13135:13512   */\n    tag_533:\n        /* \"#utility.yul\":13223:13226   */\n      0x00\n        /* \"#utility.yul\":13251:13290   */\n      tag_753\n        /* \"#utility.yul\":13284:13289   */\n      dup3\n        /* \"#utility.yul\":13251:13290   */\n      tag_530\n      jump\t// in\n    tag_753:\n        /* \"#utility.yul\":13306:13377   */\n      tag_754\n        /* \"#utility.yul\":13370:13376   */\n      dup2\n        /* \"#utility.yul\":13365:13368   */\n      dup6\n        /* \"#utility.yul\":13306:13377   */\n      tag_531\n      jump\t// in\n    tag_754:\n        /* \"#utility.yul\":13299:13377   */\n      swap4\n      pop\n        /* \"#utility.yul\":13386:13451   */\n      tag_755\n        /* \"#utility.yul\":13444:13450   */\n      dup2\n        /* \"#utility.yul\":13439:13442   */\n      dup6\n        /* \"#utility.yul\":13432:13436   */\n      0x20\n        /* \"#utility.yul\":13425:13430   */\n      dup7\n        /* \"#utility.yul\":13421:13437   */\n      add\n        /* \"#utility.yul\":13386:13451   */\n      tag_532\n      jump\t// in\n    tag_755:\n        /* \"#utility.yul\":13476:13505   */\n      tag_756\n        /* \"#utility.yul\":13498:13504   */\n      dup2\n        /* \"#utility.yul\":13476:13505   */\n      tag_511\n      jump\t// in\n    tag_756:\n        /* \"#utility.yul\":13471:13474   */\n      dup5\n        /* \"#utility.yul\":13467:13506   */\n      add\n        /* \"#utility.yul\":13460:13506   */\n      swap2\n      pop\n        /* \"#utility.yul\":13227:13512   */\n      pop\n        /* \"#utility.yul\":13135:13512   */\n      swap3\n      swap2\n      pop\n      pop\n      jump\t// out\n        /* \"#utility.yul\":13518:13611   */\n    tag_534:\n        /* \"#utility.yul\":13554:13561   */\n      0x00\n        /* \"#utility.yul\":13594:13604   */\n      0xffffffff\n        /* \"#utility.yul\":13587:13592   */\n      dup3\n        /* \"#utility.yul\":13583:13605   */\n      and\n        /* \"#utility.yul\":13572:13605   */\n      swap1\n      pop\n        /* \"#utility.yul\":13518:13611   */\n      swap2\n      swap1\n      pop\n      jump\t// out\n        /* \"#utility.yul\":13617:13732   */\n    tag_535:\n        /* \"#utility.yul\":13702:13725   */\n      tag_759\n        /* \"#utility.yul\":13719:13724   */\n      dup2\n        /* \"#utility.yul\":13702:13725   */\n      tag_534\n      jump\t// in\n    tag_759:\n        /* \"#utility.yul\":13697:13700   */\n      dup3\n        /* \"#utility.yul\":13690:13726   */\n      mstore\n        /* \"#utility.yul\":13617:13732   */\n      pop\n      pop\n      jump\t// out\n        /* \"#utility.yul\":13738:14584   */\n    tag_131:\n        /* \"#utility.yul\":13981:13985   */\n      0x00\n        /* \"#utility.yul\":14019:14022   */\n      0xc0\n        /* \"#utility.yul\":14008:14017   */\n      dup3\n        /* \"#utility.yul\":14004:14023   */\n      add\n        /* \"#utility.yul\":13996:14023   */\n      swap1\n      pop\n        /* \"#utility.yul\":14033:14104   */\n      tag_761\n        /* \"#utility.yul\":14101:14102   */\n      0x00\n        /* \"#utility.yul\":14090:14099   */\n      dup4\n        /* \"#utility.yul\":14086:14103   */\n      add\n        /* \"#utility.yul\":14077:14083   */\n      dup10\n        /* \"#utility.yul\":14033:14104   */\n      tag_529\n      jump\t// in\n    tag_761:\n        /* \"#utility.yul\":14151:14160   */\n      dup2\n        /* \"#utility.yul\":14145:14149   */\n      dup2\n        /* \"#utility.yul\":14141:14161   */\n      sub\n        /* \"#utility.yul\":14136:14138   */\n      0x20\n        /* \"#utility.yul\":14125:14134   */\n      dup4\n        /* \"#utility.yul\":14121:14139   */\n      add\n        /* \"#utility.yul\":14114:14162   */\n      mstore\n        /* \"#utility.yul\":14179:14257   */\n      tag_762\n        /* \"#utility.yul\":14252:14256   */\n      dup2\n        /* \"#utility.yul\":14243:14249   */\n      dup9\n        /* \"#utility.yul\":14179:14257   */\n      tag_533\n      jump\t// in\n    tag_762:\n        /* \"#utility.yul\":14171:14257   */\n      swap1\n      pop\n        /* \"#utility.yul\":14267:14333   */\n      tag_763\n        /* \"#utility.yul\":14329:14331   */\n      0x40\n        /* \"#utility.yul\":14318:14327   */\n      dup4\n        /* \"#utility.yul\":14314:14332   */\n      add\n        /* \"#utility.yul\":14305:14311   */\n      dup8\n        /* \"#utility.yul\":14267:14333   */\n      tag_506\n      jump\t// in\n    tag_763:\n        /* \"#utility.yul\":14343:14413   */\n      tag_764\n        /* \"#utility.yul\":14409:14411   */\n      0x60\n        /* \"#utility.yul\":14398:14407   */\n      dup4\n        /* \"#utility.yul\":14394:14412   */\n      add\n        /* \"#utility.yul\":14385:14391   */\n      dup7\n        /* \"#utility.yul\":14343:14413   */\n      tag_535\n      jump\t// in\n    tag_764:\n        /* \"#utility.yul\":14423:14496   */\n      tag_765\n        /* \"#utility.yul\":14491:14494   */\n      0x80\n        /* \"#utility.yul\":14480:14489   */\n      dup4\n        /* \"#utility.yul\":14476:14495   */\n      add\n        /* \"#utility.yul\":14467:14473   */\n      dup6\n        /* \"#utility.yul\":14423:14496   */\n      tag_509\n      jump\t// in\n    tag_765:\n        /* \"#utility.yul\":14506:14577   */\n      tag_766\n        /* \"#utility.yul\":14572:14575   */\n      0xa0\n        /* \"#utility.yul\":14561:14570   */\n      dup4\n        /* \"#utility.yul\":14557:14576   */\n      add\n        /* \"#utility.yul\":14548:14554   */\n      dup5\n        /* \"#utility.yul\":14506:14577   */\n      tag_535\n      jump\t// in\n    tag_766:\n        /* \"#utility.yul\":13738:14584   */\n      swap8\n      swap7\n      pop\n      pop\n      pop\n      pop\n      pop\n      pop\n      pop\n      jump\t// out\n        /* \"#utility.yul\":14590:15064   */\n    tag_147:\n        /* \"#utility.yul\":14658:14664   */\n      0x00\n        /* \"#utility.yul\":14666:14672   */\n      dup1\n        /* \"#utility.yul\":14715:14717   */\n      0x40\n        /* \"#utility.yul\":14703:14712   */\n      dup4\n        /* \"#utility.yul\":14694:14701   */\n      dup6\n        /* \"#utility.yul\":14690:14713   */\n      sub\n        /* \"#utility.yul\":14686:14718   */\n      slt\n        /* \"#utility.yul\":14683:14802   */\n      iszero\n      tag_768\n      jumpi\n        /* \"#utility.yul\":14721:14800   */\n      tag_769\n      tag_496\n      jump\t// in\n    tag_769:\n        /* \"#utility.yul\":14683:14802   */\n    tag_768:\n        /* \"#utility.yul\":14841:14842   */\n      0x00\n        /* \"#utility.yul\":14866:14919   */\n      tag_770\n        /* \"#utility.yul\":14911:14918   */\n      dup6\n        /* \"#utility.yul\":14902:14908   */\n      dup3\n        /* \"#utility.yul\":14891:14900   */\n      dup7\n        /* \"#utility.yul\":14887:14909   */\n      add\n        /* \"#utility.yul\":14866:14919   */\n      tag_500\n      jump\t// in\n    tag_770:\n        /* \"#utility.yul\":14856:14919   */\n      swap3\n      pop\n        /* \"#utility.yul\":14812:14929   */\n      pop\n        /* \"#utility.yul\":14968:14970   */\n      0x20\n        /* \"#utility.yul\":14994:15047   */\n      tag_771\n        /* \"#utility.yul\":15039:15046   */\n      dup6\n        /* \"#utility.yul\":15030:15036   */\n      dup3\n        /* \"#utility.yul\":15019:15028   */\n      dup7\n        /* \"#utility.yul\":15015:15037   */\n      add\n        /* \"#utility.yul\":14994:15047   */\n      tag_500\n      jump\t// in\n    tag_771:\n        /* \"#utility.yul\":14984:15047   */\n      swap2\n      pop\n        /* \"#utility.yul\":14939:15057   */\n      pop\n        /* \"#utility.yul\":14590:15064   */\n      swap3\n      pop\n      swap3\n      swap1\n      pop\n      jump\t// out\n        /* \"#utility.yul\":15070:15147   */\n    tag_536:\n        /* \"#utility.yul\":15107:15114   */\n      0x00\n        /* \"#utility.yul\":15136:15141   */\n      dup2\n        /* \"#utility.yul\":15125:15141   */\n      swap1\n      pop\n        /* \"#utility.yul\":15070:15147   */\n      swap2\n      swap1\n      pop\n      jump\t// out\n        /* \"#utility.yul\":15153:15271   */\n    tag_537:\n        /* \"#utility.yul\":15240:15264   */\n      tag_774\n        /* \"#utility.yul\":15258:15263   */\n      dup2\n        /* \"#utility.yul\":15240:15264   */\n      tag_536\n      jump\t// in\n    tag_774:\n        /* \"#utility.yul\":15235:15238   */\n      dup3\n        /* \"#utility.yul\":15228:15265   */\n      mstore\n        /* \"#utility.yul\":15153:15271   */\n      pop\n      pop\n      jump\t// out\n        /* \"#utility.yul\":15277:16618   */\n    tag_150:\n        /* \"#utility.yul\":15638:15642   */\n      0x00\n        /* \"#utility.yul\":15676:15679   */\n      0xe0\n        /* \"#utility.yul\":15665:15674   */\n      dup3\n        /* \"#utility.yul\":15661:15680   */\n      add\n        /* \"#utility.yul\":15653:15680   */\n      swap1\n      pop\n        /* \"#utility.yul\":15690:15761   */\n      tag_776\n        /* \"#utility.yul\":15758:15759   */\n      0x00\n        /* \"#utility.yul\":15747:15756   */\n      dup4\n        /* \"#utility.yul\":15743:15760   */\n      add\n        /* \"#utility.yul\":15734:15740   */\n      dup11\n        /* \"#utility.yul\":15690:15761   */\n      tag_509\n      jump\t// in\n    tag_776:\n        /* \"#utility.yul\":15808:15817   */\n      dup2\n        /* \"#utility.yul\":15802:15806   */\n      dup2\n        /* \"#utility.yul\":15798:15818   */\n      sub\n        /* \"#utility.yul\":15793:15795   */\n      0x20\n        /* \"#utility.yul\":15782:15791   */\n      dup4\n        /* \"#utility.yul\":15778:15796   */\n      add\n        /* \"#utility.yul\":15771:15819   */\n      mstore\n        /* \"#utility.yul\":15836:15914   */\n      tag_777\n        /* \"#utility.yul\":15909:15913   */\n      dup2\n        /* \"#utility.yul\":15900:15906   */\n      dup10\n        /* \"#utility.yul\":15836:15914   */\n      tag_533\n      jump\t// in\n    tag_777:\n        /* \"#utility.yul\":15828:15914   */\n      swap1\n      pop\n        /* \"#utility.yul\":15961:15970   */\n      dup2\n        /* \"#utility.yul\":15955:15959   */\n      dup2\n        /* \"#utility.yul\":15951:15971   */\n      sub\n        /* \"#utility.yul\":15946:15948   */\n      0x40\n        /* \"#utility.yul\":15935:15944   */\n      dup4\n        /* \"#utility.yul\":15931:15949   */\n      add\n        /* \"#utility.yul\":15924:15972   */\n      mstore\n        /* \"#utility.yul\":15989:16067   */\n      tag_778\n        /* \"#utility.yul\":16062:16066   */\n      dup2\n        /* \"#utility.yul\":16053:16059   */\n      dup9\n        /* \"#utility.yul\":15989:16067   */\n      tag_533\n      jump\t// in\n    tag_778:\n        /* \"#utility.yul\":15981:16067   */\n      swap1\n      pop\n        /* \"#utility.yul\":16114:16123   */\n      dup2\n        /* \"#utility.yul\":16108:16112   */\n      dup2\n        /* \"#utility.yul\":16104:16124   */\n      sub\n        /* \"#utility.yul\":16099:16101   */\n      0x60\n        /* \"#utility.yul\":16088:16097   */\n      dup4\n        /* \"#utility.yul\":16084:16102   */\n      add\n        /* \"#utility.yul\":16077:16125   */\n      mstore\n        /* \"#utility.yul\":16142:16220   */\n      tag_779\n        /* \"#utility.yul\":16215:16219   */\n      dup2\n        /* \"#utility.yul\":16206:16212   */\n      dup8\n        /* \"#utility.yul\":16142:16220   */\n      tag_533\n      jump\t// in\n    tag_779:\n        /* \"#utility.yul\":16134:16220   */\n      swap1\n      pop\n        /* \"#utility.yul\":16268:16277   */\n      dup2\n        /* \"#utility.yul\":16262:16266   */\n      dup2\n        /* \"#utility.yul\":16258:16278   */\n      sub\n        /* \"#utility.yul\":16252:16255   */\n      0x80\n        /* \"#utility.yul\":16241:16250   */\n      dup4\n        /* \"#utility.yul\":16237:16256   */\n      add\n        /* \"#utility.yul\":16230:16279   */\n      mstore\n        /* \"#utility.yul\":16296:16374   */\n      tag_780\n        /* \"#utility.yul\":16369:16373   */\n      dup2\n        /* \"#utility.yul\":16360:16366   */\n      dup7\n        /* \"#utility.yul\":16296:16374   */\n      tag_533\n      jump\t// in\n    tag_780:\n        /* \"#utility.yul\":16288:16374   */\n      swap1\n      pop\n        /* \"#utility.yul\":16422:16431   */\n      dup2\n        /* \"#utility.yul\":16416:16420   */\n      dup2\n        /* \"#utility.yul\":16412:16432   */\n      sub\n        /* \"#utility.yul\":16406:16409   */\n      0xa0\n        /* \"#utility.yul\":16395:16404   */\n      dup4\n        /* \"#utility.yul\":16391:16410   */\n      add\n        /* \"#utility.yul\":16384:16433   */\n      mstore\n        /* \"#utility.yul\":16450:16528   */\n      tag_781\n        /* \"#utility.yul\":16523:16527   */\n      dup2\n        /* \"#utility.yul\":16514:16520   */\n      dup6\n        /* \"#utility.yul\":16450:16528   */\n      tag_533\n      jump\t// in\n    tag_781:\n        /* \"#utility.yul\":16442:16528   */\n      swap1\n      pop\n        /* \"#utility.yul\":16538:16611   */\n      tag_782\n        /* \"#utility.yul\":16606:16609   */\n      0xc0\n        /* \"#utility.yul\":16595:16604   */\n      dup4\n        /* \"#utility.yul\":16591:16610   */\n      add\n        /* \"#utility.yul\":16582:16588   */\n      dup5\n        /* \"#utility.yul\":16538:16611   */\n      tag_537\n      jump\t// in\n    tag_782:\n        /* \"#utility.yul\":15277:16618   */\n      swap9\n      swap8\n      pop\n      pop\n      pop\n      pop\n      pop\n      pop\n      pop\n      pop\n      jump\t// out\n        /* \"#utility.yul\":16624:16803   */\n    tag_538:\n        /* \"#utility.yul\":16764:16795   */\n      0x526577617264206d7573742062652067726561746572207468616e2030000000\n        /* \"#utility.yul\":16760:16761   */\n      0x00\n        /* \"#utility.yul\":16752:16758   */\n      dup3\n        /* \"#utility.yul\":16748:16762   */\n      add\n        /* \"#utility.yul\":16741:16796   */\n      mstore\n        /* \"#utility.yul\":16624:16803   */\n      pop\n      jump\t// out\n        /* \"#utility.yul\":16809:17175   */\n    tag_539:\n        /* \"#utility.yul\":16951:16954   */\n      0x00\n        /* \"#utility.yul\":16972:17039   */\n      tag_785\n        /* \"#utility.yul\":17036:17038   */\n      0x1d\n        /* \"#utility.yul\":17031:17034   */\n      dup4\n        /* \"#utility.yul\":16972:17039   */\n      tag_531\n      jump\t// in\n    tag_785:\n        /* \"#utility.yul\":16965:17039   */\n      swap2\n      pop\n        /* \"#utility.yul\":17048:17141   */\n      tag_786\n        /* \"#utility.yul\":17137:17140   */\n      dup3\n        /* \"#utility.yul\":17048:17141   */\n      tag_538\n      jump\t// in\n    tag_786:\n        /* \"#utility.yul\":17166:17168   */\n      0x20\n        /* \"#utility.yul\":17161:17164   */\n      dup3\n        /* \"#utility.yul\":17157:17169   */\n      add\n        /* \"#utility.yul\":17150:17169   */\n      swap1\n      pop\n        /* \"#utility.yul\":16809:17175   */\n      swap2\n      swap1\n      pop\n      jump\t// out\n        /* \"#utility.yul\":17181:17600   */\n    tag_177:\n        /* \"#utility.yul\":17347:17351   */\n      0x00\n        /* \"#utility.yul\":17385:17387   */\n      0x20\n        /* \"#utility.yul\":17374:17383   */\n      dup3\n        /* \"#utility.yul\":17370:17388   */\n      add\n        /* \"#utility.yul\":17362:17388   */\n      swap1\n      pop\n        /* \"#utility.yul\":17434:17443   */\n      dup2\n        /* \"#utility.yul\":17428:17432   */\n      dup2\n        /* \"#utility.yul\":17424:17444   */\n      sub\n        /* \"#utility.yul\":17420:17421   */\n      0x00\n        /* \"#utility.yul\":17409:17418   */\n      dup4\n        /* \"#utility.yul\":17405:17422   */\n      add\n        /* \"#utility.yul\":17398:17445   */\n      mstore\n        /* \"#utility.yul\":17462:17593   */\n      tag_788\n        /* \"#utility.yul\":17588:17592   */\n      dup2\n        /* \"#utility.yul\":17462:17593   */\n      tag_539\n      jump\t// in\n    tag_788:\n        /* \"#utility.yul\":17454:17593   */\n      swap1\n      pop\n        /* \"#utility.yul\":17181:17600   */\n      swap2\n      swap1\n      pop\n      jump\t// out\n        /* \"#utility.yul\":17606:17786   */\n    tag_540:\n        /* \"#utility.yul\":17654:17731   */\n      0x4e487b7100000000000000000000000000000000000000000000000000000000\n        /* \"#utility.yul\":17651:17652   */\n      0x00\n        /* \"#utility.yul\":17644:17732   */\n      mstore\n        /* \"#utility.yul\":17751:17755   */\n      0x11\n        /* \"#utility.yul\":17748:17749   */\n      0x04\n        /* \"#utility.yul\":17741:17756   */\n      mstore\n        /* \"#utility.yul\":17775:17779   */\n      0x24\n        /* \"#utility.yul\":17772:17773   */\n      0x00\n        /* \"#utility.yul\":17765:17780   */\n      revert\n        /* \"#utility.yul\":17792:17983   */\n    tag_182:\n        /* \"#utility.yul\":17832:17835   */\n      0x00\n        /* \"#utility.yul\":17851:17871   */\n      tag_791\n        /* \"#utility.yul\":17869:17870   */\n      dup3\n        /* \"#utility.yul\":17851:17871   */\n      tag_498\n      jump\t// in\n    tag_791:\n        /* \"#utility.yul\":17846:17871   */\n      swap2\n      pop\n        /* \"#utility.yul\":17885:17905   */\n      tag_792\n        /* \"#utility.yul\":17903:17904   */\n      dup4\n        /* \"#utility.yul\":17885:17905   */\n      tag_498\n      jump\t// in\n    tag_792:\n        /* \"#utility.yul\":17880:17905   */\n      swap3\n      pop\n        /* \"#utility.yul\":17928:17929   */\n      dup3\n        /* \"#utility.yul\":17925:17926   */\n      dup3\n        /* \"#utility.yul\":17921:17930   */\n      add\n        /* \"#utility.yul\":17914:17930   */\n      swap1\n      pop\n        /* \"#utility.yul\":17949:17952   */\n      dup1\n        /* \"#utility.yul\":17946:17947   */\n      dup3\n        /* \"#utility.yul\":17943:17953   */\n      gt\n        /* \"#utility.yul\":17940:17976   */\n      iszero\n      tag_793\n      jumpi\n        /* \"#utility.yul\":17956:17974   */\n      tag_794\n      tag_540\n      jump\t// in\n    tag_794:\n        /* \"#utility.yul\":17940:17976   */\n    tag_793:\n        /* \"#utility.yul\":17792:17983   */\n      swap3\n      swap2\n      pop\n      pop\n      jump\t// out\n        /* \"#utility.yul\":17989:18170   */\n    tag_541:\n        /* \"#utility.yul\":18129:18162   */\n      0x5769746864726177616c20696e74657276616c206e6f74207265616368656400\n        /* \"#utility.yul\":18125:18126   */\n      0x00\n        /* \"#utility.yul\":18117:18123   */\n      dup3\n        /* \"#utility.yul\":18113:18127   */\n      add\n        /* \"#utility.yul\":18106:18163   */\n      mstore\n        /* \"#utility.yul\":17989:18170   */\n      pop\n      jump\t// out\n        /* \"#utility.yul\":18176:18542   */\n    tag_542:\n        /* \"#utility.yul\":18318:18321   */\n      0x00\n        /* \"#utility.yul\":18339:18406   */\n      tag_797\n        /* \"#utility.yul\":18403:18405   */\n      0x1f\n        /* \"#utility.yul\":18398:18401   */\n      dup4\n        /* \"#utility.yul\":18339:18406   */\n      tag_531\n      jump\t// in\n    tag_797:\n        /* \"#utility.yul\":18332:18406   */\n      swap2\n      pop\n        /* \"#utility.yul\":18415:18508   */\n      tag_798\n        /* \"#utility.yul\":18504:18507   */\n      dup3\n        /* \"#utility.yul\":18415:18508   */\n      tag_541\n      jump\t// in\n    tag_798:\n        /* \"#utility.yul\":18533:18535   */\n      0x20\n        /* \"#utility.yul\":18528:18531   */\n      dup3\n        /* \"#utility.yul\":18524:18536   */\n      add\n        /* \"#utility.yul\":18517:18536   */\n      swap1\n      pop\n        /* \"#utility.yul\":18176:18542   */\n      swap2\n      swap1\n      pop\n      jump\t// out\n        /* \"#utility.yul\":18548:18967   */\n    tag_185:\n        /* \"#utility.yul\":18714:18718   */\n      0x00\n        /* \"#utility.yul\":18752:18754   */\n      0x20\n        /* \"#utility.yul\":18741:18750   */\n      dup3\n        /* \"#utility.yul\":18737:18755   */\n      add\n        /* \"#utility.yul\":18729:18755   */\n      swap1\n      pop\n        /* \"#utility.yul\":18801:18810   */\n      dup2\n        /* \"#utility.yul\":18795:18799   */\n      dup2\n        /* \"#utility.yul\":18791:18811   */\n      sub\n        /* \"#utility.yul\":18787:18788   */\n      0x00\n        /* \"#utility.yul\":18776:18785   */\n      dup4\n        /* \"#utility.yul\":18772:18789   */\n      add\n        /* \"#utility.yul\":18765:18812   */\n      mstore\n        /* \"#utility.yul\":18829:18960   */\n      tag_800\n        /* \"#utility.yul\":18955:18959   */\n      dup2\n        /* \"#utility.yul\":18829:18960   */\n      tag_542\n      jump\t// in\n    tag_800:\n        /* \"#utility.yul\":18821:18960   */\n      swap1\n      pop\n        /* \"#utility.yul\":18548:18967   */\n      swap2\n      swap1\n      pop\n      jump\t// out\n        /* \"#utility.yul\":18973:19120   */\n    tag_543:\n        /* \"#utility.yul\":19074:19085   */\n      0x00\n        /* \"#utility.yul\":19111:19114   */\n      dup2\n        /* \"#utility.yul\":19096:19114   */\n      swap1\n      pop\n        /* \"#utility.yul\":18973:19120   */\n      swap3\n      swap2\n      pop\n      pop\n      jump\t// out\n        /* \"#utility.yul\":19126:19240   */\n    tag_544:\n      pop\n      jump\t// out\n        /* \"#utility.yul\":19246:19644   */\n    tag_545:\n        /* \"#utility.yul\":19405:19408   */\n      0x00\n        /* \"#utility.yul\":19426:19509   */\n      tag_804\n        /* \"#utility.yul\":19507:19508   */\n      0x00\n        /* \"#utility.yul\":19502:19505   */\n      dup4\n        /* \"#utility.yul\":19426:19509   */\n      tag_543\n      jump\t// in\n    tag_804:\n        /* \"#utility.yul\":19419:19509   */\n      swap2\n      pop\n        /* \"#utility.yul\":19518:19611   */\n      tag_805\n        /* \"#utility.yul\":19607:19610   */\n      dup3\n        /* \"#utility.yul\":19518:19611   */\n      tag_544\n      jump\t// in\n    tag_805:\n        /* \"#utility.yul\":19636:19637   */\n      0x00\n        /* \"#utility.yul\":19631:19634   */\n      dup3\n        /* \"#utility.yul\":19627:19638   */\n      add\n        /* \"#utility.yul\":19620:19638   */\n      swap1\n      pop\n        /* \"#utility.yul\":19246:19644   */\n      swap2\n      swap1\n      pop\n      jump\t// out\n        /* \"#utility.yul\":19650:20029   */\n    tag_188:\n        /* \"#utility.yul\":19834:19837   */\n      0x00\n        /* \"#utility.yul\":19856:20003   */\n      tag_807\n        /* \"#utility.yul\":19999:20002   */\n      dup3\n        /* \"#utility.yul\":19856:20003   */\n      tag_545\n      jump\t// in\n    tag_807:\n        /* \"#utility.yul\":19849:20003   */\n      swap2\n      pop\n        /* \"#utility.yul\":20020:20023   */\n      dup2\n        /* \"#utility.yul\":20013:20023   */\n      swap1\n      pop\n        /* \"#utility.yul\":19650:20029   */\n      swap2\n      swap1\n      pop\n      jump\t// out\n        /* \"#utility.yul\":20035:20212   */\n    tag_546:\n        /* \"#utility.yul\":20175:20204   */\n      0x4661696c656420746f2077697468647261772067617320666565730000000000\n        /* \"#utility.yul\":20171:20172   */\n      0x00\n        /* \"#utility.yul\":20163:20169   */\n      dup3\n        /* \"#utility.yul\":20159:20173   */\n      add\n        /* \"#utility.yul\":20152:20205   */\n      mstore\n        /* \"#utility.yul\":20035:20212   */\n      pop\n      jump\t// out\n        /* \"#utility.yul\":20218:20584   */\n    tag_547:\n        /* \"#utility.yul\":20360:20363   */\n      0x00\n        /* \"#utility.yul\":20381:20448   */\n      tag_810\n        /* \"#utility.yul\":20445:20447   */\n      0x1b\n        /* \"#utility.yul\":20440:20443   */\n      dup4\n        /* \"#utility.yul\":20381:20448   */\n      tag_531\n      jump\t// in\n    tag_810:\n        /* \"#utility.yul\":20374:20448   */\n      swap2\n      pop\n        /* \"#utility.yul\":20457:20550   */\n      tag_811\n        /* \"#utility.yul\":20546:20549   */\n      dup3\n        /* \"#utility.yul\":20457:20550   */\n      tag_546\n      jump\t// in\n    tag_811:\n        /* \"#utility.yul\":20575:20577   */\n      0x20\n        /* \"#utility.yul\":20570:20573   */\n      dup3\n        /* \"#utility.yul\":20566:20578   */\n      add\n        /* \"#utility.yul\":20559:20578   */\n      swap1\n      pop\n        /* \"#utility.yul\":20218:20584   */\n      swap2\n      swap1\n      pop\n      jump\t// out\n        /* \"#utility.yul\":20590:21009   */\n    tag_194:\n        /* \"#utility.yul\":20756:20760   */\n      0x00\n        /* \"#utility.yul\":20794:20796   */\n      0x20\n        /* \"#utility.yul\":20783:20792   */\n      dup3\n        /* \"#utility.yul\":20779:20797   */\n      add\n        /* \"#utility.yul\":20771:20797   */\n      swap1\n      pop\n        /* \"#utility.yul\":20843:20852   */\n      dup2\n        /* \"#utility.yul\":20837:20841   */\n      dup2\n        /* \"#utility.yul\":20833:20853   */\n      sub\n        /* \"#utility.yul\":20829:20830   */\n      0x00\n        /* \"#utility.yul\":20818:20827   */\n      dup4\n        /* \"#utility.yul\":20814:20831   */\n      add\n        /* \"#utility.yul\":20807:20854   */\n      mstore\n        /* \"#utility.yul\":20871:21002   */\n      tag_813\n        /* \"#utility.yul\":20997:21001   */\n      dup2\n        /* \"#utility.yul\":20871:21002   */\n      tag_547\n      jump\t// in\n    tag_813:\n        /* \"#utility.yul\":20863:21002   */\n      swap1\n      pop\n        /* \"#utility.yul\":20590:21009   */\n      swap2\n      swap1\n      pop\n      jump\t// out\n        /* \"#utility.yul\":21015:21197   */\n    tag_548:\n        /* \"#utility.yul\":21155:21189   */\n      0x5468726573686f6c64206d7573742062652067726561746572207468616e2030\n        /* \"#utility.yul\":21151:21152   */\n      0x00\n        /* \"#utility.yul\":21143:21149   */\n      dup3\n        /* \"#utility.yul\":21139:21153   */\n      add\n        /* \"#utility.yul\":21132:21190   */\n      mstore\n        /* \"#utility.yul\":21015:21197   */\n      pop\n      jump\t// out\n        /* \"#utility.yul\":21203:21569   */\n    tag_549:\n        /* \"#utility.yul\":21345:21348   */\n      0x00\n        /* \"#utility.yul\":21366:21433   */\n      tag_816\n        /* \"#utility.yul\":21430:21432   */\n      0x20\n        /* \"#utility.yul\":21425:21428   */\n      dup4\n        /* \"#utility.yul\":21366:21433   */\n      tag_531\n      jump\t// in\n    tag_816:\n        /* \"#utility.yul\":21359:21433   */\n      swap2\n      pop\n        /* \"#utility.yul\":21442:21535   */\n      tag_817\n        /* \"#utility.yul\":21531:21534   */\n      dup3\n        /* \"#utility.yul\":21442:21535   */\n      tag_548\n      jump\t// in\n    tag_817:\n        /* \"#utility.yul\":21560:21562   */\n      0x20\n        /* \"#utility.yul\":21555:21558   */\n      dup3\n        /* \"#utility.yul\":21551:21563   */\n      add\n        /* \"#utility.yul\":21544:21563   */\n      swap1\n      pop\n        /* \"#utility.yul\":21203:21569   */\n      swap2\n      swap1\n      pop\n      jump\t// out\n        /* \"#utility.yul\":21575:21994   */\n    tag_201:\n        /* \"#utility.yul\":21741:21745   */\n      0x00\n        /* \"#utility.yul\":21779:21781   */\n      0x20\n        /* \"#utility.yul\":21768:21777   */\n      dup3\n        /* \"#utility.yul\":21764:21782   */\n      add\n        /* \"#utility.yul\":21756:21782   */\n      swap1\n      pop\n        /* \"#utility.yul\":21828:21837   */\n      dup2\n        /* \"#utility.yul\":21822:21826   */\n      dup2\n        /* \"#utility.yul\":21818:21838   */\n      sub\n        /* \"#utility.yul\":21814:21815   */\n      0x00\n        /* \"#utility.yul\":21803:21812   */\n      dup4\n        /* \"#utility.yul\":21799:21816   */\n      add\n        /* \"#utility.yul\":21792:21839   */\n      mstore\n        /* \"#utility.yul\":21856:21987   */\n      tag_819\n        /* \"#utility.yul\":21982:21986   */\n      dup2\n        /* \"#utility.yul\":21856:21987   */\n      tag_549\n      jump\t// in\n    tag_819:\n        /* \"#utility.yul\":21848:21987   */\n      swap1\n      pop\n        /* \"#utility.yul\":21575:21994   */\n      swap2\n      swap1\n      pop\n      jump\t// out\n        /* \"#utility.yul\":22000:22170   */\n    tag_550:\n        /* \"#utility.yul\":22140:22162   */\n      0x496e73756666696369656e742067617320666565000000000000000000000000\n        /* \"#utility.yul\":22136:22137   */\n      0x00\n        /* \"#utility.yul\":22128:22134   */\n      dup3\n        /* \"#utility.yul\":22124:22138   */\n      add\n        /* \"#utility.yul\":22117:22163   */\n      mstore\n        /* \"#utility.yul\":22000:22170   */\n      pop\n      jump\t// out\n        /* \"#utility.yul\":22176:22542   */\n    tag_551:\n        /* \"#utility.yul\":22318:22321   */\n      0x00\n        /* \"#utility.yul\":22339:22406   */\n      tag_822\n        /* \"#utility.yul\":22403:22405   */\n      0x14\n        /* \"#utility.yul\":22398:22401   */\n      dup4\n        /* \"#utility.yul\":22339:22406   */\n      tag_531\n      jump\t// in\n    tag_822:\n        /* \"#utility.yul\":22332:22406   */\n      swap2\n      pop\n        /* \"#utility.yul\":22415:22508   */\n      tag_823\n        /* \"#utility.yul\":22504:22507   */\n      dup3\n        /* \"#utility.yul\":22415:22508   */\n      tag_550\n      jump\t// in\n    tag_823:\n        /* \"#utility.yul\":22533:22535   */\n      0x20\n        /* \"#utility.yul\":22528:22531   */\n      dup3\n        /* \"#utility.yul\":22524:22536   */\n      add\n        /* \"#utility.yul\":22517:22536   */\n      swap1\n      pop\n        /* \"#utility.yul\":22176:22542   */\n      swap2\n      swap1\n      pop\n      jump\t// out\n        /* \"#utility.yul\":22548:22967   */\n    tag_211:\n        /* \"#utility.yul\":22714:22718   */\n      0x00\n        /* \"#utility.yul\":22752:22754   */\n      0x20\n        /* \"#utility.yul\":22741:22750   */\n      dup3\n        /* \"#utility.yul\":22737:22755   */\n      add\n        /* \"#utility.yul\":22729:22755   */\n      swap1\n      pop\n        /* \"#utility.yul\":22801:22810   */\n      dup2\n        /* \"#utility.yul\":22795:22799   */\n      dup2\n        /* \"#utility.yul\":22791:22811   */\n      sub\n        /* \"#utility.yul\":22787:22788   */\n      0x00\n        /* \"#utility.yul\":22776:22785   */\n      dup4\n        /* \"#utility.yul\":22772:22789   */\n      add\n        /* \"#utility.yul\":22765:22812   */\n      mstore\n        /* \"#utility.yul\":22829:22960   */\n      tag_825\n        /* \"#utility.yul\":22955:22959   */\n      dup2\n        /* \"#utility.yul\":22829:22960   */\n      tag_551\n      jump\t// in\n    tag_825:\n        /* \"#utility.yul\":22821:22960   */\n      swap1\n      pop\n        /* \"#utility.yul\":22548:22967   */\n      swap2\n      swap1\n      pop\n      jump\t// out\n        /* \"#utility.yul\":22973:23167   */\n    tag_214:\n        /* \"#utility.yul\":23013:23017   */\n      0x00\n        /* \"#utility.yul\":23033:23053   */\n      tag_827\n        /* \"#utility.yul\":23051:23052   */\n      dup3\n        /* \"#utility.yul\":23033:23053   */\n      tag_498\n      jump\t// in\n    tag_827:\n        /* \"#utility.yul\":23028:23053   */\n      swap2\n      pop\n        /* \"#utility.yul\":23067:23087   */\n      tag_828\n        /* \"#utility.yul\":23085:23086   */\n      dup4\n        /* \"#utility.yul\":23067:23087   */\n      tag_498\n      jump\t// in\n    tag_828:\n        /* \"#utility.yul\":23062:23087   */\n      swap3\n      pop\n        /* \"#utility.yul\":23111:23112   */\n      dup3\n        /* \"#utility.yul\":23108:23109   */\n      dup3\n        /* \"#utility.yul\":23104:23113   */\n      sub\n        /* \"#utility.yul\":23096:23113   */\n      swap1\n      pop\n        /* \"#utility.yul\":23135:23136   */\n      dup2\n        /* \"#utility.yul\":23129:23133   */\n      dup2\n        /* \"#utility.yul\":23126:23137   */\n      gt\n        /* \"#utility.yul\":23123:23160   */\n      iszero\n      tag_829\n      jumpi\n        /* \"#utility.yul\":23140:23158   */\n      tag_830\n      tag_540\n      jump\t// in\n    tag_830:\n        /* \"#utility.yul\":23123:23160   */\n    tag_829:\n        /* \"#utility.yul\":22973:23167   */\n      swap3\n      swap2\n      pop\n      pop\n      jump\t// out\n        /* \"#utility.yul\":23173:23355   */\n    tag_552:\n        /* \"#utility.yul\":23313:23347   */\n      0x55736572206e6f7420656e726f6c6c656420696e207468697320636f75727365\n        /* \"#utility.yul\":23309:23310   */\n      0x00\n        /* \"#utility.yul\":23301:23307   */\n      dup3\n        /* \"#utility.yul\":23297:23311   */\n      add\n        /* \"#utility.yul\":23290:23348   */\n      mstore\n        /* \"#utility.yul\":23173:23355   */\n      pop\n      jump\t// out\n        /* \"#utility.yul\":23361:23727   */\n    tag_553:\n        /* \"#utility.yul\":23503:23506   */\n      0x00\n        /* \"#utility.yul\":23524:23591   */\n      tag_833\n        /* \"#utility.yul\":23588:23590   */\n      0x20\n        /* \"#utility.yul\":23583:23586   */\n      dup4\n        /* \"#utility.yul\":23524:23591   */\n      tag_531\n      jump\t// in\n    tag_833:\n        /* \"#utility.yul\":23517:23591   */\n      swap2\n      pop\n        /* \"#utility.yul\":23600:23693   */\n      tag_834\n        /* \"#utility.yul\":23689:23692   */\n      dup3\n        /* \"#utility.yul\":23600:23693   */\n      tag_552\n      jump\t// in\n    tag_834:\n        /* \"#utility.yul\":23718:23720   */\n      0x20\n        /* \"#utility.yul\":23713:23716   */\n      dup3\n        /* \"#utility.yul\":23709:23721   */\n      add\n        /* \"#utility.yul\":23702:23721   */\n      swap1\n      pop\n        /* \"#utility.yul\":23361:23727   */\n      swap2\n      swap1\n      pop\n      jump\t// out\n        /* \"#utility.yul\":23733:24152   */\n    tag_221:\n        /* \"#utility.yul\":23899:23903   */\n      0x00\n        /* \"#utility.yul\":23937:23939   */\n      0x20\n        /* \"#utility.yul\":23926:23935   */\n      dup3\n        /* \"#utility.yul\":23922:23940   */\n      add\n        /* \"#utility.yul\":23914:23940   */\n      swap1\n      pop\n        /* \"#utility.yul\":23986:23995   */\n      dup2\n        /* \"#utility.yul\":23980:23984   */\n      dup2\n        /* \"#utility.yul\":23976:23996   */\n      sub\n        /* \"#utility.yul\":23972:23973   */\n      0x00\n        /* \"#utility.yul\":23961:23970   */\n      dup4\n        /* \"#utility.yul\":23957:23974   */\n      add\n        /* \"#utility.yul\":23950:23997   */\n      mstore\n        /* \"#utility.yul\":24014:24145   */\n      tag_836\n        /* \"#utility.yul\":24140:24144   */\n      dup2\n        /* \"#utility.yul\":24014:24145   */\n      tag_553\n      jump\t// in\n    tag_836:\n        /* \"#utility.yul\":24006:24145   */\n      swap1\n      pop\n        /* \"#utility.yul\":23733:24152   */\n      swap2\n      swap1\n      pop\n      jump\t// out\n        /* \"#utility.yul\":24158:24332   */\n    tag_554:\n        /* \"#utility.yul\":24298:24324   */\n      0x4d6178696d756d20617474656d70747320726561636865640000000000000000\n        /* \"#utility.yul\":24294:24295   */\n      0x00\n        /* \"#utility.yul\":24286:24292   */\n      dup3\n        /* \"#utility.yul\":24282:24296   */\n      add\n        /* \"#utility.yul\":24275:24325   */\n      mstore\n        /* \"#utility.yul\":24158:24332   */\n      pop\n      jump\t// out\n        /* \"#utility.yul\":24338:24704   */\n    tag_555:\n        /* \"#utility.yul\":24480:24483   */\n      0x00\n        /* \"#utility.yul\":24501:24568   */\n      tag_839\n        /* \"#utility.yul\":24565:24567   */\n      0x18\n        /* \"#utility.yul\":24560:24563   */\n      dup4\n        /* \"#utility.yul\":24501:24568   */\n      tag_531\n      jump\t// in\n    tag_839:\n        /* \"#utility.yul\":24494:24568   */\n      swap2\n      pop\n        /* \"#utility.yul\":24577:24670   */\n      tag_840\n        /* \"#utility.yul\":24666:24669   */\n      dup3\n        /* \"#utility.yul\":24577:24670   */\n      tag_554\n      jump\t// in\n    tag_840:\n        /* \"#utility.yul\":24695:24697   */\n      0x20\n        /* \"#utility.yul\":24690:24693   */\n      dup3\n        /* \"#utility.yul\":24686:24698   */\n      add\n        /* \"#utility.yul\":24679:24698   */\n      swap1\n      pop\n        /* \"#utility.yul\":24338:24704   */\n      swap2\n      swap1\n      pop\n      jump\t// out\n        /* \"#utility.yul\":24710:25129   */\n    tag_224:\n        /* \"#utility.yul\":24876:24880   */\n      0x00\n        /* \"#utility.yul\":24914:24916   */\n      0x20\n        /* \"#utility.yul\":24903:24912   */\n      dup3\n        /* \"#utility.yul\":24899:24917   */\n      add\n        /* \"#utility.yul\":24891:24917   */\n      swap1\n      pop\n        /* \"#utility.yul\":24963:24972   */\n      dup2\n        /* \"#utility.yul\":24957:24961   */\n      dup2\n        /* \"#utility.yul\":24953:24973   */\n      sub\n        /* \"#utility.yul\":24949:24950   */\n      0x00\n        /* \"#utility.yul\":24938:24947   */\n      dup4\n        /* \"#utility.yul\":24934:24951   */\n      add\n        /* \"#utility.yul\":24927:24974   */\n      mstore\n        /* \"#utility.yul\":24991:25122   */\n      tag_842\n        /* \"#utility.yul\":25117:25121   */\n      dup2\n        /* \"#utility.yul\":24991:25122   */\n      tag_555\n      jump\t// in\n    tag_842:\n        /* \"#utility.yul\":24983:25122   */\n      swap1\n      pop\n        /* \"#utility.yul\":24710:25129   */\n      swap2\n      swap1\n      pop\n      jump\t// out\n        /* \"#utility.yul\":25135:25357   */\n    tag_556:\n        /* \"#utility.yul\":25275:25309   */\n      0x557365722068617320616c726561647920706173736564207468697320636f75\n        /* \"#utility.yul\":25271:25272   */\n      0x00\n        /* \"#utility.yul\":25263:25269   */\n      dup3\n        /* \"#utility.yul\":25259:25273   */\n      add\n        /* \"#utility.yul\":25252:25310   */\n      mstore\n        /* \"#utility.yul\":25344:25349   */\n      0x7273650000000000000000000000000000000000000000000000000000000000\n        /* \"#utility.yul\":25339:25341   */\n      0x20\n        /* \"#utility.yul\":25331:25337   */\n      dup3\n        /* \"#utility.yul\":25327:25342   */\n      add\n        /* \"#utility.yul\":25320:25350   */\n      mstore\n        /* \"#utility.yul\":25135:25357   */\n      pop\n      jump\t// out\n        /* \"#utility.yul\":25363:25729   */\n    tag_557:\n        /* \"#utility.yul\":25505:25508   */\n      0x00\n        /* \"#utility.yul\":25526:25593   */\n      tag_845\n        /* \"#utility.yul\":25590:25592   */\n      0x23\n        /* \"#utility.yul\":25585:25588   */\n      dup4\n        /* \"#utility.yul\":25526:25593   */\n      tag_531\n      jump\t// in\n    tag_845:\n        /* \"#utility.yul\":25519:25593   */\n      swap2\n      pop\n        /* \"#utility.yul\":25602:25695   */\n      tag_846\n        /* \"#utility.yul\":25691:25694   */\n      dup3\n        /* \"#utility.yul\":25602:25695   */\n      tag_556\n      jump\t// in\n    tag_846:\n        /* \"#utility.yul\":25720:25722   */\n      0x40\n        /* \"#utility.yul\":25715:25718   */\n      dup3\n        /* \"#utility.yul\":25711:25723   */\n      add\n        /* \"#utility.yul\":25704:25723   */\n      swap1\n      pop\n        /* \"#utility.yul\":25363:25729   */\n      swap2\n      swap1\n      pop\n      jump\t// out\n        /* \"#utility.yul\":25735:26154   */\n    tag_227:\n        /* \"#utility.yul\":25901:25905   */\n      0x00\n        /* \"#utility.yul\":25939:25941   */\n      0x20\n        /* \"#utility.yul\":25928:25937   */\n      dup3\n        /* \"#utility.yul\":25924:25942   */\n      add\n        /* \"#utility.yul\":25916:25942   */\n      swap1\n      pop\n        /* \"#utility.yul\":25988:25997   */\n      dup2\n        /* \"#utility.yul\":25982:25986   */\n      dup2\n        /* \"#utility.yul\":25978:25998   */\n      sub\n        /* \"#utility.yul\":25974:25975   */\n      0x00\n        /* \"#utility.yul\":25963:25972   */\n      dup4\n        /* \"#utility.yul\":25959:25976   */\n      add\n        /* \"#utility.yul\":25952:25999   */\n      mstore\n        /* \"#utility.yul\":26016:26147   */\n      tag_848\n        /* \"#utility.yul\":26142:26146   */\n      dup2\n        /* \"#utility.yul\":26016:26147   */\n      tag_557\n      jump\t// in\n    tag_848:\n        /* \"#utility.yul\":26008:26147   */\n      swap1\n      pop\n        /* \"#utility.yul\":25735:26154   */\n      swap2\n      swap1\n      pop\n      jump\t// out\n        /* \"#utility.yul\":26160:26327   */\n    tag_229:\n        /* \"#utility.yul\":26197:26200   */\n      0x00\n        /* \"#utility.yul\":26220:26242   */\n      tag_850\n        /* \"#utility.yul\":26236:26241   */\n      dup3\n        /* \"#utility.yul\":26220:26242   */\n      tag_507\n      jump\t// in\n    tag_850:\n        /* \"#utility.yul\":26211:26242   */\n      swap2\n      pop\n        /* \"#utility.yul\":26264:26268   */\n      0xff\n        /* \"#utility.yul\":26257:26262   */\n      dup3\n        /* \"#utility.yul\":26254:26269   */\n      sub\n        /* \"#utility.yul\":26251:26292   */\n      tag_851\n      jumpi\n        /* \"#utility.yul\":26272:26290   */\n      tag_852\n      tag_540\n      jump\t// in\n    tag_852:\n        /* \"#utility.yul\":26251:26292   */\n    tag_851:\n        /* \"#utility.yul\":26319:26320   */\n      0x01\n        /* \"#utility.yul\":26312:26317   */\n      dup3\n        /* \"#utility.yul\":26308:26321   */\n      add\n        /* \"#utility.yul\":26301:26321   */\n      swap1\n      pop\n        /* \"#utility.yul\":26160:26327   */\n      swap2\n      swap1\n      pop\n      jump\t// out\n        /* \"#utility.yul\":26333:26513   */\n    tag_558:\n        /* \"#utility.yul\":26381:26458   */\n      0x4e487b7100000000000000000000000000000000000000000000000000000000\n        /* \"#utility.yul\":26378:26379   */\n      0x00\n        /* \"#utility.yul\":26371:26459   */\n      mstore\n        /* \"#utility.yul\":26478:26482   */\n      0x22\n        /* \"#utility.yul\":26475:26476   */\n      0x04\n        /* \"#utility.yul\":26468:26483   */\n      mstore\n        /* \"#utility.yul\":26502:26506   */\n      0x24\n        /* \"#utility.yul\":26499:26500   */\n      0x00\n        /* \"#utility.yul\":26492:26507   */\n      revert\n        /* \"#utility.yul\":26519:26839   */\n    tag_234:\n        /* \"#utility.yul\":26563:26569   */\n      0x00\n        /* \"#utility.yul\":26600:26601   */\n      0x02\n        /* \"#utility.yul\":26594:26598   */\n      dup3\n        /* \"#utility.yul\":26590:26602   */\n      div\n        /* \"#utility.yul\":26580:26602   */\n      swap1\n      pop\n        /* \"#utility.yul\":26647:26648   */\n      0x01\n        /* \"#utility.yul\":26641:26645   */\n      dup3\n        /* \"#utility.yul\":26637:26649   */\n      and\n        /* \"#utility.yul\":26668:26686   */\n      dup1\n        /* \"#utility.yul\":26658:26739   */\n      tag_855\n      jumpi\n        /* \"#utility.yul\":26724:26728   */\n      0x7f\n        /* \"#utility.yul\":26716:26722   */\n      dup3\n        /* \"#utility.yul\":26712:26729   */\n      and\n        /* \"#utility.yul\":26702:26729   */\n      swap2\n      pop\n        /* \"#utility.yul\":26658:26739   */\n    tag_855:\n        /* \"#utility.yul\":26786:26788   */\n      0x20\n        /* \"#utility.yul\":26778:26784   */\n      dup3\n        /* \"#utility.yul\":26775:26789   */\n      lt\n        /* \"#utility.yul\":26755:26773   */\n      dup2\n        /* \"#utility.yul\":26752:26790   */\n      sub\n        /* \"#utility.yul\":26749:26833   */\n      tag_856\n      jumpi\n        /* \"#utility.yul\":26805:26823   */\n      tag_857\n      tag_558\n      jump\t// in\n    tag_857:\n        /* \"#utility.yul\":26749:26833   */\n    tag_856:\n        /* \"#utility.yul\":26570:26839   */\n      pop\n        /* \"#utility.yul\":26519:26839   */\n      swap2\n      swap1\n      pop\n      jump\t// out\n        /* \"#utility.yul\":26845:27016   */\n    tag_559:\n        /* \"#utility.yul\":26985:27008   */\n      0x416e7377657220636f756e74206d69736d617463680000000000000000000000\n        /* \"#utility.yul\":26981:26982   */\n      0x00\n        /* \"#utility.yul\":26973:26979   */\n      dup3\n        /* \"#utility.yul\":26969:26983   */\n      add\n        /* \"#utility.yul\":26962:27009   */\n      mstore\n        /* \"#utility.yul\":26845:27016   */\n      pop\n      jump\t// out\n        /* \"#utility.yul\":27022:27388   */\n    tag_560:\n        /* \"#utility.yul\":27164:27167   */\n      0x00\n        /* \"#utility.yul\":27185:27252   */\n      tag_860\n        /* \"#utility.yul\":27249:27251   */\n      0x15\n        /* \"#utility.yul\":27244:27247   */\n      dup4\n        /* \"#utility.yul\":27185:27252   */\n      tag_531\n      jump\t// in\n    tag_860:\n        /* \"#utility.yul\":27178:27252   */\n      swap2\n      pop\n        /* \"#utility.yul\":27261:27354   */\n      tag_861\n        /* \"#utility.yul\":27350:27353   */\n      dup3\n        /* \"#utility.yul\":27261:27354   */\n      tag_559\n      jump\t// in\n    tag_861:\n        /* \"#utility.yul\":27379:27381   */\n      0x20\n        /* \"#utility.yul\":27374:27377   */\n      dup3\n        /* \"#utility.yul\":27370:27382   */\n      add\n        /* \"#utility.yul\":27363:27382   */\n      swap1\n      pop\n        /* \"#utility.yul\":27022:27388   */\n      swap2\n      swap1\n      pop\n      jump\t// out\n        /* \"#utility.yul\":27394:27813   */\n    tag_261:\n        /* \"#utility.yul\":27560:27564   */\n      0x00\n        /* \"#utility.yul\":27598:27600   */\n      0x20\n        /* \"#utility.yul\":27587:27596   */\n      dup3\n        /* \"#utility.yul\":27583:27601   */\n      add\n        /* \"#utility.yul\":27575:27601   */\n      swap1\n      pop\n        /* \"#utility.yul\":27647:27656   */\n      dup2\n        /* \"#utility.yul\":27641:27645   */\n      dup2\n        /* \"#utility.yul\":27637:27657   */\n      sub\n        /* \"#utility.yul\":27633:27634   */\n      0x00\n        /* \"#utility.yul\":27622:27631   */\n      dup4\n        /* \"#utility.yul\":27618:27635   */\n      add\n        /* \"#utility.yul\":27611:27658   */\n      mstore\n        /* \"#utility.yul\":27675:27806   */\n      tag_863\n        /* \"#utility.yul\":27801:27805   */\n      dup2\n        /* \"#utility.yul\":27675:27806   */\n      tag_560\n      jump\t// in\n    tag_863:\n        /* \"#utility.yul\":27667:27806   */\n      swap1\n      pop\n        /* \"#utility.yul\":27394:27813   */\n      swap2\n      swap1\n      pop\n      jump\t// out\n        /* \"#utility.yul\":27819:27999   */\n    tag_267:\n        /* \"#utility.yul\":27867:27944   */\n      0x4e487b7100000000000000000000000000000000000000000000000000000000\n        /* \"#utility.yul\":27864:27865   */\n      0x00\n        /* \"#utility.yul\":27857:27945   */\n      mstore\n        /* \"#utility.yul\":27964:27968   */\n      0x32\n        /* \"#utility.yul\":27961:27962   */\n      0x04\n        /* \"#utility.yul\":27954:27969   */\n      mstore\n        /* \"#utility.yul\":27988:27992   */\n      0x24\n        /* \"#utility.yul\":27985:27986   */\n      0x00\n        /* \"#utility.yul\":27978:27993   */\n      revert\n        /* \"#utility.yul\":28005:28153   */\n    tag_561:\n        /* \"#utility.yul\":28107:28118   */\n      0x00\n        /* \"#utility.yul\":28144:28147   */\n      dup2\n        /* \"#utility.yul\":28129:28147   */\n      swap1\n      pop\n        /* \"#utility.yul\":28005:28153   */\n      swap3\n      swap2\n      pop\n      pop\n      jump\t// out\n        /* \"#utility.yul\":28159:28549   */\n    tag_562:\n        /* \"#utility.yul\":28265:28268   */\n      0x00\n        /* \"#utility.yul\":28293:28332   */\n      tag_867\n        /* \"#utility.yul\":28326:28331   */\n      dup3\n        /* \"#utility.yul\":28293:28332   */\n      tag_530\n      jump\t// in\n    tag_867:\n        /* \"#utility.yul\":28348:28437   */\n      tag_868\n        /* \"#utility.yul\":28430:28436   */\n      dup2\n        /* \"#utility.yul\":28425:28428   */\n      dup6\n        /* \"#utility.yul\":28348:28437   */\n      tag_561\n      jump\t// in\n    tag_868:\n        /* \"#utility.yul\":28341:28437   */\n      swap4\n      pop\n        /* \"#utility.yul\":28446:28511   */\n      tag_869\n        /* \"#utility.yul\":28504:28510   */\n      dup2\n        /* \"#utility.yul\":28499:28502   */\n      dup6\n        /* \"#utility.yul\":28492:28496   */\n      0x20\n        /* \"#utility.yul\":28485:28490   */\n      dup7\n        /* \"#utility.yul\":28481:28497   */\n      add\n        /* \"#utility.yul\":28446:28511   */\n      tag_532\n      jump\t// in\n    tag_869:\n        /* \"#utility.yul\":28536:28542   */\n      dup1\n        /* \"#utility.yul\":28531:28534   */\n      dup5\n        /* \"#utility.yul\":28527:28543   */\n      add\n        /* \"#utility.yul\":28520:28543   */\n      swap2\n      pop\n        /* \"#utility.yul\":28269:28549   */\n      pop\n        /* \"#utility.yul\":28159:28549   */\n      swap3\n      swap2\n      pop\n      pop\n      jump\t// out\n        /* \"#utility.yul\":28555:28830   */\n    tag_271:\n        /* \"#utility.yul\":28687:28690   */\n      0x00\n        /* \"#utility.yul\":28709:28804   */\n      tag_871\n        /* \"#utility.yul\":28800:28803   */\n      dup3\n        /* \"#utility.yul\":28791:28797   */\n      dup5\n        /* \"#utility.yul\":28709:28804   */\n      tag_562\n      jump\t// in\n    tag_871:\n        /* \"#utility.yul\":28702:28804   */\n      swap2\n      pop\n        /* \"#utility.yul\":28821:28824   */\n      dup2\n        /* \"#utility.yul\":28814:28824   */\n      swap1\n      pop\n        /* \"#utility.yul\":28555:28830   */\n      swap3\n      swap2\n      pop\n      pop\n      jump\t// out\n        /* \"#utility.yul\":28836:29011   */\n    tag_275:\n        /* \"#utility.yul\":28874:28877   */\n      0x00\n        /* \"#utility.yul\":28897:28920   */\n      tag_873\n        /* \"#utility.yul\":28914:28919   */\n      dup3\n        /* \"#utility.yul\":28897:28920   */\n      tag_534\n      jump\t// in\n    tag_873:\n        /* \"#utility.yul\":28888:28920   */\n      swap2\n      pop\n        /* \"#utility.yul\":28942:28952   */\n      0xffffffff\n        /* \"#utility.yul\":28935:28940   */\n      dup3\n        /* \"#utility.yul\":28932:28953   */\n      sub\n        /* \"#utility.yul\":28929:28976   */\n      tag_874\n      jumpi\n        /* \"#utility.yul\":28956:28974   */\n      tag_875\n      tag_540\n      jump\t// in\n    tag_875:\n        /* \"#utility.yul\":28929:28976   */\n    tag_874:\n        /* \"#utility.yul\":29003:29004   */\n      0x01\n        /* \"#utility.yul\":28996:29001   */\n      dup3\n        /* \"#utility.yul\":28992:29005   */\n      add\n        /* \"#utility.yul\":28985:29005   */\n      swap1\n      pop\n        /* \"#utility.yul\":28836:29011   */\n      swap2\n      swap1\n      pop\n      jump\t// out\n        /* \"#utility.yul\":29017:29186   */\n    tag_563:\n        /* \"#utility.yul\":29157:29178   */\n      0x4661696c656420746f2073656e64204d414e4400000000000000000000000000\n        /* \"#utility.yul\":29153:29154   */\n      0x00\n        /* \"#utility.yul\":29145:29151   */\n      dup3\n        /* \"#utility.yul\":29141:29155   */\n      add\n        /* \"#utility.yul\":29134:29179   */\n      mstore\n        /* \"#utility.yul\":29017:29186   */\n      pop\n      jump\t// out\n        /* \"#utility.yul\":29192:29558   */\n    tag_564:\n        /* \"#utility.yul\":29334:29337   */\n      0x00\n        /* \"#utility.yul\":29355:29422   */\n      tag_878\n        /* \"#utility.yul\":29419:29421   */\n      0x13\n        /* \"#utility.yul\":29414:29417   */\n      dup4\n        /* \"#utility.yul\":29355:29422   */\n      tag_531\n      jump\t// in\n    tag_878:\n        /* \"#utility.yul\":29348:29422   */\n      swap2\n      pop\n        /* \"#utility.yul\":29431:29524   */\n      tag_879\n        /* \"#utility.yul\":29520:29523   */\n      dup3\n        /* \"#utility.yul\":29431:29524   */\n      tag_563\n      jump\t// in\n    tag_879:\n        /* \"#utility.yul\":29549:29551   */\n      0x20\n        /* \"#utility.yul\":29544:29547   */\n      dup3\n        /* \"#utility.yul\":29540:29552   */\n      add\n        /* \"#utility.yul\":29533:29552   */\n      swap1\n      pop\n        /* \"#utility.yul\":29192:29558   */\n      swap2\n      swap1\n      pop\n      jump\t// out\n        /* \"#utility.yul\":29564:29983   */\n    tag_283:\n        /* \"#utility.yul\":29730:29734   */\n      0x00\n        /* \"#utility.yul\":29768:29770   */\n      0x20\n        /* \"#utility.yul\":29757:29766   */\n      dup3\n        /* \"#utility.yul\":29753:29771   */\n      add\n        /* \"#utility.yul\":29745:29771   */\n      swap1\n      pop\n        /* \"#utility.yul\":29817:29826   */\n      dup2\n        /* \"#utility.yul\":29811:29815   */\n      dup2\n        /* \"#utility.yul\":29807:29827   */\n      sub\n        /* \"#utility.yul\":29803:29804   */\n      0x00\n        /* \"#utility.yul\":29792:29801   */\n      dup4\n        /* \"#utility.yul\":29788:29805   */\n      add\n        /* \"#utility.yul\":29781:29828   */\n      mstore\n        /* \"#utility.yul\":29845:29976   */\n      tag_881\n        /* \"#utility.yul\":29971:29975   */\n      dup2\n        /* \"#utility.yul\":29845:29976   */\n      tag_564\n      jump\t// in\n    tag_881:\n        /* \"#utility.yul\":29837:29976   */\n      swap1\n      pop\n        /* \"#utility.yul\":29564:29983   */\n      swap2\n      swap1\n      pop\n      jump\t// out\n        /* \"#utility.yul\":29989:30132   */\n    tag_565:\n        /* \"#utility.yul\":30046:30051   */\n      0x00\n        /* \"#utility.yul\":30077:30083   */\n      dup2\n        /* \"#utility.yul\":30071:30084   */\n      mload\n        /* \"#utility.yul\":30062:30084   */\n      swap1\n      pop\n        /* \"#utility.yul\":30093:30126   */\n      tag_883\n        /* \"#utility.yul\":30120:30125   */\n      dup2\n        /* \"#utility.yul\":30093:30126   */\n      tag_499\n      jump\t// in\n    tag_883:\n        /* \"#utility.yul\":29989:30132   */\n      swap3\n      swap2\n      pop\n      pop\n      jump\t// out\n        /* \"#utility.yul\":30138:30489   */\n    tag_302:\n        /* \"#utility.yul\":30208:30214   */\n      0x00\n        /* \"#utility.yul\":30257:30259   */\n      0x20\n        /* \"#utility.yul\":30245:30254   */\n      dup3\n        /* \"#utility.yul\":30236:30243   */\n      dup5\n        /* \"#utility.yul\":30232:30255   */\n      sub\n        /* \"#utility.yul\":30228:30260   */\n      slt\n        /* \"#utility.yul\":30225:30344   */\n      iszero\n      tag_885\n      jumpi\n        /* \"#utility.yul\":30263:30342   */\n      tag_886\n      tag_496\n      jump\t// in\n    tag_886:\n        /* \"#utility.yul\":30225:30344   */\n    tag_885:\n        /* \"#utility.yul\":30383:30384   */\n      0x00\n        /* \"#utility.yul\":30408:30472   */\n      tag_887\n        /* \"#utility.yul\":30464:30471   */\n      dup5\n        /* \"#utility.yul\":30455:30461   */\n      dup3\n        /* \"#utility.yul\":30444:30453   */\n      dup6\n        /* \"#utility.yul\":30440:30462   */\n      add\n        /* \"#utility.yul\":30408:30472   */\n      tag_565\n      jump\t// in\n    tag_887:\n        /* \"#utility.yul\":30398:30472   */\n      swap2\n      pop\n        /* \"#utility.yul\":30354:30482   */\n      pop\n        /* \"#utility.yul\":30138:30489   */\n      swap3\n      swap2\n      pop\n      pop\n      jump\t// out\n        /* \"#utility.yul\":30495:30715   */\n    tag_566:\n        /* \"#utility.yul\":30635:30669   */\n      0x496e73756666696369656e742072657075746174696f6e20746f20656e726f6c\n        /* \"#utility.yul\":30631:30632   */\n      0x00\n        /* \"#utility.yul\":30623:30629   */\n      dup3\n        /* \"#utility.yul\":30619:30633   */\n      add\n        /* \"#utility.yul\":30612:30670   */\n      mstore\n        /* \"#utility.yul\":30704:30707   */\n      0x6c00000000000000000000000000000000000000000000000000000000000000\n        /* \"#utility.yul\":30699:30701   */\n      0x20\n        /* \"#utility.yul\":30691:30697   */\n      dup3\n        /* \"#utility.yul\":30687:30702   */\n      add\n        /* \"#utility.yul\":30680:30708   */\n      mstore\n        /* \"#utility.yul\":30495:30715   */\n      pop\n      jump\t// out\n        /* \"#utility.yul\":30721:31087   */\n    tag_567:\n        /* \"#utility.yul\":30863:30866   */\n      0x00\n        /* \"#utility.yul\":30884:30951   */\n      tag_890\n        /* \"#utility.yul\":30948:30950   */\n      0x21\n        /* \"#utility.yul\":30943:30946   */\n      dup4\n        /* \"#utility.yul\":30884:30951   */\n      tag_531\n      jump\t// in\n    tag_890:\n        /* \"#utility.yul\":30877:30951   */\n      swap2\n      pop\n        /* \"#utility.yul\":30960:31053   */\n      tag_891\n        /* \"#utility.yul\":31049:31052   */\n      dup3\n        /* \"#utility.yul\":30960:31053   */\n      tag_566\n      jump\t// in\n    tag_891:\n        /* \"#utility.yul\":31078:31080   */\n      0x40\n        /* \"#utility.yul\":31073:31076   */\n      dup3\n        /* \"#utility.yul\":31069:31081   */\n      add\n        /* \"#utility.yul\":31062:31081   */\n      swap1\n      pop\n        /* \"#utility.yul\":30721:31087   */\n      swap2\n      swap1\n      pop\n      jump\t// out\n        /* \"#utility.yul\":31093:31512   */\n    tag_305:\n        /* \"#utility.yul\":31259:31263   */\n      0x00\n        /* \"#utility.yul\":31297:31299   */\n      0x20\n        /* \"#utility.yul\":31286:31295   */\n      dup3\n        /* \"#utility.yul\":31282:31300   */\n      add\n        /* \"#utility.yul\":31274:31300   */\n      swap1\n      pop\n        /* \"#utility.yul\":31346:31355   */\n      dup2\n        /* \"#utility.yul\":31340:31344   */\n      dup2\n        /* \"#utility.yul\":31336:31356   */\n      sub\n        /* \"#utility.yul\":31332:31333   */\n      0x00\n        /* \"#utility.yul\":31321:31330   */\n      dup4\n        /* \"#utility.yul\":31317:31334   */\n      add\n        /* \"#utility.yul\":31310:31357   */\n      mstore\n        /* \"#utility.yul\":31374:31505   */\n      tag_893\n        /* \"#utility.yul\":31500:31504   */\n      dup2\n        /* \"#utility.yul\":31374:31505   */\n      tag_567\n      jump\t// in\n    tag_893:\n        /* \"#utility.yul\":31366:31505   */\n      swap1\n      pop\n        /* \"#utility.yul\":31093:31512   */\n      swap2\n      swap1\n      pop\n      jump\t// out\n        /* \"#utility.yul\":31518:31687   */\n    tag_568:\n        /* \"#utility.yul\":31658:31679   */\n      0x436f75727365206e6f7420617070726f76656400000000000000000000000000\n        /* \"#utility.yul\":31654:31655   */\n      0x00\n        /* \"#utility.yul\":31646:31652   */\n      dup3\n        /* \"#utility.yul\":31642:31656   */\n      add\n        /* \"#utility.yul\":31635:31680   */\n      mstore\n        /* \"#utility.yul\":31518:31687   */\n      pop\n      jump\t// out\n        /* \"#utility.yul\":31693:32059   */\n    tag_569:\n        /* \"#utility.yul\":31835:31838   */\n      0x00\n        /* \"#utility.yul\":31856:31923   */\n      tag_896\n        /* \"#utility.yul\":31920:31922   */\n      0x13\n        /* \"#utility.yul\":31915:31918   */\n      dup4\n        /* \"#utility.yul\":31856:31923   */\n      tag_531\n      jump\t// in\n    tag_896:\n        /* \"#utility.yul\":31849:31923   */\n      swap2\n      pop\n        /* \"#utility.yul\":31932:32025   */\n      tag_897\n        /* \"#utility.yul\":32021:32024   */\n      dup3\n        /* \"#utility.yul\":31932:32025   */\n      tag_568\n      jump\t// in\n    tag_897:\n        /* \"#utility.yul\":32050:32052   */\n      0x20\n        /* \"#utility.yul\":32045:32048   */\n      dup3\n        /* \"#utility.yul\":32041:32053   */\n      add\n        /* \"#utility.yul\":32034:32053   */\n      swap1\n      pop\n        /* \"#utility.yul\":31693:32059   */\n      swap2\n      swap1\n      pop\n      jump\t// out\n        /* \"#utility.yul\":32065:32484   */\n    tag_308:\n        /* \"#utility.yul\":32231:32235   */\n      0x00\n        /* \"#utility.yul\":32269:32271   */\n      0x20\n        /* \"#utility.yul\":32258:32267   */\n      dup3\n        /* \"#utility.yul\":32254:32272   */\n      add\n        /* \"#utility.yul\":32246:32272   */\n      swap1\n      pop\n        /* \"#utility.yul\":32318:32327   */\n      dup2\n        /* \"#utility.yul\":32312:32316   */\n      dup2\n        /* \"#utility.yul\":32308:32328   */\n      sub\n        /* \"#utility.yul\":32304:32305   */\n      0x00\n        /* \"#utility.yul\":32293:32302   */\n      dup4\n        /* \"#utility.yul\":32289:32306   */\n      add\n        /* \"#utility.yul\":32282:32329   */\n      mstore\n        /* \"#utility.yul\":32346:32477   */\n      tag_899\n        /* \"#utility.yul\":32472:32476   */\n      dup2\n        /* \"#utility.yul\":32346:32477   */\n      tag_569\n      jump\t// in\n    tag_899:\n        /* \"#utility.yul\":32338:32477   */\n      swap1\n      pop\n        /* \"#utility.yul\":32065:32484   */\n      swap2\n      swap1\n      pop\n      jump\t// out\n        /* \"#utility.yul\":32490:32656   */\n    tag_570:\n        /* \"#utility.yul\":32630:32648   */\n      0x416c726561647920656e726f6c6c656400000000000000000000000000000000\n        /* \"#utility.yul\":32626:32627   */\n      0x00\n        /* \"#utility.yul\":32618:32624   */\n      dup3\n        /* \"#utility.yul\":32614:32628   */\n      add\n        /* \"#utility.yul\":32607:32649   */\n      mstore\n        /* \"#utility.yul\":32490:32656   */\n      pop\n      jump\t// out\n        /* \"#utility.yul\":32662:33028   */\n    tag_571:\n        /* \"#utility.yul\":32804:32807   */\n      0x00\n        /* \"#utility.yul\":32825:32892   */\n      tag_902\n        /* \"#utility.yul\":32889:32891   */\n      0x10\n        /* \"#utility.yul\":32884:32887   */\n      dup4\n        /* \"#utility.yul\":32825:32892   */\n      tag_531\n      jump\t// in\n    tag_902:\n        /* \"#utility.yul\":32818:32892   */\n      swap2\n      pop\n        /* \"#utility.yul\":32901:32994   */\n      tag_903\n        /* \"#utility.yul\":32990:32993   */\n      dup3\n        /* \"#utility.yul\":32901:32994   */\n      tag_570\n      jump\t// in\n    tag_903:\n        /* \"#utility.yul\":33019:33021   */\n      0x20\n        /* \"#utility.yul\":33014:33017   */\n      dup3\n        /* \"#utility.yul\":33010:33022   */\n      add\n        /* \"#utility.yul\":33003:33022   */\n      swap1\n      pop\n        /* \"#utility.yul\":32662:33028   */\n      swap2\n      swap1\n      pop\n      jump\t// out\n        /* \"#utility.yul\":33034:33453   */\n    tag_311:\n        /* \"#utility.yul\":33200:33204   */\n      0x00\n        /* \"#utility.yul\":33238:33240   */\n      0x20\n        /* \"#utility.yul\":33227:33236   */\n      dup3\n        /* \"#utility.yul\":33223:33241   */\n      add\n        /* \"#utility.yul\":33215:33241   */\n      swap1\n      pop\n        /* \"#utility.yul\":33287:33296   */\n      dup2\n        /* \"#utility.yul\":33281:33285   */\n      dup2\n        /* \"#utility.yul\":33277:33297   */\n      sub\n        /* \"#utility.yul\":33273:33274   */\n      0x00\n        /* \"#utility.yul\":33262:33271   */\n      dup4\n        /* \"#utility.yul\":33258:33275   */\n      add\n        /* \"#utility.yul\":33251:33298   */\n      mstore\n        /* \"#utility.yul\":33315:33446   */\n      tag_905\n        /* \"#utility.yul\":33441:33445   */\n      dup2\n        /* \"#utility.yul\":33315:33446   */\n      tag_571\n      jump\t// in\n    tag_905:\n        /* \"#utility.yul\":33307:33446   */\n      swap1\n      pop\n        /* \"#utility.yul\":33034:33453   */\n      swap2\n      swap1\n      pop\n      jump\t// out\n        /* \"#utility.yul\":33459:33632   */\n    tag_572:\n        /* \"#utility.yul\":33599:33624   */\n      0x436f7572736520616c726561647920617070726f766564000000000000000000\n        /* \"#utility.yul\":33595:33596   */\n      0x00\n        /* \"#utility.yul\":33587:33593   */\n      dup3\n        /* \"#utility.yul\":33583:33597   */\n      add\n        /* \"#utility.yul\":33576:33625   */\n      mstore\n        /* \"#utility.yul\":33459:33632   */\n      pop\n      jump\t// out\n        /* \"#utility.yul\":33638:34004   */\n    tag_573:\n        /* \"#utility.yul\":33780:33783   */\n      0x00\n        /* \"#utility.yul\":33801:33868   */\n      tag_908\n        /* \"#utility.yul\":33865:33867   */\n      0x17\n        /* \"#utility.yul\":33860:33863   */\n      dup4\n        /* \"#utility.yul\":33801:33868   */\n      tag_531\n      jump\t// in\n    tag_908:\n        /* \"#utility.yul\":33794:33868   */\n      swap2\n      pop\n        /* \"#utility.yul\":33877:33970   */\n      tag_909\n        /* \"#utility.yul\":33966:33969   */\n      dup3\n        /* \"#utility.yul\":33877:33970   */\n      tag_572\n      jump\t// in\n    tag_909:\n        /* \"#utility.yul\":33995:33997   */\n      0x20\n        /* \"#utility.yul\":33990:33993   */\n      dup3\n        /* \"#utility.yul\":33986:33998   */\n      add\n        /* \"#utility.yul\":33979:33998   */\n      swap1\n      pop\n        /* \"#utility.yul\":33638:34004   */\n      swap2\n      swap1\n      pop\n      jump\t// out\n        /* \"#utility.yul\":34010:34429   */\n    tag_323:\n        /* \"#utility.yul\":34176:34180   */\n      0x00\n        /* \"#utility.yul\":34214:34216   */\n      0x20\n        /* \"#utility.yul\":34203:34212   */\n      dup3\n        /* \"#utility.yul\":34199:34217   */\n      add\n        /* \"#utility.yul\":34191:34217   */\n      swap1\n      pop\n        /* \"#utility.yul\":34263:34272   */\n      dup2\n        /* \"#utility.yul\":34257:34261   */\n      dup2\n        /* \"#utility.yul\":34253:34273   */\n      sub\n        /* \"#utility.yul\":34249:34250   */\n      0x00\n        /* \"#utility.yul\":34238:34247   */\n      dup4\n        /* \"#utility.yul\":34234:34251   */\n      add\n        /* \"#utility.yul\":34227:34274   */\n      mstore\n        /* \"#utility.yul\":34291:34422   */\n      tag_911\n        /* \"#utility.yul\":34417:34421   */\n      dup2\n        /* \"#utility.yul\":34291:34422   */\n      tag_573\n      jump\t// in\n    tag_911:\n        /* \"#utility.yul\":34283:34422   */\n      swap1\n      pop\n        /* \"#utility.yul\":34010:34429   */\n      swap2\n      swap1\n      pop\n      jump\t// out\n        /* \"#utility.yul\":34435:34662   */\n    tag_574:\n        /* \"#utility.yul\":34575:34609   */\n      0x496e73756666696369656e742072657075746174696f6e20746f206372656174\n        /* \"#utility.yul\":34571:34572   */\n      0x00\n        /* \"#utility.yul\":34563:34569   */\n      dup3\n        /* \"#utility.yul\":34559:34573   */\n      add\n        /* \"#utility.yul\":34552:34610   */\n      mstore\n        /* \"#utility.yul\":34644:34654   */\n      0x6520636f75727365000000000000000000000000000000000000000000000000\n        /* \"#utility.yul\":34639:34641   */\n      0x20\n        /* \"#utility.yul\":34631:34637   */\n      dup3\n        /* \"#utility.yul\":34627:34642   */\n      add\n        /* \"#utility.yul\":34620:34655   */\n      mstore\n        /* \"#utility.yul\":34435:34662   */\n      pop\n      jump\t// out\n        /* \"#utility.yul\":34668:35034   */\n    tag_575:\n        /* \"#utility.yul\":34810:34813   */\n      0x00\n        /* \"#utility.yul\":34831:34898   */\n      tag_914\n        /* \"#utility.yul\":34895:34897   */\n      0x28\n        /* \"#utility.yul\":34890:34893   */\n      dup4\n        /* \"#utility.yul\":34831:34898   */\n      tag_531\n      jump\t// in\n    tag_914:\n        /* \"#utility.yul\":34824:34898   */\n      swap2\n      pop\n        /* \"#utility.yul\":34907:35000   */\n      tag_915\n        /* \"#utility.yul\":34996:34999   */\n      dup3\n        /* \"#utility.yul\":34907:35000   */\n      tag_574\n      jump\t// in\n    tag_915:\n        /* \"#utility.yul\":35025:35027   */\n      0x40\n        /* \"#utility.yul\":35020:35023   */\n      dup3\n        /* \"#utility.yul\":35016:35028   */\n      add\n        /* \"#utility.yul\":35009:35028   */\n      swap1\n      pop\n        /* \"#utility.yul\":34668:35034   */\n      swap2\n      swap1\n      pop\n      jump\t// out\n        /* \"#utility.yul\":35040:35459   */\n    tag_341:\n        /* \"#utility.yul\":35206:35210   */\n      0x00\n        /* \"#utility.yul\":35244:35246   */\n      0x20\n        /* \"#utility.yul\":35233:35242   */\n      dup3\n        /* \"#utility.yul\":35229:35247   */\n      add\n        /* \"#utility.yul\":35221:35247   */\n      swap1\n      pop\n        /* \"#utility.yul\":35293:35302   */\n      dup2\n        /* \"#utility.yul\":35287:35291   */\n      dup2\n        /* \"#utility.yul\":35283:35303   */\n      sub\n        /* \"#utility.yul\":35279:35280   */\n      0x00\n        /* \"#utility.yul\":35268:35277   */\n      dup4\n        /* \"#utility.yul\":35264:35281   */\n      add\n        /* \"#utility.yul\":35257:35304   */\n      mstore\n        /* \"#utility.yul\":35321:35452   */\n      tag_917\n        /* \"#utility.yul\":35447:35451   */\n      dup2\n        /* \"#utility.yul\":35321:35452   */\n      tag_575\n      jump\t// in\n    tag_917:\n        /* \"#utility.yul\":35313:35452   */\n      swap1\n      pop\n        /* \"#utility.yul\":35040:35459   */\n      swap2\n      swap1\n      pop\n      jump\t// out\n        /* \"#utility.yul\":35465:35632   */\n    tag_576:\n        /* \"#utility.yul\":35605:35624   */\n      0x496e76616c6964207175697a2064617461000000000000000000000000000000\n        /* \"#utility.yul\":35601:35602   */\n      0x00\n        /* \"#utility.yul\":35593:35599   */\n      dup3\n        /* \"#utility.yul\":35589:35603   */\n      add\n        /* \"#utility.yul\":35582:35625   */\n      mstore\n        /* \"#utility.yul\":35465:35632   */\n      pop\n      jump\t// out\n        /* \"#utility.yul\":35638:36004   */\n    tag_577:\n        /* \"#utility.yul\":35780:35783   */\n      0x00\n        /* \"#utility.yul\":35801:35868   */\n      tag_920\n        /* \"#utility.yul\":35865:35867   */\n      0x11\n        /* \"#utility.yul\":35860:35863   */\n      dup4\n        /* \"#utility.yul\":35801:35868   */\n      tag_531\n      jump\t// in\n    tag_920:\n        /* \"#utility.yul\":35794:35868   */\n      swap2\n      pop\n        /* \"#utility.yul\":35877:35970   */\n      tag_921\n        /* \"#utility.yul\":35966:35969   */\n      dup3\n        /* \"#utility.yul\":35877:35970   */\n      tag_576\n      jump\t// in\n    tag_921:\n        /* \"#utility.yul\":35995:35997   */\n      0x20\n        /* \"#utility.yul\":35990:35993   */\n      dup3\n        /* \"#utility.yul\":35986:35998   */\n      add\n        /* \"#utility.yul\":35979:35998   */\n      swap1\n      pop\n        /* \"#utility.yul\":35638:36004   */\n      swap2\n      swap1\n      pop\n      jump\t// out\n        /* \"#utility.yul\":36010:36429   */\n    tag_349:\n        /* \"#utility.yul\":36176:36180   */\n      0x00\n        /* \"#utility.yul\":36214:36216   */\n      0x20\n        /* \"#utility.yul\":36203:36212   */\n      dup3\n        /* \"#utility.yul\":36199:36217   */\n      add\n        /* \"#utility.yul\":36191:36217   */\n      swap1\n      pop\n        /* \"#utility.yul\":36263:36272   */\n      dup2\n        /* \"#utility.yul\":36257:36261   */\n      dup2\n        /* \"#utility.yul\":36253:36273   */\n      sub\n        /* \"#utility.yul\":36249:36250   */\n      0x00\n        /* \"#utility.yul\":36238:36247   */\n      dup4\n        /* \"#utility.yul\":36234:36251   */\n      add\n        /* \"#utility.yul\":36227:36274   */\n      mstore\n        /* \"#utility.yul\":36291:36422   */\n      tag_923\n        /* \"#utility.yul\":36417:36421   */\n      dup2\n        /* \"#utility.yul\":36291:36422   */\n      tag_577\n      jump\t// in\n    tag_923:\n        /* \"#utility.yul\":36283:36422   */\n      swap1\n      pop\n        /* \"#utility.yul\":36010:36429   */\n      swap2\n      swap1\n      pop\n      jump\t// out\n        /* \"#utility.yul\":36435:36668   */\n    tag_351:\n        /* \"#utility.yul\":36474:36477   */\n      0x00\n        /* \"#utility.yul\":36497:36521   */\n      tag_925\n        /* \"#utility.yul\":36515:36520   */\n      dup3\n        /* \"#utility.yul\":36497:36521   */\n      tag_498\n      jump\t// in\n    tag_925:\n        /* \"#utility.yul\":36488:36521   */\n      swap2\n      pop\n        /* \"#utility.yul\":36543:36609   */\n      0xffffffffffffffffffffffffffffffffffffffffffffffffffffffffffffffff\n        /* \"#utility.yul\":36536:36541   */\n      dup3\n        /* \"#utility.yul\":36533:36610   */\n      sub\n        /* \"#utility.yul\":36530:36633   */\n      tag_926\n      jumpi\n        /* \"#utility.yul\":36613:36631   */\n      tag_927\n      tag_540\n      jump\t// in\n    tag_927:\n        /* \"#utility.yul\":36530:36633   */\n    tag_926:\n        /* \"#utility.yul\":36660:36661   */\n      0x01\n        /* \"#utility.yul\":36653:36658   */\n      dup3\n        /* \"#utility.yul\":36649:36662   */\n      add\n        /* \"#utility.yul\":36642:36662   */\n      swap1\n      pop\n        /* \"#utility.yul\":36435:36668   */\n      swap2\n      swap1\n      pop\n      jump\t// out\n        /* \"#utility.yul\":36674:36815   */\n    tag_578:\n        /* \"#utility.yul\":36723:36727   */\n      0x00\n        /* \"#utility.yul\":36746:36749   */\n      dup2\n        /* \"#utility.yul\":36738:36749   */\n      swap1\n      pop\n        /* \"#utility.yul\":36769:36772   */\n      dup2\n        /* \"#utility.yul\":36766:36767   */\n      0x00\n        /* \"#utility.yul\":36759:36773   */\n      mstore\n        /* \"#utility.yul\":36803:36807   */\n      0x20\n        /* \"#utility.yul\":36800:36801   */\n      0x00\n        /* \"#utility.yul\":36790:36808   */\n      keccak256\n        /* \"#utility.yul\":36782:36808   */\n      swap1\n      pop\n        /* \"#utility.yul\":36674:36815   */\n      swap2\n      swap1\n      pop\n      jump\t// out\n        /* \"#utility.yul\":36821:36914   */\n    tag_579:\n        /* \"#utility.yul\":36858:36864   */\n      0x00\n        /* \"#utility.yul\":36905:36907   */\n      0x20\n        /* \"#utility.yul\":36900:36902   */\n      0x1f\n        /* \"#utility.yul\":36893:36898   */\n      dup4\n        /* \"#utility.yul\":36889:36903   */\n      add\n        /* \"#utility.yul\":36885:36908   */\n      div\n        /* \"#utility.yul\":36875:36908   */\n      swap1\n      pop\n        /* \"#utility.yul\":36821:36914   */\n      swap2\n      swap1\n      pop\n      jump\t// out\n        /* \"#utility.yul\":36920:37027   */\n    tag_580:\n        /* \"#utility.yul\":36964:36972   */\n      0x00\n        /* \"#utility.yul\":37014:37019   */\n      dup3\n        /* \"#utility.yul\":37008:37012   */\n      dup3\n        /* \"#utility.yul\":37004:37020   */\n      shl\n        /* \"#utility.yul\":36983:37020   */\n      swap1\n      pop\n        /* \"#utility.yul\":36920:37027   */\n      swap3\n      swap2\n      pop\n      pop\n      jump\t// out\n        /* \"#utility.yul\":37033:37426   */\n    tag_581:\n        /* \"#utility.yul\":37102:37108   */\n      0x00\n        /* \"#utility.yul\":37152:37153   */\n      0x08\n        /* \"#utility.yul\":37140:37150   */\n      dup4\n        /* \"#utility.yul\":37136:37154   */\n      mul\n        /* \"#utility.yul\":37175:37272   */\n      tag_932\n        /* \"#utility.yul\":37205:37271   */\n      0xffffffffffffffffffffffffffffffffffffffffffffffffffffffffffffffff\n        /* \"#utility.yul\":37194:37203   */\n      dup3\n        /* \"#utility.yul\":37175:37272   */\n      tag_580\n      jump\t// in\n    tag_932:\n        /* \"#utility.yul\":37293:37332   */\n      tag_933\n        /* \"#utility.yul\":37323:37331   */\n      dup7\n        /* \"#utility.yul\":37312:37321   */\n      dup4\n        /* \"#utility.yul\":37293:37332   */\n      tag_580\n      jump\t// in\n    tag_933:\n        /* \"#utility.yul\":37281:37332   */\n      swap6\n      pop\n        /* \"#utility.yul\":37365:37369   */\n      dup1\n        /* \"#utility.yul\":37361:37370   */\n      not\n        /* \"#utility.yul\":37354:37359   */\n      dup5\n        /* \"#utility.yul\":37350:37371   */\n      and\n        /* \"#utility.yul\":37341:37371   */\n      swap4\n      pop\n        /* \"#utility.yul\":37414:37418   */\n      dup1\n        /* \"#utility.yul\":37404:37412   */\n      dup7\n        /* \"#utility.yul\":37400:37419   */\n      and\n        /* \"#utility.yul\":37393:37398   */\n      dup5\n        /* \"#utility.yul\":37390:37420   */\n      or\n        /* \"#utility.yul\":37380:37420   */\n      swap3\n      pop\n        /* \"#utility.yul\":37109:37426   */\n      pop\n      pop\n        /* \"#utility.yul\":37033:37426   */\n      swap4\n      swap3\n      pop\n      pop\n      pop\n      jump\t// out\n        /* \"#utility.yul\":37432:37574   */\n    tag_582:\n        /* \"#utility.yul\":37482:37491   */\n      0x00\n        /* \"#utility.yul\":37515:37568   */\n      tag_935\n        /* \"#utility.yul\":37533:37567   */\n      tag_936\n        /* \"#utility.yul\":37542:37566   */\n      tag_937\n        /* \"#utility.yul\":37560:37565   */\n      dup5\n        /* \"#utility.yul\":37542:37566   */\n      tag_498\n      jump\t// in\n    tag_937:\n        /* \"#utility.yul\":37533:37567   */\n      tag_524\n      jump\t// in\n    tag_936:\n        /* \"#utility.yul\":37515:37568   */\n      tag_498\n      jump\t// in\n    tag_935:\n        /* \"#utility.yul\":37502:37568   */\n      swap1\n      pop\n        /* \"#utility.yul\":37432:37574   */\n      swap2\n      swap1\n      pop\n      jump\t// out\n        /* \"#utility.yul\":37580:37655   */\n    tag_583:\n        /* \"#utility.yul\":37623:37626   */\n      0x00\n        /* \"#utility.yul\":37644:37649   */\n      dup2\n        /* \"#utility.yul\":37637:37649   */\n      swap1\n      pop\n        /* \"#utility.yul\":37580:37655   */\n      swap2\n      swap1\n      pop\n      jump\t// out\n        /* \"#utility.yul\":37661:37930   */\n    tag_584:\n        /* \"#utility.yul\":37771:37810   */\n      tag_940\n        /* \"#utility.yul\":37802:37809   */\n      dup4\n        /* \"#utility.yul\":37771:37810   */\n      tag_582\n      jump\t// in\n    tag_940:\n        /* \"#utility.yul\":37832:37923   */\n      tag_941\n        /* \"#utility.yul\":37881:37922   */\n      tag_942\n        /* \"#utility.yul\":37905:37921   */\n      dup3\n        /* \"#utility.yul\":37881:37922   */\n      tag_583\n      jump\t// in\n    tag_942:\n        /* \"#utility.yul\":37873:37879   */\n      dup5\n        /* \"#utility.yul\":37866:37870   */\n      dup5\n        /* \"#utility.yul\":37860:37871   */\n      sload\n        /* \"#utility.yul\":37832:37923   */\n      tag_581\n      jump\t// in\n    tag_941:\n        /* \"#utility.yul\":37826:37830   */\n      dup3\n        /* \"#utility.yul\":37819:37924   */\n      sstore\n        /* \"#utility.yul\":37737:37930   */\n      pop\n        /* \"#utility.yul\":37661:37930   */\n      pop\n      pop\n      pop\n      jump\t// out\n        /* \"#utility.yul\":37936:38009   */\n    tag_585:\n        /* \"#utility.yul\":37981:37984   */\n      0x00\n        /* \"#utility.yul\":37936:38009   */\n      swap1\n      jump\t// out\n        /* \"#utility.yul\":38015:38204   */\n    tag_586:\n        /* \"#utility.yul\":38092:38124   */\n      tag_945\n      tag_585\n      jump\t// in\n    tag_945:\n        /* \"#utility.yul\":38133:38198   */\n      tag_946\n        /* \"#utility.yul\":38191:38197   */\n      dup2\n        /* \"#utility.yul\":38183:38189   */\n      dup5\n        /* \"#utility.yul\":38177:38181   */\n      dup5\n        /* \"#utility.yul\":38133:38198   */\n      tag_584\n      jump\t// in\n    tag_946:\n        /* \"#utility.yul\":38068:38204   */\n      pop\n        /* \"#utility.yul\":38015:38204   */\n      pop\n      pop\n      jump\t// out\n        /* \"#utility.yul\":38210:38396   */\n    tag_587:\n        /* \"#utility.yul\":38270:38390   */\n    tag_948:\n        /* \"#utility.yul\":38287:38290   */\n      dup2\n        /* \"#utility.yul\":38280:38285   */\n      dup2\n        /* \"#utility.yul\":38277:38291   */\n      lt\n        /* \"#utility.yul\":38270:38390   */\n      iszero\n      tag_950\n      jumpi\n        /* \"#utility.yul\":38341:38380   */\n      tag_951\n        /* \"#utility.yul\":38378:38379   */\n      0x00\n        /* \"#utility.yul\":38371:38376   */\n      dup3\n        /* \"#utility.yul\":38341:38380   */\n      tag_586\n      jump\t// in\n    tag_951:\n        /* \"#utility.yul\":38314:38315   */\n      0x01\n        /* \"#utility.yul\":38307:38312   */\n      dup2\n        /* \"#utility.yul\":38303:38316   */\n      add\n        /* \"#utility.yul\":38294:38316   */\n      swap1\n      pop\n        /* \"#utility.yul\":38270:38390   */\n      jump(tag_948)\n    tag_950:\n        /* \"#utility.yul\":38210:38396   */\n      pop\n      pop\n      jump\t// out\n        /* \"#utility.yul\":38402:38945   */\n    tag_588:\n        /* \"#utility.yul\":38503:38505   */\n      0x1f\n        /* \"#utility.yul\":38498:38501   */\n      dup3\n        /* \"#utility.yul\":38495:38506   */\n      gt\n        /* \"#utility.yul\":38492:38938   */\n      iszero\n      tag_953\n      jumpi\n        /* \"#utility.yul\":38537:38575   */\n      tag_954\n        /* \"#utility.yul\":38569:38574   */\n      dup2\n        /* \"#utility.yul\":38537:38575   */\n      tag_578\n      jump\t// in\n    tag_954:\n        /* \"#utility.yul\":38621:38650   */\n      tag_955\n        /* \"#utility.yul\":38639:38649   */\n      dup5\n        /* \"#utility.yul\":38621:38650   */\n      tag_579\n      jump\t// in\n    tag_955:\n        /* \"#utility.yul\":38611:38619   */\n      dup2\n        /* \"#utility.yul\":38607:38651   */\n      add\n        /* \"#utility.yul\":38804:38806   */\n      0x20\n        /* \"#utility.yul\":38792:38802   */\n      dup6\n        /* \"#utility.yul\":38789:38807   */\n      lt\n        /* \"#utility.yul\":38786:38835   */\n      iszero\n      tag_956\n      jumpi\n        /* \"#utility.yul\":38825:38833   */\n      dup2\n        /* \"#utility.yul\":38810:38833   */\n      swap1\n      pop\n        /* \"#utility.yul\":38786:38835   */\n    tag_956:\n        /* \"#utility.yul\":38848:38928   */\n      tag_957\n        /* \"#utility.yul\":38904:38926   */\n      tag_958\n        /* \"#utility.yul\":38922:38925   */\n      dup6\n        /* \"#utility.yul\":38904:38926   */\n      tag_579\n      jump\t// in\n    tag_958:\n        /* \"#utility.yul\":38894:38902   */\n      dup4\n        /* \"#utility.yul\":38890:38927   */\n      add\n        /* \"#utility.yul\":38877:38888   */\n      dup3\n        /* \"#utility.yul\":38848:38928   */\n      tag_587\n      jump\t// in\n    tag_957:\n        /* \"#utility.yul\":38507:38938   */\n      pop\n      pop\n        /* \"#utility.yul\":38492:38938   */\n    tag_953:\n        /* \"#utility.yul\":38402:38945   */\n      pop\n      pop\n      pop\n      jump\t// out\n        /* \"#utility.yul\":38951:39068   */\n    tag_589:\n        /* \"#utility.yul\":39005:39013   */\n      0x00\n        /* \"#utility.yul\":39055:39060   */\n      dup3\n        /* \"#utility.yul\":39049:39053   */\n      dup3\n        /* \"#utility.yul\":39045:39061   */\n      shr\n        /* \"#utility.yul\":39024:39061   */\n      swap1\n      pop\n        /* \"#utility.yul\":38951:39068   */\n      swap3\n      swap2\n      pop\n      pop\n      jump\t// out\n        /* \"#utility.yul\":39074:39243   */\n    tag_590:\n        /* \"#utility.yul\":39118:39124   */\n      0x00\n        /* \"#utility.yul\":39151:39202   */\n      tag_961\n        /* \"#utility.yul\":39199:39200   */\n      0x00\n        /* \"#utility.yul\":39195:39201   */\n      not\n        /* \"#utility.yul\":39187:39192   */\n      dup5\n        /* \"#utility.yul\":39184:39185   */\n      0x08\n        /* \"#utility.yul\":39180:39193   */\n      mul\n        /* \"#utility.yul\":39151:39202   */\n      tag_589\n      jump\t// in\n    tag_961:\n        /* \"#utility.yul\":39147:39203   */\n      not\n        /* \"#utility.yul\":39232:39236   */\n      dup1\n        /* \"#utility.yul\":39226:39230   */\n      dup4\n        /* \"#utility.yul\":39222:39237   */\n      and\n        /* \"#utility.yul\":39212:39237   */\n      swap2\n      pop\n        /* \"#utility.yul\":39125:39243   */\n      pop\n        /* \"#utility.yul\":39074:39243   */\n      swap3\n      swap2\n      pop\n      pop\n      jump\t// out\n        /* \"#utility.yul\":39248:39543   */\n    tag_591:\n        /* \"#utility.yul\":39324:39328   */\n      0x00\n        /* \"#utility.yul\":39470:39499   */\n      tag_963\n        /* \"#utility.yul\":39495:39498   */\n      dup4\n        /* \"#utility.yul\":39489:39493   */\n      dup4\n        /* \"#utility.yul\":39470:39499   */\n      tag_590\n      jump\t// in\n    tag_963:\n        /* \"#utility.yul\":39462:39499   */\n      swap2\n      pop\n        /* \"#utility.yul\":39532:39535   */\n      dup3\n        /* \"#utility.yul\":39529:39530   */\n      0x02\n        /* \"#utility.yul\":39525:39536   */\n      mul\n        /* \"#utility.yul\":39519:39523   */\n      dup3\n        /* \"#utility.yul\":39516:39537   */\n      or\n        /* \"#utility.yul\":39508:39537   */\n      swap1\n      pop\n        /* \"#utility.yul\":39248:39543   */\n      swap3\n      swap2\n      pop\n      pop\n      jump\t// out\n        /* \"#utility.yul\":39548:40943   */\n    tag_353:\n        /* \"#utility.yul\":39665:39702   */\n      tag_965\n        /* \"#utility.yul\":39698:39701   */\n      dup3\n        /* \"#utility.yul\":39665:39702   */\n      tag_530\n      jump\t// in\n    tag_965:\n        /* \"#utility.yul\":39767:39785   */\n      0xffffffffffffffff\n        /* \"#utility.yul\":39759:39765   */\n      dup2\n        /* \"#utility.yul\":39756:39786   */\n      gt\n        /* \"#utility.yul\":39753:39809   */\n      iszero\n      tag_966\n      jumpi\n        /* \"#utility.yul\":39789:39807   */\n      tag_967\n      tag_512\n      jump\t// in\n    tag_967:\n        /* \"#utility.yul\":39753:39809   */\n    tag_966:\n        /* \"#utility.yul\":39833:39871   */\n      tag_968\n        /* \"#utility.yul\":39865:39869   */\n      dup3\n        /* \"#utility.yul\":39859:39870   */\n      sload\n        /* \"#utility.yul\":39833:39871   */\n      tag_234\n      jump\t// in\n    tag_968:\n        /* \"#utility.yul\":39918:39985   */\n      tag_969\n        /* \"#utility.yul\":39978:39984   */\n      dup3\n        /* \"#utility.yul\":39970:39976   */\n      dup3\n        /* \"#utility.yul\":39964:39968   */\n      dup6\n        /* \"#utility.yul\":39918:39985   */\n      tag_588\n      jump\t// in\n    tag_969:\n        /* \"#utility.yul\":40012:40013   */\n      0x00\n        /* \"#utility.yul\":40036:40040   */\n      0x20\n        /* \"#utility.yul\":40023:40040   */\n      swap1\n      pop\n        /* \"#utility.yul\":40068:40070   */\n      0x1f\n        /* \"#utility.yul\":40060:40066   */\n      dup4\n        /* \"#utility.yul\":40057:40071   */\n      gt\n        /* \"#utility.yul\":40085:40086   */\n      0x01\n        /* \"#utility.yul\":40080:40698   */\n      dup2\n      eq\n      tag_971\n      jumpi\n        /* \"#utility.yul\":40742:40743   */\n      0x00\n        /* \"#utility.yul\":40759:40765   */\n      dup5\n        /* \"#utility.yul\":40756:40833   */\n      iszero\n      tag_972\n      jumpi\n        /* \"#utility.yul\":40808:40817   */\n      dup3\n        /* \"#utility.yul\":40803:40806   */\n      dup8\n        /* \"#utility.yul\":40799:40818   */\n      add\n        /* \"#utility.yul\":40793:40819   */\n      mload\n        /* \"#utility.yul\":40784:40819   */\n      swap1\n      pop\n        /* \"#utility.yul\":40756:40833   */\n    tag_972:\n        /* \"#utility.yul\":40859:40926   */\n      tag_973\n        /* \"#utility.yul\":40919:40925   */\n      dup6\n        /* \"#utility.yul\":40912:40917   */\n      dup3\n        /* \"#utility.yul\":40859:40926   */\n      tag_591\n      jump\t// in\n    tag_973:\n        /* \"#utility.yul\":40853:40857   */\n      dup7\n        /* \"#utility.yul\":40846:40927   */\n      sstore\n        /* \"#utility.yul\":40715:40937   */\n      pop\n        /* \"#utility.yul\":40050:40937   */\n      jump(tag_970)\n        /* \"#utility.yul\":40080:40698   */\n    tag_971:\n        /* \"#utility.yul\":40132:40136   */\n      0x1f\n        /* \"#utility.yul\":40128:40137   */\n      not\n        /* \"#utility.yul\":40120:40126   */\n      dup5\n        /* \"#utility.yul\":40116:40138   */\n      and\n        /* \"#utility.yul\":40166:40203   */\n      tag_974\n        /* \"#utility.yul\":40198:40202   */\n      dup7\n        /* \"#utility.yul\":40166:40203   */\n      tag_578\n      jump\t// in\n    tag_974:\n        /* \"#utility.yul\":40225:40226   */\n      0x00\n        /* \"#utility.yul\":40239:40447   */\n    tag_975:\n        /* \"#utility.yul\":40253:40260   */\n      dup3\n        /* \"#utility.yul\":40250:40251   */\n      dup2\n        /* \"#utility.yul\":40247:40261   */\n      lt\n        /* \"#utility.yul\":40239:40447   */\n      iszero\n      tag_977\n      jumpi\n        /* \"#utility.yul\":40332:40341   */\n      dup5\n        /* \"#utility.yul\":40327:40330   */\n      dup10\n        /* \"#utility.yul\":40323:40342   */\n      add\n        /* \"#utility.yul\":40317:40343   */\n      mload\n        /* \"#utility.yul\":40309:40315   */\n      dup3\n        /* \"#utility.yul\":40302:40344   */\n      sstore\n        /* \"#utility.yul\":40383:40384   */\n      0x01\n        /* \"#utility.yul\":40375:40381   */\n      dup3\n        /* \"#utility.yul\":40371:40385   */\n      add\n        /* \"#utility.yul\":40361:40385   */\n      swap2\n      pop\n        /* \"#utility.yul\":40430:40432   */\n      0x20\n        /* \"#utility.yul\":40419:40428   */\n      dup6\n        /* \"#utility.yul\":40415:40433   */\n      add\n        /* \"#utility.yul\":40402:40433   */\n      swap5\n      pop\n        /* \"#utility.yul\":40276:40280   */\n      0x20\n        /* \"#utility.yul\":40273:40274   */\n      dup2\n        /* \"#utility.yul\":40269:40281   */\n      add\n        /* \"#utility.yul\":40264:40281   */\n      swap1\n      pop\n        /* \"#utility.yul\":40239:40447   */\n      jump(tag_975)\n    tag_977:\n        /* \"#utility.yul\":40475:40481   */\n      dup7\n        /* \"#utility.yul\":40466:40473   */\n      dup4\n        /* \"#utility.yul\":40463:40482   */\n      lt\n        /* \"#utility.yul\":40460:40639   */\n      iszero\n      tag_978\n      jumpi\n        /* \"#utility.yul\":40533:40542   */\n      dup5\n        /* \"#utility.yul\":40528:40531   */\n      dup10\n        /* \"#utility.yul\":40524:40543   */\n      add\n        /* \"#utility.yul\":40518:40544   */\n      mload\n        /* \"#utility.yul\":40576:40624   */\n      tag_979\n        /* \"#utility.yul\":40618:40622   */\n      0x1f\n        /* \"#utility.yul\":40610:40616   */\n      dup10\n        /* \"#utility.yul\":40606:40623   */\n      and\n        /* \"#utility.yul\":40595:40604   */\n      dup3\n        /* \"#utility.yul\":40576:40624   */\n      tag_590\n      jump\t// in\n    tag_979:\n        /* \"#utility.yul\":40568:40574   */\n      dup4\n        /* \"#utility.yul\":40561:40625   */\n      sstore\n        /* \"#utility.yul\":40483:40639   */\n      pop\n        /* \"#utility.yul\":40460:40639   */\n    tag_978:\n        /* \"#utility.yul\":40685:40686   */\n      0x01\n        /* \"#utility.yul\":40681:40682   */\n      0x02\n        /* \"#utility.yul\":40673:40679   */\n      dup9\n        /* \"#utility.yul\":40669:40683   */\n      mul\n        /* \"#utility.yul\":40665:40687   */\n      add\n        /* \"#utility.yul\":40659:40663   */\n      dup9\n        /* \"#utility.yul\":40652:40688   */\n      sstore\n        /* \"#utility.yul\":40087:40698   */\n      pop\n      pop\n      pop\n        /* \"#utility.yul\":40050:40937   */\n    tag_970:\n      pop\n        /* \"#utility.yul\":39640:40943   */\n      pop\n      pop\n      pop\n        /* \"#utility.yul\":39548:40943   */\n      pop\n      pop\n      jump\t// out\n        /* \"#utility.yul\":40949:41100   */\n    tag_592:\n        /* \"#utility.yul\":41089:41092   */\n      0x4100000000000000000000000000000000000000000000000000000000000000\n        /* \"#utility.yul\":41085:41086   */\n      0x00\n        /* \"#utility.yul\":41077:41083   */\n      dup3\n        /* \"#utility.yul\":41073:41087   */\n      add\n        /* \"#utility.yul\":41066:41093   */\n      mstore\n        /* \"#utility.yul\":40949:41100   */\n      pop\n      jump\t// out\n        /* \"#utility.yul\":41106:41506   */\n    tag_593:\n        /* \"#utility.yul\":41266:41269   */\n      0x00\n        /* \"#utility.yul\":41287:41371   */\n      tag_982\n        /* \"#utility.yul\":41369:41370   */\n      0x01\n        /* \"#utility.yul\":41364:41367   */\n      dup4\n        /* \"#utility.yul\":41287:41371   */\n      tag_561\n      jump\t// in\n    tag_982:\n        /* \"#utility.yul\":41280:41371   */\n      swap2\n      pop\n        /* \"#utility.yul\":41380:41473   */\n      tag_983\n        /* \"#utility.yul\":41469:41472   */\n      dup3\n        /* \"#utility.yul\":41380:41473   */\n      tag_592\n      jump\t// in\n    tag_983:\n        /* \"#utility.yul\":41498:41499   */\n      0x01\n        /* \"#utility.yul\":41493:41496   */\n      dup3\n        /* \"#utility.yul\":41489:41500   */\n      add\n        /* \"#utility.yul\":41482:41500   */\n      swap1\n      pop\n        /* \"#utility.yul\":41106:41506   */\n      swap2\n      swap1\n      pop\n      jump\t// out\n        /* \"#utility.yul\":41512:41893   */\n    tag_358:\n        /* \"#utility.yul\":41697:41700   */\n      0x00\n        /* \"#utility.yul\":41719:41867   */\n      tag_985\n        /* \"#utility.yul\":41863:41866   */\n      dup3\n        /* \"#utility.yul\":41719:41867   */\n      tag_593\n      jump\t// in\n    tag_985:\n        /* \"#utility.yul\":41712:41867   */\n      swap2\n      pop\n        /* \"#utility.yul\":41884:41887   */\n      dup2\n        /* \"#utility.yul\":41877:41887   */\n      swap1\n      pop\n        /* \"#utility.yul\":41512:41893   */\n      swap2\n      swap1\n      pop\n      jump\t// out\n        /* \"#utility.yul\":41899:42050   */\n    tag_594:\n        /* \"#utility.yul\":42039:42042   */\n      0x4200000000000000000000000000000000000000000000000000000000000000\n        /* \"#utility.yul\":42035:42036   */\n      0x00\n        /* \"#utility.yul\":42027:42033   */\n      dup3\n        /* \"#utility.yul\":42023:42037   */\n      add\n        /* \"#utility.yul\":42016:42043   */\n      mstore\n        /* \"#utility.yul\":41899:42050   */\n      pop\n      jump\t// out\n        /* \"#utility.yul\":42056:42456   */\n    tag_595:\n        /* \"#utility.yul\":42216:42219   */\n      0x00\n        /* \"#utility.yul\":42237:42321   */\n      tag_988\n        /* \"#utility.yul\":42319:42320   */\n      0x01\n        /* \"#utility.yul\":42314:42317   */\n      dup4\n        /* \"#utility.yul\":42237:42321   */\n      tag_561\n      jump\t// in\n    tag_988:\n        /* \"#utility.yul\":42230:42321   */\n      swap2\n      pop\n        /* \"#utility.yul\":42330:42423   */\n      tag_989\n        /* \"#utility.yul\":42419:42422   */\n      dup3\n        /* \"#utility.yul\":42330:42423   */\n      tag_594\n      jump\t// in\n    tag_989:\n        /* \"#utility.yul\":42448:42449   */\n      0x01\n        /* \"#utility.yul\":42443:42446   */\n      dup3\n        /* \"#utility.yul\":42439:42450   */\n      add\n        /* \"#utility.yul\":42432:42450   */\n      swap1\n      pop\n        /* \"#utility.yul\":42056:42456   */\n      swap2\n      swap1\n      pop\n      jump\t// out\n        /* \"#utility.yul\":42462:42843   */\n    tag_364:\n        /* \"#utility.yul\":42647:42650   */\n      0x00\n        /* \"#utility.yul\":42669:42817   */\n      tag_991\n        /* \"#utility.yul\":42813:42816   */\n      dup3\n        /* \"#utility.yul\":42669:42817   */\n      tag_595\n      jump\t// in\n    tag_991:\n        /* \"#utility.yul\":42662:42817   */\n      swap2\n      pop\n        /* \"#utility.yul\":42834:42837   */\n      dup2\n        /* \"#utility.yul\":42827:42837   */\n      swap1\n      pop\n        /* \"#utility.yul\":42462:42843   */\n      swap2\n      swap1\n      pop\n      jump\t// out\n        /* \"#utility.yul\":42849:43000   */\n    tag_596:\n        /* \"#utility.yul\":42989:42992   */\n      0x4300000000000000000000000000000000000000000000000000000000000000\n        /* \"#utility.yul\":42985:42986   */\n      0x00\n        /* \"#utility.yul\":42977:42983   */\n      dup3\n        /* \"#utility.yul\":42973:42987   */\n      add\n        /* \"#utility.yul\":42966:42993   */\n      mstore\n        /* \"#utility.yul\":42849:43000   */\n      pop\n      jump\t// out\n        /* \"#utility.yul\":43006:43406   */\n    tag_597:\n        /* \"#utility.yul\":43166:43169   */\n      0x00\n        /* \"#utility.yul\":43187:43271   */\n      tag_994\n        /* \"#utility.yul\":43269:43270   */\n      0x01\n        /* \"#utility.yul\":43264:43267   */\n      dup4\n        /* \"#utility.yul\":43187:43271   */\n      tag_561\n      jump\t// in\n    tag_994:\n        /* \"#utility.yul\":43180:43271   */\n      swap2\n      pop\n        /* \"#utility.yul\":43280:43373   */\n      tag_995\n        /* \"#utility.yul\":43369:43372   */\n      dup3\n        /* \"#utility.yul\":43280:43373   */\n      tag_596\n      jump\t// in\n    tag_995:\n        /* \"#utility.yul\":43398:43399   */\n      0x01\n        /* \"#utility.yul\":43393:43396   */\n      dup3\n        /* \"#utility.yul\":43389:43400   */\n      add\n        /* \"#utility.yul\":43382:43400   */\n      swap1\n      pop\n        /* \"#utility.yul\":43006:43406   */\n      swap2\n      swap1\n      pop\n      jump\t// out\n        /* \"#utility.yul\":43412:43793   */\n    tag_370:\n        /* \"#utility.yul\":43597:43600   */\n      0x00\n        /* \"#utility.yul\":43619:43767   */\n      tag_997\n        /* \"#utility.yul\":43763:43766   */\n      dup3\n        /* \"#utility.yul\":43619:43767   */\n      tag_597\n      jump\t// in\n    tag_997:\n        /* \"#utility.yul\":43612:43767   */\n      swap2\n      pop\n        /* \"#utility.yul\":43784:43787   */\n      dup2\n        /* \"#utility.yul\":43777:43787   */\n      swap1\n      pop\n        /* \"#utility.yul\":43412:43793   */\n      swap2\n      swap1\n      pop\n      jump\t// out\n        /* \"#utility.yul\":43799:43950   */\n    tag_598:\n        /* \"#utility.yul\":43939:43942   */\n      0x4400000000000000000000000000000000000000000000000000000000000000\n        /* \"#utility.yul\":43935:43936   */\n      0x00\n        /* \"#utility.yul\":43927:43933   */\n      dup3\n        /* \"#utility.yul\":43923:43937   */\n      add\n        /* \"#utility.yul\":43916:43943   */\n      mstore\n        /* \"#utility.yul\":43799:43950   */\n      pop\n      jump\t// out\n        /* \"#utility.yul\":43956:44356   */\n    tag_599:\n        /* \"#utility.yul\":44116:44119   */\n      0x00\n        /* \"#utility.yul\":44137:44221   */\n      tag_1000\n        /* \"#utility.yul\":44219:44220   */\n      0x01\n        /* \"#utility.yul\":44214:44217   */\n      dup4\n        /* \"#utility.yul\":44137:44221   */\n      tag_561\n      jump\t// in\n    tag_1000:\n        /* \"#utility.yul\":44130:44221   */\n      swap2\n      pop\n        /* \"#utility.yul\":44230:44323   */\n      tag_1001\n        /* \"#utility.yul\":44319:44322   */\n      dup3\n        /* \"#utility.yul\":44230:44323   */\n      tag_598\n      jump\t// in\n    tag_1001:\n        /* \"#utility.yul\":44348:44349   */\n      0x01\n        /* \"#utility.yul\":44343:44346   */\n      dup3\n        /* \"#utility.yul\":44339:44350   */\n      add\n        /* \"#utility.yul\":44332:44350   */\n      swap1\n      pop\n        /* \"#utility.yul\":43956:44356   */\n      swap2\n      swap1\n      pop\n      jump\t// out\n        /* \"#utility.yul\":44362:44743   */\n    tag_376:\n        /* \"#utility.yul\":44547:44550   */\n      0x00\n        /* \"#utility.yul\":44569:44717   */\n      tag_1003\n        /* \"#utility.yul\":44713:44716   */\n      dup3\n        /* \"#utility.yul\":44569:44717   */\n      tag_599\n      jump\t// in\n    tag_1003:\n        /* \"#utility.yul\":44562:44717   */\n      swap2\n      pop\n        /* \"#utility.yul\":44734:44737   */\n      dup2\n        /* \"#utility.yul\":44727:44737   */\n      swap1\n      pop\n        /* \"#utility.yul\":44362:44743   */\n      swap2\n      swap1\n      pop\n      jump\t// out\n        /* \"#utility.yul\":44749:44921   */\n    tag_600:\n        /* \"#utility.yul\":44889:44913   */\n      0x496e76616c696420636f727265637420616e7377657200000000000000000000\n        /* \"#utility.yul\":44885:44886   */\n      0x00\n        /* \"#utility.yul\":44877:44883   */\n      dup3\n        /* \"#utility.yul\":44873:44887   */\n      add\n        /* \"#utility.yul\":44866:44914   */\n      mstore\n        /* \"#utility.yul\":44749:44921   */\n      pop\n      jump\t// out\n        /* \"#utility.yul\":44927:45293   */\n    tag_601:\n        /* \"#utility.yul\":45069:45072   */\n      0x00\n        /* \"#utility.yul\":45090:45157   */\n      tag_1006\n        /* \"#utility.yul\":45154:45156   */\n      0x16\n        /* \"#utility.yul\":45149:45152   */\n      dup4\n        /* \"#utility.yul\":45090:45157   */\n      tag_531\n      jump\t// in\n    tag_1006:\n        /* \"#utility.yul\":45083:45157   */\n      swap2\n      pop\n        /* \"#utility.yul\":45166:45259   */\n      tag_1007\n        /* \"#utility.yul\":45255:45258   */\n      dup3\n        /* \"#utility.yul\":45166:45259   */\n      tag_600\n      jump\t// in\n    tag_1007:\n        /* \"#utility.yul\":45284:45286   */\n      0x20\n        /* \"#utility.yul\":45279:45282   */\n      dup3\n        /* \"#utility.yul\":45275:45287   */\n      add\n        /* \"#utility.yul\":45268:45287   */\n      swap1\n      pop\n        /* \"#utility.yul\":44927:45293   */\n      swap2\n      swap1\n      pop\n      jump\t// out\n        /* \"#utility.yul\":45299:45718   */\n    tag_382:\n        /* \"#utility.yul\":45465:45469   */\n      0x00\n        /* \"#utility.yul\":45503:45505   */\n      0x20\n        /* \"#utility.yul\":45492:45501   */\n      dup3\n        /* \"#utility.yul\":45488:45506   */\n      add\n        /* \"#utility.yul\":45480:45506   */\n      swap1\n      pop\n        /* \"#utility.yul\":45552:45561   */\n      dup2\n        /* \"#utility.yul\":45546:45550   */\n      dup2\n        /* \"#utility.yul\":45542:45562   */\n      sub\n        /* \"#utility.yul\":45538:45539   */\n      0x00\n        /* \"#utility.yul\":45527:45536   */\n      dup4\n        /* \"#utility.yul\":45523:45540   */\n      add\n        /* \"#utility.yul\":45516:45563   */\n      mstore\n        /* \"#utility.yul\":45580:45711   */\n      tag_1009\n        /* \"#utility.yul\":45706:45710   */\n      dup2\n        /* \"#utility.yul\":45580:45711   */\n      tag_601\n      jump\t// in\n    tag_1009:\n        /* \"#utility.yul\":45572:45711   */\n      swap1\n      pop\n        /* \"#utility.yul\":45299:45718   */\n      swap2\n      swap1\n      pop\n      jump\t// out\n        /* \"#utility.yul\":45724:45900   */\n    tag_602:\n        /* \"#utility.yul\":45864:45892   */\n      0x466565206d7573742062652067726561746572207468616e2030000000000000\n        /* \"#utility.yul\":45860:45861   */\n      0x00\n        /* \"#utility.yul\":45852:45858   */\n      dup3\n        /* \"#utility.yul\":45848:45862   */\n      add\n        /* \"#utility.yul\":45841:45893   */\n      mstore\n        /* \"#utility.yul\":45724:45900   */\n      pop\n      jump\t// out\n        /* \"#utility.yul\":45906:46272   */\n    tag_603:\n        /* \"#utility.yul\":46048:46051   */\n      0x00\n        /* \"#utility.yul\":46069:46136   */\n      tag_1012\n        /* \"#utility.yul\":46133:46135   */\n      0x1a\n        /* \"#utility.yul\":46128:46131   */\n      dup4\n        /* \"#utility.yul\":46069:46136   */\n      tag_531\n      jump\t// in\n    tag_1012:\n        /* \"#utility.yul\":46062:46136   */\n      swap2\n      pop\n        /* \"#utility.yul\":46145:46238   */\n      tag_1013\n        /* \"#utility.yul\":46234:46237   */\n      dup3\n        /* \"#utility.yul\":46145:46238   */\n      tag_602\n      jump\t// in\n    tag_1013:\n        /* \"#utility.yul\":46263:46265   */\n      0x20\n        /* \"#utility.yul\":46258:46261   */\n      dup3\n        /* \"#utility.yul\":46254:46266   */\n      add\n        /* \"#utility.yul\":46247:46266   */\n      swap1\n      pop\n        /* \"#utility.yul\":45906:46272   */\n      swap2\n      swap1\n      pop\n      jump\t// out\n        /* \"#utility.yul\":46278:46697   */\n    tag_421:\n        /* \"#utility.yul\":46444:46448   */\n      0x00\n        /* \"#utility.yul\":46482:46484   */\n      0x20\n        /* \"#utility.yul\":46471:46480   */\n      dup3\n        /* \"#utility.yul\":46467:46485   */\n      add\n        /* \"#utility.yul\":46459:46485   */\n      swap1\n      pop\n        /* \"#utility.yul\":46531:46540   */\n      dup2\n        /* \"#utility.yul\":46525:46529   */\n      dup2\n        /* \"#utility.yul\":46521:46541   */\n      sub\n        /* \"#utility.yul\":46517:46518   */\n      0x00\n        /* \"#utility.yul\":46506:46515   */\n      dup4\n        /* \"#utility.yul\":46502:46519   */\n      add\n        /* \"#utility.yul\":46495:46542   */\n      mstore\n        /* \"#utility.yul\":46559:46690   */\n      tag_1015\n        /* \"#utility.yul\":46685:46689   */\n      dup2\n        /* \"#utility.yul\":46559:46690   */\n      tag_603\n      jump\t// in\n    tag_1015:\n        /* \"#utility.yul\":46551:46690   */\n      swap1\n      pop\n        /* \"#utility.yul\":46278:46697   */\n      swap2\n      swap1\n      pop\n      jump\t// out\n        /* \"#utility.yul\":46703:46869   */\n    tag_604:\n        /* \"#utility.yul\":46843:46861   */\n      0x5061757361626c653a2070617573656400000000000000000000000000000000\n        /* \"#utility.yul\":46839:46840   */\n      0x00\n        /* \"#utility.yul\":46831:46837   */\n      dup3\n        /* \"#utility.yul\":46827:46841   */\n      add\n        /* \"#utility.yul\":46820:46862   */\n      mstore\n        /* \"#utility.yul\":46703:46869   */\n      pop\n      jump\t// out\n        /* \"#utility.yul\":46875:47241   */\n    tag_605:\n        /* \"#utility.yul\":47017:47020   */\n      0x00\n        /* \"#utility.yul\":47038:47105   */\n      tag_1018\n        /* \"#utility.yul\":47102:47104   */\n      0x10\n        /* \"#utility.yul\":47097:47100   */\n      dup4\n        /* \"#utility.yul\":47038:47105   */\n      tag_531\n      jump\t// in\n    tag_1018:\n        /* \"#utility.yul\":47031:47105   */\n      swap2\n      pop\n        /* \"#utility.yul\":47114:47207   */\n      tag_1019\n        /* \"#utility.yul\":47203:47206   */\n      dup3\n        /* \"#utility.yul\":47114:47207   */\n      tag_604\n      jump\t// in\n    tag_1019:\n        /* \"#utility.yul\":47232:47234   */\n      0x20\n        /* \"#utility.yul\":47227:47230   */\n      dup3\n        /* \"#utility.yul\":47223:47235   */\n      add\n        /* \"#utility.yul\":47216:47235   */\n      swap1\n      pop\n        /* \"#utility.yul\":46875:47241   */\n      swap2\n      swap1\n      pop\n      jump\t// out\n        /* \"#utility.yul\":47247:47666   */\n    tag_482:\n        /* \"#utility.yul\":47413:47417   */\n      0x00\n        /* \"#utility.yul\":47451:47453   */\n      0x20\n        /* \"#utility.yul\":47440:47449   */\n      dup3\n        /* \"#utility.yul\":47436:47454   */\n      add\n        /* \"#utility.yul\":47428:47454   */\n      swap1\n      pop\n        /* \"#utility.yul\":47500:47509   */\n      dup2\n        /* \"#utility.yul\":47494:47498   */\n      dup2\n        /* \"#utility.yul\":47490:47510   */\n      sub\n        /* \"#utility.yul\":47486:47487   */\n      0x00\n        /* \"#utility.yul\":47475:47484   */\n      dup4\n        /* \"#utility.yul\":47471:47488   */\n      add\n        /* \"#utility.yul\":47464:47511   */\n      mstore\n        /* \"#utility.yul\":47528:47659   */\n      tag_1021\n        /* \"#utility.yul\":47654:47658   */\n      dup2\n        /* \"#utility.yul\":47528:47659   */\n      tag_605\n      jump\t// in\n    tag_1021:\n        /* \"#utility.yul\":47520:47659   */\n      swap1\n      pop\n        /* \"#utility.yul\":47247:47666   */\n      swap2\n      swap1\n      pop\n      jump\t// out\n        /* \"#utility.yul\":47672:47842   */\n    tag_606:\n        /* \"#utility.yul\":47812:47834   */\n      0x5061757361626c653a206e6f7420706175736564000000000000000000000000\n        /* \"#utility.yul\":47808:47809   */\n      0x00\n        /* \"#utility.yul\":47800:47806   */\n      dup3\n        /* \"#utility.yul\":47796:47810   */\n      add\n        /* \"#utility.yul\":47789:47835   */\n      mstore\n        /* \"#utility.yul\":47672:47842   */\n      pop\n      jump\t// out\n        /* \"#utility.yul\":47848:48214   */\n    tag_607:\n        /* \"#utility.yul\":47990:47993   */\n      0x00\n        /* \"#utility.yul\":48011:48078   */\n      tag_1024\n        /* \"#utility.yul\":48075:48077   */\n      0x14\n        /* \"#utility.yul\":48070:48073   */\n      dup4\n        /* \"#utility.yul\":48011:48078   */\n      tag_531\n      jump\t// in\n    tag_1024:\n        /* \"#utility.yul\":48004:48078   */\n      swap2\n      pop\n        /* \"#utility.yul\":48087:48180   */\n      tag_1025\n        /* \"#utility.yul\":48176:48179   */\n      dup3\n        /* \"#utility.yul\":48087:48180   */\n      tag_606\n      jump\t// in\n    tag_1025:\n        /* \"#utility.yul\":48205:48207   */\n      0x20\n        /* \"#utility.yul\":48200:48203   */\n      dup3\n        /* \"#utility.yul\":48196:48208   */\n      add\n        /* \"#utility.yul\":48189:48208   */\n      swap1\n      pop\n        /* \"#utility.yul\":47848:48214   */\n      swap2\n      swap1\n      pop\n      jump\t// out\n        /* \"#utility.yul\":48220:48639   */\n    tag_494:\n        /* \"#utility.yul\":48386:48390   */\n      0x00\n        /* \"#utility.yul\":48424:48426   */\n      0x20\n        /* \"#utility.yul\":48413:48422   */\n      dup3\n        /* \"#utility.yul\":48409:48427   */\n      add\n        /* \"#utility.yul\":48401:48427   */\n      swap1\n      pop\n        /* \"#utility.yul\":48473:48482   */\n      dup2\n        /* \"#utility.yul\":48467:48471   */\n      dup2\n        /* \"#utility.yul\":48463:48483   */\n      sub\n        /* \"#utility.yul\":48459:48460   */\n      0x00\n        /* \"#utility.yul\":48448:48457   */\n      dup4\n        /* \"#utility.yul\":48444:48461   */\n      add\n        /* \"#utility.yul\":48437:48484   */\n      mstore\n        /* \"#utility.yul\":48501:48632   */\n      tag_1027\n        /* \"#utility.yul\":48627:48631   */\n      dup2\n        /* \"#utility.yul\":48501:48632   */\n      tag_607\n      jump\t// in\n    tag_1027:\n        /* \"#utility.yul\":48493:48632   */\n      swap1\n      pop\n        /* \"#utility.yul\":48220:48639   */\n      swap2\n      swap1\n      pop\n      jump\t// out\n\n    auxdata: 0xa26469706673582212208710a2e36d044d646a472c4de67eac990041a46d0cd2f326f3ba6f652bdae8e864736f6c634300081a0033\n}\n",
				"bytecode": {
					"linkReferences": {},
					"object": "60a06040526228de80608090815250348015610019575f80fd5b506040516140dd3803806140dd833981810160405281019061003b919061028c565b335f73ffffffffffffffffffffffffffffffffffffffff168173ffffffffffffffffffffffffffffffffffffffff16036100ac575f6040517f1e4fbdf70000000000000000000000000000000000000000000000000000000081526004016100a391906102c6565b60405180910390fd5b6100bb8161016d60201b60201c565b505f8060146101000a81548160ff0219169083151502179055508060015f6101000a81548173ffffffffffffffffffffffffffffffffffffffff021916908373ffffffffffffffffffffffffffffffffffffffff16021790555042600781905550670de0b6b3a7640000600281905550674563918244f40000600381905550678ac7230489e80000600481905550670de0b6b3a7640000600581905550670a688906bd8b0000600681905550506102df565b5f805f9054906101000a900473ffffffffffffffffffffffffffffffffffffffff169050815f806101000a81548173ffffffffffffffffffffffffffffffffffffffff021916908373ffffffffffffffffffffffffffffffffffffffff1602179055508173ffffffffffffffffffffffffffffffffffffffff168173ffffffffffffffffffffffffffffffffffffffff167f8be0079c531659141344cd1fd0a4f28419497f9722a3daafe3b4186f6b6457e060405160405180910390a35050565b5f80fd5b5f73ffffffffffffffffffffffffffffffffffffffff82169050919050565b5f61025b82610232565b9050919050565b61026b81610251565b8114610275575f80fd5b50565b5f8151905061028681610262565b92915050565b5f602082840312156102a1576102a061022e565b5b5f6102ae84828501610278565b91505092915050565b6102c081610251565b82525050565b5f6020820190506102d95f8301846102b7565b92915050565b608051613ddf6102fe5f395f818161074601526109200152613ddf5ff3fe6080604052600436106101d0575f3560e01c80638456cb59116100f6578063aa0b598811610094578063d731559b11610063578063d731559b146105dd578063dcd1473b14610607578063ed25f27c1461062f578063f2fde38b14610659576101d7565b8063aa0b598814610521578063af252dfe14610549578063b0aaefd614610573578063b8350f37146105b5576101d7565b8063905baa61116100d0578063905baa6114610464578063955cf2231461048c57806396f979d2146104b6578063a888f74c146104f7576101d7565b80638456cb59146103fa57806387bc1425146104105780638da5cb5b1461043a576101d7565b8063587f5ed71161016e578063660551591161013d5780636605515914610376578063715018a6146103a057806375284998146103b657806379370df3146103de576101d7565b8063587f5ed7146102ea5780635c975abb146103145780635cb45cb51461033e5780635e52da271461035a576101d7565b80631ae9df9a116101aa5780631ae9df9a1461025857806334a014dc146102805780633f4ba83a146102aa5780634c64c030146102c0576101d7565b806305977b4d146101db57806307f910f81461020357806315ba75f414610242576101d7565b366101d757005b5f80fd5b3480156101e6575f80fd5b5061020160048036038101906101fc91906126cf565b610681565b005b34801561020e575f80fd5b5061022960048036038101906102249190612754565b6106d5565b60405161023994939291906127c7565b60405180910390f35b34801561024d575f80fd5b5061025661073c565b005b348015610263575f80fd5b5061027e600480360381019061027991906126cf565b6108b2565b005b34801561028b575f80fd5b50610294610906565b6040516102a19190612819565b60405180910390f35b3480156102b5575f80fd5b506102be61090c565b005b3480156102cb575f80fd5b506102d461091e565b6040516102e19190612819565b60405180910390f35b3480156102f5575f80fd5b506102fe610942565b60405161030b9190612819565b60405180910390f35b34801561031f575f80fd5b50610328610948565b6040516103359190612832565b60405180910390f35b61035860048036038101906103539190612a69565b61095d565b005b610374600480360381019061036f91906126cf565b6111a6565b005b348015610381575f80fd5b5061038a611543565b6040516103979190612819565b60405180910390f35b3480156103ab575f80fd5b506103b4611549565b005b3480156103c1575f80fd5b506103dc60048036038101906103d791906126cf565b61155c565b005b6103f860048036038101906103f39190612ac3565b611621565b005b348015610405575f80fd5b5061040e611da1565b005b34801561041b575f80fd5b50610424611db3565b6040516104319190612c7f565b60405180910390f35b348015610445575f80fd5b5061044e611dd8565b60405161045b9190612ca7565b60405180910390f35b34801561046f575f80fd5b5061048a60048036038101906104859190612cc0565b611dff565b005b348015610497575f80fd5b506104a0611e4a565b6040516104ad9190612819565b60405180910390f35b3480156104c1575f80fd5b506104dc60048036038101906104d791906126cf565b611e50565b6040516104ee96959493929190612d69565b60405180910390f35b348015610502575f80fd5b5061050b611f58565b6040516105189190612819565b60405180910390f35b34801561052c575f80fd5b50610547600480360381019061054291906126cf565b611f5e565b005b348015610554575f80fd5b5061055d611fb2565b60405161056a9190612819565b60405180910390f35b34801561057e575f80fd5b5061059960048036038101906105949190612dcf565b611fb8565b6040516105ac9796959493929190612e25565b60405180910390f35b3480156105c0575f80fd5b506105db60048036038101906105d691906126cf565b6122ae565b005b3480156105e8575f80fd5b506105f1612302565b6040516105fe9190612819565b60405180910390f35b348015610612575f80fd5b5061062d600480360381019061062891906126cf565b612308565b005b34801561063a575f80fd5b5061064361235c565b6040516106509190612819565b60405180910390f35b348015610664575f80fd5b5061067f600480360381019061067a9190612cc0565b612362565b005b6106896123e6565b5f81116106cb576040517f08c379a00000000000000000000000000000000000000000000000000000000081526004016106c290612eff565b60405180910390fd5b8060058190555050565b600a602052815f5260405f20602052805f5260405f205f9150915050805f015f9054906101000a900460ff1690805f0160019054906101000a900460ff1690805f0160029054906101000a900460ff1690805f0160039054906101000a900460ff16905084565b6107446123e6565b7f00000000000000000000000000000000000000000000000000000000000000006007546107729190612f4a565b4210156107b4576040517f08c379a00000000000000000000000000000000000000000000000000000000081526004016107ab90612fc7565b60405180910390fd5b5f60085490505f600881905550426007819055505f6107d1611dd8565b73ffffffffffffffffffffffffffffffffffffffff16826040516107f490613012565b5f6040518083038185875af1925050503d805f811461082e576040519150601f19603f3d011682016040523d82523d5f602084013e610833565b606091505b5050905080610877576040517f08c379a000000000000000000000000000000000000000000000000000000000815260040161086e90613070565b60405180910390fd5b7f0d3c6acef4f1bd70f36dad19b43c6b794ac969b546734638671026f801d476fa826040516108a69190612819565b60405180910390a15050565b6108ba6123e6565b5f81116108fc576040517f08c379a00000000000000000000000000000000000000000000000000000000081526004016108f3906130d8565b60405180910390fd5b8060038190555050565b60075481565b6109146123e6565b61091c61246d565b565b7f000000000000000000000000000000000000000000000000000000000000000081565b60085481565b5f8060149054906101000a900460ff16905090565b6006543410156109a2576040517f08c379a000000000000000000000000000000000000000000000000000000000815260040161099990613140565b60405180910390fd5b60065460085f8282546109b59190612f4a565b925050819055505f600654346109cb919061315e565b90505f811115610a1a573373ffffffffffffffffffffffffffffffffffffffff166108fc8290811502906040515f60405180830381858888f19350505050158015610a18573d5f803e3d5ffd5b505b5f600a5f3373ffffffffffffffffffffffffffffffffffffffff1673ffffffffffffffffffffffffffffffffffffffff1681526020019081526020015f205f8581526020019081526020015f209050805f015f9054906101000a900460ff16610ab8576040517f08c379a0000000000000000000000000000000000000000000000000000000008152600401610aaf906131db565b60405180910390fd5b6002815f0160019054906101000a900460ff1660ff1610610b0e576040517f08c379a0000000000000000000000000000000000000000000000000000000008152600401610b0590613243565b60405180910390fd5b805f0160029054906101000a900460ff1615610b5f576040517f08c379a0000000000000000000000000000000000000000000000000000000008152600401610b56906132d1565b60405180910390fd5b805f01600181819054906101000a900460ff1680929190610b7f906132ef565b91906101000a81548160ff021916908360ff160217905550505f600b5f8681526020019081526020015f20805480602002602001604051908101604052809291908181526020015f905b82821015610edc578382905f5260205f2090600702016040518060e00160405290815f8201548152602001600182018054610c0390613344565b80601f0160208091040260200160405190810160405280929190818152602001828054610c2f90613344565b8015610c7a5780601f10610c5157610100808354040283529160200191610c7a565b820191905f5260205f20905b815481529060010190602001808311610c5d57829003601f168201915b50505050508152602001600282018054610c9390613344565b80601f0160208091040260200160405190810160405280929190818152602001828054610cbf90613344565b8015610d0a5780601f10610ce157610100808354040283529160200191610d0a565b820191905f5260205f20905b815481529060010190602001808311610ced57829003601f168201915b50505050508152602001600382018054610d2390613344565b80601f0160208091040260200160405190810160405280929190818152602001828054610d4f90613344565b8015610d9a5780601f10610d7157610100808354040283529160200191610d9a565b820191905f5260205f20905b815481529060010190602001808311610d7d57829003601f168201915b50505050508152602001600482018054610db390613344565b80601f0160208091040260200160405190810160405280929190818152602001828054610ddf90613344565b8015610e2a5780601f10610e0157610100808354040283529160200191610e2a565b820191905f5260205f20905b815481529060010190602001808311610e0d57829003601f168201915b50505050508152602001600582018054610e4390613344565b80601f0160208091040260200160405190810160405280929190818152602001828054610e6f90613344565b8015610eba5780601f10610e9157610100808354040283529160200191610eba565b820191905f5260205f20905b815481529060010190602001808311610e9d57829003601f168201915b5050505050815260200160068201548152505081526020019060010190610bc9565b5050505090508051845114610f26576040517f08c379a0000000000000000000000000000000000000000000000000000000008152600401610f1d906133be565b60405180910390fd5b5f600190505f5b8251811015610fb057828181518110610f4957610f486133dc565b5b602002602001015160c00151868281518110610f6857610f676133dc565b5b6020026020010151604051602001610f809190613443565b6040516020818303038152906040528051906020012014610fa3575f9150610fb0565b8080600101915050610f2d565b50801561114f576001835f0160026101000a81548160ff02191690831515021790555060095f8781526020019081526020015f20600201600181819054906101000a900463ffffffff168092919061100790613459565b91906101000a81548163ffffffff021916908363ffffffff1602179055505060045460095f8881526020019081526020015f206003015f82825461104b9190612f4a565b925050819055505f3373ffffffffffffffffffffffffffffffffffffffff1660045460405161107990613012565b5f6040518083038185875af1925050503d805f81146110b3576040519150601f19603f3d011682016040523d82523d5f602084013e6110b8565b606091505b50509050806110fc576040517f08c379a00000000000000000000000000000000000000000000000000000000081526004016110f3906134ce565b60405180910390fd5b3373ffffffffffffffffffffffffffffffffffffffff16877f24b5efa61dd1cfc659205a97fb8ed868f3cb8c81922bab2b96423e5de1de2cb76004546040516111459190612819565b60405180910390a3505b3373ffffffffffffffffffffffffffffffffffffffff16867faee8895c1bf669485cee2dd54d1eee9e65b02a244afb6f798f95d72405cdf7a5836040516111969190612832565b60405180910390a3505050505050565b6111ae6124ce565b6006543410156111f3576040517f08c379a00000000000000000000000000000000000000000000000000000000081526004016111ea90613140565b60405180910390fd5b60065460085f8282546112069190612f4a565b925050819055505f6006543461121c919061315e565b90505f81111561126b573373ffffffffffffffffffffffffffffffffffffffff166108fc8290811502906040515f60405180830381858888f19350505050158015611269573d5f803e3d5ffd5b505b60025460015f9054906101000a900473ffffffffffffffffffffffffffffffffffffffff1673ffffffffffffffffffffffffffffffffffffffff1663b9f79451336040518263ffffffff1660e01b81526004016112c89190612ca7565b602060405180830381865afa1580156112e3573d5f803e3d5ffd5b505050506040513d601f19601f820116820180604052508101906113079190613500565b1015611348576040517f08c379a000000000000000000000000000000000000000000000000000000000815260040161133f9061359b565b60405180910390fd5b60095f8381526020019081526020015f206002015f9054906101000a900460ff166113a8576040517f08c379a000000000000000000000000000000000000000000000000000000000815260040161139f90613603565b60405180910390fd5b600a5f3373ffffffffffffffffffffffffffffffffffffffff1673ffffffffffffffffffffffffffffffffffffffff1681526020019081526020015f205f8381526020019081526020015f205f015f9054906101000a900460ff1615611443576040517f08c379a000000000000000000000000000000000000000000000000000000000815260040161143a9061366b565b60405180910390fd5b6001600a5f3373ffffffffffffffffffffffffffffffffffffffff1673ffffffffffffffffffffffffffffffffffffffff1681526020019081526020015f205f8481526020019081526020015f205f015f6101000a81548160ff02191690831515021790555060095f8381526020019081526020015f206004015f81819054906101000a900463ffffffff16809291906114dc90613459565b91906101000a81548163ffffffff021916908363ffffffff160217905550503373ffffffffffffffffffffffffffffffffffffffff16827ffacf1a2842acbad124cbca0a047fe37bc246c68f814e0350c7bd8a022fd1dddb60405160405180910390a35050565b600c5481565b6115516123e6565b61155a5f612518565b565b6115646123e6565b60095f8281526020019081526020015f206002015f9054906101000a900460ff16156115c5576040517f08c379a00000000000000000000000000000000000000000000000000000000081526004016115bc906136d3565b60405180910390fd5b600160095f8381526020019081526020015f206002015f6101000a81548160ff021916908315150217905550807f87c1c0e5cd17beb8c61a3337b32c66021cb179dd6f97d6d9ce923a029092bd4560405160405180910390a250565b6116296124ce565b60065434101561166e576040517f08c379a000000000000000000000000000000000000000000000000000000000815260040161166590613140565b60405180910390fd5b60065460085f8282546116819190612f4a565b925050819055505f60065434611697919061315e565b90505f8111156116e6573373ffffffffffffffffffffffffffffffffffffffff166108fc8290811502906040515f60405180830381858888f193505050501580156116e4573d5f803e3d5ffd5b505b60035460015f9054906101000a900473ffffffffffffffffffffffffffffffffffffffff1673ffffffffffffffffffffffffffffffffffffffff1663b9f79451336040518263ffffffff1660e01b81526004016117439190612ca7565b602060405180830381865afa15801561175e573d5f803e3d5ffd5b505050506040513d601f19601f820116820180604052508101906117829190613500565b10156117c3576040517f08c379a00000000000000000000000000000000000000000000000000000000081526004016117ba90613761565b60405180910390fd5b600587511480156117d5575085518751145b80156117e2575084518751145b80156117ef575083518751145b80156117fc575082518751145b8015611809575081518751145b611848576040517f08c379a000000000000000000000000000000000000000000000000000000000815260040161183f906137c9565b60405180910390fd5b5f600c5f81548092919061185b906137e7565b9190505590506040518060c001604052803373ffffffffffffffffffffffffffffffffffffffff1681526020018a81526020015f151581526020015f63ffffffff1681526020015f81526020015f63ffffffff1681525060095f8381526020019081526020015f205f820151815f015f6101000a81548173ffffffffffffffffffffffffffffffffffffffff021916908373ffffffffffffffffffffffffffffffffffffffff160217905550602082015181600101908161191c91906139c2565b506040820151816002015f6101000a81548160ff02191690831515021790555060608201518160020160016101000a81548163ffffffff021916908363ffffffff1602179055506080820151816003015560a0820151816004015f6101000a81548163ffffffff021916908363ffffffff1602179055509050505f5b8851811015611d51576040516020016119b090613adb565b604051602081830303815290604052805190602001208482815181106119d9576119d86133dc565b5b60200260200101516040516020016119f19190613443565b604051602081830303815290604052805190602001201480611a765750604051602001611a1d90613b39565b60405160208183030381529060405280519060200120848281518110611a4657611a456133dc565b5b6020026020010151604051602001611a5e9190613443565b60405160208183030381529060405280519060200120145b80611ae45750604051602001611a8b90613b97565b60405160208183030381529060405280519060200120848281518110611ab457611ab36133dc565b5b6020026020010151604051602001611acc9190613443565b60405160208183030381529060405280519060200120145b80611b525750604051602001611af990613bf5565b60405160208183030381529060405280519060200120848281518110611b2257611b216133dc565b5b6020026020010151604051602001611b3a9190613443565b60405160208183030381529060405280519060200120145b611b91576040517f08c379a0000000000000000000000000000000000000000000000000000000008152600401611b8890613c53565b60405180910390fd5b5f6040518060e001604052808481526020018b8481518110611bb657611bb56133dc565b5b602002602001015181526020018a8481518110611bd657611bd56133dc565b5b60200260200101518152602001898481518110611bf657611bf56133dc565b5b60200260200101518152602001888481518110611c1657611c156133dc565b5b60200260200101518152602001878481518110611c3657611c356133dc565b5b60200260200101518152602001868481518110611c5657611c556133dc565b5b6020026020010151604051602001611c6e9190613443565b604051602081830303815290604052805190602001208152509050600b5f8481526020019081526020015f2081908060018154018082558091505060019003905f5260205f2090600702015f909190919091505f820151815f01556020820151816001019081611cde91906139c2565b506040820151816002019081611cf491906139c2565b506060820151816003019081611d0a91906139c2565b506080820151816004019081611d2091906139c2565b5060a0820151816005019081611d3691906139c2565b5060c082015181600601555050508080600101915050611998565b503373ffffffffffffffffffffffffffffffffffffffff16817fa68f79aa37f9cdc81c2757cfb3e11e9d7d89ca0a5410fbcf1b61125bc17fb1b760405160405180910390a3505050505050505050565b611da96123e6565b611db16125d9565b565b60015f9054906101000a900473ffffffffffffffffffffffffffffffffffffffff1681565b5f805f9054906101000a900473ffffffffffffffffffffffffffffffffffffffff16905090565b611e076123e6565b8060015f6101000a81548173ffffffffffffffffffffffffffffffffffffffff021916908373ffffffffffffffffffffffffffffffffffffffff16021790555050565b60025481565b6009602052805f5260405f205f91509050805f015f9054906101000a900473ffffffffffffffffffffffffffffffffffffffff1690806001018054611e9490613344565b80601f0160208091040260200160405190810160405280929190818152602001828054611ec090613344565b8015611f0b5780601f10611ee257610100808354040283529160200191611f0b565b820191905f5260205f20905b815481529060010190602001808311611eee57829003601f168201915b505050505090806002015f9054906101000a900460ff16908060020160019054906101000a900463ffffffff1690806003015490806004015f9054906101000a900463ffffffff16905086565b60055481565b611f666123e6565b5f8111611fa8576040517f08c379a0000000000000000000000000000000000000000000000000000000008152600401611f9f90613cbb565b60405180910390fd5b8060068190555050565b60065481565b600b602052815f5260405f208181548110611fd1575f80fd5b905f5260205f2090600702015f9150915050805f015490806001018054611ff790613344565b80601f016020809104026020016040519081016040528092919081815260200182805461202390613344565b801561206e5780601f106120455761010080835404028352916020019161206e565b820191905f5260205f20905b81548152906001019060200180831161205157829003601f168201915b50505050509080600201805461208390613344565b80601f01602080910402602001604051908101604052809291908181526020018280546120af90613344565b80156120fa5780601f106120d1576101008083540402835291602001916120fa565b820191905f5260205f20905b8154815290600101906020018083116120dd57829003601f168201915b50505050509080600301805461210f90613344565b80601f016020809104026020016040519081016040528092919081815260200182805461213b90613344565b80156121865780601f1061215d57610100808354040283529160200191612186565b820191905f5260205f20905b81548152906001019060200180831161216957829003601f168201915b50505050509080600401805461219b90613344565b80601f01602080910402602001604051908101604052809291908181526020018280546121c790613344565b80156122125780601f106121e957610100808354040283529160200191612212565b820191905f5260205f20905b8154815290600101906020018083116121f557829003601f168201915b50505050509080600501805461222790613344565b80601f016020809104026020016040519081016040528092919081815260200182805461225390613344565b801561229e5780601f106122755761010080835404028352916020019161229e565b820191905f5260205f20905b81548152906001019060200180831161228157829003601f168201915b5050505050908060060154905087565b6122b66123e6565b5f81116122f8576040517f08c379a00000000000000000000000000000000000000000000000000000000081526004016122ef90612eff565b60405180910390fd5b8060048190555050565b60045481565b6123106123e6565b5f8111612352576040517f08c379a0000000000000000000000000000000000000000000000000000000008152600401612349906130d8565b60405180910390fd5b8060028190555050565b60035481565b61236a6123e6565b5f73ffffffffffffffffffffffffffffffffffffffff168173ffffffffffffffffffffffffffffffffffffffff16036123da575f6040517f1e4fbdf70000000000000000000000000000000000000000000000000000000081526004016123d19190612ca7565b60405180910390fd5b6123e381612518565b50565b6123ee61263b565b73ffffffffffffffffffffffffffffffffffffffff1661240c611dd8565b73ffffffffffffffffffffffffffffffffffffffff161461246b5761242f61263b565b6040517f118cdaa70000000000000000000000000000000000000000000000000000000081526004016124629190612ca7565b60405180910390fd5b565b612475612642565b5f8060146101000a81548160ff0219169083151502179055507f5db9ee0a495bf2e6ff9c91a7834c1ba4fdd244a5e8aa4e537bd38aeae4b073aa6124b761263b565b6040516124c49190612ca7565b60405180910390a1565b6124d6610948565b15612516576040517f08c379a000000000000000000000000000000000000000000000000000000000815260040161250d90613d23565b60405180910390fd5b565b5f805f9054906101000a900473ffffffffffffffffffffffffffffffffffffffff169050815f806101000a81548173ffffffffffffffffffffffffffffffffffffffff021916908373ffffffffffffffffffffffffffffffffffffffff1602179055508173ffffffffffffffffffffffffffffffffffffffff168173ffffffffffffffffffffffffffffffffffffffff167f8be0079c531659141344cd1fd0a4f28419497f9722a3daafe3b4186f6b6457e060405160405180910390a35050565b6125e16124ce565b60015f60146101000a81548160ff0219169083151502179055507f62e78cea01bee320cd4e420270b5ea74000d11b0c9f74754ebdbfc544b05a25861262461263b565b6040516126319190612ca7565b60405180910390a1565b5f33905090565b61264a610948565b612689576040517f08c379a000000000000000000000000000000000000000000000000000000000815260040161268090613d8b565b60405180910390fd5b565b5f604051905090565b5f80fd5b5f80fd5b5f819050919050565b6126ae8161269c565b81146126b8575f80fd5b50565b5f813590506126c9816126a5565b92915050565b5f602082840312156126e4576126e3612694565b5b5f6126f1848285016126bb565b91505092915050565b5f73ffffffffffffffffffffffffffffffffffffffff82169050919050565b5f612723826126fa565b9050919050565b61273381612719565b811461273d575f80fd5b50565b5f8135905061274e8161272a565b92915050565b5f806040838503121561276a57612769612694565b5b5f61277785828601612740565b9250506020612788858286016126bb565b9150509250929050565b5f8115159050919050565b6127a681612792565b82525050565b5f60ff82169050919050565b6127c1816127ac565b82525050565b5f6080820190506127da5f83018761279d565b6127e760208301866127b8565b6127f4604083018561279d565b612801606083018461279d565b95945050505050565b6128138161269c565b82525050565b5f60208201905061282c5f83018461280a565b92915050565b5f6020820190506128455f83018461279d565b92915050565b5f80fd5b5f601f19601f8301169050919050565b7f4e487b71000000000000000000000000000000000000000000000000000000005f52604160045260245ffd5b6128958261284f565b810181811067ffffffffffffffff821117156128b4576128b361285f565b5b80604052505050565b5f6128c661268b565b90506128d2828261288c565b919050565b5f67ffffffffffffffff8211156128f1576128f061285f565b5b602082029050602081019050919050565b5f80fd5b5f80fd5b5f67ffffffffffffffff8211156129245761292361285f565b5b61292d8261284f565b9050602081019050919050565b828183375f83830152505050565b5f61295a6129558461290a565b6128bd565b90508281526020810184848401111561297657612975612906565b5b61298184828561293a565b509392505050565b5f82601f83011261299d5761299c61284b565b5b81356129ad848260208601612948565b91505092915050565b5f6129c86129c3846128d7565b6128bd565b905080838252602082019050602084028301858111156129eb576129ea612902565b5b835b81811015612a3257803567ffffffffffffffff811115612a1057612a0f61284b565b5b808601612a1d8982612989565b855260208501945050506020810190506129ed565b5050509392505050565b5f82601f830112612a5057612a4f61284b565b5b8135612a608482602086016129b6565b91505092915050565b5f8060408385031215612a7f57612a7e612694565b5b5f612a8c858286016126bb565b925050602083013567ffffffffffffffff811115612aad57612aac612698565b5b612ab985828601612a3c565b9150509250929050565b5f805f805f805f60e0888a031215612ade57612add612694565b5b5f88013567ffffffffffffffff811115612afb57612afa612698565b5b612b078a828b01612989565b975050602088013567ffffffffffffffff811115612b2857612b27612698565b5b612b348a828b01612a3c565b965050604088013567ffffffffffffffff811115612b5557612b54612698565b5b612b618a828b01612a3c565b955050606088013567ffffffffffffffff811115612b8257612b81612698565b5b612b8e8a828b01612a3c565b945050608088013567ffffffffffffffff811115612baf57612bae612698565b5b612bbb8a828b01612a3c565b93505060a088013567ffffffffffffffff811115612bdc57612bdb612698565b5b612be88a828b01612a3c565b92505060c088013567ffffffffffffffff811115612c0957612c08612698565b5b612c158a828b01612a3c565b91505092959891949750929550565b5f819050919050565b5f612c47612c42612c3d846126fa565b612c24565b6126fa565b9050919050565b5f612c5882612c2d565b9050919050565b5f612c6982612c4e565b9050919050565b612c7981612c5f565b82525050565b5f602082019050612c925f830184612c70565b92915050565b612ca181612719565b82525050565b5f602082019050612cba5f830184612c98565b92915050565b5f60208284031215612cd557612cd4612694565b5b5f612ce284828501612740565b91505092915050565b5f81519050919050565b5f82825260208201905092915050565b8281835e5f83830152505050565b5f612d1d82612ceb565b612d278185612cf5565b9350612d37818560208601612d05565b612d408161284f565b840191505092915050565b5f63ffffffff82169050919050565b612d6381612d4b565b82525050565b5f60c082019050612d7c5f830189612c98565b8181036020830152612d8e8188612d13565b9050612d9d604083018761279d565b612daa6060830186612d5a565b612db7608083018561280a565b612dc460a0830184612d5a565b979650505050505050565b5f8060408385031215612de557612de4612694565b5b5f612df2858286016126bb565b9250506020612e03858286016126bb565b9150509250929050565b5f819050919050565b612e1f81612e0d565b82525050565b5f60e082019050612e385f83018a61280a565b8181036020830152612e4a8189612d13565b90508181036040830152612e5e8188612d13565b90508181036060830152612e728187612d13565b90508181036080830152612e868186612d13565b905081810360a0830152612e9a8185612d13565b9050612ea960c0830184612e16565b98975050505050505050565b7f526577617264206d7573742062652067726561746572207468616e20300000005f82015250565b5f612ee9601d83612cf5565b9150612ef482612eb5565b602082019050919050565b5f6020820190508181035f830152612f1681612edd565b9050919050565b7f4e487b71000000000000000000000000000000000000000000000000000000005f52601160045260245ffd5b5f612f548261269c565b9150612f5f8361269c565b9250828201905080821115612f7757612f76612f1d565b5b92915050565b7f5769746864726177616c20696e74657276616c206e6f742072656163686564005f82015250565b5f612fb1601f83612cf5565b9150612fbc82612f7d565b602082019050919050565b5f6020820190508181035f830152612fde81612fa5565b9050919050565b5f81905092915050565b50565b5f612ffd5f83612fe5565b915061300882612fef565b5f82019050919050565b5f61301c82612ff2565b9150819050919050565b7f4661696c656420746f20776974686472617720676173206665657300000000005f82015250565b5f61305a601b83612cf5565b915061306582613026565b602082019050919050565b5f6020820190508181035f8301526130878161304e565b9050919050565b7f5468726573686f6c64206d7573742062652067726561746572207468616e20305f82015250565b5f6130c2602083612cf5565b91506130cd8261308e565b602082019050919050565b5f6020820190508181035f8301526130ef816130b6565b9050919050565b7f496e73756666696369656e7420676173206665650000000000000000000000005f82015250565b5f61312a601483612cf5565b9150613135826130f6565b602082019050919050565b5f6020820190508181035f8301526131578161311e565b9050919050565b5f6131688261269c565b91506131738361269c565b925082820390508181111561318b5761318a612f1d565b5b92915050565b7f55736572206e6f7420656e726f6c6c656420696e207468697320636f757273655f82015250565b5f6131c5602083612cf5565b91506131d082613191565b602082019050919050565b5f6020820190508181035f8301526131f2816131b9565b9050919050565b7f4d6178696d756d20617474656d707473207265616368656400000000000000005f82015250565b5f61322d601883612cf5565b9150613238826131f9565b602082019050919050565b5f6020820190508181035f83015261325a81613221565b9050919050565b7f557365722068617320616c726561647920706173736564207468697320636f755f8201527f7273650000000000000000000000000000000000000000000000000000000000602082015250565b5f6132bb602383612cf5565b91506132c682613261565b604082019050919050565b5f6020820190508181035f8301526132e8816132af565b9050919050565b5f6132f9826127ac565b915060ff820361330c5761330b612f1d565b5b600182019050919050565b7f4e487b71000000000000000000000000000000000000000000000000000000005f52602260045260245ffd5b5f600282049050600182168061335b57607f821691505b60208210810361336e5761336d613317565b5b50919050565b7f416e7377657220636f756e74206d69736d6174636800000000000000000000005f82015250565b5f6133a8601583612cf5565b91506133b382613374565b602082019050919050565b5f6020820190508181035f8301526133d58161339c565b9050919050565b7f4e487b71000000000000000000000000000000000000000000000000000000005f52603260045260245ffd5b5f81905092915050565b5f61341d82612ceb565b6134278185613409565b9350613437818560208601612d05565b80840191505092915050565b5f61344e8284613413565b915081905092915050565b5f61346382612d4b565b915063ffffffff820361347957613478612f1d565b5b600182019050919050565b7f4661696c656420746f2073656e64204d414e44000000000000000000000000005f82015250565b5f6134b8601383612cf5565b91506134c382613484565b602082019050919050565b5f6020820190508181035f8301526134e5816134ac565b9050919050565b5f815190506134fa816126a5565b92915050565b5f6020828403121561351557613514612694565b5b5f613522848285016134ec565b91505092915050565b7f496e73756666696369656e742072657075746174696f6e20746f20656e726f6c5f8201527f6c00000000000000000000000000000000000000000000000000000000000000602082015250565b5f613585602183612cf5565b91506135908261352b565b604082019050919050565b5f6020820190508181035f8301526135b281613579565b9050919050565b7f436f75727365206e6f7420617070726f766564000000000000000000000000005f82015250565b5f6135ed601383612cf5565b91506135f8826135b9565b602082019050919050565b5f6020820190508181035f83015261361a816135e1565b9050919050565b7f416c726561647920656e726f6c6c6564000000000000000000000000000000005f82015250565b5f613655601083612cf5565b915061366082613621565b602082019050919050565b5f6020820190508181035f83015261368281613649565b9050919050565b7f436f7572736520616c726561647920617070726f7665640000000000000000005f82015250565b5f6136bd601783612cf5565b91506136c882613689565b602082019050919050565b5f6020820190508181035f8301526136ea816136b1565b9050919050565b7f496e73756666696369656e742072657075746174696f6e20746f2063726561745f8201527f6520636f75727365000000000000000000000000000000000000000000000000602082015250565b5f61374b602883612cf5565b9150613756826136f1565b604082019050919050565b5f6020820190508181035f8301526137788161373f565b9050919050565b7f496e76616c6964207175697a20646174610000000000000000000000000000005f82015250565b5f6137b3601183612cf5565b91506137be8261377f565b602082019050919050565b5f6020820190508181035f8301526137e0816137a7565b9050919050565b5f6137f18261269c565b91507fffffffffffffffffffffffffffffffffffffffffffffffffffffffffffffffff820361382357613822612f1d565b5b600182019050919050565b5f819050815f5260205f209050919050565b5f6020601f8301049050919050565b5f82821b905092915050565b5f6008830261388a7fffffffffffffffffffffffffffffffffffffffffffffffffffffffffffffffff8261384f565b613894868361384f565b95508019841693508086168417925050509392505050565b5f6138c66138c16138bc8461269c565b612c24565b61269c565b9050919050565b5f819050919050565b6138df836138ac565b6138f36138eb826138cd565b84845461385b565b825550505050565b5f90565b6139076138fb565b6139128184846138d6565b505050565b5b818110156139355761392a5f826138ff565b600181019050613918565b5050565b601f82111561397a5761394b8161382e565b61395484613840565b81016020851015613963578190505b61397761396f85613840565b830182613917565b50505b505050565b5f82821c905092915050565b5f61399a5f198460080261397f565b1980831691505092915050565b5f6139b2838361398b565b9150826002028217905092915050565b6139cb82612ceb565b67ffffffffffffffff8111156139e4576139e361285f565b5b6139ee8254613344565b6139f9828285613939565b5f60209050601f831160018114613a2a575f8415613a18578287015190505b613a2285826139a7565b865550613a89565b601f198416613a388661382e565b5f5b82811015613a5f57848901518255600182019150602085019450602081019050613a3a565b86831015613a7c5784890151613a78601f89168261398b565b8355505b6001600288020188555050505b505050505050565b7f41000000000000000000000000000000000000000000000000000000000000005f82015250565b5f613ac5600183613409565b9150613ad082613a91565b600182019050919050565b5f613ae582613ab9565b9150819050919050565b7f42000000000000000000000000000000000000000000000000000000000000005f82015250565b5f613b23600183613409565b9150613b2e82613aef565b600182019050919050565b5f613b4382613b17565b9150819050919050565b7f43000000000000000000000000000000000000000000000000000000000000005f82015250565b5f613b81600183613409565b9150613b8c82613b4d565b600182019050919050565b5f613ba182613b75565b9150819050919050565b7f44000000000000000000000000000000000000000000000000000000000000005f82015250565b5f613bdf600183613409565b9150613bea82613bab565b600182019050919050565b5f613bff82613bd3565b9150819050919050565b7f496e76616c696420636f727265637420616e73776572000000000000000000005f82015250565b5f613c3d601683612cf5565b9150613c4882613c09565b602082019050919050565b5f6020820190508181035f830152613c6a81613c31565b9050919050565b7f466565206d7573742062652067726561746572207468616e20300000000000005f82015250565b5f613ca5601a83612cf5565b9150613cb082613c71565b602082019050919050565b5f6020820190508181035f830152613cd281613c99565b9050919050565b7f5061757361626c653a20706175736564000000000000000000000000000000005f82015250565b5f613d0d601083612cf5565b9150613d1882613cd9565b602082019050919050565b5f6020820190508181035f830152613d3a81613d01565b9050919050565b7f5061757361626c653a206e6f74207061757365640000000000000000000000005f82015250565b5f613d75601483612cf5565b9150613d8082613d41565b602082019050919050565b5f6020820190508181035f830152613da281613d69565b905091905056fea26469706673582212208710a2e36d044d646a472c4de67eac990041a46d0cd2f326f3ba6f652bdae8e864736f6c634300081a0033",
					"opcodes": "PUSH1 0xA0 PUSH1 0x40 MSTORE PUSH3 0x28DE80 PUSH1 0x80 SWAP1 DUP2 MSTORE POP CALLVALUE DUP1 ISZERO PUSH2 0x19 JUMPI PUSH0 DUP1 REVERT JUMPDEST POP PUSH1 0x40 MLOAD PUSH2 0x40DD CODESIZE SUB DUP1 PUSH2 0x40DD DUP4 CODECOPY DUP2 DUP2 ADD PUSH1 0x40 MSTORE DUP2 ADD SWAP1 PUSH2 0x3B SWAP2 SWAP1 PUSH2 0x28C JUMP JUMPDEST CALLER PUSH0 PUSH20 0xFFFFFFFFFFFFFFFFFFFFFFFFFFFFFFFFFFFFFFFF AND DUP2 PUSH20 0xFFFFFFFFFFFFFFFFFFFFFFFFFFFFFFFFFFFFFFFF AND SUB PUSH2 0xAC JUMPI PUSH0 PUSH1 0x40 MLOAD PUSH32 0x1E4FBDF700000000000000000000000000000000000000000000000000000000 DUP2 MSTORE PUSH1 0x4 ADD PUSH2 0xA3 SWAP2 SWAP1 PUSH2 0x2C6 JUMP JUMPDEST PUSH1 0x40 MLOAD DUP1 SWAP2 SUB SWAP1 REVERT JUMPDEST PUSH2 0xBB DUP2 PUSH2 0x16D PUSH1 0x20 SHL PUSH1 0x20 SHR JUMP JUMPDEST POP PUSH0 DUP1 PUSH1 0x14 PUSH2 0x100 EXP DUP2 SLOAD DUP2 PUSH1 0xFF MUL NOT AND SWAP1 DUP4 ISZERO ISZERO MUL OR SWAP1 SSTORE POP DUP1 PUSH1 0x1 PUSH0 PUSH2 0x100 EXP DUP2 SLOAD DUP2 PUSH20 0xFFFFFFFFFFFFFFFFFFFFFFFFFFFFFFFFFFFFFFFF MUL NOT AND SWAP1 DUP4 PUSH20 0xFFFFFFFFFFFFFFFFFFFFFFFFFFFFFFFFFFFFFFFF AND MUL OR SWAP1 SSTORE POP TIMESTAMP PUSH1 0x7 DUP2 SWAP1 SSTORE POP PUSH8 0xDE0B6B3A7640000 PUSH1 0x2 DUP2 SWAP1 SSTORE POP PUSH8 0x4563918244F40000 PUSH1 0x3 DUP2 SWAP1 SSTORE POP PUSH8 0x8AC7230489E80000 PUSH1 0x4 DUP2 SWAP1 SSTORE POP PUSH8 0xDE0B6B3A7640000 PUSH1 0x5 DUP2 SWAP1 SSTORE POP PUSH8 0xA688906BD8B0000 PUSH1 0x6 DUP2 SWAP1 SSTORE POP POP PUSH2 0x2DF JUMP JUMPDEST PUSH0 DUP1 PUSH0 SWAP1 SLOAD SWAP1 PUSH2 0x100 EXP SWAP1 DIV PUSH20 0xFFFFFFFFFFFFFFFFFFFFFFFFFFFFFFFFFFFFFFFF AND SWAP1 POP DUP2 PUSH0 DUP1 PUSH2 0x100 EXP DUP2 SLOAD DUP2 PUSH20 0xFFFFFFFFFFFFFFFFFFFFFFFFFFFFFFFFFFFFFFFF MUL NOT AND SWAP1 DUP4 PUSH20 0xFFFFFFFFFFFFFFFFFFFFFFFFFFFFFFFFFFFFFFFF AND MUL OR SWAP1 SSTORE POP DUP2 PUSH20 0xFFFFFFFFFFFFFFFFFFFFFFFFFFFFFFFFFFFFFFFF AND DUP2 PUSH20 0xFFFFFFFFFFFFFFFFFFFFFFFFFFFFFFFFFFFFFFFF AND PUSH32 0x8BE0079C531659141344CD1FD0A4F28419497F9722A3DAAFE3B4186F6B6457E0 PUSH1 0x40 MLOAD PUSH1 0x40 MLOAD DUP1 SWAP2 SUB SWAP1 LOG3 POP POP JUMP JUMPDEST PUSH0 DUP1 REVERT JUMPDEST PUSH0 PUSH20 0xFFFFFFFFFFFFFFFFFFFFFFFFFFFFFFFFFFFFFFFF DUP3 AND SWAP1 POP SWAP2 SWAP1 POP JUMP JUMPDEST PUSH0 PUSH2 0x25B DUP3 PUSH2 0x232 JUMP JUMPDEST SWAP1 POP SWAP2 SWAP1 POP JUMP JUMPDEST PUSH2 0x26B DUP2 PUSH2 0x251 JUMP JUMPDEST DUP2 EQ PUSH2 0x275 JUMPI PUSH0 DUP1 REVERT JUMPDEST POP JUMP JUMPDEST PUSH0 DUP2 MLOAD SWAP1 POP PUSH2 0x286 DUP2 PUSH2 0x262 JUMP JUMPDEST SWAP3 SWAP2 POP POP JUMP JUMPDEST PUSH0 PUSH1 0x20 DUP3 DUP5 SUB SLT ISZERO PUSH2 0x2A1 JUMPI PUSH2 0x2A0 PUSH2 0x22E JUMP JUMPDEST JUMPDEST PUSH0 PUSH2 0x2AE DUP5 DUP3 DUP6 ADD PUSH2 0x278 JUMP JUMPDEST SWAP2 POP POP SWAP3 SWAP2 POP POP JUMP JUMPDEST PUSH2 0x2C0 DUP2 PUSH2 0x251 JUMP JUMPDEST DUP3 MSTORE POP POP JUMP JUMPDEST PUSH0 PUSH1 0x20 DUP3 ADD SWAP1 POP PUSH2 0x2D9 PUSH0 DUP4 ADD DUP5 PUSH2 0x2B7 JUMP JUMPDEST SWAP3 SWAP2 POP POP JUMP JUMPDEST PUSH1 0x80 MLOAD PUSH2 0x3DDF PUSH2 0x2FE PUSH0 CODECOPY PUSH0 DUP2 DUP2 PUSH2 0x746 ADD MSTORE PUSH2 0x920 ADD MSTORE PUSH2 0x3DDF PUSH0 RETURN INVALID PUSH1 0x80 PUSH1 0x40 MSTORE PUSH1 0x4 CALLDATASIZE LT PUSH2 0x1D0 JUMPI PUSH0 CALLDATALOAD PUSH1 0xE0 SHR DUP1 PUSH4 0x8456CB59 GT PUSH2 0xF6 JUMPI DUP1 PUSH4 0xAA0B5988 GT PUSH2 0x94 JUMPI DUP1 PUSH4 0xD731559B GT PUSH2 0x63 JUMPI DUP1 PUSH4 0xD731559B EQ PUSH2 0x5DD JUMPI DUP1 PUSH4 0xDCD1473B EQ PUSH2 0x607 JUMPI DUP1 PUSH4 0xED25F27C EQ PUSH2 0x62F JUMPI DUP1 PUSH4 0xF2FDE38B EQ PUSH2 0x659 JUMPI PUSH2 0x1D7 JUMP JUMPDEST DUP1 PUSH4 0xAA0B5988 EQ PUSH2 0x521 JUMPI DUP1 PUSH4 0xAF252DFE EQ PUSH2 0x549 JUMPI DUP1 PUSH4 0xB0AAEFD6 EQ PUSH2 0x573 JUMPI DUP1 PUSH4 0xB8350F37 EQ PUSH2 0x5B5 JUMPI PUSH2 0x1D7 JUMP JUMPDEST DUP1 PUSH4 0x905BAA61 GT PUSH2 0xD0 JUMPI DUP1 PUSH4 0x905BAA61 EQ PUSH2 0x464 JUMPI DUP1 PUSH4 0x955CF223 EQ PUSH2 0x48C JUMPI DUP1 PUSH4 0x96F979D2 EQ PUSH2 0x4B6 JUMPI DUP1 PUSH4 0xA888F74C EQ PUSH2 0x4F7 JUMPI PUSH2 0x1D7 JUMP JUMPDEST DUP1 PUSH4 0x8456CB59 EQ PUSH2 0x3FA JUMPI DUP1 PUSH4 0x87BC1425 EQ PUSH2 0x410 JUMPI DUP1 PUSH4 0x8DA5CB5B EQ PUSH2 0x43A JUMPI PUSH2 0x1D7 JUMP JUMPDEST DUP1 PUSH4 0x587F5ED7 GT PUSH2 0x16E JUMPI DUP1 PUSH4 0x66055159 GT PUSH2 0x13D JUMPI DUP1 PUSH4 0x66055159 EQ PUSH2 0x376 JUMPI DUP1 PUSH4 0x715018A6 EQ PUSH2 0x3A0 JUMPI DUP1 PUSH4 0x75284998 EQ PUSH2 0x3B6 JUMPI DUP1 PUSH4 0x79370DF3 EQ PUSH2 0x3DE JUMPI PUSH2 0x1D7 JUMP JUMPDEST DUP1 PUSH4 0x587F5ED7 EQ PUSH2 0x2EA JUMPI DUP1 PUSH4 0x5C975ABB EQ PUSH2 0x314 JUMPI DUP1 PUSH4 0x5CB45CB5 EQ PUSH2 0x33E JUMPI DUP1 PUSH4 0x5E52DA27 EQ PUSH2 0x35A JUMPI PUSH2 0x1D7 JUMP JUMPDEST DUP1 PUSH4 0x1AE9DF9A GT PUSH2 0x1AA JUMPI DUP1 PUSH4 0x1AE9DF9A EQ PUSH2 0x258 JUMPI DUP1 PUSH4 0x34A014DC EQ PUSH2 0x280 JUMPI DUP1 PUSH4 0x3F4BA83A EQ PUSH2 0x2AA JUMPI DUP1 PUSH4 0x4C64C030 EQ PUSH2 0x2C0 JUMPI PUSH2 0x1D7 JUMP JUMPDEST DUP1 PUSH4 0x5977B4D EQ PUSH2 0x1DB JUMPI DUP1 PUSH4 0x7F910F8 EQ PUSH2 0x203 JUMPI DUP1 PUSH4 0x15BA75F4 EQ PUSH2 0x242 JUMPI PUSH2 0x1D7 JUMP JUMPDEST CALLDATASIZE PUSH2 0x1D7 JUMPI STOP JUMPDEST PUSH0 DUP1 REVERT JUMPDEST CALLVALUE DUP1 ISZERO PUSH2 0x1E6 JUMPI PUSH0 DUP1 REVERT JUMPDEST POP PUSH2 0x201 PUSH1 0x4 DUP1 CALLDATASIZE SUB DUP2 ADD SWAP1 PUSH2 0x1FC SWAP2 SWAP1 PUSH2 0x26CF JUMP JUMPDEST PUSH2 0x681 JUMP JUMPDEST STOP JUMPDEST CALLVALUE DUP1 ISZERO PUSH2 0x20E JUMPI PUSH0 DUP1 REVERT JUMPDEST POP PUSH2 0x229 PUSH1 0x4 DUP1 CALLDATASIZE SUB DUP2 ADD SWAP1 PUSH2 0x224 SWAP2 SWAP1 PUSH2 0x2754 JUMP JUMPDEST PUSH2 0x6D5 JUMP JUMPDEST PUSH1 0x40 MLOAD PUSH2 0x239 SWAP5 SWAP4 SWAP3 SWAP2 SWAP1 PUSH2 0x27C7 JUMP JUMPDEST PUSH1 0x40 MLOAD DUP1 SWAP2 SUB SWAP1 RETURN JUMPDEST CALLVALUE DUP1 ISZERO PUSH2 0x24D JUMPI PUSH0 DUP1 REVERT JUMPDEST POP PUSH2 0x256 PUSH2 0x73C JUMP JUMPDEST STOP JUMPDEST CALLVALUE DUP1 ISZERO PUSH2 0x263 JUMPI PUSH0 DUP1 REVERT JUMPDEST POP PUSH2 0x27E PUSH1 0x4 DUP1 CALLDATASIZE SUB DUP2 ADD SWAP1 PUSH2 0x279 SWAP2 SWAP1 PUSH2 0x26CF JUMP JUMPDEST PUSH2 0x8B2 JUMP JUMPDEST STOP JUMPDEST CALLVALUE DUP1 ISZERO PUSH2 0x28B JUMPI PUSH0 DUP1 REVERT JUMPDEST POP PUSH2 0x294 PUSH2 0x906 JUMP JUMPDEST PUSH1 0x40 MLOAD PUSH2 0x2A1 SWAP2 SWAP1 PUSH2 0x2819 JUMP JUMPDEST PUSH1 0x40 MLOAD DUP1 SWAP2 SUB SWAP1 RETURN JUMPDEST CALLVALUE DUP1 ISZERO PUSH2 0x2B5 JUMPI PUSH0 DUP1 REVERT JUMPDEST POP PUSH2 0x2BE PUSH2 0x90C JUMP JUMPDEST STOP JUMPDEST CALLVALUE DUP1 ISZERO PUSH2 0x2CB JUMPI PUSH0 DUP1 REVERT JUMPDEST POP PUSH2 0x2D4 PUSH2 0x91E JUMP JUMPDEST PUSH1 0x40 MLOAD PUSH2 0x2E1 SWAP2 SWAP1 PUSH2 0x2819 JUMP JUMPDEST PUSH1 0x40 MLOAD DUP1 SWAP2 SUB SWAP1 RETURN JUMPDEST CALLVALUE DUP1 ISZERO PUSH2 0x2F5 JUMPI PUSH0 DUP1 REVERT JUMPDEST POP PUSH2 0x2FE PUSH2 0x942 JUMP JUMPDEST PUSH1 0x40 MLOAD PUSH2 0x30B SWAP2 SWAP1 PUSH2 0x2819 JUMP JUMPDEST PUSH1 0x40 MLOAD DUP1 SWAP2 SUB SWAP1 RETURN JUMPDEST CALLVALUE DUP1 ISZERO PUSH2 0x31F JUMPI PUSH0 DUP1 REVERT JUMPDEST POP PUSH2 0x328 PUSH2 0x948 JUMP JUMPDEST PUSH1 0x40 MLOAD PUSH2 0x335 SWAP2 SWAP1 PUSH2 0x2832 JUMP JUMPDEST PUSH1 0x40 MLOAD DUP1 SWAP2 SUB SWAP1 RETURN JUMPDEST PUSH2 0x358 PUSH1 0x4 DUP1 CALLDATASIZE SUB DUP2 ADD SWAP1 PUSH2 0x353 SWAP2 SWAP1 PUSH2 0x2A69 JUMP JUMPDEST PUSH2 0x95D JUMP JUMPDEST STOP JUMPDEST PUSH2 0x374 PUSH1 0x4 DUP1 CALLDATASIZE SUB DUP2 ADD SWAP1 PUSH2 0x36F SWAP2 SWAP1 PUSH2 0x26CF JUMP JUMPDEST PUSH2 0x11A6 JUMP JUMPDEST STOP JUMPDEST CALLVALUE DUP1 ISZERO PUSH2 0x381 JUMPI PUSH0 DUP1 REVERT JUMPDEST POP PUSH2 0x38A PUSH2 0x1543 JUMP JUMPDEST PUSH1 0x40 MLOAD PUSH2 0x397 SWAP2 SWAP1 PUSH2 0x2819 JUMP JUMPDEST PUSH1 0x40 MLOAD DUP1 SWAP2 SUB SWAP1 RETURN JUMPDEST CALLVALUE DUP1 ISZERO PUSH2 0x3AB JUMPI PUSH0 DUP1 REVERT JUMPDEST POP PUSH2 0x3B4 PUSH2 0x1549 JUMP JUMPDEST STOP JUMPDEST CALLVALUE DUP1 ISZERO PUSH2 0x3C1 JUMPI PUSH0 DUP1 REVERT JUMPDEST POP PUSH2 0x3DC PUSH1 0x4 DUP1 CALLDATASIZE SUB DUP2 ADD SWAP1 PUSH2 0x3D7 SWAP2 SWAP1 PUSH2 0x26CF JUMP JUMPDEST PUSH2 0x155C JUMP JUMPDEST STOP JUMPDEST PUSH2 0x3F8 PUSH1 0x4 DUP1 CALLDATASIZE SUB DUP2 ADD SWAP1 PUSH2 0x3F3 SWAP2 SWAP1 PUSH2 0x2AC3 JUMP JUMPDEST PUSH2 0x1621 JUMP JUMPDEST STOP JUMPDEST CALLVALUE DUP1 ISZERO PUSH2 0x405 JUMPI PUSH0 DUP1 REVERT JUMPDEST POP PUSH2 0x40E PUSH2 0x1DA1 JUMP JUMPDEST STOP JUMPDEST CALLVALUE DUP1 ISZERO PUSH2 0x41B JUMPI PUSH0 DUP1 REVERT JUMPDEST POP PUSH2 0x424 PUSH2 0x1DB3 JUMP JUMPDEST PUSH1 0x40 MLOAD PUSH2 0x431 SWAP2 SWAP1 PUSH2 0x2C7F JUMP JUMPDEST PUSH1 0x40 MLOAD DUP1 SWAP2 SUB SWAP1 RETURN JUMPDEST CALLVALUE DUP1 ISZERO PUSH2 0x445 JUMPI PUSH0 DUP1 REVERT JUMPDEST POP PUSH2 0x44E PUSH2 0x1DD8 JUMP JUMPDEST PUSH1 0x40 MLOAD PUSH2 0x45B SWAP2 SWAP1 PUSH2 0x2CA7 JUMP JUMPDEST PUSH1 0x40 MLOAD DUP1 SWAP2 SUB SWAP1 RETURN JUMPDEST CALLVALUE DUP1 ISZERO PUSH2 0x46F JUMPI PUSH0 DUP1 REVERT JUMPDEST POP PUSH2 0x48A PUSH1 0x4 DUP1 CALLDATASIZE SUB DUP2 ADD SWAP1 PUSH2 0x485 SWAP2 SWAP1 PUSH2 0x2CC0 JUMP JUMPDEST PUSH2 0x1DFF JUMP JUMPDEST STOP JUMPDEST CALLVALUE DUP1 ISZERO PUSH2 0x497 JUMPI PUSH0 DUP1 REVERT JUMPDEST POP PUSH2 0x4A0 PUSH2 0x1E4A JUMP JUMPDEST PUSH1 0x40 MLOAD PUSH2 0x4AD SWAP2 SWAP1 PUSH2 0x2819 JUMP JUMPDEST PUSH1 0x40 MLOAD DUP1 SWAP2 SUB SWAP1 RETURN JUMPDEST CALLVALUE DUP1 ISZERO PUSH2 0x4C1 JUMPI PUSH0 DUP1 REVERT JUMPDEST POP PUSH2 0x4DC PUSH1 0x4 DUP1 CALLDATASIZE SUB DUP2 ADD SWAP1 PUSH2 0x4D7 SWAP2 SWAP1 PUSH2 0x26CF JUMP JUMPDEST PUSH2 0x1E50 JUMP JUMPDEST PUSH1 0x40 MLOAD PUSH2 0x4EE SWAP7 SWAP6 SWAP5 SWAP4 SWAP3 SWAP2 SWAP1 PUSH2 0x2D69 JUMP JUMPDEST PUSH1 0x40 MLOAD DUP1 SWAP2 SUB SWAP1 RETURN JUMPDEST CALLVALUE DUP1 ISZERO PUSH2 0x502 JUMPI PUSH0 DUP1 REVERT JUMPDEST POP PUSH2 0x50B PUSH2 0x1F58 JUMP JUMPDEST PUSH1 0x40 MLOAD PUSH2 0x518 SWAP2 SWAP1 PUSH2 0x2819 JUMP JUMPDEST PUSH1 0x40 MLOAD DUP1 SWAP2 SUB SWAP1 RETURN JUMPDEST CALLVALUE DUP1 ISZERO PUSH2 0x52C JUMPI PUSH0 DUP1 REVERT JUMPDEST POP PUSH2 0x547 PUSH1 0x4 DUP1 CALLDATASIZE SUB DUP2 ADD SWAP1 PUSH2 0x542 SWAP2 SWAP1 PUSH2 0x26CF JUMP JUMPDEST PUSH2 0x1F5E JUMP JUMPDEST STOP JUMPDEST CALLVALUE DUP1 ISZERO PUSH2 0x554 JUMPI PUSH0 DUP1 REVERT JUMPDEST POP PUSH2 0x55D PUSH2 0x1FB2 JUMP JUMPDEST PUSH1 0x40 MLOAD PUSH2 0x56A SWAP2 SWAP1 PUSH2 0x2819 JUMP JUMPDEST PUSH1 0x40 MLOAD DUP1 SWAP2 SUB SWAP1 RETURN JUMPDEST CALLVALUE DUP1 ISZERO PUSH2 0x57E JUMPI PUSH0 DUP1 REVERT JUMPDEST POP PUSH2 0x599 PUSH1 0x4 DUP1 CALLDATASIZE SUB DUP2 ADD SWAP1 PUSH2 0x594 SWAP2 SWAP1 PUSH2 0x2DCF JUMP JUMPDEST PUSH2 0x1FB8 JUMP JUMPDEST PUSH1 0x40 MLOAD PUSH2 0x5AC SWAP8 SWAP7 SWAP6 SWAP5 SWAP4 SWAP3 SWAP2 SWAP1 PUSH2 0x2E25 JUMP JUMPDEST PUSH1 0x40 MLOAD DUP1 SWAP2 SUB SWAP1 RETURN JUMPDEST CALLVALUE DUP1 ISZERO PUSH2 0x5C0 JUMPI PUSH0 DUP1 REVERT JUMPDEST POP PUSH2 0x5DB PUSH1 0x4 DUP1 CALLDATASIZE SUB DUP2 ADD SWAP1 PUSH2 0x5D6 SWAP2 SWAP1 PUSH2 0x26CF JUMP JUMPDEST PUSH2 0x22AE JUMP JUMPDEST STOP JUMPDEST CALLVALUE DUP1 ISZERO PUSH2 0x5E8 JUMPI PUSH0 DUP1 REVERT JUMPDEST POP PUSH2 0x5F1 PUSH2 0x2302 JUMP JUMPDEST PUSH1 0x40 MLOAD PUSH2 0x5FE SWAP2 SWAP1 PUSH2 0x2819 JUMP JUMPDEST PUSH1 0x40 MLOAD DUP1 SWAP2 SUB SWAP1 RETURN JUMPDEST CALLVALUE DUP1 ISZERO PUSH2 0x612 JUMPI PUSH0 DUP1 REVERT JUMPDEST POP PUSH2 0x62D PUSH1 0x4 DUP1 CALLDATASIZE SUB DUP2 ADD SWAP1 PUSH2 0x628 SWAP2 SWAP1 PUSH2 0x26CF JUMP JUMPDEST PUSH2 0x2308 JUMP JUMPDEST STOP JUMPDEST CALLVALUE DUP1 ISZERO PUSH2 0x63A JUMPI PUSH0 DUP1 REVERT JUMPDEST POP PUSH2 0x643 PUSH2 0x235C JUMP JUMPDEST PUSH1 0x40 MLOAD PUSH2 0x650 SWAP2 SWAP1 PUSH2 0x2819 JUMP JUMPDEST PUSH1 0x40 MLOAD DUP1 SWAP2 SUB SWAP1 RETURN JUMPDEST CALLVALUE DUP1 ISZERO PUSH2 0x664 JUMPI PUSH0 DUP1 REVERT JUMPDEST POP PUSH2 0x67F PUSH1 0x4 DUP1 CALLDATASIZE SUB DUP2 ADD SWAP1 PUSH2 0x67A SWAP2 SWAP1 PUSH2 0x2CC0 JUMP JUMPDEST PUSH2 0x2362 JUMP JUMPDEST STOP JUMPDEST PUSH2 0x689 PUSH2 0x23E6 JUMP JUMPDEST PUSH0 DUP2 GT PUSH2 0x6CB JUMPI PUSH1 0x40 MLOAD PUSH32 0x8C379A000000000000000000000000000000000000000000000000000000000 DUP2 MSTORE PUSH1 0x4 ADD PUSH2 0x6C2 SWAP1 PUSH2 0x2EFF JUMP JUMPDEST PUSH1 0x40 MLOAD DUP1 SWAP2 SUB SWAP1 REVERT JUMPDEST DUP1 PUSH1 0x5 DUP2 SWAP1 SSTORE POP POP JUMP JUMPDEST PUSH1 0xA PUSH1 0x20 MSTORE DUP2 PUSH0 MSTORE PUSH1 0x40 PUSH0 KECCAK256 PUSH1 0x20 MSTORE DUP1 PUSH0 MSTORE PUSH1 0x40 PUSH0 KECCAK256 PUSH0 SWAP2 POP SWAP2 POP POP DUP1 PUSH0 ADD PUSH0 SWAP1 SLOAD SWAP1 PUSH2 0x100 EXP SWAP1 DIV PUSH1 0xFF AND SWAP1 DUP1 PUSH0 ADD PUSH1 0x1 SWAP1 SLOAD SWAP1 PUSH2 0x100 EXP SWAP1 DIV PUSH1 0xFF AND SWAP1 DUP1 PUSH0 ADD PUSH1 0x2 SWAP1 SLOAD SWAP1 PUSH2 0x100 EXP SWAP1 DIV PUSH1 0xFF AND SWAP1 DUP1 PUSH0 ADD PUSH1 0x3 SWAP1 SLOAD SWAP1 PUSH2 0x100 EXP SWAP1 DIV PUSH1 0xFF AND SWAP1 POP DUP5 JUMP JUMPDEST PUSH2 0x744 PUSH2 0x23E6 JUMP JUMPDEST PUSH32 0x0 PUSH1 0x7 SLOAD PUSH2 0x772 SWAP2 SWAP1 PUSH2 0x2F4A JUMP JUMPDEST TIMESTAMP LT ISZERO PUSH2 0x7B4 JUMPI PUSH1 0x40 MLOAD PUSH32 0x8C379A000000000000000000000000000000000000000000000000000000000 DUP2 MSTORE PUSH1 0x4 ADD PUSH2 0x7AB SWAP1 PUSH2 0x2FC7 JUMP JUMPDEST PUSH1 0x40 MLOAD DUP1 SWAP2 SUB SWAP1 REVERT JUMPDEST PUSH0 PUSH1 0x8 SLOAD SWAP1 POP PUSH0 PUSH1 0x8 DUP2 SWAP1 SSTORE POP TIMESTAMP PUSH1 0x7 DUP2 SWAP1 SSTORE POP PUSH0 PUSH2 0x7D1 PUSH2 0x1DD8 JUMP JUMPDEST PUSH20 0xFFFFFFFFFFFFFFFFFFFFFFFFFFFFFFFFFFFFFFFF AND DUP3 PUSH1 0x40 MLOAD PUSH2 0x7F4 SWAP1 PUSH2 0x3012 JUMP JUMPDEST PUSH0 PUSH1 0x40 MLOAD DUP1 DUP4 SUB DUP2 DUP6 DUP8 GAS CALL SWAP3 POP POP POP RETURNDATASIZE DUP1 PUSH0 DUP2 EQ PUSH2 0x82E JUMPI PUSH1 0x40 MLOAD SWAP2 POP PUSH1 0x1F NOT PUSH1 0x3F RETURNDATASIZE ADD AND DUP3 ADD PUSH1 0x40 MSTORE RETURNDATASIZE DUP3 MSTORE RETURNDATASIZE PUSH0 PUSH1 0x20 DUP5 ADD RETURNDATACOPY PUSH2 0x833 JUMP JUMPDEST PUSH1 0x60 SWAP2 POP JUMPDEST POP POP SWAP1 POP DUP1 PUSH2 0x877 JUMPI PUSH1 0x40 MLOAD PUSH32 0x8C379A000000000000000000000000000000000000000000000000000000000 DUP2 MSTORE PUSH1 0x4 ADD PUSH2 0x86E SWAP1 PUSH2 0x3070 JUMP JUMPDEST PUSH1 0x40 MLOAD DUP1 SWAP2 SUB SWAP1 REVERT JUMPDEST PUSH32 0xD3C6ACEF4F1BD70F36DAD19B43C6B794AC969B546734638671026F801D476FA DUP3 PUSH1 0x40 MLOAD PUSH2 0x8A6 SWAP2 SWAP1 PUSH2 0x2819 JUMP JUMPDEST PUSH1 0x40 MLOAD DUP1 SWAP2 SUB SWAP1 LOG1 POP POP JUMP JUMPDEST PUSH2 0x8BA PUSH2 0x23E6 JUMP JUMPDEST PUSH0 DUP2 GT PUSH2 0x8FC JUMPI PUSH1 0x40 MLOAD PUSH32 0x8C379A000000000000000000000000000000000000000000000000000000000 DUP2 MSTORE PUSH1 0x4 ADD PUSH2 0x8F3 SWAP1 PUSH2 0x30D8 JUMP JUMPDEST PUSH1 0x40 MLOAD DUP1 SWAP2 SUB SWAP1 REVERT JUMPDEST DUP1 PUSH1 0x3 DUP2 SWAP1 SSTORE POP POP JUMP JUMPDEST PUSH1 0x7 SLOAD DUP2 JUMP JUMPDEST PUSH2 0x914 PUSH2 0x23E6 JUMP JUMPDEST PUSH2 0x91C PUSH2 0x246D JUMP JUMPDEST JUMP JUMPDEST PUSH32 0x0 DUP2 JUMP JUMPDEST PUSH1 0x8 SLOAD DUP2 JUMP JUMPDEST PUSH0 DUP1 PUSH1 0x14 SWAP1 SLOAD SWAP1 PUSH2 0x100 EXP SWAP1 DIV PUSH1 0xFF AND SWAP1 POP SWAP1 JUMP JUMPDEST PUSH1 0x6 SLOAD CALLVALUE LT ISZERO PUSH2 0x9A2 JUMPI PUSH1 0x40 MLOAD PUSH32 0x8C379A000000000000000000000000000000000000000000000000000000000 DUP2 MSTORE PUSH1 0x4 ADD PUSH2 0x999 SWAP1 PUSH2 0x3140 JUMP JUMPDEST PUSH1 0x40 MLOAD DUP1 SWAP2 SUB SWAP1 REVERT JUMPDEST PUSH1 0x6 SLOAD PUSH1 0x8 PUSH0 DUP3 DUP3 SLOAD PUSH2 0x9B5 SWAP2 SWAP1 PUSH2 0x2F4A JUMP JUMPDEST SWAP3 POP POP DUP2 SWAP1 SSTORE POP PUSH0 PUSH1 0x6 SLOAD CALLVALUE PUSH2 0x9CB SWAP2 SWAP1 PUSH2 0x315E JUMP JUMPDEST SWAP1 POP PUSH0 DUP2 GT ISZERO PUSH2 0xA1A JUMPI CALLER PUSH20 0xFFFFFFFFFFFFFFFFFFFFFFFFFFFFFFFFFFFFFFFF AND PUSH2 0x8FC DUP3 SWAP1 DUP2 ISZERO MUL SWAP1 PUSH1 0x40 MLOAD PUSH0 PUSH1 0x40 MLOAD DUP1 DUP4 SUB DUP2 DUP6 DUP9 DUP9 CALL SWAP4 POP POP POP POP ISZERO DUP1 ISZERO PUSH2 0xA18 JUMPI RETURNDATASIZE PUSH0 DUP1 RETURNDATACOPY RETURNDATASIZE PUSH0 REVERT JUMPDEST POP JUMPDEST PUSH0 PUSH1 0xA PUSH0 CALLER PUSH20 0xFFFFFFFFFFFFFFFFFFFFFFFFFFFFFFFFFFFFFFFF AND PUSH20 0xFFFFFFFFFFFFFFFFFFFFFFFFFFFFFFFFFFFFFFFF AND DUP2 MSTORE PUSH1 0x20 ADD SWAP1 DUP2 MSTORE PUSH1 0x20 ADD PUSH0 KECCAK256 PUSH0 DUP6 DUP2 MSTORE PUSH1 0x20 ADD SWAP1 DUP2 MSTORE PUSH1 0x20 ADD PUSH0 KECCAK256 SWAP1 POP DUP1 PUSH0 ADD PUSH0 SWAP1 SLOAD SWAP1 PUSH2 0x100 EXP SWAP1 DIV PUSH1 0xFF AND PUSH2 0xAB8 JUMPI PUSH1 0x40 MLOAD PUSH32 0x8C379A000000000000000000000000000000000000000000000000000000000 DUP2 MSTORE PUSH1 0x4 ADD PUSH2 0xAAF SWAP1 PUSH2 0x31DB JUMP JUMPDEST PUSH1 0x40 MLOAD DUP1 SWAP2 SUB SWAP1 REVERT JUMPDEST PUSH1 0x2 DUP2 PUSH0 ADD PUSH1 0x1 SWAP1 SLOAD SWAP1 PUSH2 0x100 EXP SWAP1 DIV PUSH1 0xFF AND PUSH1 0xFF AND LT PUSH2 0xB0E JUMPI PUSH1 0x40 MLOAD PUSH32 0x8C379A000000000000000000000000000000000000000000000000000000000 DUP2 MSTORE PUSH1 0x4 ADD PUSH2 0xB05 SWAP1 PUSH2 0x3243 JUMP JUMPDEST PUSH1 0x40 MLOAD DUP1 SWAP2 SUB SWAP1 REVERT JUMPDEST DUP1 PUSH0 ADD PUSH1 0x2 SWAP1 SLOAD SWAP1 PUSH2 0x100 EXP SWAP1 DIV PUSH1 0xFF AND ISZERO PUSH2 0xB5F JUMPI PUSH1 0x40 MLOAD PUSH32 0x8C379A000000000000000000000000000000000000000000000000000000000 DUP2 MSTORE PUSH1 0x4 ADD PUSH2 0xB56 SWAP1 PUSH2 0x32D1 JUMP JUMPDEST PUSH1 0x40 MLOAD DUP1 SWAP2 SUB SWAP1 REVERT JUMPDEST DUP1 PUSH0 ADD PUSH1 0x1 DUP2 DUP2 SWAP1 SLOAD SWAP1 PUSH2 0x100 EXP SWAP1 DIV PUSH1 0xFF AND DUP1 SWAP3 SWAP2 SWAP1 PUSH2 0xB7F SWAP1 PUSH2 0x32EF JUMP JUMPDEST SWAP2 SWAP1 PUSH2 0x100 EXP DUP2 SLOAD DUP2 PUSH1 0xFF MUL NOT AND SWAP1 DUP4 PUSH1 0xFF AND MUL OR SWAP1 SSTORE POP POP PUSH0 PUSH1 0xB PUSH0 DUP7 DUP2 MSTORE PUSH1 0x20 ADD SWAP1 DUP2 MSTORE PUSH1 0x20 ADD PUSH0 KECCAK256 DUP1 SLOAD DUP1 PUSH1 0x20 MUL PUSH1 0x20 ADD PUSH1 0x40 MLOAD SWAP1 DUP2 ADD PUSH1 0x40 MSTORE DUP1 SWAP3 SWAP2 SWAP1 DUP2 DUP2 MSTORE PUSH1 0x20 ADD PUSH0 SWAP1 JUMPDEST DUP3 DUP3 LT ISZERO PUSH2 0xEDC JUMPI DUP4 DUP3 SWAP1 PUSH0 MSTORE PUSH1 0x20 PUSH0 KECCAK256 SWAP1 PUSH1 0x7 MUL ADD PUSH1 0x40 MLOAD DUP1 PUSH1 0xE0 ADD PUSH1 0x40 MSTORE SWAP1 DUP2 PUSH0 DUP3 ADD SLOAD DUP2 MSTORE PUSH1 0x20 ADD PUSH1 0x1 DUP3 ADD DUP1 SLOAD PUSH2 0xC03 SWAP1 PUSH2 0x3344 JUMP JUMPDEST DUP1 PUSH1 0x1F ADD PUSH1 0x20 DUP1 SWAP2 DIV MUL PUSH1 0x20 ADD PUSH1 0x40 MLOAD SWAP1 DUP2 ADD PUSH1 0x40 MSTORE DUP1 SWAP3 SWAP2 SWAP1 DUP2 DUP2 MSTORE PUSH1 0x20 ADD DUP3 DUP1 SLOAD PUSH2 0xC2F SWAP1 PUSH2 0x3344 JUMP JUMPDEST DUP1 ISZERO PUSH2 0xC7A JUMPI DUP1 PUSH1 0x1F LT PUSH2 0xC51 JUMPI PUSH2 0x100 DUP1 DUP4 SLOAD DIV MUL DUP4 MSTORE SWAP2 PUSH1 0x20 ADD SWAP2 PUSH2 0xC7A JUMP JUMPDEST DUP3 ADD SWAP2 SWAP1 PUSH0 MSTORE PUSH1 0x20 PUSH0 KECCAK256 SWAP1 JUMPDEST DUP2 SLOAD DUP2 MSTORE SWAP1 PUSH1 0x1 ADD SWAP1 PUSH1 0x20 ADD DUP1 DUP4 GT PUSH2 0xC5D JUMPI DUP3 SWAP1 SUB PUSH1 0x1F AND DUP3 ADD SWAP2 JUMPDEST POP POP POP POP POP DUP2 MSTORE PUSH1 0x20 ADD PUSH1 0x2 DUP3 ADD DUP1 SLOAD PUSH2 0xC93 SWAP1 PUSH2 0x3344 JUMP JUMPDEST DUP1 PUSH1 0x1F ADD PUSH1 0x20 DUP1 SWAP2 DIV MUL PUSH1 0x20 ADD PUSH1 0x40 MLOAD SWAP1 DUP2 ADD PUSH1 0x40 MSTORE DUP1 SWAP3 SWAP2 SWAP1 DUP2 DUP2 MSTORE PUSH1 0x20 ADD DUP3 DUP1 SLOAD PUSH2 0xCBF SWAP1 PUSH2 0x3344 JUMP JUMPDEST DUP1 ISZERO PUSH2 0xD0A JUMPI DUP1 PUSH1 0x1F LT PUSH2 0xCE1 JUMPI PUSH2 0x100 DUP1 DUP4 SLOAD DIV MUL DUP4 MSTORE SWAP2 PUSH1 0x20 ADD SWAP2 PUSH2 0xD0A JUMP JUMPDEST DUP3 ADD SWAP2 SWAP1 PUSH0 MSTORE PUSH1 0x20 PUSH0 KECCAK256 SWAP1 JUMPDEST DUP2 SLOAD DUP2 MSTORE SWAP1 PUSH1 0x1 ADD SWAP1 PUSH1 0x20 ADD DUP1 DUP4 GT PUSH2 0xCED JUMPI DUP3 SWAP1 SUB PUSH1 0x1F AND DUP3 ADD SWAP2 JUMPDEST POP POP POP POP POP DUP2 MSTORE PUSH1 0x20 ADD PUSH1 0x3 DUP3 ADD DUP1 SLOAD PUSH2 0xD23 SWAP1 PUSH2 0x3344 JUMP JUMPDEST DUP1 PUSH1 0x1F ADD PUSH1 0x20 DUP1 SWAP2 DIV MUL PUSH1 0x20 ADD PUSH1 0x40 MLOAD SWAP1 DUP2 ADD PUSH1 0x40 MSTORE DUP1 SWAP3 SWAP2 SWAP1 DUP2 DUP2 MSTORE PUSH1 0x20 ADD DUP3 DUP1 SLOAD PUSH2 0xD4F SWAP1 PUSH2 0x3344 JUMP JUMPDEST DUP1 ISZERO PUSH2 0xD9A JUMPI DUP1 PUSH1 0x1F LT PUSH2 0xD71 JUMPI PUSH2 0x100 DUP1 DUP4 SLOAD DIV MUL DUP4 MSTORE SWAP2 PUSH1 0x20 ADD SWAP2 PUSH2 0xD9A JUMP JUMPDEST DUP3 ADD SWAP2 SWAP1 PUSH0 MSTORE PUSH1 0x20 PUSH0 KECCAK256 SWAP1 JUMPDEST DUP2 SLOAD DUP2 MSTORE SWAP1 PUSH1 0x1 ADD SWAP1 PUSH1 0x20 ADD DUP1 DUP4 GT PUSH2 0xD7D JUMPI DUP3 SWAP1 SUB PUSH1 0x1F AND DUP3 ADD SWAP2 JUMPDEST POP POP POP POP POP DUP2 MSTORE PUSH1 0x20 ADD PUSH1 0x4 DUP3 ADD DUP1 SLOAD PUSH2 0xDB3 SWAP1 PUSH2 0x3344 JUMP JUMPDEST DUP1 PUSH1 0x1F ADD PUSH1 0x20 DUP1 SWAP2 DIV MUL PUSH1 0x20 ADD PUSH1 0x40 MLOAD SWAP1 DUP2 ADD PUSH1 0x40 MSTORE DUP1 SWAP3 SWAP2 SWAP1 DUP2 DUP2 MSTORE PUSH1 0x20 ADD DUP3 DUP1 SLOAD PUSH2 0xDDF SWAP1 PUSH2 0x3344 JUMP JUMPDEST DUP1 ISZERO PUSH2 0xE2A JUMPI DUP1 PUSH1 0x1F LT PUSH2 0xE01 JUMPI PUSH2 0x100 DUP1 DUP4 SLOAD DIV MUL DUP4 MSTORE SWAP2 PUSH1 0x20 ADD SWAP2 PUSH2 0xE2A JUMP JUMPDEST DUP3 ADD SWAP2 SWAP1 PUSH0 MSTORE PUSH1 0x20 PUSH0 KECCAK256 SWAP1 JUMPDEST DUP2 SLOAD DUP2 MSTORE SWAP1 PUSH1 0x1 ADD SWAP1 PUSH1 0x20 ADD DUP1 DUP4 GT PUSH2 0xE0D JUMPI DUP3 SWAP1 SUB PUSH1 0x1F AND DUP3 ADD SWAP2 JUMPDEST POP POP POP POP POP DUP2 MSTORE PUSH1 0x20 ADD PUSH1 0x5 DUP3 ADD DUP1 SLOAD PUSH2 0xE43 SWAP1 PUSH2 0x3344 JUMP JUMPDEST DUP1 PUSH1 0x1F ADD PUSH1 0x20 DUP1 SWAP2 DIV MUL PUSH1 0x20 ADD PUSH1 0x40 MLOAD SWAP1 DUP2 ADD PUSH1 0x40 MSTORE DUP1 SWAP3 SWAP2 SWAP1 DUP2 DUP2 MSTORE PUSH1 0x20 ADD DUP3 DUP1 SLOAD PUSH2 0xE6F SWAP1 PUSH2 0x3344 JUMP JUMPDEST DUP1 ISZERO PUSH2 0xEBA JUMPI DUP1 PUSH1 0x1F LT PUSH2 0xE91 JUMPI PUSH2 0x100 DUP1 DUP4 SLOAD DIV MUL DUP4 MSTORE SWAP2 PUSH1 0x20 ADD SWAP2 PUSH2 0xEBA JUMP JUMPDEST DUP3 ADD SWAP2 SWAP1 PUSH0 MSTORE PUSH1 0x20 PUSH0 KECCAK256 SWAP1 JUMPDEST DUP2 SLOAD DUP2 MSTORE SWAP1 PUSH1 0x1 ADD SWAP1 PUSH1 0x20 ADD DUP1 DUP4 GT PUSH2 0xE9D JUMPI DUP3 SWAP1 SUB PUSH1 0x1F AND DUP3 ADD SWAP2 JUMPDEST POP POP POP POP POP DUP2 MSTORE PUSH1 0x20 ADD PUSH1 0x6 DUP3 ADD SLOAD DUP2 MSTORE POP POP DUP2 MSTORE PUSH1 0x20 ADD SWAP1 PUSH1 0x1 ADD SWAP1 PUSH2 0xBC9 JUMP JUMPDEST POP POP POP POP SWAP1 POP DUP1 MLOAD DUP5 MLOAD EQ PUSH2 0xF26 JUMPI PUSH1 0x40 MLOAD PUSH32 0x8C379A000000000000000000000000000000000000000000000000000000000 DUP2 MSTORE PUSH1 0x4 ADD PUSH2 0xF1D SWAP1 PUSH2 0x33BE JUMP JUMPDEST PUSH1 0x40 MLOAD DUP1 SWAP2 SUB SWAP1 REVERT JUMPDEST PUSH0 PUSH1 0x1 SWAP1 POP PUSH0 JUMPDEST DUP3 MLOAD DUP2 LT ISZERO PUSH2 0xFB0 JUMPI DUP3 DUP2 DUP2 MLOAD DUP2 LT PUSH2 0xF49 JUMPI PUSH2 0xF48 PUSH2 0x33DC JUMP JUMPDEST JUMPDEST PUSH1 0x20 MUL PUSH1 0x20 ADD ADD MLOAD PUSH1 0xC0 ADD MLOAD DUP7 DUP3 DUP2 MLOAD DUP2 LT PUSH2 0xF68 JUMPI PUSH2 0xF67 PUSH2 0x33DC JUMP JUMPDEST JUMPDEST PUSH1 0x20 MUL PUSH1 0x20 ADD ADD MLOAD PUSH1 0x40 MLOAD PUSH1 0x20 ADD PUSH2 0xF80 SWAP2 SWAP1 PUSH2 0x3443 JUMP JUMPDEST PUSH1 0x40 MLOAD PUSH1 0x20 DUP2 DUP4 SUB SUB DUP2 MSTORE SWAP1 PUSH1 0x40 MSTORE DUP1 MLOAD SWAP1 PUSH1 0x20 ADD KECCAK256 EQ PUSH2 0xFA3 JUMPI PUSH0 SWAP2 POP PUSH2 0xFB0 JUMP JUMPDEST DUP1 DUP1 PUSH1 0x1 ADD SWAP2 POP POP PUSH2 0xF2D JUMP JUMPDEST POP DUP1 ISZERO PUSH2 0x114F JUMPI PUSH1 0x1 DUP4 PUSH0 ADD PUSH1 0x2 PUSH2 0x100 EXP DUP2 SLOAD DUP2 PUSH1 0xFF MUL NOT AND SWAP1 DUP4 ISZERO ISZERO MUL OR SWAP1 SSTORE POP PUSH1 0x9 PUSH0 DUP8 DUP2 MSTORE PUSH1 0x20 ADD SWAP1 DUP2 MSTORE PUSH1 0x20 ADD PUSH0 KECCAK256 PUSH1 0x2 ADD PUSH1 0x1 DUP2 DUP2 SWAP1 SLOAD SWAP1 PUSH2 0x100 EXP SWAP1 DIV PUSH4 0xFFFFFFFF AND DUP1 SWAP3 SWAP2 SWAP1 PUSH2 0x1007 SWAP1 PUSH2 0x3459 JUMP JUMPDEST SWAP2 SWAP1 PUSH2 0x100 EXP DUP2 SLOAD DUP2 PUSH4 0xFFFFFFFF MUL NOT AND SWAP1 DUP4 PUSH4 0xFFFFFFFF AND MUL OR SWAP1 SSTORE POP POP PUSH1 0x4 SLOAD PUSH1 0x9 PUSH0 DUP9 DUP2 MSTORE PUSH1 0x20 ADD SWAP1 DUP2 MSTORE PUSH1 0x20 ADD PUSH0 KECCAK256 PUSH1 0x3 ADD PUSH0 DUP3 DUP3 SLOAD PUSH2 0x104B SWAP2 SWAP1 PUSH2 0x2F4A JUMP JUMPDEST SWAP3 POP POP DUP2 SWAP1 SSTORE POP PUSH0 CALLER PUSH20 0xFFFFFFFFFFFFFFFFFFFFFFFFFFFFFFFFFFFFFFFF AND PUSH1 0x4 SLOAD PUSH1 0x40 MLOAD PUSH2 0x1079 SWAP1 PUSH2 0x3012 JUMP JUMPDEST PUSH0 PUSH1 0x40 MLOAD DUP1 DUP4 SUB DUP2 DUP6 DUP8 GAS CALL SWAP3 POP POP POP RETURNDATASIZE DUP1 PUSH0 DUP2 EQ PUSH2 0x10B3 JUMPI PUSH1 0x40 MLOAD SWAP2 POP PUSH1 0x1F NOT PUSH1 0x3F RETURNDATASIZE ADD AND DUP3 ADD PUSH1 0x40 MSTORE RETURNDATASIZE DUP3 MSTORE RETURNDATASIZE PUSH0 PUSH1 0x20 DUP5 ADD RETURNDATACOPY PUSH2 0x10B8 JUMP JUMPDEST PUSH1 0x60 SWAP2 POP JUMPDEST POP POP SWAP1 POP DUP1 PUSH2 0x10FC JUMPI PUSH1 0x40 MLOAD PUSH32 0x8C379A000000000000000000000000000000000000000000000000000000000 DUP2 MSTORE PUSH1 0x4 ADD PUSH2 0x10F3 SWAP1 PUSH2 0x34CE JUMP JUMPDEST PUSH1 0x40 MLOAD DUP1 SWAP2 SUB SWAP1 REVERT JUMPDEST CALLER PUSH20 0xFFFFFFFFFFFFFFFFFFFFFFFFFFFFFFFFFFFFFFFF AND DUP8 PUSH32 0x24B5EFA61DD1CFC659205A97FB8ED868F3CB8C81922BAB2B96423E5DE1DE2CB7 PUSH1 0x4 SLOAD PUSH1 0x40 MLOAD PUSH2 0x1145 SWAP2 SWAP1 PUSH2 0x2819 JUMP JUMPDEST PUSH1 0x40 MLOAD DUP1 SWAP2 SUB SWAP1 LOG3 POP JUMPDEST CALLER PUSH20 0xFFFFFFFFFFFFFFFFFFFFFFFFFFFFFFFFFFFFFFFF AND DUP7 PUSH32 0xAEE8895C1BF669485CEE2DD54D1EEE9E65B02A244AFB6F798F95D72405CDF7A5 DUP4 PUSH1 0x40 MLOAD PUSH2 0x1196 SWAP2 SWAP1 PUSH2 0x2832 JUMP JUMPDEST PUSH1 0x40 MLOAD DUP1 SWAP2 SUB SWAP1 LOG3 POP POP POP POP POP POP JUMP JUMPDEST PUSH2 0x11AE PUSH2 0x24CE JUMP JUMPDEST PUSH1 0x6 SLOAD CALLVALUE LT ISZERO PUSH2 0x11F3 JUMPI PUSH1 0x40 MLOAD PUSH32 0x8C379A000000000000000000000000000000000000000000000000000000000 DUP2 MSTORE PUSH1 0x4 ADD PUSH2 0x11EA SWAP1 PUSH2 0x3140 JUMP JUMPDEST PUSH1 0x40 MLOAD DUP1 SWAP2 SUB SWAP1 REVERT JUMPDEST PUSH1 0x6 SLOAD PUSH1 0x8 PUSH0 DUP3 DUP3 SLOAD PUSH2 0x1206 SWAP2 SWAP1 PUSH2 0x2F4A JUMP JUMPDEST SWAP3 POP POP DUP2 SWAP1 SSTORE POP PUSH0 PUSH1 0x6 SLOAD CALLVALUE PUSH2 0x121C SWAP2 SWAP1 PUSH2 0x315E JUMP JUMPDEST SWAP1 POP PUSH0 DUP2 GT ISZERO PUSH2 0x126B JUMPI CALLER PUSH20 0xFFFFFFFFFFFFFFFFFFFFFFFFFFFFFFFFFFFFFFFF AND PUSH2 0x8FC DUP3 SWAP1 DUP2 ISZERO MUL SWAP1 PUSH1 0x40 MLOAD PUSH0 PUSH1 0x40 MLOAD DUP1 DUP4 SUB DUP2 DUP6 DUP9 DUP9 CALL SWAP4 POP POP POP POP ISZERO DUP1 ISZERO PUSH2 0x1269 JUMPI RETURNDATASIZE PUSH0 DUP1 RETURNDATACOPY RETURNDATASIZE PUSH0 REVERT JUMPDEST POP JUMPDEST PUSH1 0x2 SLOAD PUSH1 0x1 PUSH0 SWAP1 SLOAD SWAP1 PUSH2 0x100 EXP SWAP1 DIV PUSH20 0xFFFFFFFFFFFFFFFFFFFFFFFFFFFFFFFFFFFFFFFF AND PUSH20 0xFFFFFFFFFFFFFFFFFFFFFFFFFFFFFFFFFFFFFFFF AND PUSH4 0xB9F79451 CALLER PUSH1 0x40 MLOAD DUP3 PUSH4 0xFFFFFFFF AND PUSH1 0xE0 SHL DUP2 MSTORE PUSH1 0x4 ADD PUSH2 0x12C8 SWAP2 SWAP1 PUSH2 0x2CA7 JUMP JUMPDEST PUSH1 0x20 PUSH1 0x40 MLOAD DUP1 DUP4 SUB DUP2 DUP7 GAS STATICCALL ISZERO DUP1 ISZERO PUSH2 0x12E3 JUMPI RETURNDATASIZE PUSH0 DUP1 RETURNDATACOPY RETURNDATASIZE PUSH0 REVERT JUMPDEST POP POP POP POP PUSH1 0x40 MLOAD RETURNDATASIZE PUSH1 0x1F NOT PUSH1 0x1F DUP3 ADD AND DUP3 ADD DUP1 PUSH1 0x40 MSTORE POP DUP2 ADD SWAP1 PUSH2 0x1307 SWAP2 SWAP1 PUSH2 0x3500 JUMP JUMPDEST LT ISZERO PUSH2 0x1348 JUMPI PUSH1 0x40 MLOAD PUSH32 0x8C379A000000000000000000000000000000000000000000000000000000000 DUP2 MSTORE PUSH1 0x4 ADD PUSH2 0x133F SWAP1 PUSH2 0x359B JUMP JUMPDEST PUSH1 0x40 MLOAD DUP1 SWAP2 SUB SWAP1 REVERT JUMPDEST PUSH1 0x9 PUSH0 DUP4 DUP2 MSTORE PUSH1 0x20 ADD SWAP1 DUP2 MSTORE PUSH1 0x20 ADD PUSH0 KECCAK256 PUSH1 0x2 ADD PUSH0 SWAP1 SLOAD SWAP1 PUSH2 0x100 EXP SWAP1 DIV PUSH1 0xFF AND PUSH2 0x13A8 JUMPI PUSH1 0x40 MLOAD PUSH32 0x8C379A000000000000000000000000000000000000000000000000000000000 DUP2 MSTORE PUSH1 0x4 ADD PUSH2 0x139F SWAP1 PUSH2 0x3603 JUMP JUMPDEST PUSH1 0x40 MLOAD DUP1 SWAP2 SUB SWAP1 REVERT JUMPDEST PUSH1 0xA PUSH0 CALLER PUSH20 0xFFFFFFFFFFFFFFFFFFFFFFFFFFFFFFFFFFFFFFFF AND PUSH20 0xFFFFFFFFFFFFFFFFFFFFFFFFFFFFFFFFFFFFFFFF AND DUP2 MSTORE PUSH1 0x20 ADD SWAP1 DUP2 MSTORE PUSH1 0x20 ADD PUSH0 KECCAK256 PUSH0 DUP4 DUP2 MSTORE PUSH1 0x20 ADD SWAP1 DUP2 MSTORE PUSH1 0x20 ADD PUSH0 KECCAK256 PUSH0 ADD PUSH0 SWAP1 SLOAD SWAP1 PUSH2 0x100 EXP SWAP1 DIV PUSH1 0xFF AND ISZERO PUSH2 0x1443 JUMPI PUSH1 0x40 MLOAD PUSH32 0x8C379A000000000000000000000000000000000000000000000000000000000 DUP2 MSTORE PUSH1 0x4 ADD PUSH2 0x143A SWAP1 PUSH2 0x366B JUMP JUMPDEST PUSH1 0x40 MLOAD DUP1 SWAP2 SUB SWAP1 REVERT JUMPDEST PUSH1 0x1 PUSH1 0xA PUSH0 CALLER PUSH20 0xFFFFFFFFFFFFFFFFFFFFFFFFFFFFFFFFFFFFFFFF AND PUSH20 0xFFFFFFFFFFFFFFFFFFFFFFFFFFFFFFFFFFFFFFFF AND DUP2 MSTORE PUSH1 0x20 ADD SWAP1 DUP2 MSTORE PUSH1 0x20 ADD PUSH0 KECCAK256 PUSH0 DUP5 DUP2 MSTORE PUSH1 0x20 ADD SWAP1 DUP2 MSTORE PUSH1 0x20 ADD PUSH0 KECCAK256 PUSH0 ADD PUSH0 PUSH2 0x100 EXP DUP2 SLOAD DUP2 PUSH1 0xFF MUL NOT AND SWAP1 DUP4 ISZERO ISZERO MUL OR SWAP1 SSTORE POP PUSH1 0x9 PUSH0 DUP4 DUP2 MSTORE PUSH1 0x20 ADD SWAP1 DUP2 MSTORE PUSH1 0x20 ADD PUSH0 KECCAK256 PUSH1 0x4 ADD PUSH0 DUP2 DUP2 SWAP1 SLOAD SWAP1 PUSH2 0x100 EXP SWAP1 DIV PUSH4 0xFFFFFFFF AND DUP1 SWAP3 SWAP2 SWAP1 PUSH2 0x14DC SWAP1 PUSH2 0x3459 JUMP JUMPDEST SWAP2 SWAP1 PUSH2 0x100 EXP DUP2 SLOAD DUP2 PUSH4 0xFFFFFFFF MUL NOT AND SWAP1 DUP4 PUSH4 0xFFFFFFFF AND MUL OR SWAP1 SSTORE POP POP CALLER PUSH20 0xFFFFFFFFFFFFFFFFFFFFFFFFFFFFFFFFFFFFFFFF AND DUP3 PUSH32 0xFACF1A2842ACBAD124CBCA0A047FE37BC246C68F814E0350C7BD8A022FD1DDDB PUSH1 0x40 MLOAD PUSH1 0x40 MLOAD DUP1 SWAP2 SUB SWAP1 LOG3 POP POP JUMP JUMPDEST PUSH1 0xC SLOAD DUP2 JUMP JUMPDEST PUSH2 0x1551 PUSH2 0x23E6 JUMP JUMPDEST PUSH2 0x155A PUSH0 PUSH2 0x2518 JUMP JUMPDEST JUMP JUMPDEST PUSH2 0x1564 PUSH2 0x23E6 JUMP JUMPDEST PUSH1 0x9 PUSH0 DUP3 DUP2 MSTORE PUSH1 0x20 ADD SWAP1 DUP2 MSTORE PUSH1 0x20 ADD PUSH0 KECCAK256 PUSH1 0x2 ADD PUSH0 SWAP1 SLOAD SWAP1 PUSH2 0x100 EXP SWAP1 DIV PUSH1 0xFF AND ISZERO PUSH2 0x15C5 JUMPI PUSH1 0x40 MLOAD PUSH32 0x8C379A000000000000000000000000000000000000000000000000000000000 DUP2 MSTORE PUSH1 0x4 ADD PUSH2 0x15BC SWAP1 PUSH2 0x36D3 JUMP JUMPDEST PUSH1 0x40 MLOAD DUP1 SWAP2 SUB SWAP1 REVERT JUMPDEST PUSH1 0x1 PUSH1 0x9 PUSH0 DUP4 DUP2 MSTORE PUSH1 0x20 ADD SWAP1 DUP2 MSTORE PUSH1 0x20 ADD PUSH0 KECCAK256 PUSH1 0x2 ADD PUSH0 PUSH2 0x100 EXP DUP2 SLOAD DUP2 PUSH1 0xFF MUL NOT AND SWAP1 DUP4 ISZERO ISZERO MUL OR SWAP1 SSTORE POP DUP1 PUSH32 0x87C1C0E5CD17BEB8C61A3337B32C66021CB179DD6F97D6D9CE923A029092BD45 PUSH1 0x40 MLOAD PUSH1 0x40 MLOAD DUP1 SWAP2 SUB SWAP1 LOG2 POP JUMP JUMPDEST PUSH2 0x1629 PUSH2 0x24CE JUMP JUMPDEST PUSH1 0x6 SLOAD CALLVALUE LT ISZERO PUSH2 0x166E JUMPI PUSH1 0x40 MLOAD PUSH32 0x8C379A000000000000000000000000000000000000000000000000000000000 DUP2 MSTORE PUSH1 0x4 ADD PUSH2 0x1665 SWAP1 PUSH2 0x3140 JUMP JUMPDEST PUSH1 0x40 MLOAD DUP1 SWAP2 SUB SWAP1 REVERT JUMPDEST PUSH1 0x6 SLOAD PUSH1 0x8 PUSH0 DUP3 DUP3 SLOAD PUSH2 0x1681 SWAP2 SWAP1 PUSH2 0x2F4A JUMP JUMPDEST SWAP3 POP POP DUP2 SWAP1 SSTORE POP PUSH0 PUSH1 0x6 SLOAD CALLVALUE PUSH2 0x1697 SWAP2 SWAP1 PUSH2 0x315E JUMP JUMPDEST SWAP1 POP PUSH0 DUP2 GT ISZERO PUSH2 0x16E6 JUMPI CALLER PUSH20 0xFFFFFFFFFFFFFFFFFFFFFFFFFFFFFFFFFFFFFFFF AND PUSH2 0x8FC DUP3 SWAP1 DUP2 ISZERO MUL SWAP1 PUSH1 0x40 MLOAD PUSH0 PUSH1 0x40 MLOAD DUP1 DUP4 SUB DUP2 DUP6 DUP9 DUP9 CALL SWAP4 POP POP POP POP ISZERO DUP1 ISZERO PUSH2 0x16E4 JUMPI RETURNDATASIZE PUSH0 DUP1 RETURNDATACOPY RETURNDATASIZE PUSH0 REVERT JUMPDEST POP JUMPDEST PUSH1 0x3 SLOAD PUSH1 0x1 PUSH0 SWAP1 SLOAD SWAP1 PUSH2 0x100 EXP SWAP1 DIV PUSH20 0xFFFFFFFFFFFFFFFFFFFFFFFFFFFFFFFFFFFFFFFF AND PUSH20 0xFFFFFFFFFFFFFFFFFFFFFFFFFFFFFFFFFFFFFFFF AND PUSH4 0xB9F79451 CALLER PUSH1 0x40 MLOAD DUP3 PUSH4 0xFFFFFFFF AND PUSH1 0xE0 SHL DUP2 MSTORE PUSH1 0x4 ADD PUSH2 0x1743 SWAP2 SWAP1 PUSH2 0x2CA7 JUMP JUMPDEST PUSH1 0x20 PUSH1 0x40 MLOAD DUP1 DUP4 SUB DUP2 DUP7 GAS STATICCALL ISZERO DUP1 ISZERO PUSH2 0x175E JUMPI RETURNDATASIZE PUSH0 DUP1 RETURNDATACOPY RETURNDATASIZE PUSH0 REVERT JUMPDEST POP POP POP POP PUSH1 0x40 MLOAD RETURNDATASIZE PUSH1 0x1F NOT PUSH1 0x1F DUP3 ADD AND DUP3 ADD DUP1 PUSH1 0x40 MSTORE POP DUP2 ADD SWAP1 PUSH2 0x1782 SWAP2 SWAP1 PUSH2 0x3500 JUMP JUMPDEST LT ISZERO PUSH2 0x17C3 JUMPI PUSH1 0x40 MLOAD PUSH32 0x8C379A000000000000000000000000000000000000000000000000000000000 DUP2 MSTORE PUSH1 0x4 ADD PUSH2 0x17BA SWAP1 PUSH2 0x3761 JUMP JUMPDEST PUSH1 0x40 MLOAD DUP1 SWAP2 SUB SWAP1 REVERT JUMPDEST PUSH1 0x5 DUP8 MLOAD EQ DUP1 ISZERO PUSH2 0x17D5 JUMPI POP DUP6 MLOAD DUP8 MLOAD EQ JUMPDEST DUP1 ISZERO PUSH2 0x17E2 JUMPI POP DUP5 MLOAD DUP8 MLOAD EQ JUMPDEST DUP1 ISZERO PUSH2 0x17EF JUMPI POP DUP4 MLOAD DUP8 MLOAD EQ JUMPDEST DUP1 ISZERO PUSH2 0x17FC JUMPI POP DUP3 MLOAD DUP8 MLOAD EQ JUMPDEST DUP1 ISZERO PUSH2 0x1809 JUMPI POP DUP2 MLOAD DUP8 MLOAD EQ JUMPDEST PUSH2 0x1848 JUMPI PUSH1 0x40 MLOAD PUSH32 0x8C379A000000000000000000000000000000000000000000000000000000000 DUP2 MSTORE PUSH1 0x4 ADD PUSH2 0x183F SWAP1 PUSH2 0x37C9 JUMP JUMPDEST PUSH1 0x40 MLOAD DUP1 SWAP2 SUB SWAP1 REVERT JUMPDEST PUSH0 PUSH1 0xC PUSH0 DUP2 SLOAD DUP1 SWAP3 SWAP2 SWAP1 PUSH2 0x185B SWAP1 PUSH2 0x37E7 JUMP JUMPDEST SWAP2 SWAP1 POP SSTORE SWAP1 POP PUSH1 0x40 MLOAD DUP1 PUSH1 0xC0 ADD PUSH1 0x40 MSTORE DUP1 CALLER PUSH20 0xFFFFFFFFFFFFFFFFFFFFFFFFFFFFFFFFFFFFFFFF AND DUP2 MSTORE PUSH1 0x20 ADD DUP11 DUP2 MSTORE PUSH1 0x20 ADD PUSH0 ISZERO ISZERO DUP2 MSTORE PUSH1 0x20 ADD PUSH0 PUSH4 0xFFFFFFFF AND DUP2 MSTORE PUSH1 0x20 ADD PUSH0 DUP2 MSTORE PUSH1 0x20 ADD PUSH0 PUSH4 0xFFFFFFFF AND DUP2 MSTORE POP PUSH1 0x9 PUSH0 DUP4 DUP2 MSTORE PUSH1 0x20 ADD SWAP1 DUP2 MSTORE PUSH1 0x20 ADD PUSH0 KECCAK256 PUSH0 DUP3 ADD MLOAD DUP2 PUSH0 ADD PUSH0 PUSH2 0x100 EXP DUP2 SLOAD DUP2 PUSH20 0xFFFFFFFFFFFFFFFFFFFFFFFFFFFFFFFFFFFFFFFF MUL NOT AND SWAP1 DUP4 PUSH20 0xFFFFFFFFFFFFFFFFFFFFFFFFFFFFFFFFFFFFFFFF AND MUL OR SWAP1 SSTORE POP PUSH1 0x20 DUP3 ADD MLOAD DUP2 PUSH1 0x1 ADD SWAP1 DUP2 PUSH2 0x191C SWAP2 SWAP1 PUSH2 0x39C2 JUMP JUMPDEST POP PUSH1 0x40 DUP3 ADD MLOAD DUP2 PUSH1 0x2 ADD PUSH0 PUSH2 0x100 EXP DUP2 SLOAD DUP2 PUSH1 0xFF MUL NOT AND SWAP1 DUP4 ISZERO ISZERO MUL OR SWAP1 SSTORE POP PUSH1 0x60 DUP3 ADD MLOAD DUP2 PUSH1 0x2 ADD PUSH1 0x1 PUSH2 0x100 EXP DUP2 SLOAD DUP2 PUSH4 0xFFFFFFFF MUL NOT AND SWAP1 DUP4 PUSH4 0xFFFFFFFF AND MUL OR SWAP1 SSTORE POP PUSH1 0x80 DUP3 ADD MLOAD DUP2 PUSH1 0x3 ADD SSTORE PUSH1 0xA0 DUP3 ADD MLOAD DUP2 PUSH1 0x4 ADD PUSH0 PUSH2 0x100 EXP DUP2 SLOAD DUP2 PUSH4 0xFFFFFFFF MUL NOT AND SWAP1 DUP4 PUSH4 0xFFFFFFFF AND MUL OR SWAP1 SSTORE POP SWAP1 POP POP PUSH0 JUMPDEST DUP9 MLOAD DUP2 LT ISZERO PUSH2 0x1D51 JUMPI PUSH1 0x40 MLOAD PUSH1 0x20 ADD PUSH2 0x19B0 SWAP1 PUSH2 0x3ADB JUMP JUMPDEST PUSH1 0x40 MLOAD PUSH1 0x20 DUP2 DUP4 SUB SUB DUP2 MSTORE SWAP1 PUSH1 0x40 MSTORE DUP1 MLOAD SWAP1 PUSH1 0x20 ADD KECCAK256 DUP5 DUP3 DUP2 MLOAD DUP2 LT PUSH2 0x19D9 JUMPI PUSH2 0x19D8 PUSH2 0x33DC JUMP JUMPDEST JUMPDEST PUSH1 0x20 MUL PUSH1 0x20 ADD ADD MLOAD PUSH1 0x40 MLOAD PUSH1 0x20 ADD PUSH2 0x19F1 SWAP2 SWAP1 PUSH2 0x3443 JUMP JUMPDEST PUSH1 0x40 MLOAD PUSH1 0x20 DUP2 DUP4 SUB SUB DUP2 MSTORE SWAP1 PUSH1 0x40 MSTORE DUP1 MLOAD SWAP1 PUSH1 0x20 ADD KECCAK256 EQ DUP1 PUSH2 0x1A76 JUMPI POP PUSH1 0x40 MLOAD PUSH1 0x20 ADD PUSH2 0x1A1D SWAP1 PUSH2 0x3B39 JUMP JUMPDEST PUSH1 0x40 MLOAD PUSH1 0x20 DUP2 DUP4 SUB SUB DUP2 MSTORE SWAP1 PUSH1 0x40 MSTORE DUP1 MLOAD SWAP1 PUSH1 0x20 ADD KECCAK256 DUP5 DUP3 DUP2 MLOAD DUP2 LT PUSH2 0x1A46 JUMPI PUSH2 0x1A45 PUSH2 0x33DC JUMP JUMPDEST JUMPDEST PUSH1 0x20 MUL PUSH1 0x20 ADD ADD MLOAD PUSH1 0x40 MLOAD PUSH1 0x20 ADD PUSH2 0x1A5E SWAP2 SWAP1 PUSH2 0x3443 JUMP JUMPDEST PUSH1 0x40 MLOAD PUSH1 0x20 DUP2 DUP4 SUB SUB DUP2 MSTORE SWAP1 PUSH1 0x40 MSTORE DUP1 MLOAD SWAP1 PUSH1 0x20 ADD KECCAK256 EQ JUMPDEST DUP1 PUSH2 0x1AE4 JUMPI POP PUSH1 0x40 MLOAD PUSH1 0x20 ADD PUSH2 0x1A8B SWAP1 PUSH2 0x3B97 JUMP JUMPDEST PUSH1 0x40 MLOAD PUSH1 0x20 DUP2 DUP4 SUB SUB DUP2 MSTORE SWAP1 PUSH1 0x40 MSTORE DUP1 MLOAD SWAP1 PUSH1 0x20 ADD KECCAK256 DUP5 DUP3 DUP2 MLOAD DUP2 LT PUSH2 0x1AB4 JUMPI PUSH2 0x1AB3 PUSH2 0x33DC JUMP JUMPDEST JUMPDEST PUSH1 0x20 MUL PUSH1 0x20 ADD ADD MLOAD PUSH1 0x40 MLOAD PUSH1 0x20 ADD PUSH2 0x1ACC SWAP2 SWAP1 PUSH2 0x3443 JUMP JUMPDEST PUSH1 0x40 MLOAD PUSH1 0x20 DUP2 DUP4 SUB SUB DUP2 MSTORE SWAP1 PUSH1 0x40 MSTORE DUP1 MLOAD SWAP1 PUSH1 0x20 ADD KECCAK256 EQ JUMPDEST DUP1 PUSH2 0x1B52 JUMPI POP PUSH1 0x40 MLOAD PUSH1 0x20 ADD PUSH2 0x1AF9 SWAP1 PUSH2 0x3BF5 JUMP JUMPDEST PUSH1 0x40 MLOAD PUSH1 0x20 DUP2 DUP4 SUB SUB DUP2 MSTORE SWAP1 PUSH1 0x40 MSTORE DUP1 MLOAD SWAP1 PUSH1 0x20 ADD KECCAK256 DUP5 DUP3 DUP2 MLOAD DUP2 LT PUSH2 0x1B22 JUMPI PUSH2 0x1B21 PUSH2 0x33DC JUMP JUMPDEST JUMPDEST PUSH1 0x20 MUL PUSH1 0x20 ADD ADD MLOAD PUSH1 0x40 MLOAD PUSH1 0x20 ADD PUSH2 0x1B3A SWAP2 SWAP1 PUSH2 0x3443 JUMP JUMPDEST PUSH1 0x40 MLOAD PUSH1 0x20 DUP2 DUP4 SUB SUB DUP2 MSTORE SWAP1 PUSH1 0x40 MSTORE DUP1 MLOAD SWAP1 PUSH1 0x20 ADD KECCAK256 EQ JUMPDEST PUSH2 0x1B91 JUMPI PUSH1 0x40 MLOAD PUSH32 0x8C379A000000000000000000000000000000000000000000000000000000000 DUP2 MSTORE PUSH1 0x4 ADD PUSH2 0x1B88 SWAP1 PUSH2 0x3C53 JUMP JUMPDEST PUSH1 0x40 MLOAD DUP1 SWAP2 SUB SWAP1 REVERT JUMPDEST PUSH0 PUSH1 0x40 MLOAD DUP1 PUSH1 0xE0 ADD PUSH1 0x40 MSTORE DUP1 DUP5 DUP2 MSTORE PUSH1 0x20 ADD DUP12 DUP5 DUP2 MLOAD DUP2 LT PUSH2 0x1BB6 JUMPI PUSH2 0x1BB5 PUSH2 0x33DC JUMP JUMPDEST JUMPDEST PUSH1 0x20 MUL PUSH1 0x20 ADD ADD MLOAD DUP2 MSTORE PUSH1 0x20 ADD DUP11 DUP5 DUP2 MLOAD DUP2 LT PUSH2 0x1BD6 JUMPI PUSH2 0x1BD5 PUSH2 0x33DC JUMP JUMPDEST JUMPDEST PUSH1 0x20 MUL PUSH1 0x20 ADD ADD MLOAD DUP2 MSTORE PUSH1 0x20 ADD DUP10 DUP5 DUP2 MLOAD DUP2 LT PUSH2 0x1BF6 JUMPI PUSH2 0x1BF5 PUSH2 0x33DC JUMP JUMPDEST JUMPDEST PUSH1 0x20 MUL PUSH1 0x20 ADD ADD MLOAD DUP2 MSTORE PUSH1 0x20 ADD DUP9 DUP5 DUP2 MLOAD DUP2 LT PUSH2 0x1C16 JUMPI PUSH2 0x1C15 PUSH2 0x33DC JUMP JUMPDEST JUMPDEST PUSH1 0x20 MUL PUSH1 0x20 ADD ADD MLOAD DUP2 MSTORE PUSH1 0x20 ADD DUP8 DUP5 DUP2 MLOAD DUP2 LT PUSH2 0x1C36 JUMPI PUSH2 0x1C35 PUSH2 0x33DC JUMP JUMPDEST JUMPDEST PUSH1 0x20 MUL PUSH1 0x20 ADD ADD MLOAD DUP2 MSTORE PUSH1 0x20 ADD DUP7 DUP5 DUP2 MLOAD DUP2 LT PUSH2 0x1C56 JUMPI PUSH2 0x1C55 PUSH2 0x33DC JUMP JUMPDEST JUMPDEST PUSH1 0x20 MUL PUSH1 0x20 ADD ADD MLOAD PUSH1 0x40 MLOAD PUSH1 0x20 ADD PUSH2 0x1C6E SWAP2 SWAP1 PUSH2 0x3443 JUMP JUMPDEST PUSH1 0x40 MLOAD PUSH1 0x20 DUP2 DUP4 SUB SUB DUP2 MSTORE SWAP1 PUSH1 0x40 MSTORE DUP1 MLOAD SWAP1 PUSH1 0x20 ADD KECCAK256 DUP2 MSTORE POP SWAP1 POP PUSH1 0xB PUSH0 DUP5 DUP2 MSTORE PUSH1 0x20 ADD SWAP1 DUP2 MSTORE PUSH1 0x20 ADD PUSH0 KECCAK256 DUP2 SWAP1 DUP1 PUSH1 0x1 DUP2 SLOAD ADD DUP1 DUP3 SSTORE DUP1 SWAP2 POP POP PUSH1 0x1 SWAP1 SUB SWAP1 PUSH0 MSTORE PUSH1 0x20 PUSH0 KECCAK256 SWAP1 PUSH1 0x7 MUL ADD PUSH0 SWAP1 SWAP2 SWAP1 SWAP2 SWAP1 SWAP2 POP PUSH0 DUP3 ADD MLOAD DUP2 PUSH0 ADD SSTORE PUSH1 0x20 DUP3 ADD MLOAD DUP2 PUSH1 0x1 ADD SWAP1 DUP2 PUSH2 0x1CDE SWAP2 SWAP1 PUSH2 0x39C2 JUMP JUMPDEST POP PUSH1 0x40 DUP3 ADD MLOAD DUP2 PUSH1 0x2 ADD SWAP1 DUP2 PUSH2 0x1CF4 SWAP2 SWAP1 PUSH2 0x39C2 JUMP JUMPDEST POP PUSH1 0x60 DUP3 ADD MLOAD DUP2 PUSH1 0x3 ADD SWAP1 DUP2 PUSH2 0x1D0A SWAP2 SWAP1 PUSH2 0x39C2 JUMP JUMPDEST POP PUSH1 0x80 DUP3 ADD MLOAD DUP2 PUSH1 0x4 ADD SWAP1 DUP2 PUSH2 0x1D20 SWAP2 SWAP1 PUSH2 0x39C2 JUMP JUMPDEST POP PUSH1 0xA0 DUP3 ADD MLOAD DUP2 PUSH1 0x5 ADD SWAP1 DUP2 PUSH2 0x1D36 SWAP2 SWAP1 PUSH2 0x39C2 JUMP JUMPDEST POP PUSH1 0xC0 DUP3 ADD MLOAD DUP2 PUSH1 0x6 ADD SSTORE POP POP POP DUP1 DUP1 PUSH1 0x1 ADD SWAP2 POP POP PUSH2 0x1998 JUMP JUMPDEST POP CALLER PUSH20 0xFFFFFFFFFFFFFFFFFFFFFFFFFFFFFFFFFFFFFFFF AND DUP2 PUSH32 0xA68F79AA37F9CDC81C2757CFB3E11E9D7D89CA0A5410FBCF1B61125BC17FB1B7 PUSH1 0x40 MLOAD PUSH1 0x40 MLOAD DUP1 SWAP2 SUB SWAP1 LOG3 POP POP POP POP POP POP POP POP POP JUMP JUMPDEST PUSH2 0x1DA9 PUSH2 0x23E6 JUMP JUMPDEST PUSH2 0x1DB1 PUSH2 0x25D9 JUMP JUMPDEST JUMP JUMPDEST PUSH1 0x1 PUSH0 SWAP1 SLOAD SWAP1 PUSH2 0x100 EXP SWAP1 DIV PUSH20 0xFFFFFFFFFFFFFFFFFFFFFFFFFFFFFFFFFFFFFFFF AND DUP2 JUMP JUMPDEST PUSH0 DUP1 PUSH0 SWAP1 SLOAD SWAP1 PUSH2 0x100 EXP SWAP1 DIV PUSH20 0xFFFFFFFFFFFFFFFFFFFFFFFFFFFFFFFFFFFFFFFF AND SWAP1 POP SWAP1 JUMP JUMPDEST PUSH2 0x1E07 PUSH2 0x23E6 JUMP JUMPDEST DUP1 PUSH1 0x1 PUSH0 PUSH2 0x100 EXP DUP2 SLOAD DUP2 PUSH20 0xFFFFFFFFFFFFFFFFFFFFFFFFFFFFFFFFFFFFFFFF MUL NOT AND SWAP1 DUP4 PUSH20 0xFFFFFFFFFFFFFFFFFFFFFFFFFFFFFFFFFFFFFFFF AND MUL OR SWAP1 SSTORE POP POP JUMP JUMPDEST PUSH1 0x2 SLOAD DUP2 JUMP JUMPDEST PUSH1 0x9 PUSH1 0x20 MSTORE DUP1 PUSH0 MSTORE PUSH1 0x40 PUSH0 KECCAK256 PUSH0 SWAP2 POP SWAP1 POP DUP1 PUSH0 ADD PUSH0 SWAP1 SLOAD SWAP1 PUSH2 0x100 EXP SWAP1 DIV PUSH20 0xFFFFFFFFFFFFFFFFFFFFFFFFFFFFFFFFFFFFFFFF AND SWAP1 DUP1 PUSH1 0x1 ADD DUP1 SLOAD PUSH2 0x1E94 SWAP1 PUSH2 0x3344 JUMP JUMPDEST DUP1 PUSH1 0x1F ADD PUSH1 0x20 DUP1 SWAP2 DIV MUL PUSH1 0x20 ADD PUSH1 0x40 MLOAD SWAP1 DUP2 ADD PUSH1 0x40 MSTORE DUP1 SWAP3 SWAP2 SWAP1 DUP2 DUP2 MSTORE PUSH1 0x20 ADD DUP3 DUP1 SLOAD PUSH2 0x1EC0 SWAP1 PUSH2 0x3344 JUMP JUMPDEST DUP1 ISZERO PUSH2 0x1F0B JUMPI DUP1 PUSH1 0x1F LT PUSH2 0x1EE2 JUMPI PUSH2 0x100 DUP1 DUP4 SLOAD DIV MUL DUP4 MSTORE SWAP2 PUSH1 0x20 ADD SWAP2 PUSH2 0x1F0B JUMP JUMPDEST DUP3 ADD SWAP2 SWAP1 PUSH0 MSTORE PUSH1 0x20 PUSH0 KECCAK256 SWAP1 JUMPDEST DUP2 SLOAD DUP2 MSTORE SWAP1 PUSH1 0x1 ADD SWAP1 PUSH1 0x20 ADD DUP1 DUP4 GT PUSH2 0x1EEE JUMPI DUP3 SWAP1 SUB PUSH1 0x1F AND DUP3 ADD SWAP2 JUMPDEST POP POP POP POP POP SWAP1 DUP1 PUSH1 0x2 ADD PUSH0 SWAP1 SLOAD SWAP1 PUSH2 0x100 EXP SWAP1 DIV PUSH1 0xFF AND SWAP1 DUP1 PUSH1 0x2 ADD PUSH1 0x1 SWAP1 SLOAD SWAP1 PUSH2 0x100 EXP SWAP1 DIV PUSH4 0xFFFFFFFF AND SWAP1 DUP1 PUSH1 0x3 ADD SLOAD SWAP1 DUP1 PUSH1 0x4 ADD PUSH0 SWAP1 SLOAD SWAP1 PUSH2 0x100 EXP SWAP1 DIV PUSH4 0xFFFFFFFF AND SWAP1 POP DUP7 JUMP JUMPDEST PUSH1 0x5 SLOAD DUP2 JUMP JUMPDEST PUSH2 0x1F66 PUSH2 0x23E6 JUMP JUMPDEST PUSH0 DUP2 GT PUSH2 0x1FA8 JUMPI PUSH1 0x40 MLOAD PUSH32 0x8C379A000000000000000000000000000000000000000000000000000000000 DUP2 MSTORE PUSH1 0x4 ADD PUSH2 0x1F9F SWAP1 PUSH2 0x3CBB JUMP JUMPDEST PUSH1 0x40 MLOAD DUP1 SWAP2 SUB SWAP1 REVERT JUMPDEST DUP1 PUSH1 0x6 DUP2 SWAP1 SSTORE POP POP JUMP JUMPDEST PUSH1 0x6 SLOAD DUP2 JUMP JUMPDEST PUSH1 0xB PUSH1 0x20 MSTORE DUP2 PUSH0 MSTORE PUSH1 0x40 PUSH0 KECCAK256 DUP2 DUP2 SLOAD DUP2 LT PUSH2 0x1FD1 JUMPI PUSH0 DUP1 REVERT JUMPDEST SWAP1 PUSH0 MSTORE PUSH1 0x20 PUSH0 KECCAK256 SWAP1 PUSH1 0x7 MUL ADD PUSH0 SWAP2 POP SWAP2 POP POP DUP1 PUSH0 ADD SLOAD SWAP1 DUP1 PUSH1 0x1 ADD DUP1 SLOAD PUSH2 0x1FF7 SWAP1 PUSH2 0x3344 JUMP JUMPDEST DUP1 PUSH1 0x1F ADD PUSH1 0x20 DUP1 SWAP2 DIV MUL PUSH1 0x20 ADD PUSH1 0x40 MLOAD SWAP1 DUP2 ADD PUSH1 0x40 MSTORE DUP1 SWAP3 SWAP2 SWAP1 DUP2 DUP2 MSTORE PUSH1 0x20 ADD DUP3 DUP1 SLOAD PUSH2 0x2023 SWAP1 PUSH2 0x3344 JUMP JUMPDEST DUP1 ISZERO PUSH2 0x206E JUMPI DUP1 PUSH1 0x1F LT PUSH2 0x2045 JUMPI PUSH2 0x100 DUP1 DUP4 SLOAD DIV MUL DUP4 MSTORE SWAP2 PUSH1 0x20 ADD SWAP2 PUSH2 0x206E JUMP JUMPDEST DUP3 ADD SWAP2 SWAP1 PUSH0 MSTORE PUSH1 0x20 PUSH0 KECCAK256 SWAP1 JUMPDEST DUP2 SLOAD DUP2 MSTORE SWAP1 PUSH1 0x1 ADD SWAP1 PUSH1 0x20 ADD DUP1 DUP4 GT PUSH2 0x2051 JUMPI DUP3 SWAP1 SUB PUSH1 0x1F AND DUP3 ADD SWAP2 JUMPDEST POP POP POP POP POP SWAP1 DUP1 PUSH1 0x2 ADD DUP1 SLOAD PUSH2 0x2083 SWAP1 PUSH2 0x3344 JUMP JUMPDEST DUP1 PUSH1 0x1F ADD PUSH1 0x20 DUP1 SWAP2 DIV MUL PUSH1 0x20 ADD PUSH1 0x40 MLOAD SWAP1 DUP2 ADD PUSH1 0x40 MSTORE DUP1 SWAP3 SWAP2 SWAP1 DUP2 DUP2 MSTORE PUSH1 0x20 ADD DUP3 DUP1 SLOAD PUSH2 0x20AF SWAP1 PUSH2 0x3344 JUMP JUMPDEST DUP1 ISZERO PUSH2 0x20FA JUMPI DUP1 PUSH1 0x1F LT PUSH2 0x20D1 JUMPI PUSH2 0x100 DUP1 DUP4 SLOAD DIV MUL DUP4 MSTORE SWAP2 PUSH1 0x20 ADD SWAP2 PUSH2 0x20FA JUMP JUMPDEST DUP3 ADD SWAP2 SWAP1 PUSH0 MSTORE PUSH1 0x20 PUSH0 KECCAK256 SWAP1 JUMPDEST DUP2 SLOAD DUP2 MSTORE SWAP1 PUSH1 0x1 ADD SWAP1 PUSH1 0x20 ADD DUP1 DUP4 GT PUSH2 0x20DD JUMPI DUP3 SWAP1 SUB PUSH1 0x1F AND DUP3 ADD SWAP2 JUMPDEST POP POP POP POP POP SWAP1 DUP1 PUSH1 0x3 ADD DUP1 SLOAD PUSH2 0x210F SWAP1 PUSH2 0x3344 JUMP JUMPDEST DUP1 PUSH1 0x1F ADD PUSH1 0x20 DUP1 SWAP2 DIV MUL PUSH1 0x20 ADD PUSH1 0x40 MLOAD SWAP1 DUP2 ADD PUSH1 0x40 MSTORE DUP1 SWAP3 SWAP2 SWAP1 DUP2 DUP2 MSTORE PUSH1 0x20 ADD DUP3 DUP1 SLOAD PUSH2 0x213B SWAP1 PUSH2 0x3344 JUMP JUMPDEST DUP1 ISZERO PUSH2 0x2186 JUMPI DUP1 PUSH1 0x1F LT PUSH2 0x215D JUMPI PUSH2 0x100 DUP1 DUP4 SLOAD DIV MUL DUP4 MSTORE SWAP2 PUSH1 0x20 ADD SWAP2 PUSH2 0x2186 JUMP JUMPDEST DUP3 ADD SWAP2 SWAP1 PUSH0 MSTORE PUSH1 0x20 PUSH0 KECCAK256 SWAP1 JUMPDEST DUP2 SLOAD DUP2 MSTORE SWAP1 PUSH1 0x1 ADD SWAP1 PUSH1 0x20 ADD DUP1 DUP4 GT PUSH2 0x2169 JUMPI DUP3 SWAP1 SUB PUSH1 0x1F AND DUP3 ADD SWAP2 JUMPDEST POP POP POP POP POP SWAP1 DUP1 PUSH1 0x4 ADD DUP1 SLOAD PUSH2 0x219B SWAP1 PUSH2 0x3344 JUMP JUMPDEST DUP1 PUSH1 0x1F ADD PUSH1 0x20 DUP1 SWAP2 DIV MUL PUSH1 0x20 ADD PUSH1 0x40 MLOAD SWAP1 DUP2 ADD PUSH1 0x40 MSTORE DUP1 SWAP3 SWAP2 SWAP1 DUP2 DUP2 MSTORE PUSH1 0x20 ADD DUP3 DUP1 SLOAD PUSH2 0x21C7 SWAP1 PUSH2 0x3344 JUMP JUMPDEST DUP1 ISZERO PUSH2 0x2212 JUMPI DUP1 PUSH1 0x1F LT PUSH2 0x21E9 JUMPI PUSH2 0x100 DUP1 DUP4 SLOAD DIV MUL DUP4 MSTORE SWAP2 PUSH1 0x20 ADD SWAP2 PUSH2 0x2212 JUMP JUMPDEST DUP3 ADD SWAP2 SWAP1 PUSH0 MSTORE PUSH1 0x20 PUSH0 KECCAK256 SWAP1 JUMPDEST DUP2 SLOAD DUP2 MSTORE SWAP1 PUSH1 0x1 ADD SWAP1 PUSH1 0x20 ADD DUP1 DUP4 GT PUSH2 0x21F5 JUMPI DUP3 SWAP1 SUB PUSH1 0x1F AND DUP3 ADD SWAP2 JUMPDEST POP POP POP POP POP SWAP1 DUP1 PUSH1 0x5 ADD DUP1 SLOAD PUSH2 0x2227 SWAP1 PUSH2 0x3344 JUMP JUMPDEST DUP1 PUSH1 0x1F ADD PUSH1 0x20 DUP1 SWAP2 DIV MUL PUSH1 0x20 ADD PUSH1 0x40 MLOAD SWAP1 DUP2 ADD PUSH1 0x40 MSTORE DUP1 SWAP3 SWAP2 SWAP1 DUP2 DUP2 MSTORE PUSH1 0x20 ADD DUP3 DUP1 SLOAD PUSH2 0x2253 SWAP1 PUSH2 0x3344 JUMP JUMPDEST DUP1 ISZERO PUSH2 0x229E JUMPI DUP1 PUSH1 0x1F LT PUSH2 0x2275 JUMPI PUSH2 0x100 DUP1 DUP4 SLOAD DIV MUL DUP4 MSTORE SWAP2 PUSH1 0x20 ADD SWAP2 PUSH2 0x229E JUMP JUMPDEST DUP3 ADD SWAP2 SWAP1 PUSH0 MSTORE PUSH1 0x20 PUSH0 KECCAK256 SWAP1 JUMPDEST DUP2 SLOAD DUP2 MSTORE SWAP1 PUSH1 0x1 ADD SWAP1 PUSH1 0x20 ADD DUP1 DUP4 GT PUSH2 0x2281 JUMPI DUP3 SWAP1 SUB PUSH1 0x1F AND DUP3 ADD SWAP2 JUMPDEST POP POP POP POP POP SWAP1 DUP1 PUSH1 0x6 ADD SLOAD SWAP1 POP DUP8 JUMP JUMPDEST PUSH2 0x22B6 PUSH2 0x23E6 JUMP JUMPDEST PUSH0 DUP2 GT PUSH2 0x22F8 JUMPI PUSH1 0x40 MLOAD PUSH32 0x8C379A000000000000000000000000000000000000000000000000000000000 DUP2 MSTORE PUSH1 0x4 ADD PUSH2 0x22EF SWAP1 PUSH2 0x2EFF JUMP JUMPDEST PUSH1 0x40 MLOAD DUP1 SWAP2 SUB SWAP1 REVERT JUMPDEST DUP1 PUSH1 0x4 DUP2 SWAP1 SSTORE POP POP JUMP JUMPDEST PUSH1 0x4 SLOAD DUP2 JUMP JUMPDEST PUSH2 0x2310 PUSH2 0x23E6 JUMP JUMPDEST PUSH0 DUP2 GT PUSH2 0x2352 JUMPI PUSH1 0x40 MLOAD PUSH32 0x8C379A000000000000000000000000000000000000000000000000000000000 DUP2 MSTORE PUSH1 0x4 ADD PUSH2 0x2349 SWAP1 PUSH2 0x30D8 JUMP JUMPDEST PUSH1 0x40 MLOAD DUP1 SWAP2 SUB SWAP1 REVERT JUMPDEST DUP1 PUSH1 0x2 DUP2 SWAP1 SSTORE POP POP JUMP JUMPDEST PUSH1 0x3 SLOAD DUP2 JUMP JUMPDEST PUSH2 0x236A PUSH2 0x23E6 JUMP JUMPDEST PUSH0 PUSH20 0xFFFFFFFFFFFFFFFFFFFFFFFFFFFFFFFFFFFFFFFF AND DUP2 PUSH20 0xFFFFFFFFFFFFFFFFFFFFFFFFFFFFFFFFFFFFFFFF AND SUB PUSH2 0x23DA JUMPI PUSH0 PUSH1 0x40 MLOAD PUSH32 0x1E4FBDF700000000000000000000000000000000000000000000000000000000 DUP2 MSTORE PUSH1 0x4 ADD PUSH2 0x23D1 SWAP2 SWAP1 PUSH2 0x2CA7 JUMP JUMPDEST PUSH1 0x40 MLOAD DUP1 SWAP2 SUB SWAP1 REVERT JUMPDEST PUSH2 0x23E3 DUP2 PUSH2 0x2518 JUMP JUMPDEST POP JUMP JUMPDEST PUSH2 0x23EE PUSH2 0x263B JUMP JUMPDEST PUSH20 0xFFFFFFFFFFFFFFFFFFFFFFFFFFFFFFFFFFFFFFFF AND PUSH2 0x240C PUSH2 0x1DD8 JUMP JUMPDEST PUSH20 0xFFFFFFFFFFFFFFFFFFFFFFFFFFFFFFFFFFFFFFFF AND EQ PUSH2 0x246B JUMPI PUSH2 0x242F PUSH2 0x263B JUMP JUMPDEST PUSH1 0x40 MLOAD PUSH32 0x118CDAA700000000000000000000000000000000000000000000000000000000 DUP2 MSTORE PUSH1 0x4 ADD PUSH2 0x2462 SWAP2 SWAP1 PUSH2 0x2CA7 JUMP JUMPDEST PUSH1 0x40 MLOAD DUP1 SWAP2 SUB SWAP1 REVERT JUMPDEST JUMP JUMPDEST PUSH2 0x2475 PUSH2 0x2642 JUMP JUMPDEST PUSH0 DUP1 PUSH1 0x14 PUSH2 0x100 EXP DUP2 SLOAD DUP2 PUSH1 0xFF MUL NOT AND SWAP1 DUP4 ISZERO ISZERO MUL OR SWAP1 SSTORE POP PUSH32 0x5DB9EE0A495BF2E6FF9C91A7834C1BA4FDD244A5E8AA4E537BD38AEAE4B073AA PUSH2 0x24B7 PUSH2 0x263B JUMP JUMPDEST PUSH1 0x40 MLOAD PUSH2 0x24C4 SWAP2 SWAP1 PUSH2 0x2CA7 JUMP JUMPDEST PUSH1 0x40 MLOAD DUP1 SWAP2 SUB SWAP1 LOG1 JUMP JUMPDEST PUSH2 0x24D6 PUSH2 0x948 JUMP JUMPDEST ISZERO PUSH2 0x2516 JUMPI PUSH1 0x40 MLOAD PUSH32 0x8C379A000000000000000000000000000000000000000000000000000000000 DUP2 MSTORE PUSH1 0x4 ADD PUSH2 0x250D SWAP1 PUSH2 0x3D23 JUMP JUMPDEST PUSH1 0x40 MLOAD DUP1 SWAP2 SUB SWAP1 REVERT JUMPDEST JUMP JUMPDEST PUSH0 DUP1 PUSH0 SWAP1 SLOAD SWAP1 PUSH2 0x100 EXP SWAP1 DIV PUSH20 0xFFFFFFFFFFFFFFFFFFFFFFFFFFFFFFFFFFFFFFFF AND SWAP1 POP DUP2 PUSH0 DUP1 PUSH2 0x100 EXP DUP2 SLOAD DUP2 PUSH20 0xFFFFFFFFFFFFFFFFFFFFFFFFFFFFFFFFFFFFFFFF MUL NOT AND SWAP1 DUP4 PUSH20 0xFFFFFFFFFFFFFFFFFFFFFFFFFFFFFFFFFFFFFFFF AND MUL OR SWAP1 SSTORE POP DUP2 PUSH20 0xFFFFFFFFFFFFFFFFFFFFFFFFFFFFFFFFFFFFFFFF AND DUP2 PUSH20 0xFFFFFFFFFFFFFFFFFFFFFFFFFFFFFFFFFFFFFFFF AND PUSH32 0x8BE0079C531659141344CD1FD0A4F28419497F9722A3DAAFE3B4186F6B6457E0 PUSH1 0x40 MLOAD PUSH1 0x40 MLOAD DUP1 SWAP2 SUB SWAP1 LOG3 POP POP JUMP JUMPDEST PUSH2 0x25E1 PUSH2 0x24CE JUMP JUMPDEST PUSH1 0x1 PUSH0 PUSH1 0x14 PUSH2 0x100 EXP DUP2 SLOAD DUP2 PUSH1 0xFF MUL NOT AND SWAP1 DUP4 ISZERO ISZERO MUL OR SWAP1 SSTORE POP PUSH32 0x62E78CEA01BEE320CD4E420270B5EA74000D11B0C9F74754EBDBFC544B05A258 PUSH2 0x2624 PUSH2 0x263B JUMP JUMPDEST PUSH1 0x40 MLOAD PUSH2 0x2631 SWAP2 SWAP1 PUSH2 0x2CA7 JUMP JUMPDEST PUSH1 0x40 MLOAD DUP1 SWAP2 SUB SWAP1 LOG1 JUMP JUMPDEST PUSH0 CALLER SWAP1 POP SWAP1 JUMP JUMPDEST PUSH2 0x264A PUSH2 0x948 JUMP JUMPDEST PUSH2 0x2689 JUMPI PUSH1 0x40 MLOAD PUSH32 0x8C379A000000000000000000000000000000000000000000000000000000000 DUP2 MSTORE PUSH1 0x4 ADD PUSH2 0x2680 SWAP1 PUSH2 0x3D8B JUMP JUMPDEST PUSH1 0x40 MLOAD DUP1 SWAP2 SUB SWAP1 REVERT JUMPDEST JUMP JUMPDEST PUSH0 PUSH1 0x40 MLOAD SWAP1 POP SWAP1 JUMP JUMPDEST PUSH0 DUP1 REVERT JUMPDEST PUSH0 DUP1 REVERT JUMPDEST PUSH0 DUP2 SWAP1 POP SWAP2 SWAP1 POP JUMP JUMPDEST PUSH2 0x26AE DUP2 PUSH2 0x269C JUMP JUMPDEST DUP2 EQ PUSH2 0x26B8 JUMPI PUSH0 DUP1 REVERT JUMPDEST POP JUMP JUMPDEST PUSH0 DUP2 CALLDATALOAD SWAP1 POP PUSH2 0x26C9 DUP2 PUSH2 0x26A5 JUMP JUMPDEST SWAP3 SWAP2 POP POP JUMP JUMPDEST PUSH0 PUSH1 0x20 DUP3 DUP5 SUB SLT ISZERO PUSH2 0x26E4 JUMPI PUSH2 0x26E3 PUSH2 0x2694 JUMP JUMPDEST JUMPDEST PUSH0 PUSH2 0x26F1 DUP5 DUP3 DUP6 ADD PUSH2 0x26BB JUMP JUMPDEST SWAP2 POP POP SWAP3 SWAP2 POP POP JUMP JUMPDEST PUSH0 PUSH20 0xFFFFFFFFFFFFFFFFFFFFFFFFFFFFFFFFFFFFFFFF DUP3 AND SWAP1 POP SWAP2 SWAP1 POP JUMP JUMPDEST PUSH0 PUSH2 0x2723 DUP3 PUSH2 0x26FA JUMP JUMPDEST SWAP1 POP SWAP2 SWAP1 POP JUMP JUMPDEST PUSH2 0x2733 DUP2 PUSH2 0x2719 JUMP JUMPDEST DUP2 EQ PUSH2 0x273D JUMPI PUSH0 DUP1 REVERT JUMPDEST POP JUMP JUMPDEST PUSH0 DUP2 CALLDATALOAD SWAP1 POP PUSH2 0x274E DUP2 PUSH2 0x272A JUMP JUMPDEST SWAP3 SWAP2 POP POP JUMP JUMPDEST PUSH0 DUP1 PUSH1 0x40 DUP4 DUP6 SUB SLT ISZERO PUSH2 0x276A JUMPI PUSH2 0x2769 PUSH2 0x2694 JUMP JUMPDEST JUMPDEST PUSH0 PUSH2 0x2777 DUP6 DUP3 DUP7 ADD PUSH2 0x2740 JUMP JUMPDEST SWAP3 POP POP PUSH1 0x20 PUSH2 0x2788 DUP6 DUP3 DUP7 ADD PUSH2 0x26BB JUMP JUMPDEST SWAP2 POP POP SWAP3 POP SWAP3 SWAP1 POP JUMP JUMPDEST PUSH0 DUP2 ISZERO ISZERO SWAP1 POP SWAP2 SWAP1 POP JUMP JUMPDEST PUSH2 0x27A6 DUP2 PUSH2 0x2792 JUMP JUMPDEST DUP3 MSTORE POP POP JUMP JUMPDEST PUSH0 PUSH1 0xFF DUP3 AND SWAP1 POP SWAP2 SWAP1 POP JUMP JUMPDEST PUSH2 0x27C1 DUP2 PUSH2 0x27AC JUMP JUMPDEST DUP3 MSTORE POP POP JUMP JUMPDEST PUSH0 PUSH1 0x80 DUP3 ADD SWAP1 POP PUSH2 0x27DA PUSH0 DUP4 ADD DUP8 PUSH2 0x279D JUMP JUMPDEST PUSH2 0x27E7 PUSH1 0x20 DUP4 ADD DUP7 PUSH2 0x27B8 JUMP JUMPDEST PUSH2 0x27F4 PUSH1 0x40 DUP4 ADD DUP6 PUSH2 0x279D JUMP JUMPDEST PUSH2 0x2801 PUSH1 0x60 DUP4 ADD DUP5 PUSH2 0x279D JUMP JUMPDEST SWAP6 SWAP5 POP POP POP POP POP JUMP JUMPDEST PUSH2 0x2813 DUP2 PUSH2 0x269C JUMP JUMPDEST DUP3 MSTORE POP POP JUMP JUMPDEST PUSH0 PUSH1 0x20 DUP3 ADD SWAP1 POP PUSH2 0x282C PUSH0 DUP4 ADD DUP5 PUSH2 0x280A JUMP JUMPDEST SWAP3 SWAP2 POP POP JUMP JUMPDEST PUSH0 PUSH1 0x20 DUP3 ADD SWAP1 POP PUSH2 0x2845 PUSH0 DUP4 ADD DUP5 PUSH2 0x279D JUMP JUMPDEST SWAP3 SWAP2 POP POP JUMP JUMPDEST PUSH0 DUP1 REVERT JUMPDEST PUSH0 PUSH1 0x1F NOT PUSH1 0x1F DUP4 ADD AND SWAP1 POP SWAP2 SWAP1 POP JUMP JUMPDEST PUSH32 0x4E487B7100000000000000000000000000000000000000000000000000000000 PUSH0 MSTORE PUSH1 0x41 PUSH1 0x4 MSTORE PUSH1 0x24 PUSH0 REVERT JUMPDEST PUSH2 0x2895 DUP3 PUSH2 0x284F JUMP JUMPDEST DUP2 ADD DUP2 DUP2 LT PUSH8 0xFFFFFFFFFFFFFFFF DUP3 GT OR ISZERO PUSH2 0x28B4 JUMPI PUSH2 0x28B3 PUSH2 0x285F JUMP JUMPDEST JUMPDEST DUP1 PUSH1 0x40 MSTORE POP POP POP JUMP JUMPDEST PUSH0 PUSH2 0x28C6 PUSH2 0x268B JUMP JUMPDEST SWAP1 POP PUSH2 0x28D2 DUP3 DUP3 PUSH2 0x288C JUMP JUMPDEST SWAP2 SWAP1 POP JUMP JUMPDEST PUSH0 PUSH8 0xFFFFFFFFFFFFFFFF DUP3 GT ISZERO PUSH2 0x28F1 JUMPI PUSH2 0x28F0 PUSH2 0x285F JUMP JUMPDEST JUMPDEST PUSH1 0x20 DUP3 MUL SWAP1 POP PUSH1 0x20 DUP2 ADD SWAP1 POP SWAP2 SWAP1 POP JUMP JUMPDEST PUSH0 DUP1 REVERT JUMPDEST PUSH0 DUP1 REVERT JUMPDEST PUSH0 PUSH8 0xFFFFFFFFFFFFFFFF DUP3 GT ISZERO PUSH2 0x2924 JUMPI PUSH2 0x2923 PUSH2 0x285F JUMP JUMPDEST JUMPDEST PUSH2 0x292D DUP3 PUSH2 0x284F JUMP JUMPDEST SWAP1 POP PUSH1 0x20 DUP2 ADD SWAP1 POP SWAP2 SWAP1 POP JUMP JUMPDEST DUP3 DUP2 DUP4 CALLDATACOPY PUSH0 DUP4 DUP4 ADD MSTORE POP POP POP JUMP JUMPDEST PUSH0 PUSH2 0x295A PUSH2 0x2955 DUP5 PUSH2 0x290A JUMP JUMPDEST PUSH2 0x28BD JUMP JUMPDEST SWAP1 POP DUP3 DUP2 MSTORE PUSH1 0x20 DUP2 ADD DUP5 DUP5 DUP5 ADD GT ISZERO PUSH2 0x2976 JUMPI PUSH2 0x2975 PUSH2 0x2906 JUMP JUMPDEST JUMPDEST PUSH2 0x2981 DUP5 DUP3 DUP6 PUSH2 0x293A JUMP JUMPDEST POP SWAP4 SWAP3 POP POP POP JUMP JUMPDEST PUSH0 DUP3 PUSH1 0x1F DUP4 ADD SLT PUSH2 0x299D JUMPI PUSH2 0x299C PUSH2 0x284B JUMP JUMPDEST JUMPDEST DUP2 CALLDATALOAD PUSH2 0x29AD DUP5 DUP3 PUSH1 0x20 DUP7 ADD PUSH2 0x2948 JUMP JUMPDEST SWAP2 POP POP SWAP3 SWAP2 POP POP JUMP JUMPDEST PUSH0 PUSH2 0x29C8 PUSH2 0x29C3 DUP5 PUSH2 0x28D7 JUMP JUMPDEST PUSH2 0x28BD JUMP JUMPDEST SWAP1 POP DUP1 DUP4 DUP3 MSTORE PUSH1 0x20 DUP3 ADD SWAP1 POP PUSH1 0x20 DUP5 MUL DUP4 ADD DUP6 DUP2 GT ISZERO PUSH2 0x29EB JUMPI PUSH2 0x29EA PUSH2 0x2902 JUMP JUMPDEST JUMPDEST DUP4 JUMPDEST DUP2 DUP2 LT ISZERO PUSH2 0x2A32 JUMPI DUP1 CALLDATALOAD PUSH8 0xFFFFFFFFFFFFFFFF DUP2 GT ISZERO PUSH2 0x2A10 JUMPI PUSH2 0x2A0F PUSH2 0x284B JUMP JUMPDEST JUMPDEST DUP1 DUP7 ADD PUSH2 0x2A1D DUP10 DUP3 PUSH2 0x2989 JUMP JUMPDEST DUP6 MSTORE PUSH1 0x20 DUP6 ADD SWAP5 POP POP POP PUSH1 0x20 DUP2 ADD SWAP1 POP PUSH2 0x29ED JUMP JUMPDEST POP POP POP SWAP4 SWAP3 POP POP POP JUMP JUMPDEST PUSH0 DUP3 PUSH1 0x1F DUP4 ADD SLT PUSH2 0x2A50 JUMPI PUSH2 0x2A4F PUSH2 0x284B JUMP JUMPDEST JUMPDEST DUP2 CALLDATALOAD PUSH2 0x2A60 DUP5 DUP3 PUSH1 0x20 DUP7 ADD PUSH2 0x29B6 JUMP JUMPDEST SWAP2 POP POP SWAP3 SWAP2 POP POP JUMP JUMPDEST PUSH0 DUP1 PUSH1 0x40 DUP4 DUP6 SUB SLT ISZERO PUSH2 0x2A7F JUMPI PUSH2 0x2A7E PUSH2 0x2694 JUMP JUMPDEST JUMPDEST PUSH0 PUSH2 0x2A8C DUP6 DUP3 DUP7 ADD PUSH2 0x26BB JUMP JUMPDEST SWAP3 POP POP PUSH1 0x20 DUP4 ADD CALLDATALOAD PUSH8 0xFFFFFFFFFFFFFFFF DUP2 GT ISZERO PUSH2 0x2AAD JUMPI PUSH2 0x2AAC PUSH2 0x2698 JUMP JUMPDEST JUMPDEST PUSH2 0x2AB9 DUP6 DUP3 DUP7 ADD PUSH2 0x2A3C JUMP JUMPDEST SWAP2 POP POP SWAP3 POP SWAP3 SWAP1 POP JUMP JUMPDEST PUSH0 DUP1 PUSH0 DUP1 PUSH0 DUP1 PUSH0 PUSH1 0xE0 DUP9 DUP11 SUB SLT ISZERO PUSH2 0x2ADE JUMPI PUSH2 0x2ADD PUSH2 0x2694 JUMP JUMPDEST JUMPDEST PUSH0 DUP9 ADD CALLDATALOAD PUSH8 0xFFFFFFFFFFFFFFFF DUP2 GT ISZERO PUSH2 0x2AFB JUMPI PUSH2 0x2AFA PUSH2 0x2698 JUMP JUMPDEST JUMPDEST PUSH2 0x2B07 DUP11 DUP3 DUP12 ADD PUSH2 0x2989 JUMP JUMPDEST SWAP8 POP POP PUSH1 0x20 DUP9 ADD CALLDATALOAD PUSH8 0xFFFFFFFFFFFFFFFF DUP2 GT ISZERO PUSH2 0x2B28 JUMPI PUSH2 0x2B27 PUSH2 0x2698 JUMP JUMPDEST JUMPDEST PUSH2 0x2B34 DUP11 DUP3 DUP12 ADD PUSH2 0x2A3C JUMP JUMPDEST SWAP7 POP POP PUSH1 0x40 DUP9 ADD CALLDATALOAD PUSH8 0xFFFFFFFFFFFFFFFF DUP2 GT ISZERO PUSH2 0x2B55 JUMPI PUSH2 0x2B54 PUSH2 0x2698 JUMP JUMPDEST JUMPDEST PUSH2 0x2B61 DUP11 DUP3 DUP12 ADD PUSH2 0x2A3C JUMP JUMPDEST SWAP6 POP POP PUSH1 0x60 DUP9 ADD CALLDATALOAD PUSH8 0xFFFFFFFFFFFFFFFF DUP2 GT ISZERO PUSH2 0x2B82 JUMPI PUSH2 0x2B81 PUSH2 0x2698 JUMP JUMPDEST JUMPDEST PUSH2 0x2B8E DUP11 DUP3 DUP12 ADD PUSH2 0x2A3C JUMP JUMPDEST SWAP5 POP POP PUSH1 0x80 DUP9 ADD CALLDATALOAD PUSH8 0xFFFFFFFFFFFFFFFF DUP2 GT ISZERO PUSH2 0x2BAF JUMPI PUSH2 0x2BAE PUSH2 0x2698 JUMP JUMPDEST JUMPDEST PUSH2 0x2BBB DUP11 DUP3 DUP12 ADD PUSH2 0x2A3C JUMP JUMPDEST SWAP4 POP POP PUSH1 0xA0 DUP9 ADD CALLDATALOAD PUSH8 0xFFFFFFFFFFFFFFFF DUP2 GT ISZERO PUSH2 0x2BDC JUMPI PUSH2 0x2BDB PUSH2 0x2698 JUMP JUMPDEST JUMPDEST PUSH2 0x2BE8 DUP11 DUP3 DUP12 ADD PUSH2 0x2A3C JUMP JUMPDEST SWAP3 POP POP PUSH1 0xC0 DUP9 ADD CALLDATALOAD PUSH8 0xFFFFFFFFFFFFFFFF DUP2 GT ISZERO PUSH2 0x2C09 JUMPI PUSH2 0x2C08 PUSH2 0x2698 JUMP JUMPDEST JUMPDEST PUSH2 0x2C15 DUP11 DUP3 DUP12 ADD PUSH2 0x2A3C JUMP JUMPDEST SWAP2 POP POP SWAP3 SWAP6 SWAP9 SWAP2 SWAP5 SWAP8 POP SWAP3 SWAP6 POP JUMP JUMPDEST PUSH0 DUP2 SWAP1 POP SWAP2 SWAP1 POP JUMP JUMPDEST PUSH0 PUSH2 0x2C47 PUSH2 0x2C42 PUSH2 0x2C3D DUP5 PUSH2 0x26FA JUMP JUMPDEST PUSH2 0x2C24 JUMP JUMPDEST PUSH2 0x26FA JUMP JUMPDEST SWAP1 POP SWAP2 SWAP1 POP JUMP JUMPDEST PUSH0 PUSH2 0x2C58 DUP3 PUSH2 0x2C2D JUMP JUMPDEST SWAP1 POP SWAP2 SWAP1 POP JUMP JUMPDEST PUSH0 PUSH2 0x2C69 DUP3 PUSH2 0x2C4E JUMP JUMPDEST SWAP1 POP SWAP2 SWAP1 POP JUMP JUMPDEST PUSH2 0x2C79 DUP2 PUSH2 0x2C5F JUMP JUMPDEST DUP3 MSTORE POP POP JUMP JUMPDEST PUSH0 PUSH1 0x20 DUP3 ADD SWAP1 POP PUSH2 0x2C92 PUSH0 DUP4 ADD DUP5 PUSH2 0x2C70 JUMP JUMPDEST SWAP3 SWAP2 POP POP JUMP JUMPDEST PUSH2 0x2CA1 DUP2 PUSH2 0x2719 JUMP JUMPDEST DUP3 MSTORE POP POP JUMP JUMPDEST PUSH0 PUSH1 0x20 DUP3 ADD SWAP1 POP PUSH2 0x2CBA PUSH0 DUP4 ADD DUP5 PUSH2 0x2C98 JUMP JUMPDEST SWAP3 SWAP2 POP POP JUMP JUMPDEST PUSH0 PUSH1 0x20 DUP3 DUP5 SUB SLT ISZERO PUSH2 0x2CD5 JUMPI PUSH2 0x2CD4 PUSH2 0x2694 JUMP JUMPDEST JUMPDEST PUSH0 PUSH2 0x2CE2 DUP5 DUP3 DUP6 ADD PUSH2 0x2740 JUMP JUMPDEST SWAP2 POP POP SWAP3 SWAP2 POP POP JUMP JUMPDEST PUSH0 DUP2 MLOAD SWAP1 POP SWAP2 SWAP1 POP JUMP JUMPDEST PUSH0 DUP3 DUP3 MSTORE PUSH1 0x20 DUP3 ADD SWAP1 POP SWAP3 SWAP2 POP POP JUMP JUMPDEST DUP3 DUP2 DUP4 MCOPY PUSH0 DUP4 DUP4 ADD MSTORE POP POP POP JUMP JUMPDEST PUSH0 PUSH2 0x2D1D DUP3 PUSH2 0x2CEB JUMP JUMPDEST PUSH2 0x2D27 DUP2 DUP6 PUSH2 0x2CF5 JUMP JUMPDEST SWAP4 POP PUSH2 0x2D37 DUP2 DUP6 PUSH1 0x20 DUP7 ADD PUSH2 0x2D05 JUMP JUMPDEST PUSH2 0x2D40 DUP2 PUSH2 0x284F JUMP JUMPDEST DUP5 ADD SWAP2 POP POP SWAP3 SWAP2 POP POP JUMP JUMPDEST PUSH0 PUSH4 0xFFFFFFFF DUP3 AND SWAP1 POP SWAP2 SWAP1 POP JUMP JUMPDEST PUSH2 0x2D63 DUP2 PUSH2 0x2D4B JUMP JUMPDEST DUP3 MSTORE POP POP JUMP JUMPDEST PUSH0 PUSH1 0xC0 DUP3 ADD SWAP1 POP PUSH2 0x2D7C PUSH0 DUP4 ADD DUP10 PUSH2 0x2C98 JUMP JUMPDEST DUP2 DUP2 SUB PUSH1 0x20 DUP4 ADD MSTORE PUSH2 0x2D8E DUP2 DUP9 PUSH2 0x2D13 JUMP JUMPDEST SWAP1 POP PUSH2 0x2D9D PUSH1 0x40 DUP4 ADD DUP8 PUSH2 0x279D JUMP JUMPDEST PUSH2 0x2DAA PUSH1 0x60 DUP4 ADD DUP7 PUSH2 0x2D5A JUMP JUMPDEST PUSH2 0x2DB7 PUSH1 0x80 DUP4 ADD DUP6 PUSH2 0x280A JUMP JUMPDEST PUSH2 0x2DC4 PUSH1 0xA0 DUP4 ADD DUP5 PUSH2 0x2D5A JUMP JUMPDEST SWAP8 SWAP7 POP POP POP POP POP POP POP JUMP JUMPDEST PUSH0 DUP1 PUSH1 0x40 DUP4 DUP6 SUB SLT ISZERO PUSH2 0x2DE5 JUMPI PUSH2 0x2DE4 PUSH2 0x2694 JUMP JUMPDEST JUMPDEST PUSH0 PUSH2 0x2DF2 DUP6 DUP3 DUP7 ADD PUSH2 0x26BB JUMP JUMPDEST SWAP3 POP POP PUSH1 0x20 PUSH2 0x2E03 DUP6 DUP3 DUP7 ADD PUSH2 0x26BB JUMP JUMPDEST SWAP2 POP POP SWAP3 POP SWAP3 SWAP1 POP JUMP JUMPDEST PUSH0 DUP2 SWAP1 POP SWAP2 SWAP1 POP JUMP JUMPDEST PUSH2 0x2E1F DUP2 PUSH2 0x2E0D JUMP JUMPDEST DUP3 MSTORE POP POP JUMP JUMPDEST PUSH0 PUSH1 0xE0 DUP3 ADD SWAP1 POP PUSH2 0x2E38 PUSH0 DUP4 ADD DUP11 PUSH2 0x280A JUMP JUMPDEST DUP2 DUP2 SUB PUSH1 0x20 DUP4 ADD MSTORE PUSH2 0x2E4A DUP2 DUP10 PUSH2 0x2D13 JUMP JUMPDEST SWAP1 POP DUP2 DUP2 SUB PUSH1 0x40 DUP4 ADD MSTORE PUSH2 0x2E5E DUP2 DUP9 PUSH2 0x2D13 JUMP JUMPDEST SWAP1 POP DUP2 DUP2 SUB PUSH1 0x60 DUP4 ADD MSTORE PUSH2 0x2E72 DUP2 DUP8 PUSH2 0x2D13 JUMP JUMPDEST SWAP1 POP DUP2 DUP2 SUB PUSH1 0x80 DUP4 ADD MSTORE PUSH2 0x2E86 DUP2 DUP7 PUSH2 0x2D13 JUMP JUMPDEST SWAP1 POP DUP2 DUP2 SUB PUSH1 0xA0 DUP4 ADD MSTORE PUSH2 0x2E9A DUP2 DUP6 PUSH2 0x2D13 JUMP JUMPDEST SWAP1 POP PUSH2 0x2EA9 PUSH1 0xC0 DUP4 ADD DUP5 PUSH2 0x2E16 JUMP JUMPDEST SWAP9 SWAP8 POP POP POP POP POP POP POP POP JUMP JUMPDEST PUSH32 0x526577617264206D7573742062652067726561746572207468616E2030000000 PUSH0 DUP3 ADD MSTORE POP JUMP JUMPDEST PUSH0 PUSH2 0x2EE9 PUSH1 0x1D DUP4 PUSH2 0x2CF5 JUMP JUMPDEST SWAP2 POP PUSH2 0x2EF4 DUP3 PUSH2 0x2EB5 JUMP JUMPDEST PUSH1 0x20 DUP3 ADD SWAP1 POP SWAP2 SWAP1 POP JUMP JUMPDEST PUSH0 PUSH1 0x20 DUP3 ADD SWAP1 POP DUP2 DUP2 SUB PUSH0 DUP4 ADD MSTORE PUSH2 0x2F16 DUP2 PUSH2 0x2EDD JUMP JUMPDEST SWAP1 POP SWAP2 SWAP1 POP JUMP JUMPDEST PUSH32 0x4E487B7100000000000000000000000000000000000000000000000000000000 PUSH0 MSTORE PUSH1 0x11 PUSH1 0x4 MSTORE PUSH1 0x24 PUSH0 REVERT JUMPDEST PUSH0 PUSH2 0x2F54 DUP3 PUSH2 0x269C JUMP JUMPDEST SWAP2 POP PUSH2 0x2F5F DUP4 PUSH2 0x269C JUMP JUMPDEST SWAP3 POP DUP3 DUP3 ADD SWAP1 POP DUP1 DUP3 GT ISZERO PUSH2 0x2F77 JUMPI PUSH2 0x2F76 PUSH2 0x2F1D JUMP JUMPDEST JUMPDEST SWAP3 SWAP2 POP POP JUMP JUMPDEST PUSH32 0x5769746864726177616C20696E74657276616C206E6F74207265616368656400 PUSH0 DUP3 ADD MSTORE POP JUMP JUMPDEST PUSH0 PUSH2 0x2FB1 PUSH1 0x1F DUP4 PUSH2 0x2CF5 JUMP JUMPDEST SWAP2 POP PUSH2 0x2FBC DUP3 PUSH2 0x2F7D JUMP JUMPDEST PUSH1 0x20 DUP3 ADD SWAP1 POP SWAP2 SWAP1 POP JUMP JUMPDEST PUSH0 PUSH1 0x20 DUP3 ADD SWAP1 POP DUP2 DUP2 SUB PUSH0 DUP4 ADD MSTORE PUSH2 0x2FDE DUP2 PUSH2 0x2FA5 JUMP JUMPDEST SWAP1 POP SWAP2 SWAP1 POP JUMP JUMPDEST PUSH0 DUP2 SWAP1 POP SWAP3 SWAP2 POP POP JUMP JUMPDEST POP JUMP JUMPDEST PUSH0 PUSH2 0x2FFD PUSH0 DUP4 PUSH2 0x2FE5 JUMP JUMPDEST SWAP2 POP PUSH2 0x3008 DUP3 PUSH2 0x2FEF JUMP JUMPDEST PUSH0 DUP3 ADD SWAP1 POP SWAP2 SWAP1 POP JUMP JUMPDEST PUSH0 PUSH2 0x301C DUP3 PUSH2 0x2FF2 JUMP JUMPDEST SWAP2 POP DUP2 SWAP1 POP SWAP2 SWAP1 POP JUMP JUMPDEST PUSH32 0x4661696C656420746F2077697468647261772067617320666565730000000000 PUSH0 DUP3 ADD MSTORE POP JUMP JUMPDEST PUSH0 PUSH2 0x305A PUSH1 0x1B DUP4 PUSH2 0x2CF5 JUMP JUMPDEST SWAP2 POP PUSH2 0x3065 DUP3 PUSH2 0x3026 JUMP JUMPDEST PUSH1 0x20 DUP3 ADD SWAP1 POP SWAP2 SWAP1 POP JUMP JUMPDEST PUSH0 PUSH1 0x20 DUP3 ADD SWAP1 POP DUP2 DUP2 SUB PUSH0 DUP4 ADD MSTORE PUSH2 0x3087 DUP2 PUSH2 0x304E JUMP JUMPDEST SWAP1 POP SWAP2 SWAP1 POP JUMP JUMPDEST PUSH32 0x5468726573686F6C64206D7573742062652067726561746572207468616E2030 PUSH0 DUP3 ADD MSTORE POP JUMP JUMPDEST PUSH0 PUSH2 0x30C2 PUSH1 0x20 DUP4 PUSH2 0x2CF5 JUMP JUMPDEST SWAP2 POP PUSH2 0x30CD DUP3 PUSH2 0x308E JUMP JUMPDEST PUSH1 0x20 DUP3 ADD SWAP1 POP SWAP2 SWAP1 POP JUMP JUMPDEST PUSH0 PUSH1 0x20 DUP3 ADD SWAP1 POP DUP2 DUP2 SUB PUSH0 DUP4 ADD MSTORE PUSH2 0x30EF DUP2 PUSH2 0x30B6 JUMP JUMPDEST SWAP1 POP SWAP2 SWAP1 POP JUMP JUMPDEST PUSH32 0x496E73756666696369656E742067617320666565000000000000000000000000 PUSH0 DUP3 ADD MSTORE POP JUMP JUMPDEST PUSH0 PUSH2 0x312A PUSH1 0x14 DUP4 PUSH2 0x2CF5 JUMP JUMPDEST SWAP2 POP PUSH2 0x3135 DUP3 PUSH2 0x30F6 JUMP JUMPDEST PUSH1 0x20 DUP3 ADD SWAP1 POP SWAP2 SWAP1 POP JUMP JUMPDEST PUSH0 PUSH1 0x20 DUP3 ADD SWAP1 POP DUP2 DUP2 SUB PUSH0 DUP4 ADD MSTORE PUSH2 0x3157 DUP2 PUSH2 0x311E JUMP JUMPDEST SWAP1 POP SWAP2 SWAP1 POP JUMP JUMPDEST PUSH0 PUSH2 0x3168 DUP3 PUSH2 0x269C JUMP JUMPDEST SWAP2 POP PUSH2 0x3173 DUP4 PUSH2 0x269C JUMP JUMPDEST SWAP3 POP DUP3 DUP3 SUB SWAP1 POP DUP2 DUP2 GT ISZERO PUSH2 0x318B JUMPI PUSH2 0x318A PUSH2 0x2F1D JUMP JUMPDEST JUMPDEST SWAP3 SWAP2 POP POP JUMP JUMPDEST PUSH32 0x55736572206E6F7420656E726F6C6C656420696E207468697320636F75727365 PUSH0 DUP3 ADD MSTORE POP JUMP JUMPDEST PUSH0 PUSH2 0x31C5 PUSH1 0x20 DUP4 PUSH2 0x2CF5 JUMP JUMPDEST SWAP2 POP PUSH2 0x31D0 DUP3 PUSH2 0x3191 JUMP JUMPDEST PUSH1 0x20 DUP3 ADD SWAP1 POP SWAP2 SWAP1 POP JUMP JUMPDEST PUSH0 PUSH1 0x20 DUP3 ADD SWAP1 POP DUP2 DUP2 SUB PUSH0 DUP4 ADD MSTORE PUSH2 0x31F2 DUP2 PUSH2 0x31B9 JUMP JUMPDEST SWAP1 POP SWAP2 SWAP1 POP JUMP JUMPDEST PUSH32 0x4D6178696D756D20617474656D70747320726561636865640000000000000000 PUSH0 DUP3 ADD MSTORE POP JUMP JUMPDEST PUSH0 PUSH2 0x322D PUSH1 0x18 DUP4 PUSH2 0x2CF5 JUMP JUMPDEST SWAP2 POP PUSH2 0x3238 DUP3 PUSH2 0x31F9 JUMP JUMPDEST PUSH1 0x20 DUP3 ADD SWAP1 POP SWAP2 SWAP1 POP JUMP JUMPDEST PUSH0 PUSH1 0x20 DUP3 ADD SWAP1 POP DUP2 DUP2 SUB PUSH0 DUP4 ADD MSTORE PUSH2 0x325A DUP2 PUSH2 0x3221 JUMP JUMPDEST SWAP1 POP SWAP2 SWAP1 POP JUMP JUMPDEST PUSH32 0x557365722068617320616C726561647920706173736564207468697320636F75 PUSH0 DUP3 ADD MSTORE PUSH32 0x7273650000000000000000000000000000000000000000000000000000000000 PUSH1 0x20 DUP3 ADD MSTORE POP JUMP JUMPDEST PUSH0 PUSH2 0x32BB PUSH1 0x23 DUP4 PUSH2 0x2CF5 JUMP JUMPDEST SWAP2 POP PUSH2 0x32C6 DUP3 PUSH2 0x3261 JUMP JUMPDEST PUSH1 0x40 DUP3 ADD SWAP1 POP SWAP2 SWAP1 POP JUMP JUMPDEST PUSH0 PUSH1 0x20 DUP3 ADD SWAP1 POP DUP2 DUP2 SUB PUSH0 DUP4 ADD MSTORE PUSH2 0x32E8 DUP2 PUSH2 0x32AF JUMP JUMPDEST SWAP1 POP SWAP2 SWAP1 POP JUMP JUMPDEST PUSH0 PUSH2 0x32F9 DUP3 PUSH2 0x27AC JUMP JUMPDEST SWAP2 POP PUSH1 0xFF DUP3 SUB PUSH2 0x330C JUMPI PUSH2 0x330B PUSH2 0x2F1D JUMP JUMPDEST JUMPDEST PUSH1 0x1 DUP3 ADD SWAP1 POP SWAP2 SWAP1 POP JUMP JUMPDEST PUSH32 0x4E487B7100000000000000000000000000000000000000000000000000000000 PUSH0 MSTORE PUSH1 0x22 PUSH1 0x4 MSTORE PUSH1 0x24 PUSH0 REVERT JUMPDEST PUSH0 PUSH1 0x2 DUP3 DIV SWAP1 POP PUSH1 0x1 DUP3 AND DUP1 PUSH2 0x335B JUMPI PUSH1 0x7F DUP3 AND SWAP2 POP JUMPDEST PUSH1 0x20 DUP3 LT DUP2 SUB PUSH2 0x336E JUMPI PUSH2 0x336D PUSH2 0x3317 JUMP JUMPDEST JUMPDEST POP SWAP2 SWAP1 POP JUMP JUMPDEST PUSH32 0x416E7377657220636F756E74206D69736D617463680000000000000000000000 PUSH0 DUP3 ADD MSTORE POP JUMP JUMPDEST PUSH0 PUSH2 0x33A8 PUSH1 0x15 DUP4 PUSH2 0x2CF5 JUMP JUMPDEST SWAP2 POP PUSH2 0x33B3 DUP3 PUSH2 0x3374 JUMP JUMPDEST PUSH1 0x20 DUP3 ADD SWAP1 POP SWAP2 SWAP1 POP JUMP JUMPDEST PUSH0 PUSH1 0x20 DUP3 ADD SWAP1 POP DUP2 DUP2 SUB PUSH0 DUP4 ADD MSTORE PUSH2 0x33D5 DUP2 PUSH2 0x339C JUMP JUMPDEST SWAP1 POP SWAP2 SWAP1 POP JUMP JUMPDEST PUSH32 0x4E487B7100000000000000000000000000000000000000000000000000000000 PUSH0 MSTORE PUSH1 0x32 PUSH1 0x4 MSTORE PUSH1 0x24 PUSH0 REVERT JUMPDEST PUSH0 DUP2 SWAP1 POP SWAP3 SWAP2 POP POP JUMP JUMPDEST PUSH0 PUSH2 0x341D DUP3 PUSH2 0x2CEB JUMP JUMPDEST PUSH2 0x3427 DUP2 DUP6 PUSH2 0x3409 JUMP JUMPDEST SWAP4 POP PUSH2 0x3437 DUP2 DUP6 PUSH1 0x20 DUP7 ADD PUSH2 0x2D05 JUMP JUMPDEST DUP1 DUP5 ADD SWAP2 POP POP SWAP3 SWAP2 POP POP JUMP JUMPDEST PUSH0 PUSH2 0x344E DUP3 DUP5 PUSH2 0x3413 JUMP JUMPDEST SWAP2 POP DUP2 SWAP1 POP SWAP3 SWAP2 POP POP JUMP JUMPDEST PUSH0 PUSH2 0x3463 DUP3 PUSH2 0x2D4B JUMP JUMPDEST SWAP2 POP PUSH4 0xFFFFFFFF DUP3 SUB PUSH2 0x3479 JUMPI PUSH2 0x3478 PUSH2 0x2F1D JUMP JUMPDEST JUMPDEST PUSH1 0x1 DUP3 ADD SWAP1 POP SWAP2 SWAP1 POP JUMP JUMPDEST PUSH32 0x4661696C656420746F2073656E64204D414E4400000000000000000000000000 PUSH0 DUP3 ADD MSTORE POP JUMP JUMPDEST PUSH0 PUSH2 0x34B8 PUSH1 0x13 DUP4 PUSH2 0x2CF5 JUMP JUMPDEST SWAP2 POP PUSH2 0x34C3 DUP3 PUSH2 0x3484 JUMP JUMPDEST PUSH1 0x20 DUP3 ADD SWAP1 POP SWAP2 SWAP1 POP JUMP JUMPDEST PUSH0 PUSH1 0x20 DUP3 ADD SWAP1 POP DUP2 DUP2 SUB PUSH0 DUP4 ADD MSTORE PUSH2 0x34E5 DUP2 PUSH2 0x34AC JUMP JUMPDEST SWAP1 POP SWAP2 SWAP1 POP JUMP JUMPDEST PUSH0 DUP2 MLOAD SWAP1 POP PUSH2 0x34FA DUP2 PUSH2 0x26A5 JUMP JUMPDEST SWAP3 SWAP2 POP POP JUMP JUMPDEST PUSH0 PUSH1 0x20 DUP3 DUP5 SUB SLT ISZERO PUSH2 0x3515 JUMPI PUSH2 0x3514 PUSH2 0x2694 JUMP JUMPDEST JUMPDEST PUSH0 PUSH2 0x3522 DUP5 DUP3 DUP6 ADD PUSH2 0x34EC JUMP JUMPDEST SWAP2 POP POP SWAP3 SWAP2 POP POP JUMP JUMPDEST PUSH32 0x496E73756666696369656E742072657075746174696F6E20746F20656E726F6C PUSH0 DUP3 ADD MSTORE PUSH32 0x6C00000000000000000000000000000000000000000000000000000000000000 PUSH1 0x20 DUP3 ADD MSTORE POP JUMP JUMPDEST PUSH0 PUSH2 0x3585 PUSH1 0x21 DUP4 PUSH2 0x2CF5 JUMP JUMPDEST SWAP2 POP PUSH2 0x3590 DUP3 PUSH2 0x352B JUMP JUMPDEST PUSH1 0x40 DUP3 ADD SWAP1 POP SWAP2 SWAP1 POP JUMP JUMPDEST PUSH0 PUSH1 0x20 DUP3 ADD SWAP1 POP DUP2 DUP2 SUB PUSH0 DUP4 ADD MSTORE PUSH2 0x35B2 DUP2 PUSH2 0x3579 JUMP JUMPDEST SWAP1 POP SWAP2 SWAP1 POP JUMP JUMPDEST PUSH32 0x436F75727365206E6F7420617070726F76656400000000000000000000000000 PUSH0 DUP3 ADD MSTORE POP JUMP JUMPDEST PUSH0 PUSH2 0x35ED PUSH1 0x13 DUP4 PUSH2 0x2CF5 JUMP JUMPDEST SWAP2 POP PUSH2 0x35F8 DUP3 PUSH2 0x35B9 JUMP JUMPDEST PUSH1 0x20 DUP3 ADD SWAP1 POP SWAP2 SWAP1 POP JUMP JUMPDEST PUSH0 PUSH1 0x20 DUP3 ADD SWAP1 POP DUP2 DUP2 SUB PUSH0 DUP4 ADD MSTORE PUSH2 0x361A DUP2 PUSH2 0x35E1 JUMP JUMPDEST SWAP1 POP SWAP2 SWAP1 POP JUMP JUMPDEST PUSH32 0x416C726561647920656E726F6C6C656400000000000000000000000000000000 PUSH0 DUP3 ADD MSTORE POP JUMP JUMPDEST PUSH0 PUSH2 0x3655 PUSH1 0x10 DUP4 PUSH2 0x2CF5 JUMP JUMPDEST SWAP2 POP PUSH2 0x3660 DUP3 PUSH2 0x3621 JUMP JUMPDEST PUSH1 0x20 DUP3 ADD SWAP1 POP SWAP2 SWAP1 POP JUMP JUMPDEST PUSH0 PUSH1 0x20 DUP3 ADD SWAP1 POP DUP2 DUP2 SUB PUSH0 DUP4 ADD MSTORE PUSH2 0x3682 DUP2 PUSH2 0x3649 JUMP JUMPDEST SWAP1 POP SWAP2 SWAP1 POP JUMP JUMPDEST PUSH32 0x436F7572736520616C726561647920617070726F766564000000000000000000 PUSH0 DUP3 ADD MSTORE POP JUMP JUMPDEST PUSH0 PUSH2 0x36BD PUSH1 0x17 DUP4 PUSH2 0x2CF5 JUMP JUMPDEST SWAP2 POP PUSH2 0x36C8 DUP3 PUSH2 0x3689 JUMP JUMPDEST PUSH1 0x20 DUP3 ADD SWAP1 POP SWAP2 SWAP1 POP JUMP JUMPDEST PUSH0 PUSH1 0x20 DUP3 ADD SWAP1 POP DUP2 DUP2 SUB PUSH0 DUP4 ADD MSTORE PUSH2 0x36EA DUP2 PUSH2 0x36B1 JUMP JUMPDEST SWAP1 POP SWAP2 SWAP1 POP JUMP JUMPDEST PUSH32 0x496E73756666696369656E742072657075746174696F6E20746F206372656174 PUSH0 DUP3 ADD MSTORE PUSH32 0x6520636F75727365000000000000000000000000000000000000000000000000 PUSH1 0x20 DUP3 ADD MSTORE POP JUMP JUMPDEST PUSH0 PUSH2 0x374B PUSH1 0x28 DUP4 PUSH2 0x2CF5 JUMP JUMPDEST SWAP2 POP PUSH2 0x3756 DUP3 PUSH2 0x36F1 JUMP JUMPDEST PUSH1 0x40 DUP3 ADD SWAP1 POP SWAP2 SWAP1 POP JUMP JUMPDEST PUSH0 PUSH1 0x20 DUP3 ADD SWAP1 POP DUP2 DUP2 SUB PUSH0 DUP4 ADD MSTORE PUSH2 0x3778 DUP2 PUSH2 0x373F JUMP JUMPDEST SWAP1 POP SWAP2 SWAP1 POP JUMP JUMPDEST PUSH32 0x496E76616C6964207175697A2064617461000000000000000000000000000000 PUSH0 DUP3 ADD MSTORE POP JUMP JUMPDEST PUSH0 PUSH2 0x37B3 PUSH1 0x11 DUP4 PUSH2 0x2CF5 JUMP JUMPDEST SWAP2 POP PUSH2 0x37BE DUP3 PUSH2 0x377F JUMP JUMPDEST PUSH1 0x20 DUP3 ADD SWAP1 POP SWAP2 SWAP1 POP JUMP JUMPDEST PUSH0 PUSH1 0x20 DUP3 ADD SWAP1 POP DUP2 DUP2 SUB PUSH0 DUP4 ADD MSTORE PUSH2 0x37E0 DUP2 PUSH2 0x37A7 JUMP JUMPDEST SWAP1 POP SWAP2 SWAP1 POP JUMP JUMPDEST PUSH0 PUSH2 0x37F1 DUP3 PUSH2 0x269C JUMP JUMPDEST SWAP2 POP PUSH32 0xFFFFFFFFFFFFFFFFFFFFFFFFFFFFFFFFFFFFFFFFFFFFFFFFFFFFFFFFFFFFFFFF DUP3 SUB PUSH2 0x3823 JUMPI PUSH2 0x3822 PUSH2 0x2F1D JUMP JUMPDEST JUMPDEST PUSH1 0x1 DUP3 ADD SWAP1 POP SWAP2 SWAP1 POP JUMP JUMPDEST PUSH0 DUP2 SWAP1 POP DUP2 PUSH0 MSTORE PUSH1 0x20 PUSH0 KECCAK256 SWAP1 POP SWAP2 SWAP1 POP JUMP JUMPDEST PUSH0 PUSH1 0x20 PUSH1 0x1F DUP4 ADD DIV SWAP1 POP SWAP2 SWAP1 POP JUMP JUMPDEST PUSH0 DUP3 DUP3 SHL SWAP1 POP SWAP3 SWAP2 POP POP JUMP JUMPDEST PUSH0 PUSH1 0x8 DUP4 MUL PUSH2 0x388A PUSH32 0xFFFFFFFFFFFFFFFFFFFFFFFFFFFFFFFFFFFFFFFFFFFFFFFFFFFFFFFFFFFFFFFF DUP3 PUSH2 0x384F JUMP JUMPDEST PUSH2 0x3894 DUP7 DUP4 PUSH2 0x384F JUMP JUMPDEST SWAP6 POP DUP1 NOT DUP5 AND SWAP4 POP DUP1 DUP7 AND DUP5 OR SWAP3 POP POP POP SWAP4 SWAP3 POP POP POP JUMP JUMPDEST PUSH0 PUSH2 0x38C6 PUSH2 0x38C1 PUSH2 0x38BC DUP5 PUSH2 0x269C JUMP JUMPDEST PUSH2 0x2C24 JUMP JUMPDEST PUSH2 0x269C JUMP JUMPDEST SWAP1 POP SWAP2 SWAP1 POP JUMP JUMPDEST PUSH0 DUP2 SWAP1 POP SWAP2 SWAP1 POP JUMP JUMPDEST PUSH2 0x38DF DUP4 PUSH2 0x38AC JUMP JUMPDEST PUSH2 0x38F3 PUSH2 0x38EB DUP3 PUSH2 0x38CD JUMP JUMPDEST DUP5 DUP5 SLOAD PUSH2 0x385B JUMP JUMPDEST DUP3 SSTORE POP POP POP POP JUMP JUMPDEST PUSH0 SWAP1 JUMP JUMPDEST PUSH2 0x3907 PUSH2 0x38FB JUMP JUMPDEST PUSH2 0x3912 DUP2 DUP5 DUP5 PUSH2 0x38D6 JUMP JUMPDEST POP POP POP JUMP JUMPDEST JUMPDEST DUP2 DUP2 LT ISZERO PUSH2 0x3935 JUMPI PUSH2 0x392A PUSH0 DUP3 PUSH2 0x38FF JUMP JUMPDEST PUSH1 0x1 DUP2 ADD SWAP1 POP PUSH2 0x3918 JUMP JUMPDEST POP POP JUMP JUMPDEST PUSH1 0x1F DUP3 GT ISZERO PUSH2 0x397A JUMPI PUSH2 0x394B DUP2 PUSH2 0x382E JUMP JUMPDEST PUSH2 0x3954 DUP5 PUSH2 0x3840 JUMP JUMPDEST DUP2 ADD PUSH1 0x20 DUP6 LT ISZERO PUSH2 0x3963 JUMPI DUP2 SWAP1 POP JUMPDEST PUSH2 0x3977 PUSH2 0x396F DUP6 PUSH2 0x3840 JUMP JUMPDEST DUP4 ADD DUP3 PUSH2 0x3917 JUMP JUMPDEST POP POP JUMPDEST POP POP POP JUMP JUMPDEST PUSH0 DUP3 DUP3 SHR SWAP1 POP SWAP3 SWAP2 POP POP JUMP JUMPDEST PUSH0 PUSH2 0x399A PUSH0 NOT DUP5 PUSH1 0x8 MUL PUSH2 0x397F JUMP JUMPDEST NOT DUP1 DUP4 AND SWAP2 POP POP SWAP3 SWAP2 POP POP JUMP JUMPDEST PUSH0 PUSH2 0x39B2 DUP4 DUP4 PUSH2 0x398B JUMP JUMPDEST SWAP2 POP DUP3 PUSH1 0x2 MUL DUP3 OR SWAP1 POP SWAP3 SWAP2 POP POP JUMP JUMPDEST PUSH2 0x39CB DUP3 PUSH2 0x2CEB JUMP JUMPDEST PUSH8 0xFFFFFFFFFFFFFFFF DUP2 GT ISZERO PUSH2 0x39E4 JUMPI PUSH2 0x39E3 PUSH2 0x285F JUMP JUMPDEST JUMPDEST PUSH2 0x39EE DUP3 SLOAD PUSH2 0x3344 JUMP JUMPDEST PUSH2 0x39F9 DUP3 DUP3 DUP6 PUSH2 0x3939 JUMP JUMPDEST PUSH0 PUSH1 0x20 SWAP1 POP PUSH1 0x1F DUP4 GT PUSH1 0x1 DUP2 EQ PUSH2 0x3A2A JUMPI PUSH0 DUP5 ISZERO PUSH2 0x3A18 JUMPI DUP3 DUP8 ADD MLOAD SWAP1 POP JUMPDEST PUSH2 0x3A22 DUP6 DUP3 PUSH2 0x39A7 JUMP JUMPDEST DUP7 SSTORE POP PUSH2 0x3A89 JUMP JUMPDEST PUSH1 0x1F NOT DUP5 AND PUSH2 0x3A38 DUP7 PUSH2 0x382E JUMP JUMPDEST PUSH0 JUMPDEST DUP3 DUP2 LT ISZERO PUSH2 0x3A5F JUMPI DUP5 DUP10 ADD MLOAD DUP3 SSTORE PUSH1 0x1 DUP3 ADD SWAP2 POP PUSH1 0x20 DUP6 ADD SWAP5 POP PUSH1 0x20 DUP2 ADD SWAP1 POP PUSH2 0x3A3A JUMP JUMPDEST DUP7 DUP4 LT ISZERO PUSH2 0x3A7C JUMPI DUP5 DUP10 ADD MLOAD PUSH2 0x3A78 PUSH1 0x1F DUP10 AND DUP3 PUSH2 0x398B JUMP JUMPDEST DUP4 SSTORE POP JUMPDEST PUSH1 0x1 PUSH1 0x2 DUP9 MUL ADD DUP9 SSTORE POP POP POP JUMPDEST POP POP POP POP POP POP JUMP JUMPDEST PUSH32 0x4100000000000000000000000000000000000000000000000000000000000000 PUSH0 DUP3 ADD MSTORE POP JUMP JUMPDEST PUSH0 PUSH2 0x3AC5 PUSH1 0x1 DUP4 PUSH2 0x3409 JUMP JUMPDEST SWAP2 POP PUSH2 0x3AD0 DUP3 PUSH2 0x3A91 JUMP JUMPDEST PUSH1 0x1 DUP3 ADD SWAP1 POP SWAP2 SWAP1 POP JUMP JUMPDEST PUSH0 PUSH2 0x3AE5 DUP3 PUSH2 0x3AB9 JUMP JUMPDEST SWAP2 POP DUP2 SWAP1 POP SWAP2 SWAP1 POP JUMP JUMPDEST PUSH32 0x4200000000000000000000000000000000000000000000000000000000000000 PUSH0 DUP3 ADD MSTORE POP JUMP JUMPDEST PUSH0 PUSH2 0x3B23 PUSH1 0x1 DUP4 PUSH2 0x3409 JUMP JUMPDEST SWAP2 POP PUSH2 0x3B2E DUP3 PUSH2 0x3AEF JUMP JUMPDEST PUSH1 0x1 DUP3 ADD SWAP1 POP SWAP2 SWAP1 POP JUMP JUMPDEST PUSH0 PUSH2 0x3B43 DUP3 PUSH2 0x3B17 JUMP JUMPDEST SWAP2 POP DUP2 SWAP1 POP SWAP2 SWAP1 POP JUMP JUMPDEST PUSH32 0x4300000000000000000000000000000000000000000000000000000000000000 PUSH0 DUP3 ADD MSTORE POP JUMP JUMPDEST PUSH0 PUSH2 0x3B81 PUSH1 0x1 DUP4 PUSH2 0x3409 JUMP JUMPDEST SWAP2 POP PUSH2 0x3B8C DUP3 PUSH2 0x3B4D JUMP JUMPDEST PUSH1 0x1 DUP3 ADD SWAP1 POP SWAP2 SWAP1 POP JUMP JUMPDEST PUSH0 PUSH2 0x3BA1 DUP3 PUSH2 0x3B75 JUMP JUMPDEST SWAP2 POP DUP2 SWAP1 POP SWAP2 SWAP1 POP JUMP JUMPDEST PUSH32 0x4400000000000000000000000000000000000000000000000000000000000000 PUSH0 DUP3 ADD MSTORE POP JUMP JUMPDEST PUSH0 PUSH2 0x3BDF PUSH1 0x1 DUP4 PUSH2 0x3409 JUMP JUMPDEST SWAP2 POP PUSH2 0x3BEA DUP3 PUSH2 0x3BAB JUMP JUMPDEST PUSH1 0x1 DUP3 ADD SWAP1 POP SWAP2 SWAP1 POP JUMP JUMPDEST PUSH0 PUSH2 0x3BFF DUP3 PUSH2 0x3BD3 JUMP JUMPDEST SWAP2 POP DUP2 SWAP1 POP SWAP2 SWAP1 POP JUMP JUMPDEST PUSH32 0x496E76616C696420636F727265637420616E7377657200000000000000000000 PUSH0 DUP3 ADD MSTORE POP JUMP JUMPDEST PUSH0 PUSH2 0x3C3D PUSH1 0x16 DUP4 PUSH2 0x2CF5 JUMP JUMPDEST SWAP2 POP PUSH2 0x3C48 DUP3 PUSH2 0x3C09 JUMP JUMPDEST PUSH1 0x20 DUP3 ADD SWAP1 POP SWAP2 SWAP1 POP JUMP JUMPDEST PUSH0 PUSH1 0x20 DUP3 ADD SWAP1 POP DUP2 DUP2 SUB PUSH0 DUP4 ADD MSTORE PUSH2 0x3C6A DUP2 PUSH2 0x3C31 JUMP JUMPDEST SWAP1 POP SWAP2 SWAP1 POP JUMP JUMPDEST PUSH32 0x466565206D7573742062652067726561746572207468616E2030000000000000 PUSH0 DUP3 ADD MSTORE POP JUMP JUMPDEST PUSH0 PUSH2 0x3CA5 PUSH1 0x1A DUP4 PUSH2 0x2CF5 JUMP JUMPDEST SWAP2 POP PUSH2 0x3CB0 DUP3 PUSH2 0x3C71 JUMP JUMPDEST PUSH1 0x20 DUP3 ADD SWAP1 POP SWAP2 SWAP1 POP JUMP JUMPDEST PUSH0 PUSH1 0x20 DUP3 ADD SWAP1 POP DUP2 DUP2 SUB PUSH0 DUP4 ADD MSTORE PUSH2 0x3CD2 DUP2 PUSH2 0x3C99 JUMP JUMPDEST SWAP1 POP SWAP2 SWAP1 POP JUMP JUMPDEST PUSH32 0x5061757361626C653A2070617573656400000000000000000000000000000000 PUSH0 DUP3 ADD MSTORE POP JUMP JUMPDEST PUSH0 PUSH2 0x3D0D PUSH1 0x10 DUP4 PUSH2 0x2CF5 JUMP JUMPDEST SWAP2 POP PUSH2 0x3D18 DUP3 PUSH2 0x3CD9 JUMP JUMPDEST PUSH1 0x20 DUP3 ADD SWAP1 POP SWAP2 SWAP1 POP JUMP JUMPDEST PUSH0 PUSH1 0x20 DUP3 ADD SWAP1 POP DUP2 DUP2 SUB PUSH0 DUP4 ADD MSTORE PUSH2 0x3D3A DUP2 PUSH2 0x3D01 JUMP JUMPDEST SWAP1 POP SWAP2 SWAP1 POP JUMP JUMPDEST PUSH32 0x5061757361626C653A206E6F7420706175736564000000000000000000000000 PUSH0 DUP3 ADD MSTORE POP JUMP JUMPDEST PUSH0 PUSH2 0x3D75 PUSH1 0x14 DUP4 PUSH2 0x2CF5 JUMP JUMPDEST SWAP2 POP PUSH2 0x3D80 DUP3 PUSH2 0x3D41 JUMP JUMPDEST PUSH1 0x20 DUP3 ADD SWAP1 POP SWAP2 SWAP1 POP JUMP JUMPDEST PUSH0 PUSH1 0x20 DUP3 ADD SWAP1 POP DUP2 DUP2 SUB PUSH0 DUP4 ADD MSTORE PUSH2 0x3DA2 DUP2 PUSH2 0x3D69 JUMP JUMPDEST SWAP1 POP SWAP2 SWAP1 POP JUMP INVALID LOG2 PUSH5 0x6970667358 0x22 SLT KECCAK256 DUP8 LT LOG2 0xE3 PUSH14 0x44D646A472C4DE67EAC990041A4 PUSH14 0xCD2F326F3BA6F652BDAE8E86473 PUSH16 0x6C634300081A00330000000000000000 "
				},
				"gasEstimates": {
					"creation": {
						"codeDepositCost": "3167800",
						"executionCost": "infinite",
						"totalCost": "infinite"
					},
					"external": {
						"WITHDRAWAL_INTERVAL()": "infinite",
						"accumulatedFees()": "2471",
						"approveCourse(uint256)": "infinite",
						"attemptQuiz(uint256,string[])": "infinite",
						"courseCount()": "2470",
						"courseQuizzes(uint256,uint256)": "infinite",
						"courses(uint256)": "infinite",
						"createCourse(string,string[],string[],string[],string[],string[],string[])": "infinite",
						"creatorRewardAmount()": "2536",
						"enrollInCourse(uint256)": "infinite",
						"enrollThreshold()": "2492",
						"enrollments(address,uint256)": "infinite",
						"lastWithdrawalTime()": "2493",
						"owner()": "2605",
						"pause()": "infinite",
						"paused()": "2592",
						"platformTx()": "2492",
						"postThreshold()": "2513",
						"renounceOwnership()": "infinite",
						"reputationContract()": "infinite",
						"studentRewardAmount()": "2469",
						"transferOwnership(address)": "infinite",
						"unpause()": "infinite",
						"updateCreatorReward(uint256)": "infinite",
						"updateEnrollThreshold(uint256)": "infinite",
						"updatePlatformFee(uint256)": "infinite",
						"updatePostThreshold(uint256)": "infinite",
						"updateReputationContract(address)": "infinite",
						"updateStudentReward(uint256)": "infinite",
						"w_PlatformFees()": "infinite"
					}
				},
				"methodIdentifiers": {
					"WITHDRAWAL_INTERVAL()": "4c64c030",
					"accumulatedFees()": "587f5ed7",
					"approveCourse(uint256)": "75284998",
					"attemptQuiz(uint256,string[])": "5cb45cb5",
					"courseCount()": "66055159",
					"courseQuizzes(uint256,uint256)": "b0aaefd6",
					"courses(uint256)": "96f979d2",
					"createCourse(string,string[],string[],string[],string[],string[],string[])": "79370df3",
					"creatorRewardAmount()": "a888f74c",
					"enrollInCourse(uint256)": "5e52da27",
					"enrollThreshold()": "955cf223",
					"enrollments(address,uint256)": "07f910f8",
					"lastWithdrawalTime()": "34a014dc",
					"owner()": "8da5cb5b",
					"pause()": "8456cb59",
					"paused()": "5c975abb",
					"platformTx()": "af252dfe",
					"postThreshold()": "ed25f27c",
					"renounceOwnership()": "715018a6",
					"reputationContract()": "87bc1425",
					"studentRewardAmount()": "d731559b",
					"transferOwnership(address)": "f2fde38b",
					"unpause()": "3f4ba83a",
					"updateCreatorReward(uint256)": "05977b4d",
					"updateEnrollThreshold(uint256)": "dcd1473b",
					"updatePlatformFee(uint256)": "aa0b5988",
					"updatePostThreshold(uint256)": "1ae9df9a",
					"updateReputationContract(address)": "905baa61",
					"updateStudentReward(uint256)": "b8350f37",
					"w_PlatformFees()": "15ba75f4"
				}
			},
			"storageLayout": {
				"storage": [
					{
						"astId": 8,
						"contract": "moonx/moonx.sol:DecentralLearning",
						"label": "_owner",
						"offset": 0,
						"slot": "0",
						"type": "t_address"
					},
					{
						"astId": 165,
						"contract": "moonx/moonx.sol:DecentralLearning",
						"label": "_paused",
						"offset": 20,
						"slot": "0",
						"type": "t_bool"
					},
					{
						"astId": 304,
						"contract": "moonx/moonx.sol:DecentralLearning",
						"label": "reputationContract",
						"offset": 0,
						"slot": "1",
						"type": "t_contract(IReputationContract)297"
					},
					{
						"astId": 306,
						"contract": "moonx/moonx.sol:DecentralLearning",
						"label": "enrollThreshold",
						"offset": 0,
						"slot": "2",
						"type": "t_uint256"
					},
					{
						"astId": 308,
						"contract": "moonx/moonx.sol:DecentralLearning",
						"label": "postThreshold",
						"offset": 0,
						"slot": "3",
						"type": "t_uint256"
					},
					{
						"astId": 310,
						"contract": "moonx/moonx.sol:DecentralLearning",
						"label": "studentRewardAmount",
						"offset": 0,
						"slot": "4",
						"type": "t_uint256"
					},
					{
						"astId": 312,
						"contract": "moonx/moonx.sol:DecentralLearning",
						"label": "creatorRewardAmount",
						"offset": 0,
						"slot": "5",
						"type": "t_uint256"
					},
					{
						"astId": 314,
						"contract": "moonx/moonx.sol:DecentralLearning",
						"label": "platformTx",
						"offset": 0,
						"slot": "6",
						"type": "t_uint256"
					},
					{
						"astId": 319,
						"contract": "moonx/moonx.sol:DecentralLearning",
						"label": "lastWithdrawalTime",
						"offset": 0,
						"slot": "7",
						"type": "t_uint256"
					},
					{
						"astId": 321,
						"contract": "moonx/moonx.sol:DecentralLearning",
						"label": "accumulatedFees",
						"offset": 0,
						"slot": "8",
						"type": "t_uint256"
					},
					{
						"astId": 363,
						"contract": "moonx/moonx.sol:DecentralLearning",
						"label": "courses",
						"offset": 0,
						"slot": "9",
						"type": "t_mapping(t_uint256,t_struct(Course)334_storage)"
					},
					{
						"astId": 370,
						"contract": "moonx/moonx.sol:DecentralLearning",
						"label": "enrollments",
						"offset": 0,
						"slot": "10",
						"type": "t_mapping(t_address,t_mapping(t_uint256,t_struct(Enrollment)358_storage))"
					},
					{
						"astId": 376,
						"contract": "moonx/moonx.sol:DecentralLearning",
						"label": "courseQuizzes",
						"offset": 0,
						"slot": "11",
						"type": "t_mapping(t_uint256,t_array(t_struct(Quiz)349_storage)dyn_storage)"
					},
					{
						"astId": 378,
						"contract": "moonx/moonx.sol:DecentralLearning",
						"label": "courseCount",
						"offset": 0,
						"slot": "12",
						"type": "t_uint256"
					}
				],
				"types": {
					"t_address": {
						"encoding": "inplace",
						"label": "address",
						"numberOfBytes": "20"
					},
					"t_array(t_struct(Quiz)349_storage)dyn_storage": {
						"base": "t_struct(Quiz)349_storage",
						"encoding": "dynamic_array",
						"label": "struct DecentralLearning.Quiz[]",
						"numberOfBytes": "32"
					},
					"t_bool": {
						"encoding": "inplace",
						"label": "bool",
						"numberOfBytes": "1"
					},
					"t_bytes32": {
						"encoding": "inplace",
						"label": "bytes32",
						"numberOfBytes": "32"
					},
					"t_contract(IReputationContract)297": {
						"encoding": "inplace",
						"label": "contract IReputationContract",
						"numberOfBytes": "20"
					},
					"t_mapping(t_address,t_mapping(t_uint256,t_struct(Enrollment)358_storage))": {
						"encoding": "mapping",
						"key": "t_address",
						"label": "mapping(address => mapping(uint256 => struct DecentralLearning.Enrollment))",
						"numberOfBytes": "32",
						"value": "t_mapping(t_uint256,t_struct(Enrollment)358_storage)"
					},
					"t_mapping(t_uint256,t_array(t_struct(Quiz)349_storage)dyn_storage)": {
						"encoding": "mapping",
						"key": "t_uint256",
						"label": "mapping(uint256 => struct DecentralLearning.Quiz[])",
						"numberOfBytes": "32",
						"value": "t_array(t_struct(Quiz)349_storage)dyn_storage"
					},
					"t_mapping(t_uint256,t_struct(Course)334_storage)": {
						"encoding": "mapping",
						"key": "t_uint256",
						"label": "mapping(uint256 => struct DecentralLearning.Course)",
						"numberOfBytes": "32",
						"value": "t_struct(Course)334_storage"
					},
					"t_mapping(t_uint256,t_struct(Enrollment)358_storage)": {
						"encoding": "mapping",
						"key": "t_uint256",
						"label": "mapping(uint256 => struct DecentralLearning.Enrollment)",
						"numberOfBytes": "32",
						"value": "t_struct(Enrollment)358_storage"
					},
					"t_string_storage": {
						"encoding": "bytes",
						"label": "string",
						"numberOfBytes": "32"
					},
					"t_struct(Course)334_storage": {
						"encoding": "inplace",
						"label": "struct DecentralLearning.Course",
						"members": [
							{
								"astId": 323,
								"contract": "moonx/moonx.sol:DecentralLearning",
								"label": "creator",
								"offset": 0,
								"slot": "0",
								"type": "t_address"
							},
							{
								"astId": 325,
								"contract": "moonx/moonx.sol:DecentralLearning",
								"label": "metadataURI",
								"offset": 0,
								"slot": "1",
								"type": "t_string_storage"
							},
							{
								"astId": 327,
								"contract": "moonx/moonx.sol:DecentralLearning",
								"label": "approved",
								"offset": 0,
								"slot": "2",
								"type": "t_bool"
							},
							{
								"astId": 329,
								"contract": "moonx/moonx.sol:DecentralLearning",
								"label": "passedStudents",
								"offset": 1,
								"slot": "2",
								"type": "t_uint32"
							},
							{
								"astId": 331,
								"contract": "moonx/moonx.sol:DecentralLearning",
								"label": "totalRewarded",
								"offset": 0,
								"slot": "3",
								"type": "t_uint256"
							},
							{
								"astId": 333,
								"contract": "moonx/moonx.sol:DecentralLearning",
								"label": "totalEnrolled",
								"offset": 0,
								"slot": "4",
								"type": "t_uint32"
							}
						],
						"numberOfBytes": "160"
					},
					"t_struct(Enrollment)358_storage": {
						"encoding": "inplace",
						"label": "struct DecentralLearning.Enrollment",
						"members": [
							{
								"astId": 351,
								"contract": "moonx/moonx.sol:DecentralLearning",
								"label": "isEnrolled",
								"offset": 0,
								"slot": "0",
								"type": "t_bool"
							},
							{
								"astId": 353,
								"contract": "moonx/moonx.sol:DecentralLearning",
								"label": "attemptCount",
								"offset": 1,
								"slot": "0",
								"type": "t_uint8"
							},
							{
								"astId": 355,
								"contract": "moonx/moonx.sol:DecentralLearning",
								"label": "hasPassed",
								"offset": 2,
								"slot": "0",
								"type": "t_bool"
							},
							{
								"astId": 357,
								"contract": "moonx/moonx.sol:DecentralLearning",
								"label": "hasClaimedReward",
								"offset": 3,
								"slot": "0",
								"type": "t_bool"
							}
						],
						"numberOfBytes": "32"
					},
					"t_struct(Quiz)349_storage": {
						"encoding": "inplace",
						"label": "struct DecentralLearning.Quiz",
						"members": [
							{
								"astId": 336,
								"contract": "moonx/moonx.sol:DecentralLearning",
								"label": "courseId",
								"offset": 0,
								"slot": "0",
								"type": "t_uint256"
							},
							{
								"astId": 338,
								"contract": "moonx/moonx.sol:DecentralLearning",
								"label": "question",
								"offset": 0,
								"slot": "1",
								"type": "t_string_storage"
							},
							{
								"astId": 340,
								"contract": "moonx/moonx.sol:DecentralLearning",
								"label": "optionA",
								"offset": 0,
								"slot": "2",
								"type": "t_string_storage"
							},
							{
								"astId": 342,
								"contract": "moonx/moonx.sol:DecentralLearning",
								"label": "optionB",
								"offset": 0,
								"slot": "3",
								"type": "t_string_storage"
							},
							{
								"astId": 344,
								"contract": "moonx/moonx.sol:DecentralLearning",
								"label": "optionC",
								"offset": 0,
								"slot": "4",
								"type": "t_string_storage"
							},
							{
								"astId": 346,
								"contract": "moonx/moonx.sol:DecentralLearning",
								"label": "optionD",
								"offset": 0,
								"slot": "5",
								"type": "t_string_storage"
							},
							{
								"astId": 348,
								"contract": "moonx/moonx.sol:DecentralLearning",
								"label": "correctAnswerHash",
								"offset": 0,
								"slot": "6",
								"type": "t_bytes32"
							}
						],
						"numberOfBytes": "224"
					},
					"t_uint256": {
						"encoding": "inplace",
						"label": "uint256",
						"numberOfBytes": "32"
					},
					"t_uint32": {
						"encoding": "inplace",
						"label": "uint32",
						"numberOfBytes": "4"
					},
					"t_uint8": {
						"encoding": "inplace",
						"label": "uint8",
						"numberOfBytes": "1"
					}
				}
			},
			"userdoc": {
				"kind": "user",
				"methods": {},
				"version": 1
			}
		}
	}
}