{
	"moonx/moonx.sol": {
		"DecentralLearning": {
			"abi": [
				{
					"inputs": [
						{
							"internalType": "address",
							"name": "_reputationContract",
							"type": "address"
						}
					],
					"stateMutability": "nonpayable",
					"type": "constructor"
				},
				{
					"inputs": [
						{
							"internalType": "address",
							"name": "owner",
							"type": "address"
						}
					],
					"name": "OwnableInvalidOwner",
					"type": "error"
				},
				{
					"inputs": [
						{
							"internalType": "address",
							"name": "account",
							"type": "address"
						}
					],
					"name": "OwnableUnauthorizedAccount",
					"type": "error"
				},
				{
					"anonymous": false,
					"inputs": [
						{
							"indexed": true,
							"internalType": "uint256",
							"name": "courseId",
							"type": "uint256"
						}
					],
					"name": "CourseApproved",
					"type": "event"
				},
				{
					"anonymous": false,
					"inputs": [
						{
							"indexed": true,
							"internalType": "uint256",
							"name": "courseId",
							"type": "uint256"
						},
						{
							"indexed": true,
							"internalType": "address",
							"name": "creator",
							"type": "address"
						}
					],
					"name": "CourseCreated",
					"type": "event"
				},
				{
					"anonymous": false,
					"inputs": [
						{
							"indexed": true,
							"internalType": "uint256",
							"name": "courseId",
							"type": "uint256"
						},
						{
							"indexed": true,
							"internalType": "address",
							"name": "creator",
							"type": "address"
						},
						{
							"indexed": false,
							"internalType": "uint256",
							"name": "amount",
							"type": "uint256"
						}
					],
					"name": "CreatorRewardClaimed",
					"type": "event"
				},
				{
					"anonymous": false,
					"inputs": [
						{
							"indexed": true,
							"internalType": "uint256",
							"name": "courseId",
							"type": "uint256"
						},
						{
							"indexed": true,
							"internalType": "address",
							"name": "creator",
							"type": "address"
						},
						{
							"indexed": false,
							"internalType": "uint256",
							"name": "amount",
							"type": "uint256"
						}
					],
					"name": "CreatorWithdrawal",
					"type": "event"
				},
				{
					"anonymous": false,
					"inputs": [
						{
							"indexed": true,
							"internalType": "address",
							"name": "previousOwner",
							"type": "address"
						},
						{
							"indexed": true,
							"internalType": "address",
							"name": "newOwner",
							"type": "address"
						}
					],
					"name": "OwnershipTransferred",
					"type": "event"
				},
				{
					"anonymous": false,
					"inputs": [
						{
							"indexed": false,
							"internalType": "address",
							"name": "account",
							"type": "address"
						}
					],
					"name": "Paused",
					"type": "event"
				},
				{
					"anonymous": false,
					"inputs": [
						{
							"indexed": true,
							"internalType": "uint256",
							"name": "courseId",
							"type": "uint256"
						},
						{
							"indexed": true,
							"internalType": "address",
							"name": "user",
							"type": "address"
						},
						{
							"indexed": false,
							"internalType": "bool",
							"name": "passed",
							"type": "bool"
						}
					],
					"name": "QuizAttempted",
					"type": "event"
				},
				{
					"anonymous": false,
					"inputs": [
						{
							"indexed": true,
							"internalType": "uint256",
							"name": "courseId",
							"type": "uint256"
						},
						{
							"indexed": false,
							"internalType": "uint256",
							"name": "quizId",
							"type": "uint256"
						}
					],
					"name": "QuizCreated",
					"type": "event"
				},
				{
					"anonymous": false,
					"inputs": [
						{
							"indexed": true,
							"internalType": "uint256",
							"name": "courseId",
							"type": "uint256"
						},
						{
							"indexed": true,
							"internalType": "address",
							"name": "user",
							"type": "address"
						},
						{
							"indexed": false,
							"internalType": "uint256",
							"name": "amount",
							"type": "uint256"
						}
					],
					"name": "RewardClaimed",
					"type": "event"
				},
				{
					"anonymous": false,
					"inputs": [
						{
							"indexed": false,
							"internalType": "address",
							"name": "account",
							"type": "address"
						}
					],
					"name": "Unpaused",
					"type": "event"
				},
				{
					"anonymous": false,
					"inputs": [
						{
							"indexed": true,
							"internalType": "uint256",
							"name": "courseId",
							"type": "uint256"
						},
						{
							"indexed": true,
							"internalType": "address",
							"name": "user",
							"type": "address"
						}
					],
					"name": "UserEnrolled",
					"type": "event"
				},
				{
					"inputs": [],
					"name": "CREATOR_REWARD_AMOUNT",
					"outputs": [
						{
							"internalType": "uint256",
							"name": "",
							"type": "uint256"
						}
					],
					"stateMutability": "view",
					"type": "function"
				},
				{
					"inputs": [],
					"name": "ENROLL_THRESHOLD",
					"outputs": [
						{
							"internalType": "uint256",
							"name": "",
							"type": "uint256"
						}
					],
					"stateMutability": "view",
					"type": "function"
				},
				{
					"inputs": [],
					"name": "POST_THRESHOLD",
					"outputs": [
						{
							"internalType": "uint256",
							"name": "",
							"type": "uint256"
						}
					],
					"stateMutability": "view",
					"type": "function"
				},
				{
					"inputs": [],
					"name": "STUDENT_REWARD_AMOUNT",
					"outputs": [
						{
							"internalType": "uint256",
							"name": "",
							"type": "uint256"
						}
					],
					"stateMutability": "view",
					"type": "function"
				},
				{
					"inputs": [
						{
							"internalType": "uint256",
							"name": "_courseId",
							"type": "uint256"
						}
					],
					"name": "approveCourse",
					"outputs": [],
					"stateMutability": "nonpayable",
					"type": "function"
				},
				{
					"inputs": [
						{
							"internalType": "uint256",
							"name": "_courseId",
							"type": "uint256"
						},
						{
							"internalType": "string[]",
							"name": "_answers",
							"type": "string[]"
						}
					],
					"name": "attemptQuiz",
					"outputs": [],
					"stateMutability": "nonpayable",
					"type": "function"
				},
				{
					"inputs": [
						{
							"internalType": "uint256",
							"name": "_courseId",
							"type": "uint256"
						}
					],
					"name": "claimCreatorReward",
					"outputs": [],
					"stateMutability": "nonpayable",
					"type": "function"
				},
				{
					"inputs": [
						{
							"internalType": "uint256",
							"name": "_courseId",
							"type": "uint256"
						}
					],
					"name": "claimStudentReward",
					"outputs": [],
					"stateMutability": "nonpayable",
					"type": "function"
				},
				{
					"inputs": [],
					"name": "courseCount",
					"outputs": [
						{
							"internalType": "uint256",
							"name": "",
							"type": "uint256"
						}
					],
					"stateMutability": "view",
					"type": "function"
				},
				{
					"inputs": [
						{
							"internalType": "uint256",
							"name": "",
							"type": "uint256"
						},
						{
							"internalType": "uint256",
							"name": "",
							"type": "uint256"
						}
					],
					"name": "courseQuizzes",
					"outputs": [
						{
							"internalType": "uint256",
							"name": "courseId",
							"type": "uint256"
						},
						{
							"internalType": "string",
							"name": "question",
							"type": "string"
						},
						{
							"internalType": "string",
							"name": "optionA",
							"type": "string"
						},
						{
							"internalType": "string",
							"name": "optionB",
							"type": "string"
						},
						{
							"internalType": "string",
							"name": "optionC",
							"type": "string"
						},
						{
							"internalType": "string",
							"name": "optionD",
							"type": "string"
						},
						{
							"internalType": "bytes32",
							"name": "correctAnswerHash",
							"type": "bytes32"
						}
					],
					"stateMutability": "view",
					"type": "function"
				},
				{
					"inputs": [
						{
							"internalType": "uint256",
							"name": "",
							"type": "uint256"
						}
					],
					"name": "courses",
					"outputs": [
						{
							"internalType": "address",
							"name": "creator",
							"type": "address"
						},
						{
							"internalType": "string",
							"name": "metadataURI",
							"type": "string"
						},
						{
							"internalType": "bool",
							"name": "approved",
							"type": "bool"
						},
						{
							"internalType": "uint256",
							"name": "passedStudents",
							"type": "uint256"
						},
						{
							"internalType": "uint256",
							"name": "totalRewarded",
							"type": "uint256"
						},
						{
							"internalType": "uint256",
							"name": "totalEnrolled",
							"type": "uint256"
						}
					],
					"stateMutability": "view",
					"type": "function"
				},
				{
					"inputs": [
						{
							"internalType": "string",
							"name": "_metadataURI",
							"type": "string"
						}
					],
					"name": "createCourse",
					"outputs": [],
					"stateMutability": "nonpayable",
					"type": "function"
				},
				{
					"inputs": [
						{
							"internalType": "uint256",
							"name": "_courseId",
							"type": "uint256"
						},
						{
							"internalType": "string",
							"name": "_question",
							"type": "string"
						},
						{
							"internalType": "string",
							"name": "_optionA",
							"type": "string"
						},
						{
							"internalType": "string",
							"name": "_optionB",
							"type": "string"
						},
						{
							"internalType": "string",
							"name": "_optionC",
							"type": "string"
						},
						{
							"internalType": "string",
							"name": "_optionD",
							"type": "string"
						},
						{
							"internalType": "string",
							"name": "_correctAnswer",
							"type": "string"
						}
					],
					"name": "createQuiz",
					"outputs": [],
					"stateMutability": "nonpayable",
					"type": "function"
				},
				{
					"inputs": [
						{
							"internalType": "uint256",
							"name": "_courseId",
							"type": "uint256"
						}
					],
					"name": "enrollInCourse",
					"outputs": [],
					"stateMutability": "nonpayable",
					"type": "function"
				},
				{
					"inputs": [
						{
							"internalType": "address",
							"name": "",
							"type": "address"
						},
						{
							"internalType": "uint256",
							"name": "",
							"type": "uint256"
						}
					],
					"name": "enrollments",
					"outputs": [
						{
							"internalType": "bool",
							"name": "isEnrolled",
							"type": "bool"
						},
						{
							"internalType": "uint8",
							"name": "attemptCount",
							"type": "uint8"
						},
						{
							"internalType": "bool",
							"name": "hasPassed",
							"type": "bool"
						},
						{
							"internalType": "bool",
							"name": "hasClaimedReward",
							"type": "bool"
						}
					],
					"stateMutability": "view",
					"type": "function"
				},
				{
					"inputs": [],
					"name": "owner",
					"outputs": [
						{
							"internalType": "address",
							"name": "",
							"type": "address"
						}
					],
					"stateMutability": "view",
					"type": "function"
				},
				{
					"inputs": [],
					"name": "pause",
					"outputs": [],
					"stateMutability": "nonpayable",
					"type": "function"
				},
				{
					"inputs": [],
					"name": "paused",
					"outputs": [
						{
							"internalType": "bool",
							"name": "",
							"type": "bool"
						}
					],
					"stateMutability": "view",
					"type": "function"
				},
				{
					"inputs": [],
					"name": "renounceOwnership",
					"outputs": [],
					"stateMutability": "nonpayable",
					"type": "function"
				},
				{
					"inputs": [],
					"name": "reputationContract",
					"outputs": [
						{
							"internalType": "contract IReputationContract",
							"name": "",
							"type": "address"
						}
					],
					"stateMutability": "view",
					"type": "function"
				},
				{
					"inputs": [
						{
							"internalType": "address",
							"name": "newOwner",
							"type": "address"
						}
					],
					"name": "transferOwnership",
					"outputs": [],
					"stateMutability": "nonpayable",
					"type": "function"
				},
				{
					"inputs": [],
					"name": "unpause",
					"outputs": [],
					"stateMutability": "nonpayable",
					"type": "function"
				},
				{
					"inputs": [
						{
							"internalType": "address",
							"name": "_newReputationContract",
							"type": "address"
						}
					],
					"name": "updateReputationContract",
					"outputs": [],
					"stateMutability": "nonpayable",
					"type": "function"
				},
				{
					"inputs": [
						{
							"internalType": "uint256",
							"name": "_courseId",
							"type": "uint256"
						},
						{
							"internalType": "uint256",
							"name": "_amount",
							"type": "uint256"
						}
					],
					"name": "withdrawCreatorTokens",
					"outputs": [],
					"stateMutability": "nonpayable",
					"type": "function"
				},
				{
					"inputs": [
						{
							"internalType": "uint256",
							"name": "_amount",
							"type": "uint256"
						}
					],
					"name": "withdrawExcessTokens",
					"outputs": [],
					"stateMutability": "nonpayable",
					"type": "function"
				},
				{
					"stateMutability": "payable",
					"type": "receive"
				}
			],
			"devdoc": {
				"errors": {
					"OwnableInvalidOwner(address)": [
						{
							"details": "The owner is not a valid owner account. (eg. `address(0)`)"
						}
					],
					"OwnableUnauthorizedAccount(address)": [
						{
							"details": "The caller account is not authorized to perform an operation."
						}
					]
				},
				"events": {
					"Paused(address)": {
						"details": "Emitted when the pause is triggered by `account`."
					},
					"Unpaused(address)": {
						"details": "Emitted when the pause is lifted by `account`."
					}
				},
				"kind": "dev",
				"methods": {
					"owner()": {
						"details": "Returns the address of the current owner."
					},
					"paused()": {
						"details": "Returns true if the contract is paused, and false otherwise."
					},
					"renounceOwnership()": {
						"details": "Leaves the contract without owner. It will not be possible to call `onlyOwner` functions. Can only be called by the current owner. NOTE: Renouncing ownership will leave the contract without an owner, thereby disabling any functionality that is only available to the owner."
					},
					"transferOwnership(address)": {
						"details": "Transfers ownership of the contract to a new account (`newOwner`). Can only be called by the current owner."
					}
				},
				"version": 1
			},
			"evm": {
				"assembly": "    /* \"moonx/moonx.sol\":273:8256  contract DecentralLearning is Ownable, Pausable {... */\n  mstore(0x40, 0x80)\n    /* \"moonx/moonx.sol\":2137:2276  constructor(address _reputationContract) Ownable(msg.sender) {... */\n  callvalue\n  dup1\n  iszero\n  tag_1\n  jumpi\n  0x00\n  dup1\n  revert\ntag_1:\n  pop\n  mload(0x40)\n  sub(codesize, bytecodeSize)\n  dup1\n  bytecodeSize\n  dup4\n  codecopy\n  dup2\n  dup2\n  add\n  0x40\n  mstore\n  dup2\n  add\n  swap1\n  tag_2\n  swap2\n  swap1\n  tag_3\n  jump\t// in\ntag_2:\n    /* \"moonx/moonx.sol\":2186:2196  msg.sender */\n  caller\n    /* \"@openzeppelin/contracts/access/Ownable.sol\":1297:1298  0 */\n  0x00\n    /* \"@openzeppelin/contracts/access/Ownable.sol\":1273:1299  initialOwner == address(0) */\n  0xffffffffffffffffffffffffffffffffffffffff\n  and\n    /* \"@openzeppelin/contracts/access/Ownable.sol\":1273:1285  initialOwner */\n  dup2\n    /* \"@openzeppelin/contracts/access/Ownable.sol\":1273:1299  initialOwner == address(0) */\n  0xffffffffffffffffffffffffffffffffffffffff\n  and\n  sub\n    /* \"@openzeppelin/contracts/access/Ownable.sol\":1269:1364  if (initialOwner == address(0)) {... */\n  tag_8\n  jumpi\n    /* \"@openzeppelin/contracts/access/Ownable.sol\":1350:1351  0 */\n  0x00\n    /* \"@openzeppelin/contracts/access/Ownable.sol\":1322:1353  OwnableInvalidOwner(address(0)) */\n  mload(0x40)\n  0x1e4fbdf700000000000000000000000000000000000000000000000000000000\n  dup2\n  mstore\n  0x04\n  add\n  tag_9\n  swap2\n  swap1\n  tag_10\n  jump\t// in\ntag_9:\n  mload(0x40)\n  dup1\n  swap2\n  sub\n  swap1\n  revert\n    /* \"@openzeppelin/contracts/access/Ownable.sol\":1269:1364  if (initialOwner == address(0)) {... */\ntag_8:\n    /* \"@openzeppelin/contracts/access/Ownable.sol\":1373:1405  _transferOwnership(initialOwner) */\n  tag_11\n    /* \"@openzeppelin/contracts/access/Ownable.sol\":1392:1404  initialOwner */\n  dup2\n    /* \"@openzeppelin/contracts/access/Ownable.sol\":1373:1391  _transferOwnership */\n  shl(0x20, tag_12)\n    /* \"@openzeppelin/contracts/access/Ownable.sol\":1373:1405  _transferOwnership(initialOwner) */\n  0x20\n  shr\n  jump\t// in\ntag_11:\n    /* \"@openzeppelin/contracts/access/Ownable.sol\":1225:1412  constructor(address initialOwner) {... */\n  pop\n    /* \"@openzeppelin/contracts/security/Pausable.sol\":1006:1011  false */\n  0x00\n    /* \"@openzeppelin/contracts/security/Pausable.sol\":996:1003  _paused */\n  dup1\n  0x14\n    /* \"@openzeppelin/contracts/security/Pausable.sol\":996:1011  _paused = false */\n  0x0100\n  exp\n  dup2\n  sload\n  dup2\n  0xff\n  mul\n  not\n  and\n  swap1\n  dup4\n  iszero\n  iszero\n  mul\n  or\n  swap1\n  sstore\n  pop\n    /* \"moonx/moonx.sol\":2249:2268  _reputationContract */\n  dup1\n    /* \"moonx/moonx.sol\":2208:2226  reputationContract */\n  0x01\n  0x00\n    /* \"moonx/moonx.sol\":2208:2269  reputationContract = IReputationContract(_reputationContract) */\n  0x0100\n  exp\n  dup2\n  sload\n  dup2\n  0xffffffffffffffffffffffffffffffffffffffff\n  mul\n  not\n  and\n  swap1\n  dup4\n  0xffffffffffffffffffffffffffffffffffffffff\n  and\n  mul\n  or\n  swap1\n  sstore\n  pop\n    /* \"moonx/moonx.sol\":2137:2276  constructor(address _reputationContract) Ownable(msg.sender) {... */\n  pop\n    /* \"moonx/moonx.sol\":273:8256  contract DecentralLearning is Ownable, Pausable {... */\n  jump(tag_15)\n    /* \"@openzeppelin/contracts/access/Ownable.sol\":2912:3099  function _transferOwnership(address newOwner) internal virtual {... */\ntag_12:\n    /* \"@openzeppelin/contracts/access/Ownable.sol\":2985:3001  address oldOwner */\n  0x00\n    /* \"@openzeppelin/contracts/access/Ownable.sol\":3004:3010  _owner */\n  dup1\n  0x00\n  swap1\n  sload\n  swap1\n  0x0100\n  exp\n  swap1\n  div\n  0xffffffffffffffffffffffffffffffffffffffff\n  and\n    /* \"@openzeppelin/contracts/access/Ownable.sol\":2985:3010  address oldOwner = _owner */\n  swap1\n  pop\n    /* \"@openzeppelin/contracts/access/Ownable.sol\":3029:3037  newOwner */\n  dup2\n    /* \"@openzeppelin/contracts/access/Ownable.sol\":3020:3026  _owner */\n  0x00\n  dup1\n    /* \"@openzeppelin/contracts/access/Ownable.sol\":3020:3037  _owner = newOwner */\n  0x0100\n  exp\n  dup2\n  sload\n  dup2\n  0xffffffffffffffffffffffffffffffffffffffff\n  mul\n  not\n  and\n  swap1\n  dup4\n  0xffffffffffffffffffffffffffffffffffffffff\n  and\n  mul\n  or\n  swap1\n  sstore\n  pop\n    /* \"@openzeppelin/contracts/access/Ownable.sol\":3083:3091  newOwner */\n  dup2\n    /* \"@openzeppelin/contracts/access/Ownable.sol\":3052:3092  OwnershipTransferred(oldOwner, newOwner) */\n  0xffffffffffffffffffffffffffffffffffffffff\n  and\n    /* \"@openzeppelin/contracts/access/Ownable.sol\":3073:3081  oldOwner */\n  dup2\n    /* \"@openzeppelin/contracts/access/Ownable.sol\":3052:3092  OwnershipTransferred(oldOwner, newOwner) */\n  0xffffffffffffffffffffffffffffffffffffffff\n  and\n  0x8be0079c531659141344cd1fd0a4f28419497f9722a3daafe3b4186f6b6457e0\n  mload(0x40)\n  mload(0x40)\n  dup1\n  swap2\n  sub\n  swap1\n  log3\n    /* \"@openzeppelin/contracts/access/Ownable.sol\":2975:3099  {... */\n  pop\n    /* \"@openzeppelin/contracts/access/Ownable.sol\":2912:3099  function _transferOwnership(address newOwner) internal virtual {... */\n  pop\n  jump\t// out\n    /* \"#utility.yul\":88:205   */\ntag_18:\n    /* \"#utility.yul\":197:198   */\n  0x00\n    /* \"#utility.yul\":194:195   */\n  dup1\n    /* \"#utility.yul\":187:199   */\n  revert\n    /* \"#utility.yul\":334:460   */\ntag_20:\n    /* \"#utility.yul\":371:378   */\n  0x00\n    /* \"#utility.yul\":411:453   */\n  0xffffffffffffffffffffffffffffffffffffffff\n    /* \"#utility.yul\":404:409   */\n  dup3\n    /* \"#utility.yul\":400:454   */\n  and\n    /* \"#utility.yul\":389:454   */\n  swap1\n  pop\n    /* \"#utility.yul\":334:460   */\n  swap2\n  swap1\n  pop\n  jump\t// out\n    /* \"#utility.yul\":466:562   */\ntag_21:\n    /* \"#utility.yul\":503:510   */\n  0x00\n    /* \"#utility.yul\":532:556   */\n  tag_31\n    /* \"#utility.yul\":550:555   */\n  dup3\n    /* \"#utility.yul\":532:556   */\n  tag_20\n  jump\t// in\ntag_31:\n    /* \"#utility.yul\":521:556   */\n  swap1\n  pop\n    /* \"#utility.yul\":466:562   */\n  swap2\n  swap1\n  pop\n  jump\t// out\n    /* \"#utility.yul\":568:690   */\ntag_22:\n    /* \"#utility.yul\":641:665   */\n  tag_33\n    /* \"#utility.yul\":659:664   */\n  dup2\n    /* \"#utility.yul\":641:665   */\n  tag_21\n  jump\t// in\ntag_33:\n    /* \"#utility.yul\":634:639   */\n  dup2\n    /* \"#utility.yul\":631:666   */\n  eq\n    /* \"#utility.yul\":621:684   */\n  tag_34\n  jumpi\n    /* \"#utility.yul\":680:681   */\n  0x00\n    /* \"#utility.yul\":677:678   */\n  dup1\n    /* \"#utility.yul\":670:682   */\n  revert\n    /* \"#utility.yul\":621:684   */\ntag_34:\n    /* \"#utility.yul\":568:690   */\n  pop\n  jump\t// out\n    /* \"#utility.yul\":696:839   */\ntag_23:\n    /* \"#utility.yul\":753:758   */\n  0x00\n    /* \"#utility.yul\":784:790   */\n  dup2\n    /* \"#utility.yul\":778:791   */\n  mload\n    /* \"#utility.yul\":769:791   */\n  swap1\n  pop\n    /* \"#utility.yul\":800:833   */\n  tag_36\n    /* \"#utility.yul\":827:832   */\n  dup2\n    /* \"#utility.yul\":800:833   */\n  tag_22\n  jump\t// in\ntag_36:\n    /* \"#utility.yul\":696:839   */\n  swap3\n  swap2\n  pop\n  pop\n  jump\t// out\n    /* \"#utility.yul\":845:1196   */\ntag_3:\n    /* \"#utility.yul\":915:921   */\n  0x00\n    /* \"#utility.yul\":964:966   */\n  0x20\n    /* \"#utility.yul\":952:961   */\n  dup3\n    /* \"#utility.yul\":943:950   */\n  dup5\n    /* \"#utility.yul\":939:962   */\n  sub\n    /* \"#utility.yul\":935:967   */\n  slt\n    /* \"#utility.yul\":932:1051   */\n  iszero\n  tag_38\n  jumpi\n    /* \"#utility.yul\":970:1049   */\n  tag_39\n  tag_18\n  jump\t// in\ntag_39:\n    /* \"#utility.yul\":932:1051   */\ntag_38:\n    /* \"#utility.yul\":1090:1091   */\n  0x00\n    /* \"#utility.yul\":1115:1179   */\n  tag_40\n    /* \"#utility.yul\":1171:1178   */\n  dup5\n    /* \"#utility.yul\":1162:1168   */\n  dup3\n    /* \"#utility.yul\":1151:1160   */\n  dup6\n    /* \"#utility.yul\":1147:1169   */\n  add\n    /* \"#utility.yul\":1115:1179   */\n  tag_23\n  jump\t// in\ntag_40:\n    /* \"#utility.yul\":1105:1179   */\n  swap2\n  pop\n    /* \"#utility.yul\":1061:1189   */\n  pop\n    /* \"#utility.yul\":845:1196   */\n  swap3\n  swap2\n  pop\n  pop\n  jump\t// out\n    /* \"#utility.yul\":1202:1320   */\ntag_24:\n    /* \"#utility.yul\":1289:1313   */\n  tag_42\n    /* \"#utility.yul\":1307:1312   */\n  dup2\n    /* \"#utility.yul\":1289:1313   */\n  tag_21\n  jump\t// in\ntag_42:\n    /* \"#utility.yul\":1284:1287   */\n  dup3\n    /* \"#utility.yul\":1277:1314   */\n  mstore\n    /* \"#utility.yul\":1202:1320   */\n  pop\n  pop\n  jump\t// out\n    /* \"#utility.yul\":1326:1548   */\ntag_10:\n    /* \"#utility.yul\":1419:1423   */\n  0x00\n    /* \"#utility.yul\":1457:1459   */\n  0x20\n    /* \"#utility.yul\":1446:1455   */\n  dup3\n    /* \"#utility.yul\":1442:1460   */\n  add\n    /* \"#utility.yul\":1434:1460   */\n  swap1\n  pop\n    /* \"#utility.yul\":1470:1541   */\n  tag_44\n    /* \"#utility.yul\":1538:1539   */\n  0x00\n    /* \"#utility.yul\":1527:1536   */\n  dup4\n    /* \"#utility.yul\":1523:1540   */\n  add\n    /* \"#utility.yul\":1514:1520   */\n  dup5\n    /* \"#utility.yul\":1470:1541   */\n  tag_24\n  jump\t// in\ntag_44:\n    /* \"#utility.yul\":1326:1548   */\n  swap3\n  swap2\n  pop\n  pop\n  jump\t// out\n    /* \"moonx/moonx.sol\":273:8256  contract DecentralLearning is Ownable, Pausable {... */\ntag_15:\n  dataSize(sub_0)\n  dup1\n  dataOffset(sub_0)\n  0x00\n  codecopy\n  0x00\n  return\nstop\n\nsub_0: assembly {\n        /* \"moonx/moonx.sol\":273:8256  contract DecentralLearning is Ownable, Pausable {... */\n      mstore(0x40, 0x80)\n      jumpi(tag_1, lt(calldatasize, 0x04))\n      shr(0xe0, calldataload(0x00))\n      dup1\n      0x8da5cb5b\n      gt\n      tag_28\n      jumpi\n      dup1\n      0xb0aaefd6\n      gt\n      tag_29\n      jumpi\n      dup1\n      0xd69c575b\n      gt\n      tag_30\n      jumpi\n      dup1\n      0xd69c575b\n      eq\n      tag_24\n      jumpi\n      dup1\n      0xe111f6b4\n      eq\n      tag_25\n      jumpi\n      dup1\n      0xf2fde38b\n      eq\n      tag_26\n      jumpi\n      dup1\n      0xfbf1aded\n      eq\n      tag_27\n      jumpi\n      jump(tag_2)\n    tag_30:\n      dup1\n      0xb0aaefd6\n      eq\n      tag_21\n      jumpi\n      dup1\n      0xba2f0362\n      eq\n      tag_22\n      jumpi\n      dup1\n      0xcf90b3be\n      eq\n      tag_23\n      jumpi\n      jump(tag_2)\n    tag_29:\n      dup1\n      0x8da5cb5b\n      eq\n      tag_15\n      jumpi\n      dup1\n      0x905baa61\n      eq\n      tag_16\n      jumpi\n      dup1\n      0x96f979d2\n      eq\n      tag_17\n      jumpi\n      dup1\n      0x996b5d8e\n      eq\n      tag_18\n      jumpi\n      dup1\n      0xa4e1f033\n      eq\n      tag_19\n      jumpi\n      dup1\n      0xae24f005\n      eq\n      tag_20\n      jumpi\n      jump(tag_2)\n    tag_28:\n      dup1\n      0x66055159\n      gt\n      tag_31\n      jumpi\n      dup1\n      0x66055159\n      eq\n      tag_9\n      jumpi\n      dup1\n      0x715018a6\n      eq\n      tag_10\n      jumpi\n      dup1\n      0x75284998\n      eq\n      tag_11\n      jumpi\n      dup1\n      0x8456cb59\n      eq\n      tag_12\n      jumpi\n      dup1\n      0x87bc1425\n      eq\n      tag_13\n      jumpi\n      dup1\n      0x8a38ab2c\n      eq\n      tag_14\n      jumpi\n      jump(tag_2)\n    tag_31:\n      dup1\n      0x03b1965b\n      eq\n      tag_3\n      jumpi\n      dup1\n      0x07f910f8\n      eq\n      tag_4\n      jumpi\n      dup1\n      0x3f4ba83a\n      eq\n      tag_5\n      jumpi\n      dup1\n      0x5c975abb\n      eq\n      tag_6\n      jumpi\n      dup1\n      0x5cb45cb5\n      eq\n      tag_7\n      jumpi\n      dup1\n      0x5e52da27\n      eq\n      tag_8\n      jumpi\n      jump(tag_2)\n    tag_1:\n      jumpi(tag_2, calldatasize)\n      stop\n    tag_2:\n      0x00\n      dup1\n      revert\n        /* \"moonx/moonx.sol\":7067:7629  function withdrawCreatorTokens(uint256 _courseId, uint256 _amount) external whenNotPaused {... */\n    tag_3:\n      callvalue\n      dup1\n      iszero\n      tag_34\n      jumpi\n      0x00\n      dup1\n      revert\n    tag_34:\n      pop\n      tag_35\n      0x04\n      dup1\n      calldatasize\n      sub\n      dup2\n      add\n      swap1\n      tag_36\n      swap2\n      swap1\n      tag_37\n      jump\t// in\n    tag_36:\n      tag_38\n      jump\t// in\n    tag_35:\n      stop\n        /* \"moonx/moonx.sol\":1294:1363  mapping(address => mapping(uint256 => Enrollment)) public enrollments */\n    tag_4:\n      callvalue\n      dup1\n      iszero\n      tag_39\n      jumpi\n      0x00\n      dup1\n      revert\n    tag_39:\n      pop\n      tag_40\n      0x04\n      dup1\n      calldatasize\n      sub\n      dup2\n      add\n      swap1\n      tag_41\n      swap2\n      swap1\n      tag_42\n      jump\t// in\n    tag_41:\n      tag_43\n      jump\t// in\n    tag_40:\n      mload(0x40)\n      tag_44\n      swap5\n      swap4\n      swap3\n      swap2\n      swap1\n      tag_45\n      jump\t// in\n    tag_44:\n      mload(0x40)\n      dup1\n      swap2\n      sub\n      swap1\n      return\n        /* \"moonx/moonx.sol\":7702:7767  function unpause() external onlyOwner {... */\n    tag_5:\n      callvalue\n      dup1\n      iszero\n      tag_46\n      jumpi\n      0x00\n      dup1\n      revert\n    tag_46:\n      pop\n      tag_47\n      tag_48\n      jump\t// in\n    tag_47:\n      stop\n        /* \"@openzeppelin/contracts/security/Pausable.sol\":1615:1699  function paused() public view virtual returns (bool) {... */\n    tag_6:\n      callvalue\n      dup1\n      iszero\n      tag_49\n      jumpi\n      0x00\n      dup1\n      revert\n    tag_49:\n      pop\n      tag_50\n      tag_51\n      jump\t// in\n    tag_50:\n      mload(0x40)\n      tag_52\n      swap2\n      swap1\n      tag_53\n      jump\t// in\n    tag_52:\n      mload(0x40)\n      dup1\n      swap2\n      sub\n      swap1\n      return\n        /* \"moonx/moonx.sol\":4777:5774  function attemptQuiz(uint256 _courseId, string[] memory _answers) external {... */\n    tag_7:\n      callvalue\n      dup1\n      iszero\n      tag_54\n      jumpi\n      0x00\n      dup1\n      revert\n    tag_54:\n      pop\n      tag_55\n      0x04\n      dup1\n      calldatasize\n      sub\n      dup2\n      add\n      swap1\n      tag_56\n      swap2\n      swap1\n      tag_57\n      jump\t// in\n    tag_56:\n      tag_58\n      jump\t// in\n    tag_55:\n      stop\n        /* \"moonx/moonx.sol\":2892:3393  function enrollInCourse(uint256 _courseId) external whenNotPaused {... */\n    tag_8:\n      callvalue\n      dup1\n      iszero\n      tag_59\n      jumpi\n      0x00\n      dup1\n      revert\n    tag_59:\n      pop\n      tag_60\n      0x04\n      dup1\n      calldatasize\n      sub\n      dup2\n      add\n      swap1\n      tag_61\n      swap2\n      swap1\n      tag_62\n      jump\t// in\n    tag_61:\n      tag_63\n      jump\t// in\n    tag_60:\n      stop\n        /* \"moonx/moonx.sol\":1468:1494  uint256 public courseCount */\n    tag_9:\n      callvalue\n      dup1\n      iszero\n      tag_64\n      jumpi\n      0x00\n      dup1\n      revert\n    tag_64:\n      pop\n      tag_65\n      tag_66\n      jump\t// in\n    tag_65:\n      mload(0x40)\n      tag_67\n      swap2\n      swap1\n      tag_68\n      jump\t// in\n    tag_67:\n      mload(0x40)\n      dup1\n      swap2\n      sub\n      swap1\n      return\n        /* \"@openzeppelin/contracts/access/Ownable.sol\":2293:2394  function renounceOwnership() public virtual onlyOwner {... */\n    tag_10:\n      callvalue\n      dup1\n      iszero\n      tag_69\n      jumpi\n      0x00\n      dup1\n      revert\n    tag_69:\n      pop\n      tag_70\n      tag_71\n      jump\t// in\n    tag_70:\n      stop\n        /* \"moonx/moonx.sol\":2660:2886  function approveCourse(uint256 _courseId) external onlyOwner {... */\n    tag_11:\n      callvalue\n      dup1\n      iszero\n      tag_72\n      jumpi\n      0x00\n      dup1\n      revert\n    tag_72:\n      pop\n      tag_73\n      0x04\n      dup1\n      calldatasize\n      sub\n      dup2\n      add\n      swap1\n      tag_74\n      swap2\n      swap1\n      tag_62\n      jump\t// in\n    tag_74:\n      tag_75\n      jump\t// in\n    tag_73:\n      stop\n        /* \"moonx/moonx.sol\":7635:7696  function pause() external onlyOwner {... */\n    tag_12:\n      callvalue\n      dup1\n      iszero\n      tag_76\n      jumpi\n      0x00\n      dup1\n      revert\n    tag_76:\n      pop\n      tag_77\n      tag_78\n      jump\t// in\n    tag_77:\n      stop\n        /* \"moonx/moonx.sol\":327:372  IReputationContract public reputationContract */\n    tag_13:\n      callvalue\n      dup1\n      iszero\n      tag_79\n      jumpi\n      0x00\n      dup1\n      revert\n    tag_79:\n      pop\n      tag_80\n      tag_81\n      jump\t// in\n    tag_80:\n      mload(0x40)\n      tag_82\n      swap2\n      swap1\n      tag_83\n      jump\t// in\n    tag_82:\n      mload(0x40)\n      dup1\n      swap2\n      sub\n      swap1\n      return\n        /* \"moonx/moonx.sol\":2282:2654  function createCourse(string memory _metadataURI) external whenNotPaused {... */\n    tag_14:\n      callvalue\n      dup1\n      iszero\n      tag_84\n      jumpi\n      0x00\n      dup1\n      revert\n    tag_84:\n      pop\n      tag_85\n      0x04\n      dup1\n      calldatasize\n      sub\n      dup2\n      add\n      swap1\n      tag_86\n      swap2\n      swap1\n      tag_87\n      jump\t// in\n    tag_86:\n      tag_88\n      jump\t// in\n    tag_85:\n      stop\n        /* \"@openzeppelin/contracts/access/Ownable.sol\":1638:1723  function owner() public view virtual returns (address) {... */\n    tag_15:\n      callvalue\n      dup1\n      iszero\n      tag_89\n      jumpi\n      0x00\n      dup1\n      revert\n    tag_89:\n      pop\n      tag_90\n      tag_91\n      jump\t// in\n    tag_90:\n      mload(0x40)\n      tag_92\n      swap2\n      swap1\n      tag_93\n      jump\t// in\n    tag_92:\n      mload(0x40)\n      dup1\n      swap2\n      sub\n      swap1\n      return\n        /* \"moonx/moonx.sol\":7773:7939  function updateReputationContract(address _newReputationContract) external onlyOwner {... */\n    tag_16:\n      callvalue\n      dup1\n      iszero\n      tag_94\n      jumpi\n      0x00\n      dup1\n      revert\n    tag_94:\n      pop\n      tag_95\n      0x04\n      dup1\n      calldatasize\n      sub\n      dup2\n      add\n      swap1\n      tag_96\n      swap2\n      swap1\n      tag_97\n      jump\t// in\n    tag_96:\n      tag_98\n      jump\t// in\n    tag_95:\n      stop\n        /* \"moonx/moonx.sol\":1247:1288  mapping(uint256 => Course) public courses */\n    tag_17:\n      callvalue\n      dup1\n      iszero\n      tag_99\n      jumpi\n      0x00\n      dup1\n      revert\n    tag_99:\n      pop\n      tag_100\n      0x04\n      dup1\n      calldatasize\n      sub\n      dup2\n      add\n      swap1\n      tag_101\n      swap2\n      swap1\n      tag_62\n      jump\t// in\n    tag_101:\n      tag_102\n      jump\t// in\n    tag_100:\n      mload(0x40)\n      tag_103\n      swap7\n      swap6\n      swap5\n      swap4\n      swap3\n      swap2\n      swap1\n      tag_104\n      jump\t// in\n    tag_103:\n      mload(0x40)\n      dup1\n      swap2\n      sub\n      swap1\n      return\n        /* \"moonx/moonx.sol\":5780:6390  function claimStudentReward(uint256 _courseId) external whenNotPaused {... */\n    tag_18:\n      callvalue\n      dup1\n      iszero\n      tag_105\n      jumpi\n      0x00\n      dup1\n      revert\n    tag_105:\n      pop\n      tag_106\n      0x04\n      dup1\n      calldatasize\n      sub\n      dup2\n      add\n      swap1\n      tag_107\n      swap2\n      swap1\n      tag_62\n      jump\t// in\n    tag_107:\n      tag_108\n      jump\t// in\n    tag_106:\n      stop\n        /* \"moonx/moonx.sol\":429:472  uint256 public constant POST_THRESHOLD = 50 */\n    tag_19:\n      callvalue\n      dup1\n      iszero\n      tag_109\n      jumpi\n      0x00\n      dup1\n      revert\n    tag_109:\n      pop\n      tag_110\n      tag_111\n      jump\t// in\n    tag_110:\n      mload(0x40)\n      tag_112\n      swap2\n      swap1\n      tag_68\n      jump\t// in\n    tag_112:\n      mload(0x40)\n      dup1\n      swap2\n      sub\n      swap1\n      return\n        /* \"moonx/moonx.sol\":379:423  uint256 public constant ENROLL_THRESHOLD = 5 */\n    tag_20:\n      callvalue\n      dup1\n      iszero\n      tag_113\n      jumpi\n      0x00\n      dup1\n      revert\n    tag_113:\n      pop\n      tag_114\n      tag_115\n      jump\t// in\n    tag_114:\n      mload(0x40)\n      tag_116\n      swap2\n      swap1\n      tag_68\n      jump\t// in\n    tag_116:\n      mload(0x40)\n      dup1\n      swap2\n      sub\n      swap1\n      return\n        /* \"moonx/moonx.sol\":1369:1416  mapping(uint256 => Quiz[]) public courseQuizzes */\n    tag_21:\n      callvalue\n      dup1\n      iszero\n      tag_117\n      jumpi\n      0x00\n      dup1\n      revert\n    tag_117:\n      pop\n      tag_118\n      0x04\n      dup1\n      calldatasize\n      sub\n      dup2\n      add\n      swap1\n      tag_119\n      swap2\n      swap1\n      tag_37\n      jump\t// in\n    tag_119:\n      tag_120\n      jump\t// in\n    tag_118:\n      mload(0x40)\n      tag_121\n      swap8\n      swap7\n      swap6\n      swap5\n      swap4\n      swap3\n      swap2\n      swap1\n      tag_122\n      jump\t// in\n    tag_121:\n      mload(0x40)\n      dup1\n      swap2\n      sub\n      swap1\n      return\n        /* \"moonx/moonx.sol\":6396:7061  function claimCreatorReward(uint256 _courseId) external whenNotPaused {... */\n    tag_22:\n      callvalue\n      dup1\n      iszero\n      tag_123\n      jumpi\n      0x00\n      dup1\n      revert\n    tag_123:\n      pop\n      tag_124\n      0x04\n      dup1\n      calldatasize\n      sub\n      dup2\n      add\n      swap1\n      tag_125\n      swap2\n      swap1\n      tag_62\n      jump\t// in\n    tag_125:\n      tag_126\n      jump\t// in\n    tag_124:\n      stop\n        /* \"moonx/moonx.sol\":558:613  uint256 public constant CREATOR_REWARD_AMOUNT = 1 ether */\n    tag_23:\n      callvalue\n      dup1\n      iszero\n      tag_127\n      jumpi\n      0x00\n      dup1\n      revert\n    tag_127:\n      pop\n      tag_128\n      tag_129\n      jump\t// in\n    tag_128:\n      mload(0x40)\n      tag_130\n      swap2\n      swap1\n      tag_68\n      jump\t// in\n    tag_130:\n      mload(0x40)\n      dup1\n      swap2\n      sub\n      swap1\n      return\n        /* \"moonx/moonx.sol\":3399:4771  function createQuiz(... */\n    tag_24:\n      callvalue\n      dup1\n      iszero\n      tag_131\n      jumpi\n      0x00\n      dup1\n      revert\n    tag_131:\n      pop\n      tag_132\n      0x04\n      dup1\n      calldatasize\n      sub\n      dup2\n      add\n      swap1\n      tag_133\n      swap2\n      swap1\n      tag_134\n      jump\t// in\n    tag_133:\n      tag_135\n      jump\t// in\n    tag_132:\n      stop\n        /* \"moonx/moonx.sol\":7945:8143  function withdrawExcessTokens(uint256 _amount) external onlyOwner {... */\n    tag_25:\n      callvalue\n      dup1\n      iszero\n      tag_136\n      jumpi\n      0x00\n      dup1\n      revert\n    tag_136:\n      pop\n      tag_137\n      0x04\n      dup1\n      calldatasize\n      sub\n      dup2\n      add\n      swap1\n      tag_138\n      swap2\n      swap1\n      tag_62\n      jump\t// in\n    tag_138:\n      tag_139\n      jump\t// in\n    tag_137:\n      stop\n        /* \"@openzeppelin/contracts/access/Ownable.sol\":2543:2758  function transferOwnership(address newOwner) public virtual onlyOwner {... */\n    tag_26:\n      callvalue\n      dup1\n      iszero\n      tag_140\n      jumpi\n      0x00\n      dup1\n      revert\n    tag_140:\n      pop\n      tag_141\n      0x04\n      dup1\n      calldatasize\n      sub\n      dup2\n      add\n      swap1\n      tag_142\n      swap2\n      swap1\n      tag_97\n      jump\t// in\n    tag_142:\n      tag_143\n      jump\t// in\n    tag_141:\n      stop\n        /* \"moonx/moonx.sol\":478:534  uint256 public constant STUDENT_REWARD_AMOUNT = 10 ether */\n    tag_27:\n      callvalue\n      dup1\n      iszero\n      tag_144\n      jumpi\n      0x00\n      dup1\n      revert\n    tag_144:\n      pop\n      tag_145\n      tag_146\n      jump\t// in\n    tag_145:\n      mload(0x40)\n      tag_147\n      swap2\n      swap1\n      tag_68\n      jump\t// in\n    tag_147:\n      mload(0x40)\n      dup1\n      swap2\n      sub\n      swap1\n      return\n        /* \"moonx/moonx.sol\":7067:7629  function withdrawCreatorTokens(uint256 _courseId, uint256 _amount) external whenNotPaused {... */\n    tag_38:\n        /* \"@openzeppelin/contracts/security/Pausable.sol\":1239:1258  _requireNotPaused() */\n      tag_149\n        /* \"@openzeppelin/contracts/security/Pausable.sol\":1239:1256  _requireNotPaused */\n      tag_150\n        /* \"@openzeppelin/contracts/security/Pausable.sol\":1239:1258  _requireNotPaused() */\n      jump\t// in\n    tag_149:\n        /* \"moonx/moonx.sol\":7167:7188  Course storage course */\n      0x00\n        /* \"moonx/moonx.sol\":7191:7198  courses */\n      0x02\n        /* \"moonx/moonx.sol\":7191:7209  courses[_courseId] */\n      0x00\n        /* \"moonx/moonx.sol\":7199:7208  _courseId */\n      dup5\n        /* \"moonx/moonx.sol\":7191:7209  courses[_courseId] */\n      dup2\n      mstore\n      0x20\n      add\n      swap1\n      dup2\n      mstore\n      0x20\n      add\n      0x00\n      keccak256\n        /* \"moonx/moonx.sol\":7167:7209  Course storage course = courses[_courseId] */\n      swap1\n      pop\n        /* \"moonx/moonx.sol\":7241:7247  course */\n      dup1\n        /* \"moonx/moonx.sol\":7241:7255  course.creator */\n      0x00\n      add\n      0x00\n      swap1\n      sload\n      swap1\n      0x0100\n      exp\n      swap1\n      div\n      0xffffffffffffffffffffffffffffffffffffffff\n      and\n        /* \"moonx/moonx.sol\":7227:7255  msg.sender == course.creator */\n      0xffffffffffffffffffffffffffffffffffffffff\n      and\n        /* \"moonx/moonx.sol\":7227:7237  msg.sender */\n      caller\n        /* \"moonx/moonx.sol\":7227:7255  msg.sender == course.creator */\n      0xffffffffffffffffffffffffffffffffffffffff\n      and\n      eq\n        /* \"moonx/moonx.sol\":7219:7299  require(msg.sender == course.creator, \"Only course creator can withdraw tokens\") */\n      tag_152\n      jumpi\n      mload(0x40)\n      0x08c379a000000000000000000000000000000000000000000000000000000000\n      dup2\n      mstore\n      0x04\n      add\n      tag_153\n      swap1\n      tag_154\n      jump\t// in\n    tag_153:\n      mload(0x40)\n      dup1\n      swap2\n      sub\n      swap1\n      revert\n    tag_152:\n        /* \"moonx/moonx.sol\":7341:7348  _amount */\n      dup2\n        /* \"moonx/moonx.sol\":7317:7323  course */\n      dup2\n        /* \"moonx/moonx.sol\":7317:7337  course.totalRewarded */\n      0x04\n      add\n      sload\n        /* \"moonx/moonx.sol\":7317:7348  course.totalRewarded >= _amount */\n      lt\n      iszero\n        /* \"moonx/moonx.sol\":7309:7393  require(course.totalRewarded >= _amount, \"Insufficient rewarded tokens to withdraw\") */\n      tag_155\n      jumpi\n      mload(0x40)\n      0x08c379a000000000000000000000000000000000000000000000000000000000\n      dup2\n      mstore\n      0x04\n      add\n      tag_156\n      swap1\n      tag_157\n      jump\t// in\n    tag_156:\n      mload(0x40)\n      dup1\n      swap2\n      sub\n      swap1\n      revert\n    tag_155:\n        /* \"moonx/moonx.sol\":7428:7435  _amount */\n      dup2\n        /* \"moonx/moonx.sol\":7404:7410  course */\n      dup2\n        /* \"moonx/moonx.sol\":7404:7424  course.totalRewarded */\n      0x04\n      add\n      0x00\n        /* \"moonx/moonx.sol\":7404:7435  course.totalRewarded -= _amount */\n      dup3\n      dup3\n      sload\n      tag_158\n      swap2\n      swap1\n      tag_159\n      jump\t// in\n    tag_158:\n      swap3\n      pop\n      pop\n      dup2\n      swap1\n      sstore\n      pop\n        /* \"moonx/moonx.sol\":7446:7458  bool success */\n      0x00\n        /* \"moonx/moonx.sol\":7472:7482  msg.sender */\n      caller\n        /* \"moonx/moonx.sol\":7464:7488  payable(msg.sender).call */\n      0xffffffffffffffffffffffffffffffffffffffff\n      and\n        /* \"moonx/moonx.sol\":7496:7503  _amount */\n      dup4\n        /* \"moonx/moonx.sol\":7464:7508  payable(msg.sender).call{value: _amount}(\"\") */\n      mload(0x40)\n      tag_160\n      swap1\n      tag_161\n      jump\t// in\n    tag_160:\n      0x00\n      mload(0x40)\n      dup1\n      dup4\n      sub\n      dup2\n      dup6\n      dup8\n      gas\n      call\n      swap3\n      pop\n      pop\n      pop\n      returndatasize\n      dup1\n      0x00\n      dup2\n      eq\n      tag_164\n      jumpi\n      mload(0x40)\n      swap2\n      pop\n      and(add(returndatasize, 0x3f), not(0x1f))\n      dup3\n      add\n      0x40\n      mstore\n      returndatasize\n      dup3\n      mstore\n      returndatasize\n      0x00\n      0x20\n      dup5\n      add\n      returndatacopy\n      jump(tag_163)\n    tag_164:\n      0x60\n      swap2\n      pop\n    tag_163:\n      pop\n        /* \"moonx/moonx.sol\":7445:7508  (bool success, ) = payable(msg.sender).call{value: _amount}(\"\") */\n      pop\n      swap1\n      pop\n        /* \"moonx/moonx.sol\":7526:7533  success */\n      dup1\n        /* \"moonx/moonx.sol\":7518:7557  require(success, \"Failed to send MAND\") */\n      tag_165\n      jumpi\n      mload(0x40)\n      0x08c379a000000000000000000000000000000000000000000000000000000000\n      dup2\n      mstore\n      0x04\n      add\n      tag_166\n      swap1\n      tag_167\n      jump\t// in\n    tag_166:\n      mload(0x40)\n      dup1\n      swap2\n      sub\n      swap1\n      revert\n    tag_165:\n        /* \"moonx/moonx.sol\":7602:7612  msg.sender */\n      caller\n        /* \"moonx/moonx.sol\":7573:7622  CreatorWithdrawal(_courseId, msg.sender, _amount) */\n      0xffffffffffffffffffffffffffffffffffffffff\n      and\n        /* \"moonx/moonx.sol\":7591:7600  _courseId */\n      dup5\n        /* \"moonx/moonx.sol\":7573:7622  CreatorWithdrawal(_courseId, msg.sender, _amount) */\n      0xac49faceac63eafdea924340376e875517fd2e5b7e9b63c9bbbc464e166233f6\n        /* \"moonx/moonx.sol\":7614:7621  _amount */\n      dup6\n        /* \"moonx/moonx.sol\":7573:7622  CreatorWithdrawal(_courseId, msg.sender, _amount) */\n      mload(0x40)\n      tag_168\n      swap2\n      swap1\n      tag_68\n      jump\t// in\n    tag_168:\n      mload(0x40)\n      dup1\n      swap2\n      sub\n      swap1\n      log3\n        /* \"moonx/moonx.sol\":7157:7629  {... */\n      pop\n      pop\n        /* \"moonx/moonx.sol\":7067:7629  function withdrawCreatorTokens(uint256 _courseId, uint256 _amount) external whenNotPaused {... */\n      pop\n      pop\n      jump\t// out\n        /* \"moonx/moonx.sol\":1294:1363  mapping(address => mapping(uint256 => Enrollment)) public enrollments */\n    tag_43:\n      mstore(0x20, 0x03)\n      dup2\n      0x00\n      mstore\n      mstore(0x20, keccak256(0x00, 0x40))\n      dup1\n      0x00\n      mstore\n      keccak256(0x00, 0x40)\n      0x00\n      swap2\n      pop\n      swap2\n      pop\n      pop\n      dup1\n      0x00\n      add\n      0x00\n      swap1\n      sload\n      swap1\n      0x0100\n      exp\n      swap1\n      div\n      0xff\n      and\n      swap1\n      dup1\n      0x00\n      add\n      0x01\n      swap1\n      sload\n      swap1\n      0x0100\n      exp\n      swap1\n      div\n      0xff\n      and\n      swap1\n      dup1\n      0x00\n      add\n      0x02\n      swap1\n      sload\n      swap1\n      0x0100\n      exp\n      swap1\n      div\n      0xff\n      and\n      swap1\n      dup1\n      0x00\n      add\n      0x03\n      swap1\n      sload\n      swap1\n      0x0100\n      exp\n      swap1\n      div\n      0xff\n      and\n      swap1\n      pop\n      dup5\n      jump\t// out\n        /* \"moonx/moonx.sol\":7702:7767  function unpause() external onlyOwner {... */\n    tag_48:\n        /* \"@openzeppelin/contracts/access/Ownable.sol\":1531:1544  _checkOwner() */\n      tag_170\n        /* \"@openzeppelin/contracts/access/Ownable.sol\":1531:1542  _checkOwner */\n      tag_171\n        /* \"@openzeppelin/contracts/access/Ownable.sol\":1531:1544  _checkOwner() */\n      jump\t// in\n    tag_170:\n        /* \"moonx/moonx.sol\":7750:7760  _unpause() */\n      tag_173\n        /* \"moonx/moonx.sol\":7750:7758  _unpause */\n      tag_174\n        /* \"moonx/moonx.sol\":7750:7760  _unpause() */\n      jump\t// in\n    tag_173:\n        /* \"moonx/moonx.sol\":7702:7767  function unpause() external onlyOwner {... */\n      jump\t// out\n        /* \"@openzeppelin/contracts/security/Pausable.sol\":1615:1699  function paused() public view virtual returns (bool) {... */\n    tag_51:\n        /* \"@openzeppelin/contracts/security/Pausable.sol\":1662:1666  bool */\n      0x00\n        /* \"@openzeppelin/contracts/security/Pausable.sol\":1685:1692  _paused */\n      dup1\n      0x14\n      swap1\n      sload\n      swap1\n      0x0100\n      exp\n      swap1\n      div\n      0xff\n      and\n        /* \"@openzeppelin/contracts/security/Pausable.sol\":1678:1692  return _paused */\n      swap1\n      pop\n        /* \"@openzeppelin/contracts/security/Pausable.sol\":1615:1699  function paused() public view virtual returns (bool) {... */\n      swap1\n      jump\t// out\n        /* \"moonx/moonx.sol\":4777:5774  function attemptQuiz(uint256 _courseId, string[] memory _answers) external {... */\n    tag_58:\n        /* \"moonx/moonx.sol\":4862:4891  Enrollment storage enrollment */\n      0x00\n        /* \"moonx/moonx.sol\":4894:4905  enrollments */\n      0x03\n        /* \"moonx/moonx.sol\":4894:4917  enrollments[msg.sender] */\n      0x00\n        /* \"moonx/moonx.sol\":4906:4916  msg.sender */\n      caller\n        /* \"moonx/moonx.sol\":4894:4917  enrollments[msg.sender] */\n      0xffffffffffffffffffffffffffffffffffffffff\n      and\n      0xffffffffffffffffffffffffffffffffffffffff\n      and\n      dup2\n      mstore\n      0x20\n      add\n      swap1\n      dup2\n      mstore\n      0x20\n      add\n      0x00\n      keccak256\n        /* \"moonx/moonx.sol\":4894:4928  enrollments[msg.sender][_courseId] */\n      0x00\n        /* \"moonx/moonx.sol\":4918:4927  _courseId */\n      dup5\n        /* \"moonx/moonx.sol\":4894:4928  enrollments[msg.sender][_courseId] */\n      dup2\n      mstore\n      0x20\n      add\n      swap1\n      dup2\n      mstore\n      0x20\n      add\n      0x00\n      keccak256\n        /* \"moonx/moonx.sol\":4862:4928  Enrollment storage enrollment = enrollments[msg.sender][_courseId] */\n      swap1\n      pop\n        /* \"moonx/moonx.sol\":4946:4956  enrollment */\n      dup1\n        /* \"moonx/moonx.sol\":4946:4967  enrollment.isEnrolled */\n      0x00\n      add\n      0x00\n      swap1\n      sload\n      swap1\n      0x0100\n      exp\n      swap1\n      div\n      0xff\n      and\n        /* \"moonx/moonx.sol\":4938:5004  require(enrollment.isEnrolled, \"User not enrolled in this course\") */\n      tag_177\n      jumpi\n      mload(0x40)\n      0x08c379a000000000000000000000000000000000000000000000000000000000\n      dup2\n      mstore\n      0x04\n      add\n      tag_178\n      swap1\n      tag_179\n      jump\t// in\n    tag_178:\n      mload(0x40)\n      dup1\n      swap2\n      sub\n      swap1\n      revert\n    tag_177:\n        /* \"moonx/moonx.sol\":5048:5049  2 */\n      0x02\n        /* \"moonx/moonx.sol\":5022:5032  enrollment */\n      dup2\n        /* \"moonx/moonx.sol\":5022:5045  enrollment.attemptCount */\n      0x00\n      add\n      0x01\n      swap1\n      sload\n      swap1\n      0x0100\n      exp\n      swap1\n      div\n      0xff\n      and\n        /* \"moonx/moonx.sol\":5022:5049  enrollment.attemptCount < 2 */\n      0xff\n      and\n      lt\n        /* \"moonx/moonx.sol\":5014:5078  require(enrollment.attemptCount < 2, \"Maximum attempts reached\") */\n      tag_180\n      jumpi\n      mload(0x40)\n      0x08c379a000000000000000000000000000000000000000000000000000000000\n      dup2\n      mstore\n      0x04\n      add\n      tag_181\n      swap1\n      tag_182\n      jump\t// in\n    tag_181:\n      mload(0x40)\n      dup1\n      swap2\n      sub\n      swap1\n      revert\n    tag_180:\n        /* \"moonx/moonx.sol\":5097:5107  enrollment */\n      dup1\n        /* \"moonx/moonx.sol\":5097:5117  enrollment.hasPassed */\n      0x00\n      add\n      0x02\n      swap1\n      sload\n      swap1\n      0x0100\n      exp\n      swap1\n      div\n      0xff\n      and\n        /* \"moonx/moonx.sol\":5096:5117  !enrollment.hasPassed */\n      iszero\n        /* \"moonx/moonx.sol\":5088:5157  require(!enrollment.hasPassed, \"User has already passed this course\") */\n      tag_183\n      jumpi\n      mload(0x40)\n      0x08c379a000000000000000000000000000000000000000000000000000000000\n      dup2\n      mstore\n      0x04\n      add\n      tag_184\n      swap1\n      tag_185\n      jump\t// in\n    tag_184:\n      mload(0x40)\n      dup1\n      swap2\n      sub\n      swap1\n      revert\n    tag_183:\n        /* \"moonx/moonx.sol\":5168:5178  enrollment */\n      dup1\n        /* \"moonx/moonx.sol\":5168:5191  enrollment.attemptCount */\n      0x00\n      add\n      0x01\n        /* \"moonx/moonx.sol\":5168:5193  enrollment.attemptCount++ */\n      dup2\n      dup2\n      swap1\n      sload\n      swap1\n      0x0100\n      exp\n      swap1\n      div\n      0xff\n      and\n      dup1\n      swap3\n      swap2\n      swap1\n      tag_186\n      swap1\n      tag_187\n      jump\t// in\n    tag_186:\n      swap2\n      swap1\n      0x0100\n      exp\n      dup2\n      sload\n      dup2\n      0xff\n      mul\n      not\n      and\n      swap1\n      dup4\n      0xff\n      and\n      mul\n      or\n      swap1\n      sstore\n      pop\n      pop\n        /* \"moonx/moonx.sol\":5203:5224  Quiz[] memory quizzes */\n      0x00\n        /* \"moonx/moonx.sol\":5227:5240  courseQuizzes */\n      0x04\n        /* \"moonx/moonx.sol\":5227:5251  courseQuizzes[_courseId] */\n      0x00\n        /* \"moonx/moonx.sol\":5241:5250  _courseId */\n      dup6\n        /* \"moonx/moonx.sol\":5227:5251  courseQuizzes[_courseId] */\n      dup2\n      mstore\n      0x20\n      add\n      swap1\n      dup2\n      mstore\n      0x20\n      add\n      0x00\n      keccak256\n        /* \"moonx/moonx.sol\":5203:5251  Quiz[] memory quizzes = courseQuizzes[_courseId] */\n      dup1\n      sload\n      dup1\n      0x20\n      mul\n      0x20\n      add\n      mload(0x40)\n      swap1\n      dup2\n      add\n      0x40\n      mstore\n      dup1\n      swap3\n      swap2\n      swap1\n      dup2\n      dup2\n      mstore\n      0x20\n      add\n      0x00\n      swap1\n    tag_188:\n      dup3\n      dup3\n      lt\n      iszero\n      tag_189\n      jumpi\n      dup4\n      dup3\n      swap1\n      0x00\n      mstore\n      keccak256(0x00, 0x20)\n      swap1\n      0x07\n      mul\n      add\n      mload(0x40)\n      dup1\n      0xe0\n      add\n      0x40\n      mstore\n      swap1\n      dup2\n      0x00\n      dup3\n      add\n      sload\n      dup2\n      mstore\n      0x20\n      add\n      0x01\n      dup3\n      add\n      dup1\n      sload\n      tag_191\n      swap1\n      tag_192\n      jump\t// in\n    tag_191:\n      dup1\n      0x1f\n      add\n      0x20\n      dup1\n      swap2\n      div\n      mul\n      0x20\n      add\n      mload(0x40)\n      swap1\n      dup2\n      add\n      0x40\n      mstore\n      dup1\n      swap3\n      swap2\n      swap1\n      dup2\n      dup2\n      mstore\n      0x20\n      add\n      dup3\n      dup1\n      sload\n      tag_193\n      swap1\n      tag_192\n      jump\t// in\n    tag_193:\n      dup1\n      iszero\n      tag_194\n      jumpi\n      dup1\n      0x1f\n      lt\n      tag_195\n      jumpi\n      0x0100\n      dup1\n      dup4\n      sload\n      div\n      mul\n      dup4\n      mstore\n      swap2\n      0x20\n      add\n      swap2\n      jump(tag_194)\n    tag_195:\n      dup3\n      add\n      swap2\n      swap1\n      0x00\n      mstore\n      keccak256(0x00, 0x20)\n      swap1\n    tag_196:\n      dup2\n      sload\n      dup2\n      mstore\n      swap1\n      0x01\n      add\n      swap1\n      0x20\n      add\n      dup1\n      dup4\n      gt\n      tag_196\n      jumpi\n      dup3\n      swap1\n      sub\n      0x1f\n      and\n      dup3\n      add\n      swap2\n    tag_194:\n      pop\n      pop\n      pop\n      pop\n      pop\n      dup2\n      mstore\n      0x20\n      add\n      0x02\n      dup3\n      add\n      dup1\n      sload\n      tag_197\n      swap1\n      tag_192\n      jump\t// in\n    tag_197:\n      dup1\n      0x1f\n      add\n      0x20\n      dup1\n      swap2\n      div\n      mul\n      0x20\n      add\n      mload(0x40)\n      swap1\n      dup2\n      add\n      0x40\n      mstore\n      dup1\n      swap3\n      swap2\n      swap1\n      dup2\n      dup2\n      mstore\n      0x20\n      add\n      dup3\n      dup1\n      sload\n      tag_198\n      swap1\n      tag_192\n      jump\t// in\n    tag_198:\n      dup1\n      iszero\n      tag_199\n      jumpi\n      dup1\n      0x1f\n      lt\n      tag_200\n      jumpi\n      0x0100\n      dup1\n      dup4\n      sload\n      div\n      mul\n      dup4\n      mstore\n      swap2\n      0x20\n      add\n      swap2\n      jump(tag_199)\n    tag_200:\n      dup3\n      add\n      swap2\n      swap1\n      0x00\n      mstore\n      keccak256(0x00, 0x20)\n      swap1\n    tag_201:\n      dup2\n      sload\n      dup2\n      mstore\n      swap1\n      0x01\n      add\n      swap1\n      0x20\n      add\n      dup1\n      dup4\n      gt\n      tag_201\n      jumpi\n      dup3\n      swap1\n      sub\n      0x1f\n      and\n      dup3\n      add\n      swap2\n    tag_199:\n      pop\n      pop\n      pop\n      pop\n      pop\n      dup2\n      mstore\n      0x20\n      add\n      0x03\n      dup3\n      add\n      dup1\n      sload\n      tag_202\n      swap1\n      tag_192\n      jump\t// in\n    tag_202:\n      dup1\n      0x1f\n      add\n      0x20\n      dup1\n      swap2\n      div\n      mul\n      0x20\n      add\n      mload(0x40)\n      swap1\n      dup2\n      add\n      0x40\n      mstore\n      dup1\n      swap3\n      swap2\n      swap1\n      dup2\n      dup2\n      mstore\n      0x20\n      add\n      dup3\n      dup1\n      sload\n      tag_203\n      swap1\n      tag_192\n      jump\t// in\n    tag_203:\n      dup1\n      iszero\n      tag_204\n      jumpi\n      dup1\n      0x1f\n      lt\n      tag_205\n      jumpi\n      0x0100\n      dup1\n      dup4\n      sload\n      div\n      mul\n      dup4\n      mstore\n      swap2\n      0x20\n      add\n      swap2\n      jump(tag_204)\n    tag_205:\n      dup3\n      add\n      swap2\n      swap1\n      0x00\n      mstore\n      keccak256(0x00, 0x20)\n      swap1\n    tag_206:\n      dup2\n      sload\n      dup2\n      mstore\n      swap1\n      0x01\n      add\n      swap1\n      0x20\n      add\n      dup1\n      dup4\n      gt\n      tag_206\n      jumpi\n      dup3\n      swap1\n      sub\n      0x1f\n      and\n      dup3\n      add\n      swap2\n    tag_204:\n      pop\n      pop\n      pop\n      pop\n      pop\n      dup2\n      mstore\n      0x20\n      add\n      0x04\n      dup3\n      add\n      dup1\n      sload\n      tag_207\n      swap1\n      tag_192\n      jump\t// in\n    tag_207:\n      dup1\n      0x1f\n      add\n      0x20\n      dup1\n      swap2\n      div\n      mul\n      0x20\n      add\n      mload(0x40)\n      swap1\n      dup2\n      add\n      0x40\n      mstore\n      dup1\n      swap3\n      swap2\n      swap1\n      dup2\n      dup2\n      mstore\n      0x20\n      add\n      dup3\n      dup1\n      sload\n      tag_208\n      swap1\n      tag_192\n      jump\t// in\n    tag_208:\n      dup1\n      iszero\n      tag_209\n      jumpi\n      dup1\n      0x1f\n      lt\n      tag_210\n      jumpi\n      0x0100\n      dup1\n      dup4\n      sload\n      div\n      mul\n      dup4\n      mstore\n      swap2\n      0x20\n      add\n      swap2\n      jump(tag_209)\n    tag_210:\n      dup3\n      add\n      swap2\n      swap1\n      0x00\n      mstore\n      keccak256(0x00, 0x20)\n      swap1\n    tag_211:\n      dup2\n      sload\n      dup2\n      mstore\n      swap1\n      0x01\n      add\n      swap1\n      0x20\n      add\n      dup1\n      dup4\n      gt\n      tag_211\n      jumpi\n      dup3\n      swap1\n      sub\n      0x1f\n      and\n      dup3\n      add\n      swap2\n    tag_209:\n      pop\n      pop\n      pop\n      pop\n      pop\n      dup2\n      mstore\n      0x20\n      add\n      0x05\n      dup3\n      add\n      dup1\n      sload\n      tag_212\n      swap1\n      tag_192\n      jump\t// in\n    tag_212:\n      dup1\n      0x1f\n      add\n      0x20\n      dup1\n      swap2\n      div\n      mul\n      0x20\n      add\n      mload(0x40)\n      swap1\n      dup2\n      add\n      0x40\n      mstore\n      dup1\n      swap3\n      swap2\n      swap1\n      dup2\n      dup2\n      mstore\n      0x20\n      add\n      dup3\n      dup1\n      sload\n      tag_213\n      swap1\n      tag_192\n      jump\t// in\n    tag_213:\n      dup1\n      iszero\n      tag_214\n      jumpi\n      dup1\n      0x1f\n      lt\n      tag_215\n      jumpi\n      0x0100\n      dup1\n      dup4\n      sload\n      div\n      mul\n      dup4\n      mstore\n      swap2\n      0x20\n      add\n      swap2\n      jump(tag_214)\n    tag_215:\n      dup3\n      add\n      swap2\n      swap1\n      0x00\n      mstore\n      keccak256(0x00, 0x20)\n      swap1\n    tag_216:\n      dup2\n      sload\n      dup2\n      mstore\n      swap1\n      0x01\n      add\n      swap1\n      0x20\n      add\n      dup1\n      dup4\n      gt\n      tag_216\n      jumpi\n      dup3\n      swap1\n      sub\n      0x1f\n      and\n      dup3\n      add\n      swap2\n    tag_214:\n      pop\n      pop\n      pop\n      pop\n      pop\n      dup2\n      mstore\n      0x20\n      add\n      0x06\n      dup3\n      add\n      sload\n      dup2\n      mstore\n      pop\n      pop\n      dup2\n      mstore\n      0x20\n      add\n      swap1\n      0x01\n      add\n      swap1\n      jump(tag_188)\n    tag_189:\n      pop\n      pop\n      pop\n      pop\n      swap1\n      pop\n        /* \"moonx/moonx.sol\":5288:5295  quizzes */\n      dup1\n        /* \"moonx/moonx.sol\":5288:5302  quizzes.length */\n      mload\n        /* \"moonx/moonx.sol\":5269:5277  _answers */\n      dup4\n        /* \"moonx/moonx.sol\":5269:5284  _answers.length */\n      mload\n        /* \"moonx/moonx.sol\":5269:5302  _answers.length == quizzes.length */\n      eq\n        /* \"moonx/moonx.sol\":5261:5328  require(_answers.length == quizzes.length, \"Answer count mismatch\") */\n      tag_217\n      jumpi\n      mload(0x40)\n      0x08c379a000000000000000000000000000000000000000000000000000000000\n      dup2\n      mstore\n      0x04\n      add\n      tag_218\n      swap1\n      tag_219\n      jump\t// in\n    tag_218:\n      mload(0x40)\n      dup1\n      swap2\n      sub\n      swap1\n      revert\n    tag_217:\n        /* \"moonx/moonx.sol\":5339:5350  bool passed */\n      0x00\n        /* \"moonx/moonx.sol\":5353:5357  true */\n      0x01\n        /* \"moonx/moonx.sol\":5339:5357  bool passed = true */\n      swap1\n      pop\n        /* \"moonx/moonx.sol\":5373:5382  uint256 i */\n      0x00\n        /* \"moonx/moonx.sol\":5368:5585  for (uint256 i = 0; i < quizzes.length; i++) {... */\n    tag_220:\n        /* \"moonx/moonx.sol\":5392:5399  quizzes */\n      dup3\n        /* \"moonx/moonx.sol\":5392:5406  quizzes.length */\n      mload\n        /* \"moonx/moonx.sol\":5388:5389  i */\n      dup2\n        /* \"moonx/moonx.sol\":5388:5406  i < quizzes.length */\n      lt\n        /* \"moonx/moonx.sol\":5368:5585  for (uint256 i = 0; i < quizzes.length; i++) {... */\n      iszero\n      tag_221\n      jumpi\n        /* \"moonx/moonx.sol\":5475:5482  quizzes */\n      dup3\n        /* \"moonx/moonx.sol\":5483:5484  i */\n      dup2\n        /* \"moonx/moonx.sol\":5475:5485  quizzes[i] */\n      dup2\n      mload\n      dup2\n      lt\n      tag_223\n      jumpi\n      tag_224\n      tag_225\n      jump\t// in\n    tag_224:\n    tag_223:\n      0x20\n      mul\n      0x20\n      add\n      add\n      mload\n        /* \"moonx/moonx.sol\":5475:5503  quizzes[i].correctAnswerHash */\n      0xc0\n      add\n      mload\n        /* \"moonx/moonx.sol\":5458:5466  _answers */\n      dup6\n        /* \"moonx/moonx.sol\":5467:5468  i */\n      dup3\n        /* \"moonx/moonx.sol\":5458:5469  _answers[i] */\n      dup2\n      mload\n      dup2\n      lt\n      tag_226\n      jumpi\n      tag_227\n      tag_225\n      jump\t// in\n    tag_227:\n    tag_226:\n      0x20\n      mul\n      0x20\n      add\n      add\n      mload\n        /* \"moonx/moonx.sol\":5441:5470  abi.encodePacked(_answers[i]) */\n      add(0x20, mload(0x40))\n      tag_228\n      swap2\n      swap1\n      tag_229\n      jump\t// in\n    tag_228:\n      mload(0x40)\n      0x20\n      dup2\n      dup4\n      sub\n      sub\n      dup2\n      mstore\n      swap1\n      0x40\n      mstore\n        /* \"moonx/moonx.sol\":5431:5471  keccak256(abi.encodePacked(_answers[i])) */\n      dup1\n      mload\n      swap1\n      0x20\n      add\n      keccak256\n        /* \"moonx/moonx.sol\":5431:5503  keccak256(abi.encodePacked(_answers[i])) != quizzes[i].correctAnswerHash */\n      eq\n        /* \"moonx/moonx.sol\":5427:5575  if (keccak256(abi.encodePacked(_answers[i])) != quizzes[i].correctAnswerHash) {... */\n      tag_230\n      jumpi\n        /* \"moonx/moonx.sol\":5532:5537  false */\n      0x00\n        /* \"moonx/moonx.sol\":5523:5537  passed = false */\n      swap2\n      pop\n        /* \"moonx/moonx.sol\":5555:5560  break */\n      jump(tag_221)\n        /* \"moonx/moonx.sol\":5427:5575  if (keccak256(abi.encodePacked(_answers[i])) != quizzes[i].correctAnswerHash) {... */\n    tag_230:\n        /* \"moonx/moonx.sol\":5408:5411  i++ */\n      dup1\n      dup1\n      0x01\n      add\n      swap2\n      pop\n      pop\n        /* \"moonx/moonx.sol\":5368:5585  for (uint256 i = 0; i < quizzes.length; i++) {... */\n      jump(tag_220)\n    tag_221:\n      pop\n        /* \"moonx/moonx.sol\":5599:5605  passed */\n      dup1\n        /* \"moonx/moonx.sol\":5595:5708  if (passed) {... */\n      iszero\n      tag_231\n      jumpi\n        /* \"moonx/moonx.sol\":5644:5648  true */\n      0x01\n        /* \"moonx/moonx.sol\":5621:5631  enrollment */\n      dup4\n        /* \"moonx/moonx.sol\":5621:5641  enrollment.hasPassed */\n      0x00\n      add\n      0x02\n        /* \"moonx/moonx.sol\":5621:5648  enrollment.hasPassed = true */\n      0x0100\n      exp\n      dup2\n      sload\n      dup2\n      0xff\n      mul\n      not\n      and\n      swap1\n      dup4\n      iszero\n      iszero\n      mul\n      or\n      swap1\n      sstore\n      pop\n        /* \"moonx/moonx.sol\":5662:5669  courses */\n      0x02\n        /* \"moonx/moonx.sol\":5662:5680  courses[_courseId] */\n      0x00\n        /* \"moonx/moonx.sol\":5670:5679  _courseId */\n      dup7\n        /* \"moonx/moonx.sol\":5662:5680  courses[_courseId] */\n      dup2\n      mstore\n      0x20\n      add\n      swap1\n      dup2\n      mstore\n      0x20\n      add\n      0x00\n      keccak256\n        /* \"moonx/moonx.sol\":5662:5695  courses[_courseId].passedStudents */\n      0x03\n      add\n      0x00\n        /* \"moonx/moonx.sol\":5662:5697  courses[_courseId].passedStudents++ */\n      dup2\n      sload\n      dup1\n      swap3\n      swap2\n      swap1\n      tag_232\n      swap1\n      tag_233\n      jump\t// in\n    tag_232:\n      swap2\n      swap1\n      pop\n      sstore\n      pop\n        /* \"moonx/moonx.sol\":5595:5708  if (passed) {... */\n    tag_231:\n        /* \"moonx/moonx.sol\":5748:5758  msg.sender */\n      caller\n        /* \"moonx/moonx.sol\":5723:5767  QuizAttempted(_courseId, msg.sender, passed) */\n      0xffffffffffffffffffffffffffffffffffffffff\n      and\n        /* \"moonx/moonx.sol\":5737:5746  _courseId */\n      dup6\n        /* \"moonx/moonx.sol\":5723:5767  QuizAttempted(_courseId, msg.sender, passed) */\n      0xaee8895c1bf669485cee2dd54d1eee9e65b02a244afb6f798f95d72405cdf7a5\n        /* \"moonx/moonx.sol\":5760:5766  passed */\n      dup4\n        /* \"moonx/moonx.sol\":5723:5767  QuizAttempted(_courseId, msg.sender, passed) */\n      mload(0x40)\n      tag_234\n      swap2\n      swap1\n      tag_53\n      jump\t// in\n    tag_234:\n      mload(0x40)\n      dup1\n      swap2\n      sub\n      swap1\n      log3\n        /* \"moonx/moonx.sol\":4852:5774  {... */\n      pop\n      pop\n      pop\n        /* \"moonx/moonx.sol\":4777:5774  function attemptQuiz(uint256 _courseId, string[] memory _answers) external {... */\n      pop\n      pop\n      jump\t// out\n        /* \"moonx/moonx.sol\":2892:3393  function enrollInCourse(uint256 _courseId) external whenNotPaused {... */\n    tag_63:\n        /* \"@openzeppelin/contracts/security/Pausable.sol\":1239:1258  _requireNotPaused() */\n      tag_236\n        /* \"@openzeppelin/contracts/security/Pausable.sol\":1239:1256  _requireNotPaused */\n      tag_150\n        /* \"@openzeppelin/contracts/security/Pausable.sol\":1239:1258  _requireNotPaused() */\n      jump\t// in\n    tag_236:\n        /* \"moonx/moonx.sol\":422:423  5 */\n      0x05\n        /* \"moonx/moonx.sol\":2976:2994  reputationContract */\n      0x01\n      0x00\n      swap1\n      sload\n      swap1\n      0x0100\n      exp\n      swap1\n      div\n      0xffffffffffffffffffffffffffffffffffffffff\n      and\n        /* \"moonx/moonx.sol\":2976:3005  reputationContract.reputation */\n      0xffffffffffffffffffffffffffffffffffffffff\n      and\n      0xb9f79451\n        /* \"moonx/moonx.sol\":3006:3016  msg.sender */\n      caller\n        /* \"moonx/moonx.sol\":2976:3017  reputationContract.reputation(msg.sender) */\n      mload(0x40)\n      dup3\n      0xffffffff\n      and\n      0xe0\n      shl\n      dup2\n      mstore\n      0x04\n      add\n      tag_238\n      swap2\n      swap1\n      tag_93\n      jump\t// in\n    tag_238:\n      0x20\n      mload(0x40)\n      dup1\n      dup4\n      sub\n      dup2\n      dup7\n      gas\n      staticcall\n      iszero\n      dup1\n      iszero\n      tag_240\n      jumpi\n      returndatasize\n      0x00\n      dup1\n      returndatacopy\n      revert(0x00, returndatasize)\n    tag_240:\n      pop\n      pop\n      pop\n      pop\n      mload(0x40)\n      returndatasize\n      not(0x1f)\n      0x1f\n      dup3\n      add\n      and\n      dup3\n      add\n      dup1\n      0x40\n      mstore\n      pop\n      dup2\n      add\n      swap1\n      tag_241\n      swap2\n      swap1\n      tag_242\n      jump\t// in\n    tag_241:\n        /* \"moonx/moonx.sol\":2976:3037  reputationContract.reputation(msg.sender) >= ENROLL_THRESHOLD */\n      lt\n      iszero\n        /* \"moonx/moonx.sol\":2968:3075  require(reputationContract.reputation(msg.sender) >= ENROLL_THRESHOLD, \"Insufficient reputation to enroll\") */\n      tag_243\n      jumpi\n      mload(0x40)\n      0x08c379a000000000000000000000000000000000000000000000000000000000\n      dup2\n      mstore\n      0x04\n      add\n      tag_244\n      swap1\n      tag_245\n      jump\t// in\n    tag_244:\n      mload(0x40)\n      dup1\n      swap2\n      sub\n      swap1\n      revert\n    tag_243:\n        /* \"moonx/moonx.sol\":3093:3100  courses */\n      0x02\n        /* \"moonx/moonx.sol\":3093:3111  courses[_courseId] */\n      0x00\n        /* \"moonx/moonx.sol\":3101:3110  _courseId */\n      dup3\n        /* \"moonx/moonx.sol\":3093:3111  courses[_courseId] */\n      dup2\n      mstore\n      0x20\n      add\n      swap1\n      dup2\n      mstore\n      0x20\n      add\n      0x00\n      keccak256\n        /* \"moonx/moonx.sol\":3093:3120  courses[_courseId].approved */\n      0x02\n      add\n      0x00\n      swap1\n      sload\n      swap1\n      0x0100\n      exp\n      swap1\n      div\n      0xff\n      and\n        /* \"moonx/moonx.sol\":3085:3144  require(courses[_courseId].approved, \"Course not approved\") */\n      tag_246\n      jumpi\n      mload(0x40)\n      0x08c379a000000000000000000000000000000000000000000000000000000000\n      dup2\n      mstore\n      0x04\n      add\n      tag_247\n      swap1\n      tag_248\n      jump\t// in\n    tag_247:\n      mload(0x40)\n      dup1\n      swap2\n      sub\n      swap1\n      revert\n    tag_246:\n        /* \"moonx/moonx.sol\":3163:3174  enrollments */\n      0x03\n        /* \"moonx/moonx.sol\":3163:3186  enrollments[msg.sender] */\n      0x00\n        /* \"moonx/moonx.sol\":3175:3185  msg.sender */\n      caller\n        /* \"moonx/moonx.sol\":3163:3186  enrollments[msg.sender] */\n      0xffffffffffffffffffffffffffffffffffffffff\n      and\n      0xffffffffffffffffffffffffffffffffffffffff\n      and\n      dup2\n      mstore\n      0x20\n      add\n      swap1\n      dup2\n      mstore\n      0x20\n      add\n      0x00\n      keccak256\n        /* \"moonx/moonx.sol\":3163:3197  enrollments[msg.sender][_courseId] */\n      0x00\n        /* \"moonx/moonx.sol\":3187:3196  _courseId */\n      dup3\n        /* \"moonx/moonx.sol\":3163:3197  enrollments[msg.sender][_courseId] */\n      dup2\n      mstore\n      0x20\n      add\n      swap1\n      dup2\n      mstore\n      0x20\n      add\n      0x00\n      keccak256\n        /* \"moonx/moonx.sol\":3163:3208  enrollments[msg.sender][_courseId].isEnrolled */\n      0x00\n      add\n      0x00\n      swap1\n      sload\n      swap1\n      0x0100\n      exp\n      swap1\n      div\n      0xff\n      and\n        /* \"moonx/moonx.sol\":3162:3208  !enrollments[msg.sender][_courseId].isEnrolled */\n      iszero\n        /* \"moonx/moonx.sol\":3154:3229  require(!enrollments[msg.sender][_courseId].isEnrolled, \"Already enrolled\") */\n      tag_249\n      jumpi\n      mload(0x40)\n      0x08c379a000000000000000000000000000000000000000000000000000000000\n      dup2\n      mstore\n      0x04\n      add\n      tag_250\n      swap1\n      tag_251\n      jump\t// in\n    tag_250:\n      mload(0x40)\n      dup1\n      swap2\n      sub\n      swap1\n      revert\n    tag_249:\n        /* \"moonx/moonx.sol\":3288:3292  true */\n      0x01\n        /* \"moonx/moonx.sol\":3240:3251  enrollments */\n      0x03\n        /* \"moonx/moonx.sol\":3240:3263  enrollments[msg.sender] */\n      0x00\n        /* \"moonx/moonx.sol\":3252:3262  msg.sender */\n      caller\n        /* \"moonx/moonx.sol\":3240:3263  enrollments[msg.sender] */\n      0xffffffffffffffffffffffffffffffffffffffff\n      and\n      0xffffffffffffffffffffffffffffffffffffffff\n      and\n      dup2\n      mstore\n      0x20\n      add\n      swap1\n      dup2\n      mstore\n      0x20\n      add\n      0x00\n      keccak256\n        /* \"moonx/moonx.sol\":3240:3274  enrollments[msg.sender][_courseId] */\n      0x00\n        /* \"moonx/moonx.sol\":3264:3273  _courseId */\n      dup4\n        /* \"moonx/moonx.sol\":3240:3274  enrollments[msg.sender][_courseId] */\n      dup2\n      mstore\n      0x20\n      add\n      swap1\n      dup2\n      mstore\n      0x20\n      add\n      0x00\n      keccak256\n        /* \"moonx/moonx.sol\":3240:3285  enrollments[msg.sender][_courseId].isEnrolled */\n      0x00\n      add\n      0x00\n        /* \"moonx/moonx.sol\":3240:3292  enrollments[msg.sender][_courseId].isEnrolled = true */\n      0x0100\n      exp\n      dup2\n      sload\n      dup2\n      0xff\n      mul\n      not\n      and\n      swap1\n      dup4\n      iszero\n      iszero\n      mul\n      or\n      swap1\n      sstore\n      pop\n        /* \"moonx/moonx.sol\":3302:3309  courses */\n      0x02\n        /* \"moonx/moonx.sol\":3302:3320  courses[_courseId] */\n      0x00\n        /* \"moonx/moonx.sol\":3310:3319  _courseId */\n      dup3\n        /* \"moonx/moonx.sol\":3302:3320  courses[_courseId] */\n      dup2\n      mstore\n      0x20\n      add\n      swap1\n      dup2\n      mstore\n      0x20\n      add\n      0x00\n      keccak256\n        /* \"moonx/moonx.sol\":3302:3334  courses[_courseId].totalEnrolled */\n      0x05\n      add\n      0x00\n        /* \"moonx/moonx.sol\":3302:3336  courses[_courseId].totalEnrolled++ */\n      dup2\n      sload\n      dup1\n      swap3\n      swap2\n      swap1\n      tag_252\n      swap1\n      tag_233\n      jump\t// in\n    tag_252:\n      swap2\n      swap1\n      pop\n      sstore\n      pop\n        /* \"moonx/moonx.sol\":3375:3385  msg.sender */\n      caller\n        /* \"moonx/moonx.sol\":3351:3386  UserEnrolled(_courseId, msg.sender) */\n      0xffffffffffffffffffffffffffffffffffffffff\n      and\n        /* \"moonx/moonx.sol\":3364:3373  _courseId */\n      dup2\n        /* \"moonx/moonx.sol\":3351:3386  UserEnrolled(_courseId, msg.sender) */\n      0xfacf1a2842acbad124cbca0a047fe37bc246c68f814e0350c7bd8a022fd1dddb\n      mload(0x40)\n      mload(0x40)\n      dup1\n      swap2\n      sub\n      swap1\n      log3\n        /* \"moonx/moonx.sol\":2892:3393  function enrollInCourse(uint256 _courseId) external whenNotPaused {... */\n      pop\n      jump\t// out\n        /* \"moonx/moonx.sol\":1468:1494  uint256 public courseCount */\n    tag_66:\n      sload(0x05)\n      dup2\n      jump\t// out\n        /* \"@openzeppelin/contracts/access/Ownable.sol\":2293:2394  function renounceOwnership() public virtual onlyOwner {... */\n    tag_71:\n        /* \"@openzeppelin/contracts/access/Ownable.sol\":1531:1544  _checkOwner() */\n      tag_254\n        /* \"@openzeppelin/contracts/access/Ownable.sol\":1531:1542  _checkOwner */\n      tag_171\n        /* \"@openzeppelin/contracts/access/Ownable.sol\":1531:1544  _checkOwner() */\n      jump\t// in\n    tag_254:\n        /* \"@openzeppelin/contracts/access/Ownable.sol\":2357:2387  _transferOwnership(address(0)) */\n      tag_256\n        /* \"@openzeppelin/contracts/access/Ownable.sol\":2384:2385  0 */\n      0x00\n        /* \"@openzeppelin/contracts/access/Ownable.sol\":2357:2375  _transferOwnership */\n      tag_257\n        /* \"@openzeppelin/contracts/access/Ownable.sol\":2357:2387  _transferOwnership(address(0)) */\n      jump\t// in\n    tag_256:\n        /* \"@openzeppelin/contracts/access/Ownable.sol\":2293:2394  function renounceOwnership() public virtual onlyOwner {... */\n      jump\t// out\n        /* \"moonx/moonx.sol\":2660:2886  function approveCourse(uint256 _courseId) external onlyOwner {... */\n    tag_75:\n        /* \"@openzeppelin/contracts/access/Ownable.sol\":1531:1544  _checkOwner() */\n      tag_259\n        /* \"@openzeppelin/contracts/access/Ownable.sol\":1531:1542  _checkOwner */\n      tag_171\n        /* \"@openzeppelin/contracts/access/Ownable.sol\":1531:1544  _checkOwner() */\n      jump\t// in\n    tag_259:\n        /* \"moonx/moonx.sol\":2740:2747  courses */\n      0x02\n        /* \"moonx/moonx.sol\":2740:2758  courses[_courseId] */\n      0x00\n        /* \"moonx/moonx.sol\":2748:2757  _courseId */\n      dup3\n        /* \"moonx/moonx.sol\":2740:2758  courses[_courseId] */\n      dup2\n      mstore\n      0x20\n      add\n      swap1\n      dup2\n      mstore\n      0x20\n      add\n      0x00\n      keccak256\n        /* \"moonx/moonx.sol\":2740:2767  courses[_courseId].approved */\n      0x02\n      add\n      0x00\n      swap1\n      sload\n      swap1\n      0x0100\n      exp\n      swap1\n      div\n      0xff\n      and\n        /* \"moonx/moonx.sol\":2739:2767  !courses[_courseId].approved */\n      iszero\n        /* \"moonx/moonx.sol\":2731:2795  require(!courses[_courseId].approved, \"Course already approved\") */\n      tag_261\n      jumpi\n      mload(0x40)\n      0x08c379a000000000000000000000000000000000000000000000000000000000\n      dup2\n      mstore\n      0x04\n      add\n      tag_262\n      swap1\n      tag_263\n      jump\t// in\n    tag_262:\n      mload(0x40)\n      dup1\n      swap2\n      sub\n      swap1\n      revert\n    tag_261:\n        /* \"moonx/moonx.sol\":2835:2839  true */\n      0x01\n        /* \"moonx/moonx.sol\":2805:2812  courses */\n      0x02\n        /* \"moonx/moonx.sol\":2805:2823  courses[_courseId] */\n      0x00\n        /* \"moonx/moonx.sol\":2813:2822  _courseId */\n      dup4\n        /* \"moonx/moonx.sol\":2805:2823  courses[_courseId] */\n      dup2\n      mstore\n      0x20\n      add\n      swap1\n      dup2\n      mstore\n      0x20\n      add\n      0x00\n      keccak256\n        /* \"moonx/moonx.sol\":2805:2832  courses[_courseId].approved */\n      0x02\n      add\n      0x00\n        /* \"moonx/moonx.sol\":2805:2839  courses[_courseId].approved = true */\n      0x0100\n      exp\n      dup2\n      sload\n      dup2\n      0xff\n      mul\n      not\n      and\n      swap1\n      dup4\n      iszero\n      iszero\n      mul\n      or\n      swap1\n      sstore\n      pop\n        /* \"moonx/moonx.sol\":2869:2878  _courseId */\n      dup1\n        /* \"moonx/moonx.sol\":2854:2879  CourseApproved(_courseId) */\n      0x87c1c0e5cd17beb8c61a3337b32c66021cb179dd6f97d6d9ce923a029092bd45\n      mload(0x40)\n      mload(0x40)\n      dup1\n      swap2\n      sub\n      swap1\n      log2\n        /* \"moonx/moonx.sol\":2660:2886  function approveCourse(uint256 _courseId) external onlyOwner {... */\n      pop\n      jump\t// out\n        /* \"moonx/moonx.sol\":7635:7696  function pause() external onlyOwner {... */\n    tag_78:\n        /* \"@openzeppelin/contracts/access/Ownable.sol\":1531:1544  _checkOwner() */\n      tag_265\n        /* \"@openzeppelin/contracts/access/Ownable.sol\":1531:1542  _checkOwner */\n      tag_171\n        /* \"@openzeppelin/contracts/access/Ownable.sol\":1531:1544  _checkOwner() */\n      jump\t// in\n    tag_265:\n        /* \"moonx/moonx.sol\":7681:7689  _pause() */\n      tag_267\n        /* \"moonx/moonx.sol\":7681:7687  _pause */\n      tag_268\n        /* \"moonx/moonx.sol\":7681:7689  _pause() */\n      jump\t// in\n    tag_267:\n        /* \"moonx/moonx.sol\":7635:7696  function pause() external onlyOwner {... */\n      jump\t// out\n        /* \"moonx/moonx.sol\":327:372  IReputationContract public reputationContract */\n    tag_81:\n      0x01\n      0x00\n      swap1\n      sload\n      swap1\n      0x0100\n      exp\n      swap1\n      div\n      0xffffffffffffffffffffffffffffffffffffffff\n      and\n      dup2\n      jump\t// out\n        /* \"moonx/moonx.sol\":2282:2654  function createCourse(string memory _metadataURI) external whenNotPaused {... */\n    tag_88:\n        /* \"@openzeppelin/contracts/security/Pausable.sol\":1239:1258  _requireNotPaused() */\n      tag_270\n        /* \"@openzeppelin/contracts/security/Pausable.sol\":1239:1256  _requireNotPaused */\n      tag_150\n        /* \"@openzeppelin/contracts/security/Pausable.sol\":1239:1258  _requireNotPaused() */\n      jump\t// in\n    tag_270:\n        /* \"moonx/moonx.sol\":470:472  50 */\n      0x32\n        /* \"moonx/moonx.sol\":2373:2391  reputationContract */\n      0x01\n      0x00\n      swap1\n      sload\n      swap1\n      0x0100\n      exp\n      swap1\n      div\n      0xffffffffffffffffffffffffffffffffffffffff\n      and\n        /* \"moonx/moonx.sol\":2373:2402  reputationContract.reputation */\n      0xffffffffffffffffffffffffffffffffffffffff\n      and\n      0xb9f79451\n        /* \"moonx/moonx.sol\":2403:2413  msg.sender */\n      caller\n        /* \"moonx/moonx.sol\":2373:2414  reputationContract.reputation(msg.sender) */\n      mload(0x40)\n      dup3\n      0xffffffff\n      and\n      0xe0\n      shl\n      dup2\n      mstore\n      0x04\n      add\n      tag_272\n      swap2\n      swap1\n      tag_93\n      jump\t// in\n    tag_272:\n      0x20\n      mload(0x40)\n      dup1\n      dup4\n      sub\n      dup2\n      dup7\n      gas\n      staticcall\n      iszero\n      dup1\n      iszero\n      tag_274\n      jumpi\n      returndatasize\n      0x00\n      dup1\n      returndatacopy\n      revert(0x00, returndatasize)\n    tag_274:\n      pop\n      pop\n      pop\n      pop\n      mload(0x40)\n      returndatasize\n      not(0x1f)\n      0x1f\n      dup3\n      add\n      and\n      dup3\n      add\n      dup1\n      0x40\n      mstore\n      pop\n      dup2\n      add\n      swap1\n      tag_275\n      swap2\n      swap1\n      tag_242\n      jump\t// in\n    tag_275:\n        /* \"moonx/moonx.sol\":2373:2432  reputationContract.reputation(msg.sender) >= POST_THRESHOLD */\n      lt\n      iszero\n        /* \"moonx/moonx.sol\":2365:2477  require(reputationContract.reputation(msg.sender) >= POST_THRESHOLD, \"Insufficient reputation to create course\") */\n      tag_276\n      jumpi\n      mload(0x40)\n      0x08c379a000000000000000000000000000000000000000000000000000000000\n      dup2\n      mstore\n      0x04\n      add\n      tag_277\n      swap1\n      tag_278\n      jump\t// in\n    tag_277:\n      mload(0x40)\n      dup1\n      swap2\n      sub\n      swap1\n      revert\n    tag_276:\n        /* \"moonx/moonx.sol\":2487:2503  uint256 courseId */\n      0x00\n        /* \"moonx/moonx.sol\":2506:2517  courseCount */\n      0x05\n      0x00\n        /* \"moonx/moonx.sol\":2506:2519  courseCount++ */\n      dup2\n      sload\n      dup1\n      swap3\n      swap2\n      swap1\n      tag_279\n      swap1\n      tag_233\n      jump\t// in\n    tag_279:\n      swap2\n      swap1\n      pop\n      sstore\n        /* \"moonx/moonx.sol\":2487:2519  uint256 courseId = courseCount++ */\n      swap1\n      pop\n        /* \"moonx/moonx.sol\":2549:2597  Course(msg.sender, _metadataURI, false, 0, 0, 0) */\n      mload(0x40)\n      dup1\n      0xc0\n      add\n      0x40\n      mstore\n      dup1\n        /* \"moonx/moonx.sol\":2556:2566  msg.sender */\n      caller\n        /* \"moonx/moonx.sol\":2549:2597  Course(msg.sender, _metadataURI, false, 0, 0, 0) */\n      0xffffffffffffffffffffffffffffffffffffffff\n      and\n      dup2\n      mstore\n      0x20\n      add\n        /* \"moonx/moonx.sol\":2568:2580  _metadataURI */\n      dup4\n        /* \"moonx/moonx.sol\":2549:2597  Course(msg.sender, _metadataURI, false, 0, 0, 0) */\n      dup2\n      mstore\n      0x20\n      add\n        /* \"moonx/moonx.sol\":2582:2587  false */\n      0x00\n        /* \"moonx/moonx.sol\":2549:2597  Course(msg.sender, _metadataURI, false, 0, 0, 0) */\n      iszero\n      iszero\n      dup2\n      mstore\n      0x20\n      add\n        /* \"moonx/moonx.sol\":2589:2590  0 */\n      0x00\n        /* \"moonx/moonx.sol\":2549:2597  Course(msg.sender, _metadataURI, false, 0, 0, 0) */\n      dup2\n      mstore\n      0x20\n      add\n        /* \"moonx/moonx.sol\":2592:2593  0 */\n      0x00\n        /* \"moonx/moonx.sol\":2549:2597  Course(msg.sender, _metadataURI, false, 0, 0, 0) */\n      dup2\n      mstore\n      0x20\n      add\n        /* \"moonx/moonx.sol\":2595:2596  0 */\n      0x00\n        /* \"moonx/moonx.sol\":2549:2597  Course(msg.sender, _metadataURI, false, 0, 0, 0) */\n      dup2\n      mstore\n      pop\n        /* \"moonx/moonx.sol\":2529:2536  courses */\n      0x02\n        /* \"moonx/moonx.sol\":2529:2546  courses[courseId] */\n      0x00\n        /* \"moonx/moonx.sol\":2537:2545  courseId */\n      dup4\n        /* \"moonx/moonx.sol\":2529:2546  courses[courseId] */\n      dup2\n      mstore\n      0x20\n      add\n      swap1\n      dup2\n      mstore\n      0x20\n      add\n      0x00\n      keccak256\n        /* \"moonx/moonx.sol\":2529:2597  courses[courseId] = Course(msg.sender, _metadataURI, false, 0, 0, 0) */\n      0x00\n      dup3\n      add\n      mload\n      dup2\n      0x00\n      add\n      exp(0x0100, 0x00)\n      dup2\n      sload\n      dup2\n      0xffffffffffffffffffffffffffffffffffffffff\n      mul\n      not\n      and\n      swap1\n      dup4\n      0xffffffffffffffffffffffffffffffffffffffff\n      and\n      mul\n      or\n      swap1\n      sstore\n      pop\n      0x20\n      dup3\n      add\n      mload\n      dup2\n      0x01\n      add\n      swap1\n      dup2\n      tag_280\n      swap2\n      swap1\n      tag_281\n      jump\t// in\n    tag_280:\n      pop\n      0x40\n      dup3\n      add\n      mload\n      dup2\n      0x02\n      add\n      exp(0x0100, 0x00)\n      dup2\n      sload\n      dup2\n      0xff\n      mul\n      not\n      and\n      swap1\n      dup4\n      iszero\n      iszero\n      mul\n      or\n      swap1\n      sstore\n      pop\n      0x60\n      dup3\n      add\n      mload\n      dup2\n      0x03\n      add\n      sstore\n      0x80\n      dup3\n      add\n      mload\n      dup2\n      0x04\n      add\n      sstore\n      0xa0\n      dup3\n      add\n      mload\n      dup2\n      0x05\n      add\n      sstore\n      swap1\n      pop\n      pop\n        /* \"moonx/moonx.sol\":2636:2646  msg.sender */\n      caller\n        /* \"moonx/moonx.sol\":2612:2647  CourseCreated(courseId, msg.sender) */\n      0xffffffffffffffffffffffffffffffffffffffff\n      and\n        /* \"moonx/moonx.sol\":2626:2634  courseId */\n      dup2\n        /* \"moonx/moonx.sol\":2612:2647  CourseCreated(courseId, msg.sender) */\n      0xa68f79aa37f9cdc81c2757cfb3e11e9d7d89ca0a5410fbcf1b61125bc17fb1b7\n      mload(0x40)\n      mload(0x40)\n      dup1\n      swap2\n      sub\n      swap1\n      log3\n        /* \"moonx/moonx.sol\":2355:2654  {... */\n      pop\n        /* \"moonx/moonx.sol\":2282:2654  function createCourse(string memory _metadataURI) external whenNotPaused {... */\n      pop\n      jump\t// out\n        /* \"@openzeppelin/contracts/access/Ownable.sol\":1638:1723  function owner() public view virtual returns (address) {... */\n    tag_91:\n        /* \"@openzeppelin/contracts/access/Ownable.sol\":1684:1691  address */\n      0x00\n        /* \"@openzeppelin/contracts/access/Ownable.sol\":1710:1716  _owner */\n      dup1\n      0x00\n      swap1\n      sload\n      swap1\n      0x0100\n      exp\n      swap1\n      div\n      0xffffffffffffffffffffffffffffffffffffffff\n      and\n        /* \"@openzeppelin/contracts/access/Ownable.sol\":1703:1716  return _owner */\n      swap1\n      pop\n        /* \"@openzeppelin/contracts/access/Ownable.sol\":1638:1723  function owner() public view virtual returns (address) {... */\n      swap1\n      jump\t// out\n        /* \"moonx/moonx.sol\":7773:7939  function updateReputationContract(address _newReputationContract) external onlyOwner {... */\n    tag_98:\n        /* \"@openzeppelin/contracts/access/Ownable.sol\":1531:1544  _checkOwner() */\n      tag_284\n        /* \"@openzeppelin/contracts/access/Ownable.sol\":1531:1542  _checkOwner */\n      tag_171\n        /* \"@openzeppelin/contracts/access/Ownable.sol\":1531:1544  _checkOwner() */\n      jump\t// in\n    tag_284:\n        /* \"moonx/moonx.sol\":7909:7931  _newReputationContract */\n      dup1\n        /* \"moonx/moonx.sol\":7868:7886  reputationContract */\n      0x01\n      0x00\n        /* \"moonx/moonx.sol\":7868:7932  reputationContract = IReputationContract(_newReputationContract) */\n      0x0100\n      exp\n      dup2\n      sload\n      dup2\n      0xffffffffffffffffffffffffffffffffffffffff\n      mul\n      not\n      and\n      swap1\n      dup4\n      0xffffffffffffffffffffffffffffffffffffffff\n      and\n      mul\n      or\n      swap1\n      sstore\n      pop\n        /* \"moonx/moonx.sol\":7773:7939  function updateReputationContract(address _newReputationContract) external onlyOwner {... */\n      pop\n      jump\t// out\n        /* \"moonx/moonx.sol\":1247:1288  mapping(uint256 => Course) public courses */\n    tag_102:\n      mstore(0x20, 0x02)\n      dup1\n      0x00\n      mstore\n      keccak256(0x00, 0x40)\n      0x00\n      swap2\n      pop\n      swap1\n      pop\n      dup1\n      0x00\n      add\n      0x00\n      swap1\n      sload\n      swap1\n      0x0100\n      exp\n      swap1\n      div\n      0xffffffffffffffffffffffffffffffffffffffff\n      and\n      swap1\n      dup1\n      0x01\n      add\n      dup1\n      sload\n      tag_286\n      swap1\n      tag_192\n      jump\t// in\n    tag_286:\n      dup1\n      0x1f\n      add\n      0x20\n      dup1\n      swap2\n      div\n      mul\n      0x20\n      add\n      mload(0x40)\n      swap1\n      dup2\n      add\n      0x40\n      mstore\n      dup1\n      swap3\n      swap2\n      swap1\n      dup2\n      dup2\n      mstore\n      0x20\n      add\n      dup3\n      dup1\n      sload\n      tag_287\n      swap1\n      tag_192\n      jump\t// in\n    tag_287:\n      dup1\n      iszero\n      tag_288\n      jumpi\n      dup1\n      0x1f\n      lt\n      tag_289\n      jumpi\n      0x0100\n      dup1\n      dup4\n      sload\n      div\n      mul\n      dup4\n      mstore\n      swap2\n      0x20\n      add\n      swap2\n      jump(tag_288)\n    tag_289:\n      dup3\n      add\n      swap2\n      swap1\n      0x00\n      mstore\n      keccak256(0x00, 0x20)\n      swap1\n    tag_290:\n      dup2\n      sload\n      dup2\n      mstore\n      swap1\n      0x01\n      add\n      swap1\n      0x20\n      add\n      dup1\n      dup4\n      gt\n      tag_290\n      jumpi\n      dup3\n      swap1\n      sub\n      0x1f\n      and\n      dup3\n      add\n      swap2\n    tag_288:\n      pop\n      pop\n      pop\n      pop\n      pop\n      swap1\n      dup1\n      0x02\n      add\n      0x00\n      swap1\n      sload\n      swap1\n      0x0100\n      exp\n      swap1\n      div\n      0xff\n      and\n      swap1\n      dup1\n      0x03\n      add\n      sload\n      swap1\n      dup1\n      0x04\n      add\n      sload\n      swap1\n      dup1\n      0x05\n      add\n      sload\n      swap1\n      pop\n      dup7\n      jump\t// out\n        /* \"moonx/moonx.sol\":5780:6390  function claimStudentReward(uint256 _courseId) external whenNotPaused {... */\n    tag_108:\n        /* \"@openzeppelin/contracts/security/Pausable.sol\":1239:1258  _requireNotPaused() */\n      tag_292\n        /* \"@openzeppelin/contracts/security/Pausable.sol\":1239:1256  _requireNotPaused */\n      tag_150\n        /* \"@openzeppelin/contracts/security/Pausable.sol\":1239:1258  _requireNotPaused() */\n      jump\t// in\n    tag_292:\n        /* \"moonx/moonx.sol\":5860:5889  Enrollment storage enrollment */\n      0x00\n        /* \"moonx/moonx.sol\":5892:5903  enrollments */\n      0x03\n        /* \"moonx/moonx.sol\":5892:5915  enrollments[msg.sender] */\n      0x00\n        /* \"moonx/moonx.sol\":5904:5914  msg.sender */\n      caller\n        /* \"moonx/moonx.sol\":5892:5915  enrollments[msg.sender] */\n      0xffffffffffffffffffffffffffffffffffffffff\n      and\n      0xffffffffffffffffffffffffffffffffffffffff\n      and\n      dup2\n      mstore\n      0x20\n      add\n      swap1\n      dup2\n      mstore\n      0x20\n      add\n      0x00\n      keccak256\n        /* \"moonx/moonx.sol\":5892:5926  enrollments[msg.sender][_courseId] */\n      0x00\n        /* \"moonx/moonx.sol\":5916:5925  _courseId */\n      dup4\n        /* \"moonx/moonx.sol\":5892:5926  enrollments[msg.sender][_courseId] */\n      dup2\n      mstore\n      0x20\n      add\n      swap1\n      dup2\n      mstore\n      0x20\n      add\n      0x00\n      keccak256\n        /* \"moonx/moonx.sol\":5860:5926  Enrollment storage enrollment = enrollments[msg.sender][_courseId] */\n      swap1\n      pop\n        /* \"moonx/moonx.sol\":5944:5954  enrollment */\n      dup1\n        /* \"moonx/moonx.sol\":5944:5964  enrollment.hasPassed */\n      0x00\n      add\n      0x02\n      swap1\n      sload\n      swap1\n      0x0100\n      exp\n      swap1\n      div\n      0xff\n      and\n        /* \"moonx/moonx.sol\":5936:5986  require(enrollment.hasPassed, \"Course not passed\") */\n      tag_294\n      jumpi\n      mload(0x40)\n      0x08c379a000000000000000000000000000000000000000000000000000000000\n      dup2\n      mstore\n      0x04\n      add\n      tag_295\n      swap1\n      tag_296\n      jump\t// in\n    tag_295:\n      mload(0x40)\n      dup1\n      swap2\n      sub\n      swap1\n      revert\n    tag_294:\n        /* \"moonx/moonx.sol\":6005:6015  enrollment */\n      dup1\n        /* \"moonx/moonx.sol\":6005:6032  enrollment.hasClaimedReward */\n      0x00\n      add\n      0x03\n      swap1\n      sload\n      swap1\n      0x0100\n      exp\n      swap1\n      div\n      0xff\n      and\n        /* \"moonx/moonx.sol\":6004:6032  !enrollment.hasClaimedReward */\n      iszero\n        /* \"moonx/moonx.sol\":5996:6059  require(!enrollment.hasClaimedReward, \"Reward already claimed\") */\n      tag_297\n      jumpi\n      mload(0x40)\n      0x08c379a000000000000000000000000000000000000000000000000000000000\n      dup2\n      mstore\n      0x04\n      add\n      tag_298\n      swap1\n      tag_299\n      jump\t// in\n    tag_298:\n      mload(0x40)\n      dup1\n      swap2\n      sub\n      swap1\n      revert\n    tag_297:\n        /* \"moonx/moonx.sol\":6100:6104  true */\n      0x01\n        /* \"moonx/moonx.sol\":6070:6080  enrollment */\n      dup2\n        /* \"moonx/moonx.sol\":6070:6097  enrollment.hasClaimedReward */\n      0x00\n      add\n      0x03\n        /* \"moonx/moonx.sol\":6070:6104  enrollment.hasClaimedReward = true */\n      0x0100\n      exp\n      dup2\n      sload\n      dup2\n      0xff\n      mul\n      not\n      and\n      swap1\n      dup4\n      iszero\n      iszero\n      mul\n      or\n      swap1\n      sstore\n      pop\n        /* \"moonx/moonx.sol\":526:534  10 ether */\n      0x8ac7230489e80000\n        /* \"moonx/moonx.sol\":6114:6121  courses */\n      0x02\n        /* \"moonx/moonx.sol\":6114:6132  courses[_courseId] */\n      0x00\n        /* \"moonx/moonx.sol\":6122:6131  _courseId */\n      dup5\n        /* \"moonx/moonx.sol\":6114:6132  courses[_courseId] */\n      dup2\n      mstore\n      0x20\n      add\n      swap1\n      dup2\n      mstore\n      0x20\n      add\n      0x00\n      keccak256\n        /* \"moonx/moonx.sol\":6114:6146  courses[_courseId].totalRewarded */\n      0x04\n      add\n      0x00\n        /* \"moonx/moonx.sol\":6114:6171  courses[_courseId].totalRewarded += STUDENT_REWARD_AMOUNT */\n      dup3\n      dup3\n      sload\n      tag_300\n      swap2\n      swap1\n      tag_301\n      jump\t// in\n    tag_300:\n      swap3\n      pop\n      pop\n      dup2\n      swap1\n      sstore\n      pop\n        /* \"moonx/moonx.sol\":6183:6195  bool success */\n      0x00\n        /* \"moonx/moonx.sol\":6209:6219  msg.sender */\n      caller\n        /* \"moonx/moonx.sol\":6201:6225  payable(msg.sender).call */\n      0xffffffffffffffffffffffffffffffffffffffff\n      and\n        /* \"moonx/moonx.sol\":526:534  10 ether */\n      0x8ac7230489e80000\n        /* \"moonx/moonx.sol\":6201:6259  payable(msg.sender).call{value: STUDENT_REWARD_AMOUNT}(\"\") */\n      mload(0x40)\n      tag_302\n      swap1\n      tag_161\n      jump\t// in\n    tag_302:\n      0x00\n      mload(0x40)\n      dup1\n      dup4\n      sub\n      dup2\n      dup6\n      dup8\n      gas\n      call\n      swap3\n      pop\n      pop\n      pop\n      returndatasize\n      dup1\n      0x00\n      dup2\n      eq\n      tag_305\n      jumpi\n      mload(0x40)\n      swap2\n      pop\n      and(add(returndatasize, 0x3f), not(0x1f))\n      dup3\n      add\n      0x40\n      mstore\n      returndatasize\n      dup3\n      mstore\n      returndatasize\n      0x00\n      0x20\n      dup5\n      add\n      returndatacopy\n      jump(tag_304)\n    tag_305:\n      0x60\n      swap2\n      pop\n    tag_304:\n      pop\n        /* \"moonx/moonx.sol\":6182:6259  (bool success, ) = payable(msg.sender).call{value: STUDENT_REWARD_AMOUNT}(\"\") */\n      pop\n      swap1\n      pop\n        /* \"moonx/moonx.sol\":6277:6284  success */\n      dup1\n        /* \"moonx/moonx.sol\":6269:6308  require(success, \"Failed to send MAND\") */\n      tag_306\n      jumpi\n      mload(0x40)\n      0x08c379a000000000000000000000000000000000000000000000000000000000\n      dup2\n      mstore\n      0x04\n      add\n      tag_307\n      swap1\n      tag_167\n      jump\t// in\n    tag_307:\n      mload(0x40)\n      dup1\n      swap2\n      sub\n      swap1\n      revert\n    tag_306:\n        /* \"moonx/moonx.sol\":6349:6359  msg.sender */\n      caller\n        /* \"moonx/moonx.sol\":6324:6383  RewardClaimed(_courseId, msg.sender, STUDENT_REWARD_AMOUNT) */\n      0xffffffffffffffffffffffffffffffffffffffff\n      and\n        /* \"moonx/moonx.sol\":6338:6347  _courseId */\n      dup4\n        /* \"moonx/moonx.sol\":6324:6383  RewardClaimed(_courseId, msg.sender, STUDENT_REWARD_AMOUNT) */\n      0x24b5efa61dd1cfc659205a97fb8ed868f3cb8c81922bab2b96423e5de1de2cb7\n        /* \"moonx/moonx.sol\":526:534  10 ether */\n      0x8ac7230489e80000\n        /* \"moonx/moonx.sol\":6324:6383  RewardClaimed(_courseId, msg.sender, STUDENT_REWARD_AMOUNT) */\n      mload(0x40)\n      tag_308\n      swap2\n      swap1\n      tag_68\n      jump\t// in\n    tag_308:\n      mload(0x40)\n      dup1\n      swap2\n      sub\n      swap1\n      log3\n        /* \"moonx/moonx.sol\":5850:6390  {... */\n      pop\n      pop\n        /* \"moonx/moonx.sol\":5780:6390  function claimStudentReward(uint256 _courseId) external whenNotPaused {... */\n      pop\n      jump\t// out\n        /* \"moonx/moonx.sol\":429:472  uint256 public constant POST_THRESHOLD = 50 */\n    tag_111:\n        /* \"moonx/moonx.sol\":470:472  50 */\n      0x32\n        /* \"moonx/moonx.sol\":429:472  uint256 public constant POST_THRESHOLD = 50 */\n      dup2\n      jump\t// out\n        /* \"moonx/moonx.sol\":379:423  uint256 public constant ENROLL_THRESHOLD = 5 */\n    tag_115:\n        /* \"moonx/moonx.sol\":422:423  5 */\n      0x05\n        /* \"moonx/moonx.sol\":379:423  uint256 public constant ENROLL_THRESHOLD = 5 */\n      dup2\n      jump\t// out\n        /* \"moonx/moonx.sol\":1369:1416  mapping(uint256 => Quiz[]) public courseQuizzes */\n    tag_120:\n      mstore(0x20, 0x04)\n      dup2\n      0x00\n      mstore\n      keccak256(0x00, 0x40)\n      dup2\n      dup2\n      sload\n      dup2\n      lt\n      tag_309\n      jumpi\n      0x00\n      dup1\n      revert\n    tag_309:\n      swap1\n      0x00\n      mstore\n      keccak256(0x00, 0x20)\n      swap1\n      0x07\n      mul\n      add\n      0x00\n      swap2\n      pop\n      swap2\n      pop\n      pop\n      dup1\n      0x00\n      add\n      sload\n      swap1\n      dup1\n      0x01\n      add\n      dup1\n      sload\n      tag_311\n      swap1\n      tag_192\n      jump\t// in\n    tag_311:\n      dup1\n      0x1f\n      add\n      0x20\n      dup1\n      swap2\n      div\n      mul\n      0x20\n      add\n      mload(0x40)\n      swap1\n      dup2\n      add\n      0x40\n      mstore\n      dup1\n      swap3\n      swap2\n      swap1\n      dup2\n      dup2\n      mstore\n      0x20\n      add\n      dup3\n      dup1\n      sload\n      tag_312\n      swap1\n      tag_192\n      jump\t// in\n    tag_312:\n      dup1\n      iszero\n      tag_313\n      jumpi\n      dup1\n      0x1f\n      lt\n      tag_314\n      jumpi\n      0x0100\n      dup1\n      dup4\n      sload\n      div\n      mul\n      dup4\n      mstore\n      swap2\n      0x20\n      add\n      swap2\n      jump(tag_313)\n    tag_314:\n      dup3\n      add\n      swap2\n      swap1\n      0x00\n      mstore\n      keccak256(0x00, 0x20)\n      swap1\n    tag_315:\n      dup2\n      sload\n      dup2\n      mstore\n      swap1\n      0x01\n      add\n      swap1\n      0x20\n      add\n      dup1\n      dup4\n      gt\n      tag_315\n      jumpi\n      dup3\n      swap1\n      sub\n      0x1f\n      and\n      dup3\n      add\n      swap2\n    tag_313:\n      pop\n      pop\n      pop\n      pop\n      pop\n      swap1\n      dup1\n      0x02\n      add\n      dup1\n      sload\n      tag_316\n      swap1\n      tag_192\n      jump\t// in\n    tag_316:\n      dup1\n      0x1f\n      add\n      0x20\n      dup1\n      swap2\n      div\n      mul\n      0x20\n      add\n      mload(0x40)\n      swap1\n      dup2\n      add\n      0x40\n      mstore\n      dup1\n      swap3\n      swap2\n      swap1\n      dup2\n      dup2\n      mstore\n      0x20\n      add\n      dup3\n      dup1\n      sload\n      tag_317\n      swap1\n      tag_192\n      jump\t// in\n    tag_317:\n      dup1\n      iszero\n      tag_318\n      jumpi\n      dup1\n      0x1f\n      lt\n      tag_319\n      jumpi\n      0x0100\n      dup1\n      dup4\n      sload\n      div\n      mul\n      dup4\n      mstore\n      swap2\n      0x20\n      add\n      swap2\n      jump(tag_318)\n    tag_319:\n      dup3\n      add\n      swap2\n      swap1\n      0x00\n      mstore\n      keccak256(0x00, 0x20)\n      swap1\n    tag_320:\n      dup2\n      sload\n      dup2\n      mstore\n      swap1\n      0x01\n      add\n      swap1\n      0x20\n      add\n      dup1\n      dup4\n      gt\n      tag_320\n      jumpi\n      dup3\n      swap1\n      sub\n      0x1f\n      and\n      dup3\n      add\n      swap2\n    tag_318:\n      pop\n      pop\n      pop\n      pop\n      pop\n      swap1\n      dup1\n      0x03\n      add\n      dup1\n      sload\n      tag_321\n      swap1\n      tag_192\n      jump\t// in\n    tag_321:\n      dup1\n      0x1f\n      add\n      0x20\n      dup1\n      swap2\n      div\n      mul\n      0x20\n      add\n      mload(0x40)\n      swap1\n      dup2\n      add\n      0x40\n      mstore\n      dup1\n      swap3\n      swap2\n      swap1\n      dup2\n      dup2\n      mstore\n      0x20\n      add\n      dup3\n      dup1\n      sload\n      tag_322\n      swap1\n      tag_192\n      jump\t// in\n    tag_322:\n      dup1\n      iszero\n      tag_323\n      jumpi\n      dup1\n      0x1f\n      lt\n      tag_324\n      jumpi\n      0x0100\n      dup1\n      dup4\n      sload\n      div\n      mul\n      dup4\n      mstore\n      swap2\n      0x20\n      add\n      swap2\n      jump(tag_323)\n    tag_324:\n      dup3\n      add\n      swap2\n      swap1\n      0x00\n      mstore\n      keccak256(0x00, 0x20)\n      swap1\n    tag_325:\n      dup2\n      sload\n      dup2\n      mstore\n      swap1\n      0x01\n      add\n      swap1\n      0x20\n      add\n      dup1\n      dup4\n      gt\n      tag_325\n      jumpi\n      dup3\n      swap1\n      sub\n      0x1f\n      and\n      dup3\n      add\n      swap2\n    tag_323:\n      pop\n      pop\n      pop\n      pop\n      pop\n      swap1\n      dup1\n      0x04\n      add\n      dup1\n      sload\n      tag_326\n      swap1\n      tag_192\n      jump\t// in\n    tag_326:\n      dup1\n      0x1f\n      add\n      0x20\n      dup1\n      swap2\n      div\n      mul\n      0x20\n      add\n      mload(0x40)\n      swap1\n      dup2\n      add\n      0x40\n      mstore\n      dup1\n      swap3\n      swap2\n      swap1\n      dup2\n      dup2\n      mstore\n      0x20\n      add\n      dup3\n      dup1\n      sload\n      tag_327\n      swap1\n      tag_192\n      jump\t// in\n    tag_327:\n      dup1\n      iszero\n      tag_328\n      jumpi\n      dup1\n      0x1f\n      lt\n      tag_329\n      jumpi\n      0x0100\n      dup1\n      dup4\n      sload\n      div\n      mul\n      dup4\n      mstore\n      swap2\n      0x20\n      add\n      swap2\n      jump(tag_328)\n    tag_329:\n      dup3\n      add\n      swap2\n      swap1\n      0x00\n      mstore\n      keccak256(0x00, 0x20)\n      swap1\n    tag_330:\n      dup2\n      sload\n      dup2\n      mstore\n      swap1\n      0x01\n      add\n      swap1\n      0x20\n      add\n      dup1\n      dup4\n      gt\n      tag_330\n      jumpi\n      dup3\n      swap1\n      sub\n      0x1f\n      and\n      dup3\n      add\n      swap2\n    tag_328:\n      pop\n      pop\n      pop\n      pop\n      pop\n      swap1\n      dup1\n      0x05\n      add\n      dup1\n      sload\n      tag_331\n      swap1\n      tag_192\n      jump\t// in\n    tag_331:\n      dup1\n      0x1f\n      add\n      0x20\n      dup1\n      swap2\n      div\n      mul\n      0x20\n      add\n      mload(0x40)\n      swap1\n      dup2\n      add\n      0x40\n      mstore\n      dup1\n      swap3\n      swap2\n      swap1\n      dup2\n      dup2\n      mstore\n      0x20\n      add\n      dup3\n      dup1\n      sload\n      tag_332\n      swap1\n      tag_192\n      jump\t// in\n    tag_332:\n      dup1\n      iszero\n      tag_333\n      jumpi\n      dup1\n      0x1f\n      lt\n      tag_334\n      jumpi\n      0x0100\n      dup1\n      dup4\n      sload\n      div\n      mul\n      dup4\n      mstore\n      swap2\n      0x20\n      add\n      swap2\n      jump(tag_333)\n    tag_334:\n      dup3\n      add\n      swap2\n      swap1\n      0x00\n      mstore\n      keccak256(0x00, 0x20)\n      swap1\n    tag_335:\n      dup2\n      sload\n      dup2\n      mstore\n      swap1\n      0x01\n      add\n      swap1\n      0x20\n      add\n      dup1\n      dup4\n      gt\n      tag_335\n      jumpi\n      dup3\n      swap1\n      sub\n      0x1f\n      and\n      dup3\n      add\n      swap2\n    tag_333:\n      pop\n      pop\n      pop\n      pop\n      pop\n      swap1\n      dup1\n      0x06\n      add\n      sload\n      swap1\n      pop\n      dup8\n      jump\t// out\n        /* \"moonx/moonx.sol\":6396:7061  function claimCreatorReward(uint256 _courseId) external whenNotPaused {... */\n    tag_126:\n        /* \"@openzeppelin/contracts/security/Pausable.sol\":1239:1258  _requireNotPaused() */\n      tag_337\n        /* \"@openzeppelin/contracts/security/Pausable.sol\":1239:1256  _requireNotPaused */\n      tag_150\n        /* \"@openzeppelin/contracts/security/Pausable.sol\":1239:1258  _requireNotPaused() */\n      jump\t// in\n    tag_337:\n        /* \"moonx/moonx.sol\":6476:6497  Course storage course */\n      0x00\n        /* \"moonx/moonx.sol\":6500:6507  courses */\n      0x02\n        /* \"moonx/moonx.sol\":6500:6518  courses[_courseId] */\n      0x00\n        /* \"moonx/moonx.sol\":6508:6517  _courseId */\n      dup4\n        /* \"moonx/moonx.sol\":6500:6518  courses[_courseId] */\n      dup2\n      mstore\n      0x20\n      add\n      swap1\n      dup2\n      mstore\n      0x20\n      add\n      0x00\n      keccak256\n        /* \"moonx/moonx.sol\":6476:6518  Course storage course = courses[_courseId] */\n      swap1\n      pop\n        /* \"moonx/moonx.sol\":6550:6556  course */\n      dup1\n        /* \"moonx/moonx.sol\":6550:6564  course.creator */\n      0x00\n      add\n      0x00\n      swap1\n      sload\n      swap1\n      0x0100\n      exp\n      swap1\n      div\n      0xffffffffffffffffffffffffffffffffffffffff\n      and\n        /* \"moonx/moonx.sol\":6536:6564  msg.sender == course.creator */\n      0xffffffffffffffffffffffffffffffffffffffff\n      and\n        /* \"moonx/moonx.sol\":6536:6546  msg.sender */\n      caller\n        /* \"moonx/moonx.sol\":6536:6564  msg.sender == course.creator */\n      0xffffffffffffffffffffffffffffffffffffffff\n      and\n      eq\n        /* \"moonx/moonx.sol\":6528:6605  require(msg.sender == course.creator, \"Only course creator can claim reward\") */\n      tag_339\n      jumpi\n      mload(0x40)\n      0x08c379a000000000000000000000000000000000000000000000000000000000\n      dup2\n      mstore\n      0x04\n      add\n      tag_340\n      swap1\n      tag_341\n      jump\t// in\n    tag_340:\n      mload(0x40)\n      dup1\n      swap2\n      sub\n      swap1\n      revert\n    tag_339:\n        /* \"moonx/moonx.sol\":6623:6629  course */\n      dup1\n        /* \"moonx/moonx.sol\":6623:6638  course.approved */\n      0x02\n      add\n      0x00\n      swap1\n      sload\n      swap1\n      0x0100\n      exp\n      swap1\n      div\n      0xff\n      and\n        /* \"moonx/moonx.sol\":6615:6662  require(course.approved, \"Course not approved\") */\n      tag_342\n      jumpi\n      mload(0x40)\n      0x08c379a000000000000000000000000000000000000000000000000000000000\n      dup2\n      mstore\n      0x04\n      add\n      tag_343\n      swap1\n      tag_248\n      jump\t// in\n    tag_343:\n      mload(0x40)\n      dup1\n      swap2\n      sub\n      swap1\n      revert\n    tag_342:\n        /* \"moonx/moonx.sol\":6673:6693  uint256 rewardAmount */\n      0x00\n        /* \"moonx/moonx.sol\":606:613  1 ether */\n      0x0de0b6b3a7640000\n        /* \"moonx/moonx.sol\":6696:6702  course */\n      dup3\n        /* \"moonx/moonx.sol\":6696:6717  course.passedStudents */\n      0x03\n      add\n      sload\n        /* \"moonx/moonx.sol\":6696:6741  course.passedStudents * CREATOR_REWARD_AMOUNT */\n      tag_344\n      swap2\n      swap1\n      tag_345\n      jump\t// in\n    tag_344:\n        /* \"moonx/moonx.sol\":6673:6741  uint256 rewardAmount = course.passedStudents * CREATOR_REWARD_AMOUNT */\n      swap1\n      pop\n        /* \"moonx/moonx.sol\":6775:6776  0 */\n      0x00\n        /* \"moonx/moonx.sol\":6751:6757  course */\n      dup3\n        /* \"moonx/moonx.sol\":6751:6772  course.passedStudents */\n      0x03\n      add\n        /* \"moonx/moonx.sol\":6751:6776  course.passedStudents = 0 */\n      dup2\n      swap1\n      sstore\n      pop\n        /* \"moonx/moonx.sol\":6841:6853  rewardAmount */\n      dup1\n        /* \"moonx/moonx.sol\":6817:6823  course */\n      dup3\n        /* \"moonx/moonx.sol\":6817:6837  course.totalRewarded */\n      0x04\n      add\n      0x00\n        /* \"moonx/moonx.sol\":6817:6853  course.totalRewarded += rewardAmount */\n      dup3\n      dup3\n      sload\n      tag_346\n      swap2\n      swap1\n      tag_301\n      jump\t// in\n    tag_346:\n      swap3\n      pop\n      pop\n      dup2\n      swap1\n      sstore\n      pop\n        /* \"moonx/moonx.sol\":6865:6877  bool success */\n      0x00\n        /* \"moonx/moonx.sol\":6891:6901  msg.sender */\n      caller\n        /* \"moonx/moonx.sol\":6883:6907  payable(msg.sender).call */\n      0xffffffffffffffffffffffffffffffffffffffff\n      and\n        /* \"moonx/moonx.sol\":6915:6927  rewardAmount */\n      dup3\n        /* \"moonx/moonx.sol\":6883:6932  payable(msg.sender).call{value: rewardAmount}(\"\") */\n      mload(0x40)\n      tag_347\n      swap1\n      tag_161\n      jump\t// in\n    tag_347:\n      0x00\n      mload(0x40)\n      dup1\n      dup4\n      sub\n      dup2\n      dup6\n      dup8\n      gas\n      call\n      swap3\n      pop\n      pop\n      pop\n      returndatasize\n      dup1\n      0x00\n      dup2\n      eq\n      tag_350\n      jumpi\n      mload(0x40)\n      swap2\n      pop\n      and(add(returndatasize, 0x3f), not(0x1f))\n      dup3\n      add\n      0x40\n      mstore\n      returndatasize\n      dup3\n      mstore\n      returndatasize\n      0x00\n      0x20\n      dup5\n      add\n      returndatacopy\n      jump(tag_349)\n    tag_350:\n      0x60\n      swap2\n      pop\n    tag_349:\n      pop\n        /* \"moonx/moonx.sol\":6864:6932  (bool success, ) = payable(msg.sender).call{value: rewardAmount}(\"\") */\n      pop\n      swap1\n      pop\n        /* \"moonx/moonx.sol\":6950:6957  success */\n      dup1\n        /* \"moonx/moonx.sol\":6942:6981  require(success, \"Failed to send MAND\") */\n      tag_351\n      jumpi\n      mload(0x40)\n      0x08c379a000000000000000000000000000000000000000000000000000000000\n      dup2\n      mstore\n      0x04\n      add\n      tag_352\n      swap1\n      tag_167\n      jump\t// in\n    tag_352:\n      mload(0x40)\n      dup1\n      swap2\n      sub\n      swap1\n      revert\n    tag_351:\n        /* \"moonx/moonx.sol\":7029:7039  msg.sender */\n      caller\n        /* \"moonx/moonx.sol\":6997:7054  CreatorRewardClaimed(_courseId, msg.sender, rewardAmount) */\n      0xffffffffffffffffffffffffffffffffffffffff\n      and\n        /* \"moonx/moonx.sol\":7018:7027  _courseId */\n      dup5\n        /* \"moonx/moonx.sol\":6997:7054  CreatorRewardClaimed(_courseId, msg.sender, rewardAmount) */\n      0xb67da43f4cc061f251c05601f44947d1be59a7ef5451a4a5230274da04f88246\n        /* \"moonx/moonx.sol\":7041:7053  rewardAmount */\n      dup5\n        /* \"moonx/moonx.sol\":6997:7054  CreatorRewardClaimed(_courseId, msg.sender, rewardAmount) */\n      mload(0x40)\n      tag_353\n      swap2\n      swap1\n      tag_68\n      jump\t// in\n    tag_353:\n      mload(0x40)\n      dup1\n      swap2\n      sub\n      swap1\n      log3\n        /* \"moonx/moonx.sol\":6466:7061  {... */\n      pop\n      pop\n      pop\n        /* \"moonx/moonx.sol\":6396:7061  function claimCreatorReward(uint256 _courseId) external whenNotPaused {... */\n      pop\n      jump\t// out\n        /* \"moonx/moonx.sol\":558:613  uint256 public constant CREATOR_REWARD_AMOUNT = 1 ether */\n    tag_129:\n        /* \"moonx/moonx.sol\":606:613  1 ether */\n      0x0de0b6b3a7640000\n        /* \"moonx/moonx.sol\":558:613  uint256 public constant CREATOR_REWARD_AMOUNT = 1 ether */\n      dup2\n      jump\t// out\n        /* \"moonx/moonx.sol\":3399:4771  function createQuiz(... */\n    tag_135:\n        /* \"moonx/moonx.sol\":3692:3699  courses */\n      0x02\n        /* \"moonx/moonx.sol\":3692:3710  courses[_courseId] */\n      0x00\n        /* \"moonx/moonx.sol\":3700:3709  _courseId */\n      dup9\n        /* \"moonx/moonx.sol\":3692:3710  courses[_courseId] */\n      dup2\n      mstore\n      0x20\n      add\n      swap1\n      dup2\n      mstore\n      0x20\n      add\n      0x00\n      keccak256\n        /* \"moonx/moonx.sol\":3692:3718  courses[_courseId].creator */\n      0x00\n      add\n      0x00\n      swap1\n      sload\n      swap1\n      0x0100\n      exp\n      swap1\n      div\n      0xffffffffffffffffffffffffffffffffffffffff\n      and\n        /* \"moonx/moonx.sol\":3678:3718  msg.sender == courses[_courseId].creator */\n      0xffffffffffffffffffffffffffffffffffffffff\n      and\n        /* \"moonx/moonx.sol\":3678:3688  msg.sender */\n      caller\n        /* \"moonx/moonx.sol\":3678:3718  msg.sender == courses[_courseId].creator */\n      0xffffffffffffffffffffffffffffffffffffffff\n      and\n      eq\n        /* \"moonx/moonx.sol\":3670:3760  require(msg.sender == courses[_courseId].creator, \"Only course creator can create a quiz\") */\n      tag_355\n      jumpi\n      mload(0x40)\n      0x08c379a000000000000000000000000000000000000000000000000000000000\n      dup2\n      mstore\n      0x04\n      add\n      tag_356\n      swap1\n      tag_357\n      jump\t// in\n    tag_356:\n      mload(0x40)\n      dup1\n      swap2\n      sub\n      swap1\n      revert\n    tag_355:\n        /* \"moonx/moonx.sol\":3778:3785  courses */\n      0x02\n        /* \"moonx/moonx.sol\":3778:3796  courses[_courseId] */\n      0x00\n        /* \"moonx/moonx.sol\":3786:3795  _courseId */\n      dup9\n        /* \"moonx/moonx.sol\":3778:3796  courses[_courseId] */\n      dup2\n      mstore\n      0x20\n      add\n      swap1\n      dup2\n      mstore\n      0x20\n      add\n      0x00\n      keccak256\n        /* \"moonx/moonx.sol\":3778:3805  courses[_courseId].approved */\n      0x02\n      add\n      0x00\n      swap1\n      sload\n      swap1\n      0x0100\n      exp\n      swap1\n      div\n      0xff\n      and\n        /* \"moonx/moonx.sol\":3770:3850  require(courses[_courseId].approved, \"Course must be approved to create a quiz\") */\n      tag_358\n      jumpi\n      mload(0x40)\n      0x08c379a000000000000000000000000000000000000000000000000000000000\n      dup2\n      mstore\n      0x04\n      add\n      tag_359\n      swap1\n      tag_360\n      jump\t// in\n    tag_359:\n      mload(0x40)\n      dup1\n      swap2\n      sub\n      swap1\n      revert\n    tag_358:\n        /* \"moonx/moonx.sol\":3938:3959  abi.encodePacked(\"A\") */\n      add(0x20, mload(0x40))\n      tag_361\n      swap1\n      tag_362\n      jump\t// in\n    tag_361:\n      mload(0x40)\n      0x20\n      dup2\n      dup4\n      sub\n      sub\n      dup2\n      mstore\n      swap1\n      0x40\n      mstore\n        /* \"moonx/moonx.sol\":3928:3960  keccak256(abi.encodePacked(\"A\")) */\n      dup1\n      mload\n      swap1\n      0x20\n      add\n      keccak256\n        /* \"moonx/moonx.sol\":3908:3922  _correctAnswer */\n      dup2\n        /* \"moonx/moonx.sol\":3891:3923  abi.encodePacked(_correctAnswer) */\n      add(0x20, mload(0x40))\n      tag_363\n      swap2\n      swap1\n      tag_229\n      jump\t// in\n    tag_363:\n      mload(0x40)\n      0x20\n      dup2\n      dup4\n      sub\n      sub\n      dup2\n      mstore\n      swap1\n      0x40\n      mstore\n        /* \"moonx/moonx.sol\":3881:3924  keccak256(abi.encodePacked(_correctAnswer)) */\n      dup1\n      mload\n      swap1\n      0x20\n      add\n      keccak256\n        /* \"moonx/moonx.sol\":3881:3960  keccak256(abi.encodePacked(_correctAnswer)) == keccak256(abi.encodePacked(\"A\")) */\n      eq\n        /* \"moonx/moonx.sol\":3881:4055  keccak256(abi.encodePacked(_correctAnswer)) == keccak256(abi.encodePacked(\"A\")) ||... */\n      dup1\n      tag_364\n      jumpi\n      pop\n        /* \"moonx/moonx.sol\":4033:4054  abi.encodePacked(\"B\") */\n      add(0x20, mload(0x40))\n      tag_365\n      swap1\n      tag_366\n      jump\t// in\n    tag_365:\n      mload(0x40)\n      0x20\n      dup2\n      dup4\n      sub\n      sub\n      dup2\n      mstore\n      swap1\n      0x40\n      mstore\n        /* \"moonx/moonx.sol\":4023:4055  keccak256(abi.encodePacked(\"B\")) */\n      dup1\n      mload\n      swap1\n      0x20\n      add\n      keccak256\n        /* \"moonx/moonx.sol\":4003:4017  _correctAnswer */\n      dup2\n        /* \"moonx/moonx.sol\":3986:4018  abi.encodePacked(_correctAnswer) */\n      add(0x20, mload(0x40))\n      tag_367\n      swap2\n      swap1\n      tag_229\n      jump\t// in\n    tag_367:\n      mload(0x40)\n      0x20\n      dup2\n      dup4\n      sub\n      sub\n      dup2\n      mstore\n      swap1\n      0x40\n      mstore\n        /* \"moonx/moonx.sol\":3976:4019  keccak256(abi.encodePacked(_correctAnswer)) */\n      dup1\n      mload\n      swap1\n      0x20\n      add\n      keccak256\n        /* \"moonx/moonx.sol\":3976:4055  keccak256(abi.encodePacked(_correctAnswer)) == keccak256(abi.encodePacked(\"B\")) */\n      eq\n        /* \"moonx/moonx.sol\":3881:4055  keccak256(abi.encodePacked(_correctAnswer)) == keccak256(abi.encodePacked(\"A\")) ||... */\n    tag_364:\n        /* \"moonx/moonx.sol\":3881:4150  keccak256(abi.encodePacked(_correctAnswer)) == keccak256(abi.encodePacked(\"A\")) ||... */\n      dup1\n      tag_368\n      jumpi\n      pop\n        /* \"moonx/moonx.sol\":4128:4149  abi.encodePacked(\"C\") */\n      add(0x20, mload(0x40))\n      tag_369\n      swap1\n      tag_370\n      jump\t// in\n    tag_369:\n      mload(0x40)\n      0x20\n      dup2\n      dup4\n      sub\n      sub\n      dup2\n      mstore\n      swap1\n      0x40\n      mstore\n        /* \"moonx/moonx.sol\":4118:4150  keccak256(abi.encodePacked(\"C\")) */\n      dup1\n      mload\n      swap1\n      0x20\n      add\n      keccak256\n        /* \"moonx/moonx.sol\":4098:4112  _correctAnswer */\n      dup2\n        /* \"moonx/moonx.sol\":4081:4113  abi.encodePacked(_correctAnswer) */\n      add(0x20, mload(0x40))\n      tag_371\n      swap2\n      swap1\n      tag_229\n      jump\t// in\n    tag_371:\n      mload(0x40)\n      0x20\n      dup2\n      dup4\n      sub\n      sub\n      dup2\n      mstore\n      swap1\n      0x40\n      mstore\n        /* \"moonx/moonx.sol\":4071:4114  keccak256(abi.encodePacked(_correctAnswer)) */\n      dup1\n      mload\n      swap1\n      0x20\n      add\n      keccak256\n        /* \"moonx/moonx.sol\":4071:4150  keccak256(abi.encodePacked(_correctAnswer)) == keccak256(abi.encodePacked(\"C\")) */\n      eq\n        /* \"moonx/moonx.sol\":3881:4150  keccak256(abi.encodePacked(_correctAnswer)) == keccak256(abi.encodePacked(\"A\")) ||... */\n    tag_368:\n        /* \"moonx/moonx.sol\":3881:4245  keccak256(abi.encodePacked(_correctAnswer)) == keccak256(abi.encodePacked(\"A\")) ||... */\n      dup1\n      tag_372\n      jumpi\n      pop\n        /* \"moonx/moonx.sol\":4223:4244  abi.encodePacked(\"D\") */\n      add(0x20, mload(0x40))\n      tag_373\n      swap1\n      tag_374\n      jump\t// in\n    tag_373:\n      mload(0x40)\n      0x20\n      dup2\n      dup4\n      sub\n      sub\n      dup2\n      mstore\n      swap1\n      0x40\n      mstore\n        /* \"moonx/moonx.sol\":4213:4245  keccak256(abi.encodePacked(\"D\")) */\n      dup1\n      mload\n      swap1\n      0x20\n      add\n      keccak256\n        /* \"moonx/moonx.sol\":4193:4207  _correctAnswer */\n      dup2\n        /* \"moonx/moonx.sol\":4176:4208  abi.encodePacked(_correctAnswer) */\n      add(0x20, mload(0x40))\n      tag_375\n      swap2\n      swap1\n      tag_229\n      jump\t// in\n    tag_375:\n      mload(0x40)\n      0x20\n      dup2\n      dup4\n      sub\n      sub\n      dup2\n      mstore\n      swap1\n      0x40\n      mstore\n        /* \"moonx/moonx.sol\":4166:4209  keccak256(abi.encodePacked(_correctAnswer)) */\n      dup1\n      mload\n      swap1\n      0x20\n      add\n      keccak256\n        /* \"moonx/moonx.sol\":4166:4245  keccak256(abi.encodePacked(_correctAnswer)) == keccak256(abi.encodePacked(\"D\")) */\n      eq\n        /* \"moonx/moonx.sol\":3881:4245  keccak256(abi.encodePacked(_correctAnswer)) == keccak256(abi.encodePacked(\"A\")) ||... */\n    tag_372:\n        /* \"moonx/moonx.sol\":3860:4293  require(... */\n      tag_376\n      jumpi\n      mload(0x40)\n      0x08c379a000000000000000000000000000000000000000000000000000000000\n      dup2\n      mstore\n      0x04\n      add\n      tag_377\n      swap1\n      tag_378\n      jump\t// in\n    tag_377:\n      mload(0x40)\n      dup1\n      swap2\n      sub\n      swap1\n      revert\n    tag_376:\n        /* \"moonx/moonx.sol\":4304:4323  Quiz memory newQuiz */\n      0x00\n        /* \"moonx/moonx.sol\":4326:4608  Quiz({... */\n      mload(0x40)\n      dup1\n      0xe0\n      add\n      0x40\n      mstore\n      dup1\n        /* \"moonx/moonx.sol\":4355:4364  _courseId */\n      dup10\n        /* \"moonx/moonx.sol\":4326:4608  Quiz({... */\n      dup2\n      mstore\n      0x20\n      add\n        /* \"moonx/moonx.sol\":4388:4397  _question */\n      dup9\n        /* \"moonx/moonx.sol\":4326:4608  Quiz({... */\n      dup2\n      mstore\n      0x20\n      add\n        /* \"moonx/moonx.sol\":4420:4428  _optionA */\n      dup8\n        /* \"moonx/moonx.sol\":4326:4608  Quiz({... */\n      dup2\n      mstore\n      0x20\n      add\n        /* \"moonx/moonx.sol\":4451:4459  _optionB */\n      dup7\n        /* \"moonx/moonx.sol\":4326:4608  Quiz({... */\n      dup2\n      mstore\n      0x20\n      add\n        /* \"moonx/moonx.sol\":4482:4490  _optionC */\n      dup6\n        /* \"moonx/moonx.sol\":4326:4608  Quiz({... */\n      dup2\n      mstore\n      0x20\n      add\n        /* \"moonx/moonx.sol\":4513:4521  _optionD */\n      dup5\n        /* \"moonx/moonx.sol\":4326:4608  Quiz({... */\n      dup2\n      mstore\n      0x20\n      add\n        /* \"moonx/moonx.sol\":4581:4595  _correctAnswer */\n      dup4\n        /* \"moonx/moonx.sol\":4564:4596  abi.encodePacked(_correctAnswer) */\n      add(0x20, mload(0x40))\n      tag_379\n      swap2\n      swap1\n      tag_229\n      jump\t// in\n    tag_379:\n      mload(0x40)\n      0x20\n      dup2\n      dup4\n      sub\n      sub\n      dup2\n      mstore\n      swap1\n      0x40\n      mstore\n        /* \"moonx/moonx.sol\":4554:4597  keccak256(abi.encodePacked(_correctAnswer)) */\n      dup1\n      mload\n      swap1\n      0x20\n      add\n      keccak256\n        /* \"moonx/moonx.sol\":4326:4608  Quiz({... */\n      dup2\n      mstore\n      pop\n        /* \"moonx/moonx.sol\":4304:4608  Quiz memory newQuiz = Quiz({... */\n      swap1\n      pop\n        /* \"moonx/moonx.sol\":4619:4632  courseQuizzes */\n      0x04\n        /* \"moonx/moonx.sol\":4619:4643  courseQuizzes[_courseId] */\n      0x00\n        /* \"moonx/moonx.sol\":4633:4642  _courseId */\n      dup10\n        /* \"moonx/moonx.sol\":4619:4643  courseQuizzes[_courseId] */\n      dup2\n      mstore\n      0x20\n      add\n      swap1\n      dup2\n      mstore\n      0x20\n      add\n      0x00\n      keccak256\n        /* \"moonx/moonx.sol\":4649:4656  newQuiz */\n      dup2\n        /* \"moonx/moonx.sol\":4619:4657  courseQuizzes[_courseId].push(newQuiz) */\n      swap1\n      dup1\n      0x01\n      dup2\n      sload\n      add\n      dup1\n      dup3\n      sstore\n      dup1\n      swap2\n      pop\n      pop\n      0x01\n      swap1\n      sub\n      swap1\n      0x00\n      mstore\n      keccak256(0x00, 0x20)\n      swap1\n      0x07\n      mul\n      add\n      0x00\n      swap1\n      swap2\n      swap1\n      swap2\n      swap1\n      swap2\n      pop\n      0x00\n      dup3\n      add\n      mload\n      dup2\n      0x00\n      add\n      sstore\n      0x20\n      dup3\n      add\n      mload\n      dup2\n      0x01\n      add\n      swap1\n      dup2\n      tag_381\n      swap2\n      swap1\n      tag_281\n      jump\t// in\n    tag_381:\n      pop\n      0x40\n      dup3\n      add\n      mload\n      dup2\n      0x02\n      add\n      swap1\n      dup2\n      tag_382\n      swap2\n      swap1\n      tag_281\n      jump\t// in\n    tag_382:\n      pop\n      0x60\n      dup3\n      add\n      mload\n      dup2\n      0x03\n      add\n      swap1\n      dup2\n      tag_383\n      swap2\n      swap1\n      tag_281\n      jump\t// in\n    tag_383:\n      pop\n      0x80\n      dup3\n      add\n      mload\n      dup2\n      0x04\n      add\n      swap1\n      dup2\n      tag_384\n      swap2\n      swap1\n      tag_281\n      jump\t// in\n    tag_384:\n      pop\n      0xa0\n      dup3\n      add\n      mload\n      dup2\n      0x05\n      add\n      swap1\n      dup2\n      tag_385\n      swap2\n      swap1\n      tag_281\n      jump\t// in\n    tag_385:\n      pop\n      0xc0\n      dup3\n      add\n      mload\n      dup2\n      0x06\n      add\n      sstore\n      pop\n      pop\n        /* \"moonx/moonx.sol\":4667:4681  uint256 quizId */\n      0x00\n        /* \"moonx/moonx.sol\":4718:4719  1 */\n      0x01\n        /* \"moonx/moonx.sol\":4684:4697  courseQuizzes */\n      0x04\n        /* \"moonx/moonx.sol\":4684:4708  courseQuizzes[_courseId] */\n      0x00\n        /* \"moonx/moonx.sol\":4698:4707  _courseId */\n      dup12\n        /* \"moonx/moonx.sol\":4684:4708  courseQuizzes[_courseId] */\n      dup2\n      mstore\n      0x20\n      add\n      swap1\n      dup2\n      mstore\n      0x20\n      add\n      0x00\n      keccak256\n        /* \"moonx/moonx.sol\":4684:4715  courseQuizzes[_courseId].length */\n      dup1\n      sload\n      swap1\n      pop\n        /* \"moonx/moonx.sol\":4684:4719  courseQuizzes[_courseId].length - 1 */\n      tag_386\n      swap2\n      swap1\n      tag_159\n      jump\t// in\n    tag_386:\n        /* \"moonx/moonx.sol\":4667:4719  uint256 quizId = courseQuizzes[_courseId].length - 1 */\n      swap1\n      pop\n        /* \"moonx/moonx.sol\":4746:4755  _courseId */\n      dup9\n        /* \"moonx/moonx.sol\":4734:4764  QuizCreated(_courseId, quizId) */\n      0x8865832f191ae6766f74ad3a536812cffbf608c1dee46454cf0b3b9c98a4b37f\n        /* \"moonx/moonx.sol\":4757:4763  quizId */\n      dup3\n        /* \"moonx/moonx.sol\":4734:4764  QuizCreated(_courseId, quizId) */\n      mload(0x40)\n      tag_387\n      swap2\n      swap1\n      tag_68\n      jump\t// in\n    tag_387:\n      mload(0x40)\n      dup1\n      swap2\n      sub\n      swap1\n      log2\n        /* \"moonx/moonx.sol\":3660:4771  {... */\n      pop\n      pop\n        /* \"moonx/moonx.sol\":3399:4771  function createQuiz(... */\n      pop\n      pop\n      pop\n      pop\n      pop\n      pop\n      pop\n      jump\t// out\n        /* \"moonx/moonx.sol\":7945:8143  function withdrawExcessTokens(uint256 _amount) external onlyOwner {... */\n    tag_139:\n        /* \"@openzeppelin/contracts/access/Ownable.sol\":1531:1544  _checkOwner() */\n      tag_389\n        /* \"@openzeppelin/contracts/access/Ownable.sol\":1531:1542  _checkOwner */\n      tag_171\n        /* \"@openzeppelin/contracts/access/Ownable.sol\":1531:1544  _checkOwner() */\n      jump\t// in\n    tag_389:\n        /* \"moonx/moonx.sol\":8022:8034  bool success */\n      0x00\n        /* \"moonx/moonx.sol\":8048:8055  owner() */\n      tag_391\n        /* \"moonx/moonx.sol\":8048:8053  owner */\n      tag_91\n        /* \"moonx/moonx.sol\":8048:8055  owner() */\n      jump\t// in\n    tag_391:\n        /* \"moonx/moonx.sol\":8040:8061  payable(owner()).call */\n      0xffffffffffffffffffffffffffffffffffffffff\n      and\n        /* \"moonx/moonx.sol\":8069:8076  _amount */\n      dup3\n        /* \"moonx/moonx.sol\":8040:8081  payable(owner()).call{value: _amount}(\"\") */\n      mload(0x40)\n      tag_392\n      swap1\n      tag_161\n      jump\t// in\n    tag_392:\n      0x00\n      mload(0x40)\n      dup1\n      dup4\n      sub\n      dup2\n      dup6\n      dup8\n      gas\n      call\n      swap3\n      pop\n      pop\n      pop\n      returndatasize\n      dup1\n      0x00\n      dup2\n      eq\n      tag_395\n      jumpi\n      mload(0x40)\n      swap2\n      pop\n      and(add(returndatasize, 0x3f), not(0x1f))\n      dup3\n      add\n      0x40\n      mstore\n      returndatasize\n      dup3\n      mstore\n      returndatasize\n      0x00\n      0x20\n      dup5\n      add\n      returndatacopy\n      jump(tag_394)\n    tag_395:\n      0x60\n      swap2\n      pop\n    tag_394:\n      pop\n        /* \"moonx/moonx.sol\":8021:8081  (bool success, ) = payable(owner()).call{value: _amount}(\"\") */\n      pop\n      swap1\n      pop\n        /* \"moonx/moonx.sol\":8099:8106  success */\n      dup1\n        /* \"moonx/moonx.sol\":8091:8136  require(success, \"Failed to withdraw tokens\") */\n      tag_396\n      jumpi\n      mload(0x40)\n      0x08c379a000000000000000000000000000000000000000000000000000000000\n      dup2\n      mstore\n      0x04\n      add\n      tag_397\n      swap1\n      tag_398\n      jump\t// in\n    tag_397:\n      mload(0x40)\n      dup1\n      swap2\n      sub\n      swap1\n      revert\n    tag_396:\n        /* \"moonx/moonx.sol\":8011:8143  {... */\n      pop\n        /* \"moonx/moonx.sol\":7945:8143  function withdrawExcessTokens(uint256 _amount) external onlyOwner {... */\n      pop\n      jump\t// out\n        /* \"@openzeppelin/contracts/access/Ownable.sol\":2543:2758  function transferOwnership(address newOwner) public virtual onlyOwner {... */\n    tag_143:\n        /* \"@openzeppelin/contracts/access/Ownable.sol\":1531:1544  _checkOwner() */\n      tag_400\n        /* \"@openzeppelin/contracts/access/Ownable.sol\":1531:1542  _checkOwner */\n      tag_171\n        /* \"@openzeppelin/contracts/access/Ownable.sol\":1531:1544  _checkOwner() */\n      jump\t// in\n    tag_400:\n        /* \"@openzeppelin/contracts/access/Ownable.sol\":2647:2648  0 */\n      0x00\n        /* \"@openzeppelin/contracts/access/Ownable.sol\":2627:2649  newOwner == address(0) */\n      0xffffffffffffffffffffffffffffffffffffffff\n      and\n        /* \"@openzeppelin/contracts/access/Ownable.sol\":2627:2635  newOwner */\n      dup2\n        /* \"@openzeppelin/contracts/access/Ownable.sol\":2627:2649  newOwner == address(0) */\n      0xffffffffffffffffffffffffffffffffffffffff\n      and\n      sub\n        /* \"@openzeppelin/contracts/access/Ownable.sol\":2623:2714  if (newOwner == address(0)) {... */\n      tag_402\n      jumpi\n        /* \"@openzeppelin/contracts/access/Ownable.sol\":2700:2701  0 */\n      0x00\n        /* \"@openzeppelin/contracts/access/Ownable.sol\":2672:2703  OwnableInvalidOwner(address(0)) */\n      mload(0x40)\n      0x1e4fbdf700000000000000000000000000000000000000000000000000000000\n      dup2\n      mstore\n      0x04\n      add\n      tag_403\n      swap2\n      swap1\n      tag_93\n      jump\t// in\n    tag_403:\n      mload(0x40)\n      dup1\n      swap2\n      sub\n      swap1\n      revert\n        /* \"@openzeppelin/contracts/access/Ownable.sol\":2623:2714  if (newOwner == address(0)) {... */\n    tag_402:\n        /* \"@openzeppelin/contracts/access/Ownable.sol\":2723:2751  _transferOwnership(newOwner) */\n      tag_404\n        /* \"@openzeppelin/contracts/access/Ownable.sol\":2742:2750  newOwner */\n      dup2\n        /* \"@openzeppelin/contracts/access/Ownable.sol\":2723:2741  _transferOwnership */\n      tag_257\n        /* \"@openzeppelin/contracts/access/Ownable.sol\":2723:2751  _transferOwnership(newOwner) */\n      jump\t// in\n    tag_404:\n        /* \"@openzeppelin/contracts/access/Ownable.sol\":2543:2758  function transferOwnership(address newOwner) public virtual onlyOwner {... */\n      pop\n      jump\t// out\n        /* \"moonx/moonx.sol\":478:534  uint256 public constant STUDENT_REWARD_AMOUNT = 10 ether */\n    tag_146:\n        /* \"moonx/moonx.sol\":526:534  10 ether */\n      0x8ac7230489e80000\n        /* \"moonx/moonx.sol\":478:534  uint256 public constant STUDENT_REWARD_AMOUNT = 10 ether */\n      dup2\n      jump\t// out\n        /* \"@openzeppelin/contracts/security/Pausable.sol\":1767:1873  function _requireNotPaused() internal view virtual {... */\n    tag_150:\n        /* \"@openzeppelin/contracts/security/Pausable.sol\":1837:1845  paused() */\n      tag_406\n        /* \"@openzeppelin/contracts/security/Pausable.sol\":1837:1843  paused */\n      tag_51\n        /* \"@openzeppelin/contracts/security/Pausable.sol\":1837:1845  paused() */\n      jump\t// in\n    tag_406:\n        /* \"@openzeppelin/contracts/security/Pausable.sol\":1836:1845  !paused() */\n      iszero\n        /* \"@openzeppelin/contracts/security/Pausable.sol\":1828:1866  require(!paused(), \"Pausable: paused\") */\n      tag_407\n      jumpi\n      mload(0x40)\n      0x08c379a000000000000000000000000000000000000000000000000000000000\n      dup2\n      mstore\n      0x04\n      add\n      tag_408\n      swap1\n      tag_409\n      jump\t// in\n    tag_408:\n      mload(0x40)\n      dup1\n      swap2\n      sub\n      swap1\n      revert\n    tag_407:\n        /* \"@openzeppelin/contracts/security/Pausable.sol\":1767:1873  function _requireNotPaused() internal view virtual {... */\n      jump\t// out\n        /* \"@openzeppelin/contracts/access/Ownable.sol\":1796:1958  function _checkOwner() internal view virtual {... */\n    tag_171:\n        /* \"@openzeppelin/contracts/access/Ownable.sol\":1866:1878  _msgSender() */\n      tag_411\n        /* \"@openzeppelin/contracts/access/Ownable.sol\":1866:1876  _msgSender */\n      tag_412\n        /* \"@openzeppelin/contracts/access/Ownable.sol\":1866:1878  _msgSender() */\n      jump\t// in\n    tag_411:\n        /* \"@openzeppelin/contracts/access/Ownable.sol\":1855:1878  owner() != _msgSender() */\n      0xffffffffffffffffffffffffffffffffffffffff\n      and\n        /* \"@openzeppelin/contracts/access/Ownable.sol\":1855:1862  owner() */\n      tag_413\n        /* \"@openzeppelin/contracts/access/Ownable.sol\":1855:1860  owner */\n      tag_91\n        /* \"@openzeppelin/contracts/access/Ownable.sol\":1855:1862  owner() */\n      jump\t// in\n    tag_413:\n        /* \"@openzeppelin/contracts/access/Ownable.sol\":1855:1878  owner() != _msgSender() */\n      0xffffffffffffffffffffffffffffffffffffffff\n      and\n      eq\n        /* \"@openzeppelin/contracts/access/Ownable.sol\":1851:1952  if (owner() != _msgSender()) {... */\n      tag_414\n      jumpi\n        /* \"@openzeppelin/contracts/access/Ownable.sol\":1928:1940  _msgSender() */\n      tag_415\n        /* \"@openzeppelin/contracts/access/Ownable.sol\":1928:1938  _msgSender */\n      tag_412\n        /* \"@openzeppelin/contracts/access/Ownable.sol\":1928:1940  _msgSender() */\n      jump\t// in\n    tag_415:\n        /* \"@openzeppelin/contracts/access/Ownable.sol\":1901:1941  OwnableUnauthorizedAccount(_msgSender()) */\n      mload(0x40)\n      0x118cdaa700000000000000000000000000000000000000000000000000000000\n      dup2\n      mstore\n      0x04\n      add\n      tag_416\n      swap2\n      swap1\n      tag_93\n      jump\t// in\n    tag_416:\n      mload(0x40)\n      dup1\n      swap2\n      sub\n      swap1\n      revert\n        /* \"@openzeppelin/contracts/access/Ownable.sol\":1851:1952  if (owner() != _msgSender()) {... */\n    tag_414:\n        /* \"@openzeppelin/contracts/access/Ownable.sol\":1796:1958  function _checkOwner() internal view virtual {... */\n      jump\t// out\n        /* \"@openzeppelin/contracts/security/Pausable.sol\":2433:2550  function _unpause() internal virtual whenPaused {... */\n    tag_174:\n        /* \"@openzeppelin/contracts/security/Pausable.sol\":1486:1502  _requirePaused() */\n      tag_418\n        /* \"@openzeppelin/contracts/security/Pausable.sol\":1486:1500  _requirePaused */\n      tag_419\n        /* \"@openzeppelin/contracts/security/Pausable.sol\":1486:1502  _requirePaused() */\n      jump\t// in\n    tag_418:\n        /* \"@openzeppelin/contracts/security/Pausable.sol\":2501:2506  false */\n      0x00\n        /* \"@openzeppelin/contracts/security/Pausable.sol\":2491:2498  _paused */\n      dup1\n      0x14\n        /* \"@openzeppelin/contracts/security/Pausable.sol\":2491:2506  _paused = false */\n      0x0100\n      exp\n      dup2\n      sload\n      dup2\n      0xff\n      mul\n      not\n      and\n      swap1\n      dup4\n      iszero\n      iszero\n      mul\n      or\n      swap1\n      sstore\n      pop\n        /* \"@openzeppelin/contracts/security/Pausable.sol\":2521:2543  Unpaused(_msgSender()) */\n      0x5db9ee0a495bf2e6ff9c91a7834c1ba4fdd244a5e8aa4e537bd38aeae4b073aa\n        /* \"@openzeppelin/contracts/security/Pausable.sol\":2530:2542  _msgSender() */\n      tag_421\n        /* \"@openzeppelin/contracts/security/Pausable.sol\":2530:2540  _msgSender */\n      tag_412\n        /* \"@openzeppelin/contracts/security/Pausable.sol\":2530:2542  _msgSender() */\n      jump\t// in\n    tag_421:\n        /* \"@openzeppelin/contracts/security/Pausable.sol\":2521:2543  Unpaused(_msgSender()) */\n      mload(0x40)\n      tag_422\n      swap2\n      swap1\n      tag_93\n      jump\t// in\n    tag_422:\n      mload(0x40)\n      dup1\n      swap2\n      sub\n      swap1\n      log1\n        /* \"@openzeppelin/contracts/security/Pausable.sol\":2433:2550  function _unpause() internal virtual whenPaused {... */\n      jump\t// out\n        /* \"@openzeppelin/contracts/access/Ownable.sol\":2912:3099  function _transferOwnership(address newOwner) internal virtual {... */\n    tag_257:\n        /* \"@openzeppelin/contracts/access/Ownable.sol\":2985:3001  address oldOwner */\n      0x00\n        /* \"@openzeppelin/contracts/access/Ownable.sol\":3004:3010  _owner */\n      dup1\n      0x00\n      swap1\n      sload\n      swap1\n      0x0100\n      exp\n      swap1\n      div\n      0xffffffffffffffffffffffffffffffffffffffff\n      and\n        /* \"@openzeppelin/contracts/access/Ownable.sol\":2985:3010  address oldOwner = _owner */\n      swap1\n      pop\n        /* \"@openzeppelin/contracts/access/Ownable.sol\":3029:3037  newOwner */\n      dup2\n        /* \"@openzeppelin/contracts/access/Ownable.sol\":3020:3026  _owner */\n      0x00\n      dup1\n        /* \"@openzeppelin/contracts/access/Ownable.sol\":3020:3037  _owner = newOwner */\n      0x0100\n      exp\n      dup2\n      sload\n      dup2\n      0xffffffffffffffffffffffffffffffffffffffff\n      mul\n      not\n      and\n      swap1\n      dup4\n      0xffffffffffffffffffffffffffffffffffffffff\n      and\n      mul\n      or\n      swap1\n      sstore\n      pop\n        /* \"@openzeppelin/contracts/access/Ownable.sol\":3083:3091  newOwner */\n      dup2\n        /* \"@openzeppelin/contracts/access/Ownable.sol\":3052:3092  OwnershipTransferred(oldOwner, newOwner) */\n      0xffffffffffffffffffffffffffffffffffffffff\n      and\n        /* \"@openzeppelin/contracts/access/Ownable.sol\":3073:3081  oldOwner */\n      dup2\n        /* \"@openzeppelin/contracts/access/Ownable.sol\":3052:3092  OwnershipTransferred(oldOwner, newOwner) */\n      0xffffffffffffffffffffffffffffffffffffffff\n      and\n      0x8be0079c531659141344cd1fd0a4f28419497f9722a3daafe3b4186f6b6457e0\n      mload(0x40)\n      mload(0x40)\n      dup1\n      swap2\n      sub\n      swap1\n      log3\n        /* \"@openzeppelin/contracts/access/Ownable.sol\":2975:3099  {... */\n      pop\n        /* \"@openzeppelin/contracts/access/Ownable.sol\":2912:3099  function _transferOwnership(address newOwner) internal virtual {... */\n      pop\n      jump\t// out\n        /* \"@openzeppelin/contracts/security/Pausable.sol\":2186:2301  function _pause() internal virtual whenNotPaused {... */\n    tag_268:\n        /* \"@openzeppelin/contracts/security/Pausable.sol\":1239:1258  _requireNotPaused() */\n      tag_425\n        /* \"@openzeppelin/contracts/security/Pausable.sol\":1239:1256  _requireNotPaused */\n      tag_150\n        /* \"@openzeppelin/contracts/security/Pausable.sol\":1239:1258  _requireNotPaused() */\n      jump\t// in\n    tag_425:\n        /* \"@openzeppelin/contracts/security/Pausable.sol\":2255:2259  true */\n      0x01\n        /* \"@openzeppelin/contracts/security/Pausable.sol\":2245:2252  _paused */\n      0x00\n      0x14\n        /* \"@openzeppelin/contracts/security/Pausable.sol\":2245:2259  _paused = true */\n      0x0100\n      exp\n      dup2\n      sload\n      dup2\n      0xff\n      mul\n      not\n      and\n      swap1\n      dup4\n      iszero\n      iszero\n      mul\n      or\n      swap1\n      sstore\n      pop\n        /* \"@openzeppelin/contracts/security/Pausable.sol\":2274:2294  Paused(_msgSender()) */\n      0x62e78cea01bee320cd4e420270b5ea74000d11b0c9f74754ebdbfc544b05a258\n        /* \"@openzeppelin/contracts/security/Pausable.sol\":2281:2293  _msgSender() */\n      tag_427\n        /* \"@openzeppelin/contracts/security/Pausable.sol\":2281:2291  _msgSender */\n      tag_412\n        /* \"@openzeppelin/contracts/security/Pausable.sol\":2281:2293  _msgSender() */\n      jump\t// in\n    tag_427:\n        /* \"@openzeppelin/contracts/security/Pausable.sol\":2274:2294  Paused(_msgSender()) */\n      mload(0x40)\n      tag_428\n      swap2\n      swap1\n      tag_93\n      jump\t// in\n    tag_428:\n      mload(0x40)\n      dup1\n      swap2\n      sub\n      swap1\n      log1\n        /* \"@openzeppelin/contracts/security/Pausable.sol\":2186:2301  function _pause() internal virtual whenNotPaused {... */\n      jump\t// out\n        /* \"@openzeppelin/contracts/utils/Context.sol\":656:752  function _msgSender() internal view virtual returns (address) {... */\n    tag_412:\n        /* \"@openzeppelin/contracts/utils/Context.sol\":709:716  address */\n      0x00\n        /* \"@openzeppelin/contracts/utils/Context.sol\":735:745  msg.sender */\n      caller\n        /* \"@openzeppelin/contracts/utils/Context.sol\":728:745  return msg.sender */\n      swap1\n      pop\n        /* \"@openzeppelin/contracts/utils/Context.sol\":656:752  function _msgSender() internal view virtual returns (address) {... */\n      swap1\n      jump\t// out\n        /* \"@openzeppelin/contracts/security/Pausable.sol\":1945:2051  function _requirePaused() internal view virtual {... */\n    tag_419:\n        /* \"@openzeppelin/contracts/security/Pausable.sol\":2011:2019  paused() */\n      tag_431\n        /* \"@openzeppelin/contracts/security/Pausable.sol\":2011:2017  paused */\n      tag_51\n        /* \"@openzeppelin/contracts/security/Pausable.sol\":2011:2019  paused() */\n      jump\t// in\n    tag_431:\n        /* \"@openzeppelin/contracts/security/Pausable.sol\":2003:2044  require(paused(), \"Pausable: not paused\") */\n      tag_432\n      jumpi\n      mload(0x40)\n      0x08c379a000000000000000000000000000000000000000000000000000000000\n      dup2\n      mstore\n      0x04\n      add\n      tag_433\n      swap1\n      tag_434\n      jump\t// in\n    tag_433:\n      mload(0x40)\n      dup1\n      swap2\n      sub\n      swap1\n      revert\n    tag_432:\n        /* \"@openzeppelin/contracts/security/Pausable.sol\":1945:2051  function _requirePaused() internal view virtual {... */\n      jump\t// out\n        /* \"#utility.yul\":7:82   */\n    tag_435:\n        /* \"#utility.yul\":40:46   */\n      0x00\n        /* \"#utility.yul\":73:75   */\n      0x40\n        /* \"#utility.yul\":67:76   */\n      mload\n        /* \"#utility.yul\":57:76   */\n      swap1\n      pop\n        /* \"#utility.yul\":7:82   */\n      swap1\n      jump\t// out\n        /* \"#utility.yul\":88:205   */\n    tag_436:\n        /* \"#utility.yul\":197:198   */\n      0x00\n        /* \"#utility.yul\":194:195   */\n      dup1\n        /* \"#utility.yul\":187:199   */\n      revert\n        /* \"#utility.yul\":211:328   */\n    tag_437:\n        /* \"#utility.yul\":320:321   */\n      0x00\n        /* \"#utility.yul\":317:318   */\n      dup1\n        /* \"#utility.yul\":310:322   */\n      revert\n        /* \"#utility.yul\":334:411   */\n    tag_438:\n        /* \"#utility.yul\":371:378   */\n      0x00\n        /* \"#utility.yul\":400:405   */\n      dup2\n        /* \"#utility.yul\":389:405   */\n      swap1\n      pop\n        /* \"#utility.yul\":334:411   */\n      swap2\n      swap1\n      pop\n      jump\t// out\n        /* \"#utility.yul\":417:539   */\n    tag_439:\n        /* \"#utility.yul\":490:514   */\n      tag_554\n        /* \"#utility.yul\":508:513   */\n      dup2\n        /* \"#utility.yul\":490:514   */\n      tag_438\n      jump\t// in\n    tag_554:\n        /* \"#utility.yul\":483:488   */\n      dup2\n        /* \"#utility.yul\":480:515   */\n      eq\n        /* \"#utility.yul\":470:533   */\n      tag_555\n      jumpi\n        /* \"#utility.yul\":529:530   */\n      0x00\n        /* \"#utility.yul\":526:527   */\n      dup1\n        /* \"#utility.yul\":519:531   */\n      revert\n        /* \"#utility.yul\":470:533   */\n    tag_555:\n        /* \"#utility.yul\":417:539   */\n      pop\n      jump\t// out\n        /* \"#utility.yul\":545:684   */\n    tag_440:\n        /* \"#utility.yul\":591:596   */\n      0x00\n        /* \"#utility.yul\":629:635   */\n      dup2\n        /* \"#utility.yul\":616:636   */\n      calldataload\n        /* \"#utility.yul\":607:636   */\n      swap1\n      pop\n        /* \"#utility.yul\":645:678   */\n      tag_557\n        /* \"#utility.yul\":672:677   */\n      dup2\n        /* \"#utility.yul\":645:678   */\n      tag_439\n      jump\t// in\n    tag_557:\n        /* \"#utility.yul\":545:684   */\n      swap3\n      swap2\n      pop\n      pop\n      jump\t// out\n        /* \"#utility.yul\":690:1164   */\n    tag_37:\n        /* \"#utility.yul\":758:764   */\n      0x00\n        /* \"#utility.yul\":766:772   */\n      dup1\n        /* \"#utility.yul\":815:817   */\n      0x40\n        /* \"#utility.yul\":803:812   */\n      dup4\n        /* \"#utility.yul\":794:801   */\n      dup6\n        /* \"#utility.yul\":790:813   */\n      sub\n        /* \"#utility.yul\":786:818   */\n      slt\n        /* \"#utility.yul\":783:902   */\n      iszero\n      tag_559\n      jumpi\n        /* \"#utility.yul\":821:900   */\n      tag_560\n      tag_436\n      jump\t// in\n    tag_560:\n        /* \"#utility.yul\":783:902   */\n    tag_559:\n        /* \"#utility.yul\":941:942   */\n      0x00\n        /* \"#utility.yul\":966:1019   */\n      tag_561\n        /* \"#utility.yul\":1011:1018   */\n      dup6\n        /* \"#utility.yul\":1002:1008   */\n      dup3\n        /* \"#utility.yul\":991:1000   */\n      dup7\n        /* \"#utility.yul\":987:1009   */\n      add\n        /* \"#utility.yul\":966:1019   */\n      tag_440\n      jump\t// in\n    tag_561:\n        /* \"#utility.yul\":956:1019   */\n      swap3\n      pop\n        /* \"#utility.yul\":912:1029   */\n      pop\n        /* \"#utility.yul\":1068:1070   */\n      0x20\n        /* \"#utility.yul\":1094:1147   */\n      tag_562\n        /* \"#utility.yul\":1139:1146   */\n      dup6\n        /* \"#utility.yul\":1130:1136   */\n      dup3\n        /* \"#utility.yul\":1119:1128   */\n      dup7\n        /* \"#utility.yul\":1115:1137   */\n      add\n        /* \"#utility.yul\":1094:1147   */\n      tag_440\n      jump\t// in\n    tag_562:\n        /* \"#utility.yul\":1084:1147   */\n      swap2\n      pop\n        /* \"#utility.yul\":1039:1157   */\n      pop\n        /* \"#utility.yul\":690:1164   */\n      swap3\n      pop\n      swap3\n      swap1\n      pop\n      jump\t// out\n        /* \"#utility.yul\":1170:1296   */\n    tag_441:\n        /* \"#utility.yul\":1207:1214   */\n      0x00\n        /* \"#utility.yul\":1247:1289   */\n      0xffffffffffffffffffffffffffffffffffffffff\n        /* \"#utility.yul\":1240:1245   */\n      dup3\n        /* \"#utility.yul\":1236:1290   */\n      and\n        /* \"#utility.yul\":1225:1290   */\n      swap1\n      pop\n        /* \"#utility.yul\":1170:1296   */\n      swap2\n      swap1\n      pop\n      jump\t// out\n        /* \"#utility.yul\":1302:1398   */\n    tag_442:\n        /* \"#utility.yul\":1339:1346   */\n      0x00\n        /* \"#utility.yul\":1368:1392   */\n      tag_565\n        /* \"#utility.yul\":1386:1391   */\n      dup3\n        /* \"#utility.yul\":1368:1392   */\n      tag_441\n      jump\t// in\n    tag_565:\n        /* \"#utility.yul\":1357:1392   */\n      swap1\n      pop\n        /* \"#utility.yul\":1302:1398   */\n      swap2\n      swap1\n      pop\n      jump\t// out\n        /* \"#utility.yul\":1404:1526   */\n    tag_443:\n        /* \"#utility.yul\":1477:1501   */\n      tag_567\n        /* \"#utility.yul\":1495:1500   */\n      dup2\n        /* \"#utility.yul\":1477:1501   */\n      tag_442\n      jump\t// in\n    tag_567:\n        /* \"#utility.yul\":1470:1475   */\n      dup2\n        /* \"#utility.yul\":1467:1502   */\n      eq\n        /* \"#utility.yul\":1457:1520   */\n      tag_568\n      jumpi\n        /* \"#utility.yul\":1516:1517   */\n      0x00\n        /* \"#utility.yul\":1513:1514   */\n      dup1\n        /* \"#utility.yul\":1506:1518   */\n      revert\n        /* \"#utility.yul\":1457:1520   */\n    tag_568:\n        /* \"#utility.yul\":1404:1526   */\n      pop\n      jump\t// out\n        /* \"#utility.yul\":1532:1671   */\n    tag_444:\n        /* \"#utility.yul\":1578:1583   */\n      0x00\n        /* \"#utility.yul\":1616:1622   */\n      dup2\n        /* \"#utility.yul\":1603:1623   */\n      calldataload\n        /* \"#utility.yul\":1594:1623   */\n      swap1\n      pop\n        /* \"#utility.yul\":1632:1665   */\n      tag_570\n        /* \"#utility.yul\":1659:1664   */\n      dup2\n        /* \"#utility.yul\":1632:1665   */\n      tag_443\n      jump\t// in\n    tag_570:\n        /* \"#utility.yul\":1532:1671   */\n      swap3\n      swap2\n      pop\n      pop\n      jump\t// out\n        /* \"#utility.yul\":1677:2151   */\n    tag_42:\n        /* \"#utility.yul\":1745:1751   */\n      0x00\n        /* \"#utility.yul\":1753:1759   */\n      dup1\n        /* \"#utility.yul\":1802:1804   */\n      0x40\n        /* \"#utility.yul\":1790:1799   */\n      dup4\n        /* \"#utility.yul\":1781:1788   */\n      dup6\n        /* \"#utility.yul\":1777:1800   */\n      sub\n        /* \"#utility.yul\":1773:1805   */\n      slt\n        /* \"#utility.yul\":1770:1889   */\n      iszero\n      tag_572\n      jumpi\n        /* \"#utility.yul\":1808:1887   */\n      tag_573\n      tag_436\n      jump\t// in\n    tag_573:\n        /* \"#utility.yul\":1770:1889   */\n    tag_572:\n        /* \"#utility.yul\":1928:1929   */\n      0x00\n        /* \"#utility.yul\":1953:2006   */\n      tag_574\n        /* \"#utility.yul\":1998:2005   */\n      dup6\n        /* \"#utility.yul\":1989:1995   */\n      dup3\n        /* \"#utility.yul\":1978:1987   */\n      dup7\n        /* \"#utility.yul\":1974:1996   */\n      add\n        /* \"#utility.yul\":1953:2006   */\n      tag_444\n      jump\t// in\n    tag_574:\n        /* \"#utility.yul\":1943:2006   */\n      swap3\n      pop\n        /* \"#utility.yul\":1899:2016   */\n      pop\n        /* \"#utility.yul\":2055:2057   */\n      0x20\n        /* \"#utility.yul\":2081:2134   */\n      tag_575\n        /* \"#utility.yul\":2126:2133   */\n      dup6\n        /* \"#utility.yul\":2117:2123   */\n      dup3\n        /* \"#utility.yul\":2106:2115   */\n      dup7\n        /* \"#utility.yul\":2102:2124   */\n      add\n        /* \"#utility.yul\":2081:2134   */\n      tag_440\n      jump\t// in\n    tag_575:\n        /* \"#utility.yul\":2071:2134   */\n      swap2\n      pop\n        /* \"#utility.yul\":2026:2144   */\n      pop\n        /* \"#utility.yul\":1677:2151   */\n      swap3\n      pop\n      swap3\n      swap1\n      pop\n      jump\t// out\n        /* \"#utility.yul\":2157:2247   */\n    tag_445:\n        /* \"#utility.yul\":2191:2198   */\n      0x00\n        /* \"#utility.yul\":2234:2239   */\n      dup2\n        /* \"#utility.yul\":2227:2240   */\n      iszero\n        /* \"#utility.yul\":2220:2241   */\n      iszero\n        /* \"#utility.yul\":2209:2241   */\n      swap1\n      pop\n        /* \"#utility.yul\":2157:2247   */\n      swap2\n      swap1\n      pop\n      jump\t// out\n        /* \"#utility.yul\":2253:2362   */\n    tag_446:\n        /* \"#utility.yul\":2334:2355   */\n      tag_578\n        /* \"#utility.yul\":2349:2354   */\n      dup2\n        /* \"#utility.yul\":2334:2355   */\n      tag_445\n      jump\t// in\n    tag_578:\n        /* \"#utility.yul\":2329:2332   */\n      dup3\n        /* \"#utility.yul\":2322:2356   */\n      mstore\n        /* \"#utility.yul\":2253:2362   */\n      pop\n      pop\n      jump\t// out\n        /* \"#utility.yul\":2368:2454   */\n    tag_447:\n        /* \"#utility.yul\":2403:2410   */\n      0x00\n        /* \"#utility.yul\":2443:2447   */\n      0xff\n        /* \"#utility.yul\":2436:2441   */\n      dup3\n        /* \"#utility.yul\":2432:2448   */\n      and\n        /* \"#utility.yul\":2421:2448   */\n      swap1\n      pop\n        /* \"#utility.yul\":2368:2454   */\n      swap2\n      swap1\n      pop\n      jump\t// out\n        /* \"#utility.yul\":2460:2572   */\n    tag_448:\n        /* \"#utility.yul\":2543:2565   */\n      tag_581\n        /* \"#utility.yul\":2559:2564   */\n      dup2\n        /* \"#utility.yul\":2543:2565   */\n      tag_447\n      jump\t// in\n    tag_581:\n        /* \"#utility.yul\":2538:2541   */\n      dup3\n        /* \"#utility.yul\":2531:2566   */\n      mstore\n        /* \"#utility.yul\":2460:2572   */\n      pop\n      pop\n      jump\t// out\n        /* \"#utility.yul\":2578:3087   */\n    tag_45:\n        /* \"#utility.yul\":2733:2737   */\n      0x00\n        /* \"#utility.yul\":2771:2774   */\n      0x80\n        /* \"#utility.yul\":2760:2769   */\n      dup3\n        /* \"#utility.yul\":2756:2775   */\n      add\n        /* \"#utility.yul\":2748:2775   */\n      swap1\n      pop\n        /* \"#utility.yul\":2785:2850   */\n      tag_583\n        /* \"#utility.yul\":2847:2848   */\n      0x00\n        /* \"#utility.yul\":2836:2845   */\n      dup4\n        /* \"#utility.yul\":2832:2849   */\n      add\n        /* \"#utility.yul\":2823:2829   */\n      dup8\n        /* \"#utility.yul\":2785:2850   */\n      tag_446\n      jump\t// in\n    tag_583:\n        /* \"#utility.yul\":2860:2928   */\n      tag_584\n        /* \"#utility.yul\":2924:2926   */\n      0x20\n        /* \"#utility.yul\":2913:2922   */\n      dup4\n        /* \"#utility.yul\":2909:2927   */\n      add\n        /* \"#utility.yul\":2900:2906   */\n      dup7\n        /* \"#utility.yul\":2860:2928   */\n      tag_448\n      jump\t// in\n    tag_584:\n        /* \"#utility.yul\":2938:3004   */\n      tag_585\n        /* \"#utility.yul\":3000:3002   */\n      0x40\n        /* \"#utility.yul\":2989:2998   */\n      dup4\n        /* \"#utility.yul\":2985:3003   */\n      add\n        /* \"#utility.yul\":2976:2982   */\n      dup6\n        /* \"#utility.yul\":2938:3004   */\n      tag_446\n      jump\t// in\n    tag_585:\n        /* \"#utility.yul\":3014:3080   */\n      tag_586\n        /* \"#utility.yul\":3076:3078   */\n      0x60\n        /* \"#utility.yul\":3065:3074   */\n      dup4\n        /* \"#utility.yul\":3061:3079   */\n      add\n        /* \"#utility.yul\":3052:3058   */\n      dup5\n        /* \"#utility.yul\":3014:3080   */\n      tag_446\n      jump\t// in\n    tag_586:\n        /* \"#utility.yul\":2578:3087   */\n      swap6\n      swap5\n      pop\n      pop\n      pop\n      pop\n      pop\n      jump\t// out\n        /* \"#utility.yul\":3093:3303   */\n    tag_53:\n        /* \"#utility.yul\":3180:3184   */\n      0x00\n        /* \"#utility.yul\":3218:3220   */\n      0x20\n        /* \"#utility.yul\":3207:3216   */\n      dup3\n        /* \"#utility.yul\":3203:3221   */\n      add\n        /* \"#utility.yul\":3195:3221   */\n      swap1\n      pop\n        /* \"#utility.yul\":3231:3296   */\n      tag_588\n        /* \"#utility.yul\":3293:3294   */\n      0x00\n        /* \"#utility.yul\":3282:3291   */\n      dup4\n        /* \"#utility.yul\":3278:3295   */\n      add\n        /* \"#utility.yul\":3269:3275   */\n      dup5\n        /* \"#utility.yul\":3231:3296   */\n      tag_446\n      jump\t// in\n    tag_588:\n        /* \"#utility.yul\":3093:3303   */\n      swap3\n      swap2\n      pop\n      pop\n      jump\t// out\n        /* \"#utility.yul\":3309:3426   */\n    tag_449:\n        /* \"#utility.yul\":3418:3419   */\n      0x00\n        /* \"#utility.yul\":3415:3416   */\n      dup1\n        /* \"#utility.yul\":3408:3420   */\n      revert\n        /* \"#utility.yul\":3432:3534   */\n    tag_450:\n        /* \"#utility.yul\":3473:3479   */\n      0x00\n        /* \"#utility.yul\":3524:3526   */\n      0x1f\n        /* \"#utility.yul\":3520:3527   */\n      not\n        /* \"#utility.yul\":3515:3517   */\n      0x1f\n        /* \"#utility.yul\":3508:3513   */\n      dup4\n        /* \"#utility.yul\":3504:3518   */\n      add\n        /* \"#utility.yul\":3500:3528   */\n      and\n        /* \"#utility.yul\":3490:3528   */\n      swap1\n      pop\n        /* \"#utility.yul\":3432:3534   */\n      swap2\n      swap1\n      pop\n      jump\t// out\n        /* \"#utility.yul\":3540:3720   */\n    tag_451:\n        /* \"#utility.yul\":3588:3665   */\n      0x4e487b7100000000000000000000000000000000000000000000000000000000\n        /* \"#utility.yul\":3585:3586   */\n      0x00\n        /* \"#utility.yul\":3578:3666   */\n      mstore\n        /* \"#utility.yul\":3685:3689   */\n      0x41\n        /* \"#utility.yul\":3682:3683   */\n      0x04\n        /* \"#utility.yul\":3675:3690   */\n      mstore\n        /* \"#utility.yul\":3709:3713   */\n      0x24\n        /* \"#utility.yul\":3706:3707   */\n      0x00\n        /* \"#utility.yul\":3699:3714   */\n      revert\n        /* \"#utility.yul\":3726:4007   */\n    tag_452:\n        /* \"#utility.yul\":3809:3836   */\n      tag_593\n        /* \"#utility.yul\":3831:3835   */\n      dup3\n        /* \"#utility.yul\":3809:3836   */\n      tag_450\n      jump\t// in\n    tag_593:\n        /* \"#utility.yul\":3801:3807   */\n      dup2\n        /* \"#utility.yul\":3797:3837   */\n      add\n        /* \"#utility.yul\":3939:3945   */\n      dup2\n        /* \"#utility.yul\":3927:3937   */\n      dup2\n        /* \"#utility.yul\":3924:3946   */\n      lt\n        /* \"#utility.yul\":3903:3921   */\n      0xffffffffffffffff\n        /* \"#utility.yul\":3891:3901   */\n      dup3\n        /* \"#utility.yul\":3888:3922   */\n      gt\n        /* \"#utility.yul\":3885:3947   */\n      or\n        /* \"#utility.yul\":3882:3970   */\n      iszero\n      tag_594\n      jumpi\n        /* \"#utility.yul\":3950:3968   */\n      tag_595\n      tag_451\n      jump\t// in\n    tag_595:\n        /* \"#utility.yul\":3882:3970   */\n    tag_594:\n        /* \"#utility.yul\":3990:4000   */\n      dup1\n        /* \"#utility.yul\":3986:3988   */\n      0x40\n        /* \"#utility.yul\":3979:4001   */\n      mstore\n        /* \"#utility.yul\":3769:4007   */\n      pop\n        /* \"#utility.yul\":3726:4007   */\n      pop\n      pop\n      jump\t// out\n        /* \"#utility.yul\":4013:4142   */\n    tag_453:\n        /* \"#utility.yul\":4047:4053   */\n      0x00\n        /* \"#utility.yul\":4074:4094   */\n      tag_597\n      tag_435\n      jump\t// in\n    tag_597:\n        /* \"#utility.yul\":4064:4094   */\n      swap1\n      pop\n        /* \"#utility.yul\":4103:4136   */\n      tag_598\n        /* \"#utility.yul\":4131:4135   */\n      dup3\n        /* \"#utility.yul\":4123:4129   */\n      dup3\n        /* \"#utility.yul\":4103:4136   */\n      tag_452\n      jump\t// in\n    tag_598:\n        /* \"#utility.yul\":4013:4142   */\n      swap2\n      swap1\n      pop\n      jump\t// out\n        /* \"#utility.yul\":4148:4469   */\n    tag_454:\n        /* \"#utility.yul\":4235:4239   */\n      0x00\n        /* \"#utility.yul\":4325:4343   */\n      0xffffffffffffffff\n        /* \"#utility.yul\":4317:4323   */\n      dup3\n        /* \"#utility.yul\":4314:4344   */\n      gt\n        /* \"#utility.yul\":4311:4367   */\n      iszero\n      tag_600\n      jumpi\n        /* \"#utility.yul\":4347:4365   */\n      tag_601\n      tag_451\n      jump\t// in\n    tag_601:\n        /* \"#utility.yul\":4311:4367   */\n    tag_600:\n        /* \"#utility.yul\":4397:4401   */\n      0x20\n        /* \"#utility.yul\":4389:4395   */\n      dup3\n        /* \"#utility.yul\":4385:4402   */\n      mul\n        /* \"#utility.yul\":4377:4402   */\n      swap1\n      pop\n        /* \"#utility.yul\":4457:4461   */\n      0x20\n        /* \"#utility.yul\":4451:4455   */\n      dup2\n        /* \"#utility.yul\":4447:4462   */\n      add\n        /* \"#utility.yul\":4439:4462   */\n      swap1\n      pop\n        /* \"#utility.yul\":4148:4469   */\n      swap2\n      swap1\n      pop\n      jump\t// out\n        /* \"#utility.yul\":4475:4592   */\n    tag_455:\n        /* \"#utility.yul\":4584:4585   */\n      0x00\n        /* \"#utility.yul\":4581:4582   */\n      dup1\n        /* \"#utility.yul\":4574:4586   */\n      revert\n        /* \"#utility.yul\":4598:4715   */\n    tag_456:\n        /* \"#utility.yul\":4707:4708   */\n      0x00\n        /* \"#utility.yul\":4704:4705   */\n      dup1\n        /* \"#utility.yul\":4697:4709   */\n      revert\n        /* \"#utility.yul\":4721:5029   */\n    tag_457:\n        /* \"#utility.yul\":4783:4787   */\n      0x00\n        /* \"#utility.yul\":4873:4891   */\n      0xffffffffffffffff\n        /* \"#utility.yul\":4865:4871   */\n      dup3\n        /* \"#utility.yul\":4862:4892   */\n      gt\n        /* \"#utility.yul\":4859:4915   */\n      iszero\n      tag_605\n      jumpi\n        /* \"#utility.yul\":4895:4913   */\n      tag_606\n      tag_451\n      jump\t// in\n    tag_606:\n        /* \"#utility.yul\":4859:4915   */\n    tag_605:\n        /* \"#utility.yul\":4933:4962   */\n      tag_607\n        /* \"#utility.yul\":4955:4961   */\n      dup3\n        /* \"#utility.yul\":4933:4962   */\n      tag_450\n      jump\t// in\n    tag_607:\n        /* \"#utility.yul\":4925:4962   */\n      swap1\n      pop\n        /* \"#utility.yul\":5017:5021   */\n      0x20\n        /* \"#utility.yul\":5011:5015   */\n      dup2\n        /* \"#utility.yul\":5007:5022   */\n      add\n        /* \"#utility.yul\":4999:5022   */\n      swap1\n      pop\n        /* \"#utility.yul\":4721:5029   */\n      swap2\n      swap1\n      pop\n      jump\t// out\n        /* \"#utility.yul\":5035:5183   */\n    tag_458:\n        /* \"#utility.yul\":5133:5139   */\n      dup3\n        /* \"#utility.yul\":5128:5131   */\n      dup2\n        /* \"#utility.yul\":5123:5126   */\n      dup4\n        /* \"#utility.yul\":5110:5140   */\n      calldatacopy\n        /* \"#utility.yul\":5174:5175   */\n      0x00\n        /* \"#utility.yul\":5165:5171   */\n      dup4\n        /* \"#utility.yul\":5160:5163   */\n      dup4\n        /* \"#utility.yul\":5156:5172   */\n      add\n        /* \"#utility.yul\":5149:5176   */\n      mstore\n        /* \"#utility.yul\":5035:5183   */\n      pop\n      pop\n      pop\n      jump\t// out\n        /* \"#utility.yul\":5189:5614   */\n    tag_459:\n        /* \"#utility.yul\":5267:5272   */\n      0x00\n        /* \"#utility.yul\":5292:5358   */\n      tag_610\n        /* \"#utility.yul\":5308:5357   */\n      tag_611\n        /* \"#utility.yul\":5350:5356   */\n      dup5\n        /* \"#utility.yul\":5308:5357   */\n      tag_457\n      jump\t// in\n    tag_611:\n        /* \"#utility.yul\":5292:5358   */\n      tag_453\n      jump\t// in\n    tag_610:\n        /* \"#utility.yul\":5283:5358   */\n      swap1\n      pop\n        /* \"#utility.yul\":5381:5387   */\n      dup3\n        /* \"#utility.yul\":5374:5379   */\n      dup2\n        /* \"#utility.yul\":5367:5388   */\n      mstore\n        /* \"#utility.yul\":5419:5423   */\n      0x20\n        /* \"#utility.yul\":5412:5417   */\n      dup2\n        /* \"#utility.yul\":5408:5424   */\n      add\n        /* \"#utility.yul\":5457:5460   */\n      dup5\n        /* \"#utility.yul\":5448:5454   */\n      dup5\n        /* \"#utility.yul\":5443:5446   */\n      dup5\n        /* \"#utility.yul\":5439:5455   */\n      add\n        /* \"#utility.yul\":5436:5461   */\n      gt\n        /* \"#utility.yul\":5433:5545   */\n      iszero\n      tag_612\n      jumpi\n        /* \"#utility.yul\":5464:5543   */\n      tag_613\n      tag_456\n      jump\t// in\n    tag_613:\n        /* \"#utility.yul\":5433:5545   */\n    tag_612:\n        /* \"#utility.yul\":5554:5608   */\n      tag_614\n        /* \"#utility.yul\":5601:5607   */\n      dup5\n        /* \"#utility.yul\":5596:5599   */\n      dup3\n        /* \"#utility.yul\":5591:5594   */\n      dup6\n        /* \"#utility.yul\":5554:5608   */\n      tag_458\n      jump\t// in\n    tag_614:\n        /* \"#utility.yul\":5273:5614   */\n      pop\n        /* \"#utility.yul\":5189:5614   */\n      swap4\n      swap3\n      pop\n      pop\n      pop\n      jump\t// out\n        /* \"#utility.yul\":5634:5974   */\n    tag_460:\n        /* \"#utility.yul\":5690:5695   */\n      0x00\n        /* \"#utility.yul\":5739:5742   */\n      dup3\n        /* \"#utility.yul\":5732:5736   */\n      0x1f\n        /* \"#utility.yul\":5724:5730   */\n      dup4\n        /* \"#utility.yul\":5720:5737   */\n      add\n        /* \"#utility.yul\":5716:5743   */\n      slt\n        /* \"#utility.yul\":5706:5828   */\n      tag_616\n      jumpi\n        /* \"#utility.yul\":5747:5826   */\n      tag_617\n      tag_449\n      jump\t// in\n    tag_617:\n        /* \"#utility.yul\":5706:5828   */\n    tag_616:\n        /* \"#utility.yul\":5864:5870   */\n      dup2\n        /* \"#utility.yul\":5851:5871   */\n      calldataload\n        /* \"#utility.yul\":5889:5968   */\n      tag_618\n        /* \"#utility.yul\":5964:5967   */\n      dup5\n        /* \"#utility.yul\":5956:5962   */\n      dup3\n        /* \"#utility.yul\":5949:5953   */\n      0x20\n        /* \"#utility.yul\":5941:5947   */\n      dup7\n        /* \"#utility.yul\":5937:5954   */\n      add\n        /* \"#utility.yul\":5889:5968   */\n      tag_459\n      jump\t// in\n    tag_618:\n        /* \"#utility.yul\":5880:5968   */\n      swap2\n      pop\n        /* \"#utility.yul\":5696:5974   */\n      pop\n        /* \"#utility.yul\":5634:5974   */\n      swap3\n      swap2\n      pop\n      pop\n      jump\t// out\n        /* \"#utility.yul\":5996:6941   */\n    tag_461:\n        /* \"#utility.yul\":6102:6107   */\n      0x00\n        /* \"#utility.yul\":6127:6218   */\n      tag_620\n        /* \"#utility.yul\":6143:6217   */\n      tag_621\n        /* \"#utility.yul\":6210:6216   */\n      dup5\n        /* \"#utility.yul\":6143:6217   */\n      tag_454\n      jump\t// in\n    tag_621:\n        /* \"#utility.yul\":6127:6218   */\n      tag_453\n      jump\t// in\n    tag_620:\n        /* \"#utility.yul\":6118:6218   */\n      swap1\n      pop\n        /* \"#utility.yul\":6238:6243   */\n      dup1\n        /* \"#utility.yul\":6267:6273   */\n      dup4\n        /* \"#utility.yul\":6260:6265   */\n      dup3\n        /* \"#utility.yul\":6253:6274   */\n      mstore\n        /* \"#utility.yul\":6301:6305   */\n      0x20\n        /* \"#utility.yul\":6294:6299   */\n      dup3\n        /* \"#utility.yul\":6290:6306   */\n      add\n        /* \"#utility.yul\":6283:6306   */\n      swap1\n      pop\n        /* \"#utility.yul\":6354:6358   */\n      0x20\n        /* \"#utility.yul\":6346:6352   */\n      dup5\n        /* \"#utility.yul\":6342:6359   */\n      mul\n        /* \"#utility.yul\":6334:6340   */\n      dup4\n        /* \"#utility.yul\":6330:6360   */\n      add\n        /* \"#utility.yul\":6383:6386   */\n      dup6\n        /* \"#utility.yul\":6375:6381   */\n      dup2\n        /* \"#utility.yul\":6372:6387   */\n      gt\n        /* \"#utility.yul\":6369:6491   */\n      iszero\n      tag_622\n      jumpi\n        /* \"#utility.yul\":6402:6481   */\n      tag_623\n      tag_455\n      jump\t// in\n    tag_623:\n        /* \"#utility.yul\":6369:6491   */\n    tag_622:\n        /* \"#utility.yul\":6517:6523   */\n      dup4\n        /* \"#utility.yul\":6500:6935   */\n    tag_624:\n        /* \"#utility.yul\":6534:6540   */\n      dup2\n        /* \"#utility.yul\":6529:6532   */\n      dup2\n        /* \"#utility.yul\":6526:6541   */\n      lt\n        /* \"#utility.yul\":6500:6935   */\n      iszero\n      tag_626\n      jumpi\n        /* \"#utility.yul\":6623:6626   */\n      dup1\n        /* \"#utility.yul\":6610:6627   */\n      calldataload\n        /* \"#utility.yul\":6659:6677   */\n      0xffffffffffffffff\n        /* \"#utility.yul\":6646:6657   */\n      dup2\n        /* \"#utility.yul\":6643:6678   */\n      gt\n        /* \"#utility.yul\":6640:6762   */\n      iszero\n      tag_627\n      jumpi\n        /* \"#utility.yul\":6681:6760   */\n      tag_628\n      tag_449\n      jump\t// in\n    tag_628:\n        /* \"#utility.yul\":6640:6762   */\n    tag_627:\n        /* \"#utility.yul\":6805:6816   */\n      dup1\n        /* \"#utility.yul\":6797:6803   */\n      dup7\n        /* \"#utility.yul\":6793:6817   */\n      add\n        /* \"#utility.yul\":6843:6890   */\n      tag_629\n        /* \"#utility.yul\":6886:6889   */\n      dup10\n        /* \"#utility.yul\":6874:6884   */\n      dup3\n        /* \"#utility.yul\":6843:6890   */\n      tag_460\n      jump\t// in\n    tag_629:\n        /* \"#utility.yul\":6838:6841   */\n      dup6\n        /* \"#utility.yul\":6831:6891   */\n      mstore\n        /* \"#utility.yul\":6920:6924   */\n      0x20\n        /* \"#utility.yul\":6915:6918   */\n      dup6\n        /* \"#utility.yul\":6911:6925   */\n      add\n        /* \"#utility.yul\":6904:6925   */\n      swap5\n      pop\n        /* \"#utility.yul\":6576:6935   */\n      pop\n      pop\n        /* \"#utility.yul\":6560:6564   */\n      0x20\n        /* \"#utility.yul\":6555:6558   */\n      dup2\n        /* \"#utility.yul\":6551:6565   */\n      add\n        /* \"#utility.yul\":6544:6565   */\n      swap1\n      pop\n        /* \"#utility.yul\":6500:6935   */\n      jump(tag_624)\n    tag_626:\n        /* \"#utility.yul\":6504:6525   */\n      pop\n        /* \"#utility.yul\":6108:6941   */\n      pop\n      pop\n        /* \"#utility.yul\":5996:6941   */\n      swap4\n      swap3\n      pop\n      pop\n      pop\n      jump\t// out\n        /* \"#utility.yul\":6963:7353   */\n    tag_462:\n        /* \"#utility.yul\":7044:7049   */\n      0x00\n        /* \"#utility.yul\":7093:7096   */\n      dup3\n        /* \"#utility.yul\":7086:7090   */\n      0x1f\n        /* \"#utility.yul\":7078:7084   */\n      dup4\n        /* \"#utility.yul\":7074:7091   */\n      add\n        /* \"#utility.yul\":7070:7097   */\n      slt\n        /* \"#utility.yul\":7060:7182   */\n      tag_631\n      jumpi\n        /* \"#utility.yul\":7101:7180   */\n      tag_632\n      tag_449\n      jump\t// in\n    tag_632:\n        /* \"#utility.yul\":7060:7182   */\n    tag_631:\n        /* \"#utility.yul\":7218:7224   */\n      dup2\n        /* \"#utility.yul\":7205:7225   */\n      calldataload\n        /* \"#utility.yul\":7243:7347   */\n      tag_633\n        /* \"#utility.yul\":7343:7346   */\n      dup5\n        /* \"#utility.yul\":7335:7341   */\n      dup3\n        /* \"#utility.yul\":7328:7332   */\n      0x20\n        /* \"#utility.yul\":7320:7326   */\n      dup7\n        /* \"#utility.yul\":7316:7333   */\n      add\n        /* \"#utility.yul\":7243:7347   */\n      tag_461\n      jump\t// in\n    tag_633:\n        /* \"#utility.yul\":7234:7347   */\n      swap2\n      pop\n        /* \"#utility.yul\":7050:7353   */\n      pop\n        /* \"#utility.yul\":6963:7353   */\n      swap3\n      swap2\n      pop\n      pop\n      jump\t// out\n        /* \"#utility.yul\":7359:8063   */\n    tag_57:\n        /* \"#utility.yul\":7462:7468   */\n      0x00\n        /* \"#utility.yul\":7470:7476   */\n      dup1\n        /* \"#utility.yul\":7519:7521   */\n      0x40\n        /* \"#utility.yul\":7507:7516   */\n      dup4\n        /* \"#utility.yul\":7498:7505   */\n      dup6\n        /* \"#utility.yul\":7494:7517   */\n      sub\n        /* \"#utility.yul\":7490:7522   */\n      slt\n        /* \"#utility.yul\":7487:7606   */\n      iszero\n      tag_635\n      jumpi\n        /* \"#utility.yul\":7525:7604   */\n      tag_636\n      tag_436\n      jump\t// in\n    tag_636:\n        /* \"#utility.yul\":7487:7606   */\n    tag_635:\n        /* \"#utility.yul\":7645:7646   */\n      0x00\n        /* \"#utility.yul\":7670:7723   */\n      tag_637\n        /* \"#utility.yul\":7715:7722   */\n      dup6\n        /* \"#utility.yul\":7706:7712   */\n      dup3\n        /* \"#utility.yul\":7695:7704   */\n      dup7\n        /* \"#utility.yul\":7691:7713   */\n      add\n        /* \"#utility.yul\":7670:7723   */\n      tag_440\n      jump\t// in\n    tag_637:\n        /* \"#utility.yul\":7660:7723   */\n      swap3\n      pop\n        /* \"#utility.yul\":7616:7733   */\n      pop\n        /* \"#utility.yul\":7800:7802   */\n      0x20\n        /* \"#utility.yul\":7789:7798   */\n      dup4\n        /* \"#utility.yul\":7785:7803   */\n      add\n        /* \"#utility.yul\":7772:7804   */\n      calldataload\n        /* \"#utility.yul\":7831:7849   */\n      0xffffffffffffffff\n        /* \"#utility.yul\":7823:7829   */\n      dup2\n        /* \"#utility.yul\":7820:7850   */\n      gt\n        /* \"#utility.yul\":7817:7934   */\n      iszero\n      tag_638\n      jumpi\n        /* \"#utility.yul\":7853:7932   */\n      tag_639\n      tag_437\n      jump\t// in\n    tag_639:\n        /* \"#utility.yul\":7817:7934   */\n    tag_638:\n        /* \"#utility.yul\":7958:8046   */\n      tag_640\n        /* \"#utility.yul\":8038:8045   */\n      dup6\n        /* \"#utility.yul\":8029:8035   */\n      dup3\n        /* \"#utility.yul\":8018:8027   */\n      dup7\n        /* \"#utility.yul\":8014:8036   */\n      add\n        /* \"#utility.yul\":7958:8046   */\n      tag_462\n      jump\t// in\n    tag_640:\n        /* \"#utility.yul\":7948:8046   */\n      swap2\n      pop\n        /* \"#utility.yul\":7743:8056   */\n      pop\n        /* \"#utility.yul\":7359:8063   */\n      swap3\n      pop\n      swap3\n      swap1\n      pop\n      jump\t// out\n        /* \"#utility.yul\":8069:8398   */\n    tag_62:\n        /* \"#utility.yul\":8128:8134   */\n      0x00\n        /* \"#utility.yul\":8177:8179   */\n      0x20\n        /* \"#utility.yul\":8165:8174   */\n      dup3\n        /* \"#utility.yul\":8156:8163   */\n      dup5\n        /* \"#utility.yul\":8152:8175   */\n      sub\n        /* \"#utility.yul\":8148:8180   */\n      slt\n        /* \"#utility.yul\":8145:8264   */\n      iszero\n      tag_642\n      jumpi\n        /* \"#utility.yul\":8183:8262   */\n      tag_643\n      tag_436\n      jump\t// in\n    tag_643:\n        /* \"#utility.yul\":8145:8264   */\n    tag_642:\n        /* \"#utility.yul\":8303:8304   */\n      0x00\n        /* \"#utility.yul\":8328:8381   */\n      tag_644\n        /* \"#utility.yul\":8373:8380   */\n      dup5\n        /* \"#utility.yul\":8364:8370   */\n      dup3\n        /* \"#utility.yul\":8353:8362   */\n      dup6\n        /* \"#utility.yul\":8349:8371   */\n      add\n        /* \"#utility.yul\":8328:8381   */\n      tag_440\n      jump\t// in\n    tag_644:\n        /* \"#utility.yul\":8318:8381   */\n      swap2\n      pop\n        /* \"#utility.yul\":8274:8391   */\n      pop\n        /* \"#utility.yul\":8069:8398   */\n      swap3\n      swap2\n      pop\n      pop\n      jump\t// out\n        /* \"#utility.yul\":8404:8522   */\n    tag_463:\n        /* \"#utility.yul\":8491:8515   */\n      tag_646\n        /* \"#utility.yul\":8509:8514   */\n      dup2\n        /* \"#utility.yul\":8491:8515   */\n      tag_438\n      jump\t// in\n    tag_646:\n        /* \"#utility.yul\":8486:8489   */\n      dup3\n        /* \"#utility.yul\":8479:8516   */\n      mstore\n        /* \"#utility.yul\":8404:8522   */\n      pop\n      pop\n      jump\t// out\n        /* \"#utility.yul\":8528:8750   */\n    tag_68:\n        /* \"#utility.yul\":8621:8625   */\n      0x00\n        /* \"#utility.yul\":8659:8661   */\n      0x20\n        /* \"#utility.yul\":8648:8657   */\n      dup3\n        /* \"#utility.yul\":8644:8662   */\n      add\n        /* \"#utility.yul\":8636:8662   */\n      swap1\n      pop\n        /* \"#utility.yul\":8672:8743   */\n      tag_648\n        /* \"#utility.yul\":8740:8741   */\n      0x00\n        /* \"#utility.yul\":8729:8738   */\n      dup4\n        /* \"#utility.yul\":8725:8742   */\n      add\n        /* \"#utility.yul\":8716:8722   */\n      dup5\n        /* \"#utility.yul\":8672:8743   */\n      tag_463\n      jump\t// in\n    tag_648:\n        /* \"#utility.yul\":8528:8750   */\n      swap3\n      swap2\n      pop\n      pop\n      jump\t// out\n        /* \"#utility.yul\":8756:8816   */\n    tag_464:\n        /* \"#utility.yul\":8784:8787   */\n      0x00\n        /* \"#utility.yul\":8805:8810   */\n      dup2\n        /* \"#utility.yul\":8798:8810   */\n      swap1\n      pop\n        /* \"#utility.yul\":8756:8816   */\n      swap2\n      swap1\n      pop\n      jump\t// out\n        /* \"#utility.yul\":8822:8964   */\n    tag_465:\n        /* \"#utility.yul\":8872:8881   */\n      0x00\n        /* \"#utility.yul\":8905:8958   */\n      tag_651\n        /* \"#utility.yul\":8923:8957   */\n      tag_652\n        /* \"#utility.yul\":8932:8956   */\n      tag_653\n        /* \"#utility.yul\":8950:8955   */\n      dup5\n        /* \"#utility.yul\":8932:8956   */\n      tag_441\n      jump\t// in\n    tag_653:\n        /* \"#utility.yul\":8923:8957   */\n      tag_464\n      jump\t// in\n    tag_652:\n        /* \"#utility.yul\":8905:8958   */\n      tag_441\n      jump\t// in\n    tag_651:\n        /* \"#utility.yul\":8892:8958   */\n      swap1\n      pop\n        /* \"#utility.yul\":8822:8964   */\n      swap2\n      swap1\n      pop\n      jump\t// out\n        /* \"#utility.yul\":8970:9096   */\n    tag_466:\n        /* \"#utility.yul\":9020:9029   */\n      0x00\n        /* \"#utility.yul\":9053:9090   */\n      tag_655\n        /* \"#utility.yul\":9084:9089   */\n      dup3\n        /* \"#utility.yul\":9053:9090   */\n      tag_465\n      jump\t// in\n    tag_655:\n        /* \"#utility.yul\":9040:9090   */\n      swap1\n      pop\n        /* \"#utility.yul\":8970:9096   */\n      swap2\n      swap1\n      pop\n      jump\t// out\n        /* \"#utility.yul\":9102:9255   */\n    tag_467:\n        /* \"#utility.yul\":9179:9188   */\n      0x00\n        /* \"#utility.yul\":9212:9249   */\n      tag_657\n        /* \"#utility.yul\":9243:9248   */\n      dup3\n        /* \"#utility.yul\":9212:9249   */\n      tag_466\n      jump\t// in\n    tag_657:\n        /* \"#utility.yul\":9199:9249   */\n      swap1\n      pop\n        /* \"#utility.yul\":9102:9255   */\n      swap2\n      swap1\n      pop\n      jump\t// out\n        /* \"#utility.yul\":9261:9446   */\n    tag_468:\n        /* \"#utility.yul\":9375:9439   */\n      tag_659\n        /* \"#utility.yul\":9433:9438   */\n      dup2\n        /* \"#utility.yul\":9375:9439   */\n      tag_467\n      jump\t// in\n    tag_659:\n        /* \"#utility.yul\":9370:9373   */\n      dup3\n        /* \"#utility.yul\":9363:9440   */\n      mstore\n        /* \"#utility.yul\":9261:9446   */\n      pop\n      pop\n      jump\t// out\n        /* \"#utility.yul\":9452:9728   */\n    tag_83:\n        /* \"#utility.yul\":9572:9576   */\n      0x00\n        /* \"#utility.yul\":9610:9612   */\n      0x20\n        /* \"#utility.yul\":9599:9608   */\n      dup3\n        /* \"#utility.yul\":9595:9613   */\n      add\n        /* \"#utility.yul\":9587:9613   */\n      swap1\n      pop\n        /* \"#utility.yul\":9623:9721   */\n      tag_661\n        /* \"#utility.yul\":9718:9719   */\n      0x00\n        /* \"#utility.yul\":9707:9716   */\n      dup4\n        /* \"#utility.yul\":9703:9720   */\n      add\n        /* \"#utility.yul\":9694:9700   */\n      dup5\n        /* \"#utility.yul\":9623:9721   */\n      tag_468\n      jump\t// in\n    tag_661:\n        /* \"#utility.yul\":9452:9728   */\n      swap3\n      swap2\n      pop\n      pop\n      jump\t// out\n        /* \"#utility.yul\":9734:10243   */\n    tag_87:\n        /* \"#utility.yul\":9803:9809   */\n      0x00\n        /* \"#utility.yul\":9852:9854   */\n      0x20\n        /* \"#utility.yul\":9840:9849   */\n      dup3\n        /* \"#utility.yul\":9831:9838   */\n      dup5\n        /* \"#utility.yul\":9827:9850   */\n      sub\n        /* \"#utility.yul\":9823:9855   */\n      slt\n        /* \"#utility.yul\":9820:9939   */\n      iszero\n      tag_663\n      jumpi\n        /* \"#utility.yul\":9858:9937   */\n      tag_664\n      tag_436\n      jump\t// in\n    tag_664:\n        /* \"#utility.yul\":9820:9939   */\n    tag_663:\n        /* \"#utility.yul\":10006:10007   */\n      0x00\n        /* \"#utility.yul\":9995:10004   */\n      dup3\n        /* \"#utility.yul\":9991:10008   */\n      add\n        /* \"#utility.yul\":9978:10009   */\n      calldataload\n        /* \"#utility.yul\":10036:10054   */\n      0xffffffffffffffff\n        /* \"#utility.yul\":10028:10034   */\n      dup2\n        /* \"#utility.yul\":10025:10055   */\n      gt\n        /* \"#utility.yul\":10022:10139   */\n      iszero\n      tag_665\n      jumpi\n        /* \"#utility.yul\":10058:10137   */\n      tag_666\n      tag_437\n      jump\t// in\n    tag_666:\n        /* \"#utility.yul\":10022:10139   */\n    tag_665:\n        /* \"#utility.yul\":10163:10226   */\n      tag_667\n        /* \"#utility.yul\":10218:10225   */\n      dup5\n        /* \"#utility.yul\":10209:10215   */\n      dup3\n        /* \"#utility.yul\":10198:10207   */\n      dup6\n        /* \"#utility.yul\":10194:10216   */\n      add\n        /* \"#utility.yul\":10163:10226   */\n      tag_460\n      jump\t// in\n    tag_667:\n        /* \"#utility.yul\":10153:10226   */\n      swap2\n      pop\n        /* \"#utility.yul\":9949:10236   */\n      pop\n        /* \"#utility.yul\":9734:10243   */\n      swap3\n      swap2\n      pop\n      pop\n      jump\t// out\n        /* \"#utility.yul\":10249:10367   */\n    tag_469:\n        /* \"#utility.yul\":10336:10360   */\n      tag_669\n        /* \"#utility.yul\":10354:10359   */\n      dup2\n        /* \"#utility.yul\":10336:10360   */\n      tag_442\n      jump\t// in\n    tag_669:\n        /* \"#utility.yul\":10331:10334   */\n      dup3\n        /* \"#utility.yul\":10324:10361   */\n      mstore\n        /* \"#utility.yul\":10249:10367   */\n      pop\n      pop\n      jump\t// out\n        /* \"#utility.yul\":10373:10595   */\n    tag_93:\n        /* \"#utility.yul\":10466:10470   */\n      0x00\n        /* \"#utility.yul\":10504:10506   */\n      0x20\n        /* \"#utility.yul\":10493:10502   */\n      dup3\n        /* \"#utility.yul\":10489:10507   */\n      add\n        /* \"#utility.yul\":10481:10507   */\n      swap1\n      pop\n        /* \"#utility.yul\":10517:10588   */\n      tag_671\n        /* \"#utility.yul\":10585:10586   */\n      0x00\n        /* \"#utility.yul\":10574:10583   */\n      dup4\n        /* \"#utility.yul\":10570:10587   */\n      add\n        /* \"#utility.yul\":10561:10567   */\n      dup5\n        /* \"#utility.yul\":10517:10588   */\n      tag_469\n      jump\t// in\n    tag_671:\n        /* \"#utility.yul\":10373:10595   */\n      swap3\n      swap2\n      pop\n      pop\n      jump\t// out\n        /* \"#utility.yul\":10601:10930   */\n    tag_97:\n        /* \"#utility.yul\":10660:10666   */\n      0x00\n        /* \"#utility.yul\":10709:10711   */\n      0x20\n        /* \"#utility.yul\":10697:10706   */\n      dup3\n        /* \"#utility.yul\":10688:10695   */\n      dup5\n        /* \"#utility.yul\":10684:10707   */\n      sub\n        /* \"#utility.yul\":10680:10712   */\n      slt\n        /* \"#utility.yul\":10677:10796   */\n      iszero\n      tag_673\n      jumpi\n        /* \"#utility.yul\":10715:10794   */\n      tag_674\n      tag_436\n      jump\t// in\n    tag_674:\n        /* \"#utility.yul\":10677:10796   */\n    tag_673:\n        /* \"#utility.yul\":10835:10836   */\n      0x00\n        /* \"#utility.yul\":10860:10913   */\n      tag_675\n        /* \"#utility.yul\":10905:10912   */\n      dup5\n        /* \"#utility.yul\":10896:10902   */\n      dup3\n        /* \"#utility.yul\":10885:10894   */\n      dup6\n        /* \"#utility.yul\":10881:10903   */\n      add\n        /* \"#utility.yul\":10860:10913   */\n      tag_444\n      jump\t// in\n    tag_675:\n        /* \"#utility.yul\":10850:10913   */\n      swap2\n      pop\n        /* \"#utility.yul\":10806:10923   */\n      pop\n        /* \"#utility.yul\":10601:10930   */\n      swap3\n      swap2\n      pop\n      pop\n      jump\t// out\n        /* \"#utility.yul\":10936:11035   */\n    tag_470:\n        /* \"#utility.yul\":10988:10994   */\n      0x00\n        /* \"#utility.yul\":11022:11027   */\n      dup2\n        /* \"#utility.yul\":11016:11028   */\n      mload\n        /* \"#utility.yul\":11006:11028   */\n      swap1\n      pop\n        /* \"#utility.yul\":10936:11035   */\n      swap2\n      swap1\n      pop\n      jump\t// out\n        /* \"#utility.yul\":11041:11210   */\n    tag_471:\n        /* \"#utility.yul\":11125:11136   */\n      0x00\n        /* \"#utility.yul\":11159:11165   */\n      dup3\n        /* \"#utility.yul\":11154:11157   */\n      dup3\n        /* \"#utility.yul\":11147:11166   */\n      mstore\n        /* \"#utility.yul\":11199:11203   */\n      0x20\n        /* \"#utility.yul\":11194:11197   */\n      dup3\n        /* \"#utility.yul\":11190:11204   */\n      add\n        /* \"#utility.yul\":11175:11204   */\n      swap1\n      pop\n        /* \"#utility.yul\":11041:11210   */\n      swap3\n      swap2\n      pop\n      pop\n      jump\t// out\n        /* \"#utility.yul\":11216:11355   */\n    tag_472:\n        /* \"#utility.yul\":11305:11311   */\n      dup3\n        /* \"#utility.yul\":11300:11303   */\n      dup2\n        /* \"#utility.yul\":11295:11298   */\n      dup4\n        /* \"#utility.yul\":11289:11312   */\n      mcopy\n        /* \"#utility.yul\":11346:11347   */\n      0x00\n        /* \"#utility.yul\":11337:11343   */\n      dup4\n        /* \"#utility.yul\":11332:11335   */\n      dup4\n        /* \"#utility.yul\":11328:11344   */\n      add\n        /* \"#utility.yul\":11321:11348   */\n      mstore\n        /* \"#utility.yul\":11216:11355   */\n      pop\n      pop\n      pop\n      jump\t// out\n        /* \"#utility.yul\":11361:11738   */\n    tag_473:\n        /* \"#utility.yul\":11449:11452   */\n      0x00\n        /* \"#utility.yul\":11477:11516   */\n      tag_680\n        /* \"#utility.yul\":11510:11515   */\n      dup3\n        /* \"#utility.yul\":11477:11516   */\n      tag_470\n      jump\t// in\n    tag_680:\n        /* \"#utility.yul\":11532:11603   */\n      tag_681\n        /* \"#utility.yul\":11596:11602   */\n      dup2\n        /* \"#utility.yul\":11591:11594   */\n      dup6\n        /* \"#utility.yul\":11532:11603   */\n      tag_471\n      jump\t// in\n    tag_681:\n        /* \"#utility.yul\":11525:11603   */\n      swap4\n      pop\n        /* \"#utility.yul\":11612:11677   */\n      tag_682\n        /* \"#utility.yul\":11670:11676   */\n      dup2\n        /* \"#utility.yul\":11665:11668   */\n      dup6\n        /* \"#utility.yul\":11658:11662   */\n      0x20\n        /* \"#utility.yul\":11651:11656   */\n      dup7\n        /* \"#utility.yul\":11647:11663   */\n      add\n        /* \"#utility.yul\":11612:11677   */\n      tag_472\n      jump\t// in\n    tag_682:\n        /* \"#utility.yul\":11702:11731   */\n      tag_683\n        /* \"#utility.yul\":11724:11730   */\n      dup2\n        /* \"#utility.yul\":11702:11731   */\n      tag_450\n      jump\t// in\n    tag_683:\n        /* \"#utility.yul\":11697:11700   */\n      dup5\n        /* \"#utility.yul\":11693:11732   */\n      add\n        /* \"#utility.yul\":11686:11732   */\n      swap2\n      pop\n        /* \"#utility.yul\":11453:11738   */\n      pop\n        /* \"#utility.yul\":11361:11738   */\n      swap3\n      swap2\n      pop\n      pop\n      jump\t// out\n        /* \"#utility.yul\":11744:12598   */\n    tag_104:\n        /* \"#utility.yul\":11991:11995   */\n      0x00\n        /* \"#utility.yul\":12029:12032   */\n      0xc0\n        /* \"#utility.yul\":12018:12027   */\n      dup3\n        /* \"#utility.yul\":12014:12033   */\n      add\n        /* \"#utility.yul\":12006:12033   */\n      swap1\n      pop\n        /* \"#utility.yul\":12043:12114   */\n      tag_685\n        /* \"#utility.yul\":12111:12112   */\n      0x00\n        /* \"#utility.yul\":12100:12109   */\n      dup4\n        /* \"#utility.yul\":12096:12113   */\n      add\n        /* \"#utility.yul\":12087:12093   */\n      dup10\n        /* \"#utility.yul\":12043:12114   */\n      tag_469\n      jump\t// in\n    tag_685:\n        /* \"#utility.yul\":12161:12170   */\n      dup2\n        /* \"#utility.yul\":12155:12159   */\n      dup2\n        /* \"#utility.yul\":12151:12171   */\n      sub\n        /* \"#utility.yul\":12146:12148   */\n      0x20\n        /* \"#utility.yul\":12135:12144   */\n      dup4\n        /* \"#utility.yul\":12131:12149   */\n      add\n        /* \"#utility.yul\":12124:12172   */\n      mstore\n        /* \"#utility.yul\":12189:12267   */\n      tag_686\n        /* \"#utility.yul\":12262:12266   */\n      dup2\n        /* \"#utility.yul\":12253:12259   */\n      dup9\n        /* \"#utility.yul\":12189:12267   */\n      tag_473\n      jump\t// in\n    tag_686:\n        /* \"#utility.yul\":12181:12267   */\n      swap1\n      pop\n        /* \"#utility.yul\":12277:12343   */\n      tag_687\n        /* \"#utility.yul\":12339:12341   */\n      0x40\n        /* \"#utility.yul\":12328:12337   */\n      dup4\n        /* \"#utility.yul\":12324:12342   */\n      add\n        /* \"#utility.yul\":12315:12321   */\n      dup8\n        /* \"#utility.yul\":12277:12343   */\n      tag_446\n      jump\t// in\n    tag_687:\n        /* \"#utility.yul\":12353:12425   */\n      tag_688\n        /* \"#utility.yul\":12421:12423   */\n      0x60\n        /* \"#utility.yul\":12410:12419   */\n      dup4\n        /* \"#utility.yul\":12406:12424   */\n      add\n        /* \"#utility.yul\":12397:12403   */\n      dup7\n        /* \"#utility.yul\":12353:12425   */\n      tag_463\n      jump\t// in\n    tag_688:\n        /* \"#utility.yul\":12435:12508   */\n      tag_689\n        /* \"#utility.yul\":12503:12506   */\n      0x80\n        /* \"#utility.yul\":12492:12501   */\n      dup4\n        /* \"#utility.yul\":12488:12507   */\n      add\n        /* \"#utility.yul\":12479:12485   */\n      dup6\n        /* \"#utility.yul\":12435:12508   */\n      tag_463\n      jump\t// in\n    tag_689:\n        /* \"#utility.yul\":12518:12591   */\n      tag_690\n        /* \"#utility.yul\":12586:12589   */\n      0xa0\n        /* \"#utility.yul\":12575:12584   */\n      dup4\n        /* \"#utility.yul\":12571:12590   */\n      add\n        /* \"#utility.yul\":12562:12568   */\n      dup5\n        /* \"#utility.yul\":12518:12591   */\n      tag_463\n      jump\t// in\n    tag_690:\n        /* \"#utility.yul\":11744:12598   */\n      swap8\n      swap7\n      pop\n      pop\n      pop\n      pop\n      pop\n      pop\n      pop\n      jump\t// out\n        /* \"#utility.yul\":12604:12681   */\n    tag_474:\n        /* \"#utility.yul\":12641:12648   */\n      0x00\n        /* \"#utility.yul\":12670:12675   */\n      dup2\n        /* \"#utility.yul\":12659:12675   */\n      swap1\n      pop\n        /* \"#utility.yul\":12604:12681   */\n      swap2\n      swap1\n      pop\n      jump\t// out\n        /* \"#utility.yul\":12687:12805   */\n    tag_475:\n        /* \"#utility.yul\":12774:12798   */\n      tag_693\n        /* \"#utility.yul\":12792:12797   */\n      dup2\n        /* \"#utility.yul\":12774:12798   */\n      tag_474\n      jump\t// in\n    tag_693:\n        /* \"#utility.yul\":12769:12772   */\n      dup3\n        /* \"#utility.yul\":12762:12799   */\n      mstore\n        /* \"#utility.yul\":12687:12805   */\n      pop\n      pop\n      jump\t// out\n        /* \"#utility.yul\":12811:14152   */\n    tag_122:\n        /* \"#utility.yul\":13172:13176   */\n      0x00\n        /* \"#utility.yul\":13210:13213   */\n      0xe0\n        /* \"#utility.yul\":13199:13208   */\n      dup3\n        /* \"#utility.yul\":13195:13214   */\n      add\n        /* \"#utility.yul\":13187:13214   */\n      swap1\n      pop\n        /* \"#utility.yul\":13224:13295   */\n      tag_695\n        /* \"#utility.yul\":13292:13293   */\n      0x00\n        /* \"#utility.yul\":13281:13290   */\n      dup4\n        /* \"#utility.yul\":13277:13294   */\n      add\n        /* \"#utility.yul\":13268:13274   */\n      dup11\n        /* \"#utility.yul\":13224:13295   */\n      tag_463\n      jump\t// in\n    tag_695:\n        /* \"#utility.yul\":13342:13351   */\n      dup2\n        /* \"#utility.yul\":13336:13340   */\n      dup2\n        /* \"#utility.yul\":13332:13352   */\n      sub\n        /* \"#utility.yul\":13327:13329   */\n      0x20\n        /* \"#utility.yul\":13316:13325   */\n      dup4\n        /* \"#utility.yul\":13312:13330   */\n      add\n        /* \"#utility.yul\":13305:13353   */\n      mstore\n        /* \"#utility.yul\":13370:13448   */\n      tag_696\n        /* \"#utility.yul\":13443:13447   */\n      dup2\n        /* \"#utility.yul\":13434:13440   */\n      dup10\n        /* \"#utility.yul\":13370:13448   */\n      tag_473\n      jump\t// in\n    tag_696:\n        /* \"#utility.yul\":13362:13448   */\n      swap1\n      pop\n        /* \"#utility.yul\":13495:13504   */\n      dup2\n        /* \"#utility.yul\":13489:13493   */\n      dup2\n        /* \"#utility.yul\":13485:13505   */\n      sub\n        /* \"#utility.yul\":13480:13482   */\n      0x40\n        /* \"#utility.yul\":13469:13478   */\n      dup4\n        /* \"#utility.yul\":13465:13483   */\n      add\n        /* \"#utility.yul\":13458:13506   */\n      mstore\n        /* \"#utility.yul\":13523:13601   */\n      tag_697\n        /* \"#utility.yul\":13596:13600   */\n      dup2\n        /* \"#utility.yul\":13587:13593   */\n      dup9\n        /* \"#utility.yul\":13523:13601   */\n      tag_473\n      jump\t// in\n    tag_697:\n        /* \"#utility.yul\":13515:13601   */\n      swap1\n      pop\n        /* \"#utility.yul\":13648:13657   */\n      dup2\n        /* \"#utility.yul\":13642:13646   */\n      dup2\n        /* \"#utility.yul\":13638:13658   */\n      sub\n        /* \"#utility.yul\":13633:13635   */\n      0x60\n        /* \"#utility.yul\":13622:13631   */\n      dup4\n        /* \"#utility.yul\":13618:13636   */\n      add\n        /* \"#utility.yul\":13611:13659   */\n      mstore\n        /* \"#utility.yul\":13676:13754   */\n      tag_698\n        /* \"#utility.yul\":13749:13753   */\n      dup2\n        /* \"#utility.yul\":13740:13746   */\n      dup8\n        /* \"#utility.yul\":13676:13754   */\n      tag_473\n      jump\t// in\n    tag_698:\n        /* \"#utility.yul\":13668:13754   */\n      swap1\n      pop\n        /* \"#utility.yul\":13802:13811   */\n      dup2\n        /* \"#utility.yul\":13796:13800   */\n      dup2\n        /* \"#utility.yul\":13792:13812   */\n      sub\n        /* \"#utility.yul\":13786:13789   */\n      0x80\n        /* \"#utility.yul\":13775:13784   */\n      dup4\n        /* \"#utility.yul\":13771:13790   */\n      add\n        /* \"#utility.yul\":13764:13813   */\n      mstore\n        /* \"#utility.yul\":13830:13908   */\n      tag_699\n        /* \"#utility.yul\":13903:13907   */\n      dup2\n        /* \"#utility.yul\":13894:13900   */\n      dup7\n        /* \"#utility.yul\":13830:13908   */\n      tag_473\n      jump\t// in\n    tag_699:\n        /* \"#utility.yul\":13822:13908   */\n      swap1\n      pop\n        /* \"#utility.yul\":13956:13965   */\n      dup2\n        /* \"#utility.yul\":13950:13954   */\n      dup2\n        /* \"#utility.yul\":13946:13966   */\n      sub\n        /* \"#utility.yul\":13940:13943   */\n      0xa0\n        /* \"#utility.yul\":13929:13938   */\n      dup4\n        /* \"#utility.yul\":13925:13944   */\n      add\n        /* \"#utility.yul\":13918:13967   */\n      mstore\n        /* \"#utility.yul\":13984:14062   */\n      tag_700\n        /* \"#utility.yul\":14057:14061   */\n      dup2\n        /* \"#utility.yul\":14048:14054   */\n      dup6\n        /* \"#utility.yul\":13984:14062   */\n      tag_473\n      jump\t// in\n    tag_700:\n        /* \"#utility.yul\":13976:14062   */\n      swap1\n      pop\n        /* \"#utility.yul\":14072:14145   */\n      tag_701\n        /* \"#utility.yul\":14140:14143   */\n      0xc0\n        /* \"#utility.yul\":14129:14138   */\n      dup4\n        /* \"#utility.yul\":14125:14144   */\n      add\n        /* \"#utility.yul\":14116:14122   */\n      dup5\n        /* \"#utility.yul\":14072:14145   */\n      tag_475\n      jump\t// in\n    tag_701:\n        /* \"#utility.yul\":12811:14152   */\n      swap9\n      swap8\n      pop\n      pop\n      pop\n      pop\n      pop\n      pop\n      pop\n      pop\n      jump\t// out\n        /* \"#utility.yul\":14158:16441   */\n    tag_134:\n        /* \"#utility.yul\":14331:14337   */\n      0x00\n        /* \"#utility.yul\":14339:14345   */\n      dup1\n        /* \"#utility.yul\":14347:14353   */\n      0x00\n        /* \"#utility.yul\":14355:14361   */\n      dup1\n        /* \"#utility.yul\":14363:14369   */\n      0x00\n        /* \"#utility.yul\":14371:14377   */\n      dup1\n        /* \"#utility.yul\":14379:14385   */\n      0x00\n        /* \"#utility.yul\":14428:14431   */\n      0xe0\n        /* \"#utility.yul\":14416:14425   */\n      dup9\n        /* \"#utility.yul\":14407:14414   */\n      dup11\n        /* \"#utility.yul\":14403:14426   */\n      sub\n        /* \"#utility.yul\":14399:14432   */\n      slt\n        /* \"#utility.yul\":14396:14516   */\n      iszero\n      tag_703\n      jumpi\n        /* \"#utility.yul\":14435:14514   */\n      tag_704\n      tag_436\n      jump\t// in\n    tag_704:\n        /* \"#utility.yul\":14396:14516   */\n    tag_703:\n        /* \"#utility.yul\":14555:14556   */\n      0x00\n        /* \"#utility.yul\":14580:14633   */\n      tag_705\n        /* \"#utility.yul\":14625:14632   */\n      dup11\n        /* \"#utility.yul\":14616:14622   */\n      dup3\n        /* \"#utility.yul\":14605:14614   */\n      dup12\n        /* \"#utility.yul\":14601:14623   */\n      add\n        /* \"#utility.yul\":14580:14633   */\n      tag_440\n      jump\t// in\n    tag_705:\n        /* \"#utility.yul\":14570:14633   */\n      swap8\n      pop\n        /* \"#utility.yul\":14526:14643   */\n      pop\n        /* \"#utility.yul\":14710:14712   */\n      0x20\n        /* \"#utility.yul\":14699:14708   */\n      dup9\n        /* \"#utility.yul\":14695:14713   */\n      add\n        /* \"#utility.yul\":14682:14714   */\n      calldataload\n        /* \"#utility.yul\":14741:14759   */\n      0xffffffffffffffff\n        /* \"#utility.yul\":14733:14739   */\n      dup2\n        /* \"#utility.yul\":14730:14760   */\n      gt\n        /* \"#utility.yul\":14727:14844   */\n      iszero\n      tag_706\n      jumpi\n        /* \"#utility.yul\":14763:14842   */\n      tag_707\n      tag_437\n      jump\t// in\n    tag_707:\n        /* \"#utility.yul\":14727:14844   */\n    tag_706:\n        /* \"#utility.yul\":14868:14931   */\n      tag_708\n        /* \"#utility.yul\":14923:14930   */\n      dup11\n        /* \"#utility.yul\":14914:14920   */\n      dup3\n        /* \"#utility.yul\":14903:14912   */\n      dup12\n        /* \"#utility.yul\":14899:14921   */\n      add\n        /* \"#utility.yul\":14868:14931   */\n      tag_460\n      jump\t// in\n    tag_708:\n        /* \"#utility.yul\":14858:14931   */\n      swap7\n      pop\n        /* \"#utility.yul\":14653:14941   */\n      pop\n        /* \"#utility.yul\":15008:15010   */\n      0x40\n        /* \"#utility.yul\":14997:15006   */\n      dup9\n        /* \"#utility.yul\":14993:15011   */\n      add\n        /* \"#utility.yul\":14980:15012   */\n      calldataload\n        /* \"#utility.yul\":15039:15057   */\n      0xffffffffffffffff\n        /* \"#utility.yul\":15031:15037   */\n      dup2\n        /* \"#utility.yul\":15028:15058   */\n      gt\n        /* \"#utility.yul\":15025:15142   */\n      iszero\n      tag_709\n      jumpi\n        /* \"#utility.yul\":15061:15140   */\n      tag_710\n      tag_437\n      jump\t// in\n    tag_710:\n        /* \"#utility.yul\":15025:15142   */\n    tag_709:\n        /* \"#utility.yul\":15166:15229   */\n      tag_711\n        /* \"#utility.yul\":15221:15228   */\n      dup11\n        /* \"#utility.yul\":15212:15218   */\n      dup3\n        /* \"#utility.yul\":15201:15210   */\n      dup12\n        /* \"#utility.yul\":15197:15219   */\n      add\n        /* \"#utility.yul\":15166:15229   */\n      tag_460\n      jump\t// in\n    tag_711:\n        /* \"#utility.yul\":15156:15229   */\n      swap6\n      pop\n        /* \"#utility.yul\":14951:15239   */\n      pop\n        /* \"#utility.yul\":15306:15308   */\n      0x60\n        /* \"#utility.yul\":15295:15304   */\n      dup9\n        /* \"#utility.yul\":15291:15309   */\n      add\n        /* \"#utility.yul\":15278:15310   */\n      calldataload\n        /* \"#utility.yul\":15337:15355   */\n      0xffffffffffffffff\n        /* \"#utility.yul\":15329:15335   */\n      dup2\n        /* \"#utility.yul\":15326:15356   */\n      gt\n        /* \"#utility.yul\":15323:15440   */\n      iszero\n      tag_712\n      jumpi\n        /* \"#utility.yul\":15359:15438   */\n      tag_713\n      tag_437\n      jump\t// in\n    tag_713:\n        /* \"#utility.yul\":15323:15440   */\n    tag_712:\n        /* \"#utility.yul\":15464:15527   */\n      tag_714\n        /* \"#utility.yul\":15519:15526   */\n      dup11\n        /* \"#utility.yul\":15510:15516   */\n      dup3\n        /* \"#utility.yul\":15499:15508   */\n      dup12\n        /* \"#utility.yul\":15495:15517   */\n      add\n        /* \"#utility.yul\":15464:15527   */\n      tag_460\n      jump\t// in\n    tag_714:\n        /* \"#utility.yul\":15454:15527   */\n      swap5\n      pop\n        /* \"#utility.yul\":15249:15537   */\n      pop\n        /* \"#utility.yul\":15604:15607   */\n      0x80\n        /* \"#utility.yul\":15593:15602   */\n      dup9\n        /* \"#utility.yul\":15589:15608   */\n      add\n        /* \"#utility.yul\":15576:15609   */\n      calldataload\n        /* \"#utility.yul\":15636:15654   */\n      0xffffffffffffffff\n        /* \"#utility.yul\":15628:15634   */\n      dup2\n        /* \"#utility.yul\":15625:15655   */\n      gt\n        /* \"#utility.yul\":15622:15739   */\n      iszero\n      tag_715\n      jumpi\n        /* \"#utility.yul\":15658:15737   */\n      tag_716\n      tag_437\n      jump\t// in\n    tag_716:\n        /* \"#utility.yul\":15622:15739   */\n    tag_715:\n        /* \"#utility.yul\":15763:15826   */\n      tag_717\n        /* \"#utility.yul\":15818:15825   */\n      dup11\n        /* \"#utility.yul\":15809:15815   */\n      dup3\n        /* \"#utility.yul\":15798:15807   */\n      dup12\n        /* \"#utility.yul\":15794:15816   */\n      add\n        /* \"#utility.yul\":15763:15826   */\n      tag_460\n      jump\t// in\n    tag_717:\n        /* \"#utility.yul\":15753:15826   */\n      swap4\n      pop\n        /* \"#utility.yul\":15547:15836   */\n      pop\n        /* \"#utility.yul\":15903:15906   */\n      0xa0\n        /* \"#utility.yul\":15892:15901   */\n      dup9\n        /* \"#utility.yul\":15888:15907   */\n      add\n        /* \"#utility.yul\":15875:15908   */\n      calldataload\n        /* \"#utility.yul\":15935:15953   */\n      0xffffffffffffffff\n        /* \"#utility.yul\":15927:15933   */\n      dup2\n        /* \"#utility.yul\":15924:15954   */\n      gt\n        /* \"#utility.yul\":15921:16038   */\n      iszero\n      tag_718\n      jumpi\n        /* \"#utility.yul\":15957:16036   */\n      tag_719\n      tag_437\n      jump\t// in\n    tag_719:\n        /* \"#utility.yul\":15921:16038   */\n    tag_718:\n        /* \"#utility.yul\":16062:16125   */\n      tag_720\n        /* \"#utility.yul\":16117:16124   */\n      dup11\n        /* \"#utility.yul\":16108:16114   */\n      dup3\n        /* \"#utility.yul\":16097:16106   */\n      dup12\n        /* \"#utility.yul\":16093:16115   */\n      add\n        /* \"#utility.yul\":16062:16125   */\n      tag_460\n      jump\t// in\n    tag_720:\n        /* \"#utility.yul\":16052:16125   */\n      swap3\n      pop\n        /* \"#utility.yul\":15846:16135   */\n      pop\n        /* \"#utility.yul\":16202:16205   */\n      0xc0\n        /* \"#utility.yul\":16191:16200   */\n      dup9\n        /* \"#utility.yul\":16187:16206   */\n      add\n        /* \"#utility.yul\":16174:16207   */\n      calldataload\n        /* \"#utility.yul\":16234:16252   */\n      0xffffffffffffffff\n        /* \"#utility.yul\":16226:16232   */\n      dup2\n        /* \"#utility.yul\":16223:16253   */\n      gt\n        /* \"#utility.yul\":16220:16337   */\n      iszero\n      tag_721\n      jumpi\n        /* \"#utility.yul\":16256:16335   */\n      tag_722\n      tag_437\n      jump\t// in\n    tag_722:\n        /* \"#utility.yul\":16220:16337   */\n    tag_721:\n        /* \"#utility.yul\":16361:16424   */\n      tag_723\n        /* \"#utility.yul\":16416:16423   */\n      dup11\n        /* \"#utility.yul\":16407:16413   */\n      dup3\n        /* \"#utility.yul\":16396:16405   */\n      dup12\n        /* \"#utility.yul\":16392:16414   */\n      add\n        /* \"#utility.yul\":16361:16424   */\n      tag_460\n      jump\t// in\n    tag_723:\n        /* \"#utility.yul\":16351:16424   */\n      swap2\n      pop\n        /* \"#utility.yul\":16145:16434   */\n      pop\n        /* \"#utility.yul\":14158:16441   */\n      swap3\n      swap6\n      swap9\n      swap2\n      swap5\n      swap8\n      pop\n      swap3\n      swap6\n      pop\n      jump\t// out\n        /* \"#utility.yul\":16447:16673   */\n    tag_476:\n        /* \"#utility.yul\":16587:16621   */\n      0x4f6e6c7920636f757273652063726561746f722063616e207769746864726177\n        /* \"#utility.yul\":16583:16584   */\n      0x00\n        /* \"#utility.yul\":16575:16581   */\n      dup3\n        /* \"#utility.yul\":16571:16585   */\n      add\n        /* \"#utility.yul\":16564:16622   */\n      mstore\n        /* \"#utility.yul\":16656:16665   */\n      0x20746f6b656e7300000000000000000000000000000000000000000000000000\n        /* \"#utility.yul\":16651:16653   */\n      0x20\n        /* \"#utility.yul\":16643:16649   */\n      dup3\n        /* \"#utility.yul\":16639:16654   */\n      add\n        /* \"#utility.yul\":16632:16666   */\n      mstore\n        /* \"#utility.yul\":16447:16673   */\n      pop\n      jump\t// out\n        /* \"#utility.yul\":16679:17045   */\n    tag_477:\n        /* \"#utility.yul\":16821:16824   */\n      0x00\n        /* \"#utility.yul\":16842:16909   */\n      tag_726\n        /* \"#utility.yul\":16906:16908   */\n      0x27\n        /* \"#utility.yul\":16901:16904   */\n      dup4\n        /* \"#utility.yul\":16842:16909   */\n      tag_471\n      jump\t// in\n    tag_726:\n        /* \"#utility.yul\":16835:16909   */\n      swap2\n      pop\n        /* \"#utility.yul\":16918:17011   */\n      tag_727\n        /* \"#utility.yul\":17007:17010   */\n      dup3\n        /* \"#utility.yul\":16918:17011   */\n      tag_476\n      jump\t// in\n    tag_727:\n        /* \"#utility.yul\":17036:17038   */\n      0x40\n        /* \"#utility.yul\":17031:17034   */\n      dup3\n        /* \"#utility.yul\":17027:17039   */\n      add\n        /* \"#utility.yul\":17020:17039   */\n      swap1\n      pop\n        /* \"#utility.yul\":16679:17045   */\n      swap2\n      swap1\n      pop\n      jump\t// out\n        /* \"#utility.yul\":17051:17470   */\n    tag_154:\n        /* \"#utility.yul\":17217:17221   */\n      0x00\n        /* \"#utility.yul\":17255:17257   */\n      0x20\n        /* \"#utility.yul\":17244:17253   */\n      dup3\n        /* \"#utility.yul\":17240:17258   */\n      add\n        /* \"#utility.yul\":17232:17258   */\n      swap1\n      pop\n        /* \"#utility.yul\":17304:17313   */\n      dup2\n        /* \"#utility.yul\":17298:17302   */\n      dup2\n        /* \"#utility.yul\":17294:17314   */\n      sub\n        /* \"#utility.yul\":17290:17291   */\n      0x00\n        /* \"#utility.yul\":17279:17288   */\n      dup4\n        /* \"#utility.yul\":17275:17292   */\n      add\n        /* \"#utility.yul\":17268:17315   */\n      mstore\n        /* \"#utility.yul\":17332:17463   */\n      tag_729\n        /* \"#utility.yul\":17458:17462   */\n      dup2\n        /* \"#utility.yul\":17332:17463   */\n      tag_477\n      jump\t// in\n    tag_729:\n        /* \"#utility.yul\":17324:17463   */\n      swap1\n      pop\n        /* \"#utility.yul\":17051:17470   */\n      swap2\n      swap1\n      pop\n      jump\t// out\n        /* \"#utility.yul\":17476:17703   */\n    tag_478:\n        /* \"#utility.yul\":17616:17650   */\n      0x496e73756666696369656e7420726577617264656420746f6b656e7320746f20\n        /* \"#utility.yul\":17612:17613   */\n      0x00\n        /* \"#utility.yul\":17604:17610   */\n      dup3\n        /* \"#utility.yul\":17600:17614   */\n      add\n        /* \"#utility.yul\":17593:17651   */\n      mstore\n        /* \"#utility.yul\":17685:17695   */\n      0x7769746864726177000000000000000000000000000000000000000000000000\n        /* \"#utility.yul\":17680:17682   */\n      0x20\n        /* \"#utility.yul\":17672:17678   */\n      dup3\n        /* \"#utility.yul\":17668:17683   */\n      add\n        /* \"#utility.yul\":17661:17696   */\n      mstore\n        /* \"#utility.yul\":17476:17703   */\n      pop\n      jump\t// out\n        /* \"#utility.yul\":17709:18075   */\n    tag_479:\n        /* \"#utility.yul\":17851:17854   */\n      0x00\n        /* \"#utility.yul\":17872:17939   */\n      tag_732\n        /* \"#utility.yul\":17936:17938   */\n      0x28\n        /* \"#utility.yul\":17931:17934   */\n      dup4\n        /* \"#utility.yul\":17872:17939   */\n      tag_471\n      jump\t// in\n    tag_732:\n        /* \"#utility.yul\":17865:17939   */\n      swap2\n      pop\n        /* \"#utility.yul\":17948:18041   */\n      tag_733\n        /* \"#utility.yul\":18037:18040   */\n      dup3\n        /* \"#utility.yul\":17948:18041   */\n      tag_478\n      jump\t// in\n    tag_733:\n        /* \"#utility.yul\":18066:18068   */\n      0x40\n        /* \"#utility.yul\":18061:18064   */\n      dup3\n        /* \"#utility.yul\":18057:18069   */\n      add\n        /* \"#utility.yul\":18050:18069   */\n      swap1\n      pop\n        /* \"#utility.yul\":17709:18075   */\n      swap2\n      swap1\n      pop\n      jump\t// out\n        /* \"#utility.yul\":18081:18500   */\n    tag_157:\n        /* \"#utility.yul\":18247:18251   */\n      0x00\n        /* \"#utility.yul\":18285:18287   */\n      0x20\n        /* \"#utility.yul\":18274:18283   */\n      dup3\n        /* \"#utility.yul\":18270:18288   */\n      add\n        /* \"#utility.yul\":18262:18288   */\n      swap1\n      pop\n        /* \"#utility.yul\":18334:18343   */\n      dup2\n        /* \"#utility.yul\":18328:18332   */\n      dup2\n        /* \"#utility.yul\":18324:18344   */\n      sub\n        /* \"#utility.yul\":18320:18321   */\n      0x00\n        /* \"#utility.yul\":18309:18318   */\n      dup4\n        /* \"#utility.yul\":18305:18322   */\n      add\n        /* \"#utility.yul\":18298:18345   */\n      mstore\n        /* \"#utility.yul\":18362:18493   */\n      tag_735\n        /* \"#utility.yul\":18488:18492   */\n      dup2\n        /* \"#utility.yul\":18362:18493   */\n      tag_479\n      jump\t// in\n    tag_735:\n        /* \"#utility.yul\":18354:18493   */\n      swap1\n      pop\n        /* \"#utility.yul\":18081:18500   */\n      swap2\n      swap1\n      pop\n      jump\t// out\n        /* \"#utility.yul\":18506:18686   */\n    tag_480:\n        /* \"#utility.yul\":18554:18631   */\n      0x4e487b7100000000000000000000000000000000000000000000000000000000\n        /* \"#utility.yul\":18551:18552   */\n      0x00\n        /* \"#utility.yul\":18544:18632   */\n      mstore\n        /* \"#utility.yul\":18651:18655   */\n      0x11\n        /* \"#utility.yul\":18648:18649   */\n      0x04\n        /* \"#utility.yul\":18641:18656   */\n      mstore\n        /* \"#utility.yul\":18675:18679   */\n      0x24\n        /* \"#utility.yul\":18672:18673   */\n      0x00\n        /* \"#utility.yul\":18665:18680   */\n      revert\n        /* \"#utility.yul\":18692:18886   */\n    tag_159:\n        /* \"#utility.yul\":18732:18736   */\n      0x00\n        /* \"#utility.yul\":18752:18772   */\n      tag_738\n        /* \"#utility.yul\":18770:18771   */\n      dup3\n        /* \"#utility.yul\":18752:18772   */\n      tag_438\n      jump\t// in\n    tag_738:\n        /* \"#utility.yul\":18747:18772   */\n      swap2\n      pop\n        /* \"#utility.yul\":18786:18806   */\n      tag_739\n        /* \"#utility.yul\":18804:18805   */\n      dup4\n        /* \"#utility.yul\":18786:18806   */\n      tag_438\n      jump\t// in\n    tag_739:\n        /* \"#utility.yul\":18781:18806   */\n      swap3\n      pop\n        /* \"#utility.yul\":18830:18831   */\n      dup3\n        /* \"#utility.yul\":18827:18828   */\n      dup3\n        /* \"#utility.yul\":18823:18832   */\n      sub\n        /* \"#utility.yul\":18815:18832   */\n      swap1\n      pop\n        /* \"#utility.yul\":18854:18855   */\n      dup2\n        /* \"#utility.yul\":18848:18852   */\n      dup2\n        /* \"#utility.yul\":18845:18856   */\n      gt\n        /* \"#utility.yul\":18842:18879   */\n      iszero\n      tag_740\n      jumpi\n        /* \"#utility.yul\":18859:18877   */\n      tag_741\n      tag_480\n      jump\t// in\n    tag_741:\n        /* \"#utility.yul\":18842:18879   */\n    tag_740:\n        /* \"#utility.yul\":18692:18886   */\n      swap3\n      swap2\n      pop\n      pop\n      jump\t// out\n        /* \"#utility.yul\":18892:19039   */\n    tag_481:\n        /* \"#utility.yul\":18993:19004   */\n      0x00\n        /* \"#utility.yul\":19030:19033   */\n      dup2\n        /* \"#utility.yul\":19015:19033   */\n      swap1\n      pop\n        /* \"#utility.yul\":18892:19039   */\n      swap3\n      swap2\n      pop\n      pop\n      jump\t// out\n        /* \"#utility.yul\":19045:19159   */\n    tag_482:\n      pop\n      jump\t// out\n        /* \"#utility.yul\":19165:19563   */\n    tag_483:\n        /* \"#utility.yul\":19324:19327   */\n      0x00\n        /* \"#utility.yul\":19345:19428   */\n      tag_745\n        /* \"#utility.yul\":19426:19427   */\n      0x00\n        /* \"#utility.yul\":19421:19424   */\n      dup4\n        /* \"#utility.yul\":19345:19428   */\n      tag_481\n      jump\t// in\n    tag_745:\n        /* \"#utility.yul\":19338:19428   */\n      swap2\n      pop\n        /* \"#utility.yul\":19437:19530   */\n      tag_746\n        /* \"#utility.yul\":19526:19529   */\n      dup3\n        /* \"#utility.yul\":19437:19530   */\n      tag_482\n      jump\t// in\n    tag_746:\n        /* \"#utility.yul\":19555:19556   */\n      0x00\n        /* \"#utility.yul\":19550:19553   */\n      dup3\n        /* \"#utility.yul\":19546:19557   */\n      add\n        /* \"#utility.yul\":19539:19557   */\n      swap1\n      pop\n        /* \"#utility.yul\":19165:19563   */\n      swap2\n      swap1\n      pop\n      jump\t// out\n        /* \"#utility.yul\":19569:19948   */\n    tag_161:\n        /* \"#utility.yul\":19753:19756   */\n      0x00\n        /* \"#utility.yul\":19775:19922   */\n      tag_748\n        /* \"#utility.yul\":19918:19921   */\n      dup3\n        /* \"#utility.yul\":19775:19922   */\n      tag_483\n      jump\t// in\n    tag_748:\n        /* \"#utility.yul\":19768:19922   */\n      swap2\n      pop\n        /* \"#utility.yul\":19939:19942   */\n      dup2\n        /* \"#utility.yul\":19932:19942   */\n      swap1\n      pop\n        /* \"#utility.yul\":19569:19948   */\n      swap2\n      swap1\n      pop\n      jump\t// out\n        /* \"#utility.yul\":19954:20123   */\n    tag_484:\n        /* \"#utility.yul\":20094:20115   */\n      0x4661696c656420746f2073656e64204d414e4400000000000000000000000000\n        /* \"#utility.yul\":20090:20091   */\n      0x00\n        /* \"#utility.yul\":20082:20088   */\n      dup3\n        /* \"#utility.yul\":20078:20092   */\n      add\n        /* \"#utility.yul\":20071:20116   */\n      mstore\n        /* \"#utility.yul\":19954:20123   */\n      pop\n      jump\t// out\n        /* \"#utility.yul\":20129:20495   */\n    tag_485:\n        /* \"#utility.yul\":20271:20274   */\n      0x00\n        /* \"#utility.yul\":20292:20359   */\n      tag_751\n        /* \"#utility.yul\":20356:20358   */\n      0x13\n        /* \"#utility.yul\":20351:20354   */\n      dup4\n        /* \"#utility.yul\":20292:20359   */\n      tag_471\n      jump\t// in\n    tag_751:\n        /* \"#utility.yul\":20285:20359   */\n      swap2\n      pop\n        /* \"#utility.yul\":20368:20461   */\n      tag_752\n        /* \"#utility.yul\":20457:20460   */\n      dup3\n        /* \"#utility.yul\":20368:20461   */\n      tag_484\n      jump\t// in\n    tag_752:\n        /* \"#utility.yul\":20486:20488   */\n      0x20\n        /* \"#utility.yul\":20481:20484   */\n      dup3\n        /* \"#utility.yul\":20477:20489   */\n      add\n        /* \"#utility.yul\":20470:20489   */\n      swap1\n      pop\n        /* \"#utility.yul\":20129:20495   */\n      swap2\n      swap1\n      pop\n      jump\t// out\n        /* \"#utility.yul\":20501:20920   */\n    tag_167:\n        /* \"#utility.yul\":20667:20671   */\n      0x00\n        /* \"#utility.yul\":20705:20707   */\n      0x20\n        /* \"#utility.yul\":20694:20703   */\n      dup3\n        /* \"#utility.yul\":20690:20708   */\n      add\n        /* \"#utility.yul\":20682:20708   */\n      swap1\n      pop\n        /* \"#utility.yul\":20754:20763   */\n      dup2\n        /* \"#utility.yul\":20748:20752   */\n      dup2\n        /* \"#utility.yul\":20744:20764   */\n      sub\n        /* \"#utility.yul\":20740:20741   */\n      0x00\n        /* \"#utility.yul\":20729:20738   */\n      dup4\n        /* \"#utility.yul\":20725:20742   */\n      add\n        /* \"#utility.yul\":20718:20765   */\n      mstore\n        /* \"#utility.yul\":20782:20913   */\n      tag_754\n        /* \"#utility.yul\":20908:20912   */\n      dup2\n        /* \"#utility.yul\":20782:20913   */\n      tag_485\n      jump\t// in\n    tag_754:\n        /* \"#utility.yul\":20774:20913   */\n      swap1\n      pop\n        /* \"#utility.yul\":20501:20920   */\n      swap2\n      swap1\n      pop\n      jump\t// out\n        /* \"#utility.yul\":20926:21108   */\n    tag_486:\n        /* \"#utility.yul\":21066:21100   */\n      0x55736572206e6f7420656e726f6c6c656420696e207468697320636f75727365\n        /* \"#utility.yul\":21062:21063   */\n      0x00\n        /* \"#utility.yul\":21054:21060   */\n      dup3\n        /* \"#utility.yul\":21050:21064   */\n      add\n        /* \"#utility.yul\":21043:21101   */\n      mstore\n        /* \"#utility.yul\":20926:21108   */\n      pop\n      jump\t// out\n        /* \"#utility.yul\":21114:21480   */\n    tag_487:\n        /* \"#utility.yul\":21256:21259   */\n      0x00\n        /* \"#utility.yul\":21277:21344   */\n      tag_757\n        /* \"#utility.yul\":21341:21343   */\n      0x20\n        /* \"#utility.yul\":21336:21339   */\n      dup4\n        /* \"#utility.yul\":21277:21344   */\n      tag_471\n      jump\t// in\n    tag_757:\n        /* \"#utility.yul\":21270:21344   */\n      swap2\n      pop\n        /* \"#utility.yul\":21353:21446   */\n      tag_758\n        /* \"#utility.yul\":21442:21445   */\n      dup3\n        /* \"#utility.yul\":21353:21446   */\n      tag_486\n      jump\t// in\n    tag_758:\n        /* \"#utility.yul\":21471:21473   */\n      0x20\n        /* \"#utility.yul\":21466:21469   */\n      dup3\n        /* \"#utility.yul\":21462:21474   */\n      add\n        /* \"#utility.yul\":21455:21474   */\n      swap1\n      pop\n        /* \"#utility.yul\":21114:21480   */\n      swap2\n      swap1\n      pop\n      jump\t// out\n        /* \"#utility.yul\":21486:21905   */\n    tag_179:\n        /* \"#utility.yul\":21652:21656   */\n      0x00\n        /* \"#utility.yul\":21690:21692   */\n      0x20\n        /* \"#utility.yul\":21679:21688   */\n      dup3\n        /* \"#utility.yul\":21675:21693   */\n      add\n        /* \"#utility.yul\":21667:21693   */\n      swap1\n      pop\n        /* \"#utility.yul\":21739:21748   */\n      dup2\n        /* \"#utility.yul\":21733:21737   */\n      dup2\n        /* \"#utility.yul\":21729:21749   */\n      sub\n        /* \"#utility.yul\":21725:21726   */\n      0x00\n        /* \"#utility.yul\":21714:21723   */\n      dup4\n        /* \"#utility.yul\":21710:21727   */\n      add\n        /* \"#utility.yul\":21703:21750   */\n      mstore\n        /* \"#utility.yul\":21767:21898   */\n      tag_760\n        /* \"#utility.yul\":21893:21897   */\n      dup2\n        /* \"#utility.yul\":21767:21898   */\n      tag_487\n      jump\t// in\n    tag_760:\n        /* \"#utility.yul\":21759:21898   */\n      swap1\n      pop\n        /* \"#utility.yul\":21486:21905   */\n      swap2\n      swap1\n      pop\n      jump\t// out\n        /* \"#utility.yul\":21911:22085   */\n    tag_488:\n        /* \"#utility.yul\":22051:22077   */\n      0x4d6178696d756d20617474656d70747320726561636865640000000000000000\n        /* \"#utility.yul\":22047:22048   */\n      0x00\n        /* \"#utility.yul\":22039:22045   */\n      dup3\n        /* \"#utility.yul\":22035:22049   */\n      add\n        /* \"#utility.yul\":22028:22078   */\n      mstore\n        /* \"#utility.yul\":21911:22085   */\n      pop\n      jump\t// out\n        /* \"#utility.yul\":22091:22457   */\n    tag_489:\n        /* \"#utility.yul\":22233:22236   */\n      0x00\n        /* \"#utility.yul\":22254:22321   */\n      tag_763\n        /* \"#utility.yul\":22318:22320   */\n      0x18\n        /* \"#utility.yul\":22313:22316   */\n      dup4\n        /* \"#utility.yul\":22254:22321   */\n      tag_471\n      jump\t// in\n    tag_763:\n        /* \"#utility.yul\":22247:22321   */\n      swap2\n      pop\n        /* \"#utility.yul\":22330:22423   */\n      tag_764\n        /* \"#utility.yul\":22419:22422   */\n      dup3\n        /* \"#utility.yul\":22330:22423   */\n      tag_488\n      jump\t// in\n    tag_764:\n        /* \"#utility.yul\":22448:22450   */\n      0x20\n        /* \"#utility.yul\":22443:22446   */\n      dup3\n        /* \"#utility.yul\":22439:22451   */\n      add\n        /* \"#utility.yul\":22432:22451   */\n      swap1\n      pop\n        /* \"#utility.yul\":22091:22457   */\n      swap2\n      swap1\n      pop\n      jump\t// out\n        /* \"#utility.yul\":22463:22882   */\n    tag_182:\n        /* \"#utility.yul\":22629:22633   */\n      0x00\n        /* \"#utility.yul\":22667:22669   */\n      0x20\n        /* \"#utility.yul\":22656:22665   */\n      dup3\n        /* \"#utility.yul\":22652:22670   */\n      add\n        /* \"#utility.yul\":22644:22670   */\n      swap1\n      pop\n        /* \"#utility.yul\":22716:22725   */\n      dup2\n        /* \"#utility.yul\":22710:22714   */\n      dup2\n        /* \"#utility.yul\":22706:22726   */\n      sub\n        /* \"#utility.yul\":22702:22703   */\n      0x00\n        /* \"#utility.yul\":22691:22700   */\n      dup4\n        /* \"#utility.yul\":22687:22704   */\n      add\n        /* \"#utility.yul\":22680:22727   */\n      mstore\n        /* \"#utility.yul\":22744:22875   */\n      tag_766\n        /* \"#utility.yul\":22870:22874   */\n      dup2\n        /* \"#utility.yul\":22744:22875   */\n      tag_489\n      jump\t// in\n    tag_766:\n        /* \"#utility.yul\":22736:22875   */\n      swap1\n      pop\n        /* \"#utility.yul\":22463:22882   */\n      swap2\n      swap1\n      pop\n      jump\t// out\n        /* \"#utility.yul\":22888:23110   */\n    tag_490:\n        /* \"#utility.yul\":23028:23062   */\n      0x557365722068617320616c726561647920706173736564207468697320636f75\n        /* \"#utility.yul\":23024:23025   */\n      0x00\n        /* \"#utility.yul\":23016:23022   */\n      dup3\n        /* \"#utility.yul\":23012:23026   */\n      add\n        /* \"#utility.yul\":23005:23063   */\n      mstore\n        /* \"#utility.yul\":23097:23102   */\n      0x7273650000000000000000000000000000000000000000000000000000000000\n        /* \"#utility.yul\":23092:23094   */\n      0x20\n        /* \"#utility.yul\":23084:23090   */\n      dup3\n        /* \"#utility.yul\":23080:23095   */\n      add\n        /* \"#utility.yul\":23073:23103   */\n      mstore\n        /* \"#utility.yul\":22888:23110   */\n      pop\n      jump\t// out\n        /* \"#utility.yul\":23116:23482   */\n    tag_491:\n        /* \"#utility.yul\":23258:23261   */\n      0x00\n        /* \"#utility.yul\":23279:23346   */\n      tag_769\n        /* \"#utility.yul\":23343:23345   */\n      0x23\n        /* \"#utility.yul\":23338:23341   */\n      dup4\n        /* \"#utility.yul\":23279:23346   */\n      tag_471\n      jump\t// in\n    tag_769:\n        /* \"#utility.yul\":23272:23346   */\n      swap2\n      pop\n        /* \"#utility.yul\":23355:23448   */\n      tag_770\n        /* \"#utility.yul\":23444:23447   */\n      dup3\n        /* \"#utility.yul\":23355:23448   */\n      tag_490\n      jump\t// in\n    tag_770:\n        /* \"#utility.yul\":23473:23475   */\n      0x40\n        /* \"#utility.yul\":23468:23471   */\n      dup3\n        /* \"#utility.yul\":23464:23476   */\n      add\n        /* \"#utility.yul\":23457:23476   */\n      swap1\n      pop\n        /* \"#utility.yul\":23116:23482   */\n      swap2\n      swap1\n      pop\n      jump\t// out\n        /* \"#utility.yul\":23488:23907   */\n    tag_185:\n        /* \"#utility.yul\":23654:23658   */\n      0x00\n        /* \"#utility.yul\":23692:23694   */\n      0x20\n        /* \"#utility.yul\":23681:23690   */\n      dup3\n        /* \"#utility.yul\":23677:23695   */\n      add\n        /* \"#utility.yul\":23669:23695   */\n      swap1\n      pop\n        /* \"#utility.yul\":23741:23750   */\n      dup2\n        /* \"#utility.yul\":23735:23739   */\n      dup2\n        /* \"#utility.yul\":23731:23751   */\n      sub\n        /* \"#utility.yul\":23727:23728   */\n      0x00\n        /* \"#utility.yul\":23716:23725   */\n      dup4\n        /* \"#utility.yul\":23712:23729   */\n      add\n        /* \"#utility.yul\":23705:23752   */\n      mstore\n        /* \"#utility.yul\":23769:23900   */\n      tag_772\n        /* \"#utility.yul\":23895:23899   */\n      dup2\n        /* \"#utility.yul\":23769:23900   */\n      tag_491\n      jump\t// in\n    tag_772:\n        /* \"#utility.yul\":23761:23900   */\n      swap1\n      pop\n        /* \"#utility.yul\":23488:23907   */\n      swap2\n      swap1\n      pop\n      jump\t// out\n        /* \"#utility.yul\":23913:24080   */\n    tag_187:\n        /* \"#utility.yul\":23950:23953   */\n      0x00\n        /* \"#utility.yul\":23973:23995   */\n      tag_774\n        /* \"#utility.yul\":23989:23994   */\n      dup3\n        /* \"#utility.yul\":23973:23995   */\n      tag_447\n      jump\t// in\n    tag_774:\n        /* \"#utility.yul\":23964:23995   */\n      swap2\n      pop\n        /* \"#utility.yul\":24017:24021   */\n      0xff\n        /* \"#utility.yul\":24010:24015   */\n      dup3\n        /* \"#utility.yul\":24007:24022   */\n      sub\n        /* \"#utility.yul\":24004:24045   */\n      tag_775\n      jumpi\n        /* \"#utility.yul\":24025:24043   */\n      tag_776\n      tag_480\n      jump\t// in\n    tag_776:\n        /* \"#utility.yul\":24004:24045   */\n    tag_775:\n        /* \"#utility.yul\":24072:24073   */\n      0x01\n        /* \"#utility.yul\":24065:24070   */\n      dup3\n        /* \"#utility.yul\":24061:24074   */\n      add\n        /* \"#utility.yul\":24054:24074   */\n      swap1\n      pop\n        /* \"#utility.yul\":23913:24080   */\n      swap2\n      swap1\n      pop\n      jump\t// out\n        /* \"#utility.yul\":24086:24266   */\n    tag_492:\n        /* \"#utility.yul\":24134:24211   */\n      0x4e487b7100000000000000000000000000000000000000000000000000000000\n        /* \"#utility.yul\":24131:24132   */\n      0x00\n        /* \"#utility.yul\":24124:24212   */\n      mstore\n        /* \"#utility.yul\":24231:24235   */\n      0x22\n        /* \"#utility.yul\":24228:24229   */\n      0x04\n        /* \"#utility.yul\":24221:24236   */\n      mstore\n        /* \"#utility.yul\":24255:24259   */\n      0x24\n        /* \"#utility.yul\":24252:24253   */\n      0x00\n        /* \"#utility.yul\":24245:24260   */\n      revert\n        /* \"#utility.yul\":24272:24592   */\n    tag_192:\n        /* \"#utility.yul\":24316:24322   */\n      0x00\n        /* \"#utility.yul\":24353:24354   */\n      0x02\n        /* \"#utility.yul\":24347:24351   */\n      dup3\n        /* \"#utility.yul\":24343:24355   */\n      div\n        /* \"#utility.yul\":24333:24355   */\n      swap1\n      pop\n        /* \"#utility.yul\":24400:24401   */\n      0x01\n        /* \"#utility.yul\":24394:24398   */\n      dup3\n        /* \"#utility.yul\":24390:24402   */\n      and\n        /* \"#utility.yul\":24421:24439   */\n      dup1\n        /* \"#utility.yul\":24411:24492   */\n      tag_779\n      jumpi\n        /* \"#utility.yul\":24477:24481   */\n      0x7f\n        /* \"#utility.yul\":24469:24475   */\n      dup3\n        /* \"#utility.yul\":24465:24482   */\n      and\n        /* \"#utility.yul\":24455:24482   */\n      swap2\n      pop\n        /* \"#utility.yul\":24411:24492   */\n    tag_779:\n        /* \"#utility.yul\":24539:24541   */\n      0x20\n        /* \"#utility.yul\":24531:24537   */\n      dup3\n        /* \"#utility.yul\":24528:24542   */\n      lt\n        /* \"#utility.yul\":24508:24526   */\n      dup2\n        /* \"#utility.yul\":24505:24543   */\n      sub\n        /* \"#utility.yul\":24502:24586   */\n      tag_780\n      jumpi\n        /* \"#utility.yul\":24558:24576   */\n      tag_781\n      tag_492\n      jump\t// in\n    tag_781:\n        /* \"#utility.yul\":24502:24586   */\n    tag_780:\n        /* \"#utility.yul\":24323:24592   */\n      pop\n        /* \"#utility.yul\":24272:24592   */\n      swap2\n      swap1\n      pop\n      jump\t// out\n        /* \"#utility.yul\":24598:24769   */\n    tag_493:\n        /* \"#utility.yul\":24738:24761   */\n      0x416e7377657220636f756e74206d69736d617463680000000000000000000000\n        /* \"#utility.yul\":24734:24735   */\n      0x00\n        /* \"#utility.yul\":24726:24732   */\n      dup3\n        /* \"#utility.yul\":24722:24736   */\n      add\n        /* \"#utility.yul\":24715:24762   */\n      mstore\n        /* \"#utility.yul\":24598:24769   */\n      pop\n      jump\t// out\n        /* \"#utility.yul\":24775:25141   */\n    tag_494:\n        /* \"#utility.yul\":24917:24920   */\n      0x00\n        /* \"#utility.yul\":24938:25005   */\n      tag_784\n        /* \"#utility.yul\":25002:25004   */\n      0x15\n        /* \"#utility.yul\":24997:25000   */\n      dup4\n        /* \"#utility.yul\":24938:25005   */\n      tag_471\n      jump\t// in\n    tag_784:\n        /* \"#utility.yul\":24931:25005   */\n      swap2\n      pop\n        /* \"#utility.yul\":25014:25107   */\n      tag_785\n        /* \"#utility.yul\":25103:25106   */\n      dup3\n        /* \"#utility.yul\":25014:25107   */\n      tag_493\n      jump\t// in\n    tag_785:\n        /* \"#utility.yul\":25132:25134   */\n      0x20\n        /* \"#utility.yul\":25127:25130   */\n      dup3\n        /* \"#utility.yul\":25123:25135   */\n      add\n        /* \"#utility.yul\":25116:25135   */\n      swap1\n      pop\n        /* \"#utility.yul\":24775:25141   */\n      swap2\n      swap1\n      pop\n      jump\t// out\n        /* \"#utility.yul\":25147:25566   */\n    tag_219:\n        /* \"#utility.yul\":25313:25317   */\n      0x00\n        /* \"#utility.yul\":25351:25353   */\n      0x20\n        /* \"#utility.yul\":25340:25349   */\n      dup3\n        /* \"#utility.yul\":25336:25354   */\n      add\n        /* \"#utility.yul\":25328:25354   */\n      swap1\n      pop\n        /* \"#utility.yul\":25400:25409   */\n      dup2\n        /* \"#utility.yul\":25394:25398   */\n      dup2\n        /* \"#utility.yul\":25390:25410   */\n      sub\n        /* \"#utility.yul\":25386:25387   */\n      0x00\n        /* \"#utility.yul\":25375:25384   */\n      dup4\n        /* \"#utility.yul\":25371:25388   */\n      add\n        /* \"#utility.yul\":25364:25411   */\n      mstore\n        /* \"#utility.yul\":25428:25559   */\n      tag_787\n        /* \"#utility.yul\":25554:25558   */\n      dup2\n        /* \"#utility.yul\":25428:25559   */\n      tag_494\n      jump\t// in\n    tag_787:\n        /* \"#utility.yul\":25420:25559   */\n      swap1\n      pop\n        /* \"#utility.yul\":25147:25566   */\n      swap2\n      swap1\n      pop\n      jump\t// out\n        /* \"#utility.yul\":25572:25752   */\n    tag_225:\n        /* \"#utility.yul\":25620:25697   */\n      0x4e487b7100000000000000000000000000000000000000000000000000000000\n        /* \"#utility.yul\":25617:25618   */\n      0x00\n        /* \"#utility.yul\":25610:25698   */\n      mstore\n        /* \"#utility.yul\":25717:25721   */\n      0x32\n        /* \"#utility.yul\":25714:25715   */\n      0x04\n        /* \"#utility.yul\":25707:25722   */\n      mstore\n        /* \"#utility.yul\":25741:25745   */\n      0x24\n        /* \"#utility.yul\":25738:25739   */\n      0x00\n        /* \"#utility.yul\":25731:25746   */\n      revert\n        /* \"#utility.yul\":25758:25906   */\n    tag_495:\n        /* \"#utility.yul\":25860:25871   */\n      0x00\n        /* \"#utility.yul\":25897:25900   */\n      dup2\n        /* \"#utility.yul\":25882:25900   */\n      swap1\n      pop\n        /* \"#utility.yul\":25758:25906   */\n      swap3\n      swap2\n      pop\n      pop\n      jump\t// out\n        /* \"#utility.yul\":25912:26302   */\n    tag_496:\n        /* \"#utility.yul\":26018:26021   */\n      0x00\n        /* \"#utility.yul\":26046:26085   */\n      tag_791\n        /* \"#utility.yul\":26079:26084   */\n      dup3\n        /* \"#utility.yul\":26046:26085   */\n      tag_470\n      jump\t// in\n    tag_791:\n        /* \"#utility.yul\":26101:26190   */\n      tag_792\n        /* \"#utility.yul\":26183:26189   */\n      dup2\n        /* \"#utility.yul\":26178:26181   */\n      dup6\n        /* \"#utility.yul\":26101:26190   */\n      tag_495\n      jump\t// in\n    tag_792:\n        /* \"#utility.yul\":26094:26190   */\n      swap4\n      pop\n        /* \"#utility.yul\":26199:26264   */\n      tag_793\n        /* \"#utility.yul\":26257:26263   */\n      dup2\n        /* \"#utility.yul\":26252:26255   */\n      dup6\n        /* \"#utility.yul\":26245:26249   */\n      0x20\n        /* \"#utility.yul\":26238:26243   */\n      dup7\n        /* \"#utility.yul\":26234:26250   */\n      add\n        /* \"#utility.yul\":26199:26264   */\n      tag_472\n      jump\t// in\n    tag_793:\n        /* \"#utility.yul\":26289:26295   */\n      dup1\n        /* \"#utility.yul\":26284:26287   */\n      dup5\n        /* \"#utility.yul\":26280:26296   */\n      add\n        /* \"#utility.yul\":26273:26296   */\n      swap2\n      pop\n        /* \"#utility.yul\":26022:26302   */\n      pop\n        /* \"#utility.yul\":25912:26302   */\n      swap3\n      swap2\n      pop\n      pop\n      jump\t// out\n        /* \"#utility.yul\":26308:26583   */\n    tag_229:\n        /* \"#utility.yul\":26440:26443   */\n      0x00\n        /* \"#utility.yul\":26462:26557   */\n      tag_795\n        /* \"#utility.yul\":26553:26556   */\n      dup3\n        /* \"#utility.yul\":26544:26550   */\n      dup5\n        /* \"#utility.yul\":26462:26557   */\n      tag_496\n      jump\t// in\n    tag_795:\n        /* \"#utility.yul\":26455:26557   */\n      swap2\n      pop\n        /* \"#utility.yul\":26574:26577   */\n      dup2\n        /* \"#utility.yul\":26567:26577   */\n      swap1\n      pop\n        /* \"#utility.yul\":26308:26583   */\n      swap3\n      swap2\n      pop\n      pop\n      jump\t// out\n        /* \"#utility.yul\":26589:26822   */\n    tag_233:\n        /* \"#utility.yul\":26628:26631   */\n      0x00\n        /* \"#utility.yul\":26651:26675   */\n      tag_797\n        /* \"#utility.yul\":26669:26674   */\n      dup3\n        /* \"#utility.yul\":26651:26675   */\n      tag_438\n      jump\t// in\n    tag_797:\n        /* \"#utility.yul\":26642:26675   */\n      swap2\n      pop\n        /* \"#utility.yul\":26697:26763   */\n      0xffffffffffffffffffffffffffffffffffffffffffffffffffffffffffffffff\n        /* \"#utility.yul\":26690:26695   */\n      dup3\n        /* \"#utility.yul\":26687:26764   */\n      sub\n        /* \"#utility.yul\":26684:26787   */\n      tag_798\n      jumpi\n        /* \"#utility.yul\":26767:26785   */\n      tag_799\n      tag_480\n      jump\t// in\n    tag_799:\n        /* \"#utility.yul\":26684:26787   */\n    tag_798:\n        /* \"#utility.yul\":26814:26815   */\n      0x01\n        /* \"#utility.yul\":26807:26812   */\n      dup3\n        /* \"#utility.yul\":26803:26816   */\n      add\n        /* \"#utility.yul\":26796:26816   */\n      swap1\n      pop\n        /* \"#utility.yul\":26589:26822   */\n      swap2\n      swap1\n      pop\n      jump\t// out\n        /* \"#utility.yul\":26828:26971   */\n    tag_497:\n        /* \"#utility.yul\":26885:26890   */\n      0x00\n        /* \"#utility.yul\":26916:26922   */\n      dup2\n        /* \"#utility.yul\":26910:26923   */\n      mload\n        /* \"#utility.yul\":26901:26923   */\n      swap1\n      pop\n        /* \"#utility.yul\":26932:26965   */\n      tag_801\n        /* \"#utility.yul\":26959:26964   */\n      dup2\n        /* \"#utility.yul\":26932:26965   */\n      tag_439\n      jump\t// in\n    tag_801:\n        /* \"#utility.yul\":26828:26971   */\n      swap3\n      swap2\n      pop\n      pop\n      jump\t// out\n        /* \"#utility.yul\":26977:27328   */\n    tag_242:\n        /* \"#utility.yul\":27047:27053   */\n      0x00\n        /* \"#utility.yul\":27096:27098   */\n      0x20\n        /* \"#utility.yul\":27084:27093   */\n      dup3\n        /* \"#utility.yul\":27075:27082   */\n      dup5\n        /* \"#utility.yul\":27071:27094   */\n      sub\n        /* \"#utility.yul\":27067:27099   */\n      slt\n        /* \"#utility.yul\":27064:27183   */\n      iszero\n      tag_803\n      jumpi\n        /* \"#utility.yul\":27102:27181   */\n      tag_804\n      tag_436\n      jump\t// in\n    tag_804:\n        /* \"#utility.yul\":27064:27183   */\n    tag_803:\n        /* \"#utility.yul\":27222:27223   */\n      0x00\n        /* \"#utility.yul\":27247:27311   */\n      tag_805\n        /* \"#utility.yul\":27303:27310   */\n      dup5\n        /* \"#utility.yul\":27294:27300   */\n      dup3\n        /* \"#utility.yul\":27283:27292   */\n      dup6\n        /* \"#utility.yul\":27279:27301   */\n      add\n        /* \"#utility.yul\":27247:27311   */\n      tag_497\n      jump\t// in\n    tag_805:\n        /* \"#utility.yul\":27237:27311   */\n      swap2\n      pop\n        /* \"#utility.yul\":27193:27321   */\n      pop\n        /* \"#utility.yul\":26977:27328   */\n      swap3\n      swap2\n      pop\n      pop\n      jump\t// out\n        /* \"#utility.yul\":27334:27554   */\n    tag_498:\n        /* \"#utility.yul\":27474:27508   */\n      0x496e73756666696369656e742072657075746174696f6e20746f20656e726f6c\n        /* \"#utility.yul\":27470:27471   */\n      0x00\n        /* \"#utility.yul\":27462:27468   */\n      dup3\n        /* \"#utility.yul\":27458:27472   */\n      add\n        /* \"#utility.yul\":27451:27509   */\n      mstore\n        /* \"#utility.yul\":27543:27546   */\n      0x6c00000000000000000000000000000000000000000000000000000000000000\n        /* \"#utility.yul\":27538:27540   */\n      0x20\n        /* \"#utility.yul\":27530:27536   */\n      dup3\n        /* \"#utility.yul\":27526:27541   */\n      add\n        /* \"#utility.yul\":27519:27547   */\n      mstore\n        /* \"#utility.yul\":27334:27554   */\n      pop\n      jump\t// out\n        /* \"#utility.yul\":27560:27926   */\n    tag_499:\n        /* \"#utility.yul\":27702:27705   */\n      0x00\n        /* \"#utility.yul\":27723:27790   */\n      tag_808\n        /* \"#utility.yul\":27787:27789   */\n      0x21\n        /* \"#utility.yul\":27782:27785   */\n      dup4\n        /* \"#utility.yul\":27723:27790   */\n      tag_471\n      jump\t// in\n    tag_808:\n        /* \"#utility.yul\":27716:27790   */\n      swap2\n      pop\n        /* \"#utility.yul\":27799:27892   */\n      tag_809\n        /* \"#utility.yul\":27888:27891   */\n      dup3\n        /* \"#utility.yul\":27799:27892   */\n      tag_498\n      jump\t// in\n    tag_809:\n        /* \"#utility.yul\":27917:27919   */\n      0x40\n        /* \"#utility.yul\":27912:27915   */\n      dup3\n        /* \"#utility.yul\":27908:27920   */\n      add\n        /* \"#utility.yul\":27901:27920   */\n      swap1\n      pop\n        /* \"#utility.yul\":27560:27926   */\n      swap2\n      swap1\n      pop\n      jump\t// out\n        /* \"#utility.yul\":27932:28351   */\n    tag_245:\n        /* \"#utility.yul\":28098:28102   */\n      0x00\n        /* \"#utility.yul\":28136:28138   */\n      0x20\n        /* \"#utility.yul\":28125:28134   */\n      dup3\n        /* \"#utility.yul\":28121:28139   */\n      add\n        /* \"#utility.yul\":28113:28139   */\n      swap1\n      pop\n        /* \"#utility.yul\":28185:28194   */\n      dup2\n        /* \"#utility.yul\":28179:28183   */\n      dup2\n        /* \"#utility.yul\":28175:28195   */\n      sub\n        /* \"#utility.yul\":28171:28172   */\n      0x00\n        /* \"#utility.yul\":28160:28169   */\n      dup4\n        /* \"#utility.yul\":28156:28173   */\n      add\n        /* \"#utility.yul\":28149:28196   */\n      mstore\n        /* \"#utility.yul\":28213:28344   */\n      tag_811\n        /* \"#utility.yul\":28339:28343   */\n      dup2\n        /* \"#utility.yul\":28213:28344   */\n      tag_499\n      jump\t// in\n    tag_811:\n        /* \"#utility.yul\":28205:28344   */\n      swap1\n      pop\n        /* \"#utility.yul\":27932:28351   */\n      swap2\n      swap1\n      pop\n      jump\t// out\n        /* \"#utility.yul\":28357:28526   */\n    tag_500:\n        /* \"#utility.yul\":28497:28518   */\n      0x436f75727365206e6f7420617070726f76656400000000000000000000000000\n        /* \"#utility.yul\":28493:28494   */\n      0x00\n        /* \"#utility.yul\":28485:28491   */\n      dup3\n        /* \"#utility.yul\":28481:28495   */\n      add\n        /* \"#utility.yul\":28474:28519   */\n      mstore\n        /* \"#utility.yul\":28357:28526   */\n      pop\n      jump\t// out\n        /* \"#utility.yul\":28532:28898   */\n    tag_501:\n        /* \"#utility.yul\":28674:28677   */\n      0x00\n        /* \"#utility.yul\":28695:28762   */\n      tag_814\n        /* \"#utility.yul\":28759:28761   */\n      0x13\n        /* \"#utility.yul\":28754:28757   */\n      dup4\n        /* \"#utility.yul\":28695:28762   */\n      tag_471\n      jump\t// in\n    tag_814:\n        /* \"#utility.yul\":28688:28762   */\n      swap2\n      pop\n        /* \"#utility.yul\":28771:28864   */\n      tag_815\n        /* \"#utility.yul\":28860:28863   */\n      dup3\n        /* \"#utility.yul\":28771:28864   */\n      tag_500\n      jump\t// in\n    tag_815:\n        /* \"#utility.yul\":28889:28891   */\n      0x20\n        /* \"#utility.yul\":28884:28887   */\n      dup3\n        /* \"#utility.yul\":28880:28892   */\n      add\n        /* \"#utility.yul\":28873:28892   */\n      swap1\n      pop\n        /* \"#utility.yul\":28532:28898   */\n      swap2\n      swap1\n      pop\n      jump\t// out\n        /* \"#utility.yul\":28904:29323   */\n    tag_248:\n        /* \"#utility.yul\":29070:29074   */\n      0x00\n        /* \"#utility.yul\":29108:29110   */\n      0x20\n        /* \"#utility.yul\":29097:29106   */\n      dup3\n        /* \"#utility.yul\":29093:29111   */\n      add\n        /* \"#utility.yul\":29085:29111   */\n      swap1\n      pop\n        /* \"#utility.yul\":29157:29166   */\n      dup2\n        /* \"#utility.yul\":29151:29155   */\n      dup2\n        /* \"#utility.yul\":29147:29167   */\n      sub\n        /* \"#utility.yul\":29143:29144   */\n      0x00\n        /* \"#utility.yul\":29132:29141   */\n      dup4\n        /* \"#utility.yul\":29128:29145   */\n      add\n        /* \"#utility.yul\":29121:29168   */\n      mstore\n        /* \"#utility.yul\":29185:29316   */\n      tag_817\n        /* \"#utility.yul\":29311:29315   */\n      dup2\n        /* \"#utility.yul\":29185:29316   */\n      tag_501\n      jump\t// in\n    tag_817:\n        /* \"#utility.yul\":29177:29316   */\n      swap1\n      pop\n        /* \"#utility.yul\":28904:29323   */\n      swap2\n      swap1\n      pop\n      jump\t// out\n        /* \"#utility.yul\":29329:29495   */\n    tag_502:\n        /* \"#utility.yul\":29469:29487   */\n      0x416c726561647920656e726f6c6c656400000000000000000000000000000000\n        /* \"#utility.yul\":29465:29466   */\n      0x00\n        /* \"#utility.yul\":29457:29463   */\n      dup3\n        /* \"#utility.yul\":29453:29467   */\n      add\n        /* \"#utility.yul\":29446:29488   */\n      mstore\n        /* \"#utility.yul\":29329:29495   */\n      pop\n      jump\t// out\n        /* \"#utility.yul\":29501:29867   */\n    tag_503:\n        /* \"#utility.yul\":29643:29646   */\n      0x00\n        /* \"#utility.yul\":29664:29731   */\n      tag_820\n        /* \"#utility.yul\":29728:29730   */\n      0x10\n        /* \"#utility.yul\":29723:29726   */\n      dup4\n        /* \"#utility.yul\":29664:29731   */\n      tag_471\n      jump\t// in\n    tag_820:\n        /* \"#utility.yul\":29657:29731   */\n      swap2\n      pop\n        /* \"#utility.yul\":29740:29833   */\n      tag_821\n        /* \"#utility.yul\":29829:29832   */\n      dup3\n        /* \"#utility.yul\":29740:29833   */\n      tag_502\n      jump\t// in\n    tag_821:\n        /* \"#utility.yul\":29858:29860   */\n      0x20\n        /* \"#utility.yul\":29853:29856   */\n      dup3\n        /* \"#utility.yul\":29849:29861   */\n      add\n        /* \"#utility.yul\":29842:29861   */\n      swap1\n      pop\n        /* \"#utility.yul\":29501:29867   */\n      swap2\n      swap1\n      pop\n      jump\t// out\n        /* \"#utility.yul\":29873:30292   */\n    tag_251:\n        /* \"#utility.yul\":30039:30043   */\n      0x00\n        /* \"#utility.yul\":30077:30079   */\n      0x20\n        /* \"#utility.yul\":30066:30075   */\n      dup3\n        /* \"#utility.yul\":30062:30080   */\n      add\n        /* \"#utility.yul\":30054:30080   */\n      swap1\n      pop\n        /* \"#utility.yul\":30126:30135   */\n      dup2\n        /* \"#utility.yul\":30120:30124   */\n      dup2\n        /* \"#utility.yul\":30116:30136   */\n      sub\n        /* \"#utility.yul\":30112:30113   */\n      0x00\n        /* \"#utility.yul\":30101:30110   */\n      dup4\n        /* \"#utility.yul\":30097:30114   */\n      add\n        /* \"#utility.yul\":30090:30137   */\n      mstore\n        /* \"#utility.yul\":30154:30285   */\n      tag_823\n        /* \"#utility.yul\":30280:30284   */\n      dup2\n        /* \"#utility.yul\":30154:30285   */\n      tag_503\n      jump\t// in\n    tag_823:\n        /* \"#utility.yul\":30146:30285   */\n      swap1\n      pop\n        /* \"#utility.yul\":29873:30292   */\n      swap2\n      swap1\n      pop\n      jump\t// out\n        /* \"#utility.yul\":30298:30471   */\n    tag_504:\n        /* \"#utility.yul\":30438:30463   */\n      0x436f7572736520616c726561647920617070726f766564000000000000000000\n        /* \"#utility.yul\":30434:30435   */\n      0x00\n        /* \"#utility.yul\":30426:30432   */\n      dup3\n        /* \"#utility.yul\":30422:30436   */\n      add\n        /* \"#utility.yul\":30415:30464   */\n      mstore\n        /* \"#utility.yul\":30298:30471   */\n      pop\n      jump\t// out\n        /* \"#utility.yul\":30477:30843   */\n    tag_505:\n        /* \"#utility.yul\":30619:30622   */\n      0x00\n        /* \"#utility.yul\":30640:30707   */\n      tag_826\n        /* \"#utility.yul\":30704:30706   */\n      0x17\n        /* \"#utility.yul\":30699:30702   */\n      dup4\n        /* \"#utility.yul\":30640:30707   */\n      tag_471\n      jump\t// in\n    tag_826:\n        /* \"#utility.yul\":30633:30707   */\n      swap2\n      pop\n        /* \"#utility.yul\":30716:30809   */\n      tag_827\n        /* \"#utility.yul\":30805:30808   */\n      dup3\n        /* \"#utility.yul\":30716:30809   */\n      tag_504\n      jump\t// in\n    tag_827:\n        /* \"#utility.yul\":30834:30836   */\n      0x20\n        /* \"#utility.yul\":30829:30832   */\n      dup3\n        /* \"#utility.yul\":30825:30837   */\n      add\n        /* \"#utility.yul\":30818:30837   */\n      swap1\n      pop\n        /* \"#utility.yul\":30477:30843   */\n      swap2\n      swap1\n      pop\n      jump\t// out\n        /* \"#utility.yul\":30849:31268   */\n    tag_263:\n        /* \"#utility.yul\":31015:31019   */\n      0x00\n        /* \"#utility.yul\":31053:31055   */\n      0x20\n        /* \"#utility.yul\":31042:31051   */\n      dup3\n        /* \"#utility.yul\":31038:31056   */\n      add\n        /* \"#utility.yul\":31030:31056   */\n      swap1\n      pop\n        /* \"#utility.yul\":31102:31111   */\n      dup2\n        /* \"#utility.yul\":31096:31100   */\n      dup2\n        /* \"#utility.yul\":31092:31112   */\n      sub\n        /* \"#utility.yul\":31088:31089   */\n      0x00\n        /* \"#utility.yul\":31077:31086   */\n      dup4\n        /* \"#utility.yul\":31073:31090   */\n      add\n        /* \"#utility.yul\":31066:31113   */\n      mstore\n        /* \"#utility.yul\":31130:31261   */\n      tag_829\n        /* \"#utility.yul\":31256:31260   */\n      dup2\n        /* \"#utility.yul\":31130:31261   */\n      tag_505\n      jump\t// in\n    tag_829:\n        /* \"#utility.yul\":31122:31261   */\n      swap1\n      pop\n        /* \"#utility.yul\":30849:31268   */\n      swap2\n      swap1\n      pop\n      jump\t// out\n        /* \"#utility.yul\":31274:31501   */\n    tag_506:\n        /* \"#utility.yul\":31414:31448   */\n      0x496e73756666696369656e742072657075746174696f6e20746f206372656174\n        /* \"#utility.yul\":31410:31411   */\n      0x00\n        /* \"#utility.yul\":31402:31408   */\n      dup3\n        /* \"#utility.yul\":31398:31412   */\n      add\n        /* \"#utility.yul\":31391:31449   */\n      mstore\n        /* \"#utility.yul\":31483:31493   */\n      0x6520636f75727365000000000000000000000000000000000000000000000000\n        /* \"#utility.yul\":31478:31480   */\n      0x20\n        /* \"#utility.yul\":31470:31476   */\n      dup3\n        /* \"#utility.yul\":31466:31481   */\n      add\n        /* \"#utility.yul\":31459:31494   */\n      mstore\n        /* \"#utility.yul\":31274:31501   */\n      pop\n      jump\t// out\n        /* \"#utility.yul\":31507:31873   */\n    tag_507:\n        /* \"#utility.yul\":31649:31652   */\n      0x00\n        /* \"#utility.yul\":31670:31737   */\n      tag_832\n        /* \"#utility.yul\":31734:31736   */\n      0x28\n        /* \"#utility.yul\":31729:31732   */\n      dup4\n        /* \"#utility.yul\":31670:31737   */\n      tag_471\n      jump\t// in\n    tag_832:\n        /* \"#utility.yul\":31663:31737   */\n      swap2\n      pop\n        /* \"#utility.yul\":31746:31839   */\n      tag_833\n        /* \"#utility.yul\":31835:31838   */\n      dup3\n        /* \"#utility.yul\":31746:31839   */\n      tag_506\n      jump\t// in\n    tag_833:\n        /* \"#utility.yul\":31864:31866   */\n      0x40\n        /* \"#utility.yul\":31859:31862   */\n      dup3\n        /* \"#utility.yul\":31855:31867   */\n      add\n        /* \"#utility.yul\":31848:31867   */\n      swap1\n      pop\n        /* \"#utility.yul\":31507:31873   */\n      swap2\n      swap1\n      pop\n      jump\t// out\n        /* \"#utility.yul\":31879:32298   */\n    tag_278:\n        /* \"#utility.yul\":32045:32049   */\n      0x00\n        /* \"#utility.yul\":32083:32085   */\n      0x20\n        /* \"#utility.yul\":32072:32081   */\n      dup3\n        /* \"#utility.yul\":32068:32086   */\n      add\n        /* \"#utility.yul\":32060:32086   */\n      swap1\n      pop\n        /* \"#utility.yul\":32132:32141   */\n      dup2\n        /* \"#utility.yul\":32126:32130   */\n      dup2\n        /* \"#utility.yul\":32122:32142   */\n      sub\n        /* \"#utility.yul\":32118:32119   */\n      0x00\n        /* \"#utility.yul\":32107:32116   */\n      dup4\n        /* \"#utility.yul\":32103:32120   */\n      add\n        /* \"#utility.yul\":32096:32143   */\n      mstore\n        /* \"#utility.yul\":32160:32291   */\n      tag_835\n        /* \"#utility.yul\":32286:32290   */\n      dup2\n        /* \"#utility.yul\":32160:32291   */\n      tag_507\n      jump\t// in\n    tag_835:\n        /* \"#utility.yul\":32152:32291   */\n      swap1\n      pop\n        /* \"#utility.yul\":31879:32298   */\n      swap2\n      swap1\n      pop\n      jump\t// out\n        /* \"#utility.yul\":32304:32445   */\n    tag_508:\n        /* \"#utility.yul\":32353:32357   */\n      0x00\n        /* \"#utility.yul\":32376:32379   */\n      dup2\n        /* \"#utility.yul\":32368:32379   */\n      swap1\n      pop\n        /* \"#utility.yul\":32399:32402   */\n      dup2\n        /* \"#utility.yul\":32396:32397   */\n      0x00\n        /* \"#utility.yul\":32389:32403   */\n      mstore\n        /* \"#utility.yul\":32433:32437   */\n      0x20\n        /* \"#utility.yul\":32430:32431   */\n      0x00\n        /* \"#utility.yul\":32420:32438   */\n      keccak256\n        /* \"#utility.yul\":32412:32438   */\n      swap1\n      pop\n        /* \"#utility.yul\":32304:32445   */\n      swap2\n      swap1\n      pop\n      jump\t// out\n        /* \"#utility.yul\":32451:32544   */\n    tag_509:\n        /* \"#utility.yul\":32488:32494   */\n      0x00\n        /* \"#utility.yul\":32535:32537   */\n      0x20\n        /* \"#utility.yul\":32530:32532   */\n      0x1f\n        /* \"#utility.yul\":32523:32528   */\n      dup4\n        /* \"#utility.yul\":32519:32533   */\n      add\n        /* \"#utility.yul\":32515:32538   */\n      div\n        /* \"#utility.yul\":32505:32538   */\n      swap1\n      pop\n        /* \"#utility.yul\":32451:32544   */\n      swap2\n      swap1\n      pop\n      jump\t// out\n        /* \"#utility.yul\":32550:32657   */\n    tag_510:\n        /* \"#utility.yul\":32594:32602   */\n      0x00\n        /* \"#utility.yul\":32644:32649   */\n      dup3\n        /* \"#utility.yul\":32638:32642   */\n      dup3\n        /* \"#utility.yul\":32634:32650   */\n      shl\n        /* \"#utility.yul\":32613:32650   */\n      swap1\n      pop\n        /* \"#utility.yul\":32550:32657   */\n      swap3\n      swap2\n      pop\n      pop\n      jump\t// out\n        /* \"#utility.yul\":32663:33056   */\n    tag_511:\n        /* \"#utility.yul\":32732:32738   */\n      0x00\n        /* \"#utility.yul\":32782:32783   */\n      0x08\n        /* \"#utility.yul\":32770:32780   */\n      dup4\n        /* \"#utility.yul\":32766:32784   */\n      mul\n        /* \"#utility.yul\":32805:32902   */\n      tag_840\n        /* \"#utility.yul\":32835:32901   */\n      0xffffffffffffffffffffffffffffffffffffffffffffffffffffffffffffffff\n        /* \"#utility.yul\":32824:32833   */\n      dup3\n        /* \"#utility.yul\":32805:32902   */\n      tag_510\n      jump\t// in\n    tag_840:\n        /* \"#utility.yul\":32923:32962   */\n      tag_841\n        /* \"#utility.yul\":32953:32961   */\n      dup7\n        /* \"#utility.yul\":32942:32951   */\n      dup4\n        /* \"#utility.yul\":32923:32962   */\n      tag_510\n      jump\t// in\n    tag_841:\n        /* \"#utility.yul\":32911:32962   */\n      swap6\n      pop\n        /* \"#utility.yul\":32995:32999   */\n      dup1\n        /* \"#utility.yul\":32991:33000   */\n      not\n        /* \"#utility.yul\":32984:32989   */\n      dup5\n        /* \"#utility.yul\":32980:33001   */\n      and\n        /* \"#utility.yul\":32971:33001   */\n      swap4\n      pop\n        /* \"#utility.yul\":33044:33048   */\n      dup1\n        /* \"#utility.yul\":33034:33042   */\n      dup7\n        /* \"#utility.yul\":33030:33049   */\n      and\n        /* \"#utility.yul\":33023:33028   */\n      dup5\n        /* \"#utility.yul\":33020:33050   */\n      or\n        /* \"#utility.yul\":33010:33050   */\n      swap3\n      pop\n        /* \"#utility.yul\":32739:33056   */\n      pop\n      pop\n        /* \"#utility.yul\":32663:33056   */\n      swap4\n      swap3\n      pop\n      pop\n      pop\n      jump\t// out\n        /* \"#utility.yul\":33062:33204   */\n    tag_512:\n        /* \"#utility.yul\":33112:33121   */\n      0x00\n        /* \"#utility.yul\":33145:33198   */\n      tag_843\n        /* \"#utility.yul\":33163:33197   */\n      tag_844\n        /* \"#utility.yul\":33172:33196   */\n      tag_845\n        /* \"#utility.yul\":33190:33195   */\n      dup5\n        /* \"#utility.yul\":33172:33196   */\n      tag_438\n      jump\t// in\n    tag_845:\n        /* \"#utility.yul\":33163:33197   */\n      tag_464\n      jump\t// in\n    tag_844:\n        /* \"#utility.yul\":33145:33198   */\n      tag_438\n      jump\t// in\n    tag_843:\n        /* \"#utility.yul\":33132:33198   */\n      swap1\n      pop\n        /* \"#utility.yul\":33062:33204   */\n      swap2\n      swap1\n      pop\n      jump\t// out\n        /* \"#utility.yul\":33210:33285   */\n    tag_513:\n        /* \"#utility.yul\":33253:33256   */\n      0x00\n        /* \"#utility.yul\":33274:33279   */\n      dup2\n        /* \"#utility.yul\":33267:33279   */\n      swap1\n      pop\n        /* \"#utility.yul\":33210:33285   */\n      swap2\n      swap1\n      pop\n      jump\t// out\n        /* \"#utility.yul\":33291:33560   */\n    tag_514:\n        /* \"#utility.yul\":33401:33440   */\n      tag_848\n        /* \"#utility.yul\":33432:33439   */\n      dup4\n        /* \"#utility.yul\":33401:33440   */\n      tag_512\n      jump\t// in\n    tag_848:\n        /* \"#utility.yul\":33462:33553   */\n      tag_849\n        /* \"#utility.yul\":33511:33552   */\n      tag_850\n        /* \"#utility.yul\":33535:33551   */\n      dup3\n        /* \"#utility.yul\":33511:33552   */\n      tag_513\n      jump\t// in\n    tag_850:\n        /* \"#utility.yul\":33503:33509   */\n      dup5\n        /* \"#utility.yul\":33496:33500   */\n      dup5\n        /* \"#utility.yul\":33490:33501   */\n      sload\n        /* \"#utility.yul\":33462:33553   */\n      tag_511\n      jump\t// in\n    tag_849:\n        /* \"#utility.yul\":33456:33460   */\n      dup3\n        /* \"#utility.yul\":33449:33554   */\n      sstore\n        /* \"#utility.yul\":33367:33560   */\n      pop\n        /* \"#utility.yul\":33291:33560   */\n      pop\n      pop\n      pop\n      jump\t// out\n        /* \"#utility.yul\":33566:33639   */\n    tag_515:\n        /* \"#utility.yul\":33611:33614   */\n      0x00\n        /* \"#utility.yul\":33566:33639   */\n      swap1\n      jump\t// out\n        /* \"#utility.yul\":33645:33834   */\n    tag_516:\n        /* \"#utility.yul\":33722:33754   */\n      tag_853\n      tag_515\n      jump\t// in\n    tag_853:\n        /* \"#utility.yul\":33763:33828   */\n      tag_854\n        /* \"#utility.yul\":33821:33827   */\n      dup2\n        /* \"#utility.yul\":33813:33819   */\n      dup5\n        /* \"#utility.yul\":33807:33811   */\n      dup5\n        /* \"#utility.yul\":33763:33828   */\n      tag_514\n      jump\t// in\n    tag_854:\n        /* \"#utility.yul\":33698:33834   */\n      pop\n        /* \"#utility.yul\":33645:33834   */\n      pop\n      pop\n      jump\t// out\n        /* \"#utility.yul\":33840:34026   */\n    tag_517:\n        /* \"#utility.yul\":33900:34020   */\n    tag_856:\n        /* \"#utility.yul\":33917:33920   */\n      dup2\n        /* \"#utility.yul\":33910:33915   */\n      dup2\n        /* \"#utility.yul\":33907:33921   */\n      lt\n        /* \"#utility.yul\":33900:34020   */\n      iszero\n      tag_858\n      jumpi\n        /* \"#utility.yul\":33971:34010   */\n      tag_859\n        /* \"#utility.yul\":34008:34009   */\n      0x00\n        /* \"#utility.yul\":34001:34006   */\n      dup3\n        /* \"#utility.yul\":33971:34010   */\n      tag_516\n      jump\t// in\n    tag_859:\n        /* \"#utility.yul\":33944:33945   */\n      0x01\n        /* \"#utility.yul\":33937:33942   */\n      dup2\n        /* \"#utility.yul\":33933:33946   */\n      add\n        /* \"#utility.yul\":33924:33946   */\n      swap1\n      pop\n        /* \"#utility.yul\":33900:34020   */\n      jump(tag_856)\n    tag_858:\n        /* \"#utility.yul\":33840:34026   */\n      pop\n      pop\n      jump\t// out\n        /* \"#utility.yul\":34032:34575   */\n    tag_518:\n        /* \"#utility.yul\":34133:34135   */\n      0x1f\n        /* \"#utility.yul\":34128:34131   */\n      dup3\n        /* \"#utility.yul\":34125:34136   */\n      gt\n        /* \"#utility.yul\":34122:34568   */\n      iszero\n      tag_861\n      jumpi\n        /* \"#utility.yul\":34167:34205   */\n      tag_862\n        /* \"#utility.yul\":34199:34204   */\n      dup2\n        /* \"#utility.yul\":34167:34205   */\n      tag_508\n      jump\t// in\n    tag_862:\n        /* \"#utility.yul\":34251:34280   */\n      tag_863\n        /* \"#utility.yul\":34269:34279   */\n      dup5\n        /* \"#utility.yul\":34251:34280   */\n      tag_509\n      jump\t// in\n    tag_863:\n        /* \"#utility.yul\":34241:34249   */\n      dup2\n        /* \"#utility.yul\":34237:34281   */\n      add\n        /* \"#utility.yul\":34434:34436   */\n      0x20\n        /* \"#utility.yul\":34422:34432   */\n      dup6\n        /* \"#utility.yul\":34419:34437   */\n      lt\n        /* \"#utility.yul\":34416:34465   */\n      iszero\n      tag_864\n      jumpi\n        /* \"#utility.yul\":34455:34463   */\n      dup2\n        /* \"#utility.yul\":34440:34463   */\n      swap1\n      pop\n        /* \"#utility.yul\":34416:34465   */\n    tag_864:\n        /* \"#utility.yul\":34478:34558   */\n      tag_865\n        /* \"#utility.yul\":34534:34556   */\n      tag_866\n        /* \"#utility.yul\":34552:34555   */\n      dup6\n        /* \"#utility.yul\":34534:34556   */\n      tag_509\n      jump\t// in\n    tag_866:\n        /* \"#utility.yul\":34524:34532   */\n      dup4\n        /* \"#utility.yul\":34520:34557   */\n      add\n        /* \"#utility.yul\":34507:34518   */\n      dup3\n        /* \"#utility.yul\":34478:34558   */\n      tag_517\n      jump\t// in\n    tag_865:\n        /* \"#utility.yul\":34137:34568   */\n      pop\n      pop\n        /* \"#utility.yul\":34122:34568   */\n    tag_861:\n        /* \"#utility.yul\":34032:34575   */\n      pop\n      pop\n      pop\n      jump\t// out\n        /* \"#utility.yul\":34581:34698   */\n    tag_519:\n        /* \"#utility.yul\":34635:34643   */\n      0x00\n        /* \"#utility.yul\":34685:34690   */\n      dup3\n        /* \"#utility.yul\":34679:34683   */\n      dup3\n        /* \"#utility.yul\":34675:34691   */\n      shr\n        /* \"#utility.yul\":34654:34691   */\n      swap1\n      pop\n        /* \"#utility.yul\":34581:34698   */\n      swap3\n      swap2\n      pop\n      pop\n      jump\t// out\n        /* \"#utility.yul\":34704:34873   */\n    tag_520:\n        /* \"#utility.yul\":34748:34754   */\n      0x00\n        /* \"#utility.yul\":34781:34832   */\n      tag_869\n        /* \"#utility.yul\":34829:34830   */\n      0x00\n        /* \"#utility.yul\":34825:34831   */\n      not\n        /* \"#utility.yul\":34817:34822   */\n      dup5\n        /* \"#utility.yul\":34814:34815   */\n      0x08\n        /* \"#utility.yul\":34810:34823   */\n      mul\n        /* \"#utility.yul\":34781:34832   */\n      tag_519\n      jump\t// in\n    tag_869:\n        /* \"#utility.yul\":34777:34833   */\n      not\n        /* \"#utility.yul\":34862:34866   */\n      dup1\n        /* \"#utility.yul\":34856:34860   */\n      dup4\n        /* \"#utility.yul\":34852:34867   */\n      and\n        /* \"#utility.yul\":34842:34867   */\n      swap2\n      pop\n        /* \"#utility.yul\":34755:34873   */\n      pop\n        /* \"#utility.yul\":34704:34873   */\n      swap3\n      swap2\n      pop\n      pop\n      jump\t// out\n        /* \"#utility.yul\":34878:35173   */\n    tag_521:\n        /* \"#utility.yul\":34954:34958   */\n      0x00\n        /* \"#utility.yul\":35100:35129   */\n      tag_871\n        /* \"#utility.yul\":35125:35128   */\n      dup4\n        /* \"#utility.yul\":35119:35123   */\n      dup4\n        /* \"#utility.yul\":35100:35129   */\n      tag_520\n      jump\t// in\n    tag_871:\n        /* \"#utility.yul\":35092:35129   */\n      swap2\n      pop\n        /* \"#utility.yul\":35162:35165   */\n      dup3\n        /* \"#utility.yul\":35159:35160   */\n      0x02\n        /* \"#utility.yul\":35155:35166   */\n      mul\n        /* \"#utility.yul\":35149:35153   */\n      dup3\n        /* \"#utility.yul\":35146:35167   */\n      or\n        /* \"#utility.yul\":35138:35167   */\n      swap1\n      pop\n        /* \"#utility.yul\":34878:35173   */\n      swap3\n      swap2\n      pop\n      pop\n      jump\t// out\n        /* \"#utility.yul\":35178:36573   */\n    tag_281:\n        /* \"#utility.yul\":35295:35332   */\n      tag_873\n        /* \"#utility.yul\":35328:35331   */\n      dup3\n        /* \"#utility.yul\":35295:35332   */\n      tag_470\n      jump\t// in\n    tag_873:\n        /* \"#utility.yul\":35397:35415   */\n      0xffffffffffffffff\n        /* \"#utility.yul\":35389:35395   */\n      dup2\n        /* \"#utility.yul\":35386:35416   */\n      gt\n        /* \"#utility.yul\":35383:35439   */\n      iszero\n      tag_874\n      jumpi\n        /* \"#utility.yul\":35419:35437   */\n      tag_875\n      tag_451\n      jump\t// in\n    tag_875:\n        /* \"#utility.yul\":35383:35439   */\n    tag_874:\n        /* \"#utility.yul\":35463:35501   */\n      tag_876\n        /* \"#utility.yul\":35495:35499   */\n      dup3\n        /* \"#utility.yul\":35489:35500   */\n      sload\n        /* \"#utility.yul\":35463:35501   */\n      tag_192\n      jump\t// in\n    tag_876:\n        /* \"#utility.yul\":35548:35615   */\n      tag_877\n        /* \"#utility.yul\":35608:35614   */\n      dup3\n        /* \"#utility.yul\":35600:35606   */\n      dup3\n        /* \"#utility.yul\":35594:35598   */\n      dup6\n        /* \"#utility.yul\":35548:35615   */\n      tag_518\n      jump\t// in\n    tag_877:\n        /* \"#utility.yul\":35642:35643   */\n      0x00\n        /* \"#utility.yul\":35666:35670   */\n      0x20\n        /* \"#utility.yul\":35653:35670   */\n      swap1\n      pop\n        /* \"#utility.yul\":35698:35700   */\n      0x1f\n        /* \"#utility.yul\":35690:35696   */\n      dup4\n        /* \"#utility.yul\":35687:35701   */\n      gt\n        /* \"#utility.yul\":35715:35716   */\n      0x01\n        /* \"#utility.yul\":35710:36328   */\n      dup2\n      eq\n      tag_879\n      jumpi\n        /* \"#utility.yul\":36372:36373   */\n      0x00\n        /* \"#utility.yul\":36389:36395   */\n      dup5\n        /* \"#utility.yul\":36386:36463   */\n      iszero\n      tag_880\n      jumpi\n        /* \"#utility.yul\":36438:36447   */\n      dup3\n        /* \"#utility.yul\":36433:36436   */\n      dup8\n        /* \"#utility.yul\":36429:36448   */\n      add\n        /* \"#utility.yul\":36423:36449   */\n      mload\n        /* \"#utility.yul\":36414:36449   */\n      swap1\n      pop\n        /* \"#utility.yul\":36386:36463   */\n    tag_880:\n        /* \"#utility.yul\":36489:36556   */\n      tag_881\n        /* \"#utility.yul\":36549:36555   */\n      dup6\n        /* \"#utility.yul\":36542:36547   */\n      dup3\n        /* \"#utility.yul\":36489:36556   */\n      tag_521\n      jump\t// in\n    tag_881:\n        /* \"#utility.yul\":36483:36487   */\n      dup7\n        /* \"#utility.yul\":36476:36557   */\n      sstore\n        /* \"#utility.yul\":36345:36567   */\n      pop\n        /* \"#utility.yul\":35680:36567   */\n      jump(tag_878)\n        /* \"#utility.yul\":35710:36328   */\n    tag_879:\n        /* \"#utility.yul\":35762:35766   */\n      0x1f\n        /* \"#utility.yul\":35758:35767   */\n      not\n        /* \"#utility.yul\":35750:35756   */\n      dup5\n        /* \"#utility.yul\":35746:35768   */\n      and\n        /* \"#utility.yul\":35796:35833   */\n      tag_882\n        /* \"#utility.yul\":35828:35832   */\n      dup7\n        /* \"#utility.yul\":35796:35833   */\n      tag_508\n      jump\t// in\n    tag_882:\n        /* \"#utility.yul\":35855:35856   */\n      0x00\n        /* \"#utility.yul\":35869:36077   */\n    tag_883:\n        /* \"#utility.yul\":35883:35890   */\n      dup3\n        /* \"#utility.yul\":35880:35881   */\n      dup2\n        /* \"#utility.yul\":35877:35891   */\n      lt\n        /* \"#utility.yul\":35869:36077   */\n      iszero\n      tag_885\n      jumpi\n        /* \"#utility.yul\":35962:35971   */\n      dup5\n        /* \"#utility.yul\":35957:35960   */\n      dup10\n        /* \"#utility.yul\":35953:35972   */\n      add\n        /* \"#utility.yul\":35947:35973   */\n      mload\n        /* \"#utility.yul\":35939:35945   */\n      dup3\n        /* \"#utility.yul\":35932:35974   */\n      sstore\n        /* \"#utility.yul\":36013:36014   */\n      0x01\n        /* \"#utility.yul\":36005:36011   */\n      dup3\n        /* \"#utility.yul\":36001:36015   */\n      add\n        /* \"#utility.yul\":35991:36015   */\n      swap2\n      pop\n        /* \"#utility.yul\":36060:36062   */\n      0x20\n        /* \"#utility.yul\":36049:36058   */\n      dup6\n        /* \"#utility.yul\":36045:36063   */\n      add\n        /* \"#utility.yul\":36032:36063   */\n      swap5\n      pop\n        /* \"#utility.yul\":35906:35910   */\n      0x20\n        /* \"#utility.yul\":35903:35904   */\n      dup2\n        /* \"#utility.yul\":35899:35911   */\n      add\n        /* \"#utility.yul\":35894:35911   */\n      swap1\n      pop\n        /* \"#utility.yul\":35869:36077   */\n      jump(tag_883)\n    tag_885:\n        /* \"#utility.yul\":36105:36111   */\n      dup7\n        /* \"#utility.yul\":36096:36103   */\n      dup4\n        /* \"#utility.yul\":36093:36112   */\n      lt\n        /* \"#utility.yul\":36090:36269   */\n      iszero\n      tag_886\n      jumpi\n        /* \"#utility.yul\":36163:36172   */\n      dup5\n        /* \"#utility.yul\":36158:36161   */\n      dup10\n        /* \"#utility.yul\":36154:36173   */\n      add\n        /* \"#utility.yul\":36148:36174   */\n      mload\n        /* \"#utility.yul\":36206:36254   */\n      tag_887\n        /* \"#utility.yul\":36248:36252   */\n      0x1f\n        /* \"#utility.yul\":36240:36246   */\n      dup10\n        /* \"#utility.yul\":36236:36253   */\n      and\n        /* \"#utility.yul\":36225:36234   */\n      dup3\n        /* \"#utility.yul\":36206:36254   */\n      tag_520\n      jump\t// in\n    tag_887:\n        /* \"#utility.yul\":36198:36204   */\n      dup4\n        /* \"#utility.yul\":36191:36255   */\n      sstore\n        /* \"#utility.yul\":36113:36269   */\n      pop\n        /* \"#utility.yul\":36090:36269   */\n    tag_886:\n        /* \"#utility.yul\":36315:36316   */\n      0x01\n        /* \"#utility.yul\":36311:36312   */\n      0x02\n        /* \"#utility.yul\":36303:36309   */\n      dup9\n        /* \"#utility.yul\":36299:36313   */\n      mul\n        /* \"#utility.yul\":36295:36317   */\n      add\n        /* \"#utility.yul\":36289:36293   */\n      dup9\n        /* \"#utility.yul\":36282:36318   */\n      sstore\n        /* \"#utility.yul\":35717:36328   */\n      pop\n      pop\n      pop\n        /* \"#utility.yul\":35680:36567   */\n    tag_878:\n      pop\n        /* \"#utility.yul\":35270:36573   */\n      pop\n      pop\n      pop\n        /* \"#utility.yul\":35178:36573   */\n      pop\n      pop\n      jump\t// out\n        /* \"#utility.yul\":36579:36746   */\n    tag_522:\n        /* \"#utility.yul\":36719:36738   */\n      0x436f75727365206e6f7420706173736564000000000000000000000000000000\n        /* \"#utility.yul\":36715:36716   */\n      0x00\n        /* \"#utility.yul\":36707:36713   */\n      dup3\n        /* \"#utility.yul\":36703:36717   */\n      add\n        /* \"#utility.yul\":36696:36739   */\n      mstore\n        /* \"#utility.yul\":36579:36746   */\n      pop\n      jump\t// out\n        /* \"#utility.yul\":36752:37118   */\n    tag_523:\n        /* \"#utility.yul\":36894:36897   */\n      0x00\n        /* \"#utility.yul\":36915:36982   */\n      tag_890\n        /* \"#utility.yul\":36979:36981   */\n      0x11\n        /* \"#utility.yul\":36974:36977   */\n      dup4\n        /* \"#utility.yul\":36915:36982   */\n      tag_471\n      jump\t// in\n    tag_890:\n        /* \"#utility.yul\":36908:36982   */\n      swap2\n      pop\n        /* \"#utility.yul\":36991:37084   */\n      tag_891\n        /* \"#utility.yul\":37080:37083   */\n      dup3\n        /* \"#utility.yul\":36991:37084   */\n      tag_522\n      jump\t// in\n    tag_891:\n        /* \"#utility.yul\":37109:37111   */\n      0x20\n        /* \"#utility.yul\":37104:37107   */\n      dup3\n        /* \"#utility.yul\":37100:37112   */\n      add\n        /* \"#utility.yul\":37093:37112   */\n      swap1\n      pop\n        /* \"#utility.yul\":36752:37118   */\n      swap2\n      swap1\n      pop\n      jump\t// out\n        /* \"#utility.yul\":37124:37543   */\n    tag_296:\n        /* \"#utility.yul\":37290:37294   */\n      0x00\n        /* \"#utility.yul\":37328:37330   */\n      0x20\n        /* \"#utility.yul\":37317:37326   */\n      dup3\n        /* \"#utility.yul\":37313:37331   */\n      add\n        /* \"#utility.yul\":37305:37331   */\n      swap1\n      pop\n        /* \"#utility.yul\":37377:37386   */\n      dup2\n        /* \"#utility.yul\":37371:37375   */\n      dup2\n        /* \"#utility.yul\":37367:37387   */\n      sub\n        /* \"#utility.yul\":37363:37364   */\n      0x00\n        /* \"#utility.yul\":37352:37361   */\n      dup4\n        /* \"#utility.yul\":37348:37365   */\n      add\n        /* \"#utility.yul\":37341:37388   */\n      mstore\n        /* \"#utility.yul\":37405:37536   */\n      tag_893\n        /* \"#utility.yul\":37531:37535   */\n      dup2\n        /* \"#utility.yul\":37405:37536   */\n      tag_523\n      jump\t// in\n    tag_893:\n        /* \"#utility.yul\":37397:37536   */\n      swap1\n      pop\n        /* \"#utility.yul\":37124:37543   */\n      swap2\n      swap1\n      pop\n      jump\t// out\n        /* \"#utility.yul\":37549:37721   */\n    tag_524:\n        /* \"#utility.yul\":37689:37713   */\n      0x52657761726420616c726561647920636c61696d656400000000000000000000\n        /* \"#utility.yul\":37685:37686   */\n      0x00\n        /* \"#utility.yul\":37677:37683   */\n      dup3\n        /* \"#utility.yul\":37673:37687   */\n      add\n        /* \"#utility.yul\":37666:37714   */\n      mstore\n        /* \"#utility.yul\":37549:37721   */\n      pop\n      jump\t// out\n        /* \"#utility.yul\":37727:38093   */\n    tag_525:\n        /* \"#utility.yul\":37869:37872   */\n      0x00\n        /* \"#utility.yul\":37890:37957   */\n      tag_896\n        /* \"#utility.yul\":37954:37956   */\n      0x16\n        /* \"#utility.yul\":37949:37952   */\n      dup4\n        /* \"#utility.yul\":37890:37957   */\n      tag_471\n      jump\t// in\n    tag_896:\n        /* \"#utility.yul\":37883:37957   */\n      swap2\n      pop\n        /* \"#utility.yul\":37966:38059   */\n      tag_897\n        /* \"#utility.yul\":38055:38058   */\n      dup3\n        /* \"#utility.yul\":37966:38059   */\n      tag_524\n      jump\t// in\n    tag_897:\n        /* \"#utility.yul\":38084:38086   */\n      0x20\n        /* \"#utility.yul\":38079:38082   */\n      dup3\n        /* \"#utility.yul\":38075:38087   */\n      add\n        /* \"#utility.yul\":38068:38087   */\n      swap1\n      pop\n        /* \"#utility.yul\":37727:38093   */\n      swap2\n      swap1\n      pop\n      jump\t// out\n        /* \"#utility.yul\":38099:38518   */\n    tag_299:\n        /* \"#utility.yul\":38265:38269   */\n      0x00\n        /* \"#utility.yul\":38303:38305   */\n      0x20\n        /* \"#utility.yul\":38292:38301   */\n      dup3\n        /* \"#utility.yul\":38288:38306   */\n      add\n        /* \"#utility.yul\":38280:38306   */\n      swap1\n      pop\n        /* \"#utility.yul\":38352:38361   */\n      dup2\n        /* \"#utility.yul\":38346:38350   */\n      dup2\n        /* \"#utility.yul\":38342:38362   */\n      sub\n        /* \"#utility.yul\":38338:38339   */\n      0x00\n        /* \"#utility.yul\":38327:38336   */\n      dup4\n        /* \"#utility.yul\":38323:38340   */\n      add\n        /* \"#utility.yul\":38316:38363   */\n      mstore\n        /* \"#utility.yul\":38380:38511   */\n      tag_899\n        /* \"#utility.yul\":38506:38510   */\n      dup2\n        /* \"#utility.yul\":38380:38511   */\n      tag_525\n      jump\t// in\n    tag_899:\n        /* \"#utility.yul\":38372:38511   */\n      swap1\n      pop\n        /* \"#utility.yul\":38099:38518   */\n      swap2\n      swap1\n      pop\n      jump\t// out\n        /* \"#utility.yul\":38524:38715   */\n    tag_301:\n        /* \"#utility.yul\":38564:38567   */\n      0x00\n        /* \"#utility.yul\":38583:38603   */\n      tag_901\n        /* \"#utility.yul\":38601:38602   */\n      dup3\n        /* \"#utility.yul\":38583:38603   */\n      tag_438\n      jump\t// in\n    tag_901:\n        /* \"#utility.yul\":38578:38603   */\n      swap2\n      pop\n        /* \"#utility.yul\":38617:38637   */\n      tag_902\n        /* \"#utility.yul\":38635:38636   */\n      dup4\n        /* \"#utility.yul\":38617:38637   */\n      tag_438\n      jump\t// in\n    tag_902:\n        /* \"#utility.yul\":38612:38637   */\n      swap3\n      pop\n        /* \"#utility.yul\":38660:38661   */\n      dup3\n        /* \"#utility.yul\":38657:38658   */\n      dup3\n        /* \"#utility.yul\":38653:38662   */\n      add\n        /* \"#utility.yul\":38646:38662   */\n      swap1\n      pop\n        /* \"#utility.yul\":38681:38684   */\n      dup1\n        /* \"#utility.yul\":38678:38679   */\n      dup3\n        /* \"#utility.yul\":38675:38685   */\n      gt\n        /* \"#utility.yul\":38672:38708   */\n      iszero\n      tag_903\n      jumpi\n        /* \"#utility.yul\":38688:38706   */\n      tag_904\n      tag_480\n      jump\t// in\n    tag_904:\n        /* \"#utility.yul\":38672:38708   */\n    tag_903:\n        /* \"#utility.yul\":38524:38715   */\n      swap3\n      swap2\n      pop\n      pop\n      jump\t// out\n        /* \"#utility.yul\":38721:38944   */\n    tag_526:\n        /* \"#utility.yul\":38861:38895   */\n      0x4f6e6c7920636f757273652063726561746f722063616e20636c61696d207265\n        /* \"#utility.yul\":38857:38858   */\n      0x00\n        /* \"#utility.yul\":38849:38855   */\n      dup3\n        /* \"#utility.yul\":38845:38859   */\n      add\n        /* \"#utility.yul\":38838:38896   */\n      mstore\n        /* \"#utility.yul\":38930:38936   */\n      0x7761726400000000000000000000000000000000000000000000000000000000\n        /* \"#utility.yul\":38925:38927   */\n      0x20\n        /* \"#utility.yul\":38917:38923   */\n      dup3\n        /* \"#utility.yul\":38913:38928   */\n      add\n        /* \"#utility.yul\":38906:38937   */\n      mstore\n        /* \"#utility.yul\":38721:38944   */\n      pop\n      jump\t// out\n        /* \"#utility.yul\":38950:39316   */\n    tag_527:\n        /* \"#utility.yul\":39092:39095   */\n      0x00\n        /* \"#utility.yul\":39113:39180   */\n      tag_907\n        /* \"#utility.yul\":39177:39179   */\n      0x24\n        /* \"#utility.yul\":39172:39175   */\n      dup4\n        /* \"#utility.yul\":39113:39180   */\n      tag_471\n      jump\t// in\n    tag_907:\n        /* \"#utility.yul\":39106:39180   */\n      swap2\n      pop\n        /* \"#utility.yul\":39189:39282   */\n      tag_908\n        /* \"#utility.yul\":39278:39281   */\n      dup3\n        /* \"#utility.yul\":39189:39282   */\n      tag_526\n      jump\t// in\n    tag_908:\n        /* \"#utility.yul\":39307:39309   */\n      0x40\n        /* \"#utility.yul\":39302:39305   */\n      dup3\n        /* \"#utility.yul\":39298:39310   */\n      add\n        /* \"#utility.yul\":39291:39310   */\n      swap1\n      pop\n        /* \"#utility.yul\":38950:39316   */\n      swap2\n      swap1\n      pop\n      jump\t// out\n        /* \"#utility.yul\":39322:39741   */\n    tag_341:\n        /* \"#utility.yul\":39488:39492   */\n      0x00\n        /* \"#utility.yul\":39526:39528   */\n      0x20\n        /* \"#utility.yul\":39515:39524   */\n      dup3\n        /* \"#utility.yul\":39511:39529   */\n      add\n        /* \"#utility.yul\":39503:39529   */\n      swap1\n      pop\n        /* \"#utility.yul\":39575:39584   */\n      dup2\n        /* \"#utility.yul\":39569:39573   */\n      dup2\n        /* \"#utility.yul\":39565:39585   */\n      sub\n        /* \"#utility.yul\":39561:39562   */\n      0x00\n        /* \"#utility.yul\":39550:39559   */\n      dup4\n        /* \"#utility.yul\":39546:39563   */\n      add\n        /* \"#utility.yul\":39539:39586   */\n      mstore\n        /* \"#utility.yul\":39603:39734   */\n      tag_910\n        /* \"#utility.yul\":39729:39733   */\n      dup2\n        /* \"#utility.yul\":39603:39734   */\n      tag_527\n      jump\t// in\n    tag_910:\n        /* \"#utility.yul\":39595:39734   */\n      swap1\n      pop\n        /* \"#utility.yul\":39322:39741   */\n      swap2\n      swap1\n      pop\n      jump\t// out\n        /* \"#utility.yul\":39747:40157   */\n    tag_345:\n        /* \"#utility.yul\":39787:39794   */\n      0x00\n        /* \"#utility.yul\":39810:39830   */\n      tag_912\n        /* \"#utility.yul\":39828:39829   */\n      dup3\n        /* \"#utility.yul\":39810:39830   */\n      tag_438\n      jump\t// in\n    tag_912:\n        /* \"#utility.yul\":39805:39830   */\n      swap2\n      pop\n        /* \"#utility.yul\":39844:39864   */\n      tag_913\n        /* \"#utility.yul\":39862:39863   */\n      dup4\n        /* \"#utility.yul\":39844:39864   */\n      tag_438\n      jump\t// in\n    tag_913:\n        /* \"#utility.yul\":39839:39864   */\n      swap3\n      pop\n        /* \"#utility.yul\":39899:39900   */\n      dup3\n        /* \"#utility.yul\":39896:39897   */\n      dup3\n        /* \"#utility.yul\":39892:39901   */\n      mul\n        /* \"#utility.yul\":39921:39951   */\n      tag_914\n        /* \"#utility.yul\":39939:39950   */\n      dup2\n        /* \"#utility.yul\":39921:39951   */\n      tag_438\n      jump\t// in\n    tag_914:\n        /* \"#utility.yul\":39910:39951   */\n      swap2\n      pop\n        /* \"#utility.yul\":40100:40101   */\n      dup3\n        /* \"#utility.yul\":40091:40098   */\n      dup3\n        /* \"#utility.yul\":40087:40102   */\n      div\n        /* \"#utility.yul\":40084:40085   */\n      dup5\n        /* \"#utility.yul\":40081:40103   */\n      eq\n        /* \"#utility.yul\":40061:40062   */\n      dup4\n        /* \"#utility.yul\":40054:40063   */\n      iszero\n        /* \"#utility.yul\":40034:40117   */\n      or\n        /* \"#utility.yul\":40011:40150   */\n      tag_915\n      jumpi\n        /* \"#utility.yul\":40130:40148   */\n      tag_916\n      tag_480\n      jump\t// in\n    tag_916:\n        /* \"#utility.yul\":40011:40150   */\n    tag_915:\n        /* \"#utility.yul\":39795:40157   */\n      pop\n        /* \"#utility.yul\":39747:40157   */\n      swap3\n      swap2\n      pop\n      pop\n      jump\t// out\n        /* \"#utility.yul\":40163:40387   */\n    tag_528:\n        /* \"#utility.yul\":40303:40337   */\n      0x4f6e6c7920636f757273652063726561746f722063616e206372656174652061\n        /* \"#utility.yul\":40299:40300   */\n      0x00\n        /* \"#utility.yul\":40291:40297   */\n      dup3\n        /* \"#utility.yul\":40287:40301   */\n      add\n        /* \"#utility.yul\":40280:40338   */\n      mstore\n        /* \"#utility.yul\":40372:40379   */\n      0x207175697a000000000000000000000000000000000000000000000000000000\n        /* \"#utility.yul\":40367:40369   */\n      0x20\n        /* \"#utility.yul\":40359:40365   */\n      dup3\n        /* \"#utility.yul\":40355:40370   */\n      add\n        /* \"#utility.yul\":40348:40380   */\n      mstore\n        /* \"#utility.yul\":40163:40387   */\n      pop\n      jump\t// out\n        /* \"#utility.yul\":40393:40759   */\n    tag_529:\n        /* \"#utility.yul\":40535:40538   */\n      0x00\n        /* \"#utility.yul\":40556:40623   */\n      tag_919\n        /* \"#utility.yul\":40620:40622   */\n      0x25\n        /* \"#utility.yul\":40615:40618   */\n      dup4\n        /* \"#utility.yul\":40556:40623   */\n      tag_471\n      jump\t// in\n    tag_919:\n        /* \"#utility.yul\":40549:40623   */\n      swap2\n      pop\n        /* \"#utility.yul\":40632:40725   */\n      tag_920\n        /* \"#utility.yul\":40721:40724   */\n      dup3\n        /* \"#utility.yul\":40632:40725   */\n      tag_528\n      jump\t// in\n    tag_920:\n        /* \"#utility.yul\":40750:40752   */\n      0x40\n        /* \"#utility.yul\":40745:40748   */\n      dup3\n        /* \"#utility.yul\":40741:40753   */\n      add\n        /* \"#utility.yul\":40734:40753   */\n      swap1\n      pop\n        /* \"#utility.yul\":40393:40759   */\n      swap2\n      swap1\n      pop\n      jump\t// out\n        /* \"#utility.yul\":40765:41184   */\n    tag_357:\n        /* \"#utility.yul\":40931:40935   */\n      0x00\n        /* \"#utility.yul\":40969:40971   */\n      0x20\n        /* \"#utility.yul\":40958:40967   */\n      dup3\n        /* \"#utility.yul\":40954:40972   */\n      add\n        /* \"#utility.yul\":40946:40972   */\n      swap1\n      pop\n        /* \"#utility.yul\":41018:41027   */\n      dup2\n        /* \"#utility.yul\":41012:41016   */\n      dup2\n        /* \"#utility.yul\":41008:41028   */\n      sub\n        /* \"#utility.yul\":41004:41005   */\n      0x00\n        /* \"#utility.yul\":40993:41002   */\n      dup4\n        /* \"#utility.yul\":40989:41006   */\n      add\n        /* \"#utility.yul\":40982:41029   */\n      mstore\n        /* \"#utility.yul\":41046:41177   */\n      tag_922\n        /* \"#utility.yul\":41172:41176   */\n      dup2\n        /* \"#utility.yul\":41046:41177   */\n      tag_529\n      jump\t// in\n    tag_922:\n        /* \"#utility.yul\":41038:41177   */\n      swap1\n      pop\n        /* \"#utility.yul\":40765:41184   */\n      swap2\n      swap1\n      pop\n      jump\t// out\n        /* \"#utility.yul\":41190:41417   */\n    tag_530:\n        /* \"#utility.yul\":41330:41364   */\n      0x436f75727365206d75737420626520617070726f76656420746f206372656174\n        /* \"#utility.yul\":41326:41327   */\n      0x00\n        /* \"#utility.yul\":41318:41324   */\n      dup3\n        /* \"#utility.yul\":41314:41328   */\n      add\n        /* \"#utility.yul\":41307:41365   */\n      mstore\n        /* \"#utility.yul\":41399:41409   */\n      0x652061207175697a000000000000000000000000000000000000000000000000\n        /* \"#utility.yul\":41394:41396   */\n      0x20\n        /* \"#utility.yul\":41386:41392   */\n      dup3\n        /* \"#utility.yul\":41382:41397   */\n      add\n        /* \"#utility.yul\":41375:41410   */\n      mstore\n        /* \"#utility.yul\":41190:41417   */\n      pop\n      jump\t// out\n        /* \"#utility.yul\":41423:41789   */\n    tag_531:\n        /* \"#utility.yul\":41565:41568   */\n      0x00\n        /* \"#utility.yul\":41586:41653   */\n      tag_925\n        /* \"#utility.yul\":41650:41652   */\n      0x28\n        /* \"#utility.yul\":41645:41648   */\n      dup4\n        /* \"#utility.yul\":41586:41653   */\n      tag_471\n      jump\t// in\n    tag_925:\n        /* \"#utility.yul\":41579:41653   */\n      swap2\n      pop\n        /* \"#utility.yul\":41662:41755   */\n      tag_926\n        /* \"#utility.yul\":41751:41754   */\n      dup3\n        /* \"#utility.yul\":41662:41755   */\n      tag_530\n      jump\t// in\n    tag_926:\n        /* \"#utility.yul\":41780:41782   */\n      0x40\n        /* \"#utility.yul\":41775:41778   */\n      dup3\n        /* \"#utility.yul\":41771:41783   */\n      add\n        /* \"#utility.yul\":41764:41783   */\n      swap1\n      pop\n        /* \"#utility.yul\":41423:41789   */\n      swap2\n      swap1\n      pop\n      jump\t// out\n        /* \"#utility.yul\":41795:42214   */\n    tag_360:\n        /* \"#utility.yul\":41961:41965   */\n      0x00\n        /* \"#utility.yul\":41999:42001   */\n      0x20\n        /* \"#utility.yul\":41988:41997   */\n      dup3\n        /* \"#utility.yul\":41984:42002   */\n      add\n        /* \"#utility.yul\":41976:42002   */\n      swap1\n      pop\n        /* \"#utility.yul\":42048:42057   */\n      dup2\n        /* \"#utility.yul\":42042:42046   */\n      dup2\n        /* \"#utility.yul\":42038:42058   */\n      sub\n        /* \"#utility.yul\":42034:42035   */\n      0x00\n        /* \"#utility.yul\":42023:42032   */\n      dup4\n        /* \"#utility.yul\":42019:42036   */\n      add\n        /* \"#utility.yul\":42012:42059   */\n      mstore\n        /* \"#utility.yul\":42076:42207   */\n      tag_928\n        /* \"#utility.yul\":42202:42206   */\n      dup2\n        /* \"#utility.yul\":42076:42207   */\n      tag_531\n      jump\t// in\n    tag_928:\n        /* \"#utility.yul\":42068:42207   */\n      swap1\n      pop\n        /* \"#utility.yul\":41795:42214   */\n      swap2\n      swap1\n      pop\n      jump\t// out\n        /* \"#utility.yul\":42220:42371   */\n    tag_532:\n        /* \"#utility.yul\":42360:42363   */\n      0x4100000000000000000000000000000000000000000000000000000000000000\n        /* \"#utility.yul\":42356:42357   */\n      0x00\n        /* \"#utility.yul\":42348:42354   */\n      dup3\n        /* \"#utility.yul\":42344:42358   */\n      add\n        /* \"#utility.yul\":42337:42364   */\n      mstore\n        /* \"#utility.yul\":42220:42371   */\n      pop\n      jump\t// out\n        /* \"#utility.yul\":42377:42777   */\n    tag_533:\n        /* \"#utility.yul\":42537:42540   */\n      0x00\n        /* \"#utility.yul\":42558:42642   */\n      tag_931\n        /* \"#utility.yul\":42640:42641   */\n      0x01\n        /* \"#utility.yul\":42635:42638   */\n      dup4\n        /* \"#utility.yul\":42558:42642   */\n      tag_495\n      jump\t// in\n    tag_931:\n        /* \"#utility.yul\":42551:42642   */\n      swap2\n      pop\n        /* \"#utility.yul\":42651:42744   */\n      tag_932\n        /* \"#utility.yul\":42740:42743   */\n      dup3\n        /* \"#utility.yul\":42651:42744   */\n      tag_532\n      jump\t// in\n    tag_932:\n        /* \"#utility.yul\":42769:42770   */\n      0x01\n        /* \"#utility.yul\":42764:42767   */\n      dup3\n        /* \"#utility.yul\":42760:42771   */\n      add\n        /* \"#utility.yul\":42753:42771   */\n      swap1\n      pop\n        /* \"#utility.yul\":42377:42777   */\n      swap2\n      swap1\n      pop\n      jump\t// out\n        /* \"#utility.yul\":42783:43164   */\n    tag_362:\n        /* \"#utility.yul\":42968:42971   */\n      0x00\n        /* \"#utility.yul\":42990:43138   */\n      tag_934\n        /* \"#utility.yul\":43134:43137   */\n      dup3\n        /* \"#utility.yul\":42990:43138   */\n      tag_533\n      jump\t// in\n    tag_934:\n        /* \"#utility.yul\":42983:43138   */\n      swap2\n      pop\n        /* \"#utility.yul\":43155:43158   */\n      dup2\n        /* \"#utility.yul\":43148:43158   */\n      swap1\n      pop\n        /* \"#utility.yul\":42783:43164   */\n      swap2\n      swap1\n      pop\n      jump\t// out\n        /* \"#utility.yul\":43170:43321   */\n    tag_534:\n        /* \"#utility.yul\":43310:43313   */\n      0x4200000000000000000000000000000000000000000000000000000000000000\n        /* \"#utility.yul\":43306:43307   */\n      0x00\n        /* \"#utility.yul\":43298:43304   */\n      dup3\n        /* \"#utility.yul\":43294:43308   */\n      add\n        /* \"#utility.yul\":43287:43314   */\n      mstore\n        /* \"#utility.yul\":43170:43321   */\n      pop\n      jump\t// out\n        /* \"#utility.yul\":43327:43727   */\n    tag_535:\n        /* \"#utility.yul\":43487:43490   */\n      0x00\n        /* \"#utility.yul\":43508:43592   */\n      tag_937\n        /* \"#utility.yul\":43590:43591   */\n      0x01\n        /* \"#utility.yul\":43585:43588   */\n      dup4\n        /* \"#utility.yul\":43508:43592   */\n      tag_495\n      jump\t// in\n    tag_937:\n        /* \"#utility.yul\":43501:43592   */\n      swap2\n      pop\n        /* \"#utility.yul\":43601:43694   */\n      tag_938\n        /* \"#utility.yul\":43690:43693   */\n      dup3\n        /* \"#utility.yul\":43601:43694   */\n      tag_534\n      jump\t// in\n    tag_938:\n        /* \"#utility.yul\":43719:43720   */\n      0x01\n        /* \"#utility.yul\":43714:43717   */\n      dup3\n        /* \"#utility.yul\":43710:43721   */\n      add\n        /* \"#utility.yul\":43703:43721   */\n      swap1\n      pop\n        /* \"#utility.yul\":43327:43727   */\n      swap2\n      swap1\n      pop\n      jump\t// out\n        /* \"#utility.yul\":43733:44114   */\n    tag_366:\n        /* \"#utility.yul\":43918:43921   */\n      0x00\n        /* \"#utility.yul\":43940:44088   */\n      tag_940\n        /* \"#utility.yul\":44084:44087   */\n      dup3\n        /* \"#utility.yul\":43940:44088   */\n      tag_535\n      jump\t// in\n    tag_940:\n        /* \"#utility.yul\":43933:44088   */\n      swap2\n      pop\n        /* \"#utility.yul\":44105:44108   */\n      dup2\n        /* \"#utility.yul\":44098:44108   */\n      swap1\n      pop\n        /* \"#utility.yul\":43733:44114   */\n      swap2\n      swap1\n      pop\n      jump\t// out\n        /* \"#utility.yul\":44120:44271   */\n    tag_536:\n        /* \"#utility.yul\":44260:44263   */\n      0x4300000000000000000000000000000000000000000000000000000000000000\n        /* \"#utility.yul\":44256:44257   */\n      0x00\n        /* \"#utility.yul\":44248:44254   */\n      dup3\n        /* \"#utility.yul\":44244:44258   */\n      add\n        /* \"#utility.yul\":44237:44264   */\n      mstore\n        /* \"#utility.yul\":44120:44271   */\n      pop\n      jump\t// out\n        /* \"#utility.yul\":44277:44677   */\n    tag_537:\n        /* \"#utility.yul\":44437:44440   */\n      0x00\n        /* \"#utility.yul\":44458:44542   */\n      tag_943\n        /* \"#utility.yul\":44540:44541   */\n      0x01\n        /* \"#utility.yul\":44535:44538   */\n      dup4\n        /* \"#utility.yul\":44458:44542   */\n      tag_495\n      jump\t// in\n    tag_943:\n        /* \"#utility.yul\":44451:44542   */\n      swap2\n      pop\n        /* \"#utility.yul\":44551:44644   */\n      tag_944\n        /* \"#utility.yul\":44640:44643   */\n      dup3\n        /* \"#utility.yul\":44551:44644   */\n      tag_536\n      jump\t// in\n    tag_944:\n        /* \"#utility.yul\":44669:44670   */\n      0x01\n        /* \"#utility.yul\":44664:44667   */\n      dup3\n        /* \"#utility.yul\":44660:44671   */\n      add\n        /* \"#utility.yul\":44653:44671   */\n      swap1\n      pop\n        /* \"#utility.yul\":44277:44677   */\n      swap2\n      swap1\n      pop\n      jump\t// out\n        /* \"#utility.yul\":44683:45064   */\n    tag_370:\n        /* \"#utility.yul\":44868:44871   */\n      0x00\n        /* \"#utility.yul\":44890:45038   */\n      tag_946\n        /* \"#utility.yul\":45034:45037   */\n      dup3\n        /* \"#utility.yul\":44890:45038   */\n      tag_537\n      jump\t// in\n    tag_946:\n        /* \"#utility.yul\":44883:45038   */\n      swap2\n      pop\n        /* \"#utility.yul\":45055:45058   */\n      dup2\n        /* \"#utility.yul\":45048:45058   */\n      swap1\n      pop\n        /* \"#utility.yul\":44683:45064   */\n      swap2\n      swap1\n      pop\n      jump\t// out\n        /* \"#utility.yul\":45070:45221   */\n    tag_538:\n        /* \"#utility.yul\":45210:45213   */\n      0x4400000000000000000000000000000000000000000000000000000000000000\n        /* \"#utility.yul\":45206:45207   */\n      0x00\n        /* \"#utility.yul\":45198:45204   */\n      dup3\n        /* \"#utility.yul\":45194:45208   */\n      add\n        /* \"#utility.yul\":45187:45214   */\n      mstore\n        /* \"#utility.yul\":45070:45221   */\n      pop\n      jump\t// out\n        /* \"#utility.yul\":45227:45627   */\n    tag_539:\n        /* \"#utility.yul\":45387:45390   */\n      0x00\n        /* \"#utility.yul\":45408:45492   */\n      tag_949\n        /* \"#utility.yul\":45490:45491   */\n      0x01\n        /* \"#utility.yul\":45485:45488   */\n      dup4\n        /* \"#utility.yul\":45408:45492   */\n      tag_495\n      jump\t// in\n    tag_949:\n        /* \"#utility.yul\":45401:45492   */\n      swap2\n      pop\n        /* \"#utility.yul\":45501:45594   */\n      tag_950\n        /* \"#utility.yul\":45590:45593   */\n      dup3\n        /* \"#utility.yul\":45501:45594   */\n      tag_538\n      jump\t// in\n    tag_950:\n        /* \"#utility.yul\":45619:45620   */\n      0x01\n        /* \"#utility.yul\":45614:45617   */\n      dup3\n        /* \"#utility.yul\":45610:45621   */\n      add\n        /* \"#utility.yul\":45603:45621   */\n      swap1\n      pop\n        /* \"#utility.yul\":45227:45627   */\n      swap2\n      swap1\n      pop\n      jump\t// out\n        /* \"#utility.yul\":45633:46014   */\n    tag_374:\n        /* \"#utility.yul\":45818:45821   */\n      0x00\n        /* \"#utility.yul\":45840:45988   */\n      tag_952\n        /* \"#utility.yul\":45984:45987   */\n      dup3\n        /* \"#utility.yul\":45840:45988   */\n      tag_539\n      jump\t// in\n    tag_952:\n        /* \"#utility.yul\":45833:45988   */\n      swap2\n      pop\n        /* \"#utility.yul\":46005:46008   */\n      dup2\n        /* \"#utility.yul\":45998:46008   */\n      swap1\n      pop\n        /* \"#utility.yul\":45633:46014   */\n      swap2\n      swap1\n      pop\n      jump\t// out\n        /* \"#utility.yul\":46020:46192   */\n    tag_540:\n        /* \"#utility.yul\":46160:46184   */\n      0x496e76616c696420636f727265637420616e7377657200000000000000000000\n        /* \"#utility.yul\":46156:46157   */\n      0x00\n        /* \"#utility.yul\":46148:46154   */\n      dup3\n        /* \"#utility.yul\":46144:46158   */\n      add\n        /* \"#utility.yul\":46137:46185   */\n      mstore\n        /* \"#utility.yul\":46020:46192   */\n      pop\n      jump\t// out\n        /* \"#utility.yul\":46198:46564   */\n    tag_541:\n        /* \"#utility.yul\":46340:46343   */\n      0x00\n        /* \"#utility.yul\":46361:46428   */\n      tag_955\n        /* \"#utility.yul\":46425:46427   */\n      0x16\n        /* \"#utility.yul\":46420:46423   */\n      dup4\n        /* \"#utility.yul\":46361:46428   */\n      tag_471\n      jump\t// in\n    tag_955:\n        /* \"#utility.yul\":46354:46428   */\n      swap2\n      pop\n        /* \"#utility.yul\":46437:46530   */\n      tag_956\n        /* \"#utility.yul\":46526:46529   */\n      dup3\n        /* \"#utility.yul\":46437:46530   */\n      tag_540\n      jump\t// in\n    tag_956:\n        /* \"#utility.yul\":46555:46557   */\n      0x20\n        /* \"#utility.yul\":46550:46553   */\n      dup3\n        /* \"#utility.yul\":46546:46558   */\n      add\n        /* \"#utility.yul\":46539:46558   */\n      swap1\n      pop\n        /* \"#utility.yul\":46198:46564   */\n      swap2\n      swap1\n      pop\n      jump\t// out\n        /* \"#utility.yul\":46570:46989   */\n    tag_378:\n        /* \"#utility.yul\":46736:46740   */\n      0x00\n        /* \"#utility.yul\":46774:46776   */\n      0x20\n        /* \"#utility.yul\":46763:46772   */\n      dup3\n        /* \"#utility.yul\":46759:46777   */\n      add\n        /* \"#utility.yul\":46751:46777   */\n      swap1\n      pop\n        /* \"#utility.yul\":46823:46832   */\n      dup2\n        /* \"#utility.yul\":46817:46821   */\n      dup2\n        /* \"#utility.yul\":46813:46833   */\n      sub\n        /* \"#utility.yul\":46809:46810   */\n      0x00\n        /* \"#utility.yul\":46798:46807   */\n      dup4\n        /* \"#utility.yul\":46794:46811   */\n      add\n        /* \"#utility.yul\":46787:46834   */\n      mstore\n        /* \"#utility.yul\":46851:46982   */\n      tag_958\n        /* \"#utility.yul\":46977:46981   */\n      dup2\n        /* \"#utility.yul\":46851:46982   */\n      tag_541\n      jump\t// in\n    tag_958:\n        /* \"#utility.yul\":46843:46982   */\n      swap1\n      pop\n        /* \"#utility.yul\":46570:46989   */\n      swap2\n      swap1\n      pop\n      jump\t// out\n        /* \"#utility.yul\":46995:47170   */\n    tag_542:\n        /* \"#utility.yul\":47135:47162   */\n      0x4661696c656420746f20776974686472617720746f6b656e7300000000000000\n        /* \"#utility.yul\":47131:47132   */\n      0x00\n        /* \"#utility.yul\":47123:47129   */\n      dup3\n        /* \"#utility.yul\":47119:47133   */\n      add\n        /* \"#utility.yul\":47112:47163   */\n      mstore\n        /* \"#utility.yul\":46995:47170   */\n      pop\n      jump\t// out\n        /* \"#utility.yul\":47176:47542   */\n    tag_543:\n        /* \"#utility.yul\":47318:47321   */\n      0x00\n        /* \"#utility.yul\":47339:47406   */\n      tag_961\n        /* \"#utility.yul\":47403:47405   */\n      0x19\n        /* \"#utility.yul\":47398:47401   */\n      dup4\n        /* \"#utility.yul\":47339:47406   */\n      tag_471\n      jump\t// in\n    tag_961:\n        /* \"#utility.yul\":47332:47406   */\n      swap2\n      pop\n        /* \"#utility.yul\":47415:47508   */\n      tag_962\n        /* \"#utility.yul\":47504:47507   */\n      dup3\n        /* \"#utility.yul\":47415:47508   */\n      tag_542\n      jump\t// in\n    tag_962:\n        /* \"#utility.yul\":47533:47535   */\n      0x20\n        /* \"#utility.yul\":47528:47531   */\n      dup3\n        /* \"#utility.yul\":47524:47536   */\n      add\n        /* \"#utility.yul\":47517:47536   */\n      swap1\n      pop\n        /* \"#utility.yul\":47176:47542   */\n      swap2\n      swap1\n      pop\n      jump\t// out\n        /* \"#utility.yul\":47548:47967   */\n    tag_398:\n        /* \"#utility.yul\":47714:47718   */\n      0x00\n        /* \"#utility.yul\":47752:47754   */\n      0x20\n        /* \"#utility.yul\":47741:47750   */\n      dup3\n        /* \"#utility.yul\":47737:47755   */\n      add\n        /* \"#utility.yul\":47729:47755   */\n      swap1\n      pop\n        /* \"#utility.yul\":47801:47810   */\n      dup2\n        /* \"#utility.yul\":47795:47799   */\n      dup2\n        /* \"#utility.yul\":47791:47811   */\n      sub\n        /* \"#utility.yul\":47787:47788   */\n      0x00\n        /* \"#utility.yul\":47776:47785   */\n      dup4\n        /* \"#utility.yul\":47772:47789   */\n      add\n        /* \"#utility.yul\":47765:47812   */\n      mstore\n        /* \"#utility.yul\":47829:47960   */\n      tag_964\n        /* \"#utility.yul\":47955:47959   */\n      dup2\n        /* \"#utility.yul\":47829:47960   */\n      tag_543\n      jump\t// in\n    tag_964:\n        /* \"#utility.yul\":47821:47960   */\n      swap1\n      pop\n        /* \"#utility.yul\":47548:47967   */\n      swap2\n      swap1\n      pop\n      jump\t// out\n        /* \"#utility.yul\":47973:48139   */\n    tag_544:\n        /* \"#utility.yul\":48113:48131   */\n      0x5061757361626c653a2070617573656400000000000000000000000000000000\n        /* \"#utility.yul\":48109:48110   */\n      0x00\n        /* \"#utility.yul\":48101:48107   */\n      dup3\n        /* \"#utility.yul\":48097:48111   */\n      add\n        /* \"#utility.yul\":48090:48132   */\n      mstore\n        /* \"#utility.yul\":47973:48139   */\n      pop\n      jump\t// out\n        /* \"#utility.yul\":48145:48511   */\n    tag_545:\n        /* \"#utility.yul\":48287:48290   */\n      0x00\n        /* \"#utility.yul\":48308:48375   */\n      tag_967\n        /* \"#utility.yul\":48372:48374   */\n      0x10\n        /* \"#utility.yul\":48367:48370   */\n      dup4\n        /* \"#utility.yul\":48308:48375   */\n      tag_471\n      jump\t// in\n    tag_967:\n        /* \"#utility.yul\":48301:48375   */\n      swap2\n      pop\n        /* \"#utility.yul\":48384:48477   */\n      tag_968\n        /* \"#utility.yul\":48473:48476   */\n      dup3\n        /* \"#utility.yul\":48384:48477   */\n      tag_544\n      jump\t// in\n    tag_968:\n        /* \"#utility.yul\":48502:48504   */\n      0x20\n        /* \"#utility.yul\":48497:48500   */\n      dup3\n        /* \"#utility.yul\":48493:48505   */\n      add\n        /* \"#utility.yul\":48486:48505   */\n      swap1\n      pop\n        /* \"#utility.yul\":48145:48511   */\n      swap2\n      swap1\n      pop\n      jump\t// out\n        /* \"#utility.yul\":48517:48936   */\n    tag_409:\n        /* \"#utility.yul\":48683:48687   */\n      0x00\n        /* \"#utility.yul\":48721:48723   */\n      0x20\n        /* \"#utility.yul\":48710:48719   */\n      dup3\n        /* \"#utility.yul\":48706:48724   */\n      add\n        /* \"#utility.yul\":48698:48724   */\n      swap1\n      pop\n        /* \"#utility.yul\":48770:48779   */\n      dup2\n        /* \"#utility.yul\":48764:48768   */\n      dup2\n        /* \"#utility.yul\":48760:48780   */\n      sub\n        /* \"#utility.yul\":48756:48757   */\n      0x00\n        /* \"#utility.yul\":48745:48754   */\n      dup4\n        /* \"#utility.yul\":48741:48758   */\n      add\n        /* \"#utility.yul\":48734:48781   */\n      mstore\n        /* \"#utility.yul\":48798:48929   */\n      tag_970\n        /* \"#utility.yul\":48924:48928   */\n      dup2\n        /* \"#utility.yul\":48798:48929   */\n      tag_545\n      jump\t// in\n    tag_970:\n        /* \"#utility.yul\":48790:48929   */\n      swap1\n      pop\n        /* \"#utility.yul\":48517:48936   */\n      swap2\n      swap1\n      pop\n      jump\t// out\n        /* \"#utility.yul\":48942:49112   */\n    tag_546:\n        /* \"#utility.yul\":49082:49104   */\n      0x5061757361626c653a206e6f7420706175736564000000000000000000000000\n        /* \"#utility.yul\":49078:49079   */\n      0x00\n        /* \"#utility.yul\":49070:49076   */\n      dup3\n        /* \"#utility.yul\":49066:49080   */\n      add\n        /* \"#utility.yul\":49059:49105   */\n      mstore\n        /* \"#utility.yul\":48942:49112   */\n      pop\n      jump\t// out\n        /* \"#utility.yul\":49118:49484   */\n    tag_547:\n        /* \"#utility.yul\":49260:49263   */\n      0x00\n        /* \"#utility.yul\":49281:49348   */\n      tag_973\n        /* \"#utility.yul\":49345:49347   */\n      0x14\n        /* \"#utility.yul\":49340:49343   */\n      dup4\n        /* \"#utility.yul\":49281:49348   */\n      tag_471\n      jump\t// in\n    tag_973:\n        /* \"#utility.yul\":49274:49348   */\n      swap2\n      pop\n        /* \"#utility.yul\":49357:49450   */\n      tag_974\n        /* \"#utility.yul\":49446:49449   */\n      dup3\n        /* \"#utility.yul\":49357:49450   */\n      tag_546\n      jump\t// in\n    tag_974:\n        /* \"#utility.yul\":49475:49477   */\n      0x20\n        /* \"#utility.yul\":49470:49473   */\n      dup3\n        /* \"#utility.yul\":49466:49478   */\n      add\n        /* \"#utility.yul\":49459:49478   */\n      swap1\n      pop\n        /* \"#utility.yul\":49118:49484   */\n      swap2\n      swap1\n      pop\n      jump\t// out\n        /* \"#utility.yul\":49490:49909   */\n    tag_434:\n        /* \"#utility.yul\":49656:49660   */\n      0x00\n        /* \"#utility.yul\":49694:49696   */\n      0x20\n        /* \"#utility.yul\":49683:49692   */\n      dup3\n        /* \"#utility.yul\":49679:49697   */\n      add\n        /* \"#utility.yul\":49671:49697   */\n      swap1\n      pop\n        /* \"#utility.yul\":49743:49752   */\n      dup2\n        /* \"#utility.yul\":49737:49741   */\n      dup2\n        /* \"#utility.yul\":49733:49753   */\n      sub\n        /* \"#utility.yul\":49729:49730   */\n      0x00\n        /* \"#utility.yul\":49718:49727   */\n      dup4\n        /* \"#utility.yul\":49714:49731   */\n      add\n        /* \"#utility.yul\":49707:49754   */\n      mstore\n        /* \"#utility.yul\":49771:49902   */\n      tag_976\n        /* \"#utility.yul\":49897:49901   */\n      dup2\n        /* \"#utility.yul\":49771:49902   */\n      tag_547\n      jump\t// in\n    tag_976:\n        /* \"#utility.yul\":49763:49902   */\n      swap1\n      pop\n        /* \"#utility.yul\":49490:49909   */\n      swap2\n      swap1\n      pop\n      jump\t// out\n\n    auxdata: 0xa2646970667358221220235feeaaf34e9cc2ab2d864590ad3137ede264fcdb28c5180640284ce85fee1264736f6c634300081a0033\n}\n",
				"bytecode": {
					"linkReferences": {},
					"object": "608060405234801561000f575f80fd5b5060405161406238038061406283398181016040528101906100319190610230565b335f73ffffffffffffffffffffffffffffffffffffffff168173ffffffffffffffffffffffffffffffffffffffff16036100a2575f6040517f1e4fbdf7000000000000000000000000000000000000000000000000000000008152600401610099919061026a565b60405180910390fd5b6100b18161011160201b60201c565b505f8060146101000a81548160ff0219169083151502179055508060015f6101000a81548173ffffffffffffffffffffffffffffffffffffffff021916908373ffffffffffffffffffffffffffffffffffffffff16021790555050610283565b5f805f9054906101000a900473ffffffffffffffffffffffffffffffffffffffff169050815f806101000a81548173ffffffffffffffffffffffffffffffffffffffff021916908373ffffffffffffffffffffffffffffffffffffffff1602179055508173ffffffffffffffffffffffffffffffffffffffff168173ffffffffffffffffffffffffffffffffffffffff167f8be0079c531659141344cd1fd0a4f28419497f9722a3daafe3b4186f6b6457e060405160405180910390a35050565b5f80fd5b5f73ffffffffffffffffffffffffffffffffffffffff82169050919050565b5f6101ff826101d6565b9050919050565b61020f816101f5565b8114610219575f80fd5b50565b5f8151905061022a81610206565b92915050565b5f60208284031215610245576102446101d2565b5b5f6102528482850161021c565b91505092915050565b610264816101f5565b82525050565b5f60208201905061027d5f83018461025b565b92915050565b613dd2806102905f395ff3fe608060405260043610610169575f3560e01c80638da5cb5b116100d0578063b0aaefd611610089578063d69c575b11610063578063d69c575b146104de578063e111f6b414610506578063f2fde38b1461052e578063fbf1aded1461055657610170565b8063b0aaefd61461044a578063ba2f03621461048c578063cf90b3be146104b457610170565b80638da5cb5b1461033b578063905baa611461036557806396f979d21461038d578063996b5d8e146103ce578063a4e1f033146103f6578063ae24f0051461042057610170565b80636605515911610122578063660551591461026b578063715018a61461029557806375284998146102ab5780638456cb59146102d357806387bc1425146102e95780638a38ab2c1461031357610170565b806303b1965b1461017457806307f910f81461019c5780633f4ba83a146101db5780635c975abb146101f15780635cb45cb51461021b5780635e52da271461024357610170565b3661017057005b5f80fd5b34801561017f575f80fd5b5061019a60048036038101906101959190612579565b610580565b005b3480156101a7575f80fd5b506101c260048036038101906101bd9190612611565b61078a565b6040516101d29493929190612684565b60405180910390f35b3480156101e6575f80fd5b506101ef6107f1565b005b3480156101fc575f80fd5b50610205610803565b60405161021291906126c7565b60405180910390f35b348015610226575f80fd5b50610241600480360381019061023c91906128fe565b610818565b005b34801561024e575f80fd5b5061026960048036038101906102649190612958565b610e51565b005b348015610276575f80fd5b5061027f611106565b60405161028c9190612992565b60405180910390f35b3480156102a0575f80fd5b506102a961110c565b005b3480156102b6575f80fd5b506102d160048036038101906102cc9190612958565b61111f565b005b3480156102de575f80fd5b506102e76111e4565b005b3480156102f4575f80fd5b506102fd6111f6565b60405161030a9190612a06565b60405180910390f35b34801561031e575f80fd5b5061033960048036038101906103349190612a1f565b61121b565b005b348015610346575f80fd5b5061034f611450565b60405161035c9190612a75565b60405180910390f35b348015610370575f80fd5b5061038b60048036038101906103869190612a8e565b611477565b005b348015610398575f80fd5b506103b360048036038101906103ae9190612958565b6114c2565b6040516103c596959493929190612b19565b60405180910390f35b3480156103d9575f80fd5b506103f460048036038101906103ef9190612958565b6115ab565b005b348015610401575f80fd5b5061040a6117fd565b6040516104179190612992565b60405180910390f35b34801561042b575f80fd5b50610434611802565b6040516104419190612992565b60405180910390f35b348015610455575f80fd5b50610470600480360381019061046b9190612579565b611807565b6040516104839796959493929190612b97565b60405180910390f35b348015610497575f80fd5b506104b260048036038101906104ad9190612958565b611afd565b005b3480156104bf575f80fd5b506104c8611d34565b6040516104d59190612992565b60405180910390f35b3480156104e9575f80fd5b5061050460048036038101906104ff9190612c27565b611d40565b005b348015610511575f80fd5b5061052c60048036038101906105279190612958565b612145565b005b348015610539575f80fd5b50610554600480360381019061054f9190612a8e565b612200565b005b348015610561575f80fd5b5061056a612284565b6040516105779190612992565b60405180910390f35b610588612290565b5f60025f8481526020019081526020015f209050805f015f9054906101000a900473ffffffffffffffffffffffffffffffffffffffff1673ffffffffffffffffffffffffffffffffffffffff163373ffffffffffffffffffffffffffffffffffffffff161461062c576040517f08c379a000000000000000000000000000000000000000000000000000000000815260040161062390612ddc565b60405180910390fd5b8181600401541015610673576040517f08c379a000000000000000000000000000000000000000000000000000000000815260040161066a90612e6a565b60405180910390fd5b81816004015f8282546106869190612eb5565b925050819055505f3373ffffffffffffffffffffffffffffffffffffffff16836040516106b290612f15565b5f6040518083038185875af1925050503d805f81146106ec576040519150601f19603f3d011682016040523d82523d5f602084013e6106f1565b606091505b5050905080610735576040517f08c379a000000000000000000000000000000000000000000000000000000000815260040161072c90612f73565b60405180910390fd5b3373ffffffffffffffffffffffffffffffffffffffff16847fac49faceac63eafdea924340376e875517fd2e5b7e9b63c9bbbc464e166233f68560405161077c9190612992565b60405180910390a350505050565b6003602052815f5260405f20602052805f5260405f205f9150915050805f015f9054906101000a900460ff1690805f0160019054906101000a900460ff1690805f0160029054906101000a900460ff1690805f0160039054906101000a900460ff16905084565b6107f96122da565b610801612361565b565b5f8060149054906101000a900460ff16905090565b5f60035f3373ffffffffffffffffffffffffffffffffffffffff1673ffffffffffffffffffffffffffffffffffffffff1681526020019081526020015f205f8481526020019081526020015f209050805f015f9054906101000a900460ff166108b6576040517f08c379a00000000000000000000000000000000000000000000000000000000081526004016108ad90612fdb565b60405180910390fd5b6002815f0160019054906101000a900460ff1660ff161061090c576040517f08c379a000000000000000000000000000000000000000000000000000000000815260040161090390613043565b60405180910390fd5b805f0160029054906101000a900460ff161561095d576040517f08c379a0000000000000000000000000000000000000000000000000000000008152600401610954906130d1565b60405180910390fd5b805f01600181819054906101000a900460ff168092919061097d906130ef565b91906101000a81548160ff021916908360ff160217905550505f60045f8581526020019081526020015f20805480602002602001604051908101604052809291908181526020015f905b82821015610cda578382905f5260205f2090600702016040518060e00160405290815f8201548152602001600182018054610a0190613144565b80601f0160208091040260200160405190810160405280929190818152602001828054610a2d90613144565b8015610a785780601f10610a4f57610100808354040283529160200191610a78565b820191905f5260205f20905b815481529060010190602001808311610a5b57829003601f168201915b50505050508152602001600282018054610a9190613144565b80601f0160208091040260200160405190810160405280929190818152602001828054610abd90613144565b8015610b085780601f10610adf57610100808354040283529160200191610b08565b820191905f5260205f20905b815481529060010190602001808311610aeb57829003601f168201915b50505050508152602001600382018054610b2190613144565b80601f0160208091040260200160405190810160405280929190818152602001828054610b4d90613144565b8015610b985780601f10610b6f57610100808354040283529160200191610b98565b820191905f5260205f20905b815481529060010190602001808311610b7b57829003601f168201915b50505050508152602001600482018054610bb190613144565b80601f0160208091040260200160405190810160405280929190818152602001828054610bdd90613144565b8015610c285780601f10610bff57610100808354040283529160200191610c28565b820191905f5260205f20905b815481529060010190602001808311610c0b57829003601f168201915b50505050508152602001600582018054610c4190613144565b80601f0160208091040260200160405190810160405280929190818152602001828054610c6d90613144565b8015610cb85780601f10610c8f57610100808354040283529160200191610cb8565b820191905f5260205f20905b815481529060010190602001808311610c9b57829003601f168201915b50505050508152602001600682015481525050815260200190600101906109c7565b5050505090508051835114610d24576040517f08c379a0000000000000000000000000000000000000000000000000000000008152600401610d1b906131be565b60405180910390fd5b5f600190505f5b8251811015610dae57828181518110610d4757610d466131dc565b5b602002602001015160c00151858281518110610d6657610d656131dc565b5b6020026020010151604051602001610d7e9190613243565b6040516020818303038152906040528051906020012014610da1575f9150610dae565b8080600101915050610d2b565b508015610dfb576001835f0160026101000a81548160ff02191690831515021790555060025f8681526020019081526020015f206003015f815480929190610df590613259565b91905055505b3373ffffffffffffffffffffffffffffffffffffffff16857faee8895c1bf669485cee2dd54d1eee9e65b02a244afb6f798f95d72405cdf7a583604051610e4291906126c7565b60405180910390a35050505050565b610e59612290565b600560015f9054906101000a900473ffffffffffffffffffffffffffffffffffffffff1673ffffffffffffffffffffffffffffffffffffffff1663b9f79451336040518263ffffffff1660e01b8152600401610eb59190612a75565b602060405180830381865afa158015610ed0573d5f803e3d5ffd5b505050506040513d601f19601f82011682018060405250810190610ef491906132b4565b1015610f35576040517f08c379a0000000000000000000000000000000000000000000000000000000008152600401610f2c9061334f565b60405180910390fd5b60025f8281526020019081526020015f206002015f9054906101000a900460ff16610f95576040517f08c379a0000000000000000000000000000000000000000000000000000000008152600401610f8c906133b7565b60405180910390fd5b60035f3373ffffffffffffffffffffffffffffffffffffffff1673ffffffffffffffffffffffffffffffffffffffff1681526020019081526020015f205f8281526020019081526020015f205f015f9054906101000a900460ff1615611030576040517f08c379a00000000000000000000000000000000000000000000000000000000081526004016110279061341f565b60405180910390fd5b600160035f3373ffffffffffffffffffffffffffffffffffffffff1673ffffffffffffffffffffffffffffffffffffffff1681526020019081526020015f205f8381526020019081526020015f205f015f6101000a81548160ff02191690831515021790555060025f8281526020019081526020015f206005015f8154809291906110ba90613259565b91905055503373ffffffffffffffffffffffffffffffffffffffff16817ffacf1a2842acbad124cbca0a047fe37bc246c68f814e0350c7bd8a022fd1dddb60405160405180910390a350565b60055481565b6111146122da565b61111d5f6123c2565b565b6111276122da565b60025f8281526020019081526020015f206002015f9054906101000a900460ff1615611188576040517f08c379a000000000000000000000000000000000000000000000000000000000815260040161117f90613487565b60405180910390fd5b600160025f8381526020019081526020015f206002015f6101000a81548160ff021916908315150217905550807f87c1c0e5cd17beb8c61a3337b32c66021cb179dd6f97d6d9ce923a029092bd4560405160405180910390a250565b6111ec6122da565b6111f4612483565b565b60015f9054906101000a900473ffffffffffffffffffffffffffffffffffffffff1681565b611223612290565b603260015f9054906101000a900473ffffffffffffffffffffffffffffffffffffffff1673ffffffffffffffffffffffffffffffffffffffff1663b9f79451336040518263ffffffff1660e01b815260040161127f9190612a75565b602060405180830381865afa15801561129a573d5f803e3d5ffd5b505050506040513d601f19601f820116820180604052508101906112be91906132b4565b10156112ff576040517f08c379a00000000000000000000000000000000000000000000000000000000081526004016112f690613515565b60405180910390fd5b5f60055f81548092919061131290613259565b9190505590506040518060c001604052803373ffffffffffffffffffffffffffffffffffffffff1681526020018381526020015f151581526020015f81526020015f81526020015f81525060025f8381526020019081526020015f205f820151815f015f6101000a81548173ffffffffffffffffffffffffffffffffffffffff021916908373ffffffffffffffffffffffffffffffffffffffff16021790555060208201518160010190816113c791906136c7565b506040820151816002015f6101000a81548160ff021916908315150217905550606082015181600301556080820151816004015560a082015181600501559050503373ffffffffffffffffffffffffffffffffffffffff16817fa68f79aa37f9cdc81c2757cfb3e11e9d7d89ca0a5410fbcf1b61125bc17fb1b760405160405180910390a35050565b5f805f9054906101000a900473ffffffffffffffffffffffffffffffffffffffff16905090565b61147f6122da565b8060015f6101000a81548173ffffffffffffffffffffffffffffffffffffffff021916908373ffffffffffffffffffffffffffffffffffffffff16021790555050565b6002602052805f5260405f205f91509050805f015f9054906101000a900473ffffffffffffffffffffffffffffffffffffffff169080600101805461150690613144565b80601f016020809104026020016040519081016040528092919081815260200182805461153290613144565b801561157d5780601f106115545761010080835404028352916020019161157d565b820191905f5260205f20905b81548152906001019060200180831161156057829003601f168201915b505050505090806002015f9054906101000a900460ff16908060030154908060040154908060050154905086565b6115b3612290565b5f60035f3373ffffffffffffffffffffffffffffffffffffffff1673ffffffffffffffffffffffffffffffffffffffff1681526020019081526020015f205f8381526020019081526020015f209050805f0160029054906101000a900460ff16611652576040517f08c379a0000000000000000000000000000000000000000000000000000000008152600401611649906137e0565b60405180910390fd5b805f0160039054906101000a900460ff16156116a3576040517f08c379a000000000000000000000000000000000000000000000000000000000815260040161169a90613848565b60405180910390fd5b6001815f0160036101000a81548160ff021916908315150217905550678ac7230489e8000060025f8481526020019081526020015f206004015f8282546116ea9190613866565b925050819055505f3373ffffffffffffffffffffffffffffffffffffffff16678ac7230489e8000060405161171e90612f15565b5f6040518083038185875af1925050503d805f8114611758576040519150601f19603f3d011682016040523d82523d5f602084013e61175d565b606091505b50509050806117a1576040517f08c379a000000000000000000000000000000000000000000000000000000000815260040161179890612f73565b60405180910390fd5b3373ffffffffffffffffffffffffffffffffffffffff16837f24b5efa61dd1cfc659205a97fb8ed868f3cb8c81922bab2b96423e5de1de2cb7678ac7230489e800006040516117f09190612992565b60405180910390a3505050565b603281565b600581565b6004602052815f5260405f208181548110611820575f80fd5b905f5260205f2090600702015f9150915050805f01549080600101805461184690613144565b80601f016020809104026020016040519081016040528092919081815260200182805461187290613144565b80156118bd5780601f10611894576101008083540402835291602001916118bd565b820191905f5260205f20905b8154815290600101906020018083116118a057829003601f168201915b5050505050908060020180546118d290613144565b80601f01602080910402602001604051908101604052809291908181526020018280546118fe90613144565b80156119495780601f1061192057610100808354040283529160200191611949565b820191905f5260205f20905b81548152906001019060200180831161192c57829003601f168201915b50505050509080600301805461195e90613144565b80601f016020809104026020016040519081016040528092919081815260200182805461198a90613144565b80156119d55780601f106119ac576101008083540402835291602001916119d5565b820191905f5260205f20905b8154815290600101906020018083116119b857829003601f168201915b5050505050908060040180546119ea90613144565b80601f0160208091040260200160405190810160405280929190818152602001828054611a1690613144565b8015611a615780601f10611a3857610100808354040283529160200191611a61565b820191905f5260205f20905b815481529060010190602001808311611a4457829003601f168201915b505050505090806005018054611a7690613144565b80601f0160208091040260200160405190810160405280929190818152602001828054611aa290613144565b8015611aed5780601f10611ac457610100808354040283529160200191611aed565b820191905f5260205f20905b815481529060010190602001808311611ad057829003601f168201915b5050505050908060060154905087565b611b05612290565b5f60025f8381526020019081526020015f209050805f015f9054906101000a900473ffffffffffffffffffffffffffffffffffffffff1673ffffffffffffffffffffffffffffffffffffffff163373ffffffffffffffffffffffffffffffffffffffff1614611ba9576040517f08c379a0000000000000000000000000000000000000000000000000000000008152600401611ba090613909565b60405180910390fd5b806002015f9054906101000a900460ff16611bf9576040517f08c379a0000000000000000000000000000000000000000000000000000000008152600401611bf0906133b7565b60405180910390fd5b5f670de0b6b3a76400008260030154611c129190613927565b90505f826003018190555080826004015f828254611c309190613866565b925050819055505f3373ffffffffffffffffffffffffffffffffffffffff1682604051611c5c90612f15565b5f6040518083038185875af1925050503d805f8114611c96576040519150601f19603f3d011682016040523d82523d5f602084013e611c9b565b606091505b5050905080611cdf576040517f08c379a0000000000000000000000000000000000000000000000000000000008152600401611cd690612f73565b60405180910390fd5b3373ffffffffffffffffffffffffffffffffffffffff16847fb67da43f4cc061f251c05601f44947d1be59a7ef5451a4a5230274da04f8824684604051611d269190612992565b60405180910390a350505050565b670de0b6b3a764000081565b60025f8881526020019081526020015f205f015f9054906101000a900473ffffffffffffffffffffffffffffffffffffffff1673ffffffffffffffffffffffffffffffffffffffff163373ffffffffffffffffffffffffffffffffffffffff1614611de0576040517f08c379a0000000000000000000000000000000000000000000000000000000008152600401611dd7906139d8565b60405180910390fd5b60025f8881526020019081526020015f206002015f9054906101000a900460ff16611e40576040517f08c379a0000000000000000000000000000000000000000000000000000000008152600401611e3790613a66565b60405180910390fd5b604051602001611e4f90613ace565b6040516020818303038152906040528051906020012081604051602001611e769190613243565b604051602081830303815290604052805190602001201480611ee15750604051602001611ea290613b2c565b6040516020818303038152906040528051906020012081604051602001611ec99190613243565b60405160208183030381529060405280519060200120145b80611f355750604051602001611ef690613b8a565b6040516020818303038152906040528051906020012081604051602001611f1d9190613243565b60405160208183030381529060405280519060200120145b80611f895750604051602001611f4a90613be8565b6040516020818303038152906040528051906020012081604051602001611f719190613243565b60405160208183030381529060405280519060200120145b611fc8576040517f08c379a0000000000000000000000000000000000000000000000000000000008152600401611fbf90613c46565b60405180910390fd5b5f6040518060e00160405280898152602001888152602001878152602001868152602001858152602001848152602001836040516020016120099190613243565b60405160208183030381529060405280519060200120815250905060045f8981526020019081526020015f2081908060018154018082558091505060019003905f5260205f2090600702015f909190919091505f820151815f0155602082015181600101908161207991906136c7565b50604082015181600201908161208f91906136c7565b5060608201518160030190816120a591906136c7565b5060808201518160040190816120bb91906136c7565b5060a08201518160050190816120d191906136c7565b5060c0820151816006015550505f600160045f8b81526020019081526020015f20805490506121009190612eb5565b9050887f8865832f191ae6766f74ad3a536812cffbf608c1dee46454cf0b3b9c98a4b37f826040516121329190612992565b60405180910390a2505050505050505050565b61214d6122da565b5f612156611450565b73ffffffffffffffffffffffffffffffffffffffff168260405161217990612f15565b5f6040518083038185875af1925050503d805f81146121b3576040519150601f19603f3d011682016040523d82523d5f602084013e6121b8565b606091505b50509050806121fc576040517f08c379a00000000000000000000000000000000000000000000000000000000081526004016121f390613cae565b60405180910390fd5b5050565b6122086122da565b5f73ffffffffffffffffffffffffffffffffffffffff168173ffffffffffffffffffffffffffffffffffffffff1603612278575f6040517f1e4fbdf700000000000000000000000000000000000000000000000000000000815260040161226f9190612a75565b60405180910390fd5b612281816123c2565b50565b678ac7230489e8000081565b612298610803565b156122d8576040517f08c379a00000000000000000000000000000000000000000000000000000000081526004016122cf90613d16565b60405180910390fd5b565b6122e26124e5565b73ffffffffffffffffffffffffffffffffffffffff16612300611450565b73ffffffffffffffffffffffffffffffffffffffff161461235f576123236124e5565b6040517f118cdaa70000000000000000000000000000000000000000000000000000000081526004016123569190612a75565b60405180910390fd5b565b6123696124ec565b5f8060146101000a81548160ff0219169083151502179055507f5db9ee0a495bf2e6ff9c91a7834c1ba4fdd244a5e8aa4e537bd38aeae4b073aa6123ab6124e5565b6040516123b89190612a75565b60405180910390a1565b5f805f9054906101000a900473ffffffffffffffffffffffffffffffffffffffff169050815f806101000a81548173ffffffffffffffffffffffffffffffffffffffff021916908373ffffffffffffffffffffffffffffffffffffffff1602179055508173ffffffffffffffffffffffffffffffffffffffff168173ffffffffffffffffffffffffffffffffffffffff167f8be0079c531659141344cd1fd0a4f28419497f9722a3daafe3b4186f6b6457e060405160405180910390a35050565b61248b612290565b60015f60146101000a81548160ff0219169083151502179055507f62e78cea01bee320cd4e420270b5ea74000d11b0c9f74754ebdbfc544b05a2586124ce6124e5565b6040516124db9190612a75565b60405180910390a1565b5f33905090565b6124f4610803565b612533576040517f08c379a000000000000000000000000000000000000000000000000000000000815260040161252a90613d7e565b60405180910390fd5b565b5f604051905090565b5f80fd5b5f80fd5b5f819050919050565b61255881612546565b8114612562575f80fd5b50565b5f813590506125738161254f565b92915050565b5f806040838503121561258f5761258e61253e565b5b5f61259c85828601612565565b92505060206125ad85828601612565565b9150509250929050565b5f73ffffffffffffffffffffffffffffffffffffffff82169050919050565b5f6125e0826125b7565b9050919050565b6125f0816125d6565b81146125fa575f80fd5b50565b5f8135905061260b816125e7565b92915050565b5f80604083850312156126275761262661253e565b5b5f612634858286016125fd565b925050602061264585828601612565565b9150509250929050565b5f8115159050919050565b6126638161264f565b82525050565b5f60ff82169050919050565b61267e81612669565b82525050565b5f6080820190506126975f83018761265a565b6126a46020830186612675565b6126b1604083018561265a565b6126be606083018461265a565b95945050505050565b5f6020820190506126da5f83018461265a565b92915050565b5f80fd5b5f601f19601f8301169050919050565b7f4e487b71000000000000000000000000000000000000000000000000000000005f52604160045260245ffd5b61272a826126e4565b810181811067ffffffffffffffff82111715612749576127486126f4565b5b80604052505050565b5f61275b612535565b90506127678282612721565b919050565b5f67ffffffffffffffff821115612786576127856126f4565b5b602082029050602081019050919050565b5f80fd5b5f80fd5b5f67ffffffffffffffff8211156127b9576127b86126f4565b5b6127c2826126e4565b9050602081019050919050565b828183375f83830152505050565b5f6127ef6127ea8461279f565b612752565b90508281526020810184848401111561280b5761280a61279b565b5b6128168482856127cf565b509392505050565b5f82601f830112612832576128316126e0565b5b81356128428482602086016127dd565b91505092915050565b5f61285d6128588461276c565b612752565b905080838252602082019050602084028301858111156128805761287f612797565b5b835b818110156128c757803567ffffffffffffffff8111156128a5576128a46126e0565b5b8086016128b2898261281e565b85526020850194505050602081019050612882565b5050509392505050565b5f82601f8301126128e5576128e46126e0565b5b81356128f584826020860161284b565b91505092915050565b5f80604083850312156129145761291361253e565b5b5f61292185828601612565565b925050602083013567ffffffffffffffff81111561294257612941612542565b5b61294e858286016128d1565b9150509250929050565b5f6020828403121561296d5761296c61253e565b5b5f61297a84828501612565565b91505092915050565b61298c81612546565b82525050565b5f6020820190506129a55f830184612983565b92915050565b5f819050919050565b5f6129ce6129c96129c4846125b7565b6129ab565b6125b7565b9050919050565b5f6129df826129b4565b9050919050565b5f6129f0826129d5565b9050919050565b612a00816129e6565b82525050565b5f602082019050612a195f8301846129f7565b92915050565b5f60208284031215612a3457612a3361253e565b5b5f82013567ffffffffffffffff811115612a5157612a50612542565b5b612a5d8482850161281e565b91505092915050565b612a6f816125d6565b82525050565b5f602082019050612a885f830184612a66565b92915050565b5f60208284031215612aa357612aa261253e565b5b5f612ab0848285016125fd565b91505092915050565b5f81519050919050565b5f82825260208201905092915050565b8281835e5f83830152505050565b5f612aeb82612ab9565b612af58185612ac3565b9350612b05818560208601612ad3565b612b0e816126e4565b840191505092915050565b5f60c082019050612b2c5f830189612a66565b8181036020830152612b3e8188612ae1565b9050612b4d604083018761265a565b612b5a6060830186612983565b612b676080830185612983565b612b7460a0830184612983565b979650505050505050565b5f819050919050565b612b9181612b7f565b82525050565b5f60e082019050612baa5f83018a612983565b8181036020830152612bbc8189612ae1565b90508181036040830152612bd08188612ae1565b90508181036060830152612be48187612ae1565b90508181036080830152612bf88186612ae1565b905081810360a0830152612c0c8185612ae1565b9050612c1b60c0830184612b88565b98975050505050505050565b5f805f805f805f60e0888a031215612c4257612c4161253e565b5b5f612c4f8a828b01612565565b975050602088013567ffffffffffffffff811115612c7057612c6f612542565b5b612c7c8a828b0161281e565b965050604088013567ffffffffffffffff811115612c9d57612c9c612542565b5b612ca98a828b0161281e565b955050606088013567ffffffffffffffff811115612cca57612cc9612542565b5b612cd68a828b0161281e565b945050608088013567ffffffffffffffff811115612cf757612cf6612542565b5b612d038a828b0161281e565b93505060a088013567ffffffffffffffff811115612d2457612d23612542565b5b612d308a828b0161281e565b92505060c088013567ffffffffffffffff811115612d5157612d50612542565b5b612d5d8a828b0161281e565b91505092959891949750929550565b7f4f6e6c7920636f757273652063726561746f722063616e2077697468647261775f8201527f20746f6b656e7300000000000000000000000000000000000000000000000000602082015250565b5f612dc6602783612ac3565b9150612dd182612d6c565b604082019050919050565b5f6020820190508181035f830152612df381612dba565b9050919050565b7f496e73756666696369656e7420726577617264656420746f6b656e7320746f205f8201527f7769746864726177000000000000000000000000000000000000000000000000602082015250565b5f612e54602883612ac3565b9150612e5f82612dfa565b604082019050919050565b5f6020820190508181035f830152612e8181612e48565b9050919050565b7f4e487b71000000000000000000000000000000000000000000000000000000005f52601160045260245ffd5b5f612ebf82612546565b9150612eca83612546565b9250828203905081811115612ee257612ee1612e88565b5b92915050565b5f81905092915050565b50565b5f612f005f83612ee8565b9150612f0b82612ef2565b5f82019050919050565b5f612f1f82612ef5565b9150819050919050565b7f4661696c656420746f2073656e64204d414e44000000000000000000000000005f82015250565b5f612f5d601383612ac3565b9150612f6882612f29565b602082019050919050565b5f6020820190508181035f830152612f8a81612f51565b9050919050565b7f55736572206e6f7420656e726f6c6c656420696e207468697320636f757273655f82015250565b5f612fc5602083612ac3565b9150612fd082612f91565b602082019050919050565b5f6020820190508181035f830152612ff281612fb9565b9050919050565b7f4d6178696d756d20617474656d707473207265616368656400000000000000005f82015250565b5f61302d601883612ac3565b915061303882612ff9565b602082019050919050565b5f6020820190508181035f83015261305a81613021565b9050919050565b7f557365722068617320616c726561647920706173736564207468697320636f755f8201527f7273650000000000000000000000000000000000000000000000000000000000602082015250565b5f6130bb602383612ac3565b91506130c682613061565b604082019050919050565b5f6020820190508181035f8301526130e8816130af565b9050919050565b5f6130f982612669565b915060ff820361310c5761310b612e88565b5b600182019050919050565b7f4e487b71000000000000000000000000000000000000000000000000000000005f52602260045260245ffd5b5f600282049050600182168061315b57607f821691505b60208210810361316e5761316d613117565b5b50919050565b7f416e7377657220636f756e74206d69736d6174636800000000000000000000005f82015250565b5f6131a8601583612ac3565b91506131b382613174565b602082019050919050565b5f6020820190508181035f8301526131d58161319c565b9050919050565b7f4e487b71000000000000000000000000000000000000000000000000000000005f52603260045260245ffd5b5f81905092915050565b5f61321d82612ab9565b6132278185613209565b9350613237818560208601612ad3565b80840191505092915050565b5f61324e8284613213565b915081905092915050565b5f61326382612546565b91507fffffffffffffffffffffffffffffffffffffffffffffffffffffffffffffffff820361329557613294612e88565b5b600182019050919050565b5f815190506132ae8161254f565b92915050565b5f602082840312156132c9576132c861253e565b5b5f6132d6848285016132a0565b91505092915050565b7f496e73756666696369656e742072657075746174696f6e20746f20656e726f6c5f8201527f6c00000000000000000000000000000000000000000000000000000000000000602082015250565b5f613339602183612ac3565b9150613344826132df565b604082019050919050565b5f6020820190508181035f8301526133668161332d565b9050919050565b7f436f75727365206e6f7420617070726f766564000000000000000000000000005f82015250565b5f6133a1601383612ac3565b91506133ac8261336d565b602082019050919050565b5f6020820190508181035f8301526133ce81613395565b9050919050565b7f416c726561647920656e726f6c6c6564000000000000000000000000000000005f82015250565b5f613409601083612ac3565b9150613414826133d5565b602082019050919050565b5f6020820190508181035f830152613436816133fd565b9050919050565b7f436f7572736520616c726561647920617070726f7665640000000000000000005f82015250565b5f613471601783612ac3565b915061347c8261343d565b602082019050919050565b5f6020820190508181035f83015261349e81613465565b9050919050565b7f496e73756666696369656e742072657075746174696f6e20746f2063726561745f8201527f6520636f75727365000000000000000000000000000000000000000000000000602082015250565b5f6134ff602883612ac3565b915061350a826134a5565b604082019050919050565b5f6020820190508181035f83015261352c816134f3565b9050919050565b5f819050815f5260205f209050919050565b5f6020601f8301049050919050565b5f82821b905092915050565b5f6008830261358f7fffffffffffffffffffffffffffffffffffffffffffffffffffffffffffffffff82613554565b6135998683613554565b95508019841693508086168417925050509392505050565b5f6135cb6135c66135c184612546565b6129ab565b612546565b9050919050565b5f819050919050565b6135e4836135b1565b6135f86135f0826135d2565b848454613560565b825550505050565b5f90565b61360c613600565b6136178184846135db565b505050565b5b8181101561363a5761362f5f82613604565b60018101905061361d565b5050565b601f82111561367f5761365081613533565b61365984613545565b81016020851015613668578190505b61367c61367485613545565b83018261361c565b50505b505050565b5f82821c905092915050565b5f61369f5f1984600802613684565b1980831691505092915050565b5f6136b78383613690565b9150826002028217905092915050565b6136d082612ab9565b67ffffffffffffffff8111156136e9576136e86126f4565b5b6136f38254613144565b6136fe82828561363e565b5f60209050601f83116001811461372f575f841561371d578287015190505b61372785826136ac565b86555061378e565b601f19841661373d86613533565b5f5b828110156137645784890151825560018201915060208501945060208101905061373f565b86831015613781578489015161377d601f891682613690565b8355505b6001600288020188555050505b505050505050565b7f436f75727365206e6f74207061737365640000000000000000000000000000005f82015250565b5f6137ca601183612ac3565b91506137d582613796565b602082019050919050565b5f6020820190508181035f8301526137f7816137be565b9050919050565b7f52657761726420616c726561647920636c61696d6564000000000000000000005f82015250565b5f613832601683612ac3565b915061383d826137fe565b602082019050919050565b5f6020820190508181035f83015261385f81613826565b9050919050565b5f61387082612546565b915061387b83612546565b925082820190508082111561389357613892612e88565b5b92915050565b7f4f6e6c7920636f757273652063726561746f722063616e20636c61696d2072655f8201527f7761726400000000000000000000000000000000000000000000000000000000602082015250565b5f6138f3602483612ac3565b91506138fe82613899565b604082019050919050565b5f6020820190508181035f830152613920816138e7565b9050919050565b5f61393182612546565b915061393c83612546565b925082820261394a81612546565b9150828204841483151761396157613960612e88565b5b5092915050565b7f4f6e6c7920636f757273652063726561746f722063616e2063726561746520615f8201527f207175697a000000000000000000000000000000000000000000000000000000602082015250565b5f6139c2602583612ac3565b91506139cd82613968565b604082019050919050565b5f6020820190508181035f8301526139ef816139b6565b9050919050565b7f436f75727365206d75737420626520617070726f76656420746f2063726561745f8201527f652061207175697a000000000000000000000000000000000000000000000000602082015250565b5f613a50602883612ac3565b9150613a5b826139f6565b604082019050919050565b5f6020820190508181035f830152613a7d81613a44565b9050919050565b7f41000000000000000000000000000000000000000000000000000000000000005f82015250565b5f613ab8600183613209565b9150613ac382613a84565b600182019050919050565b5f613ad882613aac565b9150819050919050565b7f42000000000000000000000000000000000000000000000000000000000000005f82015250565b5f613b16600183613209565b9150613b2182613ae2565b600182019050919050565b5f613b3682613b0a565b9150819050919050565b7f43000000000000000000000000000000000000000000000000000000000000005f82015250565b5f613b74600183613209565b9150613b7f82613b40565b600182019050919050565b5f613b9482613b68565b9150819050919050565b7f44000000000000000000000000000000000000000000000000000000000000005f82015250565b5f613bd2600183613209565b9150613bdd82613b9e565b600182019050919050565b5f613bf282613bc6565b9150819050919050565b7f496e76616c696420636f727265637420616e73776572000000000000000000005f82015250565b5f613c30601683612ac3565b9150613c3b82613bfc565b602082019050919050565b5f6020820190508181035f830152613c5d81613c24565b9050919050565b7f4661696c656420746f20776974686472617720746f6b656e73000000000000005f82015250565b5f613c98601983612ac3565b9150613ca382613c64565b602082019050919050565b5f6020820190508181035f830152613cc581613c8c565b9050919050565b7f5061757361626c653a20706175736564000000000000000000000000000000005f82015250565b5f613d00601083612ac3565b9150613d0b82613ccc565b602082019050919050565b5f6020820190508181035f830152613d2d81613cf4565b9050919050565b7f5061757361626c653a206e6f74207061757365640000000000000000000000005f82015250565b5f613d68601483612ac3565b9150613d7382613d34565b602082019050919050565b5f6020820190508181035f830152613d9581613d5c565b905091905056fea2646970667358221220235feeaaf34e9cc2ab2d864590ad3137ede264fcdb28c5180640284ce85fee1264736f6c634300081a0033",
					"opcodes": "PUSH1 0x80 PUSH1 0x40 MSTORE CALLVALUE DUP1 ISZERO PUSH2 0xF JUMPI PUSH0 DUP1 REVERT JUMPDEST POP PUSH1 0x40 MLOAD PUSH2 0x4062 CODESIZE SUB DUP1 PUSH2 0x4062 DUP4 CODECOPY DUP2 DUP2 ADD PUSH1 0x40 MSTORE DUP2 ADD SWAP1 PUSH2 0x31 SWAP2 SWAP1 PUSH2 0x230 JUMP JUMPDEST CALLER PUSH0 PUSH20 0xFFFFFFFFFFFFFFFFFFFFFFFFFFFFFFFFFFFFFFFF AND DUP2 PUSH20 0xFFFFFFFFFFFFFFFFFFFFFFFFFFFFFFFFFFFFFFFF AND SUB PUSH2 0xA2 JUMPI PUSH0 PUSH1 0x40 MLOAD PUSH32 0x1E4FBDF700000000000000000000000000000000000000000000000000000000 DUP2 MSTORE PUSH1 0x4 ADD PUSH2 0x99 SWAP2 SWAP1 PUSH2 0x26A JUMP JUMPDEST PUSH1 0x40 MLOAD DUP1 SWAP2 SUB SWAP1 REVERT JUMPDEST PUSH2 0xB1 DUP2 PUSH2 0x111 PUSH1 0x20 SHL PUSH1 0x20 SHR JUMP JUMPDEST POP PUSH0 DUP1 PUSH1 0x14 PUSH2 0x100 EXP DUP2 SLOAD DUP2 PUSH1 0xFF MUL NOT AND SWAP1 DUP4 ISZERO ISZERO MUL OR SWAP1 SSTORE POP DUP1 PUSH1 0x1 PUSH0 PUSH2 0x100 EXP DUP2 SLOAD DUP2 PUSH20 0xFFFFFFFFFFFFFFFFFFFFFFFFFFFFFFFFFFFFFFFF MUL NOT AND SWAP1 DUP4 PUSH20 0xFFFFFFFFFFFFFFFFFFFFFFFFFFFFFFFFFFFFFFFF AND MUL OR SWAP1 SSTORE POP POP PUSH2 0x283 JUMP JUMPDEST PUSH0 DUP1 PUSH0 SWAP1 SLOAD SWAP1 PUSH2 0x100 EXP SWAP1 DIV PUSH20 0xFFFFFFFFFFFFFFFFFFFFFFFFFFFFFFFFFFFFFFFF AND SWAP1 POP DUP2 PUSH0 DUP1 PUSH2 0x100 EXP DUP2 SLOAD DUP2 PUSH20 0xFFFFFFFFFFFFFFFFFFFFFFFFFFFFFFFFFFFFFFFF MUL NOT AND SWAP1 DUP4 PUSH20 0xFFFFFFFFFFFFFFFFFFFFFFFFFFFFFFFFFFFFFFFF AND MUL OR SWAP1 SSTORE POP DUP2 PUSH20 0xFFFFFFFFFFFFFFFFFFFFFFFFFFFFFFFFFFFFFFFF AND DUP2 PUSH20 0xFFFFFFFFFFFFFFFFFFFFFFFFFFFFFFFFFFFFFFFF AND PUSH32 0x8BE0079C531659141344CD1FD0A4F28419497F9722A3DAAFE3B4186F6B6457E0 PUSH1 0x40 MLOAD PUSH1 0x40 MLOAD DUP1 SWAP2 SUB SWAP1 LOG3 POP POP JUMP JUMPDEST PUSH0 DUP1 REVERT JUMPDEST PUSH0 PUSH20 0xFFFFFFFFFFFFFFFFFFFFFFFFFFFFFFFFFFFFFFFF DUP3 AND SWAP1 POP SWAP2 SWAP1 POP JUMP JUMPDEST PUSH0 PUSH2 0x1FF DUP3 PUSH2 0x1D6 JUMP JUMPDEST SWAP1 POP SWAP2 SWAP1 POP JUMP JUMPDEST PUSH2 0x20F DUP2 PUSH2 0x1F5 JUMP JUMPDEST DUP2 EQ PUSH2 0x219 JUMPI PUSH0 DUP1 REVERT JUMPDEST POP JUMP JUMPDEST PUSH0 DUP2 MLOAD SWAP1 POP PUSH2 0x22A DUP2 PUSH2 0x206 JUMP JUMPDEST SWAP3 SWAP2 POP POP JUMP JUMPDEST PUSH0 PUSH1 0x20 DUP3 DUP5 SUB SLT ISZERO PUSH2 0x245 JUMPI PUSH2 0x244 PUSH2 0x1D2 JUMP JUMPDEST JUMPDEST PUSH0 PUSH2 0x252 DUP5 DUP3 DUP6 ADD PUSH2 0x21C JUMP JUMPDEST SWAP2 POP POP SWAP3 SWAP2 POP POP JUMP JUMPDEST PUSH2 0x264 DUP2 PUSH2 0x1F5 JUMP JUMPDEST DUP3 MSTORE POP POP JUMP JUMPDEST PUSH0 PUSH1 0x20 DUP3 ADD SWAP1 POP PUSH2 0x27D PUSH0 DUP4 ADD DUP5 PUSH2 0x25B JUMP JUMPDEST SWAP3 SWAP2 POP POP JUMP JUMPDEST PUSH2 0x3DD2 DUP1 PUSH2 0x290 PUSH0 CODECOPY PUSH0 RETURN INVALID PUSH1 0x80 PUSH1 0x40 MSTORE PUSH1 0x4 CALLDATASIZE LT PUSH2 0x169 JUMPI PUSH0 CALLDATALOAD PUSH1 0xE0 SHR DUP1 PUSH4 0x8DA5CB5B GT PUSH2 0xD0 JUMPI DUP1 PUSH4 0xB0AAEFD6 GT PUSH2 0x89 JUMPI DUP1 PUSH4 0xD69C575B GT PUSH2 0x63 JUMPI DUP1 PUSH4 0xD69C575B EQ PUSH2 0x4DE JUMPI DUP1 PUSH4 0xE111F6B4 EQ PUSH2 0x506 JUMPI DUP1 PUSH4 0xF2FDE38B EQ PUSH2 0x52E JUMPI DUP1 PUSH4 0xFBF1ADED EQ PUSH2 0x556 JUMPI PUSH2 0x170 JUMP JUMPDEST DUP1 PUSH4 0xB0AAEFD6 EQ PUSH2 0x44A JUMPI DUP1 PUSH4 0xBA2F0362 EQ PUSH2 0x48C JUMPI DUP1 PUSH4 0xCF90B3BE EQ PUSH2 0x4B4 JUMPI PUSH2 0x170 JUMP JUMPDEST DUP1 PUSH4 0x8DA5CB5B EQ PUSH2 0x33B JUMPI DUP1 PUSH4 0x905BAA61 EQ PUSH2 0x365 JUMPI DUP1 PUSH4 0x96F979D2 EQ PUSH2 0x38D JUMPI DUP1 PUSH4 0x996B5D8E EQ PUSH2 0x3CE JUMPI DUP1 PUSH4 0xA4E1F033 EQ PUSH2 0x3F6 JUMPI DUP1 PUSH4 0xAE24F005 EQ PUSH2 0x420 JUMPI PUSH2 0x170 JUMP JUMPDEST DUP1 PUSH4 0x66055159 GT PUSH2 0x122 JUMPI DUP1 PUSH4 0x66055159 EQ PUSH2 0x26B JUMPI DUP1 PUSH4 0x715018A6 EQ PUSH2 0x295 JUMPI DUP1 PUSH4 0x75284998 EQ PUSH2 0x2AB JUMPI DUP1 PUSH4 0x8456CB59 EQ PUSH2 0x2D3 JUMPI DUP1 PUSH4 0x87BC1425 EQ PUSH2 0x2E9 JUMPI DUP1 PUSH4 0x8A38AB2C EQ PUSH2 0x313 JUMPI PUSH2 0x170 JUMP JUMPDEST DUP1 PUSH4 0x3B1965B EQ PUSH2 0x174 JUMPI DUP1 PUSH4 0x7F910F8 EQ PUSH2 0x19C JUMPI DUP1 PUSH4 0x3F4BA83A EQ PUSH2 0x1DB JUMPI DUP1 PUSH4 0x5C975ABB EQ PUSH2 0x1F1 JUMPI DUP1 PUSH4 0x5CB45CB5 EQ PUSH2 0x21B JUMPI DUP1 PUSH4 0x5E52DA27 EQ PUSH2 0x243 JUMPI PUSH2 0x170 JUMP JUMPDEST CALLDATASIZE PUSH2 0x170 JUMPI STOP JUMPDEST PUSH0 DUP1 REVERT JUMPDEST CALLVALUE DUP1 ISZERO PUSH2 0x17F JUMPI PUSH0 DUP1 REVERT JUMPDEST POP PUSH2 0x19A PUSH1 0x4 DUP1 CALLDATASIZE SUB DUP2 ADD SWAP1 PUSH2 0x195 SWAP2 SWAP1 PUSH2 0x2579 JUMP JUMPDEST PUSH2 0x580 JUMP JUMPDEST STOP JUMPDEST CALLVALUE DUP1 ISZERO PUSH2 0x1A7 JUMPI PUSH0 DUP1 REVERT JUMPDEST POP PUSH2 0x1C2 PUSH1 0x4 DUP1 CALLDATASIZE SUB DUP2 ADD SWAP1 PUSH2 0x1BD SWAP2 SWAP1 PUSH2 0x2611 JUMP JUMPDEST PUSH2 0x78A JUMP JUMPDEST PUSH1 0x40 MLOAD PUSH2 0x1D2 SWAP5 SWAP4 SWAP3 SWAP2 SWAP1 PUSH2 0x2684 JUMP JUMPDEST PUSH1 0x40 MLOAD DUP1 SWAP2 SUB SWAP1 RETURN JUMPDEST CALLVALUE DUP1 ISZERO PUSH2 0x1E6 JUMPI PUSH0 DUP1 REVERT JUMPDEST POP PUSH2 0x1EF PUSH2 0x7F1 JUMP JUMPDEST STOP JUMPDEST CALLVALUE DUP1 ISZERO PUSH2 0x1FC JUMPI PUSH0 DUP1 REVERT JUMPDEST POP PUSH2 0x205 PUSH2 0x803 JUMP JUMPDEST PUSH1 0x40 MLOAD PUSH2 0x212 SWAP2 SWAP1 PUSH2 0x26C7 JUMP JUMPDEST PUSH1 0x40 MLOAD DUP1 SWAP2 SUB SWAP1 RETURN JUMPDEST CALLVALUE DUP1 ISZERO PUSH2 0x226 JUMPI PUSH0 DUP1 REVERT JUMPDEST POP PUSH2 0x241 PUSH1 0x4 DUP1 CALLDATASIZE SUB DUP2 ADD SWAP1 PUSH2 0x23C SWAP2 SWAP1 PUSH2 0x28FE JUMP JUMPDEST PUSH2 0x818 JUMP JUMPDEST STOP JUMPDEST CALLVALUE DUP1 ISZERO PUSH2 0x24E JUMPI PUSH0 DUP1 REVERT JUMPDEST POP PUSH2 0x269 PUSH1 0x4 DUP1 CALLDATASIZE SUB DUP2 ADD SWAP1 PUSH2 0x264 SWAP2 SWAP1 PUSH2 0x2958 JUMP JUMPDEST PUSH2 0xE51 JUMP JUMPDEST STOP JUMPDEST CALLVALUE DUP1 ISZERO PUSH2 0x276 JUMPI PUSH0 DUP1 REVERT JUMPDEST POP PUSH2 0x27F PUSH2 0x1106 JUMP JUMPDEST PUSH1 0x40 MLOAD PUSH2 0x28C SWAP2 SWAP1 PUSH2 0x2992 JUMP JUMPDEST PUSH1 0x40 MLOAD DUP1 SWAP2 SUB SWAP1 RETURN JUMPDEST CALLVALUE DUP1 ISZERO PUSH2 0x2A0 JUMPI PUSH0 DUP1 REVERT JUMPDEST POP PUSH2 0x2A9 PUSH2 0x110C JUMP JUMPDEST STOP JUMPDEST CALLVALUE DUP1 ISZERO PUSH2 0x2B6 JUMPI PUSH0 DUP1 REVERT JUMPDEST POP PUSH2 0x2D1 PUSH1 0x4 DUP1 CALLDATASIZE SUB DUP2 ADD SWAP1 PUSH2 0x2CC SWAP2 SWAP1 PUSH2 0x2958 JUMP JUMPDEST PUSH2 0x111F JUMP JUMPDEST STOP JUMPDEST CALLVALUE DUP1 ISZERO PUSH2 0x2DE JUMPI PUSH0 DUP1 REVERT JUMPDEST POP PUSH2 0x2E7 PUSH2 0x11E4 JUMP JUMPDEST STOP JUMPDEST CALLVALUE DUP1 ISZERO PUSH2 0x2F4 JUMPI PUSH0 DUP1 REVERT JUMPDEST POP PUSH2 0x2FD PUSH2 0x11F6 JUMP JUMPDEST PUSH1 0x40 MLOAD PUSH2 0x30A SWAP2 SWAP1 PUSH2 0x2A06 JUMP JUMPDEST PUSH1 0x40 MLOAD DUP1 SWAP2 SUB SWAP1 RETURN JUMPDEST CALLVALUE DUP1 ISZERO PUSH2 0x31E JUMPI PUSH0 DUP1 REVERT JUMPDEST POP PUSH2 0x339 PUSH1 0x4 DUP1 CALLDATASIZE SUB DUP2 ADD SWAP1 PUSH2 0x334 SWAP2 SWAP1 PUSH2 0x2A1F JUMP JUMPDEST PUSH2 0x121B JUMP JUMPDEST STOP JUMPDEST CALLVALUE DUP1 ISZERO PUSH2 0x346 JUMPI PUSH0 DUP1 REVERT JUMPDEST POP PUSH2 0x34F PUSH2 0x1450 JUMP JUMPDEST PUSH1 0x40 MLOAD PUSH2 0x35C SWAP2 SWAP1 PUSH2 0x2A75 JUMP JUMPDEST PUSH1 0x40 MLOAD DUP1 SWAP2 SUB SWAP1 RETURN JUMPDEST CALLVALUE DUP1 ISZERO PUSH2 0x370 JUMPI PUSH0 DUP1 REVERT JUMPDEST POP PUSH2 0x38B PUSH1 0x4 DUP1 CALLDATASIZE SUB DUP2 ADD SWAP1 PUSH2 0x386 SWAP2 SWAP1 PUSH2 0x2A8E JUMP JUMPDEST PUSH2 0x1477 JUMP JUMPDEST STOP JUMPDEST CALLVALUE DUP1 ISZERO PUSH2 0x398 JUMPI PUSH0 DUP1 REVERT JUMPDEST POP PUSH2 0x3B3 PUSH1 0x4 DUP1 CALLDATASIZE SUB DUP2 ADD SWAP1 PUSH2 0x3AE SWAP2 SWAP1 PUSH2 0x2958 JUMP JUMPDEST PUSH2 0x14C2 JUMP JUMPDEST PUSH1 0x40 MLOAD PUSH2 0x3C5 SWAP7 SWAP6 SWAP5 SWAP4 SWAP3 SWAP2 SWAP1 PUSH2 0x2B19 JUMP JUMPDEST PUSH1 0x40 MLOAD DUP1 SWAP2 SUB SWAP1 RETURN JUMPDEST CALLVALUE DUP1 ISZERO PUSH2 0x3D9 JUMPI PUSH0 DUP1 REVERT JUMPDEST POP PUSH2 0x3F4 PUSH1 0x4 DUP1 CALLDATASIZE SUB DUP2 ADD SWAP1 PUSH2 0x3EF SWAP2 SWAP1 PUSH2 0x2958 JUMP JUMPDEST PUSH2 0x15AB JUMP JUMPDEST STOP JUMPDEST CALLVALUE DUP1 ISZERO PUSH2 0x401 JUMPI PUSH0 DUP1 REVERT JUMPDEST POP PUSH2 0x40A PUSH2 0x17FD JUMP JUMPDEST PUSH1 0x40 MLOAD PUSH2 0x417 SWAP2 SWAP1 PUSH2 0x2992 JUMP JUMPDEST PUSH1 0x40 MLOAD DUP1 SWAP2 SUB SWAP1 RETURN JUMPDEST CALLVALUE DUP1 ISZERO PUSH2 0x42B JUMPI PUSH0 DUP1 REVERT JUMPDEST POP PUSH2 0x434 PUSH2 0x1802 JUMP JUMPDEST PUSH1 0x40 MLOAD PUSH2 0x441 SWAP2 SWAP1 PUSH2 0x2992 JUMP JUMPDEST PUSH1 0x40 MLOAD DUP1 SWAP2 SUB SWAP1 RETURN JUMPDEST CALLVALUE DUP1 ISZERO PUSH2 0x455 JUMPI PUSH0 DUP1 REVERT JUMPDEST POP PUSH2 0x470 PUSH1 0x4 DUP1 CALLDATASIZE SUB DUP2 ADD SWAP1 PUSH2 0x46B SWAP2 SWAP1 PUSH2 0x2579 JUMP JUMPDEST PUSH2 0x1807 JUMP JUMPDEST PUSH1 0x40 MLOAD PUSH2 0x483 SWAP8 SWAP7 SWAP6 SWAP5 SWAP4 SWAP3 SWAP2 SWAP1 PUSH2 0x2B97 JUMP JUMPDEST PUSH1 0x40 MLOAD DUP1 SWAP2 SUB SWAP1 RETURN JUMPDEST CALLVALUE DUP1 ISZERO PUSH2 0x497 JUMPI PUSH0 DUP1 REVERT JUMPDEST POP PUSH2 0x4B2 PUSH1 0x4 DUP1 CALLDATASIZE SUB DUP2 ADD SWAP1 PUSH2 0x4AD SWAP2 SWAP1 PUSH2 0x2958 JUMP JUMPDEST PUSH2 0x1AFD JUMP JUMPDEST STOP JUMPDEST CALLVALUE DUP1 ISZERO PUSH2 0x4BF JUMPI PUSH0 DUP1 REVERT JUMPDEST POP PUSH2 0x4C8 PUSH2 0x1D34 JUMP JUMPDEST PUSH1 0x40 MLOAD PUSH2 0x4D5 SWAP2 SWAP1 PUSH2 0x2992 JUMP JUMPDEST PUSH1 0x40 MLOAD DUP1 SWAP2 SUB SWAP1 RETURN JUMPDEST CALLVALUE DUP1 ISZERO PUSH2 0x4E9 JUMPI PUSH0 DUP1 REVERT JUMPDEST POP PUSH2 0x504 PUSH1 0x4 DUP1 CALLDATASIZE SUB DUP2 ADD SWAP1 PUSH2 0x4FF SWAP2 SWAP1 PUSH2 0x2C27 JUMP JUMPDEST PUSH2 0x1D40 JUMP JUMPDEST STOP JUMPDEST CALLVALUE DUP1 ISZERO PUSH2 0x511 JUMPI PUSH0 DUP1 REVERT JUMPDEST POP PUSH2 0x52C PUSH1 0x4 DUP1 CALLDATASIZE SUB DUP2 ADD SWAP1 PUSH2 0x527 SWAP2 SWAP1 PUSH2 0x2958 JUMP JUMPDEST PUSH2 0x2145 JUMP JUMPDEST STOP JUMPDEST CALLVALUE DUP1 ISZERO PUSH2 0x539 JUMPI PUSH0 DUP1 REVERT JUMPDEST POP PUSH2 0x554 PUSH1 0x4 DUP1 CALLDATASIZE SUB DUP2 ADD SWAP1 PUSH2 0x54F SWAP2 SWAP1 PUSH2 0x2A8E JUMP JUMPDEST PUSH2 0x2200 JUMP JUMPDEST STOP JUMPDEST CALLVALUE DUP1 ISZERO PUSH2 0x561 JUMPI PUSH0 DUP1 REVERT JUMPDEST POP PUSH2 0x56A PUSH2 0x2284 JUMP JUMPDEST PUSH1 0x40 MLOAD PUSH2 0x577 SWAP2 SWAP1 PUSH2 0x2992 JUMP JUMPDEST PUSH1 0x40 MLOAD DUP1 SWAP2 SUB SWAP1 RETURN JUMPDEST PUSH2 0x588 PUSH2 0x2290 JUMP JUMPDEST PUSH0 PUSH1 0x2 PUSH0 DUP5 DUP2 MSTORE PUSH1 0x20 ADD SWAP1 DUP2 MSTORE PUSH1 0x20 ADD PUSH0 KECCAK256 SWAP1 POP DUP1 PUSH0 ADD PUSH0 SWAP1 SLOAD SWAP1 PUSH2 0x100 EXP SWAP1 DIV PUSH20 0xFFFFFFFFFFFFFFFFFFFFFFFFFFFFFFFFFFFFFFFF AND PUSH20 0xFFFFFFFFFFFFFFFFFFFFFFFFFFFFFFFFFFFFFFFF AND CALLER PUSH20 0xFFFFFFFFFFFFFFFFFFFFFFFFFFFFFFFFFFFFFFFF AND EQ PUSH2 0x62C JUMPI PUSH1 0x40 MLOAD PUSH32 0x8C379A000000000000000000000000000000000000000000000000000000000 DUP2 MSTORE PUSH1 0x4 ADD PUSH2 0x623 SWAP1 PUSH2 0x2DDC JUMP JUMPDEST PUSH1 0x40 MLOAD DUP1 SWAP2 SUB SWAP1 REVERT JUMPDEST DUP2 DUP2 PUSH1 0x4 ADD SLOAD LT ISZERO PUSH2 0x673 JUMPI PUSH1 0x40 MLOAD PUSH32 0x8C379A000000000000000000000000000000000000000000000000000000000 DUP2 MSTORE PUSH1 0x4 ADD PUSH2 0x66A SWAP1 PUSH2 0x2E6A JUMP JUMPDEST PUSH1 0x40 MLOAD DUP1 SWAP2 SUB SWAP1 REVERT JUMPDEST DUP2 DUP2 PUSH1 0x4 ADD PUSH0 DUP3 DUP3 SLOAD PUSH2 0x686 SWAP2 SWAP1 PUSH2 0x2EB5 JUMP JUMPDEST SWAP3 POP POP DUP2 SWAP1 SSTORE POP PUSH0 CALLER PUSH20 0xFFFFFFFFFFFFFFFFFFFFFFFFFFFFFFFFFFFFFFFF AND DUP4 PUSH1 0x40 MLOAD PUSH2 0x6B2 SWAP1 PUSH2 0x2F15 JUMP JUMPDEST PUSH0 PUSH1 0x40 MLOAD DUP1 DUP4 SUB DUP2 DUP6 DUP8 GAS CALL SWAP3 POP POP POP RETURNDATASIZE DUP1 PUSH0 DUP2 EQ PUSH2 0x6EC JUMPI PUSH1 0x40 MLOAD SWAP2 POP PUSH1 0x1F NOT PUSH1 0x3F RETURNDATASIZE ADD AND DUP3 ADD PUSH1 0x40 MSTORE RETURNDATASIZE DUP3 MSTORE RETURNDATASIZE PUSH0 PUSH1 0x20 DUP5 ADD RETURNDATACOPY PUSH2 0x6F1 JUMP JUMPDEST PUSH1 0x60 SWAP2 POP JUMPDEST POP POP SWAP1 POP DUP1 PUSH2 0x735 JUMPI PUSH1 0x40 MLOAD PUSH32 0x8C379A000000000000000000000000000000000000000000000000000000000 DUP2 MSTORE PUSH1 0x4 ADD PUSH2 0x72C SWAP1 PUSH2 0x2F73 JUMP JUMPDEST PUSH1 0x40 MLOAD DUP1 SWAP2 SUB SWAP1 REVERT JUMPDEST CALLER PUSH20 0xFFFFFFFFFFFFFFFFFFFFFFFFFFFFFFFFFFFFFFFF AND DUP5 PUSH32 0xAC49FACEAC63EAFDEA924340376E875517FD2E5B7E9B63C9BBBC464E166233F6 DUP6 PUSH1 0x40 MLOAD PUSH2 0x77C SWAP2 SWAP1 PUSH2 0x2992 JUMP JUMPDEST PUSH1 0x40 MLOAD DUP1 SWAP2 SUB SWAP1 LOG3 POP POP POP POP JUMP JUMPDEST PUSH1 0x3 PUSH1 0x20 MSTORE DUP2 PUSH0 MSTORE PUSH1 0x40 PUSH0 KECCAK256 PUSH1 0x20 MSTORE DUP1 PUSH0 MSTORE PUSH1 0x40 PUSH0 KECCAK256 PUSH0 SWAP2 POP SWAP2 POP POP DUP1 PUSH0 ADD PUSH0 SWAP1 SLOAD SWAP1 PUSH2 0x100 EXP SWAP1 DIV PUSH1 0xFF AND SWAP1 DUP1 PUSH0 ADD PUSH1 0x1 SWAP1 SLOAD SWAP1 PUSH2 0x100 EXP SWAP1 DIV PUSH1 0xFF AND SWAP1 DUP1 PUSH0 ADD PUSH1 0x2 SWAP1 SLOAD SWAP1 PUSH2 0x100 EXP SWAP1 DIV PUSH1 0xFF AND SWAP1 DUP1 PUSH0 ADD PUSH1 0x3 SWAP1 SLOAD SWAP1 PUSH2 0x100 EXP SWAP1 DIV PUSH1 0xFF AND SWAP1 POP DUP5 JUMP JUMPDEST PUSH2 0x7F9 PUSH2 0x22DA JUMP JUMPDEST PUSH2 0x801 PUSH2 0x2361 JUMP JUMPDEST JUMP JUMPDEST PUSH0 DUP1 PUSH1 0x14 SWAP1 SLOAD SWAP1 PUSH2 0x100 EXP SWAP1 DIV PUSH1 0xFF AND SWAP1 POP SWAP1 JUMP JUMPDEST PUSH0 PUSH1 0x3 PUSH0 CALLER PUSH20 0xFFFFFFFFFFFFFFFFFFFFFFFFFFFFFFFFFFFFFFFF AND PUSH20 0xFFFFFFFFFFFFFFFFFFFFFFFFFFFFFFFFFFFFFFFF AND DUP2 MSTORE PUSH1 0x20 ADD SWAP1 DUP2 MSTORE PUSH1 0x20 ADD PUSH0 KECCAK256 PUSH0 DUP5 DUP2 MSTORE PUSH1 0x20 ADD SWAP1 DUP2 MSTORE PUSH1 0x20 ADD PUSH0 KECCAK256 SWAP1 POP DUP1 PUSH0 ADD PUSH0 SWAP1 SLOAD SWAP1 PUSH2 0x100 EXP SWAP1 DIV PUSH1 0xFF AND PUSH2 0x8B6 JUMPI PUSH1 0x40 MLOAD PUSH32 0x8C379A000000000000000000000000000000000000000000000000000000000 DUP2 MSTORE PUSH1 0x4 ADD PUSH2 0x8AD SWAP1 PUSH2 0x2FDB JUMP JUMPDEST PUSH1 0x40 MLOAD DUP1 SWAP2 SUB SWAP1 REVERT JUMPDEST PUSH1 0x2 DUP2 PUSH0 ADD PUSH1 0x1 SWAP1 SLOAD SWAP1 PUSH2 0x100 EXP SWAP1 DIV PUSH1 0xFF AND PUSH1 0xFF AND LT PUSH2 0x90C JUMPI PUSH1 0x40 MLOAD PUSH32 0x8C379A000000000000000000000000000000000000000000000000000000000 DUP2 MSTORE PUSH1 0x4 ADD PUSH2 0x903 SWAP1 PUSH2 0x3043 JUMP JUMPDEST PUSH1 0x40 MLOAD DUP1 SWAP2 SUB SWAP1 REVERT JUMPDEST DUP1 PUSH0 ADD PUSH1 0x2 SWAP1 SLOAD SWAP1 PUSH2 0x100 EXP SWAP1 DIV PUSH1 0xFF AND ISZERO PUSH2 0x95D JUMPI PUSH1 0x40 MLOAD PUSH32 0x8C379A000000000000000000000000000000000000000000000000000000000 DUP2 MSTORE PUSH1 0x4 ADD PUSH2 0x954 SWAP1 PUSH2 0x30D1 JUMP JUMPDEST PUSH1 0x40 MLOAD DUP1 SWAP2 SUB SWAP1 REVERT JUMPDEST DUP1 PUSH0 ADD PUSH1 0x1 DUP2 DUP2 SWAP1 SLOAD SWAP1 PUSH2 0x100 EXP SWAP1 DIV PUSH1 0xFF AND DUP1 SWAP3 SWAP2 SWAP1 PUSH2 0x97D SWAP1 PUSH2 0x30EF JUMP JUMPDEST SWAP2 SWAP1 PUSH2 0x100 EXP DUP2 SLOAD DUP2 PUSH1 0xFF MUL NOT AND SWAP1 DUP4 PUSH1 0xFF AND MUL OR SWAP1 SSTORE POP POP PUSH0 PUSH1 0x4 PUSH0 DUP6 DUP2 MSTORE PUSH1 0x20 ADD SWAP1 DUP2 MSTORE PUSH1 0x20 ADD PUSH0 KECCAK256 DUP1 SLOAD DUP1 PUSH1 0x20 MUL PUSH1 0x20 ADD PUSH1 0x40 MLOAD SWAP1 DUP2 ADD PUSH1 0x40 MSTORE DUP1 SWAP3 SWAP2 SWAP1 DUP2 DUP2 MSTORE PUSH1 0x20 ADD PUSH0 SWAP1 JUMPDEST DUP3 DUP3 LT ISZERO PUSH2 0xCDA JUMPI DUP4 DUP3 SWAP1 PUSH0 MSTORE PUSH1 0x20 PUSH0 KECCAK256 SWAP1 PUSH1 0x7 MUL ADD PUSH1 0x40 MLOAD DUP1 PUSH1 0xE0 ADD PUSH1 0x40 MSTORE SWAP1 DUP2 PUSH0 DUP3 ADD SLOAD DUP2 MSTORE PUSH1 0x20 ADD PUSH1 0x1 DUP3 ADD DUP1 SLOAD PUSH2 0xA01 SWAP1 PUSH2 0x3144 JUMP JUMPDEST DUP1 PUSH1 0x1F ADD PUSH1 0x20 DUP1 SWAP2 DIV MUL PUSH1 0x20 ADD PUSH1 0x40 MLOAD SWAP1 DUP2 ADD PUSH1 0x40 MSTORE DUP1 SWAP3 SWAP2 SWAP1 DUP2 DUP2 MSTORE PUSH1 0x20 ADD DUP3 DUP1 SLOAD PUSH2 0xA2D SWAP1 PUSH2 0x3144 JUMP JUMPDEST DUP1 ISZERO PUSH2 0xA78 JUMPI DUP1 PUSH1 0x1F LT PUSH2 0xA4F JUMPI PUSH2 0x100 DUP1 DUP4 SLOAD DIV MUL DUP4 MSTORE SWAP2 PUSH1 0x20 ADD SWAP2 PUSH2 0xA78 JUMP JUMPDEST DUP3 ADD SWAP2 SWAP1 PUSH0 MSTORE PUSH1 0x20 PUSH0 KECCAK256 SWAP1 JUMPDEST DUP2 SLOAD DUP2 MSTORE SWAP1 PUSH1 0x1 ADD SWAP1 PUSH1 0x20 ADD DUP1 DUP4 GT PUSH2 0xA5B JUMPI DUP3 SWAP1 SUB PUSH1 0x1F AND DUP3 ADD SWAP2 JUMPDEST POP POP POP POP POP DUP2 MSTORE PUSH1 0x20 ADD PUSH1 0x2 DUP3 ADD DUP1 SLOAD PUSH2 0xA91 SWAP1 PUSH2 0x3144 JUMP JUMPDEST DUP1 PUSH1 0x1F ADD PUSH1 0x20 DUP1 SWAP2 DIV MUL PUSH1 0x20 ADD PUSH1 0x40 MLOAD SWAP1 DUP2 ADD PUSH1 0x40 MSTORE DUP1 SWAP3 SWAP2 SWAP1 DUP2 DUP2 MSTORE PUSH1 0x20 ADD DUP3 DUP1 SLOAD PUSH2 0xABD SWAP1 PUSH2 0x3144 JUMP JUMPDEST DUP1 ISZERO PUSH2 0xB08 JUMPI DUP1 PUSH1 0x1F LT PUSH2 0xADF JUMPI PUSH2 0x100 DUP1 DUP4 SLOAD DIV MUL DUP4 MSTORE SWAP2 PUSH1 0x20 ADD SWAP2 PUSH2 0xB08 JUMP JUMPDEST DUP3 ADD SWAP2 SWAP1 PUSH0 MSTORE PUSH1 0x20 PUSH0 KECCAK256 SWAP1 JUMPDEST DUP2 SLOAD DUP2 MSTORE SWAP1 PUSH1 0x1 ADD SWAP1 PUSH1 0x20 ADD DUP1 DUP4 GT PUSH2 0xAEB JUMPI DUP3 SWAP1 SUB PUSH1 0x1F AND DUP3 ADD SWAP2 JUMPDEST POP POP POP POP POP DUP2 MSTORE PUSH1 0x20 ADD PUSH1 0x3 DUP3 ADD DUP1 SLOAD PUSH2 0xB21 SWAP1 PUSH2 0x3144 JUMP JUMPDEST DUP1 PUSH1 0x1F ADD PUSH1 0x20 DUP1 SWAP2 DIV MUL PUSH1 0x20 ADD PUSH1 0x40 MLOAD SWAP1 DUP2 ADD PUSH1 0x40 MSTORE DUP1 SWAP3 SWAP2 SWAP1 DUP2 DUP2 MSTORE PUSH1 0x20 ADD DUP3 DUP1 SLOAD PUSH2 0xB4D SWAP1 PUSH2 0x3144 JUMP JUMPDEST DUP1 ISZERO PUSH2 0xB98 JUMPI DUP1 PUSH1 0x1F LT PUSH2 0xB6F JUMPI PUSH2 0x100 DUP1 DUP4 SLOAD DIV MUL DUP4 MSTORE SWAP2 PUSH1 0x20 ADD SWAP2 PUSH2 0xB98 JUMP JUMPDEST DUP3 ADD SWAP2 SWAP1 PUSH0 MSTORE PUSH1 0x20 PUSH0 KECCAK256 SWAP1 JUMPDEST DUP2 SLOAD DUP2 MSTORE SWAP1 PUSH1 0x1 ADD SWAP1 PUSH1 0x20 ADD DUP1 DUP4 GT PUSH2 0xB7B JUMPI DUP3 SWAP1 SUB PUSH1 0x1F AND DUP3 ADD SWAP2 JUMPDEST POP POP POP POP POP DUP2 MSTORE PUSH1 0x20 ADD PUSH1 0x4 DUP3 ADD DUP1 SLOAD PUSH2 0xBB1 SWAP1 PUSH2 0x3144 JUMP JUMPDEST DUP1 PUSH1 0x1F ADD PUSH1 0x20 DUP1 SWAP2 DIV MUL PUSH1 0x20 ADD PUSH1 0x40 MLOAD SWAP1 DUP2 ADD PUSH1 0x40 MSTORE DUP1 SWAP3 SWAP2 SWAP1 DUP2 DUP2 MSTORE PUSH1 0x20 ADD DUP3 DUP1 SLOAD PUSH2 0xBDD SWAP1 PUSH2 0x3144 JUMP JUMPDEST DUP1 ISZERO PUSH2 0xC28 JUMPI DUP1 PUSH1 0x1F LT PUSH2 0xBFF JUMPI PUSH2 0x100 DUP1 DUP4 SLOAD DIV MUL DUP4 MSTORE SWAP2 PUSH1 0x20 ADD SWAP2 PUSH2 0xC28 JUMP JUMPDEST DUP3 ADD SWAP2 SWAP1 PUSH0 MSTORE PUSH1 0x20 PUSH0 KECCAK256 SWAP1 JUMPDEST DUP2 SLOAD DUP2 MSTORE SWAP1 PUSH1 0x1 ADD SWAP1 PUSH1 0x20 ADD DUP1 DUP4 GT PUSH2 0xC0B JUMPI DUP3 SWAP1 SUB PUSH1 0x1F AND DUP3 ADD SWAP2 JUMPDEST POP POP POP POP POP DUP2 MSTORE PUSH1 0x20 ADD PUSH1 0x5 DUP3 ADD DUP1 SLOAD PUSH2 0xC41 SWAP1 PUSH2 0x3144 JUMP JUMPDEST DUP1 PUSH1 0x1F ADD PUSH1 0x20 DUP1 SWAP2 DIV MUL PUSH1 0x20 ADD PUSH1 0x40 MLOAD SWAP1 DUP2 ADD PUSH1 0x40 MSTORE DUP1 SWAP3 SWAP2 SWAP1 DUP2 DUP2 MSTORE PUSH1 0x20 ADD DUP3 DUP1 SLOAD PUSH2 0xC6D SWAP1 PUSH2 0x3144 JUMP JUMPDEST DUP1 ISZERO PUSH2 0xCB8 JUMPI DUP1 PUSH1 0x1F LT PUSH2 0xC8F JUMPI PUSH2 0x100 DUP1 DUP4 SLOAD DIV MUL DUP4 MSTORE SWAP2 PUSH1 0x20 ADD SWAP2 PUSH2 0xCB8 JUMP JUMPDEST DUP3 ADD SWAP2 SWAP1 PUSH0 MSTORE PUSH1 0x20 PUSH0 KECCAK256 SWAP1 JUMPDEST DUP2 SLOAD DUP2 MSTORE SWAP1 PUSH1 0x1 ADD SWAP1 PUSH1 0x20 ADD DUP1 DUP4 GT PUSH2 0xC9B JUMPI DUP3 SWAP1 SUB PUSH1 0x1F AND DUP3 ADD SWAP2 JUMPDEST POP POP POP POP POP DUP2 MSTORE PUSH1 0x20 ADD PUSH1 0x6 DUP3 ADD SLOAD DUP2 MSTORE POP POP DUP2 MSTORE PUSH1 0x20 ADD SWAP1 PUSH1 0x1 ADD SWAP1 PUSH2 0x9C7 JUMP JUMPDEST POP POP POP POP SWAP1 POP DUP1 MLOAD DUP4 MLOAD EQ PUSH2 0xD24 JUMPI PUSH1 0x40 MLOAD PUSH32 0x8C379A000000000000000000000000000000000000000000000000000000000 DUP2 MSTORE PUSH1 0x4 ADD PUSH2 0xD1B SWAP1 PUSH2 0x31BE JUMP JUMPDEST PUSH1 0x40 MLOAD DUP1 SWAP2 SUB SWAP1 REVERT JUMPDEST PUSH0 PUSH1 0x1 SWAP1 POP PUSH0 JUMPDEST DUP3 MLOAD DUP2 LT ISZERO PUSH2 0xDAE JUMPI DUP3 DUP2 DUP2 MLOAD DUP2 LT PUSH2 0xD47 JUMPI PUSH2 0xD46 PUSH2 0x31DC JUMP JUMPDEST JUMPDEST PUSH1 0x20 MUL PUSH1 0x20 ADD ADD MLOAD PUSH1 0xC0 ADD MLOAD DUP6 DUP3 DUP2 MLOAD DUP2 LT PUSH2 0xD66 JUMPI PUSH2 0xD65 PUSH2 0x31DC JUMP JUMPDEST JUMPDEST PUSH1 0x20 MUL PUSH1 0x20 ADD ADD MLOAD PUSH1 0x40 MLOAD PUSH1 0x20 ADD PUSH2 0xD7E SWAP2 SWAP1 PUSH2 0x3243 JUMP JUMPDEST PUSH1 0x40 MLOAD PUSH1 0x20 DUP2 DUP4 SUB SUB DUP2 MSTORE SWAP1 PUSH1 0x40 MSTORE DUP1 MLOAD SWAP1 PUSH1 0x20 ADD KECCAK256 EQ PUSH2 0xDA1 JUMPI PUSH0 SWAP2 POP PUSH2 0xDAE JUMP JUMPDEST DUP1 DUP1 PUSH1 0x1 ADD SWAP2 POP POP PUSH2 0xD2B JUMP JUMPDEST POP DUP1 ISZERO PUSH2 0xDFB JUMPI PUSH1 0x1 DUP4 PUSH0 ADD PUSH1 0x2 PUSH2 0x100 EXP DUP2 SLOAD DUP2 PUSH1 0xFF MUL NOT AND SWAP1 DUP4 ISZERO ISZERO MUL OR SWAP1 SSTORE POP PUSH1 0x2 PUSH0 DUP7 DUP2 MSTORE PUSH1 0x20 ADD SWAP1 DUP2 MSTORE PUSH1 0x20 ADD PUSH0 KECCAK256 PUSH1 0x3 ADD PUSH0 DUP2 SLOAD DUP1 SWAP3 SWAP2 SWAP1 PUSH2 0xDF5 SWAP1 PUSH2 0x3259 JUMP JUMPDEST SWAP2 SWAP1 POP SSTORE POP JUMPDEST CALLER PUSH20 0xFFFFFFFFFFFFFFFFFFFFFFFFFFFFFFFFFFFFFFFF AND DUP6 PUSH32 0xAEE8895C1BF669485CEE2DD54D1EEE9E65B02A244AFB6F798F95D72405CDF7A5 DUP4 PUSH1 0x40 MLOAD PUSH2 0xE42 SWAP2 SWAP1 PUSH2 0x26C7 JUMP JUMPDEST PUSH1 0x40 MLOAD DUP1 SWAP2 SUB SWAP1 LOG3 POP POP POP POP POP JUMP JUMPDEST PUSH2 0xE59 PUSH2 0x2290 JUMP JUMPDEST PUSH1 0x5 PUSH1 0x1 PUSH0 SWAP1 SLOAD SWAP1 PUSH2 0x100 EXP SWAP1 DIV PUSH20 0xFFFFFFFFFFFFFFFFFFFFFFFFFFFFFFFFFFFFFFFF AND PUSH20 0xFFFFFFFFFFFFFFFFFFFFFFFFFFFFFFFFFFFFFFFF AND PUSH4 0xB9F79451 CALLER PUSH1 0x40 MLOAD DUP3 PUSH4 0xFFFFFFFF AND PUSH1 0xE0 SHL DUP2 MSTORE PUSH1 0x4 ADD PUSH2 0xEB5 SWAP2 SWAP1 PUSH2 0x2A75 JUMP JUMPDEST PUSH1 0x20 PUSH1 0x40 MLOAD DUP1 DUP4 SUB DUP2 DUP7 GAS STATICCALL ISZERO DUP1 ISZERO PUSH2 0xED0 JUMPI RETURNDATASIZE PUSH0 DUP1 RETURNDATACOPY RETURNDATASIZE PUSH0 REVERT JUMPDEST POP POP POP POP PUSH1 0x40 MLOAD RETURNDATASIZE PUSH1 0x1F NOT PUSH1 0x1F DUP3 ADD AND DUP3 ADD DUP1 PUSH1 0x40 MSTORE POP DUP2 ADD SWAP1 PUSH2 0xEF4 SWAP2 SWAP1 PUSH2 0x32B4 JUMP JUMPDEST LT ISZERO PUSH2 0xF35 JUMPI PUSH1 0x40 MLOAD PUSH32 0x8C379A000000000000000000000000000000000000000000000000000000000 DUP2 MSTORE PUSH1 0x4 ADD PUSH2 0xF2C SWAP1 PUSH2 0x334F JUMP JUMPDEST PUSH1 0x40 MLOAD DUP1 SWAP2 SUB SWAP1 REVERT JUMPDEST PUSH1 0x2 PUSH0 DUP3 DUP2 MSTORE PUSH1 0x20 ADD SWAP1 DUP2 MSTORE PUSH1 0x20 ADD PUSH0 KECCAK256 PUSH1 0x2 ADD PUSH0 SWAP1 SLOAD SWAP1 PUSH2 0x100 EXP SWAP1 DIV PUSH1 0xFF AND PUSH2 0xF95 JUMPI PUSH1 0x40 MLOAD PUSH32 0x8C379A000000000000000000000000000000000000000000000000000000000 DUP2 MSTORE PUSH1 0x4 ADD PUSH2 0xF8C SWAP1 PUSH2 0x33B7 JUMP JUMPDEST PUSH1 0x40 MLOAD DUP1 SWAP2 SUB SWAP1 REVERT JUMPDEST PUSH1 0x3 PUSH0 CALLER PUSH20 0xFFFFFFFFFFFFFFFFFFFFFFFFFFFFFFFFFFFFFFFF AND PUSH20 0xFFFFFFFFFFFFFFFFFFFFFFFFFFFFFFFFFFFFFFFF AND DUP2 MSTORE PUSH1 0x20 ADD SWAP1 DUP2 MSTORE PUSH1 0x20 ADD PUSH0 KECCAK256 PUSH0 DUP3 DUP2 MSTORE PUSH1 0x20 ADD SWAP1 DUP2 MSTORE PUSH1 0x20 ADD PUSH0 KECCAK256 PUSH0 ADD PUSH0 SWAP1 SLOAD SWAP1 PUSH2 0x100 EXP SWAP1 DIV PUSH1 0xFF AND ISZERO PUSH2 0x1030 JUMPI PUSH1 0x40 MLOAD PUSH32 0x8C379A000000000000000000000000000000000000000000000000000000000 DUP2 MSTORE PUSH1 0x4 ADD PUSH2 0x1027 SWAP1 PUSH2 0x341F JUMP JUMPDEST PUSH1 0x40 MLOAD DUP1 SWAP2 SUB SWAP1 REVERT JUMPDEST PUSH1 0x1 PUSH1 0x3 PUSH0 CALLER PUSH20 0xFFFFFFFFFFFFFFFFFFFFFFFFFFFFFFFFFFFFFFFF AND PUSH20 0xFFFFFFFFFFFFFFFFFFFFFFFFFFFFFFFFFFFFFFFF AND DUP2 MSTORE PUSH1 0x20 ADD SWAP1 DUP2 MSTORE PUSH1 0x20 ADD PUSH0 KECCAK256 PUSH0 DUP4 DUP2 MSTORE PUSH1 0x20 ADD SWAP1 DUP2 MSTORE PUSH1 0x20 ADD PUSH0 KECCAK256 PUSH0 ADD PUSH0 PUSH2 0x100 EXP DUP2 SLOAD DUP2 PUSH1 0xFF MUL NOT AND SWAP1 DUP4 ISZERO ISZERO MUL OR SWAP1 SSTORE POP PUSH1 0x2 PUSH0 DUP3 DUP2 MSTORE PUSH1 0x20 ADD SWAP1 DUP2 MSTORE PUSH1 0x20 ADD PUSH0 KECCAK256 PUSH1 0x5 ADD PUSH0 DUP2 SLOAD DUP1 SWAP3 SWAP2 SWAP1 PUSH2 0x10BA SWAP1 PUSH2 0x3259 JUMP JUMPDEST SWAP2 SWAP1 POP SSTORE POP CALLER PUSH20 0xFFFFFFFFFFFFFFFFFFFFFFFFFFFFFFFFFFFFFFFF AND DUP2 PUSH32 0xFACF1A2842ACBAD124CBCA0A047FE37BC246C68F814E0350C7BD8A022FD1DDDB PUSH1 0x40 MLOAD PUSH1 0x40 MLOAD DUP1 SWAP2 SUB SWAP1 LOG3 POP JUMP JUMPDEST PUSH1 0x5 SLOAD DUP2 JUMP JUMPDEST PUSH2 0x1114 PUSH2 0x22DA JUMP JUMPDEST PUSH2 0x111D PUSH0 PUSH2 0x23C2 JUMP JUMPDEST JUMP JUMPDEST PUSH2 0x1127 PUSH2 0x22DA JUMP JUMPDEST PUSH1 0x2 PUSH0 DUP3 DUP2 MSTORE PUSH1 0x20 ADD SWAP1 DUP2 MSTORE PUSH1 0x20 ADD PUSH0 KECCAK256 PUSH1 0x2 ADD PUSH0 SWAP1 SLOAD SWAP1 PUSH2 0x100 EXP SWAP1 DIV PUSH1 0xFF AND ISZERO PUSH2 0x1188 JUMPI PUSH1 0x40 MLOAD PUSH32 0x8C379A000000000000000000000000000000000000000000000000000000000 DUP2 MSTORE PUSH1 0x4 ADD PUSH2 0x117F SWAP1 PUSH2 0x3487 JUMP JUMPDEST PUSH1 0x40 MLOAD DUP1 SWAP2 SUB SWAP1 REVERT JUMPDEST PUSH1 0x1 PUSH1 0x2 PUSH0 DUP4 DUP2 MSTORE PUSH1 0x20 ADD SWAP1 DUP2 MSTORE PUSH1 0x20 ADD PUSH0 KECCAK256 PUSH1 0x2 ADD PUSH0 PUSH2 0x100 EXP DUP2 SLOAD DUP2 PUSH1 0xFF MUL NOT AND SWAP1 DUP4 ISZERO ISZERO MUL OR SWAP1 SSTORE POP DUP1 PUSH32 0x87C1C0E5CD17BEB8C61A3337B32C66021CB179DD6F97D6D9CE923A029092BD45 PUSH1 0x40 MLOAD PUSH1 0x40 MLOAD DUP1 SWAP2 SUB SWAP1 LOG2 POP JUMP JUMPDEST PUSH2 0x11EC PUSH2 0x22DA JUMP JUMPDEST PUSH2 0x11F4 PUSH2 0x2483 JUMP JUMPDEST JUMP JUMPDEST PUSH1 0x1 PUSH0 SWAP1 SLOAD SWAP1 PUSH2 0x100 EXP SWAP1 DIV PUSH20 0xFFFFFFFFFFFFFFFFFFFFFFFFFFFFFFFFFFFFFFFF AND DUP2 JUMP JUMPDEST PUSH2 0x1223 PUSH2 0x2290 JUMP JUMPDEST PUSH1 0x32 PUSH1 0x1 PUSH0 SWAP1 SLOAD SWAP1 PUSH2 0x100 EXP SWAP1 DIV PUSH20 0xFFFFFFFFFFFFFFFFFFFFFFFFFFFFFFFFFFFFFFFF AND PUSH20 0xFFFFFFFFFFFFFFFFFFFFFFFFFFFFFFFFFFFFFFFF AND PUSH4 0xB9F79451 CALLER PUSH1 0x40 MLOAD DUP3 PUSH4 0xFFFFFFFF AND PUSH1 0xE0 SHL DUP2 MSTORE PUSH1 0x4 ADD PUSH2 0x127F SWAP2 SWAP1 PUSH2 0x2A75 JUMP JUMPDEST PUSH1 0x20 PUSH1 0x40 MLOAD DUP1 DUP4 SUB DUP2 DUP7 GAS STATICCALL ISZERO DUP1 ISZERO PUSH2 0x129A JUMPI RETURNDATASIZE PUSH0 DUP1 RETURNDATACOPY RETURNDATASIZE PUSH0 REVERT JUMPDEST POP POP POP POP PUSH1 0x40 MLOAD RETURNDATASIZE PUSH1 0x1F NOT PUSH1 0x1F DUP3 ADD AND DUP3 ADD DUP1 PUSH1 0x40 MSTORE POP DUP2 ADD SWAP1 PUSH2 0x12BE SWAP2 SWAP1 PUSH2 0x32B4 JUMP JUMPDEST LT ISZERO PUSH2 0x12FF JUMPI PUSH1 0x40 MLOAD PUSH32 0x8C379A000000000000000000000000000000000000000000000000000000000 DUP2 MSTORE PUSH1 0x4 ADD PUSH2 0x12F6 SWAP1 PUSH2 0x3515 JUMP JUMPDEST PUSH1 0x40 MLOAD DUP1 SWAP2 SUB SWAP1 REVERT JUMPDEST PUSH0 PUSH1 0x5 PUSH0 DUP2 SLOAD DUP1 SWAP3 SWAP2 SWAP1 PUSH2 0x1312 SWAP1 PUSH2 0x3259 JUMP JUMPDEST SWAP2 SWAP1 POP SSTORE SWAP1 POP PUSH1 0x40 MLOAD DUP1 PUSH1 0xC0 ADD PUSH1 0x40 MSTORE DUP1 CALLER PUSH20 0xFFFFFFFFFFFFFFFFFFFFFFFFFFFFFFFFFFFFFFFF AND DUP2 MSTORE PUSH1 0x20 ADD DUP4 DUP2 MSTORE PUSH1 0x20 ADD PUSH0 ISZERO ISZERO DUP2 MSTORE PUSH1 0x20 ADD PUSH0 DUP2 MSTORE PUSH1 0x20 ADD PUSH0 DUP2 MSTORE PUSH1 0x20 ADD PUSH0 DUP2 MSTORE POP PUSH1 0x2 PUSH0 DUP4 DUP2 MSTORE PUSH1 0x20 ADD SWAP1 DUP2 MSTORE PUSH1 0x20 ADD PUSH0 KECCAK256 PUSH0 DUP3 ADD MLOAD DUP2 PUSH0 ADD PUSH0 PUSH2 0x100 EXP DUP2 SLOAD DUP2 PUSH20 0xFFFFFFFFFFFFFFFFFFFFFFFFFFFFFFFFFFFFFFFF MUL NOT AND SWAP1 DUP4 PUSH20 0xFFFFFFFFFFFFFFFFFFFFFFFFFFFFFFFFFFFFFFFF AND MUL OR SWAP1 SSTORE POP PUSH1 0x20 DUP3 ADD MLOAD DUP2 PUSH1 0x1 ADD SWAP1 DUP2 PUSH2 0x13C7 SWAP2 SWAP1 PUSH2 0x36C7 JUMP JUMPDEST POP PUSH1 0x40 DUP3 ADD MLOAD DUP2 PUSH1 0x2 ADD PUSH0 PUSH2 0x100 EXP DUP2 SLOAD DUP2 PUSH1 0xFF MUL NOT AND SWAP1 DUP4 ISZERO ISZERO MUL OR SWAP1 SSTORE POP PUSH1 0x60 DUP3 ADD MLOAD DUP2 PUSH1 0x3 ADD SSTORE PUSH1 0x80 DUP3 ADD MLOAD DUP2 PUSH1 0x4 ADD SSTORE PUSH1 0xA0 DUP3 ADD MLOAD DUP2 PUSH1 0x5 ADD SSTORE SWAP1 POP POP CALLER PUSH20 0xFFFFFFFFFFFFFFFFFFFFFFFFFFFFFFFFFFFFFFFF AND DUP2 PUSH32 0xA68F79AA37F9CDC81C2757CFB3E11E9D7D89CA0A5410FBCF1B61125BC17FB1B7 PUSH1 0x40 MLOAD PUSH1 0x40 MLOAD DUP1 SWAP2 SUB SWAP1 LOG3 POP POP JUMP JUMPDEST PUSH0 DUP1 PUSH0 SWAP1 SLOAD SWAP1 PUSH2 0x100 EXP SWAP1 DIV PUSH20 0xFFFFFFFFFFFFFFFFFFFFFFFFFFFFFFFFFFFFFFFF AND SWAP1 POP SWAP1 JUMP JUMPDEST PUSH2 0x147F PUSH2 0x22DA JUMP JUMPDEST DUP1 PUSH1 0x1 PUSH0 PUSH2 0x100 EXP DUP2 SLOAD DUP2 PUSH20 0xFFFFFFFFFFFFFFFFFFFFFFFFFFFFFFFFFFFFFFFF MUL NOT AND SWAP1 DUP4 PUSH20 0xFFFFFFFFFFFFFFFFFFFFFFFFFFFFFFFFFFFFFFFF AND MUL OR SWAP1 SSTORE POP POP JUMP JUMPDEST PUSH1 0x2 PUSH1 0x20 MSTORE DUP1 PUSH0 MSTORE PUSH1 0x40 PUSH0 KECCAK256 PUSH0 SWAP2 POP SWAP1 POP DUP1 PUSH0 ADD PUSH0 SWAP1 SLOAD SWAP1 PUSH2 0x100 EXP SWAP1 DIV PUSH20 0xFFFFFFFFFFFFFFFFFFFFFFFFFFFFFFFFFFFFFFFF AND SWAP1 DUP1 PUSH1 0x1 ADD DUP1 SLOAD PUSH2 0x1506 SWAP1 PUSH2 0x3144 JUMP JUMPDEST DUP1 PUSH1 0x1F ADD PUSH1 0x20 DUP1 SWAP2 DIV MUL PUSH1 0x20 ADD PUSH1 0x40 MLOAD SWAP1 DUP2 ADD PUSH1 0x40 MSTORE DUP1 SWAP3 SWAP2 SWAP1 DUP2 DUP2 MSTORE PUSH1 0x20 ADD DUP3 DUP1 SLOAD PUSH2 0x1532 SWAP1 PUSH2 0x3144 JUMP JUMPDEST DUP1 ISZERO PUSH2 0x157D JUMPI DUP1 PUSH1 0x1F LT PUSH2 0x1554 JUMPI PUSH2 0x100 DUP1 DUP4 SLOAD DIV MUL DUP4 MSTORE SWAP2 PUSH1 0x20 ADD SWAP2 PUSH2 0x157D JUMP JUMPDEST DUP3 ADD SWAP2 SWAP1 PUSH0 MSTORE PUSH1 0x20 PUSH0 KECCAK256 SWAP1 JUMPDEST DUP2 SLOAD DUP2 MSTORE SWAP1 PUSH1 0x1 ADD SWAP1 PUSH1 0x20 ADD DUP1 DUP4 GT PUSH2 0x1560 JUMPI DUP3 SWAP1 SUB PUSH1 0x1F AND DUP3 ADD SWAP2 JUMPDEST POP POP POP POP POP SWAP1 DUP1 PUSH1 0x2 ADD PUSH0 SWAP1 SLOAD SWAP1 PUSH2 0x100 EXP SWAP1 DIV PUSH1 0xFF AND SWAP1 DUP1 PUSH1 0x3 ADD SLOAD SWAP1 DUP1 PUSH1 0x4 ADD SLOAD SWAP1 DUP1 PUSH1 0x5 ADD SLOAD SWAP1 POP DUP7 JUMP JUMPDEST PUSH2 0x15B3 PUSH2 0x2290 JUMP JUMPDEST PUSH0 PUSH1 0x3 PUSH0 CALLER PUSH20 0xFFFFFFFFFFFFFFFFFFFFFFFFFFFFFFFFFFFFFFFF AND PUSH20 0xFFFFFFFFFFFFFFFFFFFFFFFFFFFFFFFFFFFFFFFF AND DUP2 MSTORE PUSH1 0x20 ADD SWAP1 DUP2 MSTORE PUSH1 0x20 ADD PUSH0 KECCAK256 PUSH0 DUP4 DUP2 MSTORE PUSH1 0x20 ADD SWAP1 DUP2 MSTORE PUSH1 0x20 ADD PUSH0 KECCAK256 SWAP1 POP DUP1 PUSH0 ADD PUSH1 0x2 SWAP1 SLOAD SWAP1 PUSH2 0x100 EXP SWAP1 DIV PUSH1 0xFF AND PUSH2 0x1652 JUMPI PUSH1 0x40 MLOAD PUSH32 0x8C379A000000000000000000000000000000000000000000000000000000000 DUP2 MSTORE PUSH1 0x4 ADD PUSH2 0x1649 SWAP1 PUSH2 0x37E0 JUMP JUMPDEST PUSH1 0x40 MLOAD DUP1 SWAP2 SUB SWAP1 REVERT JUMPDEST DUP1 PUSH0 ADD PUSH1 0x3 SWAP1 SLOAD SWAP1 PUSH2 0x100 EXP SWAP1 DIV PUSH1 0xFF AND ISZERO PUSH2 0x16A3 JUMPI PUSH1 0x40 MLOAD PUSH32 0x8C379A000000000000000000000000000000000000000000000000000000000 DUP2 MSTORE PUSH1 0x4 ADD PUSH2 0x169A SWAP1 PUSH2 0x3848 JUMP JUMPDEST PUSH1 0x40 MLOAD DUP1 SWAP2 SUB SWAP1 REVERT JUMPDEST PUSH1 0x1 DUP2 PUSH0 ADD PUSH1 0x3 PUSH2 0x100 EXP DUP2 SLOAD DUP2 PUSH1 0xFF MUL NOT AND SWAP1 DUP4 ISZERO ISZERO MUL OR SWAP1 SSTORE POP PUSH8 0x8AC7230489E80000 PUSH1 0x2 PUSH0 DUP5 DUP2 MSTORE PUSH1 0x20 ADD SWAP1 DUP2 MSTORE PUSH1 0x20 ADD PUSH0 KECCAK256 PUSH1 0x4 ADD PUSH0 DUP3 DUP3 SLOAD PUSH2 0x16EA SWAP2 SWAP1 PUSH2 0x3866 JUMP JUMPDEST SWAP3 POP POP DUP2 SWAP1 SSTORE POP PUSH0 CALLER PUSH20 0xFFFFFFFFFFFFFFFFFFFFFFFFFFFFFFFFFFFFFFFF AND PUSH8 0x8AC7230489E80000 PUSH1 0x40 MLOAD PUSH2 0x171E SWAP1 PUSH2 0x2F15 JUMP JUMPDEST PUSH0 PUSH1 0x40 MLOAD DUP1 DUP4 SUB DUP2 DUP6 DUP8 GAS CALL SWAP3 POP POP POP RETURNDATASIZE DUP1 PUSH0 DUP2 EQ PUSH2 0x1758 JUMPI PUSH1 0x40 MLOAD SWAP2 POP PUSH1 0x1F NOT PUSH1 0x3F RETURNDATASIZE ADD AND DUP3 ADD PUSH1 0x40 MSTORE RETURNDATASIZE DUP3 MSTORE RETURNDATASIZE PUSH0 PUSH1 0x20 DUP5 ADD RETURNDATACOPY PUSH2 0x175D JUMP JUMPDEST PUSH1 0x60 SWAP2 POP JUMPDEST POP POP SWAP1 POP DUP1 PUSH2 0x17A1 JUMPI PUSH1 0x40 MLOAD PUSH32 0x8C379A000000000000000000000000000000000000000000000000000000000 DUP2 MSTORE PUSH1 0x4 ADD PUSH2 0x1798 SWAP1 PUSH2 0x2F73 JUMP JUMPDEST PUSH1 0x40 MLOAD DUP1 SWAP2 SUB SWAP1 REVERT JUMPDEST CALLER PUSH20 0xFFFFFFFFFFFFFFFFFFFFFFFFFFFFFFFFFFFFFFFF AND DUP4 PUSH32 0x24B5EFA61DD1CFC659205A97FB8ED868F3CB8C81922BAB2B96423E5DE1DE2CB7 PUSH8 0x8AC7230489E80000 PUSH1 0x40 MLOAD PUSH2 0x17F0 SWAP2 SWAP1 PUSH2 0x2992 JUMP JUMPDEST PUSH1 0x40 MLOAD DUP1 SWAP2 SUB SWAP1 LOG3 POP POP POP JUMP JUMPDEST PUSH1 0x32 DUP2 JUMP JUMPDEST PUSH1 0x5 DUP2 JUMP JUMPDEST PUSH1 0x4 PUSH1 0x20 MSTORE DUP2 PUSH0 MSTORE PUSH1 0x40 PUSH0 KECCAK256 DUP2 DUP2 SLOAD DUP2 LT PUSH2 0x1820 JUMPI PUSH0 DUP1 REVERT JUMPDEST SWAP1 PUSH0 MSTORE PUSH1 0x20 PUSH0 KECCAK256 SWAP1 PUSH1 0x7 MUL ADD PUSH0 SWAP2 POP SWAP2 POP POP DUP1 PUSH0 ADD SLOAD SWAP1 DUP1 PUSH1 0x1 ADD DUP1 SLOAD PUSH2 0x1846 SWAP1 PUSH2 0x3144 JUMP JUMPDEST DUP1 PUSH1 0x1F ADD PUSH1 0x20 DUP1 SWAP2 DIV MUL PUSH1 0x20 ADD PUSH1 0x40 MLOAD SWAP1 DUP2 ADD PUSH1 0x40 MSTORE DUP1 SWAP3 SWAP2 SWAP1 DUP2 DUP2 MSTORE PUSH1 0x20 ADD DUP3 DUP1 SLOAD PUSH2 0x1872 SWAP1 PUSH2 0x3144 JUMP JUMPDEST DUP1 ISZERO PUSH2 0x18BD JUMPI DUP1 PUSH1 0x1F LT PUSH2 0x1894 JUMPI PUSH2 0x100 DUP1 DUP4 SLOAD DIV MUL DUP4 MSTORE SWAP2 PUSH1 0x20 ADD SWAP2 PUSH2 0x18BD JUMP JUMPDEST DUP3 ADD SWAP2 SWAP1 PUSH0 MSTORE PUSH1 0x20 PUSH0 KECCAK256 SWAP1 JUMPDEST DUP2 SLOAD DUP2 MSTORE SWAP1 PUSH1 0x1 ADD SWAP1 PUSH1 0x20 ADD DUP1 DUP4 GT PUSH2 0x18A0 JUMPI DUP3 SWAP1 SUB PUSH1 0x1F AND DUP3 ADD SWAP2 JUMPDEST POP POP POP POP POP SWAP1 DUP1 PUSH1 0x2 ADD DUP1 SLOAD PUSH2 0x18D2 SWAP1 PUSH2 0x3144 JUMP JUMPDEST DUP1 PUSH1 0x1F ADD PUSH1 0x20 DUP1 SWAP2 DIV MUL PUSH1 0x20 ADD PUSH1 0x40 MLOAD SWAP1 DUP2 ADD PUSH1 0x40 MSTORE DUP1 SWAP3 SWAP2 SWAP1 DUP2 DUP2 MSTORE PUSH1 0x20 ADD DUP3 DUP1 SLOAD PUSH2 0x18FE SWAP1 PUSH2 0x3144 JUMP JUMPDEST DUP1 ISZERO PUSH2 0x1949 JUMPI DUP1 PUSH1 0x1F LT PUSH2 0x1920 JUMPI PUSH2 0x100 DUP1 DUP4 SLOAD DIV MUL DUP4 MSTORE SWAP2 PUSH1 0x20 ADD SWAP2 PUSH2 0x1949 JUMP JUMPDEST DUP3 ADD SWAP2 SWAP1 PUSH0 MSTORE PUSH1 0x20 PUSH0 KECCAK256 SWAP1 JUMPDEST DUP2 SLOAD DUP2 MSTORE SWAP1 PUSH1 0x1 ADD SWAP1 PUSH1 0x20 ADD DUP1 DUP4 GT PUSH2 0x192C JUMPI DUP3 SWAP1 SUB PUSH1 0x1F AND DUP3 ADD SWAP2 JUMPDEST POP POP POP POP POP SWAP1 DUP1 PUSH1 0x3 ADD DUP1 SLOAD PUSH2 0x195E SWAP1 PUSH2 0x3144 JUMP JUMPDEST DUP1 PUSH1 0x1F ADD PUSH1 0x20 DUP1 SWAP2 DIV MUL PUSH1 0x20 ADD PUSH1 0x40 MLOAD SWAP1 DUP2 ADD PUSH1 0x40 MSTORE DUP1 SWAP3 SWAP2 SWAP1 DUP2 DUP2 MSTORE PUSH1 0x20 ADD DUP3 DUP1 SLOAD PUSH2 0x198A SWAP1 PUSH2 0x3144 JUMP JUMPDEST DUP1 ISZERO PUSH2 0x19D5 JUMPI DUP1 PUSH1 0x1F LT PUSH2 0x19AC JUMPI PUSH2 0x100 DUP1 DUP4 SLOAD DIV MUL DUP4 MSTORE SWAP2 PUSH1 0x20 ADD SWAP2 PUSH2 0x19D5 JUMP JUMPDEST DUP3 ADD SWAP2 SWAP1 PUSH0 MSTORE PUSH1 0x20 PUSH0 KECCAK256 SWAP1 JUMPDEST DUP2 SLOAD DUP2 MSTORE SWAP1 PUSH1 0x1 ADD SWAP1 PUSH1 0x20 ADD DUP1 DUP4 GT PUSH2 0x19B8 JUMPI DUP3 SWAP1 SUB PUSH1 0x1F AND DUP3 ADD SWAP2 JUMPDEST POP POP POP POP POP SWAP1 DUP1 PUSH1 0x4 ADD DUP1 SLOAD PUSH2 0x19EA SWAP1 PUSH2 0x3144 JUMP JUMPDEST DUP1 PUSH1 0x1F ADD PUSH1 0x20 DUP1 SWAP2 DIV MUL PUSH1 0x20 ADD PUSH1 0x40 MLOAD SWAP1 DUP2 ADD PUSH1 0x40 MSTORE DUP1 SWAP3 SWAP2 SWAP1 DUP2 DUP2 MSTORE PUSH1 0x20 ADD DUP3 DUP1 SLOAD PUSH2 0x1A16 SWAP1 PUSH2 0x3144 JUMP JUMPDEST DUP1 ISZERO PUSH2 0x1A61 JUMPI DUP1 PUSH1 0x1F LT PUSH2 0x1A38 JUMPI PUSH2 0x100 DUP1 DUP4 SLOAD DIV MUL DUP4 MSTORE SWAP2 PUSH1 0x20 ADD SWAP2 PUSH2 0x1A61 JUMP JUMPDEST DUP3 ADD SWAP2 SWAP1 PUSH0 MSTORE PUSH1 0x20 PUSH0 KECCAK256 SWAP1 JUMPDEST DUP2 SLOAD DUP2 MSTORE SWAP1 PUSH1 0x1 ADD SWAP1 PUSH1 0x20 ADD DUP1 DUP4 GT PUSH2 0x1A44 JUMPI DUP3 SWAP1 SUB PUSH1 0x1F AND DUP3 ADD SWAP2 JUMPDEST POP POP POP POP POP SWAP1 DUP1 PUSH1 0x5 ADD DUP1 SLOAD PUSH2 0x1A76 SWAP1 PUSH2 0x3144 JUMP JUMPDEST DUP1 PUSH1 0x1F ADD PUSH1 0x20 DUP1 SWAP2 DIV MUL PUSH1 0x20 ADD PUSH1 0x40 MLOAD SWAP1 DUP2 ADD PUSH1 0x40 MSTORE DUP1 SWAP3 SWAP2 SWAP1 DUP2 DUP2 MSTORE PUSH1 0x20 ADD DUP3 DUP1 SLOAD PUSH2 0x1AA2 SWAP1 PUSH2 0x3144 JUMP JUMPDEST DUP1 ISZERO PUSH2 0x1AED JUMPI DUP1 PUSH1 0x1F LT PUSH2 0x1AC4 JUMPI PUSH2 0x100 DUP1 DUP4 SLOAD DIV MUL DUP4 MSTORE SWAP2 PUSH1 0x20 ADD SWAP2 PUSH2 0x1AED JUMP JUMPDEST DUP3 ADD SWAP2 SWAP1 PUSH0 MSTORE PUSH1 0x20 PUSH0 KECCAK256 SWAP1 JUMPDEST DUP2 SLOAD DUP2 MSTORE SWAP1 PUSH1 0x1 ADD SWAP1 PUSH1 0x20 ADD DUP1 DUP4 GT PUSH2 0x1AD0 JUMPI DUP3 SWAP1 SUB PUSH1 0x1F AND DUP3 ADD SWAP2 JUMPDEST POP POP POP POP POP SWAP1 DUP1 PUSH1 0x6 ADD SLOAD SWAP1 POP DUP8 JUMP JUMPDEST PUSH2 0x1B05 PUSH2 0x2290 JUMP JUMPDEST PUSH0 PUSH1 0x2 PUSH0 DUP4 DUP2 MSTORE PUSH1 0x20 ADD SWAP1 DUP2 MSTORE PUSH1 0x20 ADD PUSH0 KECCAK256 SWAP1 POP DUP1 PUSH0 ADD PUSH0 SWAP1 SLOAD SWAP1 PUSH2 0x100 EXP SWAP1 DIV PUSH20 0xFFFFFFFFFFFFFFFFFFFFFFFFFFFFFFFFFFFFFFFF AND PUSH20 0xFFFFFFFFFFFFFFFFFFFFFFFFFFFFFFFFFFFFFFFF AND CALLER PUSH20 0xFFFFFFFFFFFFFFFFFFFFFFFFFFFFFFFFFFFFFFFF AND EQ PUSH2 0x1BA9 JUMPI PUSH1 0x40 MLOAD PUSH32 0x8C379A000000000000000000000000000000000000000000000000000000000 DUP2 MSTORE PUSH1 0x4 ADD PUSH2 0x1BA0 SWAP1 PUSH2 0x3909 JUMP JUMPDEST PUSH1 0x40 MLOAD DUP1 SWAP2 SUB SWAP1 REVERT JUMPDEST DUP1 PUSH1 0x2 ADD PUSH0 SWAP1 SLOAD SWAP1 PUSH2 0x100 EXP SWAP1 DIV PUSH1 0xFF AND PUSH2 0x1BF9 JUMPI PUSH1 0x40 MLOAD PUSH32 0x8C379A000000000000000000000000000000000000000000000000000000000 DUP2 MSTORE PUSH1 0x4 ADD PUSH2 0x1BF0 SWAP1 PUSH2 0x33B7 JUMP JUMPDEST PUSH1 0x40 MLOAD DUP1 SWAP2 SUB SWAP1 REVERT JUMPDEST PUSH0 PUSH8 0xDE0B6B3A7640000 DUP3 PUSH1 0x3 ADD SLOAD PUSH2 0x1C12 SWAP2 SWAP1 PUSH2 0x3927 JUMP JUMPDEST SWAP1 POP PUSH0 DUP3 PUSH1 0x3 ADD DUP2 SWAP1 SSTORE POP DUP1 DUP3 PUSH1 0x4 ADD PUSH0 DUP3 DUP3 SLOAD PUSH2 0x1C30 SWAP2 SWAP1 PUSH2 0x3866 JUMP JUMPDEST SWAP3 POP POP DUP2 SWAP1 SSTORE POP PUSH0 CALLER PUSH20 0xFFFFFFFFFFFFFFFFFFFFFFFFFFFFFFFFFFFFFFFF AND DUP3 PUSH1 0x40 MLOAD PUSH2 0x1C5C SWAP1 PUSH2 0x2F15 JUMP JUMPDEST PUSH0 PUSH1 0x40 MLOAD DUP1 DUP4 SUB DUP2 DUP6 DUP8 GAS CALL SWAP3 POP POP POP RETURNDATASIZE DUP1 PUSH0 DUP2 EQ PUSH2 0x1C96 JUMPI PUSH1 0x40 MLOAD SWAP2 POP PUSH1 0x1F NOT PUSH1 0x3F RETURNDATASIZE ADD AND DUP3 ADD PUSH1 0x40 MSTORE RETURNDATASIZE DUP3 MSTORE RETURNDATASIZE PUSH0 PUSH1 0x20 DUP5 ADD RETURNDATACOPY PUSH2 0x1C9B JUMP JUMPDEST PUSH1 0x60 SWAP2 POP JUMPDEST POP POP SWAP1 POP DUP1 PUSH2 0x1CDF JUMPI PUSH1 0x40 MLOAD PUSH32 0x8C379A000000000000000000000000000000000000000000000000000000000 DUP2 MSTORE PUSH1 0x4 ADD PUSH2 0x1CD6 SWAP1 PUSH2 0x2F73 JUMP JUMPDEST PUSH1 0x40 MLOAD DUP1 SWAP2 SUB SWAP1 REVERT JUMPDEST CALLER PUSH20 0xFFFFFFFFFFFFFFFFFFFFFFFFFFFFFFFFFFFFFFFF AND DUP5 PUSH32 0xB67DA43F4CC061F251C05601F44947D1BE59A7EF5451A4A5230274DA04F88246 DUP5 PUSH1 0x40 MLOAD PUSH2 0x1D26 SWAP2 SWAP1 PUSH2 0x2992 JUMP JUMPDEST PUSH1 0x40 MLOAD DUP1 SWAP2 SUB SWAP1 LOG3 POP POP POP POP JUMP JUMPDEST PUSH8 0xDE0B6B3A7640000 DUP2 JUMP JUMPDEST PUSH1 0x2 PUSH0 DUP9 DUP2 MSTORE PUSH1 0x20 ADD SWAP1 DUP2 MSTORE PUSH1 0x20 ADD PUSH0 KECCAK256 PUSH0 ADD PUSH0 SWAP1 SLOAD SWAP1 PUSH2 0x100 EXP SWAP1 DIV PUSH20 0xFFFFFFFFFFFFFFFFFFFFFFFFFFFFFFFFFFFFFFFF AND PUSH20 0xFFFFFFFFFFFFFFFFFFFFFFFFFFFFFFFFFFFFFFFF AND CALLER PUSH20 0xFFFFFFFFFFFFFFFFFFFFFFFFFFFFFFFFFFFFFFFF AND EQ PUSH2 0x1DE0 JUMPI PUSH1 0x40 MLOAD PUSH32 0x8C379A000000000000000000000000000000000000000000000000000000000 DUP2 MSTORE PUSH1 0x4 ADD PUSH2 0x1DD7 SWAP1 PUSH2 0x39D8 JUMP JUMPDEST PUSH1 0x40 MLOAD DUP1 SWAP2 SUB SWAP1 REVERT JUMPDEST PUSH1 0x2 PUSH0 DUP9 DUP2 MSTORE PUSH1 0x20 ADD SWAP1 DUP2 MSTORE PUSH1 0x20 ADD PUSH0 KECCAK256 PUSH1 0x2 ADD PUSH0 SWAP1 SLOAD SWAP1 PUSH2 0x100 EXP SWAP1 DIV PUSH1 0xFF AND PUSH2 0x1E40 JUMPI PUSH1 0x40 MLOAD PUSH32 0x8C379A000000000000000000000000000000000000000000000000000000000 DUP2 MSTORE PUSH1 0x4 ADD PUSH2 0x1E37 SWAP1 PUSH2 0x3A66 JUMP JUMPDEST PUSH1 0x40 MLOAD DUP1 SWAP2 SUB SWAP1 REVERT JUMPDEST PUSH1 0x40 MLOAD PUSH1 0x20 ADD PUSH2 0x1E4F SWAP1 PUSH2 0x3ACE JUMP JUMPDEST PUSH1 0x40 MLOAD PUSH1 0x20 DUP2 DUP4 SUB SUB DUP2 MSTORE SWAP1 PUSH1 0x40 MSTORE DUP1 MLOAD SWAP1 PUSH1 0x20 ADD KECCAK256 DUP2 PUSH1 0x40 MLOAD PUSH1 0x20 ADD PUSH2 0x1E76 SWAP2 SWAP1 PUSH2 0x3243 JUMP JUMPDEST PUSH1 0x40 MLOAD PUSH1 0x20 DUP2 DUP4 SUB SUB DUP2 MSTORE SWAP1 PUSH1 0x40 MSTORE DUP1 MLOAD SWAP1 PUSH1 0x20 ADD KECCAK256 EQ DUP1 PUSH2 0x1EE1 JUMPI POP PUSH1 0x40 MLOAD PUSH1 0x20 ADD PUSH2 0x1EA2 SWAP1 PUSH2 0x3B2C JUMP JUMPDEST PUSH1 0x40 MLOAD PUSH1 0x20 DUP2 DUP4 SUB SUB DUP2 MSTORE SWAP1 PUSH1 0x40 MSTORE DUP1 MLOAD SWAP1 PUSH1 0x20 ADD KECCAK256 DUP2 PUSH1 0x40 MLOAD PUSH1 0x20 ADD PUSH2 0x1EC9 SWAP2 SWAP1 PUSH2 0x3243 JUMP JUMPDEST PUSH1 0x40 MLOAD PUSH1 0x20 DUP2 DUP4 SUB SUB DUP2 MSTORE SWAP1 PUSH1 0x40 MSTORE DUP1 MLOAD SWAP1 PUSH1 0x20 ADD KECCAK256 EQ JUMPDEST DUP1 PUSH2 0x1F35 JUMPI POP PUSH1 0x40 MLOAD PUSH1 0x20 ADD PUSH2 0x1EF6 SWAP1 PUSH2 0x3B8A JUMP JUMPDEST PUSH1 0x40 MLOAD PUSH1 0x20 DUP2 DUP4 SUB SUB DUP2 MSTORE SWAP1 PUSH1 0x40 MSTORE DUP1 MLOAD SWAP1 PUSH1 0x20 ADD KECCAK256 DUP2 PUSH1 0x40 MLOAD PUSH1 0x20 ADD PUSH2 0x1F1D SWAP2 SWAP1 PUSH2 0x3243 JUMP JUMPDEST PUSH1 0x40 MLOAD PUSH1 0x20 DUP2 DUP4 SUB SUB DUP2 MSTORE SWAP1 PUSH1 0x40 MSTORE DUP1 MLOAD SWAP1 PUSH1 0x20 ADD KECCAK256 EQ JUMPDEST DUP1 PUSH2 0x1F89 JUMPI POP PUSH1 0x40 MLOAD PUSH1 0x20 ADD PUSH2 0x1F4A SWAP1 PUSH2 0x3BE8 JUMP JUMPDEST PUSH1 0x40 MLOAD PUSH1 0x20 DUP2 DUP4 SUB SUB DUP2 MSTORE SWAP1 PUSH1 0x40 MSTORE DUP1 MLOAD SWAP1 PUSH1 0x20 ADD KECCAK256 DUP2 PUSH1 0x40 MLOAD PUSH1 0x20 ADD PUSH2 0x1F71 SWAP2 SWAP1 PUSH2 0x3243 JUMP JUMPDEST PUSH1 0x40 MLOAD PUSH1 0x20 DUP2 DUP4 SUB SUB DUP2 MSTORE SWAP1 PUSH1 0x40 MSTORE DUP1 MLOAD SWAP1 PUSH1 0x20 ADD KECCAK256 EQ JUMPDEST PUSH2 0x1FC8 JUMPI PUSH1 0x40 MLOAD PUSH32 0x8C379A000000000000000000000000000000000000000000000000000000000 DUP2 MSTORE PUSH1 0x4 ADD PUSH2 0x1FBF SWAP1 PUSH2 0x3C46 JUMP JUMPDEST PUSH1 0x40 MLOAD DUP1 SWAP2 SUB SWAP1 REVERT JUMPDEST PUSH0 PUSH1 0x40 MLOAD DUP1 PUSH1 0xE0 ADD PUSH1 0x40 MSTORE DUP1 DUP10 DUP2 MSTORE PUSH1 0x20 ADD DUP9 DUP2 MSTORE PUSH1 0x20 ADD DUP8 DUP2 MSTORE PUSH1 0x20 ADD DUP7 DUP2 MSTORE PUSH1 0x20 ADD DUP6 DUP2 MSTORE PUSH1 0x20 ADD DUP5 DUP2 MSTORE PUSH1 0x20 ADD DUP4 PUSH1 0x40 MLOAD PUSH1 0x20 ADD PUSH2 0x2009 SWAP2 SWAP1 PUSH2 0x3243 JUMP JUMPDEST PUSH1 0x40 MLOAD PUSH1 0x20 DUP2 DUP4 SUB SUB DUP2 MSTORE SWAP1 PUSH1 0x40 MSTORE DUP1 MLOAD SWAP1 PUSH1 0x20 ADD KECCAK256 DUP2 MSTORE POP SWAP1 POP PUSH1 0x4 PUSH0 DUP10 DUP2 MSTORE PUSH1 0x20 ADD SWAP1 DUP2 MSTORE PUSH1 0x20 ADD PUSH0 KECCAK256 DUP2 SWAP1 DUP1 PUSH1 0x1 DUP2 SLOAD ADD DUP1 DUP3 SSTORE DUP1 SWAP2 POP POP PUSH1 0x1 SWAP1 SUB SWAP1 PUSH0 MSTORE PUSH1 0x20 PUSH0 KECCAK256 SWAP1 PUSH1 0x7 MUL ADD PUSH0 SWAP1 SWAP2 SWAP1 SWAP2 SWAP1 SWAP2 POP PUSH0 DUP3 ADD MLOAD DUP2 PUSH0 ADD SSTORE PUSH1 0x20 DUP3 ADD MLOAD DUP2 PUSH1 0x1 ADD SWAP1 DUP2 PUSH2 0x2079 SWAP2 SWAP1 PUSH2 0x36C7 JUMP JUMPDEST POP PUSH1 0x40 DUP3 ADD MLOAD DUP2 PUSH1 0x2 ADD SWAP1 DUP2 PUSH2 0x208F SWAP2 SWAP1 PUSH2 0x36C7 JUMP JUMPDEST POP PUSH1 0x60 DUP3 ADD MLOAD DUP2 PUSH1 0x3 ADD SWAP1 DUP2 PUSH2 0x20A5 SWAP2 SWAP1 PUSH2 0x36C7 JUMP JUMPDEST POP PUSH1 0x80 DUP3 ADD MLOAD DUP2 PUSH1 0x4 ADD SWAP1 DUP2 PUSH2 0x20BB SWAP2 SWAP1 PUSH2 0x36C7 JUMP JUMPDEST POP PUSH1 0xA0 DUP3 ADD MLOAD DUP2 PUSH1 0x5 ADD SWAP1 DUP2 PUSH2 0x20D1 SWAP2 SWAP1 PUSH2 0x36C7 JUMP JUMPDEST POP PUSH1 0xC0 DUP3 ADD MLOAD DUP2 PUSH1 0x6 ADD SSTORE POP POP PUSH0 PUSH1 0x1 PUSH1 0x4 PUSH0 DUP12 DUP2 MSTORE PUSH1 0x20 ADD SWAP1 DUP2 MSTORE PUSH1 0x20 ADD PUSH0 KECCAK256 DUP1 SLOAD SWAP1 POP PUSH2 0x2100 SWAP2 SWAP1 PUSH2 0x2EB5 JUMP JUMPDEST SWAP1 POP DUP9 PUSH32 0x8865832F191AE6766F74AD3A536812CFFBF608C1DEE46454CF0B3B9C98A4B37F DUP3 PUSH1 0x40 MLOAD PUSH2 0x2132 SWAP2 SWAP1 PUSH2 0x2992 JUMP JUMPDEST PUSH1 0x40 MLOAD DUP1 SWAP2 SUB SWAP1 LOG2 POP POP POP POP POP POP POP POP POP JUMP JUMPDEST PUSH2 0x214D PUSH2 0x22DA JUMP JUMPDEST PUSH0 PUSH2 0x2156 PUSH2 0x1450 JUMP JUMPDEST PUSH20 0xFFFFFFFFFFFFFFFFFFFFFFFFFFFFFFFFFFFFFFFF AND DUP3 PUSH1 0x40 MLOAD PUSH2 0x2179 SWAP1 PUSH2 0x2F15 JUMP JUMPDEST PUSH0 PUSH1 0x40 MLOAD DUP1 DUP4 SUB DUP2 DUP6 DUP8 GAS CALL SWAP3 POP POP POP RETURNDATASIZE DUP1 PUSH0 DUP2 EQ PUSH2 0x21B3 JUMPI PUSH1 0x40 MLOAD SWAP2 POP PUSH1 0x1F NOT PUSH1 0x3F RETURNDATASIZE ADD AND DUP3 ADD PUSH1 0x40 MSTORE RETURNDATASIZE DUP3 MSTORE RETURNDATASIZE PUSH0 PUSH1 0x20 DUP5 ADD RETURNDATACOPY PUSH2 0x21B8 JUMP JUMPDEST PUSH1 0x60 SWAP2 POP JUMPDEST POP POP SWAP1 POP DUP1 PUSH2 0x21FC JUMPI PUSH1 0x40 MLOAD PUSH32 0x8C379A000000000000000000000000000000000000000000000000000000000 DUP2 MSTORE PUSH1 0x4 ADD PUSH2 0x21F3 SWAP1 PUSH2 0x3CAE JUMP JUMPDEST PUSH1 0x40 MLOAD DUP1 SWAP2 SUB SWAP1 REVERT JUMPDEST POP POP JUMP JUMPDEST PUSH2 0x2208 PUSH2 0x22DA JUMP JUMPDEST PUSH0 PUSH20 0xFFFFFFFFFFFFFFFFFFFFFFFFFFFFFFFFFFFFFFFF AND DUP2 PUSH20 0xFFFFFFFFFFFFFFFFFFFFFFFFFFFFFFFFFFFFFFFF AND SUB PUSH2 0x2278 JUMPI PUSH0 PUSH1 0x40 MLOAD PUSH32 0x1E4FBDF700000000000000000000000000000000000000000000000000000000 DUP2 MSTORE PUSH1 0x4 ADD PUSH2 0x226F SWAP2 SWAP1 PUSH2 0x2A75 JUMP JUMPDEST PUSH1 0x40 MLOAD DUP1 SWAP2 SUB SWAP1 REVERT JUMPDEST PUSH2 0x2281 DUP2 PUSH2 0x23C2 JUMP JUMPDEST POP JUMP JUMPDEST PUSH8 0x8AC7230489E80000 DUP2 JUMP JUMPDEST PUSH2 0x2298 PUSH2 0x803 JUMP JUMPDEST ISZERO PUSH2 0x22D8 JUMPI PUSH1 0x40 MLOAD PUSH32 0x8C379A000000000000000000000000000000000000000000000000000000000 DUP2 MSTORE PUSH1 0x4 ADD PUSH2 0x22CF SWAP1 PUSH2 0x3D16 JUMP JUMPDEST PUSH1 0x40 MLOAD DUP1 SWAP2 SUB SWAP1 REVERT JUMPDEST JUMP JUMPDEST PUSH2 0x22E2 PUSH2 0x24E5 JUMP JUMPDEST PUSH20 0xFFFFFFFFFFFFFFFFFFFFFFFFFFFFFFFFFFFFFFFF AND PUSH2 0x2300 PUSH2 0x1450 JUMP JUMPDEST PUSH20 0xFFFFFFFFFFFFFFFFFFFFFFFFFFFFFFFFFFFFFFFF AND EQ PUSH2 0x235F JUMPI PUSH2 0x2323 PUSH2 0x24E5 JUMP JUMPDEST PUSH1 0x40 MLOAD PUSH32 0x118CDAA700000000000000000000000000000000000000000000000000000000 DUP2 MSTORE PUSH1 0x4 ADD PUSH2 0x2356 SWAP2 SWAP1 PUSH2 0x2A75 JUMP JUMPDEST PUSH1 0x40 MLOAD DUP1 SWAP2 SUB SWAP1 REVERT JUMPDEST JUMP JUMPDEST PUSH2 0x2369 PUSH2 0x24EC JUMP JUMPDEST PUSH0 DUP1 PUSH1 0x14 PUSH2 0x100 EXP DUP2 SLOAD DUP2 PUSH1 0xFF MUL NOT AND SWAP1 DUP4 ISZERO ISZERO MUL OR SWAP1 SSTORE POP PUSH32 0x5DB9EE0A495BF2E6FF9C91A7834C1BA4FDD244A5E8AA4E537BD38AEAE4B073AA PUSH2 0x23AB PUSH2 0x24E5 JUMP JUMPDEST PUSH1 0x40 MLOAD PUSH2 0x23B8 SWAP2 SWAP1 PUSH2 0x2A75 JUMP JUMPDEST PUSH1 0x40 MLOAD DUP1 SWAP2 SUB SWAP1 LOG1 JUMP JUMPDEST PUSH0 DUP1 PUSH0 SWAP1 SLOAD SWAP1 PUSH2 0x100 EXP SWAP1 DIV PUSH20 0xFFFFFFFFFFFFFFFFFFFFFFFFFFFFFFFFFFFFFFFF AND SWAP1 POP DUP2 PUSH0 DUP1 PUSH2 0x100 EXP DUP2 SLOAD DUP2 PUSH20 0xFFFFFFFFFFFFFFFFFFFFFFFFFFFFFFFFFFFFFFFF MUL NOT AND SWAP1 DUP4 PUSH20 0xFFFFFFFFFFFFFFFFFFFFFFFFFFFFFFFFFFFFFFFF AND MUL OR SWAP1 SSTORE POP DUP2 PUSH20 0xFFFFFFFFFFFFFFFFFFFFFFFFFFFFFFFFFFFFFFFF AND DUP2 PUSH20 0xFFFFFFFFFFFFFFFFFFFFFFFFFFFFFFFFFFFFFFFF AND PUSH32 0x8BE0079C531659141344CD1FD0A4F28419497F9722A3DAAFE3B4186F6B6457E0 PUSH1 0x40 MLOAD PUSH1 0x40 MLOAD DUP1 SWAP2 SUB SWAP1 LOG3 POP POP JUMP JUMPDEST PUSH2 0x248B PUSH2 0x2290 JUMP JUMPDEST PUSH1 0x1 PUSH0 PUSH1 0x14 PUSH2 0x100 EXP DUP2 SLOAD DUP2 PUSH1 0xFF MUL NOT AND SWAP1 DUP4 ISZERO ISZERO MUL OR SWAP1 SSTORE POP PUSH32 0x62E78CEA01BEE320CD4E420270B5EA74000D11B0C9F74754EBDBFC544B05A258 PUSH2 0x24CE PUSH2 0x24E5 JUMP JUMPDEST PUSH1 0x40 MLOAD PUSH2 0x24DB SWAP2 SWAP1 PUSH2 0x2A75 JUMP JUMPDEST PUSH1 0x40 MLOAD DUP1 SWAP2 SUB SWAP1 LOG1 JUMP JUMPDEST PUSH0 CALLER SWAP1 POP SWAP1 JUMP JUMPDEST PUSH2 0x24F4 PUSH2 0x803 JUMP JUMPDEST PUSH2 0x2533 JUMPI PUSH1 0x40 MLOAD PUSH32 0x8C379A000000000000000000000000000000000000000000000000000000000 DUP2 MSTORE PUSH1 0x4 ADD PUSH2 0x252A SWAP1 PUSH2 0x3D7E JUMP JUMPDEST PUSH1 0x40 MLOAD DUP1 SWAP2 SUB SWAP1 REVERT JUMPDEST JUMP JUMPDEST PUSH0 PUSH1 0x40 MLOAD SWAP1 POP SWAP1 JUMP JUMPDEST PUSH0 DUP1 REVERT JUMPDEST PUSH0 DUP1 REVERT JUMPDEST PUSH0 DUP2 SWAP1 POP SWAP2 SWAP1 POP JUMP JUMPDEST PUSH2 0x2558 DUP2 PUSH2 0x2546 JUMP JUMPDEST DUP2 EQ PUSH2 0x2562 JUMPI PUSH0 DUP1 REVERT JUMPDEST POP JUMP JUMPDEST PUSH0 DUP2 CALLDATALOAD SWAP1 POP PUSH2 0x2573 DUP2 PUSH2 0x254F JUMP JUMPDEST SWAP3 SWAP2 POP POP JUMP JUMPDEST PUSH0 DUP1 PUSH1 0x40 DUP4 DUP6 SUB SLT ISZERO PUSH2 0x258F JUMPI PUSH2 0x258E PUSH2 0x253E JUMP JUMPDEST JUMPDEST PUSH0 PUSH2 0x259C DUP6 DUP3 DUP7 ADD PUSH2 0x2565 JUMP JUMPDEST SWAP3 POP POP PUSH1 0x20 PUSH2 0x25AD DUP6 DUP3 DUP7 ADD PUSH2 0x2565 JUMP JUMPDEST SWAP2 POP POP SWAP3 POP SWAP3 SWAP1 POP JUMP JUMPDEST PUSH0 PUSH20 0xFFFFFFFFFFFFFFFFFFFFFFFFFFFFFFFFFFFFFFFF DUP3 AND SWAP1 POP SWAP2 SWAP1 POP JUMP JUMPDEST PUSH0 PUSH2 0x25E0 DUP3 PUSH2 0x25B7 JUMP JUMPDEST SWAP1 POP SWAP2 SWAP1 POP JUMP JUMPDEST PUSH2 0x25F0 DUP2 PUSH2 0x25D6 JUMP JUMPDEST DUP2 EQ PUSH2 0x25FA JUMPI PUSH0 DUP1 REVERT JUMPDEST POP JUMP JUMPDEST PUSH0 DUP2 CALLDATALOAD SWAP1 POP PUSH2 0x260B DUP2 PUSH2 0x25E7 JUMP JUMPDEST SWAP3 SWAP2 POP POP JUMP JUMPDEST PUSH0 DUP1 PUSH1 0x40 DUP4 DUP6 SUB SLT ISZERO PUSH2 0x2627 JUMPI PUSH2 0x2626 PUSH2 0x253E JUMP JUMPDEST JUMPDEST PUSH0 PUSH2 0x2634 DUP6 DUP3 DUP7 ADD PUSH2 0x25FD JUMP JUMPDEST SWAP3 POP POP PUSH1 0x20 PUSH2 0x2645 DUP6 DUP3 DUP7 ADD PUSH2 0x2565 JUMP JUMPDEST SWAP2 POP POP SWAP3 POP SWAP3 SWAP1 POP JUMP JUMPDEST PUSH0 DUP2 ISZERO ISZERO SWAP1 POP SWAP2 SWAP1 POP JUMP JUMPDEST PUSH2 0x2663 DUP2 PUSH2 0x264F JUMP JUMPDEST DUP3 MSTORE POP POP JUMP JUMPDEST PUSH0 PUSH1 0xFF DUP3 AND SWAP1 POP SWAP2 SWAP1 POP JUMP JUMPDEST PUSH2 0x267E DUP2 PUSH2 0x2669 JUMP JUMPDEST DUP3 MSTORE POP POP JUMP JUMPDEST PUSH0 PUSH1 0x80 DUP3 ADD SWAP1 POP PUSH2 0x2697 PUSH0 DUP4 ADD DUP8 PUSH2 0x265A JUMP JUMPDEST PUSH2 0x26A4 PUSH1 0x20 DUP4 ADD DUP7 PUSH2 0x2675 JUMP JUMPDEST PUSH2 0x26B1 PUSH1 0x40 DUP4 ADD DUP6 PUSH2 0x265A JUMP JUMPDEST PUSH2 0x26BE PUSH1 0x60 DUP4 ADD DUP5 PUSH2 0x265A JUMP JUMPDEST SWAP6 SWAP5 POP POP POP POP POP JUMP JUMPDEST PUSH0 PUSH1 0x20 DUP3 ADD SWAP1 POP PUSH2 0x26DA PUSH0 DUP4 ADD DUP5 PUSH2 0x265A JUMP JUMPDEST SWAP3 SWAP2 POP POP JUMP JUMPDEST PUSH0 DUP1 REVERT JUMPDEST PUSH0 PUSH1 0x1F NOT PUSH1 0x1F DUP4 ADD AND SWAP1 POP SWAP2 SWAP1 POP JUMP JUMPDEST PUSH32 0x4E487B7100000000000000000000000000000000000000000000000000000000 PUSH0 MSTORE PUSH1 0x41 PUSH1 0x4 MSTORE PUSH1 0x24 PUSH0 REVERT JUMPDEST PUSH2 0x272A DUP3 PUSH2 0x26E4 JUMP JUMPDEST DUP2 ADD DUP2 DUP2 LT PUSH8 0xFFFFFFFFFFFFFFFF DUP3 GT OR ISZERO PUSH2 0x2749 JUMPI PUSH2 0x2748 PUSH2 0x26F4 JUMP JUMPDEST JUMPDEST DUP1 PUSH1 0x40 MSTORE POP POP POP JUMP JUMPDEST PUSH0 PUSH2 0x275B PUSH2 0x2535 JUMP JUMPDEST SWAP1 POP PUSH2 0x2767 DUP3 DUP3 PUSH2 0x2721 JUMP JUMPDEST SWAP2 SWAP1 POP JUMP JUMPDEST PUSH0 PUSH8 0xFFFFFFFFFFFFFFFF DUP3 GT ISZERO PUSH2 0x2786 JUMPI PUSH2 0x2785 PUSH2 0x26F4 JUMP JUMPDEST JUMPDEST PUSH1 0x20 DUP3 MUL SWAP1 POP PUSH1 0x20 DUP2 ADD SWAP1 POP SWAP2 SWAP1 POP JUMP JUMPDEST PUSH0 DUP1 REVERT JUMPDEST PUSH0 DUP1 REVERT JUMPDEST PUSH0 PUSH8 0xFFFFFFFFFFFFFFFF DUP3 GT ISZERO PUSH2 0x27B9 JUMPI PUSH2 0x27B8 PUSH2 0x26F4 JUMP JUMPDEST JUMPDEST PUSH2 0x27C2 DUP3 PUSH2 0x26E4 JUMP JUMPDEST SWAP1 POP PUSH1 0x20 DUP2 ADD SWAP1 POP SWAP2 SWAP1 POP JUMP JUMPDEST DUP3 DUP2 DUP4 CALLDATACOPY PUSH0 DUP4 DUP4 ADD MSTORE POP POP POP JUMP JUMPDEST PUSH0 PUSH2 0x27EF PUSH2 0x27EA DUP5 PUSH2 0x279F JUMP JUMPDEST PUSH2 0x2752 JUMP JUMPDEST SWAP1 POP DUP3 DUP2 MSTORE PUSH1 0x20 DUP2 ADD DUP5 DUP5 DUP5 ADD GT ISZERO PUSH2 0x280B JUMPI PUSH2 0x280A PUSH2 0x279B JUMP JUMPDEST JUMPDEST PUSH2 0x2816 DUP5 DUP3 DUP6 PUSH2 0x27CF JUMP JUMPDEST POP SWAP4 SWAP3 POP POP POP JUMP JUMPDEST PUSH0 DUP3 PUSH1 0x1F DUP4 ADD SLT PUSH2 0x2832 JUMPI PUSH2 0x2831 PUSH2 0x26E0 JUMP JUMPDEST JUMPDEST DUP2 CALLDATALOAD PUSH2 0x2842 DUP5 DUP3 PUSH1 0x20 DUP7 ADD PUSH2 0x27DD JUMP JUMPDEST SWAP2 POP POP SWAP3 SWAP2 POP POP JUMP JUMPDEST PUSH0 PUSH2 0x285D PUSH2 0x2858 DUP5 PUSH2 0x276C JUMP JUMPDEST PUSH2 0x2752 JUMP JUMPDEST SWAP1 POP DUP1 DUP4 DUP3 MSTORE PUSH1 0x20 DUP3 ADD SWAP1 POP PUSH1 0x20 DUP5 MUL DUP4 ADD DUP6 DUP2 GT ISZERO PUSH2 0x2880 JUMPI PUSH2 0x287F PUSH2 0x2797 JUMP JUMPDEST JUMPDEST DUP4 JUMPDEST DUP2 DUP2 LT ISZERO PUSH2 0x28C7 JUMPI DUP1 CALLDATALOAD PUSH8 0xFFFFFFFFFFFFFFFF DUP2 GT ISZERO PUSH2 0x28A5 JUMPI PUSH2 0x28A4 PUSH2 0x26E0 JUMP JUMPDEST JUMPDEST DUP1 DUP7 ADD PUSH2 0x28B2 DUP10 DUP3 PUSH2 0x281E JUMP JUMPDEST DUP6 MSTORE PUSH1 0x20 DUP6 ADD SWAP5 POP POP POP PUSH1 0x20 DUP2 ADD SWAP1 POP PUSH2 0x2882 JUMP JUMPDEST POP POP POP SWAP4 SWAP3 POP POP POP JUMP JUMPDEST PUSH0 DUP3 PUSH1 0x1F DUP4 ADD SLT PUSH2 0x28E5 JUMPI PUSH2 0x28E4 PUSH2 0x26E0 JUMP JUMPDEST JUMPDEST DUP2 CALLDATALOAD PUSH2 0x28F5 DUP5 DUP3 PUSH1 0x20 DUP7 ADD PUSH2 0x284B JUMP JUMPDEST SWAP2 POP POP SWAP3 SWAP2 POP POP JUMP JUMPDEST PUSH0 DUP1 PUSH1 0x40 DUP4 DUP6 SUB SLT ISZERO PUSH2 0x2914 JUMPI PUSH2 0x2913 PUSH2 0x253E JUMP JUMPDEST JUMPDEST PUSH0 PUSH2 0x2921 DUP6 DUP3 DUP7 ADD PUSH2 0x2565 JUMP JUMPDEST SWAP3 POP POP PUSH1 0x20 DUP4 ADD CALLDATALOAD PUSH8 0xFFFFFFFFFFFFFFFF DUP2 GT ISZERO PUSH2 0x2942 JUMPI PUSH2 0x2941 PUSH2 0x2542 JUMP JUMPDEST JUMPDEST PUSH2 0x294E DUP6 DUP3 DUP7 ADD PUSH2 0x28D1 JUMP JUMPDEST SWAP2 POP POP SWAP3 POP SWAP3 SWAP1 POP JUMP JUMPDEST PUSH0 PUSH1 0x20 DUP3 DUP5 SUB SLT ISZERO PUSH2 0x296D JUMPI PUSH2 0x296C PUSH2 0x253E JUMP JUMPDEST JUMPDEST PUSH0 PUSH2 0x297A DUP5 DUP3 DUP6 ADD PUSH2 0x2565 JUMP JUMPDEST SWAP2 POP POP SWAP3 SWAP2 POP POP JUMP JUMPDEST PUSH2 0x298C DUP2 PUSH2 0x2546 JUMP JUMPDEST DUP3 MSTORE POP POP JUMP JUMPDEST PUSH0 PUSH1 0x20 DUP3 ADD SWAP1 POP PUSH2 0x29A5 PUSH0 DUP4 ADD DUP5 PUSH2 0x2983 JUMP JUMPDEST SWAP3 SWAP2 POP POP JUMP JUMPDEST PUSH0 DUP2 SWAP1 POP SWAP2 SWAP1 POP JUMP JUMPDEST PUSH0 PUSH2 0x29CE PUSH2 0x29C9 PUSH2 0x29C4 DUP5 PUSH2 0x25B7 JUMP JUMPDEST PUSH2 0x29AB JUMP JUMPDEST PUSH2 0x25B7 JUMP JUMPDEST SWAP1 POP SWAP2 SWAP1 POP JUMP JUMPDEST PUSH0 PUSH2 0x29DF DUP3 PUSH2 0x29B4 JUMP JUMPDEST SWAP1 POP SWAP2 SWAP1 POP JUMP JUMPDEST PUSH0 PUSH2 0x29F0 DUP3 PUSH2 0x29D5 JUMP JUMPDEST SWAP1 POP SWAP2 SWAP1 POP JUMP JUMPDEST PUSH2 0x2A00 DUP2 PUSH2 0x29E6 JUMP JUMPDEST DUP3 MSTORE POP POP JUMP JUMPDEST PUSH0 PUSH1 0x20 DUP3 ADD SWAP1 POP PUSH2 0x2A19 PUSH0 DUP4 ADD DUP5 PUSH2 0x29F7 JUMP JUMPDEST SWAP3 SWAP2 POP POP JUMP JUMPDEST PUSH0 PUSH1 0x20 DUP3 DUP5 SUB SLT ISZERO PUSH2 0x2A34 JUMPI PUSH2 0x2A33 PUSH2 0x253E JUMP JUMPDEST JUMPDEST PUSH0 DUP3 ADD CALLDATALOAD PUSH8 0xFFFFFFFFFFFFFFFF DUP2 GT ISZERO PUSH2 0x2A51 JUMPI PUSH2 0x2A50 PUSH2 0x2542 JUMP JUMPDEST JUMPDEST PUSH2 0x2A5D DUP5 DUP3 DUP6 ADD PUSH2 0x281E JUMP JUMPDEST SWAP2 POP POP SWAP3 SWAP2 POP POP JUMP JUMPDEST PUSH2 0x2A6F DUP2 PUSH2 0x25D6 JUMP JUMPDEST DUP3 MSTORE POP POP JUMP JUMPDEST PUSH0 PUSH1 0x20 DUP3 ADD SWAP1 POP PUSH2 0x2A88 PUSH0 DUP4 ADD DUP5 PUSH2 0x2A66 JUMP JUMPDEST SWAP3 SWAP2 POP POP JUMP JUMPDEST PUSH0 PUSH1 0x20 DUP3 DUP5 SUB SLT ISZERO PUSH2 0x2AA3 JUMPI PUSH2 0x2AA2 PUSH2 0x253E JUMP JUMPDEST JUMPDEST PUSH0 PUSH2 0x2AB0 DUP5 DUP3 DUP6 ADD PUSH2 0x25FD JUMP JUMPDEST SWAP2 POP POP SWAP3 SWAP2 POP POP JUMP JUMPDEST PUSH0 DUP2 MLOAD SWAP1 POP SWAP2 SWAP1 POP JUMP JUMPDEST PUSH0 DUP3 DUP3 MSTORE PUSH1 0x20 DUP3 ADD SWAP1 POP SWAP3 SWAP2 POP POP JUMP JUMPDEST DUP3 DUP2 DUP4 MCOPY PUSH0 DUP4 DUP4 ADD MSTORE POP POP POP JUMP JUMPDEST PUSH0 PUSH2 0x2AEB DUP3 PUSH2 0x2AB9 JUMP JUMPDEST PUSH2 0x2AF5 DUP2 DUP6 PUSH2 0x2AC3 JUMP JUMPDEST SWAP4 POP PUSH2 0x2B05 DUP2 DUP6 PUSH1 0x20 DUP7 ADD PUSH2 0x2AD3 JUMP JUMPDEST PUSH2 0x2B0E DUP2 PUSH2 0x26E4 JUMP JUMPDEST DUP5 ADD SWAP2 POP POP SWAP3 SWAP2 POP POP JUMP JUMPDEST PUSH0 PUSH1 0xC0 DUP3 ADD SWAP1 POP PUSH2 0x2B2C PUSH0 DUP4 ADD DUP10 PUSH2 0x2A66 JUMP JUMPDEST DUP2 DUP2 SUB PUSH1 0x20 DUP4 ADD MSTORE PUSH2 0x2B3E DUP2 DUP9 PUSH2 0x2AE1 JUMP JUMPDEST SWAP1 POP PUSH2 0x2B4D PUSH1 0x40 DUP4 ADD DUP8 PUSH2 0x265A JUMP JUMPDEST PUSH2 0x2B5A PUSH1 0x60 DUP4 ADD DUP7 PUSH2 0x2983 JUMP JUMPDEST PUSH2 0x2B67 PUSH1 0x80 DUP4 ADD DUP6 PUSH2 0x2983 JUMP JUMPDEST PUSH2 0x2B74 PUSH1 0xA0 DUP4 ADD DUP5 PUSH2 0x2983 JUMP JUMPDEST SWAP8 SWAP7 POP POP POP POP POP POP POP JUMP JUMPDEST PUSH0 DUP2 SWAP1 POP SWAP2 SWAP1 POP JUMP JUMPDEST PUSH2 0x2B91 DUP2 PUSH2 0x2B7F JUMP JUMPDEST DUP3 MSTORE POP POP JUMP JUMPDEST PUSH0 PUSH1 0xE0 DUP3 ADD SWAP1 POP PUSH2 0x2BAA PUSH0 DUP4 ADD DUP11 PUSH2 0x2983 JUMP JUMPDEST DUP2 DUP2 SUB PUSH1 0x20 DUP4 ADD MSTORE PUSH2 0x2BBC DUP2 DUP10 PUSH2 0x2AE1 JUMP JUMPDEST SWAP1 POP DUP2 DUP2 SUB PUSH1 0x40 DUP4 ADD MSTORE PUSH2 0x2BD0 DUP2 DUP9 PUSH2 0x2AE1 JUMP JUMPDEST SWAP1 POP DUP2 DUP2 SUB PUSH1 0x60 DUP4 ADD MSTORE PUSH2 0x2BE4 DUP2 DUP8 PUSH2 0x2AE1 JUMP JUMPDEST SWAP1 POP DUP2 DUP2 SUB PUSH1 0x80 DUP4 ADD MSTORE PUSH2 0x2BF8 DUP2 DUP7 PUSH2 0x2AE1 JUMP JUMPDEST SWAP1 POP DUP2 DUP2 SUB PUSH1 0xA0 DUP4 ADD MSTORE PUSH2 0x2C0C DUP2 DUP6 PUSH2 0x2AE1 JUMP JUMPDEST SWAP1 POP PUSH2 0x2C1B PUSH1 0xC0 DUP4 ADD DUP5 PUSH2 0x2B88 JUMP JUMPDEST SWAP9 SWAP8 POP POP POP POP POP POP POP POP JUMP JUMPDEST PUSH0 DUP1 PUSH0 DUP1 PUSH0 DUP1 PUSH0 PUSH1 0xE0 DUP9 DUP11 SUB SLT ISZERO PUSH2 0x2C42 JUMPI PUSH2 0x2C41 PUSH2 0x253E JUMP JUMPDEST JUMPDEST PUSH0 PUSH2 0x2C4F DUP11 DUP3 DUP12 ADD PUSH2 0x2565 JUMP JUMPDEST SWAP8 POP POP PUSH1 0x20 DUP9 ADD CALLDATALOAD PUSH8 0xFFFFFFFFFFFFFFFF DUP2 GT ISZERO PUSH2 0x2C70 JUMPI PUSH2 0x2C6F PUSH2 0x2542 JUMP JUMPDEST JUMPDEST PUSH2 0x2C7C DUP11 DUP3 DUP12 ADD PUSH2 0x281E JUMP JUMPDEST SWAP7 POP POP PUSH1 0x40 DUP9 ADD CALLDATALOAD PUSH8 0xFFFFFFFFFFFFFFFF DUP2 GT ISZERO PUSH2 0x2C9D JUMPI PUSH2 0x2C9C PUSH2 0x2542 JUMP JUMPDEST JUMPDEST PUSH2 0x2CA9 DUP11 DUP3 DUP12 ADD PUSH2 0x281E JUMP JUMPDEST SWAP6 POP POP PUSH1 0x60 DUP9 ADD CALLDATALOAD PUSH8 0xFFFFFFFFFFFFFFFF DUP2 GT ISZERO PUSH2 0x2CCA JUMPI PUSH2 0x2CC9 PUSH2 0x2542 JUMP JUMPDEST JUMPDEST PUSH2 0x2CD6 DUP11 DUP3 DUP12 ADD PUSH2 0x281E JUMP JUMPDEST SWAP5 POP POP PUSH1 0x80 DUP9 ADD CALLDATALOAD PUSH8 0xFFFFFFFFFFFFFFFF DUP2 GT ISZERO PUSH2 0x2CF7 JUMPI PUSH2 0x2CF6 PUSH2 0x2542 JUMP JUMPDEST JUMPDEST PUSH2 0x2D03 DUP11 DUP3 DUP12 ADD PUSH2 0x281E JUMP JUMPDEST SWAP4 POP POP PUSH1 0xA0 DUP9 ADD CALLDATALOAD PUSH8 0xFFFFFFFFFFFFFFFF DUP2 GT ISZERO PUSH2 0x2D24 JUMPI PUSH2 0x2D23 PUSH2 0x2542 JUMP JUMPDEST JUMPDEST PUSH2 0x2D30 DUP11 DUP3 DUP12 ADD PUSH2 0x281E JUMP JUMPDEST SWAP3 POP POP PUSH1 0xC0 DUP9 ADD CALLDATALOAD PUSH8 0xFFFFFFFFFFFFFFFF DUP2 GT ISZERO PUSH2 0x2D51 JUMPI PUSH2 0x2D50 PUSH2 0x2542 JUMP JUMPDEST JUMPDEST PUSH2 0x2D5D DUP11 DUP3 DUP12 ADD PUSH2 0x281E JUMP JUMPDEST SWAP2 POP POP SWAP3 SWAP6 SWAP9 SWAP2 SWAP5 SWAP8 POP SWAP3 SWAP6 POP JUMP JUMPDEST PUSH32 0x4F6E6C7920636F757273652063726561746F722063616E207769746864726177 PUSH0 DUP3 ADD MSTORE PUSH32 0x20746F6B656E7300000000000000000000000000000000000000000000000000 PUSH1 0x20 DUP3 ADD MSTORE POP JUMP JUMPDEST PUSH0 PUSH2 0x2DC6 PUSH1 0x27 DUP4 PUSH2 0x2AC3 JUMP JUMPDEST SWAP2 POP PUSH2 0x2DD1 DUP3 PUSH2 0x2D6C JUMP JUMPDEST PUSH1 0x40 DUP3 ADD SWAP1 POP SWAP2 SWAP1 POP JUMP JUMPDEST PUSH0 PUSH1 0x20 DUP3 ADD SWAP1 POP DUP2 DUP2 SUB PUSH0 DUP4 ADD MSTORE PUSH2 0x2DF3 DUP2 PUSH2 0x2DBA JUMP JUMPDEST SWAP1 POP SWAP2 SWAP1 POP JUMP JUMPDEST PUSH32 0x496E73756666696369656E7420726577617264656420746F6B656E7320746F20 PUSH0 DUP3 ADD MSTORE PUSH32 0x7769746864726177000000000000000000000000000000000000000000000000 PUSH1 0x20 DUP3 ADD MSTORE POP JUMP JUMPDEST PUSH0 PUSH2 0x2E54 PUSH1 0x28 DUP4 PUSH2 0x2AC3 JUMP JUMPDEST SWAP2 POP PUSH2 0x2E5F DUP3 PUSH2 0x2DFA JUMP JUMPDEST PUSH1 0x40 DUP3 ADD SWAP1 POP SWAP2 SWAP1 POP JUMP JUMPDEST PUSH0 PUSH1 0x20 DUP3 ADD SWAP1 POP DUP2 DUP2 SUB PUSH0 DUP4 ADD MSTORE PUSH2 0x2E81 DUP2 PUSH2 0x2E48 JUMP JUMPDEST SWAP1 POP SWAP2 SWAP1 POP JUMP JUMPDEST PUSH32 0x4E487B7100000000000000000000000000000000000000000000000000000000 PUSH0 MSTORE PUSH1 0x11 PUSH1 0x4 MSTORE PUSH1 0x24 PUSH0 REVERT JUMPDEST PUSH0 PUSH2 0x2EBF DUP3 PUSH2 0x2546 JUMP JUMPDEST SWAP2 POP PUSH2 0x2ECA DUP4 PUSH2 0x2546 JUMP JUMPDEST SWAP3 POP DUP3 DUP3 SUB SWAP1 POP DUP2 DUP2 GT ISZERO PUSH2 0x2EE2 JUMPI PUSH2 0x2EE1 PUSH2 0x2E88 JUMP JUMPDEST JUMPDEST SWAP3 SWAP2 POP POP JUMP JUMPDEST PUSH0 DUP2 SWAP1 POP SWAP3 SWAP2 POP POP JUMP JUMPDEST POP JUMP JUMPDEST PUSH0 PUSH2 0x2F00 PUSH0 DUP4 PUSH2 0x2EE8 JUMP JUMPDEST SWAP2 POP PUSH2 0x2F0B DUP3 PUSH2 0x2EF2 JUMP JUMPDEST PUSH0 DUP3 ADD SWAP1 POP SWAP2 SWAP1 POP JUMP JUMPDEST PUSH0 PUSH2 0x2F1F DUP3 PUSH2 0x2EF5 JUMP JUMPDEST SWAP2 POP DUP2 SWAP1 POP SWAP2 SWAP1 POP JUMP JUMPDEST PUSH32 0x4661696C656420746F2073656E64204D414E4400000000000000000000000000 PUSH0 DUP3 ADD MSTORE POP JUMP JUMPDEST PUSH0 PUSH2 0x2F5D PUSH1 0x13 DUP4 PUSH2 0x2AC3 JUMP JUMPDEST SWAP2 POP PUSH2 0x2F68 DUP3 PUSH2 0x2F29 JUMP JUMPDEST PUSH1 0x20 DUP3 ADD SWAP1 POP SWAP2 SWAP1 POP JUMP JUMPDEST PUSH0 PUSH1 0x20 DUP3 ADD SWAP1 POP DUP2 DUP2 SUB PUSH0 DUP4 ADD MSTORE PUSH2 0x2F8A DUP2 PUSH2 0x2F51 JUMP JUMPDEST SWAP1 POP SWAP2 SWAP1 POP JUMP JUMPDEST PUSH32 0x55736572206E6F7420656E726F6C6C656420696E207468697320636F75727365 PUSH0 DUP3 ADD MSTORE POP JUMP JUMPDEST PUSH0 PUSH2 0x2FC5 PUSH1 0x20 DUP4 PUSH2 0x2AC3 JUMP JUMPDEST SWAP2 POP PUSH2 0x2FD0 DUP3 PUSH2 0x2F91 JUMP JUMPDEST PUSH1 0x20 DUP3 ADD SWAP1 POP SWAP2 SWAP1 POP JUMP JUMPDEST PUSH0 PUSH1 0x20 DUP3 ADD SWAP1 POP DUP2 DUP2 SUB PUSH0 DUP4 ADD MSTORE PUSH2 0x2FF2 DUP2 PUSH2 0x2FB9 JUMP JUMPDEST SWAP1 POP SWAP2 SWAP1 POP JUMP JUMPDEST PUSH32 0x4D6178696D756D20617474656D70747320726561636865640000000000000000 PUSH0 DUP3 ADD MSTORE POP JUMP JUMPDEST PUSH0 PUSH2 0x302D PUSH1 0x18 DUP4 PUSH2 0x2AC3 JUMP JUMPDEST SWAP2 POP PUSH2 0x3038 DUP3 PUSH2 0x2FF9 JUMP JUMPDEST PUSH1 0x20 DUP3 ADD SWAP1 POP SWAP2 SWAP1 POP JUMP JUMPDEST PUSH0 PUSH1 0x20 DUP3 ADD SWAP1 POP DUP2 DUP2 SUB PUSH0 DUP4 ADD MSTORE PUSH2 0x305A DUP2 PUSH2 0x3021 JUMP JUMPDEST SWAP1 POP SWAP2 SWAP1 POP JUMP JUMPDEST PUSH32 0x557365722068617320616C726561647920706173736564207468697320636F75 PUSH0 DUP3 ADD MSTORE PUSH32 0x7273650000000000000000000000000000000000000000000000000000000000 PUSH1 0x20 DUP3 ADD MSTORE POP JUMP JUMPDEST PUSH0 PUSH2 0x30BB PUSH1 0x23 DUP4 PUSH2 0x2AC3 JUMP JUMPDEST SWAP2 POP PUSH2 0x30C6 DUP3 PUSH2 0x3061 JUMP JUMPDEST PUSH1 0x40 DUP3 ADD SWAP1 POP SWAP2 SWAP1 POP JUMP JUMPDEST PUSH0 PUSH1 0x20 DUP3 ADD SWAP1 POP DUP2 DUP2 SUB PUSH0 DUP4 ADD MSTORE PUSH2 0x30E8 DUP2 PUSH2 0x30AF JUMP JUMPDEST SWAP1 POP SWAP2 SWAP1 POP JUMP JUMPDEST PUSH0 PUSH2 0x30F9 DUP3 PUSH2 0x2669 JUMP JUMPDEST SWAP2 POP PUSH1 0xFF DUP3 SUB PUSH2 0x310C JUMPI PUSH2 0x310B PUSH2 0x2E88 JUMP JUMPDEST JUMPDEST PUSH1 0x1 DUP3 ADD SWAP1 POP SWAP2 SWAP1 POP JUMP JUMPDEST PUSH32 0x4E487B7100000000000000000000000000000000000000000000000000000000 PUSH0 MSTORE PUSH1 0x22 PUSH1 0x4 MSTORE PUSH1 0x24 PUSH0 REVERT JUMPDEST PUSH0 PUSH1 0x2 DUP3 DIV SWAP1 POP PUSH1 0x1 DUP3 AND DUP1 PUSH2 0x315B JUMPI PUSH1 0x7F DUP3 AND SWAP2 POP JUMPDEST PUSH1 0x20 DUP3 LT DUP2 SUB PUSH2 0x316E JUMPI PUSH2 0x316D PUSH2 0x3117 JUMP JUMPDEST JUMPDEST POP SWAP2 SWAP1 POP JUMP JUMPDEST PUSH32 0x416E7377657220636F756E74206D69736D617463680000000000000000000000 PUSH0 DUP3 ADD MSTORE POP JUMP JUMPDEST PUSH0 PUSH2 0x31A8 PUSH1 0x15 DUP4 PUSH2 0x2AC3 JUMP JUMPDEST SWAP2 POP PUSH2 0x31B3 DUP3 PUSH2 0x3174 JUMP JUMPDEST PUSH1 0x20 DUP3 ADD SWAP1 POP SWAP2 SWAP1 POP JUMP JUMPDEST PUSH0 PUSH1 0x20 DUP3 ADD SWAP1 POP DUP2 DUP2 SUB PUSH0 DUP4 ADD MSTORE PUSH2 0x31D5 DUP2 PUSH2 0x319C JUMP JUMPDEST SWAP1 POP SWAP2 SWAP1 POP JUMP JUMPDEST PUSH32 0x4E487B7100000000000000000000000000000000000000000000000000000000 PUSH0 MSTORE PUSH1 0x32 PUSH1 0x4 MSTORE PUSH1 0x24 PUSH0 REVERT JUMPDEST PUSH0 DUP2 SWAP1 POP SWAP3 SWAP2 POP POP JUMP JUMPDEST PUSH0 PUSH2 0x321D DUP3 PUSH2 0x2AB9 JUMP JUMPDEST PUSH2 0x3227 DUP2 DUP6 PUSH2 0x3209 JUMP JUMPDEST SWAP4 POP PUSH2 0x3237 DUP2 DUP6 PUSH1 0x20 DUP7 ADD PUSH2 0x2AD3 JUMP JUMPDEST DUP1 DUP5 ADD SWAP2 POP POP SWAP3 SWAP2 POP POP JUMP JUMPDEST PUSH0 PUSH2 0x324E DUP3 DUP5 PUSH2 0x3213 JUMP JUMPDEST SWAP2 POP DUP2 SWAP1 POP SWAP3 SWAP2 POP POP JUMP JUMPDEST PUSH0 PUSH2 0x3263 DUP3 PUSH2 0x2546 JUMP JUMPDEST SWAP2 POP PUSH32 0xFFFFFFFFFFFFFFFFFFFFFFFFFFFFFFFFFFFFFFFFFFFFFFFFFFFFFFFFFFFFFFFF DUP3 SUB PUSH2 0x3295 JUMPI PUSH2 0x3294 PUSH2 0x2E88 JUMP JUMPDEST JUMPDEST PUSH1 0x1 DUP3 ADD SWAP1 POP SWAP2 SWAP1 POP JUMP JUMPDEST PUSH0 DUP2 MLOAD SWAP1 POP PUSH2 0x32AE DUP2 PUSH2 0x254F JUMP JUMPDEST SWAP3 SWAP2 POP POP JUMP JUMPDEST PUSH0 PUSH1 0x20 DUP3 DUP5 SUB SLT ISZERO PUSH2 0x32C9 JUMPI PUSH2 0x32C8 PUSH2 0x253E JUMP JUMPDEST JUMPDEST PUSH0 PUSH2 0x32D6 DUP5 DUP3 DUP6 ADD PUSH2 0x32A0 JUMP JUMPDEST SWAP2 POP POP SWAP3 SWAP2 POP POP JUMP JUMPDEST PUSH32 0x496E73756666696369656E742072657075746174696F6E20746F20656E726F6C PUSH0 DUP3 ADD MSTORE PUSH32 0x6C00000000000000000000000000000000000000000000000000000000000000 PUSH1 0x20 DUP3 ADD MSTORE POP JUMP JUMPDEST PUSH0 PUSH2 0x3339 PUSH1 0x21 DUP4 PUSH2 0x2AC3 JUMP JUMPDEST SWAP2 POP PUSH2 0x3344 DUP3 PUSH2 0x32DF JUMP JUMPDEST PUSH1 0x40 DUP3 ADD SWAP1 POP SWAP2 SWAP1 POP JUMP JUMPDEST PUSH0 PUSH1 0x20 DUP3 ADD SWAP1 POP DUP2 DUP2 SUB PUSH0 DUP4 ADD MSTORE PUSH2 0x3366 DUP2 PUSH2 0x332D JUMP JUMPDEST SWAP1 POP SWAP2 SWAP1 POP JUMP JUMPDEST PUSH32 0x436F75727365206E6F7420617070726F76656400000000000000000000000000 PUSH0 DUP3 ADD MSTORE POP JUMP JUMPDEST PUSH0 PUSH2 0x33A1 PUSH1 0x13 DUP4 PUSH2 0x2AC3 JUMP JUMPDEST SWAP2 POP PUSH2 0x33AC DUP3 PUSH2 0x336D JUMP JUMPDEST PUSH1 0x20 DUP3 ADD SWAP1 POP SWAP2 SWAP1 POP JUMP JUMPDEST PUSH0 PUSH1 0x20 DUP3 ADD SWAP1 POP DUP2 DUP2 SUB PUSH0 DUP4 ADD MSTORE PUSH2 0x33CE DUP2 PUSH2 0x3395 JUMP JUMPDEST SWAP1 POP SWAP2 SWAP1 POP JUMP JUMPDEST PUSH32 0x416C726561647920656E726F6C6C656400000000000000000000000000000000 PUSH0 DUP3 ADD MSTORE POP JUMP JUMPDEST PUSH0 PUSH2 0x3409 PUSH1 0x10 DUP4 PUSH2 0x2AC3 JUMP JUMPDEST SWAP2 POP PUSH2 0x3414 DUP3 PUSH2 0x33D5 JUMP JUMPDEST PUSH1 0x20 DUP3 ADD SWAP1 POP SWAP2 SWAP1 POP JUMP JUMPDEST PUSH0 PUSH1 0x20 DUP3 ADD SWAP1 POP DUP2 DUP2 SUB PUSH0 DUP4 ADD MSTORE PUSH2 0x3436 DUP2 PUSH2 0x33FD JUMP JUMPDEST SWAP1 POP SWAP2 SWAP1 POP JUMP JUMPDEST PUSH32 0x436F7572736520616C726561647920617070726F766564000000000000000000 PUSH0 DUP3 ADD MSTORE POP JUMP JUMPDEST PUSH0 PUSH2 0x3471 PUSH1 0x17 DUP4 PUSH2 0x2AC3 JUMP JUMPDEST SWAP2 POP PUSH2 0x347C DUP3 PUSH2 0x343D JUMP JUMPDEST PUSH1 0x20 DUP3 ADD SWAP1 POP SWAP2 SWAP1 POP JUMP JUMPDEST PUSH0 PUSH1 0x20 DUP3 ADD SWAP1 POP DUP2 DUP2 SUB PUSH0 DUP4 ADD MSTORE PUSH2 0x349E DUP2 PUSH2 0x3465 JUMP JUMPDEST SWAP1 POP SWAP2 SWAP1 POP JUMP JUMPDEST PUSH32 0x496E73756666696369656E742072657075746174696F6E20746F206372656174 PUSH0 DUP3 ADD MSTORE PUSH32 0x6520636F75727365000000000000000000000000000000000000000000000000 PUSH1 0x20 DUP3 ADD MSTORE POP JUMP JUMPDEST PUSH0 PUSH2 0x34FF PUSH1 0x28 DUP4 PUSH2 0x2AC3 JUMP JUMPDEST SWAP2 POP PUSH2 0x350A DUP3 PUSH2 0x34A5 JUMP JUMPDEST PUSH1 0x40 DUP3 ADD SWAP1 POP SWAP2 SWAP1 POP JUMP JUMPDEST PUSH0 PUSH1 0x20 DUP3 ADD SWAP1 POP DUP2 DUP2 SUB PUSH0 DUP4 ADD MSTORE PUSH2 0x352C DUP2 PUSH2 0x34F3 JUMP JUMPDEST SWAP1 POP SWAP2 SWAP1 POP JUMP JUMPDEST PUSH0 DUP2 SWAP1 POP DUP2 PUSH0 MSTORE PUSH1 0x20 PUSH0 KECCAK256 SWAP1 POP SWAP2 SWAP1 POP JUMP JUMPDEST PUSH0 PUSH1 0x20 PUSH1 0x1F DUP4 ADD DIV SWAP1 POP SWAP2 SWAP1 POP JUMP JUMPDEST PUSH0 DUP3 DUP3 SHL SWAP1 POP SWAP3 SWAP2 POP POP JUMP JUMPDEST PUSH0 PUSH1 0x8 DUP4 MUL PUSH2 0x358F PUSH32 0xFFFFFFFFFFFFFFFFFFFFFFFFFFFFFFFFFFFFFFFFFFFFFFFFFFFFFFFFFFFFFFFF DUP3 PUSH2 0x3554 JUMP JUMPDEST PUSH2 0x3599 DUP7 DUP4 PUSH2 0x3554 JUMP JUMPDEST SWAP6 POP DUP1 NOT DUP5 AND SWAP4 POP DUP1 DUP7 AND DUP5 OR SWAP3 POP POP POP SWAP4 SWAP3 POP POP POP JUMP JUMPDEST PUSH0 PUSH2 0x35CB PUSH2 0x35C6 PUSH2 0x35C1 DUP5 PUSH2 0x2546 JUMP JUMPDEST PUSH2 0x29AB JUMP JUMPDEST PUSH2 0x2546 JUMP JUMPDEST SWAP1 POP SWAP2 SWAP1 POP JUMP JUMPDEST PUSH0 DUP2 SWAP1 POP SWAP2 SWAP1 POP JUMP JUMPDEST PUSH2 0x35E4 DUP4 PUSH2 0x35B1 JUMP JUMPDEST PUSH2 0x35F8 PUSH2 0x35F0 DUP3 PUSH2 0x35D2 JUMP JUMPDEST DUP5 DUP5 SLOAD PUSH2 0x3560 JUMP JUMPDEST DUP3 SSTORE POP POP POP POP JUMP JUMPDEST PUSH0 SWAP1 JUMP JUMPDEST PUSH2 0x360C PUSH2 0x3600 JUMP JUMPDEST PUSH2 0x3617 DUP2 DUP5 DUP5 PUSH2 0x35DB JUMP JUMPDEST POP POP POP JUMP JUMPDEST JUMPDEST DUP2 DUP2 LT ISZERO PUSH2 0x363A JUMPI PUSH2 0x362F PUSH0 DUP3 PUSH2 0x3604 JUMP JUMPDEST PUSH1 0x1 DUP2 ADD SWAP1 POP PUSH2 0x361D JUMP JUMPDEST POP POP JUMP JUMPDEST PUSH1 0x1F DUP3 GT ISZERO PUSH2 0x367F JUMPI PUSH2 0x3650 DUP2 PUSH2 0x3533 JUMP JUMPDEST PUSH2 0x3659 DUP5 PUSH2 0x3545 JUMP JUMPDEST DUP2 ADD PUSH1 0x20 DUP6 LT ISZERO PUSH2 0x3668 JUMPI DUP2 SWAP1 POP JUMPDEST PUSH2 0x367C PUSH2 0x3674 DUP6 PUSH2 0x3545 JUMP JUMPDEST DUP4 ADD DUP3 PUSH2 0x361C JUMP JUMPDEST POP POP JUMPDEST POP POP POP JUMP JUMPDEST PUSH0 DUP3 DUP3 SHR SWAP1 POP SWAP3 SWAP2 POP POP JUMP JUMPDEST PUSH0 PUSH2 0x369F PUSH0 NOT DUP5 PUSH1 0x8 MUL PUSH2 0x3684 JUMP JUMPDEST NOT DUP1 DUP4 AND SWAP2 POP POP SWAP3 SWAP2 POP POP JUMP JUMPDEST PUSH0 PUSH2 0x36B7 DUP4 DUP4 PUSH2 0x3690 JUMP JUMPDEST SWAP2 POP DUP3 PUSH1 0x2 MUL DUP3 OR SWAP1 POP SWAP3 SWAP2 POP POP JUMP JUMPDEST PUSH2 0x36D0 DUP3 PUSH2 0x2AB9 JUMP JUMPDEST PUSH8 0xFFFFFFFFFFFFFFFF DUP2 GT ISZERO PUSH2 0x36E9 JUMPI PUSH2 0x36E8 PUSH2 0x26F4 JUMP JUMPDEST JUMPDEST PUSH2 0x36F3 DUP3 SLOAD PUSH2 0x3144 JUMP JUMPDEST PUSH2 0x36FE DUP3 DUP3 DUP6 PUSH2 0x363E JUMP JUMPDEST PUSH0 PUSH1 0x20 SWAP1 POP PUSH1 0x1F DUP4 GT PUSH1 0x1 DUP2 EQ PUSH2 0x372F JUMPI PUSH0 DUP5 ISZERO PUSH2 0x371D JUMPI DUP3 DUP8 ADD MLOAD SWAP1 POP JUMPDEST PUSH2 0x3727 DUP6 DUP3 PUSH2 0x36AC JUMP JUMPDEST DUP7 SSTORE POP PUSH2 0x378E JUMP JUMPDEST PUSH1 0x1F NOT DUP5 AND PUSH2 0x373D DUP7 PUSH2 0x3533 JUMP JUMPDEST PUSH0 JUMPDEST DUP3 DUP2 LT ISZERO PUSH2 0x3764 JUMPI DUP5 DUP10 ADD MLOAD DUP3 SSTORE PUSH1 0x1 DUP3 ADD SWAP2 POP PUSH1 0x20 DUP6 ADD SWAP5 POP PUSH1 0x20 DUP2 ADD SWAP1 POP PUSH2 0x373F JUMP JUMPDEST DUP7 DUP4 LT ISZERO PUSH2 0x3781 JUMPI DUP5 DUP10 ADD MLOAD PUSH2 0x377D PUSH1 0x1F DUP10 AND DUP3 PUSH2 0x3690 JUMP JUMPDEST DUP4 SSTORE POP JUMPDEST PUSH1 0x1 PUSH1 0x2 DUP9 MUL ADD DUP9 SSTORE POP POP POP JUMPDEST POP POP POP POP POP POP JUMP JUMPDEST PUSH32 0x436F75727365206E6F7420706173736564000000000000000000000000000000 PUSH0 DUP3 ADD MSTORE POP JUMP JUMPDEST PUSH0 PUSH2 0x37CA PUSH1 0x11 DUP4 PUSH2 0x2AC3 JUMP JUMPDEST SWAP2 POP PUSH2 0x37D5 DUP3 PUSH2 0x3796 JUMP JUMPDEST PUSH1 0x20 DUP3 ADD SWAP1 POP SWAP2 SWAP1 POP JUMP JUMPDEST PUSH0 PUSH1 0x20 DUP3 ADD SWAP1 POP DUP2 DUP2 SUB PUSH0 DUP4 ADD MSTORE PUSH2 0x37F7 DUP2 PUSH2 0x37BE JUMP JUMPDEST SWAP1 POP SWAP2 SWAP1 POP JUMP JUMPDEST PUSH32 0x52657761726420616C726561647920636C61696D656400000000000000000000 PUSH0 DUP3 ADD MSTORE POP JUMP JUMPDEST PUSH0 PUSH2 0x3832 PUSH1 0x16 DUP4 PUSH2 0x2AC3 JUMP JUMPDEST SWAP2 POP PUSH2 0x383D DUP3 PUSH2 0x37FE JUMP JUMPDEST PUSH1 0x20 DUP3 ADD SWAP1 POP SWAP2 SWAP1 POP JUMP JUMPDEST PUSH0 PUSH1 0x20 DUP3 ADD SWAP1 POP DUP2 DUP2 SUB PUSH0 DUP4 ADD MSTORE PUSH2 0x385F DUP2 PUSH2 0x3826 JUMP JUMPDEST SWAP1 POP SWAP2 SWAP1 POP JUMP JUMPDEST PUSH0 PUSH2 0x3870 DUP3 PUSH2 0x2546 JUMP JUMPDEST SWAP2 POP PUSH2 0x387B DUP4 PUSH2 0x2546 JUMP JUMPDEST SWAP3 POP DUP3 DUP3 ADD SWAP1 POP DUP1 DUP3 GT ISZERO PUSH2 0x3893 JUMPI PUSH2 0x3892 PUSH2 0x2E88 JUMP JUMPDEST JUMPDEST SWAP3 SWAP2 POP POP JUMP JUMPDEST PUSH32 0x4F6E6C7920636F757273652063726561746F722063616E20636C61696D207265 PUSH0 DUP3 ADD MSTORE PUSH32 0x7761726400000000000000000000000000000000000000000000000000000000 PUSH1 0x20 DUP3 ADD MSTORE POP JUMP JUMPDEST PUSH0 PUSH2 0x38F3 PUSH1 0x24 DUP4 PUSH2 0x2AC3 JUMP JUMPDEST SWAP2 POP PUSH2 0x38FE DUP3 PUSH2 0x3899 JUMP JUMPDEST PUSH1 0x40 DUP3 ADD SWAP1 POP SWAP2 SWAP1 POP JUMP JUMPDEST PUSH0 PUSH1 0x20 DUP3 ADD SWAP1 POP DUP2 DUP2 SUB PUSH0 DUP4 ADD MSTORE PUSH2 0x3920 DUP2 PUSH2 0x38E7 JUMP JUMPDEST SWAP1 POP SWAP2 SWAP1 POP JUMP JUMPDEST PUSH0 PUSH2 0x3931 DUP3 PUSH2 0x2546 JUMP JUMPDEST SWAP2 POP PUSH2 0x393C DUP4 PUSH2 0x2546 JUMP JUMPDEST SWAP3 POP DUP3 DUP3 MUL PUSH2 0x394A DUP2 PUSH2 0x2546 JUMP JUMPDEST SWAP2 POP DUP3 DUP3 DIV DUP5 EQ DUP4 ISZERO OR PUSH2 0x3961 JUMPI PUSH2 0x3960 PUSH2 0x2E88 JUMP JUMPDEST JUMPDEST POP SWAP3 SWAP2 POP POP JUMP JUMPDEST PUSH32 0x4F6E6C7920636F757273652063726561746F722063616E206372656174652061 PUSH0 DUP3 ADD MSTORE PUSH32 0x207175697A000000000000000000000000000000000000000000000000000000 PUSH1 0x20 DUP3 ADD MSTORE POP JUMP JUMPDEST PUSH0 PUSH2 0x39C2 PUSH1 0x25 DUP4 PUSH2 0x2AC3 JUMP JUMPDEST SWAP2 POP PUSH2 0x39CD DUP3 PUSH2 0x3968 JUMP JUMPDEST PUSH1 0x40 DUP3 ADD SWAP1 POP SWAP2 SWAP1 POP JUMP JUMPDEST PUSH0 PUSH1 0x20 DUP3 ADD SWAP1 POP DUP2 DUP2 SUB PUSH0 DUP4 ADD MSTORE PUSH2 0x39EF DUP2 PUSH2 0x39B6 JUMP JUMPDEST SWAP1 POP SWAP2 SWAP1 POP JUMP JUMPDEST PUSH32 0x436F75727365206D75737420626520617070726F76656420746F206372656174 PUSH0 DUP3 ADD MSTORE PUSH32 0x652061207175697A000000000000000000000000000000000000000000000000 PUSH1 0x20 DUP3 ADD MSTORE POP JUMP JUMPDEST PUSH0 PUSH2 0x3A50 PUSH1 0x28 DUP4 PUSH2 0x2AC3 JUMP JUMPDEST SWAP2 POP PUSH2 0x3A5B DUP3 PUSH2 0x39F6 JUMP JUMPDEST PUSH1 0x40 DUP3 ADD SWAP1 POP SWAP2 SWAP1 POP JUMP JUMPDEST PUSH0 PUSH1 0x20 DUP3 ADD SWAP1 POP DUP2 DUP2 SUB PUSH0 DUP4 ADD MSTORE PUSH2 0x3A7D DUP2 PUSH2 0x3A44 JUMP JUMPDEST SWAP1 POP SWAP2 SWAP1 POP JUMP JUMPDEST PUSH32 0x4100000000000000000000000000000000000000000000000000000000000000 PUSH0 DUP3 ADD MSTORE POP JUMP JUMPDEST PUSH0 PUSH2 0x3AB8 PUSH1 0x1 DUP4 PUSH2 0x3209 JUMP JUMPDEST SWAP2 POP PUSH2 0x3AC3 DUP3 PUSH2 0x3A84 JUMP JUMPDEST PUSH1 0x1 DUP3 ADD SWAP1 POP SWAP2 SWAP1 POP JUMP JUMPDEST PUSH0 PUSH2 0x3AD8 DUP3 PUSH2 0x3AAC JUMP JUMPDEST SWAP2 POP DUP2 SWAP1 POP SWAP2 SWAP1 POP JUMP JUMPDEST PUSH32 0x4200000000000000000000000000000000000000000000000000000000000000 PUSH0 DUP3 ADD MSTORE POP JUMP JUMPDEST PUSH0 PUSH2 0x3B16 PUSH1 0x1 DUP4 PUSH2 0x3209 JUMP JUMPDEST SWAP2 POP PUSH2 0x3B21 DUP3 PUSH2 0x3AE2 JUMP JUMPDEST PUSH1 0x1 DUP3 ADD SWAP1 POP SWAP2 SWAP1 POP JUMP JUMPDEST PUSH0 PUSH2 0x3B36 DUP3 PUSH2 0x3B0A JUMP JUMPDEST SWAP2 POP DUP2 SWAP1 POP SWAP2 SWAP1 POP JUMP JUMPDEST PUSH32 0x4300000000000000000000000000000000000000000000000000000000000000 PUSH0 DUP3 ADD MSTORE POP JUMP JUMPDEST PUSH0 PUSH2 0x3B74 PUSH1 0x1 DUP4 PUSH2 0x3209 JUMP JUMPDEST SWAP2 POP PUSH2 0x3B7F DUP3 PUSH2 0x3B40 JUMP JUMPDEST PUSH1 0x1 DUP3 ADD SWAP1 POP SWAP2 SWAP1 POP JUMP JUMPDEST PUSH0 PUSH2 0x3B94 DUP3 PUSH2 0x3B68 JUMP JUMPDEST SWAP2 POP DUP2 SWAP1 POP SWAP2 SWAP1 POP JUMP JUMPDEST PUSH32 0x4400000000000000000000000000000000000000000000000000000000000000 PUSH0 DUP3 ADD MSTORE POP JUMP JUMPDEST PUSH0 PUSH2 0x3BD2 PUSH1 0x1 DUP4 PUSH2 0x3209 JUMP JUMPDEST SWAP2 POP PUSH2 0x3BDD DUP3 PUSH2 0x3B9E JUMP JUMPDEST PUSH1 0x1 DUP3 ADD SWAP1 POP SWAP2 SWAP1 POP JUMP JUMPDEST PUSH0 PUSH2 0x3BF2 DUP3 PUSH2 0x3BC6 JUMP JUMPDEST SWAP2 POP DUP2 SWAP1 POP SWAP2 SWAP1 POP JUMP JUMPDEST PUSH32 0x496E76616C696420636F727265637420616E7377657200000000000000000000 PUSH0 DUP3 ADD MSTORE POP JUMP JUMPDEST PUSH0 PUSH2 0x3C30 PUSH1 0x16 DUP4 PUSH2 0x2AC3 JUMP JUMPDEST SWAP2 POP PUSH2 0x3C3B DUP3 PUSH2 0x3BFC JUMP JUMPDEST PUSH1 0x20 DUP3 ADD SWAP1 POP SWAP2 SWAP1 POP JUMP JUMPDEST PUSH0 PUSH1 0x20 DUP3 ADD SWAP1 POP DUP2 DUP2 SUB PUSH0 DUP4 ADD MSTORE PUSH2 0x3C5D DUP2 PUSH2 0x3C24 JUMP JUMPDEST SWAP1 POP SWAP2 SWAP1 POP JUMP JUMPDEST PUSH32 0x4661696C656420746F20776974686472617720746F6B656E7300000000000000 PUSH0 DUP3 ADD MSTORE POP JUMP JUMPDEST PUSH0 PUSH2 0x3C98 PUSH1 0x19 DUP4 PUSH2 0x2AC3 JUMP JUMPDEST SWAP2 POP PUSH2 0x3CA3 DUP3 PUSH2 0x3C64 JUMP JUMPDEST PUSH1 0x20 DUP3 ADD SWAP1 POP SWAP2 SWAP1 POP JUMP JUMPDEST PUSH0 PUSH1 0x20 DUP3 ADD SWAP1 POP DUP2 DUP2 SUB PUSH0 DUP4 ADD MSTORE PUSH2 0x3CC5 DUP2 PUSH2 0x3C8C JUMP JUMPDEST SWAP1 POP SWAP2 SWAP1 POP JUMP JUMPDEST PUSH32 0x5061757361626C653A2070617573656400000000000000000000000000000000 PUSH0 DUP3 ADD MSTORE POP JUMP JUMPDEST PUSH0 PUSH2 0x3D00 PUSH1 0x10 DUP4 PUSH2 0x2AC3 JUMP JUMPDEST SWAP2 POP PUSH2 0x3D0B DUP3 PUSH2 0x3CCC JUMP JUMPDEST PUSH1 0x20 DUP3 ADD SWAP1 POP SWAP2 SWAP1 POP JUMP JUMPDEST PUSH0 PUSH1 0x20 DUP3 ADD SWAP1 POP DUP2 DUP2 SUB PUSH0 DUP4 ADD MSTORE PUSH2 0x3D2D DUP2 PUSH2 0x3CF4 JUMP JUMPDEST SWAP1 POP SWAP2 SWAP1 POP JUMP JUMPDEST PUSH32 0x5061757361626C653A206E6F7420706175736564000000000000000000000000 PUSH0 DUP3 ADD MSTORE POP JUMP JUMPDEST PUSH0 PUSH2 0x3D68 PUSH1 0x14 DUP4 PUSH2 0x2AC3 JUMP JUMPDEST SWAP2 POP PUSH2 0x3D73 DUP3 PUSH2 0x3D34 JUMP JUMPDEST PUSH1 0x20 DUP3 ADD SWAP1 POP SWAP2 SWAP1 POP JUMP JUMPDEST PUSH0 PUSH1 0x20 DUP3 ADD SWAP1 POP DUP2 DUP2 SUB PUSH0 DUP4 ADD MSTORE PUSH2 0x3D95 DUP2 PUSH2 0x3D5C JUMP JUMPDEST SWAP1 POP SWAP2 SWAP1 POP JUMP INVALID LOG2 PUSH5 0x6970667358 0x22 SLT KECCAK256 0x23 PUSH0 0xEE 0xAA RETURN 0x4E SWAP13 0xC2 0xAB 0x2D DUP7 GASLIMIT SWAP1 0xAD BALANCE CALLDATACOPY 0xED 0xE2 PUSH5 0xFCDB28C518 MOD BLOCKHASH 0x28 0x4C 0xE8 PUSH0 0xEE SLT PUSH5 0x736F6C6343 STOP ADDMOD BYTE STOP CALLER "
				},
				"gasEstimates": {
					"creation": {
						"codeDepositCost": "3165200",
						"executionCost": "infinite",
						"totalCost": "infinite"
					},
					"external": {
						"CREATOR_REWARD_AMOUNT()": "414",
						"ENROLL_THRESHOLD()": "458",
						"POST_THRESHOLD()": "436",
						"STUDENT_REWARD_AMOUNT()": "435",
						"approveCourse(uint256)": "infinite",
						"attemptQuiz(uint256,string[])": "infinite",
						"claimCreatorReward(uint256)": "infinite",
						"claimStudentReward(uint256)": "infinite",
						"courseCount()": "2448",
						"courseQuizzes(uint256,uint256)": "infinite",
						"courses(uint256)": "infinite",
						"createCourse(string)": "infinite",
						"createQuiz(uint256,string,string,string,string,string,string)": "infinite",
						"enrollInCourse(uint256)": "infinite",
						"enrollments(address,uint256)": "infinite",
						"owner()": "2538",
						"pause()": "infinite",
						"paused()": "2614",
						"renounceOwnership()": "infinite",
						"reputationContract()": "infinite",
						"transferOwnership(address)": "infinite",
						"unpause()": "infinite",
						"updateReputationContract(address)": "infinite",
						"withdrawCreatorTokens(uint256,uint256)": "infinite",
						"withdrawExcessTokens(uint256)": "infinite"
					}
				},
				"methodIdentifiers": {
					"CREATOR_REWARD_AMOUNT()": "cf90b3be",
					"ENROLL_THRESHOLD()": "ae24f005",
					"POST_THRESHOLD()": "a4e1f033",
					"STUDENT_REWARD_AMOUNT()": "fbf1aded",
					"approveCourse(uint256)": "75284998",
					"attemptQuiz(uint256,string[])": "5cb45cb5",
					"claimCreatorReward(uint256)": "ba2f0362",
					"claimStudentReward(uint256)": "996b5d8e",
					"courseCount()": "66055159",
					"courseQuizzes(uint256,uint256)": "b0aaefd6",
					"courses(uint256)": "96f979d2",
					"createCourse(string)": "8a38ab2c",
					"createQuiz(uint256,string,string,string,string,string,string)": "d69c575b",
					"enrollInCourse(uint256)": "5e52da27",
					"enrollments(address,uint256)": "07f910f8",
					"owner()": "8da5cb5b",
					"pause()": "8456cb59",
					"paused()": "5c975abb",
					"renounceOwnership()": "715018a6",
					"reputationContract()": "87bc1425",
					"transferOwnership(address)": "f2fde38b",
					"unpause()": "3f4ba83a",
					"updateReputationContract(address)": "905baa61",
					"withdrawCreatorTokens(uint256,uint256)": "03b1965b",
					"withdrawExcessTokens(uint256)": "e111f6b4"
				}
			},
			"storageLayout": {
				"storage": [
					{
						"astId": 8,
						"contract": "moonx/moonx.sol:DecentralLearning",
						"label": "_owner",
						"offset": 0,
						"slot": "0",
						"type": "t_address"
					},
					{
						"astId": 165,
						"contract": "moonx/moonx.sol:DecentralLearning",
						"label": "_paused",
						"offset": 20,
						"slot": "0",
						"type": "t_bool"
					},
					{
						"astId": 304,
						"contract": "moonx/moonx.sol:DecentralLearning",
						"label": "reputationContract",
						"offset": 0,
						"slot": "1",
						"type": "t_contract(IReputationContract)297"
					},
					{
						"astId": 358,
						"contract": "moonx/moonx.sol:DecentralLearning",
						"label": "courses",
						"offset": 0,
						"slot": "2",
						"type": "t_mapping(t_uint256,t_struct(Course)329_storage)"
					},
					{
						"astId": 365,
						"contract": "moonx/moonx.sol:DecentralLearning",
						"label": "enrollments",
						"offset": 0,
						"slot": "3",
						"type": "t_mapping(t_address,t_mapping(t_uint256,t_struct(Enrollment)353_storage))"
					},
					{
						"astId": 371,
						"contract": "moonx/moonx.sol:DecentralLearning",
						"label": "courseQuizzes",
						"offset": 0,
						"slot": "4",
						"type": "t_mapping(t_uint256,t_array(t_struct(Quiz)344_storage)dyn_storage)"
					},
					{
						"astId": 373,
						"contract": "moonx/moonx.sol:DecentralLearning",
						"label": "courseCount",
						"offset": 0,
						"slot": "5",
						"type": "t_uint256"
					}
				],
				"types": {
					"t_address": {
						"encoding": "inplace",
						"label": "address",
						"numberOfBytes": "20"
					},
					"t_array(t_struct(Quiz)344_storage)dyn_storage": {
						"base": "t_struct(Quiz)344_storage",
						"encoding": "dynamic_array",
						"label": "struct DecentralLearning.Quiz[]",
						"numberOfBytes": "32"
					},
					"t_bool": {
						"encoding": "inplace",
						"label": "bool",
						"numberOfBytes": "1"
					},
					"t_bytes32": {
						"encoding": "inplace",
						"label": "bytes32",
						"numberOfBytes": "32"
					},
					"t_contract(IReputationContract)297": {
						"encoding": "inplace",
						"label": "contract IReputationContract",
						"numberOfBytes": "20"
					},
					"t_mapping(t_address,t_mapping(t_uint256,t_struct(Enrollment)353_storage))": {
						"encoding": "mapping",
						"key": "t_address",
						"label": "mapping(address => mapping(uint256 => struct DecentralLearning.Enrollment))",
						"numberOfBytes": "32",
						"value": "t_mapping(t_uint256,t_struct(Enrollment)353_storage)"
					},
					"t_mapping(t_uint256,t_array(t_struct(Quiz)344_storage)dyn_storage)": {
						"encoding": "mapping",
						"key": "t_uint256",
						"label": "mapping(uint256 => struct DecentralLearning.Quiz[])",
						"numberOfBytes": "32",
						"value": "t_array(t_struct(Quiz)344_storage)dyn_storage"
					},
					"t_mapping(t_uint256,t_struct(Course)329_storage)": {
						"encoding": "mapping",
						"key": "t_uint256",
						"label": "mapping(uint256 => struct DecentralLearning.Course)",
						"numberOfBytes": "32",
						"value": "t_struct(Course)329_storage"
					},
					"t_mapping(t_uint256,t_struct(Enrollment)353_storage)": {
						"encoding": "mapping",
						"key": "t_uint256",
						"label": "mapping(uint256 => struct DecentralLearning.Enrollment)",
						"numberOfBytes": "32",
						"value": "t_struct(Enrollment)353_storage"
					},
					"t_string_storage": {
						"encoding": "bytes",
						"label": "string",
						"numberOfBytes": "32"
					},
					"t_struct(Course)329_storage": {
						"encoding": "inplace",
						"label": "struct DecentralLearning.Course",
						"members": [
							{
								"astId": 318,
								"contract": "moonx/moonx.sol:DecentralLearning",
								"label": "creator",
								"offset": 0,
								"slot": "0",
								"type": "t_address"
							},
							{
								"astId": 320,
								"contract": "moonx/moonx.sol:DecentralLearning",
								"label": "metadataURI",
								"offset": 0,
								"slot": "1",
								"type": "t_string_storage"
							},
							{
								"astId": 322,
								"contract": "moonx/moonx.sol:DecentralLearning",
								"label": "approved",
								"offset": 0,
								"slot": "2",
								"type": "t_bool"
							},
							{
								"astId": 324,
								"contract": "moonx/moonx.sol:DecentralLearning",
								"label": "passedStudents",
								"offset": 0,
								"slot": "3",
								"type": "t_uint256"
							},
							{
								"astId": 326,
								"contract": "moonx/moonx.sol:DecentralLearning",
								"label": "totalRewarded",
								"offset": 0,
								"slot": "4",
								"type": "t_uint256"
							},
							{
								"astId": 328,
								"contract": "moonx/moonx.sol:DecentralLearning",
								"label": "totalEnrolled",
								"offset": 0,
								"slot": "5",
								"type": "t_uint256"
							}
						],
						"numberOfBytes": "192"
					},
					"t_struct(Enrollment)353_storage": {
						"encoding": "inplace",
						"label": "struct DecentralLearning.Enrollment",
						"members": [
							{
								"astId": 346,
								"contract": "moonx/moonx.sol:DecentralLearning",
								"label": "isEnrolled",
								"offset": 0,
								"slot": "0",
								"type": "t_bool"
							},
							{
								"astId": 348,
								"contract": "moonx/moonx.sol:DecentralLearning",
								"label": "attemptCount",
								"offset": 1,
								"slot": "0",
								"type": "t_uint8"
							},
							{
								"astId": 350,
								"contract": "moonx/moonx.sol:DecentralLearning",
								"label": "hasPassed",
								"offset": 2,
								"slot": "0",
								"type": "t_bool"
							},
							{
								"astId": 352,
								"contract": "moonx/moonx.sol:DecentralLearning",
								"label": "hasClaimedReward",
								"offset": 3,
								"slot": "0",
								"type": "t_bool"
							}
						],
						"numberOfBytes": "32"
					},
					"t_struct(Quiz)344_storage": {
						"encoding": "inplace",
						"label": "struct DecentralLearning.Quiz",
						"members": [
							{
								"astId": 331,
								"contract": "moonx/moonx.sol:DecentralLearning",
								"label": "courseId",
								"offset": 0,
								"slot": "0",
								"type": "t_uint256"
							},
							{
								"astId": 333,
								"contract": "moonx/moonx.sol:DecentralLearning",
								"label": "question",
								"offset": 0,
								"slot": "1",
								"type": "t_string_storage"
							},
							{
								"astId": 335,
								"contract": "moonx/moonx.sol:DecentralLearning",
								"label": "optionA",
								"offset": 0,
								"slot": "2",
								"type": "t_string_storage"
							},
							{
								"astId": 337,
								"contract": "moonx/moonx.sol:DecentralLearning",
								"label": "optionB",
								"offset": 0,
								"slot": "3",
								"type": "t_string_storage"
							},
							{
								"astId": 339,
								"contract": "moonx/moonx.sol:DecentralLearning",
								"label": "optionC",
								"offset": 0,
								"slot": "4",
								"type": "t_string_storage"
							},
							{
								"astId": 341,
								"contract": "moonx/moonx.sol:DecentralLearning",
								"label": "optionD",
								"offset": 0,
								"slot": "5",
								"type": "t_string_storage"
							},
							{
								"astId": 343,
								"contract": "moonx/moonx.sol:DecentralLearning",
								"label": "correctAnswerHash",
								"offset": 0,
								"slot": "6",
								"type": "t_bytes32"
							}
						],
						"numberOfBytes": "224"
					},
					"t_uint256": {
						"encoding": "inplace",
						"label": "uint256",
						"numberOfBytes": "32"
					},
					"t_uint8": {
						"encoding": "inplace",
						"label": "uint8",
						"numberOfBytes": "1"
					}
				}
			},
			"userdoc": {
				"kind": "user",
				"methods": {},
				"version": 1
			}
		}
	}
}