{
	"moonx/moonx.sol": {
		"DecentralLearning": {
			"abi": [
				{
					"inputs": [
						{
							"internalType": "address",
							"name": "_mandToken",
							"type": "address"
						}
					],
					"stateMutability": "nonpayable",
					"type": "constructor"
				},
				{
					"inputs": [
						{
							"internalType": "address",
							"name": "owner",
							"type": "address"
						}
					],
					"name": "OwnableInvalidOwner",
					"type": "error"
				},
				{
					"inputs": [
						{
							"internalType": "address",
							"name": "account",
							"type": "address"
						}
					],
					"name": "OwnableUnauthorizedAccount",
					"type": "error"
				},
				{
					"anonymous": false,
					"inputs": [
						{
							"indexed": true,
							"internalType": "uint256",
							"name": "courseId",
							"type": "uint256"
						}
					],
					"name": "CourseApproved",
					"type": "event"
				},
				{
					"anonymous": false,
					"inputs": [
						{
							"indexed": true,
							"internalType": "uint256",
							"name": "courseId",
							"type": "uint256"
						},
						{
							"indexed": true,
							"internalType": "address",
							"name": "creator",
							"type": "address"
						}
					],
					"name": "CourseCreated",
					"type": "event"
				},
				{
					"anonymous": false,
					"inputs": [
						{
							"indexed": true,
							"internalType": "uint256",
							"name": "courseId",
							"type": "uint256"
						},
						{
							"indexed": true,
							"internalType": "address",
							"name": "creator",
							"type": "address"
						},
						{
							"indexed": false,
							"internalType": "uint256",
							"name": "amount",
							"type": "uint256"
						}
					],
					"name": "CreatorRewardClaimed",
					"type": "event"
				},
				{
					"anonymous": false,
					"inputs": [
						{
							"indexed": true,
							"internalType": "address",
							"name": "previousOwner",
							"type": "address"
						},
						{
							"indexed": true,
							"internalType": "address",
							"name": "newOwner",
							"type": "address"
						}
					],
					"name": "OwnershipTransferred",
					"type": "event"
				},
				{
					"anonymous": false,
					"inputs": [
						{
							"indexed": true,
							"internalType": "uint256",
							"name": "courseId",
							"type": "uint256"
						},
						{
							"indexed": true,
							"internalType": "address",
							"name": "user",
							"type": "address"
						},
						{
							"indexed": false,
							"internalType": "bool",
							"name": "passed",
							"type": "bool"
						}
					],
					"name": "QuizAttempted",
					"type": "event"
				},
				{
					"anonymous": false,
					"inputs": [
						{
							"indexed": true,
							"internalType": "uint256",
							"name": "courseId",
							"type": "uint256"
						},
						{
							"indexed": true,
							"internalType": "address",
							"name": "user",
							"type": "address"
						},
						{
							"indexed": false,
							"internalType": "uint256",
							"name": "amount",
							"type": "uint256"
						}
					],
					"name": "RewardClaimed",
					"type": "event"
				},
				{
					"anonymous": false,
					"inputs": [
						{
							"indexed": true,
							"internalType": "uint256",
							"name": "courseId",
							"type": "uint256"
						},
						{
							"indexed": true,
							"internalType": "address",
							"name": "user",
							"type": "address"
						}
					],
					"name": "UserEnrolled",
					"type": "event"
				},
				{
					"inputs": [],
					"name": "CREATOR_REWARD_AMOUNT",
					"outputs": [
						{
							"internalType": "uint256",
							"name": "",
							"type": "uint256"
						}
					],
					"stateMutability": "view",
					"type": "function"
				},
				{
					"inputs": [],
					"name": "ENROLL_THRESHOLD",
					"outputs": [
						{
							"internalType": "uint256",
							"name": "",
							"type": "uint256"
						}
					],
					"stateMutability": "view",
					"type": "function"
				},
				{
					"inputs": [],
					"name": "POST_THRESHOLD",
					"outputs": [
						{
							"internalType": "uint256",
							"name": "",
							"type": "uint256"
						}
					],
					"stateMutability": "view",
					"type": "function"
				},
				{
					"inputs": [],
					"name": "STUDENT_REWARD_AMOUNT",
					"outputs": [
						{
							"internalType": "uint256",
							"name": "",
							"type": "uint256"
						}
					],
					"stateMutability": "view",
					"type": "function"
				},
				{
					"inputs": [
						{
							"internalType": "uint256",
							"name": "_courseId",
							"type": "uint256"
						}
					],
					"name": "approveCourse",
					"outputs": [],
					"stateMutability": "nonpayable",
					"type": "function"
				},
				{
					"inputs": [
						{
							"internalType": "uint256",
							"name": "_courseId",
							"type": "uint256"
						},
						{
							"internalType": "address",
							"name": "_user",
							"type": "address"
						},
						{
							"internalType": "bool",
							"name": "_passed",
							"type": "bool"
						}
					],
					"name": "attemptQuiz",
					"outputs": [],
					"stateMutability": "nonpayable",
					"type": "function"
				},
				{
					"inputs": [
						{
							"internalType": "uint256",
							"name": "_courseId",
							"type": "uint256"
						}
					],
					"name": "claimCreatorReward",
					"outputs": [],
					"stateMutability": "nonpayable",
					"type": "function"
				},
				{
					"inputs": [
						{
							"internalType": "uint256",
							"name": "_courseId",
							"type": "uint256"
						}
					],
					"name": "claimStudentReward",
					"outputs": [],
					"stateMutability": "nonpayable",
					"type": "function"
				},
				{
					"inputs": [],
					"name": "courseCount",
					"outputs": [
						{
							"internalType": "uint256",
							"name": "",
							"type": "uint256"
						}
					],
					"stateMutability": "view",
					"type": "function"
				},
				{
					"inputs": [
						{
							"internalType": "uint256",
							"name": "",
							"type": "uint256"
						}
					],
					"name": "courses",
					"outputs": [
						{
							"internalType": "address",
							"name": "creator",
							"type": "address"
						},
						{
							"internalType": "string",
							"name": "metadataURI",
							"type": "string"
						},
						{
							"internalType": "bool",
							"name": "approved",
							"type": "bool"
						},
						{
							"internalType": "uint256",
							"name": "passedStudents",
							"type": "uint256"
						}
					],
					"stateMutability": "view",
					"type": "function"
				},
				{
					"inputs": [
						{
							"internalType": "string",
							"name": "_metadataURI",
							"type": "string"
						}
					],
					"name": "createCourse",
					"outputs": [],
					"stateMutability": "nonpayable",
					"type": "function"
				},
				{
					"inputs": [
						{
							"internalType": "uint256",
							"name": "_courseId",
							"type": "uint256"
						}
					],
					"name": "enrollInCourse",
					"outputs": [],
					"stateMutability": "nonpayable",
					"type": "function"
				},
				{
					"inputs": [
						{
							"internalType": "address",
							"name": "",
							"type": "address"
						},
						{
							"internalType": "uint256",
							"name": "",
							"type": "uint256"
						}
					],
					"name": "enrollments",
					"outputs": [
						{
							"internalType": "bool",
							"name": "isEnrolled",
							"type": "bool"
						},
						{
							"internalType": "uint8",
							"name": "attemptCount",
							"type": "uint8"
						},
						{
							"internalType": "bool",
							"name": "hasPassed",
							"type": "bool"
						},
						{
							"internalType": "bool",
							"name": "hasClaimedReward",
							"type": "bool"
						}
					],
					"stateMutability": "view",
					"type": "function"
				},
				{
					"inputs": [],
					"name": "mandToken",
					"outputs": [
						{
							"internalType": "contract IERC20",
							"name": "",
							"type": "address"
						}
					],
					"stateMutability": "view",
					"type": "function"
				},
				{
					"inputs": [],
					"name": "owner",
					"outputs": [
						{
							"internalType": "address",
							"name": "",
							"type": "address"
						}
					],
					"stateMutability": "view",
					"type": "function"
				},
				{
					"inputs": [],
					"name": "renounceOwnership",
					"outputs": [],
					"stateMutability": "nonpayable",
					"type": "function"
				},
				{
					"inputs": [],
					"name": "reputationContract",
					"outputs": [
						{
							"internalType": "contract IReputationContract",
							"name": "",
							"type": "address"
						}
					],
					"stateMutability": "view",
					"type": "function"
				},
				{
					"inputs": [
						{
							"internalType": "address",
							"name": "newOwner",
							"type": "address"
						}
					],
					"name": "transferOwnership",
					"outputs": [],
					"stateMutability": "nonpayable",
					"type": "function"
				},
				{
					"inputs": [
						{
							"internalType": "address",
							"name": "_newMandToken",
							"type": "address"
						}
					],
					"name": "updateMandToken",
					"outputs": [],
					"stateMutability": "nonpayable",
					"type": "function"
				},
				{
					"inputs": [
						{
							"internalType": "uint256",
							"name": "_amount",
							"type": "uint256"
						}
					],
					"name": "withdrawExcessTokens",
					"outputs": [],
					"stateMutability": "nonpayable",
					"type": "function"
				}
			],
			"devdoc": {
				"errors": {
					"OwnableInvalidOwner(address)": [
						{
							"details": "The owner is not a valid owner account. (eg. `address(0)`)"
						}
					],
					"OwnableUnauthorizedAccount(address)": [
						{
							"details": "The caller account is not authorized to perform an operation."
						}
					]
				},
				"kind": "dev",
				"methods": {
					"owner()": {
						"details": "Returns the address of the current owner."
					},
					"renounceOwnership()": {
						"details": "Leaves the contract without owner. It will not be possible to call `onlyOwner` functions. Can only be called by the current owner. NOTE: Renouncing ownership will leave the contract without an owner, thereby disabling any functionality that is only available to the owner."
					},
					"transferOwnership(address)": {
						"details": "Transfers ownership of the contract to a new account (`newOwner`). Can only be called by the current owner."
					}
				},
				"version": 1
			},
			"evm": {
				"assembly": "    /* \"moonx/moonx.sol\":271:5066  contract DecentralLearning is Ownable {... */\n  mstore(0x40, 0xa0)\n    /* \"moonx/moonx.sol\":1587:1780  constructor(address _mandToken) Ownable(msg.sender) {... */\n  callvalue\n  dup1\n  iszero\n  tag_1\n  jumpi\n  0x00\n  dup1\n  revert\ntag_1:\n  pop\n  mload(0x40)\n  sub(codesize, bytecodeSize)\n  dup1\n  bytecodeSize\n  dup4\n  codecopy\n  dup2\n  dup2\n  add\n  0x40\n  mstore\n  dup2\n  add\n  swap1\n  tag_2\n  swap2\n  swap1\n  tag_3\n  jump\t// in\ntag_2:\n    /* \"moonx/moonx.sol\":1627:1637  msg.sender */\n  caller\n    /* \"@openzeppelin/contracts/access/Ownable.sol\":1297:1298  0 */\n  0x00\n    /* \"@openzeppelin/contracts/access/Ownable.sol\":1273:1299  initialOwner == address(0) */\n  0xffffffffffffffffffffffffffffffffffffffff\n  and\n    /* \"@openzeppelin/contracts/access/Ownable.sol\":1273:1285  initialOwner */\n  dup2\n    /* \"@openzeppelin/contracts/access/Ownable.sol\":1273:1299  initialOwner == address(0) */\n  0xffffffffffffffffffffffffffffffffffffffff\n  and\n  sub\n    /* \"@openzeppelin/contracts/access/Ownable.sol\":1269:1364  if (initialOwner == address(0)) {... */\n  tag_7\n  jumpi\n    /* \"@openzeppelin/contracts/access/Ownable.sol\":1350:1351  0 */\n  0x00\n    /* \"@openzeppelin/contracts/access/Ownable.sol\":1322:1353  OwnableInvalidOwner(address(0)) */\n  mload(0x40)\n  0x1e4fbdf700000000000000000000000000000000000000000000000000000000\n  dup2\n  mstore\n  0x04\n  add\n  tag_8\n  swap2\n  swap1\n  tag_9\n  jump\t// in\ntag_8:\n  mload(0x40)\n  dup1\n  swap2\n  sub\n  swap1\n  revert\n    /* \"@openzeppelin/contracts/access/Ownable.sol\":1269:1364  if (initialOwner == address(0)) {... */\ntag_7:\n    /* \"@openzeppelin/contracts/access/Ownable.sol\":1373:1405  _transferOwnership(initialOwner) */\n  tag_10\n    /* \"@openzeppelin/contracts/access/Ownable.sol\":1392:1404  initialOwner */\n  dup2\n    /* \"@openzeppelin/contracts/access/Ownable.sol\":1373:1391  _transferOwnership */\n  shl(0x20, tag_11)\n    /* \"@openzeppelin/contracts/access/Ownable.sol\":1373:1405  _transferOwnership(initialOwner) */\n  0x20\n  shr\n  jump\t// in\ntag_10:\n    /* \"@openzeppelin/contracts/access/Ownable.sol\":1225:1412  constructor(address initialOwner) {... */\n  pop\n    /* \"moonx/moonx.sol\":1690:1732  0x7Fa2Addd4d59366AA98F66861d370C174DC00B46 */\n  0x7fa2addd4d59366aa98f66861d370c174dc00b46\n    /* \"moonx/moonx.sol\":1649:1733  reputationContract = IReputationContract(0x7Fa2Addd4d59366AA98F66861d370C174DC00B46) */\n  0xffffffffffffffffffffffffffffffffffffffff\n  and\n  0x80\n  dup2\n  0xffffffffffffffffffffffffffffffffffffffff\n  and\n  dup2\n  mstore\n  pop\n  pop\n    /* \"moonx/moonx.sol\":1762:1772  _mandToken */\n  dup1\n    /* \"moonx/moonx.sol\":1743:1752  mandToken */\n  0x01\n  0x00\n    /* \"moonx/moonx.sol\":1743:1773  mandToken = IERC20(_mandToken) */\n  0x0100\n  exp\n  dup2\n  sload\n  dup2\n  0xffffffffffffffffffffffffffffffffffffffff\n  mul\n  not\n  and\n  swap1\n  dup4\n  0xffffffffffffffffffffffffffffffffffffffff\n  and\n  mul\n  or\n  swap1\n  sstore\n  pop\n    /* \"moonx/moonx.sol\":1587:1780  constructor(address _mandToken) Ownable(msg.sender) {... */\n  pop\n    /* \"moonx/moonx.sol\":271:5066  contract DecentralLearning is Ownable {... */\n  jump(tag_13)\n    /* \"@openzeppelin/contracts/access/Ownable.sol\":2912:3099  function _transferOwnership(address newOwner) internal virtual {... */\ntag_11:\n    /* \"@openzeppelin/contracts/access/Ownable.sol\":2985:3001  address oldOwner */\n  0x00\n    /* \"@openzeppelin/contracts/access/Ownable.sol\":3004:3010  _owner */\n  dup1\n  0x00\n  swap1\n  sload\n  swap1\n  0x0100\n  exp\n  swap1\n  div\n  0xffffffffffffffffffffffffffffffffffffffff\n  and\n    /* \"@openzeppelin/contracts/access/Ownable.sol\":2985:3010  address oldOwner = _owner */\n  swap1\n  pop\n    /* \"@openzeppelin/contracts/access/Ownable.sol\":3029:3037  newOwner */\n  dup2\n    /* \"@openzeppelin/contracts/access/Ownable.sol\":3020:3026  _owner */\n  0x00\n  dup1\n    /* \"@openzeppelin/contracts/access/Ownable.sol\":3020:3037  _owner = newOwner */\n  0x0100\n  exp\n  dup2\n  sload\n  dup2\n  0xffffffffffffffffffffffffffffffffffffffff\n  mul\n  not\n  and\n  swap1\n  dup4\n  0xffffffffffffffffffffffffffffffffffffffff\n  and\n  mul\n  or\n  swap1\n  sstore\n  pop\n    /* \"@openzeppelin/contracts/access/Ownable.sol\":3083:3091  newOwner */\n  dup2\n    /* \"@openzeppelin/contracts/access/Ownable.sol\":3052:3092  OwnershipTransferred(oldOwner, newOwner) */\n  0xffffffffffffffffffffffffffffffffffffffff\n  and\n    /* \"@openzeppelin/contracts/access/Ownable.sol\":3073:3081  oldOwner */\n  dup2\n    /* \"@openzeppelin/contracts/access/Ownable.sol\":3052:3092  OwnershipTransferred(oldOwner, newOwner) */\n  0xffffffffffffffffffffffffffffffffffffffff\n  and\n  0x8be0079c531659141344cd1fd0a4f28419497f9722a3daafe3b4186f6b6457e0\n  mload(0x40)\n  mload(0x40)\n  dup1\n  swap2\n  sub\n  swap1\n  log3\n    /* \"@openzeppelin/contracts/access/Ownable.sol\":2975:3099  {... */\n  pop\n    /* \"@openzeppelin/contracts/access/Ownable.sol\":2912:3099  function _transferOwnership(address newOwner) internal virtual {... */\n  pop\n  jump\t// out\n    /* \"#utility.yul\":88:205   */\ntag_16:\n    /* \"#utility.yul\":197:198   */\n  0x00\n    /* \"#utility.yul\":194:195   */\n  dup1\n    /* \"#utility.yul\":187:199   */\n  revert\n    /* \"#utility.yul\":334:460   */\ntag_18:\n    /* \"#utility.yul\":371:378   */\n  0x00\n    /* \"#utility.yul\":411:453   */\n  0xffffffffffffffffffffffffffffffffffffffff\n    /* \"#utility.yul\":404:409   */\n  dup3\n    /* \"#utility.yul\":400:454   */\n  and\n    /* \"#utility.yul\":389:454   */\n  swap1\n  pop\n    /* \"#utility.yul\":334:460   */\n  swap2\n  swap1\n  pop\n  jump\t// out\n    /* \"#utility.yul\":466:562   */\ntag_19:\n    /* \"#utility.yul\":503:510   */\n  0x00\n    /* \"#utility.yul\":532:556   */\n  tag_29\n    /* \"#utility.yul\":550:555   */\n  dup3\n    /* \"#utility.yul\":532:556   */\n  tag_18\n  jump\t// in\ntag_29:\n    /* \"#utility.yul\":521:556   */\n  swap1\n  pop\n    /* \"#utility.yul\":466:562   */\n  swap2\n  swap1\n  pop\n  jump\t// out\n    /* \"#utility.yul\":568:690   */\ntag_20:\n    /* \"#utility.yul\":641:665   */\n  tag_31\n    /* \"#utility.yul\":659:664   */\n  dup2\n    /* \"#utility.yul\":641:665   */\n  tag_19\n  jump\t// in\ntag_31:\n    /* \"#utility.yul\":634:639   */\n  dup2\n    /* \"#utility.yul\":631:666   */\n  eq\n    /* \"#utility.yul\":621:684   */\n  tag_32\n  jumpi\n    /* \"#utility.yul\":680:681   */\n  0x00\n    /* \"#utility.yul\":677:678   */\n  dup1\n    /* \"#utility.yul\":670:682   */\n  revert\n    /* \"#utility.yul\":621:684   */\ntag_32:\n    /* \"#utility.yul\":568:690   */\n  pop\n  jump\t// out\n    /* \"#utility.yul\":696:839   */\ntag_21:\n    /* \"#utility.yul\":753:758   */\n  0x00\n    /* \"#utility.yul\":784:790   */\n  dup2\n    /* \"#utility.yul\":778:791   */\n  mload\n    /* \"#utility.yul\":769:791   */\n  swap1\n  pop\n    /* \"#utility.yul\":800:833   */\n  tag_34\n    /* \"#utility.yul\":827:832   */\n  dup2\n    /* \"#utility.yul\":800:833   */\n  tag_20\n  jump\t// in\ntag_34:\n    /* \"#utility.yul\":696:839   */\n  swap3\n  swap2\n  pop\n  pop\n  jump\t// out\n    /* \"#utility.yul\":845:1196   */\ntag_3:\n    /* \"#utility.yul\":915:921   */\n  0x00\n    /* \"#utility.yul\":964:966   */\n  0x20\n    /* \"#utility.yul\":952:961   */\n  dup3\n    /* \"#utility.yul\":943:950   */\n  dup5\n    /* \"#utility.yul\":939:962   */\n  sub\n    /* \"#utility.yul\":935:967   */\n  slt\n    /* \"#utility.yul\":932:1051   */\n  iszero\n  tag_36\n  jumpi\n    /* \"#utility.yul\":970:1049   */\n  tag_37\n  tag_16\n  jump\t// in\ntag_37:\n    /* \"#utility.yul\":932:1051   */\ntag_36:\n    /* \"#utility.yul\":1090:1091   */\n  0x00\n    /* \"#utility.yul\":1115:1179   */\n  tag_38\n    /* \"#utility.yul\":1171:1178   */\n  dup5\n    /* \"#utility.yul\":1162:1168   */\n  dup3\n    /* \"#utility.yul\":1151:1160   */\n  dup6\n    /* \"#utility.yul\":1147:1169   */\n  add\n    /* \"#utility.yul\":1115:1179   */\n  tag_21\n  jump\t// in\ntag_38:\n    /* \"#utility.yul\":1105:1179   */\n  swap2\n  pop\n    /* \"#utility.yul\":1061:1189   */\n  pop\n    /* \"#utility.yul\":845:1196   */\n  swap3\n  swap2\n  pop\n  pop\n  jump\t// out\n    /* \"#utility.yul\":1202:1320   */\ntag_22:\n    /* \"#utility.yul\":1289:1313   */\n  tag_40\n    /* \"#utility.yul\":1307:1312   */\n  dup2\n    /* \"#utility.yul\":1289:1313   */\n  tag_19\n  jump\t// in\ntag_40:\n    /* \"#utility.yul\":1284:1287   */\n  dup3\n    /* \"#utility.yul\":1277:1314   */\n  mstore\n    /* \"#utility.yul\":1202:1320   */\n  pop\n  pop\n  jump\t// out\n    /* \"#utility.yul\":1326:1548   */\ntag_9:\n    /* \"#utility.yul\":1419:1423   */\n  0x00\n    /* \"#utility.yul\":1457:1459   */\n  0x20\n    /* \"#utility.yul\":1446:1455   */\n  dup3\n    /* \"#utility.yul\":1442:1460   */\n  add\n    /* \"#utility.yul\":1434:1460   */\n  swap1\n  pop\n    /* \"#utility.yul\":1470:1541   */\n  tag_42\n    /* \"#utility.yul\":1538:1539   */\n  0x00\n    /* \"#utility.yul\":1527:1536   */\n  dup4\n    /* \"#utility.yul\":1523:1540   */\n  add\n    /* \"#utility.yul\":1514:1520   */\n  dup5\n    /* \"#utility.yul\":1470:1541   */\n  tag_22\n  jump\t// in\ntag_42:\n    /* \"#utility.yul\":1326:1548   */\n  swap3\n  swap2\n  pop\n  pop\n  jump\t// out\n    /* \"moonx/moonx.sol\":271:5066  contract DecentralLearning is Ownable {... */\ntag_13:\n  mload(0x80)\n  codecopy(0x00, dataOffset(sub_0), dataSize(sub_0))\n  0x00\n  assignImmutable(\"0x9c82694a9cf6c7b68ec93c5541ae0b2631d5f0fa3eec98f4ce497d015951b3ba\")\n  return(0x00, dataSize(sub_0))\nstop\n\nsub_0: assembly {\n        /* \"moonx/moonx.sol\":271:5066  contract DecentralLearning is Ownable {... */\n      mstore(0x40, 0x80)\n      callvalue\n      dup1\n      iszero\n      tag_1\n      jumpi\n      0x00\n      dup1\n      revert\n    tag_1:\n      pop\n      jumpi(tag_2, lt(calldatasize, 0x04))\n      shr(0xe0, calldataload(0x00))\n      dup1\n      0x8da5cb5b\n      gt\n      tag_23\n      jumpi\n      dup1\n      0xba2f0362\n      gt\n      tag_24\n      jumpi\n      dup1\n      0xba2f0362\n      eq\n      tag_18\n      jumpi\n      dup1\n      0xcf90b3be\n      eq\n      tag_19\n      jumpi\n      dup1\n      0xe111f6b4\n      eq\n      tag_20\n      jumpi\n      dup1\n      0xf2fde38b\n      eq\n      tag_21\n      jumpi\n      dup1\n      0xfbf1aded\n      eq\n      tag_22\n      jumpi\n      jump(tag_2)\n    tag_24:\n      dup1\n      0x8da5cb5b\n      eq\n      tag_13\n      jumpi\n      dup1\n      0x96f979d2\n      eq\n      tag_14\n      jumpi\n      dup1\n      0x996b5d8e\n      eq\n      tag_15\n      jumpi\n      dup1\n      0xa4e1f033\n      eq\n      tag_16\n      jumpi\n      dup1\n      0xae24f005\n      eq\n      tag_17\n      jumpi\n      jump(tag_2)\n    tag_23:\n      dup1\n      0x66055159\n      gt\n      tag_25\n      jumpi\n      dup1\n      0x66055159\n      eq\n      tag_8\n      jumpi\n      dup1\n      0x715018a6\n      eq\n      tag_9\n      jumpi\n      dup1\n      0x75284998\n      eq\n      tag_10\n      jumpi\n      dup1\n      0x87bc1425\n      eq\n      tag_11\n      jumpi\n      dup1\n      0x8a38ab2c\n      eq\n      tag_12\n      jumpi\n      jump(tag_2)\n    tag_25:\n      dup1\n      0x07f910f8\n      eq\n      tag_3\n      jumpi\n      dup1\n      0x08e3d84b\n      eq\n      tag_4\n      jumpi\n      dup1\n      0x17f5e33d\n      eq\n      tag_5\n      jumpi\n      dup1\n      0x3a447e76\n      eq\n      tag_6\n      jumpi\n      dup1\n      0x5e52da27\n      eq\n      tag_7\n      jumpi\n    tag_2:\n      0x00\n      dup1\n      revert\n        /* \"moonx/moonx.sol\":1006:1075  mapping(address => mapping(uint256 => Enrollment)) public enrollments */\n    tag_3:\n      tag_26\n      0x04\n      dup1\n      calldatasize\n      sub\n      dup2\n      add\n      swap1\n      tag_27\n      swap2\n      swap1\n      tag_28\n      jump\t// in\n    tag_27:\n      tag_29\n      jump\t// in\n    tag_26:\n      mload(0x40)\n      tag_30\n      swap5\n      swap4\n      swap3\n      swap2\n      swap1\n      tag_31\n      jump\t// in\n    tag_30:\n      mload(0x40)\n      dup1\n      swap2\n      sub\n      swap1\n      return\n        /* \"moonx/moonx.sol\":2833:3443  function attemptQuiz(uint256 _courseId, address _user, bool _passed) external onlyOwner {... */\n    tag_4:\n      tag_32\n      0x04\n      dup1\n      calldatasize\n      sub\n      dup2\n      add\n      swap1\n      tag_33\n      swap2\n      swap1\n      tag_34\n      jump\t// in\n    tag_33:\n      tag_35\n      jump\t// in\n    tag_32:\n      stop\n        /* \"moonx/moonx.sol\":376:399  IERC20 public mandToken */\n    tag_5:\n      tag_36\n      tag_37\n      jump\t// in\n    tag_36:\n      mload(0x40)\n      tag_38\n      swap2\n      swap1\n      tag_39\n      jump\t// in\n    tag_38:\n      mload(0x40)\n      dup1\n      swap2\n      sub\n      swap1\n      return\n        /* \"moonx/moonx.sol\":4947:5064  function updateMandToken(address _newMandToken) external onlyOwner {... */\n    tag_6:\n      tag_40\n      0x04\n      dup1\n      calldatasize\n      sub\n      dup2\n      add\n      swap1\n      tag_41\n      swap2\n      swap1\n      tag_42\n      jump\t// in\n    tag_41:\n      tag_43\n      jump\t// in\n    tag_40:\n      stop\n        /* \"moonx/moonx.sol\":2376:2827  function enrollInCourse(uint256 _courseId) external {... */\n    tag_7:\n      tag_44\n      0x04\n      dup1\n      calldatasize\n      sub\n      dup2\n      add\n      swap1\n      tag_45\n      swap2\n      swap1\n      tag_46\n      jump\t// in\n    tag_45:\n      tag_47\n      jump\t// in\n    tag_44:\n      stop\n        /* \"moonx/moonx.sol\":1081:1107  uint256 public courseCount */\n    tag_8:\n      tag_48\n      tag_49\n      jump\t// in\n    tag_48:\n      mload(0x40)\n      tag_50\n      swap2\n      swap1\n      tag_51\n      jump\t// in\n    tag_50:\n      mload(0x40)\n      dup1\n      swap2\n      sub\n      swap1\n      return\n        /* \"@openzeppelin/contracts/access/Ownable.sol\":2293:2394  function renounceOwnership() public virtual onlyOwner {... */\n    tag_9:\n      tag_52\n      tag_53\n      jump\t// in\n    tag_52:\n      stop\n        /* \"moonx/moonx.sol\":2144:2370  function approveCourse(uint256 _courseId) external onlyOwner {... */\n    tag_10:\n      tag_54\n      0x04\n      dup1\n      calldatasize\n      sub\n      dup2\n      add\n      swap1\n      tag_55\n      swap2\n      swap1\n      tag_46\n      jump\t// in\n    tag_55:\n      tag_56\n      jump\t// in\n    tag_54:\n      stop\n        /* \"moonx/moonx.sol\":315:370  IReputationContract public immutable reputationContract */\n    tag_11:\n      tag_57\n      tag_58\n      jump\t// in\n    tag_57:\n      mload(0x40)\n      tag_59\n      swap2\n      swap1\n      tag_60\n      jump\t// in\n    tag_59:\n      mload(0x40)\n      dup1\n      swap2\n      sub\n      swap1\n      return\n        /* \"moonx/moonx.sol\":1786:2138  function createCourse(string memory _metadataURI) external {... */\n    tag_12:\n      tag_61\n      0x04\n      dup1\n      calldatasize\n      sub\n      dup2\n      add\n      swap1\n      tag_62\n      swap2\n      swap1\n      tag_63\n      jump\t// in\n    tag_62:\n      tag_64\n      jump\t// in\n    tag_61:\n      stop\n        /* \"@openzeppelin/contracts/access/Ownable.sol\":1638:1723  function owner() public view virtual returns (address) {... */\n    tag_13:\n      tag_65\n      tag_66\n      jump\t// in\n    tag_65:\n      mload(0x40)\n      tag_67\n      swap2\n      swap1\n      tag_68\n      jump\t// in\n    tag_67:\n      mload(0x40)\n      dup1\n      swap2\n      sub\n      swap1\n      return\n        /* \"moonx/moonx.sol\":959:1000  mapping(uint256 => Course) public courses */\n    tag_14:\n      tag_69\n      0x04\n      dup1\n      calldatasize\n      sub\n      dup2\n      add\n      swap1\n      tag_70\n      swap2\n      swap1\n      tag_46\n      jump\t// in\n    tag_70:\n      tag_71\n      jump\t// in\n    tag_69:\n      mload(0x40)\n      tag_72\n      swap5\n      swap4\n      swap3\n      swap2\n      swap1\n      tag_73\n      jump\t// in\n    tag_72:\n      mload(0x40)\n      dup1\n      swap2\n      sub\n      swap1\n      return\n        /* \"moonx/moonx.sol\":3449:4020  function claimStudentReward(uint256 _courseId) external {... */\n    tag_15:\n      tag_74\n      0x04\n      dup1\n      calldatasize\n      sub\n      dup2\n      add\n      swap1\n      tag_75\n      swap2\n      swap1\n      tag_46\n      jump\t// in\n    tag_75:\n      tag_76\n      jump\t// in\n    tag_74:\n      stop\n        /* \"moonx/moonx.sol\":457:500  uint256 public constant POST_THRESHOLD = 50 */\n    tag_16:\n      tag_77\n      tag_78\n      jump\t// in\n    tag_77:\n      mload(0x40)\n      tag_79\n      swap2\n      swap1\n      tag_51\n      jump\t// in\n    tag_79:\n      mload(0x40)\n      dup1\n      swap2\n      sub\n      swap1\n      return\n        /* \"moonx/moonx.sol\":406:451  uint256 public constant ENROLL_THRESHOLD = 10 */\n    tag_17:\n      tag_80\n      tag_81\n      jump\t// in\n    tag_80:\n      mload(0x40)\n      tag_82\n      swap2\n      swap1\n      tag_51\n      jump\t// in\n    tag_82:\n      mload(0x40)\n      dup1\n      swap2\n      sub\n      swap1\n      return\n        /* \"moonx/moonx.sol\":4026:4600  function claimCreatorReward(uint256 _courseId) external {... */\n    tag_18:\n      tag_83\n      0x04\n      dup1\n      calldatasize\n      sub\n      dup2\n      add\n      swap1\n      tag_84\n      swap2\n      swap1\n      tag_46\n      jump\t// in\n    tag_84:\n      tag_85\n      jump\t// in\n    tag_83:\n      stop\n        /* \"moonx/moonx.sol\":587:643  uint256 public constant CREATOR_REWARD_AMOUNT = 1 * 1e18 */\n    tag_19:\n      tag_86\n      tag_87\n      jump\t// in\n    tag_86:\n      mload(0x40)\n      tag_88\n      swap2\n      swap1\n      tag_51\n      jump\t// in\n    tag_88:\n      mload(0x40)\n      dup1\n      swap2\n      sub\n      swap1\n      return\n        /* \"moonx/moonx.sol\":4606:4763  function withdrawExcessTokens(uint256 _amount) external onlyOwner {... */\n    tag_20:\n      tag_89\n      0x04\n      dup1\n      calldatasize\n      sub\n      dup2\n      add\n      swap1\n      tag_90\n      swap2\n      swap1\n      tag_46\n      jump\t// in\n    tag_90:\n      tag_91\n      jump\t// in\n    tag_89:\n      stop\n        /* \"@openzeppelin/contracts/access/Ownable.sol\":2543:2758  function transferOwnership(address newOwner) public virtual onlyOwner {... */\n    tag_21:\n      tag_92\n      0x04\n      dup1\n      calldatasize\n      sub\n      dup2\n      add\n      swap1\n      tag_93\n      swap2\n      swap1\n      tag_42\n      jump\t// in\n    tag_93:\n      tag_94\n      jump\t// in\n    tag_92:\n      stop\n        /* \"moonx/moonx.sol\":506:563  uint256 public constant STUDENT_REWARD_AMOUNT = 10 * 1e18 */\n    tag_22:\n      tag_95\n      tag_96\n      jump\t// in\n    tag_95:\n      mload(0x40)\n      tag_97\n      swap2\n      swap1\n      tag_51\n      jump\t// in\n    tag_97:\n      mload(0x40)\n      dup1\n      swap2\n      sub\n      swap1\n      return\n        /* \"moonx/moonx.sol\":1006:1075  mapping(address => mapping(uint256 => Enrollment)) public enrollments */\n    tag_29:\n      mstore(0x20, 0x03)\n      dup2\n      0x00\n      mstore\n      mstore(0x20, keccak256(0x00, 0x40))\n      dup1\n      0x00\n      mstore\n      keccak256(0x00, 0x40)\n      0x00\n      swap2\n      pop\n      swap2\n      pop\n      pop\n      dup1\n      0x00\n      add\n      0x00\n      swap1\n      sload\n      swap1\n      0x0100\n      exp\n      swap1\n      div\n      0xff\n      and\n      swap1\n      dup1\n      0x00\n      add\n      0x01\n      swap1\n      sload\n      swap1\n      0x0100\n      exp\n      swap1\n      div\n      0xff\n      and\n      swap1\n      dup1\n      0x00\n      add\n      0x02\n      swap1\n      sload\n      swap1\n      0x0100\n      exp\n      swap1\n      div\n      0xff\n      and\n      swap1\n      dup1\n      0x00\n      add\n      0x03\n      swap1\n      sload\n      swap1\n      0x0100\n      exp\n      swap1\n      div\n      0xff\n      and\n      swap1\n      pop\n      dup5\n      jump\t// out\n        /* \"moonx/moonx.sol\":2833:3443  function attemptQuiz(uint256 _courseId, address _user, bool _passed) external onlyOwner {... */\n    tag_35:\n        /* \"@openzeppelin/contracts/access/Ownable.sol\":1531:1544  _checkOwner() */\n      tag_99\n        /* \"@openzeppelin/contracts/access/Ownable.sol\":1531:1542  _checkOwner */\n      tag_100\n        /* \"@openzeppelin/contracts/access/Ownable.sol\":1531:1544  _checkOwner() */\n      jump\t// in\n    tag_99:\n        /* \"moonx/moonx.sol\":2931:2960  Enrollment storage enrollment */\n      0x00\n        /* \"moonx/moonx.sol\":2963:2974  enrollments */\n      0x03\n        /* \"moonx/moonx.sol\":2963:2981  enrollments[_user] */\n      0x00\n        /* \"moonx/moonx.sol\":2975:2980  _user */\n      dup5\n        /* \"moonx/moonx.sol\":2963:2981  enrollments[_user] */\n      0xffffffffffffffffffffffffffffffffffffffff\n      and\n      0xffffffffffffffffffffffffffffffffffffffff\n      and\n      dup2\n      mstore\n      0x20\n      add\n      swap1\n      dup2\n      mstore\n      0x20\n      add\n      0x00\n      keccak256\n        /* \"moonx/moonx.sol\":2963:2992  enrollments[_user][_courseId] */\n      0x00\n        /* \"moonx/moonx.sol\":2982:2991  _courseId */\n      dup6\n        /* \"moonx/moonx.sol\":2963:2992  enrollments[_user][_courseId] */\n      dup2\n      mstore\n      0x20\n      add\n      swap1\n      dup2\n      mstore\n      0x20\n      add\n      0x00\n      keccak256\n        /* \"moonx/moonx.sol\":2931:2992  Enrollment storage enrollment = enrollments[_user][_courseId] */\n      swap1\n      pop\n        /* \"moonx/moonx.sol\":3010:3020  enrollment */\n      dup1\n        /* \"moonx/moonx.sol\":3010:3031  enrollment.isEnrolled */\n      0x00\n      add\n      0x00\n      swap1\n      sload\n      swap1\n      0x0100\n      exp\n      swap1\n      div\n      0xff\n      and\n        /* \"moonx/moonx.sol\":3002:3068  require(enrollment.isEnrolled, \"User not enrolled in this course\") */\n      tag_102\n      jumpi\n      mload(0x40)\n      0x08c379a000000000000000000000000000000000000000000000000000000000\n      dup2\n      mstore\n      0x04\n      add\n      tag_103\n      swap1\n      tag_104\n      jump\t// in\n    tag_103:\n      mload(0x40)\n      dup1\n      swap2\n      sub\n      swap1\n      revert\n    tag_102:\n        /* \"moonx/moonx.sol\":3112:3113  2 */\n      0x02\n        /* \"moonx/moonx.sol\":3086:3096  enrollment */\n      dup2\n        /* \"moonx/moonx.sol\":3086:3109  enrollment.attemptCount */\n      0x00\n      add\n      0x01\n      swap1\n      sload\n      swap1\n      0x0100\n      exp\n      swap1\n      div\n      0xff\n      and\n        /* \"moonx/moonx.sol\":3086:3113  enrollment.attemptCount < 2 */\n      0xff\n      and\n      lt\n        /* \"moonx/moonx.sol\":3078:3142  require(enrollment.attemptCount < 2, \"Maximum attempts reached\") */\n      tag_105\n      jumpi\n      mload(0x40)\n      0x08c379a000000000000000000000000000000000000000000000000000000000\n      dup2\n      mstore\n      0x04\n      add\n      tag_106\n      swap1\n      tag_107\n      jump\t// in\n    tag_106:\n      mload(0x40)\n      dup1\n      swap2\n      sub\n      swap1\n      revert\n    tag_105:\n        /* \"moonx/moonx.sol\":3161:3171  enrollment */\n      dup1\n        /* \"moonx/moonx.sol\":3161:3181  enrollment.hasPassed */\n      0x00\n      add\n      0x02\n      swap1\n      sload\n      swap1\n      0x0100\n      exp\n      swap1\n      div\n      0xff\n      and\n        /* \"moonx/moonx.sol\":3160:3181  !enrollment.hasPassed */\n      iszero\n        /* \"moonx/moonx.sol\":3152:3221  require(!enrollment.hasPassed, \"User has already passed this course\") */\n      tag_108\n      jumpi\n      mload(0x40)\n      0x08c379a000000000000000000000000000000000000000000000000000000000\n      dup2\n      mstore\n      0x04\n      add\n      tag_109\n      swap1\n      tag_110\n      jump\t// in\n    tag_109:\n      mload(0x40)\n      dup1\n      swap2\n      sub\n      swap1\n      revert\n    tag_108:\n        /* \"moonx/moonx.sol\":3232:3242  enrollment */\n      dup1\n        /* \"moonx/moonx.sol\":3232:3255  enrollment.attemptCount */\n      0x00\n      add\n      0x01\n        /* \"moonx/moonx.sol\":3232:3257  enrollment.attemptCount++ */\n      dup2\n      dup2\n      swap1\n      sload\n      swap1\n      0x0100\n      exp\n      swap1\n      div\n      0xff\n      and\n      dup1\n      swap3\n      swap2\n      swap1\n      tag_111\n      swap1\n      tag_112\n      jump\t// in\n    tag_111:\n      swap2\n      swap1\n      0x0100\n      exp\n      dup2\n      sload\n      dup2\n      0xff\n      mul\n      not\n      and\n      swap1\n      dup4\n      0xff\n      and\n      mul\n      or\n      swap1\n      sstore\n      pop\n      pop\n        /* \"moonx/moonx.sol\":3271:3278  _passed */\n      dup2\n        /* \"moonx/moonx.sol\":3267:3381  if (_passed) {... */\n      iszero\n      tag_113\n      jumpi\n        /* \"moonx/moonx.sol\":3317:3321  true */\n      0x01\n        /* \"moonx/moonx.sol\":3294:3304  enrollment */\n      dup2\n        /* \"moonx/moonx.sol\":3294:3314  enrollment.hasPassed */\n      0x00\n      add\n      0x02\n        /* \"moonx/moonx.sol\":3294:3321  enrollment.hasPassed = true */\n      0x0100\n      exp\n      dup2\n      sload\n      dup2\n      0xff\n      mul\n      not\n      and\n      swap1\n      dup4\n      iszero\n      iszero\n      mul\n      or\n      swap1\n      sstore\n      pop\n        /* \"moonx/moonx.sol\":3335:3342  courses */\n      0x02\n        /* \"moonx/moonx.sol\":3335:3353  courses[_courseId] */\n      0x00\n        /* \"moonx/moonx.sol\":3343:3352  _courseId */\n      dup6\n        /* \"moonx/moonx.sol\":3335:3353  courses[_courseId] */\n      dup2\n      mstore\n      0x20\n      add\n      swap1\n      dup2\n      mstore\n      0x20\n      add\n      0x00\n      keccak256\n        /* \"moonx/moonx.sol\":3335:3368  courses[_courseId].passedStudents */\n      0x03\n      add\n      0x00\n        /* \"moonx/moonx.sol\":3335:3370  courses[_courseId].passedStudents++ */\n      dup2\n      sload\n      dup1\n      swap3\n      swap2\n      swap1\n      tag_114\n      swap1\n      tag_115\n      jump\t// in\n    tag_114:\n      swap2\n      swap1\n      pop\n      sstore\n      pop\n        /* \"moonx/moonx.sol\":3267:3381  if (_passed) {... */\n    tag_113:\n        /* \"moonx/moonx.sol\":3421:3426  _user */\n      dup3\n        /* \"moonx/moonx.sol\":3396:3436  QuizAttempted(_courseId, _user, _passed) */\n      0xffffffffffffffffffffffffffffffffffffffff\n      and\n        /* \"moonx/moonx.sol\":3410:3419  _courseId */\n      dup5\n        /* \"moonx/moonx.sol\":3396:3436  QuizAttempted(_courseId, _user, _passed) */\n      0xaee8895c1bf669485cee2dd54d1eee9e65b02a244afb6f798f95d72405cdf7a5\n        /* \"moonx/moonx.sol\":3428:3435  _passed */\n      dup5\n        /* \"moonx/moonx.sol\":3396:3436  QuizAttempted(_courseId, _user, _passed) */\n      mload(0x40)\n      tag_116\n      swap2\n      swap1\n      tag_117\n      jump\t// in\n    tag_116:\n      mload(0x40)\n      dup1\n      swap2\n      sub\n      swap1\n      log3\n        /* \"moonx/moonx.sol\":2921:3443  {... */\n      pop\n        /* \"moonx/moonx.sol\":2833:3443  function attemptQuiz(uint256 _courseId, address _user, bool _passed) external onlyOwner {... */\n      pop\n      pop\n      pop\n      jump\t// out\n        /* \"moonx/moonx.sol\":376:399  IERC20 public mandToken */\n    tag_37:\n      0x01\n      0x00\n      swap1\n      sload\n      swap1\n      0x0100\n      exp\n      swap1\n      div\n      0xffffffffffffffffffffffffffffffffffffffff\n      and\n      dup2\n      jump\t// out\n        /* \"moonx/moonx.sol\":4947:5064  function updateMandToken(address _newMandToken) external onlyOwner {... */\n    tag_43:\n        /* \"@openzeppelin/contracts/access/Ownable.sol\":1531:1544  _checkOwner() */\n      tag_119\n        /* \"@openzeppelin/contracts/access/Ownable.sol\":1531:1542  _checkOwner */\n      tag_100\n        /* \"@openzeppelin/contracts/access/Ownable.sol\":1531:1544  _checkOwner() */\n      jump\t// in\n    tag_119:\n        /* \"moonx/moonx.sol\":5043:5056  _newMandToken */\n      dup1\n        /* \"moonx/moonx.sol\":5024:5033  mandToken */\n      0x01\n      0x00\n        /* \"moonx/moonx.sol\":5024:5057  mandToken = IERC20(_newMandToken) */\n      0x0100\n      exp\n      dup2\n      sload\n      dup2\n      0xffffffffffffffffffffffffffffffffffffffff\n      mul\n      not\n      and\n      swap1\n      dup4\n      0xffffffffffffffffffffffffffffffffffffffff\n      and\n      mul\n      or\n      swap1\n      sstore\n      pop\n        /* \"moonx/moonx.sol\":4947:5064  function updateMandToken(address _newMandToken) external onlyOwner {... */\n      pop\n      jump\t// out\n        /* \"moonx/moonx.sol\":2376:2827  function enrollInCourse(uint256 _courseId) external {... */\n    tag_47:\n        /* \"moonx/moonx.sol\":449:451  10 */\n      0x0a\n        /* \"moonx/moonx.sol\":2446:2464  reputationContract */\n      immutable(\"0x9c82694a9cf6c7b68ec93c5541ae0b2631d5f0fa3eec98f4ce497d015951b3ba\")\n        /* \"moonx/moonx.sol\":2446:2475  reputationContract.reputation */\n      0xffffffffffffffffffffffffffffffffffffffff\n      and\n      0xb9f79451\n        /* \"moonx/moonx.sol\":2476:2486  msg.sender */\n      caller\n        /* \"moonx/moonx.sol\":2446:2487  reputationContract.reputation(msg.sender) */\n      mload(0x40)\n      dup3\n      0xffffffff\n      and\n      0xe0\n      shl\n      dup2\n      mstore\n      0x04\n      add\n      tag_122\n      swap2\n      swap1\n      tag_68\n      jump\t// in\n    tag_122:\n      0x20\n      mload(0x40)\n      dup1\n      dup4\n      sub\n      dup2\n      dup7\n      gas\n      staticcall\n      iszero\n      dup1\n      iszero\n      tag_124\n      jumpi\n      returndatasize\n      0x00\n      dup1\n      returndatacopy\n      revert(0x00, returndatasize)\n    tag_124:\n      pop\n      pop\n      pop\n      pop\n      mload(0x40)\n      returndatasize\n      not(0x1f)\n      0x1f\n      dup3\n      add\n      and\n      dup3\n      add\n      dup1\n      0x40\n      mstore\n      pop\n      dup2\n      add\n      swap1\n      tag_125\n      swap2\n      swap1\n      tag_126\n      jump\t// in\n    tag_125:\n        /* \"moonx/moonx.sol\":2446:2507  reputationContract.reputation(msg.sender) >= ENROLL_THRESHOLD */\n      lt\n      iszero\n        /* \"moonx/moonx.sol\":2438:2545  require(reputationContract.reputation(msg.sender) >= ENROLL_THRESHOLD, \"Insufficient reputation to enroll\") */\n      tag_127\n      jumpi\n      mload(0x40)\n      0x08c379a000000000000000000000000000000000000000000000000000000000\n      dup2\n      mstore\n      0x04\n      add\n      tag_128\n      swap1\n      tag_129\n      jump\t// in\n    tag_128:\n      mload(0x40)\n      dup1\n      swap2\n      sub\n      swap1\n      revert\n    tag_127:\n        /* \"moonx/moonx.sol\":2563:2570  courses */\n      0x02\n        /* \"moonx/moonx.sol\":2563:2581  courses[_courseId] */\n      0x00\n        /* \"moonx/moonx.sol\":2571:2580  _courseId */\n      dup3\n        /* \"moonx/moonx.sol\":2563:2581  courses[_courseId] */\n      dup2\n      mstore\n      0x20\n      add\n      swap1\n      dup2\n      mstore\n      0x20\n      add\n      0x00\n      keccak256\n        /* \"moonx/moonx.sol\":2563:2590  courses[_courseId].approved */\n      0x02\n      add\n      0x00\n      swap1\n      sload\n      swap1\n      0x0100\n      exp\n      swap1\n      div\n      0xff\n      and\n        /* \"moonx/moonx.sol\":2555:2614  require(courses[_courseId].approved, \"Course not approved\") */\n      tag_130\n      jumpi\n      mload(0x40)\n      0x08c379a000000000000000000000000000000000000000000000000000000000\n      dup2\n      mstore\n      0x04\n      add\n      tag_131\n      swap1\n      tag_132\n      jump\t// in\n    tag_131:\n      mload(0x40)\n      dup1\n      swap2\n      sub\n      swap1\n      revert\n    tag_130:\n        /* \"moonx/moonx.sol\":2633:2644  enrollments */\n      0x03\n        /* \"moonx/moonx.sol\":2633:2656  enrollments[msg.sender] */\n      0x00\n        /* \"moonx/moonx.sol\":2645:2655  msg.sender */\n      caller\n        /* \"moonx/moonx.sol\":2633:2656  enrollments[msg.sender] */\n      0xffffffffffffffffffffffffffffffffffffffff\n      and\n      0xffffffffffffffffffffffffffffffffffffffff\n      and\n      dup2\n      mstore\n      0x20\n      add\n      swap1\n      dup2\n      mstore\n      0x20\n      add\n      0x00\n      keccak256\n        /* \"moonx/moonx.sol\":2633:2667  enrollments[msg.sender][_courseId] */\n      0x00\n        /* \"moonx/moonx.sol\":2657:2666  _courseId */\n      dup3\n        /* \"moonx/moonx.sol\":2633:2667  enrollments[msg.sender][_courseId] */\n      dup2\n      mstore\n      0x20\n      add\n      swap1\n      dup2\n      mstore\n      0x20\n      add\n      0x00\n      keccak256\n        /* \"moonx/moonx.sol\":2633:2678  enrollments[msg.sender][_courseId].isEnrolled */\n      0x00\n      add\n      0x00\n      swap1\n      sload\n      swap1\n      0x0100\n      exp\n      swap1\n      div\n      0xff\n      and\n        /* \"moonx/moonx.sol\":2632:2678  !enrollments[msg.sender][_courseId].isEnrolled */\n      iszero\n        /* \"moonx/moonx.sol\":2624:2699  require(!enrollments[msg.sender][_courseId].isEnrolled, \"Already enrolled\") */\n      tag_133\n      jumpi\n      mload(0x40)\n      0x08c379a000000000000000000000000000000000000000000000000000000000\n      dup2\n      mstore\n      0x04\n      add\n      tag_134\n      swap1\n      tag_135\n      jump\t// in\n    tag_134:\n      mload(0x40)\n      dup1\n      swap2\n      sub\n      swap1\n      revert\n    tag_133:\n        /* \"moonx/moonx.sol\":2766:2770  true */\n      0x01\n        /* \"moonx/moonx.sol\":2718:2729  enrollments */\n      0x03\n        /* \"moonx/moonx.sol\":2718:2741  enrollments[msg.sender] */\n      0x00\n        /* \"moonx/moonx.sol\":2730:2740  msg.sender */\n      caller\n        /* \"moonx/moonx.sol\":2718:2741  enrollments[msg.sender] */\n      0xffffffffffffffffffffffffffffffffffffffff\n      and\n      0xffffffffffffffffffffffffffffffffffffffff\n      and\n      dup2\n      mstore\n      0x20\n      add\n      swap1\n      dup2\n      mstore\n      0x20\n      add\n      0x00\n      keccak256\n        /* \"moonx/moonx.sol\":2718:2752  enrollments[msg.sender][_courseId] */\n      0x00\n        /* \"moonx/moonx.sol\":2742:2751  _courseId */\n      dup4\n        /* \"moonx/moonx.sol\":2718:2752  enrollments[msg.sender][_courseId] */\n      dup2\n      mstore\n      0x20\n      add\n      swap1\n      dup2\n      mstore\n      0x20\n      add\n      0x00\n      keccak256\n        /* \"moonx/moonx.sol\":2718:2763  enrollments[msg.sender][_courseId].isEnrolled */\n      0x00\n      add\n      0x00\n        /* \"moonx/moonx.sol\":2718:2770  enrollments[msg.sender][_courseId].isEnrolled = true */\n      0x0100\n      exp\n      dup2\n      sload\n      dup2\n      0xff\n      mul\n      not\n      and\n      swap1\n      dup4\n      iszero\n      iszero\n      mul\n      or\n      swap1\n      sstore\n      pop\n        /* \"moonx/moonx.sol\":2809:2819  msg.sender */\n      caller\n        /* \"moonx/moonx.sol\":2785:2820  UserEnrolled(_courseId, msg.sender) */\n      0xffffffffffffffffffffffffffffffffffffffff\n      and\n        /* \"moonx/moonx.sol\":2798:2807  _courseId */\n      dup2\n        /* \"moonx/moonx.sol\":2785:2820  UserEnrolled(_courseId, msg.sender) */\n      0xfacf1a2842acbad124cbca0a047fe37bc246c68f814e0350c7bd8a022fd1dddb\n      mload(0x40)\n      mload(0x40)\n      dup1\n      swap2\n      sub\n      swap1\n      log3\n        /* \"moonx/moonx.sol\":2376:2827  function enrollInCourse(uint256 _courseId) external {... */\n      pop\n      jump\t// out\n        /* \"moonx/moonx.sol\":1081:1107  uint256 public courseCount */\n    tag_49:\n      sload(0x04)\n      dup2\n      jump\t// out\n        /* \"@openzeppelin/contracts/access/Ownable.sol\":2293:2394  function renounceOwnership() public virtual onlyOwner {... */\n    tag_53:\n        /* \"@openzeppelin/contracts/access/Ownable.sol\":1531:1544  _checkOwner() */\n      tag_137\n        /* \"@openzeppelin/contracts/access/Ownable.sol\":1531:1542  _checkOwner */\n      tag_100\n        /* \"@openzeppelin/contracts/access/Ownable.sol\":1531:1544  _checkOwner() */\n      jump\t// in\n    tag_137:\n        /* \"@openzeppelin/contracts/access/Ownable.sol\":2357:2387  _transferOwnership(address(0)) */\n      tag_139\n        /* \"@openzeppelin/contracts/access/Ownable.sol\":2384:2385  0 */\n      0x00\n        /* \"@openzeppelin/contracts/access/Ownable.sol\":2357:2375  _transferOwnership */\n      tag_140\n        /* \"@openzeppelin/contracts/access/Ownable.sol\":2357:2387  _transferOwnership(address(0)) */\n      jump\t// in\n    tag_139:\n        /* \"@openzeppelin/contracts/access/Ownable.sol\":2293:2394  function renounceOwnership() public virtual onlyOwner {... */\n      jump\t// out\n        /* \"moonx/moonx.sol\":2144:2370  function approveCourse(uint256 _courseId) external onlyOwner {... */\n    tag_56:\n        /* \"@openzeppelin/contracts/access/Ownable.sol\":1531:1544  _checkOwner() */\n      tag_142\n        /* \"@openzeppelin/contracts/access/Ownable.sol\":1531:1542  _checkOwner */\n      tag_100\n        /* \"@openzeppelin/contracts/access/Ownable.sol\":1531:1544  _checkOwner() */\n      jump\t// in\n    tag_142:\n        /* \"moonx/moonx.sol\":2224:2231  courses */\n      0x02\n        /* \"moonx/moonx.sol\":2224:2242  courses[_courseId] */\n      0x00\n        /* \"moonx/moonx.sol\":2232:2241  _courseId */\n      dup3\n        /* \"moonx/moonx.sol\":2224:2242  courses[_courseId] */\n      dup2\n      mstore\n      0x20\n      add\n      swap1\n      dup2\n      mstore\n      0x20\n      add\n      0x00\n      keccak256\n        /* \"moonx/moonx.sol\":2224:2251  courses[_courseId].approved */\n      0x02\n      add\n      0x00\n      swap1\n      sload\n      swap1\n      0x0100\n      exp\n      swap1\n      div\n      0xff\n      and\n        /* \"moonx/moonx.sol\":2223:2251  !courses[_courseId].approved */\n      iszero\n        /* \"moonx/moonx.sol\":2215:2279  require(!courses[_courseId].approved, \"Course already approved\") */\n      tag_144\n      jumpi\n      mload(0x40)\n      0x08c379a000000000000000000000000000000000000000000000000000000000\n      dup2\n      mstore\n      0x04\n      add\n      tag_145\n      swap1\n      tag_146\n      jump\t// in\n    tag_145:\n      mload(0x40)\n      dup1\n      swap2\n      sub\n      swap1\n      revert\n    tag_144:\n        /* \"moonx/moonx.sol\":2319:2323  true */\n      0x01\n        /* \"moonx/moonx.sol\":2289:2296  courses */\n      0x02\n        /* \"moonx/moonx.sol\":2289:2307  courses[_courseId] */\n      0x00\n        /* \"moonx/moonx.sol\":2297:2306  _courseId */\n      dup4\n        /* \"moonx/moonx.sol\":2289:2307  courses[_courseId] */\n      dup2\n      mstore\n      0x20\n      add\n      swap1\n      dup2\n      mstore\n      0x20\n      add\n      0x00\n      keccak256\n        /* \"moonx/moonx.sol\":2289:2316  courses[_courseId].approved */\n      0x02\n      add\n      0x00\n        /* \"moonx/moonx.sol\":2289:2323  courses[_courseId].approved = true */\n      0x0100\n      exp\n      dup2\n      sload\n      dup2\n      0xff\n      mul\n      not\n      and\n      swap1\n      dup4\n      iszero\n      iszero\n      mul\n      or\n      swap1\n      sstore\n      pop\n        /* \"moonx/moonx.sol\":2353:2362  _courseId */\n      dup1\n        /* \"moonx/moonx.sol\":2338:2363  CourseApproved(_courseId) */\n      0x87c1c0e5cd17beb8c61a3337b32c66021cb179dd6f97d6d9ce923a029092bd45\n      mload(0x40)\n      mload(0x40)\n      dup1\n      swap2\n      sub\n      swap1\n      log2\n        /* \"moonx/moonx.sol\":2144:2370  function approveCourse(uint256 _courseId) external onlyOwner {... */\n      pop\n      jump\t// out\n        /* \"moonx/moonx.sol\":315:370  IReputationContract public immutable reputationContract */\n    tag_58:\n      immutable(\"0x9c82694a9cf6c7b68ec93c5541ae0b2631d5f0fa3eec98f4ce497d015951b3ba\")\n      dup2\n      jump\t// out\n        /* \"moonx/moonx.sol\":1786:2138  function createCourse(string memory _metadataURI) external {... */\n    tag_64:\n        /* \"moonx/moonx.sol\":498:500  50 */\n      0x32\n        /* \"moonx/moonx.sol\":1863:1881  reputationContract */\n      immutable(\"0x9c82694a9cf6c7b68ec93c5541ae0b2631d5f0fa3eec98f4ce497d015951b3ba\")\n        /* \"moonx/moonx.sol\":1863:1892  reputationContract.reputation */\n      0xffffffffffffffffffffffffffffffffffffffff\n      and\n      0xb9f79451\n        /* \"moonx/moonx.sol\":1893:1903  msg.sender */\n      caller\n        /* \"moonx/moonx.sol\":1863:1904  reputationContract.reputation(msg.sender) */\n      mload(0x40)\n      dup3\n      0xffffffff\n      and\n      0xe0\n      shl\n      dup2\n      mstore\n      0x04\n      add\n      tag_148\n      swap2\n      swap1\n      tag_68\n      jump\t// in\n    tag_148:\n      0x20\n      mload(0x40)\n      dup1\n      dup4\n      sub\n      dup2\n      dup7\n      gas\n      staticcall\n      iszero\n      dup1\n      iszero\n      tag_150\n      jumpi\n      returndatasize\n      0x00\n      dup1\n      returndatacopy\n      revert(0x00, returndatasize)\n    tag_150:\n      pop\n      pop\n      pop\n      pop\n      mload(0x40)\n      returndatasize\n      not(0x1f)\n      0x1f\n      dup3\n      add\n      and\n      dup3\n      add\n      dup1\n      0x40\n      mstore\n      pop\n      dup2\n      add\n      swap1\n      tag_151\n      swap2\n      swap1\n      tag_126\n      jump\t// in\n    tag_151:\n        /* \"moonx/moonx.sol\":1863:1922  reputationContract.reputation(msg.sender) >= POST_THRESHOLD */\n      lt\n      iszero\n        /* \"moonx/moonx.sol\":1855:1967  require(reputationContract.reputation(msg.sender) >= POST_THRESHOLD, \"Insufficient reputation to create course\") */\n      tag_152\n      jumpi\n      mload(0x40)\n      0x08c379a000000000000000000000000000000000000000000000000000000000\n      dup2\n      mstore\n      0x04\n      add\n      tag_153\n      swap1\n      tag_154\n      jump\t// in\n    tag_153:\n      mload(0x40)\n      dup1\n      swap2\n      sub\n      swap1\n      revert\n    tag_152:\n        /* \"moonx/moonx.sol\":1977:1993  uint256 courseId */\n      0x00\n        /* \"moonx/moonx.sol\":1996:2007  courseCount */\n      0x04\n      0x00\n        /* \"moonx/moonx.sol\":1996:2009  courseCount++ */\n      dup2\n      sload\n      dup1\n      swap3\n      swap2\n      swap1\n      tag_155\n      swap1\n      tag_115\n      jump\t// in\n    tag_155:\n      swap2\n      swap1\n      pop\n      sstore\n        /* \"moonx/moonx.sol\":1977:2009  uint256 courseId = courseCount++ */\n      swap1\n      pop\n        /* \"moonx/moonx.sol\":2039:2081  Course(msg.sender, _metadataURI, false, 0) */\n      mload(0x40)\n      dup1\n      0x80\n      add\n      0x40\n      mstore\n      dup1\n        /* \"moonx/moonx.sol\":2046:2056  msg.sender */\n      caller\n        /* \"moonx/moonx.sol\":2039:2081  Course(msg.sender, _metadataURI, false, 0) */\n      0xffffffffffffffffffffffffffffffffffffffff\n      and\n      dup2\n      mstore\n      0x20\n      add\n        /* \"moonx/moonx.sol\":2058:2070  _metadataURI */\n      dup4\n        /* \"moonx/moonx.sol\":2039:2081  Course(msg.sender, _metadataURI, false, 0) */\n      dup2\n      mstore\n      0x20\n      add\n        /* \"moonx/moonx.sol\":2072:2077  false */\n      0x00\n        /* \"moonx/moonx.sol\":2039:2081  Course(msg.sender, _metadataURI, false, 0) */\n      iszero\n      iszero\n      dup2\n      mstore\n      0x20\n      add\n        /* \"moonx/moonx.sol\":2079:2080  0 */\n      0x00\n        /* \"moonx/moonx.sol\":2039:2081  Course(msg.sender, _metadataURI, false, 0) */\n      dup2\n      mstore\n      pop\n        /* \"moonx/moonx.sol\":2019:2026  courses */\n      0x02\n        /* \"moonx/moonx.sol\":2019:2036  courses[courseId] */\n      0x00\n        /* \"moonx/moonx.sol\":2027:2035  courseId */\n      dup4\n        /* \"moonx/moonx.sol\":2019:2036  courses[courseId] */\n      dup2\n      mstore\n      0x20\n      add\n      swap1\n      dup2\n      mstore\n      0x20\n      add\n      0x00\n      keccak256\n        /* \"moonx/moonx.sol\":2019:2081  courses[courseId] = Course(msg.sender, _metadataURI, false, 0) */\n      0x00\n      dup3\n      add\n      mload\n      dup2\n      0x00\n      add\n      exp(0x0100, 0x00)\n      dup2\n      sload\n      dup2\n      0xffffffffffffffffffffffffffffffffffffffff\n      mul\n      not\n      and\n      swap1\n      dup4\n      0xffffffffffffffffffffffffffffffffffffffff\n      and\n      mul\n      or\n      swap1\n      sstore\n      pop\n      0x20\n      dup3\n      add\n      mload\n      dup2\n      0x01\n      add\n      swap1\n      dup2\n      tag_156\n      swap2\n      swap1\n      tag_157\n      jump\t// in\n    tag_156:\n      pop\n      0x40\n      dup3\n      add\n      mload\n      dup2\n      0x02\n      add\n      exp(0x0100, 0x00)\n      dup2\n      sload\n      dup2\n      0xff\n      mul\n      not\n      and\n      swap1\n      dup4\n      iszero\n      iszero\n      mul\n      or\n      swap1\n      sstore\n      pop\n      0x60\n      dup3\n      add\n      mload\n      dup2\n      0x03\n      add\n      sstore\n      swap1\n      pop\n      pop\n        /* \"moonx/moonx.sol\":2120:2130  msg.sender */\n      caller\n        /* \"moonx/moonx.sol\":2096:2131  CourseCreated(courseId, msg.sender) */\n      0xffffffffffffffffffffffffffffffffffffffff\n      and\n        /* \"moonx/moonx.sol\":2110:2118  courseId */\n      dup2\n        /* \"moonx/moonx.sol\":2096:2131  CourseCreated(courseId, msg.sender) */\n      0xa68f79aa37f9cdc81c2757cfb3e11e9d7d89ca0a5410fbcf1b61125bc17fb1b7\n      mload(0x40)\n      mload(0x40)\n      dup1\n      swap2\n      sub\n      swap1\n      log3\n        /* \"moonx/moonx.sol\":1845:2138  {... */\n      pop\n        /* \"moonx/moonx.sol\":1786:2138  function createCourse(string memory _metadataURI) external {... */\n      pop\n      jump\t// out\n        /* \"@openzeppelin/contracts/access/Ownable.sol\":1638:1723  function owner() public view virtual returns (address) {... */\n    tag_66:\n        /* \"@openzeppelin/contracts/access/Ownable.sol\":1684:1691  address */\n      0x00\n        /* \"@openzeppelin/contracts/access/Ownable.sol\":1710:1716  _owner */\n      dup1\n      0x00\n      swap1\n      sload\n      swap1\n      0x0100\n      exp\n      swap1\n      div\n      0xffffffffffffffffffffffffffffffffffffffff\n      and\n        /* \"@openzeppelin/contracts/access/Ownable.sol\":1703:1716  return _owner */\n      swap1\n      pop\n        /* \"@openzeppelin/contracts/access/Ownable.sol\":1638:1723  function owner() public view virtual returns (address) {... */\n      swap1\n      jump\t// out\n        /* \"moonx/moonx.sol\":959:1000  mapping(uint256 => Course) public courses */\n    tag_71:\n      mstore(0x20, 0x02)\n      dup1\n      0x00\n      mstore\n      keccak256(0x00, 0x40)\n      0x00\n      swap2\n      pop\n      swap1\n      pop\n      dup1\n      0x00\n      add\n      0x00\n      swap1\n      sload\n      swap1\n      0x0100\n      exp\n      swap1\n      div\n      0xffffffffffffffffffffffffffffffffffffffff\n      and\n      swap1\n      dup1\n      0x01\n      add\n      dup1\n      sload\n      tag_159\n      swap1\n      tag_160\n      jump\t// in\n    tag_159:\n      dup1\n      0x1f\n      add\n      0x20\n      dup1\n      swap2\n      div\n      mul\n      0x20\n      add\n      mload(0x40)\n      swap1\n      dup2\n      add\n      0x40\n      mstore\n      dup1\n      swap3\n      swap2\n      swap1\n      dup2\n      dup2\n      mstore\n      0x20\n      add\n      dup3\n      dup1\n      sload\n      tag_161\n      swap1\n      tag_160\n      jump\t// in\n    tag_161:\n      dup1\n      iszero\n      tag_162\n      jumpi\n      dup1\n      0x1f\n      lt\n      tag_163\n      jumpi\n      0x0100\n      dup1\n      dup4\n      sload\n      div\n      mul\n      dup4\n      mstore\n      swap2\n      0x20\n      add\n      swap2\n      jump(tag_162)\n    tag_163:\n      dup3\n      add\n      swap2\n      swap1\n      0x00\n      mstore\n      keccak256(0x00, 0x20)\n      swap1\n    tag_164:\n      dup2\n      sload\n      dup2\n      mstore\n      swap1\n      0x01\n      add\n      swap1\n      0x20\n      add\n      dup1\n      dup4\n      gt\n      tag_164\n      jumpi\n      dup3\n      swap1\n      sub\n      0x1f\n      and\n      dup3\n      add\n      swap2\n    tag_162:\n      pop\n      pop\n      pop\n      pop\n      pop\n      swap1\n      dup1\n      0x02\n      add\n      0x00\n      swap1\n      sload\n      swap1\n      0x0100\n      exp\n      swap1\n      div\n      0xff\n      and\n      swap1\n      dup1\n      0x03\n      add\n      sload\n      swap1\n      pop\n      dup5\n      jump\t// out\n        /* \"moonx/moonx.sol\":3449:4020  function claimStudentReward(uint256 _courseId) external {... */\n    tag_76:\n        /* \"moonx/moonx.sol\":3515:3544  Enrollment storage enrollment */\n      0x00\n        /* \"moonx/moonx.sol\":3547:3558  enrollments */\n      0x03\n        /* \"moonx/moonx.sol\":3547:3570  enrollments[msg.sender] */\n      0x00\n        /* \"moonx/moonx.sol\":3559:3569  msg.sender */\n      caller\n        /* \"moonx/moonx.sol\":3547:3570  enrollments[msg.sender] */\n      0xffffffffffffffffffffffffffffffffffffffff\n      and\n      0xffffffffffffffffffffffffffffffffffffffff\n      and\n      dup2\n      mstore\n      0x20\n      add\n      swap1\n      dup2\n      mstore\n      0x20\n      add\n      0x00\n      keccak256\n        /* \"moonx/moonx.sol\":3547:3581  enrollments[msg.sender][_courseId] */\n      0x00\n        /* \"moonx/moonx.sol\":3571:3580  _courseId */\n      dup4\n        /* \"moonx/moonx.sol\":3547:3581  enrollments[msg.sender][_courseId] */\n      dup2\n      mstore\n      0x20\n      add\n      swap1\n      dup2\n      mstore\n      0x20\n      add\n      0x00\n      keccak256\n        /* \"moonx/moonx.sol\":3515:3581  Enrollment storage enrollment = enrollments[msg.sender][_courseId] */\n      swap1\n      pop\n        /* \"moonx/moonx.sol\":3599:3609  enrollment */\n      dup1\n        /* \"moonx/moonx.sol\":3599:3619  enrollment.hasPassed */\n      0x00\n      add\n      0x02\n      swap1\n      sload\n      swap1\n      0x0100\n      exp\n      swap1\n      div\n      0xff\n      and\n        /* \"moonx/moonx.sol\":3591:3641  require(enrollment.hasPassed, \"Course not passed\") */\n      tag_166\n      jumpi\n      mload(0x40)\n      0x08c379a000000000000000000000000000000000000000000000000000000000\n      dup2\n      mstore\n      0x04\n      add\n      tag_167\n      swap1\n      tag_168\n      jump\t// in\n    tag_167:\n      mload(0x40)\n      dup1\n      swap2\n      sub\n      swap1\n      revert\n    tag_166:\n        /* \"moonx/moonx.sol\":3660:3670  enrollment */\n      dup1\n        /* \"moonx/moonx.sol\":3660:3687  enrollment.hasClaimedReward */\n      0x00\n      add\n      0x03\n      swap1\n      sload\n      swap1\n      0x0100\n      exp\n      swap1\n      div\n      0xff\n      and\n        /* \"moonx/moonx.sol\":3659:3687  !enrollment.hasClaimedReward */\n      iszero\n        /* \"moonx/moonx.sol\":3651:3714  require(!enrollment.hasClaimedReward, \"Reward already claimed\") */\n      tag_169\n      jumpi\n      mload(0x40)\n      0x08c379a000000000000000000000000000000000000000000000000000000000\n      dup2\n      mstore\n      0x04\n      add\n      tag_170\n      swap1\n      tag_171\n      jump\t// in\n    tag_170:\n      mload(0x40)\n      dup1\n      swap2\n      sub\n      swap1\n      revert\n    tag_169:\n        /* \"moonx/moonx.sol\":3759:3760  2 */\n      0x02\n        /* \"moonx/moonx.sol\":3732:3742  enrollment */\n      dup2\n        /* \"moonx/moonx.sol\":3732:3755  enrollment.attemptCount */\n      0x00\n      add\n      0x01\n      swap1\n      sload\n      swap1\n      0x0100\n      exp\n      swap1\n      div\n      0xff\n      and\n        /* \"moonx/moonx.sol\":3732:3760  enrollment.attemptCount <= 2 */\n      0xff\n      and\n      gt\n      iszero\n        /* \"moonx/moonx.sol\":3724:3788  require(enrollment.attemptCount <= 2, \"Not eligible for reward\") */\n      tag_172\n      jumpi\n      mload(0x40)\n      0x08c379a000000000000000000000000000000000000000000000000000000000\n      dup2\n      mstore\n      0x04\n      add\n      tag_173\n      swap1\n      tag_174\n      jump\t// in\n    tag_173:\n      mload(0x40)\n      dup1\n      swap2\n      sub\n      swap1\n      revert\n    tag_172:\n        /* \"moonx/moonx.sol\":3829:3833  true */\n      0x01\n        /* \"moonx/moonx.sol\":3799:3809  enrollment */\n      dup2\n        /* \"moonx/moonx.sol\":3799:3826  enrollment.hasClaimedReward */\n      0x00\n      add\n      0x03\n        /* \"moonx/moonx.sol\":3799:3833  enrollment.hasClaimedReward = true */\n      0x0100\n      exp\n      dup2\n      sload\n      dup2\n      0xff\n      mul\n      not\n      and\n      swap1\n      dup4\n      iszero\n      iszero\n      mul\n      or\n      swap1\n      sstore\n      pop\n        /* \"moonx/moonx.sol\":3851:3860  mandToken */\n      0x01\n      0x00\n      swap1\n      sload\n      swap1\n      0x0100\n      exp\n      swap1\n      div\n      0xffffffffffffffffffffffffffffffffffffffff\n      and\n        /* \"moonx/moonx.sol\":3851:3869  mandToken.transfer */\n      0xffffffffffffffffffffffffffffffffffffffff\n      and\n      0xa9059cbb\n        /* \"moonx/moonx.sol\":3870:3880  msg.sender */\n      caller\n        /* \"moonx/moonx.sol\":554:563  10 * 1e18 */\n      0x8ac7230489e80000\n        /* \"moonx/moonx.sol\":3851:3904  mandToken.transfer(msg.sender, STUDENT_REWARD_AMOUNT) */\n      mload(0x40)\n      dup4\n      0xffffffff\n      and\n      0xe0\n      shl\n      dup2\n      mstore\n      0x04\n      add\n      tag_175\n      swap3\n      swap2\n      swap1\n      tag_176\n      jump\t// in\n    tag_175:\n      0x20\n      mload(0x40)\n      dup1\n      dup4\n      sub\n      dup2\n      0x00\n      dup8\n      gas\n      call\n      iszero\n      dup1\n      iszero\n      tag_178\n      jumpi\n      returndatasize\n      0x00\n      dup1\n      returndatacopy\n      revert(0x00, returndatasize)\n    tag_178:\n      pop\n      pop\n      pop\n      pop\n      mload(0x40)\n      returndatasize\n      not(0x1f)\n      0x1f\n      dup3\n      add\n      and\n      dup3\n      add\n      dup1\n      0x40\n      mstore\n      pop\n      dup2\n      add\n      swap1\n      tag_179\n      swap2\n      swap1\n      tag_180\n      jump\t// in\n    tag_179:\n        /* \"moonx/moonx.sol\":3843:3939  require(mandToken.transfer(msg.sender, STUDENT_REWARD_AMOUNT), \"Failed to transfer MAND tokens\") */\n      tag_181\n      jumpi\n      mload(0x40)\n      0x08c379a000000000000000000000000000000000000000000000000000000000\n      dup2\n      mstore\n      0x04\n      add\n      tag_182\n      swap1\n      tag_183\n      jump\t// in\n    tag_182:\n      mload(0x40)\n      dup1\n      swap2\n      sub\n      swap1\n      revert\n    tag_181:\n        /* \"moonx/moonx.sol\":3979:3989  msg.sender */\n      caller\n        /* \"moonx/moonx.sol\":3954:4013  RewardClaimed(_courseId, msg.sender, STUDENT_REWARD_AMOUNT) */\n      0xffffffffffffffffffffffffffffffffffffffff\n      and\n        /* \"moonx/moonx.sol\":3968:3977  _courseId */\n      dup3\n        /* \"moonx/moonx.sol\":3954:4013  RewardClaimed(_courseId, msg.sender, STUDENT_REWARD_AMOUNT) */\n      0x24b5efa61dd1cfc659205a97fb8ed868f3cb8c81922bab2b96423e5de1de2cb7\n        /* \"moonx/moonx.sol\":554:563  10 * 1e18 */\n      0x8ac7230489e80000\n        /* \"moonx/moonx.sol\":3954:4013  RewardClaimed(_courseId, msg.sender, STUDENT_REWARD_AMOUNT) */\n      mload(0x40)\n      tag_184\n      swap2\n      swap1\n      tag_51\n      jump\t// in\n    tag_184:\n      mload(0x40)\n      dup1\n      swap2\n      sub\n      swap1\n      log3\n        /* \"moonx/moonx.sol\":3505:4020  {... */\n      pop\n        /* \"moonx/moonx.sol\":3449:4020  function claimStudentReward(uint256 _courseId) external {... */\n      pop\n      jump\t// out\n        /* \"moonx/moonx.sol\":457:500  uint256 public constant POST_THRESHOLD = 50 */\n    tag_78:\n        /* \"moonx/moonx.sol\":498:500  50 */\n      0x32\n        /* \"moonx/moonx.sol\":457:500  uint256 public constant POST_THRESHOLD = 50 */\n      dup2\n      jump\t// out\n        /* \"moonx/moonx.sol\":406:451  uint256 public constant ENROLL_THRESHOLD = 10 */\n    tag_81:\n        /* \"moonx/moonx.sol\":449:451  10 */\n      0x0a\n        /* \"moonx/moonx.sol\":406:451  uint256 public constant ENROLL_THRESHOLD = 10 */\n      dup2\n      jump\t// out\n        /* \"moonx/moonx.sol\":4026:4600  function claimCreatorReward(uint256 _courseId) external {... */\n    tag_85:\n        /* \"moonx/moonx.sol\":4092:4113  Course storage course */\n      0x00\n        /* \"moonx/moonx.sol\":4116:4123  courses */\n      0x02\n        /* \"moonx/moonx.sol\":4116:4134  courses[_courseId] */\n      0x00\n        /* \"moonx/moonx.sol\":4124:4133  _courseId */\n      dup4\n        /* \"moonx/moonx.sol\":4116:4134  courses[_courseId] */\n      dup2\n      mstore\n      0x20\n      add\n      swap1\n      dup2\n      mstore\n      0x20\n      add\n      0x00\n      keccak256\n        /* \"moonx/moonx.sol\":4092:4134  Course storage course = courses[_courseId] */\n      swap1\n      pop\n        /* \"moonx/moonx.sol\":4166:4172  course */\n      dup1\n        /* \"moonx/moonx.sol\":4166:4180  course.creator */\n      0x00\n      add\n      0x00\n      swap1\n      sload\n      swap1\n      0x0100\n      exp\n      swap1\n      div\n      0xffffffffffffffffffffffffffffffffffffffff\n      and\n        /* \"moonx/moonx.sol\":4152:4180  msg.sender == course.creator */\n      0xffffffffffffffffffffffffffffffffffffffff\n      and\n        /* \"moonx/moonx.sol\":4152:4162  msg.sender */\n      caller\n        /* \"moonx/moonx.sol\":4152:4180  msg.sender == course.creator */\n      0xffffffffffffffffffffffffffffffffffffffff\n      and\n      eq\n        /* \"moonx/moonx.sol\":4144:4221  require(msg.sender == course.creator, \"Only course creator can claim reward\") */\n      tag_186\n      jumpi\n      mload(0x40)\n      0x08c379a000000000000000000000000000000000000000000000000000000000\n      dup2\n      mstore\n      0x04\n      add\n      tag_187\n      swap1\n      tag_188\n      jump\t// in\n    tag_187:\n      mload(0x40)\n      dup1\n      swap2\n      sub\n      swap1\n      revert\n    tag_186:\n        /* \"moonx/moonx.sol\":4239:4245  course */\n      dup1\n        /* \"moonx/moonx.sol\":4239:4254  course.approved */\n      0x02\n      add\n      0x00\n      swap1\n      sload\n      swap1\n      0x0100\n      exp\n      swap1\n      div\n      0xff\n      and\n        /* \"moonx/moonx.sol\":4231:4278  require(course.approved, \"Course not approved\") */\n      tag_189\n      jumpi\n      mload(0x40)\n      0x08c379a000000000000000000000000000000000000000000000000000000000\n      dup2\n      mstore\n      0x04\n      add\n      tag_190\n      swap1\n      tag_132\n      jump\t// in\n    tag_190:\n      mload(0x40)\n      dup1\n      swap2\n      sub\n      swap1\n      revert\n    tag_189:\n        /* \"moonx/moonx.sol\":4289:4309  uint256 rewardAmount */\n      0x00\n        /* \"moonx/moonx.sol\":635:643  1 * 1e18 */\n      0x0de0b6b3a7640000\n        /* \"moonx/moonx.sol\":4312:4318  course */\n      dup3\n        /* \"moonx/moonx.sol\":4312:4333  course.passedStudents */\n      0x03\n      add\n      sload\n        /* \"moonx/moonx.sol\":4312:4357  course.passedStudents * CREATOR_REWARD_AMOUNT */\n      tag_191\n      swap2\n      swap1\n      tag_192\n      jump\t// in\n    tag_191:\n        /* \"moonx/moonx.sol\":4289:4357  uint256 rewardAmount = course.passedStudents * CREATOR_REWARD_AMOUNT */\n      swap1\n      pop\n        /* \"moonx/moonx.sol\":4391:4392  0 */\n      0x00\n        /* \"moonx/moonx.sol\":4367:4373  course */\n      dup3\n        /* \"moonx/moonx.sol\":4367:4388  course.passedStudents */\n      0x03\n      add\n        /* \"moonx/moonx.sol\":4367:4392  course.passedStudents = 0 */\n      dup2\n      swap1\n      sstore\n      pop\n        /* \"moonx/moonx.sol\":4442:4451  mandToken */\n      0x01\n      0x00\n      swap1\n      sload\n      swap1\n      0x0100\n      exp\n      swap1\n      div\n      0xffffffffffffffffffffffffffffffffffffffff\n      and\n        /* \"moonx/moonx.sol\":4442:4460  mandToken.transfer */\n      0xffffffffffffffffffffffffffffffffffffffff\n      and\n      0xa9059cbb\n        /* \"moonx/moonx.sol\":4461:4471  msg.sender */\n      caller\n        /* \"moonx/moonx.sol\":4473:4485  rewardAmount */\n      dup4\n        /* \"moonx/moonx.sol\":4442:4486  mandToken.transfer(msg.sender, rewardAmount) */\n      mload(0x40)\n      dup4\n      0xffffffff\n      and\n      0xe0\n      shl\n      dup2\n      mstore\n      0x04\n      add\n      tag_193\n      swap3\n      swap2\n      swap1\n      tag_176\n      jump\t// in\n    tag_193:\n      0x20\n      mload(0x40)\n      dup1\n      dup4\n      sub\n      dup2\n      0x00\n      dup8\n      gas\n      call\n      iszero\n      dup1\n      iszero\n      tag_195\n      jumpi\n      returndatasize\n      0x00\n      dup1\n      returndatacopy\n      revert(0x00, returndatasize)\n    tag_195:\n      pop\n      pop\n      pop\n      pop\n      mload(0x40)\n      returndatasize\n      not(0x1f)\n      0x1f\n      dup3\n      add\n      and\n      dup3\n      add\n      dup1\n      0x40\n      mstore\n      pop\n      dup2\n      add\n      swap1\n      tag_196\n      swap2\n      swap1\n      tag_180\n      jump\t// in\n    tag_196:\n        /* \"moonx/moonx.sol\":4434:4521  require(mandToken.transfer(msg.sender, rewardAmount), \"Failed to transfer MAND tokens\") */\n      tag_197\n      jumpi\n      mload(0x40)\n      0x08c379a000000000000000000000000000000000000000000000000000000000\n      dup2\n      mstore\n      0x04\n      add\n      tag_198\n      swap1\n      tag_183\n      jump\t// in\n    tag_198:\n      mload(0x40)\n      dup1\n      swap2\n      sub\n      swap1\n      revert\n    tag_197:\n        /* \"moonx/moonx.sol\":4568:4578  msg.sender */\n      caller\n        /* \"moonx/moonx.sol\":4536:4593  CreatorRewardClaimed(_courseId, msg.sender, rewardAmount) */\n      0xffffffffffffffffffffffffffffffffffffffff\n      and\n        /* \"moonx/moonx.sol\":4557:4566  _courseId */\n      dup4\n        /* \"moonx/moonx.sol\":4536:4593  CreatorRewardClaimed(_courseId, msg.sender, rewardAmount) */\n      0xb67da43f4cc061f251c05601f44947d1be59a7ef5451a4a5230274da04f88246\n        /* \"moonx/moonx.sol\":4580:4592  rewardAmount */\n      dup4\n        /* \"moonx/moonx.sol\":4536:4593  CreatorRewardClaimed(_courseId, msg.sender, rewardAmount) */\n      mload(0x40)\n      tag_199\n      swap2\n      swap1\n      tag_51\n      jump\t// in\n    tag_199:\n      mload(0x40)\n      dup1\n      swap2\n      sub\n      swap1\n      log3\n        /* \"moonx/moonx.sol\":4082:4600  {... */\n      pop\n      pop\n        /* \"moonx/moonx.sol\":4026:4600  function claimCreatorReward(uint256 _courseId) external {... */\n      pop\n      jump\t// out\n        /* \"moonx/moonx.sol\":587:643  uint256 public constant CREATOR_REWARD_AMOUNT = 1 * 1e18 */\n    tag_87:\n        /* \"moonx/moonx.sol\":635:643  1 * 1e18 */\n      0x0de0b6b3a7640000\n        /* \"moonx/moonx.sol\":587:643  uint256 public constant CREATOR_REWARD_AMOUNT = 1 * 1e18 */\n      dup2\n      jump\t// out\n        /* \"moonx/moonx.sol\":4606:4763  function withdrawExcessTokens(uint256 _amount) external onlyOwner {... */\n    tag_91:\n        /* \"@openzeppelin/contracts/access/Ownable.sol\":1531:1544  _checkOwner() */\n      tag_201\n        /* \"@openzeppelin/contracts/access/Ownable.sol\":1531:1542  _checkOwner */\n      tag_100\n        /* \"@openzeppelin/contracts/access/Ownable.sol\":1531:1544  _checkOwner() */\n      jump\t// in\n    tag_201:\n        /* \"moonx/moonx.sol\":4690:4699  mandToken */\n      0x01\n      0x00\n      swap1\n      sload\n      swap1\n      0x0100\n      exp\n      swap1\n      div\n      0xffffffffffffffffffffffffffffffffffffffff\n      and\n        /* \"moonx/moonx.sol\":4690:4708  mandToken.transfer */\n      0xffffffffffffffffffffffffffffffffffffffff\n      and\n      0xa9059cbb\n        /* \"moonx/moonx.sol\":4709:4716  owner() */\n      tag_203\n        /* \"moonx/moonx.sol\":4709:4714  owner */\n      tag_66\n        /* \"moonx/moonx.sol\":4709:4716  owner() */\n      jump\t// in\n    tag_203:\n        /* \"moonx/moonx.sol\":4718:4725  _amount */\n      dup4\n        /* \"moonx/moonx.sol\":4690:4726  mandToken.transfer(owner(), _amount) */\n      mload(0x40)\n      dup4\n      0xffffffff\n      and\n      0xe0\n      shl\n      dup2\n      mstore\n      0x04\n      add\n      tag_204\n      swap3\n      swap2\n      swap1\n      tag_176\n      jump\t// in\n    tag_204:\n      0x20\n      mload(0x40)\n      dup1\n      dup4\n      sub\n      dup2\n      0x00\n      dup8\n      gas\n      call\n      iszero\n      dup1\n      iszero\n      tag_206\n      jumpi\n      returndatasize\n      0x00\n      dup1\n      returndatacopy\n      revert(0x00, returndatasize)\n    tag_206:\n      pop\n      pop\n      pop\n      pop\n      mload(0x40)\n      returndatasize\n      not(0x1f)\n      0x1f\n      dup3\n      add\n      and\n      dup3\n      add\n      dup1\n      0x40\n      mstore\n      pop\n      dup2\n      add\n      swap1\n      tag_207\n      swap2\n      swap1\n      tag_180\n      jump\t// in\n    tag_207:\n        /* \"moonx/moonx.sol\":4682:4756  require(mandToken.transfer(owner(), _amount), \"Failed to withdraw tokens\") */\n      tag_208\n      jumpi\n      mload(0x40)\n      0x08c379a000000000000000000000000000000000000000000000000000000000\n      dup2\n      mstore\n      0x04\n      add\n      tag_209\n      swap1\n      tag_210\n      jump\t// in\n    tag_209:\n      mload(0x40)\n      dup1\n      swap2\n      sub\n      swap1\n      revert\n    tag_208:\n        /* \"moonx/moonx.sol\":4606:4763  function withdrawExcessTokens(uint256 _amount) external onlyOwner {... */\n      pop\n      jump\t// out\n        /* \"@openzeppelin/contracts/access/Ownable.sol\":2543:2758  function transferOwnership(address newOwner) public virtual onlyOwner {... */\n    tag_94:\n        /* \"@openzeppelin/contracts/access/Ownable.sol\":1531:1544  _checkOwner() */\n      tag_212\n        /* \"@openzeppelin/contracts/access/Ownable.sol\":1531:1542  _checkOwner */\n      tag_100\n        /* \"@openzeppelin/contracts/access/Ownable.sol\":1531:1544  _checkOwner() */\n      jump\t// in\n    tag_212:\n        /* \"@openzeppelin/contracts/access/Ownable.sol\":2647:2648  0 */\n      0x00\n        /* \"@openzeppelin/contracts/access/Ownable.sol\":2627:2649  newOwner == address(0) */\n      0xffffffffffffffffffffffffffffffffffffffff\n      and\n        /* \"@openzeppelin/contracts/access/Ownable.sol\":2627:2635  newOwner */\n      dup2\n        /* \"@openzeppelin/contracts/access/Ownable.sol\":2627:2649  newOwner == address(0) */\n      0xffffffffffffffffffffffffffffffffffffffff\n      and\n      sub\n        /* \"@openzeppelin/contracts/access/Ownable.sol\":2623:2714  if (newOwner == address(0)) {... */\n      tag_214\n      jumpi\n        /* \"@openzeppelin/contracts/access/Ownable.sol\":2700:2701  0 */\n      0x00\n        /* \"@openzeppelin/contracts/access/Ownable.sol\":2672:2703  OwnableInvalidOwner(address(0)) */\n      mload(0x40)\n      0x1e4fbdf700000000000000000000000000000000000000000000000000000000\n      dup2\n      mstore\n      0x04\n      add\n      tag_215\n      swap2\n      swap1\n      tag_68\n      jump\t// in\n    tag_215:\n      mload(0x40)\n      dup1\n      swap2\n      sub\n      swap1\n      revert\n        /* \"@openzeppelin/contracts/access/Ownable.sol\":2623:2714  if (newOwner == address(0)) {... */\n    tag_214:\n        /* \"@openzeppelin/contracts/access/Ownable.sol\":2723:2751  _transferOwnership(newOwner) */\n      tag_216\n        /* \"@openzeppelin/contracts/access/Ownable.sol\":2742:2750  newOwner */\n      dup2\n        /* \"@openzeppelin/contracts/access/Ownable.sol\":2723:2741  _transferOwnership */\n      tag_140\n        /* \"@openzeppelin/contracts/access/Ownable.sol\":2723:2751  _transferOwnership(newOwner) */\n      jump\t// in\n    tag_216:\n        /* \"@openzeppelin/contracts/access/Ownable.sol\":2543:2758  function transferOwnership(address newOwner) public virtual onlyOwner {... */\n      pop\n      jump\t// out\n        /* \"moonx/moonx.sol\":506:563  uint256 public constant STUDENT_REWARD_AMOUNT = 10 * 1e18 */\n    tag_96:\n        /* \"moonx/moonx.sol\":554:563  10 * 1e18 */\n      0x8ac7230489e80000\n        /* \"moonx/moonx.sol\":506:563  uint256 public constant STUDENT_REWARD_AMOUNT = 10 * 1e18 */\n      dup2\n      jump\t// out\n        /* \"@openzeppelin/contracts/access/Ownable.sol\":1796:1958  function _checkOwner() internal view virtual {... */\n    tag_100:\n        /* \"@openzeppelin/contracts/access/Ownable.sol\":1866:1878  _msgSender() */\n      tag_218\n        /* \"@openzeppelin/contracts/access/Ownable.sol\":1866:1876  _msgSender */\n      tag_219\n        /* \"@openzeppelin/contracts/access/Ownable.sol\":1866:1878  _msgSender() */\n      jump\t// in\n    tag_218:\n        /* \"@openzeppelin/contracts/access/Ownable.sol\":1855:1878  owner() != _msgSender() */\n      0xffffffffffffffffffffffffffffffffffffffff\n      and\n        /* \"@openzeppelin/contracts/access/Ownable.sol\":1855:1862  owner() */\n      tag_220\n        /* \"@openzeppelin/contracts/access/Ownable.sol\":1855:1860  owner */\n      tag_66\n        /* \"@openzeppelin/contracts/access/Ownable.sol\":1855:1862  owner() */\n      jump\t// in\n    tag_220:\n        /* \"@openzeppelin/contracts/access/Ownable.sol\":1855:1878  owner() != _msgSender() */\n      0xffffffffffffffffffffffffffffffffffffffff\n      and\n      eq\n        /* \"@openzeppelin/contracts/access/Ownable.sol\":1851:1952  if (owner() != _msgSender()) {... */\n      tag_221\n      jumpi\n        /* \"@openzeppelin/contracts/access/Ownable.sol\":1928:1940  _msgSender() */\n      tag_222\n        /* \"@openzeppelin/contracts/access/Ownable.sol\":1928:1938  _msgSender */\n      tag_219\n        /* \"@openzeppelin/contracts/access/Ownable.sol\":1928:1940  _msgSender() */\n      jump\t// in\n    tag_222:\n        /* \"@openzeppelin/contracts/access/Ownable.sol\":1901:1941  OwnableUnauthorizedAccount(_msgSender()) */\n      mload(0x40)\n      0x118cdaa700000000000000000000000000000000000000000000000000000000\n      dup2\n      mstore\n      0x04\n      add\n      tag_223\n      swap2\n      swap1\n      tag_68\n      jump\t// in\n    tag_223:\n      mload(0x40)\n      dup1\n      swap2\n      sub\n      swap1\n      revert\n        /* \"@openzeppelin/contracts/access/Ownable.sol\":1851:1952  if (owner() != _msgSender()) {... */\n    tag_221:\n        /* \"@openzeppelin/contracts/access/Ownable.sol\":1796:1958  function _checkOwner() internal view virtual {... */\n      jump\t// out\n        /* \"@openzeppelin/contracts/access/Ownable.sol\":2912:3099  function _transferOwnership(address newOwner) internal virtual {... */\n    tag_140:\n        /* \"@openzeppelin/contracts/access/Ownable.sol\":2985:3001  address oldOwner */\n      0x00\n        /* \"@openzeppelin/contracts/access/Ownable.sol\":3004:3010  _owner */\n      dup1\n      0x00\n      swap1\n      sload\n      swap1\n      0x0100\n      exp\n      swap1\n      div\n      0xffffffffffffffffffffffffffffffffffffffff\n      and\n        /* \"@openzeppelin/contracts/access/Ownable.sol\":2985:3010  address oldOwner = _owner */\n      swap1\n      pop\n        /* \"@openzeppelin/contracts/access/Ownable.sol\":3029:3037  newOwner */\n      dup2\n        /* \"@openzeppelin/contracts/access/Ownable.sol\":3020:3026  _owner */\n      0x00\n      dup1\n        /* \"@openzeppelin/contracts/access/Ownable.sol\":3020:3037  _owner = newOwner */\n      0x0100\n      exp\n      dup2\n      sload\n      dup2\n      0xffffffffffffffffffffffffffffffffffffffff\n      mul\n      not\n      and\n      swap1\n      dup4\n      0xffffffffffffffffffffffffffffffffffffffff\n      and\n      mul\n      or\n      swap1\n      sstore\n      pop\n        /* \"@openzeppelin/contracts/access/Ownable.sol\":3083:3091  newOwner */\n      dup2\n        /* \"@openzeppelin/contracts/access/Ownable.sol\":3052:3092  OwnershipTransferred(oldOwner, newOwner) */\n      0xffffffffffffffffffffffffffffffffffffffff\n      and\n        /* \"@openzeppelin/contracts/access/Ownable.sol\":3073:3081  oldOwner */\n      dup2\n        /* \"@openzeppelin/contracts/access/Ownable.sol\":3052:3092  OwnershipTransferred(oldOwner, newOwner) */\n      0xffffffffffffffffffffffffffffffffffffffff\n      and\n      0x8be0079c531659141344cd1fd0a4f28419497f9722a3daafe3b4186f6b6457e0\n      mload(0x40)\n      mload(0x40)\n      dup1\n      swap2\n      sub\n      swap1\n      log3\n        /* \"@openzeppelin/contracts/access/Ownable.sol\":2975:3099  {... */\n      pop\n        /* \"@openzeppelin/contracts/access/Ownable.sol\":2912:3099  function _transferOwnership(address newOwner) internal virtual {... */\n      pop\n      jump\t// out\n        /* \"@openzeppelin/contracts/utils/Context.sol\":656:752  function _msgSender() internal view virtual returns (address) {... */\n    tag_219:\n        /* \"@openzeppelin/contracts/utils/Context.sol\":709:716  address */\n      0x00\n        /* \"@openzeppelin/contracts/utils/Context.sol\":735:745  msg.sender */\n      caller\n        /* \"@openzeppelin/contracts/utils/Context.sol\":728:745  return msg.sender */\n      swap1\n      pop\n        /* \"@openzeppelin/contracts/utils/Context.sol\":656:752  function _msgSender() internal view virtual returns (address) {... */\n      swap1\n      jump\t// out\n        /* \"#utility.yul\":7:82   */\n    tag_226:\n        /* \"#utility.yul\":40:46   */\n      0x00\n        /* \"#utility.yul\":73:75   */\n      0x40\n        /* \"#utility.yul\":67:76   */\n      mload\n        /* \"#utility.yul\":57:76   */\n      swap1\n      pop\n        /* \"#utility.yul\":7:82   */\n      swap1\n      jump\t// out\n        /* \"#utility.yul\":88:205   */\n    tag_227:\n        /* \"#utility.yul\":197:198   */\n      0x00\n        /* \"#utility.yul\":194:195   */\n      dup1\n        /* \"#utility.yul\":187:199   */\n      revert\n        /* \"#utility.yul\":211:328   */\n    tag_228:\n        /* \"#utility.yul\":320:321   */\n      0x00\n        /* \"#utility.yul\":317:318   */\n      dup1\n        /* \"#utility.yul\":310:322   */\n      revert\n        /* \"#utility.yul\":334:460   */\n    tag_229:\n        /* \"#utility.yul\":371:378   */\n      0x00\n        /* \"#utility.yul\":411:453   */\n      0xffffffffffffffffffffffffffffffffffffffff\n        /* \"#utility.yul\":404:409   */\n      dup3\n        /* \"#utility.yul\":400:454   */\n      and\n        /* \"#utility.yul\":389:454   */\n      swap1\n      pop\n        /* \"#utility.yul\":334:460   */\n      swap2\n      swap1\n      pop\n      jump\t// out\n        /* \"#utility.yul\":466:562   */\n    tag_230:\n        /* \"#utility.yul\":503:510   */\n      0x00\n        /* \"#utility.yul\":532:556   */\n      tag_317\n        /* \"#utility.yul\":550:555   */\n      dup3\n        /* \"#utility.yul\":532:556   */\n      tag_229\n      jump\t// in\n    tag_317:\n        /* \"#utility.yul\":521:556   */\n      swap1\n      pop\n        /* \"#utility.yul\":466:562   */\n      swap2\n      swap1\n      pop\n      jump\t// out\n        /* \"#utility.yul\":568:690   */\n    tag_231:\n        /* \"#utility.yul\":641:665   */\n      tag_319\n        /* \"#utility.yul\":659:664   */\n      dup2\n        /* \"#utility.yul\":641:665   */\n      tag_230\n      jump\t// in\n    tag_319:\n        /* \"#utility.yul\":634:639   */\n      dup2\n        /* \"#utility.yul\":631:666   */\n      eq\n        /* \"#utility.yul\":621:684   */\n      tag_320\n      jumpi\n        /* \"#utility.yul\":680:681   */\n      0x00\n        /* \"#utility.yul\":677:678   */\n      dup1\n        /* \"#utility.yul\":670:682   */\n      revert\n        /* \"#utility.yul\":621:684   */\n    tag_320:\n        /* \"#utility.yul\":568:690   */\n      pop\n      jump\t// out\n        /* \"#utility.yul\":696:835   */\n    tag_232:\n        /* \"#utility.yul\":742:747   */\n      0x00\n        /* \"#utility.yul\":780:786   */\n      dup2\n        /* \"#utility.yul\":767:787   */\n      calldataload\n        /* \"#utility.yul\":758:787   */\n      swap1\n      pop\n        /* \"#utility.yul\":796:829   */\n      tag_322\n        /* \"#utility.yul\":823:828   */\n      dup2\n        /* \"#utility.yul\":796:829   */\n      tag_231\n      jump\t// in\n    tag_322:\n        /* \"#utility.yul\":696:835   */\n      swap3\n      swap2\n      pop\n      pop\n      jump\t// out\n        /* \"#utility.yul\":841:918   */\n    tag_233:\n        /* \"#utility.yul\":878:885   */\n      0x00\n        /* \"#utility.yul\":907:912   */\n      dup2\n        /* \"#utility.yul\":896:912   */\n      swap1\n      pop\n        /* \"#utility.yul\":841:918   */\n      swap2\n      swap1\n      pop\n      jump\t// out\n        /* \"#utility.yul\":924:1046   */\n    tag_234:\n        /* \"#utility.yul\":997:1021   */\n      tag_325\n        /* \"#utility.yul\":1015:1020   */\n      dup2\n        /* \"#utility.yul\":997:1021   */\n      tag_233\n      jump\t// in\n    tag_325:\n        /* \"#utility.yul\":990:995   */\n      dup2\n        /* \"#utility.yul\":987:1022   */\n      eq\n        /* \"#utility.yul\":977:1040   */\n      tag_326\n      jumpi\n        /* \"#utility.yul\":1036:1037   */\n      0x00\n        /* \"#utility.yul\":1033:1034   */\n      dup1\n        /* \"#utility.yul\":1026:1038   */\n      revert\n        /* \"#utility.yul\":977:1040   */\n    tag_326:\n        /* \"#utility.yul\":924:1046   */\n      pop\n      jump\t// out\n        /* \"#utility.yul\":1052:1191   */\n    tag_235:\n        /* \"#utility.yul\":1098:1103   */\n      0x00\n        /* \"#utility.yul\":1136:1142   */\n      dup2\n        /* \"#utility.yul\":1123:1143   */\n      calldataload\n        /* \"#utility.yul\":1114:1143   */\n      swap1\n      pop\n        /* \"#utility.yul\":1152:1185   */\n      tag_328\n        /* \"#utility.yul\":1179:1184   */\n      dup2\n        /* \"#utility.yul\":1152:1185   */\n      tag_234\n      jump\t// in\n    tag_328:\n        /* \"#utility.yul\":1052:1191   */\n      swap3\n      swap2\n      pop\n      pop\n      jump\t// out\n        /* \"#utility.yul\":1197:1671   */\n    tag_28:\n        /* \"#utility.yul\":1265:1271   */\n      0x00\n        /* \"#utility.yul\":1273:1279   */\n      dup1\n        /* \"#utility.yul\":1322:1324   */\n      0x40\n        /* \"#utility.yul\":1310:1319   */\n      dup4\n        /* \"#utility.yul\":1301:1308   */\n      dup6\n        /* \"#utility.yul\":1297:1320   */\n      sub\n        /* \"#utility.yul\":1293:1325   */\n      slt\n        /* \"#utility.yul\":1290:1409   */\n      iszero\n      tag_330\n      jumpi\n        /* \"#utility.yul\":1328:1407   */\n      tag_331\n      tag_227\n      jump\t// in\n    tag_331:\n        /* \"#utility.yul\":1290:1409   */\n    tag_330:\n        /* \"#utility.yul\":1448:1449   */\n      0x00\n        /* \"#utility.yul\":1473:1526   */\n      tag_332\n        /* \"#utility.yul\":1518:1525   */\n      dup6\n        /* \"#utility.yul\":1509:1515   */\n      dup3\n        /* \"#utility.yul\":1498:1507   */\n      dup7\n        /* \"#utility.yul\":1494:1516   */\n      add\n        /* \"#utility.yul\":1473:1526   */\n      tag_232\n      jump\t// in\n    tag_332:\n        /* \"#utility.yul\":1463:1526   */\n      swap3\n      pop\n        /* \"#utility.yul\":1419:1536   */\n      pop\n        /* \"#utility.yul\":1575:1577   */\n      0x20\n        /* \"#utility.yul\":1601:1654   */\n      tag_333\n        /* \"#utility.yul\":1646:1653   */\n      dup6\n        /* \"#utility.yul\":1637:1643   */\n      dup3\n        /* \"#utility.yul\":1626:1635   */\n      dup7\n        /* \"#utility.yul\":1622:1644   */\n      add\n        /* \"#utility.yul\":1601:1654   */\n      tag_235\n      jump\t// in\n    tag_333:\n        /* \"#utility.yul\":1591:1654   */\n      swap2\n      pop\n        /* \"#utility.yul\":1546:1664   */\n      pop\n        /* \"#utility.yul\":1197:1671   */\n      swap3\n      pop\n      swap3\n      swap1\n      pop\n      jump\t// out\n        /* \"#utility.yul\":1677:1767   */\n    tag_236:\n        /* \"#utility.yul\":1711:1718   */\n      0x00\n        /* \"#utility.yul\":1754:1759   */\n      dup2\n        /* \"#utility.yul\":1747:1760   */\n      iszero\n        /* \"#utility.yul\":1740:1761   */\n      iszero\n        /* \"#utility.yul\":1729:1761   */\n      swap1\n      pop\n        /* \"#utility.yul\":1677:1767   */\n      swap2\n      swap1\n      pop\n      jump\t// out\n        /* \"#utility.yul\":1773:1882   */\n    tag_237:\n        /* \"#utility.yul\":1854:1875   */\n      tag_336\n        /* \"#utility.yul\":1869:1874   */\n      dup2\n        /* \"#utility.yul\":1854:1875   */\n      tag_236\n      jump\t// in\n    tag_336:\n        /* \"#utility.yul\":1849:1852   */\n      dup3\n        /* \"#utility.yul\":1842:1876   */\n      mstore\n        /* \"#utility.yul\":1773:1882   */\n      pop\n      pop\n      jump\t// out\n        /* \"#utility.yul\":1888:1974   */\n    tag_238:\n        /* \"#utility.yul\":1923:1930   */\n      0x00\n        /* \"#utility.yul\":1963:1967   */\n      0xff\n        /* \"#utility.yul\":1956:1961   */\n      dup3\n        /* \"#utility.yul\":1952:1968   */\n      and\n        /* \"#utility.yul\":1941:1968   */\n      swap1\n      pop\n        /* \"#utility.yul\":1888:1974   */\n      swap2\n      swap1\n      pop\n      jump\t// out\n        /* \"#utility.yul\":1980:2092   */\n    tag_239:\n        /* \"#utility.yul\":2063:2085   */\n      tag_339\n        /* \"#utility.yul\":2079:2084   */\n      dup2\n        /* \"#utility.yul\":2063:2085   */\n      tag_238\n      jump\t// in\n    tag_339:\n        /* \"#utility.yul\":2058:2061   */\n      dup3\n        /* \"#utility.yul\":2051:2086   */\n      mstore\n        /* \"#utility.yul\":1980:2092   */\n      pop\n      pop\n      jump\t// out\n        /* \"#utility.yul\":2098:2607   */\n    tag_31:\n        /* \"#utility.yul\":2253:2257   */\n      0x00\n        /* \"#utility.yul\":2291:2294   */\n      0x80\n        /* \"#utility.yul\":2280:2289   */\n      dup3\n        /* \"#utility.yul\":2276:2295   */\n      add\n        /* \"#utility.yul\":2268:2295   */\n      swap1\n      pop\n        /* \"#utility.yul\":2305:2370   */\n      tag_341\n        /* \"#utility.yul\":2367:2368   */\n      0x00\n        /* \"#utility.yul\":2356:2365   */\n      dup4\n        /* \"#utility.yul\":2352:2369   */\n      add\n        /* \"#utility.yul\":2343:2349   */\n      dup8\n        /* \"#utility.yul\":2305:2370   */\n      tag_237\n      jump\t// in\n    tag_341:\n        /* \"#utility.yul\":2380:2448   */\n      tag_342\n        /* \"#utility.yul\":2444:2446   */\n      0x20\n        /* \"#utility.yul\":2433:2442   */\n      dup4\n        /* \"#utility.yul\":2429:2447   */\n      add\n        /* \"#utility.yul\":2420:2426   */\n      dup7\n        /* \"#utility.yul\":2380:2448   */\n      tag_239\n      jump\t// in\n    tag_342:\n        /* \"#utility.yul\":2458:2524   */\n      tag_343\n        /* \"#utility.yul\":2520:2522   */\n      0x40\n        /* \"#utility.yul\":2509:2518   */\n      dup4\n        /* \"#utility.yul\":2505:2523   */\n      add\n        /* \"#utility.yul\":2496:2502   */\n      dup6\n        /* \"#utility.yul\":2458:2524   */\n      tag_237\n      jump\t// in\n    tag_343:\n        /* \"#utility.yul\":2534:2600   */\n      tag_344\n        /* \"#utility.yul\":2596:2598   */\n      0x60\n        /* \"#utility.yul\":2585:2594   */\n      dup4\n        /* \"#utility.yul\":2581:2599   */\n      add\n        /* \"#utility.yul\":2572:2578   */\n      dup5\n        /* \"#utility.yul\":2534:2600   */\n      tag_237\n      jump\t// in\n    tag_344:\n        /* \"#utility.yul\":2098:2607   */\n      swap6\n      swap5\n      pop\n      pop\n      pop\n      pop\n      pop\n      jump\t// out\n        /* \"#utility.yul\":2613:2729   */\n    tag_240:\n        /* \"#utility.yul\":2683:2704   */\n      tag_346\n        /* \"#utility.yul\":2698:2703   */\n      dup2\n        /* \"#utility.yul\":2683:2704   */\n      tag_236\n      jump\t// in\n    tag_346:\n        /* \"#utility.yul\":2676:2681   */\n      dup2\n        /* \"#utility.yul\":2673:2705   */\n      eq\n        /* \"#utility.yul\":2663:2723   */\n      tag_347\n      jumpi\n        /* \"#utility.yul\":2719:2720   */\n      0x00\n        /* \"#utility.yul\":2716:2717   */\n      dup1\n        /* \"#utility.yul\":2709:2721   */\n      revert\n        /* \"#utility.yul\":2663:2723   */\n    tag_347:\n        /* \"#utility.yul\":2613:2729   */\n      pop\n      jump\t// out\n        /* \"#utility.yul\":2735:2868   */\n    tag_241:\n        /* \"#utility.yul\":2778:2783   */\n      0x00\n        /* \"#utility.yul\":2816:2822   */\n      dup2\n        /* \"#utility.yul\":2803:2823   */\n      calldataload\n        /* \"#utility.yul\":2794:2823   */\n      swap1\n      pop\n        /* \"#utility.yul\":2832:2862   */\n      tag_349\n        /* \"#utility.yul\":2856:2861   */\n      dup2\n        /* \"#utility.yul\":2832:2862   */\n      tag_240\n      jump\t// in\n    tag_349:\n        /* \"#utility.yul\":2735:2868   */\n      swap3\n      swap2\n      pop\n      pop\n      jump\t// out\n        /* \"#utility.yul\":2874:3487   */\n    tag_34:\n        /* \"#utility.yul\":2948:2954   */\n      0x00\n        /* \"#utility.yul\":2956:2962   */\n      dup1\n        /* \"#utility.yul\":2964:2970   */\n      0x00\n        /* \"#utility.yul\":3013:3015   */\n      0x60\n        /* \"#utility.yul\":3001:3010   */\n      dup5\n        /* \"#utility.yul\":2992:2999   */\n      dup7\n        /* \"#utility.yul\":2988:3011   */\n      sub\n        /* \"#utility.yul\":2984:3016   */\n      slt\n        /* \"#utility.yul\":2981:3100   */\n      iszero\n      tag_351\n      jumpi\n        /* \"#utility.yul\":3019:3098   */\n      tag_352\n      tag_227\n      jump\t// in\n    tag_352:\n        /* \"#utility.yul\":2981:3100   */\n    tag_351:\n        /* \"#utility.yul\":3139:3140   */\n      0x00\n        /* \"#utility.yul\":3164:3217   */\n      tag_353\n        /* \"#utility.yul\":3209:3216   */\n      dup7\n        /* \"#utility.yul\":3200:3206   */\n      dup3\n        /* \"#utility.yul\":3189:3198   */\n      dup8\n        /* \"#utility.yul\":3185:3207   */\n      add\n        /* \"#utility.yul\":3164:3217   */\n      tag_235\n      jump\t// in\n    tag_353:\n        /* \"#utility.yul\":3154:3217   */\n      swap4\n      pop\n        /* \"#utility.yul\":3110:3227   */\n      pop\n        /* \"#utility.yul\":3266:3268   */\n      0x20\n        /* \"#utility.yul\":3292:3345   */\n      tag_354\n        /* \"#utility.yul\":3337:3344   */\n      dup7\n        /* \"#utility.yul\":3328:3334   */\n      dup3\n        /* \"#utility.yul\":3317:3326   */\n      dup8\n        /* \"#utility.yul\":3313:3335   */\n      add\n        /* \"#utility.yul\":3292:3345   */\n      tag_232\n      jump\t// in\n    tag_354:\n        /* \"#utility.yul\":3282:3345   */\n      swap3\n      pop\n        /* \"#utility.yul\":3237:3355   */\n      pop\n        /* \"#utility.yul\":3394:3396   */\n      0x40\n        /* \"#utility.yul\":3420:3470   */\n      tag_355\n        /* \"#utility.yul\":3462:3469   */\n      dup7\n        /* \"#utility.yul\":3453:3459   */\n      dup3\n        /* \"#utility.yul\":3442:3451   */\n      dup8\n        /* \"#utility.yul\":3438:3460   */\n      add\n        /* \"#utility.yul\":3420:3470   */\n      tag_241\n      jump\t// in\n    tag_355:\n        /* \"#utility.yul\":3410:3470   */\n      swap2\n      pop\n        /* \"#utility.yul\":3365:3480   */\n      pop\n        /* \"#utility.yul\":2874:3487   */\n      swap3\n      pop\n      swap3\n      pop\n      swap3\n      jump\t// out\n        /* \"#utility.yul\":3493:3553   */\n    tag_242:\n        /* \"#utility.yul\":3521:3524   */\n      0x00\n        /* \"#utility.yul\":3542:3547   */\n      dup2\n        /* \"#utility.yul\":3535:3547   */\n      swap1\n      pop\n        /* \"#utility.yul\":3493:3553   */\n      swap2\n      swap1\n      pop\n      jump\t// out\n        /* \"#utility.yul\":3559:3701   */\n    tag_243:\n        /* \"#utility.yul\":3609:3618   */\n      0x00\n        /* \"#utility.yul\":3642:3695   */\n      tag_358\n        /* \"#utility.yul\":3660:3694   */\n      tag_359\n        /* \"#utility.yul\":3669:3693   */\n      tag_360\n        /* \"#utility.yul\":3687:3692   */\n      dup5\n        /* \"#utility.yul\":3669:3693   */\n      tag_229\n      jump\t// in\n    tag_360:\n        /* \"#utility.yul\":3660:3694   */\n      tag_242\n      jump\t// in\n    tag_359:\n        /* \"#utility.yul\":3642:3695   */\n      tag_229\n      jump\t// in\n    tag_358:\n        /* \"#utility.yul\":3629:3695   */\n      swap1\n      pop\n        /* \"#utility.yul\":3559:3701   */\n      swap2\n      swap1\n      pop\n      jump\t// out\n        /* \"#utility.yul\":3707:3833   */\n    tag_244:\n        /* \"#utility.yul\":3757:3766   */\n      0x00\n        /* \"#utility.yul\":3790:3827   */\n      tag_362\n        /* \"#utility.yul\":3821:3826   */\n      dup3\n        /* \"#utility.yul\":3790:3827   */\n      tag_243\n      jump\t// in\n    tag_362:\n        /* \"#utility.yul\":3777:3827   */\n      swap1\n      pop\n        /* \"#utility.yul\":3707:3833   */\n      swap2\n      swap1\n      pop\n      jump\t// out\n        /* \"#utility.yul\":3839:3979   */\n    tag_245:\n        /* \"#utility.yul\":3903:3912   */\n      0x00\n        /* \"#utility.yul\":3936:3973   */\n      tag_364\n        /* \"#utility.yul\":3967:3972   */\n      dup3\n        /* \"#utility.yul\":3936:3973   */\n      tag_244\n      jump\t// in\n    tag_364:\n        /* \"#utility.yul\":3923:3973   */\n      swap1\n      pop\n        /* \"#utility.yul\":3839:3979   */\n      swap2\n      swap1\n      pop\n      jump\t// out\n        /* \"#utility.yul\":3985:4144   */\n    tag_246:\n        /* \"#utility.yul\":4086:4137   */\n      tag_366\n        /* \"#utility.yul\":4131:4136   */\n      dup2\n        /* \"#utility.yul\":4086:4137   */\n      tag_245\n      jump\t// in\n    tag_366:\n        /* \"#utility.yul\":4081:4084   */\n      dup3\n        /* \"#utility.yul\":4074:4138   */\n      mstore\n        /* \"#utility.yul\":3985:4144   */\n      pop\n      pop\n      jump\t// out\n        /* \"#utility.yul\":4150:4400   */\n    tag_39:\n        /* \"#utility.yul\":4257:4261   */\n      0x00\n        /* \"#utility.yul\":4295:4297   */\n      0x20\n        /* \"#utility.yul\":4284:4293   */\n      dup3\n        /* \"#utility.yul\":4280:4298   */\n      add\n        /* \"#utility.yul\":4272:4298   */\n      swap1\n      pop\n        /* \"#utility.yul\":4308:4393   */\n      tag_368\n        /* \"#utility.yul\":4390:4391   */\n      0x00\n        /* \"#utility.yul\":4379:4388   */\n      dup4\n        /* \"#utility.yul\":4375:4392   */\n      add\n        /* \"#utility.yul\":4366:4372   */\n      dup5\n        /* \"#utility.yul\":4308:4393   */\n      tag_246\n      jump\t// in\n    tag_368:\n        /* \"#utility.yul\":4150:4400   */\n      swap3\n      swap2\n      pop\n      pop\n      jump\t// out\n        /* \"#utility.yul\":4406:4735   */\n    tag_42:\n        /* \"#utility.yul\":4465:4471   */\n      0x00\n        /* \"#utility.yul\":4514:4516   */\n      0x20\n        /* \"#utility.yul\":4502:4511   */\n      dup3\n        /* \"#utility.yul\":4493:4500   */\n      dup5\n        /* \"#utility.yul\":4489:4512   */\n      sub\n        /* \"#utility.yul\":4485:4517   */\n      slt\n        /* \"#utility.yul\":4482:4601   */\n      iszero\n      tag_370\n      jumpi\n        /* \"#utility.yul\":4520:4599   */\n      tag_371\n      tag_227\n      jump\t// in\n    tag_371:\n        /* \"#utility.yul\":4482:4601   */\n    tag_370:\n        /* \"#utility.yul\":4640:4641   */\n      0x00\n        /* \"#utility.yul\":4665:4718   */\n      tag_372\n        /* \"#utility.yul\":4710:4717   */\n      dup5\n        /* \"#utility.yul\":4701:4707   */\n      dup3\n        /* \"#utility.yul\":4690:4699   */\n      dup6\n        /* \"#utility.yul\":4686:4708   */\n      add\n        /* \"#utility.yul\":4665:4718   */\n      tag_232\n      jump\t// in\n    tag_372:\n        /* \"#utility.yul\":4655:4718   */\n      swap2\n      pop\n        /* \"#utility.yul\":4611:4728   */\n      pop\n        /* \"#utility.yul\":4406:4735   */\n      swap3\n      swap2\n      pop\n      pop\n      jump\t// out\n        /* \"#utility.yul\":4741:5070   */\n    tag_46:\n        /* \"#utility.yul\":4800:4806   */\n      0x00\n        /* \"#utility.yul\":4849:4851   */\n      0x20\n        /* \"#utility.yul\":4837:4846   */\n      dup3\n        /* \"#utility.yul\":4828:4835   */\n      dup5\n        /* \"#utility.yul\":4824:4847   */\n      sub\n        /* \"#utility.yul\":4820:4852   */\n      slt\n        /* \"#utility.yul\":4817:4936   */\n      iszero\n      tag_374\n      jumpi\n        /* \"#utility.yul\":4855:4934   */\n      tag_375\n      tag_227\n      jump\t// in\n    tag_375:\n        /* \"#utility.yul\":4817:4936   */\n    tag_374:\n        /* \"#utility.yul\":4975:4976   */\n      0x00\n        /* \"#utility.yul\":5000:5053   */\n      tag_376\n        /* \"#utility.yul\":5045:5052   */\n      dup5\n        /* \"#utility.yul\":5036:5042   */\n      dup3\n        /* \"#utility.yul\":5025:5034   */\n      dup6\n        /* \"#utility.yul\":5021:5043   */\n      add\n        /* \"#utility.yul\":5000:5053   */\n      tag_235\n      jump\t// in\n    tag_376:\n        /* \"#utility.yul\":4990:5053   */\n      swap2\n      pop\n        /* \"#utility.yul\":4946:5063   */\n      pop\n        /* \"#utility.yul\":4741:5070   */\n      swap3\n      swap2\n      pop\n      pop\n      jump\t// out\n        /* \"#utility.yul\":5076:5194   */\n    tag_247:\n        /* \"#utility.yul\":5163:5187   */\n      tag_378\n        /* \"#utility.yul\":5181:5186   */\n      dup2\n        /* \"#utility.yul\":5163:5187   */\n      tag_233\n      jump\t// in\n    tag_378:\n        /* \"#utility.yul\":5158:5161   */\n      dup3\n        /* \"#utility.yul\":5151:5188   */\n      mstore\n        /* \"#utility.yul\":5076:5194   */\n      pop\n      pop\n      jump\t// out\n        /* \"#utility.yul\":5200:5422   */\n    tag_51:\n        /* \"#utility.yul\":5293:5297   */\n      0x00\n        /* \"#utility.yul\":5331:5333   */\n      0x20\n        /* \"#utility.yul\":5320:5329   */\n      dup3\n        /* \"#utility.yul\":5316:5334   */\n      add\n        /* \"#utility.yul\":5308:5334   */\n      swap1\n      pop\n        /* \"#utility.yul\":5344:5415   */\n      tag_380\n        /* \"#utility.yul\":5412:5413   */\n      0x00\n        /* \"#utility.yul\":5401:5410   */\n      dup4\n        /* \"#utility.yul\":5397:5414   */\n      add\n        /* \"#utility.yul\":5388:5394   */\n      dup5\n        /* \"#utility.yul\":5344:5415   */\n      tag_247\n      jump\t// in\n    tag_380:\n        /* \"#utility.yul\":5200:5422   */\n      swap3\n      swap2\n      pop\n      pop\n      jump\t// out\n        /* \"#utility.yul\":5428:5581   */\n    tag_248:\n        /* \"#utility.yul\":5505:5514   */\n      0x00\n        /* \"#utility.yul\":5538:5575   */\n      tag_382\n        /* \"#utility.yul\":5569:5574   */\n      dup3\n        /* \"#utility.yul\":5538:5575   */\n      tag_244\n      jump\t// in\n    tag_382:\n        /* \"#utility.yul\":5525:5575   */\n      swap1\n      pop\n        /* \"#utility.yul\":5428:5581   */\n      swap2\n      swap1\n      pop\n      jump\t// out\n        /* \"#utility.yul\":5587:5772   */\n    tag_249:\n        /* \"#utility.yul\":5701:5765   */\n      tag_384\n        /* \"#utility.yul\":5759:5764   */\n      dup2\n        /* \"#utility.yul\":5701:5765   */\n      tag_248\n      jump\t// in\n    tag_384:\n        /* \"#utility.yul\":5696:5699   */\n      dup3\n        /* \"#utility.yul\":5689:5766   */\n      mstore\n        /* \"#utility.yul\":5587:5772   */\n      pop\n      pop\n      jump\t// out\n        /* \"#utility.yul\":5778:6054   */\n    tag_60:\n        /* \"#utility.yul\":5898:5902   */\n      0x00\n        /* \"#utility.yul\":5936:5938   */\n      0x20\n        /* \"#utility.yul\":5925:5934   */\n      dup3\n        /* \"#utility.yul\":5921:5939   */\n      add\n        /* \"#utility.yul\":5913:5939   */\n      swap1\n      pop\n        /* \"#utility.yul\":5949:6047   */\n      tag_386\n        /* \"#utility.yul\":6044:6045   */\n      0x00\n        /* \"#utility.yul\":6033:6042   */\n      dup4\n        /* \"#utility.yul\":6029:6046   */\n      add\n        /* \"#utility.yul\":6020:6026   */\n      dup5\n        /* \"#utility.yul\":5949:6047   */\n      tag_249\n      jump\t// in\n    tag_386:\n        /* \"#utility.yul\":5778:6054   */\n      swap3\n      swap2\n      pop\n      pop\n      jump\t// out\n        /* \"#utility.yul\":6060:6177   */\n    tag_250:\n        /* \"#utility.yul\":6169:6170   */\n      0x00\n        /* \"#utility.yul\":6166:6167   */\n      dup1\n        /* \"#utility.yul\":6159:6171   */\n      revert\n        /* \"#utility.yul\":6183:6300   */\n    tag_251:\n        /* \"#utility.yul\":6292:6293   */\n      0x00\n        /* \"#utility.yul\":6289:6290   */\n      dup1\n        /* \"#utility.yul\":6282:6294   */\n      revert\n        /* \"#utility.yul\":6306:6408   */\n    tag_252:\n        /* \"#utility.yul\":6347:6353   */\n      0x00\n        /* \"#utility.yul\":6398:6400   */\n      0x1f\n        /* \"#utility.yul\":6394:6401   */\n      not\n        /* \"#utility.yul\":6389:6391   */\n      0x1f\n        /* \"#utility.yul\":6382:6387   */\n      dup4\n        /* \"#utility.yul\":6378:6392   */\n      add\n        /* \"#utility.yul\":6374:6402   */\n      and\n        /* \"#utility.yul\":6364:6402   */\n      swap1\n      pop\n        /* \"#utility.yul\":6306:6408   */\n      swap2\n      swap1\n      pop\n      jump\t// out\n        /* \"#utility.yul\":6414:6594   */\n    tag_253:\n        /* \"#utility.yul\":6462:6539   */\n      0x4e487b7100000000000000000000000000000000000000000000000000000000\n        /* \"#utility.yul\":6459:6460   */\n      0x00\n        /* \"#utility.yul\":6452:6540   */\n      mstore\n        /* \"#utility.yul\":6559:6563   */\n      0x41\n        /* \"#utility.yul\":6556:6557   */\n      0x04\n        /* \"#utility.yul\":6549:6564   */\n      mstore\n        /* \"#utility.yul\":6583:6587   */\n      0x24\n        /* \"#utility.yul\":6580:6581   */\n      0x00\n        /* \"#utility.yul\":6573:6588   */\n      revert\n        /* \"#utility.yul\":6600:6881   */\n    tag_254:\n        /* \"#utility.yul\":6683:6710   */\n      tag_392\n        /* \"#utility.yul\":6705:6709   */\n      dup3\n        /* \"#utility.yul\":6683:6710   */\n      tag_252\n      jump\t// in\n    tag_392:\n        /* \"#utility.yul\":6675:6681   */\n      dup2\n        /* \"#utility.yul\":6671:6711   */\n      add\n        /* \"#utility.yul\":6813:6819   */\n      dup2\n        /* \"#utility.yul\":6801:6811   */\n      dup2\n        /* \"#utility.yul\":6798:6820   */\n      lt\n        /* \"#utility.yul\":6777:6795   */\n      0xffffffffffffffff\n        /* \"#utility.yul\":6765:6775   */\n      dup3\n        /* \"#utility.yul\":6762:6796   */\n      gt\n        /* \"#utility.yul\":6759:6821   */\n      or\n        /* \"#utility.yul\":6756:6844   */\n      iszero\n      tag_393\n      jumpi\n        /* \"#utility.yul\":6824:6842   */\n      tag_394\n      tag_253\n      jump\t// in\n    tag_394:\n        /* \"#utility.yul\":6756:6844   */\n    tag_393:\n        /* \"#utility.yul\":6864:6874   */\n      dup1\n        /* \"#utility.yul\":6860:6862   */\n      0x40\n        /* \"#utility.yul\":6853:6875   */\n      mstore\n        /* \"#utility.yul\":6643:6881   */\n      pop\n        /* \"#utility.yul\":6600:6881   */\n      pop\n      pop\n      jump\t// out\n        /* \"#utility.yul\":6887:7016   */\n    tag_255:\n        /* \"#utility.yul\":6921:6927   */\n      0x00\n        /* \"#utility.yul\":6948:6968   */\n      tag_396\n      tag_226\n      jump\t// in\n    tag_396:\n        /* \"#utility.yul\":6938:6968   */\n      swap1\n      pop\n        /* \"#utility.yul\":6977:7010   */\n      tag_397\n        /* \"#utility.yul\":7005:7009   */\n      dup3\n        /* \"#utility.yul\":6997:7003   */\n      dup3\n        /* \"#utility.yul\":6977:7010   */\n      tag_254\n      jump\t// in\n    tag_397:\n        /* \"#utility.yul\":6887:7016   */\n      swap2\n      swap1\n      pop\n      jump\t// out\n        /* \"#utility.yul\":7022:7330   */\n    tag_256:\n        /* \"#utility.yul\":7084:7088   */\n      0x00\n        /* \"#utility.yul\":7174:7192   */\n      0xffffffffffffffff\n        /* \"#utility.yul\":7166:7172   */\n      dup3\n        /* \"#utility.yul\":7163:7193   */\n      gt\n        /* \"#utility.yul\":7160:7216   */\n      iszero\n      tag_399\n      jumpi\n        /* \"#utility.yul\":7196:7214   */\n      tag_400\n      tag_253\n      jump\t// in\n    tag_400:\n        /* \"#utility.yul\":7160:7216   */\n    tag_399:\n        /* \"#utility.yul\":7234:7263   */\n      tag_401\n        /* \"#utility.yul\":7256:7262   */\n      dup3\n        /* \"#utility.yul\":7234:7263   */\n      tag_252\n      jump\t// in\n    tag_401:\n        /* \"#utility.yul\":7226:7263   */\n      swap1\n      pop\n        /* \"#utility.yul\":7318:7322   */\n      0x20\n        /* \"#utility.yul\":7312:7316   */\n      dup2\n        /* \"#utility.yul\":7308:7323   */\n      add\n        /* \"#utility.yul\":7300:7323   */\n      swap1\n      pop\n        /* \"#utility.yul\":7022:7330   */\n      swap2\n      swap1\n      pop\n      jump\t// out\n        /* \"#utility.yul\":7336:7484   */\n    tag_257:\n        /* \"#utility.yul\":7434:7440   */\n      dup3\n        /* \"#utility.yul\":7429:7432   */\n      dup2\n        /* \"#utility.yul\":7424:7427   */\n      dup4\n        /* \"#utility.yul\":7411:7441   */\n      calldatacopy\n        /* \"#utility.yul\":7475:7476   */\n      0x00\n        /* \"#utility.yul\":7466:7472   */\n      dup4\n        /* \"#utility.yul\":7461:7464   */\n      dup4\n        /* \"#utility.yul\":7457:7473   */\n      add\n        /* \"#utility.yul\":7450:7477   */\n      mstore\n        /* \"#utility.yul\":7336:7484   */\n      pop\n      pop\n      pop\n      jump\t// out\n        /* \"#utility.yul\":7490:7915   */\n    tag_258:\n        /* \"#utility.yul\":7568:7573   */\n      0x00\n        /* \"#utility.yul\":7593:7659   */\n      tag_404\n        /* \"#utility.yul\":7609:7658   */\n      tag_405\n        /* \"#utility.yul\":7651:7657   */\n      dup5\n        /* \"#utility.yul\":7609:7658   */\n      tag_256\n      jump\t// in\n    tag_405:\n        /* \"#utility.yul\":7593:7659   */\n      tag_255\n      jump\t// in\n    tag_404:\n        /* \"#utility.yul\":7584:7659   */\n      swap1\n      pop\n        /* \"#utility.yul\":7682:7688   */\n      dup3\n        /* \"#utility.yul\":7675:7680   */\n      dup2\n        /* \"#utility.yul\":7668:7689   */\n      mstore\n        /* \"#utility.yul\":7720:7724   */\n      0x20\n        /* \"#utility.yul\":7713:7718   */\n      dup2\n        /* \"#utility.yul\":7709:7725   */\n      add\n        /* \"#utility.yul\":7758:7761   */\n      dup5\n        /* \"#utility.yul\":7749:7755   */\n      dup5\n        /* \"#utility.yul\":7744:7747   */\n      dup5\n        /* \"#utility.yul\":7740:7756   */\n      add\n        /* \"#utility.yul\":7737:7762   */\n      gt\n        /* \"#utility.yul\":7734:7846   */\n      iszero\n      tag_406\n      jumpi\n        /* \"#utility.yul\":7765:7844   */\n      tag_407\n      tag_251\n      jump\t// in\n    tag_407:\n        /* \"#utility.yul\":7734:7846   */\n    tag_406:\n        /* \"#utility.yul\":7855:7909   */\n      tag_408\n        /* \"#utility.yul\":7902:7908   */\n      dup5\n        /* \"#utility.yul\":7897:7900   */\n      dup3\n        /* \"#utility.yul\":7892:7895   */\n      dup6\n        /* \"#utility.yul\":7855:7909   */\n      tag_257\n      jump\t// in\n    tag_408:\n        /* \"#utility.yul\":7574:7915   */\n      pop\n        /* \"#utility.yul\":7490:7915   */\n      swap4\n      swap3\n      pop\n      pop\n      pop\n      jump\t// out\n        /* \"#utility.yul\":7935:8275   */\n    tag_259:\n        /* \"#utility.yul\":7991:7996   */\n      0x00\n        /* \"#utility.yul\":8040:8043   */\n      dup3\n        /* \"#utility.yul\":8033:8037   */\n      0x1f\n        /* \"#utility.yul\":8025:8031   */\n      dup4\n        /* \"#utility.yul\":8021:8038   */\n      add\n        /* \"#utility.yul\":8017:8044   */\n      slt\n        /* \"#utility.yul\":8007:8129   */\n      tag_410\n      jumpi\n        /* \"#utility.yul\":8048:8127   */\n      tag_411\n      tag_250\n      jump\t// in\n    tag_411:\n        /* \"#utility.yul\":8007:8129   */\n    tag_410:\n        /* \"#utility.yul\":8165:8171   */\n      dup2\n        /* \"#utility.yul\":8152:8172   */\n      calldataload\n        /* \"#utility.yul\":8190:8269   */\n      tag_412\n        /* \"#utility.yul\":8265:8268   */\n      dup5\n        /* \"#utility.yul\":8257:8263   */\n      dup3\n        /* \"#utility.yul\":8250:8254   */\n      0x20\n        /* \"#utility.yul\":8242:8248   */\n      dup7\n        /* \"#utility.yul\":8238:8255   */\n      add\n        /* \"#utility.yul\":8190:8269   */\n      tag_258\n      jump\t// in\n    tag_412:\n        /* \"#utility.yul\":8181:8269   */\n      swap2\n      pop\n        /* \"#utility.yul\":7997:8275   */\n      pop\n        /* \"#utility.yul\":7935:8275   */\n      swap3\n      swap2\n      pop\n      pop\n      jump\t// out\n        /* \"#utility.yul\":8281:8790   */\n    tag_63:\n        /* \"#utility.yul\":8350:8356   */\n      0x00\n        /* \"#utility.yul\":8399:8401   */\n      0x20\n        /* \"#utility.yul\":8387:8396   */\n      dup3\n        /* \"#utility.yul\":8378:8385   */\n      dup5\n        /* \"#utility.yul\":8374:8397   */\n      sub\n        /* \"#utility.yul\":8370:8402   */\n      slt\n        /* \"#utility.yul\":8367:8486   */\n      iszero\n      tag_414\n      jumpi\n        /* \"#utility.yul\":8405:8484   */\n      tag_415\n      tag_227\n      jump\t// in\n    tag_415:\n        /* \"#utility.yul\":8367:8486   */\n    tag_414:\n        /* \"#utility.yul\":8553:8554   */\n      0x00\n        /* \"#utility.yul\":8542:8551   */\n      dup3\n        /* \"#utility.yul\":8538:8555   */\n      add\n        /* \"#utility.yul\":8525:8556   */\n      calldataload\n        /* \"#utility.yul\":8583:8601   */\n      0xffffffffffffffff\n        /* \"#utility.yul\":8575:8581   */\n      dup2\n        /* \"#utility.yul\":8572:8602   */\n      gt\n        /* \"#utility.yul\":8569:8686   */\n      iszero\n      tag_416\n      jumpi\n        /* \"#utility.yul\":8605:8684   */\n      tag_417\n      tag_228\n      jump\t// in\n    tag_417:\n        /* \"#utility.yul\":8569:8686   */\n    tag_416:\n        /* \"#utility.yul\":8710:8773   */\n      tag_418\n        /* \"#utility.yul\":8765:8772   */\n      dup5\n        /* \"#utility.yul\":8756:8762   */\n      dup3\n        /* \"#utility.yul\":8745:8754   */\n      dup6\n        /* \"#utility.yul\":8741:8763   */\n      add\n        /* \"#utility.yul\":8710:8773   */\n      tag_259\n      jump\t// in\n    tag_418:\n        /* \"#utility.yul\":8700:8773   */\n      swap2\n      pop\n        /* \"#utility.yul\":8496:8783   */\n      pop\n        /* \"#utility.yul\":8281:8790   */\n      swap3\n      swap2\n      pop\n      pop\n      jump\t// out\n        /* \"#utility.yul\":8796:8914   */\n    tag_260:\n        /* \"#utility.yul\":8883:8907   */\n      tag_420\n        /* \"#utility.yul\":8901:8906   */\n      dup2\n        /* \"#utility.yul\":8883:8907   */\n      tag_230\n      jump\t// in\n    tag_420:\n        /* \"#utility.yul\":8878:8881   */\n      dup3\n        /* \"#utility.yul\":8871:8908   */\n      mstore\n        /* \"#utility.yul\":8796:8914   */\n      pop\n      pop\n      jump\t// out\n        /* \"#utility.yul\":8920:9142   */\n    tag_68:\n        /* \"#utility.yul\":9013:9017   */\n      0x00\n        /* \"#utility.yul\":9051:9053   */\n      0x20\n        /* \"#utility.yul\":9040:9049   */\n      dup3\n        /* \"#utility.yul\":9036:9054   */\n      add\n        /* \"#utility.yul\":9028:9054   */\n      swap1\n      pop\n        /* \"#utility.yul\":9064:9135   */\n      tag_422\n        /* \"#utility.yul\":9132:9133   */\n      0x00\n        /* \"#utility.yul\":9121:9130   */\n      dup4\n        /* \"#utility.yul\":9117:9134   */\n      add\n        /* \"#utility.yul\":9108:9114   */\n      dup5\n        /* \"#utility.yul\":9064:9135   */\n      tag_260\n      jump\t// in\n    tag_422:\n        /* \"#utility.yul\":8920:9142   */\n      swap3\n      swap2\n      pop\n      pop\n      jump\t// out\n        /* \"#utility.yul\":9148:9247   */\n    tag_261:\n        /* \"#utility.yul\":9200:9206   */\n      0x00\n        /* \"#utility.yul\":9234:9239   */\n      dup2\n        /* \"#utility.yul\":9228:9240   */\n      mload\n        /* \"#utility.yul\":9218:9240   */\n      swap1\n      pop\n        /* \"#utility.yul\":9148:9247   */\n      swap2\n      swap1\n      pop\n      jump\t// out\n        /* \"#utility.yul\":9253:9422   */\n    tag_262:\n        /* \"#utility.yul\":9337:9348   */\n      0x00\n        /* \"#utility.yul\":9371:9377   */\n      dup3\n        /* \"#utility.yul\":9366:9369   */\n      dup3\n        /* \"#utility.yul\":9359:9378   */\n      mstore\n        /* \"#utility.yul\":9411:9415   */\n      0x20\n        /* \"#utility.yul\":9406:9409   */\n      dup3\n        /* \"#utility.yul\":9402:9416   */\n      add\n        /* \"#utility.yul\":9387:9416   */\n      swap1\n      pop\n        /* \"#utility.yul\":9253:9422   */\n      swap3\n      swap2\n      pop\n      pop\n      jump\t// out\n        /* \"#utility.yul\":9428:9567   */\n    tag_263:\n        /* \"#utility.yul\":9517:9523   */\n      dup3\n        /* \"#utility.yul\":9512:9515   */\n      dup2\n        /* \"#utility.yul\":9507:9510   */\n      dup4\n        /* \"#utility.yul\":9501:9524   */\n      mcopy\n        /* \"#utility.yul\":9558:9559   */\n      0x00\n        /* \"#utility.yul\":9549:9555   */\n      dup4\n        /* \"#utility.yul\":9544:9547   */\n      dup4\n        /* \"#utility.yul\":9540:9556   */\n      add\n        /* \"#utility.yul\":9533:9560   */\n      mstore\n        /* \"#utility.yul\":9428:9567   */\n      pop\n      pop\n      pop\n      jump\t// out\n        /* \"#utility.yul\":9573:9950   */\n    tag_264:\n        /* \"#utility.yul\":9661:9664   */\n      0x00\n        /* \"#utility.yul\":9689:9728   */\n      tag_427\n        /* \"#utility.yul\":9722:9727   */\n      dup3\n        /* \"#utility.yul\":9689:9728   */\n      tag_261\n      jump\t// in\n    tag_427:\n        /* \"#utility.yul\":9744:9815   */\n      tag_428\n        /* \"#utility.yul\":9808:9814   */\n      dup2\n        /* \"#utility.yul\":9803:9806   */\n      dup6\n        /* \"#utility.yul\":9744:9815   */\n      tag_262\n      jump\t// in\n    tag_428:\n        /* \"#utility.yul\":9737:9815   */\n      swap4\n      pop\n        /* \"#utility.yul\":9824:9889   */\n      tag_429\n        /* \"#utility.yul\":9882:9888   */\n      dup2\n        /* \"#utility.yul\":9877:9880   */\n      dup6\n        /* \"#utility.yul\":9870:9874   */\n      0x20\n        /* \"#utility.yul\":9863:9868   */\n      dup7\n        /* \"#utility.yul\":9859:9875   */\n      add\n        /* \"#utility.yul\":9824:9889   */\n      tag_263\n      jump\t// in\n    tag_429:\n        /* \"#utility.yul\":9914:9943   */\n      tag_430\n        /* \"#utility.yul\":9936:9942   */\n      dup2\n        /* \"#utility.yul\":9914:9943   */\n      tag_252\n      jump\t// in\n    tag_430:\n        /* \"#utility.yul\":9909:9912   */\n      dup5\n        /* \"#utility.yul\":9905:9944   */\n      add\n        /* \"#utility.yul\":9898:9944   */\n      swap2\n      pop\n        /* \"#utility.yul\":9665:9950   */\n      pop\n        /* \"#utility.yul\":9573:9950   */\n      swap3\n      swap2\n      pop\n      pop\n      jump\t// out\n        /* \"#utility.yul\":9956:10588   */\n    tag_73:\n        /* \"#utility.yul\":10147:10151   */\n      0x00\n        /* \"#utility.yul\":10185:10188   */\n      0x80\n        /* \"#utility.yul\":10174:10183   */\n      dup3\n        /* \"#utility.yul\":10170:10189   */\n      add\n        /* \"#utility.yul\":10162:10189   */\n      swap1\n      pop\n        /* \"#utility.yul\":10199:10270   */\n      tag_432\n        /* \"#utility.yul\":10267:10268   */\n      0x00\n        /* \"#utility.yul\":10256:10265   */\n      dup4\n        /* \"#utility.yul\":10252:10269   */\n      add\n        /* \"#utility.yul\":10243:10249   */\n      dup8\n        /* \"#utility.yul\":10199:10270   */\n      tag_260\n      jump\t// in\n    tag_432:\n        /* \"#utility.yul\":10317:10326   */\n      dup2\n        /* \"#utility.yul\":10311:10315   */\n      dup2\n        /* \"#utility.yul\":10307:10327   */\n      sub\n        /* \"#utility.yul\":10302:10304   */\n      0x20\n        /* \"#utility.yul\":10291:10300   */\n      dup4\n        /* \"#utility.yul\":10287:10305   */\n      add\n        /* \"#utility.yul\":10280:10328   */\n      mstore\n        /* \"#utility.yul\":10345:10423   */\n      tag_433\n        /* \"#utility.yul\":10418:10422   */\n      dup2\n        /* \"#utility.yul\":10409:10415   */\n      dup7\n        /* \"#utility.yul\":10345:10423   */\n      tag_264\n      jump\t// in\n    tag_433:\n        /* \"#utility.yul\":10337:10423   */\n      swap1\n      pop\n        /* \"#utility.yul\":10433:10499   */\n      tag_434\n        /* \"#utility.yul\":10495:10497   */\n      0x40\n        /* \"#utility.yul\":10484:10493   */\n      dup4\n        /* \"#utility.yul\":10480:10498   */\n      add\n        /* \"#utility.yul\":10471:10477   */\n      dup6\n        /* \"#utility.yul\":10433:10499   */\n      tag_237\n      jump\t// in\n    tag_434:\n        /* \"#utility.yul\":10509:10581   */\n      tag_435\n        /* \"#utility.yul\":10577:10579   */\n      0x60\n        /* \"#utility.yul\":10566:10575   */\n      dup4\n        /* \"#utility.yul\":10562:10580   */\n      add\n        /* \"#utility.yul\":10553:10559   */\n      dup5\n        /* \"#utility.yul\":10509:10581   */\n      tag_247\n      jump\t// in\n    tag_435:\n        /* \"#utility.yul\":9956:10588   */\n      swap6\n      swap5\n      pop\n      pop\n      pop\n      pop\n      pop\n      jump\t// out\n        /* \"#utility.yul\":10594:10776   */\n    tag_265:\n        /* \"#utility.yul\":10734:10768   */\n      0x55736572206e6f7420656e726f6c6c656420696e207468697320636f75727365\n        /* \"#utility.yul\":10730:10731   */\n      0x00\n        /* \"#utility.yul\":10722:10728   */\n      dup3\n        /* \"#utility.yul\":10718:10732   */\n      add\n        /* \"#utility.yul\":10711:10769   */\n      mstore\n        /* \"#utility.yul\":10594:10776   */\n      pop\n      jump\t// out\n        /* \"#utility.yul\":10782:11148   */\n    tag_266:\n        /* \"#utility.yul\":10924:10927   */\n      0x00\n        /* \"#utility.yul\":10945:11012   */\n      tag_438\n        /* \"#utility.yul\":11009:11011   */\n      0x20\n        /* \"#utility.yul\":11004:11007   */\n      dup4\n        /* \"#utility.yul\":10945:11012   */\n      tag_262\n      jump\t// in\n    tag_438:\n        /* \"#utility.yul\":10938:11012   */\n      swap2\n      pop\n        /* \"#utility.yul\":11021:11114   */\n      tag_439\n        /* \"#utility.yul\":11110:11113   */\n      dup3\n        /* \"#utility.yul\":11021:11114   */\n      tag_265\n      jump\t// in\n    tag_439:\n        /* \"#utility.yul\":11139:11141   */\n      0x20\n        /* \"#utility.yul\":11134:11137   */\n      dup3\n        /* \"#utility.yul\":11130:11142   */\n      add\n        /* \"#utility.yul\":11123:11142   */\n      swap1\n      pop\n        /* \"#utility.yul\":10782:11148   */\n      swap2\n      swap1\n      pop\n      jump\t// out\n        /* \"#utility.yul\":11154:11573   */\n    tag_104:\n        /* \"#utility.yul\":11320:11324   */\n      0x00\n        /* \"#utility.yul\":11358:11360   */\n      0x20\n        /* \"#utility.yul\":11347:11356   */\n      dup3\n        /* \"#utility.yul\":11343:11361   */\n      add\n        /* \"#utility.yul\":11335:11361   */\n      swap1\n      pop\n        /* \"#utility.yul\":11407:11416   */\n      dup2\n        /* \"#utility.yul\":11401:11405   */\n      dup2\n        /* \"#utility.yul\":11397:11417   */\n      sub\n        /* \"#utility.yul\":11393:11394   */\n      0x00\n        /* \"#utility.yul\":11382:11391   */\n      dup4\n        /* \"#utility.yul\":11378:11395   */\n      add\n        /* \"#utility.yul\":11371:11418   */\n      mstore\n        /* \"#utility.yul\":11435:11566   */\n      tag_441\n        /* \"#utility.yul\":11561:11565   */\n      dup2\n        /* \"#utility.yul\":11435:11566   */\n      tag_266\n      jump\t// in\n    tag_441:\n        /* \"#utility.yul\":11427:11566   */\n      swap1\n      pop\n        /* \"#utility.yul\":11154:11573   */\n      swap2\n      swap1\n      pop\n      jump\t// out\n        /* \"#utility.yul\":11579:11753   */\n    tag_267:\n        /* \"#utility.yul\":11719:11745   */\n      0x4d6178696d756d20617474656d70747320726561636865640000000000000000\n        /* \"#utility.yul\":11715:11716   */\n      0x00\n        /* \"#utility.yul\":11707:11713   */\n      dup3\n        /* \"#utility.yul\":11703:11717   */\n      add\n        /* \"#utility.yul\":11696:11746   */\n      mstore\n        /* \"#utility.yul\":11579:11753   */\n      pop\n      jump\t// out\n        /* \"#utility.yul\":11759:12125   */\n    tag_268:\n        /* \"#utility.yul\":11901:11904   */\n      0x00\n        /* \"#utility.yul\":11922:11989   */\n      tag_444\n        /* \"#utility.yul\":11986:11988   */\n      0x18\n        /* \"#utility.yul\":11981:11984   */\n      dup4\n        /* \"#utility.yul\":11922:11989   */\n      tag_262\n      jump\t// in\n    tag_444:\n        /* \"#utility.yul\":11915:11989   */\n      swap2\n      pop\n        /* \"#utility.yul\":11998:12091   */\n      tag_445\n        /* \"#utility.yul\":12087:12090   */\n      dup3\n        /* \"#utility.yul\":11998:12091   */\n      tag_267\n      jump\t// in\n    tag_445:\n        /* \"#utility.yul\":12116:12118   */\n      0x20\n        /* \"#utility.yul\":12111:12114   */\n      dup3\n        /* \"#utility.yul\":12107:12119   */\n      add\n        /* \"#utility.yul\":12100:12119   */\n      swap1\n      pop\n        /* \"#utility.yul\":11759:12125   */\n      swap2\n      swap1\n      pop\n      jump\t// out\n        /* \"#utility.yul\":12131:12550   */\n    tag_107:\n        /* \"#utility.yul\":12297:12301   */\n      0x00\n        /* \"#utility.yul\":12335:12337   */\n      0x20\n        /* \"#utility.yul\":12324:12333   */\n      dup3\n        /* \"#utility.yul\":12320:12338   */\n      add\n        /* \"#utility.yul\":12312:12338   */\n      swap1\n      pop\n        /* \"#utility.yul\":12384:12393   */\n      dup2\n        /* \"#utility.yul\":12378:12382   */\n      dup2\n        /* \"#utility.yul\":12374:12394   */\n      sub\n        /* \"#utility.yul\":12370:12371   */\n      0x00\n        /* \"#utility.yul\":12359:12368   */\n      dup4\n        /* \"#utility.yul\":12355:12372   */\n      add\n        /* \"#utility.yul\":12348:12395   */\n      mstore\n        /* \"#utility.yul\":12412:12543   */\n      tag_447\n        /* \"#utility.yul\":12538:12542   */\n      dup2\n        /* \"#utility.yul\":12412:12543   */\n      tag_268\n      jump\t// in\n    tag_447:\n        /* \"#utility.yul\":12404:12543   */\n      swap1\n      pop\n        /* \"#utility.yul\":12131:12550   */\n      swap2\n      swap1\n      pop\n      jump\t// out\n        /* \"#utility.yul\":12556:12778   */\n    tag_269:\n        /* \"#utility.yul\":12696:12730   */\n      0x557365722068617320616c726561647920706173736564207468697320636f75\n        /* \"#utility.yul\":12692:12693   */\n      0x00\n        /* \"#utility.yul\":12684:12690   */\n      dup3\n        /* \"#utility.yul\":12680:12694   */\n      add\n        /* \"#utility.yul\":12673:12731   */\n      mstore\n        /* \"#utility.yul\":12765:12770   */\n      0x7273650000000000000000000000000000000000000000000000000000000000\n        /* \"#utility.yul\":12760:12762   */\n      0x20\n        /* \"#utility.yul\":12752:12758   */\n      dup3\n        /* \"#utility.yul\":12748:12763   */\n      add\n        /* \"#utility.yul\":12741:12771   */\n      mstore\n        /* \"#utility.yul\":12556:12778   */\n      pop\n      jump\t// out\n        /* \"#utility.yul\":12784:13150   */\n    tag_270:\n        /* \"#utility.yul\":12926:12929   */\n      0x00\n        /* \"#utility.yul\":12947:13014   */\n      tag_450\n        /* \"#utility.yul\":13011:13013   */\n      0x23\n        /* \"#utility.yul\":13006:13009   */\n      dup4\n        /* \"#utility.yul\":12947:13014   */\n      tag_262\n      jump\t// in\n    tag_450:\n        /* \"#utility.yul\":12940:13014   */\n      swap2\n      pop\n        /* \"#utility.yul\":13023:13116   */\n      tag_451\n        /* \"#utility.yul\":13112:13115   */\n      dup3\n        /* \"#utility.yul\":13023:13116   */\n      tag_269\n      jump\t// in\n    tag_451:\n        /* \"#utility.yul\":13141:13143   */\n      0x40\n        /* \"#utility.yul\":13136:13139   */\n      dup3\n        /* \"#utility.yul\":13132:13144   */\n      add\n        /* \"#utility.yul\":13125:13144   */\n      swap1\n      pop\n        /* \"#utility.yul\":12784:13150   */\n      swap2\n      swap1\n      pop\n      jump\t// out\n        /* \"#utility.yul\":13156:13575   */\n    tag_110:\n        /* \"#utility.yul\":13322:13326   */\n      0x00\n        /* \"#utility.yul\":13360:13362   */\n      0x20\n        /* \"#utility.yul\":13349:13358   */\n      dup3\n        /* \"#utility.yul\":13345:13363   */\n      add\n        /* \"#utility.yul\":13337:13363   */\n      swap1\n      pop\n        /* \"#utility.yul\":13409:13418   */\n      dup2\n        /* \"#utility.yul\":13403:13407   */\n      dup2\n        /* \"#utility.yul\":13399:13419   */\n      sub\n        /* \"#utility.yul\":13395:13396   */\n      0x00\n        /* \"#utility.yul\":13384:13393   */\n      dup4\n        /* \"#utility.yul\":13380:13397   */\n      add\n        /* \"#utility.yul\":13373:13420   */\n      mstore\n        /* \"#utility.yul\":13437:13568   */\n      tag_453\n        /* \"#utility.yul\":13563:13567   */\n      dup2\n        /* \"#utility.yul\":13437:13568   */\n      tag_270\n      jump\t// in\n    tag_453:\n        /* \"#utility.yul\":13429:13568   */\n      swap1\n      pop\n        /* \"#utility.yul\":13156:13575   */\n      swap2\n      swap1\n      pop\n      jump\t// out\n        /* \"#utility.yul\":13581:13761   */\n    tag_271:\n        /* \"#utility.yul\":13629:13706   */\n      0x4e487b7100000000000000000000000000000000000000000000000000000000\n        /* \"#utility.yul\":13626:13627   */\n      0x00\n        /* \"#utility.yul\":13619:13707   */\n      mstore\n        /* \"#utility.yul\":13726:13730   */\n      0x11\n        /* \"#utility.yul\":13723:13724   */\n      0x04\n        /* \"#utility.yul\":13716:13731   */\n      mstore\n        /* \"#utility.yul\":13750:13754   */\n      0x24\n        /* \"#utility.yul\":13747:13748   */\n      0x00\n        /* \"#utility.yul\":13740:13755   */\n      revert\n        /* \"#utility.yul\":13767:13934   */\n    tag_112:\n        /* \"#utility.yul\":13804:13807   */\n      0x00\n        /* \"#utility.yul\":13827:13849   */\n      tag_456\n        /* \"#utility.yul\":13843:13848   */\n      dup3\n        /* \"#utility.yul\":13827:13849   */\n      tag_238\n      jump\t// in\n    tag_456:\n        /* \"#utility.yul\":13818:13849   */\n      swap2\n      pop\n        /* \"#utility.yul\":13871:13875   */\n      0xff\n        /* \"#utility.yul\":13864:13869   */\n      dup3\n        /* \"#utility.yul\":13861:13876   */\n      sub\n        /* \"#utility.yul\":13858:13899   */\n      tag_457\n      jumpi\n        /* \"#utility.yul\":13879:13897   */\n      tag_458\n      tag_271\n      jump\t// in\n    tag_458:\n        /* \"#utility.yul\":13858:13899   */\n    tag_457:\n        /* \"#utility.yul\":13926:13927   */\n      0x01\n        /* \"#utility.yul\":13919:13924   */\n      dup3\n        /* \"#utility.yul\":13915:13928   */\n      add\n        /* \"#utility.yul\":13908:13928   */\n      swap1\n      pop\n        /* \"#utility.yul\":13767:13934   */\n      swap2\n      swap1\n      pop\n      jump\t// out\n        /* \"#utility.yul\":13940:14173   */\n    tag_115:\n        /* \"#utility.yul\":13979:13982   */\n      0x00\n        /* \"#utility.yul\":14002:14026   */\n      tag_460\n        /* \"#utility.yul\":14020:14025   */\n      dup3\n        /* \"#utility.yul\":14002:14026   */\n      tag_233\n      jump\t// in\n    tag_460:\n        /* \"#utility.yul\":13993:14026   */\n      swap2\n      pop\n        /* \"#utility.yul\":14048:14114   */\n      0xffffffffffffffffffffffffffffffffffffffffffffffffffffffffffffffff\n        /* \"#utility.yul\":14041:14046   */\n      dup3\n        /* \"#utility.yul\":14038:14115   */\n      sub\n        /* \"#utility.yul\":14035:14138   */\n      tag_461\n      jumpi\n        /* \"#utility.yul\":14118:14136   */\n      tag_462\n      tag_271\n      jump\t// in\n    tag_462:\n        /* \"#utility.yul\":14035:14138   */\n    tag_461:\n        /* \"#utility.yul\":14165:14166   */\n      0x01\n        /* \"#utility.yul\":14158:14163   */\n      dup3\n        /* \"#utility.yul\":14154:14167   */\n      add\n        /* \"#utility.yul\":14147:14167   */\n      swap1\n      pop\n        /* \"#utility.yul\":13940:14173   */\n      swap2\n      swap1\n      pop\n      jump\t// out\n        /* \"#utility.yul\":14179:14389   */\n    tag_117:\n        /* \"#utility.yul\":14266:14270   */\n      0x00\n        /* \"#utility.yul\":14304:14306   */\n      0x20\n        /* \"#utility.yul\":14293:14302   */\n      dup3\n        /* \"#utility.yul\":14289:14307   */\n      add\n        /* \"#utility.yul\":14281:14307   */\n      swap1\n      pop\n        /* \"#utility.yul\":14317:14382   */\n      tag_464\n        /* \"#utility.yul\":14379:14380   */\n      0x00\n        /* \"#utility.yul\":14368:14377   */\n      dup4\n        /* \"#utility.yul\":14364:14381   */\n      add\n        /* \"#utility.yul\":14355:14361   */\n      dup5\n        /* \"#utility.yul\":14317:14382   */\n      tag_237\n      jump\t// in\n    tag_464:\n        /* \"#utility.yul\":14179:14389   */\n      swap3\n      swap2\n      pop\n      pop\n      jump\t// out\n        /* \"#utility.yul\":14395:14538   */\n    tag_272:\n        /* \"#utility.yul\":14452:14457   */\n      0x00\n        /* \"#utility.yul\":14483:14489   */\n      dup2\n        /* \"#utility.yul\":14477:14490   */\n      mload\n        /* \"#utility.yul\":14468:14490   */\n      swap1\n      pop\n        /* \"#utility.yul\":14499:14532   */\n      tag_466\n        /* \"#utility.yul\":14526:14531   */\n      dup2\n        /* \"#utility.yul\":14499:14532   */\n      tag_234\n      jump\t// in\n    tag_466:\n        /* \"#utility.yul\":14395:14538   */\n      swap3\n      swap2\n      pop\n      pop\n      jump\t// out\n        /* \"#utility.yul\":14544:14895   */\n    tag_126:\n        /* \"#utility.yul\":14614:14620   */\n      0x00\n        /* \"#utility.yul\":14663:14665   */\n      0x20\n        /* \"#utility.yul\":14651:14660   */\n      dup3\n        /* \"#utility.yul\":14642:14649   */\n      dup5\n        /* \"#utility.yul\":14638:14661   */\n      sub\n        /* \"#utility.yul\":14634:14666   */\n      slt\n        /* \"#utility.yul\":14631:14750   */\n      iszero\n      tag_468\n      jumpi\n        /* \"#utility.yul\":14669:14748   */\n      tag_469\n      tag_227\n      jump\t// in\n    tag_469:\n        /* \"#utility.yul\":14631:14750   */\n    tag_468:\n        /* \"#utility.yul\":14789:14790   */\n      0x00\n        /* \"#utility.yul\":14814:14878   */\n      tag_470\n        /* \"#utility.yul\":14870:14877   */\n      dup5\n        /* \"#utility.yul\":14861:14867   */\n      dup3\n        /* \"#utility.yul\":14850:14859   */\n      dup6\n        /* \"#utility.yul\":14846:14868   */\n      add\n        /* \"#utility.yul\":14814:14878   */\n      tag_272\n      jump\t// in\n    tag_470:\n        /* \"#utility.yul\":14804:14878   */\n      swap2\n      pop\n        /* \"#utility.yul\":14760:14888   */\n      pop\n        /* \"#utility.yul\":14544:14895   */\n      swap3\n      swap2\n      pop\n      pop\n      jump\t// out\n        /* \"#utility.yul\":14901:15121   */\n    tag_273:\n        /* \"#utility.yul\":15041:15075   */\n      0x496e73756666696369656e742072657075746174696f6e20746f20656e726f6c\n        /* \"#utility.yul\":15037:15038   */\n      0x00\n        /* \"#utility.yul\":15029:15035   */\n      dup3\n        /* \"#utility.yul\":15025:15039   */\n      add\n        /* \"#utility.yul\":15018:15076   */\n      mstore\n        /* \"#utility.yul\":15110:15113   */\n      0x6c00000000000000000000000000000000000000000000000000000000000000\n        /* \"#utility.yul\":15105:15107   */\n      0x20\n        /* \"#utility.yul\":15097:15103   */\n      dup3\n        /* \"#utility.yul\":15093:15108   */\n      add\n        /* \"#utility.yul\":15086:15114   */\n      mstore\n        /* \"#utility.yul\":14901:15121   */\n      pop\n      jump\t// out\n        /* \"#utility.yul\":15127:15493   */\n    tag_274:\n        /* \"#utility.yul\":15269:15272   */\n      0x00\n        /* \"#utility.yul\":15290:15357   */\n      tag_473\n        /* \"#utility.yul\":15354:15356   */\n      0x21\n        /* \"#utility.yul\":15349:15352   */\n      dup4\n        /* \"#utility.yul\":15290:15357   */\n      tag_262\n      jump\t// in\n    tag_473:\n        /* \"#utility.yul\":15283:15357   */\n      swap2\n      pop\n        /* \"#utility.yul\":15366:15459   */\n      tag_474\n        /* \"#utility.yul\":15455:15458   */\n      dup3\n        /* \"#utility.yul\":15366:15459   */\n      tag_273\n      jump\t// in\n    tag_474:\n        /* \"#utility.yul\":15484:15486   */\n      0x40\n        /* \"#utility.yul\":15479:15482   */\n      dup3\n        /* \"#utility.yul\":15475:15487   */\n      add\n        /* \"#utility.yul\":15468:15487   */\n      swap1\n      pop\n        /* \"#utility.yul\":15127:15493   */\n      swap2\n      swap1\n      pop\n      jump\t// out\n        /* \"#utility.yul\":15499:15918   */\n    tag_129:\n        /* \"#utility.yul\":15665:15669   */\n      0x00\n        /* \"#utility.yul\":15703:15705   */\n      0x20\n        /* \"#utility.yul\":15692:15701   */\n      dup3\n        /* \"#utility.yul\":15688:15706   */\n      add\n        /* \"#utility.yul\":15680:15706   */\n      swap1\n      pop\n        /* \"#utility.yul\":15752:15761   */\n      dup2\n        /* \"#utility.yul\":15746:15750   */\n      dup2\n        /* \"#utility.yul\":15742:15762   */\n      sub\n        /* \"#utility.yul\":15738:15739   */\n      0x00\n        /* \"#utility.yul\":15727:15736   */\n      dup4\n        /* \"#utility.yul\":15723:15740   */\n      add\n        /* \"#utility.yul\":15716:15763   */\n      mstore\n        /* \"#utility.yul\":15780:15911   */\n      tag_476\n        /* \"#utility.yul\":15906:15910   */\n      dup2\n        /* \"#utility.yul\":15780:15911   */\n      tag_274\n      jump\t// in\n    tag_476:\n        /* \"#utility.yul\":15772:15911   */\n      swap1\n      pop\n        /* \"#utility.yul\":15499:15918   */\n      swap2\n      swap1\n      pop\n      jump\t// out\n        /* \"#utility.yul\":15924:16093   */\n    tag_275:\n        /* \"#utility.yul\":16064:16085   */\n      0x436f75727365206e6f7420617070726f76656400000000000000000000000000\n        /* \"#utility.yul\":16060:16061   */\n      0x00\n        /* \"#utility.yul\":16052:16058   */\n      dup3\n        /* \"#utility.yul\":16048:16062   */\n      add\n        /* \"#utility.yul\":16041:16086   */\n      mstore\n        /* \"#utility.yul\":15924:16093   */\n      pop\n      jump\t// out\n        /* \"#utility.yul\":16099:16465   */\n    tag_276:\n        /* \"#utility.yul\":16241:16244   */\n      0x00\n        /* \"#utility.yul\":16262:16329   */\n      tag_479\n        /* \"#utility.yul\":16326:16328   */\n      0x13\n        /* \"#utility.yul\":16321:16324   */\n      dup4\n        /* \"#utility.yul\":16262:16329   */\n      tag_262\n      jump\t// in\n    tag_479:\n        /* \"#utility.yul\":16255:16329   */\n      swap2\n      pop\n        /* \"#utility.yul\":16338:16431   */\n      tag_480\n        /* \"#utility.yul\":16427:16430   */\n      dup3\n        /* \"#utility.yul\":16338:16431   */\n      tag_275\n      jump\t// in\n    tag_480:\n        /* \"#utility.yul\":16456:16458   */\n      0x20\n        /* \"#utility.yul\":16451:16454   */\n      dup3\n        /* \"#utility.yul\":16447:16459   */\n      add\n        /* \"#utility.yul\":16440:16459   */\n      swap1\n      pop\n        /* \"#utility.yul\":16099:16465   */\n      swap2\n      swap1\n      pop\n      jump\t// out\n        /* \"#utility.yul\":16471:16890   */\n    tag_132:\n        /* \"#utility.yul\":16637:16641   */\n      0x00\n        /* \"#utility.yul\":16675:16677   */\n      0x20\n        /* \"#utility.yul\":16664:16673   */\n      dup3\n        /* \"#utility.yul\":16660:16678   */\n      add\n        /* \"#utility.yul\":16652:16678   */\n      swap1\n      pop\n        /* \"#utility.yul\":16724:16733   */\n      dup2\n        /* \"#utility.yul\":16718:16722   */\n      dup2\n        /* \"#utility.yul\":16714:16734   */\n      sub\n        /* \"#utility.yul\":16710:16711   */\n      0x00\n        /* \"#utility.yul\":16699:16708   */\n      dup4\n        /* \"#utility.yul\":16695:16712   */\n      add\n        /* \"#utility.yul\":16688:16735   */\n      mstore\n        /* \"#utility.yul\":16752:16883   */\n      tag_482\n        /* \"#utility.yul\":16878:16882   */\n      dup2\n        /* \"#utility.yul\":16752:16883   */\n      tag_276\n      jump\t// in\n    tag_482:\n        /* \"#utility.yul\":16744:16883   */\n      swap1\n      pop\n        /* \"#utility.yul\":16471:16890   */\n      swap2\n      swap1\n      pop\n      jump\t// out\n        /* \"#utility.yul\":16896:17062   */\n    tag_277:\n        /* \"#utility.yul\":17036:17054   */\n      0x416c726561647920656e726f6c6c656400000000000000000000000000000000\n        /* \"#utility.yul\":17032:17033   */\n      0x00\n        /* \"#utility.yul\":17024:17030   */\n      dup3\n        /* \"#utility.yul\":17020:17034   */\n      add\n        /* \"#utility.yul\":17013:17055   */\n      mstore\n        /* \"#utility.yul\":16896:17062   */\n      pop\n      jump\t// out\n        /* \"#utility.yul\":17068:17434   */\n    tag_278:\n        /* \"#utility.yul\":17210:17213   */\n      0x00\n        /* \"#utility.yul\":17231:17298   */\n      tag_485\n        /* \"#utility.yul\":17295:17297   */\n      0x10\n        /* \"#utility.yul\":17290:17293   */\n      dup4\n        /* \"#utility.yul\":17231:17298   */\n      tag_262\n      jump\t// in\n    tag_485:\n        /* \"#utility.yul\":17224:17298   */\n      swap2\n      pop\n        /* \"#utility.yul\":17307:17400   */\n      tag_486\n        /* \"#utility.yul\":17396:17399   */\n      dup3\n        /* \"#utility.yul\":17307:17400   */\n      tag_277\n      jump\t// in\n    tag_486:\n        /* \"#utility.yul\":17425:17427   */\n      0x20\n        /* \"#utility.yul\":17420:17423   */\n      dup3\n        /* \"#utility.yul\":17416:17428   */\n      add\n        /* \"#utility.yul\":17409:17428   */\n      swap1\n      pop\n        /* \"#utility.yul\":17068:17434   */\n      swap2\n      swap1\n      pop\n      jump\t// out\n        /* \"#utility.yul\":17440:17859   */\n    tag_135:\n        /* \"#utility.yul\":17606:17610   */\n      0x00\n        /* \"#utility.yul\":17644:17646   */\n      0x20\n        /* \"#utility.yul\":17633:17642   */\n      dup3\n        /* \"#utility.yul\":17629:17647   */\n      add\n        /* \"#utility.yul\":17621:17647   */\n      swap1\n      pop\n        /* \"#utility.yul\":17693:17702   */\n      dup2\n        /* \"#utility.yul\":17687:17691   */\n      dup2\n        /* \"#utility.yul\":17683:17703   */\n      sub\n        /* \"#utility.yul\":17679:17680   */\n      0x00\n        /* \"#utility.yul\":17668:17677   */\n      dup4\n        /* \"#utility.yul\":17664:17681   */\n      add\n        /* \"#utility.yul\":17657:17704   */\n      mstore\n        /* \"#utility.yul\":17721:17852   */\n      tag_488\n        /* \"#utility.yul\":17847:17851   */\n      dup2\n        /* \"#utility.yul\":17721:17852   */\n      tag_278\n      jump\t// in\n    tag_488:\n        /* \"#utility.yul\":17713:17852   */\n      swap1\n      pop\n        /* \"#utility.yul\":17440:17859   */\n      swap2\n      swap1\n      pop\n      jump\t// out\n        /* \"#utility.yul\":17865:18038   */\n    tag_279:\n        /* \"#utility.yul\":18005:18030   */\n      0x436f7572736520616c726561647920617070726f766564000000000000000000\n        /* \"#utility.yul\":18001:18002   */\n      0x00\n        /* \"#utility.yul\":17993:17999   */\n      dup3\n        /* \"#utility.yul\":17989:18003   */\n      add\n        /* \"#utility.yul\":17982:18031   */\n      mstore\n        /* \"#utility.yul\":17865:18038   */\n      pop\n      jump\t// out\n        /* \"#utility.yul\":18044:18410   */\n    tag_280:\n        /* \"#utility.yul\":18186:18189   */\n      0x00\n        /* \"#utility.yul\":18207:18274   */\n      tag_491\n        /* \"#utility.yul\":18271:18273   */\n      0x17\n        /* \"#utility.yul\":18266:18269   */\n      dup4\n        /* \"#utility.yul\":18207:18274   */\n      tag_262\n      jump\t// in\n    tag_491:\n        /* \"#utility.yul\":18200:18274   */\n      swap2\n      pop\n        /* \"#utility.yul\":18283:18376   */\n      tag_492\n        /* \"#utility.yul\":18372:18375   */\n      dup3\n        /* \"#utility.yul\":18283:18376   */\n      tag_279\n      jump\t// in\n    tag_492:\n        /* \"#utility.yul\":18401:18403   */\n      0x20\n        /* \"#utility.yul\":18396:18399   */\n      dup3\n        /* \"#utility.yul\":18392:18404   */\n      add\n        /* \"#utility.yul\":18385:18404   */\n      swap1\n      pop\n        /* \"#utility.yul\":18044:18410   */\n      swap2\n      swap1\n      pop\n      jump\t// out\n        /* \"#utility.yul\":18416:18835   */\n    tag_146:\n        /* \"#utility.yul\":18582:18586   */\n      0x00\n        /* \"#utility.yul\":18620:18622   */\n      0x20\n        /* \"#utility.yul\":18609:18618   */\n      dup3\n        /* \"#utility.yul\":18605:18623   */\n      add\n        /* \"#utility.yul\":18597:18623   */\n      swap1\n      pop\n        /* \"#utility.yul\":18669:18678   */\n      dup2\n        /* \"#utility.yul\":18663:18667   */\n      dup2\n        /* \"#utility.yul\":18659:18679   */\n      sub\n        /* \"#utility.yul\":18655:18656   */\n      0x00\n        /* \"#utility.yul\":18644:18653   */\n      dup4\n        /* \"#utility.yul\":18640:18657   */\n      add\n        /* \"#utility.yul\":18633:18680   */\n      mstore\n        /* \"#utility.yul\":18697:18828   */\n      tag_494\n        /* \"#utility.yul\":18823:18827   */\n      dup2\n        /* \"#utility.yul\":18697:18828   */\n      tag_280\n      jump\t// in\n    tag_494:\n        /* \"#utility.yul\":18689:18828   */\n      swap1\n      pop\n        /* \"#utility.yul\":18416:18835   */\n      swap2\n      swap1\n      pop\n      jump\t// out\n        /* \"#utility.yul\":18841:19068   */\n    tag_281:\n        /* \"#utility.yul\":18981:19015   */\n      0x496e73756666696369656e742072657075746174696f6e20746f206372656174\n        /* \"#utility.yul\":18977:18978   */\n      0x00\n        /* \"#utility.yul\":18969:18975   */\n      dup3\n        /* \"#utility.yul\":18965:18979   */\n      add\n        /* \"#utility.yul\":18958:19016   */\n      mstore\n        /* \"#utility.yul\":19050:19060   */\n      0x6520636f75727365000000000000000000000000000000000000000000000000\n        /* \"#utility.yul\":19045:19047   */\n      0x20\n        /* \"#utility.yul\":19037:19043   */\n      dup3\n        /* \"#utility.yul\":19033:19048   */\n      add\n        /* \"#utility.yul\":19026:19061   */\n      mstore\n        /* \"#utility.yul\":18841:19068   */\n      pop\n      jump\t// out\n        /* \"#utility.yul\":19074:19440   */\n    tag_282:\n        /* \"#utility.yul\":19216:19219   */\n      0x00\n        /* \"#utility.yul\":19237:19304   */\n      tag_497\n        /* \"#utility.yul\":19301:19303   */\n      0x28\n        /* \"#utility.yul\":19296:19299   */\n      dup4\n        /* \"#utility.yul\":19237:19304   */\n      tag_262\n      jump\t// in\n    tag_497:\n        /* \"#utility.yul\":19230:19304   */\n      swap2\n      pop\n        /* \"#utility.yul\":19313:19406   */\n      tag_498\n        /* \"#utility.yul\":19402:19405   */\n      dup3\n        /* \"#utility.yul\":19313:19406   */\n      tag_281\n      jump\t// in\n    tag_498:\n        /* \"#utility.yul\":19431:19433   */\n      0x40\n        /* \"#utility.yul\":19426:19429   */\n      dup3\n        /* \"#utility.yul\":19422:19434   */\n      add\n        /* \"#utility.yul\":19415:19434   */\n      swap1\n      pop\n        /* \"#utility.yul\":19074:19440   */\n      swap2\n      swap1\n      pop\n      jump\t// out\n        /* \"#utility.yul\":19446:19865   */\n    tag_154:\n        /* \"#utility.yul\":19612:19616   */\n      0x00\n        /* \"#utility.yul\":19650:19652   */\n      0x20\n        /* \"#utility.yul\":19639:19648   */\n      dup3\n        /* \"#utility.yul\":19635:19653   */\n      add\n        /* \"#utility.yul\":19627:19653   */\n      swap1\n      pop\n        /* \"#utility.yul\":19699:19708   */\n      dup2\n        /* \"#utility.yul\":19693:19697   */\n      dup2\n        /* \"#utility.yul\":19689:19709   */\n      sub\n        /* \"#utility.yul\":19685:19686   */\n      0x00\n        /* \"#utility.yul\":19674:19683   */\n      dup4\n        /* \"#utility.yul\":19670:19687   */\n      add\n        /* \"#utility.yul\":19663:19710   */\n      mstore\n        /* \"#utility.yul\":19727:19858   */\n      tag_500\n        /* \"#utility.yul\":19853:19857   */\n      dup2\n        /* \"#utility.yul\":19727:19858   */\n      tag_282\n      jump\t// in\n    tag_500:\n        /* \"#utility.yul\":19719:19858   */\n      swap1\n      pop\n        /* \"#utility.yul\":19446:19865   */\n      swap2\n      swap1\n      pop\n      jump\t// out\n        /* \"#utility.yul\":19871:20051   */\n    tag_283:\n        /* \"#utility.yul\":19919:19996   */\n      0x4e487b7100000000000000000000000000000000000000000000000000000000\n        /* \"#utility.yul\":19916:19917   */\n      0x00\n        /* \"#utility.yul\":19909:19997   */\n      mstore\n        /* \"#utility.yul\":20016:20020   */\n      0x22\n        /* \"#utility.yul\":20013:20014   */\n      0x04\n        /* \"#utility.yul\":20006:20021   */\n      mstore\n        /* \"#utility.yul\":20040:20044   */\n      0x24\n        /* \"#utility.yul\":20037:20038   */\n      0x00\n        /* \"#utility.yul\":20030:20045   */\n      revert\n        /* \"#utility.yul\":20057:20377   */\n    tag_160:\n        /* \"#utility.yul\":20101:20107   */\n      0x00\n        /* \"#utility.yul\":20138:20139   */\n      0x02\n        /* \"#utility.yul\":20132:20136   */\n      dup3\n        /* \"#utility.yul\":20128:20140   */\n      div\n        /* \"#utility.yul\":20118:20140   */\n      swap1\n      pop\n        /* \"#utility.yul\":20185:20186   */\n      0x01\n        /* \"#utility.yul\":20179:20183   */\n      dup3\n        /* \"#utility.yul\":20175:20187   */\n      and\n        /* \"#utility.yul\":20206:20224   */\n      dup1\n        /* \"#utility.yul\":20196:20277   */\n      tag_503\n      jumpi\n        /* \"#utility.yul\":20262:20266   */\n      0x7f\n        /* \"#utility.yul\":20254:20260   */\n      dup3\n        /* \"#utility.yul\":20250:20267   */\n      and\n        /* \"#utility.yul\":20240:20267   */\n      swap2\n      pop\n        /* \"#utility.yul\":20196:20277   */\n    tag_503:\n        /* \"#utility.yul\":20324:20326   */\n      0x20\n        /* \"#utility.yul\":20316:20322   */\n      dup3\n        /* \"#utility.yul\":20313:20327   */\n      lt\n        /* \"#utility.yul\":20293:20311   */\n      dup2\n        /* \"#utility.yul\":20290:20328   */\n      sub\n        /* \"#utility.yul\":20287:20371   */\n      tag_504\n      jumpi\n        /* \"#utility.yul\":20343:20361   */\n      tag_505\n      tag_283\n      jump\t// in\n    tag_505:\n        /* \"#utility.yul\":20287:20371   */\n    tag_504:\n        /* \"#utility.yul\":20108:20377   */\n      pop\n        /* \"#utility.yul\":20057:20377   */\n      swap2\n      swap1\n      pop\n      jump\t// out\n        /* \"#utility.yul\":20383:20524   */\n    tag_284:\n        /* \"#utility.yul\":20432:20436   */\n      0x00\n        /* \"#utility.yul\":20455:20458   */\n      dup2\n        /* \"#utility.yul\":20447:20458   */\n      swap1\n      pop\n        /* \"#utility.yul\":20478:20481   */\n      dup2\n        /* \"#utility.yul\":20475:20476   */\n      0x00\n        /* \"#utility.yul\":20468:20482   */\n      mstore\n        /* \"#utility.yul\":20512:20516   */\n      0x20\n        /* \"#utility.yul\":20509:20510   */\n      0x00\n        /* \"#utility.yul\":20499:20517   */\n      keccak256\n        /* \"#utility.yul\":20491:20517   */\n      swap1\n      pop\n        /* \"#utility.yul\":20383:20524   */\n      swap2\n      swap1\n      pop\n      jump\t// out\n        /* \"#utility.yul\":20530:20623   */\n    tag_285:\n        /* \"#utility.yul\":20567:20573   */\n      0x00\n        /* \"#utility.yul\":20614:20616   */\n      0x20\n        /* \"#utility.yul\":20609:20611   */\n      0x1f\n        /* \"#utility.yul\":20602:20607   */\n      dup4\n        /* \"#utility.yul\":20598:20612   */\n      add\n        /* \"#utility.yul\":20594:20617   */\n      div\n        /* \"#utility.yul\":20584:20617   */\n      swap1\n      pop\n        /* \"#utility.yul\":20530:20623   */\n      swap2\n      swap1\n      pop\n      jump\t// out\n        /* \"#utility.yul\":20629:20736   */\n    tag_286:\n        /* \"#utility.yul\":20673:20681   */\n      0x00\n        /* \"#utility.yul\":20723:20728   */\n      dup3\n        /* \"#utility.yul\":20717:20721   */\n      dup3\n        /* \"#utility.yul\":20713:20729   */\n      shl\n        /* \"#utility.yul\":20692:20729   */\n      swap1\n      pop\n        /* \"#utility.yul\":20629:20736   */\n      swap3\n      swap2\n      pop\n      pop\n      jump\t// out\n        /* \"#utility.yul\":20742:21135   */\n    tag_287:\n        /* \"#utility.yul\":20811:20817   */\n      0x00\n        /* \"#utility.yul\":20861:20862   */\n      0x08\n        /* \"#utility.yul\":20849:20859   */\n      dup4\n        /* \"#utility.yul\":20845:20863   */\n      mul\n        /* \"#utility.yul\":20884:20981   */\n      tag_510\n        /* \"#utility.yul\":20914:20980   */\n      0xffffffffffffffffffffffffffffffffffffffffffffffffffffffffffffffff\n        /* \"#utility.yul\":20903:20912   */\n      dup3\n        /* \"#utility.yul\":20884:20981   */\n      tag_286\n      jump\t// in\n    tag_510:\n        /* \"#utility.yul\":21002:21041   */\n      tag_511\n        /* \"#utility.yul\":21032:21040   */\n      dup7\n        /* \"#utility.yul\":21021:21030   */\n      dup4\n        /* \"#utility.yul\":21002:21041   */\n      tag_286\n      jump\t// in\n    tag_511:\n        /* \"#utility.yul\":20990:21041   */\n      swap6\n      pop\n        /* \"#utility.yul\":21074:21078   */\n      dup1\n        /* \"#utility.yul\":21070:21079   */\n      not\n        /* \"#utility.yul\":21063:21068   */\n      dup5\n        /* \"#utility.yul\":21059:21080   */\n      and\n        /* \"#utility.yul\":21050:21080   */\n      swap4\n      pop\n        /* \"#utility.yul\":21123:21127   */\n      dup1\n        /* \"#utility.yul\":21113:21121   */\n      dup7\n        /* \"#utility.yul\":21109:21128   */\n      and\n        /* \"#utility.yul\":21102:21107   */\n      dup5\n        /* \"#utility.yul\":21099:21129   */\n      or\n        /* \"#utility.yul\":21089:21129   */\n      swap3\n      pop\n        /* \"#utility.yul\":20818:21135   */\n      pop\n      pop\n        /* \"#utility.yul\":20742:21135   */\n      swap4\n      swap3\n      pop\n      pop\n      pop\n      jump\t// out\n        /* \"#utility.yul\":21141:21283   */\n    tag_288:\n        /* \"#utility.yul\":21191:21200   */\n      0x00\n        /* \"#utility.yul\":21224:21277   */\n      tag_513\n        /* \"#utility.yul\":21242:21276   */\n      tag_514\n        /* \"#utility.yul\":21251:21275   */\n      tag_515\n        /* \"#utility.yul\":21269:21274   */\n      dup5\n        /* \"#utility.yul\":21251:21275   */\n      tag_233\n      jump\t// in\n    tag_515:\n        /* \"#utility.yul\":21242:21276   */\n      tag_242\n      jump\t// in\n    tag_514:\n        /* \"#utility.yul\":21224:21277   */\n      tag_233\n      jump\t// in\n    tag_513:\n        /* \"#utility.yul\":21211:21277   */\n      swap1\n      pop\n        /* \"#utility.yul\":21141:21283   */\n      swap2\n      swap1\n      pop\n      jump\t// out\n        /* \"#utility.yul\":21289:21364   */\n    tag_289:\n        /* \"#utility.yul\":21332:21335   */\n      0x00\n        /* \"#utility.yul\":21353:21358   */\n      dup2\n        /* \"#utility.yul\":21346:21358   */\n      swap1\n      pop\n        /* \"#utility.yul\":21289:21364   */\n      swap2\n      swap1\n      pop\n      jump\t// out\n        /* \"#utility.yul\":21370:21639   */\n    tag_290:\n        /* \"#utility.yul\":21480:21519   */\n      tag_518\n        /* \"#utility.yul\":21511:21518   */\n      dup4\n        /* \"#utility.yul\":21480:21519   */\n      tag_288\n      jump\t// in\n    tag_518:\n        /* \"#utility.yul\":21541:21632   */\n      tag_519\n        /* \"#utility.yul\":21590:21631   */\n      tag_520\n        /* \"#utility.yul\":21614:21630   */\n      dup3\n        /* \"#utility.yul\":21590:21631   */\n      tag_289\n      jump\t// in\n    tag_520:\n        /* \"#utility.yul\":21582:21588   */\n      dup5\n        /* \"#utility.yul\":21575:21579   */\n      dup5\n        /* \"#utility.yul\":21569:21580   */\n      sload\n        /* \"#utility.yul\":21541:21632   */\n      tag_287\n      jump\t// in\n    tag_519:\n        /* \"#utility.yul\":21535:21539   */\n      dup3\n        /* \"#utility.yul\":21528:21633   */\n      sstore\n        /* \"#utility.yul\":21446:21639   */\n      pop\n        /* \"#utility.yul\":21370:21639   */\n      pop\n      pop\n      pop\n      jump\t// out\n        /* \"#utility.yul\":21645:21718   */\n    tag_291:\n        /* \"#utility.yul\":21690:21693   */\n      0x00\n        /* \"#utility.yul\":21645:21718   */\n      swap1\n      jump\t// out\n        /* \"#utility.yul\":21724:21913   */\n    tag_292:\n        /* \"#utility.yul\":21801:21833   */\n      tag_523\n      tag_291\n      jump\t// in\n    tag_523:\n        /* \"#utility.yul\":21842:21907   */\n      tag_524\n        /* \"#utility.yul\":21900:21906   */\n      dup2\n        /* \"#utility.yul\":21892:21898   */\n      dup5\n        /* \"#utility.yul\":21886:21890   */\n      dup5\n        /* \"#utility.yul\":21842:21907   */\n      tag_290\n      jump\t// in\n    tag_524:\n        /* \"#utility.yul\":21777:21913   */\n      pop\n        /* \"#utility.yul\":21724:21913   */\n      pop\n      pop\n      jump\t// out\n        /* \"#utility.yul\":21919:22105   */\n    tag_293:\n        /* \"#utility.yul\":21979:22099   */\n    tag_526:\n        /* \"#utility.yul\":21996:21999   */\n      dup2\n        /* \"#utility.yul\":21989:21994   */\n      dup2\n        /* \"#utility.yul\":21986:22000   */\n      lt\n        /* \"#utility.yul\":21979:22099   */\n      iszero\n      tag_528\n      jumpi\n        /* \"#utility.yul\":22050:22089   */\n      tag_529\n        /* \"#utility.yul\":22087:22088   */\n      0x00\n        /* \"#utility.yul\":22080:22085   */\n      dup3\n        /* \"#utility.yul\":22050:22089   */\n      tag_292\n      jump\t// in\n    tag_529:\n        /* \"#utility.yul\":22023:22024   */\n      0x01\n        /* \"#utility.yul\":22016:22021   */\n      dup2\n        /* \"#utility.yul\":22012:22025   */\n      add\n        /* \"#utility.yul\":22003:22025   */\n      swap1\n      pop\n        /* \"#utility.yul\":21979:22099   */\n      jump(tag_526)\n    tag_528:\n        /* \"#utility.yul\":21919:22105   */\n      pop\n      pop\n      jump\t// out\n        /* \"#utility.yul\":22111:22654   */\n    tag_294:\n        /* \"#utility.yul\":22212:22214   */\n      0x1f\n        /* \"#utility.yul\":22207:22210   */\n      dup3\n        /* \"#utility.yul\":22204:22215   */\n      gt\n        /* \"#utility.yul\":22201:22647   */\n      iszero\n      tag_531\n      jumpi\n        /* \"#utility.yul\":22246:22284   */\n      tag_532\n        /* \"#utility.yul\":22278:22283   */\n      dup2\n        /* \"#utility.yul\":22246:22284   */\n      tag_284\n      jump\t// in\n    tag_532:\n        /* \"#utility.yul\":22330:22359   */\n      tag_533\n        /* \"#utility.yul\":22348:22358   */\n      dup5\n        /* \"#utility.yul\":22330:22359   */\n      tag_285\n      jump\t// in\n    tag_533:\n        /* \"#utility.yul\":22320:22328   */\n      dup2\n        /* \"#utility.yul\":22316:22360   */\n      add\n        /* \"#utility.yul\":22513:22515   */\n      0x20\n        /* \"#utility.yul\":22501:22511   */\n      dup6\n        /* \"#utility.yul\":22498:22516   */\n      lt\n        /* \"#utility.yul\":22495:22544   */\n      iszero\n      tag_534\n      jumpi\n        /* \"#utility.yul\":22534:22542   */\n      dup2\n        /* \"#utility.yul\":22519:22542   */\n      swap1\n      pop\n        /* \"#utility.yul\":22495:22544   */\n    tag_534:\n        /* \"#utility.yul\":22557:22637   */\n      tag_535\n        /* \"#utility.yul\":22613:22635   */\n      tag_536\n        /* \"#utility.yul\":22631:22634   */\n      dup6\n        /* \"#utility.yul\":22613:22635   */\n      tag_285\n      jump\t// in\n    tag_536:\n        /* \"#utility.yul\":22603:22611   */\n      dup4\n        /* \"#utility.yul\":22599:22636   */\n      add\n        /* \"#utility.yul\":22586:22597   */\n      dup3\n        /* \"#utility.yul\":22557:22637   */\n      tag_293\n      jump\t// in\n    tag_535:\n        /* \"#utility.yul\":22216:22647   */\n      pop\n      pop\n        /* \"#utility.yul\":22201:22647   */\n    tag_531:\n        /* \"#utility.yul\":22111:22654   */\n      pop\n      pop\n      pop\n      jump\t// out\n        /* \"#utility.yul\":22660:22777   */\n    tag_295:\n        /* \"#utility.yul\":22714:22722   */\n      0x00\n        /* \"#utility.yul\":22764:22769   */\n      dup3\n        /* \"#utility.yul\":22758:22762   */\n      dup3\n        /* \"#utility.yul\":22754:22770   */\n      shr\n        /* \"#utility.yul\":22733:22770   */\n      swap1\n      pop\n        /* \"#utility.yul\":22660:22777   */\n      swap3\n      swap2\n      pop\n      pop\n      jump\t// out\n        /* \"#utility.yul\":22783:22952   */\n    tag_296:\n        /* \"#utility.yul\":22827:22833   */\n      0x00\n        /* \"#utility.yul\":22860:22911   */\n      tag_539\n        /* \"#utility.yul\":22908:22909   */\n      0x00\n        /* \"#utility.yul\":22904:22910   */\n      not\n        /* \"#utility.yul\":22896:22901   */\n      dup5\n        /* \"#utility.yul\":22893:22894   */\n      0x08\n        /* \"#utility.yul\":22889:22902   */\n      mul\n        /* \"#utility.yul\":22860:22911   */\n      tag_295\n      jump\t// in\n    tag_539:\n        /* \"#utility.yul\":22856:22912   */\n      not\n        /* \"#utility.yul\":22941:22945   */\n      dup1\n        /* \"#utility.yul\":22935:22939   */\n      dup4\n        /* \"#utility.yul\":22931:22946   */\n      and\n        /* \"#utility.yul\":22921:22946   */\n      swap2\n      pop\n        /* \"#utility.yul\":22834:22952   */\n      pop\n        /* \"#utility.yul\":22783:22952   */\n      swap3\n      swap2\n      pop\n      pop\n      jump\t// out\n        /* \"#utility.yul\":22957:23252   */\n    tag_297:\n        /* \"#utility.yul\":23033:23037   */\n      0x00\n        /* \"#utility.yul\":23179:23208   */\n      tag_541\n        /* \"#utility.yul\":23204:23207   */\n      dup4\n        /* \"#utility.yul\":23198:23202   */\n      dup4\n        /* \"#utility.yul\":23179:23208   */\n      tag_296\n      jump\t// in\n    tag_541:\n        /* \"#utility.yul\":23171:23208   */\n      swap2\n      pop\n        /* \"#utility.yul\":23241:23244   */\n      dup3\n        /* \"#utility.yul\":23238:23239   */\n      0x02\n        /* \"#utility.yul\":23234:23245   */\n      mul\n        /* \"#utility.yul\":23228:23232   */\n      dup3\n        /* \"#utility.yul\":23225:23246   */\n      or\n        /* \"#utility.yul\":23217:23246   */\n      swap1\n      pop\n        /* \"#utility.yul\":22957:23252   */\n      swap3\n      swap2\n      pop\n      pop\n      jump\t// out\n        /* \"#utility.yul\":23257:24652   */\n    tag_157:\n        /* \"#utility.yul\":23374:23411   */\n      tag_543\n        /* \"#utility.yul\":23407:23410   */\n      dup3\n        /* \"#utility.yul\":23374:23411   */\n      tag_261\n      jump\t// in\n    tag_543:\n        /* \"#utility.yul\":23476:23494   */\n      0xffffffffffffffff\n        /* \"#utility.yul\":23468:23474   */\n      dup2\n        /* \"#utility.yul\":23465:23495   */\n      gt\n        /* \"#utility.yul\":23462:23518   */\n      iszero\n      tag_544\n      jumpi\n        /* \"#utility.yul\":23498:23516   */\n      tag_545\n      tag_253\n      jump\t// in\n    tag_545:\n        /* \"#utility.yul\":23462:23518   */\n    tag_544:\n        /* \"#utility.yul\":23542:23580   */\n      tag_546\n        /* \"#utility.yul\":23574:23578   */\n      dup3\n        /* \"#utility.yul\":23568:23579   */\n      sload\n        /* \"#utility.yul\":23542:23580   */\n      tag_160\n      jump\t// in\n    tag_546:\n        /* \"#utility.yul\":23627:23694   */\n      tag_547\n        /* \"#utility.yul\":23687:23693   */\n      dup3\n        /* \"#utility.yul\":23679:23685   */\n      dup3\n        /* \"#utility.yul\":23673:23677   */\n      dup6\n        /* \"#utility.yul\":23627:23694   */\n      tag_294\n      jump\t// in\n    tag_547:\n        /* \"#utility.yul\":23721:23722   */\n      0x00\n        /* \"#utility.yul\":23745:23749   */\n      0x20\n        /* \"#utility.yul\":23732:23749   */\n      swap1\n      pop\n        /* \"#utility.yul\":23777:23779   */\n      0x1f\n        /* \"#utility.yul\":23769:23775   */\n      dup4\n        /* \"#utility.yul\":23766:23780   */\n      gt\n        /* \"#utility.yul\":23794:23795   */\n      0x01\n        /* \"#utility.yul\":23789:24407   */\n      dup2\n      eq\n      tag_549\n      jumpi\n        /* \"#utility.yul\":24451:24452   */\n      0x00\n        /* \"#utility.yul\":24468:24474   */\n      dup5\n        /* \"#utility.yul\":24465:24542   */\n      iszero\n      tag_550\n      jumpi\n        /* \"#utility.yul\":24517:24526   */\n      dup3\n        /* \"#utility.yul\":24512:24515   */\n      dup8\n        /* \"#utility.yul\":24508:24527   */\n      add\n        /* \"#utility.yul\":24502:24528   */\n      mload\n        /* \"#utility.yul\":24493:24528   */\n      swap1\n      pop\n        /* \"#utility.yul\":24465:24542   */\n    tag_550:\n        /* \"#utility.yul\":24568:24635   */\n      tag_551\n        /* \"#utility.yul\":24628:24634   */\n      dup6\n        /* \"#utility.yul\":24621:24626   */\n      dup3\n        /* \"#utility.yul\":24568:24635   */\n      tag_297\n      jump\t// in\n    tag_551:\n        /* \"#utility.yul\":24562:24566   */\n      dup7\n        /* \"#utility.yul\":24555:24636   */\n      sstore\n        /* \"#utility.yul\":24424:24646   */\n      pop\n        /* \"#utility.yul\":23759:24646   */\n      jump(tag_548)\n        /* \"#utility.yul\":23789:24407   */\n    tag_549:\n        /* \"#utility.yul\":23841:23845   */\n      0x1f\n        /* \"#utility.yul\":23837:23846   */\n      not\n        /* \"#utility.yul\":23829:23835   */\n      dup5\n        /* \"#utility.yul\":23825:23847   */\n      and\n        /* \"#utility.yul\":23875:23912   */\n      tag_552\n        /* \"#utility.yul\":23907:23911   */\n      dup7\n        /* \"#utility.yul\":23875:23912   */\n      tag_284\n      jump\t// in\n    tag_552:\n        /* \"#utility.yul\":23934:23935   */\n      0x00\n        /* \"#utility.yul\":23948:24156   */\n    tag_553:\n        /* \"#utility.yul\":23962:23969   */\n      dup3\n        /* \"#utility.yul\":23959:23960   */\n      dup2\n        /* \"#utility.yul\":23956:23970   */\n      lt\n        /* \"#utility.yul\":23948:24156   */\n      iszero\n      tag_555\n      jumpi\n        /* \"#utility.yul\":24041:24050   */\n      dup5\n        /* \"#utility.yul\":24036:24039   */\n      dup10\n        /* \"#utility.yul\":24032:24051   */\n      add\n        /* \"#utility.yul\":24026:24052   */\n      mload\n        /* \"#utility.yul\":24018:24024   */\n      dup3\n        /* \"#utility.yul\":24011:24053   */\n      sstore\n        /* \"#utility.yul\":24092:24093   */\n      0x01\n        /* \"#utility.yul\":24084:24090   */\n      dup3\n        /* \"#utility.yul\":24080:24094   */\n      add\n        /* \"#utility.yul\":24070:24094   */\n      swap2\n      pop\n        /* \"#utility.yul\":24139:24141   */\n      0x20\n        /* \"#utility.yul\":24128:24137   */\n      dup6\n        /* \"#utility.yul\":24124:24142   */\n      add\n        /* \"#utility.yul\":24111:24142   */\n      swap5\n      pop\n        /* \"#utility.yul\":23985:23989   */\n      0x20\n        /* \"#utility.yul\":23982:23983   */\n      dup2\n        /* \"#utility.yul\":23978:23990   */\n      add\n        /* \"#utility.yul\":23973:23990   */\n      swap1\n      pop\n        /* \"#utility.yul\":23948:24156   */\n      jump(tag_553)\n    tag_555:\n        /* \"#utility.yul\":24184:24190   */\n      dup7\n        /* \"#utility.yul\":24175:24182   */\n      dup4\n        /* \"#utility.yul\":24172:24191   */\n      lt\n        /* \"#utility.yul\":24169:24348   */\n      iszero\n      tag_556\n      jumpi\n        /* \"#utility.yul\":24242:24251   */\n      dup5\n        /* \"#utility.yul\":24237:24240   */\n      dup10\n        /* \"#utility.yul\":24233:24252   */\n      add\n        /* \"#utility.yul\":24227:24253   */\n      mload\n        /* \"#utility.yul\":24285:24333   */\n      tag_557\n        /* \"#utility.yul\":24327:24331   */\n      0x1f\n        /* \"#utility.yul\":24319:24325   */\n      dup10\n        /* \"#utility.yul\":24315:24332   */\n      and\n        /* \"#utility.yul\":24304:24313   */\n      dup3\n        /* \"#utility.yul\":24285:24333   */\n      tag_296\n      jump\t// in\n    tag_557:\n        /* \"#utility.yul\":24277:24283   */\n      dup4\n        /* \"#utility.yul\":24270:24334   */\n      sstore\n        /* \"#utility.yul\":24192:24348   */\n      pop\n        /* \"#utility.yul\":24169:24348   */\n    tag_556:\n        /* \"#utility.yul\":24394:24395   */\n      0x01\n        /* \"#utility.yul\":24390:24391   */\n      0x02\n        /* \"#utility.yul\":24382:24388   */\n      dup9\n        /* \"#utility.yul\":24378:24392   */\n      mul\n        /* \"#utility.yul\":24374:24396   */\n      add\n        /* \"#utility.yul\":24368:24372   */\n      dup9\n        /* \"#utility.yul\":24361:24397   */\n      sstore\n        /* \"#utility.yul\":23796:24407   */\n      pop\n      pop\n      pop\n        /* \"#utility.yul\":23759:24646   */\n    tag_548:\n      pop\n        /* \"#utility.yul\":23349:24652   */\n      pop\n      pop\n      pop\n        /* \"#utility.yul\":23257:24652   */\n      pop\n      pop\n      jump\t// out\n        /* \"#utility.yul\":24658:24825   */\n    tag_298:\n        /* \"#utility.yul\":24798:24817   */\n      0x436f75727365206e6f7420706173736564000000000000000000000000000000\n        /* \"#utility.yul\":24794:24795   */\n      0x00\n        /* \"#utility.yul\":24786:24792   */\n      dup3\n        /* \"#utility.yul\":24782:24796   */\n      add\n        /* \"#utility.yul\":24775:24818   */\n      mstore\n        /* \"#utility.yul\":24658:24825   */\n      pop\n      jump\t// out\n        /* \"#utility.yul\":24831:25197   */\n    tag_299:\n        /* \"#utility.yul\":24973:24976   */\n      0x00\n        /* \"#utility.yul\":24994:25061   */\n      tag_560\n        /* \"#utility.yul\":25058:25060   */\n      0x11\n        /* \"#utility.yul\":25053:25056   */\n      dup4\n        /* \"#utility.yul\":24994:25061   */\n      tag_262\n      jump\t// in\n    tag_560:\n        /* \"#utility.yul\":24987:25061   */\n      swap2\n      pop\n        /* \"#utility.yul\":25070:25163   */\n      tag_561\n        /* \"#utility.yul\":25159:25162   */\n      dup3\n        /* \"#utility.yul\":25070:25163   */\n      tag_298\n      jump\t// in\n    tag_561:\n        /* \"#utility.yul\":25188:25190   */\n      0x20\n        /* \"#utility.yul\":25183:25186   */\n      dup3\n        /* \"#utility.yul\":25179:25191   */\n      add\n        /* \"#utility.yul\":25172:25191   */\n      swap1\n      pop\n        /* \"#utility.yul\":24831:25197   */\n      swap2\n      swap1\n      pop\n      jump\t// out\n        /* \"#utility.yul\":25203:25622   */\n    tag_168:\n        /* \"#utility.yul\":25369:25373   */\n      0x00\n        /* \"#utility.yul\":25407:25409   */\n      0x20\n        /* \"#utility.yul\":25396:25405   */\n      dup3\n        /* \"#utility.yul\":25392:25410   */\n      add\n        /* \"#utility.yul\":25384:25410   */\n      swap1\n      pop\n        /* \"#utility.yul\":25456:25465   */\n      dup2\n        /* \"#utility.yul\":25450:25454   */\n      dup2\n        /* \"#utility.yul\":25446:25466   */\n      sub\n        /* \"#utility.yul\":25442:25443   */\n      0x00\n        /* \"#utility.yul\":25431:25440   */\n      dup4\n        /* \"#utility.yul\":25427:25444   */\n      add\n        /* \"#utility.yul\":25420:25467   */\n      mstore\n        /* \"#utility.yul\":25484:25615   */\n      tag_563\n        /* \"#utility.yul\":25610:25614   */\n      dup2\n        /* \"#utility.yul\":25484:25615   */\n      tag_299\n      jump\t// in\n    tag_563:\n        /* \"#utility.yul\":25476:25615   */\n      swap1\n      pop\n        /* \"#utility.yul\":25203:25622   */\n      swap2\n      swap1\n      pop\n      jump\t// out\n        /* \"#utility.yul\":25628:25800   */\n    tag_300:\n        /* \"#utility.yul\":25768:25792   */\n      0x52657761726420616c726561647920636c61696d656400000000000000000000\n        /* \"#utility.yul\":25764:25765   */\n      0x00\n        /* \"#utility.yul\":25756:25762   */\n      dup3\n        /* \"#utility.yul\":25752:25766   */\n      add\n        /* \"#utility.yul\":25745:25793   */\n      mstore\n        /* \"#utility.yul\":25628:25800   */\n      pop\n      jump\t// out\n        /* \"#utility.yul\":25806:26172   */\n    tag_301:\n        /* \"#utility.yul\":25948:25951   */\n      0x00\n        /* \"#utility.yul\":25969:26036   */\n      tag_566\n        /* \"#utility.yul\":26033:26035   */\n      0x16\n        /* \"#utility.yul\":26028:26031   */\n      dup4\n        /* \"#utility.yul\":25969:26036   */\n      tag_262\n      jump\t// in\n    tag_566:\n        /* \"#utility.yul\":25962:26036   */\n      swap2\n      pop\n        /* \"#utility.yul\":26045:26138   */\n      tag_567\n        /* \"#utility.yul\":26134:26137   */\n      dup3\n        /* \"#utility.yul\":26045:26138   */\n      tag_300\n      jump\t// in\n    tag_567:\n        /* \"#utility.yul\":26163:26165   */\n      0x20\n        /* \"#utility.yul\":26158:26161   */\n      dup3\n        /* \"#utility.yul\":26154:26166   */\n      add\n        /* \"#utility.yul\":26147:26166   */\n      swap1\n      pop\n        /* \"#utility.yul\":25806:26172   */\n      swap2\n      swap1\n      pop\n      jump\t// out\n        /* \"#utility.yul\":26178:26597   */\n    tag_171:\n        /* \"#utility.yul\":26344:26348   */\n      0x00\n        /* \"#utility.yul\":26382:26384   */\n      0x20\n        /* \"#utility.yul\":26371:26380   */\n      dup3\n        /* \"#utility.yul\":26367:26385   */\n      add\n        /* \"#utility.yul\":26359:26385   */\n      swap1\n      pop\n        /* \"#utility.yul\":26431:26440   */\n      dup2\n        /* \"#utility.yul\":26425:26429   */\n      dup2\n        /* \"#utility.yul\":26421:26441   */\n      sub\n        /* \"#utility.yul\":26417:26418   */\n      0x00\n        /* \"#utility.yul\":26406:26415   */\n      dup4\n        /* \"#utility.yul\":26402:26419   */\n      add\n        /* \"#utility.yul\":26395:26442   */\n      mstore\n        /* \"#utility.yul\":26459:26590   */\n      tag_569\n        /* \"#utility.yul\":26585:26589   */\n      dup2\n        /* \"#utility.yul\":26459:26590   */\n      tag_301\n      jump\t// in\n    tag_569:\n        /* \"#utility.yul\":26451:26590   */\n      swap1\n      pop\n        /* \"#utility.yul\":26178:26597   */\n      swap2\n      swap1\n      pop\n      jump\t// out\n        /* \"#utility.yul\":26603:26776   */\n    tag_302:\n        /* \"#utility.yul\":26743:26768   */\n      0x4e6f7420656c696769626c6520666f7220726577617264000000000000000000\n        /* \"#utility.yul\":26739:26740   */\n      0x00\n        /* \"#utility.yul\":26731:26737   */\n      dup3\n        /* \"#utility.yul\":26727:26741   */\n      add\n        /* \"#utility.yul\":26720:26769   */\n      mstore\n        /* \"#utility.yul\":26603:26776   */\n      pop\n      jump\t// out\n        /* \"#utility.yul\":26782:27148   */\n    tag_303:\n        /* \"#utility.yul\":26924:26927   */\n      0x00\n        /* \"#utility.yul\":26945:27012   */\n      tag_572\n        /* \"#utility.yul\":27009:27011   */\n      0x17\n        /* \"#utility.yul\":27004:27007   */\n      dup4\n        /* \"#utility.yul\":26945:27012   */\n      tag_262\n      jump\t// in\n    tag_572:\n        /* \"#utility.yul\":26938:27012   */\n      swap2\n      pop\n        /* \"#utility.yul\":27021:27114   */\n      tag_573\n        /* \"#utility.yul\":27110:27113   */\n      dup3\n        /* \"#utility.yul\":27021:27114   */\n      tag_302\n      jump\t// in\n    tag_573:\n        /* \"#utility.yul\":27139:27141   */\n      0x20\n        /* \"#utility.yul\":27134:27137   */\n      dup3\n        /* \"#utility.yul\":27130:27142   */\n      add\n        /* \"#utility.yul\":27123:27142   */\n      swap1\n      pop\n        /* \"#utility.yul\":26782:27148   */\n      swap2\n      swap1\n      pop\n      jump\t// out\n        /* \"#utility.yul\":27154:27573   */\n    tag_174:\n        /* \"#utility.yul\":27320:27324   */\n      0x00\n        /* \"#utility.yul\":27358:27360   */\n      0x20\n        /* \"#utility.yul\":27347:27356   */\n      dup3\n        /* \"#utility.yul\":27343:27361   */\n      add\n        /* \"#utility.yul\":27335:27361   */\n      swap1\n      pop\n        /* \"#utility.yul\":27407:27416   */\n      dup2\n        /* \"#utility.yul\":27401:27405   */\n      dup2\n        /* \"#utility.yul\":27397:27417   */\n      sub\n        /* \"#utility.yul\":27393:27394   */\n      0x00\n        /* \"#utility.yul\":27382:27391   */\n      dup4\n        /* \"#utility.yul\":27378:27395   */\n      add\n        /* \"#utility.yul\":27371:27418   */\n      mstore\n        /* \"#utility.yul\":27435:27566   */\n      tag_575\n        /* \"#utility.yul\":27561:27565   */\n      dup2\n        /* \"#utility.yul\":27435:27566   */\n      tag_303\n      jump\t// in\n    tag_575:\n        /* \"#utility.yul\":27427:27566   */\n      swap1\n      pop\n        /* \"#utility.yul\":27154:27573   */\n      swap2\n      swap1\n      pop\n      jump\t// out\n        /* \"#utility.yul\":27579:27911   */\n    tag_176:\n        /* \"#utility.yul\":27700:27704   */\n      0x00\n        /* \"#utility.yul\":27738:27740   */\n      0x40\n        /* \"#utility.yul\":27727:27736   */\n      dup3\n        /* \"#utility.yul\":27723:27741   */\n      add\n        /* \"#utility.yul\":27715:27741   */\n      swap1\n      pop\n        /* \"#utility.yul\":27751:27822   */\n      tag_577\n        /* \"#utility.yul\":27819:27820   */\n      0x00\n        /* \"#utility.yul\":27808:27817   */\n      dup4\n        /* \"#utility.yul\":27804:27821   */\n      add\n        /* \"#utility.yul\":27795:27801   */\n      dup6\n        /* \"#utility.yul\":27751:27822   */\n      tag_260\n      jump\t// in\n    tag_577:\n        /* \"#utility.yul\":27832:27904   */\n      tag_578\n        /* \"#utility.yul\":27900:27902   */\n      0x20\n        /* \"#utility.yul\":27889:27898   */\n      dup4\n        /* \"#utility.yul\":27885:27903   */\n      add\n        /* \"#utility.yul\":27876:27882   */\n      dup5\n        /* \"#utility.yul\":27832:27904   */\n      tag_247\n      jump\t// in\n    tag_578:\n        /* \"#utility.yul\":27579:27911   */\n      swap4\n      swap3\n      pop\n      pop\n      pop\n      jump\t// out\n        /* \"#utility.yul\":27917:28054   */\n    tag_304:\n        /* \"#utility.yul\":27971:27976   */\n      0x00\n        /* \"#utility.yul\":28002:28008   */\n      dup2\n        /* \"#utility.yul\":27996:28009   */\n      mload\n        /* \"#utility.yul\":27987:28009   */\n      swap1\n      pop\n        /* \"#utility.yul\":28018:28048   */\n      tag_580\n        /* \"#utility.yul\":28042:28047   */\n      dup2\n        /* \"#utility.yul\":28018:28048   */\n      tag_240\n      jump\t// in\n    tag_580:\n        /* \"#utility.yul\":27917:28054   */\n      swap3\n      swap2\n      pop\n      pop\n      jump\t// out\n        /* \"#utility.yul\":28060:28405   */\n    tag_180:\n        /* \"#utility.yul\":28127:28133   */\n      0x00\n        /* \"#utility.yul\":28176:28178   */\n      0x20\n        /* \"#utility.yul\":28164:28173   */\n      dup3\n        /* \"#utility.yul\":28155:28162   */\n      dup5\n        /* \"#utility.yul\":28151:28174   */\n      sub\n        /* \"#utility.yul\":28147:28179   */\n      slt\n        /* \"#utility.yul\":28144:28263   */\n      iszero\n      tag_582\n      jumpi\n        /* \"#utility.yul\":28182:28261   */\n      tag_583\n      tag_227\n      jump\t// in\n    tag_583:\n        /* \"#utility.yul\":28144:28263   */\n    tag_582:\n        /* \"#utility.yul\":28302:28303   */\n      0x00\n        /* \"#utility.yul\":28327:28388   */\n      tag_584\n        /* \"#utility.yul\":28380:28387   */\n      dup5\n        /* \"#utility.yul\":28371:28377   */\n      dup3\n        /* \"#utility.yul\":28360:28369   */\n      dup6\n        /* \"#utility.yul\":28356:28378   */\n      add\n        /* \"#utility.yul\":28327:28388   */\n      tag_304\n      jump\t// in\n    tag_584:\n        /* \"#utility.yul\":28317:28388   */\n      swap2\n      pop\n        /* \"#utility.yul\":28273:28398   */\n      pop\n        /* \"#utility.yul\":28060:28405   */\n      swap3\n      swap2\n      pop\n      pop\n      jump\t// out\n        /* \"#utility.yul\":28411:28591   */\n    tag_305:\n        /* \"#utility.yul\":28551:28583   */\n      0x4661696c656420746f207472616e73666572204d414e4420746f6b656e730000\n        /* \"#utility.yul\":28547:28548   */\n      0x00\n        /* \"#utility.yul\":28539:28545   */\n      dup3\n        /* \"#utility.yul\":28535:28549   */\n      add\n        /* \"#utility.yul\":28528:28584   */\n      mstore\n        /* \"#utility.yul\":28411:28591   */\n      pop\n      jump\t// out\n        /* \"#utility.yul\":28597:28963   */\n    tag_306:\n        /* \"#utility.yul\":28739:28742   */\n      0x00\n        /* \"#utility.yul\":28760:28827   */\n      tag_587\n        /* \"#utility.yul\":28824:28826   */\n      0x1e\n        /* \"#utility.yul\":28819:28822   */\n      dup4\n        /* \"#utility.yul\":28760:28827   */\n      tag_262\n      jump\t// in\n    tag_587:\n        /* \"#utility.yul\":28753:28827   */\n      swap2\n      pop\n        /* \"#utility.yul\":28836:28929   */\n      tag_588\n        /* \"#utility.yul\":28925:28928   */\n      dup3\n        /* \"#utility.yul\":28836:28929   */\n      tag_305\n      jump\t// in\n    tag_588:\n        /* \"#utility.yul\":28954:28956   */\n      0x20\n        /* \"#utility.yul\":28949:28952   */\n      dup3\n        /* \"#utility.yul\":28945:28957   */\n      add\n        /* \"#utility.yul\":28938:28957   */\n      swap1\n      pop\n        /* \"#utility.yul\":28597:28963   */\n      swap2\n      swap1\n      pop\n      jump\t// out\n        /* \"#utility.yul\":28969:29388   */\n    tag_183:\n        /* \"#utility.yul\":29135:29139   */\n      0x00\n        /* \"#utility.yul\":29173:29175   */\n      0x20\n        /* \"#utility.yul\":29162:29171   */\n      dup3\n        /* \"#utility.yul\":29158:29176   */\n      add\n        /* \"#utility.yul\":29150:29176   */\n      swap1\n      pop\n        /* \"#utility.yul\":29222:29231   */\n      dup2\n        /* \"#utility.yul\":29216:29220   */\n      dup2\n        /* \"#utility.yul\":29212:29232   */\n      sub\n        /* \"#utility.yul\":29208:29209   */\n      0x00\n        /* \"#utility.yul\":29197:29206   */\n      dup4\n        /* \"#utility.yul\":29193:29210   */\n      add\n        /* \"#utility.yul\":29186:29233   */\n      mstore\n        /* \"#utility.yul\":29250:29381   */\n      tag_590\n        /* \"#utility.yul\":29376:29380   */\n      dup2\n        /* \"#utility.yul\":29250:29381   */\n      tag_306\n      jump\t// in\n    tag_590:\n        /* \"#utility.yul\":29242:29381   */\n      swap1\n      pop\n        /* \"#utility.yul\":28969:29388   */\n      swap2\n      swap1\n      pop\n      jump\t// out\n        /* \"#utility.yul\":29394:29617   */\n    tag_307:\n        /* \"#utility.yul\":29534:29568   */\n      0x4f6e6c7920636f757273652063726561746f722063616e20636c61696d207265\n        /* \"#utility.yul\":29530:29531   */\n      0x00\n        /* \"#utility.yul\":29522:29528   */\n      dup3\n        /* \"#utility.yul\":29518:29532   */\n      add\n        /* \"#utility.yul\":29511:29569   */\n      mstore\n        /* \"#utility.yul\":29603:29609   */\n      0x7761726400000000000000000000000000000000000000000000000000000000\n        /* \"#utility.yul\":29598:29600   */\n      0x20\n        /* \"#utility.yul\":29590:29596   */\n      dup3\n        /* \"#utility.yul\":29586:29601   */\n      add\n        /* \"#utility.yul\":29579:29610   */\n      mstore\n        /* \"#utility.yul\":29394:29617   */\n      pop\n      jump\t// out\n        /* \"#utility.yul\":29623:29989   */\n    tag_308:\n        /* \"#utility.yul\":29765:29768   */\n      0x00\n        /* \"#utility.yul\":29786:29853   */\n      tag_593\n        /* \"#utility.yul\":29850:29852   */\n      0x24\n        /* \"#utility.yul\":29845:29848   */\n      dup4\n        /* \"#utility.yul\":29786:29853   */\n      tag_262\n      jump\t// in\n    tag_593:\n        /* \"#utility.yul\":29779:29853   */\n      swap2\n      pop\n        /* \"#utility.yul\":29862:29955   */\n      tag_594\n        /* \"#utility.yul\":29951:29954   */\n      dup3\n        /* \"#utility.yul\":29862:29955   */\n      tag_307\n      jump\t// in\n    tag_594:\n        /* \"#utility.yul\":29980:29982   */\n      0x40\n        /* \"#utility.yul\":29975:29978   */\n      dup3\n        /* \"#utility.yul\":29971:29983   */\n      add\n        /* \"#utility.yul\":29964:29983   */\n      swap1\n      pop\n        /* \"#utility.yul\":29623:29989   */\n      swap2\n      swap1\n      pop\n      jump\t// out\n        /* \"#utility.yul\":29995:30414   */\n    tag_188:\n        /* \"#utility.yul\":30161:30165   */\n      0x00\n        /* \"#utility.yul\":30199:30201   */\n      0x20\n        /* \"#utility.yul\":30188:30197   */\n      dup3\n        /* \"#utility.yul\":30184:30202   */\n      add\n        /* \"#utility.yul\":30176:30202   */\n      swap1\n      pop\n        /* \"#utility.yul\":30248:30257   */\n      dup2\n        /* \"#utility.yul\":30242:30246   */\n      dup2\n        /* \"#utility.yul\":30238:30258   */\n      sub\n        /* \"#utility.yul\":30234:30235   */\n      0x00\n        /* \"#utility.yul\":30223:30232   */\n      dup4\n        /* \"#utility.yul\":30219:30236   */\n      add\n        /* \"#utility.yul\":30212:30259   */\n      mstore\n        /* \"#utility.yul\":30276:30407   */\n      tag_596\n        /* \"#utility.yul\":30402:30406   */\n      dup2\n        /* \"#utility.yul\":30276:30407   */\n      tag_308\n      jump\t// in\n    tag_596:\n        /* \"#utility.yul\":30268:30407   */\n      swap1\n      pop\n        /* \"#utility.yul\":29995:30414   */\n      swap2\n      swap1\n      pop\n      jump\t// out\n        /* \"#utility.yul\":30420:30830   */\n    tag_192:\n        /* \"#utility.yul\":30460:30467   */\n      0x00\n        /* \"#utility.yul\":30483:30503   */\n      tag_598\n        /* \"#utility.yul\":30501:30502   */\n      dup3\n        /* \"#utility.yul\":30483:30503   */\n      tag_233\n      jump\t// in\n    tag_598:\n        /* \"#utility.yul\":30478:30503   */\n      swap2\n      pop\n        /* \"#utility.yul\":30517:30537   */\n      tag_599\n        /* \"#utility.yul\":30535:30536   */\n      dup4\n        /* \"#utility.yul\":30517:30537   */\n      tag_233\n      jump\t// in\n    tag_599:\n        /* \"#utility.yul\":30512:30537   */\n      swap3\n      pop\n        /* \"#utility.yul\":30572:30573   */\n      dup3\n        /* \"#utility.yul\":30569:30570   */\n      dup3\n        /* \"#utility.yul\":30565:30574   */\n      mul\n        /* \"#utility.yul\":30594:30624   */\n      tag_600\n        /* \"#utility.yul\":30612:30623   */\n      dup2\n        /* \"#utility.yul\":30594:30624   */\n      tag_233\n      jump\t// in\n    tag_600:\n        /* \"#utility.yul\":30583:30624   */\n      swap2\n      pop\n        /* \"#utility.yul\":30773:30774   */\n      dup3\n        /* \"#utility.yul\":30764:30771   */\n      dup3\n        /* \"#utility.yul\":30760:30775   */\n      div\n        /* \"#utility.yul\":30757:30758   */\n      dup5\n        /* \"#utility.yul\":30754:30776   */\n      eq\n        /* \"#utility.yul\":30734:30735   */\n      dup4\n        /* \"#utility.yul\":30727:30736   */\n      iszero\n        /* \"#utility.yul\":30707:30790   */\n      or\n        /* \"#utility.yul\":30684:30823   */\n      tag_601\n      jumpi\n        /* \"#utility.yul\":30803:30821   */\n      tag_602\n      tag_271\n      jump\t// in\n    tag_602:\n        /* \"#utility.yul\":30684:30823   */\n    tag_601:\n        /* \"#utility.yul\":30468:30830   */\n      pop\n        /* \"#utility.yul\":30420:30830   */\n      swap3\n      swap2\n      pop\n      pop\n      jump\t// out\n        /* \"#utility.yul\":30836:31011   */\n    tag_309:\n        /* \"#utility.yul\":30976:31003   */\n      0x4661696c656420746f20776974686472617720746f6b656e7300000000000000\n        /* \"#utility.yul\":30972:30973   */\n      0x00\n        /* \"#utility.yul\":30964:30970   */\n      dup3\n        /* \"#utility.yul\":30960:30974   */\n      add\n        /* \"#utility.yul\":30953:31004   */\n      mstore\n        /* \"#utility.yul\":30836:31011   */\n      pop\n      jump\t// out\n        /* \"#utility.yul\":31017:31383   */\n    tag_310:\n        /* \"#utility.yul\":31159:31162   */\n      0x00\n        /* \"#utility.yul\":31180:31247   */\n      tag_605\n        /* \"#utility.yul\":31244:31246   */\n      0x19\n        /* \"#utility.yul\":31239:31242   */\n      dup4\n        /* \"#utility.yul\":31180:31247   */\n      tag_262\n      jump\t// in\n    tag_605:\n        /* \"#utility.yul\":31173:31247   */\n      swap2\n      pop\n        /* \"#utility.yul\":31256:31349   */\n      tag_606\n        /* \"#utility.yul\":31345:31348   */\n      dup3\n        /* \"#utility.yul\":31256:31349   */\n      tag_309\n      jump\t// in\n    tag_606:\n        /* \"#utility.yul\":31374:31376   */\n      0x20\n        /* \"#utility.yul\":31369:31372   */\n      dup3\n        /* \"#utility.yul\":31365:31377   */\n      add\n        /* \"#utility.yul\":31358:31377   */\n      swap1\n      pop\n        /* \"#utility.yul\":31017:31383   */\n      swap2\n      swap1\n      pop\n      jump\t// out\n        /* \"#utility.yul\":31389:31808   */\n    tag_210:\n        /* \"#utility.yul\":31555:31559   */\n      0x00\n        /* \"#utility.yul\":31593:31595   */\n      0x20\n        /* \"#utility.yul\":31582:31591   */\n      dup3\n        /* \"#utility.yul\":31578:31596   */\n      add\n        /* \"#utility.yul\":31570:31596   */\n      swap1\n      pop\n        /* \"#utility.yul\":31642:31651   */\n      dup2\n        /* \"#utility.yul\":31636:31640   */\n      dup2\n        /* \"#utility.yul\":31632:31652   */\n      sub\n        /* \"#utility.yul\":31628:31629   */\n      0x00\n        /* \"#utility.yul\":31617:31626   */\n      dup4\n        /* \"#utility.yul\":31613:31630   */\n      add\n        /* \"#utility.yul\":31606:31653   */\n      mstore\n        /* \"#utility.yul\":31670:31801   */\n      tag_608\n        /* \"#utility.yul\":31796:31800   */\n      dup2\n        /* \"#utility.yul\":31670:31801   */\n      tag_310\n      jump\t// in\n    tag_608:\n        /* \"#utility.yul\":31662:31801   */\n      swap1\n      pop\n        /* \"#utility.yul\":31389:31808   */\n      swap2\n      swap1\n      pop\n      jump\t// out\n\n    auxdata: 0xa2646970667358221220b8f905066f2cb00cb441b23ae39f9e2d8f75ca1d322defb72fafec349c4e3ff264736f6c634300081a0033\n}\n",
				"bytecode": {
					"linkReferences": {},
					"object": "60a060405234801561000f575f80fd5b506040516127e63803806127e68339818101604052810190610031919061025f565b335f73ffffffffffffffffffffffffffffffffffffffff168173ffffffffffffffffffffffffffffffffffffffff16036100a2575f6040517f1e4fbdf70000000000000000000000000000000000000000000000000000000081526004016100999190610299565b60405180910390fd5b6100b18161014060201b60201c565b50737fa2addd4d59366aa98f66861d370c174dc00b4673ffffffffffffffffffffffffffffffffffffffff1660808173ffffffffffffffffffffffffffffffffffffffff16815250508060015f6101000a81548173ffffffffffffffffffffffffffffffffffffffff021916908373ffffffffffffffffffffffffffffffffffffffff160217905550506102b2565b5f805f9054906101000a900473ffffffffffffffffffffffffffffffffffffffff169050815f806101000a81548173ffffffffffffffffffffffffffffffffffffffff021916908373ffffffffffffffffffffffffffffffffffffffff1602179055508173ffffffffffffffffffffffffffffffffffffffff168173ffffffffffffffffffffffffffffffffffffffff167f8be0079c531659141344cd1fd0a4f28419497f9722a3daafe3b4186f6b6457e060405160405180910390a35050565b5f80fd5b5f73ffffffffffffffffffffffffffffffffffffffff82169050919050565b5f61022e82610205565b9050919050565b61023e81610224565b8114610248575f80fd5b50565b5f8151905061025981610235565b92915050565b5f6020828403121561027457610273610201565b5b5f6102818482850161024b565b91505092915050565b61029381610224565b82525050565b5f6020820190506102ac5f83018461028a565b92915050565b60805161250e6102d85f395f818161068c015281816109eb0152610a11015261250e5ff3fe608060405234801561000f575f80fd5b506004361061012a575f3560e01c80638da5cb5b116100ab578063ba2f03621161006f578063ba2f0362146102fa578063cf90b3be14610316578063e111f6b414610334578063f2fde38b14610350578063fbf1aded1461036c5761012a565b80638da5cb5b1461025157806396f979d21461026f578063996b5d8e146102a2578063a4e1f033146102be578063ae24f005146102dc5761012a565b806366055159116100f257806366055159146101d3578063715018a6146101f157806375284998146101fb57806387bc1425146102175780638a38ab2c146102355761012a565b806307f910f81461012e57806308e3d84b1461016157806317f5e33d1461017d5780633a447e761461019b5780635e52da27146101b7575b5f80fd5b61014860048036038101906101439190611585565b61038a565b60405161015894939291906115f8565b60405180910390f35b61017b60048036038101906101769190611665565b6103f1565b005b610185610618565b6040516101929190611710565b60405180910390f35b6101b560048036038101906101b09190611729565b61063d565b005b6101d160048036038101906101cc9190611754565b610688565b005b6101db61090b565b6040516101e8919061178e565b60405180910390f35b6101f9610911565b005b61021560048036038101906102109190611754565b610924565b005b61021f6109e9565b60405161022c91906117c7565b60405180910390f35b61024f600480360381019061024a919061191c565b610a0d565b005b610259610c19565b6040516102669190611972565b60405180910390f35b61028960048036038101906102849190611754565b610c40565b60405161029994939291906119eb565b60405180910390f35b6102bc60048036038101906102b79190611754565b610d1d565b005b6102c6610fbe565b6040516102d3919061178e565b60405180910390f35b6102e4610fc3565b6040516102f1919061178e565b60405180910390f35b610314600480360381019061030f9190611754565b610fc8565b005b61031e61120f565b60405161032b919061178e565b60405180910390f35b61034e60048036038101906103499190611754565b61121b565b005b61036a60048036038101906103659190611729565b611308565b005b61037461138c565b604051610381919061178e565b60405180910390f35b6003602052815f5260405f20602052805f5260405f205f9150915050805f015f9054906101000a900460ff1690805f0160019054906101000a900460ff1690805f0160029054906101000a900460ff1690805f0160039054906101000a900460ff16905084565b6103f9611398565b5f60035f8473ffffffffffffffffffffffffffffffffffffffff1673ffffffffffffffffffffffffffffffffffffffff1681526020019081526020015f205f8581526020019081526020015f209050805f015f9054906101000a900460ff16610497576040517f08c379a000000000000000000000000000000000000000000000000000000000815260040161048e90611a7f565b60405180910390fd5b6002815f0160019054906101000a900460ff1660ff16106104ed576040517f08c379a00000000000000000000000000000000000000000000000000000000081526004016104e490611ae7565b60405180910390fd5b805f0160029054906101000a900460ff161561053e576040517f08c379a000000000000000000000000000000000000000000000000000000000815260040161053590611b75565b60405180910390fd5b805f01600181819054906101000a900460ff168092919061055e90611bc0565b91906101000a81548160ff021916908360ff1602179055505081156105c3576001815f0160026101000a81548160ff02191690831515021790555060025f8581526020019081526020015f206003015f8154809291906105bd90611be8565b91905055505b8273ffffffffffffffffffffffffffffffffffffffff16847faee8895c1bf669485cee2dd54d1eee9e65b02a244afb6f798f95d72405cdf7a58460405161060a9190611c2f565b60405180910390a350505050565b60015f9054906101000a900473ffffffffffffffffffffffffffffffffffffffff1681565b610645611398565b8060015f6101000a81548173ffffffffffffffffffffffffffffffffffffffff021916908373ffffffffffffffffffffffffffffffffffffffff16021790555050565b600a7f000000000000000000000000000000000000000000000000000000000000000073ffffffffffffffffffffffffffffffffffffffff1663b9f79451336040518263ffffffff1660e01b81526004016106e39190611972565b602060405180830381865afa1580156106fe573d5f803e3d5ffd5b505050506040513d601f19601f820116820180604052508101906107229190611c5c565b1015610763576040517f08c379a000000000000000000000000000000000000000000000000000000000815260040161075a90611cf7565b60405180910390fd5b60025f8281526020019081526020015f206002015f9054906101000a900460ff166107c3576040517f08c379a00000000000000000000000000000000000000000000000000000000081526004016107ba90611d5f565b60405180910390fd5b60035f3373ffffffffffffffffffffffffffffffffffffffff1673ffffffffffffffffffffffffffffffffffffffff1681526020019081526020015f205f8281526020019081526020015f205f015f9054906101000a900460ff161561085e576040517f08c379a000000000000000000000000000000000000000000000000000000000815260040161085590611dc7565b60405180910390fd5b600160035f3373ffffffffffffffffffffffffffffffffffffffff1673ffffffffffffffffffffffffffffffffffffffff1681526020019081526020015f205f8381526020019081526020015f205f015f6101000a81548160ff0219169083151502179055503373ffffffffffffffffffffffffffffffffffffffff16817ffacf1a2842acbad124cbca0a047fe37bc246c68f814e0350c7bd8a022fd1dddb60405160405180910390a350565b60045481565b610919611398565b6109225f61141f565b565b61092c611398565b60025f8281526020019081526020015f206002015f9054906101000a900460ff161561098d576040517f08c379a000000000000000000000000000000000000000000000000000000000815260040161098490611e2f565b60405180910390fd5b600160025f8381526020019081526020015f206002015f6101000a81548160ff021916908315150217905550807f87c1c0e5cd17beb8c61a3337b32c66021cb179dd6f97d6d9ce923a029092bd4560405160405180910390a250565b7f000000000000000000000000000000000000000000000000000000000000000081565b60327f000000000000000000000000000000000000000000000000000000000000000073ffffffffffffffffffffffffffffffffffffffff1663b9f79451336040518263ffffffff1660e01b8152600401610a689190611972565b602060405180830381865afa158015610a83573d5f803e3d5ffd5b505050506040513d601f19601f82011682018060405250810190610aa79190611c5c565b1015610ae8576040517f08c379a0000000000000000000000000000000000000000000000000000000008152600401610adf90611ebd565b60405180910390fd5b5f60045f815480929190610afb90611be8565b91905055905060405180608001604052803373ffffffffffffffffffffffffffffffffffffffff1681526020018381526020015f151581526020015f81525060025f8381526020019081526020015f205f820151815f015f6101000a81548173ffffffffffffffffffffffffffffffffffffffff021916908373ffffffffffffffffffffffffffffffffffffffff1602179055506020820151816001019081610ba491906120cc565b506040820151816002015f6101000a81548160ff021916908315150217905550606082015181600301559050503373ffffffffffffffffffffffffffffffffffffffff16817fa68f79aa37f9cdc81c2757cfb3e11e9d7d89ca0a5410fbcf1b61125bc17fb1b760405160405180910390a35050565b5f805f9054906101000a900473ffffffffffffffffffffffffffffffffffffffff16905090565b6002602052805f5260405f205f91509050805f015f9054906101000a900473ffffffffffffffffffffffffffffffffffffffff1690806001018054610c8490611f08565b80601f0160208091040260200160405190810160405280929190818152602001828054610cb090611f08565b8015610cfb5780601f10610cd257610100808354040283529160200191610cfb565b820191905f5260205f20905b815481529060010190602001808311610cde57829003601f168201915b505050505090806002015f9054906101000a900460ff16908060030154905084565b5f60035f3373ffffffffffffffffffffffffffffffffffffffff1673ffffffffffffffffffffffffffffffffffffffff1681526020019081526020015f205f8381526020019081526020015f209050805f0160029054906101000a900460ff16610dbc576040517f08c379a0000000000000000000000000000000000000000000000000000000008152600401610db3906121e5565b60405180910390fd5b805f0160039054906101000a900460ff1615610e0d576040517f08c379a0000000000000000000000000000000000000000000000000000000008152600401610e049061224d565b60405180910390fd5b6002815f0160019054906101000a900460ff1660ff161115610e64576040517f08c379a0000000000000000000000000000000000000000000000000000000008152600401610e5b906122b5565b60405180910390fd5b6001815f0160036101000a81548160ff02191690831515021790555060015f9054906101000a900473ffffffffffffffffffffffffffffffffffffffff1673ffffffffffffffffffffffffffffffffffffffff1663a9059cbb33678ac7230489e800006040518363ffffffff1660e01b8152600401610ee49291906122d3565b6020604051808303815f875af1158015610f00573d5f803e3d5ffd5b505050506040513d601f19601f82011682018060405250810190610f24919061230e565b610f63576040517f08c379a0000000000000000000000000000000000000000000000000000000008152600401610f5a90612383565b60405180910390fd5b3373ffffffffffffffffffffffffffffffffffffffff16827f24b5efa61dd1cfc659205a97fb8ed868f3cb8c81922bab2b96423e5de1de2cb7678ac7230489e80000604051610fb2919061178e565b60405180910390a35050565b603281565b600a81565b5f60025f8381526020019081526020015f209050805f015f9054906101000a900473ffffffffffffffffffffffffffffffffffffffff1673ffffffffffffffffffffffffffffffffffffffff163373ffffffffffffffffffffffffffffffffffffffff161461106c576040517f08c379a000000000000000000000000000000000000000000000000000000000815260040161106390612411565b60405180910390fd5b806002015f9054906101000a900460ff166110bc576040517f08c379a00000000000000000000000000000000000000000000000000000000081526004016110b390611d5f565b60405180910390fd5b5f670de0b6b3a764000082600301546110d5919061242f565b90505f826003018190555060015f9054906101000a900473ffffffffffffffffffffffffffffffffffffffff1673ffffffffffffffffffffffffffffffffffffffff1663a9059cbb33836040518363ffffffff1660e01b815260040161113c9291906122d3565b6020604051808303815f875af1158015611158573d5f803e3d5ffd5b505050506040513d601f19601f8201168201806040525081019061117c919061230e565b6111bb576040517f08c379a00000000000000000000000000000000000000000000000000000000081526004016111b290612383565b60405180910390fd5b3373ffffffffffffffffffffffffffffffffffffffff16837fb67da43f4cc061f251c05601f44947d1be59a7ef5451a4a5230274da04f8824683604051611202919061178e565b60405180910390a3505050565b670de0b6b3a764000081565b611223611398565b60015f9054906101000a900473ffffffffffffffffffffffffffffffffffffffff1673ffffffffffffffffffffffffffffffffffffffff1663a9059cbb611268610c19565b836040518363ffffffff1660e01b81526004016112869291906122d3565b6020604051808303815f875af11580156112a2573d5f803e3d5ffd5b505050506040513d601f19601f820116820180604052508101906112c6919061230e565b611305576040517f08c379a00000000000000000000000000000000000000000000000000000000081526004016112fc906124ba565b60405180910390fd5b50565b611310611398565b5f73ffffffffffffffffffffffffffffffffffffffff168173ffffffffffffffffffffffffffffffffffffffff1603611380575f6040517f1e4fbdf70000000000000000000000000000000000000000000000000000000081526004016113779190611972565b60405180910390fd5b6113898161141f565b50565b678ac7230489e8000081565b6113a06114e0565b73ffffffffffffffffffffffffffffffffffffffff166113be610c19565b73ffffffffffffffffffffffffffffffffffffffff161461141d576113e16114e0565b6040517f118cdaa70000000000000000000000000000000000000000000000000000000081526004016114149190611972565b60405180910390fd5b565b5f805f9054906101000a900473ffffffffffffffffffffffffffffffffffffffff169050815f806101000a81548173ffffffffffffffffffffffffffffffffffffffff021916908373ffffffffffffffffffffffffffffffffffffffff1602179055508173ffffffffffffffffffffffffffffffffffffffff168173ffffffffffffffffffffffffffffffffffffffff167f8be0079c531659141344cd1fd0a4f28419497f9722a3daafe3b4186f6b6457e060405160405180910390a35050565b5f33905090565b5f604051905090565b5f80fd5b5f80fd5b5f73ffffffffffffffffffffffffffffffffffffffff82169050919050565b5f611521826114f8565b9050919050565b61153181611517565b811461153b575f80fd5b50565b5f8135905061154c81611528565b92915050565b5f819050919050565b61156481611552565b811461156e575f80fd5b50565b5f8135905061157f8161155b565b92915050565b5f806040838503121561159b5761159a6114f0565b5b5f6115a88582860161153e565b92505060206115b985828601611571565b9150509250929050565b5f8115159050919050565b6115d7816115c3565b82525050565b5f60ff82169050919050565b6115f2816115dd565b82525050565b5f60808201905061160b5f8301876115ce565b61161860208301866115e9565b61162560408301856115ce565b61163260608301846115ce565b95945050505050565b611644816115c3565b811461164e575f80fd5b50565b5f8135905061165f8161163b565b92915050565b5f805f6060848603121561167c5761167b6114f0565b5b5f61168986828701611571565b935050602061169a8682870161153e565b92505060406116ab86828701611651565b9150509250925092565b5f819050919050565b5f6116d86116d36116ce846114f8565b6116b5565b6114f8565b9050919050565b5f6116e9826116be565b9050919050565b5f6116fa826116df565b9050919050565b61170a816116f0565b82525050565b5f6020820190506117235f830184611701565b92915050565b5f6020828403121561173e5761173d6114f0565b5b5f61174b8482850161153e565b91505092915050565b5f60208284031215611769576117686114f0565b5b5f61177684828501611571565b91505092915050565b61178881611552565b82525050565b5f6020820190506117a15f83018461177f565b92915050565b5f6117b1826116df565b9050919050565b6117c1816117a7565b82525050565b5f6020820190506117da5f8301846117b8565b92915050565b5f80fd5b5f80fd5b5f601f19601f8301169050919050565b7f4e487b71000000000000000000000000000000000000000000000000000000005f52604160045260245ffd5b61182e826117e8565b810181811067ffffffffffffffff8211171561184d5761184c6117f8565b5b80604052505050565b5f61185f6114e7565b905061186b8282611825565b919050565b5f67ffffffffffffffff82111561188a576118896117f8565b5b611893826117e8565b9050602081019050919050565b828183375f83830152505050565b5f6118c06118bb84611870565b611856565b9050828152602081018484840111156118dc576118db6117e4565b5b6118e78482856118a0565b509392505050565b5f82601f830112611903576119026117e0565b5b81356119138482602086016118ae565b91505092915050565b5f60208284031215611931576119306114f0565b5b5f82013567ffffffffffffffff81111561194e5761194d6114f4565b5b61195a848285016118ef565b91505092915050565b61196c81611517565b82525050565b5f6020820190506119855f830184611963565b92915050565b5f81519050919050565b5f82825260208201905092915050565b8281835e5f83830152505050565b5f6119bd8261198b565b6119c78185611995565b93506119d78185602086016119a5565b6119e0816117e8565b840191505092915050565b5f6080820190506119fe5f830187611963565b8181036020830152611a1081866119b3565b9050611a1f60408301856115ce565b611a2c606083018461177f565b95945050505050565b7f55736572206e6f7420656e726f6c6c656420696e207468697320636f757273655f82015250565b5f611a69602083611995565b9150611a7482611a35565b602082019050919050565b5f6020820190508181035f830152611a9681611a5d565b9050919050565b7f4d6178696d756d20617474656d707473207265616368656400000000000000005f82015250565b5f611ad1601883611995565b9150611adc82611a9d565b602082019050919050565b5f6020820190508181035f830152611afe81611ac5565b9050919050565b7f557365722068617320616c726561647920706173736564207468697320636f755f8201527f7273650000000000000000000000000000000000000000000000000000000000602082015250565b5f611b5f602383611995565b9150611b6a82611b05565b604082019050919050565b5f6020820190508181035f830152611b8c81611b53565b9050919050565b7f4e487b71000000000000000000000000000000000000000000000000000000005f52601160045260245ffd5b5f611bca826115dd565b915060ff8203611bdd57611bdc611b93565b5b600182019050919050565b5f611bf282611552565b91507fffffffffffffffffffffffffffffffffffffffffffffffffffffffffffffffff8203611c2457611c23611b93565b5b600182019050919050565b5f602082019050611c425f8301846115ce565b92915050565b5f81519050611c568161155b565b92915050565b5f60208284031215611c7157611c706114f0565b5b5f611c7e84828501611c48565b91505092915050565b7f496e73756666696369656e742072657075746174696f6e20746f20656e726f6c5f8201527f6c00000000000000000000000000000000000000000000000000000000000000602082015250565b5f611ce1602183611995565b9150611cec82611c87565b604082019050919050565b5f6020820190508181035f830152611d0e81611cd5565b9050919050565b7f436f75727365206e6f7420617070726f766564000000000000000000000000005f82015250565b5f611d49601383611995565b9150611d5482611d15565b602082019050919050565b5f6020820190508181035f830152611d7681611d3d565b9050919050565b7f416c726561647920656e726f6c6c6564000000000000000000000000000000005f82015250565b5f611db1601083611995565b9150611dbc82611d7d565b602082019050919050565b5f6020820190508181035f830152611dde81611da5565b9050919050565b7f436f7572736520616c726561647920617070726f7665640000000000000000005f82015250565b5f611e19601783611995565b9150611e2482611de5565b602082019050919050565b5f6020820190508181035f830152611e4681611e0d565b9050919050565b7f496e73756666696369656e742072657075746174696f6e20746f2063726561745f8201527f6520636f75727365000000000000000000000000000000000000000000000000602082015250565b5f611ea7602883611995565b9150611eb282611e4d565b604082019050919050565b5f6020820190508181035f830152611ed481611e9b565b9050919050565b7f4e487b71000000000000000000000000000000000000000000000000000000005f52602260045260245ffd5b5f6002820490506001821680611f1f57607f821691505b602082108103611f3257611f31611edb565b5b50919050565b5f819050815f5260205f209050919050565b5f6020601f8301049050919050565b5f82821b905092915050565b5f60088302611f947fffffffffffffffffffffffffffffffffffffffffffffffffffffffffffffffff82611f59565b611f9e8683611f59565b95508019841693508086168417925050509392505050565b5f611fd0611fcb611fc684611552565b6116b5565b611552565b9050919050565b5f819050919050565b611fe983611fb6565b611ffd611ff582611fd7565b848454611f65565b825550505050565b5f90565b612011612005565b61201c818484611fe0565b505050565b5b8181101561203f576120345f82612009565b600181019050612022565b5050565b601f8211156120845761205581611f38565b61205e84611f4a565b8101602085101561206d578190505b61208161207985611f4a565b830182612021565b50505b505050565b5f82821c905092915050565b5f6120a45f1984600802612089565b1980831691505092915050565b5f6120bc8383612095565b9150826002028217905092915050565b6120d58261198b565b67ffffffffffffffff8111156120ee576120ed6117f8565b5b6120f88254611f08565b612103828285612043565b5f60209050601f831160018114612134575f8415612122578287015190505b61212c85826120b1565b865550612193565b601f19841661214286611f38565b5f5b8281101561216957848901518255600182019150602085019450602081019050612144565b868310156121865784890151612182601f891682612095565b8355505b6001600288020188555050505b505050505050565b7f436f75727365206e6f74207061737365640000000000000000000000000000005f82015250565b5f6121cf601183611995565b91506121da8261219b565b602082019050919050565b5f6020820190508181035f8301526121fc816121c3565b9050919050565b7f52657761726420616c726561647920636c61696d6564000000000000000000005f82015250565b5f612237601683611995565b915061224282612203565b602082019050919050565b5f6020820190508181035f8301526122648161222b565b9050919050565b7f4e6f7420656c696769626c6520666f72207265776172640000000000000000005f82015250565b5f61229f601783611995565b91506122aa8261226b565b602082019050919050565b5f6020820190508181035f8301526122cc81612293565b9050919050565b5f6040820190506122e65f830185611963565b6122f3602083018461177f565b9392505050565b5f815190506123088161163b565b92915050565b5f60208284031215612323576123226114f0565b5b5f612330848285016122fa565b91505092915050565b7f4661696c656420746f207472616e73666572204d414e4420746f6b656e7300005f82015250565b5f61236d601e83611995565b915061237882612339565b602082019050919050565b5f6020820190508181035f83015261239a81612361565b9050919050565b7f4f6e6c7920636f757273652063726561746f722063616e20636c61696d2072655f8201527f7761726400000000000000000000000000000000000000000000000000000000602082015250565b5f6123fb602483611995565b9150612406826123a1565b604082019050919050565b5f6020820190508181035f830152612428816123ef565b9050919050565b5f61243982611552565b915061244483611552565b925082820261245281611552565b9150828204841483151761246957612468611b93565b5b5092915050565b7f4661696c656420746f20776974686472617720746f6b656e73000000000000005f82015250565b5f6124a4601983611995565b91506124af82612470565b602082019050919050565b5f6020820190508181035f8301526124d181612498565b905091905056fea2646970667358221220b8f905066f2cb00cb441b23ae39f9e2d8f75ca1d322defb72fafec349c4e3ff264736f6c634300081a0033",
					"opcodes": "PUSH1 0xA0 PUSH1 0x40 MSTORE CALLVALUE DUP1 ISZERO PUSH2 0xF JUMPI PUSH0 DUP1 REVERT JUMPDEST POP PUSH1 0x40 MLOAD PUSH2 0x27E6 CODESIZE SUB DUP1 PUSH2 0x27E6 DUP4 CODECOPY DUP2 DUP2 ADD PUSH1 0x40 MSTORE DUP2 ADD SWAP1 PUSH2 0x31 SWAP2 SWAP1 PUSH2 0x25F JUMP JUMPDEST CALLER PUSH0 PUSH20 0xFFFFFFFFFFFFFFFFFFFFFFFFFFFFFFFFFFFFFFFF AND DUP2 PUSH20 0xFFFFFFFFFFFFFFFFFFFFFFFFFFFFFFFFFFFFFFFF AND SUB PUSH2 0xA2 JUMPI PUSH0 PUSH1 0x40 MLOAD PUSH32 0x1E4FBDF700000000000000000000000000000000000000000000000000000000 DUP2 MSTORE PUSH1 0x4 ADD PUSH2 0x99 SWAP2 SWAP1 PUSH2 0x299 JUMP JUMPDEST PUSH1 0x40 MLOAD DUP1 SWAP2 SUB SWAP1 REVERT JUMPDEST PUSH2 0xB1 DUP2 PUSH2 0x140 PUSH1 0x20 SHL PUSH1 0x20 SHR JUMP JUMPDEST POP PUSH20 0x7FA2ADDD4D59366AA98F66861D370C174DC00B46 PUSH20 0xFFFFFFFFFFFFFFFFFFFFFFFFFFFFFFFFFFFFFFFF AND PUSH1 0x80 DUP2 PUSH20 0xFFFFFFFFFFFFFFFFFFFFFFFFFFFFFFFFFFFFFFFF AND DUP2 MSTORE POP POP DUP1 PUSH1 0x1 PUSH0 PUSH2 0x100 EXP DUP2 SLOAD DUP2 PUSH20 0xFFFFFFFFFFFFFFFFFFFFFFFFFFFFFFFFFFFFFFFF MUL NOT AND SWAP1 DUP4 PUSH20 0xFFFFFFFFFFFFFFFFFFFFFFFFFFFFFFFFFFFFFFFF AND MUL OR SWAP1 SSTORE POP POP PUSH2 0x2B2 JUMP JUMPDEST PUSH0 DUP1 PUSH0 SWAP1 SLOAD SWAP1 PUSH2 0x100 EXP SWAP1 DIV PUSH20 0xFFFFFFFFFFFFFFFFFFFFFFFFFFFFFFFFFFFFFFFF AND SWAP1 POP DUP2 PUSH0 DUP1 PUSH2 0x100 EXP DUP2 SLOAD DUP2 PUSH20 0xFFFFFFFFFFFFFFFFFFFFFFFFFFFFFFFFFFFFFFFF MUL NOT AND SWAP1 DUP4 PUSH20 0xFFFFFFFFFFFFFFFFFFFFFFFFFFFFFFFFFFFFFFFF AND MUL OR SWAP1 SSTORE POP DUP2 PUSH20 0xFFFFFFFFFFFFFFFFFFFFFFFFFFFFFFFFFFFFFFFF AND DUP2 PUSH20 0xFFFFFFFFFFFFFFFFFFFFFFFFFFFFFFFFFFFFFFFF AND PUSH32 0x8BE0079C531659141344CD1FD0A4F28419497F9722A3DAAFE3B4186F6B6457E0 PUSH1 0x40 MLOAD PUSH1 0x40 MLOAD DUP1 SWAP2 SUB SWAP1 LOG3 POP POP JUMP JUMPDEST PUSH0 DUP1 REVERT JUMPDEST PUSH0 PUSH20 0xFFFFFFFFFFFFFFFFFFFFFFFFFFFFFFFFFFFFFFFF DUP3 AND SWAP1 POP SWAP2 SWAP1 POP JUMP JUMPDEST PUSH0 PUSH2 0x22E DUP3 PUSH2 0x205 JUMP JUMPDEST SWAP1 POP SWAP2 SWAP1 POP JUMP JUMPDEST PUSH2 0x23E DUP2 PUSH2 0x224 JUMP JUMPDEST DUP2 EQ PUSH2 0x248 JUMPI PUSH0 DUP1 REVERT JUMPDEST POP JUMP JUMPDEST PUSH0 DUP2 MLOAD SWAP1 POP PUSH2 0x259 DUP2 PUSH2 0x235 JUMP JUMPDEST SWAP3 SWAP2 POP POP JUMP JUMPDEST PUSH0 PUSH1 0x20 DUP3 DUP5 SUB SLT ISZERO PUSH2 0x274 JUMPI PUSH2 0x273 PUSH2 0x201 JUMP JUMPDEST JUMPDEST PUSH0 PUSH2 0x281 DUP5 DUP3 DUP6 ADD PUSH2 0x24B JUMP JUMPDEST SWAP2 POP POP SWAP3 SWAP2 POP POP JUMP JUMPDEST PUSH2 0x293 DUP2 PUSH2 0x224 JUMP JUMPDEST DUP3 MSTORE POP POP JUMP JUMPDEST PUSH0 PUSH1 0x20 DUP3 ADD SWAP1 POP PUSH2 0x2AC PUSH0 DUP4 ADD DUP5 PUSH2 0x28A JUMP JUMPDEST SWAP3 SWAP2 POP POP JUMP JUMPDEST PUSH1 0x80 MLOAD PUSH2 0x250E PUSH2 0x2D8 PUSH0 CODECOPY PUSH0 DUP2 DUP2 PUSH2 0x68C ADD MSTORE DUP2 DUP2 PUSH2 0x9EB ADD MSTORE PUSH2 0xA11 ADD MSTORE PUSH2 0x250E PUSH0 RETURN INVALID PUSH1 0x80 PUSH1 0x40 MSTORE CALLVALUE DUP1 ISZERO PUSH2 0xF JUMPI PUSH0 DUP1 REVERT JUMPDEST POP PUSH1 0x4 CALLDATASIZE LT PUSH2 0x12A JUMPI PUSH0 CALLDATALOAD PUSH1 0xE0 SHR DUP1 PUSH4 0x8DA5CB5B GT PUSH2 0xAB JUMPI DUP1 PUSH4 0xBA2F0362 GT PUSH2 0x6F JUMPI DUP1 PUSH4 0xBA2F0362 EQ PUSH2 0x2FA JUMPI DUP1 PUSH4 0xCF90B3BE EQ PUSH2 0x316 JUMPI DUP1 PUSH4 0xE111F6B4 EQ PUSH2 0x334 JUMPI DUP1 PUSH4 0xF2FDE38B EQ PUSH2 0x350 JUMPI DUP1 PUSH4 0xFBF1ADED EQ PUSH2 0x36C JUMPI PUSH2 0x12A JUMP JUMPDEST DUP1 PUSH4 0x8DA5CB5B EQ PUSH2 0x251 JUMPI DUP1 PUSH4 0x96F979D2 EQ PUSH2 0x26F JUMPI DUP1 PUSH4 0x996B5D8E EQ PUSH2 0x2A2 JUMPI DUP1 PUSH4 0xA4E1F033 EQ PUSH2 0x2BE JUMPI DUP1 PUSH4 0xAE24F005 EQ PUSH2 0x2DC JUMPI PUSH2 0x12A JUMP JUMPDEST DUP1 PUSH4 0x66055159 GT PUSH2 0xF2 JUMPI DUP1 PUSH4 0x66055159 EQ PUSH2 0x1D3 JUMPI DUP1 PUSH4 0x715018A6 EQ PUSH2 0x1F1 JUMPI DUP1 PUSH4 0x75284998 EQ PUSH2 0x1FB JUMPI DUP1 PUSH4 0x87BC1425 EQ PUSH2 0x217 JUMPI DUP1 PUSH4 0x8A38AB2C EQ PUSH2 0x235 JUMPI PUSH2 0x12A JUMP JUMPDEST DUP1 PUSH4 0x7F910F8 EQ PUSH2 0x12E JUMPI DUP1 PUSH4 0x8E3D84B EQ PUSH2 0x161 JUMPI DUP1 PUSH4 0x17F5E33D EQ PUSH2 0x17D JUMPI DUP1 PUSH4 0x3A447E76 EQ PUSH2 0x19B JUMPI DUP1 PUSH4 0x5E52DA27 EQ PUSH2 0x1B7 JUMPI JUMPDEST PUSH0 DUP1 REVERT JUMPDEST PUSH2 0x148 PUSH1 0x4 DUP1 CALLDATASIZE SUB DUP2 ADD SWAP1 PUSH2 0x143 SWAP2 SWAP1 PUSH2 0x1585 JUMP JUMPDEST PUSH2 0x38A JUMP JUMPDEST PUSH1 0x40 MLOAD PUSH2 0x158 SWAP5 SWAP4 SWAP3 SWAP2 SWAP1 PUSH2 0x15F8 JUMP JUMPDEST PUSH1 0x40 MLOAD DUP1 SWAP2 SUB SWAP1 RETURN JUMPDEST PUSH2 0x17B PUSH1 0x4 DUP1 CALLDATASIZE SUB DUP2 ADD SWAP1 PUSH2 0x176 SWAP2 SWAP1 PUSH2 0x1665 JUMP JUMPDEST PUSH2 0x3F1 JUMP JUMPDEST STOP JUMPDEST PUSH2 0x185 PUSH2 0x618 JUMP JUMPDEST PUSH1 0x40 MLOAD PUSH2 0x192 SWAP2 SWAP1 PUSH2 0x1710 JUMP JUMPDEST PUSH1 0x40 MLOAD DUP1 SWAP2 SUB SWAP1 RETURN JUMPDEST PUSH2 0x1B5 PUSH1 0x4 DUP1 CALLDATASIZE SUB DUP2 ADD SWAP1 PUSH2 0x1B0 SWAP2 SWAP1 PUSH2 0x1729 JUMP JUMPDEST PUSH2 0x63D JUMP JUMPDEST STOP JUMPDEST PUSH2 0x1D1 PUSH1 0x4 DUP1 CALLDATASIZE SUB DUP2 ADD SWAP1 PUSH2 0x1CC SWAP2 SWAP1 PUSH2 0x1754 JUMP JUMPDEST PUSH2 0x688 JUMP JUMPDEST STOP JUMPDEST PUSH2 0x1DB PUSH2 0x90B JUMP JUMPDEST PUSH1 0x40 MLOAD PUSH2 0x1E8 SWAP2 SWAP1 PUSH2 0x178E JUMP JUMPDEST PUSH1 0x40 MLOAD DUP1 SWAP2 SUB SWAP1 RETURN JUMPDEST PUSH2 0x1F9 PUSH2 0x911 JUMP JUMPDEST STOP JUMPDEST PUSH2 0x215 PUSH1 0x4 DUP1 CALLDATASIZE SUB DUP2 ADD SWAP1 PUSH2 0x210 SWAP2 SWAP1 PUSH2 0x1754 JUMP JUMPDEST PUSH2 0x924 JUMP JUMPDEST STOP JUMPDEST PUSH2 0x21F PUSH2 0x9E9 JUMP JUMPDEST PUSH1 0x40 MLOAD PUSH2 0x22C SWAP2 SWAP1 PUSH2 0x17C7 JUMP JUMPDEST PUSH1 0x40 MLOAD DUP1 SWAP2 SUB SWAP1 RETURN JUMPDEST PUSH2 0x24F PUSH1 0x4 DUP1 CALLDATASIZE SUB DUP2 ADD SWAP1 PUSH2 0x24A SWAP2 SWAP1 PUSH2 0x191C JUMP JUMPDEST PUSH2 0xA0D JUMP JUMPDEST STOP JUMPDEST PUSH2 0x259 PUSH2 0xC19 JUMP JUMPDEST PUSH1 0x40 MLOAD PUSH2 0x266 SWAP2 SWAP1 PUSH2 0x1972 JUMP JUMPDEST PUSH1 0x40 MLOAD DUP1 SWAP2 SUB SWAP1 RETURN JUMPDEST PUSH2 0x289 PUSH1 0x4 DUP1 CALLDATASIZE SUB DUP2 ADD SWAP1 PUSH2 0x284 SWAP2 SWAP1 PUSH2 0x1754 JUMP JUMPDEST PUSH2 0xC40 JUMP JUMPDEST PUSH1 0x40 MLOAD PUSH2 0x299 SWAP5 SWAP4 SWAP3 SWAP2 SWAP1 PUSH2 0x19EB JUMP JUMPDEST PUSH1 0x40 MLOAD DUP1 SWAP2 SUB SWAP1 RETURN JUMPDEST PUSH2 0x2BC PUSH1 0x4 DUP1 CALLDATASIZE SUB DUP2 ADD SWAP1 PUSH2 0x2B7 SWAP2 SWAP1 PUSH2 0x1754 JUMP JUMPDEST PUSH2 0xD1D JUMP JUMPDEST STOP JUMPDEST PUSH2 0x2C6 PUSH2 0xFBE JUMP JUMPDEST PUSH1 0x40 MLOAD PUSH2 0x2D3 SWAP2 SWAP1 PUSH2 0x178E JUMP JUMPDEST PUSH1 0x40 MLOAD DUP1 SWAP2 SUB SWAP1 RETURN JUMPDEST PUSH2 0x2E4 PUSH2 0xFC3 JUMP JUMPDEST PUSH1 0x40 MLOAD PUSH2 0x2F1 SWAP2 SWAP1 PUSH2 0x178E JUMP JUMPDEST PUSH1 0x40 MLOAD DUP1 SWAP2 SUB SWAP1 RETURN JUMPDEST PUSH2 0x314 PUSH1 0x4 DUP1 CALLDATASIZE SUB DUP2 ADD SWAP1 PUSH2 0x30F SWAP2 SWAP1 PUSH2 0x1754 JUMP JUMPDEST PUSH2 0xFC8 JUMP JUMPDEST STOP JUMPDEST PUSH2 0x31E PUSH2 0x120F JUMP JUMPDEST PUSH1 0x40 MLOAD PUSH2 0x32B SWAP2 SWAP1 PUSH2 0x178E JUMP JUMPDEST PUSH1 0x40 MLOAD DUP1 SWAP2 SUB SWAP1 RETURN JUMPDEST PUSH2 0x34E PUSH1 0x4 DUP1 CALLDATASIZE SUB DUP2 ADD SWAP1 PUSH2 0x349 SWAP2 SWAP1 PUSH2 0x1754 JUMP JUMPDEST PUSH2 0x121B JUMP JUMPDEST STOP JUMPDEST PUSH2 0x36A PUSH1 0x4 DUP1 CALLDATASIZE SUB DUP2 ADD SWAP1 PUSH2 0x365 SWAP2 SWAP1 PUSH2 0x1729 JUMP JUMPDEST PUSH2 0x1308 JUMP JUMPDEST STOP JUMPDEST PUSH2 0x374 PUSH2 0x138C JUMP JUMPDEST PUSH1 0x40 MLOAD PUSH2 0x381 SWAP2 SWAP1 PUSH2 0x178E JUMP JUMPDEST PUSH1 0x40 MLOAD DUP1 SWAP2 SUB SWAP1 RETURN JUMPDEST PUSH1 0x3 PUSH1 0x20 MSTORE DUP2 PUSH0 MSTORE PUSH1 0x40 PUSH0 KECCAK256 PUSH1 0x20 MSTORE DUP1 PUSH0 MSTORE PUSH1 0x40 PUSH0 KECCAK256 PUSH0 SWAP2 POP SWAP2 POP POP DUP1 PUSH0 ADD PUSH0 SWAP1 SLOAD SWAP1 PUSH2 0x100 EXP SWAP1 DIV PUSH1 0xFF AND SWAP1 DUP1 PUSH0 ADD PUSH1 0x1 SWAP1 SLOAD SWAP1 PUSH2 0x100 EXP SWAP1 DIV PUSH1 0xFF AND SWAP1 DUP1 PUSH0 ADD PUSH1 0x2 SWAP1 SLOAD SWAP1 PUSH2 0x100 EXP SWAP1 DIV PUSH1 0xFF AND SWAP1 DUP1 PUSH0 ADD PUSH1 0x3 SWAP1 SLOAD SWAP1 PUSH2 0x100 EXP SWAP1 DIV PUSH1 0xFF AND SWAP1 POP DUP5 JUMP JUMPDEST PUSH2 0x3F9 PUSH2 0x1398 JUMP JUMPDEST PUSH0 PUSH1 0x3 PUSH0 DUP5 PUSH20 0xFFFFFFFFFFFFFFFFFFFFFFFFFFFFFFFFFFFFFFFF AND PUSH20 0xFFFFFFFFFFFFFFFFFFFFFFFFFFFFFFFFFFFFFFFF AND DUP2 MSTORE PUSH1 0x20 ADD SWAP1 DUP2 MSTORE PUSH1 0x20 ADD PUSH0 KECCAK256 PUSH0 DUP6 DUP2 MSTORE PUSH1 0x20 ADD SWAP1 DUP2 MSTORE PUSH1 0x20 ADD PUSH0 KECCAK256 SWAP1 POP DUP1 PUSH0 ADD PUSH0 SWAP1 SLOAD SWAP1 PUSH2 0x100 EXP SWAP1 DIV PUSH1 0xFF AND PUSH2 0x497 JUMPI PUSH1 0x40 MLOAD PUSH32 0x8C379A000000000000000000000000000000000000000000000000000000000 DUP2 MSTORE PUSH1 0x4 ADD PUSH2 0x48E SWAP1 PUSH2 0x1A7F JUMP JUMPDEST PUSH1 0x40 MLOAD DUP1 SWAP2 SUB SWAP1 REVERT JUMPDEST PUSH1 0x2 DUP2 PUSH0 ADD PUSH1 0x1 SWAP1 SLOAD SWAP1 PUSH2 0x100 EXP SWAP1 DIV PUSH1 0xFF AND PUSH1 0xFF AND LT PUSH2 0x4ED JUMPI PUSH1 0x40 MLOAD PUSH32 0x8C379A000000000000000000000000000000000000000000000000000000000 DUP2 MSTORE PUSH1 0x4 ADD PUSH2 0x4E4 SWAP1 PUSH2 0x1AE7 JUMP JUMPDEST PUSH1 0x40 MLOAD DUP1 SWAP2 SUB SWAP1 REVERT JUMPDEST DUP1 PUSH0 ADD PUSH1 0x2 SWAP1 SLOAD SWAP1 PUSH2 0x100 EXP SWAP1 DIV PUSH1 0xFF AND ISZERO PUSH2 0x53E JUMPI PUSH1 0x40 MLOAD PUSH32 0x8C379A000000000000000000000000000000000000000000000000000000000 DUP2 MSTORE PUSH1 0x4 ADD PUSH2 0x535 SWAP1 PUSH2 0x1B75 JUMP JUMPDEST PUSH1 0x40 MLOAD DUP1 SWAP2 SUB SWAP1 REVERT JUMPDEST DUP1 PUSH0 ADD PUSH1 0x1 DUP2 DUP2 SWAP1 SLOAD SWAP1 PUSH2 0x100 EXP SWAP1 DIV PUSH1 0xFF AND DUP1 SWAP3 SWAP2 SWAP1 PUSH2 0x55E SWAP1 PUSH2 0x1BC0 JUMP JUMPDEST SWAP2 SWAP1 PUSH2 0x100 EXP DUP2 SLOAD DUP2 PUSH1 0xFF MUL NOT AND SWAP1 DUP4 PUSH1 0xFF AND MUL OR SWAP1 SSTORE POP POP DUP2 ISZERO PUSH2 0x5C3 JUMPI PUSH1 0x1 DUP2 PUSH0 ADD PUSH1 0x2 PUSH2 0x100 EXP DUP2 SLOAD DUP2 PUSH1 0xFF MUL NOT AND SWAP1 DUP4 ISZERO ISZERO MUL OR SWAP1 SSTORE POP PUSH1 0x2 PUSH0 DUP6 DUP2 MSTORE PUSH1 0x20 ADD SWAP1 DUP2 MSTORE PUSH1 0x20 ADD PUSH0 KECCAK256 PUSH1 0x3 ADD PUSH0 DUP2 SLOAD DUP1 SWAP3 SWAP2 SWAP1 PUSH2 0x5BD SWAP1 PUSH2 0x1BE8 JUMP JUMPDEST SWAP2 SWAP1 POP SSTORE POP JUMPDEST DUP3 PUSH20 0xFFFFFFFFFFFFFFFFFFFFFFFFFFFFFFFFFFFFFFFF AND DUP5 PUSH32 0xAEE8895C1BF669485CEE2DD54D1EEE9E65B02A244AFB6F798F95D72405CDF7A5 DUP5 PUSH1 0x40 MLOAD PUSH2 0x60A SWAP2 SWAP1 PUSH2 0x1C2F JUMP JUMPDEST PUSH1 0x40 MLOAD DUP1 SWAP2 SUB SWAP1 LOG3 POP POP POP POP JUMP JUMPDEST PUSH1 0x1 PUSH0 SWAP1 SLOAD SWAP1 PUSH2 0x100 EXP SWAP1 DIV PUSH20 0xFFFFFFFFFFFFFFFFFFFFFFFFFFFFFFFFFFFFFFFF AND DUP2 JUMP JUMPDEST PUSH2 0x645 PUSH2 0x1398 JUMP JUMPDEST DUP1 PUSH1 0x1 PUSH0 PUSH2 0x100 EXP DUP2 SLOAD DUP2 PUSH20 0xFFFFFFFFFFFFFFFFFFFFFFFFFFFFFFFFFFFFFFFF MUL NOT AND SWAP1 DUP4 PUSH20 0xFFFFFFFFFFFFFFFFFFFFFFFFFFFFFFFFFFFFFFFF AND MUL OR SWAP1 SSTORE POP POP JUMP JUMPDEST PUSH1 0xA PUSH32 0x0 PUSH20 0xFFFFFFFFFFFFFFFFFFFFFFFFFFFFFFFFFFFFFFFF AND PUSH4 0xB9F79451 CALLER PUSH1 0x40 MLOAD DUP3 PUSH4 0xFFFFFFFF AND PUSH1 0xE0 SHL DUP2 MSTORE PUSH1 0x4 ADD PUSH2 0x6E3 SWAP2 SWAP1 PUSH2 0x1972 JUMP JUMPDEST PUSH1 0x20 PUSH1 0x40 MLOAD DUP1 DUP4 SUB DUP2 DUP7 GAS STATICCALL ISZERO DUP1 ISZERO PUSH2 0x6FE JUMPI RETURNDATASIZE PUSH0 DUP1 RETURNDATACOPY RETURNDATASIZE PUSH0 REVERT JUMPDEST POP POP POP POP PUSH1 0x40 MLOAD RETURNDATASIZE PUSH1 0x1F NOT PUSH1 0x1F DUP3 ADD AND DUP3 ADD DUP1 PUSH1 0x40 MSTORE POP DUP2 ADD SWAP1 PUSH2 0x722 SWAP2 SWAP1 PUSH2 0x1C5C JUMP JUMPDEST LT ISZERO PUSH2 0x763 JUMPI PUSH1 0x40 MLOAD PUSH32 0x8C379A000000000000000000000000000000000000000000000000000000000 DUP2 MSTORE PUSH1 0x4 ADD PUSH2 0x75A SWAP1 PUSH2 0x1CF7 JUMP JUMPDEST PUSH1 0x40 MLOAD DUP1 SWAP2 SUB SWAP1 REVERT JUMPDEST PUSH1 0x2 PUSH0 DUP3 DUP2 MSTORE PUSH1 0x20 ADD SWAP1 DUP2 MSTORE PUSH1 0x20 ADD PUSH0 KECCAK256 PUSH1 0x2 ADD PUSH0 SWAP1 SLOAD SWAP1 PUSH2 0x100 EXP SWAP1 DIV PUSH1 0xFF AND PUSH2 0x7C3 JUMPI PUSH1 0x40 MLOAD PUSH32 0x8C379A000000000000000000000000000000000000000000000000000000000 DUP2 MSTORE PUSH1 0x4 ADD PUSH2 0x7BA SWAP1 PUSH2 0x1D5F JUMP JUMPDEST PUSH1 0x40 MLOAD DUP1 SWAP2 SUB SWAP1 REVERT JUMPDEST PUSH1 0x3 PUSH0 CALLER PUSH20 0xFFFFFFFFFFFFFFFFFFFFFFFFFFFFFFFFFFFFFFFF AND PUSH20 0xFFFFFFFFFFFFFFFFFFFFFFFFFFFFFFFFFFFFFFFF AND DUP2 MSTORE PUSH1 0x20 ADD SWAP1 DUP2 MSTORE PUSH1 0x20 ADD PUSH0 KECCAK256 PUSH0 DUP3 DUP2 MSTORE PUSH1 0x20 ADD SWAP1 DUP2 MSTORE PUSH1 0x20 ADD PUSH0 KECCAK256 PUSH0 ADD PUSH0 SWAP1 SLOAD SWAP1 PUSH2 0x100 EXP SWAP1 DIV PUSH1 0xFF AND ISZERO PUSH2 0x85E JUMPI PUSH1 0x40 MLOAD PUSH32 0x8C379A000000000000000000000000000000000000000000000000000000000 DUP2 MSTORE PUSH1 0x4 ADD PUSH2 0x855 SWAP1 PUSH2 0x1DC7 JUMP JUMPDEST PUSH1 0x40 MLOAD DUP1 SWAP2 SUB SWAP1 REVERT JUMPDEST PUSH1 0x1 PUSH1 0x3 PUSH0 CALLER PUSH20 0xFFFFFFFFFFFFFFFFFFFFFFFFFFFFFFFFFFFFFFFF AND PUSH20 0xFFFFFFFFFFFFFFFFFFFFFFFFFFFFFFFFFFFFFFFF AND DUP2 MSTORE PUSH1 0x20 ADD SWAP1 DUP2 MSTORE PUSH1 0x20 ADD PUSH0 KECCAK256 PUSH0 DUP4 DUP2 MSTORE PUSH1 0x20 ADD SWAP1 DUP2 MSTORE PUSH1 0x20 ADD PUSH0 KECCAK256 PUSH0 ADD PUSH0 PUSH2 0x100 EXP DUP2 SLOAD DUP2 PUSH1 0xFF MUL NOT AND SWAP1 DUP4 ISZERO ISZERO MUL OR SWAP1 SSTORE POP CALLER PUSH20 0xFFFFFFFFFFFFFFFFFFFFFFFFFFFFFFFFFFFFFFFF AND DUP2 PUSH32 0xFACF1A2842ACBAD124CBCA0A047FE37BC246C68F814E0350C7BD8A022FD1DDDB PUSH1 0x40 MLOAD PUSH1 0x40 MLOAD DUP1 SWAP2 SUB SWAP1 LOG3 POP JUMP JUMPDEST PUSH1 0x4 SLOAD DUP2 JUMP JUMPDEST PUSH2 0x919 PUSH2 0x1398 JUMP JUMPDEST PUSH2 0x922 PUSH0 PUSH2 0x141F JUMP JUMPDEST JUMP JUMPDEST PUSH2 0x92C PUSH2 0x1398 JUMP JUMPDEST PUSH1 0x2 PUSH0 DUP3 DUP2 MSTORE PUSH1 0x20 ADD SWAP1 DUP2 MSTORE PUSH1 0x20 ADD PUSH0 KECCAK256 PUSH1 0x2 ADD PUSH0 SWAP1 SLOAD SWAP1 PUSH2 0x100 EXP SWAP1 DIV PUSH1 0xFF AND ISZERO PUSH2 0x98D JUMPI PUSH1 0x40 MLOAD PUSH32 0x8C379A000000000000000000000000000000000000000000000000000000000 DUP2 MSTORE PUSH1 0x4 ADD PUSH2 0x984 SWAP1 PUSH2 0x1E2F JUMP JUMPDEST PUSH1 0x40 MLOAD DUP1 SWAP2 SUB SWAP1 REVERT JUMPDEST PUSH1 0x1 PUSH1 0x2 PUSH0 DUP4 DUP2 MSTORE PUSH1 0x20 ADD SWAP1 DUP2 MSTORE PUSH1 0x20 ADD PUSH0 KECCAK256 PUSH1 0x2 ADD PUSH0 PUSH2 0x100 EXP DUP2 SLOAD DUP2 PUSH1 0xFF MUL NOT AND SWAP1 DUP4 ISZERO ISZERO MUL OR SWAP1 SSTORE POP DUP1 PUSH32 0x87C1C0E5CD17BEB8C61A3337B32C66021CB179DD6F97D6D9CE923A029092BD45 PUSH1 0x40 MLOAD PUSH1 0x40 MLOAD DUP1 SWAP2 SUB SWAP1 LOG2 POP JUMP JUMPDEST PUSH32 0x0 DUP2 JUMP JUMPDEST PUSH1 0x32 PUSH32 0x0 PUSH20 0xFFFFFFFFFFFFFFFFFFFFFFFFFFFFFFFFFFFFFFFF AND PUSH4 0xB9F79451 CALLER PUSH1 0x40 MLOAD DUP3 PUSH4 0xFFFFFFFF AND PUSH1 0xE0 SHL DUP2 MSTORE PUSH1 0x4 ADD PUSH2 0xA68 SWAP2 SWAP1 PUSH2 0x1972 JUMP JUMPDEST PUSH1 0x20 PUSH1 0x40 MLOAD DUP1 DUP4 SUB DUP2 DUP7 GAS STATICCALL ISZERO DUP1 ISZERO PUSH2 0xA83 JUMPI RETURNDATASIZE PUSH0 DUP1 RETURNDATACOPY RETURNDATASIZE PUSH0 REVERT JUMPDEST POP POP POP POP PUSH1 0x40 MLOAD RETURNDATASIZE PUSH1 0x1F NOT PUSH1 0x1F DUP3 ADD AND DUP3 ADD DUP1 PUSH1 0x40 MSTORE POP DUP2 ADD SWAP1 PUSH2 0xAA7 SWAP2 SWAP1 PUSH2 0x1C5C JUMP JUMPDEST LT ISZERO PUSH2 0xAE8 JUMPI PUSH1 0x40 MLOAD PUSH32 0x8C379A000000000000000000000000000000000000000000000000000000000 DUP2 MSTORE PUSH1 0x4 ADD PUSH2 0xADF SWAP1 PUSH2 0x1EBD JUMP JUMPDEST PUSH1 0x40 MLOAD DUP1 SWAP2 SUB SWAP1 REVERT JUMPDEST PUSH0 PUSH1 0x4 PUSH0 DUP2 SLOAD DUP1 SWAP3 SWAP2 SWAP1 PUSH2 0xAFB SWAP1 PUSH2 0x1BE8 JUMP JUMPDEST SWAP2 SWAP1 POP SSTORE SWAP1 POP PUSH1 0x40 MLOAD DUP1 PUSH1 0x80 ADD PUSH1 0x40 MSTORE DUP1 CALLER PUSH20 0xFFFFFFFFFFFFFFFFFFFFFFFFFFFFFFFFFFFFFFFF AND DUP2 MSTORE PUSH1 0x20 ADD DUP4 DUP2 MSTORE PUSH1 0x20 ADD PUSH0 ISZERO ISZERO DUP2 MSTORE PUSH1 0x20 ADD PUSH0 DUP2 MSTORE POP PUSH1 0x2 PUSH0 DUP4 DUP2 MSTORE PUSH1 0x20 ADD SWAP1 DUP2 MSTORE PUSH1 0x20 ADD PUSH0 KECCAK256 PUSH0 DUP3 ADD MLOAD DUP2 PUSH0 ADD PUSH0 PUSH2 0x100 EXP DUP2 SLOAD DUP2 PUSH20 0xFFFFFFFFFFFFFFFFFFFFFFFFFFFFFFFFFFFFFFFF MUL NOT AND SWAP1 DUP4 PUSH20 0xFFFFFFFFFFFFFFFFFFFFFFFFFFFFFFFFFFFFFFFF AND MUL OR SWAP1 SSTORE POP PUSH1 0x20 DUP3 ADD MLOAD DUP2 PUSH1 0x1 ADD SWAP1 DUP2 PUSH2 0xBA4 SWAP2 SWAP1 PUSH2 0x20CC JUMP JUMPDEST POP PUSH1 0x40 DUP3 ADD MLOAD DUP2 PUSH1 0x2 ADD PUSH0 PUSH2 0x100 EXP DUP2 SLOAD DUP2 PUSH1 0xFF MUL NOT AND SWAP1 DUP4 ISZERO ISZERO MUL OR SWAP1 SSTORE POP PUSH1 0x60 DUP3 ADD MLOAD DUP2 PUSH1 0x3 ADD SSTORE SWAP1 POP POP CALLER PUSH20 0xFFFFFFFFFFFFFFFFFFFFFFFFFFFFFFFFFFFFFFFF AND DUP2 PUSH32 0xA68F79AA37F9CDC81C2757CFB3E11E9D7D89CA0A5410FBCF1B61125BC17FB1B7 PUSH1 0x40 MLOAD PUSH1 0x40 MLOAD DUP1 SWAP2 SUB SWAP1 LOG3 POP POP JUMP JUMPDEST PUSH0 DUP1 PUSH0 SWAP1 SLOAD SWAP1 PUSH2 0x100 EXP SWAP1 DIV PUSH20 0xFFFFFFFFFFFFFFFFFFFFFFFFFFFFFFFFFFFFFFFF AND SWAP1 POP SWAP1 JUMP JUMPDEST PUSH1 0x2 PUSH1 0x20 MSTORE DUP1 PUSH0 MSTORE PUSH1 0x40 PUSH0 KECCAK256 PUSH0 SWAP2 POP SWAP1 POP DUP1 PUSH0 ADD PUSH0 SWAP1 SLOAD SWAP1 PUSH2 0x100 EXP SWAP1 DIV PUSH20 0xFFFFFFFFFFFFFFFFFFFFFFFFFFFFFFFFFFFFFFFF AND SWAP1 DUP1 PUSH1 0x1 ADD DUP1 SLOAD PUSH2 0xC84 SWAP1 PUSH2 0x1F08 JUMP JUMPDEST DUP1 PUSH1 0x1F ADD PUSH1 0x20 DUP1 SWAP2 DIV MUL PUSH1 0x20 ADD PUSH1 0x40 MLOAD SWAP1 DUP2 ADD PUSH1 0x40 MSTORE DUP1 SWAP3 SWAP2 SWAP1 DUP2 DUP2 MSTORE PUSH1 0x20 ADD DUP3 DUP1 SLOAD PUSH2 0xCB0 SWAP1 PUSH2 0x1F08 JUMP JUMPDEST DUP1 ISZERO PUSH2 0xCFB JUMPI DUP1 PUSH1 0x1F LT PUSH2 0xCD2 JUMPI PUSH2 0x100 DUP1 DUP4 SLOAD DIV MUL DUP4 MSTORE SWAP2 PUSH1 0x20 ADD SWAP2 PUSH2 0xCFB JUMP JUMPDEST DUP3 ADD SWAP2 SWAP1 PUSH0 MSTORE PUSH1 0x20 PUSH0 KECCAK256 SWAP1 JUMPDEST DUP2 SLOAD DUP2 MSTORE SWAP1 PUSH1 0x1 ADD SWAP1 PUSH1 0x20 ADD DUP1 DUP4 GT PUSH2 0xCDE JUMPI DUP3 SWAP1 SUB PUSH1 0x1F AND DUP3 ADD SWAP2 JUMPDEST POP POP POP POP POP SWAP1 DUP1 PUSH1 0x2 ADD PUSH0 SWAP1 SLOAD SWAP1 PUSH2 0x100 EXP SWAP1 DIV PUSH1 0xFF AND SWAP1 DUP1 PUSH1 0x3 ADD SLOAD SWAP1 POP DUP5 JUMP JUMPDEST PUSH0 PUSH1 0x3 PUSH0 CALLER PUSH20 0xFFFFFFFFFFFFFFFFFFFFFFFFFFFFFFFFFFFFFFFF AND PUSH20 0xFFFFFFFFFFFFFFFFFFFFFFFFFFFFFFFFFFFFFFFF AND DUP2 MSTORE PUSH1 0x20 ADD SWAP1 DUP2 MSTORE PUSH1 0x20 ADD PUSH0 KECCAK256 PUSH0 DUP4 DUP2 MSTORE PUSH1 0x20 ADD SWAP1 DUP2 MSTORE PUSH1 0x20 ADD PUSH0 KECCAK256 SWAP1 POP DUP1 PUSH0 ADD PUSH1 0x2 SWAP1 SLOAD SWAP1 PUSH2 0x100 EXP SWAP1 DIV PUSH1 0xFF AND PUSH2 0xDBC JUMPI PUSH1 0x40 MLOAD PUSH32 0x8C379A000000000000000000000000000000000000000000000000000000000 DUP2 MSTORE PUSH1 0x4 ADD PUSH2 0xDB3 SWAP1 PUSH2 0x21E5 JUMP JUMPDEST PUSH1 0x40 MLOAD DUP1 SWAP2 SUB SWAP1 REVERT JUMPDEST DUP1 PUSH0 ADD PUSH1 0x3 SWAP1 SLOAD SWAP1 PUSH2 0x100 EXP SWAP1 DIV PUSH1 0xFF AND ISZERO PUSH2 0xE0D JUMPI PUSH1 0x40 MLOAD PUSH32 0x8C379A000000000000000000000000000000000000000000000000000000000 DUP2 MSTORE PUSH1 0x4 ADD PUSH2 0xE04 SWAP1 PUSH2 0x224D JUMP JUMPDEST PUSH1 0x40 MLOAD DUP1 SWAP2 SUB SWAP1 REVERT JUMPDEST PUSH1 0x2 DUP2 PUSH0 ADD PUSH1 0x1 SWAP1 SLOAD SWAP1 PUSH2 0x100 EXP SWAP1 DIV PUSH1 0xFF AND PUSH1 0xFF AND GT ISZERO PUSH2 0xE64 JUMPI PUSH1 0x40 MLOAD PUSH32 0x8C379A000000000000000000000000000000000000000000000000000000000 DUP2 MSTORE PUSH1 0x4 ADD PUSH2 0xE5B SWAP1 PUSH2 0x22B5 JUMP JUMPDEST PUSH1 0x40 MLOAD DUP1 SWAP2 SUB SWAP1 REVERT JUMPDEST PUSH1 0x1 DUP2 PUSH0 ADD PUSH1 0x3 PUSH2 0x100 EXP DUP2 SLOAD DUP2 PUSH1 0xFF MUL NOT AND SWAP1 DUP4 ISZERO ISZERO MUL OR SWAP1 SSTORE POP PUSH1 0x1 PUSH0 SWAP1 SLOAD SWAP1 PUSH2 0x100 EXP SWAP1 DIV PUSH20 0xFFFFFFFFFFFFFFFFFFFFFFFFFFFFFFFFFFFFFFFF AND PUSH20 0xFFFFFFFFFFFFFFFFFFFFFFFFFFFFFFFFFFFFFFFF AND PUSH4 0xA9059CBB CALLER PUSH8 0x8AC7230489E80000 PUSH1 0x40 MLOAD DUP4 PUSH4 0xFFFFFFFF AND PUSH1 0xE0 SHL DUP2 MSTORE PUSH1 0x4 ADD PUSH2 0xEE4 SWAP3 SWAP2 SWAP1 PUSH2 0x22D3 JUMP JUMPDEST PUSH1 0x20 PUSH1 0x40 MLOAD DUP1 DUP4 SUB DUP2 PUSH0 DUP8 GAS CALL ISZERO DUP1 ISZERO PUSH2 0xF00 JUMPI RETURNDATASIZE PUSH0 DUP1 RETURNDATACOPY RETURNDATASIZE PUSH0 REVERT JUMPDEST POP POP POP POP PUSH1 0x40 MLOAD RETURNDATASIZE PUSH1 0x1F NOT PUSH1 0x1F DUP3 ADD AND DUP3 ADD DUP1 PUSH1 0x40 MSTORE POP DUP2 ADD SWAP1 PUSH2 0xF24 SWAP2 SWAP1 PUSH2 0x230E JUMP JUMPDEST PUSH2 0xF63 JUMPI PUSH1 0x40 MLOAD PUSH32 0x8C379A000000000000000000000000000000000000000000000000000000000 DUP2 MSTORE PUSH1 0x4 ADD PUSH2 0xF5A SWAP1 PUSH2 0x2383 JUMP JUMPDEST PUSH1 0x40 MLOAD DUP1 SWAP2 SUB SWAP1 REVERT JUMPDEST CALLER PUSH20 0xFFFFFFFFFFFFFFFFFFFFFFFFFFFFFFFFFFFFFFFF AND DUP3 PUSH32 0x24B5EFA61DD1CFC659205A97FB8ED868F3CB8C81922BAB2B96423E5DE1DE2CB7 PUSH8 0x8AC7230489E80000 PUSH1 0x40 MLOAD PUSH2 0xFB2 SWAP2 SWAP1 PUSH2 0x178E JUMP JUMPDEST PUSH1 0x40 MLOAD DUP1 SWAP2 SUB SWAP1 LOG3 POP POP JUMP JUMPDEST PUSH1 0x32 DUP2 JUMP JUMPDEST PUSH1 0xA DUP2 JUMP JUMPDEST PUSH0 PUSH1 0x2 PUSH0 DUP4 DUP2 MSTORE PUSH1 0x20 ADD SWAP1 DUP2 MSTORE PUSH1 0x20 ADD PUSH0 KECCAK256 SWAP1 POP DUP1 PUSH0 ADD PUSH0 SWAP1 SLOAD SWAP1 PUSH2 0x100 EXP SWAP1 DIV PUSH20 0xFFFFFFFFFFFFFFFFFFFFFFFFFFFFFFFFFFFFFFFF AND PUSH20 0xFFFFFFFFFFFFFFFFFFFFFFFFFFFFFFFFFFFFFFFF AND CALLER PUSH20 0xFFFFFFFFFFFFFFFFFFFFFFFFFFFFFFFFFFFFFFFF AND EQ PUSH2 0x106C JUMPI PUSH1 0x40 MLOAD PUSH32 0x8C379A000000000000000000000000000000000000000000000000000000000 DUP2 MSTORE PUSH1 0x4 ADD PUSH2 0x1063 SWAP1 PUSH2 0x2411 JUMP JUMPDEST PUSH1 0x40 MLOAD DUP1 SWAP2 SUB SWAP1 REVERT JUMPDEST DUP1 PUSH1 0x2 ADD PUSH0 SWAP1 SLOAD SWAP1 PUSH2 0x100 EXP SWAP1 DIV PUSH1 0xFF AND PUSH2 0x10BC JUMPI PUSH1 0x40 MLOAD PUSH32 0x8C379A000000000000000000000000000000000000000000000000000000000 DUP2 MSTORE PUSH1 0x4 ADD PUSH2 0x10B3 SWAP1 PUSH2 0x1D5F JUMP JUMPDEST PUSH1 0x40 MLOAD DUP1 SWAP2 SUB SWAP1 REVERT JUMPDEST PUSH0 PUSH8 0xDE0B6B3A7640000 DUP3 PUSH1 0x3 ADD SLOAD PUSH2 0x10D5 SWAP2 SWAP1 PUSH2 0x242F JUMP JUMPDEST SWAP1 POP PUSH0 DUP3 PUSH1 0x3 ADD DUP2 SWAP1 SSTORE POP PUSH1 0x1 PUSH0 SWAP1 SLOAD SWAP1 PUSH2 0x100 EXP SWAP1 DIV PUSH20 0xFFFFFFFFFFFFFFFFFFFFFFFFFFFFFFFFFFFFFFFF AND PUSH20 0xFFFFFFFFFFFFFFFFFFFFFFFFFFFFFFFFFFFFFFFF AND PUSH4 0xA9059CBB CALLER DUP4 PUSH1 0x40 MLOAD DUP4 PUSH4 0xFFFFFFFF AND PUSH1 0xE0 SHL DUP2 MSTORE PUSH1 0x4 ADD PUSH2 0x113C SWAP3 SWAP2 SWAP1 PUSH2 0x22D3 JUMP JUMPDEST PUSH1 0x20 PUSH1 0x40 MLOAD DUP1 DUP4 SUB DUP2 PUSH0 DUP8 GAS CALL ISZERO DUP1 ISZERO PUSH2 0x1158 JUMPI RETURNDATASIZE PUSH0 DUP1 RETURNDATACOPY RETURNDATASIZE PUSH0 REVERT JUMPDEST POP POP POP POP PUSH1 0x40 MLOAD RETURNDATASIZE PUSH1 0x1F NOT PUSH1 0x1F DUP3 ADD AND DUP3 ADD DUP1 PUSH1 0x40 MSTORE POP DUP2 ADD SWAP1 PUSH2 0x117C SWAP2 SWAP1 PUSH2 0x230E JUMP JUMPDEST PUSH2 0x11BB JUMPI PUSH1 0x40 MLOAD PUSH32 0x8C379A000000000000000000000000000000000000000000000000000000000 DUP2 MSTORE PUSH1 0x4 ADD PUSH2 0x11B2 SWAP1 PUSH2 0x2383 JUMP JUMPDEST PUSH1 0x40 MLOAD DUP1 SWAP2 SUB SWAP1 REVERT JUMPDEST CALLER PUSH20 0xFFFFFFFFFFFFFFFFFFFFFFFFFFFFFFFFFFFFFFFF AND DUP4 PUSH32 0xB67DA43F4CC061F251C05601F44947D1BE59A7EF5451A4A5230274DA04F88246 DUP4 PUSH1 0x40 MLOAD PUSH2 0x1202 SWAP2 SWAP1 PUSH2 0x178E JUMP JUMPDEST PUSH1 0x40 MLOAD DUP1 SWAP2 SUB SWAP1 LOG3 POP POP POP JUMP JUMPDEST PUSH8 0xDE0B6B3A7640000 DUP2 JUMP JUMPDEST PUSH2 0x1223 PUSH2 0x1398 JUMP JUMPDEST PUSH1 0x1 PUSH0 SWAP1 SLOAD SWAP1 PUSH2 0x100 EXP SWAP1 DIV PUSH20 0xFFFFFFFFFFFFFFFFFFFFFFFFFFFFFFFFFFFFFFFF AND PUSH20 0xFFFFFFFFFFFFFFFFFFFFFFFFFFFFFFFFFFFFFFFF AND PUSH4 0xA9059CBB PUSH2 0x1268 PUSH2 0xC19 JUMP JUMPDEST DUP4 PUSH1 0x40 MLOAD DUP4 PUSH4 0xFFFFFFFF AND PUSH1 0xE0 SHL DUP2 MSTORE PUSH1 0x4 ADD PUSH2 0x1286 SWAP3 SWAP2 SWAP1 PUSH2 0x22D3 JUMP JUMPDEST PUSH1 0x20 PUSH1 0x40 MLOAD DUP1 DUP4 SUB DUP2 PUSH0 DUP8 GAS CALL ISZERO DUP1 ISZERO PUSH2 0x12A2 JUMPI RETURNDATASIZE PUSH0 DUP1 RETURNDATACOPY RETURNDATASIZE PUSH0 REVERT JUMPDEST POP POP POP POP PUSH1 0x40 MLOAD RETURNDATASIZE PUSH1 0x1F NOT PUSH1 0x1F DUP3 ADD AND DUP3 ADD DUP1 PUSH1 0x40 MSTORE POP DUP2 ADD SWAP1 PUSH2 0x12C6 SWAP2 SWAP1 PUSH2 0x230E JUMP JUMPDEST PUSH2 0x1305 JUMPI PUSH1 0x40 MLOAD PUSH32 0x8C379A000000000000000000000000000000000000000000000000000000000 DUP2 MSTORE PUSH1 0x4 ADD PUSH2 0x12FC SWAP1 PUSH2 0x24BA JUMP JUMPDEST PUSH1 0x40 MLOAD DUP1 SWAP2 SUB SWAP1 REVERT JUMPDEST POP JUMP JUMPDEST PUSH2 0x1310 PUSH2 0x1398 JUMP JUMPDEST PUSH0 PUSH20 0xFFFFFFFFFFFFFFFFFFFFFFFFFFFFFFFFFFFFFFFF AND DUP2 PUSH20 0xFFFFFFFFFFFFFFFFFFFFFFFFFFFFFFFFFFFFFFFF AND SUB PUSH2 0x1380 JUMPI PUSH0 PUSH1 0x40 MLOAD PUSH32 0x1E4FBDF700000000000000000000000000000000000000000000000000000000 DUP2 MSTORE PUSH1 0x4 ADD PUSH2 0x1377 SWAP2 SWAP1 PUSH2 0x1972 JUMP JUMPDEST PUSH1 0x40 MLOAD DUP1 SWAP2 SUB SWAP1 REVERT JUMPDEST PUSH2 0x1389 DUP2 PUSH2 0x141F JUMP JUMPDEST POP JUMP JUMPDEST PUSH8 0x8AC7230489E80000 DUP2 JUMP JUMPDEST PUSH2 0x13A0 PUSH2 0x14E0 JUMP JUMPDEST PUSH20 0xFFFFFFFFFFFFFFFFFFFFFFFFFFFFFFFFFFFFFFFF AND PUSH2 0x13BE PUSH2 0xC19 JUMP JUMPDEST PUSH20 0xFFFFFFFFFFFFFFFFFFFFFFFFFFFFFFFFFFFFFFFF AND EQ PUSH2 0x141D JUMPI PUSH2 0x13E1 PUSH2 0x14E0 JUMP JUMPDEST PUSH1 0x40 MLOAD PUSH32 0x118CDAA700000000000000000000000000000000000000000000000000000000 DUP2 MSTORE PUSH1 0x4 ADD PUSH2 0x1414 SWAP2 SWAP1 PUSH2 0x1972 JUMP JUMPDEST PUSH1 0x40 MLOAD DUP1 SWAP2 SUB SWAP1 REVERT JUMPDEST JUMP JUMPDEST PUSH0 DUP1 PUSH0 SWAP1 SLOAD SWAP1 PUSH2 0x100 EXP SWAP1 DIV PUSH20 0xFFFFFFFFFFFFFFFFFFFFFFFFFFFFFFFFFFFFFFFF AND SWAP1 POP DUP2 PUSH0 DUP1 PUSH2 0x100 EXP DUP2 SLOAD DUP2 PUSH20 0xFFFFFFFFFFFFFFFFFFFFFFFFFFFFFFFFFFFFFFFF MUL NOT AND SWAP1 DUP4 PUSH20 0xFFFFFFFFFFFFFFFFFFFFFFFFFFFFFFFFFFFFFFFF AND MUL OR SWAP1 SSTORE POP DUP2 PUSH20 0xFFFFFFFFFFFFFFFFFFFFFFFFFFFFFFFFFFFFFFFF AND DUP2 PUSH20 0xFFFFFFFFFFFFFFFFFFFFFFFFFFFFFFFFFFFFFFFF AND PUSH32 0x8BE0079C531659141344CD1FD0A4F28419497F9722A3DAAFE3B4186F6B6457E0 PUSH1 0x40 MLOAD PUSH1 0x40 MLOAD DUP1 SWAP2 SUB SWAP1 LOG3 POP POP JUMP JUMPDEST PUSH0 CALLER SWAP1 POP SWAP1 JUMP JUMPDEST PUSH0 PUSH1 0x40 MLOAD SWAP1 POP SWAP1 JUMP JUMPDEST PUSH0 DUP1 REVERT JUMPDEST PUSH0 DUP1 REVERT JUMPDEST PUSH0 PUSH20 0xFFFFFFFFFFFFFFFFFFFFFFFFFFFFFFFFFFFFFFFF DUP3 AND SWAP1 POP SWAP2 SWAP1 POP JUMP JUMPDEST PUSH0 PUSH2 0x1521 DUP3 PUSH2 0x14F8 JUMP JUMPDEST SWAP1 POP SWAP2 SWAP1 POP JUMP JUMPDEST PUSH2 0x1531 DUP2 PUSH2 0x1517 JUMP JUMPDEST DUP2 EQ PUSH2 0x153B JUMPI PUSH0 DUP1 REVERT JUMPDEST POP JUMP JUMPDEST PUSH0 DUP2 CALLDATALOAD SWAP1 POP PUSH2 0x154C DUP2 PUSH2 0x1528 JUMP JUMPDEST SWAP3 SWAP2 POP POP JUMP JUMPDEST PUSH0 DUP2 SWAP1 POP SWAP2 SWAP1 POP JUMP JUMPDEST PUSH2 0x1564 DUP2 PUSH2 0x1552 JUMP JUMPDEST DUP2 EQ PUSH2 0x156E JUMPI PUSH0 DUP1 REVERT JUMPDEST POP JUMP JUMPDEST PUSH0 DUP2 CALLDATALOAD SWAP1 POP PUSH2 0x157F DUP2 PUSH2 0x155B JUMP JUMPDEST SWAP3 SWAP2 POP POP JUMP JUMPDEST PUSH0 DUP1 PUSH1 0x40 DUP4 DUP6 SUB SLT ISZERO PUSH2 0x159B JUMPI PUSH2 0x159A PUSH2 0x14F0 JUMP JUMPDEST JUMPDEST PUSH0 PUSH2 0x15A8 DUP6 DUP3 DUP7 ADD PUSH2 0x153E JUMP JUMPDEST SWAP3 POP POP PUSH1 0x20 PUSH2 0x15B9 DUP6 DUP3 DUP7 ADD PUSH2 0x1571 JUMP JUMPDEST SWAP2 POP POP SWAP3 POP SWAP3 SWAP1 POP JUMP JUMPDEST PUSH0 DUP2 ISZERO ISZERO SWAP1 POP SWAP2 SWAP1 POP JUMP JUMPDEST PUSH2 0x15D7 DUP2 PUSH2 0x15C3 JUMP JUMPDEST DUP3 MSTORE POP POP JUMP JUMPDEST PUSH0 PUSH1 0xFF DUP3 AND SWAP1 POP SWAP2 SWAP1 POP JUMP JUMPDEST PUSH2 0x15F2 DUP2 PUSH2 0x15DD JUMP JUMPDEST DUP3 MSTORE POP POP JUMP JUMPDEST PUSH0 PUSH1 0x80 DUP3 ADD SWAP1 POP PUSH2 0x160B PUSH0 DUP4 ADD DUP8 PUSH2 0x15CE JUMP JUMPDEST PUSH2 0x1618 PUSH1 0x20 DUP4 ADD DUP7 PUSH2 0x15E9 JUMP JUMPDEST PUSH2 0x1625 PUSH1 0x40 DUP4 ADD DUP6 PUSH2 0x15CE JUMP JUMPDEST PUSH2 0x1632 PUSH1 0x60 DUP4 ADD DUP5 PUSH2 0x15CE JUMP JUMPDEST SWAP6 SWAP5 POP POP POP POP POP JUMP JUMPDEST PUSH2 0x1644 DUP2 PUSH2 0x15C3 JUMP JUMPDEST DUP2 EQ PUSH2 0x164E JUMPI PUSH0 DUP1 REVERT JUMPDEST POP JUMP JUMPDEST PUSH0 DUP2 CALLDATALOAD SWAP1 POP PUSH2 0x165F DUP2 PUSH2 0x163B JUMP JUMPDEST SWAP3 SWAP2 POP POP JUMP JUMPDEST PUSH0 DUP1 PUSH0 PUSH1 0x60 DUP5 DUP7 SUB SLT ISZERO PUSH2 0x167C JUMPI PUSH2 0x167B PUSH2 0x14F0 JUMP JUMPDEST JUMPDEST PUSH0 PUSH2 0x1689 DUP7 DUP3 DUP8 ADD PUSH2 0x1571 JUMP JUMPDEST SWAP4 POP POP PUSH1 0x20 PUSH2 0x169A DUP7 DUP3 DUP8 ADD PUSH2 0x153E JUMP JUMPDEST SWAP3 POP POP PUSH1 0x40 PUSH2 0x16AB DUP7 DUP3 DUP8 ADD PUSH2 0x1651 JUMP JUMPDEST SWAP2 POP POP SWAP3 POP SWAP3 POP SWAP3 JUMP JUMPDEST PUSH0 DUP2 SWAP1 POP SWAP2 SWAP1 POP JUMP JUMPDEST PUSH0 PUSH2 0x16D8 PUSH2 0x16D3 PUSH2 0x16CE DUP5 PUSH2 0x14F8 JUMP JUMPDEST PUSH2 0x16B5 JUMP JUMPDEST PUSH2 0x14F8 JUMP JUMPDEST SWAP1 POP SWAP2 SWAP1 POP JUMP JUMPDEST PUSH0 PUSH2 0x16E9 DUP3 PUSH2 0x16BE JUMP JUMPDEST SWAP1 POP SWAP2 SWAP1 POP JUMP JUMPDEST PUSH0 PUSH2 0x16FA DUP3 PUSH2 0x16DF JUMP JUMPDEST SWAP1 POP SWAP2 SWAP1 POP JUMP JUMPDEST PUSH2 0x170A DUP2 PUSH2 0x16F0 JUMP JUMPDEST DUP3 MSTORE POP POP JUMP JUMPDEST PUSH0 PUSH1 0x20 DUP3 ADD SWAP1 POP PUSH2 0x1723 PUSH0 DUP4 ADD DUP5 PUSH2 0x1701 JUMP JUMPDEST SWAP3 SWAP2 POP POP JUMP JUMPDEST PUSH0 PUSH1 0x20 DUP3 DUP5 SUB SLT ISZERO PUSH2 0x173E JUMPI PUSH2 0x173D PUSH2 0x14F0 JUMP JUMPDEST JUMPDEST PUSH0 PUSH2 0x174B DUP5 DUP3 DUP6 ADD PUSH2 0x153E JUMP JUMPDEST SWAP2 POP POP SWAP3 SWAP2 POP POP JUMP JUMPDEST PUSH0 PUSH1 0x20 DUP3 DUP5 SUB SLT ISZERO PUSH2 0x1769 JUMPI PUSH2 0x1768 PUSH2 0x14F0 JUMP JUMPDEST JUMPDEST PUSH0 PUSH2 0x1776 DUP5 DUP3 DUP6 ADD PUSH2 0x1571 JUMP JUMPDEST SWAP2 POP POP SWAP3 SWAP2 POP POP JUMP JUMPDEST PUSH2 0x1788 DUP2 PUSH2 0x1552 JUMP JUMPDEST DUP3 MSTORE POP POP JUMP JUMPDEST PUSH0 PUSH1 0x20 DUP3 ADD SWAP1 POP PUSH2 0x17A1 PUSH0 DUP4 ADD DUP5 PUSH2 0x177F JUMP JUMPDEST SWAP3 SWAP2 POP POP JUMP JUMPDEST PUSH0 PUSH2 0x17B1 DUP3 PUSH2 0x16DF JUMP JUMPDEST SWAP1 POP SWAP2 SWAP1 POP JUMP JUMPDEST PUSH2 0x17C1 DUP2 PUSH2 0x17A7 JUMP JUMPDEST DUP3 MSTORE POP POP JUMP JUMPDEST PUSH0 PUSH1 0x20 DUP3 ADD SWAP1 POP PUSH2 0x17DA PUSH0 DUP4 ADD DUP5 PUSH2 0x17B8 JUMP JUMPDEST SWAP3 SWAP2 POP POP JUMP JUMPDEST PUSH0 DUP1 REVERT JUMPDEST PUSH0 DUP1 REVERT JUMPDEST PUSH0 PUSH1 0x1F NOT PUSH1 0x1F DUP4 ADD AND SWAP1 POP SWAP2 SWAP1 POP JUMP JUMPDEST PUSH32 0x4E487B7100000000000000000000000000000000000000000000000000000000 PUSH0 MSTORE PUSH1 0x41 PUSH1 0x4 MSTORE PUSH1 0x24 PUSH0 REVERT JUMPDEST PUSH2 0x182E DUP3 PUSH2 0x17E8 JUMP JUMPDEST DUP2 ADD DUP2 DUP2 LT PUSH8 0xFFFFFFFFFFFFFFFF DUP3 GT OR ISZERO PUSH2 0x184D JUMPI PUSH2 0x184C PUSH2 0x17F8 JUMP JUMPDEST JUMPDEST DUP1 PUSH1 0x40 MSTORE POP POP POP JUMP JUMPDEST PUSH0 PUSH2 0x185F PUSH2 0x14E7 JUMP JUMPDEST SWAP1 POP PUSH2 0x186B DUP3 DUP3 PUSH2 0x1825 JUMP JUMPDEST SWAP2 SWAP1 POP JUMP JUMPDEST PUSH0 PUSH8 0xFFFFFFFFFFFFFFFF DUP3 GT ISZERO PUSH2 0x188A JUMPI PUSH2 0x1889 PUSH2 0x17F8 JUMP JUMPDEST JUMPDEST PUSH2 0x1893 DUP3 PUSH2 0x17E8 JUMP JUMPDEST SWAP1 POP PUSH1 0x20 DUP2 ADD SWAP1 POP SWAP2 SWAP1 POP JUMP JUMPDEST DUP3 DUP2 DUP4 CALLDATACOPY PUSH0 DUP4 DUP4 ADD MSTORE POP POP POP JUMP JUMPDEST PUSH0 PUSH2 0x18C0 PUSH2 0x18BB DUP5 PUSH2 0x1870 JUMP JUMPDEST PUSH2 0x1856 JUMP JUMPDEST SWAP1 POP DUP3 DUP2 MSTORE PUSH1 0x20 DUP2 ADD DUP5 DUP5 DUP5 ADD GT ISZERO PUSH2 0x18DC JUMPI PUSH2 0x18DB PUSH2 0x17E4 JUMP JUMPDEST JUMPDEST PUSH2 0x18E7 DUP5 DUP3 DUP6 PUSH2 0x18A0 JUMP JUMPDEST POP SWAP4 SWAP3 POP POP POP JUMP JUMPDEST PUSH0 DUP3 PUSH1 0x1F DUP4 ADD SLT PUSH2 0x1903 JUMPI PUSH2 0x1902 PUSH2 0x17E0 JUMP JUMPDEST JUMPDEST DUP2 CALLDATALOAD PUSH2 0x1913 DUP5 DUP3 PUSH1 0x20 DUP7 ADD PUSH2 0x18AE JUMP JUMPDEST SWAP2 POP POP SWAP3 SWAP2 POP POP JUMP JUMPDEST PUSH0 PUSH1 0x20 DUP3 DUP5 SUB SLT ISZERO PUSH2 0x1931 JUMPI PUSH2 0x1930 PUSH2 0x14F0 JUMP JUMPDEST JUMPDEST PUSH0 DUP3 ADD CALLDATALOAD PUSH8 0xFFFFFFFFFFFFFFFF DUP2 GT ISZERO PUSH2 0x194E JUMPI PUSH2 0x194D PUSH2 0x14F4 JUMP JUMPDEST JUMPDEST PUSH2 0x195A DUP5 DUP3 DUP6 ADD PUSH2 0x18EF JUMP JUMPDEST SWAP2 POP POP SWAP3 SWAP2 POP POP JUMP JUMPDEST PUSH2 0x196C DUP2 PUSH2 0x1517 JUMP JUMPDEST DUP3 MSTORE POP POP JUMP JUMPDEST PUSH0 PUSH1 0x20 DUP3 ADD SWAP1 POP PUSH2 0x1985 PUSH0 DUP4 ADD DUP5 PUSH2 0x1963 JUMP JUMPDEST SWAP3 SWAP2 POP POP JUMP JUMPDEST PUSH0 DUP2 MLOAD SWAP1 POP SWAP2 SWAP1 POP JUMP JUMPDEST PUSH0 DUP3 DUP3 MSTORE PUSH1 0x20 DUP3 ADD SWAP1 POP SWAP3 SWAP2 POP POP JUMP JUMPDEST DUP3 DUP2 DUP4 MCOPY PUSH0 DUP4 DUP4 ADD MSTORE POP POP POP JUMP JUMPDEST PUSH0 PUSH2 0x19BD DUP3 PUSH2 0x198B JUMP JUMPDEST PUSH2 0x19C7 DUP2 DUP6 PUSH2 0x1995 JUMP JUMPDEST SWAP4 POP PUSH2 0x19D7 DUP2 DUP6 PUSH1 0x20 DUP7 ADD PUSH2 0x19A5 JUMP JUMPDEST PUSH2 0x19E0 DUP2 PUSH2 0x17E8 JUMP JUMPDEST DUP5 ADD SWAP2 POP POP SWAP3 SWAP2 POP POP JUMP JUMPDEST PUSH0 PUSH1 0x80 DUP3 ADD SWAP1 POP PUSH2 0x19FE PUSH0 DUP4 ADD DUP8 PUSH2 0x1963 JUMP JUMPDEST DUP2 DUP2 SUB PUSH1 0x20 DUP4 ADD MSTORE PUSH2 0x1A10 DUP2 DUP7 PUSH2 0x19B3 JUMP JUMPDEST SWAP1 POP PUSH2 0x1A1F PUSH1 0x40 DUP4 ADD DUP6 PUSH2 0x15CE JUMP JUMPDEST PUSH2 0x1A2C PUSH1 0x60 DUP4 ADD DUP5 PUSH2 0x177F JUMP JUMPDEST SWAP6 SWAP5 POP POP POP POP POP JUMP JUMPDEST PUSH32 0x55736572206E6F7420656E726F6C6C656420696E207468697320636F75727365 PUSH0 DUP3 ADD MSTORE POP JUMP JUMPDEST PUSH0 PUSH2 0x1A69 PUSH1 0x20 DUP4 PUSH2 0x1995 JUMP JUMPDEST SWAP2 POP PUSH2 0x1A74 DUP3 PUSH2 0x1A35 JUMP JUMPDEST PUSH1 0x20 DUP3 ADD SWAP1 POP SWAP2 SWAP1 POP JUMP JUMPDEST PUSH0 PUSH1 0x20 DUP3 ADD SWAP1 POP DUP2 DUP2 SUB PUSH0 DUP4 ADD MSTORE PUSH2 0x1A96 DUP2 PUSH2 0x1A5D JUMP JUMPDEST SWAP1 POP SWAP2 SWAP1 POP JUMP JUMPDEST PUSH32 0x4D6178696D756D20617474656D70747320726561636865640000000000000000 PUSH0 DUP3 ADD MSTORE POP JUMP JUMPDEST PUSH0 PUSH2 0x1AD1 PUSH1 0x18 DUP4 PUSH2 0x1995 JUMP JUMPDEST SWAP2 POP PUSH2 0x1ADC DUP3 PUSH2 0x1A9D JUMP JUMPDEST PUSH1 0x20 DUP3 ADD SWAP1 POP SWAP2 SWAP1 POP JUMP JUMPDEST PUSH0 PUSH1 0x20 DUP3 ADD SWAP1 POP DUP2 DUP2 SUB PUSH0 DUP4 ADD MSTORE PUSH2 0x1AFE DUP2 PUSH2 0x1AC5 JUMP JUMPDEST SWAP1 POP SWAP2 SWAP1 POP JUMP JUMPDEST PUSH32 0x557365722068617320616C726561647920706173736564207468697320636F75 PUSH0 DUP3 ADD MSTORE PUSH32 0x7273650000000000000000000000000000000000000000000000000000000000 PUSH1 0x20 DUP3 ADD MSTORE POP JUMP JUMPDEST PUSH0 PUSH2 0x1B5F PUSH1 0x23 DUP4 PUSH2 0x1995 JUMP JUMPDEST SWAP2 POP PUSH2 0x1B6A DUP3 PUSH2 0x1B05 JUMP JUMPDEST PUSH1 0x40 DUP3 ADD SWAP1 POP SWAP2 SWAP1 POP JUMP JUMPDEST PUSH0 PUSH1 0x20 DUP3 ADD SWAP1 POP DUP2 DUP2 SUB PUSH0 DUP4 ADD MSTORE PUSH2 0x1B8C DUP2 PUSH2 0x1B53 JUMP JUMPDEST SWAP1 POP SWAP2 SWAP1 POP JUMP JUMPDEST PUSH32 0x4E487B7100000000000000000000000000000000000000000000000000000000 PUSH0 MSTORE PUSH1 0x11 PUSH1 0x4 MSTORE PUSH1 0x24 PUSH0 REVERT JUMPDEST PUSH0 PUSH2 0x1BCA DUP3 PUSH2 0x15DD JUMP JUMPDEST SWAP2 POP PUSH1 0xFF DUP3 SUB PUSH2 0x1BDD JUMPI PUSH2 0x1BDC PUSH2 0x1B93 JUMP JUMPDEST JUMPDEST PUSH1 0x1 DUP3 ADD SWAP1 POP SWAP2 SWAP1 POP JUMP JUMPDEST PUSH0 PUSH2 0x1BF2 DUP3 PUSH2 0x1552 JUMP JUMPDEST SWAP2 POP PUSH32 0xFFFFFFFFFFFFFFFFFFFFFFFFFFFFFFFFFFFFFFFFFFFFFFFFFFFFFFFFFFFFFFFF DUP3 SUB PUSH2 0x1C24 JUMPI PUSH2 0x1C23 PUSH2 0x1B93 JUMP JUMPDEST JUMPDEST PUSH1 0x1 DUP3 ADD SWAP1 POP SWAP2 SWAP1 POP JUMP JUMPDEST PUSH0 PUSH1 0x20 DUP3 ADD SWAP1 POP PUSH2 0x1C42 PUSH0 DUP4 ADD DUP5 PUSH2 0x15CE JUMP JUMPDEST SWAP3 SWAP2 POP POP JUMP JUMPDEST PUSH0 DUP2 MLOAD SWAP1 POP PUSH2 0x1C56 DUP2 PUSH2 0x155B JUMP JUMPDEST SWAP3 SWAP2 POP POP JUMP JUMPDEST PUSH0 PUSH1 0x20 DUP3 DUP5 SUB SLT ISZERO PUSH2 0x1C71 JUMPI PUSH2 0x1C70 PUSH2 0x14F0 JUMP JUMPDEST JUMPDEST PUSH0 PUSH2 0x1C7E DUP5 DUP3 DUP6 ADD PUSH2 0x1C48 JUMP JUMPDEST SWAP2 POP POP SWAP3 SWAP2 POP POP JUMP JUMPDEST PUSH32 0x496E73756666696369656E742072657075746174696F6E20746F20656E726F6C PUSH0 DUP3 ADD MSTORE PUSH32 0x6C00000000000000000000000000000000000000000000000000000000000000 PUSH1 0x20 DUP3 ADD MSTORE POP JUMP JUMPDEST PUSH0 PUSH2 0x1CE1 PUSH1 0x21 DUP4 PUSH2 0x1995 JUMP JUMPDEST SWAP2 POP PUSH2 0x1CEC DUP3 PUSH2 0x1C87 JUMP JUMPDEST PUSH1 0x40 DUP3 ADD SWAP1 POP SWAP2 SWAP1 POP JUMP JUMPDEST PUSH0 PUSH1 0x20 DUP3 ADD SWAP1 POP DUP2 DUP2 SUB PUSH0 DUP4 ADD MSTORE PUSH2 0x1D0E DUP2 PUSH2 0x1CD5 JUMP JUMPDEST SWAP1 POP SWAP2 SWAP1 POP JUMP JUMPDEST PUSH32 0x436F75727365206E6F7420617070726F76656400000000000000000000000000 PUSH0 DUP3 ADD MSTORE POP JUMP JUMPDEST PUSH0 PUSH2 0x1D49 PUSH1 0x13 DUP4 PUSH2 0x1995 JUMP JUMPDEST SWAP2 POP PUSH2 0x1D54 DUP3 PUSH2 0x1D15 JUMP JUMPDEST PUSH1 0x20 DUP3 ADD SWAP1 POP SWAP2 SWAP1 POP JUMP JUMPDEST PUSH0 PUSH1 0x20 DUP3 ADD SWAP1 POP DUP2 DUP2 SUB PUSH0 DUP4 ADD MSTORE PUSH2 0x1D76 DUP2 PUSH2 0x1D3D JUMP JUMPDEST SWAP1 POP SWAP2 SWAP1 POP JUMP JUMPDEST PUSH32 0x416C726561647920656E726F6C6C656400000000000000000000000000000000 PUSH0 DUP3 ADD MSTORE POP JUMP JUMPDEST PUSH0 PUSH2 0x1DB1 PUSH1 0x10 DUP4 PUSH2 0x1995 JUMP JUMPDEST SWAP2 POP PUSH2 0x1DBC DUP3 PUSH2 0x1D7D JUMP JUMPDEST PUSH1 0x20 DUP3 ADD SWAP1 POP SWAP2 SWAP1 POP JUMP JUMPDEST PUSH0 PUSH1 0x20 DUP3 ADD SWAP1 POP DUP2 DUP2 SUB PUSH0 DUP4 ADD MSTORE PUSH2 0x1DDE DUP2 PUSH2 0x1DA5 JUMP JUMPDEST SWAP1 POP SWAP2 SWAP1 POP JUMP JUMPDEST PUSH32 0x436F7572736520616C726561647920617070726F766564000000000000000000 PUSH0 DUP3 ADD MSTORE POP JUMP JUMPDEST PUSH0 PUSH2 0x1E19 PUSH1 0x17 DUP4 PUSH2 0x1995 JUMP JUMPDEST SWAP2 POP PUSH2 0x1E24 DUP3 PUSH2 0x1DE5 JUMP JUMPDEST PUSH1 0x20 DUP3 ADD SWAP1 POP SWAP2 SWAP1 POP JUMP JUMPDEST PUSH0 PUSH1 0x20 DUP3 ADD SWAP1 POP DUP2 DUP2 SUB PUSH0 DUP4 ADD MSTORE PUSH2 0x1E46 DUP2 PUSH2 0x1E0D JUMP JUMPDEST SWAP1 POP SWAP2 SWAP1 POP JUMP JUMPDEST PUSH32 0x496E73756666696369656E742072657075746174696F6E20746F206372656174 PUSH0 DUP3 ADD MSTORE PUSH32 0x6520636F75727365000000000000000000000000000000000000000000000000 PUSH1 0x20 DUP3 ADD MSTORE POP JUMP JUMPDEST PUSH0 PUSH2 0x1EA7 PUSH1 0x28 DUP4 PUSH2 0x1995 JUMP JUMPDEST SWAP2 POP PUSH2 0x1EB2 DUP3 PUSH2 0x1E4D JUMP JUMPDEST PUSH1 0x40 DUP3 ADD SWAP1 POP SWAP2 SWAP1 POP JUMP JUMPDEST PUSH0 PUSH1 0x20 DUP3 ADD SWAP1 POP DUP2 DUP2 SUB PUSH0 DUP4 ADD MSTORE PUSH2 0x1ED4 DUP2 PUSH2 0x1E9B JUMP JUMPDEST SWAP1 POP SWAP2 SWAP1 POP JUMP JUMPDEST PUSH32 0x4E487B7100000000000000000000000000000000000000000000000000000000 PUSH0 MSTORE PUSH1 0x22 PUSH1 0x4 MSTORE PUSH1 0x24 PUSH0 REVERT JUMPDEST PUSH0 PUSH1 0x2 DUP3 DIV SWAP1 POP PUSH1 0x1 DUP3 AND DUP1 PUSH2 0x1F1F JUMPI PUSH1 0x7F DUP3 AND SWAP2 POP JUMPDEST PUSH1 0x20 DUP3 LT DUP2 SUB PUSH2 0x1F32 JUMPI PUSH2 0x1F31 PUSH2 0x1EDB JUMP JUMPDEST JUMPDEST POP SWAP2 SWAP1 POP JUMP JUMPDEST PUSH0 DUP2 SWAP1 POP DUP2 PUSH0 MSTORE PUSH1 0x20 PUSH0 KECCAK256 SWAP1 POP SWAP2 SWAP1 POP JUMP JUMPDEST PUSH0 PUSH1 0x20 PUSH1 0x1F DUP4 ADD DIV SWAP1 POP SWAP2 SWAP1 POP JUMP JUMPDEST PUSH0 DUP3 DUP3 SHL SWAP1 POP SWAP3 SWAP2 POP POP JUMP JUMPDEST PUSH0 PUSH1 0x8 DUP4 MUL PUSH2 0x1F94 PUSH32 0xFFFFFFFFFFFFFFFFFFFFFFFFFFFFFFFFFFFFFFFFFFFFFFFFFFFFFFFFFFFFFFFF DUP3 PUSH2 0x1F59 JUMP JUMPDEST PUSH2 0x1F9E DUP7 DUP4 PUSH2 0x1F59 JUMP JUMPDEST SWAP6 POP DUP1 NOT DUP5 AND SWAP4 POP DUP1 DUP7 AND DUP5 OR SWAP3 POP POP POP SWAP4 SWAP3 POP POP POP JUMP JUMPDEST PUSH0 PUSH2 0x1FD0 PUSH2 0x1FCB PUSH2 0x1FC6 DUP5 PUSH2 0x1552 JUMP JUMPDEST PUSH2 0x16B5 JUMP JUMPDEST PUSH2 0x1552 JUMP JUMPDEST SWAP1 POP SWAP2 SWAP1 POP JUMP JUMPDEST PUSH0 DUP2 SWAP1 POP SWAP2 SWAP1 POP JUMP JUMPDEST PUSH2 0x1FE9 DUP4 PUSH2 0x1FB6 JUMP JUMPDEST PUSH2 0x1FFD PUSH2 0x1FF5 DUP3 PUSH2 0x1FD7 JUMP JUMPDEST DUP5 DUP5 SLOAD PUSH2 0x1F65 JUMP JUMPDEST DUP3 SSTORE POP POP POP POP JUMP JUMPDEST PUSH0 SWAP1 JUMP JUMPDEST PUSH2 0x2011 PUSH2 0x2005 JUMP JUMPDEST PUSH2 0x201C DUP2 DUP5 DUP5 PUSH2 0x1FE0 JUMP JUMPDEST POP POP POP JUMP JUMPDEST JUMPDEST DUP2 DUP2 LT ISZERO PUSH2 0x203F JUMPI PUSH2 0x2034 PUSH0 DUP3 PUSH2 0x2009 JUMP JUMPDEST PUSH1 0x1 DUP2 ADD SWAP1 POP PUSH2 0x2022 JUMP JUMPDEST POP POP JUMP JUMPDEST PUSH1 0x1F DUP3 GT ISZERO PUSH2 0x2084 JUMPI PUSH2 0x2055 DUP2 PUSH2 0x1F38 JUMP JUMPDEST PUSH2 0x205E DUP5 PUSH2 0x1F4A JUMP JUMPDEST DUP2 ADD PUSH1 0x20 DUP6 LT ISZERO PUSH2 0x206D JUMPI DUP2 SWAP1 POP JUMPDEST PUSH2 0x2081 PUSH2 0x2079 DUP6 PUSH2 0x1F4A JUMP JUMPDEST DUP4 ADD DUP3 PUSH2 0x2021 JUMP JUMPDEST POP POP JUMPDEST POP POP POP JUMP JUMPDEST PUSH0 DUP3 DUP3 SHR SWAP1 POP SWAP3 SWAP2 POP POP JUMP JUMPDEST PUSH0 PUSH2 0x20A4 PUSH0 NOT DUP5 PUSH1 0x8 MUL PUSH2 0x2089 JUMP JUMPDEST NOT DUP1 DUP4 AND SWAP2 POP POP SWAP3 SWAP2 POP POP JUMP JUMPDEST PUSH0 PUSH2 0x20BC DUP4 DUP4 PUSH2 0x2095 JUMP JUMPDEST SWAP2 POP DUP3 PUSH1 0x2 MUL DUP3 OR SWAP1 POP SWAP3 SWAP2 POP POP JUMP JUMPDEST PUSH2 0x20D5 DUP3 PUSH2 0x198B JUMP JUMPDEST PUSH8 0xFFFFFFFFFFFFFFFF DUP2 GT ISZERO PUSH2 0x20EE JUMPI PUSH2 0x20ED PUSH2 0x17F8 JUMP JUMPDEST JUMPDEST PUSH2 0x20F8 DUP3 SLOAD PUSH2 0x1F08 JUMP JUMPDEST PUSH2 0x2103 DUP3 DUP3 DUP6 PUSH2 0x2043 JUMP JUMPDEST PUSH0 PUSH1 0x20 SWAP1 POP PUSH1 0x1F DUP4 GT PUSH1 0x1 DUP2 EQ PUSH2 0x2134 JUMPI PUSH0 DUP5 ISZERO PUSH2 0x2122 JUMPI DUP3 DUP8 ADD MLOAD SWAP1 POP JUMPDEST PUSH2 0x212C DUP6 DUP3 PUSH2 0x20B1 JUMP JUMPDEST DUP7 SSTORE POP PUSH2 0x2193 JUMP JUMPDEST PUSH1 0x1F NOT DUP5 AND PUSH2 0x2142 DUP7 PUSH2 0x1F38 JUMP JUMPDEST PUSH0 JUMPDEST DUP3 DUP2 LT ISZERO PUSH2 0x2169 JUMPI DUP5 DUP10 ADD MLOAD DUP3 SSTORE PUSH1 0x1 DUP3 ADD SWAP2 POP PUSH1 0x20 DUP6 ADD SWAP5 POP PUSH1 0x20 DUP2 ADD SWAP1 POP PUSH2 0x2144 JUMP JUMPDEST DUP7 DUP4 LT ISZERO PUSH2 0x2186 JUMPI DUP5 DUP10 ADD MLOAD PUSH2 0x2182 PUSH1 0x1F DUP10 AND DUP3 PUSH2 0x2095 JUMP JUMPDEST DUP4 SSTORE POP JUMPDEST PUSH1 0x1 PUSH1 0x2 DUP9 MUL ADD DUP9 SSTORE POP POP POP JUMPDEST POP POP POP POP POP POP JUMP JUMPDEST PUSH32 0x436F75727365206E6F7420706173736564000000000000000000000000000000 PUSH0 DUP3 ADD MSTORE POP JUMP JUMPDEST PUSH0 PUSH2 0x21CF PUSH1 0x11 DUP4 PUSH2 0x1995 JUMP JUMPDEST SWAP2 POP PUSH2 0x21DA DUP3 PUSH2 0x219B JUMP JUMPDEST PUSH1 0x20 DUP3 ADD SWAP1 POP SWAP2 SWAP1 POP JUMP JUMPDEST PUSH0 PUSH1 0x20 DUP3 ADD SWAP1 POP DUP2 DUP2 SUB PUSH0 DUP4 ADD MSTORE PUSH2 0x21FC DUP2 PUSH2 0x21C3 JUMP JUMPDEST SWAP1 POP SWAP2 SWAP1 POP JUMP JUMPDEST PUSH32 0x52657761726420616C726561647920636C61696D656400000000000000000000 PUSH0 DUP3 ADD MSTORE POP JUMP JUMPDEST PUSH0 PUSH2 0x2237 PUSH1 0x16 DUP4 PUSH2 0x1995 JUMP JUMPDEST SWAP2 POP PUSH2 0x2242 DUP3 PUSH2 0x2203 JUMP JUMPDEST PUSH1 0x20 DUP3 ADD SWAP1 POP SWAP2 SWAP1 POP JUMP JUMPDEST PUSH0 PUSH1 0x20 DUP3 ADD SWAP1 POP DUP2 DUP2 SUB PUSH0 DUP4 ADD MSTORE PUSH2 0x2264 DUP2 PUSH2 0x222B JUMP JUMPDEST SWAP1 POP SWAP2 SWAP1 POP JUMP JUMPDEST PUSH32 0x4E6F7420656C696769626C6520666F7220726577617264000000000000000000 PUSH0 DUP3 ADD MSTORE POP JUMP JUMPDEST PUSH0 PUSH2 0x229F PUSH1 0x17 DUP4 PUSH2 0x1995 JUMP JUMPDEST SWAP2 POP PUSH2 0x22AA DUP3 PUSH2 0x226B JUMP JUMPDEST PUSH1 0x20 DUP3 ADD SWAP1 POP SWAP2 SWAP1 POP JUMP JUMPDEST PUSH0 PUSH1 0x20 DUP3 ADD SWAP1 POP DUP2 DUP2 SUB PUSH0 DUP4 ADD MSTORE PUSH2 0x22CC DUP2 PUSH2 0x2293 JUMP JUMPDEST SWAP1 POP SWAP2 SWAP1 POP JUMP JUMPDEST PUSH0 PUSH1 0x40 DUP3 ADD SWAP1 POP PUSH2 0x22E6 PUSH0 DUP4 ADD DUP6 PUSH2 0x1963 JUMP JUMPDEST PUSH2 0x22F3 PUSH1 0x20 DUP4 ADD DUP5 PUSH2 0x177F JUMP JUMPDEST SWAP4 SWAP3 POP POP POP JUMP JUMPDEST PUSH0 DUP2 MLOAD SWAP1 POP PUSH2 0x2308 DUP2 PUSH2 0x163B JUMP JUMPDEST SWAP3 SWAP2 POP POP JUMP JUMPDEST PUSH0 PUSH1 0x20 DUP3 DUP5 SUB SLT ISZERO PUSH2 0x2323 JUMPI PUSH2 0x2322 PUSH2 0x14F0 JUMP JUMPDEST JUMPDEST PUSH0 PUSH2 0x2330 DUP5 DUP3 DUP6 ADD PUSH2 0x22FA JUMP JUMPDEST SWAP2 POP POP SWAP3 SWAP2 POP POP JUMP JUMPDEST PUSH32 0x4661696C656420746F207472616E73666572204D414E4420746F6B656E730000 PUSH0 DUP3 ADD MSTORE POP JUMP JUMPDEST PUSH0 PUSH2 0x236D PUSH1 0x1E DUP4 PUSH2 0x1995 JUMP JUMPDEST SWAP2 POP PUSH2 0x2378 DUP3 PUSH2 0x2339 JUMP JUMPDEST PUSH1 0x20 DUP3 ADD SWAP1 POP SWAP2 SWAP1 POP JUMP JUMPDEST PUSH0 PUSH1 0x20 DUP3 ADD SWAP1 POP DUP2 DUP2 SUB PUSH0 DUP4 ADD MSTORE PUSH2 0x239A DUP2 PUSH2 0x2361 JUMP JUMPDEST SWAP1 POP SWAP2 SWAP1 POP JUMP JUMPDEST PUSH32 0x4F6E6C7920636F757273652063726561746F722063616E20636C61696D207265 PUSH0 DUP3 ADD MSTORE PUSH32 0x7761726400000000000000000000000000000000000000000000000000000000 PUSH1 0x20 DUP3 ADD MSTORE POP JUMP JUMPDEST PUSH0 PUSH2 0x23FB PUSH1 0x24 DUP4 PUSH2 0x1995 JUMP JUMPDEST SWAP2 POP PUSH2 0x2406 DUP3 PUSH2 0x23A1 JUMP JUMPDEST PUSH1 0x40 DUP3 ADD SWAP1 POP SWAP2 SWAP1 POP JUMP JUMPDEST PUSH0 PUSH1 0x20 DUP3 ADD SWAP1 POP DUP2 DUP2 SUB PUSH0 DUP4 ADD MSTORE PUSH2 0x2428 DUP2 PUSH2 0x23EF JUMP JUMPDEST SWAP1 POP SWAP2 SWAP1 POP JUMP JUMPDEST PUSH0 PUSH2 0x2439 DUP3 PUSH2 0x1552 JUMP JUMPDEST SWAP2 POP PUSH2 0x2444 DUP4 PUSH2 0x1552 JUMP JUMPDEST SWAP3 POP DUP3 DUP3 MUL PUSH2 0x2452 DUP2 PUSH2 0x1552 JUMP JUMPDEST SWAP2 POP DUP3 DUP3 DIV DUP5 EQ DUP4 ISZERO OR PUSH2 0x2469 JUMPI PUSH2 0x2468 PUSH2 0x1B93 JUMP JUMPDEST JUMPDEST POP SWAP3 SWAP2 POP POP JUMP JUMPDEST PUSH32 0x4661696C656420746F20776974686472617720746F6B656E7300000000000000 PUSH0 DUP3 ADD MSTORE POP JUMP JUMPDEST PUSH0 PUSH2 0x24A4 PUSH1 0x19 DUP4 PUSH2 0x1995 JUMP JUMPDEST SWAP2 POP PUSH2 0x24AF DUP3 PUSH2 0x2470 JUMP JUMPDEST PUSH1 0x20 DUP3 ADD SWAP1 POP SWAP2 SWAP1 POP JUMP JUMPDEST PUSH0 PUSH1 0x20 DUP3 ADD SWAP1 POP DUP2 DUP2 SUB PUSH0 DUP4 ADD MSTORE PUSH2 0x24D1 DUP2 PUSH2 0x2498 JUMP JUMPDEST SWAP1 POP SWAP2 SWAP1 POP JUMP INVALID LOG2 PUSH5 0x6970667358 0x22 SLT KECCAK256 0xB8 0xF9 SDIV MOD PUSH16 0x2CB00CB441B23AE39F9E2D8F75CA1D32 0x2D 0xEF 0xB7 0x2F 0xAF 0xEC CALLVALUE SWAP13 0x4E EXTCODEHASH CALLCODE PUSH5 0x736F6C6343 STOP ADDMOD BYTE STOP CALLER "
				},
				"gasEstimates": {
					"creation": {
						"codeDepositCost": "1897200",
						"executionCost": "infinite",
						"totalCost": "infinite"
					},
					"external": {
						"CREATOR_REWARD_AMOUNT()": "369",
						"ENROLL_THRESHOLD()": "436",
						"POST_THRESHOLD()": "414",
						"STUDENT_REWARD_AMOUNT()": "435",
						"approveCourse(uint256)": "infinite",
						"attemptQuiz(uint256,address,bool)": "infinite",
						"claimCreatorReward(uint256)": "infinite",
						"claimStudentReward(uint256)": "infinite",
						"courseCount()": "2448",
						"courses(uint256)": "infinite",
						"createCourse(string)": "infinite",
						"enrollInCourse(uint256)": "infinite",
						"enrollments(address,uint256)": "infinite",
						"mandToken()": "infinite",
						"owner()": "2538",
						"renounceOwnership()": "infinite",
						"reputationContract()": "infinite",
						"transferOwnership(address)": "infinite",
						"updateMandToken(address)": "infinite",
						"withdrawExcessTokens(uint256)": "infinite"
					}
				},
				"methodIdentifiers": {
					"CREATOR_REWARD_AMOUNT()": "cf90b3be",
					"ENROLL_THRESHOLD()": "ae24f005",
					"POST_THRESHOLD()": "a4e1f033",
					"STUDENT_REWARD_AMOUNT()": "fbf1aded",
					"approveCourse(uint256)": "75284998",
					"attemptQuiz(uint256,address,bool)": "08e3d84b",
					"claimCreatorReward(uint256)": "ba2f0362",
					"claimStudentReward(uint256)": "996b5d8e",
					"courseCount()": "66055159",
					"courses(uint256)": "96f979d2",
					"createCourse(string)": "8a38ab2c",
					"enrollInCourse(uint256)": "5e52da27",
					"enrollments(address,uint256)": "07f910f8",
					"mandToken()": "17f5e33d",
					"owner()": "8da5cb5b",
					"renounceOwnership()": "715018a6",
					"reputationContract()": "87bc1425",
					"transferOwnership(address)": "f2fde38b",
					"updateMandToken(address)": "3a447e76",
					"withdrawExcessTokens(uint256)": "e111f6b4"
				}
			},
			"storageLayout": {
				"storage": [
					{
						"astId": 8,
						"contract": "moonx/moonx.sol:DecentralLearning",
						"label": "_owner",
						"offset": 0,
						"slot": "0",
						"type": "t_address"
					},
					{
						"astId": 275,
						"contract": "moonx/moonx.sol:DecentralLearning",
						"label": "mandToken",
						"offset": 0,
						"slot": "1",
						"type": "t_contract(IERC20)225"
					},
					{
						"astId": 314,
						"contract": "moonx/moonx.sol:DecentralLearning",
						"label": "courses",
						"offset": 0,
						"slot": "2",
						"type": "t_mapping(t_uint256,t_struct(Course)300_storage)"
					},
					{
						"astId": 321,
						"contract": "moonx/moonx.sol:DecentralLearning",
						"label": "enrollments",
						"offset": 0,
						"slot": "3",
						"type": "t_mapping(t_address,t_mapping(t_uint256,t_struct(Enrollment)309_storage))"
					},
					{
						"astId": 323,
						"contract": "moonx/moonx.sol:DecentralLearning",
						"label": "courseCount",
						"offset": 0,
						"slot": "4",
						"type": "t_uint256"
					}
				],
				"types": {
					"t_address": {
						"encoding": "inplace",
						"label": "address",
						"numberOfBytes": "20"
					},
					"t_bool": {
						"encoding": "inplace",
						"label": "bool",
						"numberOfBytes": "1"
					},
					"t_contract(IERC20)225": {
						"encoding": "inplace",
						"label": "contract IERC20",
						"numberOfBytes": "20"
					},
					"t_mapping(t_address,t_mapping(t_uint256,t_struct(Enrollment)309_storage))": {
						"encoding": "mapping",
						"key": "t_address",
						"label": "mapping(address => mapping(uint256 => struct DecentralLearning.Enrollment))",
						"numberOfBytes": "32",
						"value": "t_mapping(t_uint256,t_struct(Enrollment)309_storage)"
					},
					"t_mapping(t_uint256,t_struct(Course)300_storage)": {
						"encoding": "mapping",
						"key": "t_uint256",
						"label": "mapping(uint256 => struct DecentralLearning.Course)",
						"numberOfBytes": "32",
						"value": "t_struct(Course)300_storage"
					},
					"t_mapping(t_uint256,t_struct(Enrollment)309_storage)": {
						"encoding": "mapping",
						"key": "t_uint256",
						"label": "mapping(uint256 => struct DecentralLearning.Enrollment)",
						"numberOfBytes": "32",
						"value": "t_struct(Enrollment)309_storage"
					},
					"t_string_storage": {
						"encoding": "bytes",
						"label": "string",
						"numberOfBytes": "32"
					},
					"t_struct(Course)300_storage": {
						"encoding": "inplace",
						"label": "struct DecentralLearning.Course",
						"members": [
							{
								"astId": 293,
								"contract": "moonx/moonx.sol:DecentralLearning",
								"label": "creator",
								"offset": 0,
								"slot": "0",
								"type": "t_address"
							},
							{
								"astId": 295,
								"contract": "moonx/moonx.sol:DecentralLearning",
								"label": "metadataURI",
								"offset": 0,
								"slot": "1",
								"type": "t_string_storage"
							},
							{
								"astId": 297,
								"contract": "moonx/moonx.sol:DecentralLearning",
								"label": "approved",
								"offset": 0,
								"slot": "2",
								"type": "t_bool"
							},
							{
								"astId": 299,
								"contract": "moonx/moonx.sol:DecentralLearning",
								"label": "passedStudents",
								"offset": 0,
								"slot": "3",
								"type": "t_uint256"
							}
						],
						"numberOfBytes": "128"
					},
					"t_struct(Enrollment)309_storage": {
						"encoding": "inplace",
						"label": "struct DecentralLearning.Enrollment",
						"members": [
							{
								"astId": 302,
								"contract": "moonx/moonx.sol:DecentralLearning",
								"label": "isEnrolled",
								"offset": 0,
								"slot": "0",
								"type": "t_bool"
							},
							{
								"astId": 304,
								"contract": "moonx/moonx.sol:DecentralLearning",
								"label": "attemptCount",
								"offset": 1,
								"slot": "0",
								"type": "t_uint8"
							},
							{
								"astId": 306,
								"contract": "moonx/moonx.sol:DecentralLearning",
								"label": "hasPassed",
								"offset": 2,
								"slot": "0",
								"type": "t_bool"
							},
							{
								"astId": 308,
								"contract": "moonx/moonx.sol:DecentralLearning",
								"label": "hasClaimedReward",
								"offset": 3,
								"slot": "0",
								"type": "t_bool"
							}
						],
						"numberOfBytes": "32"
					},
					"t_uint256": {
						"encoding": "inplace",
						"label": "uint256",
						"numberOfBytes": "32"
					},
					"t_uint8": {
						"encoding": "inplace",
						"label": "uint8",
						"numberOfBytes": "1"
					}
				}
			},
			"userdoc": {
				"kind": "user",
				"methods": {},
				"version": 1
			}
		}
	}
}