{
	"moonx/moonx.sol": {
		"DecentralLearning": {
			"abi": [
				{
					"inputs": [
						{
							"internalType": "address",
							"name": "_reputationContract",
							"type": "address"
						}
					],
					"stateMutability": "nonpayable",
					"type": "constructor"
				},
				{
					"inputs": [
						{
							"internalType": "address",
							"name": "owner",
							"type": "address"
						}
					],
					"name": "OwnableInvalidOwner",
					"type": "error"
				},
				{
					"inputs": [
						{
							"internalType": "address",
							"name": "account",
							"type": "address"
						}
					],
					"name": "OwnableUnauthorizedAccount",
					"type": "error"
				},
				{
					"anonymous": false,
					"inputs": [
						{
							"indexed": true,
							"internalType": "uint256",
							"name": "courseId",
							"type": "uint256"
						}
					],
					"name": "CourseApproved",
					"type": "event"
				},
				{
					"anonymous": false,
					"inputs": [
						{
							"indexed": true,
							"internalType": "uint256",
							"name": "courseId",
							"type": "uint256"
						},
						{
							"indexed": true,
							"internalType": "address",
							"name": "creator",
							"type": "address"
						}
					],
					"name": "CourseCreated",
					"type": "event"
				},
				{
					"anonymous": false,
					"inputs": [
						{
							"indexed": true,
							"internalType": "uint256",
							"name": "courseId",
							"type": "uint256"
						},
						{
							"indexed": true,
							"internalType": "address",
							"name": "creator",
							"type": "address"
						},
						{
							"indexed": false,
							"internalType": "uint256",
							"name": "amount",
							"type": "uint256"
						}
					],
					"name": "CreatorWithdrawal",
					"type": "event"
				},
				{
					"anonymous": false,
					"inputs": [
						{
							"indexed": false,
							"internalType": "uint256",
							"name": "amount",
							"type": "uint256"
						}
					],
					"name": "GasFeesWithdrawn",
					"type": "event"
				},
				{
					"anonymous": false,
					"inputs": [
						{
							"indexed": true,
							"internalType": "address",
							"name": "previousOwner",
							"type": "address"
						},
						{
							"indexed": true,
							"internalType": "address",
							"name": "newOwner",
							"type": "address"
						}
					],
					"name": "OwnershipTransferred",
					"type": "event"
				},
				{
					"anonymous": false,
					"inputs": [
						{
							"indexed": false,
							"internalType": "address",
							"name": "account",
							"type": "address"
						}
					],
					"name": "Paused",
					"type": "event"
				},
				{
					"anonymous": false,
					"inputs": [
						{
							"indexed": true,
							"internalType": "uint256",
							"name": "courseId",
							"type": "uint256"
						},
						{
							"indexed": true,
							"internalType": "address",
							"name": "user",
							"type": "address"
						},
						{
							"indexed": false,
							"internalType": "bool",
							"name": "passed",
							"type": "bool"
						}
					],
					"name": "QuizAttempted",
					"type": "event"
				},
				{
					"anonymous": false,
					"inputs": [
						{
							"indexed": true,
							"internalType": "uint256",
							"name": "courseId",
							"type": "uint256"
						},
						{
							"indexed": false,
							"internalType": "uint256",
							"name": "quizId",
							"type": "uint256"
						}
					],
					"name": "QuizCreated",
					"type": "event"
				},
				{
					"anonymous": false,
					"inputs": [
						{
							"indexed": true,
							"internalType": "uint256",
							"name": "courseId",
							"type": "uint256"
						},
						{
							"indexed": true,
							"internalType": "address",
							"name": "user",
							"type": "address"
						},
						{
							"indexed": false,
							"internalType": "uint256",
							"name": "amount",
							"type": "uint256"
						}
					],
					"name": "RewardClaimed",
					"type": "event"
				},
				{
					"anonymous": false,
					"inputs": [
						{
							"indexed": false,
							"internalType": "address",
							"name": "account",
							"type": "address"
						}
					],
					"name": "Unpaused",
					"type": "event"
				},
				{
					"anonymous": false,
					"inputs": [
						{
							"indexed": true,
							"internalType": "uint256",
							"name": "courseId",
							"type": "uint256"
						},
						{
							"indexed": true,
							"internalType": "address",
							"name": "user",
							"type": "address"
						}
					],
					"name": "UserEnrolled",
					"type": "event"
				},
				{
					"inputs": [],
					"name": "CREATOR_REWARD_AMOUNT",
					"outputs": [
						{
							"internalType": "uint256",
							"name": "",
							"type": "uint256"
						}
					],
					"stateMutability": "view",
					"type": "function"
				},
				{
					"inputs": [],
					"name": "ENROLL_THRESHOLD",
					"outputs": [
						{
							"internalType": "uint256",
							"name": "",
							"type": "uint256"
						}
					],
					"stateMutability": "view",
					"type": "function"
				},
				{
					"inputs": [],
					"name": "PLATFORMTX",
					"outputs": [
						{
							"internalType": "uint256",
							"name": "",
							"type": "uint256"
						}
					],
					"stateMutability": "view",
					"type": "function"
				},
				{
					"inputs": [],
					"name": "POST_THRESHOLD",
					"outputs": [
						{
							"internalType": "uint256",
							"name": "",
							"type": "uint256"
						}
					],
					"stateMutability": "view",
					"type": "function"
				},
				{
					"inputs": [],
					"name": "STUDENT_REWARD_AMOUNT",
					"outputs": [
						{
							"internalType": "uint256",
							"name": "",
							"type": "uint256"
						}
					],
					"stateMutability": "view",
					"type": "function"
				},
				{
					"inputs": [],
					"name": "WITHDRAWAL_INTERVAL",
					"outputs": [
						{
							"internalType": "uint256",
							"name": "",
							"type": "uint256"
						}
					],
					"stateMutability": "view",
					"type": "function"
				},
				{
					"inputs": [],
					"name": "accumulatedFees",
					"outputs": [
						{
							"internalType": "uint256",
							"name": "",
							"type": "uint256"
						}
					],
					"stateMutability": "view",
					"type": "function"
				},
				{
					"inputs": [
						{
							"internalType": "uint256",
							"name": "_courseId",
							"type": "uint256"
						}
					],
					"name": "approveCourse",
					"outputs": [],
					"stateMutability": "nonpayable",
					"type": "function"
				},
				{
					"inputs": [
						{
							"internalType": "uint256",
							"name": "_courseId",
							"type": "uint256"
						},
						{
							"internalType": "string[]",
							"name": "_answers",
							"type": "string[]"
						}
					],
					"name": "attemptQuiz",
					"outputs": [],
					"stateMutability": "payable",
					"type": "function"
				},
				{
					"inputs": [],
					"name": "courseCount",
					"outputs": [
						{
							"internalType": "uint256",
							"name": "",
							"type": "uint256"
						}
					],
					"stateMutability": "view",
					"type": "function"
				},
				{
					"inputs": [
						{
							"internalType": "uint256",
							"name": "",
							"type": "uint256"
						},
						{
							"internalType": "uint256",
							"name": "",
							"type": "uint256"
						}
					],
					"name": "courseQuizzes",
					"outputs": [
						{
							"internalType": "uint256",
							"name": "courseId",
							"type": "uint256"
						},
						{
							"internalType": "string",
							"name": "question",
							"type": "string"
						},
						{
							"internalType": "string",
							"name": "optionA",
							"type": "string"
						},
						{
							"internalType": "string",
							"name": "optionB",
							"type": "string"
						},
						{
							"internalType": "string",
							"name": "optionC",
							"type": "string"
						},
						{
							"internalType": "string",
							"name": "optionD",
							"type": "string"
						},
						{
							"internalType": "bytes32",
							"name": "correctAnswerHash",
							"type": "bytes32"
						}
					],
					"stateMutability": "view",
					"type": "function"
				},
				{
					"inputs": [
						{
							"internalType": "uint256",
							"name": "",
							"type": "uint256"
						}
					],
					"name": "courses",
					"outputs": [
						{
							"internalType": "address",
							"name": "creator",
							"type": "address"
						},
						{
							"internalType": "string",
							"name": "metadataURI",
							"type": "string"
						},
						{
							"internalType": "bool",
							"name": "approved",
							"type": "bool"
						},
						{
							"internalType": "uint256",
							"name": "passedStudents",
							"type": "uint256"
						},
						{
							"internalType": "uint256",
							"name": "totalRewarded",
							"type": "uint256"
						},
						{
							"internalType": "uint256",
							"name": "totalEnrolled",
							"type": "uint256"
						}
					],
					"stateMutability": "view",
					"type": "function"
				},
				{
					"inputs": [
						{
							"internalType": "string",
							"name": "_metadataURI",
							"type": "string"
						},
						{
							"internalType": "string[]",
							"name": "_questions",
							"type": "string[]"
						},
						{
							"internalType": "string[]",
							"name": "_optionAs",
							"type": "string[]"
						},
						{
							"internalType": "string[]",
							"name": "_optionBs",
							"type": "string[]"
						},
						{
							"internalType": "string[]",
							"name": "_optionCs",
							"type": "string[]"
						},
						{
							"internalType": "string[]",
							"name": "_optionDs",
							"type": "string[]"
						},
						{
							"internalType": "string[]",
							"name": "_correctAnswers",
							"type": "string[]"
						}
					],
					"name": "createCourse",
					"outputs": [],
					"stateMutability": "payable",
					"type": "function"
				},
				{
					"inputs": [
						{
							"internalType": "uint256",
							"name": "_courseId",
							"type": "uint256"
						}
					],
					"name": "enrollInCourse",
					"outputs": [],
					"stateMutability": "payable",
					"type": "function"
				},
				{
					"inputs": [
						{
							"internalType": "address",
							"name": "",
							"type": "address"
						},
						{
							"internalType": "uint256",
							"name": "",
							"type": "uint256"
						}
					],
					"name": "enrollments",
					"outputs": [
						{
							"internalType": "bool",
							"name": "isEnrolled",
							"type": "bool"
						},
						{
							"internalType": "uint8",
							"name": "attemptCount",
							"type": "uint8"
						},
						{
							"internalType": "bool",
							"name": "hasPassed",
							"type": "bool"
						},
						{
							"internalType": "bool",
							"name": "hasClaimedReward",
							"type": "bool"
						}
					],
					"stateMutability": "view",
					"type": "function"
				},
				{
					"inputs": [],
					"name": "lastWithdrawalTime",
					"outputs": [
						{
							"internalType": "uint256",
							"name": "",
							"type": "uint256"
						}
					],
					"stateMutability": "view",
					"type": "function"
				},
				{
					"inputs": [],
					"name": "owner",
					"outputs": [
						{
							"internalType": "address",
							"name": "",
							"type": "address"
						}
					],
					"stateMutability": "view",
					"type": "function"
				},
				{
					"inputs": [],
					"name": "pause",
					"outputs": [],
					"stateMutability": "nonpayable",
					"type": "function"
				},
				{
					"inputs": [],
					"name": "paused",
					"outputs": [
						{
							"internalType": "bool",
							"name": "",
							"type": "bool"
						}
					],
					"stateMutability": "view",
					"type": "function"
				},
				{
					"inputs": [],
					"name": "renounceOwnership",
					"outputs": [],
					"stateMutability": "nonpayable",
					"type": "function"
				},
				{
					"inputs": [],
					"name": "reputationContract",
					"outputs": [
						{
							"internalType": "contract IReputationContract",
							"name": "",
							"type": "address"
						}
					],
					"stateMutability": "view",
					"type": "function"
				},
				{
					"inputs": [
						{
							"internalType": "address",
							"name": "newOwner",
							"type": "address"
						}
					],
					"name": "transferOwnership",
					"outputs": [],
					"stateMutability": "nonpayable",
					"type": "function"
				},
				{
					"inputs": [],
					"name": "unpause",
					"outputs": [],
					"stateMutability": "nonpayable",
					"type": "function"
				},
				{
					"inputs": [
						{
							"internalType": "address",
							"name": "_newReputationContract",
							"type": "address"
						}
					],
					"name": "updateReputationContract",
					"outputs": [],
					"stateMutability": "nonpayable",
					"type": "function"
				},
				{
					"inputs": [],
					"name": "w_PlatformFees",
					"outputs": [],
					"stateMutability": "nonpayable",
					"type": "function"
				},
				{
					"stateMutability": "payable",
					"type": "receive"
				}
			],
			"devdoc": {
				"errors": {
					"OwnableInvalidOwner(address)": [
						{
							"details": "The owner is not a valid owner account. (eg. `address(0)`)"
						}
					],
					"OwnableUnauthorizedAccount(address)": [
						{
							"details": "The caller account is not authorized to perform an operation."
						}
					]
				},
				"events": {
					"Paused(address)": {
						"details": "Emitted when the pause is triggered by `account`."
					},
					"Unpaused(address)": {
						"details": "Emitted when the pause is lifted by `account`."
					}
				},
				"kind": "dev",
				"methods": {
					"owner()": {
						"details": "Returns the address of the current owner."
					},
					"paused()": {
						"details": "Returns true if the contract is paused, and false otherwise."
					},
					"renounceOwnership()": {
						"details": "Leaves the contract without owner. It will not be possible to call `onlyOwner` functions. Can only be called by the current owner. NOTE: Renouncing ownership will leave the contract without an owner, thereby disabling any functionality that is only available to the owner."
					},
					"transferOwnership(address)": {
						"details": "Transfers ownership of the contract to a new account (`newOwner`). Can only be called by the current owner."
					}
				},
				"version": 1
			},
			"evm": {
				"assembly": "    /* \"moonx/moonx.sol\":273:7614  contract DecentralLearning is Ownable, Pausable {... */\n  mstore(0x40, 0x80)\n    /* \"moonx/moonx.sol\":2218:2403  constructor(address _reputationContract) Ownable(msg.sender) {... */\n  callvalue\n  dup1\n  iszero\n  tag_1\n  jumpi\n  0x00\n  dup1\n  revert\ntag_1:\n  pop\n  mload(0x40)\n  sub(codesize, bytecodeSize)\n  dup1\n  bytecodeSize\n  dup4\n  codecopy\n  dup2\n  dup2\n  add\n  0x40\n  mstore\n  dup2\n  add\n  swap1\n  tag_2\n  swap2\n  swap1\n  tag_3\n  jump\t// in\ntag_2:\n    /* \"moonx/moonx.sol\":2267:2277  msg.sender */\n  caller\n    /* \"@openzeppelin/contracts/access/Ownable.sol\":1297:1298  0 */\n  0x00\n    /* \"@openzeppelin/contracts/access/Ownable.sol\":1273:1299  initialOwner == address(0) */\n  0xffffffffffffffffffffffffffffffffffffffff\n  and\n    /* \"@openzeppelin/contracts/access/Ownable.sol\":1273:1285  initialOwner */\n  dup2\n    /* \"@openzeppelin/contracts/access/Ownable.sol\":1273:1299  initialOwner == address(0) */\n  0xffffffffffffffffffffffffffffffffffffffff\n  and\n  sub\n    /* \"@openzeppelin/contracts/access/Ownable.sol\":1269:1364  if (initialOwner == address(0)) {... */\n  tag_8\n  jumpi\n    /* \"@openzeppelin/contracts/access/Ownable.sol\":1350:1351  0 */\n  0x00\n    /* \"@openzeppelin/contracts/access/Ownable.sol\":1322:1353  OwnableInvalidOwner(address(0)) */\n  mload(0x40)\n  0x1e4fbdf700000000000000000000000000000000000000000000000000000000\n  dup2\n  mstore\n  0x04\n  add\n  tag_9\n  swap2\n  swap1\n  tag_10\n  jump\t// in\ntag_9:\n  mload(0x40)\n  dup1\n  swap2\n  sub\n  swap1\n  revert\n    /* \"@openzeppelin/contracts/access/Ownable.sol\":1269:1364  if (initialOwner == address(0)) {... */\ntag_8:\n    /* \"@openzeppelin/contracts/access/Ownable.sol\":1373:1405  _transferOwnership(initialOwner) */\n  tag_11\n    /* \"@openzeppelin/contracts/access/Ownable.sol\":1392:1404  initialOwner */\n  dup2\n    /* \"@openzeppelin/contracts/access/Ownable.sol\":1373:1391  _transferOwnership */\n  shl(0x20, tag_12)\n    /* \"@openzeppelin/contracts/access/Ownable.sol\":1373:1405  _transferOwnership(initialOwner) */\n  0x20\n  shr\n  jump\t// in\ntag_11:\n    /* \"@openzeppelin/contracts/access/Ownable.sol\":1225:1412  constructor(address initialOwner) {... */\n  pop\n    /* \"@openzeppelin/contracts/security/Pausable.sol\":1006:1011  false */\n  0x00\n    /* \"@openzeppelin/contracts/security/Pausable.sol\":996:1003  _paused */\n  dup1\n  0x14\n    /* \"@openzeppelin/contracts/security/Pausable.sol\":996:1011  _paused = false */\n  0x0100\n  exp\n  dup2\n  sload\n  dup2\n  0xff\n  mul\n  not\n  and\n  swap1\n  dup4\n  iszero\n  iszero\n  mul\n  or\n  swap1\n  sstore\n  pop\n    /* \"moonx/moonx.sol\":2330:2349  _reputationContract */\n  dup1\n    /* \"moonx/moonx.sol\":2289:2307  reputationContract */\n  0x01\n  0x00\n    /* \"moonx/moonx.sol\":2289:2350  reputationContract = IReputationContract(_reputationContract) */\n  0x0100\n  exp\n  dup2\n  sload\n  dup2\n  0xffffffffffffffffffffffffffffffffffffffff\n  mul\n  not\n  and\n  swap1\n  dup4\n  0xffffffffffffffffffffffffffffffffffffffff\n  and\n  mul\n  or\n  swap1\n  sstore\n  pop\n    /* \"moonx/moonx.sol\":2381:2396  block.timestamp */\n  timestamp\n    /* \"moonx/moonx.sol\":2360:2378  lastWithdrawalTime */\n  0x02\n    /* \"moonx/moonx.sol\":2360:2396  lastWithdrawalTime = block.timestamp */\n  dup2\n  swap1\n  sstore\n  pop\n    /* \"moonx/moonx.sol\":2218:2403  constructor(address _reputationContract) Ownable(msg.sender) {... */\n  pop\n    /* \"moonx/moonx.sol\":273:7614  contract DecentralLearning is Ownable, Pausable {... */\n  jump(tag_15)\n    /* \"@openzeppelin/contracts/access/Ownable.sol\":2912:3099  function _transferOwnership(address newOwner) internal virtual {... */\ntag_12:\n    /* \"@openzeppelin/contracts/access/Ownable.sol\":2985:3001  address oldOwner */\n  0x00\n    /* \"@openzeppelin/contracts/access/Ownable.sol\":3004:3010  _owner */\n  dup1\n  0x00\n  swap1\n  sload\n  swap1\n  0x0100\n  exp\n  swap1\n  div\n  0xffffffffffffffffffffffffffffffffffffffff\n  and\n    /* \"@openzeppelin/contracts/access/Ownable.sol\":2985:3010  address oldOwner = _owner */\n  swap1\n  pop\n    /* \"@openzeppelin/contracts/access/Ownable.sol\":3029:3037  newOwner */\n  dup2\n    /* \"@openzeppelin/contracts/access/Ownable.sol\":3020:3026  _owner */\n  0x00\n  dup1\n    /* \"@openzeppelin/contracts/access/Ownable.sol\":3020:3037  _owner = newOwner */\n  0x0100\n  exp\n  dup2\n  sload\n  dup2\n  0xffffffffffffffffffffffffffffffffffffffff\n  mul\n  not\n  and\n  swap1\n  dup4\n  0xffffffffffffffffffffffffffffffffffffffff\n  and\n  mul\n  or\n  swap1\n  sstore\n  pop\n    /* \"@openzeppelin/contracts/access/Ownable.sol\":3083:3091  newOwner */\n  dup2\n    /* \"@openzeppelin/contracts/access/Ownable.sol\":3052:3092  OwnershipTransferred(oldOwner, newOwner) */\n  0xffffffffffffffffffffffffffffffffffffffff\n  and\n    /* \"@openzeppelin/contracts/access/Ownable.sol\":3073:3081  oldOwner */\n  dup2\n    /* \"@openzeppelin/contracts/access/Ownable.sol\":3052:3092  OwnershipTransferred(oldOwner, newOwner) */\n  0xffffffffffffffffffffffffffffffffffffffff\n  and\n  0x8be0079c531659141344cd1fd0a4f28419497f9722a3daafe3b4186f6b6457e0\n  mload(0x40)\n  mload(0x40)\n  dup1\n  swap2\n  sub\n  swap1\n  log3\n    /* \"@openzeppelin/contracts/access/Ownable.sol\":2975:3099  {... */\n  pop\n    /* \"@openzeppelin/contracts/access/Ownable.sol\":2912:3099  function _transferOwnership(address newOwner) internal virtual {... */\n  pop\n  jump\t// out\n    /* \"#utility.yul\":88:205   */\ntag_18:\n    /* \"#utility.yul\":197:198   */\n  0x00\n    /* \"#utility.yul\":194:195   */\n  dup1\n    /* \"#utility.yul\":187:199   */\n  revert\n    /* \"#utility.yul\":334:460   */\ntag_20:\n    /* \"#utility.yul\":371:378   */\n  0x00\n    /* \"#utility.yul\":411:453   */\n  0xffffffffffffffffffffffffffffffffffffffff\n    /* \"#utility.yul\":404:409   */\n  dup3\n    /* \"#utility.yul\":400:454   */\n  and\n    /* \"#utility.yul\":389:454   */\n  swap1\n  pop\n    /* \"#utility.yul\":334:460   */\n  swap2\n  swap1\n  pop\n  jump\t// out\n    /* \"#utility.yul\":466:562   */\ntag_21:\n    /* \"#utility.yul\":503:510   */\n  0x00\n    /* \"#utility.yul\":532:556   */\n  tag_31\n    /* \"#utility.yul\":550:555   */\n  dup3\n    /* \"#utility.yul\":532:556   */\n  tag_20\n  jump\t// in\ntag_31:\n    /* \"#utility.yul\":521:556   */\n  swap1\n  pop\n    /* \"#utility.yul\":466:562   */\n  swap2\n  swap1\n  pop\n  jump\t// out\n    /* \"#utility.yul\":568:690   */\ntag_22:\n    /* \"#utility.yul\":641:665   */\n  tag_33\n    /* \"#utility.yul\":659:664   */\n  dup2\n    /* \"#utility.yul\":641:665   */\n  tag_21\n  jump\t// in\ntag_33:\n    /* \"#utility.yul\":634:639   */\n  dup2\n    /* \"#utility.yul\":631:666   */\n  eq\n    /* \"#utility.yul\":621:684   */\n  tag_34\n  jumpi\n    /* \"#utility.yul\":680:681   */\n  0x00\n    /* \"#utility.yul\":677:678   */\n  dup1\n    /* \"#utility.yul\":670:682   */\n  revert\n    /* \"#utility.yul\":621:684   */\ntag_34:\n    /* \"#utility.yul\":568:690   */\n  pop\n  jump\t// out\n    /* \"#utility.yul\":696:839   */\ntag_23:\n    /* \"#utility.yul\":753:758   */\n  0x00\n    /* \"#utility.yul\":784:790   */\n  dup2\n    /* \"#utility.yul\":778:791   */\n  mload\n    /* \"#utility.yul\":769:791   */\n  swap1\n  pop\n    /* \"#utility.yul\":800:833   */\n  tag_36\n    /* \"#utility.yul\":827:832   */\n  dup2\n    /* \"#utility.yul\":800:833   */\n  tag_22\n  jump\t// in\ntag_36:\n    /* \"#utility.yul\":696:839   */\n  swap3\n  swap2\n  pop\n  pop\n  jump\t// out\n    /* \"#utility.yul\":845:1196   */\ntag_3:\n    /* \"#utility.yul\":915:921   */\n  0x00\n    /* \"#utility.yul\":964:966   */\n  0x20\n    /* \"#utility.yul\":952:961   */\n  dup3\n    /* \"#utility.yul\":943:950   */\n  dup5\n    /* \"#utility.yul\":939:962   */\n  sub\n    /* \"#utility.yul\":935:967   */\n  slt\n    /* \"#utility.yul\":932:1051   */\n  iszero\n  tag_38\n  jumpi\n    /* \"#utility.yul\":970:1049   */\n  tag_39\n  tag_18\n  jump\t// in\ntag_39:\n    /* \"#utility.yul\":932:1051   */\ntag_38:\n    /* \"#utility.yul\":1090:1091   */\n  0x00\n    /* \"#utility.yul\":1115:1179   */\n  tag_40\n    /* \"#utility.yul\":1171:1178   */\n  dup5\n    /* \"#utility.yul\":1162:1168   */\n  dup3\n    /* \"#utility.yul\":1151:1160   */\n  dup6\n    /* \"#utility.yul\":1147:1169   */\n  add\n    /* \"#utility.yul\":1115:1179   */\n  tag_23\n  jump\t// in\ntag_40:\n    /* \"#utility.yul\":1105:1179   */\n  swap2\n  pop\n    /* \"#utility.yul\":1061:1189   */\n  pop\n    /* \"#utility.yul\":845:1196   */\n  swap3\n  swap2\n  pop\n  pop\n  jump\t// out\n    /* \"#utility.yul\":1202:1320   */\ntag_24:\n    /* \"#utility.yul\":1289:1313   */\n  tag_42\n    /* \"#utility.yul\":1307:1312   */\n  dup2\n    /* \"#utility.yul\":1289:1313   */\n  tag_21\n  jump\t// in\ntag_42:\n    /* \"#utility.yul\":1284:1287   */\n  dup3\n    /* \"#utility.yul\":1277:1314   */\n  mstore\n    /* \"#utility.yul\":1202:1320   */\n  pop\n  pop\n  jump\t// out\n    /* \"#utility.yul\":1326:1548   */\ntag_10:\n    /* \"#utility.yul\":1419:1423   */\n  0x00\n    /* \"#utility.yul\":1457:1459   */\n  0x20\n    /* \"#utility.yul\":1446:1455   */\n  dup3\n    /* \"#utility.yul\":1442:1460   */\n  add\n    /* \"#utility.yul\":1434:1460   */\n  swap1\n  pop\n    /* \"#utility.yul\":1470:1541   */\n  tag_44\n    /* \"#utility.yul\":1538:1539   */\n  0x00\n    /* \"#utility.yul\":1527:1536   */\n  dup4\n    /* \"#utility.yul\":1523:1540   */\n  add\n    /* \"#utility.yul\":1514:1520   */\n  dup5\n    /* \"#utility.yul\":1470:1541   */\n  tag_24\n  jump\t// in\ntag_44:\n    /* \"#utility.yul\":1326:1548   */\n  swap3\n  swap2\n  pop\n  pop\n  jump\t// out\n    /* \"moonx/moonx.sol\":273:7614  contract DecentralLearning is Ownable, Pausable {... */\ntag_15:\n  dataSize(sub_0)\n  dup1\n  dataOffset(sub_0)\n  0x00\n  codecopy\n  0x00\n  return\nstop\n\nsub_0: assembly {\n        /* \"moonx/moonx.sol\":273:7614  contract DecentralLearning is Ownable, Pausable {... */\n      mstore(0x40, 0x80)\n      jumpi(tag_1, lt(calldatasize, 0x04))\n      shr(0xe0, calldataload(0x00))\n      dup1\n      0x79370df3\n      gt\n      tag_28\n      jumpi\n      dup1\n      0xa4d8754a\n      gt\n      tag_29\n      jumpi\n      dup1\n      0xb0aaefd6\n      gt\n      tag_30\n      jumpi\n      dup1\n      0xb0aaefd6\n      eq\n      tag_24\n      jumpi\n      dup1\n      0xcf90b3be\n      eq\n      tag_25\n      jumpi\n      dup1\n      0xf2fde38b\n      eq\n      tag_26\n      jumpi\n      dup1\n      0xfbf1aded\n      eq\n      tag_27\n      jumpi\n      jump(tag_2)\n    tag_30:\n      dup1\n      0xa4d8754a\n      eq\n      tag_21\n      jumpi\n      dup1\n      0xa4e1f033\n      eq\n      tag_22\n      jumpi\n      dup1\n      0xae24f005\n      eq\n      tag_23\n      jumpi\n      jump(tag_2)\n    tag_29:\n      dup1\n      0x79370df3\n      eq\n      tag_15\n      jumpi\n      dup1\n      0x8456cb59\n      eq\n      tag_16\n      jumpi\n      dup1\n      0x87bc1425\n      eq\n      tag_17\n      jumpi\n      dup1\n      0x8da5cb5b\n      eq\n      tag_18\n      jumpi\n      dup1\n      0x905baa61\n      eq\n      tag_19\n      jumpi\n      dup1\n      0x96f979d2\n      eq\n      tag_20\n      jumpi\n      jump(tag_2)\n    tag_28:\n      dup1\n      0x5c975abb\n      gt\n      tag_31\n      jumpi\n      dup1\n      0x5c975abb\n      eq\n      tag_9\n      jumpi\n      dup1\n      0x5cb45cb5\n      eq\n      tag_10\n      jumpi\n      dup1\n      0x5e52da27\n      eq\n      tag_11\n      jumpi\n      dup1\n      0x66055159\n      eq\n      tag_12\n      jumpi\n      dup1\n      0x715018a6\n      eq\n      tag_13\n      jumpi\n      dup1\n      0x75284998\n      eq\n      tag_14\n      jumpi\n      jump(tag_2)\n    tag_31:\n      dup1\n      0x07f910f8\n      eq\n      tag_3\n      jumpi\n      dup1\n      0x15ba75f4\n      eq\n      tag_4\n      jumpi\n      dup1\n      0x34a014dc\n      eq\n      tag_5\n      jumpi\n      dup1\n      0x3f4ba83a\n      eq\n      tag_6\n      jumpi\n      dup1\n      0x4c64c030\n      eq\n      tag_7\n      jumpi\n      dup1\n      0x587f5ed7\n      eq\n      tag_8\n      jumpi\n      jump(tag_2)\n    tag_1:\n      jumpi(tag_2, calldatasize)\n      stop\n    tag_2:\n      0x00\n      dup1\n      revert\n        /* \"moonx/moonx.sol\":1430:1499  mapping(address => mapping(uint256 => Enrollment)) public enrollments */\n    tag_3:\n      callvalue\n      dup1\n      iszero\n      tag_34\n      jumpi\n      0x00\n      dup1\n      revert\n    tag_34:\n      pop\n      tag_35\n      0x04\n      dup1\n      calldatasize\n      sub\n      dup2\n      add\n      swap1\n      tag_36\n      swap2\n      swap1\n      tag_37\n      jump\t// in\n    tag_36:\n      tag_38\n      jump\t// in\n    tag_35:\n      mload(0x40)\n      tag_39\n      swap5\n      swap4\n      swap3\n      swap2\n      swap1\n      tag_40\n      jump\t// in\n    tag_39:\n      mload(0x40)\n      dup1\n      swap2\n      sub\n      swap1\n      return\n        /* \"moonx/moonx.sol\":6818:7267  function w_PlatformFees() external onlyOwner {... */\n    tag_4:\n      callvalue\n      dup1\n      iszero\n      tag_41\n      jumpi\n      0x00\n      dup1\n      revert\n    tag_41:\n      pop\n      tag_42\n      tag_43\n      jump\t// in\n    tag_42:\n      stop\n        /* \"moonx/moonx.sol\":715:748  uint256 public lastWithdrawalTime */\n    tag_5:\n      callvalue\n      dup1\n      iszero\n      tag_44\n      jumpi\n      0x00\n      dup1\n      revert\n    tag_44:\n      pop\n      tag_45\n      tag_46\n      jump\t// in\n    tag_45:\n      mload(0x40)\n      tag_47\n      swap2\n      swap1\n      tag_48\n      jump\t// in\n    tag_47:\n      mload(0x40)\n      dup1\n      swap2\n      sub\n      swap1\n      return\n        /* \"moonx/moonx.sol\":7340:7405  function unpause() external onlyOwner {... */\n    tag_6:\n      callvalue\n      dup1\n      iszero\n      tag_49\n      jumpi\n      0x00\n      dup1\n      revert\n    tag_49:\n      pop\n      tag_50\n      tag_51\n      jump\t// in\n    tag_50:\n      stop\n        /* \"moonx/moonx.sol\":655:708  uint256 public constant WITHDRAWAL_INTERVAL = 31 days */\n    tag_7:\n      callvalue\n      dup1\n      iszero\n      tag_52\n      jumpi\n      0x00\n      dup1\n      revert\n    tag_52:\n      pop\n      tag_53\n      tag_54\n      jump\t// in\n    tag_53:\n      mload(0x40)\n      tag_55\n      swap2\n      swap1\n      tag_48\n      jump\t// in\n    tag_55:\n      mload(0x40)\n      dup1\n      swap2\n      sub\n      swap1\n      return\n        /* \"moonx/moonx.sol\":754:784  uint256 public accumulatedFees */\n    tag_8:\n      callvalue\n      dup1\n      iszero\n      tag_56\n      jumpi\n      0x00\n      dup1\n      revert\n    tag_56:\n      pop\n      tag_57\n      tag_58\n      jump\t// in\n    tag_57:\n      mload(0x40)\n      tag_59\n      swap2\n      swap1\n      tag_48\n      jump\t// in\n    tag_59:\n      mload(0x40)\n      dup1\n      swap2\n      sub\n      swap1\n      return\n        /* \"@openzeppelin/contracts/security/Pausable.sol\":1615:1699  function paused() public view virtual returns (bool) {... */\n    tag_9:\n      callvalue\n      dup1\n      iszero\n      tag_60\n      jumpi\n      0x00\n      dup1\n      revert\n    tag_60:\n      pop\n      tag_61\n      tag_62\n      jump\t// in\n    tag_61:\n      mload(0x40)\n      tag_63\n      swap2\n      swap1\n      tag_64\n      jump\t// in\n    tag_63:\n      mload(0x40)\n      dup1\n      swap2\n      sub\n      swap1\n      return\n        /* \"moonx/moonx.sol\":5441:6811  function attemptQuiz(uint256 _courseId, string[] memory _answers) external payable COLLECTPLATFORMTX {... */\n    tag_10:\n      tag_65\n      0x04\n      dup1\n      calldatasize\n      sub\n      dup2\n      add\n      swap1\n      tag_66\n      swap2\n      swap1\n      tag_67\n      jump\t// in\n    tag_66:\n      tag_68\n      jump\t// in\n    tag_65:\n      stop\n        /* \"moonx/moonx.sol\":4907:5434  function enrollInCourse(uint256 _courseId) external payable whenNotPaused COLLECTPLATFORMTX {... */\n    tag_11:\n      tag_69\n      0x04\n      dup1\n      calldatasize\n      sub\n      dup2\n      add\n      swap1\n      tag_70\n      swap2\n      swap1\n      tag_71\n      jump\t// in\n    tag_70:\n      tag_72\n      jump\t// in\n    tag_69:\n      stop\n        /* \"moonx/moonx.sol\":1604:1630  uint256 public courseCount */\n    tag_12:\n      callvalue\n      dup1\n      iszero\n      tag_73\n      jumpi\n      0x00\n      dup1\n      revert\n    tag_73:\n      pop\n      tag_74\n      tag_75\n      jump\t// in\n    tag_74:\n      mload(0x40)\n      tag_76\n      swap2\n      swap1\n      tag_48\n      jump\t// in\n    tag_76:\n      mload(0x40)\n      dup1\n      swap2\n      sub\n      swap1\n      return\n        /* \"@openzeppelin/contracts/access/Ownable.sol\":2293:2394  function renounceOwnership() public virtual onlyOwner {... */\n    tag_13:\n      callvalue\n      dup1\n      iszero\n      tag_77\n      jumpi\n      0x00\n      dup1\n      revert\n    tag_77:\n      pop\n      tag_78\n      tag_79\n      jump\t// in\n    tag_78:\n      stop\n        /* \"moonx/moonx.sol\":4675:4901  function approveCourse(uint256 _courseId) external onlyOwner {... */\n    tag_14:\n      callvalue\n      dup1\n      iszero\n      tag_80\n      jumpi\n      0x00\n      dup1\n      revert\n    tag_80:\n      pop\n      tag_81\n      0x04\n      dup1\n      calldatasize\n      sub\n      dup2\n      add\n      swap1\n      tag_82\n      swap2\n      swap1\n      tag_71\n      jump\t// in\n    tag_82:\n      tag_83\n      jump\t// in\n    tag_81:\n      stop\n        /* \"moonx/moonx.sol\":2701:4669  function createCourse(... */\n    tag_15:\n      tag_84\n      0x04\n      dup1\n      calldatasize\n      sub\n      dup2\n      add\n      swap1\n      tag_85\n      swap2\n      swap1\n      tag_86\n      jump\t// in\n    tag_85:\n      tag_87\n      jump\t// in\n    tag_84:\n      stop\n        /* \"moonx/moonx.sol\":7273:7334  function pause() external onlyOwner {... */\n    tag_16:\n      callvalue\n      dup1\n      iszero\n      tag_88\n      jumpi\n      0x00\n      dup1\n      revert\n    tag_88:\n      pop\n      tag_89\n      tag_90\n      jump\t// in\n    tag_89:\n      stop\n        /* \"moonx/moonx.sol\":327:372  IReputationContract public reputationContract */\n    tag_17:\n      callvalue\n      dup1\n      iszero\n      tag_91\n      jumpi\n      0x00\n      dup1\n      revert\n    tag_91:\n      pop\n      tag_92\n      tag_93\n      jump\t// in\n    tag_92:\n      mload(0x40)\n      tag_94\n      swap2\n      swap1\n      tag_95\n      jump\t// in\n    tag_94:\n      mload(0x40)\n      dup1\n      swap2\n      sub\n      swap1\n      return\n        /* \"@openzeppelin/contracts/access/Ownable.sol\":1638:1723  function owner() public view virtual returns (address) {... */\n    tag_18:\n      callvalue\n      dup1\n      iszero\n      tag_96\n      jumpi\n      0x00\n      dup1\n      revert\n    tag_96:\n      pop\n      tag_97\n      tag_98\n      jump\t// in\n    tag_97:\n      mload(0x40)\n      tag_99\n      swap2\n      swap1\n      tag_100\n      jump\t// in\n    tag_99:\n      mload(0x40)\n      dup1\n      swap2\n      sub\n      swap1\n      return\n        /* \"moonx/moonx.sol\":7411:7577  function updateReputationContract(address _newReputationContract) external onlyOwner {... */\n    tag_19:\n      callvalue\n      dup1\n      iszero\n      tag_101\n      jumpi\n      0x00\n      dup1\n      revert\n    tag_101:\n      pop\n      tag_102\n      0x04\n      dup1\n      calldatasize\n      sub\n      dup2\n      add\n      swap1\n      tag_103\n      swap2\n      swap1\n      tag_104\n      jump\t// in\n    tag_103:\n      tag_105\n      jump\t// in\n    tag_102:\n      stop\n        /* \"moonx/moonx.sol\":1383:1424  mapping(uint256 => Course) public courses */\n    tag_20:\n      callvalue\n      dup1\n      iszero\n      tag_106\n      jumpi\n      0x00\n      dup1\n      revert\n    tag_106:\n      pop\n      tag_107\n      0x04\n      dup1\n      calldatasize\n      sub\n      dup2\n      add\n      swap1\n      tag_108\n      swap2\n      swap1\n      tag_71\n      jump\t// in\n    tag_108:\n      tag_109\n      jump\t// in\n    tag_107:\n      mload(0x40)\n      tag_110\n      swap7\n      swap6\n      swap5\n      swap4\n      swap3\n      swap2\n      swap1\n      tag_111\n      jump\t// in\n    tag_110:\n      mload(0x40)\n      dup1\n      swap2\n      sub\n      swap1\n      return\n        /* \"moonx/moonx.sol\":601:648  uint256 public constant PLATFORMTX = 0.75 ether */\n    tag_21:\n      callvalue\n      dup1\n      iszero\n      tag_112\n      jumpi\n      0x00\n      dup1\n      revert\n    tag_112:\n      pop\n      tag_113\n      tag_114\n      jump\t// in\n    tag_113:\n      mload(0x40)\n      tag_115\n      swap2\n      swap1\n      tag_48\n      jump\t// in\n    tag_115:\n      mload(0x40)\n      dup1\n      swap2\n      sub\n      swap1\n      return\n        /* \"moonx/moonx.sol\":429:471  uint256 public constant POST_THRESHOLD = 5 */\n    tag_22:\n      callvalue\n      dup1\n      iszero\n      tag_116\n      jumpi\n      0x00\n      dup1\n      revert\n    tag_116:\n      pop\n      tag_117\n      tag_118\n      jump\t// in\n    tag_117:\n      mload(0x40)\n      tag_119\n      swap2\n      swap1\n      tag_48\n      jump\t// in\n    tag_119:\n      mload(0x40)\n      dup1\n      swap2\n      sub\n      swap1\n      return\n        /* \"moonx/moonx.sol\":379:423  uint256 public constant ENROLL_THRESHOLD = 1 */\n    tag_23:\n      callvalue\n      dup1\n      iszero\n      tag_120\n      jumpi\n      0x00\n      dup1\n      revert\n    tag_120:\n      pop\n      tag_121\n      tag_122\n      jump\t// in\n    tag_121:\n      mload(0x40)\n      tag_123\n      swap2\n      swap1\n      tag_48\n      jump\t// in\n    tag_123:\n      mload(0x40)\n      dup1\n      swap2\n      sub\n      swap1\n      return\n        /* \"moonx/moonx.sol\":1505:1552  mapping(uint256 => Quiz[]) public courseQuizzes */\n    tag_24:\n      callvalue\n      dup1\n      iszero\n      tag_124\n      jumpi\n      0x00\n      dup1\n      revert\n    tag_124:\n      pop\n      tag_125\n      0x04\n      dup1\n      calldatasize\n      sub\n      dup2\n      add\n      swap1\n      tag_126\n      swap2\n      swap1\n      tag_127\n      jump\t// in\n    tag_126:\n      tag_128\n      jump\t// in\n    tag_125:\n      mload(0x40)\n      tag_129\n      swap8\n      swap7\n      swap6\n      swap5\n      swap4\n      swap3\n      swap2\n      swap1\n      tag_130\n      jump\t// in\n    tag_129:\n      mload(0x40)\n      dup1\n      swap2\n      sub\n      swap1\n      return\n        /* \"moonx/moonx.sol\":539:594  uint256 public constant CREATOR_REWARD_AMOUNT = 1 ether */\n    tag_25:\n      callvalue\n      dup1\n      iszero\n      tag_131\n      jumpi\n      0x00\n      dup1\n      revert\n    tag_131:\n      pop\n      tag_132\n      tag_133\n      jump\t// in\n    tag_132:\n      mload(0x40)\n      tag_134\n      swap2\n      swap1\n      tag_48\n      jump\t// in\n    tag_134:\n      mload(0x40)\n      dup1\n      swap2\n      sub\n      swap1\n      return\n        /* \"@openzeppelin/contracts/access/Ownable.sol\":2543:2758  function transferOwnership(address newOwner) public virtual onlyOwner {... */\n    tag_26:\n      callvalue\n      dup1\n      iszero\n      tag_135\n      jumpi\n      0x00\n      dup1\n      revert\n    tag_135:\n      pop\n      tag_136\n      0x04\n      dup1\n      calldatasize\n      sub\n      dup2\n      add\n      swap1\n      tag_137\n      swap2\n      swap1\n      tag_104\n      jump\t// in\n    tag_137:\n      tag_138\n      jump\t// in\n    tag_136:\n      stop\n        /* \"moonx/moonx.sol\":477:533  uint256 public constant STUDENT_REWARD_AMOUNT = 10 ether */\n    tag_27:\n      callvalue\n      dup1\n      iszero\n      tag_139\n      jumpi\n      0x00\n      dup1\n      revert\n    tag_139:\n      pop\n      tag_140\n      tag_141\n      jump\t// in\n    tag_140:\n      mload(0x40)\n      tag_142\n      swap2\n      swap1\n      tag_48\n      jump\t// in\n    tag_142:\n      mload(0x40)\n      dup1\n      swap2\n      sub\n      swap1\n      return\n        /* \"moonx/moonx.sol\":1430:1499  mapping(address => mapping(uint256 => Enrollment)) public enrollments */\n    tag_38:\n      mstore(0x20, 0x05)\n      dup2\n      0x00\n      mstore\n      mstore(0x20, keccak256(0x00, 0x40))\n      dup1\n      0x00\n      mstore\n      keccak256(0x00, 0x40)\n      0x00\n      swap2\n      pop\n      swap2\n      pop\n      pop\n      dup1\n      0x00\n      add\n      0x00\n      swap1\n      sload\n      swap1\n      0x0100\n      exp\n      swap1\n      div\n      0xff\n      and\n      swap1\n      dup1\n      0x00\n      add\n      0x01\n      swap1\n      sload\n      swap1\n      0x0100\n      exp\n      swap1\n      div\n      0xff\n      and\n      swap1\n      dup1\n      0x00\n      add\n      0x02\n      swap1\n      sload\n      swap1\n      0x0100\n      exp\n      swap1\n      div\n      0xff\n      and\n      swap1\n      dup1\n      0x00\n      add\n      0x03\n      swap1\n      sload\n      swap1\n      0x0100\n      exp\n      swap1\n      div\n      0xff\n      and\n      swap1\n      pop\n      dup5\n      jump\t// out\n        /* \"moonx/moonx.sol\":6818:7267  function w_PlatformFees() external onlyOwner {... */\n    tag_43:\n        /* \"@openzeppelin/contracts/access/Ownable.sol\":1531:1544  _checkOwner() */\n      tag_144\n        /* \"@openzeppelin/contracts/access/Ownable.sol\":1531:1542  _checkOwner */\n      tag_145\n        /* \"@openzeppelin/contracts/access/Ownable.sol\":1531:1544  _checkOwner() */\n      jump\t// in\n    tag_144:\n        /* \"moonx/moonx.sol\":701:708  31 days */\n      0x28de80\n        /* \"moonx/moonx.sol\":6900:6918  lastWithdrawalTime */\n      sload(0x02)\n        /* \"moonx/moonx.sol\":6900:6940  lastWithdrawalTime + WITHDRAWAL_INTERVAL */\n      tag_147\n      swap2\n      swap1\n      tag_148\n      jump\t// in\n    tag_147:\n        /* \"moonx/moonx.sol\":6881:6896  block.timestamp */\n      timestamp\n        /* \"moonx/moonx.sol\":6881:6940  block.timestamp >= lastWithdrawalTime + WITHDRAWAL_INTERVAL */\n      lt\n      iszero\n        /* \"moonx/moonx.sol\":6873:6976  require(block.timestamp >= lastWithdrawalTime + WITHDRAWAL_INTERVAL, \"Withdrawal interval not reached\") */\n      tag_149\n      jumpi\n      mload(0x40)\n      0x08c379a000000000000000000000000000000000000000000000000000000000\n      dup2\n      mstore\n      0x04\n      add\n      tag_150\n      swap1\n      tag_151\n      jump\t// in\n    tag_150:\n      mload(0x40)\n      dup1\n      swap2\n      sub\n      swap1\n      revert\n    tag_149:\n        /* \"moonx/moonx.sol\":6986:7000  uint256 amount */\n      0x00\n        /* \"moonx/moonx.sol\":7003:7018  accumulatedFees */\n      sload(0x03)\n        /* \"moonx/moonx.sol\":6986:7018  uint256 amount = accumulatedFees */\n      swap1\n      pop\n        /* \"moonx/moonx.sol\":7046:7047  0 */\n      0x00\n        /* \"moonx/moonx.sol\":7028:7043  accumulatedFees */\n      0x03\n        /* \"moonx/moonx.sol\":7028:7047  accumulatedFees = 0 */\n      dup2\n      swap1\n      sstore\n      pop\n        /* \"moonx/moonx.sol\":7078:7093  block.timestamp */\n      timestamp\n        /* \"moonx/moonx.sol\":7057:7075  lastWithdrawalTime */\n      0x02\n        /* \"moonx/moonx.sol\":7057:7093  lastWithdrawalTime = block.timestamp */\n      dup2\n      swap1\n      sstore\n      pop\n        /* \"moonx/moonx.sol\":7105:7117  bool success */\n      0x00\n        /* \"moonx/moonx.sol\":7131:7138  owner() */\n      tag_152\n        /* \"moonx/moonx.sol\":7131:7136  owner */\n      tag_98\n        /* \"moonx/moonx.sol\":7131:7138  owner() */\n      jump\t// in\n    tag_152:\n        /* \"moonx/moonx.sol\":7123:7144  payable(owner()).call */\n      0xffffffffffffffffffffffffffffffffffffffff\n      and\n        /* \"moonx/moonx.sol\":7152:7158  amount */\n      dup3\n        /* \"moonx/moonx.sol\":7123:7163  payable(owner()).call{value: amount}(\"\") */\n      mload(0x40)\n      tag_153\n      swap1\n      tag_154\n      jump\t// in\n    tag_153:\n      0x00\n      mload(0x40)\n      dup1\n      dup4\n      sub\n      dup2\n      dup6\n      dup8\n      gas\n      call\n      swap3\n      pop\n      pop\n      pop\n      returndatasize\n      dup1\n      0x00\n      dup2\n      eq\n      tag_157\n      jumpi\n      mload(0x40)\n      swap2\n      pop\n      and(add(returndatasize, 0x3f), not(0x1f))\n      dup3\n      add\n      0x40\n      mstore\n      returndatasize\n      dup3\n      mstore\n      returndatasize\n      0x00\n      0x20\n      dup5\n      add\n      returndatacopy\n      jump(tag_156)\n    tag_157:\n      0x60\n      swap2\n      pop\n    tag_156:\n      pop\n        /* \"moonx/moonx.sol\":7104:7163  (bool success, ) = payable(owner()).call{value: amount}(\"\") */\n      pop\n      swap1\n      pop\n        /* \"moonx/moonx.sol\":7181:7188  success */\n      dup1\n        /* \"moonx/moonx.sol\":7173:7220  require(success, \"Failed to withdraw gas fees\") */\n      tag_158\n      jumpi\n      mload(0x40)\n      0x08c379a000000000000000000000000000000000000000000000000000000000\n      dup2\n      mstore\n      0x04\n      add\n      tag_159\n      swap1\n      tag_160\n      jump\t// in\n    tag_159:\n      mload(0x40)\n      dup1\n      swap2\n      sub\n      swap1\n      revert\n    tag_158:\n        /* \"moonx/moonx.sol\":7236:7260  GasFeesWithdrawn(amount) */\n      0x0d3c6acef4f1bd70f36dad19b43c6b794ac969b546734638671026f801d476fa\n        /* \"moonx/moonx.sol\":7253:7259  amount */\n      dup3\n        /* \"moonx/moonx.sol\":7236:7260  GasFeesWithdrawn(amount) */\n      mload(0x40)\n      tag_161\n      swap2\n      swap1\n      tag_48\n      jump\t// in\n    tag_161:\n      mload(0x40)\n      dup1\n      swap2\n      sub\n      swap1\n      log1\n        /* \"moonx/moonx.sol\":6863:7267  {... */\n      pop\n      pop\n        /* \"moonx/moonx.sol\":6818:7267  function w_PlatformFees() external onlyOwner {... */\n      jump\t// out\n        /* \"moonx/moonx.sol\":715:748  uint256 public lastWithdrawalTime */\n    tag_46:\n      sload(0x02)\n      dup2\n      jump\t// out\n        /* \"moonx/moonx.sol\":7340:7405  function unpause() external onlyOwner {... */\n    tag_51:\n        /* \"@openzeppelin/contracts/access/Ownable.sol\":1531:1544  _checkOwner() */\n      tag_163\n        /* \"@openzeppelin/contracts/access/Ownable.sol\":1531:1542  _checkOwner */\n      tag_145\n        /* \"@openzeppelin/contracts/access/Ownable.sol\":1531:1544  _checkOwner() */\n      jump\t// in\n    tag_163:\n        /* \"moonx/moonx.sol\":7388:7398  _unpause() */\n      tag_165\n        /* \"moonx/moonx.sol\":7388:7396  _unpause */\n      tag_166\n        /* \"moonx/moonx.sol\":7388:7398  _unpause() */\n      jump\t// in\n    tag_165:\n        /* \"moonx/moonx.sol\":7340:7405  function unpause() external onlyOwner {... */\n      jump\t// out\n        /* \"moonx/moonx.sol\":655:708  uint256 public constant WITHDRAWAL_INTERVAL = 31 days */\n    tag_54:\n        /* \"moonx/moonx.sol\":701:708  31 days */\n      0x28de80\n        /* \"moonx/moonx.sol\":655:708  uint256 public constant WITHDRAWAL_INTERVAL = 31 days */\n      dup2\n      jump\t// out\n        /* \"moonx/moonx.sol\":754:784  uint256 public accumulatedFees */\n    tag_58:\n      sload(0x03)\n      dup2\n      jump\t// out\n        /* \"@openzeppelin/contracts/security/Pausable.sol\":1615:1699  function paused() public view virtual returns (bool) {... */\n    tag_62:\n        /* \"@openzeppelin/contracts/security/Pausable.sol\":1662:1666  bool */\n      0x00\n        /* \"@openzeppelin/contracts/security/Pausable.sol\":1685:1692  _paused */\n      dup1\n      0x14\n      swap1\n      sload\n      swap1\n      0x0100\n      exp\n      swap1\n      div\n      0xff\n      and\n        /* \"@openzeppelin/contracts/security/Pausable.sol\":1678:1692  return _paused */\n      swap1\n      pop\n        /* \"@openzeppelin/contracts/security/Pausable.sol\":1615:1699  function paused() public view virtual returns (bool) {... */\n      swap1\n      jump\t// out\n        /* \"moonx/moonx.sol\":5441:6811  function attemptQuiz(uint256 _courseId, string[] memory _answers) external payable COLLECTPLATFORMTX {... */\n    tag_68:\n        /* \"moonx/moonx.sol\":638:648  0.75 ether */\n      0x0a688906bd8b0000\n        /* \"moonx/moonx.sol\":2456:2465  msg.value */\n      callvalue\n        /* \"moonx/moonx.sol\":2456:2479  msg.value >= PLATFORMTX */\n      lt\n      iszero\n        /* \"moonx/moonx.sol\":2448:2504  require(msg.value >= PLATFORMTX, \"Insufficient gas fee\") */\n      tag_169\n      jumpi\n      mload(0x40)\n      0x08c379a000000000000000000000000000000000000000000000000000000000\n      dup2\n      mstore\n      0x04\n      add\n      tag_170\n      swap1\n      tag_171\n      jump\t// in\n    tag_170:\n      mload(0x40)\n      dup1\n      swap2\n      sub\n      swap1\n      revert\n    tag_169:\n        /* \"moonx/moonx.sol\":638:648  0.75 ether */\n      0x0a688906bd8b0000\n        /* \"moonx/moonx.sol\":2514:2529  accumulatedFees */\n      0x03\n      0x00\n        /* \"moonx/moonx.sol\":2514:2543  accumulatedFees += PLATFORMTX */\n      dup3\n      dup3\n      sload\n      tag_172\n      swap2\n      swap1\n      tag_148\n      jump\t// in\n    tag_172:\n      swap3\n      pop\n      pop\n      dup2\n      swap1\n      sstore\n      pop\n        /* \"moonx/moonx.sol\":2553:2567  uint256 excess */\n      0x00\n        /* \"moonx/moonx.sol\":638:648  0.75 ether */\n      0x0a688906bd8b0000\n        /* \"moonx/moonx.sol\":2570:2579  msg.value */\n      callvalue\n        /* \"moonx/moonx.sol\":2570:2592  msg.value - PLATFORMTX */\n      tag_173\n      swap2\n      swap1\n      tag_174\n      jump\t// in\n    tag_173:\n        /* \"moonx/moonx.sol\":2553:2592  uint256 excess = msg.value - PLATFORMTX */\n      swap1\n      pop\n        /* \"moonx/moonx.sol\":2615:2616  0 */\n      0x00\n        /* \"moonx/moonx.sol\":2606:2612  excess */\n      dup2\n        /* \"moonx/moonx.sol\":2606:2616  excess > 0 */\n      gt\n        /* \"moonx/moonx.sol\":2602:2679  if (excess > 0) {... */\n      iszero\n      tag_175\n      jumpi\n        /* \"moonx/moonx.sol\":2640:2650  msg.sender */\n      caller\n        /* \"moonx/moonx.sol\":2632:2660  payable(msg.sender).transfer */\n      0xffffffffffffffffffffffffffffffffffffffff\n      and\n        /* \"moonx/moonx.sol\":2632:2668  payable(msg.sender).transfer(excess) */\n      0x08fc\n        /* \"moonx/moonx.sol\":2661:2667  excess */\n      dup3\n        /* \"moonx/moonx.sol\":2632:2668  payable(msg.sender).transfer(excess) */\n      swap1\n      dup2\n      iszero\n      mul\n      swap1\n      mload(0x40)\n      0x00\n      mload(0x40)\n      dup1\n      dup4\n      sub\n      dup2\n      dup6\n      dup9\n      dup9\n      call\n      swap4\n      pop\n      pop\n      pop\n      pop\n      iszero\n      dup1\n      iszero\n      tag_177\n      jumpi\n      returndatasize\n      0x00\n      dup1\n      returndatacopy\n      revert(0x00, returndatasize)\n    tag_177:\n      pop\n        /* \"moonx/moonx.sol\":2602:2679  if (excess > 0) {... */\n    tag_175:\n        /* \"moonx/moonx.sol\":5552:5581  Enrollment storage enrollment */\n      0x00\n        /* \"moonx/moonx.sol\":5584:5595  enrollments */\n      0x05\n        /* \"moonx/moonx.sol\":5584:5607  enrollments[msg.sender] */\n      0x00\n        /* \"moonx/moonx.sol\":5596:5606  msg.sender */\n      caller\n        /* \"moonx/moonx.sol\":5584:5607  enrollments[msg.sender] */\n      0xffffffffffffffffffffffffffffffffffffffff\n      and\n      0xffffffffffffffffffffffffffffffffffffffff\n      and\n      dup2\n      mstore\n      0x20\n      add\n      swap1\n      dup2\n      mstore\n      0x20\n      add\n      0x00\n      keccak256\n        /* \"moonx/moonx.sol\":5584:5618  enrollments[msg.sender][_courseId] */\n      0x00\n        /* \"moonx/moonx.sol\":5608:5617  _courseId */\n      dup6\n        /* \"moonx/moonx.sol\":5584:5618  enrollments[msg.sender][_courseId] */\n      dup2\n      mstore\n      0x20\n      add\n      swap1\n      dup2\n      mstore\n      0x20\n      add\n      0x00\n      keccak256\n        /* \"moonx/moonx.sol\":5552:5618  Enrollment storage enrollment = enrollments[msg.sender][_courseId] */\n      swap1\n      pop\n        /* \"moonx/moonx.sol\":5636:5646  enrollment */\n      dup1\n        /* \"moonx/moonx.sol\":5636:5657  enrollment.isEnrolled */\n      0x00\n      add\n      0x00\n      swap1\n      sload\n      swap1\n      0x0100\n      exp\n      swap1\n      div\n      0xff\n      and\n        /* \"moonx/moonx.sol\":5628:5694  require(enrollment.isEnrolled, \"User not enrolled in this course\") */\n      tag_179\n      jumpi\n      mload(0x40)\n      0x08c379a000000000000000000000000000000000000000000000000000000000\n      dup2\n      mstore\n      0x04\n      add\n      tag_180\n      swap1\n      tag_181\n      jump\t// in\n    tag_180:\n      mload(0x40)\n      dup1\n      swap2\n      sub\n      swap1\n      revert\n    tag_179:\n        /* \"moonx/moonx.sol\":5738:5739  2 */\n      0x02\n        /* \"moonx/moonx.sol\":5712:5722  enrollment */\n      dup2\n        /* \"moonx/moonx.sol\":5712:5735  enrollment.attemptCount */\n      0x00\n      add\n      0x01\n      swap1\n      sload\n      swap1\n      0x0100\n      exp\n      swap1\n      div\n      0xff\n      and\n        /* \"moonx/moonx.sol\":5712:5739  enrollment.attemptCount < 2 */\n      0xff\n      and\n      lt\n        /* \"moonx/moonx.sol\":5704:5768  require(enrollment.attemptCount < 2, \"Maximum attempts reached\") */\n      tag_182\n      jumpi\n      mload(0x40)\n      0x08c379a000000000000000000000000000000000000000000000000000000000\n      dup2\n      mstore\n      0x04\n      add\n      tag_183\n      swap1\n      tag_184\n      jump\t// in\n    tag_183:\n      mload(0x40)\n      dup1\n      swap2\n      sub\n      swap1\n      revert\n    tag_182:\n        /* \"moonx/moonx.sol\":5787:5797  enrollment */\n      dup1\n        /* \"moonx/moonx.sol\":5787:5807  enrollment.hasPassed */\n      0x00\n      add\n      0x02\n      swap1\n      sload\n      swap1\n      0x0100\n      exp\n      swap1\n      div\n      0xff\n      and\n        /* \"moonx/moonx.sol\":5786:5807  !enrollment.hasPassed */\n      iszero\n        /* \"moonx/moonx.sol\":5778:5847  require(!enrollment.hasPassed, \"User has already passed this course\") */\n      tag_185\n      jumpi\n      mload(0x40)\n      0x08c379a000000000000000000000000000000000000000000000000000000000\n      dup2\n      mstore\n      0x04\n      add\n      tag_186\n      swap1\n      tag_187\n      jump\t// in\n    tag_186:\n      mload(0x40)\n      dup1\n      swap2\n      sub\n      swap1\n      revert\n    tag_185:\n        /* \"moonx/moonx.sol\":5858:5868  enrollment */\n      dup1\n        /* \"moonx/moonx.sol\":5858:5881  enrollment.attemptCount */\n      0x00\n      add\n      0x01\n        /* \"moonx/moonx.sol\":5858:5883  enrollment.attemptCount++ */\n      dup2\n      dup2\n      swap1\n      sload\n      swap1\n      0x0100\n      exp\n      swap1\n      div\n      0xff\n      and\n      dup1\n      swap3\n      swap2\n      swap1\n      tag_188\n      swap1\n      tag_189\n      jump\t// in\n    tag_188:\n      swap2\n      swap1\n      0x0100\n      exp\n      dup2\n      sload\n      dup2\n      0xff\n      mul\n      not\n      and\n      swap1\n      dup4\n      0xff\n      and\n      mul\n      or\n      swap1\n      sstore\n      pop\n      pop\n        /* \"moonx/moonx.sol\":5893:5914  Quiz[] memory quizzes */\n      0x00\n        /* \"moonx/moonx.sol\":5917:5930  courseQuizzes */\n      0x06\n        /* \"moonx/moonx.sol\":5917:5941  courseQuizzes[_courseId] */\n      0x00\n        /* \"moonx/moonx.sol\":5931:5940  _courseId */\n      dup7\n        /* \"moonx/moonx.sol\":5917:5941  courseQuizzes[_courseId] */\n      dup2\n      mstore\n      0x20\n      add\n      swap1\n      dup2\n      mstore\n      0x20\n      add\n      0x00\n      keccak256\n        /* \"moonx/moonx.sol\":5893:5941  Quiz[] memory quizzes = courseQuizzes[_courseId] */\n      dup1\n      sload\n      dup1\n      0x20\n      mul\n      0x20\n      add\n      mload(0x40)\n      swap1\n      dup2\n      add\n      0x40\n      mstore\n      dup1\n      swap3\n      swap2\n      swap1\n      dup2\n      dup2\n      mstore\n      0x20\n      add\n      0x00\n      swap1\n    tag_190:\n      dup3\n      dup3\n      lt\n      iszero\n      tag_191\n      jumpi\n      dup4\n      dup3\n      swap1\n      0x00\n      mstore\n      keccak256(0x00, 0x20)\n      swap1\n      0x07\n      mul\n      add\n      mload(0x40)\n      dup1\n      0xe0\n      add\n      0x40\n      mstore\n      swap1\n      dup2\n      0x00\n      dup3\n      add\n      sload\n      dup2\n      mstore\n      0x20\n      add\n      0x01\n      dup3\n      add\n      dup1\n      sload\n      tag_193\n      swap1\n      tag_194\n      jump\t// in\n    tag_193:\n      dup1\n      0x1f\n      add\n      0x20\n      dup1\n      swap2\n      div\n      mul\n      0x20\n      add\n      mload(0x40)\n      swap1\n      dup2\n      add\n      0x40\n      mstore\n      dup1\n      swap3\n      swap2\n      swap1\n      dup2\n      dup2\n      mstore\n      0x20\n      add\n      dup3\n      dup1\n      sload\n      tag_195\n      swap1\n      tag_194\n      jump\t// in\n    tag_195:\n      dup1\n      iszero\n      tag_196\n      jumpi\n      dup1\n      0x1f\n      lt\n      tag_197\n      jumpi\n      0x0100\n      dup1\n      dup4\n      sload\n      div\n      mul\n      dup4\n      mstore\n      swap2\n      0x20\n      add\n      swap2\n      jump(tag_196)\n    tag_197:\n      dup3\n      add\n      swap2\n      swap1\n      0x00\n      mstore\n      keccak256(0x00, 0x20)\n      swap1\n    tag_198:\n      dup2\n      sload\n      dup2\n      mstore\n      swap1\n      0x01\n      add\n      swap1\n      0x20\n      add\n      dup1\n      dup4\n      gt\n      tag_198\n      jumpi\n      dup3\n      swap1\n      sub\n      0x1f\n      and\n      dup3\n      add\n      swap2\n    tag_196:\n      pop\n      pop\n      pop\n      pop\n      pop\n      dup2\n      mstore\n      0x20\n      add\n      0x02\n      dup3\n      add\n      dup1\n      sload\n      tag_199\n      swap1\n      tag_194\n      jump\t// in\n    tag_199:\n      dup1\n      0x1f\n      add\n      0x20\n      dup1\n      swap2\n      div\n      mul\n      0x20\n      add\n      mload(0x40)\n      swap1\n      dup2\n      add\n      0x40\n      mstore\n      dup1\n      swap3\n      swap2\n      swap1\n      dup2\n      dup2\n      mstore\n      0x20\n      add\n      dup3\n      dup1\n      sload\n      tag_200\n      swap1\n      tag_194\n      jump\t// in\n    tag_200:\n      dup1\n      iszero\n      tag_201\n      jumpi\n      dup1\n      0x1f\n      lt\n      tag_202\n      jumpi\n      0x0100\n      dup1\n      dup4\n      sload\n      div\n      mul\n      dup4\n      mstore\n      swap2\n      0x20\n      add\n      swap2\n      jump(tag_201)\n    tag_202:\n      dup3\n      add\n      swap2\n      swap1\n      0x00\n      mstore\n      keccak256(0x00, 0x20)\n      swap1\n    tag_203:\n      dup2\n      sload\n      dup2\n      mstore\n      swap1\n      0x01\n      add\n      swap1\n      0x20\n      add\n      dup1\n      dup4\n      gt\n      tag_203\n      jumpi\n      dup3\n      swap1\n      sub\n      0x1f\n      and\n      dup3\n      add\n      swap2\n    tag_201:\n      pop\n      pop\n      pop\n      pop\n      pop\n      dup2\n      mstore\n      0x20\n      add\n      0x03\n      dup3\n      add\n      dup1\n      sload\n      tag_204\n      swap1\n      tag_194\n      jump\t// in\n    tag_204:\n      dup1\n      0x1f\n      add\n      0x20\n      dup1\n      swap2\n      div\n      mul\n      0x20\n      add\n      mload(0x40)\n      swap1\n      dup2\n      add\n      0x40\n      mstore\n      dup1\n      swap3\n      swap2\n      swap1\n      dup2\n      dup2\n      mstore\n      0x20\n      add\n      dup3\n      dup1\n      sload\n      tag_205\n      swap1\n      tag_194\n      jump\t// in\n    tag_205:\n      dup1\n      iszero\n      tag_206\n      jumpi\n      dup1\n      0x1f\n      lt\n      tag_207\n      jumpi\n      0x0100\n      dup1\n      dup4\n      sload\n      div\n      mul\n      dup4\n      mstore\n      swap2\n      0x20\n      add\n      swap2\n      jump(tag_206)\n    tag_207:\n      dup3\n      add\n      swap2\n      swap1\n      0x00\n      mstore\n      keccak256(0x00, 0x20)\n      swap1\n    tag_208:\n      dup2\n      sload\n      dup2\n      mstore\n      swap1\n      0x01\n      add\n      swap1\n      0x20\n      add\n      dup1\n      dup4\n      gt\n      tag_208\n      jumpi\n      dup3\n      swap1\n      sub\n      0x1f\n      and\n      dup3\n      add\n      swap2\n    tag_206:\n      pop\n      pop\n      pop\n      pop\n      pop\n      dup2\n      mstore\n      0x20\n      add\n      0x04\n      dup3\n      add\n      dup1\n      sload\n      tag_209\n      swap1\n      tag_194\n      jump\t// in\n    tag_209:\n      dup1\n      0x1f\n      add\n      0x20\n      dup1\n      swap2\n      div\n      mul\n      0x20\n      add\n      mload(0x40)\n      swap1\n      dup2\n      add\n      0x40\n      mstore\n      dup1\n      swap3\n      swap2\n      swap1\n      dup2\n      dup2\n      mstore\n      0x20\n      add\n      dup3\n      dup1\n      sload\n      tag_210\n      swap1\n      tag_194\n      jump\t// in\n    tag_210:\n      dup1\n      iszero\n      tag_211\n      jumpi\n      dup1\n      0x1f\n      lt\n      tag_212\n      jumpi\n      0x0100\n      dup1\n      dup4\n      sload\n      div\n      mul\n      dup4\n      mstore\n      swap2\n      0x20\n      add\n      swap2\n      jump(tag_211)\n    tag_212:\n      dup3\n      add\n      swap2\n      swap1\n      0x00\n      mstore\n      keccak256(0x00, 0x20)\n      swap1\n    tag_213:\n      dup2\n      sload\n      dup2\n      mstore\n      swap1\n      0x01\n      add\n      swap1\n      0x20\n      add\n      dup1\n      dup4\n      gt\n      tag_213\n      jumpi\n      dup3\n      swap1\n      sub\n      0x1f\n      and\n      dup3\n      add\n      swap2\n    tag_211:\n      pop\n      pop\n      pop\n      pop\n      pop\n      dup2\n      mstore\n      0x20\n      add\n      0x05\n      dup3\n      add\n      dup1\n      sload\n      tag_214\n      swap1\n      tag_194\n      jump\t// in\n    tag_214:\n      dup1\n      0x1f\n      add\n      0x20\n      dup1\n      swap2\n      div\n      mul\n      0x20\n      add\n      mload(0x40)\n      swap1\n      dup2\n      add\n      0x40\n      mstore\n      dup1\n      swap3\n      swap2\n      swap1\n      dup2\n      dup2\n      mstore\n      0x20\n      add\n      dup3\n      dup1\n      sload\n      tag_215\n      swap1\n      tag_194\n      jump\t// in\n    tag_215:\n      dup1\n      iszero\n      tag_216\n      jumpi\n      dup1\n      0x1f\n      lt\n      tag_217\n      jumpi\n      0x0100\n      dup1\n      dup4\n      sload\n      div\n      mul\n      dup4\n      mstore\n      swap2\n      0x20\n      add\n      swap2\n      jump(tag_216)\n    tag_217:\n      dup3\n      add\n      swap2\n      swap1\n      0x00\n      mstore\n      keccak256(0x00, 0x20)\n      swap1\n    tag_218:\n      dup2\n      sload\n      dup2\n      mstore\n      swap1\n      0x01\n      add\n      swap1\n      0x20\n      add\n      dup1\n      dup4\n      gt\n      tag_218\n      jumpi\n      dup3\n      swap1\n      sub\n      0x1f\n      and\n      dup3\n      add\n      swap2\n    tag_216:\n      pop\n      pop\n      pop\n      pop\n      pop\n      dup2\n      mstore\n      0x20\n      add\n      0x06\n      dup3\n      add\n      sload\n      dup2\n      mstore\n      pop\n      pop\n      dup2\n      mstore\n      0x20\n      add\n      swap1\n      0x01\n      add\n      swap1\n      jump(tag_190)\n    tag_191:\n      pop\n      pop\n      pop\n      pop\n      swap1\n      pop\n        /* \"moonx/moonx.sol\":5978:5985  quizzes */\n      dup1\n        /* \"moonx/moonx.sol\":5978:5992  quizzes.length */\n      mload\n        /* \"moonx/moonx.sol\":5959:5967  _answers */\n      dup5\n        /* \"moonx/moonx.sol\":5959:5974  _answers.length */\n      mload\n        /* \"moonx/moonx.sol\":5959:5992  _answers.length == quizzes.length */\n      eq\n        /* \"moonx/moonx.sol\":5951:6018  require(_answers.length == quizzes.length, \"Answer count mismatch\") */\n      tag_219\n      jumpi\n      mload(0x40)\n      0x08c379a000000000000000000000000000000000000000000000000000000000\n      dup2\n      mstore\n      0x04\n      add\n      tag_220\n      swap1\n      tag_221\n      jump\t// in\n    tag_220:\n      mload(0x40)\n      dup1\n      swap2\n      sub\n      swap1\n      revert\n    tag_219:\n        /* \"moonx/moonx.sol\":6029:6040  bool passed */\n      0x00\n        /* \"moonx/moonx.sol\":6043:6047  true */\n      0x01\n        /* \"moonx/moonx.sol\":6029:6047  bool passed = true */\n      swap1\n      pop\n        /* \"moonx/moonx.sol\":6063:6072  uint256 i */\n      0x00\n        /* \"moonx/moonx.sol\":6058:6275  for (uint256 i = 0; i < quizzes.length; i++) {... */\n    tag_222:\n        /* \"moonx/moonx.sol\":6082:6089  quizzes */\n      dup3\n        /* \"moonx/moonx.sol\":6082:6096  quizzes.length */\n      mload\n        /* \"moonx/moonx.sol\":6078:6079  i */\n      dup2\n        /* \"moonx/moonx.sol\":6078:6096  i < quizzes.length */\n      lt\n        /* \"moonx/moonx.sol\":6058:6275  for (uint256 i = 0; i < quizzes.length; i++) {... */\n      iszero\n      tag_223\n      jumpi\n        /* \"moonx/moonx.sol\":6165:6172  quizzes */\n      dup3\n        /* \"moonx/moonx.sol\":6173:6174  i */\n      dup2\n        /* \"moonx/moonx.sol\":6165:6175  quizzes[i] */\n      dup2\n      mload\n      dup2\n      lt\n      tag_225\n      jumpi\n      tag_226\n      tag_227\n      jump\t// in\n    tag_226:\n    tag_225:\n      0x20\n      mul\n      0x20\n      add\n      add\n      mload\n        /* \"moonx/moonx.sol\":6165:6193  quizzes[i].correctAnswerHash */\n      0xc0\n      add\n      mload\n        /* \"moonx/moonx.sol\":6148:6156  _answers */\n      dup7\n        /* \"moonx/moonx.sol\":6157:6158  i */\n      dup3\n        /* \"moonx/moonx.sol\":6148:6159  _answers[i] */\n      dup2\n      mload\n      dup2\n      lt\n      tag_228\n      jumpi\n      tag_229\n      tag_227\n      jump\t// in\n    tag_229:\n    tag_228:\n      0x20\n      mul\n      0x20\n      add\n      add\n      mload\n        /* \"moonx/moonx.sol\":6131:6160  abi.encodePacked(_answers[i]) */\n      add(0x20, mload(0x40))\n      tag_230\n      swap2\n      swap1\n      tag_231\n      jump\t// in\n    tag_230:\n      mload(0x40)\n      0x20\n      dup2\n      dup4\n      sub\n      sub\n      dup2\n      mstore\n      swap1\n      0x40\n      mstore\n        /* \"moonx/moonx.sol\":6121:6161  keccak256(abi.encodePacked(_answers[i])) */\n      dup1\n      mload\n      swap1\n      0x20\n      add\n      keccak256\n        /* \"moonx/moonx.sol\":6121:6193  keccak256(abi.encodePacked(_answers[i])) != quizzes[i].correctAnswerHash */\n      eq\n        /* \"moonx/moonx.sol\":6117:6265  if (keccak256(abi.encodePacked(_answers[i])) != quizzes[i].correctAnswerHash) {... */\n      tag_232\n      jumpi\n        /* \"moonx/moonx.sol\":6222:6227  false */\n      0x00\n        /* \"moonx/moonx.sol\":6213:6227  passed = false */\n      swap2\n      pop\n        /* \"moonx/moonx.sol\":6245:6250  break */\n      jump(tag_223)\n        /* \"moonx/moonx.sol\":6117:6265  if (keccak256(abi.encodePacked(_answers[i])) != quizzes[i].correctAnswerHash) {... */\n    tag_232:\n        /* \"moonx/moonx.sol\":6098:6101  i++ */\n      dup1\n      dup1\n      0x01\n      add\n      swap2\n      pop\n      pop\n        /* \"moonx/moonx.sol\":6058:6275  for (uint256 i = 0; i < quizzes.length; i++) {... */\n      jump(tag_222)\n    tag_223:\n      pop\n        /* \"moonx/moonx.sol\":6289:6295  passed */\n      dup1\n        /* \"moonx/moonx.sol\":6285:6745  if (passed) {... */\n      iszero\n      tag_233\n      jumpi\n        /* \"moonx/moonx.sol\":6334:6338  true */\n      0x01\n        /* \"moonx/moonx.sol\":6311:6321  enrollment */\n      dup4\n        /* \"moonx/moonx.sol\":6311:6331  enrollment.hasPassed */\n      0x00\n      add\n      0x02\n        /* \"moonx/moonx.sol\":6311:6338  enrollment.hasPassed = true */\n      0x0100\n      exp\n      dup2\n      sload\n      dup2\n      0xff\n      mul\n      not\n      and\n      swap1\n      dup4\n      iszero\n      iszero\n      mul\n      or\n      swap1\n      sstore\n      pop\n        /* \"moonx/moonx.sol\":6352:6359  courses */\n      0x04\n        /* \"moonx/moonx.sol\":6352:6370  courses[_courseId] */\n      0x00\n        /* \"moonx/moonx.sol\":6360:6369  _courseId */\n      dup8\n        /* \"moonx/moonx.sol\":6352:6370  courses[_courseId] */\n      dup2\n      mstore\n      0x20\n      add\n      swap1\n      dup2\n      mstore\n      0x20\n      add\n      0x00\n      keccak256\n        /* \"moonx/moonx.sol\":6352:6385  courses[_courseId].passedStudents */\n      0x03\n      add\n      0x00\n        /* \"moonx/moonx.sol\":6352:6387  courses[_courseId].passedStudents++ */\n      dup2\n      sload\n      dup1\n      swap3\n      swap2\n      swap1\n      tag_234\n      swap1\n      tag_235\n      jump\t// in\n    tag_234:\n      swap2\n      swap1\n      pop\n      sstore\n      pop\n        /* \"moonx/moonx.sol\":525:533  10 ether */\n      0x8ac7230489e80000\n        /* \"moonx/moonx.sol\":6401:6408  courses */\n      0x04\n        /* \"moonx/moonx.sol\":6401:6419  courses[_courseId] */\n      0x00\n        /* \"moonx/moonx.sol\":6409:6418  _courseId */\n      dup9\n        /* \"moonx/moonx.sol\":6401:6419  courses[_courseId] */\n      dup2\n      mstore\n      0x20\n      add\n      swap1\n      dup2\n      mstore\n      0x20\n      add\n      0x00\n      keccak256\n        /* \"moonx/moonx.sol\":6401:6433  courses[_courseId].totalRewarded */\n      0x04\n      add\n      0x00\n        /* \"moonx/moonx.sol\":6401:6458  courses[_courseId].totalRewarded += STUDENT_REWARD_AMOUNT */\n      dup3\n      dup3\n      sload\n      tag_236\n      swap2\n      swap1\n      tag_148\n      jump\t// in\n    tag_236:\n      swap3\n      pop\n      pop\n      dup2\n      swap1\n      sstore\n      pop\n        /* \"moonx/moonx.sol\":6526:6538  bool success */\n      0x00\n        /* \"moonx/moonx.sol\":6552:6562  msg.sender */\n      caller\n        /* \"moonx/moonx.sol\":6544:6568  payable(msg.sender).call */\n      0xffffffffffffffffffffffffffffffffffffffff\n      and\n        /* \"moonx/moonx.sol\":525:533  10 ether */\n      0x8ac7230489e80000\n        /* \"moonx/moonx.sol\":6544:6602  payable(msg.sender).call{value: STUDENT_REWARD_AMOUNT}(\"\") */\n      mload(0x40)\n      tag_237\n      swap1\n      tag_154\n      jump\t// in\n    tag_237:\n      0x00\n      mload(0x40)\n      dup1\n      dup4\n      sub\n      dup2\n      dup6\n      dup8\n      gas\n      call\n      swap3\n      pop\n      pop\n      pop\n      returndatasize\n      dup1\n      0x00\n      dup2\n      eq\n      tag_240\n      jumpi\n      mload(0x40)\n      swap2\n      pop\n      and(add(returndatasize, 0x3f), not(0x1f))\n      dup3\n      add\n      0x40\n      mstore\n      returndatasize\n      dup3\n      mstore\n      returndatasize\n      0x00\n      0x20\n      dup5\n      add\n      returndatacopy\n      jump(tag_239)\n    tag_240:\n      0x60\n      swap2\n      pop\n    tag_239:\n      pop\n        /* \"moonx/moonx.sol\":6525:6602  (bool success, ) = payable(msg.sender).call{value: STUDENT_REWARD_AMOUNT}(\"\") */\n      pop\n      swap1\n      pop\n        /* \"moonx/moonx.sol\":6624:6631  success */\n      dup1\n        /* \"moonx/moonx.sol\":6616:6655  require(success, \"Failed to send MAND\") */\n      tag_241\n      jumpi\n      mload(0x40)\n      0x08c379a000000000000000000000000000000000000000000000000000000000\n      dup2\n      mstore\n      0x04\n      add\n      tag_242\n      swap1\n      tag_243\n      jump\t// in\n    tag_242:\n      mload(0x40)\n      dup1\n      swap2\n      sub\n      swap1\n      revert\n    tag_241:\n        /* \"moonx/moonx.sol\":6700:6710  msg.sender */\n      caller\n        /* \"moonx/moonx.sol\":6675:6734  RewardClaimed(_courseId, msg.sender, STUDENT_REWARD_AMOUNT) */\n      0xffffffffffffffffffffffffffffffffffffffff\n      and\n        /* \"moonx/moonx.sol\":6689:6698  _courseId */\n      dup8\n        /* \"moonx/moonx.sol\":6675:6734  RewardClaimed(_courseId, msg.sender, STUDENT_REWARD_AMOUNT) */\n      0x24b5efa61dd1cfc659205a97fb8ed868f3cb8c81922bab2b96423e5de1de2cb7\n        /* \"moonx/moonx.sol\":525:533  10 ether */\n      0x8ac7230489e80000\n        /* \"moonx/moonx.sol\":6675:6734  RewardClaimed(_courseId, msg.sender, STUDENT_REWARD_AMOUNT) */\n      mload(0x40)\n      tag_244\n      swap2\n      swap1\n      tag_48\n      jump\t// in\n    tag_244:\n      mload(0x40)\n      dup1\n      swap2\n      sub\n      swap1\n      log3\n        /* \"moonx/moonx.sol\":6297:6745  {... */\n      pop\n        /* \"moonx/moonx.sol\":6285:6745  if (passed) {... */\n    tag_233:\n        /* \"moonx/moonx.sol\":6785:6795  msg.sender */\n      caller\n        /* \"moonx/moonx.sol\":6760:6804  QuizAttempted(_courseId, msg.sender, passed) */\n      0xffffffffffffffffffffffffffffffffffffffff\n      and\n        /* \"moonx/moonx.sol\":6774:6783  _courseId */\n      dup7\n        /* \"moonx/moonx.sol\":6760:6804  QuizAttempted(_courseId, msg.sender, passed) */\n      0xaee8895c1bf669485cee2dd54d1eee9e65b02a244afb6f798f95d72405cdf7a5\n        /* \"moonx/moonx.sol\":6797:6803  passed */\n      dup4\n        /* \"moonx/moonx.sol\":6760:6804  QuizAttempted(_courseId, msg.sender, passed) */\n      mload(0x40)\n      tag_245\n      swap2\n      swap1\n      tag_64\n      jump\t// in\n    tag_245:\n      mload(0x40)\n      dup1\n      swap2\n      sub\n      swap1\n      log3\n        /* \"moonx/moonx.sol\":5542:6811  {... */\n      pop\n      pop\n      pop\n        /* \"moonx/moonx.sol\":2438:2696  {... */\n      pop\n        /* \"moonx/moonx.sol\":5441:6811  function attemptQuiz(uint256 _courseId, string[] memory _answers) external payable COLLECTPLATFORMTX {... */\n      pop\n      pop\n      jump\t// out\n        /* \"moonx/moonx.sol\":4907:5434  function enrollInCourse(uint256 _courseId) external payable whenNotPaused COLLECTPLATFORMTX {... */\n    tag_72:\n        /* \"@openzeppelin/contracts/security/Pausable.sol\":1239:1258  _requireNotPaused() */\n      tag_247\n        /* \"@openzeppelin/contracts/security/Pausable.sol\":1239:1256  _requireNotPaused */\n      tag_248\n        /* \"@openzeppelin/contracts/security/Pausable.sol\":1239:1258  _requireNotPaused() */\n      jump\t// in\n    tag_247:\n        /* \"moonx/moonx.sol\":638:648  0.75 ether */\n      0x0a688906bd8b0000\n        /* \"moonx/moonx.sol\":2456:2465  msg.value */\n      callvalue\n        /* \"moonx/moonx.sol\":2456:2479  msg.value >= PLATFORMTX */\n      lt\n      iszero\n        /* \"moonx/moonx.sol\":2448:2504  require(msg.value >= PLATFORMTX, \"Insufficient gas fee\") */\n      tag_250\n      jumpi\n      mload(0x40)\n      0x08c379a000000000000000000000000000000000000000000000000000000000\n      dup2\n      mstore\n      0x04\n      add\n      tag_251\n      swap1\n      tag_171\n      jump\t// in\n    tag_251:\n      mload(0x40)\n      dup1\n      swap2\n      sub\n      swap1\n      revert\n    tag_250:\n        /* \"moonx/moonx.sol\":638:648  0.75 ether */\n      0x0a688906bd8b0000\n        /* \"moonx/moonx.sol\":2514:2529  accumulatedFees */\n      0x03\n      0x00\n        /* \"moonx/moonx.sol\":2514:2543  accumulatedFees += PLATFORMTX */\n      dup3\n      dup3\n      sload\n      tag_252\n      swap2\n      swap1\n      tag_148\n      jump\t// in\n    tag_252:\n      swap3\n      pop\n      pop\n      dup2\n      swap1\n      sstore\n      pop\n        /* \"moonx/moonx.sol\":2553:2567  uint256 excess */\n      0x00\n        /* \"moonx/moonx.sol\":638:648  0.75 ether */\n      0x0a688906bd8b0000\n        /* \"moonx/moonx.sol\":2570:2579  msg.value */\n      callvalue\n        /* \"moonx/moonx.sol\":2570:2592  msg.value - PLATFORMTX */\n      tag_253\n      swap2\n      swap1\n      tag_174\n      jump\t// in\n    tag_253:\n        /* \"moonx/moonx.sol\":2553:2592  uint256 excess = msg.value - PLATFORMTX */\n      swap1\n      pop\n        /* \"moonx/moonx.sol\":2615:2616  0 */\n      0x00\n        /* \"moonx/moonx.sol\":2606:2612  excess */\n      dup2\n        /* \"moonx/moonx.sol\":2606:2616  excess > 0 */\n      gt\n        /* \"moonx/moonx.sol\":2602:2679  if (excess > 0) {... */\n      iszero\n      tag_254\n      jumpi\n        /* \"moonx/moonx.sol\":2640:2650  msg.sender */\n      caller\n        /* \"moonx/moonx.sol\":2632:2660  payable(msg.sender).transfer */\n      0xffffffffffffffffffffffffffffffffffffffff\n      and\n        /* \"moonx/moonx.sol\":2632:2668  payable(msg.sender).transfer(excess) */\n      0x08fc\n        /* \"moonx/moonx.sol\":2661:2667  excess */\n      dup3\n        /* \"moonx/moonx.sol\":2632:2668  payable(msg.sender).transfer(excess) */\n      swap1\n      dup2\n      iszero\n      mul\n      swap1\n      mload(0x40)\n      0x00\n      mload(0x40)\n      dup1\n      dup4\n      sub\n      dup2\n      dup6\n      dup9\n      dup9\n      call\n      swap4\n      pop\n      pop\n      pop\n      pop\n      iszero\n      dup1\n      iszero\n      tag_256\n      jumpi\n      returndatasize\n      0x00\n      dup1\n      returndatacopy\n      revert(0x00, returndatasize)\n    tag_256:\n      pop\n        /* \"moonx/moonx.sol\":2602:2679  if (excess > 0) {... */\n    tag_254:\n        /* \"moonx/moonx.sol\":422:423  1 */\n      0x01\n        /* \"moonx/moonx.sol\":5017:5035  reputationContract */\n      dup1\n      0x00\n      swap1\n      sload\n      swap1\n      0x0100\n      exp\n      swap1\n      div\n      0xffffffffffffffffffffffffffffffffffffffff\n      and\n        /* \"moonx/moonx.sol\":5017:5046  reputationContract.reputation */\n      0xffffffffffffffffffffffffffffffffffffffff\n      and\n      0xb9f79451\n        /* \"moonx/moonx.sol\":5047:5057  msg.sender */\n      caller\n        /* \"moonx/moonx.sol\":5017:5058  reputationContract.reputation(msg.sender) */\n      mload(0x40)\n      dup3\n      0xffffffff\n      and\n      0xe0\n      shl\n      dup2\n      mstore\n      0x04\n      add\n      tag_258\n      swap2\n      swap1\n      tag_100\n      jump\t// in\n    tag_258:\n      0x20\n      mload(0x40)\n      dup1\n      dup4\n      sub\n      dup2\n      dup7\n      gas\n      staticcall\n      iszero\n      dup1\n      iszero\n      tag_260\n      jumpi\n      returndatasize\n      0x00\n      dup1\n      returndatacopy\n      revert(0x00, returndatasize)\n    tag_260:\n      pop\n      pop\n      pop\n      pop\n      mload(0x40)\n      returndatasize\n      not(0x1f)\n      0x1f\n      dup3\n      add\n      and\n      dup3\n      add\n      dup1\n      0x40\n      mstore\n      pop\n      dup2\n      add\n      swap1\n      tag_261\n      swap2\n      swap1\n      tag_262\n      jump\t// in\n    tag_261:\n        /* \"moonx/moonx.sol\":5017:5078  reputationContract.reputation(msg.sender) >= ENROLL_THRESHOLD */\n      lt\n      iszero\n        /* \"moonx/moonx.sol\":5009:5116  require(reputationContract.reputation(msg.sender) >= ENROLL_THRESHOLD, \"Insufficient reputation to enroll\") */\n      tag_263\n      jumpi\n      mload(0x40)\n      0x08c379a000000000000000000000000000000000000000000000000000000000\n      dup2\n      mstore\n      0x04\n      add\n      tag_264\n      swap1\n      tag_265\n      jump\t// in\n    tag_264:\n      mload(0x40)\n      dup1\n      swap2\n      sub\n      swap1\n      revert\n    tag_263:\n        /* \"moonx/moonx.sol\":5134:5141  courses */\n      0x04\n        /* \"moonx/moonx.sol\":5134:5152  courses[_courseId] */\n      0x00\n        /* \"moonx/moonx.sol\":5142:5151  _courseId */\n      dup4\n        /* \"moonx/moonx.sol\":5134:5152  courses[_courseId] */\n      dup2\n      mstore\n      0x20\n      add\n      swap1\n      dup2\n      mstore\n      0x20\n      add\n      0x00\n      keccak256\n        /* \"moonx/moonx.sol\":5134:5161  courses[_courseId].approved */\n      0x02\n      add\n      0x00\n      swap1\n      sload\n      swap1\n      0x0100\n      exp\n      swap1\n      div\n      0xff\n      and\n        /* \"moonx/moonx.sol\":5126:5185  require(courses[_courseId].approved, \"Course not approved\") */\n      tag_266\n      jumpi\n      mload(0x40)\n      0x08c379a000000000000000000000000000000000000000000000000000000000\n      dup2\n      mstore\n      0x04\n      add\n      tag_267\n      swap1\n      tag_268\n      jump\t// in\n    tag_267:\n      mload(0x40)\n      dup1\n      swap2\n      sub\n      swap1\n      revert\n    tag_266:\n        /* \"moonx/moonx.sol\":5204:5215  enrollments */\n      0x05\n        /* \"moonx/moonx.sol\":5204:5227  enrollments[msg.sender] */\n      0x00\n        /* \"moonx/moonx.sol\":5216:5226  msg.sender */\n      caller\n        /* \"moonx/moonx.sol\":5204:5227  enrollments[msg.sender] */\n      0xffffffffffffffffffffffffffffffffffffffff\n      and\n      0xffffffffffffffffffffffffffffffffffffffff\n      and\n      dup2\n      mstore\n      0x20\n      add\n      swap1\n      dup2\n      mstore\n      0x20\n      add\n      0x00\n      keccak256\n        /* \"moonx/moonx.sol\":5204:5238  enrollments[msg.sender][_courseId] */\n      0x00\n        /* \"moonx/moonx.sol\":5228:5237  _courseId */\n      dup4\n        /* \"moonx/moonx.sol\":5204:5238  enrollments[msg.sender][_courseId] */\n      dup2\n      mstore\n      0x20\n      add\n      swap1\n      dup2\n      mstore\n      0x20\n      add\n      0x00\n      keccak256\n        /* \"moonx/moonx.sol\":5204:5249  enrollments[msg.sender][_courseId].isEnrolled */\n      0x00\n      add\n      0x00\n      swap1\n      sload\n      swap1\n      0x0100\n      exp\n      swap1\n      div\n      0xff\n      and\n        /* \"moonx/moonx.sol\":5203:5249  !enrollments[msg.sender][_courseId].isEnrolled */\n      iszero\n        /* \"moonx/moonx.sol\":5195:5270  require(!enrollments[msg.sender][_courseId].isEnrolled, \"Already enrolled\") */\n      tag_269\n      jumpi\n      mload(0x40)\n      0x08c379a000000000000000000000000000000000000000000000000000000000\n      dup2\n      mstore\n      0x04\n      add\n      tag_270\n      swap1\n      tag_271\n      jump\t// in\n    tag_270:\n      mload(0x40)\n      dup1\n      swap2\n      sub\n      swap1\n      revert\n    tag_269:\n        /* \"moonx/moonx.sol\":5329:5333  true */\n      0x01\n        /* \"moonx/moonx.sol\":5281:5292  enrollments */\n      0x05\n        /* \"moonx/moonx.sol\":5281:5304  enrollments[msg.sender] */\n      0x00\n        /* \"moonx/moonx.sol\":5293:5303  msg.sender */\n      caller\n        /* \"moonx/moonx.sol\":5281:5304  enrollments[msg.sender] */\n      0xffffffffffffffffffffffffffffffffffffffff\n      and\n      0xffffffffffffffffffffffffffffffffffffffff\n      and\n      dup2\n      mstore\n      0x20\n      add\n      swap1\n      dup2\n      mstore\n      0x20\n      add\n      0x00\n      keccak256\n        /* \"moonx/moonx.sol\":5281:5315  enrollments[msg.sender][_courseId] */\n      0x00\n        /* \"moonx/moonx.sol\":5305:5314  _courseId */\n      dup5\n        /* \"moonx/moonx.sol\":5281:5315  enrollments[msg.sender][_courseId] */\n      dup2\n      mstore\n      0x20\n      add\n      swap1\n      dup2\n      mstore\n      0x20\n      add\n      0x00\n      keccak256\n        /* \"moonx/moonx.sol\":5281:5326  enrollments[msg.sender][_courseId].isEnrolled */\n      0x00\n      add\n      0x00\n        /* \"moonx/moonx.sol\":5281:5333  enrollments[msg.sender][_courseId].isEnrolled = true */\n      0x0100\n      exp\n      dup2\n      sload\n      dup2\n      0xff\n      mul\n      not\n      and\n      swap1\n      dup4\n      iszero\n      iszero\n      mul\n      or\n      swap1\n      sstore\n      pop\n        /* \"moonx/moonx.sol\":5343:5350  courses */\n      0x04\n        /* \"moonx/moonx.sol\":5343:5361  courses[_courseId] */\n      0x00\n        /* \"moonx/moonx.sol\":5351:5360  _courseId */\n      dup4\n        /* \"moonx/moonx.sol\":5343:5361  courses[_courseId] */\n      dup2\n      mstore\n      0x20\n      add\n      swap1\n      dup2\n      mstore\n      0x20\n      add\n      0x00\n      keccak256\n        /* \"moonx/moonx.sol\":5343:5375  courses[_courseId].totalEnrolled */\n      0x05\n      add\n      0x00\n        /* \"moonx/moonx.sol\":5343:5377  courses[_courseId].totalEnrolled++ */\n      dup2\n      sload\n      dup1\n      swap3\n      swap2\n      swap1\n      tag_272\n      swap1\n      tag_235\n      jump\t// in\n    tag_272:\n      swap2\n      swap1\n      pop\n      sstore\n      pop\n        /* \"moonx/moonx.sol\":5416:5426  msg.sender */\n      caller\n        /* \"moonx/moonx.sol\":5392:5427  UserEnrolled(_courseId, msg.sender) */\n      0xffffffffffffffffffffffffffffffffffffffff\n      and\n        /* \"moonx/moonx.sol\":5405:5414  _courseId */\n      dup3\n        /* \"moonx/moonx.sol\":5392:5427  UserEnrolled(_courseId, msg.sender) */\n      0xfacf1a2842acbad124cbca0a047fe37bc246c68f814e0350c7bd8a022fd1dddb\n      mload(0x40)\n      mload(0x40)\n      dup1\n      swap2\n      sub\n      swap1\n      log3\n        /* \"moonx/moonx.sol\":2438:2696  {... */\n      pop\n        /* \"moonx/moonx.sol\":4907:5434  function enrollInCourse(uint256 _courseId) external payable whenNotPaused COLLECTPLATFORMTX {... */\n      pop\n      jump\t// out\n        /* \"moonx/moonx.sol\":1604:1630  uint256 public courseCount */\n    tag_75:\n      sload(0x07)\n      dup2\n      jump\t// out\n        /* \"@openzeppelin/contracts/access/Ownable.sol\":2293:2394  function renounceOwnership() public virtual onlyOwner {... */\n    tag_79:\n        /* \"@openzeppelin/contracts/access/Ownable.sol\":1531:1544  _checkOwner() */\n      tag_274\n        /* \"@openzeppelin/contracts/access/Ownable.sol\":1531:1542  _checkOwner */\n      tag_145\n        /* \"@openzeppelin/contracts/access/Ownable.sol\":1531:1544  _checkOwner() */\n      jump\t// in\n    tag_274:\n        /* \"@openzeppelin/contracts/access/Ownable.sol\":2357:2387  _transferOwnership(address(0)) */\n      tag_276\n        /* \"@openzeppelin/contracts/access/Ownable.sol\":2384:2385  0 */\n      0x00\n        /* \"@openzeppelin/contracts/access/Ownable.sol\":2357:2375  _transferOwnership */\n      tag_277\n        /* \"@openzeppelin/contracts/access/Ownable.sol\":2357:2387  _transferOwnership(address(0)) */\n      jump\t// in\n    tag_276:\n        /* \"@openzeppelin/contracts/access/Ownable.sol\":2293:2394  function renounceOwnership() public virtual onlyOwner {... */\n      jump\t// out\n        /* \"moonx/moonx.sol\":4675:4901  function approveCourse(uint256 _courseId) external onlyOwner {... */\n    tag_83:\n        /* \"@openzeppelin/contracts/access/Ownable.sol\":1531:1544  _checkOwner() */\n      tag_279\n        /* \"@openzeppelin/contracts/access/Ownable.sol\":1531:1542  _checkOwner */\n      tag_145\n        /* \"@openzeppelin/contracts/access/Ownable.sol\":1531:1544  _checkOwner() */\n      jump\t// in\n    tag_279:\n        /* \"moonx/moonx.sol\":4755:4762  courses */\n      0x04\n        /* \"moonx/moonx.sol\":4755:4773  courses[_courseId] */\n      0x00\n        /* \"moonx/moonx.sol\":4763:4772  _courseId */\n      dup3\n        /* \"moonx/moonx.sol\":4755:4773  courses[_courseId] */\n      dup2\n      mstore\n      0x20\n      add\n      swap1\n      dup2\n      mstore\n      0x20\n      add\n      0x00\n      keccak256\n        /* \"moonx/moonx.sol\":4755:4782  courses[_courseId].approved */\n      0x02\n      add\n      0x00\n      swap1\n      sload\n      swap1\n      0x0100\n      exp\n      swap1\n      div\n      0xff\n      and\n        /* \"moonx/moonx.sol\":4754:4782  !courses[_courseId].approved */\n      iszero\n        /* \"moonx/moonx.sol\":4746:4810  require(!courses[_courseId].approved, \"Course already approved\") */\n      tag_281\n      jumpi\n      mload(0x40)\n      0x08c379a000000000000000000000000000000000000000000000000000000000\n      dup2\n      mstore\n      0x04\n      add\n      tag_282\n      swap1\n      tag_283\n      jump\t// in\n    tag_282:\n      mload(0x40)\n      dup1\n      swap2\n      sub\n      swap1\n      revert\n    tag_281:\n        /* \"moonx/moonx.sol\":4850:4854  true */\n      0x01\n        /* \"moonx/moonx.sol\":4820:4827  courses */\n      0x04\n        /* \"moonx/moonx.sol\":4820:4838  courses[_courseId] */\n      0x00\n        /* \"moonx/moonx.sol\":4828:4837  _courseId */\n      dup4\n        /* \"moonx/moonx.sol\":4820:4838  courses[_courseId] */\n      dup2\n      mstore\n      0x20\n      add\n      swap1\n      dup2\n      mstore\n      0x20\n      add\n      0x00\n      keccak256\n        /* \"moonx/moonx.sol\":4820:4847  courses[_courseId].approved */\n      0x02\n      add\n      0x00\n        /* \"moonx/moonx.sol\":4820:4854  courses[_courseId].approved = true */\n      0x0100\n      exp\n      dup2\n      sload\n      dup2\n      0xff\n      mul\n      not\n      and\n      swap1\n      dup4\n      iszero\n      iszero\n      mul\n      or\n      swap1\n      sstore\n      pop\n        /* \"moonx/moonx.sol\":4884:4893  _courseId */\n      dup1\n        /* \"moonx/moonx.sol\":4869:4894  CourseApproved(_courseId) */\n      0x87c1c0e5cd17beb8c61a3337b32c66021cb179dd6f97d6d9ce923a029092bd45\n      mload(0x40)\n      mload(0x40)\n      dup1\n      swap2\n      sub\n      swap1\n      log2\n        /* \"moonx/moonx.sol\":4675:4901  function approveCourse(uint256 _courseId) external onlyOwner {... */\n      pop\n      jump\t// out\n        /* \"moonx/moonx.sol\":2701:4669  function createCourse(... */\n    tag_87:\n        /* \"@openzeppelin/contracts/security/Pausable.sol\":1239:1258  _requireNotPaused() */\n      tag_285\n        /* \"@openzeppelin/contracts/security/Pausable.sol\":1239:1256  _requireNotPaused */\n      tag_248\n        /* \"@openzeppelin/contracts/security/Pausable.sol\":1239:1258  _requireNotPaused() */\n      jump\t// in\n    tag_285:\n        /* \"moonx/moonx.sol\":638:648  0.75 ether */\n      0x0a688906bd8b0000\n        /* \"moonx/moonx.sol\":2456:2465  msg.value */\n      callvalue\n        /* \"moonx/moonx.sol\":2456:2479  msg.value >= PLATFORMTX */\n      lt\n      iszero\n        /* \"moonx/moonx.sol\":2448:2504  require(msg.value >= PLATFORMTX, \"Insufficient gas fee\") */\n      tag_287\n      jumpi\n      mload(0x40)\n      0x08c379a000000000000000000000000000000000000000000000000000000000\n      dup2\n      mstore\n      0x04\n      add\n      tag_288\n      swap1\n      tag_171\n      jump\t// in\n    tag_288:\n      mload(0x40)\n      dup1\n      swap2\n      sub\n      swap1\n      revert\n    tag_287:\n        /* \"moonx/moonx.sol\":638:648  0.75 ether */\n      0x0a688906bd8b0000\n        /* \"moonx/moonx.sol\":2514:2529  accumulatedFees */\n      0x03\n      0x00\n        /* \"moonx/moonx.sol\":2514:2543  accumulatedFees += PLATFORMTX */\n      dup3\n      dup3\n      sload\n      tag_289\n      swap2\n      swap1\n      tag_148\n      jump\t// in\n    tag_289:\n      swap3\n      pop\n      pop\n      dup2\n      swap1\n      sstore\n      pop\n        /* \"moonx/moonx.sol\":2553:2567  uint256 excess */\n      0x00\n        /* \"moonx/moonx.sol\":638:648  0.75 ether */\n      0x0a688906bd8b0000\n        /* \"moonx/moonx.sol\":2570:2579  msg.value */\n      callvalue\n        /* \"moonx/moonx.sol\":2570:2592  msg.value - PLATFORMTX */\n      tag_290\n      swap2\n      swap1\n      tag_174\n      jump\t// in\n    tag_290:\n        /* \"moonx/moonx.sol\":2553:2592  uint256 excess = msg.value - PLATFORMTX */\n      swap1\n      pop\n        /* \"moonx/moonx.sol\":2615:2616  0 */\n      0x00\n        /* \"moonx/moonx.sol\":2606:2612  excess */\n      dup2\n        /* \"moonx/moonx.sol\":2606:2616  excess > 0 */\n      gt\n        /* \"moonx/moonx.sol\":2602:2679  if (excess > 0) {... */\n      iszero\n      tag_291\n      jumpi\n        /* \"moonx/moonx.sol\":2640:2650  msg.sender */\n      caller\n        /* \"moonx/moonx.sol\":2632:2660  payable(msg.sender).transfer */\n      0xffffffffffffffffffffffffffffffffffffffff\n      and\n        /* \"moonx/moonx.sol\":2632:2668  payable(msg.sender).transfer(excess) */\n      0x08fc\n        /* \"moonx/moonx.sol\":2661:2667  excess */\n      dup3\n        /* \"moonx/moonx.sol\":2632:2668  payable(msg.sender).transfer(excess) */\n      swap1\n      dup2\n      iszero\n      mul\n      swap1\n      mload(0x40)\n      0x00\n      mload(0x40)\n      dup1\n      dup4\n      sub\n      dup2\n      dup6\n      dup9\n      dup9\n      call\n      swap4\n      pop\n      pop\n      pop\n      pop\n      iszero\n      dup1\n      iszero\n      tag_293\n      jumpi\n      returndatasize\n      0x00\n      dup1\n      returndatacopy\n      revert(0x00, returndatasize)\n    tag_293:\n      pop\n        /* \"moonx/moonx.sol\":2602:2679  if (excess > 0) {... */\n    tag_291:\n        /* \"moonx/moonx.sol\":470:471  5 */\n      0x05\n        /* \"moonx/moonx.sol\":3049:3067  reputationContract */\n      0x01\n      0x00\n      swap1\n      sload\n      swap1\n      0x0100\n      exp\n      swap1\n      div\n      0xffffffffffffffffffffffffffffffffffffffff\n      and\n        /* \"moonx/moonx.sol\":3049:3078  reputationContract.reputation */\n      0xffffffffffffffffffffffffffffffffffffffff\n      and\n      0xb9f79451\n        /* \"moonx/moonx.sol\":3079:3089  msg.sender */\n      caller\n        /* \"moonx/moonx.sol\":3049:3090  reputationContract.reputation(msg.sender) */\n      mload(0x40)\n      dup3\n      0xffffffff\n      and\n      0xe0\n      shl\n      dup2\n      mstore\n      0x04\n      add\n      tag_295\n      swap2\n      swap1\n      tag_100\n      jump\t// in\n    tag_295:\n      0x20\n      mload(0x40)\n      dup1\n      dup4\n      sub\n      dup2\n      dup7\n      gas\n      staticcall\n      iszero\n      dup1\n      iszero\n      tag_297\n      jumpi\n      returndatasize\n      0x00\n      dup1\n      returndatacopy\n      revert(0x00, returndatasize)\n    tag_297:\n      pop\n      pop\n      pop\n      pop\n      mload(0x40)\n      returndatasize\n      not(0x1f)\n      0x1f\n      dup3\n      add\n      and\n      dup3\n      add\n      dup1\n      0x40\n      mstore\n      pop\n      dup2\n      add\n      swap1\n      tag_298\n      swap2\n      swap1\n      tag_262\n      jump\t// in\n    tag_298:\n        /* \"moonx/moonx.sol\":3049:3108  reputationContract.reputation(msg.sender) >= POST_THRESHOLD */\n      lt\n      iszero\n        /* \"moonx/moonx.sol\":3041:3153  require(reputationContract.reputation(msg.sender) >= POST_THRESHOLD, \"Insufficient reputation to create course\") */\n      tag_299\n      jumpi\n      mload(0x40)\n      0x08c379a000000000000000000000000000000000000000000000000000000000\n      dup2\n      mstore\n      0x04\n      add\n      tag_300\n      swap1\n      tag_301\n      jump\t// in\n    tag_300:\n      mload(0x40)\n      dup1\n      swap2\n      sub\n      swap1\n      revert\n    tag_299:\n        /* \"moonx/moonx.sol\":3192:3193  5 */\n      0x05\n        /* \"moonx/moonx.sol\":3171:3181  _questions */\n      dup8\n        /* \"moonx/moonx.sol\":3171:3188  _questions.length */\n      mload\n        /* \"moonx/moonx.sol\":3171:3193  _questions.length == 5 */\n      eq\n        /* \"moonx/moonx.sol\":3171:3234  _questions.length == 5 && _questions.length == _optionAs.length */\n      dup1\n      iszero\n      tag_302\n      jumpi\n      pop\n        /* \"moonx/moonx.sol\":3218:3227  _optionAs */\n      dup6\n        /* \"moonx/moonx.sol\":3218:3234  _optionAs.length */\n      mload\n        /* \"moonx/moonx.sol\":3197:3207  _questions */\n      dup8\n        /* \"moonx/moonx.sol\":3197:3214  _questions.length */\n      mload\n        /* \"moonx/moonx.sol\":3197:3234  _questions.length == _optionAs.length */\n      eq\n        /* \"moonx/moonx.sol\":3171:3234  _questions.length == 5 && _questions.length == _optionAs.length */\n    tag_302:\n        /* \"moonx/moonx.sol\":3171:3291  _questions.length == 5 && _questions.length == _optionAs.length &&... */\n      dup1\n      iszero\n      tag_303\n      jumpi\n      pop\n        /* \"moonx/moonx.sol\":3275:3284  _optionBs */\n      dup5\n        /* \"moonx/moonx.sol\":3275:3291  _optionBs.length */\n      mload\n        /* \"moonx/moonx.sol\":3254:3264  _questions */\n      dup8\n        /* \"moonx/moonx.sol\":3254:3271  _questions.length */\n      mload\n        /* \"moonx/moonx.sol\":3254:3291  _questions.length == _optionBs.length */\n      eq\n        /* \"moonx/moonx.sol\":3171:3291  _questions.length == 5 && _questions.length == _optionAs.length &&... */\n    tag_303:\n        /* \"moonx/moonx.sol\":3171:3332  _questions.length == 5 && _questions.length == _optionAs.length &&... */\n      dup1\n      iszero\n      tag_304\n      jumpi\n      pop\n        /* \"moonx/moonx.sol\":3316:3325  _optionCs */\n      dup4\n        /* \"moonx/moonx.sol\":3316:3332  _optionCs.length */\n      mload\n        /* \"moonx/moonx.sol\":3295:3305  _questions */\n      dup8\n        /* \"moonx/moonx.sol\":3295:3312  _questions.length */\n      mload\n        /* \"moonx/moonx.sol\":3295:3332  _questions.length == _optionCs.length */\n      eq\n        /* \"moonx/moonx.sol\":3171:3332  _questions.length == 5 && _questions.length == _optionAs.length &&... */\n    tag_304:\n        /* \"moonx/moonx.sol\":3171:3389  _questions.length == 5 && _questions.length == _optionAs.length &&... */\n      dup1\n      iszero\n      tag_305\n      jumpi\n      pop\n        /* \"moonx/moonx.sol\":3373:3382  _optionDs */\n      dup3\n        /* \"moonx/moonx.sol\":3373:3389  _optionDs.length */\n      mload\n        /* \"moonx/moonx.sol\":3352:3362  _questions */\n      dup8\n        /* \"moonx/moonx.sol\":3352:3369  _questions.length */\n      mload\n        /* \"moonx/moonx.sol\":3352:3389  _questions.length == _optionDs.length */\n      eq\n        /* \"moonx/moonx.sol\":3171:3389  _questions.length == 5 && _questions.length == _optionAs.length &&... */\n    tag_305:\n        /* \"moonx/moonx.sol\":3171:3436  _questions.length == 5 && _questions.length == _optionAs.length &&... */\n      dup1\n      iszero\n      tag_306\n      jumpi\n      pop\n        /* \"moonx/moonx.sol\":3414:3429  _correctAnswers */\n      dup2\n        /* \"moonx/moonx.sol\":3414:3436  _correctAnswers.length */\n      mload\n        /* \"moonx/moonx.sol\":3393:3403  _questions */\n      dup8\n        /* \"moonx/moonx.sol\":3393:3410  _questions.length */\n      mload\n        /* \"moonx/moonx.sol\":3393:3436  _questions.length == _correctAnswers.length */\n      eq\n        /* \"moonx/moonx.sol\":3171:3436  _questions.length == 5 && _questions.length == _optionAs.length &&... */\n    tag_306:\n        /* \"moonx/moonx.sol\":3163:3475  require(_questions.length == 5 && _questions.length == _optionAs.length &&... */\n      tag_307\n      jumpi\n      mload(0x40)\n      0x08c379a000000000000000000000000000000000000000000000000000000000\n      dup2\n      mstore\n      0x04\n      add\n      tag_308\n      swap1\n      tag_309\n      jump\t// in\n    tag_308:\n      mload(0x40)\n      dup1\n      swap2\n      sub\n      swap1\n      revert\n    tag_307:\n        /* \"moonx/moonx.sol\":3486:3502  uint256 courseId */\n      0x00\n        /* \"moonx/moonx.sol\":3505:3516  courseCount */\n      0x07\n      0x00\n        /* \"moonx/moonx.sol\":3505:3518  courseCount++ */\n      dup2\n      sload\n      dup1\n      swap3\n      swap2\n      swap1\n      tag_310\n      swap1\n      tag_235\n      jump\t// in\n    tag_310:\n      swap2\n      swap1\n      pop\n      sstore\n        /* \"moonx/moonx.sol\":3486:3518  uint256 courseId = courseCount++ */\n      swap1\n      pop\n        /* \"moonx/moonx.sol\":3548:3596  Course(msg.sender, _metadataURI, false, 0, 0, 0) */\n      mload(0x40)\n      dup1\n      0xc0\n      add\n      0x40\n      mstore\n      dup1\n        /* \"moonx/moonx.sol\":3555:3565  msg.sender */\n      caller\n        /* \"moonx/moonx.sol\":3548:3596  Course(msg.sender, _metadataURI, false, 0, 0, 0) */\n      0xffffffffffffffffffffffffffffffffffffffff\n      and\n      dup2\n      mstore\n      0x20\n      add\n        /* \"moonx/moonx.sol\":3567:3579  _metadataURI */\n      dup11\n        /* \"moonx/moonx.sol\":3548:3596  Course(msg.sender, _metadataURI, false, 0, 0, 0) */\n      dup2\n      mstore\n      0x20\n      add\n        /* \"moonx/moonx.sol\":3581:3586  false */\n      0x00\n        /* \"moonx/moonx.sol\":3548:3596  Course(msg.sender, _metadataURI, false, 0, 0, 0) */\n      iszero\n      iszero\n      dup2\n      mstore\n      0x20\n      add\n        /* \"moonx/moonx.sol\":3588:3589  0 */\n      0x00\n        /* \"moonx/moonx.sol\":3548:3596  Course(msg.sender, _metadataURI, false, 0, 0, 0) */\n      dup2\n      mstore\n      0x20\n      add\n        /* \"moonx/moonx.sol\":3591:3592  0 */\n      0x00\n        /* \"moonx/moonx.sol\":3548:3596  Course(msg.sender, _metadataURI, false, 0, 0, 0) */\n      dup2\n      mstore\n      0x20\n      add\n        /* \"moonx/moonx.sol\":3594:3595  0 */\n      0x00\n        /* \"moonx/moonx.sol\":3548:3596  Course(msg.sender, _metadataURI, false, 0, 0, 0) */\n      dup2\n      mstore\n      pop\n        /* \"moonx/moonx.sol\":3528:3535  courses */\n      0x04\n        /* \"moonx/moonx.sol\":3528:3545  courses[courseId] */\n      0x00\n        /* \"moonx/moonx.sol\":3536:3544  courseId */\n      dup4\n        /* \"moonx/moonx.sol\":3528:3545  courses[courseId] */\n      dup2\n      mstore\n      0x20\n      add\n      swap1\n      dup2\n      mstore\n      0x20\n      add\n      0x00\n      keccak256\n        /* \"moonx/moonx.sol\":3528:3596  courses[courseId] = Course(msg.sender, _metadataURI, false, 0, 0, 0) */\n      0x00\n      dup3\n      add\n      mload\n      dup2\n      0x00\n      add\n      exp(0x0100, 0x00)\n      dup2\n      sload\n      dup2\n      0xffffffffffffffffffffffffffffffffffffffff\n      mul\n      not\n      and\n      swap1\n      dup4\n      0xffffffffffffffffffffffffffffffffffffffff\n      and\n      mul\n      or\n      swap1\n      sstore\n      pop\n      0x20\n      dup3\n      add\n      mload\n      dup2\n      0x01\n      add\n      swap1\n      dup2\n      tag_311\n      swap2\n      swap1\n      tag_312\n      jump\t// in\n    tag_311:\n      pop\n      0x40\n      dup3\n      add\n      mload\n      dup2\n      0x02\n      add\n      exp(0x0100, 0x00)\n      dup2\n      sload\n      dup2\n      0xff\n      mul\n      not\n      and\n      swap1\n      dup4\n      iszero\n      iszero\n      mul\n      or\n      swap1\n      sstore\n      pop\n      0x60\n      dup3\n      add\n      mload\n      dup2\n      0x03\n      add\n      sstore\n      0x80\n      dup3\n      add\n      mload\n      dup2\n      0x04\n      add\n      sstore\n      0xa0\n      dup3\n      add\n      mload\n      dup2\n      0x05\n      add\n      sstore\n      swap1\n      pop\n      pop\n        /* \"moonx/moonx.sol\":3645:3654  uint256 i */\n      0x00\n        /* \"moonx/moonx.sol\":3640:4612  for (uint256 i = 0; i < _questions.length; i++) {... */\n    tag_313:\n        /* \"moonx/moonx.sol\":3664:3674  _questions */\n      dup9\n        /* \"moonx/moonx.sol\":3664:3681  _questions.length */\n      mload\n        /* \"moonx/moonx.sol\":3660:3661  i */\n      dup2\n        /* \"moonx/moonx.sol\":3660:3681  i < _questions.length */\n      lt\n        /* \"moonx/moonx.sol\":3640:4612  for (uint256 i = 0; i < _questions.length; i++) {... */\n      iszero\n      tag_314\n      jumpi\n        /* \"moonx/moonx.sol\":3788:3809  abi.encodePacked(\"A\") */\n      add(0x20, mload(0x40))\n      tag_316\n      swap1\n      tag_317\n      jump\t// in\n    tag_316:\n      mload(0x40)\n      0x20\n      dup2\n      dup4\n      sub\n      sub\n      dup2\n      mstore\n      swap1\n      0x40\n      mstore\n        /* \"moonx/moonx.sol\":3778:3810  keccak256(abi.encodePacked(\"A\")) */\n      dup1\n      mload\n      swap1\n      0x20\n      add\n      keccak256\n        /* \"moonx/moonx.sol\":3754:3769  _correctAnswers */\n      dup5\n        /* \"moonx/moonx.sol\":3770:3771  i */\n      dup3\n        /* \"moonx/moonx.sol\":3754:3772  _correctAnswers[i] */\n      dup2\n      mload\n      dup2\n      lt\n      tag_318\n      jumpi\n      tag_319\n      tag_227\n      jump\t// in\n    tag_319:\n    tag_318:\n      0x20\n      mul\n      0x20\n      add\n      add\n      mload\n        /* \"moonx/moonx.sol\":3737:3773  abi.encodePacked(_correctAnswers[i]) */\n      add(0x20, mload(0x40))\n      tag_320\n      swap2\n      swap1\n      tag_231\n      jump\t// in\n    tag_320:\n      mload(0x40)\n      0x20\n      dup2\n      dup4\n      sub\n      sub\n      dup2\n      mstore\n      swap1\n      0x40\n      mstore\n        /* \"moonx/moonx.sol\":3727:3774  keccak256(abi.encodePacked(_correctAnswers[i])) */\n      dup1\n      mload\n      swap1\n      0x20\n      add\n      keccak256\n        /* \"moonx/moonx.sol\":3727:3810  keccak256(abi.encodePacked(_correctAnswers[i])) == keccak256(abi.encodePacked(\"A\")) */\n      eq\n        /* \"moonx/moonx.sol\":3727:3913  keccak256(abi.encodePacked(_correctAnswers[i])) == keccak256(abi.encodePacked(\"A\")) ||... */\n      dup1\n      tag_321\n      jumpi\n      pop\n        /* \"moonx/moonx.sol\":3891:3912  abi.encodePacked(\"B\") */\n      add(0x20, mload(0x40))\n      tag_322\n      swap1\n      tag_323\n      jump\t// in\n    tag_322:\n      mload(0x40)\n      0x20\n      dup2\n      dup4\n      sub\n      sub\n      dup2\n      mstore\n      swap1\n      0x40\n      mstore\n        /* \"moonx/moonx.sol\":3881:3913  keccak256(abi.encodePacked(\"B\")) */\n      dup1\n      mload\n      swap1\n      0x20\n      add\n      keccak256\n        /* \"moonx/moonx.sol\":3857:3872  _correctAnswers */\n      dup5\n        /* \"moonx/moonx.sol\":3873:3874  i */\n      dup3\n        /* \"moonx/moonx.sol\":3857:3875  _correctAnswers[i] */\n      dup2\n      mload\n      dup2\n      lt\n      tag_324\n      jumpi\n      tag_325\n      tag_227\n      jump\t// in\n    tag_325:\n    tag_324:\n      0x20\n      mul\n      0x20\n      add\n      add\n      mload\n        /* \"moonx/moonx.sol\":3840:3876  abi.encodePacked(_correctAnswers[i]) */\n      add(0x20, mload(0x40))\n      tag_326\n      swap2\n      swap1\n      tag_231\n      jump\t// in\n    tag_326:\n      mload(0x40)\n      0x20\n      dup2\n      dup4\n      sub\n      sub\n      dup2\n      mstore\n      swap1\n      0x40\n      mstore\n        /* \"moonx/moonx.sol\":3830:3877  keccak256(abi.encodePacked(_correctAnswers[i])) */\n      dup1\n      mload\n      swap1\n      0x20\n      add\n      keccak256\n        /* \"moonx/moonx.sol\":3830:3913  keccak256(abi.encodePacked(_correctAnswers[i])) == keccak256(abi.encodePacked(\"B\")) */\n      eq\n        /* \"moonx/moonx.sol\":3727:3913  keccak256(abi.encodePacked(_correctAnswers[i])) == keccak256(abi.encodePacked(\"A\")) ||... */\n    tag_321:\n        /* \"moonx/moonx.sol\":3727:4016  keccak256(abi.encodePacked(_correctAnswers[i])) == keccak256(abi.encodePacked(\"A\")) ||... */\n      dup1\n      tag_327\n      jumpi\n      pop\n        /* \"moonx/moonx.sol\":3994:4015  abi.encodePacked(\"C\") */\n      add(0x20, mload(0x40))\n      tag_328\n      swap1\n      tag_329\n      jump\t// in\n    tag_328:\n      mload(0x40)\n      0x20\n      dup2\n      dup4\n      sub\n      sub\n      dup2\n      mstore\n      swap1\n      0x40\n      mstore\n        /* \"moonx/moonx.sol\":3984:4016  keccak256(abi.encodePacked(\"C\")) */\n      dup1\n      mload\n      swap1\n      0x20\n      add\n      keccak256\n        /* \"moonx/moonx.sol\":3960:3975  _correctAnswers */\n      dup5\n        /* \"moonx/moonx.sol\":3976:3977  i */\n      dup3\n        /* \"moonx/moonx.sol\":3960:3978  _correctAnswers[i] */\n      dup2\n      mload\n      dup2\n      lt\n      tag_330\n      jumpi\n      tag_331\n      tag_227\n      jump\t// in\n    tag_331:\n    tag_330:\n      0x20\n      mul\n      0x20\n      add\n      add\n      mload\n        /* \"moonx/moonx.sol\":3943:3979  abi.encodePacked(_correctAnswers[i]) */\n      add(0x20, mload(0x40))\n      tag_332\n      swap2\n      swap1\n      tag_231\n      jump\t// in\n    tag_332:\n      mload(0x40)\n      0x20\n      dup2\n      dup4\n      sub\n      sub\n      dup2\n      mstore\n      swap1\n      0x40\n      mstore\n        /* \"moonx/moonx.sol\":3933:3980  keccak256(abi.encodePacked(_correctAnswers[i])) */\n      dup1\n      mload\n      swap1\n      0x20\n      add\n      keccak256\n        /* \"moonx/moonx.sol\":3933:4016  keccak256(abi.encodePacked(_correctAnswers[i])) == keccak256(abi.encodePacked(\"C\")) */\n      eq\n        /* \"moonx/moonx.sol\":3727:4016  keccak256(abi.encodePacked(_correctAnswers[i])) == keccak256(abi.encodePacked(\"A\")) ||... */\n    tag_327:\n        /* \"moonx/moonx.sol\":3727:4119  keccak256(abi.encodePacked(_correctAnswers[i])) == keccak256(abi.encodePacked(\"A\")) ||... */\n      dup1\n      tag_333\n      jumpi\n      pop\n        /* \"moonx/moonx.sol\":4097:4118  abi.encodePacked(\"D\") */\n      add(0x20, mload(0x40))\n      tag_334\n      swap1\n      tag_335\n      jump\t// in\n    tag_334:\n      mload(0x40)\n      0x20\n      dup2\n      dup4\n      sub\n      sub\n      dup2\n      mstore\n      swap1\n      0x40\n      mstore\n        /* \"moonx/moonx.sol\":4087:4119  keccak256(abi.encodePacked(\"D\")) */\n      dup1\n      mload\n      swap1\n      0x20\n      add\n      keccak256\n        /* \"moonx/moonx.sol\":4063:4078  _correctAnswers */\n      dup5\n        /* \"moonx/moonx.sol\":4079:4080  i */\n      dup3\n        /* \"moonx/moonx.sol\":4063:4081  _correctAnswers[i] */\n      dup2\n      mload\n      dup2\n      lt\n      tag_336\n      jumpi\n      tag_337\n      tag_227\n      jump\t// in\n    tag_337:\n    tag_336:\n      0x20\n      mul\n      0x20\n      add\n      add\n      mload\n        /* \"moonx/moonx.sol\":4046:4082  abi.encodePacked(_correctAnswers[i]) */\n      add(0x20, mload(0x40))\n      tag_338\n      swap2\n      swap1\n      tag_231\n      jump\t// in\n    tag_338:\n      mload(0x40)\n      0x20\n      dup2\n      dup4\n      sub\n      sub\n      dup2\n      mstore\n      swap1\n      0x40\n      mstore\n        /* \"moonx/moonx.sol\":4036:4083  keccak256(abi.encodePacked(_correctAnswers[i])) */\n      dup1\n      mload\n      swap1\n      0x20\n      add\n      keccak256\n        /* \"moonx/moonx.sol\":4036:4119  keccak256(abi.encodePacked(_correctAnswers[i])) == keccak256(abi.encodePacked(\"D\")) */\n      eq\n        /* \"moonx/moonx.sol\":3727:4119  keccak256(abi.encodePacked(_correctAnswers[i])) == keccak256(abi.encodePacked(\"A\")) ||... */\n    tag_333:\n        /* \"moonx/moonx.sol\":3702:4175  require(... */\n      tag_339\n      jumpi\n      mload(0x40)\n      0x08c379a000000000000000000000000000000000000000000000000000000000\n      dup2\n      mstore\n      0x04\n      add\n      tag_340\n      swap1\n      tag_341\n      jump\t// in\n    tag_340:\n      mload(0x40)\n      dup1\n      swap2\n      sub\n      swap1\n      revert\n    tag_339:\n        /* \"moonx/moonx.sol\":4190:4209  Quiz memory newQuiz */\n      0x00\n        /* \"moonx/moonx.sol\":4212:4549  Quiz({... */\n      mload(0x40)\n      dup1\n      0xe0\n      add\n      0x40\n      mstore\n      dup1\n        /* \"moonx/moonx.sol\":4245:4253  courseId */\n      dup5\n        /* \"moonx/moonx.sol\":4212:4549  Quiz({... */\n      dup2\n      mstore\n      0x20\n      add\n        /* \"moonx/moonx.sol\":4281:4291  _questions */\n      dup12\n        /* \"moonx/moonx.sol\":4292:4293  i */\n      dup5\n        /* \"moonx/moonx.sol\":4281:4294  _questions[i] */\n      dup2\n      mload\n      dup2\n      lt\n      tag_342\n      jumpi\n      tag_343\n      tag_227\n      jump\t// in\n    tag_343:\n    tag_342:\n      0x20\n      mul\n      0x20\n      add\n      add\n      mload\n        /* \"moonx/moonx.sol\":4212:4549  Quiz({... */\n      dup2\n      mstore\n      0x20\n      add\n        /* \"moonx/moonx.sol\":4321:4330  _optionAs */\n      dup11\n        /* \"moonx/moonx.sol\":4331:4332  i */\n      dup5\n        /* \"moonx/moonx.sol\":4321:4333  _optionAs[i] */\n      dup2\n      mload\n      dup2\n      lt\n      tag_344\n      jumpi\n      tag_345\n      tag_227\n      jump\t// in\n    tag_345:\n    tag_344:\n      0x20\n      mul\n      0x20\n      add\n      add\n      mload\n        /* \"moonx/moonx.sol\":4212:4549  Quiz({... */\n      dup2\n      mstore\n      0x20\n      add\n        /* \"moonx/moonx.sol\":4360:4369  _optionBs */\n      dup10\n        /* \"moonx/moonx.sol\":4370:4371  i */\n      dup5\n        /* \"moonx/moonx.sol\":4360:4372  _optionBs[i] */\n      dup2\n      mload\n      dup2\n      lt\n      tag_346\n      jumpi\n      tag_347\n      tag_227\n      jump\t// in\n    tag_347:\n    tag_346:\n      0x20\n      mul\n      0x20\n      add\n      add\n      mload\n        /* \"moonx/moonx.sol\":4212:4549  Quiz({... */\n      dup2\n      mstore\n      0x20\n      add\n        /* \"moonx/moonx.sol\":4399:4408  _optionCs */\n      dup9\n        /* \"moonx/moonx.sol\":4409:4410  i */\n      dup5\n        /* \"moonx/moonx.sol\":4399:4411  _optionCs[i] */\n      dup2\n      mload\n      dup2\n      lt\n      tag_348\n      jumpi\n      tag_349\n      tag_227\n      jump\t// in\n    tag_349:\n    tag_348:\n      0x20\n      mul\n      0x20\n      add\n      add\n      mload\n        /* \"moonx/moonx.sol\":4212:4549  Quiz({... */\n      dup2\n      mstore\n      0x20\n      add\n        /* \"moonx/moonx.sol\":4438:4447  _optionDs */\n      dup8\n        /* \"moonx/moonx.sol\":4448:4449  i */\n      dup5\n        /* \"moonx/moonx.sol\":4438:4450  _optionDs[i] */\n      dup2\n      mload\n      dup2\n      lt\n      tag_350\n      jumpi\n      tag_351\n      tag_227\n      jump\t// in\n    tag_351:\n    tag_350:\n      0x20\n      mul\n      0x20\n      add\n      add\n      mload\n        /* \"moonx/moonx.sol\":4212:4549  Quiz({... */\n      dup2\n      mstore\n      0x20\n      add\n        /* \"moonx/moonx.sol\":4514:4529  _correctAnswers */\n      dup7\n        /* \"moonx/moonx.sol\":4530:4531  i */\n      dup5\n        /* \"moonx/moonx.sol\":4514:4532  _correctAnswers[i] */\n      dup2\n      mload\n      dup2\n      lt\n      tag_352\n      jumpi\n      tag_353\n      tag_227\n      jump\t// in\n    tag_353:\n    tag_352:\n      0x20\n      mul\n      0x20\n      add\n      add\n      mload\n        /* \"moonx/moonx.sol\":4497:4533  abi.encodePacked(_correctAnswers[i]) */\n      add(0x20, mload(0x40))\n      tag_354\n      swap2\n      swap1\n      tag_231\n      jump\t// in\n    tag_354:\n      mload(0x40)\n      0x20\n      dup2\n      dup4\n      sub\n      sub\n      dup2\n      mstore\n      swap1\n      0x40\n      mstore\n        /* \"moonx/moonx.sol\":4487:4534  keccak256(abi.encodePacked(_correctAnswers[i])) */\n      dup1\n      mload\n      swap1\n      0x20\n      add\n      keccak256\n        /* \"moonx/moonx.sol\":4212:4549  Quiz({... */\n      dup2\n      mstore\n      pop\n        /* \"moonx/moonx.sol\":4190:4549  Quiz memory newQuiz = Quiz({... */\n      swap1\n      pop\n        /* \"moonx/moonx.sol\":4564:4577  courseQuizzes */\n      0x06\n        /* \"moonx/moonx.sol\":4564:4587  courseQuizzes[courseId] */\n      0x00\n        /* \"moonx/moonx.sol\":4578:4586  courseId */\n      dup5\n        /* \"moonx/moonx.sol\":4564:4587  courseQuizzes[courseId] */\n      dup2\n      mstore\n      0x20\n      add\n      swap1\n      dup2\n      mstore\n      0x20\n      add\n      0x00\n      keccak256\n        /* \"moonx/moonx.sol\":4593:4600  newQuiz */\n      dup2\n        /* \"moonx/moonx.sol\":4564:4601  courseQuizzes[courseId].push(newQuiz) */\n      swap1\n      dup1\n      0x01\n      dup2\n      sload\n      add\n      dup1\n      dup3\n      sstore\n      dup1\n      swap2\n      pop\n      pop\n      0x01\n      swap1\n      sub\n      swap1\n      0x00\n      mstore\n      keccak256(0x00, 0x20)\n      swap1\n      0x07\n      mul\n      add\n      0x00\n      swap1\n      swap2\n      swap1\n      swap2\n      swap1\n      swap2\n      pop\n      0x00\n      dup3\n      add\n      mload\n      dup2\n      0x00\n      add\n      sstore\n      0x20\n      dup3\n      add\n      mload\n      dup2\n      0x01\n      add\n      swap1\n      dup2\n      tag_356\n      swap2\n      swap1\n      tag_312\n      jump\t// in\n    tag_356:\n      pop\n      0x40\n      dup3\n      add\n      mload\n      dup2\n      0x02\n      add\n      swap1\n      dup2\n      tag_357\n      swap2\n      swap1\n      tag_312\n      jump\t// in\n    tag_357:\n      pop\n      0x60\n      dup3\n      add\n      mload\n      dup2\n      0x03\n      add\n      swap1\n      dup2\n      tag_358\n      swap2\n      swap1\n      tag_312\n      jump\t// in\n    tag_358:\n      pop\n      0x80\n      dup3\n      add\n      mload\n      dup2\n      0x04\n      add\n      swap1\n      dup2\n      tag_359\n      swap2\n      swap1\n      tag_312\n      jump\t// in\n    tag_359:\n      pop\n      0xa0\n      dup3\n      add\n      mload\n      dup2\n      0x05\n      add\n      swap1\n      dup2\n      tag_360\n      swap2\n      swap1\n      tag_312\n      jump\t// in\n    tag_360:\n      pop\n      0xc0\n      dup3\n      add\n      mload\n      dup2\n      0x06\n      add\n      sstore\n      pop\n      pop\n        /* \"moonx/moonx.sol\":3688:4612  {... */\n      pop\n        /* \"moonx/moonx.sol\":3683:3686  i++ */\n      dup1\n      dup1\n      0x01\n      add\n      swap2\n      pop\n      pop\n        /* \"moonx/moonx.sol\":3640:4612  for (uint256 i = 0; i < _questions.length; i++) {... */\n      jump(tag_313)\n    tag_314:\n      pop\n        /* \"moonx/moonx.sol\":4651:4661  msg.sender */\n      caller\n        /* \"moonx/moonx.sol\":4627:4662  CourseCreated(courseId, msg.sender) */\n      0xffffffffffffffffffffffffffffffffffffffff\n      and\n        /* \"moonx/moonx.sol\":4641:4649  courseId */\n      dup2\n        /* \"moonx/moonx.sol\":4627:4662  CourseCreated(courseId, msg.sender) */\n      0xa68f79aa37f9cdc81c2757cfb3e11e9d7d89ca0a5410fbcf1b61125bc17fb1b7\n      mload(0x40)\n      mload(0x40)\n      dup1\n      swap2\n      sub\n      swap1\n      log3\n        /* \"moonx/moonx.sol\":3031:4669  {... */\n      pop\n        /* \"moonx/moonx.sol\":2438:2696  {... */\n      pop\n        /* \"moonx/moonx.sol\":2701:4669  function createCourse(... */\n      pop\n      pop\n      pop\n      pop\n      pop\n      pop\n      pop\n      jump\t// out\n        /* \"moonx/moonx.sol\":7273:7334  function pause() external onlyOwner {... */\n    tag_90:\n        /* \"@openzeppelin/contracts/access/Ownable.sol\":1531:1544  _checkOwner() */\n      tag_362\n        /* \"@openzeppelin/contracts/access/Ownable.sol\":1531:1542  _checkOwner */\n      tag_145\n        /* \"@openzeppelin/contracts/access/Ownable.sol\":1531:1544  _checkOwner() */\n      jump\t// in\n    tag_362:\n        /* \"moonx/moonx.sol\":7319:7327  _pause() */\n      tag_364\n        /* \"moonx/moonx.sol\":7319:7325  _pause */\n      tag_365\n        /* \"moonx/moonx.sol\":7319:7327  _pause() */\n      jump\t// in\n    tag_364:\n        /* \"moonx/moonx.sol\":7273:7334  function pause() external onlyOwner {... */\n      jump\t// out\n        /* \"moonx/moonx.sol\":327:372  IReputationContract public reputationContract */\n    tag_93:\n      0x01\n      0x00\n      swap1\n      sload\n      swap1\n      0x0100\n      exp\n      swap1\n      div\n      0xffffffffffffffffffffffffffffffffffffffff\n      and\n      dup2\n      jump\t// out\n        /* \"@openzeppelin/contracts/access/Ownable.sol\":1638:1723  function owner() public view virtual returns (address) {... */\n    tag_98:\n        /* \"@openzeppelin/contracts/access/Ownable.sol\":1684:1691  address */\n      0x00\n        /* \"@openzeppelin/contracts/access/Ownable.sol\":1710:1716  _owner */\n      dup1\n      0x00\n      swap1\n      sload\n      swap1\n      0x0100\n      exp\n      swap1\n      div\n      0xffffffffffffffffffffffffffffffffffffffff\n      and\n        /* \"@openzeppelin/contracts/access/Ownable.sol\":1703:1716  return _owner */\n      swap1\n      pop\n        /* \"@openzeppelin/contracts/access/Ownable.sol\":1638:1723  function owner() public view virtual returns (address) {... */\n      swap1\n      jump\t// out\n        /* \"moonx/moonx.sol\":7411:7577  function updateReputationContract(address _newReputationContract) external onlyOwner {... */\n    tag_105:\n        /* \"@openzeppelin/contracts/access/Ownable.sol\":1531:1544  _checkOwner() */\n      tag_368\n        /* \"@openzeppelin/contracts/access/Ownable.sol\":1531:1542  _checkOwner */\n      tag_145\n        /* \"@openzeppelin/contracts/access/Ownable.sol\":1531:1544  _checkOwner() */\n      jump\t// in\n    tag_368:\n        /* \"moonx/moonx.sol\":7547:7569  _newReputationContract */\n      dup1\n        /* \"moonx/moonx.sol\":7506:7524  reputationContract */\n      0x01\n      0x00\n        /* \"moonx/moonx.sol\":7506:7570  reputationContract = IReputationContract(_newReputationContract) */\n      0x0100\n      exp\n      dup2\n      sload\n      dup2\n      0xffffffffffffffffffffffffffffffffffffffff\n      mul\n      not\n      and\n      swap1\n      dup4\n      0xffffffffffffffffffffffffffffffffffffffff\n      and\n      mul\n      or\n      swap1\n      sstore\n      pop\n        /* \"moonx/moonx.sol\":7411:7577  function updateReputationContract(address _newReputationContract) external onlyOwner {... */\n      pop\n      jump\t// out\n        /* \"moonx/moonx.sol\":1383:1424  mapping(uint256 => Course) public courses */\n    tag_109:\n      mstore(0x20, 0x04)\n      dup1\n      0x00\n      mstore\n      keccak256(0x00, 0x40)\n      0x00\n      swap2\n      pop\n      swap1\n      pop\n      dup1\n      0x00\n      add\n      0x00\n      swap1\n      sload\n      swap1\n      0x0100\n      exp\n      swap1\n      div\n      0xffffffffffffffffffffffffffffffffffffffff\n      and\n      swap1\n      dup1\n      0x01\n      add\n      dup1\n      sload\n      tag_370\n      swap1\n      tag_194\n      jump\t// in\n    tag_370:\n      dup1\n      0x1f\n      add\n      0x20\n      dup1\n      swap2\n      div\n      mul\n      0x20\n      add\n      mload(0x40)\n      swap1\n      dup2\n      add\n      0x40\n      mstore\n      dup1\n      swap3\n      swap2\n      swap1\n      dup2\n      dup2\n      mstore\n      0x20\n      add\n      dup3\n      dup1\n      sload\n      tag_371\n      swap1\n      tag_194\n      jump\t// in\n    tag_371:\n      dup1\n      iszero\n      tag_372\n      jumpi\n      dup1\n      0x1f\n      lt\n      tag_373\n      jumpi\n      0x0100\n      dup1\n      dup4\n      sload\n      div\n      mul\n      dup4\n      mstore\n      swap2\n      0x20\n      add\n      swap2\n      jump(tag_372)\n    tag_373:\n      dup3\n      add\n      swap2\n      swap1\n      0x00\n      mstore\n      keccak256(0x00, 0x20)\n      swap1\n    tag_374:\n      dup2\n      sload\n      dup2\n      mstore\n      swap1\n      0x01\n      add\n      swap1\n      0x20\n      add\n      dup1\n      dup4\n      gt\n      tag_374\n      jumpi\n      dup3\n      swap1\n      sub\n      0x1f\n      and\n      dup3\n      add\n      swap2\n    tag_372:\n      pop\n      pop\n      pop\n      pop\n      pop\n      swap1\n      dup1\n      0x02\n      add\n      0x00\n      swap1\n      sload\n      swap1\n      0x0100\n      exp\n      swap1\n      div\n      0xff\n      and\n      swap1\n      dup1\n      0x03\n      add\n      sload\n      swap1\n      dup1\n      0x04\n      add\n      sload\n      swap1\n      dup1\n      0x05\n      add\n      sload\n      swap1\n      pop\n      dup7\n      jump\t// out\n        /* \"moonx/moonx.sol\":601:648  uint256 public constant PLATFORMTX = 0.75 ether */\n    tag_114:\n        /* \"moonx/moonx.sol\":638:648  0.75 ether */\n      0x0a688906bd8b0000\n        /* \"moonx/moonx.sol\":601:648  uint256 public constant PLATFORMTX = 0.75 ether */\n      dup2\n      jump\t// out\n        /* \"moonx/moonx.sol\":429:471  uint256 public constant POST_THRESHOLD = 5 */\n    tag_118:\n        /* \"moonx/moonx.sol\":470:471  5 */\n      0x05\n        /* \"moonx/moonx.sol\":429:471  uint256 public constant POST_THRESHOLD = 5 */\n      dup2\n      jump\t// out\n        /* \"moonx/moonx.sol\":379:423  uint256 public constant ENROLL_THRESHOLD = 1 */\n    tag_122:\n        /* \"moonx/moonx.sol\":422:423  1 */\n      0x01\n        /* \"moonx/moonx.sol\":379:423  uint256 public constant ENROLL_THRESHOLD = 1 */\n      dup2\n      jump\t// out\n        /* \"moonx/moonx.sol\":1505:1552  mapping(uint256 => Quiz[]) public courseQuizzes */\n    tag_128:\n      mstore(0x20, 0x06)\n      dup2\n      0x00\n      mstore\n      keccak256(0x00, 0x40)\n      dup2\n      dup2\n      sload\n      dup2\n      lt\n      tag_375\n      jumpi\n      0x00\n      dup1\n      revert\n    tag_375:\n      swap1\n      0x00\n      mstore\n      keccak256(0x00, 0x20)\n      swap1\n      0x07\n      mul\n      add\n      0x00\n      swap2\n      pop\n      swap2\n      pop\n      pop\n      dup1\n      0x00\n      add\n      sload\n      swap1\n      dup1\n      0x01\n      add\n      dup1\n      sload\n      tag_377\n      swap1\n      tag_194\n      jump\t// in\n    tag_377:\n      dup1\n      0x1f\n      add\n      0x20\n      dup1\n      swap2\n      div\n      mul\n      0x20\n      add\n      mload(0x40)\n      swap1\n      dup2\n      add\n      0x40\n      mstore\n      dup1\n      swap3\n      swap2\n      swap1\n      dup2\n      dup2\n      mstore\n      0x20\n      add\n      dup3\n      dup1\n      sload\n      tag_378\n      swap1\n      tag_194\n      jump\t// in\n    tag_378:\n      dup1\n      iszero\n      tag_379\n      jumpi\n      dup1\n      0x1f\n      lt\n      tag_380\n      jumpi\n      0x0100\n      dup1\n      dup4\n      sload\n      div\n      mul\n      dup4\n      mstore\n      swap2\n      0x20\n      add\n      swap2\n      jump(tag_379)\n    tag_380:\n      dup3\n      add\n      swap2\n      swap1\n      0x00\n      mstore\n      keccak256(0x00, 0x20)\n      swap1\n    tag_381:\n      dup2\n      sload\n      dup2\n      mstore\n      swap1\n      0x01\n      add\n      swap1\n      0x20\n      add\n      dup1\n      dup4\n      gt\n      tag_381\n      jumpi\n      dup3\n      swap1\n      sub\n      0x1f\n      and\n      dup3\n      add\n      swap2\n    tag_379:\n      pop\n      pop\n      pop\n      pop\n      pop\n      swap1\n      dup1\n      0x02\n      add\n      dup1\n      sload\n      tag_382\n      swap1\n      tag_194\n      jump\t// in\n    tag_382:\n      dup1\n      0x1f\n      add\n      0x20\n      dup1\n      swap2\n      div\n      mul\n      0x20\n      add\n      mload(0x40)\n      swap1\n      dup2\n      add\n      0x40\n      mstore\n      dup1\n      swap3\n      swap2\n      swap1\n      dup2\n      dup2\n      mstore\n      0x20\n      add\n      dup3\n      dup1\n      sload\n      tag_383\n      swap1\n      tag_194\n      jump\t// in\n    tag_383:\n      dup1\n      iszero\n      tag_384\n      jumpi\n      dup1\n      0x1f\n      lt\n      tag_385\n      jumpi\n      0x0100\n      dup1\n      dup4\n      sload\n      div\n      mul\n      dup4\n      mstore\n      swap2\n      0x20\n      add\n      swap2\n      jump(tag_384)\n    tag_385:\n      dup3\n      add\n      swap2\n      swap1\n      0x00\n      mstore\n      keccak256(0x00, 0x20)\n      swap1\n    tag_386:\n      dup2\n      sload\n      dup2\n      mstore\n      swap1\n      0x01\n      add\n      swap1\n      0x20\n      add\n      dup1\n      dup4\n      gt\n      tag_386\n      jumpi\n      dup3\n      swap1\n      sub\n      0x1f\n      and\n      dup3\n      add\n      swap2\n    tag_384:\n      pop\n      pop\n      pop\n      pop\n      pop\n      swap1\n      dup1\n      0x03\n      add\n      dup1\n      sload\n      tag_387\n      swap1\n      tag_194\n      jump\t// in\n    tag_387:\n      dup1\n      0x1f\n      add\n      0x20\n      dup1\n      swap2\n      div\n      mul\n      0x20\n      add\n      mload(0x40)\n      swap1\n      dup2\n      add\n      0x40\n      mstore\n      dup1\n      swap3\n      swap2\n      swap1\n      dup2\n      dup2\n      mstore\n      0x20\n      add\n      dup3\n      dup1\n      sload\n      tag_388\n      swap1\n      tag_194\n      jump\t// in\n    tag_388:\n      dup1\n      iszero\n      tag_389\n      jumpi\n      dup1\n      0x1f\n      lt\n      tag_390\n      jumpi\n      0x0100\n      dup1\n      dup4\n      sload\n      div\n      mul\n      dup4\n      mstore\n      swap2\n      0x20\n      add\n      swap2\n      jump(tag_389)\n    tag_390:\n      dup3\n      add\n      swap2\n      swap1\n      0x00\n      mstore\n      keccak256(0x00, 0x20)\n      swap1\n    tag_391:\n      dup2\n      sload\n      dup2\n      mstore\n      swap1\n      0x01\n      add\n      swap1\n      0x20\n      add\n      dup1\n      dup4\n      gt\n      tag_391\n      jumpi\n      dup3\n      swap1\n      sub\n      0x1f\n      and\n      dup3\n      add\n      swap2\n    tag_389:\n      pop\n      pop\n      pop\n      pop\n      pop\n      swap1\n      dup1\n      0x04\n      add\n      dup1\n      sload\n      tag_392\n      swap1\n      tag_194\n      jump\t// in\n    tag_392:\n      dup1\n      0x1f\n      add\n      0x20\n      dup1\n      swap2\n      div\n      mul\n      0x20\n      add\n      mload(0x40)\n      swap1\n      dup2\n      add\n      0x40\n      mstore\n      dup1\n      swap3\n      swap2\n      swap1\n      dup2\n      dup2\n      mstore\n      0x20\n      add\n      dup3\n      dup1\n      sload\n      tag_393\n      swap1\n      tag_194\n      jump\t// in\n    tag_393:\n      dup1\n      iszero\n      tag_394\n      jumpi\n      dup1\n      0x1f\n      lt\n      tag_395\n      jumpi\n      0x0100\n      dup1\n      dup4\n      sload\n      div\n      mul\n      dup4\n      mstore\n      swap2\n      0x20\n      add\n      swap2\n      jump(tag_394)\n    tag_395:\n      dup3\n      add\n      swap2\n      swap1\n      0x00\n      mstore\n      keccak256(0x00, 0x20)\n      swap1\n    tag_396:\n      dup2\n      sload\n      dup2\n      mstore\n      swap1\n      0x01\n      add\n      swap1\n      0x20\n      add\n      dup1\n      dup4\n      gt\n      tag_396\n      jumpi\n      dup3\n      swap1\n      sub\n      0x1f\n      and\n      dup3\n      add\n      swap2\n    tag_394:\n      pop\n      pop\n      pop\n      pop\n      pop\n      swap1\n      dup1\n      0x05\n      add\n      dup1\n      sload\n      tag_397\n      swap1\n      tag_194\n      jump\t// in\n    tag_397:\n      dup1\n      0x1f\n      add\n      0x20\n      dup1\n      swap2\n      div\n      mul\n      0x20\n      add\n      mload(0x40)\n      swap1\n      dup2\n      add\n      0x40\n      mstore\n      dup1\n      swap3\n      swap2\n      swap1\n      dup2\n      dup2\n      mstore\n      0x20\n      add\n      dup3\n      dup1\n      sload\n      tag_398\n      swap1\n      tag_194\n      jump\t// in\n    tag_398:\n      dup1\n      iszero\n      tag_399\n      jumpi\n      dup1\n      0x1f\n      lt\n      tag_400\n      jumpi\n      0x0100\n      dup1\n      dup4\n      sload\n      div\n      mul\n      dup4\n      mstore\n      swap2\n      0x20\n      add\n      swap2\n      jump(tag_399)\n    tag_400:\n      dup3\n      add\n      swap2\n      swap1\n      0x00\n      mstore\n      keccak256(0x00, 0x20)\n      swap1\n    tag_401:\n      dup2\n      sload\n      dup2\n      mstore\n      swap1\n      0x01\n      add\n      swap1\n      0x20\n      add\n      dup1\n      dup4\n      gt\n      tag_401\n      jumpi\n      dup3\n      swap1\n      sub\n      0x1f\n      and\n      dup3\n      add\n      swap2\n    tag_399:\n      pop\n      pop\n      pop\n      pop\n      pop\n      swap1\n      dup1\n      0x06\n      add\n      sload\n      swap1\n      pop\n      dup8\n      jump\t// out\n        /* \"moonx/moonx.sol\":539:594  uint256 public constant CREATOR_REWARD_AMOUNT = 1 ether */\n    tag_133:\n        /* \"moonx/moonx.sol\":587:594  1 ether */\n      0x0de0b6b3a7640000\n        /* \"moonx/moonx.sol\":539:594  uint256 public constant CREATOR_REWARD_AMOUNT = 1 ether */\n      dup2\n      jump\t// out\n        /* \"@openzeppelin/contracts/access/Ownable.sol\":2543:2758  function transferOwnership(address newOwner) public virtual onlyOwner {... */\n    tag_138:\n        /* \"@openzeppelin/contracts/access/Ownable.sol\":1531:1544  _checkOwner() */\n      tag_403\n        /* \"@openzeppelin/contracts/access/Ownable.sol\":1531:1542  _checkOwner */\n      tag_145\n        /* \"@openzeppelin/contracts/access/Ownable.sol\":1531:1544  _checkOwner() */\n      jump\t// in\n    tag_403:\n        /* \"@openzeppelin/contracts/access/Ownable.sol\":2647:2648  0 */\n      0x00\n        /* \"@openzeppelin/contracts/access/Ownable.sol\":2627:2649  newOwner == address(0) */\n      0xffffffffffffffffffffffffffffffffffffffff\n      and\n        /* \"@openzeppelin/contracts/access/Ownable.sol\":2627:2635  newOwner */\n      dup2\n        /* \"@openzeppelin/contracts/access/Ownable.sol\":2627:2649  newOwner == address(0) */\n      0xffffffffffffffffffffffffffffffffffffffff\n      and\n      sub\n        /* \"@openzeppelin/contracts/access/Ownable.sol\":2623:2714  if (newOwner == address(0)) {... */\n      tag_405\n      jumpi\n        /* \"@openzeppelin/contracts/access/Ownable.sol\":2700:2701  0 */\n      0x00\n        /* \"@openzeppelin/contracts/access/Ownable.sol\":2672:2703  OwnableInvalidOwner(address(0)) */\n      mload(0x40)\n      0x1e4fbdf700000000000000000000000000000000000000000000000000000000\n      dup2\n      mstore\n      0x04\n      add\n      tag_406\n      swap2\n      swap1\n      tag_100\n      jump\t// in\n    tag_406:\n      mload(0x40)\n      dup1\n      swap2\n      sub\n      swap1\n      revert\n        /* \"@openzeppelin/contracts/access/Ownable.sol\":2623:2714  if (newOwner == address(0)) {... */\n    tag_405:\n        /* \"@openzeppelin/contracts/access/Ownable.sol\":2723:2751  _transferOwnership(newOwner) */\n      tag_407\n        /* \"@openzeppelin/contracts/access/Ownable.sol\":2742:2750  newOwner */\n      dup2\n        /* \"@openzeppelin/contracts/access/Ownable.sol\":2723:2741  _transferOwnership */\n      tag_277\n        /* \"@openzeppelin/contracts/access/Ownable.sol\":2723:2751  _transferOwnership(newOwner) */\n      jump\t// in\n    tag_407:\n        /* \"@openzeppelin/contracts/access/Ownable.sol\":2543:2758  function transferOwnership(address newOwner) public virtual onlyOwner {... */\n      pop\n      jump\t// out\n        /* \"moonx/moonx.sol\":477:533  uint256 public constant STUDENT_REWARD_AMOUNT = 10 ether */\n    tag_141:\n        /* \"moonx/moonx.sol\":525:533  10 ether */\n      0x8ac7230489e80000\n        /* \"moonx/moonx.sol\":477:533  uint256 public constant STUDENT_REWARD_AMOUNT = 10 ether */\n      dup2\n      jump\t// out\n        /* \"@openzeppelin/contracts/access/Ownable.sol\":1796:1958  function _checkOwner() internal view virtual {... */\n    tag_145:\n        /* \"@openzeppelin/contracts/access/Ownable.sol\":1866:1878  _msgSender() */\n      tag_409\n        /* \"@openzeppelin/contracts/access/Ownable.sol\":1866:1876  _msgSender */\n      tag_410\n        /* \"@openzeppelin/contracts/access/Ownable.sol\":1866:1878  _msgSender() */\n      jump\t// in\n    tag_409:\n        /* \"@openzeppelin/contracts/access/Ownable.sol\":1855:1878  owner() != _msgSender() */\n      0xffffffffffffffffffffffffffffffffffffffff\n      and\n        /* \"@openzeppelin/contracts/access/Ownable.sol\":1855:1862  owner() */\n      tag_411\n        /* \"@openzeppelin/contracts/access/Ownable.sol\":1855:1860  owner */\n      tag_98\n        /* \"@openzeppelin/contracts/access/Ownable.sol\":1855:1862  owner() */\n      jump\t// in\n    tag_411:\n        /* \"@openzeppelin/contracts/access/Ownable.sol\":1855:1878  owner() != _msgSender() */\n      0xffffffffffffffffffffffffffffffffffffffff\n      and\n      eq\n        /* \"@openzeppelin/contracts/access/Ownable.sol\":1851:1952  if (owner() != _msgSender()) {... */\n      tag_412\n      jumpi\n        /* \"@openzeppelin/contracts/access/Ownable.sol\":1928:1940  _msgSender() */\n      tag_413\n        /* \"@openzeppelin/contracts/access/Ownable.sol\":1928:1938  _msgSender */\n      tag_410\n        /* \"@openzeppelin/contracts/access/Ownable.sol\":1928:1940  _msgSender() */\n      jump\t// in\n    tag_413:\n        /* \"@openzeppelin/contracts/access/Ownable.sol\":1901:1941  OwnableUnauthorizedAccount(_msgSender()) */\n      mload(0x40)\n      0x118cdaa700000000000000000000000000000000000000000000000000000000\n      dup2\n      mstore\n      0x04\n      add\n      tag_414\n      swap2\n      swap1\n      tag_100\n      jump\t// in\n    tag_414:\n      mload(0x40)\n      dup1\n      swap2\n      sub\n      swap1\n      revert\n        /* \"@openzeppelin/contracts/access/Ownable.sol\":1851:1952  if (owner() != _msgSender()) {... */\n    tag_412:\n        /* \"@openzeppelin/contracts/access/Ownable.sol\":1796:1958  function _checkOwner() internal view virtual {... */\n      jump\t// out\n        /* \"@openzeppelin/contracts/security/Pausable.sol\":2433:2550  function _unpause() internal virtual whenPaused {... */\n    tag_166:\n        /* \"@openzeppelin/contracts/security/Pausable.sol\":1486:1502  _requirePaused() */\n      tag_416\n        /* \"@openzeppelin/contracts/security/Pausable.sol\":1486:1500  _requirePaused */\n      tag_417\n        /* \"@openzeppelin/contracts/security/Pausable.sol\":1486:1502  _requirePaused() */\n      jump\t// in\n    tag_416:\n        /* \"@openzeppelin/contracts/security/Pausable.sol\":2501:2506  false */\n      0x00\n        /* \"@openzeppelin/contracts/security/Pausable.sol\":2491:2498  _paused */\n      dup1\n      0x14\n        /* \"@openzeppelin/contracts/security/Pausable.sol\":2491:2506  _paused = false */\n      0x0100\n      exp\n      dup2\n      sload\n      dup2\n      0xff\n      mul\n      not\n      and\n      swap1\n      dup4\n      iszero\n      iszero\n      mul\n      or\n      swap1\n      sstore\n      pop\n        /* \"@openzeppelin/contracts/security/Pausable.sol\":2521:2543  Unpaused(_msgSender()) */\n      0x5db9ee0a495bf2e6ff9c91a7834c1ba4fdd244a5e8aa4e537bd38aeae4b073aa\n        /* \"@openzeppelin/contracts/security/Pausable.sol\":2530:2542  _msgSender() */\n      tag_419\n        /* \"@openzeppelin/contracts/security/Pausable.sol\":2530:2540  _msgSender */\n      tag_410\n        /* \"@openzeppelin/contracts/security/Pausable.sol\":2530:2542  _msgSender() */\n      jump\t// in\n    tag_419:\n        /* \"@openzeppelin/contracts/security/Pausable.sol\":2521:2543  Unpaused(_msgSender()) */\n      mload(0x40)\n      tag_420\n      swap2\n      swap1\n      tag_100\n      jump\t// in\n    tag_420:\n      mload(0x40)\n      dup1\n      swap2\n      sub\n      swap1\n      log1\n        /* \"@openzeppelin/contracts/security/Pausable.sol\":2433:2550  function _unpause() internal virtual whenPaused {... */\n      jump\t// out\n        /* \"@openzeppelin/contracts/security/Pausable.sol\":1767:1873  function _requireNotPaused() internal view virtual {... */\n    tag_248:\n        /* \"@openzeppelin/contracts/security/Pausable.sol\":1837:1845  paused() */\n      tag_422\n        /* \"@openzeppelin/contracts/security/Pausable.sol\":1837:1843  paused */\n      tag_62\n        /* \"@openzeppelin/contracts/security/Pausable.sol\":1837:1845  paused() */\n      jump\t// in\n    tag_422:\n        /* \"@openzeppelin/contracts/security/Pausable.sol\":1836:1845  !paused() */\n      iszero\n        /* \"@openzeppelin/contracts/security/Pausable.sol\":1828:1866  require(!paused(), \"Pausable: paused\") */\n      tag_423\n      jumpi\n      mload(0x40)\n      0x08c379a000000000000000000000000000000000000000000000000000000000\n      dup2\n      mstore\n      0x04\n      add\n      tag_424\n      swap1\n      tag_425\n      jump\t// in\n    tag_424:\n      mload(0x40)\n      dup1\n      swap2\n      sub\n      swap1\n      revert\n    tag_423:\n        /* \"@openzeppelin/contracts/security/Pausable.sol\":1767:1873  function _requireNotPaused() internal view virtual {... */\n      jump\t// out\n        /* \"@openzeppelin/contracts/access/Ownable.sol\":2912:3099  function _transferOwnership(address newOwner) internal virtual {... */\n    tag_277:\n        /* \"@openzeppelin/contracts/access/Ownable.sol\":2985:3001  address oldOwner */\n      0x00\n        /* \"@openzeppelin/contracts/access/Ownable.sol\":3004:3010  _owner */\n      dup1\n      0x00\n      swap1\n      sload\n      swap1\n      0x0100\n      exp\n      swap1\n      div\n      0xffffffffffffffffffffffffffffffffffffffff\n      and\n        /* \"@openzeppelin/contracts/access/Ownable.sol\":2985:3010  address oldOwner = _owner */\n      swap1\n      pop\n        /* \"@openzeppelin/contracts/access/Ownable.sol\":3029:3037  newOwner */\n      dup2\n        /* \"@openzeppelin/contracts/access/Ownable.sol\":3020:3026  _owner */\n      0x00\n      dup1\n        /* \"@openzeppelin/contracts/access/Ownable.sol\":3020:3037  _owner = newOwner */\n      0x0100\n      exp\n      dup2\n      sload\n      dup2\n      0xffffffffffffffffffffffffffffffffffffffff\n      mul\n      not\n      and\n      swap1\n      dup4\n      0xffffffffffffffffffffffffffffffffffffffff\n      and\n      mul\n      or\n      swap1\n      sstore\n      pop\n        /* \"@openzeppelin/contracts/access/Ownable.sol\":3083:3091  newOwner */\n      dup2\n        /* \"@openzeppelin/contracts/access/Ownable.sol\":3052:3092  OwnershipTransferred(oldOwner, newOwner) */\n      0xffffffffffffffffffffffffffffffffffffffff\n      and\n        /* \"@openzeppelin/contracts/access/Ownable.sol\":3073:3081  oldOwner */\n      dup2\n        /* \"@openzeppelin/contracts/access/Ownable.sol\":3052:3092  OwnershipTransferred(oldOwner, newOwner) */\n      0xffffffffffffffffffffffffffffffffffffffff\n      and\n      0x8be0079c531659141344cd1fd0a4f28419497f9722a3daafe3b4186f6b6457e0\n      mload(0x40)\n      mload(0x40)\n      dup1\n      swap2\n      sub\n      swap1\n      log3\n        /* \"@openzeppelin/contracts/access/Ownable.sol\":2975:3099  {... */\n      pop\n        /* \"@openzeppelin/contracts/access/Ownable.sol\":2912:3099  function _transferOwnership(address newOwner) internal virtual {... */\n      pop\n      jump\t// out\n        /* \"@openzeppelin/contracts/security/Pausable.sol\":2186:2301  function _pause() internal virtual whenNotPaused {... */\n    tag_365:\n        /* \"@openzeppelin/contracts/security/Pausable.sol\":1239:1258  _requireNotPaused() */\n      tag_428\n        /* \"@openzeppelin/contracts/security/Pausable.sol\":1239:1256  _requireNotPaused */\n      tag_248\n        /* \"@openzeppelin/contracts/security/Pausable.sol\":1239:1258  _requireNotPaused() */\n      jump\t// in\n    tag_428:\n        /* \"@openzeppelin/contracts/security/Pausable.sol\":2255:2259  true */\n      0x01\n        /* \"@openzeppelin/contracts/security/Pausable.sol\":2245:2252  _paused */\n      0x00\n      0x14\n        /* \"@openzeppelin/contracts/security/Pausable.sol\":2245:2259  _paused = true */\n      0x0100\n      exp\n      dup2\n      sload\n      dup2\n      0xff\n      mul\n      not\n      and\n      swap1\n      dup4\n      iszero\n      iszero\n      mul\n      or\n      swap1\n      sstore\n      pop\n        /* \"@openzeppelin/contracts/security/Pausable.sol\":2274:2294  Paused(_msgSender()) */\n      0x62e78cea01bee320cd4e420270b5ea74000d11b0c9f74754ebdbfc544b05a258\n        /* \"@openzeppelin/contracts/security/Pausable.sol\":2281:2293  _msgSender() */\n      tag_430\n        /* \"@openzeppelin/contracts/security/Pausable.sol\":2281:2291  _msgSender */\n      tag_410\n        /* \"@openzeppelin/contracts/security/Pausable.sol\":2281:2293  _msgSender() */\n      jump\t// in\n    tag_430:\n        /* \"@openzeppelin/contracts/security/Pausable.sol\":2274:2294  Paused(_msgSender()) */\n      mload(0x40)\n      tag_431\n      swap2\n      swap1\n      tag_100\n      jump\t// in\n    tag_431:\n      mload(0x40)\n      dup1\n      swap2\n      sub\n      swap1\n      log1\n        /* \"@openzeppelin/contracts/security/Pausable.sol\":2186:2301  function _pause() internal virtual whenNotPaused {... */\n      jump\t// out\n        /* \"@openzeppelin/contracts/utils/Context.sol\":656:752  function _msgSender() internal view virtual returns (address) {... */\n    tag_410:\n        /* \"@openzeppelin/contracts/utils/Context.sol\":709:716  address */\n      0x00\n        /* \"@openzeppelin/contracts/utils/Context.sol\":735:745  msg.sender */\n      caller\n        /* \"@openzeppelin/contracts/utils/Context.sol\":728:745  return msg.sender */\n      swap1\n      pop\n        /* \"@openzeppelin/contracts/utils/Context.sol\":656:752  function _msgSender() internal view virtual returns (address) {... */\n      swap1\n      jump\t// out\n        /* \"@openzeppelin/contracts/security/Pausable.sol\":1945:2051  function _requirePaused() internal view virtual {... */\n    tag_417:\n        /* \"@openzeppelin/contracts/security/Pausable.sol\":2011:2019  paused() */\n      tag_434\n        /* \"@openzeppelin/contracts/security/Pausable.sol\":2011:2017  paused */\n      tag_62\n        /* \"@openzeppelin/contracts/security/Pausable.sol\":2011:2019  paused() */\n      jump\t// in\n    tag_434:\n        /* \"@openzeppelin/contracts/security/Pausable.sol\":2003:2044  require(paused(), \"Pausable: not paused\") */\n      tag_435\n      jumpi\n      mload(0x40)\n      0x08c379a000000000000000000000000000000000000000000000000000000000\n      dup2\n      mstore\n      0x04\n      add\n      tag_436\n      swap1\n      tag_437\n      jump\t// in\n    tag_436:\n      mload(0x40)\n      dup1\n      swap2\n      sub\n      swap1\n      revert\n    tag_435:\n        /* \"@openzeppelin/contracts/security/Pausable.sol\":1945:2051  function _requirePaused() internal view virtual {... */\n      jump\t// out\n        /* \"#utility.yul\":7:82   */\n    tag_438:\n        /* \"#utility.yul\":40:46   */\n      0x00\n        /* \"#utility.yul\":73:75   */\n      0x40\n        /* \"#utility.yul\":67:76   */\n      mload\n        /* \"#utility.yul\":57:76   */\n      swap1\n      pop\n        /* \"#utility.yul\":7:82   */\n      swap1\n      jump\t// out\n        /* \"#utility.yul\":88:205   */\n    tag_439:\n        /* \"#utility.yul\":197:198   */\n      0x00\n        /* \"#utility.yul\":194:195   */\n      dup1\n        /* \"#utility.yul\":187:199   */\n      revert\n        /* \"#utility.yul\":211:328   */\n    tag_440:\n        /* \"#utility.yul\":320:321   */\n      0x00\n        /* \"#utility.yul\":317:318   */\n      dup1\n        /* \"#utility.yul\":310:322   */\n      revert\n        /* \"#utility.yul\":334:460   */\n    tag_441:\n        /* \"#utility.yul\":371:378   */\n      0x00\n        /* \"#utility.yul\":411:453   */\n      0xffffffffffffffffffffffffffffffffffffffff\n        /* \"#utility.yul\":404:409   */\n      dup3\n        /* \"#utility.yul\":400:454   */\n      and\n        /* \"#utility.yul\":389:454   */\n      swap1\n      pop\n        /* \"#utility.yul\":334:460   */\n      swap2\n      swap1\n      pop\n      jump\t// out\n        /* \"#utility.yul\":466:562   */\n    tag_442:\n        /* \"#utility.yul\":503:510   */\n      0x00\n        /* \"#utility.yul\":532:556   */\n      tag_549\n        /* \"#utility.yul\":550:555   */\n      dup3\n        /* \"#utility.yul\":532:556   */\n      tag_441\n      jump\t// in\n    tag_549:\n        /* \"#utility.yul\":521:556   */\n      swap1\n      pop\n        /* \"#utility.yul\":466:562   */\n      swap2\n      swap1\n      pop\n      jump\t// out\n        /* \"#utility.yul\":568:690   */\n    tag_443:\n        /* \"#utility.yul\":641:665   */\n      tag_551\n        /* \"#utility.yul\":659:664   */\n      dup2\n        /* \"#utility.yul\":641:665   */\n      tag_442\n      jump\t// in\n    tag_551:\n        /* \"#utility.yul\":634:639   */\n      dup2\n        /* \"#utility.yul\":631:666   */\n      eq\n        /* \"#utility.yul\":621:684   */\n      tag_552\n      jumpi\n        /* \"#utility.yul\":680:681   */\n      0x00\n        /* \"#utility.yul\":677:678   */\n      dup1\n        /* \"#utility.yul\":670:682   */\n      revert\n        /* \"#utility.yul\":621:684   */\n    tag_552:\n        /* \"#utility.yul\":568:690   */\n      pop\n      jump\t// out\n        /* \"#utility.yul\":696:835   */\n    tag_444:\n        /* \"#utility.yul\":742:747   */\n      0x00\n        /* \"#utility.yul\":780:786   */\n      dup2\n        /* \"#utility.yul\":767:787   */\n      calldataload\n        /* \"#utility.yul\":758:787   */\n      swap1\n      pop\n        /* \"#utility.yul\":796:829   */\n      tag_554\n        /* \"#utility.yul\":823:828   */\n      dup2\n        /* \"#utility.yul\":796:829   */\n      tag_443\n      jump\t// in\n    tag_554:\n        /* \"#utility.yul\":696:835   */\n      swap3\n      swap2\n      pop\n      pop\n      jump\t// out\n        /* \"#utility.yul\":841:918   */\n    tag_445:\n        /* \"#utility.yul\":878:885   */\n      0x00\n        /* \"#utility.yul\":907:912   */\n      dup2\n        /* \"#utility.yul\":896:912   */\n      swap1\n      pop\n        /* \"#utility.yul\":841:918   */\n      swap2\n      swap1\n      pop\n      jump\t// out\n        /* \"#utility.yul\":924:1046   */\n    tag_446:\n        /* \"#utility.yul\":997:1021   */\n      tag_557\n        /* \"#utility.yul\":1015:1020   */\n      dup2\n        /* \"#utility.yul\":997:1021   */\n      tag_445\n      jump\t// in\n    tag_557:\n        /* \"#utility.yul\":990:995   */\n      dup2\n        /* \"#utility.yul\":987:1022   */\n      eq\n        /* \"#utility.yul\":977:1040   */\n      tag_558\n      jumpi\n        /* \"#utility.yul\":1036:1037   */\n      0x00\n        /* \"#utility.yul\":1033:1034   */\n      dup1\n        /* \"#utility.yul\":1026:1038   */\n      revert\n        /* \"#utility.yul\":977:1040   */\n    tag_558:\n        /* \"#utility.yul\":924:1046   */\n      pop\n      jump\t// out\n        /* \"#utility.yul\":1052:1191   */\n    tag_447:\n        /* \"#utility.yul\":1098:1103   */\n      0x00\n        /* \"#utility.yul\":1136:1142   */\n      dup2\n        /* \"#utility.yul\":1123:1143   */\n      calldataload\n        /* \"#utility.yul\":1114:1143   */\n      swap1\n      pop\n        /* \"#utility.yul\":1152:1185   */\n      tag_560\n        /* \"#utility.yul\":1179:1184   */\n      dup2\n        /* \"#utility.yul\":1152:1185   */\n      tag_446\n      jump\t// in\n    tag_560:\n        /* \"#utility.yul\":1052:1191   */\n      swap3\n      swap2\n      pop\n      pop\n      jump\t// out\n        /* \"#utility.yul\":1197:1671   */\n    tag_37:\n        /* \"#utility.yul\":1265:1271   */\n      0x00\n        /* \"#utility.yul\":1273:1279   */\n      dup1\n        /* \"#utility.yul\":1322:1324   */\n      0x40\n        /* \"#utility.yul\":1310:1319   */\n      dup4\n        /* \"#utility.yul\":1301:1308   */\n      dup6\n        /* \"#utility.yul\":1297:1320   */\n      sub\n        /* \"#utility.yul\":1293:1325   */\n      slt\n        /* \"#utility.yul\":1290:1409   */\n      iszero\n      tag_562\n      jumpi\n        /* \"#utility.yul\":1328:1407   */\n      tag_563\n      tag_439\n      jump\t// in\n    tag_563:\n        /* \"#utility.yul\":1290:1409   */\n    tag_562:\n        /* \"#utility.yul\":1448:1449   */\n      0x00\n        /* \"#utility.yul\":1473:1526   */\n      tag_564\n        /* \"#utility.yul\":1518:1525   */\n      dup6\n        /* \"#utility.yul\":1509:1515   */\n      dup3\n        /* \"#utility.yul\":1498:1507   */\n      dup7\n        /* \"#utility.yul\":1494:1516   */\n      add\n        /* \"#utility.yul\":1473:1526   */\n      tag_444\n      jump\t// in\n    tag_564:\n        /* \"#utility.yul\":1463:1526   */\n      swap3\n      pop\n        /* \"#utility.yul\":1419:1536   */\n      pop\n        /* \"#utility.yul\":1575:1577   */\n      0x20\n        /* \"#utility.yul\":1601:1654   */\n      tag_565\n        /* \"#utility.yul\":1646:1653   */\n      dup6\n        /* \"#utility.yul\":1637:1643   */\n      dup3\n        /* \"#utility.yul\":1626:1635   */\n      dup7\n        /* \"#utility.yul\":1622:1644   */\n      add\n        /* \"#utility.yul\":1601:1654   */\n      tag_447\n      jump\t// in\n    tag_565:\n        /* \"#utility.yul\":1591:1654   */\n      swap2\n      pop\n        /* \"#utility.yul\":1546:1664   */\n      pop\n        /* \"#utility.yul\":1197:1671   */\n      swap3\n      pop\n      swap3\n      swap1\n      pop\n      jump\t// out\n        /* \"#utility.yul\":1677:1767   */\n    tag_448:\n        /* \"#utility.yul\":1711:1718   */\n      0x00\n        /* \"#utility.yul\":1754:1759   */\n      dup2\n        /* \"#utility.yul\":1747:1760   */\n      iszero\n        /* \"#utility.yul\":1740:1761   */\n      iszero\n        /* \"#utility.yul\":1729:1761   */\n      swap1\n      pop\n        /* \"#utility.yul\":1677:1767   */\n      swap2\n      swap1\n      pop\n      jump\t// out\n        /* \"#utility.yul\":1773:1882   */\n    tag_449:\n        /* \"#utility.yul\":1854:1875   */\n      tag_568\n        /* \"#utility.yul\":1869:1874   */\n      dup2\n        /* \"#utility.yul\":1854:1875   */\n      tag_448\n      jump\t// in\n    tag_568:\n        /* \"#utility.yul\":1849:1852   */\n      dup3\n        /* \"#utility.yul\":1842:1876   */\n      mstore\n        /* \"#utility.yul\":1773:1882   */\n      pop\n      pop\n      jump\t// out\n        /* \"#utility.yul\":1888:1974   */\n    tag_450:\n        /* \"#utility.yul\":1923:1930   */\n      0x00\n        /* \"#utility.yul\":1963:1967   */\n      0xff\n        /* \"#utility.yul\":1956:1961   */\n      dup3\n        /* \"#utility.yul\":1952:1968   */\n      and\n        /* \"#utility.yul\":1941:1968   */\n      swap1\n      pop\n        /* \"#utility.yul\":1888:1974   */\n      swap2\n      swap1\n      pop\n      jump\t// out\n        /* \"#utility.yul\":1980:2092   */\n    tag_451:\n        /* \"#utility.yul\":2063:2085   */\n      tag_571\n        /* \"#utility.yul\":2079:2084   */\n      dup2\n        /* \"#utility.yul\":2063:2085   */\n      tag_450\n      jump\t// in\n    tag_571:\n        /* \"#utility.yul\":2058:2061   */\n      dup3\n        /* \"#utility.yul\":2051:2086   */\n      mstore\n        /* \"#utility.yul\":1980:2092   */\n      pop\n      pop\n      jump\t// out\n        /* \"#utility.yul\":2098:2607   */\n    tag_40:\n        /* \"#utility.yul\":2253:2257   */\n      0x00\n        /* \"#utility.yul\":2291:2294   */\n      0x80\n        /* \"#utility.yul\":2280:2289   */\n      dup3\n        /* \"#utility.yul\":2276:2295   */\n      add\n        /* \"#utility.yul\":2268:2295   */\n      swap1\n      pop\n        /* \"#utility.yul\":2305:2370   */\n      tag_573\n        /* \"#utility.yul\":2367:2368   */\n      0x00\n        /* \"#utility.yul\":2356:2365   */\n      dup4\n        /* \"#utility.yul\":2352:2369   */\n      add\n        /* \"#utility.yul\":2343:2349   */\n      dup8\n        /* \"#utility.yul\":2305:2370   */\n      tag_449\n      jump\t// in\n    tag_573:\n        /* \"#utility.yul\":2380:2448   */\n      tag_574\n        /* \"#utility.yul\":2444:2446   */\n      0x20\n        /* \"#utility.yul\":2433:2442   */\n      dup4\n        /* \"#utility.yul\":2429:2447   */\n      add\n        /* \"#utility.yul\":2420:2426   */\n      dup7\n        /* \"#utility.yul\":2380:2448   */\n      tag_451\n      jump\t// in\n    tag_574:\n        /* \"#utility.yul\":2458:2524   */\n      tag_575\n        /* \"#utility.yul\":2520:2522   */\n      0x40\n        /* \"#utility.yul\":2509:2518   */\n      dup4\n        /* \"#utility.yul\":2505:2523   */\n      add\n        /* \"#utility.yul\":2496:2502   */\n      dup6\n        /* \"#utility.yul\":2458:2524   */\n      tag_449\n      jump\t// in\n    tag_575:\n        /* \"#utility.yul\":2534:2600   */\n      tag_576\n        /* \"#utility.yul\":2596:2598   */\n      0x60\n        /* \"#utility.yul\":2585:2594   */\n      dup4\n        /* \"#utility.yul\":2581:2599   */\n      add\n        /* \"#utility.yul\":2572:2578   */\n      dup5\n        /* \"#utility.yul\":2534:2600   */\n      tag_449\n      jump\t// in\n    tag_576:\n        /* \"#utility.yul\":2098:2607   */\n      swap6\n      swap5\n      pop\n      pop\n      pop\n      pop\n      pop\n      jump\t// out\n        /* \"#utility.yul\":2613:2731   */\n    tag_452:\n        /* \"#utility.yul\":2700:2724   */\n      tag_578\n        /* \"#utility.yul\":2718:2723   */\n      dup2\n        /* \"#utility.yul\":2700:2724   */\n      tag_445\n      jump\t// in\n    tag_578:\n        /* \"#utility.yul\":2695:2698   */\n      dup3\n        /* \"#utility.yul\":2688:2725   */\n      mstore\n        /* \"#utility.yul\":2613:2731   */\n      pop\n      pop\n      jump\t// out\n        /* \"#utility.yul\":2737:2959   */\n    tag_48:\n        /* \"#utility.yul\":2830:2834   */\n      0x00\n        /* \"#utility.yul\":2868:2870   */\n      0x20\n        /* \"#utility.yul\":2857:2866   */\n      dup3\n        /* \"#utility.yul\":2853:2871   */\n      add\n        /* \"#utility.yul\":2845:2871   */\n      swap1\n      pop\n        /* \"#utility.yul\":2881:2952   */\n      tag_580\n        /* \"#utility.yul\":2949:2950   */\n      0x00\n        /* \"#utility.yul\":2938:2947   */\n      dup4\n        /* \"#utility.yul\":2934:2951   */\n      add\n        /* \"#utility.yul\":2925:2931   */\n      dup5\n        /* \"#utility.yul\":2881:2952   */\n      tag_452\n      jump\t// in\n    tag_580:\n        /* \"#utility.yul\":2737:2959   */\n      swap3\n      swap2\n      pop\n      pop\n      jump\t// out\n        /* \"#utility.yul\":2965:3175   */\n    tag_64:\n        /* \"#utility.yul\":3052:3056   */\n      0x00\n        /* \"#utility.yul\":3090:3092   */\n      0x20\n        /* \"#utility.yul\":3079:3088   */\n      dup3\n        /* \"#utility.yul\":3075:3093   */\n      add\n        /* \"#utility.yul\":3067:3093   */\n      swap1\n      pop\n        /* \"#utility.yul\":3103:3168   */\n      tag_582\n        /* \"#utility.yul\":3165:3166   */\n      0x00\n        /* \"#utility.yul\":3154:3163   */\n      dup4\n        /* \"#utility.yul\":3150:3167   */\n      add\n        /* \"#utility.yul\":3141:3147   */\n      dup5\n        /* \"#utility.yul\":3103:3168   */\n      tag_449\n      jump\t// in\n    tag_582:\n        /* \"#utility.yul\":2965:3175   */\n      swap3\n      swap2\n      pop\n      pop\n      jump\t// out\n        /* \"#utility.yul\":3181:3298   */\n    tag_453:\n        /* \"#utility.yul\":3290:3291   */\n      0x00\n        /* \"#utility.yul\":3287:3288   */\n      dup1\n        /* \"#utility.yul\":3280:3292   */\n      revert\n        /* \"#utility.yul\":3304:3406   */\n    tag_454:\n        /* \"#utility.yul\":3345:3351   */\n      0x00\n        /* \"#utility.yul\":3396:3398   */\n      0x1f\n        /* \"#utility.yul\":3392:3399   */\n      not\n        /* \"#utility.yul\":3387:3389   */\n      0x1f\n        /* \"#utility.yul\":3380:3385   */\n      dup4\n        /* \"#utility.yul\":3376:3390   */\n      add\n        /* \"#utility.yul\":3372:3400   */\n      and\n        /* \"#utility.yul\":3362:3400   */\n      swap1\n      pop\n        /* \"#utility.yul\":3304:3406   */\n      swap2\n      swap1\n      pop\n      jump\t// out\n        /* \"#utility.yul\":3412:3592   */\n    tag_455:\n        /* \"#utility.yul\":3460:3537   */\n      0x4e487b7100000000000000000000000000000000000000000000000000000000\n        /* \"#utility.yul\":3457:3458   */\n      0x00\n        /* \"#utility.yul\":3450:3538   */\n      mstore\n        /* \"#utility.yul\":3557:3561   */\n      0x41\n        /* \"#utility.yul\":3554:3555   */\n      0x04\n        /* \"#utility.yul\":3547:3562   */\n      mstore\n        /* \"#utility.yul\":3581:3585   */\n      0x24\n        /* \"#utility.yul\":3578:3579   */\n      0x00\n        /* \"#utility.yul\":3571:3586   */\n      revert\n        /* \"#utility.yul\":3598:3879   */\n    tag_456:\n        /* \"#utility.yul\":3681:3708   */\n      tag_587\n        /* \"#utility.yul\":3703:3707   */\n      dup3\n        /* \"#utility.yul\":3681:3708   */\n      tag_454\n      jump\t// in\n    tag_587:\n        /* \"#utility.yul\":3673:3679   */\n      dup2\n        /* \"#utility.yul\":3669:3709   */\n      add\n        /* \"#utility.yul\":3811:3817   */\n      dup2\n        /* \"#utility.yul\":3799:3809   */\n      dup2\n        /* \"#utility.yul\":3796:3818   */\n      lt\n        /* \"#utility.yul\":3775:3793   */\n      0xffffffffffffffff\n        /* \"#utility.yul\":3763:3773   */\n      dup3\n        /* \"#utility.yul\":3760:3794   */\n      gt\n        /* \"#utility.yul\":3757:3819   */\n      or\n        /* \"#utility.yul\":3754:3842   */\n      iszero\n      tag_588\n      jumpi\n        /* \"#utility.yul\":3822:3840   */\n      tag_589\n      tag_455\n      jump\t// in\n    tag_589:\n        /* \"#utility.yul\":3754:3842   */\n    tag_588:\n        /* \"#utility.yul\":3862:3872   */\n      dup1\n        /* \"#utility.yul\":3858:3860   */\n      0x40\n        /* \"#utility.yul\":3851:3873   */\n      mstore\n        /* \"#utility.yul\":3641:3879   */\n      pop\n        /* \"#utility.yul\":3598:3879   */\n      pop\n      pop\n      jump\t// out\n        /* \"#utility.yul\":3885:4014   */\n    tag_457:\n        /* \"#utility.yul\":3919:3925   */\n      0x00\n        /* \"#utility.yul\":3946:3966   */\n      tag_591\n      tag_438\n      jump\t// in\n    tag_591:\n        /* \"#utility.yul\":3936:3966   */\n      swap1\n      pop\n        /* \"#utility.yul\":3975:4008   */\n      tag_592\n        /* \"#utility.yul\":4003:4007   */\n      dup3\n        /* \"#utility.yul\":3995:4001   */\n      dup3\n        /* \"#utility.yul\":3975:4008   */\n      tag_456\n      jump\t// in\n    tag_592:\n        /* \"#utility.yul\":3885:4014   */\n      swap2\n      swap1\n      pop\n      jump\t// out\n        /* \"#utility.yul\":4020:4341   */\n    tag_458:\n        /* \"#utility.yul\":4107:4111   */\n      0x00\n        /* \"#utility.yul\":4197:4215   */\n      0xffffffffffffffff\n        /* \"#utility.yul\":4189:4195   */\n      dup3\n        /* \"#utility.yul\":4186:4216   */\n      gt\n        /* \"#utility.yul\":4183:4239   */\n      iszero\n      tag_594\n      jumpi\n        /* \"#utility.yul\":4219:4237   */\n      tag_595\n      tag_455\n      jump\t// in\n    tag_595:\n        /* \"#utility.yul\":4183:4239   */\n    tag_594:\n        /* \"#utility.yul\":4269:4273   */\n      0x20\n        /* \"#utility.yul\":4261:4267   */\n      dup3\n        /* \"#utility.yul\":4257:4274   */\n      mul\n        /* \"#utility.yul\":4249:4274   */\n      swap1\n      pop\n        /* \"#utility.yul\":4329:4333   */\n      0x20\n        /* \"#utility.yul\":4323:4327   */\n      dup2\n        /* \"#utility.yul\":4319:4334   */\n      add\n        /* \"#utility.yul\":4311:4334   */\n      swap1\n      pop\n        /* \"#utility.yul\":4020:4341   */\n      swap2\n      swap1\n      pop\n      jump\t// out\n        /* \"#utility.yul\":4347:4464   */\n    tag_459:\n        /* \"#utility.yul\":4456:4457   */\n      0x00\n        /* \"#utility.yul\":4453:4454   */\n      dup1\n        /* \"#utility.yul\":4446:4458   */\n      revert\n        /* \"#utility.yul\":4470:4587   */\n    tag_460:\n        /* \"#utility.yul\":4579:4580   */\n      0x00\n        /* \"#utility.yul\":4576:4577   */\n      dup1\n        /* \"#utility.yul\":4569:4581   */\n      revert\n        /* \"#utility.yul\":4593:4901   */\n    tag_461:\n        /* \"#utility.yul\":4655:4659   */\n      0x00\n        /* \"#utility.yul\":4745:4763   */\n      0xffffffffffffffff\n        /* \"#utility.yul\":4737:4743   */\n      dup3\n        /* \"#utility.yul\":4734:4764   */\n      gt\n        /* \"#utility.yul\":4731:4787   */\n      iszero\n      tag_599\n      jumpi\n        /* \"#utility.yul\":4767:4785   */\n      tag_600\n      tag_455\n      jump\t// in\n    tag_600:\n        /* \"#utility.yul\":4731:4787   */\n    tag_599:\n        /* \"#utility.yul\":4805:4834   */\n      tag_601\n        /* \"#utility.yul\":4827:4833   */\n      dup3\n        /* \"#utility.yul\":4805:4834   */\n      tag_454\n      jump\t// in\n    tag_601:\n        /* \"#utility.yul\":4797:4834   */\n      swap1\n      pop\n        /* \"#utility.yul\":4889:4893   */\n      0x20\n        /* \"#utility.yul\":4883:4887   */\n      dup2\n        /* \"#utility.yul\":4879:4894   */\n      add\n        /* \"#utility.yul\":4871:4894   */\n      swap1\n      pop\n        /* \"#utility.yul\":4593:4901   */\n      swap2\n      swap1\n      pop\n      jump\t// out\n        /* \"#utility.yul\":4907:5055   */\n    tag_462:\n        /* \"#utility.yul\":5005:5011   */\n      dup3\n        /* \"#utility.yul\":5000:5003   */\n      dup2\n        /* \"#utility.yul\":4995:4998   */\n      dup4\n        /* \"#utility.yul\":4982:5012   */\n      calldatacopy\n        /* \"#utility.yul\":5046:5047   */\n      0x00\n        /* \"#utility.yul\":5037:5043   */\n      dup4\n        /* \"#utility.yul\":5032:5035   */\n      dup4\n        /* \"#utility.yul\":5028:5044   */\n      add\n        /* \"#utility.yul\":5021:5048   */\n      mstore\n        /* \"#utility.yul\":4907:5055   */\n      pop\n      pop\n      pop\n      jump\t// out\n        /* \"#utility.yul\":5061:5486   */\n    tag_463:\n        /* \"#utility.yul\":5139:5144   */\n      0x00\n        /* \"#utility.yul\":5164:5230   */\n      tag_604\n        /* \"#utility.yul\":5180:5229   */\n      tag_605\n        /* \"#utility.yul\":5222:5228   */\n      dup5\n        /* \"#utility.yul\":5180:5229   */\n      tag_461\n      jump\t// in\n    tag_605:\n        /* \"#utility.yul\":5164:5230   */\n      tag_457\n      jump\t// in\n    tag_604:\n        /* \"#utility.yul\":5155:5230   */\n      swap1\n      pop\n        /* \"#utility.yul\":5253:5259   */\n      dup3\n        /* \"#utility.yul\":5246:5251   */\n      dup2\n        /* \"#utility.yul\":5239:5260   */\n      mstore\n        /* \"#utility.yul\":5291:5295   */\n      0x20\n        /* \"#utility.yul\":5284:5289   */\n      dup2\n        /* \"#utility.yul\":5280:5296   */\n      add\n        /* \"#utility.yul\":5329:5332   */\n      dup5\n        /* \"#utility.yul\":5320:5326   */\n      dup5\n        /* \"#utility.yul\":5315:5318   */\n      dup5\n        /* \"#utility.yul\":5311:5327   */\n      add\n        /* \"#utility.yul\":5308:5333   */\n      gt\n        /* \"#utility.yul\":5305:5417   */\n      iszero\n      tag_606\n      jumpi\n        /* \"#utility.yul\":5336:5415   */\n      tag_607\n      tag_460\n      jump\t// in\n    tag_607:\n        /* \"#utility.yul\":5305:5417   */\n    tag_606:\n        /* \"#utility.yul\":5426:5480   */\n      tag_608\n        /* \"#utility.yul\":5473:5479   */\n      dup5\n        /* \"#utility.yul\":5468:5471   */\n      dup3\n        /* \"#utility.yul\":5463:5466   */\n      dup6\n        /* \"#utility.yul\":5426:5480   */\n      tag_462\n      jump\t// in\n    tag_608:\n        /* \"#utility.yul\":5145:5486   */\n      pop\n        /* \"#utility.yul\":5061:5486   */\n      swap4\n      swap3\n      pop\n      pop\n      pop\n      jump\t// out\n        /* \"#utility.yul\":5506:5846   */\n    tag_464:\n        /* \"#utility.yul\":5562:5567   */\n      0x00\n        /* \"#utility.yul\":5611:5614   */\n      dup3\n        /* \"#utility.yul\":5604:5608   */\n      0x1f\n        /* \"#utility.yul\":5596:5602   */\n      dup4\n        /* \"#utility.yul\":5592:5609   */\n      add\n        /* \"#utility.yul\":5588:5615   */\n      slt\n        /* \"#utility.yul\":5578:5700   */\n      tag_610\n      jumpi\n        /* \"#utility.yul\":5619:5698   */\n      tag_611\n      tag_453\n      jump\t// in\n    tag_611:\n        /* \"#utility.yul\":5578:5700   */\n    tag_610:\n        /* \"#utility.yul\":5736:5742   */\n      dup2\n        /* \"#utility.yul\":5723:5743   */\n      calldataload\n        /* \"#utility.yul\":5761:5840   */\n      tag_612\n        /* \"#utility.yul\":5836:5839   */\n      dup5\n        /* \"#utility.yul\":5828:5834   */\n      dup3\n        /* \"#utility.yul\":5821:5825   */\n      0x20\n        /* \"#utility.yul\":5813:5819   */\n      dup7\n        /* \"#utility.yul\":5809:5826   */\n      add\n        /* \"#utility.yul\":5761:5840   */\n      tag_463\n      jump\t// in\n    tag_612:\n        /* \"#utility.yul\":5752:5840   */\n      swap2\n      pop\n        /* \"#utility.yul\":5568:5846   */\n      pop\n        /* \"#utility.yul\":5506:5846   */\n      swap3\n      swap2\n      pop\n      pop\n      jump\t// out\n        /* \"#utility.yul\":5868:6813   */\n    tag_465:\n        /* \"#utility.yul\":5974:5979   */\n      0x00\n        /* \"#utility.yul\":5999:6090   */\n      tag_614\n        /* \"#utility.yul\":6015:6089   */\n      tag_615\n        /* \"#utility.yul\":6082:6088   */\n      dup5\n        /* \"#utility.yul\":6015:6089   */\n      tag_458\n      jump\t// in\n    tag_615:\n        /* \"#utility.yul\":5999:6090   */\n      tag_457\n      jump\t// in\n    tag_614:\n        /* \"#utility.yul\":5990:6090   */\n      swap1\n      pop\n        /* \"#utility.yul\":6110:6115   */\n      dup1\n        /* \"#utility.yul\":6139:6145   */\n      dup4\n        /* \"#utility.yul\":6132:6137   */\n      dup3\n        /* \"#utility.yul\":6125:6146   */\n      mstore\n        /* \"#utility.yul\":6173:6177   */\n      0x20\n        /* \"#utility.yul\":6166:6171   */\n      dup3\n        /* \"#utility.yul\":6162:6178   */\n      add\n        /* \"#utility.yul\":6155:6178   */\n      swap1\n      pop\n        /* \"#utility.yul\":6226:6230   */\n      0x20\n        /* \"#utility.yul\":6218:6224   */\n      dup5\n        /* \"#utility.yul\":6214:6231   */\n      mul\n        /* \"#utility.yul\":6206:6212   */\n      dup4\n        /* \"#utility.yul\":6202:6232   */\n      add\n        /* \"#utility.yul\":6255:6258   */\n      dup6\n        /* \"#utility.yul\":6247:6253   */\n      dup2\n        /* \"#utility.yul\":6244:6259   */\n      gt\n        /* \"#utility.yul\":6241:6363   */\n      iszero\n      tag_616\n      jumpi\n        /* \"#utility.yul\":6274:6353   */\n      tag_617\n      tag_459\n      jump\t// in\n    tag_617:\n        /* \"#utility.yul\":6241:6363   */\n    tag_616:\n        /* \"#utility.yul\":6389:6395   */\n      dup4\n        /* \"#utility.yul\":6372:6807   */\n    tag_618:\n        /* \"#utility.yul\":6406:6412   */\n      dup2\n        /* \"#utility.yul\":6401:6404   */\n      dup2\n        /* \"#utility.yul\":6398:6413   */\n      lt\n        /* \"#utility.yul\":6372:6807   */\n      iszero\n      tag_620\n      jumpi\n        /* \"#utility.yul\":6495:6498   */\n      dup1\n        /* \"#utility.yul\":6482:6499   */\n      calldataload\n        /* \"#utility.yul\":6531:6549   */\n      0xffffffffffffffff\n        /* \"#utility.yul\":6518:6529   */\n      dup2\n        /* \"#utility.yul\":6515:6550   */\n      gt\n        /* \"#utility.yul\":6512:6634   */\n      iszero\n      tag_621\n      jumpi\n        /* \"#utility.yul\":6553:6632   */\n      tag_622\n      tag_453\n      jump\t// in\n    tag_622:\n        /* \"#utility.yul\":6512:6634   */\n    tag_621:\n        /* \"#utility.yul\":6677:6688   */\n      dup1\n        /* \"#utility.yul\":6669:6675   */\n      dup7\n        /* \"#utility.yul\":6665:6689   */\n      add\n        /* \"#utility.yul\":6715:6762   */\n      tag_623\n        /* \"#utility.yul\":6758:6761   */\n      dup10\n        /* \"#utility.yul\":6746:6756   */\n      dup3\n        /* \"#utility.yul\":6715:6762   */\n      tag_464\n      jump\t// in\n    tag_623:\n        /* \"#utility.yul\":6710:6713   */\n      dup6\n        /* \"#utility.yul\":6703:6763   */\n      mstore\n        /* \"#utility.yul\":6792:6796   */\n      0x20\n        /* \"#utility.yul\":6787:6790   */\n      dup6\n        /* \"#utility.yul\":6783:6797   */\n      add\n        /* \"#utility.yul\":6776:6797   */\n      swap5\n      pop\n        /* \"#utility.yul\":6448:6807   */\n      pop\n      pop\n        /* \"#utility.yul\":6432:6436   */\n      0x20\n        /* \"#utility.yul\":6427:6430   */\n      dup2\n        /* \"#utility.yul\":6423:6437   */\n      add\n        /* \"#utility.yul\":6416:6437   */\n      swap1\n      pop\n        /* \"#utility.yul\":6372:6807   */\n      jump(tag_618)\n    tag_620:\n        /* \"#utility.yul\":6376:6397   */\n      pop\n        /* \"#utility.yul\":5980:6813   */\n      pop\n      pop\n        /* \"#utility.yul\":5868:6813   */\n      swap4\n      swap3\n      pop\n      pop\n      pop\n      jump\t// out\n        /* \"#utility.yul\":6835:7225   */\n    tag_466:\n        /* \"#utility.yul\":6916:6921   */\n      0x00\n        /* \"#utility.yul\":6965:6968   */\n      dup3\n        /* \"#utility.yul\":6958:6962   */\n      0x1f\n        /* \"#utility.yul\":6950:6956   */\n      dup4\n        /* \"#utility.yul\":6946:6963   */\n      add\n        /* \"#utility.yul\":6942:6969   */\n      slt\n        /* \"#utility.yul\":6932:7054   */\n      tag_625\n      jumpi\n        /* \"#utility.yul\":6973:7052   */\n      tag_626\n      tag_453\n      jump\t// in\n    tag_626:\n        /* \"#utility.yul\":6932:7054   */\n    tag_625:\n        /* \"#utility.yul\":7090:7096   */\n      dup2\n        /* \"#utility.yul\":7077:7097   */\n      calldataload\n        /* \"#utility.yul\":7115:7219   */\n      tag_627\n        /* \"#utility.yul\":7215:7218   */\n      dup5\n        /* \"#utility.yul\":7207:7213   */\n      dup3\n        /* \"#utility.yul\":7200:7204   */\n      0x20\n        /* \"#utility.yul\":7192:7198   */\n      dup7\n        /* \"#utility.yul\":7188:7205   */\n      add\n        /* \"#utility.yul\":7115:7219   */\n      tag_465\n      jump\t// in\n    tag_627:\n        /* \"#utility.yul\":7106:7219   */\n      swap2\n      pop\n        /* \"#utility.yul\":6922:7225   */\n      pop\n        /* \"#utility.yul\":6835:7225   */\n      swap3\n      swap2\n      pop\n      pop\n      jump\t// out\n        /* \"#utility.yul\":7231:7935   */\n    tag_67:\n        /* \"#utility.yul\":7334:7340   */\n      0x00\n        /* \"#utility.yul\":7342:7348   */\n      dup1\n        /* \"#utility.yul\":7391:7393   */\n      0x40\n        /* \"#utility.yul\":7379:7388   */\n      dup4\n        /* \"#utility.yul\":7370:7377   */\n      dup6\n        /* \"#utility.yul\":7366:7389   */\n      sub\n        /* \"#utility.yul\":7362:7394   */\n      slt\n        /* \"#utility.yul\":7359:7478   */\n      iszero\n      tag_629\n      jumpi\n        /* \"#utility.yul\":7397:7476   */\n      tag_630\n      tag_439\n      jump\t// in\n    tag_630:\n        /* \"#utility.yul\":7359:7478   */\n    tag_629:\n        /* \"#utility.yul\":7517:7518   */\n      0x00\n        /* \"#utility.yul\":7542:7595   */\n      tag_631\n        /* \"#utility.yul\":7587:7594   */\n      dup6\n        /* \"#utility.yul\":7578:7584   */\n      dup3\n        /* \"#utility.yul\":7567:7576   */\n      dup7\n        /* \"#utility.yul\":7563:7585   */\n      add\n        /* \"#utility.yul\":7542:7595   */\n      tag_447\n      jump\t// in\n    tag_631:\n        /* \"#utility.yul\":7532:7595   */\n      swap3\n      pop\n        /* \"#utility.yul\":7488:7605   */\n      pop\n        /* \"#utility.yul\":7672:7674   */\n      0x20\n        /* \"#utility.yul\":7661:7670   */\n      dup4\n        /* \"#utility.yul\":7657:7675   */\n      add\n        /* \"#utility.yul\":7644:7676   */\n      calldataload\n        /* \"#utility.yul\":7703:7721   */\n      0xffffffffffffffff\n        /* \"#utility.yul\":7695:7701   */\n      dup2\n        /* \"#utility.yul\":7692:7722   */\n      gt\n        /* \"#utility.yul\":7689:7806   */\n      iszero\n      tag_632\n      jumpi\n        /* \"#utility.yul\":7725:7804   */\n      tag_633\n      tag_440\n      jump\t// in\n    tag_633:\n        /* \"#utility.yul\":7689:7806   */\n    tag_632:\n        /* \"#utility.yul\":7830:7918   */\n      tag_634\n        /* \"#utility.yul\":7910:7917   */\n      dup6\n        /* \"#utility.yul\":7901:7907   */\n      dup3\n        /* \"#utility.yul\":7890:7899   */\n      dup7\n        /* \"#utility.yul\":7886:7908   */\n      add\n        /* \"#utility.yul\":7830:7918   */\n      tag_466\n      jump\t// in\n    tag_634:\n        /* \"#utility.yul\":7820:7918   */\n      swap2\n      pop\n        /* \"#utility.yul\":7615:7928   */\n      pop\n        /* \"#utility.yul\":7231:7935   */\n      swap3\n      pop\n      swap3\n      swap1\n      pop\n      jump\t// out\n        /* \"#utility.yul\":7941:8270   */\n    tag_71:\n        /* \"#utility.yul\":8000:8006   */\n      0x00\n        /* \"#utility.yul\":8049:8051   */\n      0x20\n        /* \"#utility.yul\":8037:8046   */\n      dup3\n        /* \"#utility.yul\":8028:8035   */\n      dup5\n        /* \"#utility.yul\":8024:8047   */\n      sub\n        /* \"#utility.yul\":8020:8052   */\n      slt\n        /* \"#utility.yul\":8017:8136   */\n      iszero\n      tag_636\n      jumpi\n        /* \"#utility.yul\":8055:8134   */\n      tag_637\n      tag_439\n      jump\t// in\n    tag_637:\n        /* \"#utility.yul\":8017:8136   */\n    tag_636:\n        /* \"#utility.yul\":8175:8176   */\n      0x00\n        /* \"#utility.yul\":8200:8253   */\n      tag_638\n        /* \"#utility.yul\":8245:8252   */\n      dup5\n        /* \"#utility.yul\":8236:8242   */\n      dup3\n        /* \"#utility.yul\":8225:8234   */\n      dup6\n        /* \"#utility.yul\":8221:8243   */\n      add\n        /* \"#utility.yul\":8200:8253   */\n      tag_447\n      jump\t// in\n    tag_638:\n        /* \"#utility.yul\":8190:8253   */\n      swap2\n      pop\n        /* \"#utility.yul\":8146:8263   */\n      pop\n        /* \"#utility.yul\":7941:8270   */\n      swap3\n      swap2\n      pop\n      pop\n      jump\t// out\n        /* \"#utility.yul\":8276:11039   */\n    tag_86:\n        /* \"#utility.yul\":8609:8615   */\n      0x00\n        /* \"#utility.yul\":8617:8623   */\n      dup1\n        /* \"#utility.yul\":8625:8631   */\n      0x00\n        /* \"#utility.yul\":8633:8639   */\n      dup1\n        /* \"#utility.yul\":8641:8647   */\n      0x00\n        /* \"#utility.yul\":8649:8655   */\n      dup1\n        /* \"#utility.yul\":8657:8663   */\n      0x00\n        /* \"#utility.yul\":8706:8709   */\n      0xe0\n        /* \"#utility.yul\":8694:8703   */\n      dup9\n        /* \"#utility.yul\":8685:8692   */\n      dup11\n        /* \"#utility.yul\":8681:8704   */\n      sub\n        /* \"#utility.yul\":8677:8710   */\n      slt\n        /* \"#utility.yul\":8674:8794   */\n      iszero\n      tag_640\n      jumpi\n        /* \"#utility.yul\":8713:8792   */\n      tag_641\n      tag_439\n      jump\t// in\n    tag_641:\n        /* \"#utility.yul\":8674:8794   */\n    tag_640:\n        /* \"#utility.yul\":8861:8862   */\n      0x00\n        /* \"#utility.yul\":8850:8859   */\n      dup9\n        /* \"#utility.yul\":8846:8863   */\n      add\n        /* \"#utility.yul\":8833:8864   */\n      calldataload\n        /* \"#utility.yul\":8891:8909   */\n      0xffffffffffffffff\n        /* \"#utility.yul\":8883:8889   */\n      dup2\n        /* \"#utility.yul\":8880:8910   */\n      gt\n        /* \"#utility.yul\":8877:8994   */\n      iszero\n      tag_642\n      jumpi\n        /* \"#utility.yul\":8913:8992   */\n      tag_643\n      tag_440\n      jump\t// in\n    tag_643:\n        /* \"#utility.yul\":8877:8994   */\n    tag_642:\n        /* \"#utility.yul\":9018:9081   */\n      tag_644\n        /* \"#utility.yul\":9073:9080   */\n      dup11\n        /* \"#utility.yul\":9064:9070   */\n      dup3\n        /* \"#utility.yul\":9053:9062   */\n      dup12\n        /* \"#utility.yul\":9049:9071   */\n      add\n        /* \"#utility.yul\":9018:9081   */\n      tag_464\n      jump\t// in\n    tag_644:\n        /* \"#utility.yul\":9008:9081   */\n      swap8\n      pop\n        /* \"#utility.yul\":8804:9091   */\n      pop\n        /* \"#utility.yul\":9158:9160   */\n      0x20\n        /* \"#utility.yul\":9147:9156   */\n      dup9\n        /* \"#utility.yul\":9143:9161   */\n      add\n        /* \"#utility.yul\":9130:9162   */\n      calldataload\n        /* \"#utility.yul\":9189:9207   */\n      0xffffffffffffffff\n        /* \"#utility.yul\":9181:9187   */\n      dup2\n        /* \"#utility.yul\":9178:9208   */\n      gt\n        /* \"#utility.yul\":9175:9292   */\n      iszero\n      tag_645\n      jumpi\n        /* \"#utility.yul\":9211:9290   */\n      tag_646\n      tag_440\n      jump\t// in\n    tag_646:\n        /* \"#utility.yul\":9175:9292   */\n    tag_645:\n        /* \"#utility.yul\":9316:9404   */\n      tag_647\n        /* \"#utility.yul\":9396:9403   */\n      dup11\n        /* \"#utility.yul\":9387:9393   */\n      dup3\n        /* \"#utility.yul\":9376:9385   */\n      dup12\n        /* \"#utility.yul\":9372:9394   */\n      add\n        /* \"#utility.yul\":9316:9404   */\n      tag_466\n      jump\t// in\n    tag_647:\n        /* \"#utility.yul\":9306:9404   */\n      swap7\n      pop\n        /* \"#utility.yul\":9101:9414   */\n      pop\n        /* \"#utility.yul\":9481:9483   */\n      0x40\n        /* \"#utility.yul\":9470:9479   */\n      dup9\n        /* \"#utility.yul\":9466:9484   */\n      add\n        /* \"#utility.yul\":9453:9485   */\n      calldataload\n        /* \"#utility.yul\":9512:9530   */\n      0xffffffffffffffff\n        /* \"#utility.yul\":9504:9510   */\n      dup2\n        /* \"#utility.yul\":9501:9531   */\n      gt\n        /* \"#utility.yul\":9498:9615   */\n      iszero\n      tag_648\n      jumpi\n        /* \"#utility.yul\":9534:9613   */\n      tag_649\n      tag_440\n      jump\t// in\n    tag_649:\n        /* \"#utility.yul\":9498:9615   */\n    tag_648:\n        /* \"#utility.yul\":9639:9727   */\n      tag_650\n        /* \"#utility.yul\":9719:9726   */\n      dup11\n        /* \"#utility.yul\":9710:9716   */\n      dup3\n        /* \"#utility.yul\":9699:9708   */\n      dup12\n        /* \"#utility.yul\":9695:9717   */\n      add\n        /* \"#utility.yul\":9639:9727   */\n      tag_466\n      jump\t// in\n    tag_650:\n        /* \"#utility.yul\":9629:9727   */\n      swap6\n      pop\n        /* \"#utility.yul\":9424:9737   */\n      pop\n        /* \"#utility.yul\":9804:9806   */\n      0x60\n        /* \"#utility.yul\":9793:9802   */\n      dup9\n        /* \"#utility.yul\":9789:9807   */\n      add\n        /* \"#utility.yul\":9776:9808   */\n      calldataload\n        /* \"#utility.yul\":9835:9853   */\n      0xffffffffffffffff\n        /* \"#utility.yul\":9827:9833   */\n      dup2\n        /* \"#utility.yul\":9824:9854   */\n      gt\n        /* \"#utility.yul\":9821:9938   */\n      iszero\n      tag_651\n      jumpi\n        /* \"#utility.yul\":9857:9936   */\n      tag_652\n      tag_440\n      jump\t// in\n    tag_652:\n        /* \"#utility.yul\":9821:9938   */\n    tag_651:\n        /* \"#utility.yul\":9962:10050   */\n      tag_653\n        /* \"#utility.yul\":10042:10049   */\n      dup11\n        /* \"#utility.yul\":10033:10039   */\n      dup3\n        /* \"#utility.yul\":10022:10031   */\n      dup12\n        /* \"#utility.yul\":10018:10040   */\n      add\n        /* \"#utility.yul\":9962:10050   */\n      tag_466\n      jump\t// in\n    tag_653:\n        /* \"#utility.yul\":9952:10050   */\n      swap5\n      pop\n        /* \"#utility.yul\":9747:10060   */\n      pop\n        /* \"#utility.yul\":10127:10130   */\n      0x80\n        /* \"#utility.yul\":10116:10125   */\n      dup9\n        /* \"#utility.yul\":10112:10131   */\n      add\n        /* \"#utility.yul\":10099:10132   */\n      calldataload\n        /* \"#utility.yul\":10159:10177   */\n      0xffffffffffffffff\n        /* \"#utility.yul\":10151:10157   */\n      dup2\n        /* \"#utility.yul\":10148:10178   */\n      gt\n        /* \"#utility.yul\":10145:10262   */\n      iszero\n      tag_654\n      jumpi\n        /* \"#utility.yul\":10181:10260   */\n      tag_655\n      tag_440\n      jump\t// in\n    tag_655:\n        /* \"#utility.yul\":10145:10262   */\n    tag_654:\n        /* \"#utility.yul\":10286:10374   */\n      tag_656\n        /* \"#utility.yul\":10366:10373   */\n      dup11\n        /* \"#utility.yul\":10357:10363   */\n      dup3\n        /* \"#utility.yul\":10346:10355   */\n      dup12\n        /* \"#utility.yul\":10342:10364   */\n      add\n        /* \"#utility.yul\":10286:10374   */\n      tag_466\n      jump\t// in\n    tag_656:\n        /* \"#utility.yul\":10276:10374   */\n      swap4\n      pop\n        /* \"#utility.yul\":10070:10384   */\n      pop\n        /* \"#utility.yul\":10451:10454   */\n      0xa0\n        /* \"#utility.yul\":10440:10449   */\n      dup9\n        /* \"#utility.yul\":10436:10455   */\n      add\n        /* \"#utility.yul\":10423:10456   */\n      calldataload\n        /* \"#utility.yul\":10483:10501   */\n      0xffffffffffffffff\n        /* \"#utility.yul\":10475:10481   */\n      dup2\n        /* \"#utility.yul\":10472:10502   */\n      gt\n        /* \"#utility.yul\":10469:10586   */\n      iszero\n      tag_657\n      jumpi\n        /* \"#utility.yul\":10505:10584   */\n      tag_658\n      tag_440\n      jump\t// in\n    tag_658:\n        /* \"#utility.yul\":10469:10586   */\n    tag_657:\n        /* \"#utility.yul\":10610:10698   */\n      tag_659\n        /* \"#utility.yul\":10690:10697   */\n      dup11\n        /* \"#utility.yul\":10681:10687   */\n      dup3\n        /* \"#utility.yul\":10670:10679   */\n      dup12\n        /* \"#utility.yul\":10666:10688   */\n      add\n        /* \"#utility.yul\":10610:10698   */\n      tag_466\n      jump\t// in\n    tag_659:\n        /* \"#utility.yul\":10600:10698   */\n      swap3\n      pop\n        /* \"#utility.yul\":10394:10708   */\n      pop\n        /* \"#utility.yul\":10775:10778   */\n      0xc0\n        /* \"#utility.yul\":10764:10773   */\n      dup9\n        /* \"#utility.yul\":10760:10779   */\n      add\n        /* \"#utility.yul\":10747:10780   */\n      calldataload\n        /* \"#utility.yul\":10807:10825   */\n      0xffffffffffffffff\n        /* \"#utility.yul\":10799:10805   */\n      dup2\n        /* \"#utility.yul\":10796:10826   */\n      gt\n        /* \"#utility.yul\":10793:10910   */\n      iszero\n      tag_660\n      jumpi\n        /* \"#utility.yul\":10829:10908   */\n      tag_661\n      tag_440\n      jump\t// in\n    tag_661:\n        /* \"#utility.yul\":10793:10910   */\n    tag_660:\n        /* \"#utility.yul\":10934:11022   */\n      tag_662\n        /* \"#utility.yul\":11014:11021   */\n      dup11\n        /* \"#utility.yul\":11005:11011   */\n      dup3\n        /* \"#utility.yul\":10994:11003   */\n      dup12\n        /* \"#utility.yul\":10990:11012   */\n      add\n        /* \"#utility.yul\":10934:11022   */\n      tag_466\n      jump\t// in\n    tag_662:\n        /* \"#utility.yul\":10924:11022   */\n      swap2\n      pop\n        /* \"#utility.yul\":10718:11032   */\n      pop\n        /* \"#utility.yul\":8276:11039   */\n      swap3\n      swap6\n      swap9\n      swap2\n      swap5\n      swap8\n      pop\n      swap3\n      swap6\n      pop\n      jump\t// out\n        /* \"#utility.yul\":11045:11105   */\n    tag_467:\n        /* \"#utility.yul\":11073:11076   */\n      0x00\n        /* \"#utility.yul\":11094:11099   */\n      dup2\n        /* \"#utility.yul\":11087:11099   */\n      swap1\n      pop\n        /* \"#utility.yul\":11045:11105   */\n      swap2\n      swap1\n      pop\n      jump\t// out\n        /* \"#utility.yul\":11111:11253   */\n    tag_468:\n        /* \"#utility.yul\":11161:11170   */\n      0x00\n        /* \"#utility.yul\":11194:11247   */\n      tag_665\n        /* \"#utility.yul\":11212:11246   */\n      tag_666\n        /* \"#utility.yul\":11221:11245   */\n      tag_667\n        /* \"#utility.yul\":11239:11244   */\n      dup5\n        /* \"#utility.yul\":11221:11245   */\n      tag_441\n      jump\t// in\n    tag_667:\n        /* \"#utility.yul\":11212:11246   */\n      tag_467\n      jump\t// in\n    tag_666:\n        /* \"#utility.yul\":11194:11247   */\n      tag_441\n      jump\t// in\n    tag_665:\n        /* \"#utility.yul\":11181:11247   */\n      swap1\n      pop\n        /* \"#utility.yul\":11111:11253   */\n      swap2\n      swap1\n      pop\n      jump\t// out\n        /* \"#utility.yul\":11259:11385   */\n    tag_469:\n        /* \"#utility.yul\":11309:11318   */\n      0x00\n        /* \"#utility.yul\":11342:11379   */\n      tag_669\n        /* \"#utility.yul\":11373:11378   */\n      dup3\n        /* \"#utility.yul\":11342:11379   */\n      tag_468\n      jump\t// in\n    tag_669:\n        /* \"#utility.yul\":11329:11379   */\n      swap1\n      pop\n        /* \"#utility.yul\":11259:11385   */\n      swap2\n      swap1\n      pop\n      jump\t// out\n        /* \"#utility.yul\":11391:11544   */\n    tag_470:\n        /* \"#utility.yul\":11468:11477   */\n      0x00\n        /* \"#utility.yul\":11501:11538   */\n      tag_671\n        /* \"#utility.yul\":11532:11537   */\n      dup3\n        /* \"#utility.yul\":11501:11538   */\n      tag_469\n      jump\t// in\n    tag_671:\n        /* \"#utility.yul\":11488:11538   */\n      swap1\n      pop\n        /* \"#utility.yul\":11391:11544   */\n      swap2\n      swap1\n      pop\n      jump\t// out\n        /* \"#utility.yul\":11550:11735   */\n    tag_471:\n        /* \"#utility.yul\":11664:11728   */\n      tag_673\n        /* \"#utility.yul\":11722:11727   */\n      dup2\n        /* \"#utility.yul\":11664:11728   */\n      tag_470\n      jump\t// in\n    tag_673:\n        /* \"#utility.yul\":11659:11662   */\n      dup3\n        /* \"#utility.yul\":11652:11729   */\n      mstore\n        /* \"#utility.yul\":11550:11735   */\n      pop\n      pop\n      jump\t// out\n        /* \"#utility.yul\":11741:12017   */\n    tag_95:\n        /* \"#utility.yul\":11861:11865   */\n      0x00\n        /* \"#utility.yul\":11899:11901   */\n      0x20\n        /* \"#utility.yul\":11888:11897   */\n      dup3\n        /* \"#utility.yul\":11884:11902   */\n      add\n        /* \"#utility.yul\":11876:11902   */\n      swap1\n      pop\n        /* \"#utility.yul\":11912:12010   */\n      tag_675\n        /* \"#utility.yul\":12007:12008   */\n      0x00\n        /* \"#utility.yul\":11996:12005   */\n      dup4\n        /* \"#utility.yul\":11992:12009   */\n      add\n        /* \"#utility.yul\":11983:11989   */\n      dup5\n        /* \"#utility.yul\":11912:12010   */\n      tag_471\n      jump\t// in\n    tag_675:\n        /* \"#utility.yul\":11741:12017   */\n      swap3\n      swap2\n      pop\n      pop\n      jump\t// out\n        /* \"#utility.yul\":12023:12141   */\n    tag_472:\n        /* \"#utility.yul\":12110:12134   */\n      tag_677\n        /* \"#utility.yul\":12128:12133   */\n      dup2\n        /* \"#utility.yul\":12110:12134   */\n      tag_442\n      jump\t// in\n    tag_677:\n        /* \"#utility.yul\":12105:12108   */\n      dup3\n        /* \"#utility.yul\":12098:12135   */\n      mstore\n        /* \"#utility.yul\":12023:12141   */\n      pop\n      pop\n      jump\t// out\n        /* \"#utility.yul\":12147:12369   */\n    tag_100:\n        /* \"#utility.yul\":12240:12244   */\n      0x00\n        /* \"#utility.yul\":12278:12280   */\n      0x20\n        /* \"#utility.yul\":12267:12276   */\n      dup3\n        /* \"#utility.yul\":12263:12281   */\n      add\n        /* \"#utility.yul\":12255:12281   */\n      swap1\n      pop\n        /* \"#utility.yul\":12291:12362   */\n      tag_679\n        /* \"#utility.yul\":12359:12360   */\n      0x00\n        /* \"#utility.yul\":12348:12357   */\n      dup4\n        /* \"#utility.yul\":12344:12361   */\n      add\n        /* \"#utility.yul\":12335:12341   */\n      dup5\n        /* \"#utility.yul\":12291:12362   */\n      tag_472\n      jump\t// in\n    tag_679:\n        /* \"#utility.yul\":12147:12369   */\n      swap3\n      swap2\n      pop\n      pop\n      jump\t// out\n        /* \"#utility.yul\":12375:12704   */\n    tag_104:\n        /* \"#utility.yul\":12434:12440   */\n      0x00\n        /* \"#utility.yul\":12483:12485   */\n      0x20\n        /* \"#utility.yul\":12471:12480   */\n      dup3\n        /* \"#utility.yul\":12462:12469   */\n      dup5\n        /* \"#utility.yul\":12458:12481   */\n      sub\n        /* \"#utility.yul\":12454:12486   */\n      slt\n        /* \"#utility.yul\":12451:12570   */\n      iszero\n      tag_681\n      jumpi\n        /* \"#utility.yul\":12489:12568   */\n      tag_682\n      tag_439\n      jump\t// in\n    tag_682:\n        /* \"#utility.yul\":12451:12570   */\n    tag_681:\n        /* \"#utility.yul\":12609:12610   */\n      0x00\n        /* \"#utility.yul\":12634:12687   */\n      tag_683\n        /* \"#utility.yul\":12679:12686   */\n      dup5\n        /* \"#utility.yul\":12670:12676   */\n      dup3\n        /* \"#utility.yul\":12659:12668   */\n      dup6\n        /* \"#utility.yul\":12655:12677   */\n      add\n        /* \"#utility.yul\":12634:12687   */\n      tag_444\n      jump\t// in\n    tag_683:\n        /* \"#utility.yul\":12624:12687   */\n      swap2\n      pop\n        /* \"#utility.yul\":12580:12697   */\n      pop\n        /* \"#utility.yul\":12375:12704   */\n      swap3\n      swap2\n      pop\n      pop\n      jump\t// out\n        /* \"#utility.yul\":12710:12809   */\n    tag_473:\n        /* \"#utility.yul\":12762:12768   */\n      0x00\n        /* \"#utility.yul\":12796:12801   */\n      dup2\n        /* \"#utility.yul\":12790:12802   */\n      mload\n        /* \"#utility.yul\":12780:12802   */\n      swap1\n      pop\n        /* \"#utility.yul\":12710:12809   */\n      swap2\n      swap1\n      pop\n      jump\t// out\n        /* \"#utility.yul\":12815:12984   */\n    tag_474:\n        /* \"#utility.yul\":12899:12910   */\n      0x00\n        /* \"#utility.yul\":12933:12939   */\n      dup3\n        /* \"#utility.yul\":12928:12931   */\n      dup3\n        /* \"#utility.yul\":12921:12940   */\n      mstore\n        /* \"#utility.yul\":12973:12977   */\n      0x20\n        /* \"#utility.yul\":12968:12971   */\n      dup3\n        /* \"#utility.yul\":12964:12978   */\n      add\n        /* \"#utility.yul\":12949:12978   */\n      swap1\n      pop\n        /* \"#utility.yul\":12815:12984   */\n      swap3\n      swap2\n      pop\n      pop\n      jump\t// out\n        /* \"#utility.yul\":12990:13129   */\n    tag_475:\n        /* \"#utility.yul\":13079:13085   */\n      dup3\n        /* \"#utility.yul\":13074:13077   */\n      dup2\n        /* \"#utility.yul\":13069:13072   */\n      dup4\n        /* \"#utility.yul\":13063:13086   */\n      mcopy\n        /* \"#utility.yul\":13120:13121   */\n      0x00\n        /* \"#utility.yul\":13111:13117   */\n      dup4\n        /* \"#utility.yul\":13106:13109   */\n      dup4\n        /* \"#utility.yul\":13102:13118   */\n      add\n        /* \"#utility.yul\":13095:13122   */\n      mstore\n        /* \"#utility.yul\":12990:13129   */\n      pop\n      pop\n      pop\n      jump\t// out\n        /* \"#utility.yul\":13135:13512   */\n    tag_476:\n        /* \"#utility.yul\":13223:13226   */\n      0x00\n        /* \"#utility.yul\":13251:13290   */\n      tag_688\n        /* \"#utility.yul\":13284:13289   */\n      dup3\n        /* \"#utility.yul\":13251:13290   */\n      tag_473\n      jump\t// in\n    tag_688:\n        /* \"#utility.yul\":13306:13377   */\n      tag_689\n        /* \"#utility.yul\":13370:13376   */\n      dup2\n        /* \"#utility.yul\":13365:13368   */\n      dup6\n        /* \"#utility.yul\":13306:13377   */\n      tag_474\n      jump\t// in\n    tag_689:\n        /* \"#utility.yul\":13299:13377   */\n      swap4\n      pop\n        /* \"#utility.yul\":13386:13451   */\n      tag_690\n        /* \"#utility.yul\":13444:13450   */\n      dup2\n        /* \"#utility.yul\":13439:13442   */\n      dup6\n        /* \"#utility.yul\":13432:13436   */\n      0x20\n        /* \"#utility.yul\":13425:13430   */\n      dup7\n        /* \"#utility.yul\":13421:13437   */\n      add\n        /* \"#utility.yul\":13386:13451   */\n      tag_475\n      jump\t// in\n    tag_690:\n        /* \"#utility.yul\":13476:13505   */\n      tag_691\n        /* \"#utility.yul\":13498:13504   */\n      dup2\n        /* \"#utility.yul\":13476:13505   */\n      tag_454\n      jump\t// in\n    tag_691:\n        /* \"#utility.yul\":13471:13474   */\n      dup5\n        /* \"#utility.yul\":13467:13506   */\n      add\n        /* \"#utility.yul\":13460:13506   */\n      swap2\n      pop\n        /* \"#utility.yul\":13227:13512   */\n      pop\n        /* \"#utility.yul\":13135:13512   */\n      swap3\n      swap2\n      pop\n      pop\n      jump\t// out\n        /* \"#utility.yul\":13518:14372   */\n    tag_111:\n        /* \"#utility.yul\":13765:13769   */\n      0x00\n        /* \"#utility.yul\":13803:13806   */\n      0xc0\n        /* \"#utility.yul\":13792:13801   */\n      dup3\n        /* \"#utility.yul\":13788:13807   */\n      add\n        /* \"#utility.yul\":13780:13807   */\n      swap1\n      pop\n        /* \"#utility.yul\":13817:13888   */\n      tag_693\n        /* \"#utility.yul\":13885:13886   */\n      0x00\n        /* \"#utility.yul\":13874:13883   */\n      dup4\n        /* \"#utility.yul\":13870:13887   */\n      add\n        /* \"#utility.yul\":13861:13867   */\n      dup10\n        /* \"#utility.yul\":13817:13888   */\n      tag_472\n      jump\t// in\n    tag_693:\n        /* \"#utility.yul\":13935:13944   */\n      dup2\n        /* \"#utility.yul\":13929:13933   */\n      dup2\n        /* \"#utility.yul\":13925:13945   */\n      sub\n        /* \"#utility.yul\":13920:13922   */\n      0x20\n        /* \"#utility.yul\":13909:13918   */\n      dup4\n        /* \"#utility.yul\":13905:13923   */\n      add\n        /* \"#utility.yul\":13898:13946   */\n      mstore\n        /* \"#utility.yul\":13963:14041   */\n      tag_694\n        /* \"#utility.yul\":14036:14040   */\n      dup2\n        /* \"#utility.yul\":14027:14033   */\n      dup9\n        /* \"#utility.yul\":13963:14041   */\n      tag_476\n      jump\t// in\n    tag_694:\n        /* \"#utility.yul\":13955:14041   */\n      swap1\n      pop\n        /* \"#utility.yul\":14051:14117   */\n      tag_695\n        /* \"#utility.yul\":14113:14115   */\n      0x40\n        /* \"#utility.yul\":14102:14111   */\n      dup4\n        /* \"#utility.yul\":14098:14116   */\n      add\n        /* \"#utility.yul\":14089:14095   */\n      dup8\n        /* \"#utility.yul\":14051:14117   */\n      tag_449\n      jump\t// in\n    tag_695:\n        /* \"#utility.yul\":14127:14199   */\n      tag_696\n        /* \"#utility.yul\":14195:14197   */\n      0x60\n        /* \"#utility.yul\":14184:14193   */\n      dup4\n        /* \"#utility.yul\":14180:14198   */\n      add\n        /* \"#utility.yul\":14171:14177   */\n      dup7\n        /* \"#utility.yul\":14127:14199   */\n      tag_452\n      jump\t// in\n    tag_696:\n        /* \"#utility.yul\":14209:14282   */\n      tag_697\n        /* \"#utility.yul\":14277:14280   */\n      0x80\n        /* \"#utility.yul\":14266:14275   */\n      dup4\n        /* \"#utility.yul\":14262:14281   */\n      add\n        /* \"#utility.yul\":14253:14259   */\n      dup6\n        /* \"#utility.yul\":14209:14282   */\n      tag_452\n      jump\t// in\n    tag_697:\n        /* \"#utility.yul\":14292:14365   */\n      tag_698\n        /* \"#utility.yul\":14360:14363   */\n      0xa0\n        /* \"#utility.yul\":14349:14358   */\n      dup4\n        /* \"#utility.yul\":14345:14364   */\n      add\n        /* \"#utility.yul\":14336:14342   */\n      dup5\n        /* \"#utility.yul\":14292:14365   */\n      tag_452\n      jump\t// in\n    tag_698:\n        /* \"#utility.yul\":13518:14372   */\n      swap8\n      swap7\n      pop\n      pop\n      pop\n      pop\n      pop\n      pop\n      pop\n      jump\t// out\n        /* \"#utility.yul\":14378:14852   */\n    tag_127:\n        /* \"#utility.yul\":14446:14452   */\n      0x00\n        /* \"#utility.yul\":14454:14460   */\n      dup1\n        /* \"#utility.yul\":14503:14505   */\n      0x40\n        /* \"#utility.yul\":14491:14500   */\n      dup4\n        /* \"#utility.yul\":14482:14489   */\n      dup6\n        /* \"#utility.yul\":14478:14501   */\n      sub\n        /* \"#utility.yul\":14474:14506   */\n      slt\n        /* \"#utility.yul\":14471:14590   */\n      iszero\n      tag_700\n      jumpi\n        /* \"#utility.yul\":14509:14588   */\n      tag_701\n      tag_439\n      jump\t// in\n    tag_701:\n        /* \"#utility.yul\":14471:14590   */\n    tag_700:\n        /* \"#utility.yul\":14629:14630   */\n      0x00\n        /* \"#utility.yul\":14654:14707   */\n      tag_702\n        /* \"#utility.yul\":14699:14706   */\n      dup6\n        /* \"#utility.yul\":14690:14696   */\n      dup3\n        /* \"#utility.yul\":14679:14688   */\n      dup7\n        /* \"#utility.yul\":14675:14697   */\n      add\n        /* \"#utility.yul\":14654:14707   */\n      tag_447\n      jump\t// in\n    tag_702:\n        /* \"#utility.yul\":14644:14707   */\n      swap3\n      pop\n        /* \"#utility.yul\":14600:14717   */\n      pop\n        /* \"#utility.yul\":14756:14758   */\n      0x20\n        /* \"#utility.yul\":14782:14835   */\n      tag_703\n        /* \"#utility.yul\":14827:14834   */\n      dup6\n        /* \"#utility.yul\":14818:14824   */\n      dup3\n        /* \"#utility.yul\":14807:14816   */\n      dup7\n        /* \"#utility.yul\":14803:14825   */\n      add\n        /* \"#utility.yul\":14782:14835   */\n      tag_447\n      jump\t// in\n    tag_703:\n        /* \"#utility.yul\":14772:14835   */\n      swap2\n      pop\n        /* \"#utility.yul\":14727:14845   */\n      pop\n        /* \"#utility.yul\":14378:14852   */\n      swap3\n      pop\n      swap3\n      swap1\n      pop\n      jump\t// out\n        /* \"#utility.yul\":14858:14935   */\n    tag_477:\n        /* \"#utility.yul\":14895:14902   */\n      0x00\n        /* \"#utility.yul\":14924:14929   */\n      dup2\n        /* \"#utility.yul\":14913:14929   */\n      swap1\n      pop\n        /* \"#utility.yul\":14858:14935   */\n      swap2\n      swap1\n      pop\n      jump\t// out\n        /* \"#utility.yul\":14941:15059   */\n    tag_478:\n        /* \"#utility.yul\":15028:15052   */\n      tag_706\n        /* \"#utility.yul\":15046:15051   */\n      dup2\n        /* \"#utility.yul\":15028:15052   */\n      tag_477\n      jump\t// in\n    tag_706:\n        /* \"#utility.yul\":15023:15026   */\n      dup3\n        /* \"#utility.yul\":15016:15053   */\n      mstore\n        /* \"#utility.yul\":14941:15059   */\n      pop\n      pop\n      jump\t// out\n        /* \"#utility.yul\":15065:16406   */\n    tag_130:\n        /* \"#utility.yul\":15426:15430   */\n      0x00\n        /* \"#utility.yul\":15464:15467   */\n      0xe0\n        /* \"#utility.yul\":15453:15462   */\n      dup3\n        /* \"#utility.yul\":15449:15468   */\n      add\n        /* \"#utility.yul\":15441:15468   */\n      swap1\n      pop\n        /* \"#utility.yul\":15478:15549   */\n      tag_708\n        /* \"#utility.yul\":15546:15547   */\n      0x00\n        /* \"#utility.yul\":15535:15544   */\n      dup4\n        /* \"#utility.yul\":15531:15548   */\n      add\n        /* \"#utility.yul\":15522:15528   */\n      dup11\n        /* \"#utility.yul\":15478:15549   */\n      tag_452\n      jump\t// in\n    tag_708:\n        /* \"#utility.yul\":15596:15605   */\n      dup2\n        /* \"#utility.yul\":15590:15594   */\n      dup2\n        /* \"#utility.yul\":15586:15606   */\n      sub\n        /* \"#utility.yul\":15581:15583   */\n      0x20\n        /* \"#utility.yul\":15570:15579   */\n      dup4\n        /* \"#utility.yul\":15566:15584   */\n      add\n        /* \"#utility.yul\":15559:15607   */\n      mstore\n        /* \"#utility.yul\":15624:15702   */\n      tag_709\n        /* \"#utility.yul\":15697:15701   */\n      dup2\n        /* \"#utility.yul\":15688:15694   */\n      dup10\n        /* \"#utility.yul\":15624:15702   */\n      tag_476\n      jump\t// in\n    tag_709:\n        /* \"#utility.yul\":15616:15702   */\n      swap1\n      pop\n        /* \"#utility.yul\":15749:15758   */\n      dup2\n        /* \"#utility.yul\":15743:15747   */\n      dup2\n        /* \"#utility.yul\":15739:15759   */\n      sub\n        /* \"#utility.yul\":15734:15736   */\n      0x40\n        /* \"#utility.yul\":15723:15732   */\n      dup4\n        /* \"#utility.yul\":15719:15737   */\n      add\n        /* \"#utility.yul\":15712:15760   */\n      mstore\n        /* \"#utility.yul\":15777:15855   */\n      tag_710\n        /* \"#utility.yul\":15850:15854   */\n      dup2\n        /* \"#utility.yul\":15841:15847   */\n      dup9\n        /* \"#utility.yul\":15777:15855   */\n      tag_476\n      jump\t// in\n    tag_710:\n        /* \"#utility.yul\":15769:15855   */\n      swap1\n      pop\n        /* \"#utility.yul\":15902:15911   */\n      dup2\n        /* \"#utility.yul\":15896:15900   */\n      dup2\n        /* \"#utility.yul\":15892:15912   */\n      sub\n        /* \"#utility.yul\":15887:15889   */\n      0x60\n        /* \"#utility.yul\":15876:15885   */\n      dup4\n        /* \"#utility.yul\":15872:15890   */\n      add\n        /* \"#utility.yul\":15865:15913   */\n      mstore\n        /* \"#utility.yul\":15930:16008   */\n      tag_711\n        /* \"#utility.yul\":16003:16007   */\n      dup2\n        /* \"#utility.yul\":15994:16000   */\n      dup8\n        /* \"#utility.yul\":15930:16008   */\n      tag_476\n      jump\t// in\n    tag_711:\n        /* \"#utility.yul\":15922:16008   */\n      swap1\n      pop\n        /* \"#utility.yul\":16056:16065   */\n      dup2\n        /* \"#utility.yul\":16050:16054   */\n      dup2\n        /* \"#utility.yul\":16046:16066   */\n      sub\n        /* \"#utility.yul\":16040:16043   */\n      0x80\n        /* \"#utility.yul\":16029:16038   */\n      dup4\n        /* \"#utility.yul\":16025:16044   */\n      add\n        /* \"#utility.yul\":16018:16067   */\n      mstore\n        /* \"#utility.yul\":16084:16162   */\n      tag_712\n        /* \"#utility.yul\":16157:16161   */\n      dup2\n        /* \"#utility.yul\":16148:16154   */\n      dup7\n        /* \"#utility.yul\":16084:16162   */\n      tag_476\n      jump\t// in\n    tag_712:\n        /* \"#utility.yul\":16076:16162   */\n      swap1\n      pop\n        /* \"#utility.yul\":16210:16219   */\n      dup2\n        /* \"#utility.yul\":16204:16208   */\n      dup2\n        /* \"#utility.yul\":16200:16220   */\n      sub\n        /* \"#utility.yul\":16194:16197   */\n      0xa0\n        /* \"#utility.yul\":16183:16192   */\n      dup4\n        /* \"#utility.yul\":16179:16198   */\n      add\n        /* \"#utility.yul\":16172:16221   */\n      mstore\n        /* \"#utility.yul\":16238:16316   */\n      tag_713\n        /* \"#utility.yul\":16311:16315   */\n      dup2\n        /* \"#utility.yul\":16302:16308   */\n      dup6\n        /* \"#utility.yul\":16238:16316   */\n      tag_476\n      jump\t// in\n    tag_713:\n        /* \"#utility.yul\":16230:16316   */\n      swap1\n      pop\n        /* \"#utility.yul\":16326:16399   */\n      tag_714\n        /* \"#utility.yul\":16394:16397   */\n      0xc0\n        /* \"#utility.yul\":16383:16392   */\n      dup4\n        /* \"#utility.yul\":16379:16398   */\n      add\n        /* \"#utility.yul\":16370:16376   */\n      dup5\n        /* \"#utility.yul\":16326:16399   */\n      tag_478\n      jump\t// in\n    tag_714:\n        /* \"#utility.yul\":15065:16406   */\n      swap9\n      swap8\n      pop\n      pop\n      pop\n      pop\n      pop\n      pop\n      pop\n      pop\n      jump\t// out\n        /* \"#utility.yul\":16412:16592   */\n    tag_479:\n        /* \"#utility.yul\":16460:16537   */\n      0x4e487b7100000000000000000000000000000000000000000000000000000000\n        /* \"#utility.yul\":16457:16458   */\n      0x00\n        /* \"#utility.yul\":16450:16538   */\n      mstore\n        /* \"#utility.yul\":16557:16561   */\n      0x11\n        /* \"#utility.yul\":16554:16555   */\n      0x04\n        /* \"#utility.yul\":16547:16562   */\n      mstore\n        /* \"#utility.yul\":16581:16585   */\n      0x24\n        /* \"#utility.yul\":16578:16579   */\n      0x00\n        /* \"#utility.yul\":16571:16586   */\n      revert\n        /* \"#utility.yul\":16598:16789   */\n    tag_148:\n        /* \"#utility.yul\":16638:16641   */\n      0x00\n        /* \"#utility.yul\":16657:16677   */\n      tag_717\n        /* \"#utility.yul\":16675:16676   */\n      dup3\n        /* \"#utility.yul\":16657:16677   */\n      tag_445\n      jump\t// in\n    tag_717:\n        /* \"#utility.yul\":16652:16677   */\n      swap2\n      pop\n        /* \"#utility.yul\":16691:16711   */\n      tag_718\n        /* \"#utility.yul\":16709:16710   */\n      dup4\n        /* \"#utility.yul\":16691:16711   */\n      tag_445\n      jump\t// in\n    tag_718:\n        /* \"#utility.yul\":16686:16711   */\n      swap3\n      pop\n        /* \"#utility.yul\":16734:16735   */\n      dup3\n        /* \"#utility.yul\":16731:16732   */\n      dup3\n        /* \"#utility.yul\":16727:16736   */\n      add\n        /* \"#utility.yul\":16720:16736   */\n      swap1\n      pop\n        /* \"#utility.yul\":16755:16758   */\n      dup1\n        /* \"#utility.yul\":16752:16753   */\n      dup3\n        /* \"#utility.yul\":16749:16759   */\n      gt\n        /* \"#utility.yul\":16746:16782   */\n      iszero\n      tag_719\n      jumpi\n        /* \"#utility.yul\":16762:16780   */\n      tag_720\n      tag_479\n      jump\t// in\n    tag_720:\n        /* \"#utility.yul\":16746:16782   */\n    tag_719:\n        /* \"#utility.yul\":16598:16789   */\n      swap3\n      swap2\n      pop\n      pop\n      jump\t// out\n        /* \"#utility.yul\":16795:16976   */\n    tag_480:\n        /* \"#utility.yul\":16935:16968   */\n      0x5769746864726177616c20696e74657276616c206e6f74207265616368656400\n        /* \"#utility.yul\":16931:16932   */\n      0x00\n        /* \"#utility.yul\":16923:16929   */\n      dup3\n        /* \"#utility.yul\":16919:16933   */\n      add\n        /* \"#utility.yul\":16912:16969   */\n      mstore\n        /* \"#utility.yul\":16795:16976   */\n      pop\n      jump\t// out\n        /* \"#utility.yul\":16982:17348   */\n    tag_481:\n        /* \"#utility.yul\":17124:17127   */\n      0x00\n        /* \"#utility.yul\":17145:17212   */\n      tag_723\n        /* \"#utility.yul\":17209:17211   */\n      0x1f\n        /* \"#utility.yul\":17204:17207   */\n      dup4\n        /* \"#utility.yul\":17145:17212   */\n      tag_474\n      jump\t// in\n    tag_723:\n        /* \"#utility.yul\":17138:17212   */\n      swap2\n      pop\n        /* \"#utility.yul\":17221:17314   */\n      tag_724\n        /* \"#utility.yul\":17310:17313   */\n      dup3\n        /* \"#utility.yul\":17221:17314   */\n      tag_480\n      jump\t// in\n    tag_724:\n        /* \"#utility.yul\":17339:17341   */\n      0x20\n        /* \"#utility.yul\":17334:17337   */\n      dup3\n        /* \"#utility.yul\":17330:17342   */\n      add\n        /* \"#utility.yul\":17323:17342   */\n      swap1\n      pop\n        /* \"#utility.yul\":16982:17348   */\n      swap2\n      swap1\n      pop\n      jump\t// out\n        /* \"#utility.yul\":17354:17773   */\n    tag_151:\n        /* \"#utility.yul\":17520:17524   */\n      0x00\n        /* \"#utility.yul\":17558:17560   */\n      0x20\n        /* \"#utility.yul\":17547:17556   */\n      dup3\n        /* \"#utility.yul\":17543:17561   */\n      add\n        /* \"#utility.yul\":17535:17561   */\n      swap1\n      pop\n        /* \"#utility.yul\":17607:17616   */\n      dup2\n        /* \"#utility.yul\":17601:17605   */\n      dup2\n        /* \"#utility.yul\":17597:17617   */\n      sub\n        /* \"#utility.yul\":17593:17594   */\n      0x00\n        /* \"#utility.yul\":17582:17591   */\n      dup4\n        /* \"#utility.yul\":17578:17595   */\n      add\n        /* \"#utility.yul\":17571:17618   */\n      mstore\n        /* \"#utility.yul\":17635:17766   */\n      tag_726\n        /* \"#utility.yul\":17761:17765   */\n      dup2\n        /* \"#utility.yul\":17635:17766   */\n      tag_481\n      jump\t// in\n    tag_726:\n        /* \"#utility.yul\":17627:17766   */\n      swap1\n      pop\n        /* \"#utility.yul\":17354:17773   */\n      swap2\n      swap1\n      pop\n      jump\t// out\n        /* \"#utility.yul\":17779:17926   */\n    tag_482:\n        /* \"#utility.yul\":17880:17891   */\n      0x00\n        /* \"#utility.yul\":17917:17920   */\n      dup2\n        /* \"#utility.yul\":17902:17920   */\n      swap1\n      pop\n        /* \"#utility.yul\":17779:17926   */\n      swap3\n      swap2\n      pop\n      pop\n      jump\t// out\n        /* \"#utility.yul\":17932:18046   */\n    tag_483:\n      pop\n      jump\t// out\n        /* \"#utility.yul\":18052:18450   */\n    tag_484:\n        /* \"#utility.yul\":18211:18214   */\n      0x00\n        /* \"#utility.yul\":18232:18315   */\n      tag_730\n        /* \"#utility.yul\":18313:18314   */\n      0x00\n        /* \"#utility.yul\":18308:18311   */\n      dup4\n        /* \"#utility.yul\":18232:18315   */\n      tag_482\n      jump\t// in\n    tag_730:\n        /* \"#utility.yul\":18225:18315   */\n      swap2\n      pop\n        /* \"#utility.yul\":18324:18417   */\n      tag_731\n        /* \"#utility.yul\":18413:18416   */\n      dup3\n        /* \"#utility.yul\":18324:18417   */\n      tag_483\n      jump\t// in\n    tag_731:\n        /* \"#utility.yul\":18442:18443   */\n      0x00\n        /* \"#utility.yul\":18437:18440   */\n      dup3\n        /* \"#utility.yul\":18433:18444   */\n      add\n        /* \"#utility.yul\":18426:18444   */\n      swap1\n      pop\n        /* \"#utility.yul\":18052:18450   */\n      swap2\n      swap1\n      pop\n      jump\t// out\n        /* \"#utility.yul\":18456:18835   */\n    tag_154:\n        /* \"#utility.yul\":18640:18643   */\n      0x00\n        /* \"#utility.yul\":18662:18809   */\n      tag_733\n        /* \"#utility.yul\":18805:18808   */\n      dup3\n        /* \"#utility.yul\":18662:18809   */\n      tag_484\n      jump\t// in\n    tag_733:\n        /* \"#utility.yul\":18655:18809   */\n      swap2\n      pop\n        /* \"#utility.yul\":18826:18829   */\n      dup2\n        /* \"#utility.yul\":18819:18829   */\n      swap1\n      pop\n        /* \"#utility.yul\":18456:18835   */\n      swap2\n      swap1\n      pop\n      jump\t// out\n        /* \"#utility.yul\":18841:19018   */\n    tag_485:\n        /* \"#utility.yul\":18981:19010   */\n      0x4661696c656420746f2077697468647261772067617320666565730000000000\n        /* \"#utility.yul\":18977:18978   */\n      0x00\n        /* \"#utility.yul\":18969:18975   */\n      dup3\n        /* \"#utility.yul\":18965:18979   */\n      add\n        /* \"#utility.yul\":18958:19011   */\n      mstore\n        /* \"#utility.yul\":18841:19018   */\n      pop\n      jump\t// out\n        /* \"#utility.yul\":19024:19390   */\n    tag_486:\n        /* \"#utility.yul\":19166:19169   */\n      0x00\n        /* \"#utility.yul\":19187:19254   */\n      tag_736\n        /* \"#utility.yul\":19251:19253   */\n      0x1b\n        /* \"#utility.yul\":19246:19249   */\n      dup4\n        /* \"#utility.yul\":19187:19254   */\n      tag_474\n      jump\t// in\n    tag_736:\n        /* \"#utility.yul\":19180:19254   */\n      swap2\n      pop\n        /* \"#utility.yul\":19263:19356   */\n      tag_737\n        /* \"#utility.yul\":19352:19355   */\n      dup3\n        /* \"#utility.yul\":19263:19356   */\n      tag_485\n      jump\t// in\n    tag_737:\n        /* \"#utility.yul\":19381:19383   */\n      0x20\n        /* \"#utility.yul\":19376:19379   */\n      dup3\n        /* \"#utility.yul\":19372:19384   */\n      add\n        /* \"#utility.yul\":19365:19384   */\n      swap1\n      pop\n        /* \"#utility.yul\":19024:19390   */\n      swap2\n      swap1\n      pop\n      jump\t// out\n        /* \"#utility.yul\":19396:19815   */\n    tag_160:\n        /* \"#utility.yul\":19562:19566   */\n      0x00\n        /* \"#utility.yul\":19600:19602   */\n      0x20\n        /* \"#utility.yul\":19589:19598   */\n      dup3\n        /* \"#utility.yul\":19585:19603   */\n      add\n        /* \"#utility.yul\":19577:19603   */\n      swap1\n      pop\n        /* \"#utility.yul\":19649:19658   */\n      dup2\n        /* \"#utility.yul\":19643:19647   */\n      dup2\n        /* \"#utility.yul\":19639:19659   */\n      sub\n        /* \"#utility.yul\":19635:19636   */\n      0x00\n        /* \"#utility.yul\":19624:19633   */\n      dup4\n        /* \"#utility.yul\":19620:19637   */\n      add\n        /* \"#utility.yul\":19613:19660   */\n      mstore\n        /* \"#utility.yul\":19677:19808   */\n      tag_739\n        /* \"#utility.yul\":19803:19807   */\n      dup2\n        /* \"#utility.yul\":19677:19808   */\n      tag_486\n      jump\t// in\n    tag_739:\n        /* \"#utility.yul\":19669:19808   */\n      swap1\n      pop\n        /* \"#utility.yul\":19396:19815   */\n      swap2\n      swap1\n      pop\n      jump\t// out\n        /* \"#utility.yul\":19821:19991   */\n    tag_487:\n        /* \"#utility.yul\":19961:19983   */\n      0x496e73756666696369656e742067617320666565000000000000000000000000\n        /* \"#utility.yul\":19957:19958   */\n      0x00\n        /* \"#utility.yul\":19949:19955   */\n      dup3\n        /* \"#utility.yul\":19945:19959   */\n      add\n        /* \"#utility.yul\":19938:19984   */\n      mstore\n        /* \"#utility.yul\":19821:19991   */\n      pop\n      jump\t// out\n        /* \"#utility.yul\":19997:20363   */\n    tag_488:\n        /* \"#utility.yul\":20139:20142   */\n      0x00\n        /* \"#utility.yul\":20160:20227   */\n      tag_742\n        /* \"#utility.yul\":20224:20226   */\n      0x14\n        /* \"#utility.yul\":20219:20222   */\n      dup4\n        /* \"#utility.yul\":20160:20227   */\n      tag_474\n      jump\t// in\n    tag_742:\n        /* \"#utility.yul\":20153:20227   */\n      swap2\n      pop\n        /* \"#utility.yul\":20236:20329   */\n      tag_743\n        /* \"#utility.yul\":20325:20328   */\n      dup3\n        /* \"#utility.yul\":20236:20329   */\n      tag_487\n      jump\t// in\n    tag_743:\n        /* \"#utility.yul\":20354:20356   */\n      0x20\n        /* \"#utility.yul\":20349:20352   */\n      dup3\n        /* \"#utility.yul\":20345:20357   */\n      add\n        /* \"#utility.yul\":20338:20357   */\n      swap1\n      pop\n        /* \"#utility.yul\":19997:20363   */\n      swap2\n      swap1\n      pop\n      jump\t// out\n        /* \"#utility.yul\":20369:20788   */\n    tag_171:\n        /* \"#utility.yul\":20535:20539   */\n      0x00\n        /* \"#utility.yul\":20573:20575   */\n      0x20\n        /* \"#utility.yul\":20562:20571   */\n      dup3\n        /* \"#utility.yul\":20558:20576   */\n      add\n        /* \"#utility.yul\":20550:20576   */\n      swap1\n      pop\n        /* \"#utility.yul\":20622:20631   */\n      dup2\n        /* \"#utility.yul\":20616:20620   */\n      dup2\n        /* \"#utility.yul\":20612:20632   */\n      sub\n        /* \"#utility.yul\":20608:20609   */\n      0x00\n        /* \"#utility.yul\":20597:20606   */\n      dup4\n        /* \"#utility.yul\":20593:20610   */\n      add\n        /* \"#utility.yul\":20586:20633   */\n      mstore\n        /* \"#utility.yul\":20650:20781   */\n      tag_745\n        /* \"#utility.yul\":20776:20780   */\n      dup2\n        /* \"#utility.yul\":20650:20781   */\n      tag_488\n      jump\t// in\n    tag_745:\n        /* \"#utility.yul\":20642:20781   */\n      swap1\n      pop\n        /* \"#utility.yul\":20369:20788   */\n      swap2\n      swap1\n      pop\n      jump\t// out\n        /* \"#utility.yul\":20794:20988   */\n    tag_174:\n        /* \"#utility.yul\":20834:20838   */\n      0x00\n        /* \"#utility.yul\":20854:20874   */\n      tag_747\n        /* \"#utility.yul\":20872:20873   */\n      dup3\n        /* \"#utility.yul\":20854:20874   */\n      tag_445\n      jump\t// in\n    tag_747:\n        /* \"#utility.yul\":20849:20874   */\n      swap2\n      pop\n        /* \"#utility.yul\":20888:20908   */\n      tag_748\n        /* \"#utility.yul\":20906:20907   */\n      dup4\n        /* \"#utility.yul\":20888:20908   */\n      tag_445\n      jump\t// in\n    tag_748:\n        /* \"#utility.yul\":20883:20908   */\n      swap3\n      pop\n        /* \"#utility.yul\":20932:20933   */\n      dup3\n        /* \"#utility.yul\":20929:20930   */\n      dup3\n        /* \"#utility.yul\":20925:20934   */\n      sub\n        /* \"#utility.yul\":20917:20934   */\n      swap1\n      pop\n        /* \"#utility.yul\":20956:20957   */\n      dup2\n        /* \"#utility.yul\":20950:20954   */\n      dup2\n        /* \"#utility.yul\":20947:20958   */\n      gt\n        /* \"#utility.yul\":20944:20981   */\n      iszero\n      tag_749\n      jumpi\n        /* \"#utility.yul\":20961:20979   */\n      tag_750\n      tag_479\n      jump\t// in\n    tag_750:\n        /* \"#utility.yul\":20944:20981   */\n    tag_749:\n        /* \"#utility.yul\":20794:20988   */\n      swap3\n      swap2\n      pop\n      pop\n      jump\t// out\n        /* \"#utility.yul\":20994:21176   */\n    tag_489:\n        /* \"#utility.yul\":21134:21168   */\n      0x55736572206e6f7420656e726f6c6c656420696e207468697320636f75727365\n        /* \"#utility.yul\":21130:21131   */\n      0x00\n        /* \"#utility.yul\":21122:21128   */\n      dup3\n        /* \"#utility.yul\":21118:21132   */\n      add\n        /* \"#utility.yul\":21111:21169   */\n      mstore\n        /* \"#utility.yul\":20994:21176   */\n      pop\n      jump\t// out\n        /* \"#utility.yul\":21182:21548   */\n    tag_490:\n        /* \"#utility.yul\":21324:21327   */\n      0x00\n        /* \"#utility.yul\":21345:21412   */\n      tag_753\n        /* \"#utility.yul\":21409:21411   */\n      0x20\n        /* \"#utility.yul\":21404:21407   */\n      dup4\n        /* \"#utility.yul\":21345:21412   */\n      tag_474\n      jump\t// in\n    tag_753:\n        /* \"#utility.yul\":21338:21412   */\n      swap2\n      pop\n        /* \"#utility.yul\":21421:21514   */\n      tag_754\n        /* \"#utility.yul\":21510:21513   */\n      dup3\n        /* \"#utility.yul\":21421:21514   */\n      tag_489\n      jump\t// in\n    tag_754:\n        /* \"#utility.yul\":21539:21541   */\n      0x20\n        /* \"#utility.yul\":21534:21537   */\n      dup3\n        /* \"#utility.yul\":21530:21542   */\n      add\n        /* \"#utility.yul\":21523:21542   */\n      swap1\n      pop\n        /* \"#utility.yul\":21182:21548   */\n      swap2\n      swap1\n      pop\n      jump\t// out\n        /* \"#utility.yul\":21554:21973   */\n    tag_181:\n        /* \"#utility.yul\":21720:21724   */\n      0x00\n        /* \"#utility.yul\":21758:21760   */\n      0x20\n        /* \"#utility.yul\":21747:21756   */\n      dup3\n        /* \"#utility.yul\":21743:21761   */\n      add\n        /* \"#utility.yul\":21735:21761   */\n      swap1\n      pop\n        /* \"#utility.yul\":21807:21816   */\n      dup2\n        /* \"#utility.yul\":21801:21805   */\n      dup2\n        /* \"#utility.yul\":21797:21817   */\n      sub\n        /* \"#utility.yul\":21793:21794   */\n      0x00\n        /* \"#utility.yul\":21782:21791   */\n      dup4\n        /* \"#utility.yul\":21778:21795   */\n      add\n        /* \"#utility.yul\":21771:21818   */\n      mstore\n        /* \"#utility.yul\":21835:21966   */\n      tag_756\n        /* \"#utility.yul\":21961:21965   */\n      dup2\n        /* \"#utility.yul\":21835:21966   */\n      tag_490\n      jump\t// in\n    tag_756:\n        /* \"#utility.yul\":21827:21966   */\n      swap1\n      pop\n        /* \"#utility.yul\":21554:21973   */\n      swap2\n      swap1\n      pop\n      jump\t// out\n        /* \"#utility.yul\":21979:22153   */\n    tag_491:\n        /* \"#utility.yul\":22119:22145   */\n      0x4d6178696d756d20617474656d70747320726561636865640000000000000000\n        /* \"#utility.yul\":22115:22116   */\n      0x00\n        /* \"#utility.yul\":22107:22113   */\n      dup3\n        /* \"#utility.yul\":22103:22117   */\n      add\n        /* \"#utility.yul\":22096:22146   */\n      mstore\n        /* \"#utility.yul\":21979:22153   */\n      pop\n      jump\t// out\n        /* \"#utility.yul\":22159:22525   */\n    tag_492:\n        /* \"#utility.yul\":22301:22304   */\n      0x00\n        /* \"#utility.yul\":22322:22389   */\n      tag_759\n        /* \"#utility.yul\":22386:22388   */\n      0x18\n        /* \"#utility.yul\":22381:22384   */\n      dup4\n        /* \"#utility.yul\":22322:22389   */\n      tag_474\n      jump\t// in\n    tag_759:\n        /* \"#utility.yul\":22315:22389   */\n      swap2\n      pop\n        /* \"#utility.yul\":22398:22491   */\n      tag_760\n        /* \"#utility.yul\":22487:22490   */\n      dup3\n        /* \"#utility.yul\":22398:22491   */\n      tag_491\n      jump\t// in\n    tag_760:\n        /* \"#utility.yul\":22516:22518   */\n      0x20\n        /* \"#utility.yul\":22511:22514   */\n      dup3\n        /* \"#utility.yul\":22507:22519   */\n      add\n        /* \"#utility.yul\":22500:22519   */\n      swap1\n      pop\n        /* \"#utility.yul\":22159:22525   */\n      swap2\n      swap1\n      pop\n      jump\t// out\n        /* \"#utility.yul\":22531:22950   */\n    tag_184:\n        /* \"#utility.yul\":22697:22701   */\n      0x00\n        /* \"#utility.yul\":22735:22737   */\n      0x20\n        /* \"#utility.yul\":22724:22733   */\n      dup3\n        /* \"#utility.yul\":22720:22738   */\n      add\n        /* \"#utility.yul\":22712:22738   */\n      swap1\n      pop\n        /* \"#utility.yul\":22784:22793   */\n      dup2\n        /* \"#utility.yul\":22778:22782   */\n      dup2\n        /* \"#utility.yul\":22774:22794   */\n      sub\n        /* \"#utility.yul\":22770:22771   */\n      0x00\n        /* \"#utility.yul\":22759:22768   */\n      dup4\n        /* \"#utility.yul\":22755:22772   */\n      add\n        /* \"#utility.yul\":22748:22795   */\n      mstore\n        /* \"#utility.yul\":22812:22943   */\n      tag_762\n        /* \"#utility.yul\":22938:22942   */\n      dup2\n        /* \"#utility.yul\":22812:22943   */\n      tag_492\n      jump\t// in\n    tag_762:\n        /* \"#utility.yul\":22804:22943   */\n      swap1\n      pop\n        /* \"#utility.yul\":22531:22950   */\n      swap2\n      swap1\n      pop\n      jump\t// out\n        /* \"#utility.yul\":22956:23178   */\n    tag_493:\n        /* \"#utility.yul\":23096:23130   */\n      0x557365722068617320616c726561647920706173736564207468697320636f75\n        /* \"#utility.yul\":23092:23093   */\n      0x00\n        /* \"#utility.yul\":23084:23090   */\n      dup3\n        /* \"#utility.yul\":23080:23094   */\n      add\n        /* \"#utility.yul\":23073:23131   */\n      mstore\n        /* \"#utility.yul\":23165:23170   */\n      0x7273650000000000000000000000000000000000000000000000000000000000\n        /* \"#utility.yul\":23160:23162   */\n      0x20\n        /* \"#utility.yul\":23152:23158   */\n      dup3\n        /* \"#utility.yul\":23148:23163   */\n      add\n        /* \"#utility.yul\":23141:23171   */\n      mstore\n        /* \"#utility.yul\":22956:23178   */\n      pop\n      jump\t// out\n        /* \"#utility.yul\":23184:23550   */\n    tag_494:\n        /* \"#utility.yul\":23326:23329   */\n      0x00\n        /* \"#utility.yul\":23347:23414   */\n      tag_765\n        /* \"#utility.yul\":23411:23413   */\n      0x23\n        /* \"#utility.yul\":23406:23409   */\n      dup4\n        /* \"#utility.yul\":23347:23414   */\n      tag_474\n      jump\t// in\n    tag_765:\n        /* \"#utility.yul\":23340:23414   */\n      swap2\n      pop\n        /* \"#utility.yul\":23423:23516   */\n      tag_766\n        /* \"#utility.yul\":23512:23515   */\n      dup3\n        /* \"#utility.yul\":23423:23516   */\n      tag_493\n      jump\t// in\n    tag_766:\n        /* \"#utility.yul\":23541:23543   */\n      0x40\n        /* \"#utility.yul\":23536:23539   */\n      dup3\n        /* \"#utility.yul\":23532:23544   */\n      add\n        /* \"#utility.yul\":23525:23544   */\n      swap1\n      pop\n        /* \"#utility.yul\":23184:23550   */\n      swap2\n      swap1\n      pop\n      jump\t// out\n        /* \"#utility.yul\":23556:23975   */\n    tag_187:\n        /* \"#utility.yul\":23722:23726   */\n      0x00\n        /* \"#utility.yul\":23760:23762   */\n      0x20\n        /* \"#utility.yul\":23749:23758   */\n      dup3\n        /* \"#utility.yul\":23745:23763   */\n      add\n        /* \"#utility.yul\":23737:23763   */\n      swap1\n      pop\n        /* \"#utility.yul\":23809:23818   */\n      dup2\n        /* \"#utility.yul\":23803:23807   */\n      dup2\n        /* \"#utility.yul\":23799:23819   */\n      sub\n        /* \"#utility.yul\":23795:23796   */\n      0x00\n        /* \"#utility.yul\":23784:23793   */\n      dup4\n        /* \"#utility.yul\":23780:23797   */\n      add\n        /* \"#utility.yul\":23773:23820   */\n      mstore\n        /* \"#utility.yul\":23837:23968   */\n      tag_768\n        /* \"#utility.yul\":23963:23967   */\n      dup2\n        /* \"#utility.yul\":23837:23968   */\n      tag_494\n      jump\t// in\n    tag_768:\n        /* \"#utility.yul\":23829:23968   */\n      swap1\n      pop\n        /* \"#utility.yul\":23556:23975   */\n      swap2\n      swap1\n      pop\n      jump\t// out\n        /* \"#utility.yul\":23981:24148   */\n    tag_189:\n        /* \"#utility.yul\":24018:24021   */\n      0x00\n        /* \"#utility.yul\":24041:24063   */\n      tag_770\n        /* \"#utility.yul\":24057:24062   */\n      dup3\n        /* \"#utility.yul\":24041:24063   */\n      tag_450\n      jump\t// in\n    tag_770:\n        /* \"#utility.yul\":24032:24063   */\n      swap2\n      pop\n        /* \"#utility.yul\":24085:24089   */\n      0xff\n        /* \"#utility.yul\":24078:24083   */\n      dup3\n        /* \"#utility.yul\":24075:24090   */\n      sub\n        /* \"#utility.yul\":24072:24113   */\n      tag_771\n      jumpi\n        /* \"#utility.yul\":24093:24111   */\n      tag_772\n      tag_479\n      jump\t// in\n    tag_772:\n        /* \"#utility.yul\":24072:24113   */\n    tag_771:\n        /* \"#utility.yul\":24140:24141   */\n      0x01\n        /* \"#utility.yul\":24133:24138   */\n      dup3\n        /* \"#utility.yul\":24129:24142   */\n      add\n        /* \"#utility.yul\":24122:24142   */\n      swap1\n      pop\n        /* \"#utility.yul\":23981:24148   */\n      swap2\n      swap1\n      pop\n      jump\t// out\n        /* \"#utility.yul\":24154:24334   */\n    tag_495:\n        /* \"#utility.yul\":24202:24279   */\n      0x4e487b7100000000000000000000000000000000000000000000000000000000\n        /* \"#utility.yul\":24199:24200   */\n      0x00\n        /* \"#utility.yul\":24192:24280   */\n      mstore\n        /* \"#utility.yul\":24299:24303   */\n      0x22\n        /* \"#utility.yul\":24296:24297   */\n      0x04\n        /* \"#utility.yul\":24289:24304   */\n      mstore\n        /* \"#utility.yul\":24323:24327   */\n      0x24\n        /* \"#utility.yul\":24320:24321   */\n      0x00\n        /* \"#utility.yul\":24313:24328   */\n      revert\n        /* \"#utility.yul\":24340:24660   */\n    tag_194:\n        /* \"#utility.yul\":24384:24390   */\n      0x00\n        /* \"#utility.yul\":24421:24422   */\n      0x02\n        /* \"#utility.yul\":24415:24419   */\n      dup3\n        /* \"#utility.yul\":24411:24423   */\n      div\n        /* \"#utility.yul\":24401:24423   */\n      swap1\n      pop\n        /* \"#utility.yul\":24468:24469   */\n      0x01\n        /* \"#utility.yul\":24462:24466   */\n      dup3\n        /* \"#utility.yul\":24458:24470   */\n      and\n        /* \"#utility.yul\":24489:24507   */\n      dup1\n        /* \"#utility.yul\":24479:24560   */\n      tag_775\n      jumpi\n        /* \"#utility.yul\":24545:24549   */\n      0x7f\n        /* \"#utility.yul\":24537:24543   */\n      dup3\n        /* \"#utility.yul\":24533:24550   */\n      and\n        /* \"#utility.yul\":24523:24550   */\n      swap2\n      pop\n        /* \"#utility.yul\":24479:24560   */\n    tag_775:\n        /* \"#utility.yul\":24607:24609   */\n      0x20\n        /* \"#utility.yul\":24599:24605   */\n      dup3\n        /* \"#utility.yul\":24596:24610   */\n      lt\n        /* \"#utility.yul\":24576:24594   */\n      dup2\n        /* \"#utility.yul\":24573:24611   */\n      sub\n        /* \"#utility.yul\":24570:24654   */\n      tag_776\n      jumpi\n        /* \"#utility.yul\":24626:24644   */\n      tag_777\n      tag_495\n      jump\t// in\n    tag_777:\n        /* \"#utility.yul\":24570:24654   */\n    tag_776:\n        /* \"#utility.yul\":24391:24660   */\n      pop\n        /* \"#utility.yul\":24340:24660   */\n      swap2\n      swap1\n      pop\n      jump\t// out\n        /* \"#utility.yul\":24666:24837   */\n    tag_496:\n        /* \"#utility.yul\":24806:24829   */\n      0x416e7377657220636f756e74206d69736d617463680000000000000000000000\n        /* \"#utility.yul\":24802:24803   */\n      0x00\n        /* \"#utility.yul\":24794:24800   */\n      dup3\n        /* \"#utility.yul\":24790:24804   */\n      add\n        /* \"#utility.yul\":24783:24830   */\n      mstore\n        /* \"#utility.yul\":24666:24837   */\n      pop\n      jump\t// out\n        /* \"#utility.yul\":24843:25209   */\n    tag_497:\n        /* \"#utility.yul\":24985:24988   */\n      0x00\n        /* \"#utility.yul\":25006:25073   */\n      tag_780\n        /* \"#utility.yul\":25070:25072   */\n      0x15\n        /* \"#utility.yul\":25065:25068   */\n      dup4\n        /* \"#utility.yul\":25006:25073   */\n      tag_474\n      jump\t// in\n    tag_780:\n        /* \"#utility.yul\":24999:25073   */\n      swap2\n      pop\n        /* \"#utility.yul\":25082:25175   */\n      tag_781\n        /* \"#utility.yul\":25171:25174   */\n      dup3\n        /* \"#utility.yul\":25082:25175   */\n      tag_496\n      jump\t// in\n    tag_781:\n        /* \"#utility.yul\":25200:25202   */\n      0x20\n        /* \"#utility.yul\":25195:25198   */\n      dup3\n        /* \"#utility.yul\":25191:25203   */\n      add\n        /* \"#utility.yul\":25184:25203   */\n      swap1\n      pop\n        /* \"#utility.yul\":24843:25209   */\n      swap2\n      swap1\n      pop\n      jump\t// out\n        /* \"#utility.yul\":25215:25634   */\n    tag_221:\n        /* \"#utility.yul\":25381:25385   */\n      0x00\n        /* \"#utility.yul\":25419:25421   */\n      0x20\n        /* \"#utility.yul\":25408:25417   */\n      dup3\n        /* \"#utility.yul\":25404:25422   */\n      add\n        /* \"#utility.yul\":25396:25422   */\n      swap1\n      pop\n        /* \"#utility.yul\":25468:25477   */\n      dup2\n        /* \"#utility.yul\":25462:25466   */\n      dup2\n        /* \"#utility.yul\":25458:25478   */\n      sub\n        /* \"#utility.yul\":25454:25455   */\n      0x00\n        /* \"#utility.yul\":25443:25452   */\n      dup4\n        /* \"#utility.yul\":25439:25456   */\n      add\n        /* \"#utility.yul\":25432:25479   */\n      mstore\n        /* \"#utility.yul\":25496:25627   */\n      tag_783\n        /* \"#utility.yul\":25622:25626   */\n      dup2\n        /* \"#utility.yul\":25496:25627   */\n      tag_497\n      jump\t// in\n    tag_783:\n        /* \"#utility.yul\":25488:25627   */\n      swap1\n      pop\n        /* \"#utility.yul\":25215:25634   */\n      swap2\n      swap1\n      pop\n      jump\t// out\n        /* \"#utility.yul\":25640:25820   */\n    tag_227:\n        /* \"#utility.yul\":25688:25765   */\n      0x4e487b7100000000000000000000000000000000000000000000000000000000\n        /* \"#utility.yul\":25685:25686   */\n      0x00\n        /* \"#utility.yul\":25678:25766   */\n      mstore\n        /* \"#utility.yul\":25785:25789   */\n      0x32\n        /* \"#utility.yul\":25782:25783   */\n      0x04\n        /* \"#utility.yul\":25775:25790   */\n      mstore\n        /* \"#utility.yul\":25809:25813   */\n      0x24\n        /* \"#utility.yul\":25806:25807   */\n      0x00\n        /* \"#utility.yul\":25799:25814   */\n      revert\n        /* \"#utility.yul\":25826:25974   */\n    tag_498:\n        /* \"#utility.yul\":25928:25939   */\n      0x00\n        /* \"#utility.yul\":25965:25968   */\n      dup2\n        /* \"#utility.yul\":25950:25968   */\n      swap1\n      pop\n        /* \"#utility.yul\":25826:25974   */\n      swap3\n      swap2\n      pop\n      pop\n      jump\t// out\n        /* \"#utility.yul\":25980:26370   */\n    tag_499:\n        /* \"#utility.yul\":26086:26089   */\n      0x00\n        /* \"#utility.yul\":26114:26153   */\n      tag_787\n        /* \"#utility.yul\":26147:26152   */\n      dup3\n        /* \"#utility.yul\":26114:26153   */\n      tag_473\n      jump\t// in\n    tag_787:\n        /* \"#utility.yul\":26169:26258   */\n      tag_788\n        /* \"#utility.yul\":26251:26257   */\n      dup2\n        /* \"#utility.yul\":26246:26249   */\n      dup6\n        /* \"#utility.yul\":26169:26258   */\n      tag_498\n      jump\t// in\n    tag_788:\n        /* \"#utility.yul\":26162:26258   */\n      swap4\n      pop\n        /* \"#utility.yul\":26267:26332   */\n      tag_789\n        /* \"#utility.yul\":26325:26331   */\n      dup2\n        /* \"#utility.yul\":26320:26323   */\n      dup6\n        /* \"#utility.yul\":26313:26317   */\n      0x20\n        /* \"#utility.yul\":26306:26311   */\n      dup7\n        /* \"#utility.yul\":26302:26318   */\n      add\n        /* \"#utility.yul\":26267:26332   */\n      tag_475\n      jump\t// in\n    tag_789:\n        /* \"#utility.yul\":26357:26363   */\n      dup1\n        /* \"#utility.yul\":26352:26355   */\n      dup5\n        /* \"#utility.yul\":26348:26364   */\n      add\n        /* \"#utility.yul\":26341:26364   */\n      swap2\n      pop\n        /* \"#utility.yul\":26090:26370   */\n      pop\n        /* \"#utility.yul\":25980:26370   */\n      swap3\n      swap2\n      pop\n      pop\n      jump\t// out\n        /* \"#utility.yul\":26376:26651   */\n    tag_231:\n        /* \"#utility.yul\":26508:26511   */\n      0x00\n        /* \"#utility.yul\":26530:26625   */\n      tag_791\n        /* \"#utility.yul\":26621:26624   */\n      dup3\n        /* \"#utility.yul\":26612:26618   */\n      dup5\n        /* \"#utility.yul\":26530:26625   */\n      tag_499\n      jump\t// in\n    tag_791:\n        /* \"#utility.yul\":26523:26625   */\n      swap2\n      pop\n        /* \"#utility.yul\":26642:26645   */\n      dup2\n        /* \"#utility.yul\":26635:26645   */\n      swap1\n      pop\n        /* \"#utility.yul\":26376:26651   */\n      swap3\n      swap2\n      pop\n      pop\n      jump\t// out\n        /* \"#utility.yul\":26657:26890   */\n    tag_235:\n        /* \"#utility.yul\":26696:26699   */\n      0x00\n        /* \"#utility.yul\":26719:26743   */\n      tag_793\n        /* \"#utility.yul\":26737:26742   */\n      dup3\n        /* \"#utility.yul\":26719:26743   */\n      tag_445\n      jump\t// in\n    tag_793:\n        /* \"#utility.yul\":26710:26743   */\n      swap2\n      pop\n        /* \"#utility.yul\":26765:26831   */\n      0xffffffffffffffffffffffffffffffffffffffffffffffffffffffffffffffff\n        /* \"#utility.yul\":26758:26763   */\n      dup3\n        /* \"#utility.yul\":26755:26832   */\n      sub\n        /* \"#utility.yul\":26752:26855   */\n      tag_794\n      jumpi\n        /* \"#utility.yul\":26835:26853   */\n      tag_795\n      tag_479\n      jump\t// in\n    tag_795:\n        /* \"#utility.yul\":26752:26855   */\n    tag_794:\n        /* \"#utility.yul\":26882:26883   */\n      0x01\n        /* \"#utility.yul\":26875:26880   */\n      dup3\n        /* \"#utility.yul\":26871:26884   */\n      add\n        /* \"#utility.yul\":26864:26884   */\n      swap1\n      pop\n        /* \"#utility.yul\":26657:26890   */\n      swap2\n      swap1\n      pop\n      jump\t// out\n        /* \"#utility.yul\":26896:27065   */\n    tag_500:\n        /* \"#utility.yul\":27036:27057   */\n      0x4661696c656420746f2073656e64204d414e4400000000000000000000000000\n        /* \"#utility.yul\":27032:27033   */\n      0x00\n        /* \"#utility.yul\":27024:27030   */\n      dup3\n        /* \"#utility.yul\":27020:27034   */\n      add\n        /* \"#utility.yul\":27013:27058   */\n      mstore\n        /* \"#utility.yul\":26896:27065   */\n      pop\n      jump\t// out\n        /* \"#utility.yul\":27071:27437   */\n    tag_501:\n        /* \"#utility.yul\":27213:27216   */\n      0x00\n        /* \"#utility.yul\":27234:27301   */\n      tag_798\n        /* \"#utility.yul\":27298:27300   */\n      0x13\n        /* \"#utility.yul\":27293:27296   */\n      dup4\n        /* \"#utility.yul\":27234:27301   */\n      tag_474\n      jump\t// in\n    tag_798:\n        /* \"#utility.yul\":27227:27301   */\n      swap2\n      pop\n        /* \"#utility.yul\":27310:27403   */\n      tag_799\n        /* \"#utility.yul\":27399:27402   */\n      dup3\n        /* \"#utility.yul\":27310:27403   */\n      tag_500\n      jump\t// in\n    tag_799:\n        /* \"#utility.yul\":27428:27430   */\n      0x20\n        /* \"#utility.yul\":27423:27426   */\n      dup3\n        /* \"#utility.yul\":27419:27431   */\n      add\n        /* \"#utility.yul\":27412:27431   */\n      swap1\n      pop\n        /* \"#utility.yul\":27071:27437   */\n      swap2\n      swap1\n      pop\n      jump\t// out\n        /* \"#utility.yul\":27443:27862   */\n    tag_243:\n        /* \"#utility.yul\":27609:27613   */\n      0x00\n        /* \"#utility.yul\":27647:27649   */\n      0x20\n        /* \"#utility.yul\":27636:27645   */\n      dup3\n        /* \"#utility.yul\":27632:27650   */\n      add\n        /* \"#utility.yul\":27624:27650   */\n      swap1\n      pop\n        /* \"#utility.yul\":27696:27705   */\n      dup2\n        /* \"#utility.yul\":27690:27694   */\n      dup2\n        /* \"#utility.yul\":27686:27706   */\n      sub\n        /* \"#utility.yul\":27682:27683   */\n      0x00\n        /* \"#utility.yul\":27671:27680   */\n      dup4\n        /* \"#utility.yul\":27667:27684   */\n      add\n        /* \"#utility.yul\":27660:27707   */\n      mstore\n        /* \"#utility.yul\":27724:27855   */\n      tag_801\n        /* \"#utility.yul\":27850:27854   */\n      dup2\n        /* \"#utility.yul\":27724:27855   */\n      tag_501\n      jump\t// in\n    tag_801:\n        /* \"#utility.yul\":27716:27855   */\n      swap1\n      pop\n        /* \"#utility.yul\":27443:27862   */\n      swap2\n      swap1\n      pop\n      jump\t// out\n        /* \"#utility.yul\":27868:28011   */\n    tag_502:\n        /* \"#utility.yul\":27925:27930   */\n      0x00\n        /* \"#utility.yul\":27956:27962   */\n      dup2\n        /* \"#utility.yul\":27950:27963   */\n      mload\n        /* \"#utility.yul\":27941:27963   */\n      swap1\n      pop\n        /* \"#utility.yul\":27972:28005   */\n      tag_803\n        /* \"#utility.yul\":27999:28004   */\n      dup2\n        /* \"#utility.yul\":27972:28005   */\n      tag_446\n      jump\t// in\n    tag_803:\n        /* \"#utility.yul\":27868:28011   */\n      swap3\n      swap2\n      pop\n      pop\n      jump\t// out\n        /* \"#utility.yul\":28017:28368   */\n    tag_262:\n        /* \"#utility.yul\":28087:28093   */\n      0x00\n        /* \"#utility.yul\":28136:28138   */\n      0x20\n        /* \"#utility.yul\":28124:28133   */\n      dup3\n        /* \"#utility.yul\":28115:28122   */\n      dup5\n        /* \"#utility.yul\":28111:28134   */\n      sub\n        /* \"#utility.yul\":28107:28139   */\n      slt\n        /* \"#utility.yul\":28104:28223   */\n      iszero\n      tag_805\n      jumpi\n        /* \"#utility.yul\":28142:28221   */\n      tag_806\n      tag_439\n      jump\t// in\n    tag_806:\n        /* \"#utility.yul\":28104:28223   */\n    tag_805:\n        /* \"#utility.yul\":28262:28263   */\n      0x00\n        /* \"#utility.yul\":28287:28351   */\n      tag_807\n        /* \"#utility.yul\":28343:28350   */\n      dup5\n        /* \"#utility.yul\":28334:28340   */\n      dup3\n        /* \"#utility.yul\":28323:28332   */\n      dup6\n        /* \"#utility.yul\":28319:28341   */\n      add\n        /* \"#utility.yul\":28287:28351   */\n      tag_502\n      jump\t// in\n    tag_807:\n        /* \"#utility.yul\":28277:28351   */\n      swap2\n      pop\n        /* \"#utility.yul\":28233:28361   */\n      pop\n        /* \"#utility.yul\":28017:28368   */\n      swap3\n      swap2\n      pop\n      pop\n      jump\t// out\n        /* \"#utility.yul\":28374:28594   */\n    tag_503:\n        /* \"#utility.yul\":28514:28548   */\n      0x496e73756666696369656e742072657075746174696f6e20746f20656e726f6c\n        /* \"#utility.yul\":28510:28511   */\n      0x00\n        /* \"#utility.yul\":28502:28508   */\n      dup3\n        /* \"#utility.yul\":28498:28512   */\n      add\n        /* \"#utility.yul\":28491:28549   */\n      mstore\n        /* \"#utility.yul\":28583:28586   */\n      0x6c00000000000000000000000000000000000000000000000000000000000000\n        /* \"#utility.yul\":28578:28580   */\n      0x20\n        /* \"#utility.yul\":28570:28576   */\n      dup3\n        /* \"#utility.yul\":28566:28581   */\n      add\n        /* \"#utility.yul\":28559:28587   */\n      mstore\n        /* \"#utility.yul\":28374:28594   */\n      pop\n      jump\t// out\n        /* \"#utility.yul\":28600:28966   */\n    tag_504:\n        /* \"#utility.yul\":28742:28745   */\n      0x00\n        /* \"#utility.yul\":28763:28830   */\n      tag_810\n        /* \"#utility.yul\":28827:28829   */\n      0x21\n        /* \"#utility.yul\":28822:28825   */\n      dup4\n        /* \"#utility.yul\":28763:28830   */\n      tag_474\n      jump\t// in\n    tag_810:\n        /* \"#utility.yul\":28756:28830   */\n      swap2\n      pop\n        /* \"#utility.yul\":28839:28932   */\n      tag_811\n        /* \"#utility.yul\":28928:28931   */\n      dup3\n        /* \"#utility.yul\":28839:28932   */\n      tag_503\n      jump\t// in\n    tag_811:\n        /* \"#utility.yul\":28957:28959   */\n      0x40\n        /* \"#utility.yul\":28952:28955   */\n      dup3\n        /* \"#utility.yul\":28948:28960   */\n      add\n        /* \"#utility.yul\":28941:28960   */\n      swap1\n      pop\n        /* \"#utility.yul\":28600:28966   */\n      swap2\n      swap1\n      pop\n      jump\t// out\n        /* \"#utility.yul\":28972:29391   */\n    tag_265:\n        /* \"#utility.yul\":29138:29142   */\n      0x00\n        /* \"#utility.yul\":29176:29178   */\n      0x20\n        /* \"#utility.yul\":29165:29174   */\n      dup3\n        /* \"#utility.yul\":29161:29179   */\n      add\n        /* \"#utility.yul\":29153:29179   */\n      swap1\n      pop\n        /* \"#utility.yul\":29225:29234   */\n      dup2\n        /* \"#utility.yul\":29219:29223   */\n      dup2\n        /* \"#utility.yul\":29215:29235   */\n      sub\n        /* \"#utility.yul\":29211:29212   */\n      0x00\n        /* \"#utility.yul\":29200:29209   */\n      dup4\n        /* \"#utility.yul\":29196:29213   */\n      add\n        /* \"#utility.yul\":29189:29236   */\n      mstore\n        /* \"#utility.yul\":29253:29384   */\n      tag_813\n        /* \"#utility.yul\":29379:29383   */\n      dup2\n        /* \"#utility.yul\":29253:29384   */\n      tag_504\n      jump\t// in\n    tag_813:\n        /* \"#utility.yul\":29245:29384   */\n      swap1\n      pop\n        /* \"#utility.yul\":28972:29391   */\n      swap2\n      swap1\n      pop\n      jump\t// out\n        /* \"#utility.yul\":29397:29566   */\n    tag_505:\n        /* \"#utility.yul\":29537:29558   */\n      0x436f75727365206e6f7420617070726f76656400000000000000000000000000\n        /* \"#utility.yul\":29533:29534   */\n      0x00\n        /* \"#utility.yul\":29525:29531   */\n      dup3\n        /* \"#utility.yul\":29521:29535   */\n      add\n        /* \"#utility.yul\":29514:29559   */\n      mstore\n        /* \"#utility.yul\":29397:29566   */\n      pop\n      jump\t// out\n        /* \"#utility.yul\":29572:29938   */\n    tag_506:\n        /* \"#utility.yul\":29714:29717   */\n      0x00\n        /* \"#utility.yul\":29735:29802   */\n      tag_816\n        /* \"#utility.yul\":29799:29801   */\n      0x13\n        /* \"#utility.yul\":29794:29797   */\n      dup4\n        /* \"#utility.yul\":29735:29802   */\n      tag_474\n      jump\t// in\n    tag_816:\n        /* \"#utility.yul\":29728:29802   */\n      swap2\n      pop\n        /* \"#utility.yul\":29811:29904   */\n      tag_817\n        /* \"#utility.yul\":29900:29903   */\n      dup3\n        /* \"#utility.yul\":29811:29904   */\n      tag_505\n      jump\t// in\n    tag_817:\n        /* \"#utility.yul\":29929:29931   */\n      0x20\n        /* \"#utility.yul\":29924:29927   */\n      dup3\n        /* \"#utility.yul\":29920:29932   */\n      add\n        /* \"#utility.yul\":29913:29932   */\n      swap1\n      pop\n        /* \"#utility.yul\":29572:29938   */\n      swap2\n      swap1\n      pop\n      jump\t// out\n        /* \"#utility.yul\":29944:30363   */\n    tag_268:\n        /* \"#utility.yul\":30110:30114   */\n      0x00\n        /* \"#utility.yul\":30148:30150   */\n      0x20\n        /* \"#utility.yul\":30137:30146   */\n      dup3\n        /* \"#utility.yul\":30133:30151   */\n      add\n        /* \"#utility.yul\":30125:30151   */\n      swap1\n      pop\n        /* \"#utility.yul\":30197:30206   */\n      dup2\n        /* \"#utility.yul\":30191:30195   */\n      dup2\n        /* \"#utility.yul\":30187:30207   */\n      sub\n        /* \"#utility.yul\":30183:30184   */\n      0x00\n        /* \"#utility.yul\":30172:30181   */\n      dup4\n        /* \"#utility.yul\":30168:30185   */\n      add\n        /* \"#utility.yul\":30161:30208   */\n      mstore\n        /* \"#utility.yul\":30225:30356   */\n      tag_819\n        /* \"#utility.yul\":30351:30355   */\n      dup2\n        /* \"#utility.yul\":30225:30356   */\n      tag_506\n      jump\t// in\n    tag_819:\n        /* \"#utility.yul\":30217:30356   */\n      swap1\n      pop\n        /* \"#utility.yul\":29944:30363   */\n      swap2\n      swap1\n      pop\n      jump\t// out\n        /* \"#utility.yul\":30369:30535   */\n    tag_507:\n        /* \"#utility.yul\":30509:30527   */\n      0x416c726561647920656e726f6c6c656400000000000000000000000000000000\n        /* \"#utility.yul\":30505:30506   */\n      0x00\n        /* \"#utility.yul\":30497:30503   */\n      dup3\n        /* \"#utility.yul\":30493:30507   */\n      add\n        /* \"#utility.yul\":30486:30528   */\n      mstore\n        /* \"#utility.yul\":30369:30535   */\n      pop\n      jump\t// out\n        /* \"#utility.yul\":30541:30907   */\n    tag_508:\n        /* \"#utility.yul\":30683:30686   */\n      0x00\n        /* \"#utility.yul\":30704:30771   */\n      tag_822\n        /* \"#utility.yul\":30768:30770   */\n      0x10\n        /* \"#utility.yul\":30763:30766   */\n      dup4\n        /* \"#utility.yul\":30704:30771   */\n      tag_474\n      jump\t// in\n    tag_822:\n        /* \"#utility.yul\":30697:30771   */\n      swap2\n      pop\n        /* \"#utility.yul\":30780:30873   */\n      tag_823\n        /* \"#utility.yul\":30869:30872   */\n      dup3\n        /* \"#utility.yul\":30780:30873   */\n      tag_507\n      jump\t// in\n    tag_823:\n        /* \"#utility.yul\":30898:30900   */\n      0x20\n        /* \"#utility.yul\":30893:30896   */\n      dup3\n        /* \"#utility.yul\":30889:30901   */\n      add\n        /* \"#utility.yul\":30882:30901   */\n      swap1\n      pop\n        /* \"#utility.yul\":30541:30907   */\n      swap2\n      swap1\n      pop\n      jump\t// out\n        /* \"#utility.yul\":30913:31332   */\n    tag_271:\n        /* \"#utility.yul\":31079:31083   */\n      0x00\n        /* \"#utility.yul\":31117:31119   */\n      0x20\n        /* \"#utility.yul\":31106:31115   */\n      dup3\n        /* \"#utility.yul\":31102:31120   */\n      add\n        /* \"#utility.yul\":31094:31120   */\n      swap1\n      pop\n        /* \"#utility.yul\":31166:31175   */\n      dup2\n        /* \"#utility.yul\":31160:31164   */\n      dup2\n        /* \"#utility.yul\":31156:31176   */\n      sub\n        /* \"#utility.yul\":31152:31153   */\n      0x00\n        /* \"#utility.yul\":31141:31150   */\n      dup4\n        /* \"#utility.yul\":31137:31154   */\n      add\n        /* \"#utility.yul\":31130:31177   */\n      mstore\n        /* \"#utility.yul\":31194:31325   */\n      tag_825\n        /* \"#utility.yul\":31320:31324   */\n      dup2\n        /* \"#utility.yul\":31194:31325   */\n      tag_508\n      jump\t// in\n    tag_825:\n        /* \"#utility.yul\":31186:31325   */\n      swap1\n      pop\n        /* \"#utility.yul\":30913:31332   */\n      swap2\n      swap1\n      pop\n      jump\t// out\n        /* \"#utility.yul\":31338:31511   */\n    tag_509:\n        /* \"#utility.yul\":31478:31503   */\n      0x436f7572736520616c726561647920617070726f766564000000000000000000\n        /* \"#utility.yul\":31474:31475   */\n      0x00\n        /* \"#utility.yul\":31466:31472   */\n      dup3\n        /* \"#utility.yul\":31462:31476   */\n      add\n        /* \"#utility.yul\":31455:31504   */\n      mstore\n        /* \"#utility.yul\":31338:31511   */\n      pop\n      jump\t// out\n        /* \"#utility.yul\":31517:31883   */\n    tag_510:\n        /* \"#utility.yul\":31659:31662   */\n      0x00\n        /* \"#utility.yul\":31680:31747   */\n      tag_828\n        /* \"#utility.yul\":31744:31746   */\n      0x17\n        /* \"#utility.yul\":31739:31742   */\n      dup4\n        /* \"#utility.yul\":31680:31747   */\n      tag_474\n      jump\t// in\n    tag_828:\n        /* \"#utility.yul\":31673:31747   */\n      swap2\n      pop\n        /* \"#utility.yul\":31756:31849   */\n      tag_829\n        /* \"#utility.yul\":31845:31848   */\n      dup3\n        /* \"#utility.yul\":31756:31849   */\n      tag_509\n      jump\t// in\n    tag_829:\n        /* \"#utility.yul\":31874:31876   */\n      0x20\n        /* \"#utility.yul\":31869:31872   */\n      dup3\n        /* \"#utility.yul\":31865:31877   */\n      add\n        /* \"#utility.yul\":31858:31877   */\n      swap1\n      pop\n        /* \"#utility.yul\":31517:31883   */\n      swap2\n      swap1\n      pop\n      jump\t// out\n        /* \"#utility.yul\":31889:32308   */\n    tag_283:\n        /* \"#utility.yul\":32055:32059   */\n      0x00\n        /* \"#utility.yul\":32093:32095   */\n      0x20\n        /* \"#utility.yul\":32082:32091   */\n      dup3\n        /* \"#utility.yul\":32078:32096   */\n      add\n        /* \"#utility.yul\":32070:32096   */\n      swap1\n      pop\n        /* \"#utility.yul\":32142:32151   */\n      dup2\n        /* \"#utility.yul\":32136:32140   */\n      dup2\n        /* \"#utility.yul\":32132:32152   */\n      sub\n        /* \"#utility.yul\":32128:32129   */\n      0x00\n        /* \"#utility.yul\":32117:32126   */\n      dup4\n        /* \"#utility.yul\":32113:32130   */\n      add\n        /* \"#utility.yul\":32106:32153   */\n      mstore\n        /* \"#utility.yul\":32170:32301   */\n      tag_831\n        /* \"#utility.yul\":32296:32300   */\n      dup2\n        /* \"#utility.yul\":32170:32301   */\n      tag_510\n      jump\t// in\n    tag_831:\n        /* \"#utility.yul\":32162:32301   */\n      swap1\n      pop\n        /* \"#utility.yul\":31889:32308   */\n      swap2\n      swap1\n      pop\n      jump\t// out\n        /* \"#utility.yul\":32314:32541   */\n    tag_511:\n        /* \"#utility.yul\":32454:32488   */\n      0x496e73756666696369656e742072657075746174696f6e20746f206372656174\n        /* \"#utility.yul\":32450:32451   */\n      0x00\n        /* \"#utility.yul\":32442:32448   */\n      dup3\n        /* \"#utility.yul\":32438:32452   */\n      add\n        /* \"#utility.yul\":32431:32489   */\n      mstore\n        /* \"#utility.yul\":32523:32533   */\n      0x6520636f75727365000000000000000000000000000000000000000000000000\n        /* \"#utility.yul\":32518:32520   */\n      0x20\n        /* \"#utility.yul\":32510:32516   */\n      dup3\n        /* \"#utility.yul\":32506:32521   */\n      add\n        /* \"#utility.yul\":32499:32534   */\n      mstore\n        /* \"#utility.yul\":32314:32541   */\n      pop\n      jump\t// out\n        /* \"#utility.yul\":32547:32913   */\n    tag_512:\n        /* \"#utility.yul\":32689:32692   */\n      0x00\n        /* \"#utility.yul\":32710:32777   */\n      tag_834\n        /* \"#utility.yul\":32774:32776   */\n      0x28\n        /* \"#utility.yul\":32769:32772   */\n      dup4\n        /* \"#utility.yul\":32710:32777   */\n      tag_474\n      jump\t// in\n    tag_834:\n        /* \"#utility.yul\":32703:32777   */\n      swap2\n      pop\n        /* \"#utility.yul\":32786:32879   */\n      tag_835\n        /* \"#utility.yul\":32875:32878   */\n      dup3\n        /* \"#utility.yul\":32786:32879   */\n      tag_511\n      jump\t// in\n    tag_835:\n        /* \"#utility.yul\":32904:32906   */\n      0x40\n        /* \"#utility.yul\":32899:32902   */\n      dup3\n        /* \"#utility.yul\":32895:32907   */\n      add\n        /* \"#utility.yul\":32888:32907   */\n      swap1\n      pop\n        /* \"#utility.yul\":32547:32913   */\n      swap2\n      swap1\n      pop\n      jump\t// out\n        /* \"#utility.yul\":32919:33338   */\n    tag_301:\n        /* \"#utility.yul\":33085:33089   */\n      0x00\n        /* \"#utility.yul\":33123:33125   */\n      0x20\n        /* \"#utility.yul\":33112:33121   */\n      dup3\n        /* \"#utility.yul\":33108:33126   */\n      add\n        /* \"#utility.yul\":33100:33126   */\n      swap1\n      pop\n        /* \"#utility.yul\":33172:33181   */\n      dup2\n        /* \"#utility.yul\":33166:33170   */\n      dup2\n        /* \"#utility.yul\":33162:33182   */\n      sub\n        /* \"#utility.yul\":33158:33159   */\n      0x00\n        /* \"#utility.yul\":33147:33156   */\n      dup4\n        /* \"#utility.yul\":33143:33160   */\n      add\n        /* \"#utility.yul\":33136:33183   */\n      mstore\n        /* \"#utility.yul\":33200:33331   */\n      tag_837\n        /* \"#utility.yul\":33326:33330   */\n      dup2\n        /* \"#utility.yul\":33200:33331   */\n      tag_512\n      jump\t// in\n    tag_837:\n        /* \"#utility.yul\":33192:33331   */\n      swap1\n      pop\n        /* \"#utility.yul\":32919:33338   */\n      swap2\n      swap1\n      pop\n      jump\t// out\n        /* \"#utility.yul\":33344:33511   */\n    tag_513:\n        /* \"#utility.yul\":33484:33503   */\n      0x496e76616c6964207175697a2064617461000000000000000000000000000000\n        /* \"#utility.yul\":33480:33481   */\n      0x00\n        /* \"#utility.yul\":33472:33478   */\n      dup3\n        /* \"#utility.yul\":33468:33482   */\n      add\n        /* \"#utility.yul\":33461:33504   */\n      mstore\n        /* \"#utility.yul\":33344:33511   */\n      pop\n      jump\t// out\n        /* \"#utility.yul\":33517:33883   */\n    tag_514:\n        /* \"#utility.yul\":33659:33662   */\n      0x00\n        /* \"#utility.yul\":33680:33747   */\n      tag_840\n        /* \"#utility.yul\":33744:33746   */\n      0x11\n        /* \"#utility.yul\":33739:33742   */\n      dup4\n        /* \"#utility.yul\":33680:33747   */\n      tag_474\n      jump\t// in\n    tag_840:\n        /* \"#utility.yul\":33673:33747   */\n      swap2\n      pop\n        /* \"#utility.yul\":33756:33849   */\n      tag_841\n        /* \"#utility.yul\":33845:33848   */\n      dup3\n        /* \"#utility.yul\":33756:33849   */\n      tag_513\n      jump\t// in\n    tag_841:\n        /* \"#utility.yul\":33874:33876   */\n      0x20\n        /* \"#utility.yul\":33869:33872   */\n      dup3\n        /* \"#utility.yul\":33865:33877   */\n      add\n        /* \"#utility.yul\":33858:33877   */\n      swap1\n      pop\n        /* \"#utility.yul\":33517:33883   */\n      swap2\n      swap1\n      pop\n      jump\t// out\n        /* \"#utility.yul\":33889:34308   */\n    tag_309:\n        /* \"#utility.yul\":34055:34059   */\n      0x00\n        /* \"#utility.yul\":34093:34095   */\n      0x20\n        /* \"#utility.yul\":34082:34091   */\n      dup3\n        /* \"#utility.yul\":34078:34096   */\n      add\n        /* \"#utility.yul\":34070:34096   */\n      swap1\n      pop\n        /* \"#utility.yul\":34142:34151   */\n      dup2\n        /* \"#utility.yul\":34136:34140   */\n      dup2\n        /* \"#utility.yul\":34132:34152   */\n      sub\n        /* \"#utility.yul\":34128:34129   */\n      0x00\n        /* \"#utility.yul\":34117:34126   */\n      dup4\n        /* \"#utility.yul\":34113:34130   */\n      add\n        /* \"#utility.yul\":34106:34153   */\n      mstore\n        /* \"#utility.yul\":34170:34301   */\n      tag_843\n        /* \"#utility.yul\":34296:34300   */\n      dup2\n        /* \"#utility.yul\":34170:34301   */\n      tag_514\n      jump\t// in\n    tag_843:\n        /* \"#utility.yul\":34162:34301   */\n      swap1\n      pop\n        /* \"#utility.yul\":33889:34308   */\n      swap2\n      swap1\n      pop\n      jump\t// out\n        /* \"#utility.yul\":34314:34455   */\n    tag_515:\n        /* \"#utility.yul\":34363:34367   */\n      0x00\n        /* \"#utility.yul\":34386:34389   */\n      dup2\n        /* \"#utility.yul\":34378:34389   */\n      swap1\n      pop\n        /* \"#utility.yul\":34409:34412   */\n      dup2\n        /* \"#utility.yul\":34406:34407   */\n      0x00\n        /* \"#utility.yul\":34399:34413   */\n      mstore\n        /* \"#utility.yul\":34443:34447   */\n      0x20\n        /* \"#utility.yul\":34440:34441   */\n      0x00\n        /* \"#utility.yul\":34430:34448   */\n      keccak256\n        /* \"#utility.yul\":34422:34448   */\n      swap1\n      pop\n        /* \"#utility.yul\":34314:34455   */\n      swap2\n      swap1\n      pop\n      jump\t// out\n        /* \"#utility.yul\":34461:34554   */\n    tag_516:\n        /* \"#utility.yul\":34498:34504   */\n      0x00\n        /* \"#utility.yul\":34545:34547   */\n      0x20\n        /* \"#utility.yul\":34540:34542   */\n      0x1f\n        /* \"#utility.yul\":34533:34538   */\n      dup4\n        /* \"#utility.yul\":34529:34543   */\n      add\n        /* \"#utility.yul\":34525:34548   */\n      div\n        /* \"#utility.yul\":34515:34548   */\n      swap1\n      pop\n        /* \"#utility.yul\":34461:34554   */\n      swap2\n      swap1\n      pop\n      jump\t// out\n        /* \"#utility.yul\":34560:34667   */\n    tag_517:\n        /* \"#utility.yul\":34604:34612   */\n      0x00\n        /* \"#utility.yul\":34654:34659   */\n      dup3\n        /* \"#utility.yul\":34648:34652   */\n      dup3\n        /* \"#utility.yul\":34644:34660   */\n      shl\n        /* \"#utility.yul\":34623:34660   */\n      swap1\n      pop\n        /* \"#utility.yul\":34560:34667   */\n      swap3\n      swap2\n      pop\n      pop\n      jump\t// out\n        /* \"#utility.yul\":34673:35066   */\n    tag_518:\n        /* \"#utility.yul\":34742:34748   */\n      0x00\n        /* \"#utility.yul\":34792:34793   */\n      0x08\n        /* \"#utility.yul\":34780:34790   */\n      dup4\n        /* \"#utility.yul\":34776:34794   */\n      mul\n        /* \"#utility.yul\":34815:34912   */\n      tag_848\n        /* \"#utility.yul\":34845:34911   */\n      0xffffffffffffffffffffffffffffffffffffffffffffffffffffffffffffffff\n        /* \"#utility.yul\":34834:34843   */\n      dup3\n        /* \"#utility.yul\":34815:34912   */\n      tag_517\n      jump\t// in\n    tag_848:\n        /* \"#utility.yul\":34933:34972   */\n      tag_849\n        /* \"#utility.yul\":34963:34971   */\n      dup7\n        /* \"#utility.yul\":34952:34961   */\n      dup4\n        /* \"#utility.yul\":34933:34972   */\n      tag_517\n      jump\t// in\n    tag_849:\n        /* \"#utility.yul\":34921:34972   */\n      swap6\n      pop\n        /* \"#utility.yul\":35005:35009   */\n      dup1\n        /* \"#utility.yul\":35001:35010   */\n      not\n        /* \"#utility.yul\":34994:34999   */\n      dup5\n        /* \"#utility.yul\":34990:35011   */\n      and\n        /* \"#utility.yul\":34981:35011   */\n      swap4\n      pop\n        /* \"#utility.yul\":35054:35058   */\n      dup1\n        /* \"#utility.yul\":35044:35052   */\n      dup7\n        /* \"#utility.yul\":35040:35059   */\n      and\n        /* \"#utility.yul\":35033:35038   */\n      dup5\n        /* \"#utility.yul\":35030:35060   */\n      or\n        /* \"#utility.yul\":35020:35060   */\n      swap3\n      pop\n        /* \"#utility.yul\":34749:35066   */\n      pop\n      pop\n        /* \"#utility.yul\":34673:35066   */\n      swap4\n      swap3\n      pop\n      pop\n      pop\n      jump\t// out\n        /* \"#utility.yul\":35072:35214   */\n    tag_519:\n        /* \"#utility.yul\":35122:35131   */\n      0x00\n        /* \"#utility.yul\":35155:35208   */\n      tag_851\n        /* \"#utility.yul\":35173:35207   */\n      tag_852\n        /* \"#utility.yul\":35182:35206   */\n      tag_853\n        /* \"#utility.yul\":35200:35205   */\n      dup5\n        /* \"#utility.yul\":35182:35206   */\n      tag_445\n      jump\t// in\n    tag_853:\n        /* \"#utility.yul\":35173:35207   */\n      tag_467\n      jump\t// in\n    tag_852:\n        /* \"#utility.yul\":35155:35208   */\n      tag_445\n      jump\t// in\n    tag_851:\n        /* \"#utility.yul\":35142:35208   */\n      swap1\n      pop\n        /* \"#utility.yul\":35072:35214   */\n      swap2\n      swap1\n      pop\n      jump\t// out\n        /* \"#utility.yul\":35220:35295   */\n    tag_520:\n        /* \"#utility.yul\":35263:35266   */\n      0x00\n        /* \"#utility.yul\":35284:35289   */\n      dup2\n        /* \"#utility.yul\":35277:35289   */\n      swap1\n      pop\n        /* \"#utility.yul\":35220:35295   */\n      swap2\n      swap1\n      pop\n      jump\t// out\n        /* \"#utility.yul\":35301:35570   */\n    tag_521:\n        /* \"#utility.yul\":35411:35450   */\n      tag_856\n        /* \"#utility.yul\":35442:35449   */\n      dup4\n        /* \"#utility.yul\":35411:35450   */\n      tag_519\n      jump\t// in\n    tag_856:\n        /* \"#utility.yul\":35472:35563   */\n      tag_857\n        /* \"#utility.yul\":35521:35562   */\n      tag_858\n        /* \"#utility.yul\":35545:35561   */\n      dup3\n        /* \"#utility.yul\":35521:35562   */\n      tag_520\n      jump\t// in\n    tag_858:\n        /* \"#utility.yul\":35513:35519   */\n      dup5\n        /* \"#utility.yul\":35506:35510   */\n      dup5\n        /* \"#utility.yul\":35500:35511   */\n      sload\n        /* \"#utility.yul\":35472:35563   */\n      tag_518\n      jump\t// in\n    tag_857:\n        /* \"#utility.yul\":35466:35470   */\n      dup3\n        /* \"#utility.yul\":35459:35564   */\n      sstore\n        /* \"#utility.yul\":35377:35570   */\n      pop\n        /* \"#utility.yul\":35301:35570   */\n      pop\n      pop\n      pop\n      jump\t// out\n        /* \"#utility.yul\":35576:35649   */\n    tag_522:\n        /* \"#utility.yul\":35621:35624   */\n      0x00\n        /* \"#utility.yul\":35576:35649   */\n      swap1\n      jump\t// out\n        /* \"#utility.yul\":35655:35844   */\n    tag_523:\n        /* \"#utility.yul\":35732:35764   */\n      tag_861\n      tag_522\n      jump\t// in\n    tag_861:\n        /* \"#utility.yul\":35773:35838   */\n      tag_862\n        /* \"#utility.yul\":35831:35837   */\n      dup2\n        /* \"#utility.yul\":35823:35829   */\n      dup5\n        /* \"#utility.yul\":35817:35821   */\n      dup5\n        /* \"#utility.yul\":35773:35838   */\n      tag_521\n      jump\t// in\n    tag_862:\n        /* \"#utility.yul\":35708:35844   */\n      pop\n        /* \"#utility.yul\":35655:35844   */\n      pop\n      pop\n      jump\t// out\n        /* \"#utility.yul\":35850:36036   */\n    tag_524:\n        /* \"#utility.yul\":35910:36030   */\n    tag_864:\n        /* \"#utility.yul\":35927:35930   */\n      dup2\n        /* \"#utility.yul\":35920:35925   */\n      dup2\n        /* \"#utility.yul\":35917:35931   */\n      lt\n        /* \"#utility.yul\":35910:36030   */\n      iszero\n      tag_866\n      jumpi\n        /* \"#utility.yul\":35981:36020   */\n      tag_867\n        /* \"#utility.yul\":36018:36019   */\n      0x00\n        /* \"#utility.yul\":36011:36016   */\n      dup3\n        /* \"#utility.yul\":35981:36020   */\n      tag_523\n      jump\t// in\n    tag_867:\n        /* \"#utility.yul\":35954:35955   */\n      0x01\n        /* \"#utility.yul\":35947:35952   */\n      dup2\n        /* \"#utility.yul\":35943:35956   */\n      add\n        /* \"#utility.yul\":35934:35956   */\n      swap1\n      pop\n        /* \"#utility.yul\":35910:36030   */\n      jump(tag_864)\n    tag_866:\n        /* \"#utility.yul\":35850:36036   */\n      pop\n      pop\n      jump\t// out\n        /* \"#utility.yul\":36042:36585   */\n    tag_525:\n        /* \"#utility.yul\":36143:36145   */\n      0x1f\n        /* \"#utility.yul\":36138:36141   */\n      dup3\n        /* \"#utility.yul\":36135:36146   */\n      gt\n        /* \"#utility.yul\":36132:36578   */\n      iszero\n      tag_869\n      jumpi\n        /* \"#utility.yul\":36177:36215   */\n      tag_870\n        /* \"#utility.yul\":36209:36214   */\n      dup2\n        /* \"#utility.yul\":36177:36215   */\n      tag_515\n      jump\t// in\n    tag_870:\n        /* \"#utility.yul\":36261:36290   */\n      tag_871\n        /* \"#utility.yul\":36279:36289   */\n      dup5\n        /* \"#utility.yul\":36261:36290   */\n      tag_516\n      jump\t// in\n    tag_871:\n        /* \"#utility.yul\":36251:36259   */\n      dup2\n        /* \"#utility.yul\":36247:36291   */\n      add\n        /* \"#utility.yul\":36444:36446   */\n      0x20\n        /* \"#utility.yul\":36432:36442   */\n      dup6\n        /* \"#utility.yul\":36429:36447   */\n      lt\n        /* \"#utility.yul\":36426:36475   */\n      iszero\n      tag_872\n      jumpi\n        /* \"#utility.yul\":36465:36473   */\n      dup2\n        /* \"#utility.yul\":36450:36473   */\n      swap1\n      pop\n        /* \"#utility.yul\":36426:36475   */\n    tag_872:\n        /* \"#utility.yul\":36488:36568   */\n      tag_873\n        /* \"#utility.yul\":36544:36566   */\n      tag_874\n        /* \"#utility.yul\":36562:36565   */\n      dup6\n        /* \"#utility.yul\":36544:36566   */\n      tag_516\n      jump\t// in\n    tag_874:\n        /* \"#utility.yul\":36534:36542   */\n      dup4\n        /* \"#utility.yul\":36530:36567   */\n      add\n        /* \"#utility.yul\":36517:36528   */\n      dup3\n        /* \"#utility.yul\":36488:36568   */\n      tag_524\n      jump\t// in\n    tag_873:\n        /* \"#utility.yul\":36147:36578   */\n      pop\n      pop\n        /* \"#utility.yul\":36132:36578   */\n    tag_869:\n        /* \"#utility.yul\":36042:36585   */\n      pop\n      pop\n      pop\n      jump\t// out\n        /* \"#utility.yul\":36591:36708   */\n    tag_526:\n        /* \"#utility.yul\":36645:36653   */\n      0x00\n        /* \"#utility.yul\":36695:36700   */\n      dup3\n        /* \"#utility.yul\":36689:36693   */\n      dup3\n        /* \"#utility.yul\":36685:36701   */\n      shr\n        /* \"#utility.yul\":36664:36701   */\n      swap1\n      pop\n        /* \"#utility.yul\":36591:36708   */\n      swap3\n      swap2\n      pop\n      pop\n      jump\t// out\n        /* \"#utility.yul\":36714:36883   */\n    tag_527:\n        /* \"#utility.yul\":36758:36764   */\n      0x00\n        /* \"#utility.yul\":36791:36842   */\n      tag_877\n        /* \"#utility.yul\":36839:36840   */\n      0x00\n        /* \"#utility.yul\":36835:36841   */\n      not\n        /* \"#utility.yul\":36827:36832   */\n      dup5\n        /* \"#utility.yul\":36824:36825   */\n      0x08\n        /* \"#utility.yul\":36820:36833   */\n      mul\n        /* \"#utility.yul\":36791:36842   */\n      tag_526\n      jump\t// in\n    tag_877:\n        /* \"#utility.yul\":36787:36843   */\n      not\n        /* \"#utility.yul\":36872:36876   */\n      dup1\n        /* \"#utility.yul\":36866:36870   */\n      dup4\n        /* \"#utility.yul\":36862:36877   */\n      and\n        /* \"#utility.yul\":36852:36877   */\n      swap2\n      pop\n        /* \"#utility.yul\":36765:36883   */\n      pop\n        /* \"#utility.yul\":36714:36883   */\n      swap3\n      swap2\n      pop\n      pop\n      jump\t// out\n        /* \"#utility.yul\":36888:37183   */\n    tag_528:\n        /* \"#utility.yul\":36964:36968   */\n      0x00\n        /* \"#utility.yul\":37110:37139   */\n      tag_879\n        /* \"#utility.yul\":37135:37138   */\n      dup4\n        /* \"#utility.yul\":37129:37133   */\n      dup4\n        /* \"#utility.yul\":37110:37139   */\n      tag_527\n      jump\t// in\n    tag_879:\n        /* \"#utility.yul\":37102:37139   */\n      swap2\n      pop\n        /* \"#utility.yul\":37172:37175   */\n      dup3\n        /* \"#utility.yul\":37169:37170   */\n      0x02\n        /* \"#utility.yul\":37165:37176   */\n      mul\n        /* \"#utility.yul\":37159:37163   */\n      dup3\n        /* \"#utility.yul\":37156:37177   */\n      or\n        /* \"#utility.yul\":37148:37177   */\n      swap1\n      pop\n        /* \"#utility.yul\":36888:37183   */\n      swap3\n      swap2\n      pop\n      pop\n      jump\t// out\n        /* \"#utility.yul\":37188:38583   */\n    tag_312:\n        /* \"#utility.yul\":37305:37342   */\n      tag_881\n        /* \"#utility.yul\":37338:37341   */\n      dup3\n        /* \"#utility.yul\":37305:37342   */\n      tag_473\n      jump\t// in\n    tag_881:\n        /* \"#utility.yul\":37407:37425   */\n      0xffffffffffffffff\n        /* \"#utility.yul\":37399:37405   */\n      dup2\n        /* \"#utility.yul\":37396:37426   */\n      gt\n        /* \"#utility.yul\":37393:37449   */\n      iszero\n      tag_882\n      jumpi\n        /* \"#utility.yul\":37429:37447   */\n      tag_883\n      tag_455\n      jump\t// in\n    tag_883:\n        /* \"#utility.yul\":37393:37449   */\n    tag_882:\n        /* \"#utility.yul\":37473:37511   */\n      tag_884\n        /* \"#utility.yul\":37505:37509   */\n      dup3\n        /* \"#utility.yul\":37499:37510   */\n      sload\n        /* \"#utility.yul\":37473:37511   */\n      tag_194\n      jump\t// in\n    tag_884:\n        /* \"#utility.yul\":37558:37625   */\n      tag_885\n        /* \"#utility.yul\":37618:37624   */\n      dup3\n        /* \"#utility.yul\":37610:37616   */\n      dup3\n        /* \"#utility.yul\":37604:37608   */\n      dup6\n        /* \"#utility.yul\":37558:37625   */\n      tag_525\n      jump\t// in\n    tag_885:\n        /* \"#utility.yul\":37652:37653   */\n      0x00\n        /* \"#utility.yul\":37676:37680   */\n      0x20\n        /* \"#utility.yul\":37663:37680   */\n      swap1\n      pop\n        /* \"#utility.yul\":37708:37710   */\n      0x1f\n        /* \"#utility.yul\":37700:37706   */\n      dup4\n        /* \"#utility.yul\":37697:37711   */\n      gt\n        /* \"#utility.yul\":37725:37726   */\n      0x01\n        /* \"#utility.yul\":37720:38338   */\n      dup2\n      eq\n      tag_887\n      jumpi\n        /* \"#utility.yul\":38382:38383   */\n      0x00\n        /* \"#utility.yul\":38399:38405   */\n      dup5\n        /* \"#utility.yul\":38396:38473   */\n      iszero\n      tag_888\n      jumpi\n        /* \"#utility.yul\":38448:38457   */\n      dup3\n        /* \"#utility.yul\":38443:38446   */\n      dup8\n        /* \"#utility.yul\":38439:38458   */\n      add\n        /* \"#utility.yul\":38433:38459   */\n      mload\n        /* \"#utility.yul\":38424:38459   */\n      swap1\n      pop\n        /* \"#utility.yul\":38396:38473   */\n    tag_888:\n        /* \"#utility.yul\":38499:38566   */\n      tag_889\n        /* \"#utility.yul\":38559:38565   */\n      dup6\n        /* \"#utility.yul\":38552:38557   */\n      dup3\n        /* \"#utility.yul\":38499:38566   */\n      tag_528\n      jump\t// in\n    tag_889:\n        /* \"#utility.yul\":38493:38497   */\n      dup7\n        /* \"#utility.yul\":38486:38567   */\n      sstore\n        /* \"#utility.yul\":38355:38577   */\n      pop\n        /* \"#utility.yul\":37690:38577   */\n      jump(tag_886)\n        /* \"#utility.yul\":37720:38338   */\n    tag_887:\n        /* \"#utility.yul\":37772:37776   */\n      0x1f\n        /* \"#utility.yul\":37768:37777   */\n      not\n        /* \"#utility.yul\":37760:37766   */\n      dup5\n        /* \"#utility.yul\":37756:37778   */\n      and\n        /* \"#utility.yul\":37806:37843   */\n      tag_890\n        /* \"#utility.yul\":37838:37842   */\n      dup7\n        /* \"#utility.yul\":37806:37843   */\n      tag_515\n      jump\t// in\n    tag_890:\n        /* \"#utility.yul\":37865:37866   */\n      0x00\n        /* \"#utility.yul\":37879:38087   */\n    tag_891:\n        /* \"#utility.yul\":37893:37900   */\n      dup3\n        /* \"#utility.yul\":37890:37891   */\n      dup2\n        /* \"#utility.yul\":37887:37901   */\n      lt\n        /* \"#utility.yul\":37879:38087   */\n      iszero\n      tag_893\n      jumpi\n        /* \"#utility.yul\":37972:37981   */\n      dup5\n        /* \"#utility.yul\":37967:37970   */\n      dup10\n        /* \"#utility.yul\":37963:37982   */\n      add\n        /* \"#utility.yul\":37957:37983   */\n      mload\n        /* \"#utility.yul\":37949:37955   */\n      dup3\n        /* \"#utility.yul\":37942:37984   */\n      sstore\n        /* \"#utility.yul\":38023:38024   */\n      0x01\n        /* \"#utility.yul\":38015:38021   */\n      dup3\n        /* \"#utility.yul\":38011:38025   */\n      add\n        /* \"#utility.yul\":38001:38025   */\n      swap2\n      pop\n        /* \"#utility.yul\":38070:38072   */\n      0x20\n        /* \"#utility.yul\":38059:38068   */\n      dup6\n        /* \"#utility.yul\":38055:38073   */\n      add\n        /* \"#utility.yul\":38042:38073   */\n      swap5\n      pop\n        /* \"#utility.yul\":37916:37920   */\n      0x20\n        /* \"#utility.yul\":37913:37914   */\n      dup2\n        /* \"#utility.yul\":37909:37921   */\n      add\n        /* \"#utility.yul\":37904:37921   */\n      swap1\n      pop\n        /* \"#utility.yul\":37879:38087   */\n      jump(tag_891)\n    tag_893:\n        /* \"#utility.yul\":38115:38121   */\n      dup7\n        /* \"#utility.yul\":38106:38113   */\n      dup4\n        /* \"#utility.yul\":38103:38122   */\n      lt\n        /* \"#utility.yul\":38100:38279   */\n      iszero\n      tag_894\n      jumpi\n        /* \"#utility.yul\":38173:38182   */\n      dup5\n        /* \"#utility.yul\":38168:38171   */\n      dup10\n        /* \"#utility.yul\":38164:38183   */\n      add\n        /* \"#utility.yul\":38158:38184   */\n      mload\n        /* \"#utility.yul\":38216:38264   */\n      tag_895\n        /* \"#utility.yul\":38258:38262   */\n      0x1f\n        /* \"#utility.yul\":38250:38256   */\n      dup10\n        /* \"#utility.yul\":38246:38263   */\n      and\n        /* \"#utility.yul\":38235:38244   */\n      dup3\n        /* \"#utility.yul\":38216:38264   */\n      tag_527\n      jump\t// in\n    tag_895:\n        /* \"#utility.yul\":38208:38214   */\n      dup4\n        /* \"#utility.yul\":38201:38265   */\n      sstore\n        /* \"#utility.yul\":38123:38279   */\n      pop\n        /* \"#utility.yul\":38100:38279   */\n    tag_894:\n        /* \"#utility.yul\":38325:38326   */\n      0x01\n        /* \"#utility.yul\":38321:38322   */\n      0x02\n        /* \"#utility.yul\":38313:38319   */\n      dup9\n        /* \"#utility.yul\":38309:38323   */\n      mul\n        /* \"#utility.yul\":38305:38327   */\n      add\n        /* \"#utility.yul\":38299:38303   */\n      dup9\n        /* \"#utility.yul\":38292:38328   */\n      sstore\n        /* \"#utility.yul\":37727:38338   */\n      pop\n      pop\n      pop\n        /* \"#utility.yul\":37690:38577   */\n    tag_886:\n      pop\n        /* \"#utility.yul\":37280:38583   */\n      pop\n      pop\n      pop\n        /* \"#utility.yul\":37188:38583   */\n      pop\n      pop\n      jump\t// out\n        /* \"#utility.yul\":38589:38740   */\n    tag_529:\n        /* \"#utility.yul\":38729:38732   */\n      0x4100000000000000000000000000000000000000000000000000000000000000\n        /* \"#utility.yul\":38725:38726   */\n      0x00\n        /* \"#utility.yul\":38717:38723   */\n      dup3\n        /* \"#utility.yul\":38713:38727   */\n      add\n        /* \"#utility.yul\":38706:38733   */\n      mstore\n        /* \"#utility.yul\":38589:38740   */\n      pop\n      jump\t// out\n        /* \"#utility.yul\":38746:39146   */\n    tag_530:\n        /* \"#utility.yul\":38906:38909   */\n      0x00\n        /* \"#utility.yul\":38927:39011   */\n      tag_898\n        /* \"#utility.yul\":39009:39010   */\n      0x01\n        /* \"#utility.yul\":39004:39007   */\n      dup4\n        /* \"#utility.yul\":38927:39011   */\n      tag_498\n      jump\t// in\n    tag_898:\n        /* \"#utility.yul\":38920:39011   */\n      swap2\n      pop\n        /* \"#utility.yul\":39020:39113   */\n      tag_899\n        /* \"#utility.yul\":39109:39112   */\n      dup3\n        /* \"#utility.yul\":39020:39113   */\n      tag_529\n      jump\t// in\n    tag_899:\n        /* \"#utility.yul\":39138:39139   */\n      0x01\n        /* \"#utility.yul\":39133:39136   */\n      dup3\n        /* \"#utility.yul\":39129:39140   */\n      add\n        /* \"#utility.yul\":39122:39140   */\n      swap1\n      pop\n        /* \"#utility.yul\":38746:39146   */\n      swap2\n      swap1\n      pop\n      jump\t// out\n        /* \"#utility.yul\":39152:39533   */\n    tag_317:\n        /* \"#utility.yul\":39337:39340   */\n      0x00\n        /* \"#utility.yul\":39359:39507   */\n      tag_901\n        /* \"#utility.yul\":39503:39506   */\n      dup3\n        /* \"#utility.yul\":39359:39507   */\n      tag_530\n      jump\t// in\n    tag_901:\n        /* \"#utility.yul\":39352:39507   */\n      swap2\n      pop\n        /* \"#utility.yul\":39524:39527   */\n      dup2\n        /* \"#utility.yul\":39517:39527   */\n      swap1\n      pop\n        /* \"#utility.yul\":39152:39533   */\n      swap2\n      swap1\n      pop\n      jump\t// out\n        /* \"#utility.yul\":39539:39690   */\n    tag_531:\n        /* \"#utility.yul\":39679:39682   */\n      0x4200000000000000000000000000000000000000000000000000000000000000\n        /* \"#utility.yul\":39675:39676   */\n      0x00\n        /* \"#utility.yul\":39667:39673   */\n      dup3\n        /* \"#utility.yul\":39663:39677   */\n      add\n        /* \"#utility.yul\":39656:39683   */\n      mstore\n        /* \"#utility.yul\":39539:39690   */\n      pop\n      jump\t// out\n        /* \"#utility.yul\":39696:40096   */\n    tag_532:\n        /* \"#utility.yul\":39856:39859   */\n      0x00\n        /* \"#utility.yul\":39877:39961   */\n      tag_904\n        /* \"#utility.yul\":39959:39960   */\n      0x01\n        /* \"#utility.yul\":39954:39957   */\n      dup4\n        /* \"#utility.yul\":39877:39961   */\n      tag_498\n      jump\t// in\n    tag_904:\n        /* \"#utility.yul\":39870:39961   */\n      swap2\n      pop\n        /* \"#utility.yul\":39970:40063   */\n      tag_905\n        /* \"#utility.yul\":40059:40062   */\n      dup3\n        /* \"#utility.yul\":39970:40063   */\n      tag_531\n      jump\t// in\n    tag_905:\n        /* \"#utility.yul\":40088:40089   */\n      0x01\n        /* \"#utility.yul\":40083:40086   */\n      dup3\n        /* \"#utility.yul\":40079:40090   */\n      add\n        /* \"#utility.yul\":40072:40090   */\n      swap1\n      pop\n        /* \"#utility.yul\":39696:40096   */\n      swap2\n      swap1\n      pop\n      jump\t// out\n        /* \"#utility.yul\":40102:40483   */\n    tag_323:\n        /* \"#utility.yul\":40287:40290   */\n      0x00\n        /* \"#utility.yul\":40309:40457   */\n      tag_907\n        /* \"#utility.yul\":40453:40456   */\n      dup3\n        /* \"#utility.yul\":40309:40457   */\n      tag_532\n      jump\t// in\n    tag_907:\n        /* \"#utility.yul\":40302:40457   */\n      swap2\n      pop\n        /* \"#utility.yul\":40474:40477   */\n      dup2\n        /* \"#utility.yul\":40467:40477   */\n      swap1\n      pop\n        /* \"#utility.yul\":40102:40483   */\n      swap2\n      swap1\n      pop\n      jump\t// out\n        /* \"#utility.yul\":40489:40640   */\n    tag_533:\n        /* \"#utility.yul\":40629:40632   */\n      0x4300000000000000000000000000000000000000000000000000000000000000\n        /* \"#utility.yul\":40625:40626   */\n      0x00\n        /* \"#utility.yul\":40617:40623   */\n      dup3\n        /* \"#utility.yul\":40613:40627   */\n      add\n        /* \"#utility.yul\":40606:40633   */\n      mstore\n        /* \"#utility.yul\":40489:40640   */\n      pop\n      jump\t// out\n        /* \"#utility.yul\":40646:41046   */\n    tag_534:\n        /* \"#utility.yul\":40806:40809   */\n      0x00\n        /* \"#utility.yul\":40827:40911   */\n      tag_910\n        /* \"#utility.yul\":40909:40910   */\n      0x01\n        /* \"#utility.yul\":40904:40907   */\n      dup4\n        /* \"#utility.yul\":40827:40911   */\n      tag_498\n      jump\t// in\n    tag_910:\n        /* \"#utility.yul\":40820:40911   */\n      swap2\n      pop\n        /* \"#utility.yul\":40920:41013   */\n      tag_911\n        /* \"#utility.yul\":41009:41012   */\n      dup3\n        /* \"#utility.yul\":40920:41013   */\n      tag_533\n      jump\t// in\n    tag_911:\n        /* \"#utility.yul\":41038:41039   */\n      0x01\n        /* \"#utility.yul\":41033:41036   */\n      dup3\n        /* \"#utility.yul\":41029:41040   */\n      add\n        /* \"#utility.yul\":41022:41040   */\n      swap1\n      pop\n        /* \"#utility.yul\":40646:41046   */\n      swap2\n      swap1\n      pop\n      jump\t// out\n        /* \"#utility.yul\":41052:41433   */\n    tag_329:\n        /* \"#utility.yul\":41237:41240   */\n      0x00\n        /* \"#utility.yul\":41259:41407   */\n      tag_913\n        /* \"#utility.yul\":41403:41406   */\n      dup3\n        /* \"#utility.yul\":41259:41407   */\n      tag_534\n      jump\t// in\n    tag_913:\n        /* \"#utility.yul\":41252:41407   */\n      swap2\n      pop\n        /* \"#utility.yul\":41424:41427   */\n      dup2\n        /* \"#utility.yul\":41417:41427   */\n      swap1\n      pop\n        /* \"#utility.yul\":41052:41433   */\n      swap2\n      swap1\n      pop\n      jump\t// out\n        /* \"#utility.yul\":41439:41590   */\n    tag_535:\n        /* \"#utility.yul\":41579:41582   */\n      0x4400000000000000000000000000000000000000000000000000000000000000\n        /* \"#utility.yul\":41575:41576   */\n      0x00\n        /* \"#utility.yul\":41567:41573   */\n      dup3\n        /* \"#utility.yul\":41563:41577   */\n      add\n        /* \"#utility.yul\":41556:41583   */\n      mstore\n        /* \"#utility.yul\":41439:41590   */\n      pop\n      jump\t// out\n        /* \"#utility.yul\":41596:41996   */\n    tag_536:\n        /* \"#utility.yul\":41756:41759   */\n      0x00\n        /* \"#utility.yul\":41777:41861   */\n      tag_916\n        /* \"#utility.yul\":41859:41860   */\n      0x01\n        /* \"#utility.yul\":41854:41857   */\n      dup4\n        /* \"#utility.yul\":41777:41861   */\n      tag_498\n      jump\t// in\n    tag_916:\n        /* \"#utility.yul\":41770:41861   */\n      swap2\n      pop\n        /* \"#utility.yul\":41870:41963   */\n      tag_917\n        /* \"#utility.yul\":41959:41962   */\n      dup3\n        /* \"#utility.yul\":41870:41963   */\n      tag_535\n      jump\t// in\n    tag_917:\n        /* \"#utility.yul\":41988:41989   */\n      0x01\n        /* \"#utility.yul\":41983:41986   */\n      dup3\n        /* \"#utility.yul\":41979:41990   */\n      add\n        /* \"#utility.yul\":41972:41990   */\n      swap1\n      pop\n        /* \"#utility.yul\":41596:41996   */\n      swap2\n      swap1\n      pop\n      jump\t// out\n        /* \"#utility.yul\":42002:42383   */\n    tag_335:\n        /* \"#utility.yul\":42187:42190   */\n      0x00\n        /* \"#utility.yul\":42209:42357   */\n      tag_919\n        /* \"#utility.yul\":42353:42356   */\n      dup3\n        /* \"#utility.yul\":42209:42357   */\n      tag_536\n      jump\t// in\n    tag_919:\n        /* \"#utility.yul\":42202:42357   */\n      swap2\n      pop\n        /* \"#utility.yul\":42374:42377   */\n      dup2\n        /* \"#utility.yul\":42367:42377   */\n      swap1\n      pop\n        /* \"#utility.yul\":42002:42383   */\n      swap2\n      swap1\n      pop\n      jump\t// out\n        /* \"#utility.yul\":42389:42561   */\n    tag_537:\n        /* \"#utility.yul\":42529:42553   */\n      0x496e76616c696420636f727265637420616e7377657200000000000000000000\n        /* \"#utility.yul\":42525:42526   */\n      0x00\n        /* \"#utility.yul\":42517:42523   */\n      dup3\n        /* \"#utility.yul\":42513:42527   */\n      add\n        /* \"#utility.yul\":42506:42554   */\n      mstore\n        /* \"#utility.yul\":42389:42561   */\n      pop\n      jump\t// out\n        /* \"#utility.yul\":42567:42933   */\n    tag_538:\n        /* \"#utility.yul\":42709:42712   */\n      0x00\n        /* \"#utility.yul\":42730:42797   */\n      tag_922\n        /* \"#utility.yul\":42794:42796   */\n      0x16\n        /* \"#utility.yul\":42789:42792   */\n      dup4\n        /* \"#utility.yul\":42730:42797   */\n      tag_474\n      jump\t// in\n    tag_922:\n        /* \"#utility.yul\":42723:42797   */\n      swap2\n      pop\n        /* \"#utility.yul\":42806:42899   */\n      tag_923\n        /* \"#utility.yul\":42895:42898   */\n      dup3\n        /* \"#utility.yul\":42806:42899   */\n      tag_537\n      jump\t// in\n    tag_923:\n        /* \"#utility.yul\":42924:42926   */\n      0x20\n        /* \"#utility.yul\":42919:42922   */\n      dup3\n        /* \"#utility.yul\":42915:42927   */\n      add\n        /* \"#utility.yul\":42908:42927   */\n      swap1\n      pop\n        /* \"#utility.yul\":42567:42933   */\n      swap2\n      swap1\n      pop\n      jump\t// out\n        /* \"#utility.yul\":42939:43358   */\n    tag_341:\n        /* \"#utility.yul\":43105:43109   */\n      0x00\n        /* \"#utility.yul\":43143:43145   */\n      0x20\n        /* \"#utility.yul\":43132:43141   */\n      dup3\n        /* \"#utility.yul\":43128:43146   */\n      add\n        /* \"#utility.yul\":43120:43146   */\n      swap1\n      pop\n        /* \"#utility.yul\":43192:43201   */\n      dup2\n        /* \"#utility.yul\":43186:43190   */\n      dup2\n        /* \"#utility.yul\":43182:43202   */\n      sub\n        /* \"#utility.yul\":43178:43179   */\n      0x00\n        /* \"#utility.yul\":43167:43176   */\n      dup4\n        /* \"#utility.yul\":43163:43180   */\n      add\n        /* \"#utility.yul\":43156:43203   */\n      mstore\n        /* \"#utility.yul\":43220:43351   */\n      tag_925\n        /* \"#utility.yul\":43346:43350   */\n      dup2\n        /* \"#utility.yul\":43220:43351   */\n      tag_538\n      jump\t// in\n    tag_925:\n        /* \"#utility.yul\":43212:43351   */\n      swap1\n      pop\n        /* \"#utility.yul\":42939:43358   */\n      swap2\n      swap1\n      pop\n      jump\t// out\n        /* \"#utility.yul\":43364:43530   */\n    tag_539:\n        /* \"#utility.yul\":43504:43522   */\n      0x5061757361626c653a2070617573656400000000000000000000000000000000\n        /* \"#utility.yul\":43500:43501   */\n      0x00\n        /* \"#utility.yul\":43492:43498   */\n      dup3\n        /* \"#utility.yul\":43488:43502   */\n      add\n        /* \"#utility.yul\":43481:43523   */\n      mstore\n        /* \"#utility.yul\":43364:43530   */\n      pop\n      jump\t// out\n        /* \"#utility.yul\":43536:43902   */\n    tag_540:\n        /* \"#utility.yul\":43678:43681   */\n      0x00\n        /* \"#utility.yul\":43699:43766   */\n      tag_928\n        /* \"#utility.yul\":43763:43765   */\n      0x10\n        /* \"#utility.yul\":43758:43761   */\n      dup4\n        /* \"#utility.yul\":43699:43766   */\n      tag_474\n      jump\t// in\n    tag_928:\n        /* \"#utility.yul\":43692:43766   */\n      swap2\n      pop\n        /* \"#utility.yul\":43775:43868   */\n      tag_929\n        /* \"#utility.yul\":43864:43867   */\n      dup3\n        /* \"#utility.yul\":43775:43868   */\n      tag_539\n      jump\t// in\n    tag_929:\n        /* \"#utility.yul\":43893:43895   */\n      0x20\n        /* \"#utility.yul\":43888:43891   */\n      dup3\n        /* \"#utility.yul\":43884:43896   */\n      add\n        /* \"#utility.yul\":43877:43896   */\n      swap1\n      pop\n        /* \"#utility.yul\":43536:43902   */\n      swap2\n      swap1\n      pop\n      jump\t// out\n        /* \"#utility.yul\":43908:44327   */\n    tag_425:\n        /* \"#utility.yul\":44074:44078   */\n      0x00\n        /* \"#utility.yul\":44112:44114   */\n      0x20\n        /* \"#utility.yul\":44101:44110   */\n      dup3\n        /* \"#utility.yul\":44097:44115   */\n      add\n        /* \"#utility.yul\":44089:44115   */\n      swap1\n      pop\n        /* \"#utility.yul\":44161:44170   */\n      dup2\n        /* \"#utility.yul\":44155:44159   */\n      dup2\n        /* \"#utility.yul\":44151:44171   */\n      sub\n        /* \"#utility.yul\":44147:44148   */\n      0x00\n        /* \"#utility.yul\":44136:44145   */\n      dup4\n        /* \"#utility.yul\":44132:44149   */\n      add\n        /* \"#utility.yul\":44125:44172   */\n      mstore\n        /* \"#utility.yul\":44189:44320   */\n      tag_931\n        /* \"#utility.yul\":44315:44319   */\n      dup2\n        /* \"#utility.yul\":44189:44320   */\n      tag_540\n      jump\t// in\n    tag_931:\n        /* \"#utility.yul\":44181:44320   */\n      swap1\n      pop\n        /* \"#utility.yul\":43908:44327   */\n      swap2\n      swap1\n      pop\n      jump\t// out\n        /* \"#utility.yul\":44333:44503   */\n    tag_541:\n        /* \"#utility.yul\":44473:44495   */\n      0x5061757361626c653a206e6f7420706175736564000000000000000000000000\n        /* \"#utility.yul\":44469:44470   */\n      0x00\n        /* \"#utility.yul\":44461:44467   */\n      dup3\n        /* \"#utility.yul\":44457:44471   */\n      add\n        /* \"#utility.yul\":44450:44496   */\n      mstore\n        /* \"#utility.yul\":44333:44503   */\n      pop\n      jump\t// out\n        /* \"#utility.yul\":44509:44875   */\n    tag_542:\n        /* \"#utility.yul\":44651:44654   */\n      0x00\n        /* \"#utility.yul\":44672:44739   */\n      tag_934\n        /* \"#utility.yul\":44736:44738   */\n      0x14\n        /* \"#utility.yul\":44731:44734   */\n      dup4\n        /* \"#utility.yul\":44672:44739   */\n      tag_474\n      jump\t// in\n    tag_934:\n        /* \"#utility.yul\":44665:44739   */\n      swap2\n      pop\n        /* \"#utility.yul\":44748:44841   */\n      tag_935\n        /* \"#utility.yul\":44837:44840   */\n      dup3\n        /* \"#utility.yul\":44748:44841   */\n      tag_541\n      jump\t// in\n    tag_935:\n        /* \"#utility.yul\":44866:44868   */\n      0x20\n        /* \"#utility.yul\":44861:44864   */\n      dup3\n        /* \"#utility.yul\":44857:44869   */\n      add\n        /* \"#utility.yul\":44850:44869   */\n      swap1\n      pop\n        /* \"#utility.yul\":44509:44875   */\n      swap2\n      swap1\n      pop\n      jump\t// out\n        /* \"#utility.yul\":44881:45300   */\n    tag_437:\n        /* \"#utility.yul\":45047:45051   */\n      0x00\n        /* \"#utility.yul\":45085:45087   */\n      0x20\n        /* \"#utility.yul\":45074:45083   */\n      dup3\n        /* \"#utility.yul\":45070:45088   */\n      add\n        /* \"#utility.yul\":45062:45088   */\n      swap1\n      pop\n        /* \"#utility.yul\":45134:45143   */\n      dup2\n        /* \"#utility.yul\":45128:45132   */\n      dup2\n        /* \"#utility.yul\":45124:45144   */\n      sub\n        /* \"#utility.yul\":45120:45121   */\n      0x00\n        /* \"#utility.yul\":45109:45118   */\n      dup4\n        /* \"#utility.yul\":45105:45122   */\n      add\n        /* \"#utility.yul\":45098:45145   */\n      mstore\n        /* \"#utility.yul\":45162:45293   */\n      tag_937\n        /* \"#utility.yul\":45288:45292   */\n      dup2\n        /* \"#utility.yul\":45162:45293   */\n      tag_542\n      jump\t// in\n    tag_937:\n        /* \"#utility.yul\":45154:45293   */\n      swap1\n      pop\n        /* \"#utility.yul\":44881:45300   */\n      swap2\n      swap1\n      pop\n      jump\t// out\n\n    auxdata: 0xa2646970667358221220fac3cb3871b01a2a6fe8285dc04398b6183be611e2e4142971f7fd9456c0c6cc64736f6c634300081a0033\n}\n",
				"bytecode": {
					"linkReferences": {},
					"object": "608060405234801561000f575f80fd5b50604051613b86380380613b8683398181016040528101906100319190610237565b335f73ffffffffffffffffffffffffffffffffffffffff168173ffffffffffffffffffffffffffffffffffffffff16036100a2575f6040517f1e4fbdf70000000000000000000000000000000000000000000000000000000081526004016100999190610271565b60405180910390fd5b6100b18161011860201b60201c565b505f8060146101000a81548160ff0219169083151502179055508060015f6101000a81548173ffffffffffffffffffffffffffffffffffffffff021916908373ffffffffffffffffffffffffffffffffffffffff160217905550426002819055505061028a565b5f805f9054906101000a900473ffffffffffffffffffffffffffffffffffffffff169050815f806101000a81548173ffffffffffffffffffffffffffffffffffffffff021916908373ffffffffffffffffffffffffffffffffffffffff1602179055508173ffffffffffffffffffffffffffffffffffffffff168173ffffffffffffffffffffffffffffffffffffffff167f8be0079c531659141344cd1fd0a4f28419497f9722a3daafe3b4186f6b6457e060405160405180910390a35050565b5f80fd5b5f73ffffffffffffffffffffffffffffffffffffffff82169050919050565b5f610206826101dd565b9050919050565b610216816101fc565b8114610220575f80fd5b50565b5f815190506102318161020d565b92915050565b5f6020828403121561024c5761024b6101d9565b5b5f61025984828501610223565b91505092915050565b61026b816101fc565b82525050565b5f6020820190506102845f830184610262565b92915050565b6138ef806102975f395ff3fe608060405260043610610169575f3560e01c806379370df3116100d0578063a4d8754a11610089578063b0aaefd611610063578063b0aaefd614610494578063cf90b3be146104d6578063f2fde38b14610500578063fbf1aded1461052857610170565b8063a4d8754a14610416578063a4e1f03314610440578063ae24f0051461046a57610170565b806379370df3146103275780638456cb591461034357806387bc1425146103595780638da5cb5b14610383578063905baa61146103ad57806396f979d2146103d557610170565b80635c975abb116101225780635c975abb1461025d5780635cb45cb5146102875780635e52da27146102a357806366055159146102bf578063715018a6146102e957806375284998146102ff57610170565b806307f910f81461017457806315ba75f4146101b357806334a014dc146101c95780633f4ba83a146101f35780634c64c03014610209578063587f5ed71461023357610170565b3661017057005b5f80fd5b34801561017f575f80fd5b5061019a600480360381019061019591906123ba565b610552565b6040516101aa949392919061242d565b60405180910390f35b3480156101be575f80fd5b506101c76105b9565b005b3480156101d4575f80fd5b506101dd610712565b6040516101ea919061247f565b60405180910390f35b3480156101fe575f80fd5b50610207610718565b005b348015610214575f80fd5b5061021d61072a565b60405161022a919061247f565b60405180910390f35b34801561023e575f80fd5b50610247610731565b604051610254919061247f565b60405180910390f35b348015610268575f80fd5b50610271610737565b60405161027e9190612498565b60405180910390f35b6102a1600480360381019061029c91906126cf565b61074c565b005b6102bd60048036038101906102b89190612729565b610f8f565b005b3480156102ca575f80fd5b506102d3611313565b6040516102e0919061247f565b60405180910390f35b3480156102f4575f80fd5b506102fd611319565b005b34801561030a575f80fd5b5061032560048036038101906103209190612729565b61132c565b005b610341600480360381019061033c9190612754565b6113f1565b005b34801561034e575f80fd5b50610357611b3d565b005b348015610364575f80fd5b5061036d611b4f565b60405161037a9190612910565b60405180910390f35b34801561038e575f80fd5b50610397611b74565b6040516103a49190612938565b60405180910390f35b3480156103b8575f80fd5b506103d360048036038101906103ce9190612951565b611b9b565b005b3480156103e0575f80fd5b506103fb60048036038101906103f69190612729565b611be6565b60405161040d969594939291906129dc565b60405180910390f35b348015610421575f80fd5b5061042a611ccf565b604051610437919061247f565b60405180910390f35b34801561044b575f80fd5b50610454611cdb565b604051610461919061247f565b60405180910390f35b348015610475575f80fd5b5061047e611ce0565b60405161048b919061247f565b60405180910390f35b34801561049f575f80fd5b506104ba60048036038101906104b59190612a42565b611ce5565b6040516104cd9796959493929190612a98565b60405180910390f35b3480156104e1575f80fd5b506104ea611fdb565b6040516104f7919061247f565b60405180910390f35b34801561050b575f80fd5b5061052660048036038101906105219190612951565b611fe7565b005b348015610533575f80fd5b5061053c61206b565b604051610549919061247f565b60405180910390f35b6005602052815f5260405f20602052805f5260405f205f9150915050805f015f9054906101000a900460ff1690805f0160019054906101000a900460ff1690805f0160029054906101000a900460ff1690805f0160039054906101000a900460ff16905084565b6105c1612077565b6228de806002546105d29190612b55565b421015610614576040517f08c379a000000000000000000000000000000000000000000000000000000000815260040161060b90612bd2565b60405180910390fd5b5f60035490505f600381905550426002819055505f610631611b74565b73ffffffffffffffffffffffffffffffffffffffff168260405161065490612c1d565b5f6040518083038185875af1925050503d805f811461068e576040519150601f19603f3d011682016040523d82523d5f602084013e610693565b606091505b50509050806106d7576040517f08c379a00000000000000000000000000000000000000000000000000000000081526004016106ce90612c7b565b60405180910390fd5b7f0d3c6acef4f1bd70f36dad19b43c6b794ac969b546734638671026f801d476fa82604051610706919061247f565b60405180910390a15050565b60025481565b610720612077565b6107286120fe565b565b6228de8081565b60035481565b5f8060149054906101000a900460ff16905090565b670a688906bd8b0000341015610797576040517f08c379a000000000000000000000000000000000000000000000000000000000815260040161078e90612ce3565b60405180910390fd5b670a688906bd8b000060035f8282546107b09190612b55565b925050819055505f670a688906bd8b0000346107cc9190612d01565b90505f81111561081b573373ffffffffffffffffffffffffffffffffffffffff166108fc8290811502906040515f60405180830381858888f19350505050158015610819573d5f803e3d5ffd5b505b5f60055f3373ffffffffffffffffffffffffffffffffffffffff1673ffffffffffffffffffffffffffffffffffffffff1681526020019081526020015f205f8581526020019081526020015f209050805f015f9054906101000a900460ff166108b9576040517f08c379a00000000000000000000000000000000000000000000000000000000081526004016108b090612d7e565b60405180910390fd5b6002815f0160019054906101000a900460ff1660ff161061090f576040517f08c379a000000000000000000000000000000000000000000000000000000000815260040161090690612de6565b60405180910390fd5b805f0160029054906101000a900460ff1615610960576040517f08c379a000000000000000000000000000000000000000000000000000000000815260040161095790612e74565b60405180910390fd5b805f01600181819054906101000a900460ff168092919061098090612e92565b91906101000a81548160ff021916908360ff160217905550505f60065f8681526020019081526020015f20805480602002602001604051908101604052809291908181526020015f905b82821015610cdd578382905f5260205f2090600702016040518060e00160405290815f8201548152602001600182018054610a0490612ee7565b80601f0160208091040260200160405190810160405280929190818152602001828054610a3090612ee7565b8015610a7b5780601f10610a5257610100808354040283529160200191610a7b565b820191905f5260205f20905b815481529060010190602001808311610a5e57829003601f168201915b50505050508152602001600282018054610a9490612ee7565b80601f0160208091040260200160405190810160405280929190818152602001828054610ac090612ee7565b8015610b0b5780601f10610ae257610100808354040283529160200191610b0b565b820191905f5260205f20905b815481529060010190602001808311610aee57829003601f168201915b50505050508152602001600382018054610b2490612ee7565b80601f0160208091040260200160405190810160405280929190818152602001828054610b5090612ee7565b8015610b9b5780601f10610b7257610100808354040283529160200191610b9b565b820191905f5260205f20905b815481529060010190602001808311610b7e57829003601f168201915b50505050508152602001600482018054610bb490612ee7565b80601f0160208091040260200160405190810160405280929190818152602001828054610be090612ee7565b8015610c2b5780601f10610c0257610100808354040283529160200191610c2b565b820191905f5260205f20905b815481529060010190602001808311610c0e57829003601f168201915b50505050508152602001600582018054610c4490612ee7565b80601f0160208091040260200160405190810160405280929190818152602001828054610c7090612ee7565b8015610cbb5780601f10610c9257610100808354040283529160200191610cbb565b820191905f5260205f20905b815481529060010190602001808311610c9e57829003601f168201915b50505050508152602001600682015481525050815260200190600101906109ca565b5050505090508051845114610d27576040517f08c379a0000000000000000000000000000000000000000000000000000000008152600401610d1e90612f61565b60405180910390fd5b5f600190505f5b8251811015610db157828181518110610d4a57610d49612f7f565b5b602002602001015160c00151868281518110610d6957610d68612f7f565b5b6020026020010151604051602001610d819190612fe6565b6040516020818303038152906040528051906020012014610da4575f9150610db1565b8080600101915050610d2e565b508015610f38576001835f0160026101000a81548160ff02191690831515021790555060045f8781526020019081526020015f206003015f815480929190610df890612ffc565b9190505550678ac7230489e8000060045f8881526020019081526020015f206004015f828254610e289190612b55565b925050819055505f3373ffffffffffffffffffffffffffffffffffffffff16678ac7230489e80000604051610e5c90612c1d565b5f6040518083038185875af1925050503d805f8114610e96576040519150601f19603f3d011682016040523d82523d5f602084013e610e9b565b606091505b5050905080610edf576040517f08c379a0000000000000000000000000000000000000000000000000000000008152600401610ed69061308d565b60405180910390fd5b3373ffffffffffffffffffffffffffffffffffffffff16877f24b5efa61dd1cfc659205a97fb8ed868f3cb8c81922bab2b96423e5de1de2cb7678ac7230489e80000604051610f2e919061247f565b60405180910390a3505b3373ffffffffffffffffffffffffffffffffffffffff16867faee8895c1bf669485cee2dd54d1eee9e65b02a244afb6f798f95d72405cdf7a583604051610f7f9190612498565b60405180910390a3505050505050565b610f9761215f565b670a688906bd8b0000341015610fe2576040517f08c379a0000000000000000000000000000000000000000000000000000000008152600401610fd990612ce3565b60405180910390fd5b670a688906bd8b000060035f828254610ffb9190612b55565b925050819055505f670a688906bd8b0000346110179190612d01565b90505f811115611066573373ffffffffffffffffffffffffffffffffffffffff166108fc8290811502906040515f60405180830381858888f19350505050158015611064573d5f803e3d5ffd5b505b6001805f9054906101000a900473ffffffffffffffffffffffffffffffffffffffff1673ffffffffffffffffffffffffffffffffffffffff1663b9f79451336040518263ffffffff1660e01b81526004016110c19190612938565b602060405180830381865afa1580156110dc573d5f803e3d5ffd5b505050506040513d601f19601f8201168201806040525081019061110091906130bf565b1015611141576040517f08c379a00000000000000000000000000000000000000000000000000000000081526004016111389061315a565b60405180910390fd5b60045f8381526020019081526020015f206002015f9054906101000a900460ff166111a1576040517f08c379a0000000000000000000000000000000000000000000000000000000008152600401611198906131c2565b60405180910390fd5b60055f3373ffffffffffffffffffffffffffffffffffffffff1673ffffffffffffffffffffffffffffffffffffffff1681526020019081526020015f205f8381526020019081526020015f205f015f9054906101000a900460ff161561123c576040517f08c379a00000000000000000000000000000000000000000000000000000000081526004016112339061322a565b60405180910390fd5b600160055f3373ffffffffffffffffffffffffffffffffffffffff1673ffffffffffffffffffffffffffffffffffffffff1681526020019081526020015f205f8481526020019081526020015f205f015f6101000a81548160ff02191690831515021790555060045f8381526020019081526020015f206005015f8154809291906112c690612ffc565b91905055503373ffffffffffffffffffffffffffffffffffffffff16827ffacf1a2842acbad124cbca0a047fe37bc246c68f814e0350c7bd8a022fd1dddb60405160405180910390a35050565b60075481565b611321612077565b61132a5f6121a9565b565b611334612077565b60045f8281526020019081526020015f206002015f9054906101000a900460ff1615611395576040517f08c379a000000000000000000000000000000000000000000000000000000000815260040161138c90613292565b60405180910390fd5b600160045f8381526020019081526020015f206002015f6101000a81548160ff021916908315150217905550807f87c1c0e5cd17beb8c61a3337b32c66021cb179dd6f97d6d9ce923a029092bd4560405160405180910390a250565b6113f961215f565b670a688906bd8b0000341015611444576040517f08c379a000000000000000000000000000000000000000000000000000000000815260040161143b90612ce3565b60405180910390fd5b670a688906bd8b000060035f82825461145d9190612b55565b925050819055505f670a688906bd8b0000346114799190612d01565b90505f8111156114c8573373ffffffffffffffffffffffffffffffffffffffff166108fc8290811502906040515f60405180830381858888f193505050501580156114c6573d5f803e3d5ffd5b505b600560015f9054906101000a900473ffffffffffffffffffffffffffffffffffffffff1673ffffffffffffffffffffffffffffffffffffffff1663b9f79451336040518263ffffffff1660e01b81526004016115249190612938565b602060405180830381865afa15801561153f573d5f803e3d5ffd5b505050506040513d601f19601f8201168201806040525081019061156391906130bf565b10156115a4576040517f08c379a000000000000000000000000000000000000000000000000000000000815260040161159b90613320565b60405180910390fd5b600587511480156115b6575085518751145b80156115c3575084518751145b80156115d0575083518751145b80156115dd575082518751145b80156115ea575081518751145b611629576040517f08c379a000000000000000000000000000000000000000000000000000000000815260040161162090613388565b60405180910390fd5b5f60075f81548092919061163c90612ffc565b9190505590506040518060c001604052803373ffffffffffffffffffffffffffffffffffffffff1681526020018a81526020015f151581526020015f81526020015f81526020015f81525060045f8381526020019081526020015f205f820151815f015f6101000a81548173ffffffffffffffffffffffffffffffffffffffff021916908373ffffffffffffffffffffffffffffffffffffffff16021790555060208201518160010190816116f1919061353a565b506040820151816002015f6101000a81548160ff021916908315150217905550606082015181600301556080820151816004015560a082015181600501559050505f5b8851811015611aed5760405160200161174c90613653565b6040516020818303038152906040528051906020012084828151811061177557611774612f7f565b5b602002602001015160405160200161178d9190612fe6565b60405160208183030381529060405280519060200120148061181257506040516020016117b9906136b1565b604051602081830303815290604052805190602001208482815181106117e2576117e1612f7f565b5b60200260200101516040516020016117fa9190612fe6565b60405160208183030381529060405280519060200120145b8061188057506040516020016118279061370f565b604051602081830303815290604052805190602001208482815181106118505761184f612f7f565b5b60200260200101516040516020016118689190612fe6565b60405160208183030381529060405280519060200120145b806118ee57506040516020016118959061376d565b604051602081830303815290604052805190602001208482815181106118be576118bd612f7f565b5b60200260200101516040516020016118d69190612fe6565b60405160208183030381529060405280519060200120145b61192d576040517f08c379a0000000000000000000000000000000000000000000000000000000008152600401611924906137cb565b60405180910390fd5b5f6040518060e001604052808481526020018b848151811061195257611951612f7f565b5b602002602001015181526020018a848151811061197257611971612f7f565b5b6020026020010151815260200189848151811061199257611991612f7f565b5b602002602001015181526020018884815181106119b2576119b1612f7f565b5b602002602001015181526020018784815181106119d2576119d1612f7f565b5b602002602001015181526020018684815181106119f2576119f1612f7f565b5b6020026020010151604051602001611a0a9190612fe6565b60405160208183030381529060405280519060200120815250905060065f8481526020019081526020015f2081908060018154018082558091505060019003905f5260205f2090600702015f909190919091505f820151815f01556020820151816001019081611a7a919061353a565b506040820151816002019081611a90919061353a565b506060820151816003019081611aa6919061353a565b506080820151816004019081611abc919061353a565b5060a0820151816005019081611ad2919061353a565b5060c082015181600601555050508080600101915050611734565b503373ffffffffffffffffffffffffffffffffffffffff16817fa68f79aa37f9cdc81c2757cfb3e11e9d7d89ca0a5410fbcf1b61125bc17fb1b760405160405180910390a3505050505050505050565b611b45612077565b611b4d61226a565b565b60015f9054906101000a900473ffffffffffffffffffffffffffffffffffffffff1681565b5f805f9054906101000a900473ffffffffffffffffffffffffffffffffffffffff16905090565b611ba3612077565b8060015f6101000a81548173ffffffffffffffffffffffffffffffffffffffff021916908373ffffffffffffffffffffffffffffffffffffffff16021790555050565b6004602052805f5260405f205f91509050805f015f9054906101000a900473ffffffffffffffffffffffffffffffffffffffff1690806001018054611c2a90612ee7565b80601f0160208091040260200160405190810160405280929190818152602001828054611c5690612ee7565b8015611ca15780601f10611c7857610100808354040283529160200191611ca1565b820191905f5260205f20905b815481529060010190602001808311611c8457829003601f168201915b505050505090806002015f9054906101000a900460ff16908060030154908060040154908060050154905086565b670a688906bd8b000081565b600581565b600181565b6006602052815f5260405f208181548110611cfe575f80fd5b905f5260205f2090600702015f9150915050805f015490806001018054611d2490612ee7565b80601f0160208091040260200160405190810160405280929190818152602001828054611d5090612ee7565b8015611d9b5780601f10611d7257610100808354040283529160200191611d9b565b820191905f5260205f20905b815481529060010190602001808311611d7e57829003601f168201915b505050505090806002018054611db090612ee7565b80601f0160208091040260200160405190810160405280929190818152602001828054611ddc90612ee7565b8015611e275780601f10611dfe57610100808354040283529160200191611e27565b820191905f5260205f20905b815481529060010190602001808311611e0a57829003601f168201915b505050505090806003018054611e3c90612ee7565b80601f0160208091040260200160405190810160405280929190818152602001828054611e6890612ee7565b8015611eb35780601f10611e8a57610100808354040283529160200191611eb3565b820191905f5260205f20905b815481529060010190602001808311611e9657829003601f168201915b505050505090806004018054611ec890612ee7565b80601f0160208091040260200160405190810160405280929190818152602001828054611ef490612ee7565b8015611f3f5780601f10611f1657610100808354040283529160200191611f3f565b820191905f5260205f20905b815481529060010190602001808311611f2257829003601f168201915b505050505090806005018054611f5490612ee7565b80601f0160208091040260200160405190810160405280929190818152602001828054611f8090612ee7565b8015611fcb5780601f10611fa257610100808354040283529160200191611fcb565b820191905f5260205f20905b815481529060010190602001808311611fae57829003601f168201915b5050505050908060060154905087565b670de0b6b3a764000081565b611fef612077565b5f73ffffffffffffffffffffffffffffffffffffffff168173ffffffffffffffffffffffffffffffffffffffff160361205f575f6040517f1e4fbdf70000000000000000000000000000000000000000000000000000000081526004016120569190612938565b60405180910390fd5b612068816121a9565b50565b678ac7230489e8000081565b61207f6122cc565b73ffffffffffffffffffffffffffffffffffffffff1661209d611b74565b73ffffffffffffffffffffffffffffffffffffffff16146120fc576120c06122cc565b6040517f118cdaa70000000000000000000000000000000000000000000000000000000081526004016120f39190612938565b60405180910390fd5b565b6121066122d3565b5f8060146101000a81548160ff0219169083151502179055507f5db9ee0a495bf2e6ff9c91a7834c1ba4fdd244a5e8aa4e537bd38aeae4b073aa6121486122cc565b6040516121559190612938565b60405180910390a1565b612167610737565b156121a7576040517f08c379a000000000000000000000000000000000000000000000000000000000815260040161219e90613833565b60405180910390fd5b565b5f805f9054906101000a900473ffffffffffffffffffffffffffffffffffffffff169050815f806101000a81548173ffffffffffffffffffffffffffffffffffffffff021916908373ffffffffffffffffffffffffffffffffffffffff1602179055508173ffffffffffffffffffffffffffffffffffffffff168173ffffffffffffffffffffffffffffffffffffffff167f8be0079c531659141344cd1fd0a4f28419497f9722a3daafe3b4186f6b6457e060405160405180910390a35050565b61227261215f565b60015f60146101000a81548160ff0219169083151502179055507f62e78cea01bee320cd4e420270b5ea74000d11b0c9f74754ebdbfc544b05a2586122b56122cc565b6040516122c29190612938565b60405180910390a1565b5f33905090565b6122db610737565b61231a576040517f08c379a00000000000000000000000000000000000000000000000000000000081526004016123119061389b565b60405180910390fd5b565b5f604051905090565b5f80fd5b5f80fd5b5f73ffffffffffffffffffffffffffffffffffffffff82169050919050565b5f6123568261232d565b9050919050565b6123668161234c565b8114612370575f80fd5b50565b5f813590506123818161235d565b92915050565b5f819050919050565b61239981612387565b81146123a3575f80fd5b50565b5f813590506123b481612390565b92915050565b5f80604083850312156123d0576123cf612325565b5b5f6123dd85828601612373565b92505060206123ee858286016123a6565b9150509250929050565b5f8115159050919050565b61240c816123f8565b82525050565b5f60ff82169050919050565b61242781612412565b82525050565b5f6080820190506124405f830187612403565b61244d602083018661241e565b61245a6040830185612403565b6124676060830184612403565b95945050505050565b61247981612387565b82525050565b5f6020820190506124925f830184612470565b92915050565b5f6020820190506124ab5f830184612403565b92915050565b5f80fd5b5f601f19601f8301169050919050565b7f4e487b71000000000000000000000000000000000000000000000000000000005f52604160045260245ffd5b6124fb826124b5565b810181811067ffffffffffffffff8211171561251a576125196124c5565b5b80604052505050565b5f61252c61231c565b905061253882826124f2565b919050565b5f67ffffffffffffffff821115612557576125566124c5565b5b602082029050602081019050919050565b5f80fd5b5f80fd5b5f67ffffffffffffffff82111561258a576125896124c5565b5b612593826124b5565b9050602081019050919050565b828183375f83830152505050565b5f6125c06125bb84612570565b612523565b9050828152602081018484840111156125dc576125db61256c565b5b6125e78482856125a0565b509392505050565b5f82601f830112612603576126026124b1565b5b81356126138482602086016125ae565b91505092915050565b5f61262e6126298461253d565b612523565b9050808382526020820190506020840283018581111561265157612650612568565b5b835b8181101561269857803567ffffffffffffffff811115612676576126756124b1565b5b80860161268389826125ef565b85526020850194505050602081019050612653565b5050509392505050565b5f82601f8301126126b6576126b56124b1565b5b81356126c684826020860161261c565b91505092915050565b5f80604083850312156126e5576126e4612325565b5b5f6126f2858286016123a6565b925050602083013567ffffffffffffffff81111561271357612712612329565b5b61271f858286016126a2565b9150509250929050565b5f6020828403121561273e5761273d612325565b5b5f61274b848285016123a6565b91505092915050565b5f805f805f805f60e0888a03121561276f5761276e612325565b5b5f88013567ffffffffffffffff81111561278c5761278b612329565b5b6127988a828b016125ef565b975050602088013567ffffffffffffffff8111156127b9576127b8612329565b5b6127c58a828b016126a2565b965050604088013567ffffffffffffffff8111156127e6576127e5612329565b5b6127f28a828b016126a2565b955050606088013567ffffffffffffffff81111561281357612812612329565b5b61281f8a828b016126a2565b945050608088013567ffffffffffffffff8111156128405761283f612329565b5b61284c8a828b016126a2565b93505060a088013567ffffffffffffffff81111561286d5761286c612329565b5b6128798a828b016126a2565b92505060c088013567ffffffffffffffff81111561289a57612899612329565b5b6128a68a828b016126a2565b91505092959891949750929550565b5f819050919050565b5f6128d86128d36128ce8461232d565b6128b5565b61232d565b9050919050565b5f6128e9826128be565b9050919050565b5f6128fa826128df565b9050919050565b61290a816128f0565b82525050565b5f6020820190506129235f830184612901565b92915050565b6129328161234c565b82525050565b5f60208201905061294b5f830184612929565b92915050565b5f6020828403121561296657612965612325565b5b5f61297384828501612373565b91505092915050565b5f81519050919050565b5f82825260208201905092915050565b8281835e5f83830152505050565b5f6129ae8261297c565b6129b88185612986565b93506129c8818560208601612996565b6129d1816124b5565b840191505092915050565b5f60c0820190506129ef5f830189612929565b8181036020830152612a0181886129a4565b9050612a106040830187612403565b612a1d6060830186612470565b612a2a6080830185612470565b612a3760a0830184612470565b979650505050505050565b5f8060408385031215612a5857612a57612325565b5b5f612a65858286016123a6565b9250506020612a76858286016123a6565b9150509250929050565b5f819050919050565b612a9281612a80565b82525050565b5f60e082019050612aab5f83018a612470565b8181036020830152612abd81896129a4565b90508181036040830152612ad181886129a4565b90508181036060830152612ae581876129a4565b90508181036080830152612af981866129a4565b905081810360a0830152612b0d81856129a4565b9050612b1c60c0830184612a89565b98975050505050505050565b7f4e487b71000000000000000000000000000000000000000000000000000000005f52601160045260245ffd5b5f612b5f82612387565b9150612b6a83612387565b9250828201905080821115612b8257612b81612b28565b5b92915050565b7f5769746864726177616c20696e74657276616c206e6f742072656163686564005f82015250565b5f612bbc601f83612986565b9150612bc782612b88565b602082019050919050565b5f6020820190508181035f830152612be981612bb0565b9050919050565b5f81905092915050565b50565b5f612c085f83612bf0565b9150612c1382612bfa565b5f82019050919050565b5f612c2782612bfd565b9150819050919050565b7f4661696c656420746f20776974686472617720676173206665657300000000005f82015250565b5f612c65601b83612986565b9150612c7082612c31565b602082019050919050565b5f6020820190508181035f830152612c9281612c59565b9050919050565b7f496e73756666696369656e7420676173206665650000000000000000000000005f82015250565b5f612ccd601483612986565b9150612cd882612c99565b602082019050919050565b5f6020820190508181035f830152612cfa81612cc1565b9050919050565b5f612d0b82612387565b9150612d1683612387565b9250828203905081811115612d2e57612d2d612b28565b5b92915050565b7f55736572206e6f7420656e726f6c6c656420696e207468697320636f757273655f82015250565b5f612d68602083612986565b9150612d7382612d34565b602082019050919050565b5f6020820190508181035f830152612d9581612d5c565b9050919050565b7f4d6178696d756d20617474656d707473207265616368656400000000000000005f82015250565b5f612dd0601883612986565b9150612ddb82612d9c565b602082019050919050565b5f6020820190508181035f830152612dfd81612dc4565b9050919050565b7f557365722068617320616c726561647920706173736564207468697320636f755f8201527f7273650000000000000000000000000000000000000000000000000000000000602082015250565b5f612e5e602383612986565b9150612e6982612e04565b604082019050919050565b5f6020820190508181035f830152612e8b81612e52565b9050919050565b5f612e9c82612412565b915060ff8203612eaf57612eae612b28565b5b600182019050919050565b7f4e487b71000000000000000000000000000000000000000000000000000000005f52602260045260245ffd5b5f6002820490506001821680612efe57607f821691505b602082108103612f1157612f10612eba565b5b50919050565b7f416e7377657220636f756e74206d69736d6174636800000000000000000000005f82015250565b5f612f4b601583612986565b9150612f5682612f17565b602082019050919050565b5f6020820190508181035f830152612f7881612f3f565b9050919050565b7f4e487b71000000000000000000000000000000000000000000000000000000005f52603260045260245ffd5b5f81905092915050565b5f612fc08261297c565b612fca8185612fac565b9350612fda818560208601612996565b80840191505092915050565b5f612ff18284612fb6565b915081905092915050565b5f61300682612387565b91507fffffffffffffffffffffffffffffffffffffffffffffffffffffffffffffffff820361303857613037612b28565b5b600182019050919050565b7f4661696c656420746f2073656e64204d414e44000000000000000000000000005f82015250565b5f613077601383612986565b915061308282613043565b602082019050919050565b5f6020820190508181035f8301526130a48161306b565b9050919050565b5f815190506130b981612390565b92915050565b5f602082840312156130d4576130d3612325565b5b5f6130e1848285016130ab565b91505092915050565b7f496e73756666696369656e742072657075746174696f6e20746f20656e726f6c5f8201527f6c00000000000000000000000000000000000000000000000000000000000000602082015250565b5f613144602183612986565b915061314f826130ea565b604082019050919050565b5f6020820190508181035f83015261317181613138565b9050919050565b7f436f75727365206e6f7420617070726f766564000000000000000000000000005f82015250565b5f6131ac601383612986565b91506131b782613178565b602082019050919050565b5f6020820190508181035f8301526131d9816131a0565b9050919050565b7f416c726561647920656e726f6c6c6564000000000000000000000000000000005f82015250565b5f613214601083612986565b915061321f826131e0565b602082019050919050565b5f6020820190508181035f83015261324181613208565b9050919050565b7f436f7572736520616c726561647920617070726f7665640000000000000000005f82015250565b5f61327c601783612986565b915061328782613248565b602082019050919050565b5f6020820190508181035f8301526132a981613270565b9050919050565b7f496e73756666696369656e742072657075746174696f6e20746f2063726561745f8201527f6520636f75727365000000000000000000000000000000000000000000000000602082015250565b5f61330a602883612986565b9150613315826132b0565b604082019050919050565b5f6020820190508181035f830152613337816132fe565b9050919050565b7f496e76616c6964207175697a20646174610000000000000000000000000000005f82015250565b5f613372601183612986565b915061337d8261333e565b602082019050919050565b5f6020820190508181035f83015261339f81613366565b9050919050565b5f819050815f5260205f209050919050565b5f6020601f8301049050919050565b5f82821b905092915050565b5f600883026134027fffffffffffffffffffffffffffffffffffffffffffffffffffffffffffffffff826133c7565b61340c86836133c7565b95508019841693508086168417925050509392505050565b5f61343e61343961343484612387565b6128b5565b612387565b9050919050565b5f819050919050565b61345783613424565b61346b61346382613445565b8484546133d3565b825550505050565b5f90565b61347f613473565b61348a81848461344e565b505050565b5b818110156134ad576134a25f82613477565b600181019050613490565b5050565b601f8211156134f2576134c3816133a6565b6134cc846133b8565b810160208510156134db578190505b6134ef6134e7856133b8565b83018261348f565b50505b505050565b5f82821c905092915050565b5f6135125f19846008026134f7565b1980831691505092915050565b5f61352a8383613503565b9150826002028217905092915050565b6135438261297c565b67ffffffffffffffff81111561355c5761355b6124c5565b5b6135668254612ee7565b6135718282856134b1565b5f60209050601f8311600181146135a2575f8415613590578287015190505b61359a858261351f565b865550613601565b601f1984166135b0866133a6565b5f5b828110156135d7578489015182556001820191506020850194506020810190506135b2565b868310156135f457848901516135f0601f891682613503565b8355505b6001600288020188555050505b505050505050565b7f41000000000000000000000000000000000000000000000000000000000000005f82015250565b5f61363d600183612fac565b915061364882613609565b600182019050919050565b5f61365d82613631565b9150819050919050565b7f42000000000000000000000000000000000000000000000000000000000000005f82015250565b5f61369b600183612fac565b91506136a682613667565b600182019050919050565b5f6136bb8261368f565b9150819050919050565b7f43000000000000000000000000000000000000000000000000000000000000005f82015250565b5f6136f9600183612fac565b9150613704826136c5565b600182019050919050565b5f613719826136ed565b9150819050919050565b7f44000000000000000000000000000000000000000000000000000000000000005f82015250565b5f613757600183612fac565b915061376282613723565b600182019050919050565b5f6137778261374b565b9150819050919050565b7f496e76616c696420636f727265637420616e73776572000000000000000000005f82015250565b5f6137b5601683612986565b91506137c082613781565b602082019050919050565b5f6020820190508181035f8301526137e2816137a9565b9050919050565b7f5061757361626c653a20706175736564000000000000000000000000000000005f82015250565b5f61381d601083612986565b9150613828826137e9565b602082019050919050565b5f6020820190508181035f83015261384a81613811565b9050919050565b7f5061757361626c653a206e6f74207061757365640000000000000000000000005f82015250565b5f613885601483612986565b915061389082613851565b602082019050919050565b5f6020820190508181035f8301526138b281613879565b905091905056fea2646970667358221220fac3cb3871b01a2a6fe8285dc04398b6183be611e2e4142971f7fd9456c0c6cc64736f6c634300081a0033",
					"opcodes": "PUSH1 0x80 PUSH1 0x40 MSTORE CALLVALUE DUP1 ISZERO PUSH2 0xF JUMPI PUSH0 DUP1 REVERT JUMPDEST POP PUSH1 0x40 MLOAD PUSH2 0x3B86 CODESIZE SUB DUP1 PUSH2 0x3B86 DUP4 CODECOPY DUP2 DUP2 ADD PUSH1 0x40 MSTORE DUP2 ADD SWAP1 PUSH2 0x31 SWAP2 SWAP1 PUSH2 0x237 JUMP JUMPDEST CALLER PUSH0 PUSH20 0xFFFFFFFFFFFFFFFFFFFFFFFFFFFFFFFFFFFFFFFF AND DUP2 PUSH20 0xFFFFFFFFFFFFFFFFFFFFFFFFFFFFFFFFFFFFFFFF AND SUB PUSH2 0xA2 JUMPI PUSH0 PUSH1 0x40 MLOAD PUSH32 0x1E4FBDF700000000000000000000000000000000000000000000000000000000 DUP2 MSTORE PUSH1 0x4 ADD PUSH2 0x99 SWAP2 SWAP1 PUSH2 0x271 JUMP JUMPDEST PUSH1 0x40 MLOAD DUP1 SWAP2 SUB SWAP1 REVERT JUMPDEST PUSH2 0xB1 DUP2 PUSH2 0x118 PUSH1 0x20 SHL PUSH1 0x20 SHR JUMP JUMPDEST POP PUSH0 DUP1 PUSH1 0x14 PUSH2 0x100 EXP DUP2 SLOAD DUP2 PUSH1 0xFF MUL NOT AND SWAP1 DUP4 ISZERO ISZERO MUL OR SWAP1 SSTORE POP DUP1 PUSH1 0x1 PUSH0 PUSH2 0x100 EXP DUP2 SLOAD DUP2 PUSH20 0xFFFFFFFFFFFFFFFFFFFFFFFFFFFFFFFFFFFFFFFF MUL NOT AND SWAP1 DUP4 PUSH20 0xFFFFFFFFFFFFFFFFFFFFFFFFFFFFFFFFFFFFFFFF AND MUL OR SWAP1 SSTORE POP TIMESTAMP PUSH1 0x2 DUP2 SWAP1 SSTORE POP POP PUSH2 0x28A JUMP JUMPDEST PUSH0 DUP1 PUSH0 SWAP1 SLOAD SWAP1 PUSH2 0x100 EXP SWAP1 DIV PUSH20 0xFFFFFFFFFFFFFFFFFFFFFFFFFFFFFFFFFFFFFFFF AND SWAP1 POP DUP2 PUSH0 DUP1 PUSH2 0x100 EXP DUP2 SLOAD DUP2 PUSH20 0xFFFFFFFFFFFFFFFFFFFFFFFFFFFFFFFFFFFFFFFF MUL NOT AND SWAP1 DUP4 PUSH20 0xFFFFFFFFFFFFFFFFFFFFFFFFFFFFFFFFFFFFFFFF AND MUL OR SWAP1 SSTORE POP DUP2 PUSH20 0xFFFFFFFFFFFFFFFFFFFFFFFFFFFFFFFFFFFFFFFF AND DUP2 PUSH20 0xFFFFFFFFFFFFFFFFFFFFFFFFFFFFFFFFFFFFFFFF AND PUSH32 0x8BE0079C531659141344CD1FD0A4F28419497F9722A3DAAFE3B4186F6B6457E0 PUSH1 0x40 MLOAD PUSH1 0x40 MLOAD DUP1 SWAP2 SUB SWAP1 LOG3 POP POP JUMP JUMPDEST PUSH0 DUP1 REVERT JUMPDEST PUSH0 PUSH20 0xFFFFFFFFFFFFFFFFFFFFFFFFFFFFFFFFFFFFFFFF DUP3 AND SWAP1 POP SWAP2 SWAP1 POP JUMP JUMPDEST PUSH0 PUSH2 0x206 DUP3 PUSH2 0x1DD JUMP JUMPDEST SWAP1 POP SWAP2 SWAP1 POP JUMP JUMPDEST PUSH2 0x216 DUP2 PUSH2 0x1FC JUMP JUMPDEST DUP2 EQ PUSH2 0x220 JUMPI PUSH0 DUP1 REVERT JUMPDEST POP JUMP JUMPDEST PUSH0 DUP2 MLOAD SWAP1 POP PUSH2 0x231 DUP2 PUSH2 0x20D JUMP JUMPDEST SWAP3 SWAP2 POP POP JUMP JUMPDEST PUSH0 PUSH1 0x20 DUP3 DUP5 SUB SLT ISZERO PUSH2 0x24C JUMPI PUSH2 0x24B PUSH2 0x1D9 JUMP JUMPDEST JUMPDEST PUSH0 PUSH2 0x259 DUP5 DUP3 DUP6 ADD PUSH2 0x223 JUMP JUMPDEST SWAP2 POP POP SWAP3 SWAP2 POP POP JUMP JUMPDEST PUSH2 0x26B DUP2 PUSH2 0x1FC JUMP JUMPDEST DUP3 MSTORE POP POP JUMP JUMPDEST PUSH0 PUSH1 0x20 DUP3 ADD SWAP1 POP PUSH2 0x284 PUSH0 DUP4 ADD DUP5 PUSH2 0x262 JUMP JUMPDEST SWAP3 SWAP2 POP POP JUMP JUMPDEST PUSH2 0x38EF DUP1 PUSH2 0x297 PUSH0 CODECOPY PUSH0 RETURN INVALID PUSH1 0x80 PUSH1 0x40 MSTORE PUSH1 0x4 CALLDATASIZE LT PUSH2 0x169 JUMPI PUSH0 CALLDATALOAD PUSH1 0xE0 SHR DUP1 PUSH4 0x79370DF3 GT PUSH2 0xD0 JUMPI DUP1 PUSH4 0xA4D8754A GT PUSH2 0x89 JUMPI DUP1 PUSH4 0xB0AAEFD6 GT PUSH2 0x63 JUMPI DUP1 PUSH4 0xB0AAEFD6 EQ PUSH2 0x494 JUMPI DUP1 PUSH4 0xCF90B3BE EQ PUSH2 0x4D6 JUMPI DUP1 PUSH4 0xF2FDE38B EQ PUSH2 0x500 JUMPI DUP1 PUSH4 0xFBF1ADED EQ PUSH2 0x528 JUMPI PUSH2 0x170 JUMP JUMPDEST DUP1 PUSH4 0xA4D8754A EQ PUSH2 0x416 JUMPI DUP1 PUSH4 0xA4E1F033 EQ PUSH2 0x440 JUMPI DUP1 PUSH4 0xAE24F005 EQ PUSH2 0x46A JUMPI PUSH2 0x170 JUMP JUMPDEST DUP1 PUSH4 0x79370DF3 EQ PUSH2 0x327 JUMPI DUP1 PUSH4 0x8456CB59 EQ PUSH2 0x343 JUMPI DUP1 PUSH4 0x87BC1425 EQ PUSH2 0x359 JUMPI DUP1 PUSH4 0x8DA5CB5B EQ PUSH2 0x383 JUMPI DUP1 PUSH4 0x905BAA61 EQ PUSH2 0x3AD JUMPI DUP1 PUSH4 0x96F979D2 EQ PUSH2 0x3D5 JUMPI PUSH2 0x170 JUMP JUMPDEST DUP1 PUSH4 0x5C975ABB GT PUSH2 0x122 JUMPI DUP1 PUSH4 0x5C975ABB EQ PUSH2 0x25D JUMPI DUP1 PUSH4 0x5CB45CB5 EQ PUSH2 0x287 JUMPI DUP1 PUSH4 0x5E52DA27 EQ PUSH2 0x2A3 JUMPI DUP1 PUSH4 0x66055159 EQ PUSH2 0x2BF JUMPI DUP1 PUSH4 0x715018A6 EQ PUSH2 0x2E9 JUMPI DUP1 PUSH4 0x75284998 EQ PUSH2 0x2FF JUMPI PUSH2 0x170 JUMP JUMPDEST DUP1 PUSH4 0x7F910F8 EQ PUSH2 0x174 JUMPI DUP1 PUSH4 0x15BA75F4 EQ PUSH2 0x1B3 JUMPI DUP1 PUSH4 0x34A014DC EQ PUSH2 0x1C9 JUMPI DUP1 PUSH4 0x3F4BA83A EQ PUSH2 0x1F3 JUMPI DUP1 PUSH4 0x4C64C030 EQ PUSH2 0x209 JUMPI DUP1 PUSH4 0x587F5ED7 EQ PUSH2 0x233 JUMPI PUSH2 0x170 JUMP JUMPDEST CALLDATASIZE PUSH2 0x170 JUMPI STOP JUMPDEST PUSH0 DUP1 REVERT JUMPDEST CALLVALUE DUP1 ISZERO PUSH2 0x17F JUMPI PUSH0 DUP1 REVERT JUMPDEST POP PUSH2 0x19A PUSH1 0x4 DUP1 CALLDATASIZE SUB DUP2 ADD SWAP1 PUSH2 0x195 SWAP2 SWAP1 PUSH2 0x23BA JUMP JUMPDEST PUSH2 0x552 JUMP JUMPDEST PUSH1 0x40 MLOAD PUSH2 0x1AA SWAP5 SWAP4 SWAP3 SWAP2 SWAP1 PUSH2 0x242D JUMP JUMPDEST PUSH1 0x40 MLOAD DUP1 SWAP2 SUB SWAP1 RETURN JUMPDEST CALLVALUE DUP1 ISZERO PUSH2 0x1BE JUMPI PUSH0 DUP1 REVERT JUMPDEST POP PUSH2 0x1C7 PUSH2 0x5B9 JUMP JUMPDEST STOP JUMPDEST CALLVALUE DUP1 ISZERO PUSH2 0x1D4 JUMPI PUSH0 DUP1 REVERT JUMPDEST POP PUSH2 0x1DD PUSH2 0x712 JUMP JUMPDEST PUSH1 0x40 MLOAD PUSH2 0x1EA SWAP2 SWAP1 PUSH2 0x247F JUMP JUMPDEST PUSH1 0x40 MLOAD DUP1 SWAP2 SUB SWAP1 RETURN JUMPDEST CALLVALUE DUP1 ISZERO PUSH2 0x1FE JUMPI PUSH0 DUP1 REVERT JUMPDEST POP PUSH2 0x207 PUSH2 0x718 JUMP JUMPDEST STOP JUMPDEST CALLVALUE DUP1 ISZERO PUSH2 0x214 JUMPI PUSH0 DUP1 REVERT JUMPDEST POP PUSH2 0x21D PUSH2 0x72A JUMP JUMPDEST PUSH1 0x40 MLOAD PUSH2 0x22A SWAP2 SWAP1 PUSH2 0x247F JUMP JUMPDEST PUSH1 0x40 MLOAD DUP1 SWAP2 SUB SWAP1 RETURN JUMPDEST CALLVALUE DUP1 ISZERO PUSH2 0x23E JUMPI PUSH0 DUP1 REVERT JUMPDEST POP PUSH2 0x247 PUSH2 0x731 JUMP JUMPDEST PUSH1 0x40 MLOAD PUSH2 0x254 SWAP2 SWAP1 PUSH2 0x247F JUMP JUMPDEST PUSH1 0x40 MLOAD DUP1 SWAP2 SUB SWAP1 RETURN JUMPDEST CALLVALUE DUP1 ISZERO PUSH2 0x268 JUMPI PUSH0 DUP1 REVERT JUMPDEST POP PUSH2 0x271 PUSH2 0x737 JUMP JUMPDEST PUSH1 0x40 MLOAD PUSH2 0x27E SWAP2 SWAP1 PUSH2 0x2498 JUMP JUMPDEST PUSH1 0x40 MLOAD DUP1 SWAP2 SUB SWAP1 RETURN JUMPDEST PUSH2 0x2A1 PUSH1 0x4 DUP1 CALLDATASIZE SUB DUP2 ADD SWAP1 PUSH2 0x29C SWAP2 SWAP1 PUSH2 0x26CF JUMP JUMPDEST PUSH2 0x74C JUMP JUMPDEST STOP JUMPDEST PUSH2 0x2BD PUSH1 0x4 DUP1 CALLDATASIZE SUB DUP2 ADD SWAP1 PUSH2 0x2B8 SWAP2 SWAP1 PUSH2 0x2729 JUMP JUMPDEST PUSH2 0xF8F JUMP JUMPDEST STOP JUMPDEST CALLVALUE DUP1 ISZERO PUSH2 0x2CA JUMPI PUSH0 DUP1 REVERT JUMPDEST POP PUSH2 0x2D3 PUSH2 0x1313 JUMP JUMPDEST PUSH1 0x40 MLOAD PUSH2 0x2E0 SWAP2 SWAP1 PUSH2 0x247F JUMP JUMPDEST PUSH1 0x40 MLOAD DUP1 SWAP2 SUB SWAP1 RETURN JUMPDEST CALLVALUE DUP1 ISZERO PUSH2 0x2F4 JUMPI PUSH0 DUP1 REVERT JUMPDEST POP PUSH2 0x2FD PUSH2 0x1319 JUMP JUMPDEST STOP JUMPDEST CALLVALUE DUP1 ISZERO PUSH2 0x30A JUMPI PUSH0 DUP1 REVERT JUMPDEST POP PUSH2 0x325 PUSH1 0x4 DUP1 CALLDATASIZE SUB DUP2 ADD SWAP1 PUSH2 0x320 SWAP2 SWAP1 PUSH2 0x2729 JUMP JUMPDEST PUSH2 0x132C JUMP JUMPDEST STOP JUMPDEST PUSH2 0x341 PUSH1 0x4 DUP1 CALLDATASIZE SUB DUP2 ADD SWAP1 PUSH2 0x33C SWAP2 SWAP1 PUSH2 0x2754 JUMP JUMPDEST PUSH2 0x13F1 JUMP JUMPDEST STOP JUMPDEST CALLVALUE DUP1 ISZERO PUSH2 0x34E JUMPI PUSH0 DUP1 REVERT JUMPDEST POP PUSH2 0x357 PUSH2 0x1B3D JUMP JUMPDEST STOP JUMPDEST CALLVALUE DUP1 ISZERO PUSH2 0x364 JUMPI PUSH0 DUP1 REVERT JUMPDEST POP PUSH2 0x36D PUSH2 0x1B4F JUMP JUMPDEST PUSH1 0x40 MLOAD PUSH2 0x37A SWAP2 SWAP1 PUSH2 0x2910 JUMP JUMPDEST PUSH1 0x40 MLOAD DUP1 SWAP2 SUB SWAP1 RETURN JUMPDEST CALLVALUE DUP1 ISZERO PUSH2 0x38E JUMPI PUSH0 DUP1 REVERT JUMPDEST POP PUSH2 0x397 PUSH2 0x1B74 JUMP JUMPDEST PUSH1 0x40 MLOAD PUSH2 0x3A4 SWAP2 SWAP1 PUSH2 0x2938 JUMP JUMPDEST PUSH1 0x40 MLOAD DUP1 SWAP2 SUB SWAP1 RETURN JUMPDEST CALLVALUE DUP1 ISZERO PUSH2 0x3B8 JUMPI PUSH0 DUP1 REVERT JUMPDEST POP PUSH2 0x3D3 PUSH1 0x4 DUP1 CALLDATASIZE SUB DUP2 ADD SWAP1 PUSH2 0x3CE SWAP2 SWAP1 PUSH2 0x2951 JUMP JUMPDEST PUSH2 0x1B9B JUMP JUMPDEST STOP JUMPDEST CALLVALUE DUP1 ISZERO PUSH2 0x3E0 JUMPI PUSH0 DUP1 REVERT JUMPDEST POP PUSH2 0x3FB PUSH1 0x4 DUP1 CALLDATASIZE SUB DUP2 ADD SWAP1 PUSH2 0x3F6 SWAP2 SWAP1 PUSH2 0x2729 JUMP JUMPDEST PUSH2 0x1BE6 JUMP JUMPDEST PUSH1 0x40 MLOAD PUSH2 0x40D SWAP7 SWAP6 SWAP5 SWAP4 SWAP3 SWAP2 SWAP1 PUSH2 0x29DC JUMP JUMPDEST PUSH1 0x40 MLOAD DUP1 SWAP2 SUB SWAP1 RETURN JUMPDEST CALLVALUE DUP1 ISZERO PUSH2 0x421 JUMPI PUSH0 DUP1 REVERT JUMPDEST POP PUSH2 0x42A PUSH2 0x1CCF JUMP JUMPDEST PUSH1 0x40 MLOAD PUSH2 0x437 SWAP2 SWAP1 PUSH2 0x247F JUMP JUMPDEST PUSH1 0x40 MLOAD DUP1 SWAP2 SUB SWAP1 RETURN JUMPDEST CALLVALUE DUP1 ISZERO PUSH2 0x44B JUMPI PUSH0 DUP1 REVERT JUMPDEST POP PUSH2 0x454 PUSH2 0x1CDB JUMP JUMPDEST PUSH1 0x40 MLOAD PUSH2 0x461 SWAP2 SWAP1 PUSH2 0x247F JUMP JUMPDEST PUSH1 0x40 MLOAD DUP1 SWAP2 SUB SWAP1 RETURN JUMPDEST CALLVALUE DUP1 ISZERO PUSH2 0x475 JUMPI PUSH0 DUP1 REVERT JUMPDEST POP PUSH2 0x47E PUSH2 0x1CE0 JUMP JUMPDEST PUSH1 0x40 MLOAD PUSH2 0x48B SWAP2 SWAP1 PUSH2 0x247F JUMP JUMPDEST PUSH1 0x40 MLOAD DUP1 SWAP2 SUB SWAP1 RETURN JUMPDEST CALLVALUE DUP1 ISZERO PUSH2 0x49F JUMPI PUSH0 DUP1 REVERT JUMPDEST POP PUSH2 0x4BA PUSH1 0x4 DUP1 CALLDATASIZE SUB DUP2 ADD SWAP1 PUSH2 0x4B5 SWAP2 SWAP1 PUSH2 0x2A42 JUMP JUMPDEST PUSH2 0x1CE5 JUMP JUMPDEST PUSH1 0x40 MLOAD PUSH2 0x4CD SWAP8 SWAP7 SWAP6 SWAP5 SWAP4 SWAP3 SWAP2 SWAP1 PUSH2 0x2A98 JUMP JUMPDEST PUSH1 0x40 MLOAD DUP1 SWAP2 SUB SWAP1 RETURN JUMPDEST CALLVALUE DUP1 ISZERO PUSH2 0x4E1 JUMPI PUSH0 DUP1 REVERT JUMPDEST POP PUSH2 0x4EA PUSH2 0x1FDB JUMP JUMPDEST PUSH1 0x40 MLOAD PUSH2 0x4F7 SWAP2 SWAP1 PUSH2 0x247F JUMP JUMPDEST PUSH1 0x40 MLOAD DUP1 SWAP2 SUB SWAP1 RETURN JUMPDEST CALLVALUE DUP1 ISZERO PUSH2 0x50B JUMPI PUSH0 DUP1 REVERT JUMPDEST POP PUSH2 0x526 PUSH1 0x4 DUP1 CALLDATASIZE SUB DUP2 ADD SWAP1 PUSH2 0x521 SWAP2 SWAP1 PUSH2 0x2951 JUMP JUMPDEST PUSH2 0x1FE7 JUMP JUMPDEST STOP JUMPDEST CALLVALUE DUP1 ISZERO PUSH2 0x533 JUMPI PUSH0 DUP1 REVERT JUMPDEST POP PUSH2 0x53C PUSH2 0x206B JUMP JUMPDEST PUSH1 0x40 MLOAD PUSH2 0x549 SWAP2 SWAP1 PUSH2 0x247F JUMP JUMPDEST PUSH1 0x40 MLOAD DUP1 SWAP2 SUB SWAP1 RETURN JUMPDEST PUSH1 0x5 PUSH1 0x20 MSTORE DUP2 PUSH0 MSTORE PUSH1 0x40 PUSH0 KECCAK256 PUSH1 0x20 MSTORE DUP1 PUSH0 MSTORE PUSH1 0x40 PUSH0 KECCAK256 PUSH0 SWAP2 POP SWAP2 POP POP DUP1 PUSH0 ADD PUSH0 SWAP1 SLOAD SWAP1 PUSH2 0x100 EXP SWAP1 DIV PUSH1 0xFF AND SWAP1 DUP1 PUSH0 ADD PUSH1 0x1 SWAP1 SLOAD SWAP1 PUSH2 0x100 EXP SWAP1 DIV PUSH1 0xFF AND SWAP1 DUP1 PUSH0 ADD PUSH1 0x2 SWAP1 SLOAD SWAP1 PUSH2 0x100 EXP SWAP1 DIV PUSH1 0xFF AND SWAP1 DUP1 PUSH0 ADD PUSH1 0x3 SWAP1 SLOAD SWAP1 PUSH2 0x100 EXP SWAP1 DIV PUSH1 0xFF AND SWAP1 POP DUP5 JUMP JUMPDEST PUSH2 0x5C1 PUSH2 0x2077 JUMP JUMPDEST PUSH3 0x28DE80 PUSH1 0x2 SLOAD PUSH2 0x5D2 SWAP2 SWAP1 PUSH2 0x2B55 JUMP JUMPDEST TIMESTAMP LT ISZERO PUSH2 0x614 JUMPI PUSH1 0x40 MLOAD PUSH32 0x8C379A000000000000000000000000000000000000000000000000000000000 DUP2 MSTORE PUSH1 0x4 ADD PUSH2 0x60B SWAP1 PUSH2 0x2BD2 JUMP JUMPDEST PUSH1 0x40 MLOAD DUP1 SWAP2 SUB SWAP1 REVERT JUMPDEST PUSH0 PUSH1 0x3 SLOAD SWAP1 POP PUSH0 PUSH1 0x3 DUP2 SWAP1 SSTORE POP TIMESTAMP PUSH1 0x2 DUP2 SWAP1 SSTORE POP PUSH0 PUSH2 0x631 PUSH2 0x1B74 JUMP JUMPDEST PUSH20 0xFFFFFFFFFFFFFFFFFFFFFFFFFFFFFFFFFFFFFFFF AND DUP3 PUSH1 0x40 MLOAD PUSH2 0x654 SWAP1 PUSH2 0x2C1D JUMP JUMPDEST PUSH0 PUSH1 0x40 MLOAD DUP1 DUP4 SUB DUP2 DUP6 DUP8 GAS CALL SWAP3 POP POP POP RETURNDATASIZE DUP1 PUSH0 DUP2 EQ PUSH2 0x68E JUMPI PUSH1 0x40 MLOAD SWAP2 POP PUSH1 0x1F NOT PUSH1 0x3F RETURNDATASIZE ADD AND DUP3 ADD PUSH1 0x40 MSTORE RETURNDATASIZE DUP3 MSTORE RETURNDATASIZE PUSH0 PUSH1 0x20 DUP5 ADD RETURNDATACOPY PUSH2 0x693 JUMP JUMPDEST PUSH1 0x60 SWAP2 POP JUMPDEST POP POP SWAP1 POP DUP1 PUSH2 0x6D7 JUMPI PUSH1 0x40 MLOAD PUSH32 0x8C379A000000000000000000000000000000000000000000000000000000000 DUP2 MSTORE PUSH1 0x4 ADD PUSH2 0x6CE SWAP1 PUSH2 0x2C7B JUMP JUMPDEST PUSH1 0x40 MLOAD DUP1 SWAP2 SUB SWAP1 REVERT JUMPDEST PUSH32 0xD3C6ACEF4F1BD70F36DAD19B43C6B794AC969B546734638671026F801D476FA DUP3 PUSH1 0x40 MLOAD PUSH2 0x706 SWAP2 SWAP1 PUSH2 0x247F JUMP JUMPDEST PUSH1 0x40 MLOAD DUP1 SWAP2 SUB SWAP1 LOG1 POP POP JUMP JUMPDEST PUSH1 0x2 SLOAD DUP2 JUMP JUMPDEST PUSH2 0x720 PUSH2 0x2077 JUMP JUMPDEST PUSH2 0x728 PUSH2 0x20FE JUMP JUMPDEST JUMP JUMPDEST PUSH3 0x28DE80 DUP2 JUMP JUMPDEST PUSH1 0x3 SLOAD DUP2 JUMP JUMPDEST PUSH0 DUP1 PUSH1 0x14 SWAP1 SLOAD SWAP1 PUSH2 0x100 EXP SWAP1 DIV PUSH1 0xFF AND SWAP1 POP SWAP1 JUMP JUMPDEST PUSH8 0xA688906BD8B0000 CALLVALUE LT ISZERO PUSH2 0x797 JUMPI PUSH1 0x40 MLOAD PUSH32 0x8C379A000000000000000000000000000000000000000000000000000000000 DUP2 MSTORE PUSH1 0x4 ADD PUSH2 0x78E SWAP1 PUSH2 0x2CE3 JUMP JUMPDEST PUSH1 0x40 MLOAD DUP1 SWAP2 SUB SWAP1 REVERT JUMPDEST PUSH8 0xA688906BD8B0000 PUSH1 0x3 PUSH0 DUP3 DUP3 SLOAD PUSH2 0x7B0 SWAP2 SWAP1 PUSH2 0x2B55 JUMP JUMPDEST SWAP3 POP POP DUP2 SWAP1 SSTORE POP PUSH0 PUSH8 0xA688906BD8B0000 CALLVALUE PUSH2 0x7CC SWAP2 SWAP1 PUSH2 0x2D01 JUMP JUMPDEST SWAP1 POP PUSH0 DUP2 GT ISZERO PUSH2 0x81B JUMPI CALLER PUSH20 0xFFFFFFFFFFFFFFFFFFFFFFFFFFFFFFFFFFFFFFFF AND PUSH2 0x8FC DUP3 SWAP1 DUP2 ISZERO MUL SWAP1 PUSH1 0x40 MLOAD PUSH0 PUSH1 0x40 MLOAD DUP1 DUP4 SUB DUP2 DUP6 DUP9 DUP9 CALL SWAP4 POP POP POP POP ISZERO DUP1 ISZERO PUSH2 0x819 JUMPI RETURNDATASIZE PUSH0 DUP1 RETURNDATACOPY RETURNDATASIZE PUSH0 REVERT JUMPDEST POP JUMPDEST PUSH0 PUSH1 0x5 PUSH0 CALLER PUSH20 0xFFFFFFFFFFFFFFFFFFFFFFFFFFFFFFFFFFFFFFFF AND PUSH20 0xFFFFFFFFFFFFFFFFFFFFFFFFFFFFFFFFFFFFFFFF AND DUP2 MSTORE PUSH1 0x20 ADD SWAP1 DUP2 MSTORE PUSH1 0x20 ADD PUSH0 KECCAK256 PUSH0 DUP6 DUP2 MSTORE PUSH1 0x20 ADD SWAP1 DUP2 MSTORE PUSH1 0x20 ADD PUSH0 KECCAK256 SWAP1 POP DUP1 PUSH0 ADD PUSH0 SWAP1 SLOAD SWAP1 PUSH2 0x100 EXP SWAP1 DIV PUSH1 0xFF AND PUSH2 0x8B9 JUMPI PUSH1 0x40 MLOAD PUSH32 0x8C379A000000000000000000000000000000000000000000000000000000000 DUP2 MSTORE PUSH1 0x4 ADD PUSH2 0x8B0 SWAP1 PUSH2 0x2D7E JUMP JUMPDEST PUSH1 0x40 MLOAD DUP1 SWAP2 SUB SWAP1 REVERT JUMPDEST PUSH1 0x2 DUP2 PUSH0 ADD PUSH1 0x1 SWAP1 SLOAD SWAP1 PUSH2 0x100 EXP SWAP1 DIV PUSH1 0xFF AND PUSH1 0xFF AND LT PUSH2 0x90F JUMPI PUSH1 0x40 MLOAD PUSH32 0x8C379A000000000000000000000000000000000000000000000000000000000 DUP2 MSTORE PUSH1 0x4 ADD PUSH2 0x906 SWAP1 PUSH2 0x2DE6 JUMP JUMPDEST PUSH1 0x40 MLOAD DUP1 SWAP2 SUB SWAP1 REVERT JUMPDEST DUP1 PUSH0 ADD PUSH1 0x2 SWAP1 SLOAD SWAP1 PUSH2 0x100 EXP SWAP1 DIV PUSH1 0xFF AND ISZERO PUSH2 0x960 JUMPI PUSH1 0x40 MLOAD PUSH32 0x8C379A000000000000000000000000000000000000000000000000000000000 DUP2 MSTORE PUSH1 0x4 ADD PUSH2 0x957 SWAP1 PUSH2 0x2E74 JUMP JUMPDEST PUSH1 0x40 MLOAD DUP1 SWAP2 SUB SWAP1 REVERT JUMPDEST DUP1 PUSH0 ADD PUSH1 0x1 DUP2 DUP2 SWAP1 SLOAD SWAP1 PUSH2 0x100 EXP SWAP1 DIV PUSH1 0xFF AND DUP1 SWAP3 SWAP2 SWAP1 PUSH2 0x980 SWAP1 PUSH2 0x2E92 JUMP JUMPDEST SWAP2 SWAP1 PUSH2 0x100 EXP DUP2 SLOAD DUP2 PUSH1 0xFF MUL NOT AND SWAP1 DUP4 PUSH1 0xFF AND MUL OR SWAP1 SSTORE POP POP PUSH0 PUSH1 0x6 PUSH0 DUP7 DUP2 MSTORE PUSH1 0x20 ADD SWAP1 DUP2 MSTORE PUSH1 0x20 ADD PUSH0 KECCAK256 DUP1 SLOAD DUP1 PUSH1 0x20 MUL PUSH1 0x20 ADD PUSH1 0x40 MLOAD SWAP1 DUP2 ADD PUSH1 0x40 MSTORE DUP1 SWAP3 SWAP2 SWAP1 DUP2 DUP2 MSTORE PUSH1 0x20 ADD PUSH0 SWAP1 JUMPDEST DUP3 DUP3 LT ISZERO PUSH2 0xCDD JUMPI DUP4 DUP3 SWAP1 PUSH0 MSTORE PUSH1 0x20 PUSH0 KECCAK256 SWAP1 PUSH1 0x7 MUL ADD PUSH1 0x40 MLOAD DUP1 PUSH1 0xE0 ADD PUSH1 0x40 MSTORE SWAP1 DUP2 PUSH0 DUP3 ADD SLOAD DUP2 MSTORE PUSH1 0x20 ADD PUSH1 0x1 DUP3 ADD DUP1 SLOAD PUSH2 0xA04 SWAP1 PUSH2 0x2EE7 JUMP JUMPDEST DUP1 PUSH1 0x1F ADD PUSH1 0x20 DUP1 SWAP2 DIV MUL PUSH1 0x20 ADD PUSH1 0x40 MLOAD SWAP1 DUP2 ADD PUSH1 0x40 MSTORE DUP1 SWAP3 SWAP2 SWAP1 DUP2 DUP2 MSTORE PUSH1 0x20 ADD DUP3 DUP1 SLOAD PUSH2 0xA30 SWAP1 PUSH2 0x2EE7 JUMP JUMPDEST DUP1 ISZERO PUSH2 0xA7B JUMPI DUP1 PUSH1 0x1F LT PUSH2 0xA52 JUMPI PUSH2 0x100 DUP1 DUP4 SLOAD DIV MUL DUP4 MSTORE SWAP2 PUSH1 0x20 ADD SWAP2 PUSH2 0xA7B JUMP JUMPDEST DUP3 ADD SWAP2 SWAP1 PUSH0 MSTORE PUSH1 0x20 PUSH0 KECCAK256 SWAP1 JUMPDEST DUP2 SLOAD DUP2 MSTORE SWAP1 PUSH1 0x1 ADD SWAP1 PUSH1 0x20 ADD DUP1 DUP4 GT PUSH2 0xA5E JUMPI DUP3 SWAP1 SUB PUSH1 0x1F AND DUP3 ADD SWAP2 JUMPDEST POP POP POP POP POP DUP2 MSTORE PUSH1 0x20 ADD PUSH1 0x2 DUP3 ADD DUP1 SLOAD PUSH2 0xA94 SWAP1 PUSH2 0x2EE7 JUMP JUMPDEST DUP1 PUSH1 0x1F ADD PUSH1 0x20 DUP1 SWAP2 DIV MUL PUSH1 0x20 ADD PUSH1 0x40 MLOAD SWAP1 DUP2 ADD PUSH1 0x40 MSTORE DUP1 SWAP3 SWAP2 SWAP1 DUP2 DUP2 MSTORE PUSH1 0x20 ADD DUP3 DUP1 SLOAD PUSH2 0xAC0 SWAP1 PUSH2 0x2EE7 JUMP JUMPDEST DUP1 ISZERO PUSH2 0xB0B JUMPI DUP1 PUSH1 0x1F LT PUSH2 0xAE2 JUMPI PUSH2 0x100 DUP1 DUP4 SLOAD DIV MUL DUP4 MSTORE SWAP2 PUSH1 0x20 ADD SWAP2 PUSH2 0xB0B JUMP JUMPDEST DUP3 ADD SWAP2 SWAP1 PUSH0 MSTORE PUSH1 0x20 PUSH0 KECCAK256 SWAP1 JUMPDEST DUP2 SLOAD DUP2 MSTORE SWAP1 PUSH1 0x1 ADD SWAP1 PUSH1 0x20 ADD DUP1 DUP4 GT PUSH2 0xAEE JUMPI DUP3 SWAP1 SUB PUSH1 0x1F AND DUP3 ADD SWAP2 JUMPDEST POP POP POP POP POP DUP2 MSTORE PUSH1 0x20 ADD PUSH1 0x3 DUP3 ADD DUP1 SLOAD PUSH2 0xB24 SWAP1 PUSH2 0x2EE7 JUMP JUMPDEST DUP1 PUSH1 0x1F ADD PUSH1 0x20 DUP1 SWAP2 DIV MUL PUSH1 0x20 ADD PUSH1 0x40 MLOAD SWAP1 DUP2 ADD PUSH1 0x40 MSTORE DUP1 SWAP3 SWAP2 SWAP1 DUP2 DUP2 MSTORE PUSH1 0x20 ADD DUP3 DUP1 SLOAD PUSH2 0xB50 SWAP1 PUSH2 0x2EE7 JUMP JUMPDEST DUP1 ISZERO PUSH2 0xB9B JUMPI DUP1 PUSH1 0x1F LT PUSH2 0xB72 JUMPI PUSH2 0x100 DUP1 DUP4 SLOAD DIV MUL DUP4 MSTORE SWAP2 PUSH1 0x20 ADD SWAP2 PUSH2 0xB9B JUMP JUMPDEST DUP3 ADD SWAP2 SWAP1 PUSH0 MSTORE PUSH1 0x20 PUSH0 KECCAK256 SWAP1 JUMPDEST DUP2 SLOAD DUP2 MSTORE SWAP1 PUSH1 0x1 ADD SWAP1 PUSH1 0x20 ADD DUP1 DUP4 GT PUSH2 0xB7E JUMPI DUP3 SWAP1 SUB PUSH1 0x1F AND DUP3 ADD SWAP2 JUMPDEST POP POP POP POP POP DUP2 MSTORE PUSH1 0x20 ADD PUSH1 0x4 DUP3 ADD DUP1 SLOAD PUSH2 0xBB4 SWAP1 PUSH2 0x2EE7 JUMP JUMPDEST DUP1 PUSH1 0x1F ADD PUSH1 0x20 DUP1 SWAP2 DIV MUL PUSH1 0x20 ADD PUSH1 0x40 MLOAD SWAP1 DUP2 ADD PUSH1 0x40 MSTORE DUP1 SWAP3 SWAP2 SWAP1 DUP2 DUP2 MSTORE PUSH1 0x20 ADD DUP3 DUP1 SLOAD PUSH2 0xBE0 SWAP1 PUSH2 0x2EE7 JUMP JUMPDEST DUP1 ISZERO PUSH2 0xC2B JUMPI DUP1 PUSH1 0x1F LT PUSH2 0xC02 JUMPI PUSH2 0x100 DUP1 DUP4 SLOAD DIV MUL DUP4 MSTORE SWAP2 PUSH1 0x20 ADD SWAP2 PUSH2 0xC2B JUMP JUMPDEST DUP3 ADD SWAP2 SWAP1 PUSH0 MSTORE PUSH1 0x20 PUSH0 KECCAK256 SWAP1 JUMPDEST DUP2 SLOAD DUP2 MSTORE SWAP1 PUSH1 0x1 ADD SWAP1 PUSH1 0x20 ADD DUP1 DUP4 GT PUSH2 0xC0E JUMPI DUP3 SWAP1 SUB PUSH1 0x1F AND DUP3 ADD SWAP2 JUMPDEST POP POP POP POP POP DUP2 MSTORE PUSH1 0x20 ADD PUSH1 0x5 DUP3 ADD DUP1 SLOAD PUSH2 0xC44 SWAP1 PUSH2 0x2EE7 JUMP JUMPDEST DUP1 PUSH1 0x1F ADD PUSH1 0x20 DUP1 SWAP2 DIV MUL PUSH1 0x20 ADD PUSH1 0x40 MLOAD SWAP1 DUP2 ADD PUSH1 0x40 MSTORE DUP1 SWAP3 SWAP2 SWAP1 DUP2 DUP2 MSTORE PUSH1 0x20 ADD DUP3 DUP1 SLOAD PUSH2 0xC70 SWAP1 PUSH2 0x2EE7 JUMP JUMPDEST DUP1 ISZERO PUSH2 0xCBB JUMPI DUP1 PUSH1 0x1F LT PUSH2 0xC92 JUMPI PUSH2 0x100 DUP1 DUP4 SLOAD DIV MUL DUP4 MSTORE SWAP2 PUSH1 0x20 ADD SWAP2 PUSH2 0xCBB JUMP JUMPDEST DUP3 ADD SWAP2 SWAP1 PUSH0 MSTORE PUSH1 0x20 PUSH0 KECCAK256 SWAP1 JUMPDEST DUP2 SLOAD DUP2 MSTORE SWAP1 PUSH1 0x1 ADD SWAP1 PUSH1 0x20 ADD DUP1 DUP4 GT PUSH2 0xC9E JUMPI DUP3 SWAP1 SUB PUSH1 0x1F AND DUP3 ADD SWAP2 JUMPDEST POP POP POP POP POP DUP2 MSTORE PUSH1 0x20 ADD PUSH1 0x6 DUP3 ADD SLOAD DUP2 MSTORE POP POP DUP2 MSTORE PUSH1 0x20 ADD SWAP1 PUSH1 0x1 ADD SWAP1 PUSH2 0x9CA JUMP JUMPDEST POP POP POP POP SWAP1 POP DUP1 MLOAD DUP5 MLOAD EQ PUSH2 0xD27 JUMPI PUSH1 0x40 MLOAD PUSH32 0x8C379A000000000000000000000000000000000000000000000000000000000 DUP2 MSTORE PUSH1 0x4 ADD PUSH2 0xD1E SWAP1 PUSH2 0x2F61 JUMP JUMPDEST PUSH1 0x40 MLOAD DUP1 SWAP2 SUB SWAP1 REVERT JUMPDEST PUSH0 PUSH1 0x1 SWAP1 POP PUSH0 JUMPDEST DUP3 MLOAD DUP2 LT ISZERO PUSH2 0xDB1 JUMPI DUP3 DUP2 DUP2 MLOAD DUP2 LT PUSH2 0xD4A JUMPI PUSH2 0xD49 PUSH2 0x2F7F JUMP JUMPDEST JUMPDEST PUSH1 0x20 MUL PUSH1 0x20 ADD ADD MLOAD PUSH1 0xC0 ADD MLOAD DUP7 DUP3 DUP2 MLOAD DUP2 LT PUSH2 0xD69 JUMPI PUSH2 0xD68 PUSH2 0x2F7F JUMP JUMPDEST JUMPDEST PUSH1 0x20 MUL PUSH1 0x20 ADD ADD MLOAD PUSH1 0x40 MLOAD PUSH1 0x20 ADD PUSH2 0xD81 SWAP2 SWAP1 PUSH2 0x2FE6 JUMP JUMPDEST PUSH1 0x40 MLOAD PUSH1 0x20 DUP2 DUP4 SUB SUB DUP2 MSTORE SWAP1 PUSH1 0x40 MSTORE DUP1 MLOAD SWAP1 PUSH1 0x20 ADD KECCAK256 EQ PUSH2 0xDA4 JUMPI PUSH0 SWAP2 POP PUSH2 0xDB1 JUMP JUMPDEST DUP1 DUP1 PUSH1 0x1 ADD SWAP2 POP POP PUSH2 0xD2E JUMP JUMPDEST POP DUP1 ISZERO PUSH2 0xF38 JUMPI PUSH1 0x1 DUP4 PUSH0 ADD PUSH1 0x2 PUSH2 0x100 EXP DUP2 SLOAD DUP2 PUSH1 0xFF MUL NOT AND SWAP1 DUP4 ISZERO ISZERO MUL OR SWAP1 SSTORE POP PUSH1 0x4 PUSH0 DUP8 DUP2 MSTORE PUSH1 0x20 ADD SWAP1 DUP2 MSTORE PUSH1 0x20 ADD PUSH0 KECCAK256 PUSH1 0x3 ADD PUSH0 DUP2 SLOAD DUP1 SWAP3 SWAP2 SWAP1 PUSH2 0xDF8 SWAP1 PUSH2 0x2FFC JUMP JUMPDEST SWAP2 SWAP1 POP SSTORE POP PUSH8 0x8AC7230489E80000 PUSH1 0x4 PUSH0 DUP9 DUP2 MSTORE PUSH1 0x20 ADD SWAP1 DUP2 MSTORE PUSH1 0x20 ADD PUSH0 KECCAK256 PUSH1 0x4 ADD PUSH0 DUP3 DUP3 SLOAD PUSH2 0xE28 SWAP2 SWAP1 PUSH2 0x2B55 JUMP JUMPDEST SWAP3 POP POP DUP2 SWAP1 SSTORE POP PUSH0 CALLER PUSH20 0xFFFFFFFFFFFFFFFFFFFFFFFFFFFFFFFFFFFFFFFF AND PUSH8 0x8AC7230489E80000 PUSH1 0x40 MLOAD PUSH2 0xE5C SWAP1 PUSH2 0x2C1D JUMP JUMPDEST PUSH0 PUSH1 0x40 MLOAD DUP1 DUP4 SUB DUP2 DUP6 DUP8 GAS CALL SWAP3 POP POP POP RETURNDATASIZE DUP1 PUSH0 DUP2 EQ PUSH2 0xE96 JUMPI PUSH1 0x40 MLOAD SWAP2 POP PUSH1 0x1F NOT PUSH1 0x3F RETURNDATASIZE ADD AND DUP3 ADD PUSH1 0x40 MSTORE RETURNDATASIZE DUP3 MSTORE RETURNDATASIZE PUSH0 PUSH1 0x20 DUP5 ADD RETURNDATACOPY PUSH2 0xE9B JUMP JUMPDEST PUSH1 0x60 SWAP2 POP JUMPDEST POP POP SWAP1 POP DUP1 PUSH2 0xEDF JUMPI PUSH1 0x40 MLOAD PUSH32 0x8C379A000000000000000000000000000000000000000000000000000000000 DUP2 MSTORE PUSH1 0x4 ADD PUSH2 0xED6 SWAP1 PUSH2 0x308D JUMP JUMPDEST PUSH1 0x40 MLOAD DUP1 SWAP2 SUB SWAP1 REVERT JUMPDEST CALLER PUSH20 0xFFFFFFFFFFFFFFFFFFFFFFFFFFFFFFFFFFFFFFFF AND DUP8 PUSH32 0x24B5EFA61DD1CFC659205A97FB8ED868F3CB8C81922BAB2B96423E5DE1DE2CB7 PUSH8 0x8AC7230489E80000 PUSH1 0x40 MLOAD PUSH2 0xF2E SWAP2 SWAP1 PUSH2 0x247F JUMP JUMPDEST PUSH1 0x40 MLOAD DUP1 SWAP2 SUB SWAP1 LOG3 POP JUMPDEST CALLER PUSH20 0xFFFFFFFFFFFFFFFFFFFFFFFFFFFFFFFFFFFFFFFF AND DUP7 PUSH32 0xAEE8895C1BF669485CEE2DD54D1EEE9E65B02A244AFB6F798F95D72405CDF7A5 DUP4 PUSH1 0x40 MLOAD PUSH2 0xF7F SWAP2 SWAP1 PUSH2 0x2498 JUMP JUMPDEST PUSH1 0x40 MLOAD DUP1 SWAP2 SUB SWAP1 LOG3 POP POP POP POP POP POP JUMP JUMPDEST PUSH2 0xF97 PUSH2 0x215F JUMP JUMPDEST PUSH8 0xA688906BD8B0000 CALLVALUE LT ISZERO PUSH2 0xFE2 JUMPI PUSH1 0x40 MLOAD PUSH32 0x8C379A000000000000000000000000000000000000000000000000000000000 DUP2 MSTORE PUSH1 0x4 ADD PUSH2 0xFD9 SWAP1 PUSH2 0x2CE3 JUMP JUMPDEST PUSH1 0x40 MLOAD DUP1 SWAP2 SUB SWAP1 REVERT JUMPDEST PUSH8 0xA688906BD8B0000 PUSH1 0x3 PUSH0 DUP3 DUP3 SLOAD PUSH2 0xFFB SWAP2 SWAP1 PUSH2 0x2B55 JUMP JUMPDEST SWAP3 POP POP DUP2 SWAP1 SSTORE POP PUSH0 PUSH8 0xA688906BD8B0000 CALLVALUE PUSH2 0x1017 SWAP2 SWAP1 PUSH2 0x2D01 JUMP JUMPDEST SWAP1 POP PUSH0 DUP2 GT ISZERO PUSH2 0x1066 JUMPI CALLER PUSH20 0xFFFFFFFFFFFFFFFFFFFFFFFFFFFFFFFFFFFFFFFF AND PUSH2 0x8FC DUP3 SWAP1 DUP2 ISZERO MUL SWAP1 PUSH1 0x40 MLOAD PUSH0 PUSH1 0x40 MLOAD DUP1 DUP4 SUB DUP2 DUP6 DUP9 DUP9 CALL SWAP4 POP POP POP POP ISZERO DUP1 ISZERO PUSH2 0x1064 JUMPI RETURNDATASIZE PUSH0 DUP1 RETURNDATACOPY RETURNDATASIZE PUSH0 REVERT JUMPDEST POP JUMPDEST PUSH1 0x1 DUP1 PUSH0 SWAP1 SLOAD SWAP1 PUSH2 0x100 EXP SWAP1 DIV PUSH20 0xFFFFFFFFFFFFFFFFFFFFFFFFFFFFFFFFFFFFFFFF AND PUSH20 0xFFFFFFFFFFFFFFFFFFFFFFFFFFFFFFFFFFFFFFFF AND PUSH4 0xB9F79451 CALLER PUSH1 0x40 MLOAD DUP3 PUSH4 0xFFFFFFFF AND PUSH1 0xE0 SHL DUP2 MSTORE PUSH1 0x4 ADD PUSH2 0x10C1 SWAP2 SWAP1 PUSH2 0x2938 JUMP JUMPDEST PUSH1 0x20 PUSH1 0x40 MLOAD DUP1 DUP4 SUB DUP2 DUP7 GAS STATICCALL ISZERO DUP1 ISZERO PUSH2 0x10DC JUMPI RETURNDATASIZE PUSH0 DUP1 RETURNDATACOPY RETURNDATASIZE PUSH0 REVERT JUMPDEST POP POP POP POP PUSH1 0x40 MLOAD RETURNDATASIZE PUSH1 0x1F NOT PUSH1 0x1F DUP3 ADD AND DUP3 ADD DUP1 PUSH1 0x40 MSTORE POP DUP2 ADD SWAP1 PUSH2 0x1100 SWAP2 SWAP1 PUSH2 0x30BF JUMP JUMPDEST LT ISZERO PUSH2 0x1141 JUMPI PUSH1 0x40 MLOAD PUSH32 0x8C379A000000000000000000000000000000000000000000000000000000000 DUP2 MSTORE PUSH1 0x4 ADD PUSH2 0x1138 SWAP1 PUSH2 0x315A JUMP JUMPDEST PUSH1 0x40 MLOAD DUP1 SWAP2 SUB SWAP1 REVERT JUMPDEST PUSH1 0x4 PUSH0 DUP4 DUP2 MSTORE PUSH1 0x20 ADD SWAP1 DUP2 MSTORE PUSH1 0x20 ADD PUSH0 KECCAK256 PUSH1 0x2 ADD PUSH0 SWAP1 SLOAD SWAP1 PUSH2 0x100 EXP SWAP1 DIV PUSH1 0xFF AND PUSH2 0x11A1 JUMPI PUSH1 0x40 MLOAD PUSH32 0x8C379A000000000000000000000000000000000000000000000000000000000 DUP2 MSTORE PUSH1 0x4 ADD PUSH2 0x1198 SWAP1 PUSH2 0x31C2 JUMP JUMPDEST PUSH1 0x40 MLOAD DUP1 SWAP2 SUB SWAP1 REVERT JUMPDEST PUSH1 0x5 PUSH0 CALLER PUSH20 0xFFFFFFFFFFFFFFFFFFFFFFFFFFFFFFFFFFFFFFFF AND PUSH20 0xFFFFFFFFFFFFFFFFFFFFFFFFFFFFFFFFFFFFFFFF AND DUP2 MSTORE PUSH1 0x20 ADD SWAP1 DUP2 MSTORE PUSH1 0x20 ADD PUSH0 KECCAK256 PUSH0 DUP4 DUP2 MSTORE PUSH1 0x20 ADD SWAP1 DUP2 MSTORE PUSH1 0x20 ADD PUSH0 KECCAK256 PUSH0 ADD PUSH0 SWAP1 SLOAD SWAP1 PUSH2 0x100 EXP SWAP1 DIV PUSH1 0xFF AND ISZERO PUSH2 0x123C JUMPI PUSH1 0x40 MLOAD PUSH32 0x8C379A000000000000000000000000000000000000000000000000000000000 DUP2 MSTORE PUSH1 0x4 ADD PUSH2 0x1233 SWAP1 PUSH2 0x322A JUMP JUMPDEST PUSH1 0x40 MLOAD DUP1 SWAP2 SUB SWAP1 REVERT JUMPDEST PUSH1 0x1 PUSH1 0x5 PUSH0 CALLER PUSH20 0xFFFFFFFFFFFFFFFFFFFFFFFFFFFFFFFFFFFFFFFF AND PUSH20 0xFFFFFFFFFFFFFFFFFFFFFFFFFFFFFFFFFFFFFFFF AND DUP2 MSTORE PUSH1 0x20 ADD SWAP1 DUP2 MSTORE PUSH1 0x20 ADD PUSH0 KECCAK256 PUSH0 DUP5 DUP2 MSTORE PUSH1 0x20 ADD SWAP1 DUP2 MSTORE PUSH1 0x20 ADD PUSH0 KECCAK256 PUSH0 ADD PUSH0 PUSH2 0x100 EXP DUP2 SLOAD DUP2 PUSH1 0xFF MUL NOT AND SWAP1 DUP4 ISZERO ISZERO MUL OR SWAP1 SSTORE POP PUSH1 0x4 PUSH0 DUP4 DUP2 MSTORE PUSH1 0x20 ADD SWAP1 DUP2 MSTORE PUSH1 0x20 ADD PUSH0 KECCAK256 PUSH1 0x5 ADD PUSH0 DUP2 SLOAD DUP1 SWAP3 SWAP2 SWAP1 PUSH2 0x12C6 SWAP1 PUSH2 0x2FFC JUMP JUMPDEST SWAP2 SWAP1 POP SSTORE POP CALLER PUSH20 0xFFFFFFFFFFFFFFFFFFFFFFFFFFFFFFFFFFFFFFFF AND DUP3 PUSH32 0xFACF1A2842ACBAD124CBCA0A047FE37BC246C68F814E0350C7BD8A022FD1DDDB PUSH1 0x40 MLOAD PUSH1 0x40 MLOAD DUP1 SWAP2 SUB SWAP1 LOG3 POP POP JUMP JUMPDEST PUSH1 0x7 SLOAD DUP2 JUMP JUMPDEST PUSH2 0x1321 PUSH2 0x2077 JUMP JUMPDEST PUSH2 0x132A PUSH0 PUSH2 0x21A9 JUMP JUMPDEST JUMP JUMPDEST PUSH2 0x1334 PUSH2 0x2077 JUMP JUMPDEST PUSH1 0x4 PUSH0 DUP3 DUP2 MSTORE PUSH1 0x20 ADD SWAP1 DUP2 MSTORE PUSH1 0x20 ADD PUSH0 KECCAK256 PUSH1 0x2 ADD PUSH0 SWAP1 SLOAD SWAP1 PUSH2 0x100 EXP SWAP1 DIV PUSH1 0xFF AND ISZERO PUSH2 0x1395 JUMPI PUSH1 0x40 MLOAD PUSH32 0x8C379A000000000000000000000000000000000000000000000000000000000 DUP2 MSTORE PUSH1 0x4 ADD PUSH2 0x138C SWAP1 PUSH2 0x3292 JUMP JUMPDEST PUSH1 0x40 MLOAD DUP1 SWAP2 SUB SWAP1 REVERT JUMPDEST PUSH1 0x1 PUSH1 0x4 PUSH0 DUP4 DUP2 MSTORE PUSH1 0x20 ADD SWAP1 DUP2 MSTORE PUSH1 0x20 ADD PUSH0 KECCAK256 PUSH1 0x2 ADD PUSH0 PUSH2 0x100 EXP DUP2 SLOAD DUP2 PUSH1 0xFF MUL NOT AND SWAP1 DUP4 ISZERO ISZERO MUL OR SWAP1 SSTORE POP DUP1 PUSH32 0x87C1C0E5CD17BEB8C61A3337B32C66021CB179DD6F97D6D9CE923A029092BD45 PUSH1 0x40 MLOAD PUSH1 0x40 MLOAD DUP1 SWAP2 SUB SWAP1 LOG2 POP JUMP JUMPDEST PUSH2 0x13F9 PUSH2 0x215F JUMP JUMPDEST PUSH8 0xA688906BD8B0000 CALLVALUE LT ISZERO PUSH2 0x1444 JUMPI PUSH1 0x40 MLOAD PUSH32 0x8C379A000000000000000000000000000000000000000000000000000000000 DUP2 MSTORE PUSH1 0x4 ADD PUSH2 0x143B SWAP1 PUSH2 0x2CE3 JUMP JUMPDEST PUSH1 0x40 MLOAD DUP1 SWAP2 SUB SWAP1 REVERT JUMPDEST PUSH8 0xA688906BD8B0000 PUSH1 0x3 PUSH0 DUP3 DUP3 SLOAD PUSH2 0x145D SWAP2 SWAP1 PUSH2 0x2B55 JUMP JUMPDEST SWAP3 POP POP DUP2 SWAP1 SSTORE POP PUSH0 PUSH8 0xA688906BD8B0000 CALLVALUE PUSH2 0x1479 SWAP2 SWAP1 PUSH2 0x2D01 JUMP JUMPDEST SWAP1 POP PUSH0 DUP2 GT ISZERO PUSH2 0x14C8 JUMPI CALLER PUSH20 0xFFFFFFFFFFFFFFFFFFFFFFFFFFFFFFFFFFFFFFFF AND PUSH2 0x8FC DUP3 SWAP1 DUP2 ISZERO MUL SWAP1 PUSH1 0x40 MLOAD PUSH0 PUSH1 0x40 MLOAD DUP1 DUP4 SUB DUP2 DUP6 DUP9 DUP9 CALL SWAP4 POP POP POP POP ISZERO DUP1 ISZERO PUSH2 0x14C6 JUMPI RETURNDATASIZE PUSH0 DUP1 RETURNDATACOPY RETURNDATASIZE PUSH0 REVERT JUMPDEST POP JUMPDEST PUSH1 0x5 PUSH1 0x1 PUSH0 SWAP1 SLOAD SWAP1 PUSH2 0x100 EXP SWAP1 DIV PUSH20 0xFFFFFFFFFFFFFFFFFFFFFFFFFFFFFFFFFFFFFFFF AND PUSH20 0xFFFFFFFFFFFFFFFFFFFFFFFFFFFFFFFFFFFFFFFF AND PUSH4 0xB9F79451 CALLER PUSH1 0x40 MLOAD DUP3 PUSH4 0xFFFFFFFF AND PUSH1 0xE0 SHL DUP2 MSTORE PUSH1 0x4 ADD PUSH2 0x1524 SWAP2 SWAP1 PUSH2 0x2938 JUMP JUMPDEST PUSH1 0x20 PUSH1 0x40 MLOAD DUP1 DUP4 SUB DUP2 DUP7 GAS STATICCALL ISZERO DUP1 ISZERO PUSH2 0x153F JUMPI RETURNDATASIZE PUSH0 DUP1 RETURNDATACOPY RETURNDATASIZE PUSH0 REVERT JUMPDEST POP POP POP POP PUSH1 0x40 MLOAD RETURNDATASIZE PUSH1 0x1F NOT PUSH1 0x1F DUP3 ADD AND DUP3 ADD DUP1 PUSH1 0x40 MSTORE POP DUP2 ADD SWAP1 PUSH2 0x1563 SWAP2 SWAP1 PUSH2 0x30BF JUMP JUMPDEST LT ISZERO PUSH2 0x15A4 JUMPI PUSH1 0x40 MLOAD PUSH32 0x8C379A000000000000000000000000000000000000000000000000000000000 DUP2 MSTORE PUSH1 0x4 ADD PUSH2 0x159B SWAP1 PUSH2 0x3320 JUMP JUMPDEST PUSH1 0x40 MLOAD DUP1 SWAP2 SUB SWAP1 REVERT JUMPDEST PUSH1 0x5 DUP8 MLOAD EQ DUP1 ISZERO PUSH2 0x15B6 JUMPI POP DUP6 MLOAD DUP8 MLOAD EQ JUMPDEST DUP1 ISZERO PUSH2 0x15C3 JUMPI POP DUP5 MLOAD DUP8 MLOAD EQ JUMPDEST DUP1 ISZERO PUSH2 0x15D0 JUMPI POP DUP4 MLOAD DUP8 MLOAD EQ JUMPDEST DUP1 ISZERO PUSH2 0x15DD JUMPI POP DUP3 MLOAD DUP8 MLOAD EQ JUMPDEST DUP1 ISZERO PUSH2 0x15EA JUMPI POP DUP2 MLOAD DUP8 MLOAD EQ JUMPDEST PUSH2 0x1629 JUMPI PUSH1 0x40 MLOAD PUSH32 0x8C379A000000000000000000000000000000000000000000000000000000000 DUP2 MSTORE PUSH1 0x4 ADD PUSH2 0x1620 SWAP1 PUSH2 0x3388 JUMP JUMPDEST PUSH1 0x40 MLOAD DUP1 SWAP2 SUB SWAP1 REVERT JUMPDEST PUSH0 PUSH1 0x7 PUSH0 DUP2 SLOAD DUP1 SWAP3 SWAP2 SWAP1 PUSH2 0x163C SWAP1 PUSH2 0x2FFC JUMP JUMPDEST SWAP2 SWAP1 POP SSTORE SWAP1 POP PUSH1 0x40 MLOAD DUP1 PUSH1 0xC0 ADD PUSH1 0x40 MSTORE DUP1 CALLER PUSH20 0xFFFFFFFFFFFFFFFFFFFFFFFFFFFFFFFFFFFFFFFF AND DUP2 MSTORE PUSH1 0x20 ADD DUP11 DUP2 MSTORE PUSH1 0x20 ADD PUSH0 ISZERO ISZERO DUP2 MSTORE PUSH1 0x20 ADD PUSH0 DUP2 MSTORE PUSH1 0x20 ADD PUSH0 DUP2 MSTORE PUSH1 0x20 ADD PUSH0 DUP2 MSTORE POP PUSH1 0x4 PUSH0 DUP4 DUP2 MSTORE PUSH1 0x20 ADD SWAP1 DUP2 MSTORE PUSH1 0x20 ADD PUSH0 KECCAK256 PUSH0 DUP3 ADD MLOAD DUP2 PUSH0 ADD PUSH0 PUSH2 0x100 EXP DUP2 SLOAD DUP2 PUSH20 0xFFFFFFFFFFFFFFFFFFFFFFFFFFFFFFFFFFFFFFFF MUL NOT AND SWAP1 DUP4 PUSH20 0xFFFFFFFFFFFFFFFFFFFFFFFFFFFFFFFFFFFFFFFF AND MUL OR SWAP1 SSTORE POP PUSH1 0x20 DUP3 ADD MLOAD DUP2 PUSH1 0x1 ADD SWAP1 DUP2 PUSH2 0x16F1 SWAP2 SWAP1 PUSH2 0x353A JUMP JUMPDEST POP PUSH1 0x40 DUP3 ADD MLOAD DUP2 PUSH1 0x2 ADD PUSH0 PUSH2 0x100 EXP DUP2 SLOAD DUP2 PUSH1 0xFF MUL NOT AND SWAP1 DUP4 ISZERO ISZERO MUL OR SWAP1 SSTORE POP PUSH1 0x60 DUP3 ADD MLOAD DUP2 PUSH1 0x3 ADD SSTORE PUSH1 0x80 DUP3 ADD MLOAD DUP2 PUSH1 0x4 ADD SSTORE PUSH1 0xA0 DUP3 ADD MLOAD DUP2 PUSH1 0x5 ADD SSTORE SWAP1 POP POP PUSH0 JUMPDEST DUP9 MLOAD DUP2 LT ISZERO PUSH2 0x1AED JUMPI PUSH1 0x40 MLOAD PUSH1 0x20 ADD PUSH2 0x174C SWAP1 PUSH2 0x3653 JUMP JUMPDEST PUSH1 0x40 MLOAD PUSH1 0x20 DUP2 DUP4 SUB SUB DUP2 MSTORE SWAP1 PUSH1 0x40 MSTORE DUP1 MLOAD SWAP1 PUSH1 0x20 ADD KECCAK256 DUP5 DUP3 DUP2 MLOAD DUP2 LT PUSH2 0x1775 JUMPI PUSH2 0x1774 PUSH2 0x2F7F JUMP JUMPDEST JUMPDEST PUSH1 0x20 MUL PUSH1 0x20 ADD ADD MLOAD PUSH1 0x40 MLOAD PUSH1 0x20 ADD PUSH2 0x178D SWAP2 SWAP1 PUSH2 0x2FE6 JUMP JUMPDEST PUSH1 0x40 MLOAD PUSH1 0x20 DUP2 DUP4 SUB SUB DUP2 MSTORE SWAP1 PUSH1 0x40 MSTORE DUP1 MLOAD SWAP1 PUSH1 0x20 ADD KECCAK256 EQ DUP1 PUSH2 0x1812 JUMPI POP PUSH1 0x40 MLOAD PUSH1 0x20 ADD PUSH2 0x17B9 SWAP1 PUSH2 0x36B1 JUMP JUMPDEST PUSH1 0x40 MLOAD PUSH1 0x20 DUP2 DUP4 SUB SUB DUP2 MSTORE SWAP1 PUSH1 0x40 MSTORE DUP1 MLOAD SWAP1 PUSH1 0x20 ADD KECCAK256 DUP5 DUP3 DUP2 MLOAD DUP2 LT PUSH2 0x17E2 JUMPI PUSH2 0x17E1 PUSH2 0x2F7F JUMP JUMPDEST JUMPDEST PUSH1 0x20 MUL PUSH1 0x20 ADD ADD MLOAD PUSH1 0x40 MLOAD PUSH1 0x20 ADD PUSH2 0x17FA SWAP2 SWAP1 PUSH2 0x2FE6 JUMP JUMPDEST PUSH1 0x40 MLOAD PUSH1 0x20 DUP2 DUP4 SUB SUB DUP2 MSTORE SWAP1 PUSH1 0x40 MSTORE DUP1 MLOAD SWAP1 PUSH1 0x20 ADD KECCAK256 EQ JUMPDEST DUP1 PUSH2 0x1880 JUMPI POP PUSH1 0x40 MLOAD PUSH1 0x20 ADD PUSH2 0x1827 SWAP1 PUSH2 0x370F JUMP JUMPDEST PUSH1 0x40 MLOAD PUSH1 0x20 DUP2 DUP4 SUB SUB DUP2 MSTORE SWAP1 PUSH1 0x40 MSTORE DUP1 MLOAD SWAP1 PUSH1 0x20 ADD KECCAK256 DUP5 DUP3 DUP2 MLOAD DUP2 LT PUSH2 0x1850 JUMPI PUSH2 0x184F PUSH2 0x2F7F JUMP JUMPDEST JUMPDEST PUSH1 0x20 MUL PUSH1 0x20 ADD ADD MLOAD PUSH1 0x40 MLOAD PUSH1 0x20 ADD PUSH2 0x1868 SWAP2 SWAP1 PUSH2 0x2FE6 JUMP JUMPDEST PUSH1 0x40 MLOAD PUSH1 0x20 DUP2 DUP4 SUB SUB DUP2 MSTORE SWAP1 PUSH1 0x40 MSTORE DUP1 MLOAD SWAP1 PUSH1 0x20 ADD KECCAK256 EQ JUMPDEST DUP1 PUSH2 0x18EE JUMPI POP PUSH1 0x40 MLOAD PUSH1 0x20 ADD PUSH2 0x1895 SWAP1 PUSH2 0x376D JUMP JUMPDEST PUSH1 0x40 MLOAD PUSH1 0x20 DUP2 DUP4 SUB SUB DUP2 MSTORE SWAP1 PUSH1 0x40 MSTORE DUP1 MLOAD SWAP1 PUSH1 0x20 ADD KECCAK256 DUP5 DUP3 DUP2 MLOAD DUP2 LT PUSH2 0x18BE JUMPI PUSH2 0x18BD PUSH2 0x2F7F JUMP JUMPDEST JUMPDEST PUSH1 0x20 MUL PUSH1 0x20 ADD ADD MLOAD PUSH1 0x40 MLOAD PUSH1 0x20 ADD PUSH2 0x18D6 SWAP2 SWAP1 PUSH2 0x2FE6 JUMP JUMPDEST PUSH1 0x40 MLOAD PUSH1 0x20 DUP2 DUP4 SUB SUB DUP2 MSTORE SWAP1 PUSH1 0x40 MSTORE DUP1 MLOAD SWAP1 PUSH1 0x20 ADD KECCAK256 EQ JUMPDEST PUSH2 0x192D JUMPI PUSH1 0x40 MLOAD PUSH32 0x8C379A000000000000000000000000000000000000000000000000000000000 DUP2 MSTORE PUSH1 0x4 ADD PUSH2 0x1924 SWAP1 PUSH2 0x37CB JUMP JUMPDEST PUSH1 0x40 MLOAD DUP1 SWAP2 SUB SWAP1 REVERT JUMPDEST PUSH0 PUSH1 0x40 MLOAD DUP1 PUSH1 0xE0 ADD PUSH1 0x40 MSTORE DUP1 DUP5 DUP2 MSTORE PUSH1 0x20 ADD DUP12 DUP5 DUP2 MLOAD DUP2 LT PUSH2 0x1952 JUMPI PUSH2 0x1951 PUSH2 0x2F7F JUMP JUMPDEST JUMPDEST PUSH1 0x20 MUL PUSH1 0x20 ADD ADD MLOAD DUP2 MSTORE PUSH1 0x20 ADD DUP11 DUP5 DUP2 MLOAD DUP2 LT PUSH2 0x1972 JUMPI PUSH2 0x1971 PUSH2 0x2F7F JUMP JUMPDEST JUMPDEST PUSH1 0x20 MUL PUSH1 0x20 ADD ADD MLOAD DUP2 MSTORE PUSH1 0x20 ADD DUP10 DUP5 DUP2 MLOAD DUP2 LT PUSH2 0x1992 JUMPI PUSH2 0x1991 PUSH2 0x2F7F JUMP JUMPDEST JUMPDEST PUSH1 0x20 MUL PUSH1 0x20 ADD ADD MLOAD DUP2 MSTORE PUSH1 0x20 ADD DUP9 DUP5 DUP2 MLOAD DUP2 LT PUSH2 0x19B2 JUMPI PUSH2 0x19B1 PUSH2 0x2F7F JUMP JUMPDEST JUMPDEST PUSH1 0x20 MUL PUSH1 0x20 ADD ADD MLOAD DUP2 MSTORE PUSH1 0x20 ADD DUP8 DUP5 DUP2 MLOAD DUP2 LT PUSH2 0x19D2 JUMPI PUSH2 0x19D1 PUSH2 0x2F7F JUMP JUMPDEST JUMPDEST PUSH1 0x20 MUL PUSH1 0x20 ADD ADD MLOAD DUP2 MSTORE PUSH1 0x20 ADD DUP7 DUP5 DUP2 MLOAD DUP2 LT PUSH2 0x19F2 JUMPI PUSH2 0x19F1 PUSH2 0x2F7F JUMP JUMPDEST JUMPDEST PUSH1 0x20 MUL PUSH1 0x20 ADD ADD MLOAD PUSH1 0x40 MLOAD PUSH1 0x20 ADD PUSH2 0x1A0A SWAP2 SWAP1 PUSH2 0x2FE6 JUMP JUMPDEST PUSH1 0x40 MLOAD PUSH1 0x20 DUP2 DUP4 SUB SUB DUP2 MSTORE SWAP1 PUSH1 0x40 MSTORE DUP1 MLOAD SWAP1 PUSH1 0x20 ADD KECCAK256 DUP2 MSTORE POP SWAP1 POP PUSH1 0x6 PUSH0 DUP5 DUP2 MSTORE PUSH1 0x20 ADD SWAP1 DUP2 MSTORE PUSH1 0x20 ADD PUSH0 KECCAK256 DUP2 SWAP1 DUP1 PUSH1 0x1 DUP2 SLOAD ADD DUP1 DUP3 SSTORE DUP1 SWAP2 POP POP PUSH1 0x1 SWAP1 SUB SWAP1 PUSH0 MSTORE PUSH1 0x20 PUSH0 KECCAK256 SWAP1 PUSH1 0x7 MUL ADD PUSH0 SWAP1 SWAP2 SWAP1 SWAP2 SWAP1 SWAP2 POP PUSH0 DUP3 ADD MLOAD DUP2 PUSH0 ADD SSTORE PUSH1 0x20 DUP3 ADD MLOAD DUP2 PUSH1 0x1 ADD SWAP1 DUP2 PUSH2 0x1A7A SWAP2 SWAP1 PUSH2 0x353A JUMP JUMPDEST POP PUSH1 0x40 DUP3 ADD MLOAD DUP2 PUSH1 0x2 ADD SWAP1 DUP2 PUSH2 0x1A90 SWAP2 SWAP1 PUSH2 0x353A JUMP JUMPDEST POP PUSH1 0x60 DUP3 ADD MLOAD DUP2 PUSH1 0x3 ADD SWAP1 DUP2 PUSH2 0x1AA6 SWAP2 SWAP1 PUSH2 0x353A JUMP JUMPDEST POP PUSH1 0x80 DUP3 ADD MLOAD DUP2 PUSH1 0x4 ADD SWAP1 DUP2 PUSH2 0x1ABC SWAP2 SWAP1 PUSH2 0x353A JUMP JUMPDEST POP PUSH1 0xA0 DUP3 ADD MLOAD DUP2 PUSH1 0x5 ADD SWAP1 DUP2 PUSH2 0x1AD2 SWAP2 SWAP1 PUSH2 0x353A JUMP JUMPDEST POP PUSH1 0xC0 DUP3 ADD MLOAD DUP2 PUSH1 0x6 ADD SSTORE POP POP POP DUP1 DUP1 PUSH1 0x1 ADD SWAP2 POP POP PUSH2 0x1734 JUMP JUMPDEST POP CALLER PUSH20 0xFFFFFFFFFFFFFFFFFFFFFFFFFFFFFFFFFFFFFFFF AND DUP2 PUSH32 0xA68F79AA37F9CDC81C2757CFB3E11E9D7D89CA0A5410FBCF1B61125BC17FB1B7 PUSH1 0x40 MLOAD PUSH1 0x40 MLOAD DUP1 SWAP2 SUB SWAP1 LOG3 POP POP POP POP POP POP POP POP POP JUMP JUMPDEST PUSH2 0x1B45 PUSH2 0x2077 JUMP JUMPDEST PUSH2 0x1B4D PUSH2 0x226A JUMP JUMPDEST JUMP JUMPDEST PUSH1 0x1 PUSH0 SWAP1 SLOAD SWAP1 PUSH2 0x100 EXP SWAP1 DIV PUSH20 0xFFFFFFFFFFFFFFFFFFFFFFFFFFFFFFFFFFFFFFFF AND DUP2 JUMP JUMPDEST PUSH0 DUP1 PUSH0 SWAP1 SLOAD SWAP1 PUSH2 0x100 EXP SWAP1 DIV PUSH20 0xFFFFFFFFFFFFFFFFFFFFFFFFFFFFFFFFFFFFFFFF AND SWAP1 POP SWAP1 JUMP JUMPDEST PUSH2 0x1BA3 PUSH2 0x2077 JUMP JUMPDEST DUP1 PUSH1 0x1 PUSH0 PUSH2 0x100 EXP DUP2 SLOAD DUP2 PUSH20 0xFFFFFFFFFFFFFFFFFFFFFFFFFFFFFFFFFFFFFFFF MUL NOT AND SWAP1 DUP4 PUSH20 0xFFFFFFFFFFFFFFFFFFFFFFFFFFFFFFFFFFFFFFFF AND MUL OR SWAP1 SSTORE POP POP JUMP JUMPDEST PUSH1 0x4 PUSH1 0x20 MSTORE DUP1 PUSH0 MSTORE PUSH1 0x40 PUSH0 KECCAK256 PUSH0 SWAP2 POP SWAP1 POP DUP1 PUSH0 ADD PUSH0 SWAP1 SLOAD SWAP1 PUSH2 0x100 EXP SWAP1 DIV PUSH20 0xFFFFFFFFFFFFFFFFFFFFFFFFFFFFFFFFFFFFFFFF AND SWAP1 DUP1 PUSH1 0x1 ADD DUP1 SLOAD PUSH2 0x1C2A SWAP1 PUSH2 0x2EE7 JUMP JUMPDEST DUP1 PUSH1 0x1F ADD PUSH1 0x20 DUP1 SWAP2 DIV MUL PUSH1 0x20 ADD PUSH1 0x40 MLOAD SWAP1 DUP2 ADD PUSH1 0x40 MSTORE DUP1 SWAP3 SWAP2 SWAP1 DUP2 DUP2 MSTORE PUSH1 0x20 ADD DUP3 DUP1 SLOAD PUSH2 0x1C56 SWAP1 PUSH2 0x2EE7 JUMP JUMPDEST DUP1 ISZERO PUSH2 0x1CA1 JUMPI DUP1 PUSH1 0x1F LT PUSH2 0x1C78 JUMPI PUSH2 0x100 DUP1 DUP4 SLOAD DIV MUL DUP4 MSTORE SWAP2 PUSH1 0x20 ADD SWAP2 PUSH2 0x1CA1 JUMP JUMPDEST DUP3 ADD SWAP2 SWAP1 PUSH0 MSTORE PUSH1 0x20 PUSH0 KECCAK256 SWAP1 JUMPDEST DUP2 SLOAD DUP2 MSTORE SWAP1 PUSH1 0x1 ADD SWAP1 PUSH1 0x20 ADD DUP1 DUP4 GT PUSH2 0x1C84 JUMPI DUP3 SWAP1 SUB PUSH1 0x1F AND DUP3 ADD SWAP2 JUMPDEST POP POP POP POP POP SWAP1 DUP1 PUSH1 0x2 ADD PUSH0 SWAP1 SLOAD SWAP1 PUSH2 0x100 EXP SWAP1 DIV PUSH1 0xFF AND SWAP1 DUP1 PUSH1 0x3 ADD SLOAD SWAP1 DUP1 PUSH1 0x4 ADD SLOAD SWAP1 DUP1 PUSH1 0x5 ADD SLOAD SWAP1 POP DUP7 JUMP JUMPDEST PUSH8 0xA688906BD8B0000 DUP2 JUMP JUMPDEST PUSH1 0x5 DUP2 JUMP JUMPDEST PUSH1 0x1 DUP2 JUMP JUMPDEST PUSH1 0x6 PUSH1 0x20 MSTORE DUP2 PUSH0 MSTORE PUSH1 0x40 PUSH0 KECCAK256 DUP2 DUP2 SLOAD DUP2 LT PUSH2 0x1CFE JUMPI PUSH0 DUP1 REVERT JUMPDEST SWAP1 PUSH0 MSTORE PUSH1 0x20 PUSH0 KECCAK256 SWAP1 PUSH1 0x7 MUL ADD PUSH0 SWAP2 POP SWAP2 POP POP DUP1 PUSH0 ADD SLOAD SWAP1 DUP1 PUSH1 0x1 ADD DUP1 SLOAD PUSH2 0x1D24 SWAP1 PUSH2 0x2EE7 JUMP JUMPDEST DUP1 PUSH1 0x1F ADD PUSH1 0x20 DUP1 SWAP2 DIV MUL PUSH1 0x20 ADD PUSH1 0x40 MLOAD SWAP1 DUP2 ADD PUSH1 0x40 MSTORE DUP1 SWAP3 SWAP2 SWAP1 DUP2 DUP2 MSTORE PUSH1 0x20 ADD DUP3 DUP1 SLOAD PUSH2 0x1D50 SWAP1 PUSH2 0x2EE7 JUMP JUMPDEST DUP1 ISZERO PUSH2 0x1D9B JUMPI DUP1 PUSH1 0x1F LT PUSH2 0x1D72 JUMPI PUSH2 0x100 DUP1 DUP4 SLOAD DIV MUL DUP4 MSTORE SWAP2 PUSH1 0x20 ADD SWAP2 PUSH2 0x1D9B JUMP JUMPDEST DUP3 ADD SWAP2 SWAP1 PUSH0 MSTORE PUSH1 0x20 PUSH0 KECCAK256 SWAP1 JUMPDEST DUP2 SLOAD DUP2 MSTORE SWAP1 PUSH1 0x1 ADD SWAP1 PUSH1 0x20 ADD DUP1 DUP4 GT PUSH2 0x1D7E JUMPI DUP3 SWAP1 SUB PUSH1 0x1F AND DUP3 ADD SWAP2 JUMPDEST POP POP POP POP POP SWAP1 DUP1 PUSH1 0x2 ADD DUP1 SLOAD PUSH2 0x1DB0 SWAP1 PUSH2 0x2EE7 JUMP JUMPDEST DUP1 PUSH1 0x1F ADD PUSH1 0x20 DUP1 SWAP2 DIV MUL PUSH1 0x20 ADD PUSH1 0x40 MLOAD SWAP1 DUP2 ADD PUSH1 0x40 MSTORE DUP1 SWAP3 SWAP2 SWAP1 DUP2 DUP2 MSTORE PUSH1 0x20 ADD DUP3 DUP1 SLOAD PUSH2 0x1DDC SWAP1 PUSH2 0x2EE7 JUMP JUMPDEST DUP1 ISZERO PUSH2 0x1E27 JUMPI DUP1 PUSH1 0x1F LT PUSH2 0x1DFE JUMPI PUSH2 0x100 DUP1 DUP4 SLOAD DIV MUL DUP4 MSTORE SWAP2 PUSH1 0x20 ADD SWAP2 PUSH2 0x1E27 JUMP JUMPDEST DUP3 ADD SWAP2 SWAP1 PUSH0 MSTORE PUSH1 0x20 PUSH0 KECCAK256 SWAP1 JUMPDEST DUP2 SLOAD DUP2 MSTORE SWAP1 PUSH1 0x1 ADD SWAP1 PUSH1 0x20 ADD DUP1 DUP4 GT PUSH2 0x1E0A JUMPI DUP3 SWAP1 SUB PUSH1 0x1F AND DUP3 ADD SWAP2 JUMPDEST POP POP POP POP POP SWAP1 DUP1 PUSH1 0x3 ADD DUP1 SLOAD PUSH2 0x1E3C SWAP1 PUSH2 0x2EE7 JUMP JUMPDEST DUP1 PUSH1 0x1F ADD PUSH1 0x20 DUP1 SWAP2 DIV MUL PUSH1 0x20 ADD PUSH1 0x40 MLOAD SWAP1 DUP2 ADD PUSH1 0x40 MSTORE DUP1 SWAP3 SWAP2 SWAP1 DUP2 DUP2 MSTORE PUSH1 0x20 ADD DUP3 DUP1 SLOAD PUSH2 0x1E68 SWAP1 PUSH2 0x2EE7 JUMP JUMPDEST DUP1 ISZERO PUSH2 0x1EB3 JUMPI DUP1 PUSH1 0x1F LT PUSH2 0x1E8A JUMPI PUSH2 0x100 DUP1 DUP4 SLOAD DIV MUL DUP4 MSTORE SWAP2 PUSH1 0x20 ADD SWAP2 PUSH2 0x1EB3 JUMP JUMPDEST DUP3 ADD SWAP2 SWAP1 PUSH0 MSTORE PUSH1 0x20 PUSH0 KECCAK256 SWAP1 JUMPDEST DUP2 SLOAD DUP2 MSTORE SWAP1 PUSH1 0x1 ADD SWAP1 PUSH1 0x20 ADD DUP1 DUP4 GT PUSH2 0x1E96 JUMPI DUP3 SWAP1 SUB PUSH1 0x1F AND DUP3 ADD SWAP2 JUMPDEST POP POP POP POP POP SWAP1 DUP1 PUSH1 0x4 ADD DUP1 SLOAD PUSH2 0x1EC8 SWAP1 PUSH2 0x2EE7 JUMP JUMPDEST DUP1 PUSH1 0x1F ADD PUSH1 0x20 DUP1 SWAP2 DIV MUL PUSH1 0x20 ADD PUSH1 0x40 MLOAD SWAP1 DUP2 ADD PUSH1 0x40 MSTORE DUP1 SWAP3 SWAP2 SWAP1 DUP2 DUP2 MSTORE PUSH1 0x20 ADD DUP3 DUP1 SLOAD PUSH2 0x1EF4 SWAP1 PUSH2 0x2EE7 JUMP JUMPDEST DUP1 ISZERO PUSH2 0x1F3F JUMPI DUP1 PUSH1 0x1F LT PUSH2 0x1F16 JUMPI PUSH2 0x100 DUP1 DUP4 SLOAD DIV MUL DUP4 MSTORE SWAP2 PUSH1 0x20 ADD SWAP2 PUSH2 0x1F3F JUMP JUMPDEST DUP3 ADD SWAP2 SWAP1 PUSH0 MSTORE PUSH1 0x20 PUSH0 KECCAK256 SWAP1 JUMPDEST DUP2 SLOAD DUP2 MSTORE SWAP1 PUSH1 0x1 ADD SWAP1 PUSH1 0x20 ADD DUP1 DUP4 GT PUSH2 0x1F22 JUMPI DUP3 SWAP1 SUB PUSH1 0x1F AND DUP3 ADD SWAP2 JUMPDEST POP POP POP POP POP SWAP1 DUP1 PUSH1 0x5 ADD DUP1 SLOAD PUSH2 0x1F54 SWAP1 PUSH2 0x2EE7 JUMP JUMPDEST DUP1 PUSH1 0x1F ADD PUSH1 0x20 DUP1 SWAP2 DIV MUL PUSH1 0x20 ADD PUSH1 0x40 MLOAD SWAP1 DUP2 ADD PUSH1 0x40 MSTORE DUP1 SWAP3 SWAP2 SWAP1 DUP2 DUP2 MSTORE PUSH1 0x20 ADD DUP3 DUP1 SLOAD PUSH2 0x1F80 SWAP1 PUSH2 0x2EE7 JUMP JUMPDEST DUP1 ISZERO PUSH2 0x1FCB JUMPI DUP1 PUSH1 0x1F LT PUSH2 0x1FA2 JUMPI PUSH2 0x100 DUP1 DUP4 SLOAD DIV MUL DUP4 MSTORE SWAP2 PUSH1 0x20 ADD SWAP2 PUSH2 0x1FCB JUMP JUMPDEST DUP3 ADD SWAP2 SWAP1 PUSH0 MSTORE PUSH1 0x20 PUSH0 KECCAK256 SWAP1 JUMPDEST DUP2 SLOAD DUP2 MSTORE SWAP1 PUSH1 0x1 ADD SWAP1 PUSH1 0x20 ADD DUP1 DUP4 GT PUSH2 0x1FAE JUMPI DUP3 SWAP1 SUB PUSH1 0x1F AND DUP3 ADD SWAP2 JUMPDEST POP POP POP POP POP SWAP1 DUP1 PUSH1 0x6 ADD SLOAD SWAP1 POP DUP8 JUMP JUMPDEST PUSH8 0xDE0B6B3A7640000 DUP2 JUMP JUMPDEST PUSH2 0x1FEF PUSH2 0x2077 JUMP JUMPDEST PUSH0 PUSH20 0xFFFFFFFFFFFFFFFFFFFFFFFFFFFFFFFFFFFFFFFF AND DUP2 PUSH20 0xFFFFFFFFFFFFFFFFFFFFFFFFFFFFFFFFFFFFFFFF AND SUB PUSH2 0x205F JUMPI PUSH0 PUSH1 0x40 MLOAD PUSH32 0x1E4FBDF700000000000000000000000000000000000000000000000000000000 DUP2 MSTORE PUSH1 0x4 ADD PUSH2 0x2056 SWAP2 SWAP1 PUSH2 0x2938 JUMP JUMPDEST PUSH1 0x40 MLOAD DUP1 SWAP2 SUB SWAP1 REVERT JUMPDEST PUSH2 0x2068 DUP2 PUSH2 0x21A9 JUMP JUMPDEST POP JUMP JUMPDEST PUSH8 0x8AC7230489E80000 DUP2 JUMP JUMPDEST PUSH2 0x207F PUSH2 0x22CC JUMP JUMPDEST PUSH20 0xFFFFFFFFFFFFFFFFFFFFFFFFFFFFFFFFFFFFFFFF AND PUSH2 0x209D PUSH2 0x1B74 JUMP JUMPDEST PUSH20 0xFFFFFFFFFFFFFFFFFFFFFFFFFFFFFFFFFFFFFFFF AND EQ PUSH2 0x20FC JUMPI PUSH2 0x20C0 PUSH2 0x22CC JUMP JUMPDEST PUSH1 0x40 MLOAD PUSH32 0x118CDAA700000000000000000000000000000000000000000000000000000000 DUP2 MSTORE PUSH1 0x4 ADD PUSH2 0x20F3 SWAP2 SWAP1 PUSH2 0x2938 JUMP JUMPDEST PUSH1 0x40 MLOAD DUP1 SWAP2 SUB SWAP1 REVERT JUMPDEST JUMP JUMPDEST PUSH2 0x2106 PUSH2 0x22D3 JUMP JUMPDEST PUSH0 DUP1 PUSH1 0x14 PUSH2 0x100 EXP DUP2 SLOAD DUP2 PUSH1 0xFF MUL NOT AND SWAP1 DUP4 ISZERO ISZERO MUL OR SWAP1 SSTORE POP PUSH32 0x5DB9EE0A495BF2E6FF9C91A7834C1BA4FDD244A5E8AA4E537BD38AEAE4B073AA PUSH2 0x2148 PUSH2 0x22CC JUMP JUMPDEST PUSH1 0x40 MLOAD PUSH2 0x2155 SWAP2 SWAP1 PUSH2 0x2938 JUMP JUMPDEST PUSH1 0x40 MLOAD DUP1 SWAP2 SUB SWAP1 LOG1 JUMP JUMPDEST PUSH2 0x2167 PUSH2 0x737 JUMP JUMPDEST ISZERO PUSH2 0x21A7 JUMPI PUSH1 0x40 MLOAD PUSH32 0x8C379A000000000000000000000000000000000000000000000000000000000 DUP2 MSTORE PUSH1 0x4 ADD PUSH2 0x219E SWAP1 PUSH2 0x3833 JUMP JUMPDEST PUSH1 0x40 MLOAD DUP1 SWAP2 SUB SWAP1 REVERT JUMPDEST JUMP JUMPDEST PUSH0 DUP1 PUSH0 SWAP1 SLOAD SWAP1 PUSH2 0x100 EXP SWAP1 DIV PUSH20 0xFFFFFFFFFFFFFFFFFFFFFFFFFFFFFFFFFFFFFFFF AND SWAP1 POP DUP2 PUSH0 DUP1 PUSH2 0x100 EXP DUP2 SLOAD DUP2 PUSH20 0xFFFFFFFFFFFFFFFFFFFFFFFFFFFFFFFFFFFFFFFF MUL NOT AND SWAP1 DUP4 PUSH20 0xFFFFFFFFFFFFFFFFFFFFFFFFFFFFFFFFFFFFFFFF AND MUL OR SWAP1 SSTORE POP DUP2 PUSH20 0xFFFFFFFFFFFFFFFFFFFFFFFFFFFFFFFFFFFFFFFF AND DUP2 PUSH20 0xFFFFFFFFFFFFFFFFFFFFFFFFFFFFFFFFFFFFFFFF AND PUSH32 0x8BE0079C531659141344CD1FD0A4F28419497F9722A3DAAFE3B4186F6B6457E0 PUSH1 0x40 MLOAD PUSH1 0x40 MLOAD DUP1 SWAP2 SUB SWAP1 LOG3 POP POP JUMP JUMPDEST PUSH2 0x2272 PUSH2 0x215F JUMP JUMPDEST PUSH1 0x1 PUSH0 PUSH1 0x14 PUSH2 0x100 EXP DUP2 SLOAD DUP2 PUSH1 0xFF MUL NOT AND SWAP1 DUP4 ISZERO ISZERO MUL OR SWAP1 SSTORE POP PUSH32 0x62E78CEA01BEE320CD4E420270B5EA74000D11B0C9F74754EBDBFC544B05A258 PUSH2 0x22B5 PUSH2 0x22CC JUMP JUMPDEST PUSH1 0x40 MLOAD PUSH2 0x22C2 SWAP2 SWAP1 PUSH2 0x2938 JUMP JUMPDEST PUSH1 0x40 MLOAD DUP1 SWAP2 SUB SWAP1 LOG1 JUMP JUMPDEST PUSH0 CALLER SWAP1 POP SWAP1 JUMP JUMPDEST PUSH2 0x22DB PUSH2 0x737 JUMP JUMPDEST PUSH2 0x231A JUMPI PUSH1 0x40 MLOAD PUSH32 0x8C379A000000000000000000000000000000000000000000000000000000000 DUP2 MSTORE PUSH1 0x4 ADD PUSH2 0x2311 SWAP1 PUSH2 0x389B JUMP JUMPDEST PUSH1 0x40 MLOAD DUP1 SWAP2 SUB SWAP1 REVERT JUMPDEST JUMP JUMPDEST PUSH0 PUSH1 0x40 MLOAD SWAP1 POP SWAP1 JUMP JUMPDEST PUSH0 DUP1 REVERT JUMPDEST PUSH0 DUP1 REVERT JUMPDEST PUSH0 PUSH20 0xFFFFFFFFFFFFFFFFFFFFFFFFFFFFFFFFFFFFFFFF DUP3 AND SWAP1 POP SWAP2 SWAP1 POP JUMP JUMPDEST PUSH0 PUSH2 0x2356 DUP3 PUSH2 0x232D JUMP JUMPDEST SWAP1 POP SWAP2 SWAP1 POP JUMP JUMPDEST PUSH2 0x2366 DUP2 PUSH2 0x234C JUMP JUMPDEST DUP2 EQ PUSH2 0x2370 JUMPI PUSH0 DUP1 REVERT JUMPDEST POP JUMP JUMPDEST PUSH0 DUP2 CALLDATALOAD SWAP1 POP PUSH2 0x2381 DUP2 PUSH2 0x235D JUMP JUMPDEST SWAP3 SWAP2 POP POP JUMP JUMPDEST PUSH0 DUP2 SWAP1 POP SWAP2 SWAP1 POP JUMP JUMPDEST PUSH2 0x2399 DUP2 PUSH2 0x2387 JUMP JUMPDEST DUP2 EQ PUSH2 0x23A3 JUMPI PUSH0 DUP1 REVERT JUMPDEST POP JUMP JUMPDEST PUSH0 DUP2 CALLDATALOAD SWAP1 POP PUSH2 0x23B4 DUP2 PUSH2 0x2390 JUMP JUMPDEST SWAP3 SWAP2 POP POP JUMP JUMPDEST PUSH0 DUP1 PUSH1 0x40 DUP4 DUP6 SUB SLT ISZERO PUSH2 0x23D0 JUMPI PUSH2 0x23CF PUSH2 0x2325 JUMP JUMPDEST JUMPDEST PUSH0 PUSH2 0x23DD DUP6 DUP3 DUP7 ADD PUSH2 0x2373 JUMP JUMPDEST SWAP3 POP POP PUSH1 0x20 PUSH2 0x23EE DUP6 DUP3 DUP7 ADD PUSH2 0x23A6 JUMP JUMPDEST SWAP2 POP POP SWAP3 POP SWAP3 SWAP1 POP JUMP JUMPDEST PUSH0 DUP2 ISZERO ISZERO SWAP1 POP SWAP2 SWAP1 POP JUMP JUMPDEST PUSH2 0x240C DUP2 PUSH2 0x23F8 JUMP JUMPDEST DUP3 MSTORE POP POP JUMP JUMPDEST PUSH0 PUSH1 0xFF DUP3 AND SWAP1 POP SWAP2 SWAP1 POP JUMP JUMPDEST PUSH2 0x2427 DUP2 PUSH2 0x2412 JUMP JUMPDEST DUP3 MSTORE POP POP JUMP JUMPDEST PUSH0 PUSH1 0x80 DUP3 ADD SWAP1 POP PUSH2 0x2440 PUSH0 DUP4 ADD DUP8 PUSH2 0x2403 JUMP JUMPDEST PUSH2 0x244D PUSH1 0x20 DUP4 ADD DUP7 PUSH2 0x241E JUMP JUMPDEST PUSH2 0x245A PUSH1 0x40 DUP4 ADD DUP6 PUSH2 0x2403 JUMP JUMPDEST PUSH2 0x2467 PUSH1 0x60 DUP4 ADD DUP5 PUSH2 0x2403 JUMP JUMPDEST SWAP6 SWAP5 POP POP POP POP POP JUMP JUMPDEST PUSH2 0x2479 DUP2 PUSH2 0x2387 JUMP JUMPDEST DUP3 MSTORE POP POP JUMP JUMPDEST PUSH0 PUSH1 0x20 DUP3 ADD SWAP1 POP PUSH2 0x2492 PUSH0 DUP4 ADD DUP5 PUSH2 0x2470 JUMP JUMPDEST SWAP3 SWAP2 POP POP JUMP JUMPDEST PUSH0 PUSH1 0x20 DUP3 ADD SWAP1 POP PUSH2 0x24AB PUSH0 DUP4 ADD DUP5 PUSH2 0x2403 JUMP JUMPDEST SWAP3 SWAP2 POP POP JUMP JUMPDEST PUSH0 DUP1 REVERT JUMPDEST PUSH0 PUSH1 0x1F NOT PUSH1 0x1F DUP4 ADD AND SWAP1 POP SWAP2 SWAP1 POP JUMP JUMPDEST PUSH32 0x4E487B7100000000000000000000000000000000000000000000000000000000 PUSH0 MSTORE PUSH1 0x41 PUSH1 0x4 MSTORE PUSH1 0x24 PUSH0 REVERT JUMPDEST PUSH2 0x24FB DUP3 PUSH2 0x24B5 JUMP JUMPDEST DUP2 ADD DUP2 DUP2 LT PUSH8 0xFFFFFFFFFFFFFFFF DUP3 GT OR ISZERO PUSH2 0x251A JUMPI PUSH2 0x2519 PUSH2 0x24C5 JUMP JUMPDEST JUMPDEST DUP1 PUSH1 0x40 MSTORE POP POP POP JUMP JUMPDEST PUSH0 PUSH2 0x252C PUSH2 0x231C JUMP JUMPDEST SWAP1 POP PUSH2 0x2538 DUP3 DUP3 PUSH2 0x24F2 JUMP JUMPDEST SWAP2 SWAP1 POP JUMP JUMPDEST PUSH0 PUSH8 0xFFFFFFFFFFFFFFFF DUP3 GT ISZERO PUSH2 0x2557 JUMPI PUSH2 0x2556 PUSH2 0x24C5 JUMP JUMPDEST JUMPDEST PUSH1 0x20 DUP3 MUL SWAP1 POP PUSH1 0x20 DUP2 ADD SWAP1 POP SWAP2 SWAP1 POP JUMP JUMPDEST PUSH0 DUP1 REVERT JUMPDEST PUSH0 DUP1 REVERT JUMPDEST PUSH0 PUSH8 0xFFFFFFFFFFFFFFFF DUP3 GT ISZERO PUSH2 0x258A JUMPI PUSH2 0x2589 PUSH2 0x24C5 JUMP JUMPDEST JUMPDEST PUSH2 0x2593 DUP3 PUSH2 0x24B5 JUMP JUMPDEST SWAP1 POP PUSH1 0x20 DUP2 ADD SWAP1 POP SWAP2 SWAP1 POP JUMP JUMPDEST DUP3 DUP2 DUP4 CALLDATACOPY PUSH0 DUP4 DUP4 ADD MSTORE POP POP POP JUMP JUMPDEST PUSH0 PUSH2 0x25C0 PUSH2 0x25BB DUP5 PUSH2 0x2570 JUMP JUMPDEST PUSH2 0x2523 JUMP JUMPDEST SWAP1 POP DUP3 DUP2 MSTORE PUSH1 0x20 DUP2 ADD DUP5 DUP5 DUP5 ADD GT ISZERO PUSH2 0x25DC JUMPI PUSH2 0x25DB PUSH2 0x256C JUMP JUMPDEST JUMPDEST PUSH2 0x25E7 DUP5 DUP3 DUP6 PUSH2 0x25A0 JUMP JUMPDEST POP SWAP4 SWAP3 POP POP POP JUMP JUMPDEST PUSH0 DUP3 PUSH1 0x1F DUP4 ADD SLT PUSH2 0x2603 JUMPI PUSH2 0x2602 PUSH2 0x24B1 JUMP JUMPDEST JUMPDEST DUP2 CALLDATALOAD PUSH2 0x2613 DUP5 DUP3 PUSH1 0x20 DUP7 ADD PUSH2 0x25AE JUMP JUMPDEST SWAP2 POP POP SWAP3 SWAP2 POP POP JUMP JUMPDEST PUSH0 PUSH2 0x262E PUSH2 0x2629 DUP5 PUSH2 0x253D JUMP JUMPDEST PUSH2 0x2523 JUMP JUMPDEST SWAP1 POP DUP1 DUP4 DUP3 MSTORE PUSH1 0x20 DUP3 ADD SWAP1 POP PUSH1 0x20 DUP5 MUL DUP4 ADD DUP6 DUP2 GT ISZERO PUSH2 0x2651 JUMPI PUSH2 0x2650 PUSH2 0x2568 JUMP JUMPDEST JUMPDEST DUP4 JUMPDEST DUP2 DUP2 LT ISZERO PUSH2 0x2698 JUMPI DUP1 CALLDATALOAD PUSH8 0xFFFFFFFFFFFFFFFF DUP2 GT ISZERO PUSH2 0x2676 JUMPI PUSH2 0x2675 PUSH2 0x24B1 JUMP JUMPDEST JUMPDEST DUP1 DUP7 ADD PUSH2 0x2683 DUP10 DUP3 PUSH2 0x25EF JUMP JUMPDEST DUP6 MSTORE PUSH1 0x20 DUP6 ADD SWAP5 POP POP POP PUSH1 0x20 DUP2 ADD SWAP1 POP PUSH2 0x2653 JUMP JUMPDEST POP POP POP SWAP4 SWAP3 POP POP POP JUMP JUMPDEST PUSH0 DUP3 PUSH1 0x1F DUP4 ADD SLT PUSH2 0x26B6 JUMPI PUSH2 0x26B5 PUSH2 0x24B1 JUMP JUMPDEST JUMPDEST DUP2 CALLDATALOAD PUSH2 0x26C6 DUP5 DUP3 PUSH1 0x20 DUP7 ADD PUSH2 0x261C JUMP JUMPDEST SWAP2 POP POP SWAP3 SWAP2 POP POP JUMP JUMPDEST PUSH0 DUP1 PUSH1 0x40 DUP4 DUP6 SUB SLT ISZERO PUSH2 0x26E5 JUMPI PUSH2 0x26E4 PUSH2 0x2325 JUMP JUMPDEST JUMPDEST PUSH0 PUSH2 0x26F2 DUP6 DUP3 DUP7 ADD PUSH2 0x23A6 JUMP JUMPDEST SWAP3 POP POP PUSH1 0x20 DUP4 ADD CALLDATALOAD PUSH8 0xFFFFFFFFFFFFFFFF DUP2 GT ISZERO PUSH2 0x2713 JUMPI PUSH2 0x2712 PUSH2 0x2329 JUMP JUMPDEST JUMPDEST PUSH2 0x271F DUP6 DUP3 DUP7 ADD PUSH2 0x26A2 JUMP JUMPDEST SWAP2 POP POP SWAP3 POP SWAP3 SWAP1 POP JUMP JUMPDEST PUSH0 PUSH1 0x20 DUP3 DUP5 SUB SLT ISZERO PUSH2 0x273E JUMPI PUSH2 0x273D PUSH2 0x2325 JUMP JUMPDEST JUMPDEST PUSH0 PUSH2 0x274B DUP5 DUP3 DUP6 ADD PUSH2 0x23A6 JUMP JUMPDEST SWAP2 POP POP SWAP3 SWAP2 POP POP JUMP JUMPDEST PUSH0 DUP1 PUSH0 DUP1 PUSH0 DUP1 PUSH0 PUSH1 0xE0 DUP9 DUP11 SUB SLT ISZERO PUSH2 0x276F JUMPI PUSH2 0x276E PUSH2 0x2325 JUMP JUMPDEST JUMPDEST PUSH0 DUP9 ADD CALLDATALOAD PUSH8 0xFFFFFFFFFFFFFFFF DUP2 GT ISZERO PUSH2 0x278C JUMPI PUSH2 0x278B PUSH2 0x2329 JUMP JUMPDEST JUMPDEST PUSH2 0x2798 DUP11 DUP3 DUP12 ADD PUSH2 0x25EF JUMP JUMPDEST SWAP8 POP POP PUSH1 0x20 DUP9 ADD CALLDATALOAD PUSH8 0xFFFFFFFFFFFFFFFF DUP2 GT ISZERO PUSH2 0x27B9 JUMPI PUSH2 0x27B8 PUSH2 0x2329 JUMP JUMPDEST JUMPDEST PUSH2 0x27C5 DUP11 DUP3 DUP12 ADD PUSH2 0x26A2 JUMP JUMPDEST SWAP7 POP POP PUSH1 0x40 DUP9 ADD CALLDATALOAD PUSH8 0xFFFFFFFFFFFFFFFF DUP2 GT ISZERO PUSH2 0x27E6 JUMPI PUSH2 0x27E5 PUSH2 0x2329 JUMP JUMPDEST JUMPDEST PUSH2 0x27F2 DUP11 DUP3 DUP12 ADD PUSH2 0x26A2 JUMP JUMPDEST SWAP6 POP POP PUSH1 0x60 DUP9 ADD CALLDATALOAD PUSH8 0xFFFFFFFFFFFFFFFF DUP2 GT ISZERO PUSH2 0x2813 JUMPI PUSH2 0x2812 PUSH2 0x2329 JUMP JUMPDEST JUMPDEST PUSH2 0x281F DUP11 DUP3 DUP12 ADD PUSH2 0x26A2 JUMP JUMPDEST SWAP5 POP POP PUSH1 0x80 DUP9 ADD CALLDATALOAD PUSH8 0xFFFFFFFFFFFFFFFF DUP2 GT ISZERO PUSH2 0x2840 JUMPI PUSH2 0x283F PUSH2 0x2329 JUMP JUMPDEST JUMPDEST PUSH2 0x284C DUP11 DUP3 DUP12 ADD PUSH2 0x26A2 JUMP JUMPDEST SWAP4 POP POP PUSH1 0xA0 DUP9 ADD CALLDATALOAD PUSH8 0xFFFFFFFFFFFFFFFF DUP2 GT ISZERO PUSH2 0x286D JUMPI PUSH2 0x286C PUSH2 0x2329 JUMP JUMPDEST JUMPDEST PUSH2 0x2879 DUP11 DUP3 DUP12 ADD PUSH2 0x26A2 JUMP JUMPDEST SWAP3 POP POP PUSH1 0xC0 DUP9 ADD CALLDATALOAD PUSH8 0xFFFFFFFFFFFFFFFF DUP2 GT ISZERO PUSH2 0x289A JUMPI PUSH2 0x2899 PUSH2 0x2329 JUMP JUMPDEST JUMPDEST PUSH2 0x28A6 DUP11 DUP3 DUP12 ADD PUSH2 0x26A2 JUMP JUMPDEST SWAP2 POP POP SWAP3 SWAP6 SWAP9 SWAP2 SWAP5 SWAP8 POP SWAP3 SWAP6 POP JUMP JUMPDEST PUSH0 DUP2 SWAP1 POP SWAP2 SWAP1 POP JUMP JUMPDEST PUSH0 PUSH2 0x28D8 PUSH2 0x28D3 PUSH2 0x28CE DUP5 PUSH2 0x232D JUMP JUMPDEST PUSH2 0x28B5 JUMP JUMPDEST PUSH2 0x232D JUMP JUMPDEST SWAP1 POP SWAP2 SWAP1 POP JUMP JUMPDEST PUSH0 PUSH2 0x28E9 DUP3 PUSH2 0x28BE JUMP JUMPDEST SWAP1 POP SWAP2 SWAP1 POP JUMP JUMPDEST PUSH0 PUSH2 0x28FA DUP3 PUSH2 0x28DF JUMP JUMPDEST SWAP1 POP SWAP2 SWAP1 POP JUMP JUMPDEST PUSH2 0x290A DUP2 PUSH2 0x28F0 JUMP JUMPDEST DUP3 MSTORE POP POP JUMP JUMPDEST PUSH0 PUSH1 0x20 DUP3 ADD SWAP1 POP PUSH2 0x2923 PUSH0 DUP4 ADD DUP5 PUSH2 0x2901 JUMP JUMPDEST SWAP3 SWAP2 POP POP JUMP JUMPDEST PUSH2 0x2932 DUP2 PUSH2 0x234C JUMP JUMPDEST DUP3 MSTORE POP POP JUMP JUMPDEST PUSH0 PUSH1 0x20 DUP3 ADD SWAP1 POP PUSH2 0x294B PUSH0 DUP4 ADD DUP5 PUSH2 0x2929 JUMP JUMPDEST SWAP3 SWAP2 POP POP JUMP JUMPDEST PUSH0 PUSH1 0x20 DUP3 DUP5 SUB SLT ISZERO PUSH2 0x2966 JUMPI PUSH2 0x2965 PUSH2 0x2325 JUMP JUMPDEST JUMPDEST PUSH0 PUSH2 0x2973 DUP5 DUP3 DUP6 ADD PUSH2 0x2373 JUMP JUMPDEST SWAP2 POP POP SWAP3 SWAP2 POP POP JUMP JUMPDEST PUSH0 DUP2 MLOAD SWAP1 POP SWAP2 SWAP1 POP JUMP JUMPDEST PUSH0 DUP3 DUP3 MSTORE PUSH1 0x20 DUP3 ADD SWAP1 POP SWAP3 SWAP2 POP POP JUMP JUMPDEST DUP3 DUP2 DUP4 MCOPY PUSH0 DUP4 DUP4 ADD MSTORE POP POP POP JUMP JUMPDEST PUSH0 PUSH2 0x29AE DUP3 PUSH2 0x297C JUMP JUMPDEST PUSH2 0x29B8 DUP2 DUP6 PUSH2 0x2986 JUMP JUMPDEST SWAP4 POP PUSH2 0x29C8 DUP2 DUP6 PUSH1 0x20 DUP7 ADD PUSH2 0x2996 JUMP JUMPDEST PUSH2 0x29D1 DUP2 PUSH2 0x24B5 JUMP JUMPDEST DUP5 ADD SWAP2 POP POP SWAP3 SWAP2 POP POP JUMP JUMPDEST PUSH0 PUSH1 0xC0 DUP3 ADD SWAP1 POP PUSH2 0x29EF PUSH0 DUP4 ADD DUP10 PUSH2 0x2929 JUMP JUMPDEST DUP2 DUP2 SUB PUSH1 0x20 DUP4 ADD MSTORE PUSH2 0x2A01 DUP2 DUP9 PUSH2 0x29A4 JUMP JUMPDEST SWAP1 POP PUSH2 0x2A10 PUSH1 0x40 DUP4 ADD DUP8 PUSH2 0x2403 JUMP JUMPDEST PUSH2 0x2A1D PUSH1 0x60 DUP4 ADD DUP7 PUSH2 0x2470 JUMP JUMPDEST PUSH2 0x2A2A PUSH1 0x80 DUP4 ADD DUP6 PUSH2 0x2470 JUMP JUMPDEST PUSH2 0x2A37 PUSH1 0xA0 DUP4 ADD DUP5 PUSH2 0x2470 JUMP JUMPDEST SWAP8 SWAP7 POP POP POP POP POP POP POP JUMP JUMPDEST PUSH0 DUP1 PUSH1 0x40 DUP4 DUP6 SUB SLT ISZERO PUSH2 0x2A58 JUMPI PUSH2 0x2A57 PUSH2 0x2325 JUMP JUMPDEST JUMPDEST PUSH0 PUSH2 0x2A65 DUP6 DUP3 DUP7 ADD PUSH2 0x23A6 JUMP JUMPDEST SWAP3 POP POP PUSH1 0x20 PUSH2 0x2A76 DUP6 DUP3 DUP7 ADD PUSH2 0x23A6 JUMP JUMPDEST SWAP2 POP POP SWAP3 POP SWAP3 SWAP1 POP JUMP JUMPDEST PUSH0 DUP2 SWAP1 POP SWAP2 SWAP1 POP JUMP JUMPDEST PUSH2 0x2A92 DUP2 PUSH2 0x2A80 JUMP JUMPDEST DUP3 MSTORE POP POP JUMP JUMPDEST PUSH0 PUSH1 0xE0 DUP3 ADD SWAP1 POP PUSH2 0x2AAB PUSH0 DUP4 ADD DUP11 PUSH2 0x2470 JUMP JUMPDEST DUP2 DUP2 SUB PUSH1 0x20 DUP4 ADD MSTORE PUSH2 0x2ABD DUP2 DUP10 PUSH2 0x29A4 JUMP JUMPDEST SWAP1 POP DUP2 DUP2 SUB PUSH1 0x40 DUP4 ADD MSTORE PUSH2 0x2AD1 DUP2 DUP9 PUSH2 0x29A4 JUMP JUMPDEST SWAP1 POP DUP2 DUP2 SUB PUSH1 0x60 DUP4 ADD MSTORE PUSH2 0x2AE5 DUP2 DUP8 PUSH2 0x29A4 JUMP JUMPDEST SWAP1 POP DUP2 DUP2 SUB PUSH1 0x80 DUP4 ADD MSTORE PUSH2 0x2AF9 DUP2 DUP7 PUSH2 0x29A4 JUMP JUMPDEST SWAP1 POP DUP2 DUP2 SUB PUSH1 0xA0 DUP4 ADD MSTORE PUSH2 0x2B0D DUP2 DUP6 PUSH2 0x29A4 JUMP JUMPDEST SWAP1 POP PUSH2 0x2B1C PUSH1 0xC0 DUP4 ADD DUP5 PUSH2 0x2A89 JUMP JUMPDEST SWAP9 SWAP8 POP POP POP POP POP POP POP POP JUMP JUMPDEST PUSH32 0x4E487B7100000000000000000000000000000000000000000000000000000000 PUSH0 MSTORE PUSH1 0x11 PUSH1 0x4 MSTORE PUSH1 0x24 PUSH0 REVERT JUMPDEST PUSH0 PUSH2 0x2B5F DUP3 PUSH2 0x2387 JUMP JUMPDEST SWAP2 POP PUSH2 0x2B6A DUP4 PUSH2 0x2387 JUMP JUMPDEST SWAP3 POP DUP3 DUP3 ADD SWAP1 POP DUP1 DUP3 GT ISZERO PUSH2 0x2B82 JUMPI PUSH2 0x2B81 PUSH2 0x2B28 JUMP JUMPDEST JUMPDEST SWAP3 SWAP2 POP POP JUMP JUMPDEST PUSH32 0x5769746864726177616C20696E74657276616C206E6F74207265616368656400 PUSH0 DUP3 ADD MSTORE POP JUMP JUMPDEST PUSH0 PUSH2 0x2BBC PUSH1 0x1F DUP4 PUSH2 0x2986 JUMP JUMPDEST SWAP2 POP PUSH2 0x2BC7 DUP3 PUSH2 0x2B88 JUMP JUMPDEST PUSH1 0x20 DUP3 ADD SWAP1 POP SWAP2 SWAP1 POP JUMP JUMPDEST PUSH0 PUSH1 0x20 DUP3 ADD SWAP1 POP DUP2 DUP2 SUB PUSH0 DUP4 ADD MSTORE PUSH2 0x2BE9 DUP2 PUSH2 0x2BB0 JUMP JUMPDEST SWAP1 POP SWAP2 SWAP1 POP JUMP JUMPDEST PUSH0 DUP2 SWAP1 POP SWAP3 SWAP2 POP POP JUMP JUMPDEST POP JUMP JUMPDEST PUSH0 PUSH2 0x2C08 PUSH0 DUP4 PUSH2 0x2BF0 JUMP JUMPDEST SWAP2 POP PUSH2 0x2C13 DUP3 PUSH2 0x2BFA JUMP JUMPDEST PUSH0 DUP3 ADD SWAP1 POP SWAP2 SWAP1 POP JUMP JUMPDEST PUSH0 PUSH2 0x2C27 DUP3 PUSH2 0x2BFD JUMP JUMPDEST SWAP2 POP DUP2 SWAP1 POP SWAP2 SWAP1 POP JUMP JUMPDEST PUSH32 0x4661696C656420746F2077697468647261772067617320666565730000000000 PUSH0 DUP3 ADD MSTORE POP JUMP JUMPDEST PUSH0 PUSH2 0x2C65 PUSH1 0x1B DUP4 PUSH2 0x2986 JUMP JUMPDEST SWAP2 POP PUSH2 0x2C70 DUP3 PUSH2 0x2C31 JUMP JUMPDEST PUSH1 0x20 DUP3 ADD SWAP1 POP SWAP2 SWAP1 POP JUMP JUMPDEST PUSH0 PUSH1 0x20 DUP3 ADD SWAP1 POP DUP2 DUP2 SUB PUSH0 DUP4 ADD MSTORE PUSH2 0x2C92 DUP2 PUSH2 0x2C59 JUMP JUMPDEST SWAP1 POP SWAP2 SWAP1 POP JUMP JUMPDEST PUSH32 0x496E73756666696369656E742067617320666565000000000000000000000000 PUSH0 DUP3 ADD MSTORE POP JUMP JUMPDEST PUSH0 PUSH2 0x2CCD PUSH1 0x14 DUP4 PUSH2 0x2986 JUMP JUMPDEST SWAP2 POP PUSH2 0x2CD8 DUP3 PUSH2 0x2C99 JUMP JUMPDEST PUSH1 0x20 DUP3 ADD SWAP1 POP SWAP2 SWAP1 POP JUMP JUMPDEST PUSH0 PUSH1 0x20 DUP3 ADD SWAP1 POP DUP2 DUP2 SUB PUSH0 DUP4 ADD MSTORE PUSH2 0x2CFA DUP2 PUSH2 0x2CC1 JUMP JUMPDEST SWAP1 POP SWAP2 SWAP1 POP JUMP JUMPDEST PUSH0 PUSH2 0x2D0B DUP3 PUSH2 0x2387 JUMP JUMPDEST SWAP2 POP PUSH2 0x2D16 DUP4 PUSH2 0x2387 JUMP JUMPDEST SWAP3 POP DUP3 DUP3 SUB SWAP1 POP DUP2 DUP2 GT ISZERO PUSH2 0x2D2E JUMPI PUSH2 0x2D2D PUSH2 0x2B28 JUMP JUMPDEST JUMPDEST SWAP3 SWAP2 POP POP JUMP JUMPDEST PUSH32 0x55736572206E6F7420656E726F6C6C656420696E207468697320636F75727365 PUSH0 DUP3 ADD MSTORE POP JUMP JUMPDEST PUSH0 PUSH2 0x2D68 PUSH1 0x20 DUP4 PUSH2 0x2986 JUMP JUMPDEST SWAP2 POP PUSH2 0x2D73 DUP3 PUSH2 0x2D34 JUMP JUMPDEST PUSH1 0x20 DUP3 ADD SWAP1 POP SWAP2 SWAP1 POP JUMP JUMPDEST PUSH0 PUSH1 0x20 DUP3 ADD SWAP1 POP DUP2 DUP2 SUB PUSH0 DUP4 ADD MSTORE PUSH2 0x2D95 DUP2 PUSH2 0x2D5C JUMP JUMPDEST SWAP1 POP SWAP2 SWAP1 POP JUMP JUMPDEST PUSH32 0x4D6178696D756D20617474656D70747320726561636865640000000000000000 PUSH0 DUP3 ADD MSTORE POP JUMP JUMPDEST PUSH0 PUSH2 0x2DD0 PUSH1 0x18 DUP4 PUSH2 0x2986 JUMP JUMPDEST SWAP2 POP PUSH2 0x2DDB DUP3 PUSH2 0x2D9C JUMP JUMPDEST PUSH1 0x20 DUP3 ADD SWAP1 POP SWAP2 SWAP1 POP JUMP JUMPDEST PUSH0 PUSH1 0x20 DUP3 ADD SWAP1 POP DUP2 DUP2 SUB PUSH0 DUP4 ADD MSTORE PUSH2 0x2DFD DUP2 PUSH2 0x2DC4 JUMP JUMPDEST SWAP1 POP SWAP2 SWAP1 POP JUMP JUMPDEST PUSH32 0x557365722068617320616C726561647920706173736564207468697320636F75 PUSH0 DUP3 ADD MSTORE PUSH32 0x7273650000000000000000000000000000000000000000000000000000000000 PUSH1 0x20 DUP3 ADD MSTORE POP JUMP JUMPDEST PUSH0 PUSH2 0x2E5E PUSH1 0x23 DUP4 PUSH2 0x2986 JUMP JUMPDEST SWAP2 POP PUSH2 0x2E69 DUP3 PUSH2 0x2E04 JUMP JUMPDEST PUSH1 0x40 DUP3 ADD SWAP1 POP SWAP2 SWAP1 POP JUMP JUMPDEST PUSH0 PUSH1 0x20 DUP3 ADD SWAP1 POP DUP2 DUP2 SUB PUSH0 DUP4 ADD MSTORE PUSH2 0x2E8B DUP2 PUSH2 0x2E52 JUMP JUMPDEST SWAP1 POP SWAP2 SWAP1 POP JUMP JUMPDEST PUSH0 PUSH2 0x2E9C DUP3 PUSH2 0x2412 JUMP JUMPDEST SWAP2 POP PUSH1 0xFF DUP3 SUB PUSH2 0x2EAF JUMPI PUSH2 0x2EAE PUSH2 0x2B28 JUMP JUMPDEST JUMPDEST PUSH1 0x1 DUP3 ADD SWAP1 POP SWAP2 SWAP1 POP JUMP JUMPDEST PUSH32 0x4E487B7100000000000000000000000000000000000000000000000000000000 PUSH0 MSTORE PUSH1 0x22 PUSH1 0x4 MSTORE PUSH1 0x24 PUSH0 REVERT JUMPDEST PUSH0 PUSH1 0x2 DUP3 DIV SWAP1 POP PUSH1 0x1 DUP3 AND DUP1 PUSH2 0x2EFE JUMPI PUSH1 0x7F DUP3 AND SWAP2 POP JUMPDEST PUSH1 0x20 DUP3 LT DUP2 SUB PUSH2 0x2F11 JUMPI PUSH2 0x2F10 PUSH2 0x2EBA JUMP JUMPDEST JUMPDEST POP SWAP2 SWAP1 POP JUMP JUMPDEST PUSH32 0x416E7377657220636F756E74206D69736D617463680000000000000000000000 PUSH0 DUP3 ADD MSTORE POP JUMP JUMPDEST PUSH0 PUSH2 0x2F4B PUSH1 0x15 DUP4 PUSH2 0x2986 JUMP JUMPDEST SWAP2 POP PUSH2 0x2F56 DUP3 PUSH2 0x2F17 JUMP JUMPDEST PUSH1 0x20 DUP3 ADD SWAP1 POP SWAP2 SWAP1 POP JUMP JUMPDEST PUSH0 PUSH1 0x20 DUP3 ADD SWAP1 POP DUP2 DUP2 SUB PUSH0 DUP4 ADD MSTORE PUSH2 0x2F78 DUP2 PUSH2 0x2F3F JUMP JUMPDEST SWAP1 POP SWAP2 SWAP1 POP JUMP JUMPDEST PUSH32 0x4E487B7100000000000000000000000000000000000000000000000000000000 PUSH0 MSTORE PUSH1 0x32 PUSH1 0x4 MSTORE PUSH1 0x24 PUSH0 REVERT JUMPDEST PUSH0 DUP2 SWAP1 POP SWAP3 SWAP2 POP POP JUMP JUMPDEST PUSH0 PUSH2 0x2FC0 DUP3 PUSH2 0x297C JUMP JUMPDEST PUSH2 0x2FCA DUP2 DUP6 PUSH2 0x2FAC JUMP JUMPDEST SWAP4 POP PUSH2 0x2FDA DUP2 DUP6 PUSH1 0x20 DUP7 ADD PUSH2 0x2996 JUMP JUMPDEST DUP1 DUP5 ADD SWAP2 POP POP SWAP3 SWAP2 POP POP JUMP JUMPDEST PUSH0 PUSH2 0x2FF1 DUP3 DUP5 PUSH2 0x2FB6 JUMP JUMPDEST SWAP2 POP DUP2 SWAP1 POP SWAP3 SWAP2 POP POP JUMP JUMPDEST PUSH0 PUSH2 0x3006 DUP3 PUSH2 0x2387 JUMP JUMPDEST SWAP2 POP PUSH32 0xFFFFFFFFFFFFFFFFFFFFFFFFFFFFFFFFFFFFFFFFFFFFFFFFFFFFFFFFFFFFFFFF DUP3 SUB PUSH2 0x3038 JUMPI PUSH2 0x3037 PUSH2 0x2B28 JUMP JUMPDEST JUMPDEST PUSH1 0x1 DUP3 ADD SWAP1 POP SWAP2 SWAP1 POP JUMP JUMPDEST PUSH32 0x4661696C656420746F2073656E64204D414E4400000000000000000000000000 PUSH0 DUP3 ADD MSTORE POP JUMP JUMPDEST PUSH0 PUSH2 0x3077 PUSH1 0x13 DUP4 PUSH2 0x2986 JUMP JUMPDEST SWAP2 POP PUSH2 0x3082 DUP3 PUSH2 0x3043 JUMP JUMPDEST PUSH1 0x20 DUP3 ADD SWAP1 POP SWAP2 SWAP1 POP JUMP JUMPDEST PUSH0 PUSH1 0x20 DUP3 ADD SWAP1 POP DUP2 DUP2 SUB PUSH0 DUP4 ADD MSTORE PUSH2 0x30A4 DUP2 PUSH2 0x306B JUMP JUMPDEST SWAP1 POP SWAP2 SWAP1 POP JUMP JUMPDEST PUSH0 DUP2 MLOAD SWAP1 POP PUSH2 0x30B9 DUP2 PUSH2 0x2390 JUMP JUMPDEST SWAP3 SWAP2 POP POP JUMP JUMPDEST PUSH0 PUSH1 0x20 DUP3 DUP5 SUB SLT ISZERO PUSH2 0x30D4 JUMPI PUSH2 0x30D3 PUSH2 0x2325 JUMP JUMPDEST JUMPDEST PUSH0 PUSH2 0x30E1 DUP5 DUP3 DUP6 ADD PUSH2 0x30AB JUMP JUMPDEST SWAP2 POP POP SWAP3 SWAP2 POP POP JUMP JUMPDEST PUSH32 0x496E73756666696369656E742072657075746174696F6E20746F20656E726F6C PUSH0 DUP3 ADD MSTORE PUSH32 0x6C00000000000000000000000000000000000000000000000000000000000000 PUSH1 0x20 DUP3 ADD MSTORE POP JUMP JUMPDEST PUSH0 PUSH2 0x3144 PUSH1 0x21 DUP4 PUSH2 0x2986 JUMP JUMPDEST SWAP2 POP PUSH2 0x314F DUP3 PUSH2 0x30EA JUMP JUMPDEST PUSH1 0x40 DUP3 ADD SWAP1 POP SWAP2 SWAP1 POP JUMP JUMPDEST PUSH0 PUSH1 0x20 DUP3 ADD SWAP1 POP DUP2 DUP2 SUB PUSH0 DUP4 ADD MSTORE PUSH2 0x3171 DUP2 PUSH2 0x3138 JUMP JUMPDEST SWAP1 POP SWAP2 SWAP1 POP JUMP JUMPDEST PUSH32 0x436F75727365206E6F7420617070726F76656400000000000000000000000000 PUSH0 DUP3 ADD MSTORE POP JUMP JUMPDEST PUSH0 PUSH2 0x31AC PUSH1 0x13 DUP4 PUSH2 0x2986 JUMP JUMPDEST SWAP2 POP PUSH2 0x31B7 DUP3 PUSH2 0x3178 JUMP JUMPDEST PUSH1 0x20 DUP3 ADD SWAP1 POP SWAP2 SWAP1 POP JUMP JUMPDEST PUSH0 PUSH1 0x20 DUP3 ADD SWAP1 POP DUP2 DUP2 SUB PUSH0 DUP4 ADD MSTORE PUSH2 0x31D9 DUP2 PUSH2 0x31A0 JUMP JUMPDEST SWAP1 POP SWAP2 SWAP1 POP JUMP JUMPDEST PUSH32 0x416C726561647920656E726F6C6C656400000000000000000000000000000000 PUSH0 DUP3 ADD MSTORE POP JUMP JUMPDEST PUSH0 PUSH2 0x3214 PUSH1 0x10 DUP4 PUSH2 0x2986 JUMP JUMPDEST SWAP2 POP PUSH2 0x321F DUP3 PUSH2 0x31E0 JUMP JUMPDEST PUSH1 0x20 DUP3 ADD SWAP1 POP SWAP2 SWAP1 POP JUMP JUMPDEST PUSH0 PUSH1 0x20 DUP3 ADD SWAP1 POP DUP2 DUP2 SUB PUSH0 DUP4 ADD MSTORE PUSH2 0x3241 DUP2 PUSH2 0x3208 JUMP JUMPDEST SWAP1 POP SWAP2 SWAP1 POP JUMP JUMPDEST PUSH32 0x436F7572736520616C726561647920617070726F766564000000000000000000 PUSH0 DUP3 ADD MSTORE POP JUMP JUMPDEST PUSH0 PUSH2 0x327C PUSH1 0x17 DUP4 PUSH2 0x2986 JUMP JUMPDEST SWAP2 POP PUSH2 0x3287 DUP3 PUSH2 0x3248 JUMP JUMPDEST PUSH1 0x20 DUP3 ADD SWAP1 POP SWAP2 SWAP1 POP JUMP JUMPDEST PUSH0 PUSH1 0x20 DUP3 ADD SWAP1 POP DUP2 DUP2 SUB PUSH0 DUP4 ADD MSTORE PUSH2 0x32A9 DUP2 PUSH2 0x3270 JUMP JUMPDEST SWAP1 POP SWAP2 SWAP1 POP JUMP JUMPDEST PUSH32 0x496E73756666696369656E742072657075746174696F6E20746F206372656174 PUSH0 DUP3 ADD MSTORE PUSH32 0x6520636F75727365000000000000000000000000000000000000000000000000 PUSH1 0x20 DUP3 ADD MSTORE POP JUMP JUMPDEST PUSH0 PUSH2 0x330A PUSH1 0x28 DUP4 PUSH2 0x2986 JUMP JUMPDEST SWAP2 POP PUSH2 0x3315 DUP3 PUSH2 0x32B0 JUMP JUMPDEST PUSH1 0x40 DUP3 ADD SWAP1 POP SWAP2 SWAP1 POP JUMP JUMPDEST PUSH0 PUSH1 0x20 DUP3 ADD SWAP1 POP DUP2 DUP2 SUB PUSH0 DUP4 ADD MSTORE PUSH2 0x3337 DUP2 PUSH2 0x32FE JUMP JUMPDEST SWAP1 POP SWAP2 SWAP1 POP JUMP JUMPDEST PUSH32 0x496E76616C6964207175697A2064617461000000000000000000000000000000 PUSH0 DUP3 ADD MSTORE POP JUMP JUMPDEST PUSH0 PUSH2 0x3372 PUSH1 0x11 DUP4 PUSH2 0x2986 JUMP JUMPDEST SWAP2 POP PUSH2 0x337D DUP3 PUSH2 0x333E JUMP JUMPDEST PUSH1 0x20 DUP3 ADD SWAP1 POP SWAP2 SWAP1 POP JUMP JUMPDEST PUSH0 PUSH1 0x20 DUP3 ADD SWAP1 POP DUP2 DUP2 SUB PUSH0 DUP4 ADD MSTORE PUSH2 0x339F DUP2 PUSH2 0x3366 JUMP JUMPDEST SWAP1 POP SWAP2 SWAP1 POP JUMP JUMPDEST PUSH0 DUP2 SWAP1 POP DUP2 PUSH0 MSTORE PUSH1 0x20 PUSH0 KECCAK256 SWAP1 POP SWAP2 SWAP1 POP JUMP JUMPDEST PUSH0 PUSH1 0x20 PUSH1 0x1F DUP4 ADD DIV SWAP1 POP SWAP2 SWAP1 POP JUMP JUMPDEST PUSH0 DUP3 DUP3 SHL SWAP1 POP SWAP3 SWAP2 POP POP JUMP JUMPDEST PUSH0 PUSH1 0x8 DUP4 MUL PUSH2 0x3402 PUSH32 0xFFFFFFFFFFFFFFFFFFFFFFFFFFFFFFFFFFFFFFFFFFFFFFFFFFFFFFFFFFFFFFFF DUP3 PUSH2 0x33C7 JUMP JUMPDEST PUSH2 0x340C DUP7 DUP4 PUSH2 0x33C7 JUMP JUMPDEST SWAP6 POP DUP1 NOT DUP5 AND SWAP4 POP DUP1 DUP7 AND DUP5 OR SWAP3 POP POP POP SWAP4 SWAP3 POP POP POP JUMP JUMPDEST PUSH0 PUSH2 0x343E PUSH2 0x3439 PUSH2 0x3434 DUP5 PUSH2 0x2387 JUMP JUMPDEST PUSH2 0x28B5 JUMP JUMPDEST PUSH2 0x2387 JUMP JUMPDEST SWAP1 POP SWAP2 SWAP1 POP JUMP JUMPDEST PUSH0 DUP2 SWAP1 POP SWAP2 SWAP1 POP JUMP JUMPDEST PUSH2 0x3457 DUP4 PUSH2 0x3424 JUMP JUMPDEST PUSH2 0x346B PUSH2 0x3463 DUP3 PUSH2 0x3445 JUMP JUMPDEST DUP5 DUP5 SLOAD PUSH2 0x33D3 JUMP JUMPDEST DUP3 SSTORE POP POP POP POP JUMP JUMPDEST PUSH0 SWAP1 JUMP JUMPDEST PUSH2 0x347F PUSH2 0x3473 JUMP JUMPDEST PUSH2 0x348A DUP2 DUP5 DUP5 PUSH2 0x344E JUMP JUMPDEST POP POP POP JUMP JUMPDEST JUMPDEST DUP2 DUP2 LT ISZERO PUSH2 0x34AD JUMPI PUSH2 0x34A2 PUSH0 DUP3 PUSH2 0x3477 JUMP JUMPDEST PUSH1 0x1 DUP2 ADD SWAP1 POP PUSH2 0x3490 JUMP JUMPDEST POP POP JUMP JUMPDEST PUSH1 0x1F DUP3 GT ISZERO PUSH2 0x34F2 JUMPI PUSH2 0x34C3 DUP2 PUSH2 0x33A6 JUMP JUMPDEST PUSH2 0x34CC DUP5 PUSH2 0x33B8 JUMP JUMPDEST DUP2 ADD PUSH1 0x20 DUP6 LT ISZERO PUSH2 0x34DB JUMPI DUP2 SWAP1 POP JUMPDEST PUSH2 0x34EF PUSH2 0x34E7 DUP6 PUSH2 0x33B8 JUMP JUMPDEST DUP4 ADD DUP3 PUSH2 0x348F JUMP JUMPDEST POP POP JUMPDEST POP POP POP JUMP JUMPDEST PUSH0 DUP3 DUP3 SHR SWAP1 POP SWAP3 SWAP2 POP POP JUMP JUMPDEST PUSH0 PUSH2 0x3512 PUSH0 NOT DUP5 PUSH1 0x8 MUL PUSH2 0x34F7 JUMP JUMPDEST NOT DUP1 DUP4 AND SWAP2 POP POP SWAP3 SWAP2 POP POP JUMP JUMPDEST PUSH0 PUSH2 0x352A DUP4 DUP4 PUSH2 0x3503 JUMP JUMPDEST SWAP2 POP DUP3 PUSH1 0x2 MUL DUP3 OR SWAP1 POP SWAP3 SWAP2 POP POP JUMP JUMPDEST PUSH2 0x3543 DUP3 PUSH2 0x297C JUMP JUMPDEST PUSH8 0xFFFFFFFFFFFFFFFF DUP2 GT ISZERO PUSH2 0x355C JUMPI PUSH2 0x355B PUSH2 0x24C5 JUMP JUMPDEST JUMPDEST PUSH2 0x3566 DUP3 SLOAD PUSH2 0x2EE7 JUMP JUMPDEST PUSH2 0x3571 DUP3 DUP3 DUP6 PUSH2 0x34B1 JUMP JUMPDEST PUSH0 PUSH1 0x20 SWAP1 POP PUSH1 0x1F DUP4 GT PUSH1 0x1 DUP2 EQ PUSH2 0x35A2 JUMPI PUSH0 DUP5 ISZERO PUSH2 0x3590 JUMPI DUP3 DUP8 ADD MLOAD SWAP1 POP JUMPDEST PUSH2 0x359A DUP6 DUP3 PUSH2 0x351F JUMP JUMPDEST DUP7 SSTORE POP PUSH2 0x3601 JUMP JUMPDEST PUSH1 0x1F NOT DUP5 AND PUSH2 0x35B0 DUP7 PUSH2 0x33A6 JUMP JUMPDEST PUSH0 JUMPDEST DUP3 DUP2 LT ISZERO PUSH2 0x35D7 JUMPI DUP5 DUP10 ADD MLOAD DUP3 SSTORE PUSH1 0x1 DUP3 ADD SWAP2 POP PUSH1 0x20 DUP6 ADD SWAP5 POP PUSH1 0x20 DUP2 ADD SWAP1 POP PUSH2 0x35B2 JUMP JUMPDEST DUP7 DUP4 LT ISZERO PUSH2 0x35F4 JUMPI DUP5 DUP10 ADD MLOAD PUSH2 0x35F0 PUSH1 0x1F DUP10 AND DUP3 PUSH2 0x3503 JUMP JUMPDEST DUP4 SSTORE POP JUMPDEST PUSH1 0x1 PUSH1 0x2 DUP9 MUL ADD DUP9 SSTORE POP POP POP JUMPDEST POP POP POP POP POP POP JUMP JUMPDEST PUSH32 0x4100000000000000000000000000000000000000000000000000000000000000 PUSH0 DUP3 ADD MSTORE POP JUMP JUMPDEST PUSH0 PUSH2 0x363D PUSH1 0x1 DUP4 PUSH2 0x2FAC JUMP JUMPDEST SWAP2 POP PUSH2 0x3648 DUP3 PUSH2 0x3609 JUMP JUMPDEST PUSH1 0x1 DUP3 ADD SWAP1 POP SWAP2 SWAP1 POP JUMP JUMPDEST PUSH0 PUSH2 0x365D DUP3 PUSH2 0x3631 JUMP JUMPDEST SWAP2 POP DUP2 SWAP1 POP SWAP2 SWAP1 POP JUMP JUMPDEST PUSH32 0x4200000000000000000000000000000000000000000000000000000000000000 PUSH0 DUP3 ADD MSTORE POP JUMP JUMPDEST PUSH0 PUSH2 0x369B PUSH1 0x1 DUP4 PUSH2 0x2FAC JUMP JUMPDEST SWAP2 POP PUSH2 0x36A6 DUP3 PUSH2 0x3667 JUMP JUMPDEST PUSH1 0x1 DUP3 ADD SWAP1 POP SWAP2 SWAP1 POP JUMP JUMPDEST PUSH0 PUSH2 0x36BB DUP3 PUSH2 0x368F JUMP JUMPDEST SWAP2 POP DUP2 SWAP1 POP SWAP2 SWAP1 POP JUMP JUMPDEST PUSH32 0x4300000000000000000000000000000000000000000000000000000000000000 PUSH0 DUP3 ADD MSTORE POP JUMP JUMPDEST PUSH0 PUSH2 0x36F9 PUSH1 0x1 DUP4 PUSH2 0x2FAC JUMP JUMPDEST SWAP2 POP PUSH2 0x3704 DUP3 PUSH2 0x36C5 JUMP JUMPDEST PUSH1 0x1 DUP3 ADD SWAP1 POP SWAP2 SWAP1 POP JUMP JUMPDEST PUSH0 PUSH2 0x3719 DUP3 PUSH2 0x36ED JUMP JUMPDEST SWAP2 POP DUP2 SWAP1 POP SWAP2 SWAP1 POP JUMP JUMPDEST PUSH32 0x4400000000000000000000000000000000000000000000000000000000000000 PUSH0 DUP3 ADD MSTORE POP JUMP JUMPDEST PUSH0 PUSH2 0x3757 PUSH1 0x1 DUP4 PUSH2 0x2FAC JUMP JUMPDEST SWAP2 POP PUSH2 0x3762 DUP3 PUSH2 0x3723 JUMP JUMPDEST PUSH1 0x1 DUP3 ADD SWAP1 POP SWAP2 SWAP1 POP JUMP JUMPDEST PUSH0 PUSH2 0x3777 DUP3 PUSH2 0x374B JUMP JUMPDEST SWAP2 POP DUP2 SWAP1 POP SWAP2 SWAP1 POP JUMP JUMPDEST PUSH32 0x496E76616C696420636F727265637420616E7377657200000000000000000000 PUSH0 DUP3 ADD MSTORE POP JUMP JUMPDEST PUSH0 PUSH2 0x37B5 PUSH1 0x16 DUP4 PUSH2 0x2986 JUMP JUMPDEST SWAP2 POP PUSH2 0x37C0 DUP3 PUSH2 0x3781 JUMP JUMPDEST PUSH1 0x20 DUP3 ADD SWAP1 POP SWAP2 SWAP1 POP JUMP JUMPDEST PUSH0 PUSH1 0x20 DUP3 ADD SWAP1 POP DUP2 DUP2 SUB PUSH0 DUP4 ADD MSTORE PUSH2 0x37E2 DUP2 PUSH2 0x37A9 JUMP JUMPDEST SWAP1 POP SWAP2 SWAP1 POP JUMP JUMPDEST PUSH32 0x5061757361626C653A2070617573656400000000000000000000000000000000 PUSH0 DUP3 ADD MSTORE POP JUMP JUMPDEST PUSH0 PUSH2 0x381D PUSH1 0x10 DUP4 PUSH2 0x2986 JUMP JUMPDEST SWAP2 POP PUSH2 0x3828 DUP3 PUSH2 0x37E9 JUMP JUMPDEST PUSH1 0x20 DUP3 ADD SWAP1 POP SWAP2 SWAP1 POP JUMP JUMPDEST PUSH0 PUSH1 0x20 DUP3 ADD SWAP1 POP DUP2 DUP2 SUB PUSH0 DUP4 ADD MSTORE PUSH2 0x384A DUP2 PUSH2 0x3811 JUMP JUMPDEST SWAP1 POP SWAP2 SWAP1 POP JUMP JUMPDEST PUSH32 0x5061757361626C653A206E6F7420706175736564000000000000000000000000 PUSH0 DUP3 ADD MSTORE POP JUMP JUMPDEST PUSH0 PUSH2 0x3885 PUSH1 0x14 DUP4 PUSH2 0x2986 JUMP JUMPDEST SWAP2 POP PUSH2 0x3890 DUP3 PUSH2 0x3851 JUMP JUMPDEST PUSH1 0x20 DUP3 ADD SWAP1 POP SWAP2 SWAP1 POP JUMP JUMPDEST PUSH0 PUSH1 0x20 DUP3 ADD SWAP1 POP DUP2 DUP2 SUB PUSH0 DUP4 ADD MSTORE PUSH2 0x38B2 DUP2 PUSH2 0x3879 JUMP JUMPDEST SWAP1 POP SWAP2 SWAP1 POP JUMP INVALID LOG2 PUSH5 0x6970667358 0x22 SLT KECCAK256 STATICCALL 0xC3 0xCB CODESIZE PUSH18 0xB01A2A6FE8285DC04398B6183BE611E2E414 0x29 PUSH18 0xF7FD9456C0C6CC64736F6C634300081A0033 "
				},
				"gasEstimates": {
					"creation": {
						"codeDepositCost": "2915000",
						"executionCost": "infinite",
						"totalCost": "infinite"
					},
					"external": {
						"CREATOR_REWARD_AMOUNT()": "391",
						"ENROLL_THRESHOLD()": "414",
						"PLATFORMTX()": "370",
						"POST_THRESHOLD()": "392",
						"STUDENT_REWARD_AMOUNT()": "435",
						"WITHDRAWAL_INTERVAL()": "437",
						"accumulatedFees()": "2559",
						"approveCourse(uint256)": "infinite",
						"attemptQuiz(uint256,string[])": "infinite",
						"courseCount()": "2514",
						"courseQuizzes(uint256,uint256)": "infinite",
						"courses(uint256)": "infinite",
						"createCourse(string,string[],string[],string[],string[],string[],string[])": "infinite",
						"enrollInCourse(uint256)": "infinite",
						"enrollments(address,uint256)": "infinite",
						"lastWithdrawalTime()": "2493",
						"owner()": "2604",
						"pause()": "infinite",
						"paused()": "2547",
						"renounceOwnership()": "infinite",
						"reputationContract()": "infinite",
						"transferOwnership(address)": "infinite",
						"unpause()": "infinite",
						"updateReputationContract(address)": "infinite",
						"w_PlatformFees()": "infinite"
					}
				},
				"methodIdentifiers": {
					"CREATOR_REWARD_AMOUNT()": "cf90b3be",
					"ENROLL_THRESHOLD()": "ae24f005",
					"PLATFORMTX()": "a4d8754a",
					"POST_THRESHOLD()": "a4e1f033",
					"STUDENT_REWARD_AMOUNT()": "fbf1aded",
					"WITHDRAWAL_INTERVAL()": "4c64c030",
					"accumulatedFees()": "587f5ed7",
					"approveCourse(uint256)": "75284998",
					"attemptQuiz(uint256,string[])": "5cb45cb5",
					"courseCount()": "66055159",
					"courseQuizzes(uint256,uint256)": "b0aaefd6",
					"courses(uint256)": "96f979d2",
					"createCourse(string,string[],string[],string[],string[],string[],string[])": "79370df3",
					"enrollInCourse(uint256)": "5e52da27",
					"enrollments(address,uint256)": "07f910f8",
					"lastWithdrawalTime()": "34a014dc",
					"owner()": "8da5cb5b",
					"pause()": "8456cb59",
					"paused()": "5c975abb",
					"renounceOwnership()": "715018a6",
					"reputationContract()": "87bc1425",
					"transferOwnership(address)": "f2fde38b",
					"unpause()": "3f4ba83a",
					"updateReputationContract(address)": "905baa61",
					"w_PlatformFees()": "15ba75f4"
				}
			},
			"storageLayout": {
				"storage": [
					{
						"astId": 8,
						"contract": "moonx/moonx.sol:DecentralLearning",
						"label": "_owner",
						"offset": 0,
						"slot": "0",
						"type": "t_address"
					},
					{
						"astId": 165,
						"contract": "moonx/moonx.sol:DecentralLearning",
						"label": "_paused",
						"offset": 20,
						"slot": "0",
						"type": "t_bool"
					},
					{
						"astId": 304,
						"contract": "moonx/moonx.sol:DecentralLearning",
						"label": "reputationContract",
						"offset": 0,
						"slot": "1",
						"type": "t_contract(IReputationContract)297"
					},
					{
						"astId": 324,
						"contract": "moonx/moonx.sol:DecentralLearning",
						"label": "lastWithdrawalTime",
						"offset": 0,
						"slot": "2",
						"type": "t_uint256"
					},
					{
						"astId": 326,
						"contract": "moonx/moonx.sol:DecentralLearning",
						"label": "accumulatedFees",
						"offset": 0,
						"slot": "3",
						"type": "t_uint256"
					},
					{
						"astId": 368,
						"contract": "moonx/moonx.sol:DecentralLearning",
						"label": "courses",
						"offset": 0,
						"slot": "4",
						"type": "t_mapping(t_uint256,t_struct(Course)339_storage)"
					},
					{
						"astId": 375,
						"contract": "moonx/moonx.sol:DecentralLearning",
						"label": "enrollments",
						"offset": 0,
						"slot": "5",
						"type": "t_mapping(t_address,t_mapping(t_uint256,t_struct(Enrollment)363_storage))"
					},
					{
						"astId": 381,
						"contract": "moonx/moonx.sol:DecentralLearning",
						"label": "courseQuizzes",
						"offset": 0,
						"slot": "6",
						"type": "t_mapping(t_uint256,t_array(t_struct(Quiz)354_storage)dyn_storage)"
					},
					{
						"astId": 383,
						"contract": "moonx/moonx.sol:DecentralLearning",
						"label": "courseCount",
						"offset": 0,
						"slot": "7",
						"type": "t_uint256"
					}
				],
				"types": {
					"t_address": {
						"encoding": "inplace",
						"label": "address",
						"numberOfBytes": "20"
					},
					"t_array(t_struct(Quiz)354_storage)dyn_storage": {
						"base": "t_struct(Quiz)354_storage",
						"encoding": "dynamic_array",
						"label": "struct DecentralLearning.Quiz[]",
						"numberOfBytes": "32"
					},
					"t_bool": {
						"encoding": "inplace",
						"label": "bool",
						"numberOfBytes": "1"
					},
					"t_bytes32": {
						"encoding": "inplace",
						"label": "bytes32",
						"numberOfBytes": "32"
					},
					"t_contract(IReputationContract)297": {
						"encoding": "inplace",
						"label": "contract IReputationContract",
						"numberOfBytes": "20"
					},
					"t_mapping(t_address,t_mapping(t_uint256,t_struct(Enrollment)363_storage))": {
						"encoding": "mapping",
						"key": "t_address",
						"label": "mapping(address => mapping(uint256 => struct DecentralLearning.Enrollment))",
						"numberOfBytes": "32",
						"value": "t_mapping(t_uint256,t_struct(Enrollment)363_storage)"
					},
					"t_mapping(t_uint256,t_array(t_struct(Quiz)354_storage)dyn_storage)": {
						"encoding": "mapping",
						"key": "t_uint256",
						"label": "mapping(uint256 => struct DecentralLearning.Quiz[])",
						"numberOfBytes": "32",
						"value": "t_array(t_struct(Quiz)354_storage)dyn_storage"
					},
					"t_mapping(t_uint256,t_struct(Course)339_storage)": {
						"encoding": "mapping",
						"key": "t_uint256",
						"label": "mapping(uint256 => struct DecentralLearning.Course)",
						"numberOfBytes": "32",
						"value": "t_struct(Course)339_storage"
					},
					"t_mapping(t_uint256,t_struct(Enrollment)363_storage)": {
						"encoding": "mapping",
						"key": "t_uint256",
						"label": "mapping(uint256 => struct DecentralLearning.Enrollment)",
						"numberOfBytes": "32",
						"value": "t_struct(Enrollment)363_storage"
					},
					"t_string_storage": {
						"encoding": "bytes",
						"label": "string",
						"numberOfBytes": "32"
					},
					"t_struct(Course)339_storage": {
						"encoding": "inplace",
						"label": "struct DecentralLearning.Course",
						"members": [
							{
								"astId": 328,
								"contract": "moonx/moonx.sol:DecentralLearning",
								"label": "creator",
								"offset": 0,
								"slot": "0",
								"type": "t_address"
							},
							{
								"astId": 330,
								"contract": "moonx/moonx.sol:DecentralLearning",
								"label": "metadataURI",
								"offset": 0,
								"slot": "1",
								"type": "t_string_storage"
							},
							{
								"astId": 332,
								"contract": "moonx/moonx.sol:DecentralLearning",
								"label": "approved",
								"offset": 0,
								"slot": "2",
								"type": "t_bool"
							},
							{
								"astId": 334,
								"contract": "moonx/moonx.sol:DecentralLearning",
								"label": "passedStudents",
								"offset": 0,
								"slot": "3",
								"type": "t_uint256"
							},
							{
								"astId": 336,
								"contract": "moonx/moonx.sol:DecentralLearning",
								"label": "totalRewarded",
								"offset": 0,
								"slot": "4",
								"type": "t_uint256"
							},
							{
								"astId": 338,
								"contract": "moonx/moonx.sol:DecentralLearning",
								"label": "totalEnrolled",
								"offset": 0,
								"slot": "5",
								"type": "t_uint256"
							}
						],
						"numberOfBytes": "192"
					},
					"t_struct(Enrollment)363_storage": {
						"encoding": "inplace",
						"label": "struct DecentralLearning.Enrollment",
						"members": [
							{
								"astId": 356,
								"contract": "moonx/moonx.sol:DecentralLearning",
								"label": "isEnrolled",
								"offset": 0,
								"slot": "0",
								"type": "t_bool"
							},
							{
								"astId": 358,
								"contract": "moonx/moonx.sol:DecentralLearning",
								"label": "attemptCount",
								"offset": 1,
								"slot": "0",
								"type": "t_uint8"
							},
							{
								"astId": 360,
								"contract": "moonx/moonx.sol:DecentralLearning",
								"label": "hasPassed",
								"offset": 2,
								"slot": "0",
								"type": "t_bool"
							},
							{
								"astId": 362,
								"contract": "moonx/moonx.sol:DecentralLearning",
								"label": "hasClaimedReward",
								"offset": 3,
								"slot": "0",
								"type": "t_bool"
							}
						],
						"numberOfBytes": "32"
					},
					"t_struct(Quiz)354_storage": {
						"encoding": "inplace",
						"label": "struct DecentralLearning.Quiz",
						"members": [
							{
								"astId": 341,
								"contract": "moonx/moonx.sol:DecentralLearning",
								"label": "courseId",
								"offset": 0,
								"slot": "0",
								"type": "t_uint256"
							},
							{
								"astId": 343,
								"contract": "moonx/moonx.sol:DecentralLearning",
								"label": "question",
								"offset": 0,
								"slot": "1",
								"type": "t_string_storage"
							},
							{
								"astId": 345,
								"contract": "moonx/moonx.sol:DecentralLearning",
								"label": "optionA",
								"offset": 0,
								"slot": "2",
								"type": "t_string_storage"
							},
							{
								"astId": 347,
								"contract": "moonx/moonx.sol:DecentralLearning",
								"label": "optionB",
								"offset": 0,
								"slot": "3",
								"type": "t_string_storage"
							},
							{
								"astId": 349,
								"contract": "moonx/moonx.sol:DecentralLearning",
								"label": "optionC",
								"offset": 0,
								"slot": "4",
								"type": "t_string_storage"
							},
							{
								"astId": 351,
								"contract": "moonx/moonx.sol:DecentralLearning",
								"label": "optionD",
								"offset": 0,
								"slot": "5",
								"type": "t_string_storage"
							},
							{
								"astId": 353,
								"contract": "moonx/moonx.sol:DecentralLearning",
								"label": "correctAnswerHash",
								"offset": 0,
								"slot": "6",
								"type": "t_bytes32"
							}
						],
						"numberOfBytes": "224"
					},
					"t_uint256": {
						"encoding": "inplace",
						"label": "uint256",
						"numberOfBytes": "32"
					},
					"t_uint8": {
						"encoding": "inplace",
						"label": "uint8",
						"numberOfBytes": "1"
					}
				}
			},
			"userdoc": {
				"kind": "user",
				"methods": {},
				"version": 1
			}
		}
	}
}